{"abi":[{"type":"constructor","inputs":[{"name":"collateral","type":"address","internalType":"address"}],"stateMutability":"nonpayable"},{"type":"function","name":"COLLATERAL","inputs":[],"outputs":[{"name":"","type":"address","internalType":"address"}],"stateMutability":"view"},{"type":"function","name":"counter1","inputs":[],"outputs":[{"name":"","type":"uint256","internalType":"uint256"}],"stateMutability":"view"},{"type":"function","name":"counter2","inputs":[],"outputs":[{"name":"","type":"uint256","internalType":"uint256"}],"stateMutability":"view"},{"type":"function","name":"counter3","inputs":[],"outputs":[{"name":"","type":"uint256","internalType":"uint256"}],"stateMutability":"view"},{"type":"function","name":"distribute","inputs":[],"outputs":[],"stateMutability":"nonpayable"},{"type":"function","name":"onSlash","inputs":[{"name":"subnetwork","type":"bytes32","internalType":"bytes32"},{"name":"operator","type":"address","internalType":"address"},{"name":"","type":"uint256","internalType":"uint256"},{"name":"","type":"uint48","internalType":"uint48"}],"outputs":[],"stateMutability":"nonpayable"},{"type":"error","name":"AddressEmptyCode","inputs":[{"name":"target","type":"address","internalType":"address"}]},{"type":"error","name":"AddressInsufficientBalance","inputs":[{"name":"account","type":"address","internalType":"address"}]},{"type":"error","name":"FailedInnerCall","inputs":[]},{"type":"error","name":"SafeERC20FailedOperation","inputs":[{"name":"token","type":"address","internalType":"address"}]}],"bytecode":{"object":"0x60a034606c57601f61048e38819003918201601f19168301916001600160401b03831184841017607157808492602094604052833981010312606c57516001600160a01b0381168103606c576080526040516104069081610088823960805181818160aa01526102480152f35b600080fd5b634e487b7160e01b600052604160045260246000fdfe60806040818152600436101561001457600080fd5b600091823560e01c90816301f7f299146102da57508063065c1e031461027757806324bbab8b14610234578063a17d256a14610216578063e4fc6b6d146100855763f722ff7e1461006457600080fd5b346100815781600319360112610081576020906002549051908152f35b5080fd5b503461008157816003193601126100815780516370a0823160e01b81523060048201527f00000000000000000000000000000000000000000000000000000000000000006001600160a01b0316919060209084908281602481885afa90811561020c5790829182916101db575b5084518481019163a9059cbb60e01b835233602483015260448201526044815261011b81610319565b519082875af13d156101cf573d9067ffffffffffffffff82116101bb57906101629184519161015385601f19601f840116018461034b565b82523d878584013e5b8561036d565b8051918215159182610192575b5050905061017b578280f35b602492505190635274afe760e01b82526004820152fd5b8092508193810103126101b75701518015908115036101b35780388061016f565b8380fd5b8480fd5b634e487b7160e01b86526041600452602486fd5b6101629060609061015c565b809250848092503d8311610205575b6101f4818361034b565b8101031261008157819051386100f2565b503d6101ea565b84513d84823e3d90fd5b50346100815781600319360112610081576020906001549051908152f35b5034610081578160031936011261008157517f00000000000000000000000000000000000000000000000000000000000000006001600160a01b03168152602090f35b82346102d75760803660031901126102d7576024356001600160a01b038116036102d75760643565ffffffffffff8116036102d7576102b681546102f4565b81556102c36001546102f4565b6001556102d16002546102f4565b60025580f35b80fd5b839034610081578160031936011261008157602091548152f35b60001981146103035760010190565b634e487b7160e01b600052601160045260246000fd5b6080810190811067ffffffffffffffff82111761033557604052565b634e487b7160e01b600052604160045260246000fd5b90601f8019910116810190811067ffffffffffffffff82111761033557604052565b90610394575080511561038257805190602001fd5b604051630a12f52160e11b8152600490fd5b815115806103c7575b6103a5575090565b604051639996b31560e01b81526001600160a01b039091166004820152602490fd5b50803b1561039d56fea26469706673582212209c04ebc3b1bc06d11e0f5e54c75d3f7a3546ac6239f552d7d30b163da6566a4864736f6c63430008190033","linkReferences":{}},"methodIdentifiers":{"COLLATERAL()":"24bbab8b","counter1()":"01f7f299","counter2()":"a17d256a","counter3()":"f722ff7e","distribute()":"e4fc6b6d","onSlash(bytes32,address,uint256,uint48)":"065c1e03"},"id":143}