{"abi":[{"type":"constructor","inputs":[{"name":"collateral","type":"address","internalType":"address"}],"stateMutability":"nonpayable"},{"type":"function","name":"COLLATERAL","inputs":[],"outputs":[{"name":"","type":"address","internalType":"address"}],"stateMutability":"view"},{"type":"function","name":"counter1","inputs":[],"outputs":[{"name":"","type":"uint256","internalType":"uint256"}],"stateMutability":"view"},{"type":"function","name":"counter2","inputs":[],"outputs":[{"name":"","type":"uint256","internalType":"uint256"}],"stateMutability":"view"},{"type":"function","name":"counter3","inputs":[],"outputs":[{"name":"","type":"uint256","internalType":"uint256"}],"stateMutability":"view"},{"type":"function","name":"distribute","inputs":[],"outputs":[],"stateMutability":"nonpayable"},{"type":"function","name":"onSlash","inputs":[{"name":"subnetwork","type":"bytes32","internalType":"bytes32"},{"name":"operator","type":"address","internalType":"address"},{"name":"","type":"uint256","internalType":"uint256"},{"name":"","type":"uint48","internalType":"uint48"}],"outputs":[],"stateMutability":"nonpayable"},{"type":"error","name":"AddressEmptyCode","inputs":[{"name":"target","type":"address","internalType":"address"}]},{"type":"error","name":"AddressInsufficientBalance","inputs":[{"name":"account","type":"address","internalType":"address"}]},{"type":"error","name":"FailedInnerCall","inputs":[]},{"type":"error","name":"SafeERC20FailedOperation","inputs":[{"name":"token","type":"address","internalType":"address"}]}],"bytecode":{"object":"0x60a034606c57601f61045438819003918201601f19168301916001600160401b03831184841017607057808492602094604052833981010312606c57516001600160a01b0381168103606c576080526040516103cf9081610085823960805181818160a601526102300152f35b5f80fd5b634e487b7160e01b5f52604160045260245ffdfe60806040908082526004361015610014575f80fd5b5f3560e01c90816301f7f299146102bd57508063065c1e031461025f57806324bbab8b1461021c578063a17d256a146101fe578063e4fc6b6d146100815763f722ff7e14610060575f80fd5b3461007d575f36600319011261007d576020906002549051908152f35b5f80fd5b503461007d575f36600319011261007d5780516370a0823160e01b81523060048201527f00000000000000000000000000000000000000000000000000000000000000006001600160a01b0316906020908181602481865afa9081156101f4575f916101c7575b505f809185518481019163a9059cbb60e01b8352336024830152604482015260448152610114816102f8565b519082865af13d156101bb573d67ffffffffffffffff81116101a7576101599185519161014a85601f19601f8401160184610314565b82523d5f8584013e5b84610336565b8051918215159182610186575b5050905061017057005b6024915190635274afe760e01b82526004820152fd5b80925081938101031261007d57015180159081150361007d57805f80610166565b634e487b7160e01b5f52604160045260245ffd5b61015990606090610153565b90508181813d83116101ed575b6101de8183610314565b8101031261007d57515f6100e8565b503d6101d4565b84513d5f823e3d90fd5b503461007d575f36600319011261007d576020906001549051908152f35b503461007d575f36600319011261007d57517f00000000000000000000000000000000000000000000000000000000000000006001600160a01b03168152602090f35b3461007d57608036600319011261007d576024356001600160a01b0381160361007d5760643565ffffffffffff81160361007d5761029d5f546102d6565b5f556102aa6001546102d6565b6001556102b86002546102d6565b600255005b3461007d575f36600319011261007d576020905f548152f35b5f1981146102e45760010190565b634e487b7160e01b5f52601160045260245ffd5b6080810190811067ffffffffffffffff8211176101a757604052565b90601f8019910116810190811067ffffffffffffffff8211176101a757604052565b9061035d575080511561034b57805190602001fd5b604051630a12f52160e11b8152600490fd5b81511580610390575b61036e575090565b604051639996b31560e01b81526001600160a01b039091166004820152602490fd5b50803b1561036656fea264697066735822122039adfc940054ab0da3d186c59b24b5808410594bcac94f3ad40dc337794d7a5864736f6c63430008190033","linkReferences":{}},"methodIdentifiers":{"COLLATERAL()":"24bbab8b","counter1()":"01f7f299","counter2()":"a17d256a","counter3()":"f722ff7e","distribute()":"e4fc6b6d","onSlash(bytes32,address,uint256,uint48)":"065c1e03"},"id":153}