{"abi":[{"type":"constructor","inputs":[{"name":"owner_","type":"address","internalType":"address"}],"stateMutability":"nonpayable"},{"type":"function","name":"blacklist","inputs":[{"name":"type_","type":"uint64","internalType":"uint64"}],"outputs":[],"stateMutability":"nonpayable"},{"type":"function","name":"blacklisted","inputs":[{"name":"type_","type":"uint64","internalType":"uint64"}],"outputs":[{"name":"value","type":"bool","internalType":"bool"}],"stateMutability":"view"},{"type":"function","name":"create","inputs":[{"name":"type_","type":"uint64","internalType":"uint64"},{"name":"data","type":"bytes","internalType":"bytes"}],"outputs":[{"name":"entity_","type":"address","internalType":"address"}],"stateMutability":"nonpayable"},{"type":"function","name":"entity","inputs":[{"name":"index","type":"uint256","internalType":"uint256"}],"outputs":[{"name":"","type":"address","internalType":"address"}],"stateMutability":"view"},{"type":"function","name":"implementation","inputs":[{"name":"type_","type":"uint64","internalType":"uint64"}],"outputs":[{"name":"","type":"address","internalType":"address"}],"stateMutability":"view"},{"type":"function","name":"isEntity","inputs":[{"name":"entity_","type":"address","internalType":"address"}],"outputs":[{"name":"","type":"bool","internalType":"bool"}],"stateMutability":"view"},{"type":"function","name":"owner","inputs":[],"outputs":[{"name":"","type":"address","internalType":"address"}],"stateMutability":"view"},{"type":"function","name":"renounceOwnership","inputs":[],"outputs":[],"stateMutability":"nonpayable"},{"type":"function","name":"totalEntities","inputs":[],"outputs":[{"name":"","type":"uint256","internalType":"uint256"}],"stateMutability":"view"},{"type":"function","name":"totalTypes","inputs":[],"outputs":[{"name":"","type":"uint64","internalType":"uint64"}],"stateMutability":"view"},{"type":"function","name":"transferOwnership","inputs":[{"name":"newOwner","type":"address","internalType":"address"}],"outputs":[],"stateMutability":"nonpayable"},{"type":"function","name":"whitelist","inputs":[{"name":"implementation_","type":"address","internalType":"address"}],"outputs":[],"stateMutability":"nonpayable"},{"type":"event","name":"AddEntity","inputs":[{"name":"entity","type":"address","indexed":true,"internalType":"address"}],"anonymous":false},{"type":"event","name":"Blacklist","inputs":[{"name":"type_","type":"uint64","indexed":true,"internalType":"uint64"}],"anonymous":false},{"type":"event","name":"OwnershipTransferred","inputs":[{"name":"previousOwner","type":"address","indexed":true,"internalType":"address"},{"name":"newOwner","type":"address","indexed":true,"internalType":"address"}],"anonymous":false},{"type":"event","name":"Whitelist","inputs":[{"name":"implementation","type":"address","indexed":true,"internalType":"address"}],"anonymous":false},{"type":"error","name":"AlreadyBlacklisted","inputs":[]},{"type":"error","name":"AlreadyWhitelisted","inputs":[]},{"type":"error","name":"ERC1167FailedCreateClone","inputs":[]},{"type":"error","name":"EntityNotExist","inputs":[]},{"type":"error","name":"InvalidImplementation","inputs":[]},{"type":"error","name":"InvalidType","inputs":[]},{"type":"error","name":"OwnableInvalidOwner","inputs":[{"name":"owner","type":"address","internalType":"address"}]},{"type":"error","name":"OwnableUnauthorizedAccount","inputs":[{"name":"account","type":"address","internalType":"address"}]}],"bytecode":{"object":"0x60803460b757601f610a1338819003918201601f19168301916001600160401b0383118484101760bc5780849260209460405283398101031260b757516001600160a01b03908181169081900360b7578015609e57600280546001600160a01b03198116831790915560405192167f8be0079c531659141344cd1fd0a4f28419497f9722a3daafe3b4186f6b6457e0600080a361094090816100d38239f35b604051631e4fbdf760e01b815260006004820152602490fd5b600080fd5b634e487b7160e01b600052604160045260246000fdfe608060408181526004918236101561001657600080fd5b600092833560e01c91826314887c58146106d2575081635cd8b15e146106b5578163715018a6146106585781638da5cb5b1461062f5781639b19251a146104a8578163b42ba2a21461043c578163b572a96614610394578163b6caa11914610357578163cd108ef8146101a9578163f15df2e51461017e578163f2fde38b146100e2575063f9661602146100a957600080fd5b346100de5760203660031901126100de576020906100cd6100c861070b565b610780565b90516001600160a01b039091168152f35b5080fd5b9190503461017a57602036600319011261017a576001600160a01b03823581811693919290849003610176576101166107de565b8315610160575050600254826bffffffffffffffffffffffff60a01b821617600255167f8be0079c531659141344cd1fd0a4f28419497f9722a3daafe3b4186f6b6457e08380a380f35b51631e4fbdf760e01b8152908101849052602490fd5b8480fd5b8280fd5b8284346101a657806003193601126101a6575067ffffffffffffffff60209254169051908152f35b80fd5b8383346100de57806003193601126100de576101c361070b565b6024359267ffffffffffffffff8085116100de57366023860112156100de57848601359281841161017a576024860195602485369201011161017a576e5af43d82803e903d91602b57fd5bf361021882610780565b918454908488519160208301938452168882015260608082015261025281610244608082018a8d61075f565b03601f198101835282610727565b519020608883901c62ffffff16763d602d80600a3d3981f3363d3d373d3d3d363d7300000017855260789290921b176020526001600160a01b03906037600985f516948515610347576102a4866108a2565b50845193867fb919910dcefbf753bfd926ab3b1d3f85d877190c3d01ba1bd585047b99b99f0b8580a2863b1561034357846102f68593829363439fab9160e01b845260208c850152602484019161075f565b038183895af1801561033957610311575b6020858551908152f35b82116103265750602093508152838080610307565b634e487b7160e01b815260418552602490fd5b84513d84823e3d90fd5b8380fd5b84516330be1a3d60e21b81528790fd5b5050346100de5760203660031901126100de5760ff8160209367ffffffffffffffff61038161070b565b1681526003855220541690519015158152f35b9190503461017a57602036600319011261017a576103b061070b565b916103b96107de565b67ffffffffffffffff8082541693169283101561042e57828452600360205260ff8285205416610420575081835260036020528220805460ff191660011790557ffc8245c2838846b295ae66fbe0d08e20c799b737c93b56f7b209df2e5fa2d4588280a280f35b905163f53de75f60e01b8152fd5b905163b968846160e01b8152fd5b8284346101a65760203660031901126101a65782359080548210156104955780527f290decd9548b62a8d60345a988386fc84ba6bc95484008f6362f93160ef3e563015490516001600160a01b03909116815260209150f35b634e487b7160e01b815260328452602490fd5b90503461017a57602091826003193601126103435781356001600160a01b03818116949185900361062b576104db6107de565b82516202dd3160ec1b81529082828681895afa9182156106215787926105e5575b501630148015919061055f575b50610552576105178361080a565b156105455750507feb73900b98b6a3e2b8b01708fe544760cf570d21e7fbe5225f24e48b5b2b432e8280a280f35b5163b73e95e160e01b8152fd5b5163340aafcd60e11b8152fd5b8251635d927f4560e11b815290915081818581885afa9182156105db57869261059c575b505067ffffffffffffffff808454169116141538610509565b90809250813d83116105d4575b6105b38183610727565b81010312610176575167ffffffffffffffff81168103610176573880610583565b503d6105a9565b83513d88823e3d90fd5b9091508281813d831161061a575b6105fd8183610727565b81010312610616575181811681036106165790386104fc565b8680fd5b503d6105f3565b84513d89823e3d90fd5b8580fd5b5050346100de57816003193601126100de5760025490516001600160a01b039091168152602090f35b83346101a657806003193601126101a6576106716107de565b600280546001600160a01b0319811690915581906001600160a01b03167f8be0079c531659141344cd1fd0a4f28419497f9722a3daafe3b4186f6b6457e08280a380f35b5050346100de57816003193601126100de57602091549051908152f35b9291503461034357602036600319011261034357356001600160a01b038116908190036103435792602093815260018452205415158152f35b6004359067ffffffffffffffff8216820361072257565b600080fd5b90601f8019910116810190811067ffffffffffffffff82111761074957604052565b634e487b7160e01b600052604160045260246000fd5b908060209392818452848401376000828201840152601f01601f1916010190565b67ffffffffffffffff166004548110156107c85760046000527f8a35acfbc15ff81a39ae7d344fd709f28e8600b4aa8c65c6b64bfe7fe36bd19b01546001600160a01b031690565b634e487b7160e01b600052603260045260246000fd5b6002546001600160a01b031633036107f257565b60405163118cdaa760e01b8152336004820152602490fd5b60008181526005602052604081205461089d57600454600160401b8110156108895760018101806004558110156108755790826040927f8a35acfbc15ff81a39ae7d344fd709f28e8600b4aa8c65c6b64bfe7fe36bd19b015560045492815260056020522055600190565b634e487b7160e01b82526032600452602482fd5b634e487b7160e01b82526041600452602482fd5b905090565b60008181526001602052604081205461089d578054600160401b81101561088957600181018083558110156108755790826040927f290decd9548b62a8d60345a988386fc84ba6bc95484008f6362f93160ef3e563015580549281526001602052205560019056fea26469706673582212205b8b4a244dde53477c23f2d3c361e940aa6f286b9a32418db83e1fded5996b0f64736f6c63430008190033","linkReferences":{}},"methodIdentifiers":{"blacklist(uint64)":"b572a966","blacklisted(uint64)":"b6caa119","create(uint64,bytes)":"cd108ef8","entity(uint256)":"b42ba2a2","implementation(uint64)":"f9661602","isEntity(address)":"14887c58","owner()":"8da5cb5b","renounceOwnership()":"715018a6","totalEntities()":"5cd8b15e","totalTypes()":"f15df2e5","transferOwnership(address)":"f2fde38b","whitelist(address)":"9b19251a"},"id":61}