{"abi":[{"type":"constructor","inputs":[{"name":"networkRegistry","type":"address","internalType":"address"}],"stateMutability":"nonpayable"},{"type":"function","name":"NETWORK_REGISTRY","inputs":[],"outputs":[{"name":"","type":"address","internalType":"address"}],"stateMutability":"view"},{"type":"function","name":"middleware","inputs":[{"name":"network","type":"address","internalType":"address"}],"outputs":[{"name":"value","type":"address","internalType":"address"}],"stateMutability":"view"},{"type":"function","name":"setMiddleware","inputs":[{"name":"middleware_","type":"address","internalType":"address"}],"outputs":[],"stateMutability":"nonpayable"},{"type":"event","name":"SetMiddleware","inputs":[{"name":"network","type":"address","indexed":true,"internalType":"address"},{"name":"middleware","type":"address","indexed":false,"internalType":"address"}],"anonymous":false},{"type":"error","name":"AlreadySet","inputs":[]},{"type":"error","name":"NotNetwork","inputs":[]}],"bytecode":{"object":"0x60a034606c57601f6102ef38819003918201601f19168301916001600160401b03831184841017607157808492602094604052833981010312606c57516001600160a01b0381168103606c5760805260405161026790816100888239608051818181605901526101120152f35b600080fd5b634e487b7160e01b600052604160045260246000fdfe608060408181526004918236101561001657600080fd5b600092833560e01c918263b7d8e1a9146100d057508163bb5ed0321461008c575063c0cd7c3e1461004657600080fd5b34610088578160031936011261008857517f00000000000000000000000000000000000000000000000000000000000000006001600160a01b03168152602090f35b5080fd5b9050346100cc5760203660031901126100cc576001600160a01b039035818116908190036100c857838391602095528085522054169051908152f35b8380fd5b8280fd5b849184346100c8576020918260031936011261022d576001600160a01b0381358181169590869003610205576302910f8b60e31b8152338382015284816024817f000000000000000000000000000000000000000000000000000000000000000086165afa9081156102235787916101bf575b50156101b057338652858452828620541684146101a257503380855284835281852080546001600160a01b031916851790559051928352917ff64e2a8734392e221de13f5e56deb22d308e292cad394052affa97dbaf41ec989190a280f35b905163a741a04560e01b8152fd5b5090516323d53b9760e21b8152fd5b9050843d861161021c575b601f8101601f1916820167ffffffffffffffff8111838210176102095786918391875281010312610205575180151581036102055787610143565b8680fd5b634e487b7160e01b895260418552602489fd5b503d6101ca565b84513d89823e3d90fd5b8480fdfea2646970667358221220d3a5bb51e2c97a0dbbe8a1e8099c5e183f8a18f5be5a699a0217c9e9b3db5d8264736f6c63430008190033","linkReferences":{}},"methodIdentifiers":{"NETWORK_REGISTRY()":"c0cd7c3e","middleware(address)":"bb5ed032","setMiddleware(address)":"b7d8e1a9"},"id":87}