{"abi":[{"type":"constructor","inputs":[{"name":"vaultFactory","type":"address","internalType":"address"},{"name":"networkMiddlewareService","type":"address","internalType":"address"},{"name":"slasherFactory","type":"address","internalType":"address"},{"name":"entityType","type":"uint64","internalType":"uint64"}],"stateMutability":"nonpayable"},{"type":"function","name":"BURNER_GAS_LIMIT","inputs":[],"outputs":[{"name":"","type":"uint256","internalType":"uint256"}],"stateMutability":"view"},{"type":"function","name":"BURNER_RESERVE","inputs":[],"outputs":[{"name":"","type":"uint256","internalType":"uint256"}],"stateMutability":"view"},{"type":"function","name":"FACTORY","inputs":[],"outputs":[{"name":"","type":"address","internalType":"address"}],"stateMutability":"view"},{"type":"function","name":"NETWORK_MIDDLEWARE_SERVICE","inputs":[],"outputs":[{"name":"","type":"address","internalType":"address"}],"stateMutability":"view"},{"type":"function","name":"TYPE","inputs":[],"outputs":[{"name":"","type":"uint64","internalType":"uint64"}],"stateMutability":"view"},{"type":"function","name":"VAULT_FACTORY","inputs":[],"outputs":[{"name":"","type":"address","internalType":"address"}],"stateMutability":"view"},{"type":"function","name":"cumulativeSlash","inputs":[{"name":"subnetwork","type":"bytes32","internalType":"bytes32"},{"name":"operator","type":"address","internalType":"address"}],"outputs":[{"name":"","type":"uint256","internalType":"uint256"}],"stateMutability":"view"},{"type":"function","name":"cumulativeSlashAt","inputs":[{"name":"subnetwork","type":"bytes32","internalType":"bytes32"},{"name":"operator","type":"address","internalType":"address"},{"name":"timestamp","type":"uint48","internalType":"uint48"},{"name":"hint","type":"bytes","internalType":"bytes"}],"outputs":[{"name":"","type":"uint256","internalType":"uint256"}],"stateMutability":"view"},{"type":"function","name":"initialize","inputs":[{"name":"data","type":"bytes","internalType":"bytes"}],"outputs":[],"stateMutability":"nonpayable"},{"type":"function","name":"isBurnerHook","inputs":[],"outputs":[{"name":"","type":"bool","internalType":"bool"}],"stateMutability":"view"},{"type":"function","name":"latestSlashedCaptureTimestamp","inputs":[{"name":"subnetwork","type":"bytes32","internalType":"bytes32"},{"name":"operator","type":"address","internalType":"address"}],"outputs":[{"name":"value","type":"uint48","internalType":"uint48"}],"stateMutability":"view"},{"type":"function","name":"slash","inputs":[{"name":"subnetwork","type":"bytes32","internalType":"bytes32"},{"name":"operator","type":"address","internalType":"address"},{"name":"amount","type":"uint256","internalType":"uint256"},{"name":"captureTimestamp","type":"uint48","internalType":"uint48"},{"name":"hints","type":"bytes","internalType":"bytes"}],"outputs":[{"name":"slashedAmount","type":"uint256","internalType":"uint256"}],"stateMutability":"nonpayable"},{"type":"function","name":"slashableStake","inputs":[{"name":"subnetwork","type":"bytes32","internalType":"bytes32"},{"name":"operator","type":"address","internalType":"address"},{"name":"captureTimestamp","type":"uint48","internalType":"uint48"},{"name":"hints","type":"bytes","internalType":"bytes"}],"outputs":[{"name":"amount","type":"uint256","internalType":"uint256"}],"stateMutability":"view"},{"type":"function","name":"staticDelegateCall","inputs":[{"name":"target","type":"address","internalType":"address"},{"name":"data","type":"bytes","internalType":"bytes"}],"outputs":[],"stateMutability":"nonpayable"},{"type":"function","name":"vault","inputs":[],"outputs":[{"name":"","type":"address","internalType":"address"}],"stateMutability":"view"},{"type":"event","name":"Initialized","inputs":[{"name":"version","type":"uint64","indexed":false,"internalType":"uint64"}],"anonymous":false},{"type":"event","name":"Slash","inputs":[{"name":"subnetwork","type":"bytes32","indexed":true,"internalType":"bytes32"},{"name":"operator","type":"address","indexed":true,"internalType":"address"},{"name":"slashedAmount","type":"uint256","indexed":false,"internalType":"uint256"},{"name":"captureTimestamp","type":"uint48","indexed":false,"internalType":"uint48"}],"anonymous":false},{"type":"error","name":"CheckpointUnorderedInsertion","inputs":[]},{"type":"error","name":"InsufficientBurnerGas","inputs":[]},{"type":"error","name":"InsufficientSlash","inputs":[]},{"type":"error","name":"InvalidCaptureTimestamp","inputs":[]},{"type":"error","name":"InvalidInitialization","inputs":[]},{"type":"error","name":"NoBurner","inputs":[]},{"type":"error","name":"NotInitialized","inputs":[]},{"type":"error","name":"NotInitializing","inputs":[]},{"type":"error","name":"NotNetworkMiddleware","inputs":[]},{"type":"error","name":"NotVault","inputs":[]},{"type":"error","name":"ReentrancyGuardReentrantCall","inputs":[]},{"type":"error","name":"SafeCastOverflowedUintDowncast","inputs":[{"name":"bits","type":"uint8","internalType":"uint8"},{"name":"value","type":"uint256","internalType":"uint256"}]}],"bytecode":{"object":"0x6101003461015857601f611e4038819003918201601f1916830192916001600160401b03918285118486101761015c5781608092859260409788528339810103126101585761004d82610170565b9061005a60208401610170565b926060610068868301610170565b910151918083168303610158577ff0c57e16840df040f15088dc2f81fe391c3923bec73e23a9662efc9c229c6a009081549060ff82891c16610147578080831603610103575b50505060805260a05260c05260e05251611cbb908161018582396080518161044a015260a0518181816108500152611194015260c0518181816102fd01526114c4015260e0518181816101fc01526104060152f35b6001600160401b0319909116811790915585519081527fc7f505b2f371ae2175ee4913f4499e1f2633a7b5936321eed1cdaeb6115181d290602090a15f80806100ae565b875163f92ee8a960e01b8152600490fd5b5f80fd5b634e487b7160e01b5f52604160045260245ffd5b51906001600160a01b03821682036101585756fe60806040526004361015610011575f80fd5b5f3560e01c8063021a815614610104578063103f2907146100ff5780631a2be2c4146100fa578063267de1f3146100f55780632964f8dc146100f05780632c9d45b3146100eb5780632dd31000146100e657806334d098ea146100e1578063439fab91146100dc5780639f86fd85146100d7578063aa8e6489146100d2578063aab3595f146100cd578063bb24fe8a146100c8578063d5c24e1a146100c35763fbfa77cf146100be575f80fd5b610891565b610874565b610831565b61080c565b6107ce565b6105d5565b61049d565b610479565b610435565b6103f1565b6103d5565b610380565b61032c565b6102e8565b61015b565b6001600160a01b0381160361011a57565b5f80fd5b65ffffffffffff81160361011a57565b9181601f8401121561011a578235916001600160401b03831161011a576020838186019501011161011a57565b3461011a5760a036600319011261011a5760043560243561017b81610109565b6064356101878161011e565b6084356001600160401b03811161011a576101a690369060040161012e565b917f9b779b17422d0df92223018b32b4d1fa46e071723d6817e2486d003becc55f0060028154146102cc5760029055604051635daf681960e11b8152606086901c60048201526001600160a01b036020826024817f000000000000000000000000000000000000000000000000000000000000000085165afa9182156102c7575f92610296575b50339116036102845761028094610247946044359161096a565b61027060017f9b779b17422d0df92223018b32b4d1fa46e071723d6817e2486d003becc55f0055565b6040519081529081906020820190565b0390f35b60405163227bf64d60e01b8152600490fd5b6102b991925060203d6020116102c0575b6102b181836106f1565b810190610bc0565b905f61022d565b503d6102a7565b61092e565b604051633ee5aeb560e01b8152600490fd5b5f91031261011a57565b3461011a575f36600319011261011a576040517f00000000000000000000000000000000000000000000000000000000000000006001600160a01b03168152602090f35b3461011a57604036600319011261011a57602061037861037360243561035181610109565b6004355f526002845260405f209060018060a01b03165f5260205260405f2090565b6113e3565b604051908152f35b3461011a57604036600319011261011a57602065ffffffffffff6103cb6024356103a981610109565b6004355f526001845260405f209060018060a01b03165f5260205260405f2090565b5416604051908152f35b3461011a575f36600319011261011a576020604051614e208152f35b3461011a575f36600319011261011a576040517f00000000000000000000000000000000000000000000000000000000000000006001600160a01b03168152602090f35b3461011a575f36600319011261011a576040517f00000000000000000000000000000000000000000000000000000000000000006001600160a01b03168152602090f35b3461011a575f36600319011261011a57602060ff5f5460a01c166040519015158152f35b3461011a57602036600319011261011a576001600160401b0360043581811161011a576104ce90369060040161012e565b5f80516020611c66833981519152549260ff8460401c16159316801590816105cd575b60011490816105c3575b1590816105ba575b506105a8575f80516020611c66833981519152805467ffffffffffffffff1916600117905561053691836105845761148d565b61053c57005b5f80516020611c66833981519152805460ff60401b19169055604051600181527fc7f505b2f371ae2175ee4913f4499e1f2633a7b5936321eed1cdaeb6115181d290602090a1005b5f80516020611c66833981519152805460ff60401b1916600160401b17905561148d565b60405163f92ee8a960e01b8152600490fd5b9050155f610503565b303b1591506104fb565b8491506104f1565b3461011a5760408060031936011261011a576004356105f381610109565b602435906001600160401b03821161011a575f809161061961067d94369060040161012e565b908187519283928337810184815203915af43d156106855761066f3d61063e81610721565b9061064b865192836106f1565b81523d5f602083013e5b845194859315156020850152808401526060830190610b70565b03601f1981018352826106f1565b805190602001fd5b61066f6060610655565b634e487b7160e01b5f52604160045260245ffd5b602081019081106001600160401b038211176106be57604052565b61068f565b604081019081106001600160401b038211176106be57604052565b6001600160401b0381116106be57604052565b90601f801991011681019081106001600160401b038211176106be57604052565b6040519061071f826106c3565b565b6001600160401b0381116106be57601f01601f191660200190565b81601f8201121561011a5780359061075382610721565b9261076160405194856106f1565b8284526020838301011161011a57815f926020809301838601378301015290565b90608060031983011261011a576004359160243561079f81610109565b916044356107ac8161011e565b91606435906001600160401b03821161011a576107cb9160040161073c565b90565b3461011a5760206103786108076107e436610782565b939190925f526002865260405f209060018060a01b03165f5260205260405f2090565b611627565b3461011a57602061082861081f36610782565b92919091610d00565b50604051908152f35b3461011a575f36600319011261011a5760206040516001600160401b037f0000000000000000000000000000000000000000000000000000000000000000168152f35b3461011a575f36600319011261011a576020604051620249f08152f35b3461011a575f36600319011261011a575f546040516001600160a01b039091168152602090f35b604051906108c5826106a3565b60608252565b9060208282031261011a5781356001600160401b039283821161011a57019060208282031261011a5760405192610901846106a3565b823590811161011a57610914920161073c565b815290565b9081602091031261011a57516107cb8161011e565b6040513d5f823e3d90fd5b634e487b7160e01b5f52601160045260245ffd5b65ffffffffffff918216908216039190821161096557565b610939565b929395949190956109796108b8565b9280610b5a575b505061098b426116ff565b5f546004906020906109b3906109a7906001600160a01b031681565b6001600160a01b031690565b6040516327f843b560e11b815292839182905afa80156102c7576109ed926109e2925f92610b29575b5061094d565b65ffffffffffff1690565b65ffffffffffff8516908110908115610b13575b50610b0157610a16610a259251858886610d00565b92909180831890831102821890565b958615610aef57610aaa61066f610aa1610aea947fe0cbbe1f1e6fd806ca87036fafcebaf7ab5247474a3b20e1c37bb50122c3a88496610a668a878b610f36565b610a718c878b610fc4565b610a79610712565b9182526020820152604051928391602083019190916020806040830194805184520151910152565b86898488611130565b610ab48588611239565b610ac0858883876112be565b6040805188815265ffffffffffff90961660208701526001600160a01b0390911694918291820190565b0390a3565b60405163167f871760e31b8152600490fd5b604051631357ac9160e11b8152600490fd5b9050610b216109e2426116ff565b11155f610a01565b610b4c91925060203d602011610b53575b610b4481836106f1565b810190610919565b905f6109dc565b503d610b3a565b610b689293508101906108cb565b905f80610980565b805180835260209291819084018484015e5f828201840152601f01601f1916010190565b5f9081526002602090815260408083206001600160a01b039094168352929052206107cb929190611627565b9081602091031261011a57516107cb81610109565b60405190610be2826106c3565b60606020838281520152565b81601f8201121561011a57805190610c0582610721565b92610c1360405194856106f1565b8284526020838301011161011a57815f9260208093018386015e8301015290565b9060208282031261011a5781516001600160401b039283821161011a57019060408282031261011a5760405192610c6a846106c3565b825181811161011a5782610c7f918501610bee565b8452602083015190811161011a57610c979201610bee565b602082015290565b9081602091031261011a575190565b9081526001600160a01b03909116602082015265ffffffffffff90911660408201526080606082018190526107cb92910190610b70565b5f1981019190821161096557565b9190820391821161096557565b92610d09610bd5565b90805180610f1c575b5050610d1d426116ff565b5f54909490610d36906109a7906001600160a01b031681565b93604051956327f843b560e11b875260209687816004818a5afa80156102c757610d6a926109e2925f92610f04575061094d565b65ffffffffffff8216908110908115610eed575b8115610ebc575b50610eb0578560049560405196878092630ce9b79360e41b82525afa9485156102c757610dd79587915f91610e93575b50845190604051808099819463e02f693760e01b8352878b8a60048601610cae565b03916001600160a01b03165afa9384156102c757610e4f955f95610e52575b5092610e3e8593610e4493610e3e96869a610e3561037383610e20875f52600260205260405f2090565b9060018060a01b03165f5260205260405f2090565b95015192610b94565b90610cf3565b818082109118021890565b91565b610e44929550610e3e949193610e80610e3e928a3d8c11610e8c575b610e7881836106f1565b810190610c9f565b96935093919450610df6565b503d610e6e565b610eaa9150823d84116102c0576102b181836106f1565b5f610db5565b5050505050505f905f90565b9050610ee66109e2610eda87610e20875f52600160205260405f2090565b5465ffffffffffff1690565b115f610d85565b9050610efb6109e2426116ff565b81101590610d7e565b610b4c9192508a3d8c11610b5357610b4481836106f1565b610f2f9250602080918301019101610c34565b5f80610d12565b919091805f52600160205265ffffffffffff80610f668560405f209060018060a01b03165f5260205260405f2090565b541690831611610f7557505050565b61071f92610f9d915f52600160205260405f209060018060a01b03165f5260205260405f2090565b9065ffffffffffff1665ffffffffffff19825416179055565b906001820180921161096557565b9190825f52600260205261101c610373610ff18360405f209060018060a01b03165f5260205260405f2090565b92610ffb426116ff565b955f52600260205260405f209060018060a01b03165f5260205260405f2090565b9182018092116109655760018101908154156110c0575b61103c8161193d565b50949083549561104b846113e3565b50816110ab575b501561108a5750505f1983019283116109655761071f92611072916113ba565b90919082549060031b91821b915f19901b1916179055565b61071f946110a4926001600160d01b0390911691906119fe565b505061175e565b65ffffffffffff83811691161490505f611052565b6110c982611731565b611033565b606060206107cb938184526001600160401b03815116828501520151916040808201520190610b70565b919360a0936107cb969565ffffffffffff938552600180871b0316602085015260408401521660608201528160808201520190610b70565b9293906004602061114d6109a76109a75f5460018060a01b031690565b604051630ce9b79360e41b815292839182905afa9081156102c75761066f916111cb915f9161121a575b506001600160a01b03169361118a610712565b6001600160401b037f0000000000000000000000000000000000000000000000000000000000000000168152906020820152604051928391602083016110ce565b823b1561011a575f946111f686926040519889978896879563724ab0f760e11b8752600487016110f8565b03925af180156102c7576112075750565b8061121461071f926106de565b806102de565b611233915060203d6020116102c0576102b181836106f1565b5f611177565b5f8054604051631c9e38c760e21b8152600481019390935265ffffffffffff9390931660248301529091602091839160449183916001600160a01b03165af180156102c7576112855750565b61129d9060203d602011610e8c57610e7881836106f1565b50565b81156112aa570490565b634e487b7160e01b5f52601260045260245ffd5b92905f549060ff8260a01c166112d6575b5050505050565b6040516313c085b760e11b815291602090839060049082906001600160a01b03165afa9182156102c7575f92611393575b5060405163065c1e0360e01b6020820190815260248201969096526001600160a01b039091166044820152606481019390935265ffffffffffff90911660848301526113608260a481015b03601f1981018452836106f1565b6202a15c5a10611381575f928380935192620249f0f1505f808080806112cf565b604051632153f33560e21b8152600490fd5b61136092506113b36113529160203d6020116102c0576102b181836106f1565b9250611307565b80548210156113cf575f5260205f2001905f90565b634e487b7160e01b5f52603260045260245ffd5b80548061141857505f5b6001600160d01b0381161561141257600161140892016113ba565b90549060031b1c90565b50505f90565b5f1990808281011161096557825f5260205f2001015460301c6113ed565b91909160408184031261011a57803561144e81610109565b9260208201356001600160401b03811161011a576107cb920161073c565b5190811515820361011a57565b9081602091031261011a576107cb9061146c565b61149991810190611436565b6040516302910f8b60e31b81526001600160a01b0392831660048201819052929160209182816024817f000000000000000000000000000000000000000000000000000000000000000088165afa9081156102c7575f916115c9575b50156115b7578161152960049261150a611781565b5f80546001600160a01b0319166001600160a01b0389161790556117b7565b94604051928380926313c085b760e11b82525afa9182156102c7575f9261159a575b5050161580611590575b61157e575161071f9015155f805460ff60a01b191691151560a01b60ff60a01b16919091179055565b60405163d2420f5960e01b8152600490fd5b5080511515611555565b6115b09250803d106102c0576102b181836106f1565b5f8061154b565b6040516362df054560e01b8152600490fd5b6115e99150833d85116115ef575b6115e181836106f1565b810190611479565b5f6114f5565b503d6115d7565b9081602091031261011a575163ffffffff8116810361011a5790565b90600163ffffffff8093160191821161096557565b918051156116f55780602080611642935183010191016115f6565b9161164d83826118cf565b9261165e845165ffffffffffff1690565b9065ffffffffffff80851692168281146116e95782119182611694575b505061168b576107cb92506117ff565b50506020015190565b9091506116a18354610ce5565b63ffffffff8316149182156116ba575b50505f8061167b565b6116e19192506116d56116cf6109e292611612565b856118cf565b5165ffffffffffff1690565b115f806116b1565b50505050506020015190565b506107cb916117ff565b65ffffffffffff90818111611712571690565b604490604051906306dfcc6560e41b8252603060048301526024820152fd5b8054600160401b8110156106be5761174e916001820181556113ba565b8154905f199060031b1b19169055565b90815491600160401b8310156106be578261107291600161071f950181556113ba565b611789611976565b611791611976565b60017f9b779b17422d0df92223018b32b4d1fa46e071723d6817e2486d003becc55f0055565b5f6040516117c4816106a3565b5260208180518101031261011a576020906040516117e1816106a3565b6117f96040519384936117f3856106a3565b0161146c565b82525290565b908154905f829160058411611869575b61181a935084611c06565b8061184257505f905b6001600160d01b03821615611412576107cb91600161140892016113ba565b61185c61185161186392610ce5565b835f5260205f200190565b5460301c90565b90611823565b919261187481611adb565b81039081116109655761181a93855f5265ffffffffffff808360205f20015416908516105f146118a557509161180f565b9291506118b190610fb6565b9061180f565b604051906118c4826106c3565b5f6020838281520152565b90602060016118f361191f936118e36118b7565b506118ec6118b7565b50856113ba565b509360405194611902866106c3565b549465ffffffffffff86169586825260301c9384910152016113ba565b9054906040519261192f846106c3565b835260031b1c602082015290565b80548061194e5750505f905f905f90565b5f19918183810111610965575f5260205f2001015460019165ffffffffffff82169160301c90565b60ff5f80516020611c668339815191525460401c161561199257565b604051631afcd79f60e31b8152600490fd5b8054600160401b8110156106be576119c1916001820181556113ba565b6119eb57815160209092015160301b65ffffffffffff191665ffffffffffff909216919091179055565b634e487b7160e01b5f525f60045260245ffd5b80549293928015611ab157611a15611a2091610ce5565b825f5260205f200190565b9182549265ffffffffffff91828516928116808411611a9f57879303611a665750611a5f92509065ffffffffffff82549181199060301b169116179055565b60301c9190565b915050611a9a91611a86611a78610712565b65ffffffffffff9093168352565b6001600160d01b03861660208301526119a4565b611a5f565b604051632520601d60e01b8152600490fd5b5090611ad691611ac2611a78610712565b6001600160d01b03851660208301526119a4565b5f9190565b60018111156107cb57600181600160801b811015611bf4575b611b9c611b92611b88611b7e611b74611b6a611ba897600488600160401b611ba39a1015611be7575b640100000000811015611bda575b62010000811015611bcd575b610100811015611bc1575b6010811015611bb5575b1015611bad575b60030260011c611b63818b6112a0565b0160011c90565b611b63818a6112a0565b611b6381896112a0565b611b6381886112a0565b611b6381876112a0565b611b6381866112a0565b80936112a0565b821190565b900390565b60011b611b53565b811c9160021b91611b4c565b60081c91811b91611b42565b60101c9160081b91611b37565b60201c9160101b91611b2b565b60401c9160201b91611b1d565b50600160401b9050608082901c611af4565b91905b838210611c165750505090565b9091928083169080841860011c820180921161096557845f5265ffffffffffff808360205f20015416908416105f14611c535750925b9190611c09565b939250611c5f90610fb6565b91611c4c56fef0c57e16840df040f15088dc2f81fe391c3923bec73e23a9662efc9c229c6a00a2646970667358221220fbcaa914a07c97ad55623ae1232e81e064cb7541dbc8b538014dd0366099ddcf64736f6c63430008190033","linkReferences":{}},"methodIdentifiers":{"BURNER_GAS_LIMIT()":"d5c24e1a","BURNER_RESERVE()":"2964f8dc","FACTORY()":"2dd31000","NETWORK_MIDDLEWARE_SERVICE()":"2c9d45b3","TYPE()":"bb24fe8a","VAULT_FACTORY()":"103f2907","cumulativeSlash(bytes32,address)":"1a2be2c4","cumulativeSlashAt(bytes32,address,uint48,bytes)":"aa8e6489","initialize(bytes)":"439fab91","isBurnerHook()":"34d098ea","latestSlashedCaptureTimestamp(bytes32,address)":"267de1f3","slash(bytes32,address,uint256,uint48,bytes)":"021a8156","slashableStake(bytes32,address,uint48,bytes)":"aab3595f","staticDelegateCall(address,bytes)":"9f86fd85","vault()":"fbfa77cf"},"id":106}