{"abi":[{"type":"constructor","inputs":[{"name":"vaultFactory","type":"address","internalType":"address"},{"name":"networkMiddlewareService","type":"address","internalType":"address"},{"name":"slasherFactory","type":"address","internalType":"address"},{"name":"entityType","type":"uint64","internalType":"uint64"}],"stateMutability":"nonpayable"},{"type":"function","name":"BURNER_GAS_LIMIT","inputs":[],"outputs":[{"name":"","type":"uint256","internalType":"uint256"}],"stateMutability":"view"},{"type":"function","name":"BURNER_RESERVE","inputs":[],"outputs":[{"name":"","type":"uint256","internalType":"uint256"}],"stateMutability":"view"},{"type":"function","name":"FACTORY","inputs":[],"outputs":[{"name":"","type":"address","internalType":"address"}],"stateMutability":"view"},{"type":"function","name":"NETWORK_MIDDLEWARE_SERVICE","inputs":[],"outputs":[{"name":"","type":"address","internalType":"address"}],"stateMutability":"view"},{"type":"function","name":"TYPE","inputs":[],"outputs":[{"name":"","type":"uint64","internalType":"uint64"}],"stateMutability":"view"},{"type":"function","name":"VAULT_FACTORY","inputs":[],"outputs":[{"name":"","type":"address","internalType":"address"}],"stateMutability":"view"},{"type":"function","name":"cumulativeSlash","inputs":[{"name":"subnetwork","type":"bytes32","internalType":"bytes32"},{"name":"operator","type":"address","internalType":"address"}],"outputs":[{"name":"","type":"uint256","internalType":"uint256"}],"stateMutability":"view"},{"type":"function","name":"cumulativeSlashAt","inputs":[{"name":"subnetwork","type":"bytes32","internalType":"bytes32"},{"name":"operator","type":"address","internalType":"address"},{"name":"timestamp","type":"uint48","internalType":"uint48"},{"name":"hint","type":"bytes","internalType":"bytes"}],"outputs":[{"name":"","type":"uint256","internalType":"uint256"}],"stateMutability":"view"},{"type":"function","name":"initialize","inputs":[{"name":"data","type":"bytes","internalType":"bytes"}],"outputs":[],"stateMutability":"nonpayable"},{"type":"function","name":"isBurnerHook","inputs":[],"outputs":[{"name":"","type":"bool","internalType":"bool"}],"stateMutability":"view"},{"type":"function","name":"latestSlashedCaptureTimestamp","inputs":[{"name":"subnetwork","type":"bytes32","internalType":"bytes32"},{"name":"operator","type":"address","internalType":"address"}],"outputs":[{"name":"value","type":"uint48","internalType":"uint48"}],"stateMutability":"view"},{"type":"function","name":"slash","inputs":[{"name":"subnetwork","type":"bytes32","internalType":"bytes32"},{"name":"operator","type":"address","internalType":"address"},{"name":"amount","type":"uint256","internalType":"uint256"},{"name":"captureTimestamp","type":"uint48","internalType":"uint48"},{"name":"hints","type":"bytes","internalType":"bytes"}],"outputs":[{"name":"slashedAmount","type":"uint256","internalType":"uint256"}],"stateMutability":"nonpayable"},{"type":"function","name":"slashableStake","inputs":[{"name":"subnetwork","type":"bytes32","internalType":"bytes32"},{"name":"operator","type":"address","internalType":"address"},{"name":"captureTimestamp","type":"uint48","internalType":"uint48"},{"name":"hints","type":"bytes","internalType":"bytes"}],"outputs":[{"name":"amount","type":"uint256","internalType":"uint256"}],"stateMutability":"view"},{"type":"function","name":"staticDelegateCall","inputs":[{"name":"target","type":"address","internalType":"address"},{"name":"data","type":"bytes","internalType":"bytes"}],"outputs":[],"stateMutability":"nonpayable"},{"type":"function","name":"vault","inputs":[],"outputs":[{"name":"","type":"address","internalType":"address"}],"stateMutability":"view"},{"type":"event","name":"Initialized","inputs":[{"name":"version","type":"uint64","indexed":false,"internalType":"uint64"}],"anonymous":false},{"type":"event","name":"Slash","inputs":[{"name":"subnetwork","type":"bytes32","indexed":true,"internalType":"bytes32"},{"name":"operator","type":"address","indexed":true,"internalType":"address"},{"name":"slashedAmount","type":"uint256","indexed":false,"internalType":"uint256"},{"name":"captureTimestamp","type":"uint48","indexed":false,"internalType":"uint48"}],"anonymous":false},{"type":"error","name":"CheckpointUnorderedInsertion","inputs":[]},{"type":"error","name":"InsufficientBurnerGas","inputs":[]},{"type":"error","name":"InsufficientSlash","inputs":[]},{"type":"error","name":"InvalidCaptureTimestamp","inputs":[]},{"type":"error","name":"InvalidInitialization","inputs":[]},{"type":"error","name":"NoBurner","inputs":[]},{"type":"error","name":"NotInitialized","inputs":[]},{"type":"error","name":"NotInitializing","inputs":[]},{"type":"error","name":"NotNetworkMiddleware","inputs":[]},{"type":"error","name":"NotVault","inputs":[]},{"type":"error","name":"ReentrancyGuardReentrantCall","inputs":[]},{"type":"error","name":"SafeCastOverflowedUintDowncast","inputs":[{"name":"bits","type":"uint8","internalType":"uint8"},{"name":"value","type":"uint256","internalType":"uint256"}]}],"bytecode":{"object":"0x6101003461015857601f611ecf38819003918201601f1916830192916001600160401b03918285118486101761015c5781608092859260409788528339810103126101585761004d82610170565b9061005a60208401610170565b926060610068868301610170565b910151918083168303610158577ff0c57e16840df040f15088dc2f81fe391c3923bec73e23a9662efc9c229c6a009081549060ff82891c16610147578080831603610103575b50505060805260a05260c05260e05251611d4a908161018582396080518161044a015260a051818181610850015261119a015260c0518181816102fd01526114ca015260e0518181816101fc01526104060152f35b6001600160401b0319909116811790915585519081527fc7f505b2f371ae2175ee4913f4499e1f2633a7b5936321eed1cdaeb6115181d290602090a15f80806100ae565b875163f92ee8a960e01b8152600490fd5b5f80fd5b634e487b7160e01b5f52604160045260245ffd5b51906001600160a01b03821682036101585756fe60806040526004361015610011575f80fd5b5f3560e01c8063021a815614610104578063103f2907146100ff5780631a2be2c4146100fa578063267de1f3146100f55780632964f8dc146100f05780632c9d45b3146100eb5780632dd31000146100e657806334d098ea146100e1578063439fab91146100dc5780639f86fd85146100d7578063aa8e6489146100d2578063aab3595f146100cd578063bb24fe8a146100c8578063d5c24e1a146100c35763fbfa77cf146100be575f80fd5b610891565b610874565b610831565b61080c565b6107ce565b6105d5565b61049d565b610479565b610435565b6103f1565b6103d5565b610380565b61032c565b6102e8565b61015b565b6001600160a01b0381160361011a57565b5f80fd5b65ffffffffffff81160361011a57565b9181601f8401121561011a578235916001600160401b03831161011a576020838186019501011161011a57565b3461011a5760a036600319011261011a5760043560243561017b81610109565b6064356101878161011e565b6084356001600160401b03811161011a576101a690369060040161012e565b917f9b779b17422d0df92223018b32b4d1fa46e071723d6817e2486d003becc55f0060028154146102cc5760029055604051635daf681960e11b8152606086901c60048201526001600160a01b036020826024817f000000000000000000000000000000000000000000000000000000000000000085165afa9182156102c7575f92610296575b50339116036102845761028094610247946044359161096a565b61027060017f9b779b17422d0df92223018b32b4d1fa46e071723d6817e2486d003becc55f0055565b6040519081529081906020820190565b0390f35b60405163227bf64d60e01b8152600490fd5b6102b991925060203d6020116102c0575b6102b181836106f1565b810190610bba565b905f61022d565b503d6102a7565b61092e565b604051633ee5aeb560e01b8152600490fd5b5f91031261011a57565b3461011a575f36600319011261011a576040517f00000000000000000000000000000000000000000000000000000000000000006001600160a01b03168152602090f35b3461011a57604036600319011261011a57602061037861037360243561035181610109565b6004355f526002845260405f209060018060a01b03165f5260205260405f2090565b6113e9565b604051908152f35b3461011a57604036600319011261011a57602065ffffffffffff6103cb6024356103a981610109565b6004355f526001845260405f209060018060a01b03165f5260205260405f2090565b5416604051908152f35b3461011a575f36600319011261011a576020604051614e208152f35b3461011a575f36600319011261011a576040517f00000000000000000000000000000000000000000000000000000000000000006001600160a01b03168152602090f35b3461011a575f36600319011261011a576040517f00000000000000000000000000000000000000000000000000000000000000006001600160a01b03168152602090f35b3461011a575f36600319011261011a57602060ff5f5460a01c166040519015158152f35b3461011a57602036600319011261011a576001600160401b0360043581811161011a576104ce90369060040161012e565b5f80516020611cf5833981519152549260ff8460401c16159316801590816105cd575b60011490816105c3575b1590816105ba575b506105a8575f80516020611cf5833981519152805467ffffffffffffffff19166001179055610536918361058457611493565b61053c57005b5f80516020611cf5833981519152805460ff60401b19169055604051600181527fc7f505b2f371ae2175ee4913f4499e1f2633a7b5936321eed1cdaeb6115181d290602090a1005b5f80516020611cf5833981519152805460ff60401b1916600160401b179055611493565b60405163f92ee8a960e01b8152600490fd5b9050155f610503565b303b1591506104fb565b8491506104f1565b3461011a5760408060031936011261011a576004356105f381610109565b602435906001600160401b03821161011a575f809161061961067d94369060040161012e565b908187519283928337810184815203915af43d156106855761066f3d61063e81610721565b9061064b865192836106f1565b81523d5f602083013e5b845194859315156020850152808401526060830190610b6a565b03601f1981018352826106f1565b805190602001fd5b61066f6060610655565b634e487b7160e01b5f52604160045260245ffd5b602081019081106001600160401b038211176106be57604052565b61068f565b604081019081106001600160401b038211176106be57604052565b6001600160401b0381116106be57604052565b90601f801991011681019081106001600160401b038211176106be57604052565b6040519061071f826106c3565b565b6001600160401b0381116106be57601f01601f191660200190565b81601f8201121561011a5780359061075382610721565b9261076160405194856106f1565b8284526020838301011161011a57815f926020809301838601378301015290565b90608060031983011261011a576004359160243561079f81610109565b916044356107ac8161011e565b91606435906001600160401b03821161011a576107cb9160040161073c565b90565b3461011a5760206103786108076107e436610782565b939190925f526002865260405f209060018060a01b03165f5260205260405f2090565b61162d565b3461011a57602061082861081f36610782565b92919091610cfa565b50604051908152f35b3461011a575f36600319011261011a5760206040516001600160401b037f0000000000000000000000000000000000000000000000000000000000000000168152f35b3461011a575f36600319011261011a576020604051620249f08152f35b3461011a575f36600319011261011a575f546040516001600160a01b039091168152602090f35b604051906108c5826106a3565b60608252565b9060208282031261011a5781356001600160401b039283821161011a57019060208282031261011a5760405192610901846106a3565b823590811161011a57610914920161073c565b815290565b9081602091031261011a57516107cb8161011e565b6040513d5f823e3d90fd5b634e487b7160e01b5f52601160045260245ffd5b65ffffffffffff918216908216039190821161096557565b610939565b929395949190956109796108b8565b9280610b54575b505061098b42611705565b5f546004906020906109b3906109a7906001600160a01b031681565b6001600160a01b031690565b6040516327f843b560e11b815292839182905afa80156102c7576109ed926109e2925f92610b23575b5061094d565b65ffffffffffff1690565b65ffffffffffff8516908110908115610b0d575b50610afb57610a16610a1f9251858886610cfa565b92908092610f2a565b958615610ae957610aa461066f610a9b610ae4947fe0cbbe1f1e6fd806ca87036fafcebaf7ab5247474a3b20e1c37bb50122c3a88496610a608a878b610f3c565b610a6b8c878b610fca565b610a73610712565b9182526020820152604051928391602083019190916020806040830194805184520151910152565b86898488611136565b610aae858861123f565b610aba858883876112c4565b6040805188815265ffffffffffff90961660208701526001600160a01b0390911694918291820190565b0390a3565b60405163167f871760e31b8152600490fd5b604051631357ac9160e11b8152600490fd5b9050610b1b6109e242611705565b11155f610a01565b610b4691925060203d602011610b4d575b610b3e81836106f1565b810190610919565b905f6109dc565b503d610b34565b610b629293508101906108cb565b905f80610980565b805180835260209291819084018484015e5f828201840152601f01601f1916010190565b5f9081526002602090815260408083206001600160a01b039094168352929052206107cb92919061162d565b9081602091031261011a57516107cb81610109565b60405190610bdc826106c3565b60606020838281520152565b81601f8201121561011a57805190610bff82610721565b92610c0d60405194856106f1565b8284526020838301011161011a57815f9260208093018386015e8301015290565b9060208282031261011a5781516001600160401b039283821161011a57019060408282031261011a5760405192610c64846106c3565b825181811161011a5782610c79918501610be8565b8452602083015190811161011a57610c919201610be8565b602082015290565b9081602091031261011a575190565b9081526001600160a01b03909116602082015265ffffffffffff90911660408201526080606082018190526107cb92910190610b6a565b5f1981019190821161096557565b9190820391821161096557565b92610d03610bcf565b90805180610f10575b5050610d1742611705565b5f54909490610d30906109a7906001600160a01b031681565b93604051956327f843b560e11b875260209687816004818a5afa80156102c757610d64926109e2925f92610ef8575061094d565b65ffffffffffff8216908110908115610ee1575b8115610eb0575b50610ea4578560049560405196878092630ce9b79360e41b82525afa9485156102c757610dd19587915f91610e87575b50845190604051808099819463e02f693760e01b8352878b8a60048601610ca8565b03916001600160a01b03165afa9384156102c757610e43955f95610e46575b5092610e388593610e3e93610e3896869a610e2f61037383610e1a875f52600260205260405f2090565b9060018060a01b03165f5260205260405f2090565b95015192610b8e565b90610ced565b610f2a565b91565b610e3e929550610e38949193610e74610e38928a3d8c11610e80575b610e6c81836106f1565b810190610c99565b96935093919450610df0565b503d610e62565b610e9e9150823d84116102c0576102b181836106f1565b5f610daf565b5050505050505f905f90565b9050610eda6109e2610ece87610e1a875f52600160205260405f2090565b5465ffffffffffff1690565b115f610d7f565b9050610eef6109e242611705565b81101590610d78565b610b469192508a3d8c11610b4d57610b3e81836106f1565b610f239250602080918301019101610c2e565b5f80610d0c565b9080821015610f37575090565b905090565b919091805f52600160205265ffffffffffff80610f6c8560405f209060018060a01b03165f5260205260405f2090565b541690831611610f7b57505050565b61071f92610fa3915f52600160205260405f209060018060a01b03165f5260205260405f2090565b9065ffffffffffff1665ffffffffffff19825416179055565b906001820180921161096557565b9190825f526002602052611022610373610ff78360405f209060018060a01b03165f5260205260405f2090565b9261100142611705565b955f52600260205260405f209060018060a01b03165f5260205260405f2090565b9182018092116109655760018101908154156110c6575b61104281611961565b509490835495611051846113e9565b50816110b1575b50156110905750505f1983019283116109655761071f92611078916113c0565b90919082549060031b91821b915f19901b1916179055565b61071f946110aa926001600160d01b039091169190611a38565b5050611764565b65ffffffffffff83811691161490505f611058565b6110cf82611737565b611039565b606060206107cb938184526001600160401b03815116828501520151916040808201520190610b6a565b919360a0936107cb969565ffffffffffff938552600180871b0316602085015260408401521660608201528160808201520190610b6a565b929390600460206111536109a76109a75f5460018060a01b031690565b604051630ce9b79360e41b815292839182905afa9081156102c75761066f916111d1915f91611220575b506001600160a01b031693611190610712565b6001600160401b037f0000000000000000000000000000000000000000000000000000000000000000168152906020820152604051928391602083016110d4565b823b1561011a575f946111fc86926040519889978896879563724ab0f760e11b8752600487016110fe565b03925af180156102c75761120d5750565b8061121a61071f926106de565b806102de565b611239915060203d6020116102c0576102b181836106f1565b5f61117d565b5f8054604051631c9e38c760e21b8152600481019390935265ffffffffffff9390931660248301529091602091839160449183916001600160a01b03165af180156102c75761128b5750565b6112a39060203d602011610e8057610e6c81836106f1565b50565b81156112b0570490565b634e487b7160e01b5f52601260045260245ffd5b92905f549060ff8260a01c166112dc575b5050505050565b6040516313c085b760e11b815291602090839060049082906001600160a01b03165afa9182156102c7575f92611399575b5060405163065c1e0360e01b6020820190815260248201969096526001600160a01b039091166044820152606481019390935265ffffffffffff90911660848301526113668260a481015b03601f1981018452836106f1565b6202a15c5a10611387575f928380935192620249f0f1505f808080806112d5565b604051632153f33560e21b8152600490fd5b61136692506113b96113589160203d6020116102c0576102b181836106f1565b925061130d565b80548210156113d5575f5260205f2001905f90565b634e487b7160e01b5f52603260045260245ffd5b80548061141e57505f5b6001600160d01b0381161561141857600161140e92016113c0565b90549060031b1c90565b50505f90565b5f1990808281011161096557825f5260205f2001015460301c6113f3565b91909160408184031261011a57803561145481610109565b9260208201356001600160401b03811161011a576107cb920161073c565b5190811515820361011a57565b9081602091031261011a576107cb90611472565b61149f9181019061143c565b6040516302910f8b60e31b81526001600160a01b0392831660048201819052929160209182816024817f000000000000000000000000000000000000000000000000000000000000000088165afa9081156102c7575f916115cf575b50156115bd578161152f600492611510611787565b5f80546001600160a01b0319166001600160a01b0389161790556117bd565b94604051928380926313c085b760e11b82525afa9182156102c7575f926115a0575b5050161580611596575b611584575161071f9015155f805460ff60a01b191691151560a01b60ff60a01b16919091179055565b60405163d2420f5960e01b8152600490fd5b508051151561155b565b6115b69250803d106102c0576102b181836106f1565b5f80611551565b6040516362df054560e01b8152600490fd5b6115ef9150833d85116115f5575b6115e781836106f1565b81019061147f565b5f6114fb565b503d6115dd565b9081602091031261011a575163ffffffff8116810361011a5790565b90600163ffffffff8093160191821161096557565b918051156116fb5780602080611648935183010191016115fc565b9161165383826118d5565b92611664845165ffffffffffff1690565b9065ffffffffffff80851692168281146116ef578211918261169a575b5050611691576107cb9250611805565b50506020015190565b9091506116a78354610cdf565b63ffffffff8316149182156116c0575b50505f80611681565b6116e79192506116db6116d56109e292611618565b856118d5565b5165ffffffffffff1690565b115f806116b7565b50505050506020015190565b506107cb91611805565b65ffffffffffff90818111611718571690565b604490604051906306dfcc6560e41b8252603060048301526024820152fd5b8054600160401b8110156106be57611754916001820181556113c0565b8154905f199060031b1b19169055565b90815491600160401b8310156106be578261107891600161071f950181556113c0565b61178f6119b0565b6117976119b0565b60017f9b779b17422d0df92223018b32b4d1fa46e071723d6817e2486d003becc55f0055565b5f6040516117ca816106a3565b5260208180518101031261011a576020906040516117e7816106a3565b6117ff6040519384936117f9856106a3565b01611472565b82525290565b908154905f82916005841161186f575b611820935084611c95565b8061184857505f905b6001600160d01b03821615611418576107cb91600161140e92016113c0565b61186261185761186992610cdf565b835f5260205f200190565b5460301c90565b90611829565b919261187a81611b57565b81039081116109655761182093855f5265ffffffffffff808360205f20015416908516105f146118ab575091611815565b9291506118b790610fbc565b90611815565b604051906118ca826106c3565b5f6020838281520152565b906118fe6118f861191f926118e86118bd565b506118f16118bd565b50846113c0565b5061193d565b91600165ffffffffffff845116936020828060d01b039101511691016113c0565b9054906040519261192f846106c3565b835260031b1c602082015290565b9060405161194a816106c3565b915465ffffffffffff8116835260301c6020830152565b8054806119725750505f905f905f90565b5f199080828101116109655761198f925f5260205f20010161193d565b9065ffffffffffff82511691602060018060d01b0391015116906001929190565b60ff5f80516020611cf58339815191525460401c16156119cc57565b604051631afcd79f60e31b8152600490fd5b8054600160401b8110156106be576119fb916001820181556113c0565b611a2557815160209092015160301b65ffffffffffff191665ffffffffffff909216919091179055565b634e487b7160e01b5f525f60045260245ffd5b805492939291908215611b2e57611a59611a5461185785610cdf565b61193d565b90611a6a825165ffffffffffff1690565b65ffffffffffff84811691168110611b1c57611ae0946020948892611a986109e2875165ffffffffffff1690565b03611ae45750611ad292611aae611ab992610cdf565b905f5260205f200190565b9065ffffffffffff82549181199060301b169116179055565b01516001600160d01b031690565b9190565b915050611b1791611b04611af6610712565b65ffffffffffff9093168352565b6001600160d01b038816828601526119de565b611ad2565b604051632520601d60e01b8152600490fd5b611b529250611b3e611af6610712565b6001600160d01b03851660208301526119de565b5f9190565b8015611c905780611c29611c22611c18611c0e611c04611bfa611bf0611be660016107cb9a5f908b60801c80611c84575b508060401c80611c77575b508060201c80611c6a575b508060101c80611c5d575b508060081c80611c50575b508060041c80611c43575b508060021c80611c36575b50821c611c2f575b811c1b611bdf818b6112a6565b0160011c90565b611bdf818a6112a6565b611bdf81896112a6565b611bdf81886112a6565b611bdf81876112a6565b611bdf81866112a6565b611bdf81856112a6565b80926112a6565b90610f2a565b8101611bd2565b600291509101905f611bca565b600491509101905f611bbf565b600891509101905f611bb4565b601091509101905f611ba9565b602091509101905f611b9e565b604091509101905f611b93565b9150506080905f611b88565b505f90565b91905b838210611ca55750505090565b9091928083169080841860011c820180921161096557845f5265ffffffffffff808360205f20015416908416105f14611ce25750925b9190611c98565b939250611cee90610fbc565b91611cdb56fef0c57e16840df040f15088dc2f81fe391c3923bec73e23a9662efc9c229c6a00a2646970667358221220ee52c4734e4b032c79e9f76b7ae44a51bfeb78ae418a11c4ec4f864df6af816064736f6c63430008190033","linkReferences":{}},"methodIdentifiers":{"BURNER_GAS_LIMIT()":"d5c24e1a","BURNER_RESERVE()":"2964f8dc","FACTORY()":"2dd31000","NETWORK_MIDDLEWARE_SERVICE()":"2c9d45b3","TYPE()":"bb24fe8a","VAULT_FACTORY()":"103f2907","cumulativeSlash(bytes32,address)":"1a2be2c4","cumulativeSlashAt(bytes32,address,uint48,bytes)":"aa8e6489","initialize(bytes)":"439fab91","isBurnerHook()":"34d098ea","latestSlashedCaptureTimestamp(bytes32,address)":"267de1f3","slash(bytes32,address,uint256,uint48,bytes)":"021a8156","slashableStake(bytes32,address,uint48,bytes)":"aab3595f","staticDelegateCall(address,bytes)":"9f86fd85","vault()":"fbfa77cf"},"id":109}