{"abi":[{"type":"constructor","inputs":[{"name":"factory","type":"address","internalType":"address"}],"stateMutability":"nonpayable"},{"type":"function","name":"FACTORY","inputs":[],"outputs":[{"name":"","type":"address","internalType":"address"}],"stateMutability":"view"},{"type":"function","name":"a","inputs":[],"outputs":[{"name":"","type":"uint256","internalType":"uint256"}],"stateMutability":"view"},{"type":"function","name":"initialize","inputs":[{"name":"initialVersion","type":"uint64","internalType":"uint64"},{"name":"owner_","type":"address","internalType":"address"},{"name":"data","type":"bytes","internalType":"bytes"}],"outputs":[],"stateMutability":"nonpayable"},{"type":"function","name":"migrate","inputs":[{"name":"newVersion","type":"uint64","internalType":"uint64"},{"name":"data","type":"bytes","internalType":"bytes"}],"outputs":[],"stateMutability":"nonpayable"},{"type":"function","name":"owner","inputs":[],"outputs":[{"name":"","type":"address","internalType":"address"}],"stateMutability":"view"},{"type":"function","name":"renounceOwnership","inputs":[],"outputs":[],"stateMutability":"nonpayable"},{"type":"function","name":"setA","inputs":[{"name":"_a","type":"uint256","internalType":"uint256"}],"outputs":[],"stateMutability":"nonpayable"},{"type":"function","name":"transferOwnership","inputs":[{"name":"newOwner","type":"address","internalType":"address"}],"outputs":[],"stateMutability":"nonpayable"},{"type":"function","name":"version","inputs":[],"outputs":[{"name":"","type":"uint64","internalType":"uint64"}],"stateMutability":"view"},{"type":"event","name":"Initialized","inputs":[{"name":"version","type":"uint64","indexed":false,"internalType":"uint64"}],"anonymous":false},{"type":"event","name":"OwnershipTransferred","inputs":[{"name":"previousOwner","type":"address","indexed":true,"internalType":"address"},{"name":"newOwner","type":"address","indexed":true,"internalType":"address"}],"anonymous":false},{"type":"error","name":"AlreadyInitialized","inputs":[]},{"type":"error","name":"InvalidInitialization","inputs":[]},{"type":"error","name":"NotFactory","inputs":[]},{"type":"error","name":"NotInitialized","inputs":[]},{"type":"error","name":"NotInitializing","inputs":[]},{"type":"error","name":"OwnableInvalidOwner","inputs":[{"name":"owner","type":"address","internalType":"address"}]},{"type":"error","name":"OwnableUnauthorizedAccount","inputs":[{"name":"account","type":"address","internalType":"address"}]},{"type":"error","name":"ReentrancyGuardReentrantCall","inputs":[]}],"bytecode":{"object":"0x60a034610106576001600160401b0390601f61076838819003918201601f19168301918483118484101761010a578084926020946040528339810103126101065751906001600160a01b0382168203610106577ff0c57e16840df040f15088dc2f81fe391c3923bec73e23a9662efc9c229c6a009081549060ff8260401c166100f45780808316036100af575b83608052604051610649908161011f8239608051818181610375015261040b0152f35b6001600160401b031990911681179091556040519081527fc7f505b2f371ae2175ee4913f4499e1f2633a7b5936321eed1cdaeb6115181d290602090a15f808061008c565b60405163f92ee8a960e01b8152600490fd5b5f80fd5b634e487b7160e01b5f52604160045260245ffdfe608060409080825260049182361015610016575f80fd5b5f3560e01c9182630dbe671f1461049d575081632abe3048146103a45781632dd310001461036257816354fd4d501461032f57816357ec83cc1461016f578163715018a6146101085781638da5cb5b146100d557508063ee919d50146100bd5763f2fde38b14610084575f80fd5b346100b95760203660031901126100b957356001600160a01b03811681036100b9576100b7906100b261056d565b6104fc565b005b5f80fd5b50346100b95760203660031901126100b95735600a55005b346100b9575f3660031901126100b9575f805160206105d48339815191525490516001600160a01b039091168152602090f35b346100b9575f3660031901126100b95761012061056d565b5f805160206105d483398151915280546001600160a01b031981169091555f906001600160a01b03167f8be0079c531659141344cd1fd0a4f28419497f9722a3daafe3b4186f6b6457e08280a3005b82346100b95760603660031901126100b9576101896104b7565b602435926001600160a01b0384168085036100b95767ffffffffffffffff936044358581116100b9576101bf90369083016104ce565b9590965f805160206105f483398151915293845496838816806103205760ff89891c16908115610313575b506103035783680100000000000000009116809868ffffffffffffffffff1916171785556102166105a5565b61021e6105a5565b60017f9b779b17422d0df92223018b32b4d1fa46e071723d6817e2486d003becc55f00556102e9575b508086116102d657835191601f8701601f19908116603f01168301918211838310176102c35750835284815236858701116100b9576020858282977fc7f505b2f371ae2175ee4913f4499e1f2633a7b5936321eed1cdaeb6115181d299845f960137010152805468ff00000000000000001916905551908152a1005b604190634e487b7160e01b5f525260245ffd5b604182634e487b7160e01b5f525260245ffd5b6102fd906102f56105a5565b6100b26105a5565b87610247565b865163f92ee8a960e01b81528590fd5b905084821611158b6101ea565b875162dc149f60e41b81528690fd5b346100b9575f3660031901126100b95760209067ffffffffffffffff5f805160206105f483398151915254169051908152f35b346100b9575f3660031901126100b957517f00000000000000000000000000000000000000000000000000000000000000006001600160a01b03168152602090f35b9050346100b957806003193601126100b9576103be6104b7565b67ffffffffffffffff6024358181116100b9576103de90369086016104ce565b505060027f9b779b17422d0df92223018b32b4d1fa46e071723d6817e2486d003becc55f00541461048e577f00000000000000000000000000000000000000000000000000000000000000006001600160a01b0316330361047f575f805160206105f4833981519152549060ff82851c1692831561046f575b505050610462575f80fd5b5163f92ee8a960e01b8152fd5b81169116101590505f8080610457565b505051631966391b60e11b8152fd5b505051633ee5aeb560e01b8152fd5b346100b9575f3660031901126100b957602090600a548152f35b6004359067ffffffffffffffff821682036100b957565b9181601f840112156100b95782359167ffffffffffffffff83116100b957602083818601950101116100b957565b6001600160a01b03908116908115610555575f805160206105d483398151915280546001600160a01b031981168417909155167f8be0079c531659141344cd1fd0a4f28419497f9722a3daafe3b4186f6b6457e05f80a3565b604051631e4fbdf760e01b81525f6004820152602490fd5b5f805160206105d4833981519152546001600160a01b0316330361058d57565b60405163118cdaa760e01b8152336004820152602490fd5b60ff5f805160206105f48339815191525460401c16156105c157565b604051631afcd79f60e31b8152600490fdfe9016d09d72d40fdae2fd8ceac6b6234c7706214fd39c1cd1e609a0528c199300f0c57e16840df040f15088dc2f81fe391c3923bec73e23a9662efc9c229c6a00a2646970667358221220540f402732ea208f66297a87f7b0c662f9bce3132a6c4996daea2607622eb80d64736f6c63430008190033","linkReferences":{}},"methodIdentifiers":{"FACTORY()":"2dd31000","a()":"0dbe671f","initialize(uint64,address,bytes)":"57ec83cc","migrate(uint64,bytes)":"2abe3048","owner()":"8da5cb5b","renounceOwnership()":"715018a6","setA(uint256)":"ee919d50","transferOwnership(address)":"f2fde38b","version()":"54fd4d50"},"id":159}