{"abi":[{"type":"constructor","inputs":[{"name":"factory","type":"address","internalType":"address"}],"stateMutability":"nonpayable"},{"type":"function","name":"FACTORY","inputs":[],"outputs":[{"name":"","type":"address","internalType":"address"}],"stateMutability":"view"},{"type":"function","name":"a","inputs":[],"outputs":[{"name":"","type":"uint256","internalType":"uint256"}],"stateMutability":"view"},{"type":"function","name":"initialize","inputs":[{"name":"initialVersion","type":"uint64","internalType":"uint64"},{"name":"owner_","type":"address","internalType":"address"},{"name":"data","type":"bytes","internalType":"bytes"}],"outputs":[],"stateMutability":"nonpayable"},{"type":"function","name":"migrate","inputs":[{"name":"newVersion","type":"uint64","internalType":"uint64"},{"name":"data","type":"bytes","internalType":"bytes"}],"outputs":[],"stateMutability":"nonpayable"},{"type":"function","name":"owner","inputs":[],"outputs":[{"name":"","type":"address","internalType":"address"}],"stateMutability":"view"},{"type":"function","name":"renounceOwnership","inputs":[],"outputs":[],"stateMutability":"nonpayable"},{"type":"function","name":"setA","inputs":[{"name":"_a","type":"uint256","internalType":"uint256"}],"outputs":[],"stateMutability":"nonpayable"},{"type":"function","name":"transferOwnership","inputs":[{"name":"newOwner","type":"address","internalType":"address"}],"outputs":[],"stateMutability":"nonpayable"},{"type":"function","name":"version","inputs":[],"outputs":[{"name":"","type":"uint64","internalType":"uint64"}],"stateMutability":"view"},{"type":"event","name":"Initialized","inputs":[{"name":"version","type":"uint64","indexed":false,"internalType":"uint64"}],"anonymous":false},{"type":"event","name":"OwnershipTransferred","inputs":[{"name":"previousOwner","type":"address","indexed":true,"internalType":"address"},{"name":"newOwner","type":"address","indexed":true,"internalType":"address"}],"anonymous":false},{"type":"error","name":"AlreadyInitialized","inputs":[]},{"type":"error","name":"InvalidInitialization","inputs":[]},{"type":"error","name":"NotFactory","inputs":[]},{"type":"error","name":"NotInitialized","inputs":[]},{"type":"error","name":"NotInitializing","inputs":[]},{"type":"error","name":"OwnableInvalidOwner","inputs":[{"name":"owner","type":"address","internalType":"address"}]},{"type":"error","name":"OwnableUnauthorizedAccount","inputs":[{"name":"account","type":"address","internalType":"address"}]},{"type":"error","name":"ReentrancyGuardReentrantCall","inputs":[]}],"bytecode":{"object":"0x60a034610106576001600160401b0390601f61079f38819003918201601f19168301918483118484101761010b578084926020946040528339810103126101065751906001600160a01b0382168203610106577ff0c57e16840df040f15088dc2f81fe391c3923bec73e23a9662efc9c229c6a009081549060ff8260401c166100f45780808316036100af575b8360805260405161067d9081610122823960805181818161039c01526104320152f35b6001600160401b031990911681179091556040519081527fc7f505b2f371ae2175ee4913f4499e1f2633a7b5936321eed1cdaeb6115181d290602090a138808061008c565b60405163f92ee8a960e01b8152600490fd5b600080fd5b634e487b7160e01b600052604160045260246000fdfe60806040908082526004908136101561001757600080fd5b600092833560e01c9182630dbe671f146104c5575081632abe3048146103cb5781632dd310001461038757816354fd4d501461035157816357ec83cc1461017f578163715018a6146101125781638da5cb5b146100dc57508063ee919d50146100c35763f2fde38b1461008957600080fd5b346100bf5760203660031901126100bf57356001600160a01b03811681036100bf576100bc906100b761059f565b61052b565b80f35b5080fd5b50346100bf5760203660031901126100bf5735600a5580f35b8390346100bf57816003193601126100bf576000805160206106088339815191525490516001600160a01b039091168152602090f35b833461017c578060031936011261017c5761012b61059f565b60008051602061060883398151915280546001600160a01b0319811690915581906001600160a01b03167f8be0079c531659141344cd1fd0a4f28419497f9722a3daafe3b4186f6b6457e08280a380f35b80fd5b9190503461034d57606036600319011261034d5761019b6104e1565b602435926001600160a01b0384168085036103495767ffffffffffffffff94604435868111610345576101d190369087016104fd565b96909160008051602061062883398151915293845496838816806103365760ff89891c16908115610329575b506103195783680100000000000000009116809868ffffffffffffffffff1916171785556102296105d8565b6102316105d8565b60017f9b779b17422d0df92223018b32b4d1fa46e071723d6817e2486d003becc55f00556102ff575b508087116102ec57835195601f8801601f19908116603f01168701918211878310176102d957508352858552869036878201116100bf5786867fc7f505b2f371ae2175ee4913f4499e1f2633a7b5936321eed1cdaeb6115181d298602098938980950137010152805468ff00000000000000001916905551908152a180f35b634e487b7160e01b895260419052602488fd5b634e487b7160e01b885260418652602488fd5b6103139061030b6105d8565b6100b76105d8565b3861025a565b865163f92ee8a960e01b81528990fd5b90508482161115386101fd565b875162dc149f60e41b81528a90fd5b8780fd5b8580fd5b8280fd5b8390346100bf57816003193601126100bf5760209067ffffffffffffffff60008051602061062883398151915254169051908152f35b8390346100bf57816003193601126100bf57517f00000000000000000000000000000000000000000000000000000000000000006001600160a01b03168152602090f35b90503461034d578060031936011261034d576103e56104e1565b67ffffffffffffffff6024358181116103495761040590369086016104fd565b505060027f9b779b17422d0df92223018b32b4d1fa46e071723d6817e2486d003becc55f0054146104b6577f00000000000000000000000000000000000000000000000000000000000000006001600160a01b031633036104a757600080516020610628833981519152549060ff82851c16928315610497575b50505061048a578280fd5b5163f92ee8a960e01b8152fd5b811691161015905038808061047f565b505051631966391b60e11b8152fd5b505051633ee5aeb560e01b8152fd5b8490346100bf57816003193601126100bf57602090600a548152f35b6004359067ffffffffffffffff821682036104f857565b600080fd5b9181601f840112156104f85782359167ffffffffffffffff83116104f857602083818601950101116104f857565b6001600160a01b039081169081156105865760008051602061060883398151915280546001600160a01b031981168417909155167f8be0079c531659141344cd1fd0a4f28419497f9722a3daafe3b4186f6b6457e0600080a3565b604051631e4fbdf760e01b815260006004820152602490fd5b600080516020610608833981519152546001600160a01b031633036105c057565b60405163118cdaa760e01b8152336004820152602490fd5b60ff6000805160206106288339815191525460401c16156105f557565b604051631afcd79f60e31b8152600490fdfe9016d09d72d40fdae2fd8ceac6b6234c7706214fd39c1cd1e609a0528c199300f0c57e16840df040f15088dc2f81fe391c3923bec73e23a9662efc9c229c6a00a2646970667358221220353e7d66a32c48e4f154882a5236a5f4c443309cd3e7f96a0c0e7b5e0cc1bd9764736f6c63430008190033","linkReferences":{}},"methodIdentifiers":{"FACTORY()":"2dd31000","a()":"0dbe671f","initialize(uint64,address,bytes)":"57ec83cc","migrate(uint64,bytes)":"2abe3048","owner()":"8da5cb5b","renounceOwnership()":"715018a6","setA(uint256)":"ee919d50","transferOwnership(address)":"f2fde38b","version()":"54fd4d50"},"id":146}