{"abi":[{"type":"constructor","inputs":[{"name":"vaultFactory","type":"address","internalType":"address"},{"name":"implementation","type":"address","internalType":"address"}],"stateMutability":"nonpayable"},{"type":"fallback","stateMutability":"payable"},{"type":"function","name":"DEFAULT_ADMIN_ROLE","inputs":[],"outputs":[{"name":"","type":"bytes32","internalType":"bytes32"}],"stateMutability":"view"},{"type":"function","name":"DEPOSITOR_WHITELIST_ROLE","inputs":[],"outputs":[{"name":"","type":"bytes32","internalType":"bytes32"}],"stateMutability":"view"},{"type":"function","name":"DEPOSIT_LIMIT_SET_ROLE","inputs":[],"outputs":[{"name":"","type":"bytes32","internalType":"bytes32"}],"stateMutability":"view"},{"type":"function","name":"DEPOSIT_WHITELIST_SET_ROLE","inputs":[],"outputs":[{"name":"","type":"bytes32","internalType":"bytes32"}],"stateMutability":"view"},{"type":"function","name":"EPOCH_DURATION_SET_ROLE","inputs":[],"outputs":[{"name":"","type":"bytes32","internalType":"bytes32"}],"stateMutability":"view"},{"type":"function","name":"FACTORY","inputs":[],"outputs":[{"name":"","type":"address","internalType":"address"}],"stateMutability":"view"},{"type":"function","name":"FLASH_FEE_BASE","inputs":[],"outputs":[{"name":"","type":"uint256","internalType":"uint256"}],"stateMutability":"view"},{"type":"function","name":"FLASH_FEE_RATE_SET_ROLE","inputs":[],"outputs":[{"name":"","type":"bytes32","internalType":"bytes32"}],"stateMutability":"view"},{"type":"function","name":"FLASH_FEE_RECEIVER_SET_ROLE","inputs":[],"outputs":[{"name":"","type":"bytes32","internalType":"bytes32"}],"stateMutability":"view"},{"type":"function","name":"IS_DEPOSIT_LIMIT_SET_ROLE","inputs":[],"outputs":[{"name":"","type":"bytes32","internalType":"bytes32"}],"stateMutability":"view"},{"type":"function","name":"MIN_EXIT_WINDOW","inputs":[],"outputs":[{"name":"","type":"uint256","internalType":"uint256"}],"stateMutability":"view"},{"type":"function","name":"RETURN_VALUE","inputs":[],"outputs":[{"name":"","type":"bytes32","internalType":"bytes32"}],"stateMutability":"view"},{"type":"function","name":"burner","inputs":[],"outputs":[{"name":"","type":"address","internalType":"address"}],"stateMutability":"view"},{"type":"function","name":"collateral","inputs":[],"outputs":[{"name":"","type":"address","internalType":"address"}],"stateMutability":"view"},{"type":"function","name":"delegator","inputs":[],"outputs":[{"name":"","type":"address","internalType":"address"}],"stateMutability":"view"},{"type":"function","name":"depositLimit","inputs":[],"outputs":[{"name":"","type":"uint256","internalType":"uint256"}],"stateMutability":"view"},{"type":"function","name":"depositWhitelist","inputs":[],"outputs":[{"name":"","type":"bool","internalType":"bool"}],"stateMutability":"view"},{"type":"function","name":"epochDurationInitInternal","inputs":[],"outputs":[{"name":"","type":"uint48","internalType":"uint48"}],"stateMutability":"view"},{"type":"function","name":"epochDurationInternal","inputs":[],"outputs":[{"name":"","type":"uint48","internalType":"uint48"}],"stateMutability":"view"},{"type":"function","name":"epochDurationSetEpochsDelayInternal","inputs":[],"outputs":[{"name":"","type":"uint256","internalType":"uint256"}],"stateMutability":"view"},{"type":"function","name":"epochInitInternal","inputs":[],"outputs":[{"name":"","type":"uint256","internalType":"uint256"}],"stateMutability":"view"},{"type":"function","name":"flashFeeRate","inputs":[],"outputs":[{"name":"","type":"uint256","internalType":"uint256"}],"stateMutability":"view"},{"type":"function","name":"flashFeeReceiver","inputs":[],"outputs":[{"name":"","type":"address","internalType":"address"}],"stateMutability":"view"},{"type":"function","name":"getRoleAdmin","inputs":[{"name":"role","type":"bytes32","internalType":"bytes32"}],"outputs":[{"name":"","type":"bytes32","internalType":"bytes32"}],"stateMutability":"view"},{"type":"function","name":"grantRole","inputs":[{"name":"role","type":"bytes32","internalType":"bytes32"},{"name":"account","type":"address","internalType":"address"}],"outputs":[],"stateMutability":"nonpayable"},{"type":"function","name":"hasRole","inputs":[{"name":"role","type":"bytes32","internalType":"bytes32"},{"name":"account","type":"address","internalType":"address"}],"outputs":[{"name":"","type":"bool","internalType":"bool"}],"stateMutability":"view"},{"type":"function","name":"initialize","inputs":[{"name":"initialVersion","type":"uint64","internalType":"uint64"},{"name":"owner_","type":"address","internalType":"address"},{"name":"data","type":"bytes","internalType":"bytes"}],"outputs":[],"stateMutability":"nonpayable"},{"type":"function","name":"isDelegatorInitialized","inputs":[],"outputs":[{"name":"","type":"bool","internalType":"bool"}],"stateMutability":"view"},{"type":"function","name":"isDepositLimit","inputs":[],"outputs":[{"name":"","type":"bool","internalType":"bool"}],"stateMutability":"view"},{"type":"function","name":"isDepositorWhitelisted","inputs":[{"name":"account","type":"address","internalType":"address"}],"outputs":[{"name":"value","type":"bool","internalType":"bool"}],"stateMutability":"view"},{"type":"function","name":"isSlasherInitialized","inputs":[],"outputs":[{"name":"","type":"bool","internalType":"bool"}],"stateMutability":"view"},{"type":"function","name":"isWithdrawalsClaimed","inputs":[{"name":"epoch","type":"uint256","internalType":"uint256"},{"name":"account","type":"address","internalType":"address"}],"outputs":[{"name":"value","type":"bool","internalType":"bool"}],"stateMutability":"view"},{"type":"function","name":"migrate","inputs":[{"name":"newVersion","type":"uint64","internalType":"uint64"},{"name":"data","type":"bytes","internalType":"bytes"}],"outputs":[],"stateMutability":"nonpayable"},{"type":"function","name":"nextEpochDurationInitInternal","inputs":[],"outputs":[{"name":"","type":"uint48","internalType":"uint48"}],"stateMutability":"view"},{"type":"function","name":"nextEpochDurationInternal","inputs":[],"outputs":[{"name":"","type":"uint48","internalType":"uint48"}],"stateMutability":"view"},{"type":"function","name":"nextEpochDurationSetEpochsDelayInternal","inputs":[],"outputs":[{"name":"","type":"uint256","internalType":"uint256"}],"stateMutability":"view"},{"type":"function","name":"nextEpochInitInternal","inputs":[],"outputs":[{"name":"","type":"uint256","internalType":"uint256"}],"stateMutability":"view"},{"type":"function","name":"owner","inputs":[],"outputs":[{"name":"","type":"address","internalType":"address"}],"stateMutability":"view"},{"type":"function","name":"prevEpochDurationInitInternal","inputs":[],"outputs":[{"name":"","type":"uint48","internalType":"uint48"}],"stateMutability":"view"},{"type":"function","name":"prevEpochDurationInternal","inputs":[],"outputs":[{"name":"","type":"uint48","internalType":"uint48"}],"stateMutability":"view"},{"type":"function","name":"prevEpochInitInternal","inputs":[],"outputs":[{"name":"","type":"uint256","internalType":"uint256"}],"stateMutability":"view"},{"type":"function","name":"renounceOwnership","inputs":[],"outputs":[],"stateMutability":"nonpayable"},{"type":"function","name":"renounceRole","inputs":[{"name":"role","type":"bytes32","internalType":"bytes32"},{"name":"callerConfirmation","type":"address","internalType":"address"}],"outputs":[],"stateMutability":"nonpayable"},{"type":"function","name":"revokeRole","inputs":[{"name":"role","type":"bytes32","internalType":"bytes32"},{"name":"account","type":"address","internalType":"address"}],"outputs":[],"stateMutability":"nonpayable"},{"type":"function","name":"slasher","inputs":[],"outputs":[{"name":"","type":"address","internalType":"address"}],"stateMutability":"view"},{"type":"function","name":"staticDelegateCall","inputs":[{"name":"target","type":"address","internalType":"address"},{"name":"data","type":"bytes","internalType":"bytes"}],"outputs":[],"stateMutability":"nonpayable"},{"type":"function","name":"supportsInterface","inputs":[{"name":"interfaceId","type":"bytes4","internalType":"bytes4"}],"outputs":[{"name":"","type":"bool","internalType":"bool"}],"stateMutability":"view"},{"type":"function","name":"transferOwnership","inputs":[{"name":"newOwner","type":"address","internalType":"address"}],"outputs":[],"stateMutability":"nonpayable"},{"type":"function","name":"version","inputs":[],"outputs":[{"name":"","type":"uint64","internalType":"uint64"}],"stateMutability":"view"},{"type":"function","name":"withdrawalShares","inputs":[{"name":"epoch","type":"uint256","internalType":"uint256"}],"outputs":[{"name":"amount","type":"uint256","internalType":"uint256"}],"stateMutability":"view"},{"type":"function","name":"withdrawalSharesOf","inputs":[{"name":"epoch","type":"uint256","internalType":"uint256"},{"name":"account","type":"address","internalType":"address"}],"outputs":[{"name":"amount","type":"uint256","internalType":"uint256"}],"stateMutability":"view"},{"type":"function","name":"withdrawals","inputs":[{"name":"epoch","type":"uint256","internalType":"uint256"}],"outputs":[{"name":"amount","type":"uint256","internalType":"uint256"}],"stateMutability":"view"},{"type":"event","name":"Initialized","inputs":[{"name":"version","type":"uint64","indexed":false,"internalType":"uint64"}],"anonymous":false},{"type":"event","name":"OwnershipTransferred","inputs":[{"name":"previousOwner","type":"address","indexed":true,"internalType":"address"},{"name":"newOwner","type":"address","indexed":true,"internalType":"address"}],"anonymous":false},{"type":"event","name":"RoleAdminChanged","inputs":[{"name":"role","type":"bytes32","indexed":true,"internalType":"bytes32"},{"name":"previousAdminRole","type":"bytes32","indexed":true,"internalType":"bytes32"},{"name":"newAdminRole","type":"bytes32","indexed":true,"internalType":"bytes32"}],"anonymous":false},{"type":"event","name":"RoleGranted","inputs":[{"name":"role","type":"bytes32","indexed":true,"internalType":"bytes32"},{"name":"account","type":"address","indexed":true,"internalType":"address"},{"name":"sender","type":"address","indexed":true,"internalType":"address"}],"anonymous":false},{"type":"event","name":"RoleRevoked","inputs":[{"name":"role","type":"bytes32","indexed":true,"internalType":"bytes32"},{"name":"account","type":"address","indexed":true,"internalType":"address"},{"name":"sender","type":"address","indexed":true,"internalType":"address"}],"anonymous":false},{"type":"error","name":"AccessControlBadConfirmation","inputs":[]},{"type":"error","name":"AccessControlUnauthorizedAccount","inputs":[{"name":"account","type":"address","internalType":"address"},{"name":"neededRole","type":"bytes32","internalType":"bytes32"}]},{"type":"error","name":"AlreadyInitialized","inputs":[]},{"type":"error","name":"AlreadySet","inputs":[]},{"type":"error","name":"InsufficientExitWindow","inputs":[]},{"type":"error","name":"InvalidAccount","inputs":[]},{"type":"error","name":"InvalidCollateral","inputs":[]},{"type":"error","name":"InvalidEpochDuration","inputs":[]},{"type":"error","name":"InvalidEpochDurationSetEpochsDelay","inputs":[]},{"type":"error","name":"InvalidFlashParams","inputs":[]},{"type":"error","name":"InvalidInitialization","inputs":[]},{"type":"error","name":"MissingRoles","inputs":[]},{"type":"error","name":"NoDepositWhitelist","inputs":[]},{"type":"error","name":"NotFactory","inputs":[]},{"type":"error","name":"NotInitialized","inputs":[]},{"type":"error","name":"NotInitializing","inputs":[]},{"type":"error","name":"OwnableInvalidOwner","inputs":[{"name":"owner","type":"address","internalType":"address"}]},{"type":"error","name":"OwnableUnauthorizedAccount","inputs":[{"name":"account","type":"address","internalType":"address"}]},{"type":"error","name":"ReentrancyGuardReentrantCall","inputs":[]},{"type":"error","name":"SafeCastOverflowedUintDowncast","inputs":[{"name":"bits","type":"uint8","internalType":"uint8"},{"name":"value","type":"uint256","internalType":"uint256"}]}],"bytecode":{"object":"0x60c0346101155761256a906001600160401b0390601f38849003908101601f19168201908382118383101761011957808391604096879485528339810103126101155761005760206100508361012d565b920161012d565b917ff0c57e16840df040f15088dc2f81fe391c3923bec73e23a9662efc9c229c6a009081549060ff82871c166101045780808316036100c0575b50505060805260a052516124289081610142823960805181818161056601526106d3015260a051816121c00152f35b6001600160401b0319909116811790915583519081527fc7f505b2f371ae2175ee4913f4499e1f2633a7b5936321eed1cdaeb6115181d290602090a15f8080610091565b855163f92ee8a960e01b8152600490fd5b5f80fd5b634e487b7160e01b5f52604160045260245ffd5b51906001600160a01b03821682036101155756fe6080604052600436106121b6575f3560e01c806301ffc9a71461034b5780630fcaeb1b146103465780631415519b146103415780631b66c9e11461033c5780631e89bd8a14610337578063248a9ca31461033257806327810b6e1461032d5780632abe3048146103285780632dd31000146103235780632f2ff15d1461031e57806331d9736c1461031957806336568abe1461031457806348d3b7751461030f578063502b4d601461030a57806350861adc1461030557806354fd4d501461030057806357ec83cc146102fb5780635cc07076146102f657806361819dd8146102f157806364601402146102ec578063653b04cd146102e75780636ec1e3f8146102e2578063715018a6146102dd57806375d6c765146102d8578063794b15b7146102d35780637e84ec81146102ce5780638d30d7a7146102c95780638da5cb5b146102c457806391d14854146102bf5780639f86fd85146102ba578063a1b12202146102b5578063a217fddf146102b0578063a21a1df9146102ab578063a3b54172146102a6578063a5d03223146102a1578063a8b24f9a1461029c578063afba70ad14610297578063b134427114610292578063bc46f7221461028d578063bc4f8c0514610288578063ce9b793014610283578063d2356eb51461027e578063d547741f14610279578063d8dfeb4514610274578063db3887151461026f578063ddd0f28a1461026a578063e945da7f14610265578063ecc98f0514610260578063ecf708581461025b578063f151f6b514610256578063f2fde38b146102515763fcdc5b60036121b6576110bb565b61108e565b611071565b611054565b611036565b611019565b610ffc565b610fc2565b610f97565b610f4b565b610f2e565b610f06565b610ee9565b610eaf565b610e87565b610e5d565b610e35565b610def565b610da2565b610d68565b610d4e565b610d2a565b610c5d565b610bff565b610bcb565b610ba6565b610b7e565b610b3e565b610b16565b610aaf565b610a8a565b610a50565b610a28565b6109ee565b6109c4565b610884565b610852565b61082d565b610805565b6107e4565b610799565b61075f565b610713565b6106be565b6104fa565b61048f565b610456565b610436565b6103fc565b6103c2565b6103a5565b346103a15760203660031901126103a15760043563ffffffff60e01b81168091036103a157602090637965db0b60e01b8114908115610390575b506040519015158152f35b6301ffc9a760e01b1490505f610385565b5f80fd5b346103a1575f3660031901126103a1576020601154604051908152f35b346103a1575f3660031901126103a15760206040517fc6aaadd7371d5e8f9ed6849dd66a66573a3ba37167d03f4352c9ba5693678fac8152f35b346103a1575f3660031901126103a15760206040517f9c56d972d63cbb4195b3c1484691dfc220fa96a4c47e7b6613bd82a022029e068152f35b346103a1575f3660031901126103a157602060015460d01c604051908152f35b346103a15760203660031901126103a1576004355f525f805160206123b38339815191526020526020600160405f200154604051908152f35b346103a1575f3660031901126103a1576001546040516001600160a01b039091168152602090f35b600435906001600160401b03821682036103a157565b9181601f840112156103a1578235916001600160401b0383116103a157602083818601950101116103a157565b346103a1576040806003193601126103a1576105146104b7565b906001600160401b036024358181116103a1576105359036906004016104cd565b917f9b779b17422d0df92223018b32b4d1fa46e071723d6817e2486d003becc55f0060028154146106ad57600290557f00000000000000000000000000000000000000000000000000000000000000006001600160a01b0316330361069c575f805160206123d38339815191529081549060ff82871c16801561068e575b61067d579261061e9287959261064f97957fc7f505b2f371ae2175ee4913f4499e1f2633a7b5936321eed1cdaeb6115181d29916906001600160401b0319161790556106195f805160206123d3833981519152600160401b60ff60401b19825416179055565b61194d565b5f805160206123d3833981519152805460ff60401b19169055516001600160401b0390911681529081906020820190565b0390a161067b60017f9b779b17422d0df92223018b32b4d1fa46e071723d6817e2486d003becc55f0055565b005b855163f92ee8a960e01b8152600490fd5b5080871681831610156105b3565b8351631966391b60e11b8152600490fd5b8451633ee5aeb560e01b8152600490fd5b346103a1575f3660031901126103a1576040517f00000000000000000000000000000000000000000000000000000000000000006001600160a01b03168152602090f35b6001600160a01b038116036103a157565b346103a15760403660031901126103a15761067b60243560043561073682610702565b805f525f805160206123b383398151915260205261075a600160405f200154611a21565b611e90565b346103a1575f3660031901126103a15760206040517f5295aaaa27fdd659293eafacbfafbc634c1b96298957e87de5f59308cdbfdad18152f35b346103a15760403660031901126103a1576024356107b681610702565b336001600160a01b038216036107d25761067b90600435611ec6565b60405163334bd91960e11b8152600490fd5b346103a1575f3660031901126103a157602060ff5f54166040519015158152f35b346103a1575f3660031901126103a157602065ffffffffffff60135460901c16604051908152f35b346103a1575f3660031901126103a157602060ff60025460a01c166040519015158152f35b346103a1575f3660031901126103a15760206001600160401b035f805160206123d38339815191525416604051908152f35b346103a15760603660031901126103a15761089d6104b7565b6024356108a981610702565b6001600160401b03916044358381116103a1576108ca9036906004016104cd565b5f805160206123d38339815191529491855494838616806109b35760ff8760401c169081156109a6575b50610994577fc7f505b2f371ae2175ee4913f4499e1f2633a7b5936321eed1cdaeb6115181d29661098f9661095c958716906001600160401b0319161790556109575f805160206123d3833981519152600160401b60ff60401b19825416179055565b6111ad565b5f805160206123d3833981519152805460ff60401b191690556040516001600160401b0390911681529081906020820190565b0390a1005b60405163f92ee8a960e01b8152600490fd5b905084861611155f6108f4565b60405162dc149f60e41b8152600490fd5b346103a15760203660031901126103a1576004355f526006602052602060405f2054604051908152f35b346103a1575f3660031901126103a15760206040517f591f6a0113ada8aff67efadec8ae2fa585cb4ebf4e1f8fc1205ffbeff98d00ec8152f35b346103a1575f3660031901126103a157602065ffffffffffff60015460a01c16604051908152f35b346103a1575f3660031901126103a15760206040517f439148f0bbc682ca079e46d6e2c2f0c1e3b820f1a291b069d8882abf8cf18dd98152f35b346103a1575f3660031901126103a157602060ff60035460a01c166040519015158152f35b346103a1575f3660031901126103a157610ac761217e565b5f8051602061239383398151915280546001600160a01b031981169091555f906001600160a01b03167f8be0079c531659141344cd1fd0a4f28419497f9722a3daafe3b4186f6b6457e08280a3005b346103a1575f3660031901126103a157602065ffffffffffff60135460601c16604051908152f35b346103a15760203660031901126103a157600435610b5b81610702565b60018060a01b03165f526005602052602060ff60405f2054166040519015158152f35b346103a1575f3660031901126103a157602065ffffffffffff60135460301c16604051908152f35b346103a1575f3660031901126103a157602065ffffffffffff60135416604051908152f35b346103a1575f3660031901126103a1575f80516020612393833981519152546040516001600160a01b039091168152602090f35b346103a15760403660031901126103a157602060ff610c51602435610c2381610702565b6004355f525f805160206123b3833981519152845260405f209060018060a01b03165f5260205260405f2090565b54166040519015158152f35b346103a1576040806003193601126103a157600435610c7b81610702565b6024356001600160401b0381116103a1575f80610d1993610ca260809436906004016104cd565b908188519283928337810184815203915af43d15610d215760203d610cc68161115c565b90610cd38751928361110c565b81523d5f8383013e5b8551958693151583850152808401528051918291826060860152018484015e5f838284010152601f8019910116810103606081018452018261110c565b805190602001fd5b60206060610cdc565b346103a1575f3660031901126103a157602060ff5f5460081c166040519015158152f35b346103a1575f3660031901126103a15760206040515f8152f35b346103a1575f3660031901126103a15760206040517f4a634bc14d77baf979756509ef4298c6f6318af357828612545267ee2eb792338152f35b346103a15760403660031901126103a1576020610de6602435610dc481610702565b6004355f526008835260405f209060018060a01b03165f5260205260405f2090565b54604051908152f35b346103a15760403660031901126103a157602060ff610c51602435610e1381610702565b6004355f526009845260405f209060018060a01b03165f5260205260405f2090565b346103a1575f3660031901126103a1576016546040516001600160a01b039091168152602090f35b346103a15760203660031901126103a1576004355f526007602052602060405f2054604051908152f35b346103a1575f3660031901126103a1576003546040516001600160a01b039091168152602090f35b346103a1575f3660031901126103a15760206040517fc9078c78bcaac2be1c77c160c539a489be2b72939771b1a6302fed3e2150c7458152f35b346103a1575f3660031901126103a1576020601054604051908152f35b346103a1575f3660031901126103a1576002546040516001600160a01b039091168152602090f35b346103a1575f3660031901126103a1576020601254604051908152f35b346103a15760403660031901126103a15761067b602435600435610f6e82610702565b805f525f805160206123b3833981519152602052610f92600160405f200154611a21565b611ec6565b346103a1575f3660031901126103a1575f5460405160109190911c6001600160a01b03168152602090f35b346103a1575f3660031901126103a15760206040517fbae4ee3de6c709ff9a002e774c5b78cb381560b219213c88ae0f1e207c03c0238152f35b346103a1575f3660031901126103a1576020601454604051908152f35b346103a1575f3660031901126103a1576020601554604051908152f35b346103a1575f3660031901126103a1576020604051633b9aca008152f35b346103a1575f3660031901126103a1576020600454604051908152f35b346103a1575f3660031901126103a157602060405162093a808152f35b346103a15760203660031901126103a15761067b6004356110ae81610702565b6110b661217e565b6118dc565b346103a1575f3660031901126103a1576020600f54604051908152f35b634e487b7160e01b5f52604160045260245ffd5b60c081019081106001600160401b0382111761110757604052565b6110d8565b90601f801991011681019081106001600160401b0382111761110757604052565b6040519061113a826110ec565b565b6040519061024082018281106001600160401b0382111761110757604052565b6001600160401b03811161110757601f01601f191660200190565b9291926111838261115c565b91611191604051938461110c565b8294818452818301116103a1578281602093845f960137010152565b9190611208611217916111be61222d565b6111c661222d565b60017f9b779b17422d0df92223018b32b4d1fa46e071723d6817e2486d003becc55f008190556001600160a01b03959094908087166118c2575b503691611177565b60208082518301019101611ff3565b805190919083166001600160a01b0316156118b05760409081830165ffffffffffff611249825165ffffffffffff1690565b161561189f5761012084018051909390611273906001600160a01b03165b6001600160a01b031690565b1561176e575b606085019261128f61128b8551151590565b1590565b8061175f575b61174e5761018086015f825b6116a1575b505084516112bd91506001600160a01b0316611267565b15611569575b92611473611463869461145d6114386114b49661139c6101c09a61139760c06115139e0151916113878d61137760e08201519361136761130d61010085015160018060a01b031690565b6101e08501516001600160a01b031661020086015190939061134590610220906001600160a01b03169701516001600160a01b031690565b9761134e61112d565b9a8b5260208b01526001600160a01b0390911690890152565b6001600160a01b03166060870152565b6001600160a01b03166080850152565b6001600160a01b031660a0830152565b61225b565b88516113d3906001600160a01b03165f805462010000600160b01b03191660109290921b62010000600160b01b0316919091179055565b6020890151600180546001600160a01b0319166001600160a01b0390921691909117905561142c61140342612360565b6001805465ffffffffffff60a01b191660a09290921b65ffffffffffff60a01b16919091179055565b5165ffffffffffff1690565b600180546001600160d01b031660d09290921b6001600160d01b031916919091179055565b51151590565b60ff80195f541691151516175f55565b61149a6114836080850151151590565b61ff005f5491151560081b169061ff001916175f55565b6114a760a0840151600455565b516001600160a01b031690565b848116611559575b506101408101516001600160a01b0316848116611549575b506101608101516001600160a01b0316848116611539575b506101a08101516001600160a01b0316848116611529575b5001516001600160a01b031690565b90811661151d5750565b61152690611cd4565b50565b61153290611c65565b505f611504565b61154290611bf6565b505f6114ec565b61155290611b20565b505f6114d4565b61156290611a6f565b505f6114bc565b610100850151611581906001600160a01b0316611267565b6116505761020085015161159d906001600160a01b0316611267565b611611576102208501516115b9906001600160a01b0316611267565b151580611605575b6115f55792611473611463611513969461145d6114386114b49661139c6101c09a5b979a50509650505094965050506112c3565b51630331eb0f60e41b8152600490fd5b5060e0850151156115c1565b610220850151611629906001600160a01b0316611267565b156115f55792611473611463611513969461145d6114386114b49661139c6101c09a6115e3565b610200850151611668906001600160a01b0316611267565b1580611695575b6115f55792611473611463611513969461145d6114386114b49661139c6101c09a6115e3565b5060e08501511561166f565b81518051821015611748576112676114a7836116bc93612156565b15611737576116f56116ee6116d56114a7848651612156565b6001600160a01b03165f90815260056020526040902090565b5460ff1690565b6117265790828261171e6117116116d56114a785978751612156565b805460ff19166001179055565b0190916112a1565b835163a741a04560e01b8152600490fd5b8351630da30f6560e31b8152600490fd5b506112a6565b815163ebf503c560e01b8152600490fd5b50610180860151511515611295565b610140850151611786906001600160a01b0316611267565b1561183c575b6101a08501516117a4906001600160a01b0316611267565b156117af575b611279565b6080850151156117f95760a085015115806117da575b15611279575163183c854560e21b8152600490fd5b506101c08501516117f3906001600160a01b0316611267565b156117c5565b60a08501511580159061181c575b156117aa575163183c854560e21b8152600490fd5b506101c0850151611835906001600160a01b0316611267565b1515611807565b6060850151156118725761016085015161185e906001600160a01b0316611267565b61178c575163183c854560e21b8152600490fd5b61016085015161188a906001600160a01b0316611267565b1561178c575163183c854560e21b8152600490fd5b82516368f5f8f160e11b8152600490fd5b6040516368f7a67560e11b8152600490fd5b6118d6906118ce61222d565b6110b661222d565b5f611200565b6001600160a01b03908116908115611935575f8051602061239383398151915280546001600160a01b031981168417909155167f8be0079c531659141344cd1fd0a4f28419497f9722a3daafe3b4186f6b6457e05f80a3565b604051631e4fbdf760e01b81525f6004820152602490fd5b611958913691611177565b60c0818051810103126103a157611a086119e862093a809260c06040519161197f836110ec565b6020810151835260408101516020840152606081015161199e81610702565b604084015260808101516119b181610702565b606084015260a08101516119c481610702565b608084015201516119d481610702565b60a08201526119e28161225b565b51612206565b611a026119f760015460d01c90565b65ffffffffffff1690565b9061221a565b10611a0f57565b60405163119796df60e01b8152600490fd5b5f8181525f805160206123b38339815191526020908152604080832033845290915290205460ff1615611a515750565b6044906040519063e2517d3f60e01b82523360048301526024820152fd5b6001600160a01b0381165f9081527fb7db2dd08fcb62d0c9e08c51941cae53c267786a0b75803fb7960902fc8ef97d60205260409020545f805160206123b38339815191529060ff16611b1a575f808052602091825260408082206001600160a01b038516835290925220805460ff1916600117905533906001600160a01b03165f7f2f8788117e7eff1d82e926ec794901d17c78024a50270940304540a733656f0d8180a4600190565b50505f90565b6001600160a01b0381165f9081527f03b26b53c87faa1058f30bb5d2fee64f717719a0d9b7e4f4df027aa5e9b6ed69602052604090207fbae4ee3de6c709ff9a002e774c5b78cb381560b219213c88ae0f1e207c03c023905f805160206123b38339815191529060ff905b5416611bef575f828152602091825260408082206001600160a01b038616835290925220805460ff1916600117905533916001600160a01b0316907f2f8788117e7eff1d82e926ec794901d17c78024a50270940304540a733656f0d5f80a4600190565b5050505f90565b6001600160a01b0381165f9081527f0287ab4cb376ea253d7b2ce0c2cbf458f7deae9458470d74afdfbbee484e9540602052604090207f9c56d972d63cbb4195b3c1484691dfc220fa96a4c47e7b6613bd82a022029e06905f805160206123b38339815191529060ff90611b8b565b6001600160a01b0381165f9081527fe41986b390c4ce6791b87f7423b5fab7a81a0e6d89660b6264f697d008b2243a602052604090207fc6aaadd7371d5e8f9ed6849dd66a66573a3ba37167d03f4352c9ba5693678fac905f805160206123b38339815191529060ff90611b8b565b6001600160a01b0381165f9081527f2d4ccbfe9f7672a6f2537c1e5bce6adacb73706879154bbab6ce096012d67216602052604090207f4a634bc14d77baf979756509ef4298c6f6318af357828612545267ee2eb79233905f805160206123b38339815191529060ff90611b8b565b6001600160a01b0381165f9081527f99e47f2907af87dbb5c62e22bd8ea822f5011dfd1e243469ce26ebebf3ab93e3602052604090207f591f6a0113ada8aff67efadec8ae2fa585cb4ebf4e1f8fc1205ffbeff98d00ec905f805160206123b38339815191529060ff90611b8b565b6001600160a01b0381165f9081527f82a1dc868a49801aa31c5dd393dc0b9005735300cdcd4bbc1af68215effcd6f8602052604090207fc9078c78bcaac2be1c77c160c539a489be2b72939771b1a6302fed3e2150c745905f805160206123b38339815191529060ff90611b8b565b6001600160a01b0381165f9081527f9aeaa4f1a9be826e331dea6728ca206744e0a34dccbc1d3da4a68acb8abf0363602052604090207f5295aaaa27fdd659293eafacbfafbc634c1b96298957e87de5f59308cdbfdad1905f805160206123b38339815191529060ff90611b8b565b5f8181525f805160206123b3833981519152602081815260408084206001600160a01b038716855290915290912060ff90611b8b565b5f8181525f805160206123b3833981519152602081815260408084206001600160a01b03871685529091529091205460ff1615611bef575f828152602091825260408082206001600160a01b038616835290925220805460ff1916905533916001600160a01b0316907ff6391f5c32d9c69d2a47ea670b442974b53935d1edc7fd64eb21e047a839171b5f80a4600190565b519061113a82610702565b519065ffffffffffff821682036103a157565b519081151582036103a157565b81601f820112156103a1578051916020916001600160401b038411611107578360051b9060405194611fb78584018761110c565b855283808601928201019283116103a1578301905b828210611fda575050505090565b8380918351611fe881610702565b815201910190611fcc565b906020828203126103a15781516001600160401b03928382116103a1570190610240828203126103a15761202561113c565b9261202f83611f58565b845261203d60208401611f58565b602085015261204e60408401611f63565b604085015261205f60608401611f76565b606085015261207060808401611f76565b608085015260a083015160a085015260c083015160c085015260e083015160e08501526101006120a1818501611f58565b908501526101206120b3818501611f58565b908501526101406120c5818501611f58565b908501526101606120d7818501611f58565b9085015261018091828401519182116103a1576120f5918401611f83565b908301526101a0612107818301611f58565b908301526101c0612119818301611f58565b908301526101e061212b818301611f58565b9083015261020061213d818301611f58565b9083015261214f610220809201611f58565b9082015290565b805182101561216a5760209160051b010190565b634e487b7160e01b5f52603260045260245ffd5b5f80516020612393833981519152546001600160a01b0316330361219e57565b60405163118cdaa760e01b8152336004820152602490fd5b365f80375f8036817f00000000000000000000000000000000000000000000000000000000000000005af43d5f803e156121ee573d5ff35b3d5ffd5b634e487b7160e01b5f52601160045260245ffd5b60011981019190821161221557565b6121f2565b8181029291811591840414171561221557565b60ff5f805160206123d38339815191525460401c161561224957565b604051631afcd79f60e31b8152600490fd5b600381511061234e576040810180516001600160a01b0392919083161580612341575b61232f57816122c86122a660a0936122996123039651600f55565b6114a76020850151601555565b60018060a01b03166bffffffffffffffffffffffff60a01b6016541617601655565b60608101516001600160a01b031684811661231f575b5060808101516001600160a01b0316848116612316575001516001600160a01b031690565b90811661230d5750565b61152690611e21565b61153290611db2565b61232890611d43565b505f6122de565b604051630331eb0f60e41b8152600490fd5b506020820151151561227e565b6040516317a509b960e31b8152600490fd5b65ffffffffffff90818111612373571690565b604490604051906306dfcc6560e41b8252603060048301526024820152fdfe9016d09d72d40fdae2fd8ceac6b6234c7706214fd39c1cd1e609a0528c19930002dd7bc7dec4dceedda775e58dd541e08a116c6c53815c0bd028192f7b626800f0c57e16840df040f15088dc2f81fe391c3923bec73e23a9662efc9c229c6a00a2646970667358221220f20660765f74a9803b91f6f1a5952dfe75320e479bfe20f45dd97ac642e7bca764736f6c63430008190033","linkReferences":{}},"methodIdentifiers":{"DEFAULT_ADMIN_ROLE()":"a217fddf","DEPOSITOR_WHITELIST_ROLE()":"1b66c9e1","DEPOSIT_LIMIT_SET_ROLE()":"a21a1df9","DEPOSIT_WHITELIST_SET_ROLE()":"db388715","EPOCH_DURATION_SET_ROLE()":"61819dd8","FACTORY()":"2dd31000","FLASH_FEE_BASE()":"ecc98f05","FLASH_FEE_RATE_SET_ROLE()":"bc46f722","FLASH_FEE_RECEIVER_SET_ROLE()":"31d9736c","IS_DEPOSIT_LIMIT_SET_ROLE()":"1415519b","MIN_EXIT_WINDOW()":"f151f6b5","RETURN_VALUE()":"653b04cd","burner()":"27810b6e","collateral()":"d8dfeb45","delegator()":"ce9b7930","depositLimit()":"ecf70858","depositWhitelist()":"48d3b775","epochDurationInitInternal()":"64601402","epochDurationInternal()":"1e89bd8a","epochDurationSetEpochsDelayInternal()":"fcdc5b60","epochInitInternal()":"0fcaeb1b","flashFeeRate()":"e945da7f","flashFeeReceiver()":"a8b24f9a","getRoleAdmin(bytes32)":"248a9ca3","grantRole(bytes32,address)":"2f2ff15d","hasRole(bytes32,address)":"91d14854","initialize(uint64,address,bytes)":"57ec83cc","isDelegatorInitialized()":"50861adc","isDepositLimit()":"a1b12202","isDepositorWhitelisted(address)":"794b15b7","isSlasherInitialized()":"6ec1e3f8","isWithdrawalsClaimed(uint256,address)":"a5d03223","migrate(uint64,bytes)":"2abe3048","nextEpochDurationInitInternal()":"75d6c765","nextEpochDurationInternal()":"502b4d60","nextEpochDurationSetEpochsDelayInternal()":"bc4f8c05","nextEpochInitInternal()":"ddd0f28a","owner()":"8da5cb5b","prevEpochDurationInitInternal()":"8d30d7a7","prevEpochDurationInternal()":"7e84ec81","prevEpochInitInternal()":"d2356eb5","renounceOwnership()":"715018a6","renounceRole(bytes32,address)":"36568abe","revokeRole(bytes32,address)":"d547741f","slasher()":"b1344271","staticDelegateCall(address,bytes)":"9f86fd85","supportsInterface(bytes4)":"01ffc9a7","transferOwnership(address)":"f2fde38b","version()":"54fd4d50","withdrawalShares(uint256)":"afba70ad","withdrawalSharesOf(uint256,address)":"a3b54172","withdrawals(uint256)":"5cc07076"},"id":106}