{"abi":[{"type":"constructor","inputs":[{"name":"vaultFactory","type":"address","internalType":"address"},{"name":"implementation","type":"address","internalType":"address"}],"stateMutability":"nonpayable"},{"type":"fallback","stateMutability":"payable"},{"type":"function","name":"DEFAULT_ADMIN_ROLE","inputs":[],"outputs":[{"name":"","type":"bytes32","internalType":"bytes32"}],"stateMutability":"view"},{"type":"function","name":"DEPOSITOR_WHITELIST_ROLE","inputs":[],"outputs":[{"name":"","type":"bytes32","internalType":"bytes32"}],"stateMutability":"view"},{"type":"function","name":"DEPOSIT_LIMIT_SET_ROLE","inputs":[],"outputs":[{"name":"","type":"bytes32","internalType":"bytes32"}],"stateMutability":"view"},{"type":"function","name":"DEPOSIT_WHITELIST_SET_ROLE","inputs":[],"outputs":[{"name":"","type":"bytes32","internalType":"bytes32"}],"stateMutability":"view"},{"type":"function","name":"EPOCH_DURATION_SET_ROLE","inputs":[],"outputs":[{"name":"","type":"bytes32","internalType":"bytes32"}],"stateMutability":"view"},{"type":"function","name":"FACTORY","inputs":[],"outputs":[{"name":"","type":"address","internalType":"address"}],"stateMutability":"view"},{"type":"function","name":"FLASH_FEE_BASE","inputs":[],"outputs":[{"name":"","type":"uint256","internalType":"uint256"}],"stateMutability":"view"},{"type":"function","name":"FLASH_FEE_RATE_SET_ROLE","inputs":[],"outputs":[{"name":"","type":"bytes32","internalType":"bytes32"}],"stateMutability":"view"},{"type":"function","name":"FLASH_FEE_RECEIVER_SET_ROLE","inputs":[],"outputs":[{"name":"","type":"bytes32","internalType":"bytes32"}],"stateMutability":"view"},{"type":"function","name":"FLASH_LOAN_ENABLED_SET_ROLE","inputs":[],"outputs":[{"name":"","type":"bytes32","internalType":"bytes32"}],"stateMutability":"view"},{"type":"function","name":"IS_DEPOSIT_LIMIT_SET_ROLE","inputs":[],"outputs":[{"name":"","type":"bytes32","internalType":"bytes32"}],"stateMutability":"view"},{"type":"function","name":"MIN_EXIT_WINDOW","inputs":[],"outputs":[{"name":"","type":"uint48","internalType":"uint48"}],"stateMutability":"view"},{"type":"function","name":"RETURN_VALUE","inputs":[],"outputs":[{"name":"","type":"bytes32","internalType":"bytes32"}],"stateMutability":"view"},{"type":"function","name":"burner","inputs":[],"outputs":[{"name":"","type":"address","internalType":"address"}],"stateMutability":"view"},{"type":"function","name":"collateral","inputs":[],"outputs":[{"name":"","type":"address","internalType":"address"}],"stateMutability":"view"},{"type":"function","name":"delegator","inputs":[],"outputs":[{"name":"","type":"address","internalType":"address"}],"stateMutability":"view"},{"type":"function","name":"depositLimit","inputs":[],"outputs":[{"name":"","type":"uint256","internalType":"uint256"}],"stateMutability":"view"},{"type":"function","name":"depositWhitelist","inputs":[],"outputs":[{"name":"","type":"bool","internalType":"bool"}],"stateMutability":"view"},{"type":"function","name":"flashFeeRate","inputs":[],"outputs":[{"name":"","type":"uint256","internalType":"uint256"}],"stateMutability":"view"},{"type":"function","name":"flashFeeReceiver","inputs":[],"outputs":[{"name":"","type":"address","internalType":"address"}],"stateMutability":"view"},{"type":"function","name":"flashLoanEnabled","inputs":[],"outputs":[{"name":"","type":"bool","internalType":"bool"}],"stateMutability":"view"},{"type":"function","name":"getRoleAdmin","inputs":[{"name":"role","type":"bytes32","internalType":"bytes32"}],"outputs":[{"name":"","type":"bytes32","internalType":"bytes32"}],"stateMutability":"view"},{"type":"function","name":"grantRole","inputs":[{"name":"role","type":"bytes32","internalType":"bytes32"},{"name":"account","type":"address","internalType":"address"}],"outputs":[],"stateMutability":"nonpayable"},{"type":"function","name":"hasRole","inputs":[{"name":"role","type":"bytes32","internalType":"bytes32"},{"name":"account","type":"address","internalType":"address"}],"outputs":[{"name":"","type":"bool","internalType":"bool"}],"stateMutability":"view"},{"type":"function","name":"initialize","inputs":[{"name":"initialVersion","type":"uint64","internalType":"uint64"},{"name":"owner_","type":"address","internalType":"address"},{"name":"data","type":"bytes","internalType":"bytes"}],"outputs":[],"stateMutability":"nonpayable"},{"type":"function","name":"isDelegatorInitialized","inputs":[],"outputs":[{"name":"","type":"bool","internalType":"bool"}],"stateMutability":"view"},{"type":"function","name":"isDepositLimit","inputs":[],"outputs":[{"name":"","type":"bool","internalType":"bool"}],"stateMutability":"view"},{"type":"function","name":"isDepositorWhitelisted","inputs":[{"name":"account","type":"address","internalType":"address"}],"outputs":[{"name":"value","type":"bool","internalType":"bool"}],"stateMutability":"view"},{"type":"function","name":"isSlasherInitialized","inputs":[],"outputs":[{"name":"","type":"bool","internalType":"bool"}],"stateMutability":"view"},{"type":"function","name":"isWithdrawalsClaimed","inputs":[{"name":"epoch","type":"uint256","internalType":"uint256"},{"name":"account","type":"address","internalType":"address"}],"outputs":[{"name":"value","type":"bool","internalType":"bool"}],"stateMutability":"view"},{"type":"function","name":"migrate","inputs":[{"name":"newVersion","type":"uint64","internalType":"uint64"},{"name":"data","type":"bytes","internalType":"bytes"}],"outputs":[],"stateMutability":"nonpayable"},{"type":"function","name":"owner","inputs":[],"outputs":[{"name":"","type":"address","internalType":"address"}],"stateMutability":"view"},{"type":"function","name":"renounceOwnership","inputs":[],"outputs":[],"stateMutability":"nonpayable"},{"type":"function","name":"renounceRole","inputs":[{"name":"role","type":"bytes32","internalType":"bytes32"},{"name":"callerConfirmation","type":"address","internalType":"address"}],"outputs":[],"stateMutability":"nonpayable"},{"type":"function","name":"revokeRole","inputs":[{"name":"role","type":"bytes32","internalType":"bytes32"},{"name":"account","type":"address","internalType":"address"}],"outputs":[],"stateMutability":"nonpayable"},{"type":"function","name":"slasher","inputs":[],"outputs":[{"name":"","type":"address","internalType":"address"}],"stateMutability":"view"},{"type":"function","name":"staticDelegateCall","inputs":[{"name":"target","type":"address","internalType":"address"},{"name":"data","type":"bytes","internalType":"bytes"}],"outputs":[],"stateMutability":"nonpayable"},{"type":"function","name":"supportsInterface","inputs":[{"name":"interfaceId","type":"bytes4","internalType":"bytes4"}],"outputs":[{"name":"","type":"bool","internalType":"bool"}],"stateMutability":"view"},{"type":"function","name":"transferOwnership","inputs":[{"name":"newOwner","type":"address","internalType":"address"}],"outputs":[],"stateMutability":"nonpayable"},{"type":"function","name":"version","inputs":[],"outputs":[{"name":"","type":"uint64","internalType":"uint64"}],"stateMutability":"view"},{"type":"function","name":"withdrawalShares","inputs":[{"name":"epoch","type":"uint256","internalType":"uint256"}],"outputs":[{"name":"amount","type":"uint256","internalType":"uint256"}],"stateMutability":"view"},{"type":"function","name":"withdrawalSharesOf","inputs":[{"name":"epoch","type":"uint256","internalType":"uint256"},{"name":"account","type":"address","internalType":"address"}],"outputs":[{"name":"amount","type":"uint256","internalType":"uint256"}],"stateMutability":"view"},{"type":"function","name":"withdrawals","inputs":[{"name":"epoch","type":"uint256","internalType":"uint256"}],"outputs":[{"name":"amount","type":"uint256","internalType":"uint256"}],"stateMutability":"view"},{"type":"event","name":"Initialized","inputs":[{"name":"version","type":"uint64","indexed":false,"internalType":"uint64"}],"anonymous":false},{"type":"event","name":"OwnershipTransferred","inputs":[{"name":"previousOwner","type":"address","indexed":true,"internalType":"address"},{"name":"newOwner","type":"address","indexed":true,"internalType":"address"}],"anonymous":false},{"type":"event","name":"RoleAdminChanged","inputs":[{"name":"role","type":"bytes32","indexed":true,"internalType":"bytes32"},{"name":"previousAdminRole","type":"bytes32","indexed":true,"internalType":"bytes32"},{"name":"newAdminRole","type":"bytes32","indexed":true,"internalType":"bytes32"}],"anonymous":false},{"type":"event","name":"RoleGranted","inputs":[{"name":"role","type":"bytes32","indexed":true,"internalType":"bytes32"},{"name":"account","type":"address","indexed":true,"internalType":"address"},{"name":"sender","type":"address","indexed":true,"internalType":"address"}],"anonymous":false},{"type":"event","name":"RoleRevoked","inputs":[{"name":"role","type":"bytes32","indexed":true,"internalType":"bytes32"},{"name":"account","type":"address","indexed":true,"internalType":"address"},{"name":"sender","type":"address","indexed":true,"internalType":"address"}],"anonymous":false},{"type":"error","name":"AccessControlBadConfirmation","inputs":[]},{"type":"error","name":"AccessControlUnauthorizedAccount","inputs":[{"name":"account","type":"address","internalType":"address"},{"name":"neededRole","type":"bytes32","internalType":"bytes32"}]},{"type":"error","name":"AlreadyInitialized","inputs":[]},{"type":"error","name":"AlreadySet","inputs":[]},{"type":"error","name":"InsufficientExitWindow","inputs":[]},{"type":"error","name":"InvalidAccount","inputs":[]},{"type":"error","name":"InvalidCollateral","inputs":[]},{"type":"error","name":"InvalidEpochDuration","inputs":[]},{"type":"error","name":"InvalidEpochDurationSetEpochsDelay","inputs":[]},{"type":"error","name":"InvalidFlashParams","inputs":[]},{"type":"error","name":"InvalidInitialization","inputs":[]},{"type":"error","name":"InvalidOrigin","inputs":[]},{"type":"error","name":"MissingRoles","inputs":[]},{"type":"error","name":"NoDepositWhitelist","inputs":[]},{"type":"error","name":"NotFactory","inputs":[]},{"type":"error","name":"NotInitialized","inputs":[]},{"type":"error","name":"NotInitializing","inputs":[]},{"type":"error","name":"OwnableInvalidOwner","inputs":[{"name":"owner","type":"address","internalType":"address"}]},{"type":"error","name":"OwnableUnauthorizedAccount","inputs":[{"name":"account","type":"address","internalType":"address"}]},{"type":"error","name":"ReentrancyGuardReentrantCall","inputs":[]},{"type":"error","name":"SafeCastOverflowedUintDowncast","inputs":[{"name":"bits","type":"uint8","internalType":"uint8"},{"name":"value","type":"uint256","internalType":"uint256"}]}],"bytecode":{"object":"0x60c03461011557612508906001600160401b0390601f38849003908101601f19168201908382118383101761011957808391604096879485528339810103126101155761005760206100508361012d565b920161012d565b917ff0c57e16840df040f15088dc2f81fe391c3923bec73e23a9662efc9c229c6a009081549060ff82871c166101045780808316036100c0575b50505060805260a052516123c6908161014282396080518181816104990152610604015260a0518161212a0152f35b6001600160401b0319909116811790915583519081527fc7f505b2f371ae2175ee4913f4499e1f2633a7b5936321eed1cdaeb6115181d290602090a15f8080610091565b855163f92ee8a960e01b8152600490fd5b5f80fd5b634e487b7160e01b5f52604160045260245ffd5b51906001600160a01b03821682036101155756fe608060405260043610612120575f3560e01c806301ffc9a7146102bb5780631415519b146102b65780631b66c9e1146102b1578063248a9ca3146102ac57806327810b6e146102a75780632abe3048146102a25780632dd310001461029d5780632f2ff15d1461029857806331d9736c1461029357806336568abe1461028e57806348d3b7751461028957806350861adc1461028457806354fd4d501461027f57806357ec83cc1461027a5780635cc070761461027557806361819dd814610270578063653b04cd1461026b57806365d61c6c146102665780636ec1e3f814610261578063715018a61461025c578063794b15b7146102575780638da5cb5b1461025257806391d148541461024d5780639f86fd8514610248578063a1b1220214610243578063a217fddf1461023e578063a21a1df914610239578063a3b5417214610234578063a5d032231461022f578063a66b3a731461022a578063a8b24f9a14610225578063afba70ad14610220578063b13442711461021b578063bc46f72214610216578063ce9b793014610211578063d547741f1461020c578063d8dfeb4514610207578063db38871514610202578063e945da7f146101fd578063ecc98f05146101f8578063ecf70858146101f3578063f151f6b5146101ee5763f2fde38b0361212057610f07565b610eea565b610ecd565b610eaf565b610e92565b610e58565b610e2d565b610de1565b610db9565b610d7f565b610d57565b610d2d565b610d05565b610ccb565b610c85565b610c38565b610bfe565b610be4565b610bc0565b610af3565b610a95565b610a61565b610a21565b6109ba565b610995565b610970565b610936565b6108fc565b6108d2565b61078d565b61075b565b610736565b610715565b6106ca565b610690565b610644565b6105ef565b61042d565b6103c2565b610389565b61034f565b610315565b346103115760203660031901126103115760043563ffffffff60e01b811680910361031157602090637965db0b60e01b8114908115610300575b506040519015158152f35b6301ffc9a760e01b1490505f6102f5565b5f80fd5b34610311575f3660031901126103115760206040517fc6aaadd7371d5e8f9ed6849dd66a66573a3ba37167d03f4352c9ba5693678fac8152f35b34610311575f3660031901126103115760206040517f9c56d972d63cbb4195b3c1484691dfc220fa96a4c47e7b6613bd82a022029e068152f35b34610311576020366003190112610311576004355f525f805160206123518339815191526020526020600160405f200154604051908152f35b34610311575f366003190112610311576001546040516001600160a01b039091168152602090f35b600435906001600160401b038216820361031157565b9181601f84011215610311578235916001600160401b038311610311576020838186019501011161031157565b3461031157604080600319360112610311576104476103ea565b906001600160401b0360243581811161031157610468903690600401610400565b917f9b779b17422d0df92223018b32b4d1fa46e071723d6817e2486d003becc55f0060028154146105de57600290557f00000000000000000000000000000000000000000000000000000000000000006001600160a01b031633036105cd575f8051602061237183398151915280548281169260ff82881c1680156105c1575b6105b05767ffffffffffffffff199091169087161790555f80516020612371833981519152805460ff60401b1916600160401b1790557fc7f505b2f371ae2175ee4913f4499e1f2633a7b5936321eed1cdaeb6115181d29461058294909390926105519261182d565b5f80516020612371833981519152805460ff60401b19169055516001600160401b0390911681529081906020820190565b0390a16105ae60017f9b779b17422d0df92223018b32b4d1fa46e071723d6817e2486d003becc55f0055565b005b865163f92ee8a960e01b8152600490fd5b508088168410156104e8565b8351631966391b60e11b8152600490fd5b8451633ee5aeb560e01b8152600490fd5b34610311575f366003190112610311576040517f00000000000000000000000000000000000000000000000000000000000000006001600160a01b03168152602090f35b6001600160a01b0381160361031157565b34610311576040366003190112610311576105ae60243560043561066782610633565b805f525f8051602061235183398151915260205261068b600160405f2001546118f8565b611dd6565b34610311575f3660031901126103115760206040517f5295aaaa27fdd659293eafacbfafbc634c1b96298957e87de5f59308cdbfdad18152f35b34610311576040366003190112610311576024356106e781610633565b336001600160a01b03821603610703576105ae90600435611e0c565b60405163334bd91960e11b8152600490fd5b34610311575f36600319011261031157602060ff5f54166040519015158152f35b34610311575f36600319011261031157602060ff60025460a01c166040519015158152f35b34610311575f3660031901126103115760206001600160401b035f805160206123718339815191525416604051908152f35b34610311576060366003190112610311576107a66103ea565b6024356107b281610633565b6001600160401b0391604435838111610311576107d3903690600401610400565b5f805160206123718339815191529491855494838616806108c15760ff8760401c169081156108b4575b506108a2577fc7f505b2f371ae2175ee4913f4499e1f2633a7b5936321eed1cdaeb6115181d29661089d9661086a958716906001600160401b0319161790556108655f80516020612371833981519152600160401b68ff000000000000000019825416179055565b61100a565b5f80516020612371833981519152805460ff60401b191690556040516001600160401b0390911681529081906020820190565b0390a1005b60405163f92ee8a960e01b8152600490fd5b905084861611155f6107fd565b60405162dc149f60e41b8152600490fd5b34610311576020366003190112610311576004355f526006602052602060405f2054604051908152f35b34610311575f3660031901126103115760206040517f591f6a0113ada8aff67efadec8ae2fa585cb4ebf4e1f8fc1205ffbeff98d00ec8152f35b34610311575f3660031901126103115760206040517f439148f0bbc682ca079e46d6e2c2f0c1e3b820f1a291b069d8882abf8cf18dd98152f35b34610311575f36600319011261031157602060ff60165460a01c166040519015158152f35b34610311575f36600319011261031157602060ff60035460a01c166040519015158152f35b34610311575f366003190112610311576109d26120e8565b5f8051602061233183398151915280546001600160a01b031981169091555f906001600160a01b03167f8be0079c531659141344cd1fd0a4f28419497f9722a3daafe3b4186f6b6457e08280a3005b3461031157602036600319011261031157600435610a3e81610633565b60018060a01b03165f526005602052602060ff60405f2054166040519015158152f35b34610311575f366003190112610311575f80516020612331833981519152546040516001600160a01b039091168152602090f35b3461031157604036600319011261031157602060ff610ae7602435610ab981610633565b6004355f525f80516020612351833981519152845260405f209060018060a01b03165f5260205260405f2090565b54166040519015158152f35b346103115760408060031936011261031157600435610b1181610633565b6024356001600160401b038111610311575f80610baf93610b386080943690600401610400565b908188519283928337810184815203915af43d15610bb75760203d610b5c81610fb9565b90610b6987519283610f69565b81523d5f8383013e5b8551958693151583850152808401528051918291826060860152018484015e5f838284010152601f80199101168101036060810184520182610f69565b805190602001fd5b60206060610b72565b34610311575f36600319011261031157602060ff5f5460081c166040519015158152f35b34610311575f3660031901126103115760206040515f8152f35b34610311575f3660031901126103115760206040517f4a634bc14d77baf979756509ef4298c6f6318af357828612545267ee2eb792338152f35b34610311576040366003190112610311576020610c7c602435610c5a81610633565b6004355f526008835260405f209060018060a01b03165f5260205260405f2090565b54604051908152f35b3461031157604036600319011261031157602060ff610ae7602435610ca981610633565b6004355f526009845260405f209060018060a01b03165f5260205260405f2090565b34610311575f3660031901126103115760206040517fc9feed28b4b1a1d11c6791da7bb7f6b8d33e831a4992a9383dead1ec2c82c35a8152f35b34610311575f366003190112610311576016546040516001600160a01b039091168152602090f35b34610311576020366003190112610311576004355f526007602052602060405f2054604051908152f35b34610311575f366003190112610311576003546040516001600160a01b039091168152602090f35b34610311575f3660031901126103115760206040517fc9078c78bcaac2be1c77c160c539a489be2b72939771b1a6302fed3e2150c7458152f35b34610311575f366003190112610311576002546040516001600160a01b039091168152602090f35b34610311576040366003190112610311576105ae602435600435610e0482610633565b805f525f80516020612351833981519152602052610e28600160405f2001546118f8565b611e0c565b34610311575f366003190112610311575f5460405160109190911c6001600160a01b03168152602090f35b34610311575f3660031901126103115760206040517fbae4ee3de6c709ff9a002e774c5b78cb381560b219213c88ae0f1e207c03c0238152f35b34610311575f366003190112610311576020601554604051908152f35b34610311575f366003190112610311576020604051633b9aca008152f35b34610311575f366003190112610311576020600454604051908152f35b34610311575f36600319011261031157602060405162093a808152f35b34610311576020366003190112610311576105ae600435610f2781610633565b610f2f6120e8565b6117bc565b634e487b7160e01b5f52604160045260245ffd5b61010081019081106001600160401b03821117610f6457604052565b610f34565b90601f801991011681019081106001600160401b03821117610f6457604052565b60405190610f9782610f48565b565b6040519061028082018281106001600160401b03821117610f6457604052565b6001600160401b038111610f6457601f01601f191660200190565b929192610fe082610fb9565b91610fee6040519384610f69565b829481845281830111610311578281602093845f960137010152565b91906110656110749161101b61215c565b61102361215c565b60017f9b779b17422d0df92223018b32b4d1fa46e071723d6817e2486d003becc55f008190556001600160a01b03959094908087166117a2575b503691610fd4565b60208082518301019101611f39565b805190919083166001600160a01b0316156117905760409081830165ffffffffffff6110a6825165ffffffffffff1690565b161561177f57610140840180519093906110d0906001600160a01b03165b6001600160a01b031690565b1561164e575b60608501926110ec6110e88551151590565b1590565b8061163f575b61162e576101a086015f825b611574575b5050845161111a91506001600160a01b03166110c4565b15611394575b60c08501519060e086015161113490151590565b6101008701516101208801516102008901516102208a01516102408b01516102608c01516001600160a01b039081169791811696928116959381169416929161117b610f8a565b988952151560208901528701526001600160a01b031660608601526001600160a01b031660808501526001600160a01b031660a08401526001600160a01b031660c08301526001600160a01b031660e08201526111d79061218a565b83516001600160a01b03165f805462010000600160b01b03191660109290921b62010000600160b01b031691909117905560208401516001600160a01b0316600180546001600160a01b0319166001600160a01b0390921691909117905561123e426122fe565b6001805465ffffffffffff60a01b191660a09290921b65ffffffffffff60a01b169190911790555165ffffffffffff16600180546001600160d01b031660d09290921b6001600160d01b0319169190911790555115156112a89060ff80195f541691151516175f55565b60808201515f805461ff00191691151560081b61ff001691909117905560a0820151600455516001600160a01b031661133e916101e091808516611384575b506101608101516001600160a01b0316848116611374575b506101808101516001600160a01b0316848116611364575b506101c08101516001600160a01b0316848116611354575b5001516001600160a01b031690565b9081166113485750565b61135190611bab565b50565b61135d90611b3c565b505f61132f565b61136d90611acd565b505f611317565b61137d906119f7565b505f6112ff565b61138d90611946565b505f6112e7565b94939291906113a660e0850151151590565b8015611554575b156114be576101208401516113ca906001600160a01b03166110c4565b1580158161149e575b80611471575b156113ef578651630331eb0f60e41b8152600490fd5b610100859697929394950151159081159161144e575b81611421575b50156111205751630331eb0f60e41b8152600490fd5b90508061142f575b5f61140b565b50610260850151611448906001600160a01b03166110c4565b15611429565b610240870151909150611469906001600160a01b03166110c4565b151590611405565b506101008501511580156113d95750610240850151611498906001600160a01b03166110c4565b156113d9565b506102608501516114b7906001600160a01b03166110c4565b15156113d3565b90919293946114da6110c461012087015160018060a01b031690565b15801590611546575b8015611526575b8015611506575b156111205751630331eb0f60e41b8152600490fd5b5061024085015161151f906001600160a01b03166110c4565b15156114f1565b5061026085015161153f906001600160a01b03166110c4565b15156114ea565b5061010085015115156114e3565b5061022084015161156d906001600160a01b03166110c4565b15156113ad565b81518051821015611628576110c461158f8361159c936120c0565b516001600160a01b031690565b15611617576115d56115ce6115b561158f8486516120c0565b6001600160a01b03165f90815260056020526040902090565b5460ff1690565b611606579082826115fe6115f16115b561158f859787516120c0565b805460ff19166001179055565b0190916110fe565b835163a741a04560e01b8152600490fd5b8351630da30f6560e31b8152600490fd5b50611103565b815163ebf503c560e01b8152600490fd5b506101a08601515115156110f2565b610160850151611666906001600160a01b03166110c4565b1561171c575b6101c0850151611684906001600160a01b03166110c4565b1561168f575b6110d6565b6080850151156116d95760a085015115806116ba575b156110d6575163183c854560e21b8152600490fd5b506101e08501516116d3906001600160a01b03166110c4565b156116a5565b60a0850151158015906116fc575b1561168a575163183c854560e21b8152600490fd5b506101e0850151611715906001600160a01b03166110c4565b15156116e7565b6060850151156117525761018085015161173e906001600160a01b03166110c4565b61166c575163183c854560e21b8152600490fd5b61018085015161176a906001600160a01b03166110c4565b1561166c575163183c854560e21b8152600490fd5b82516368f5f8f160e11b8152600490fd5b6040516368f7a67560e11b8152600490fd5b6117b6906117ae61215c565b610f2f61215c565b5f61105d565b6001600160a01b03908116908115611815575f8051602061233183398151915280546001600160a01b031981168417909155167f8be0079c531659141344cd1fd0a4f28419497f9722a3daafe3b4186f6b6457e05f80a3565b604051631e4fbdf760e01b81525f6004820152602490fd5b916118446001926001600160401b03923691610fd4565b9216036118e65780805161010092839181010312610311576118dc610f97926040519261187084610f48565b6020810151845261188360408201611ebc565b60208501526060810151604085015261189e60808201611e9e565b60608501526118af60a08201611e9e565b60808501526118c060c08201611e9e565b60a08501526118d160e08201611e9e565b60c085015201611e9e565b60e08201526122af565b604051630a1824e360e01b8152600490fd5b5f8181525f805160206123518339815191526020908152604080832033845290915290205460ff16156119285750565b6044906040519063e2517d3f60e01b82523360048301526024820152fd5b6001600160a01b0381165f9081527fb7db2dd08fcb62d0c9e08c51941cae53c267786a0b75803fb7960902fc8ef97d60205260409020545f805160206123518339815191529060ff166119f1575f808052602091825260408082206001600160a01b038516835290925220805460ff1916600117905533906001600160a01b03165f7f2f8788117e7eff1d82e926ec794901d17c78024a50270940304540a733656f0d8180a4600190565b50505f90565b6001600160a01b0381165f9081527f03b26b53c87faa1058f30bb5d2fee64f717719a0d9b7e4f4df027aa5e9b6ed69602052604090207fbae4ee3de6c709ff9a002e774c5b78cb381560b219213c88ae0f1e207c03c023905f805160206123518339815191529060ff905b5416611ac6575f828152602091825260408082206001600160a01b038616835290925220805460ff1916600117905533916001600160a01b0316907f2f8788117e7eff1d82e926ec794901d17c78024a50270940304540a733656f0d5f80a4600190565b5050505f90565b6001600160a01b0381165f9081527f0287ab4cb376ea253d7b2ce0c2cbf458f7deae9458470d74afdfbbee484e9540602052604090207f9c56d972d63cbb4195b3c1484691dfc220fa96a4c47e7b6613bd82a022029e06905f805160206123518339815191529060ff90611a62565b6001600160a01b0381165f9081527fe41986b390c4ce6791b87f7423b5fab7a81a0e6d89660b6264f697d008b2243a602052604090207fc6aaadd7371d5e8f9ed6849dd66a66573a3ba37167d03f4352c9ba5693678fac905f805160206123518339815191529060ff90611a62565b6001600160a01b0381165f9081527f2d4ccbfe9f7672a6f2537c1e5bce6adacb73706879154bbab6ce096012d67216602052604090207f4a634bc14d77baf979756509ef4298c6f6318af357828612545267ee2eb79233905f805160206123518339815191529060ff90611a62565b6001600160a01b0381165f9081527f99e47f2907af87dbb5c62e22bd8ea822f5011dfd1e243469ce26ebebf3ab93e3602052604090207f591f6a0113ada8aff67efadec8ae2fa585cb4ebf4e1f8fc1205ffbeff98d00ec905f805160206123518339815191529060ff90611a62565b6001600160a01b0381165f9081527f665296150f4083bfe5a58682f99690b24ea27a3f56243679fa9797c6a16217aa602052604090207fc9feed28b4b1a1d11c6791da7bb7f6b8d33e831a4992a9383dead1ec2c82c35a905f805160206123518339815191529060ff90611a62565b6001600160a01b0381165f9081527f82a1dc868a49801aa31c5dd393dc0b9005735300cdcd4bbc1af68215effcd6f8602052604090207fc9078c78bcaac2be1c77c160c539a489be2b72939771b1a6302fed3e2150c745905f805160206123518339815191529060ff90611a62565b6001600160a01b0381165f9081527f9aeaa4f1a9be826e331dea6728ca206744e0a34dccbc1d3da4a68acb8abf0363602052604090207f5295aaaa27fdd659293eafacbfafbc634c1b96298957e87de5f59308cdbfdad1905f805160206123518339815191529060ff90611a62565b5f8181525f80516020612351833981519152602081815260408084206001600160a01b038716855290915290912060ff90611a62565b5f8181525f80516020612351833981519152602081815260408084206001600160a01b03871685529091529091205460ff1615611ac6575f828152602091825260408082206001600160a01b038616835290925220805460ff1916905533916001600160a01b0316907ff6391f5c32d9c69d2a47ea670b442974b53935d1edc7fd64eb21e047a839171b5f80a4600190565b5190610f9782610633565b519065ffffffffffff8216820361031157565b5190811515820361031157565b81601f82011215610311578051916020916001600160401b038411610f64578360051b9060405194611efd85840187610f69565b85528380860192820101928311610311578301905b828210611f20575050505090565b8380918351611f2e81610633565b815201910190611f12565b906020828203126103115781516001600160401b03928382116103115701906102808282031261031157611f6b610f99565b92611f7583611e9e565b8452611f8360208401611e9e565b6020850152611f9460408401611ea9565b6040850152611fa560608401611ebc565b6060850152611fb660808401611ebc565b608085015260a083015160a085015260c083015160c0850152611fdb60e08401611ebc565b60e08501526101008084015190850152610120611ff9818501611e9e565b9085015261014061200b818501611e9e565b9085015261016061201d818501611e9e565b9085015261018061202f818501611e9e565b908501526101a091828401519182116103115761204d918401611ec9565b908301526101c061205f818301611e9e565b908301526101e0612071818301611e9e565b90830152610200612083818301611e9e565b90830152610220612095818301611e9e565b908301526102406120a7818301611e9e565b908301526120b9610260809201611e9e565b9082015290565b80518210156120d45760209160051b010190565b634e487b7160e01b5f52603260045260245ffd5b5f80516020612331833981519152546001600160a01b0316330361210857565b60405163118cdaa760e01b8152336004820152602490fd5b365f80375f8036817f00000000000000000000000000000000000000000000000000000000000000005af43d5f803e15612158573d5ff35b3d5ffd5b60ff5f805160206123718339815191525460401c161561217857565b604051631afcd79f60e31b8152600490fd5b60038151106122895761219d8151600f55565b6121cc6121ad6020830151151590565b6016805460ff60a01b191691151560a01b60ff60a01b16919091179055565b6121d96040820151601555565b6060810151601680546001600160a01b0319166001600160a01b039283161790556080820151909161224d9160e09190841680612279575b5060a08101516001600160a01b0316848116612269575b5060c08101516001600160a01b0316848116612260575001516001600160a01b031690565b9081166122575750565b61135190611d67565b61135d90611cf8565b61227290611c89565b505f612228565b61228290611c1a565b505f612211565b6040516317a509b960e31b8152600490fd5b634e487b7160e01b5f52601160045260245ffd5b6122b88161218a565b5160011981019081116122f95760015460d01c908181029181830414901517156122f95762093a80116122e757565b60405163119796df60e01b8152600490fd5b61229b565b65ffffffffffff90818111612311571690565b604490604051906306dfcc6560e41b8252603060048301526024820152fdfe9016d09d72d40fdae2fd8ceac6b6234c7706214fd39c1cd1e609a0528c19930002dd7bc7dec4dceedda775e58dd541e08a116c6c53815c0bd028192f7b626800f0c57e16840df040f15088dc2f81fe391c3923bec73e23a9662efc9c229c6a00a26469706673582212200394ed9b2a6869ef1bbd342392386b95b77822ee3245c11d726e0cf3df07b32564736f6c63430008190033","linkReferences":{}},"methodIdentifiers":{"DEFAULT_ADMIN_ROLE()":"a217fddf","DEPOSITOR_WHITELIST_ROLE()":"1b66c9e1","DEPOSIT_LIMIT_SET_ROLE()":"a21a1df9","DEPOSIT_WHITELIST_SET_ROLE()":"db388715","EPOCH_DURATION_SET_ROLE()":"61819dd8","FACTORY()":"2dd31000","FLASH_FEE_BASE()":"ecc98f05","FLASH_FEE_RATE_SET_ROLE()":"bc46f722","FLASH_FEE_RECEIVER_SET_ROLE()":"31d9736c","FLASH_LOAN_ENABLED_SET_ROLE()":"a66b3a73","IS_DEPOSIT_LIMIT_SET_ROLE()":"1415519b","MIN_EXIT_WINDOW()":"f151f6b5","RETURN_VALUE()":"653b04cd","burner()":"27810b6e","collateral()":"d8dfeb45","delegator()":"ce9b7930","depositLimit()":"ecf70858","depositWhitelist()":"48d3b775","flashFeeRate()":"e945da7f","flashFeeReceiver()":"a8b24f9a","flashLoanEnabled()":"65d61c6c","getRoleAdmin(bytes32)":"248a9ca3","grantRole(bytes32,address)":"2f2ff15d","hasRole(bytes32,address)":"91d14854","initialize(uint64,address,bytes)":"57ec83cc","isDelegatorInitialized()":"50861adc","isDepositLimit()":"a1b12202","isDepositorWhitelisted(address)":"794b15b7","isSlasherInitialized()":"6ec1e3f8","isWithdrawalsClaimed(uint256,address)":"a5d03223","migrate(uint64,bytes)":"2abe3048","owner()":"8da5cb5b","renounceOwnership()":"715018a6","renounceRole(bytes32,address)":"36568abe","revokeRole(bytes32,address)":"d547741f","slasher()":"b1344271","staticDelegateCall(address,bytes)":"9f86fd85","supportsInterface(bytes4)":"01ffc9a7","transferOwnership(address)":"f2fde38b","version()":"54fd4d50","withdrawalShares(uint256)":"afba70ad","withdrawalSharesOf(uint256,address)":"a3b54172","withdrawals(uint256)":"5cc07076"},"id":106}