{"abi":[{"type":"constructor","inputs":[{"name":"vaultFactory","type":"address","internalType":"address"},{"name":"implementation","type":"address","internalType":"address"}],"stateMutability":"nonpayable"},{"type":"fallback","stateMutability":"payable"},{"type":"function","name":"DEFAULT_ADMIN_ROLE","inputs":[],"outputs":[{"name":"","type":"bytes32","internalType":"bytes32"}],"stateMutability":"view"},{"type":"function","name":"DEPOSITOR_WHITELIST_ROLE","inputs":[],"outputs":[{"name":"","type":"bytes32","internalType":"bytes32"}],"stateMutability":"view"},{"type":"function","name":"DEPOSIT_LIMIT_SET_ROLE","inputs":[],"outputs":[{"name":"","type":"bytes32","internalType":"bytes32"}],"stateMutability":"view"},{"type":"function","name":"DEPOSIT_WHITELIST_SET_ROLE","inputs":[],"outputs":[{"name":"","type":"bytes32","internalType":"bytes32"}],"stateMutability":"view"},{"type":"function","name":"EPOCH_DURATION_SET_ROLE","inputs":[],"outputs":[{"name":"","type":"bytes32","internalType":"bytes32"}],"stateMutability":"view"},{"type":"function","name":"FACTORY","inputs":[],"outputs":[{"name":"","type":"address","internalType":"address"}],"stateMutability":"view"},{"type":"function","name":"FLASH_FEE_BASE","inputs":[],"outputs":[{"name":"","type":"uint256","internalType":"uint256"}],"stateMutability":"view"},{"type":"function","name":"FLASH_FEE_RATE_SET_ROLE","inputs":[],"outputs":[{"name":"","type":"bytes32","internalType":"bytes32"}],"stateMutability":"view"},{"type":"function","name":"FLASH_FEE_RECEIVER_SET_ROLE","inputs":[],"outputs":[{"name":"","type":"bytes32","internalType":"bytes32"}],"stateMutability":"view"},{"type":"function","name":"FLASH_LOAN_ENABLED_SET_ROLE","inputs":[],"outputs":[{"name":"","type":"bytes32","internalType":"bytes32"}],"stateMutability":"view"},{"type":"function","name":"IS_DEPOSIT_LIMIT_SET_ROLE","inputs":[],"outputs":[{"name":"","type":"bytes32","internalType":"bytes32"}],"stateMutability":"view"},{"type":"function","name":"MIN_EXIT_WINDOW","inputs":[],"outputs":[{"name":"","type":"uint48","internalType":"uint48"}],"stateMutability":"view"},{"type":"function","name":"RETURN_VALUE","inputs":[],"outputs":[{"name":"","type":"bytes32","internalType":"bytes32"}],"stateMutability":"view"},{"type":"function","name":"_epochDuration","inputs":[],"outputs":[{"name":"","type":"uint48","internalType":"uint48"}],"stateMutability":"view"},{"type":"function","name":"_epochDurationInit","inputs":[],"outputs":[{"name":"","type":"uint48","internalType":"uint48"}],"stateMutability":"view"},{"type":"function","name":"_epochDurationInitIndex","inputs":[],"outputs":[{"name":"","type":"uint256","internalType":"uint256"}],"stateMutability":"view"},{"type":"function","name":"_epochDurationSetEpochsDelay","inputs":[],"outputs":[{"name":"","type":"uint256","internalType":"uint256"}],"stateMutability":"view"},{"type":"function","name":"_nextEpochDuration","inputs":[],"outputs":[{"name":"","type":"uint48","internalType":"uint48"}],"stateMutability":"view"},{"type":"function","name":"_nextEpochDurationInit","inputs":[],"outputs":[{"name":"","type":"uint48","internalType":"uint48"}],"stateMutability":"view"},{"type":"function","name":"_nextEpochDurationSetEpochsDelay","inputs":[],"outputs":[{"name":"","type":"uint256","internalType":"uint256"}],"stateMutability":"view"},{"type":"function","name":"_nextEpochInitIndex","inputs":[],"outputs":[{"name":"","type":"uint256","internalType":"uint256"}],"stateMutability":"view"},{"type":"function","name":"_prevEpochDuration","inputs":[],"outputs":[{"name":"","type":"uint48","internalType":"uint48"}],"stateMutability":"view"},{"type":"function","name":"_prevEpochDurationInit","inputs":[],"outputs":[{"name":"","type":"uint48","internalType":"uint48"}],"stateMutability":"view"},{"type":"function","name":"_prevEpochDurationInitIndex","inputs":[],"outputs":[{"name":"","type":"uint256","internalType":"uint256"}],"stateMutability":"view"},{"type":"function","name":"burner","inputs":[],"outputs":[{"name":"","type":"address","internalType":"address"}],"stateMutability":"view"},{"type":"function","name":"collateral","inputs":[],"outputs":[{"name":"","type":"address","internalType":"address"}],"stateMutability":"view"},{"type":"function","name":"delegator","inputs":[],"outputs":[{"name":"","type":"address","internalType":"address"}],"stateMutability":"view"},{"type":"function","name":"depositLimit","inputs":[],"outputs":[{"name":"","type":"uint256","internalType":"uint256"}],"stateMutability":"view"},{"type":"function","name":"depositWhitelist","inputs":[],"outputs":[{"name":"","type":"bool","internalType":"bool"}],"stateMutability":"view"},{"type":"function","name":"flashFeeRate","inputs":[],"outputs":[{"name":"","type":"uint256","internalType":"uint256"}],"stateMutability":"view"},{"type":"function","name":"flashFeeReceiver","inputs":[],"outputs":[{"name":"","type":"address","internalType":"address"}],"stateMutability":"view"},{"type":"function","name":"flashLoanEnabled","inputs":[],"outputs":[{"name":"","type":"bool","internalType":"bool"}],"stateMutability":"view"},{"type":"function","name":"getRoleAdmin","inputs":[{"name":"role","type":"bytes32","internalType":"bytes32"}],"outputs":[{"name":"","type":"bytes32","internalType":"bytes32"}],"stateMutability":"view"},{"type":"function","name":"grantRole","inputs":[{"name":"role","type":"bytes32","internalType":"bytes32"},{"name":"account","type":"address","internalType":"address"}],"outputs":[],"stateMutability":"nonpayable"},{"type":"function","name":"hasRole","inputs":[{"name":"role","type":"bytes32","internalType":"bytes32"},{"name":"account","type":"address","internalType":"address"}],"outputs":[{"name":"","type":"bool","internalType":"bool"}],"stateMutability":"view"},{"type":"function","name":"initialize","inputs":[{"name":"initialVersion","type":"uint64","internalType":"uint64"},{"name":"owner_","type":"address","internalType":"address"},{"name":"data","type":"bytes","internalType":"bytes"}],"outputs":[],"stateMutability":"nonpayable"},{"type":"function","name":"isDelegatorInitialized","inputs":[],"outputs":[{"name":"","type":"bool","internalType":"bool"}],"stateMutability":"view"},{"type":"function","name":"isDepositLimit","inputs":[],"outputs":[{"name":"","type":"bool","internalType":"bool"}],"stateMutability":"view"},{"type":"function","name":"isDepositorWhitelisted","inputs":[{"name":"account","type":"address","internalType":"address"}],"outputs":[{"name":"value","type":"bool","internalType":"bool"}],"stateMutability":"view"},{"type":"function","name":"isSlasherInitialized","inputs":[],"outputs":[{"name":"","type":"bool","internalType":"bool"}],"stateMutability":"view"},{"type":"function","name":"isWithdrawalsClaimed","inputs":[{"name":"epoch","type":"uint256","internalType":"uint256"},{"name":"account","type":"address","internalType":"address"}],"outputs":[{"name":"value","type":"bool","internalType":"bool"}],"stateMutability":"view"},{"type":"function","name":"migrate","inputs":[{"name":"newVersion","type":"uint64","internalType":"uint64"},{"name":"data","type":"bytes","internalType":"bytes"}],"outputs":[],"stateMutability":"nonpayable"},{"type":"function","name":"owner","inputs":[],"outputs":[{"name":"","type":"address","internalType":"address"}],"stateMutability":"view"},{"type":"function","name":"renounceOwnership","inputs":[],"outputs":[],"stateMutability":"nonpayable"},{"type":"function","name":"renounceRole","inputs":[{"name":"role","type":"bytes32","internalType":"bytes32"},{"name":"callerConfirmation","type":"address","internalType":"address"}],"outputs":[],"stateMutability":"nonpayable"},{"type":"function","name":"revokeRole","inputs":[{"name":"role","type":"bytes32","internalType":"bytes32"},{"name":"account","type":"address","internalType":"address"}],"outputs":[],"stateMutability":"nonpayable"},{"type":"function","name":"slasher","inputs":[],"outputs":[{"name":"","type":"address","internalType":"address"}],"stateMutability":"view"},{"type":"function","name":"staticDelegateCall","inputs":[{"name":"target","type":"address","internalType":"address"},{"name":"data","type":"bytes","internalType":"bytes"}],"outputs":[],"stateMutability":"nonpayable"},{"type":"function","name":"supportsInterface","inputs":[{"name":"interfaceId","type":"bytes4","internalType":"bytes4"}],"outputs":[{"name":"","type":"bool","internalType":"bool"}],"stateMutability":"view"},{"type":"function","name":"transferOwnership","inputs":[{"name":"newOwner","type":"address","internalType":"address"}],"outputs":[],"stateMutability":"nonpayable"},{"type":"function","name":"version","inputs":[],"outputs":[{"name":"","type":"uint64","internalType":"uint64"}],"stateMutability":"view"},{"type":"function","name":"withdrawalShares","inputs":[{"name":"epoch","type":"uint256","internalType":"uint256"}],"outputs":[{"name":"amount","type":"uint256","internalType":"uint256"}],"stateMutability":"view"},{"type":"function","name":"withdrawalSharesOf","inputs":[{"name":"epoch","type":"uint256","internalType":"uint256"},{"name":"account","type":"address","internalType":"address"}],"outputs":[{"name":"amount","type":"uint256","internalType":"uint256"}],"stateMutability":"view"},{"type":"function","name":"withdrawals","inputs":[{"name":"epoch","type":"uint256","internalType":"uint256"}],"outputs":[{"name":"amount","type":"uint256","internalType":"uint256"}],"stateMutability":"view"},{"type":"event","name":"Initialized","inputs":[{"name":"version","type":"uint64","indexed":false,"internalType":"uint64"}],"anonymous":false},{"type":"event","name":"OwnershipTransferred","inputs":[{"name":"previousOwner","type":"address","indexed":true,"internalType":"address"},{"name":"newOwner","type":"address","indexed":true,"internalType":"address"}],"anonymous":false},{"type":"event","name":"RoleAdminChanged","inputs":[{"name":"role","type":"bytes32","indexed":true,"internalType":"bytes32"},{"name":"previousAdminRole","type":"bytes32","indexed":true,"internalType":"bytes32"},{"name":"newAdminRole","type":"bytes32","indexed":true,"internalType":"bytes32"}],"anonymous":false},{"type":"event","name":"RoleGranted","inputs":[{"name":"role","type":"bytes32","indexed":true,"internalType":"bytes32"},{"name":"account","type":"address","indexed":true,"internalType":"address"},{"name":"sender","type":"address","indexed":true,"internalType":"address"}],"anonymous":false},{"type":"event","name":"RoleRevoked","inputs":[{"name":"role","type":"bytes32","indexed":true,"internalType":"bytes32"},{"name":"account","type":"address","indexed":true,"internalType":"address"},{"name":"sender","type":"address","indexed":true,"internalType":"address"}],"anonymous":false},{"type":"error","name":"AccessControlBadConfirmation","inputs":[]},{"type":"error","name":"AccessControlUnauthorizedAccount","inputs":[{"name":"account","type":"address","internalType":"address"},{"name":"neededRole","type":"bytes32","internalType":"bytes32"}]},{"type":"error","name":"AlreadyInitialized","inputs":[]},{"type":"error","name":"AlreadySet","inputs":[]},{"type":"error","name":"InsufficientExitWindow","inputs":[]},{"type":"error","name":"InvalidAccount","inputs":[]},{"type":"error","name":"InvalidCollateral","inputs":[]},{"type":"error","name":"InvalidEpochDuration","inputs":[]},{"type":"error","name":"InvalidEpochDurationSetEpochsDelay","inputs":[]},{"type":"error","name":"InvalidFlashParams","inputs":[]},{"type":"error","name":"InvalidInitialization","inputs":[]},{"type":"error","name":"InvalidOrigin","inputs":[]},{"type":"error","name":"MissingRoles","inputs":[]},{"type":"error","name":"NoDepositWhitelist","inputs":[]},{"type":"error","name":"NotFactory","inputs":[]},{"type":"error","name":"NotInitialized","inputs":[]},{"type":"error","name":"NotInitializing","inputs":[]},{"type":"error","name":"OwnableInvalidOwner","inputs":[{"name":"owner","type":"address","internalType":"address"}]},{"type":"error","name":"OwnableUnauthorizedAccount","inputs":[{"name":"account","type":"address","internalType":"address"}]},{"type":"error","name":"ReentrancyGuardReentrantCall","inputs":[]},{"type":"error","name":"SafeCastOverflowedUintDowncast","inputs":[{"name":"bits","type":"uint8","internalType":"uint8"},{"name":"value","type":"uint256","internalType":"uint256"}]}],"bytecode":{"object":"0x60c034610115576126a8906001600160401b0390601f38849003908101601f19168201908382118383101761011957808391604096879485528339810103126101155761005760206100508361012d565b920161012d565b917ff0c57e16840df040f15088dc2f81fe391c3923bec73e23a9662efc9c229c6a009081549060ff82871c166101045780808316036100c0575b50505060805260a052516125669081610142823960805181818161056601526106d1015260a051816122a70152f35b6001600160401b0319909116811790915583519081527fc7f505b2f371ae2175ee4913f4499e1f2633a7b5936321eed1cdaeb6115181d290602090a15f8080610091565b855163f92ee8a960e01b8152600490fd5b5f80fd5b634e487b7160e01b5f52604160045260245ffd5b51906001600160a01b03821682036101155756fe60806040526004361061229d575f3560e01c806301ffc9a71461036b5780631415519b146103665780631b66c9e114610361578063248a9ca31461035c5780632749f9c41461035757806327810b6e146103525780632abe30481461034d5780632dd31000146103485780632f2ff15d146103435780632fa27fae1461033e57806331d9736c1461033957806336568abe1461033457806348d3b7751461032f57806350861adc1461032a57806354fd4d501461032557806357ec83cc146103205780635a36aa741461031b5780635cc070761461031657806361819dd814610311578063653b04cd1461030c57806365d61c6c146103075780636e0f2455146103025780636ec1e3f8146102fd578063715018a6146102f8578063794b15b7146102f35780638da5cb5b146102ee57806391d14854146102e957806398ccba4a146102e45780639b4bae3e146102df5780639f86fd85146102da5780639f9962dd146102d5578063a1b12202146102d0578063a217fddf146102cb578063a21a1df9146102c6578063a3b54172146102c1578063a5d03223146102bc578063a66b3a73146102b7578063a8b24f9a146102b2578063afba70ad146102ad578063b1344271146102a8578063bba6ff4a146102a3578063bc46f7221461029e578063c1bc6f5114610299578063c4db46fc14610294578063cc52aee71461028f578063ce9b79301461028a578063d547741f14610285578063d8dfeb4514610280578063db3887151461027b578063e945da7f14610276578063ecc98f0514610271578063ecf708581461026c578063f151f6b5146102675763f2fde38b0361229d5761112d565b611110565b6110f3565b6110d5565b6110b8565b61107e565b611053565b611007565b610fdf565b610fb7565b610f9a565b610f72565b610f38565b610f1b565b610ef3565b610ec9565b610ea1565b610e67565b610e21565b610dd4565b610d9a565b610d80565b610d5c565b610d34565b610c67565b610c4a565b610c2d565b610bcf565b610b9b565b610b5b565b610af4565b610acf565b610aaa565b610a85565b610a4b565b610a11565b6109e7565b6109bf565b61087a565b610848565b610823565b610802565b6107b7565b61077d565b61075d565b610711565b6106bc565b6104fa565b61048f565b610472565b610439565b6103ff565b6103c5565b346103c15760203660031901126103c15760043563ffffffff60e01b81168091036103c157602090637965db0b60e01b81149081156103b0575b506040519015158152f35b6301ffc9a760e01b1490505f6103a5565b5f80fd5b346103c1575f3660031901126103c15760206040517fc6aaadd7371d5e8f9ed6849dd66a66573a3ba37167d03f4352c9ba5693678fac8152f35b346103c1575f3660031901126103c15760206040517f9c56d972d63cbb4195b3c1484691dfc220fa96a4c47e7b6613bd82a022029e068152f35b346103c15760203660031901126103c1576004355f525f805160206124f18339815191526020526020600160405f200154604051908152f35b346103c1575f3660031901126103c1576020601454604051908152f35b346103c1575f3660031901126103c1576001546040516001600160a01b039091168152602090f35b600435906001600160401b03821682036103c157565b9181601f840112156103c1578235916001600160401b0383116103c157602083818601950101116103c157565b346103c1576040806003193601126103c1576105146104b7565b906001600160401b036024358181116103c1576105359036906004016104cd565b917f9b779b17422d0df92223018b32b4d1fa46e071723d6817e2486d003becc55f0060028154146106ab57600290557f00000000000000000000000000000000000000000000000000000000000000006001600160a01b0316330361069a575f8051602061251183398151915280548281169260ff82881c16801561068e575b61067d5767ffffffffffffffff199091169087161790555f80516020612511833981519152805460ff60401b1916600160401b1790557fc7f505b2f371ae2175ee4913f4499e1f2633a7b5936321eed1cdaeb6115181d29461064f949093909261061e92611a19565b5f80516020612511833981519152805460ff60401b19169055516001600160401b0390911681529081906020820190565b0390a161067b60017f9b779b17422d0df92223018b32b4d1fa46e071723d6817e2486d003becc55f0055565b005b865163f92ee8a960e01b8152600490fd5b508088168410156105b5565b8351631966391b60e11b8152600490fd5b8451633ee5aeb560e01b8152600490fd5b346103c1575f3660031901126103c1576040517f00000000000000000000000000000000000000000000000000000000000000006001600160a01b03168152602090f35b6001600160a01b038116036103c157565b346103c15760403660031901126103c15761067b60243560043561073482610700565b805f525f805160206124f1833981519152602052610758600160405f200154611ae4565b611f53565b346103c1575f3660031901126103c157602060015460d01c604051908152f35b346103c1575f3660031901126103c15760206040517f5295aaaa27fdd659293eafacbfafbc634c1b96298957e87de5f59308cdbfdad18152f35b346103c15760403660031901126103c1576024356107d481610700565b336001600160a01b038216036107f05761067b90600435611f89565b60405163334bd91960e11b8152600490fd5b346103c1575f3660031901126103c157602060ff5f54166040519015158152f35b346103c1575f3660031901126103c157602060ff60025460a01c166040519015158152f35b346103c1575f3660031901126103c15760206001600160401b035f805160206125118339815191525416604051908152f35b346103c15760603660031901126103c1576108936104b7565b60243561089f81610700565b6001600160401b03916044358381116103c1576108c09036906004016104cd565b5f805160206125118339815191529491855494838616806109ae5760ff8760401c169081156109a1575b5061098f577fc7f505b2f371ae2175ee4913f4499e1f2633a7b5936321eed1cdaeb6115181d29661098a96610957958716906001600160401b0319161790556109525f80516020612511833981519152600160401b68ff000000000000000019825416179055565b611230565b5f80516020612511833981519152805460ff60401b191690556040516001600160401b0390911681529081906020820190565b0390a1005b60405163f92ee8a960e01b8152600490fd5b905084861611155f6108ea565b60405162dc149f60e41b8152600490fd5b346103c1575f3660031901126103c157602065ffffffffffff60135460301c16604051908152f35b346103c15760203660031901126103c1576004355f526006602052602060405f2054604051908152f35b346103c1575f3660031901126103c15760206040517f591f6a0113ada8aff67efadec8ae2fa585cb4ebf4e1f8fc1205ffbeff98d00ec8152f35b346103c1575f3660031901126103c15760206040517f439148f0bbc682ca079e46d6e2c2f0c1e3b820f1a291b069d8882abf8cf18dd98152f35b346103c1575f3660031901126103c157602060ff60165460a01c166040519015158152f35b346103c1575f3660031901126103c157602065ffffffffffff60135416604051908152f35b346103c1575f3660031901126103c157602060ff60035460a01c166040519015158152f35b346103c1575f3660031901126103c157610b0c612265565b5f805160206124d183398151915280546001600160a01b031981169091555f906001600160a01b03167f8be0079c531659141344cd1fd0a4f28419497f9722a3daafe3b4186f6b6457e08280a3005b346103c15760203660031901126103c157600435610b7881610700565b60018060a01b03165f526005602052602060ff60405f2054166040519015158152f35b346103c1575f3660031901126103c1575f805160206124d1833981519152546040516001600160a01b039091168152602090f35b346103c15760403660031901126103c157602060ff610c21602435610bf381610700565b6004355f525f805160206124f1833981519152845260405f209060018060a01b03165f5260205260405f2090565b54166040519015158152f35b346103c1575f3660031901126103c1576020601254604051908152f35b346103c1575f3660031901126103c1576020601154604051908152f35b346103c1576040806003193601126103c157600435610c8581610700565b6024356001600160401b0381116103c1575f80610d2393610cac60809436906004016104cd565b908188519283928337810184815203915af43d15610d2b5760203d610cd0816111df565b90610cdd8751928361118f565b81523d5f8383013e5b8551958693151583850152808401528051918291826060860152018484015e5f838284010152601f8019910116810103606081018452018261118f565b805190602001fd5b60206060610ce6565b346103c1575f3660031901126103c157602065ffffffffffff60015460a01c16604051908152f35b346103c1575f3660031901126103c157602060ff5f5460081c166040519015158152f35b346103c1575f3660031901126103c15760206040515f8152f35b346103c1575f3660031901126103c15760206040517f4a634bc14d77baf979756509ef4298c6f6318af357828612545267ee2eb792338152f35b346103c15760403660031901126103c1576020610e18602435610df681610700565b6004355f526008835260405f209060018060a01b03165f5260205260405f2090565b54604051908152f35b346103c15760403660031901126103c157602060ff610c21602435610e4581610700565b6004355f526009845260405f209060018060a01b03165f5260205260405f2090565b346103c1575f3660031901126103c15760206040517fc9feed28b4b1a1d11c6791da7bb7f6b8d33e831a4992a9383dead1ec2c82c35a8152f35b346103c1575f3660031901126103c1576016546040516001600160a01b039091168152602090f35b346103c15760203660031901126103c1576004355f526007602052602060405f2054604051908152f35b346103c1575f3660031901126103c1576003546040516001600160a01b039091168152602090f35b346103c1575f3660031901126103c1576020600f54604051908152f35b346103c1575f3660031901126103c15760206040517fc9078c78bcaac2be1c77c160c539a489be2b72939771b1a6302fed3e2150c7458152f35b346103c1575f3660031901126103c157602065ffffffffffff60135460901c16604051908152f35b346103c1575f3660031901126103c1576020601054604051908152f35b346103c1575f3660031901126103c157602065ffffffffffff60135460601c16604051908152f35b346103c1575f3660031901126103c1576002546040516001600160a01b039091168152602090f35b346103c15760403660031901126103c15761067b60243560043561102a82610700565b805f525f805160206124f183398151915260205261104e600160405f200154611ae4565b611f89565b346103c1575f3660031901126103c1575f5460405160109190911c6001600160a01b03168152602090f35b346103c1575f3660031901126103c15760206040517fbae4ee3de6c709ff9a002e774c5b78cb381560b219213c88ae0f1e207c03c0238152f35b346103c1575f3660031901126103c1576020601554604051908152f35b346103c1575f3660031901126103c1576020604051633b9aca008152f35b346103c1575f3660031901126103c1576020600454604051908152f35b346103c1575f3660031901126103c157602060405162093a808152f35b346103c15760203660031901126103c15761067b60043561114d81610700565b611155612265565b6119a8565b634e487b7160e01b5f52604160045260245ffd5b61010081019081106001600160401b0382111761118a57604052565b61115a565b90601f801991011681019081106001600160401b0382111761118a57604052565b604051906111bd8261116e565b565b6040519061028082018281106001600160401b0382111761118a57604052565b6001600160401b03811161118a57601f01601f191660200190565b929192611206826111df565b91611214604051938461118f565b8294818452818301116103c1578281602093845f960137010152565b919061128b61129a916112416122d9565b6112496122d9565b60017f9b779b17422d0df92223018b32b4d1fa46e071723d6817e2486d003becc55f008190556001600160a01b039590949080871661198e575b5036916111fa565b602080825183010191016120b6565b805190919083166001600160a01b03161561197c5760409081830165ffffffffffff6112cc825165ffffffffffff1690565b161561196b57610140840180519093906112f6906001600160a01b03165b6001600160a01b031690565b1561183a575b606085019261131261130e8551151590565b1590565b8061182b575b61181a576101a086015f825b611760575b5050845161134091506001600160a01b03166112ea565b156115ba575b60c08501519060e086015161135a90151590565b6101008701516101208801516102008901516102208a01516102408b01516102608c01516001600160a01b03908116979181169692811695938116941692916113a16111b0565b988952151560208901528701526001600160a01b031660608601526001600160a01b031660808501526001600160a01b031660a08401526001600160a01b031660c08301526001600160a01b031660e08201526113fd90612307565b83516001600160a01b03165f805462010000600160b01b03191660109290921b62010000600160b01b031691909117905560208401516001600160a01b0316600180546001600160a01b0319166001600160a01b039092169190911790556114644261249e565b6001805465ffffffffffff60a01b191660a09290921b65ffffffffffff60a01b169190911790555165ffffffffffff16600180546001600160d01b031660d09290921b6001600160d01b0319169190911790555115156114ce9060ff80195f541691151516175f55565b60808201515f805461ff00191691151560081b61ff001691909117905560a0820151600455516001600160a01b0316611564916101e0918085166115aa575b506101608101516001600160a01b031684811661159a575b506101808101516001600160a01b031684811661158a575b506101c08101516001600160a01b031684811661157a575b5001516001600160a01b031690565b90811661156e5750565b61157790611d97565b50565b61158390611d28565b505f611555565b61159390611cb9565b505f61153d565b6115a390611be3565b505f611525565b6115b390611b32565b505f61150d565b60e0850151156116b0576101208501516115dc906001600160a01b03166112ea565b61166f576102408501516115f8906001600160a01b03166112ea565b61164357610260850151611614906001600160a01b03166112ea565b151580611636575b611626575b611346565b51630331eb0f60e41b8152600490fd5b506101008501511561161c565b61026085015161165b906001600160a01b03166112ea565b6116215751630331eb0f60e41b8152600490fd5b610240850151611687906001600160a01b03166112ea565b15806116a3575b156116215751630331eb0f60e41b8152600490fd5b506101008501511561168e565b6102208501516116c8906001600160a01b03166112ea565b15806116e4575b156113465751630331eb0f60e41b8152600490fd5b506101208501516116fd906001600160a01b03166112ea565b15801590611752575b8015611732575b806116cf575061024085015161172b906001600160a01b03166112ea565b15156116cf565b5061026085015161174b906001600160a01b03166112ea565b151561170d565b506101008501511515611706565b81518051821015611814576112ea61177b836117889361223d565b516001600160a01b031690565b15611803576117c16117ba6117a161177b84865161223d565b6001600160a01b03165f90815260056020526040902090565b5460ff1690565b6117f2579082826117ea6117dd6117a161177b8597875161223d565b805460ff19166001179055565b019091611324565b835163a741a04560e01b8152600490fd5b8351630da30f6560e31b8152600490fd5b50611329565b815163ebf503c560e01b8152600490fd5b506101a0860151511515611318565b610160850151611852906001600160a01b03166112ea565b15611908575b6101c0850151611870906001600160a01b03166112ea565b1561187b575b6112fc565b6080850151156118c55760a085015115806118a6575b156112fc575163183c854560e21b8152600490fd5b506101e08501516118bf906001600160a01b03166112ea565b15611891565b60a0850151158015906118e8575b15611876575163183c854560e21b8152600490fd5b506101e0850151611901906001600160a01b03166112ea565b15156118d3565b60608501511561193e5761018085015161192a906001600160a01b03166112ea565b611858575163183c854560e21b8152600490fd5b610180850151611956906001600160a01b03166112ea565b15611858575163183c854560e21b8152600490fd5b82516368f5f8f160e11b8152600490fd5b6040516368f7a67560e11b8152600490fd5b6119a29061199a6122d9565b6111556122d9565b5f611283565b6001600160a01b03908116908115611a01575f805160206124d183398151915280546001600160a01b031981168417909155167f8be0079c531659141344cd1fd0a4f28419497f9722a3daafe3b4186f6b6457e05f80a3565b604051631e4fbdf760e01b81525f6004820152602490fd5b91611a306001926001600160401b039236916111fa565b921603611ad257808051610100928391810103126103c157611ac86111bd9260405192611a5c8461116e565b60208101518452611a6f60408201612039565b602085015260608101516040850152611a8a6080820161201b565b6060850152611a9b60a0820161201b565b6080850152611aac60c0820161201b565b60a0850152611abd60e0820161201b565b60c08501520161201b565b60e082015261244f565b604051630a1824e360e01b8152600490fd5b5f8181525f805160206124f18339815191526020908152604080832033845290915290205460ff1615611b145750565b6044906040519063e2517d3f60e01b82523360048301526024820152fd5b6001600160a01b0381165f9081527fb7db2dd08fcb62d0c9e08c51941cae53c267786a0b75803fb7960902fc8ef97d60205260409020545f805160206124f18339815191529060ff16611bdd575f808052602091825260408082206001600160a01b038516835290925220805460ff1916600117905533906001600160a01b03165f7f2f8788117e7eff1d82e926ec794901d17c78024a50270940304540a733656f0d8180a4600190565b50505f90565b6001600160a01b0381165f9081527f03b26b53c87faa1058f30bb5d2fee64f717719a0d9b7e4f4df027aa5e9b6ed69602052604090207fbae4ee3de6c709ff9a002e774c5b78cb381560b219213c88ae0f1e207c03c023905f805160206124f18339815191529060ff905b5416611cb2575f828152602091825260408082206001600160a01b038616835290925220805460ff1916600117905533916001600160a01b0316907f2f8788117e7eff1d82e926ec794901d17c78024a50270940304540a733656f0d5f80a4600190565b5050505f90565b6001600160a01b0381165f9081527f0287ab4cb376ea253d7b2ce0c2cbf458f7deae9458470d74afdfbbee484e9540602052604090207f9c56d972d63cbb4195b3c1484691dfc220fa96a4c47e7b6613bd82a022029e06905f805160206124f18339815191529060ff90611c4e565b6001600160a01b0381165f9081527fe41986b390c4ce6791b87f7423b5fab7a81a0e6d89660b6264f697d008b2243a602052604090207fc6aaadd7371d5e8f9ed6849dd66a66573a3ba37167d03f4352c9ba5693678fac905f805160206124f18339815191529060ff90611c4e565b6001600160a01b0381165f9081527f2d4ccbfe9f7672a6f2537c1e5bce6adacb73706879154bbab6ce096012d67216602052604090207f4a634bc14d77baf979756509ef4298c6f6318af357828612545267ee2eb79233905f805160206124f18339815191529060ff90611c4e565b6001600160a01b0381165f9081527f99e47f2907af87dbb5c62e22bd8ea822f5011dfd1e243469ce26ebebf3ab93e3602052604090207f591f6a0113ada8aff67efadec8ae2fa585cb4ebf4e1f8fc1205ffbeff98d00ec905f805160206124f18339815191529060ff90611c4e565b6001600160a01b0381165f9081527f82a1dc868a49801aa31c5dd393dc0b9005735300cdcd4bbc1af68215effcd6f8602052604090207fc9078c78bcaac2be1c77c160c539a489be2b72939771b1a6302fed3e2150c745905f805160206124f18339815191529060ff90611c4e565b6001600160a01b0381165f9081527f9aeaa4f1a9be826e331dea6728ca206744e0a34dccbc1d3da4a68acb8abf0363602052604090207f5295aaaa27fdd659293eafacbfafbc634c1b96298957e87de5f59308cdbfdad1905f805160206124f18339815191529060ff90611c4e565b5f8181525f805160206124f1833981519152602081815260408084206001600160a01b038716855290915290912060ff90611c4e565b5f8181525f805160206124f1833981519152602081815260408084206001600160a01b03871685529091529091205460ff1615611cb2575f828152602091825260408082206001600160a01b038616835290925220805460ff1916905533916001600160a01b0316907ff6391f5c32d9c69d2a47ea670b442974b53935d1edc7fd64eb21e047a839171b5f80a4600190565b51906111bd82610700565b519065ffffffffffff821682036103c157565b519081151582036103c157565b81601f820112156103c1578051916020916001600160401b03841161118a578360051b906040519461207a8584018761118f565b855283808601928201019283116103c1578301905b82821061209d575050505090565b83809183516120ab81610700565b81520191019061208f565b906020828203126103c15781516001600160401b03928382116103c1570190610280828203126103c1576120e86111bf565b926120f28361201b565b84526121006020840161201b565b602085015261211160408401612026565b604085015261212260608401612039565b606085015261213360808401612039565b608085015260a083015160a085015260c083015160c085015261215860e08401612039565b60e0850152610100808401519085015261012061217681850161201b565b9085015261014061218881850161201b565b9085015261016061219a81850161201b565b908501526101806121ac81850161201b565b908501526101a091828401519182116103c1576121ca918401612046565b908301526101c06121dc81830161201b565b908301526101e06121ee81830161201b565b9083015261020061220081830161201b565b9083015261022061221281830161201b565b9083015261024061222481830161201b565b9083015261223661026080920161201b565b9082015290565b80518210156122515760209160051b010190565b634e487b7160e01b5f52603260045260245ffd5b5f805160206124d1833981519152546001600160a01b0316330361228557565b60405163118cdaa760e01b8152336004820152602490fd5b365f80375f8036817f00000000000000000000000000000000000000000000000000000000000000005af43d5f803e156122d5573d5ff35b3d5ffd5b60ff5f805160206125118339815191525460401c16156122f557565b604051631afcd79f60e31b8152600490fd5b6003815110612429576060810180516001600160a01b039291908316158061241c575b61240a57816123a361238160e0936123456123de9651600f55565b6123746123556020860151151590565b6016805460ff60a01b191691151560a01b60ff60a01b16919091179055565b61177b6040850151601555565b60018060a01b03166bffffffffffffffffffffffff60a01b6016541617601655565b60808101516001600160a01b03168481166123fa575b5060c08101516001600160a01b03168481166123f1575001516001600160a01b031690565b9081166123e85750565b61157790611ee4565b61158390611e75565b61240390611e06565b505f6123b9565b604051630331eb0f60e41b8152600490fd5b506040820151151561232a565b6040516317a509b960e31b8152600490fd5b634e487b7160e01b5f52601160045260245ffd5b61245881612307565b5160011981019081116124995760015460d01c908181029181830414901517156124995762093a801161248757565b60405163119796df60e01b8152600490fd5b61243b565b65ffffffffffff908181116124b1571690565b604490604051906306dfcc6560e41b8252603060048301526024820152fdfe9016d09d72d40fdae2fd8ceac6b6234c7706214fd39c1cd1e609a0528c19930002dd7bc7dec4dceedda775e58dd541e08a116c6c53815c0bd028192f7b626800f0c57e16840df040f15088dc2f81fe391c3923bec73e23a9662efc9c229c6a00a2646970667358221220744a940a3817ab7ccf58d15e43e2f870eb8f4dfc163d42982e4fe2b76b4f6e6f64736f6c63430008190033","linkReferences":{}},"methodIdentifiers":{"DEFAULT_ADMIN_ROLE()":"a217fddf","DEPOSITOR_WHITELIST_ROLE()":"1b66c9e1","DEPOSIT_LIMIT_SET_ROLE()":"a21a1df9","DEPOSIT_WHITELIST_SET_ROLE()":"db388715","EPOCH_DURATION_SET_ROLE()":"61819dd8","FACTORY()":"2dd31000","FLASH_FEE_BASE()":"ecc98f05","FLASH_FEE_RATE_SET_ROLE()":"bc46f722","FLASH_FEE_RECEIVER_SET_ROLE()":"31d9736c","FLASH_LOAN_ENABLED_SET_ROLE()":"a66b3a73","IS_DEPOSIT_LIMIT_SET_ROLE()":"1415519b","MIN_EXIT_WINDOW()":"f151f6b5","RETURN_VALUE()":"653b04cd","_epochDuration()":"2fa27fae","_epochDurationInit()":"9f9962dd","_epochDurationInitIndex()":"9b4bae3e","_epochDurationSetEpochsDelay()":"bba6ff4a","_nextEpochDuration()":"c1bc6f51","_nextEpochDurationInit()":"cc52aee7","_nextEpochDurationSetEpochsDelay()":"c4db46fc","_nextEpochInitIndex()":"2749f9c4","_prevEpochDuration()":"5a36aa74","_prevEpochDurationInit()":"6e0f2455","_prevEpochDurationInitIndex()":"98ccba4a","burner()":"27810b6e","collateral()":"d8dfeb45","delegator()":"ce9b7930","depositLimit()":"ecf70858","depositWhitelist()":"48d3b775","flashFeeRate()":"e945da7f","flashFeeReceiver()":"a8b24f9a","flashLoanEnabled()":"65d61c6c","getRoleAdmin(bytes32)":"248a9ca3","grantRole(bytes32,address)":"2f2ff15d","hasRole(bytes32,address)":"91d14854","initialize(uint64,address,bytes)":"57ec83cc","isDelegatorInitialized()":"50861adc","isDepositLimit()":"a1b12202","isDepositorWhitelisted(address)":"794b15b7","isSlasherInitialized()":"6ec1e3f8","isWithdrawalsClaimed(uint256,address)":"a5d03223","migrate(uint64,bytes)":"2abe3048","owner()":"8da5cb5b","renounceOwnership()":"715018a6","renounceRole(bytes32,address)":"36568abe","revokeRole(bytes32,address)":"d547741f","slasher()":"b1344271","staticDelegateCall(address,bytes)":"9f86fd85","supportsInterface(bytes4)":"01ffc9a7","transferOwnership(address)":"f2fde38b","version()":"54fd4d50","withdrawalShares(uint256)":"afba70ad","withdrawalSharesOf(uint256,address)":"a3b54172","withdrawals(uint256)":"5cc07076"},"id":106}