{"abi":[{"type":"function","name":"entity","inputs":[{"name":"index","type":"uint256","internalType":"uint256"}],"outputs":[{"name":"","type":"address","internalType":"address"}],"stateMutability":"view"},{"type":"function","name":"isEntity","inputs":[{"name":"entity_","type":"address","internalType":"address"}],"outputs":[{"name":"","type":"bool","internalType":"bool"}],"stateMutability":"view"},{"type":"function","name":"registerNetwork","inputs":[],"outputs":[],"stateMutability":"nonpayable"},{"type":"function","name":"totalEntities","inputs":[],"outputs":[{"name":"","type":"uint256","internalType":"uint256"}],"stateMutability":"view"},{"type":"event","name":"AddEntity","inputs":[{"name":"entity","type":"address","indexed":true,"internalType":"address"}],"anonymous":false},{"type":"error","name":"EntityNotExist","inputs":[]},{"type":"error","name":"NetworkAlreadyRegistered","inputs":[]}],"bytecode":{"object":"0x6080806040523460155761024c908161001b8239f35b600080fdfe6080604052600436101561001257600080fd5b6000803560e01c806314887c58146101455780635cd8b15e1461012857806387140b5b146100b85763b42ba2a21461004957600080fd5b346100b55760203660031901126100b55760043581548110156100a1579080527f290decd9548b62a8d60345a988386fc84ba6bc95484008f6362f93160ef3e56301546040516001600160a01b039091168152602090f35b634e487b7160e01b82526032600452602482fd5b80fd5b50346100b557806003193601126100b5576100e0336000526001602052604060002054151590565b610116576100ed33610190565b50337fb919910dcefbf753bfd926ab3b1d3f85d877190c3d01ba1bd585047b99b99f0b8280a280f35b60405163ad5fcda560e01b8152600490fd5b50346100b557806003193601126100b55760209054604051908152f35b50346100b55760203660031901126100b5576004356001600160a01b03811691908290036100b5576020610186836000526001602052604060002054151590565b6040519015158152f35b600081815260016020526040812054610211578054680100000000000000008110156101fd57600181018083558110156100a15790826040927f290decd9548b62a8d60345a988386fc84ba6bc95484008f6362f93160ef3e5630155805492815260016020522055600190565b634e487b7160e01b82526041600452602482fd5b90509056fea26469706673582212209ae708ce229392664d4b478630457641628818220450f532d3f1b0425bde9e6164736f6c63430008190033","linkReferences":{}},"methodIdentifiers":{"entity(uint256)":"b42ba2a2","isEntity(address)":"14887c58","registerNetwork()":"87140b5b","totalEntities()":"5cd8b15e"},"id":62}