{"abi":[{"type":"constructor","inputs":[{"name":"operatorRegistry","type":"address","internalType":"address"},{"name":"networkRegistry","type":"address","internalType":"address"},{"name":"vaultFactory","type":"address","internalType":"address"},{"name":"operatorVaultOptInService","type":"address","internalType":"address"},{"name":"operatorNetworkOptInService","type":"address","internalType":"address"},{"name":"delegatorFactory","type":"address","internalType":"address"},{"name":"entityType","type":"uint64","internalType":"uint64"}],"stateMutability":"nonpayable"},{"type":"function","name":"DEFAULT_ADMIN_ROLE","inputs":[],"outputs":[{"name":"","type":"bytes32","internalType":"bytes32"}],"stateMutability":"view"},{"type":"function","name":"FACTORY","inputs":[],"outputs":[{"name":"","type":"address","internalType":"address"}],"stateMutability":"view"},{"type":"function","name":"HOOK_GAS_LIMIT","inputs":[],"outputs":[{"name":"","type":"uint256","internalType":"uint256"}],"stateMutability":"view"},{"type":"function","name":"HOOK_RESERVE","inputs":[],"outputs":[{"name":"","type":"uint256","internalType":"uint256"}],"stateMutability":"view"},{"type":"function","name":"HOOK_SET_ROLE","inputs":[],"outputs":[{"name":"","type":"bytes32","internalType":"bytes32"}],"stateMutability":"view"},{"type":"function","name":"NETWORK_LIMIT_SET_ROLE","inputs":[],"outputs":[{"name":"","type":"bytes32","internalType":"bytes32"}],"stateMutability":"view"},{"type":"function","name":"NETWORK_REGISTRY","inputs":[],"outputs":[{"name":"","type":"address","internalType":"address"}],"stateMutability":"view"},{"type":"function","name":"OPERATOR_NETWORK_OPT_IN_SERVICE","inputs":[],"outputs":[{"name":"","type":"address","internalType":"address"}],"stateMutability":"view"},{"type":"function","name":"OPERATOR_REGISTRY","inputs":[],"outputs":[{"name":"","type":"address","internalType":"address"}],"stateMutability":"view"},{"type":"function","name":"OPERATOR_VAULT_OPT_IN_SERVICE","inputs":[],"outputs":[{"name":"","type":"address","internalType":"address"}],"stateMutability":"view"},{"type":"function","name":"TYPE","inputs":[],"outputs":[{"name":"","type":"uint64","internalType":"uint64"}],"stateMutability":"view"},{"type":"function","name":"VAULT_FACTORY","inputs":[],"outputs":[{"name":"","type":"address","internalType":"address"}],"stateMutability":"view"},{"type":"function","name":"VERSION","inputs":[],"outputs":[{"name":"","type":"uint64","internalType":"uint64"}],"stateMutability":"pure"},{"type":"function","name":"getRoleAdmin","inputs":[{"name":"role","type":"bytes32","internalType":"bytes32"}],"outputs":[{"name":"","type":"bytes32","internalType":"bytes32"}],"stateMutability":"view"},{"type":"function","name":"grantRole","inputs":[{"name":"role","type":"bytes32","internalType":"bytes32"},{"name":"account","type":"address","internalType":"address"}],"outputs":[],"stateMutability":"nonpayable"},{"type":"function","name":"hasRole","inputs":[{"name":"role","type":"bytes32","internalType":"bytes32"},{"name":"account","type":"address","internalType":"address"}],"outputs":[{"name":"","type":"bool","internalType":"bool"}],"stateMutability":"view"},{"type":"function","name":"hook","inputs":[],"outputs":[{"name":"","type":"address","internalType":"address"}],"stateMutability":"view"},{"type":"function","name":"initialize","inputs":[{"name":"data","type":"bytes","internalType":"bytes"}],"outputs":[],"stateMutability":"nonpayable"},{"type":"function","name":"maxNetworkLimit","inputs":[{"name":"subnetwork","type":"bytes32","internalType":"bytes32"}],"outputs":[{"name":"value","type":"uint256","internalType":"uint256"}],"stateMutability":"view"},{"type":"function","name":"networkLimit","inputs":[{"name":"subnetwork","type":"bytes32","internalType":"bytes32"}],"outputs":[{"name":"","type":"uint256","internalType":"uint256"}],"stateMutability":"view"},{"type":"function","name":"networkLimitAt","inputs":[{"name":"subnetwork","type":"bytes32","internalType":"bytes32"},{"name":"timestamp","type":"uint48","internalType":"uint48"},{"name":"hint","type":"bytes","internalType":"bytes"}],"outputs":[{"name":"","type":"uint256","internalType":"uint256"}],"stateMutability":"view"},{"type":"function","name":"onSlash","inputs":[{"name":"subnetwork","type":"bytes32","internalType":"bytes32"},{"name":"operator","type":"address","internalType":"address"},{"name":"amount","type":"uint256","internalType":"uint256"},{"name":"captureTimestamp","type":"uint48","internalType":"uint48"},{"name":"data","type":"bytes","internalType":"bytes"}],"outputs":[],"stateMutability":"nonpayable"},{"type":"function","name":"operator","inputs":[],"outputs":[{"name":"","type":"address","internalType":"address"}],"stateMutability":"view"},{"type":"function","name":"renounceRole","inputs":[{"name":"role","type":"bytes32","internalType":"bytes32"},{"name":"callerConfirmation","type":"address","internalType":"address"}],"outputs":[],"stateMutability":"nonpayable"},{"type":"function","name":"revokeRole","inputs":[{"name":"role","type":"bytes32","internalType":"bytes32"},{"name":"account","type":"address","internalType":"address"}],"outputs":[],"stateMutability":"nonpayable"},{"type":"function","name":"setHook","inputs":[{"name":"hook_","type":"address","internalType":"address"}],"outputs":[],"stateMutability":"nonpayable"},{"type":"function","name":"setMaxNetworkLimit","inputs":[{"name":"identifier","type":"uint96","internalType":"uint96"},{"name":"amount","type":"uint256","internalType":"uint256"}],"outputs":[],"stateMutability":"nonpayable"},{"type":"function","name":"setNetworkLimit","inputs":[{"name":"subnetwork","type":"bytes32","internalType":"bytes32"},{"name":"amount","type":"uint256","internalType":"uint256"}],"outputs":[],"stateMutability":"nonpayable"},{"type":"function","name":"stake","inputs":[{"name":"subnetwork","type":"bytes32","internalType":"bytes32"},{"name":"operator","type":"address","internalType":"address"}],"outputs":[{"name":"","type":"uint256","internalType":"uint256"}],"stateMutability":"view"},{"type":"function","name":"stakeAt","inputs":[{"name":"subnetwork","type":"bytes32","internalType":"bytes32"},{"name":"operator","type":"address","internalType":"address"},{"name":"timestamp","type":"uint48","internalType":"uint48"},{"name":"hints","type":"bytes","internalType":"bytes"}],"outputs":[{"name":"","type":"uint256","internalType":"uint256"}],"stateMutability":"view"},{"type":"function","name":"staticDelegateCall","inputs":[{"name":"target","type":"address","internalType":"address"},{"name":"data","type":"bytes","internalType":"bytes"}],"outputs":[],"stateMutability":"nonpayable"},{"type":"function","name":"supportsInterface","inputs":[{"name":"interfaceId","type":"bytes4","internalType":"bytes4"}],"outputs":[{"name":"","type":"bool","internalType":"bool"}],"stateMutability":"view"},{"type":"function","name":"vault","inputs":[],"outputs":[{"name":"","type":"address","internalType":"address"}],"stateMutability":"view"},{"type":"event","name":"Initialized","inputs":[{"name":"version","type":"uint64","indexed":false,"internalType":"uint64"}],"anonymous":false},{"type":"event","name":"OnSlash","inputs":[{"name":"subnetwork","type":"bytes32","indexed":true,"internalType":"bytes32"},{"name":"operator","type":"address","indexed":true,"internalType":"address"},{"name":"amount","type":"uint256","indexed":false,"internalType":"uint256"},{"name":"captureTimestamp","type":"uint48","indexed":false,"internalType":"uint48"}],"anonymous":false},{"type":"event","name":"RoleAdminChanged","inputs":[{"name":"role","type":"bytes32","indexed":true,"internalType":"bytes32"},{"name":"previousAdminRole","type":"bytes32","indexed":true,"internalType":"bytes32"},{"name":"newAdminRole","type":"bytes32","indexed":true,"internalType":"bytes32"}],"anonymous":false},{"type":"event","name":"RoleGranted","inputs":[{"name":"role","type":"bytes32","indexed":true,"internalType":"bytes32"},{"name":"account","type":"address","indexed":true,"internalType":"address"},{"name":"sender","type":"address","indexed":true,"internalType":"address"}],"anonymous":false},{"type":"event","name":"RoleRevoked","inputs":[{"name":"role","type":"bytes32","indexed":true,"internalType":"bytes32"},{"name":"account","type":"address","indexed":true,"internalType":"address"},{"name":"sender","type":"address","indexed":true,"internalType":"address"}],"anonymous":false},{"type":"event","name":"SetHook","inputs":[{"name":"hook","type":"address","indexed":true,"internalType":"address"}],"anonymous":false},{"type":"event","name":"SetMaxNetworkLimit","inputs":[{"name":"subnetwork","type":"bytes32","indexed":true,"internalType":"bytes32"},{"name":"amount","type":"uint256","indexed":false,"internalType":"uint256"}],"anonymous":false},{"type":"event","name":"SetNetworkLimit","inputs":[{"name":"subnetwork","type":"bytes32","indexed":true,"internalType":"bytes32"},{"name":"amount","type":"uint256","indexed":false,"internalType":"uint256"}],"anonymous":false},{"type":"error","name":"AccessControlBadConfirmation","inputs":[]},{"type":"error","name":"AccessControlUnauthorizedAccount","inputs":[{"name":"account","type":"address","internalType":"address"},{"name":"neededRole","type":"bytes32","internalType":"bytes32"}]},{"type":"error","name":"AlreadySet","inputs":[]},{"type":"error","name":"CheckpointUnorderedInsertion","inputs":[]},{"type":"error","name":"DuplicateRoleHolder","inputs":[]},{"type":"error","name":"ExceedsMaxNetworkLimit","inputs":[]},{"type":"error","name":"InsufficientHookGas","inputs":[]},{"type":"error","name":"InvalidInitialization","inputs":[]},{"type":"error","name":"MissingRoleHolders","inputs":[]},{"type":"error","name":"NotInitialized","inputs":[]},{"type":"error","name":"NotInitializing","inputs":[]},{"type":"error","name":"NotNetwork","inputs":[]},{"type":"error","name":"NotOperator","inputs":[]},{"type":"error","name":"NotSlasher","inputs":[]},{"type":"error","name":"NotVault","inputs":[]},{"type":"error","name":"ReentrancyGuardReentrantCall","inputs":[]},{"type":"error","name":"SafeCastOverflowedUintDowncast","inputs":[{"name":"bits","type":"uint8","internalType":"uint8"},{"name":"value","type":"uint256","internalType":"uint256"}]},{"type":"error","name":"ZeroAddressRoleHolder","inputs":[]}],"bytecode":{"object":"0x610160346101c2576001600160401b0390601f612a7a38819003918201601f191683019190848311848410176101c6578160e092859260409586528339810103126101c25761004d826101da565b9061005a602084016101da565b6100658285016101da565b90610072606086016101da565b9561007f608087016101da565b9560c061008e60a083016101da565b9101519180831683036101c2577ff0c57e16840df040f15088dc2f81fe391c3923bec73e23a9662efc9c229c6a009081549060ff82891c166101b157808083160361016d575b50505060805260a05260c05260e052610100938452610120928352610140918252519161288b93846101ef8539608051846105ea015260a05184610d14015260c0518481816104690152610d4d015260e05184818161035f0152611b540152518381816103a30152818161133601526114850152518281816103e70152818161129d0152611503015251818181610b9401526122440152f35b6001600160401b0319909116811790915585519081527fc7f505b2f371ae2175ee4913f4499e1f2633a7b5936321eed1cdaeb6115181d290602090a15f80806100d4565b875163f92ee8a960e01b8152600490fd5b5f80fd5b634e487b7160e01b5f52604160045260245ffd5b51906001600160a01b03821682036101c25756fe60806040526004361015610011575f80fd5b5f3560e01c806301ffc9a714610224578063021453481461021f578063103f29071461021a578063128e5d82146102155780631a80e5001461021057806323f752d51461020b578063248a9ca3146102065780632dd31000146102015780632f2ff15d146101fc57806336568abe146101f75780633dfd3873146101f25780633eb22c0f146101ed578063439fab91146101e8578063557cab44146101e3578063570ca735146101de5780635d32a1c9146101d95780636679191e146101d45780637d24bb27146101cf5780637f5a7c7b146101ca57806383ce0322146101c557806391d14854146101c05780639f86fd85146101bb578063a217fddf146101b6578063bb24fe8a146101b1578063c0cd7c3e146101ac578063d15b740e146101a7578063d547741f146101a2578063e02f69371461019d578063e49561ee14610198578063fbfa77cf14610193578063fd4d447c1461018e578063ff54740f146101895763ffa1ad7414610184575f80fd5b6110aa565b61108d565b611063565b61103c565b610e51565b610df2565b610da6565b610d7c565b610d38565b610cf5565b610cdb565b610c21565b610bc3565b610b7f565b610b57565b610b1e565b610ae4565b610a89565b61096c565b610950565b610818565b6107ba565b6106c1565b610676565b61062a565b6105d5565b61059c565b610416565b6103d2565b61038e565b61034a565b61027e565b3461027a57602036600319011261027a5760043563ffffffff60e01b811680910361027a57602090637965db0b60e01b8114908115610269575b506040519015158152f35b6301ffc9a760e01b1490505f61025e565b5f80fd5b3461027a5760408060031936011261027a5760043590602435906102a0611578565b825f526002602052805f2054821161033a57825f526003602052816102c6825f20611a9c565b1461032a5781610325916103157e899d104fc3d8820bd96540612bcc5c448c8837b13b9f7faa43ad0728f0c14f94610306875f52600360205260405f2090565b61030f42611fc3565b90611677565b5050519081529081906020820190565b0390a2005b5163a741a04560e01b8152600490fd5b51631eefc06360e31b8152600490fd5b3461027a575f36600319011261027a576040517f00000000000000000000000000000000000000000000000000000000000000006001600160a01b03168152602090f35b3461027a575f36600319011261027a576040517f00000000000000000000000000000000000000000000000000000000000000006001600160a01b03168152602090f35b3461027a575f36600319011261027a576040517f00000000000000000000000000000000000000000000000000000000000000006001600160a01b03168152602090f35b3461027a57604036600319011261027a576004356001600160601b038116810361027a5760243590610446611739565b6040516302910f8b60e31b81523360048201526020816024816001600160a01b037f0000000000000000000000000000000000000000000000000000000000000000165afa908115610597575f91610568575b5015610556576001600160601b03166bffffffffffffffffffffffff193360601b161790806104d0835f52600260205260405f2090565b541461054457610529817fc67e7929681aa1bccd63f52b3799bf5805f3009f197db6fdf584b14f7fbf608c9261050e855f52600260205260405f2090565b556105198185611768565b6040519081529081906020820190565b0390a261054260015f8051602061281683398151915255565b005b60405163a741a04560e01b8152600490fd5b6040516323d53b9760e21b8152600490fd5b61058a915060203d602011610590575b61058281836109f8565b8101906110c5565b5f610499565b503d610578565b6110dd565b3461027a57602036600319011261027a576004355f525f805160206127f68339815191526020526020600160405f200154604051908152f35b3461027a575f36600319011261027a576040517f00000000000000000000000000000000000000000000000000000000000000006001600160a01b03168152602090f35b6001600160a01b0381160361027a57565b3461027a57604036600319011261027a5761054260243560043561064d82610619565b805f525f805160206127f6833981519152602052610671600160405f2001546115d4565b6119d4565b3461027a57604036600319011261027a5760243561069381610619565b336001600160a01b038216036106af5761054290600435611a0a565b60405163334bd91960e11b8152600490fd5b3461027a57602036600319011261027a576004356106de81610619565b6106e6611739565b335f9081527f9ebbcbe0d2961d3fbe56ca6f679bc753bd848d3e6bb3eaf9041c51b286881d2c60205260409020547fd1c1f6fa6bf27d54c5e54c7c1dc6e5004d3c027ea1994fe68b29c1b51b69c36c9060ff161561079c57506001546001600160a01b039182169181168214610544576001600160a01b03191681176001557f5bbb1d3ebb6a3ad2a0f17ff35e579a83af60604d1d3c2a4c83c62adecadf666d5f80a260015f8051602061281683398151915255005b6044906040519063e2517d3f60e01b82523360048301526024820152fd5b3461027a57602036600319011261027a576004355f52600360205260206107e360405f20611a9c565b604051908152f35b9181601f8401121561027a578235916001600160401b03831161027a576020838186019501011161027a57565b3461027a57602036600319011261027a576001600160401b0360043581811161027a576108499036906004016107eb565b5f80516020612836833981519152549260ff8460401c1615931680159081610948575b600114908161093e575b159081610935575b50610923575f80516020612836833981519152805467ffffffffffffffff191660011790556108b191836108ff57611b1f565b6108b757005b5f80516020612836833981519152805460ff60401b19169055604051600181527fc7f505b2f371ae2175ee4913f4499e1f2633a7b5936321eed1cdaeb6115181d290602090a1005b5f80516020612836833981519152805460ff60401b1916600160401b179055611b1f565b60405163f92ee8a960e01b8152600490fd5b9050155f61087e565b303b159150610876565b84915061086c565b3461027a575f36600319011261027a576020604051614e208152f35b3461027a575f36600319011261027a576004546040516001600160a01b039091168152602090f35b6064359065ffffffffffff8216820361027a57565b634e487b7160e01b5f52604160045260245ffd5b604081019081106001600160401b038211176109d857604052565b6109a9565b606081019081106001600160401b038211176109d857604052565b90601f801991011681019081106001600160401b038211176109d857604052565b60405190610a26826109bd565b565b6001600160401b0381116109d857601f01601f191660200190565b81601f8201121561027a57803590610a5a82610a28565b92610a6860405194856109f8565b8284526020838301011161027a57815f926020809301838601378301015290565b3461027a57606036600319011261027a5760243565ffffffffffff8116810361027a576044356001600160401b03811161027a57602091610ad16107e3923690600401610a43565b906004355f526003845260405f20611c8e565b3461027a575f36600319011261027a5760206040517fd1c1f6fa6bf27d54c5e54c7c1dc6e5004d3c027ea1994fe68b29c1b51b69c36c8152f35b3461027a575f36600319011261027a5760206040517e8b9b1e5fa9cf3b14f87f435649268146305ddf689f082e5961a335b07a9abf8152f35b3461027a575f36600319011261027a576001546040516001600160a01b039091168152602090f35b3461027a575f36600319011261027a576040517f00000000000000000000000000000000000000000000000000000000000000006001600160a01b03168152602090f35b3461027a57604036600319011261027a57602060ff610c15602435610be781610619565b6004355f525f805160206127f6833981519152845260405f209060018060a01b03165f5260205260405f2090565b54166040519015158152f35b3461027a5760408060031936011261027a57600435610c3f81610619565b602435906001600160401b03821161027a575f8091610c65610cc99436906004016107eb565b908187519283928337810184815203915af43d15610cd157610cbb3d610c8a81610a28565b90610c97865192836109f8565b81523d5f602083013e5b845194859315156020850152808401526060830190611101565b03601f1981018352826109f8565b805190602001fd5b610cbb6060610ca1565b3461027a575f36600319011261027a5760206040515f8152f35b3461027a575f36600319011261027a5760206040516001600160401b037f0000000000000000000000000000000000000000000000000000000000000000168152f35b3461027a575f36600319011261027a576040517f00000000000000000000000000000000000000000000000000000000000000006001600160a01b03168152602090f35b3461027a57602036600319011261027a576004355f526002602052602060405f2054604051908152f35b3461027a57604036600319011261027a57610542602435600435610dc982610619565b805f525f805160206127f6833981519152602052610ded600160405f2001546115d4565b611a0a565b3461027a57608036600319011261027a57602435610e0f81610619565b6044359065ffffffffffff8216820361027a57606435906001600160401b03821161027a57602092610e486107e3933690600401610a43565b91600435611227565b3461027a5760a036600319011261027a57602435600435610e7182610619565b60443591610e7d610994565b90608435906001600160401b03821161027a57610e9f60049236908401610a43565b610ea7611739565b5f54602090610ecc90610ec0906001600160a01b031681565b6001600160a01b031690565b60405163b134427160e01b815294859182905afa928315610597575f9361100b575b506001600160a01b039283163303610ff9576001546001600160a01b0316838116610f6e575b50506040805195865265ffffffffffff909316602086015216927f741a5de99085c0d660f3e4192217b0ffb0ea4e35a0480de48e857a4bc3ee36ed91819081015b0390a361054260015f8051602061281683398151915255565b909360405194610fa586610f97602082019363724ab0f760e11b8552858c898d602487016113d1565b03601f1981018852876109f8565b62042e305a10610fe7575f610f55938192827f741a5de99085c0d660f3e4192217b0ffb0ea4e35a0480de48e857a4bc3ee36ed9951926203d090f15093610f14565b604051638072475160e01b8152600490fd5b60405163dabc4ad960e01b8152600490fd5b61102e91935060203d602011611035575b61102681836109f8565b8101906113bc565b915f610eee565b503d61101c565b3461027a575f36600319011261027a575f546040516001600160a01b039091168152602090f35b3461027a57604036600319011261027a5760206107e360243561108581610619565b60043561144e565b3461027a575f36600319011261027a5760206040516203d0908152f35b3461027a575f36600319011261027a57602060405160018152f35b9081602091031261027a5751801515810361027a5790565b6040513d5f823e3d90fd5b906110fe92915f52600360205260405f20611c8e565b90565b805180835260209291819084018484015e5f828201840152601f01601f1916010190565b60405190611132826109bd565b60606020838281520152565b81601f8201121561027a5780519061115582610a28565b9261116360405194856109f8565b8284526020838301011161027a57815f9260208093018386015e8301015290565b9060208282031261027a5781516001600160401b039283821161027a57019060408282031261027a57604051926111ba846109bd565b825181811161027a57826111cf91850161113e565b8452602083015190811161027a576111e7920161113e565b602082015290565b6001600160a01b0391821681529116602082015265ffffffffffff90911660408201526080606082018190526110fe92910190611101565b9261123790929192828486611e46565b929093611242611125565b93805180611395575b505084159384156112ff575b841561126e575b505050506112695790565b505f90565b602080949550611299910151604051958694859463530e1d4360e01b865260601c90600486016111ef565b03817f00000000000000000000000000000000000000000000000000000000000000006001600160a01b03165afa908115610597575f916112e0575b50155f80808061125e565b6112f9915060203d6020116105905761058281836109f8565b5f6112d5565b5f549094506001600160a01b0316602084865192611332604051948593849363530e1d4360e01b855289600486016111ef565b03817f00000000000000000000000000000000000000000000000000000000000000006001600160a01b03165afa908115610597575f91611376575b501593611257565b61138f915060203d6020116105905761058281836109f8565b5f61136e565b6113a9929550602080918301019101611184565b925f8061124b565b5190610a2682610619565b9081602091031261027a57516110fe81610619565b919360a0936110fe969565ffffffffffff938552600180871b0316602085015260408401521660608201528160808201520190611101565b634e487b7160e01b5f52601160045260245ffd5b8115611427570490565b634e487b7160e01b5f52601260045260245ffd5b906001820180921161144957565b611409565b5f546040516308834cb560e21b8082526001600160a01b0385811660048401529283166024830152929392602092909183816044817f000000000000000000000000000000000000000000000000000000000000000086165afa908115610597575f9161155b575b50159182156114d7575b505090506114d1576110fe91611f3b565b50505f90565b6040519081526001600160a01b0385166004820152606086901c602482015291508290829060449082907f0000000000000000000000000000000000000000000000000000000000000000165afa918215610597575f9261153e575b505015805f806114c0565b6115549250803d106105905761058281836109f8565b5f80611533565b6115729150843d86116105905761058281836109f8565b5f6114b6565b335f9081527f72a65082a5691803ab2b62c9bc729b34205ba1b183d950896526b2fd8714d0c7602052604090207e8b9b1e5fa9cf3b14f87f435649268146305ddf689f082e5961a335b07a9abf9060ff905b54161561079c5750565b5f8181525f805160206127f683398151915260209081526040808320338452909152902060ff906115ca565b634e487b7160e01b5f52603260045260245ffd5b8054821015611629575f5260205f2001905f90565b611600565b90815491600160401b8310156109d85782611651916001610a2695018155611614565b90919082549060031b91821b915f19901b1916179055565b5f1981019190821161144957565b90929192600182019081548015611709575b508461169484612019565b509490928454936116a483611a9c565b96816116f4575b50156116d1575050505f1981019081116114495761165185916116cd93611614565b9190565b6116cd9492936116ed926001600160d01b03909116919061251a565b505061162e565b65ffffffffffff83811691161490505f6116ab565b600160401b8110156109d8578060016117259201845583611614565b8154905f199060031b1b191690555f611689565b5f8051602061281683398151915260028154146117565760029055565b604051633ee5aeb560e01b8152600490fd5b90815f52600360205260405f208161177f82612019565b9193905083156117dd5761179f916001600160d01b031690600101611614565b90549060031b1c5b826117d3575b50506117b7575050565b6117cf915f52600360205260405f2061030f42611fc3565b5050565b119050815f6117ad565b50505f6117a7565b6001600160a01b0381165f9081527fb7db2dd08fcb62d0c9e08c51941cae53c267786a0b75803fb7960902fc8ef97d60205260409020545f805160206127f68339815191529060ff166114d1575f808052602091825260408082206001600160a01b038516835290925220805460ff1916600117905533906001600160a01b03165f7f2f8788117e7eff1d82e926ec794901d17c78024a50270940304540a733656f0d8180a4600190565b6001600160a01b0381165f9081527f9ebbcbe0d2961d3fbe56ca6f679bc753bd848d3e6bb3eaf9041c51b286881d2c602052604090207fd1c1f6fa6bf27d54c5e54c7c1dc6e5004d3c027ea1994fe68b29c1b51b69c36c905f805160206127f68339815191529060ff905b541661195f575f828152602091825260408082206001600160a01b038616835290925220805460ff1916600117905533916001600160a01b0316907f2f8788117e7eff1d82e926ec794901d17c78024a50270940304540a733656f0d5f80a4600190565b5050505f90565b6001600160a01b0381165f9081527f72a65082a5691803ab2b62c9bc729b34205ba1b183d950896526b2fd8714d0c7602052604090207e8b9b1e5fa9cf3b14f87f435649268146305ddf689f082e5961a335b07a9abf905f805160206127f68339815191529060ff906118fb565b5f8181525f805160206127f6833981519152602081815260408084206001600160a01b038716855290915290912060ff906118fb565b5f8181525f805160206127f6833981519152602081815260408084206001600160a01b03871685529091529091205460ff161561195f575f828152602091825260408082206001600160a01b038616835290925220805460ff1916905533916001600160a01b0316907ff6391f5c32d9c69d2a47ea670b442974b53935d1edc7fd64eb21e047a839171b5f80a4600190565b805480611acb57505f5b6001600160d01b038116156114d1576001611ac19201611614565b90549060031b1c90565b5f1990808281011161144957825f5260205f2001015460301c611aa6565b91909160408184031261027a578035611b0181610619565b9260208201356001600160401b03811161027a576110fe9201610a43565b611b2b91810190611ae9565b6040516302910f8b60e31b81526001600160a01b039283166004820181905291906020816024817f000000000000000000000000000000000000000000000000000000000000000088165afa908115610597575f91611c3e575b5015611c2c57611bc0604091611bbb611c0694611ba0612068565b60018060a01b03166001600160601b0360a01b5f5416175f55565b6121d4565b6020810151600180546001600160a01b0319166001600160a01b0390921691909117905580516001600160a01b0316848116611c1c575b5001516001600160a01b031690565b908116611c105750565b611c1990611890565b50565b611c25906117e5565b505f611bf7565b6040516362df054560e01b8152600490fd5b611c57915060203d6020116105905761058281836109f8565b5f611b85565b9081602091031261027a575163ffffffff8116810361027a5790565b90600163ffffffff8093160191821161144957565b91805115611d675780602080611ca993518301019101611c5d565b91611cb48382612445565b92611cc5845165ffffffffffff1690565b9065ffffffffffff8085169216828114611d5b5782119182611cfb575b5050611cf2576110fe9250612375565b50506020015190565b909150611d088354611669565b63ffffffff831614918215611d21575b50505f80611ce2565b611d53919250611d3c611d36611d4892611c79565b85612445565b5165ffffffffffff1690565b65ffffffffffff1690565b115f80611d18565b50505050506020015190565b506110fe91612375565b60405190611d7e826109dd565b60606040838281528260208201520152565b9060208282031261027a5781516001600160401b039283821161027a57019060608282031261027a5760405192611dc6846109dd565b825181811161027a5782611ddb91850161113e565b8452602083015181811161027a5782611df591850161113e565b6020850152604083015190811161027a57611e10920161113e565b604082015290565b9081602091031261027a575190565b60409065ffffffffffff6110fe94931681528160208201520190611101565b90939293611e52611d71565b94805180611f1f575b50506004546001600160a01b03918216911603611f17575f54611eb2929190602090611e9190610ec0906001600160a01b031681565b8187015190604051808097819463810da75d60e01b83528860048401611e27565b03915afa90811561059757611edf935f92611ee4575b50611ed991926040870151916110e8565b906124ad565b915190565b611ed99250611f0a9060203d602011611f10575b611f0281836109f8565b810190611e18565b91611ec8565b503d611ef8565b505090515f91565b611f33929650602080918301019101611d90565b935f80611e5b565b6004546001600160a01b0392908316908316036114d15760206004925f54166040519384809263bd49c35f60e01b82525afa908115610597576110fe925f92611f9a575b50611f95611ed9915f52600360205260405f2090565b611a9c565b611ed9919250611fbb611f959160203d602011611f1057611f0281836109f8565b929150611f7f565b65ffffffffffff90818111611fd6571690565b604490604051906306dfcc6560e41b8252603060048301526024820152fd5b90604051612002816109bd565b915465ffffffffffff8116835260301c6020830152565b80548061202a5750505f905f905f90565b5f1990808281011161144957612047925f5260205f200101611ff5565b9065ffffffffffff82511691602060018060d01b0391015116906001929190565b612070612635565b612078612635565b60015f8051602061281683398151915255565b60405190612098826109dd565b5f6040838281528260208201520152565b81601f8201121561027a578051916020916001600160401b0384116109d8578360051b90604051946120dd858401876109f8565b8552838086019282010192831161027a578301905b828210612100575050505090565b838091835161210e81610619565b8152019101906120f2565b60208183031261027a5780516001600160401b039182821161027a5701918281039260a0841261027a57606060405194612152866109dd565b1261027a57604051612163816109dd565b815161216e81610619565b8152602082015161217e81610619565b6020820152604082015161219181610619565b60408201528452606081015192831161027a576121b5608092611e109483016120a9565b6020850152016113b1565b80518210156116295760209160051b010190565b6121dc61208b565b506121f281519160208080948301019101612119565b8051516001600160a01b0393919084161580612369575b612357576040818101805182516302910f8b60e31b81526001600160a01b0390911660048083019190915296929491928690829060249082907f0000000000000000000000000000000000000000000000000000000000000000165afa908115610597575f9161233a575b50156123285791938401915f5b835180518210156122f757610ec061229c836122a9936121c0565b516001600160a01b031690565b156122e7576122cb6122c76122c261229c8488516121c0565b611966565b1590565b6122d757600101612281565b8451635140fefd60e11b81528790fd5b84516323cda06760e01b81528790fd5b50509051600480546001600160a01b0319166001600160a01b039092169190911790559350612324915050565b5190565b604051631f0853c160e21b8152600490fd5b6123519150863d88116105905761058281836109f8565b5f612274565b6040516303501f5960e11b8152600490fd5b50828101515115612209565b908154905f8291600584116123df575b612390935084612796565b806123b857505f905b6001600160d01b038216156114d1576110fe916001611ac19201611614565b6123d26123c76123d992611669565b835f5260205f200190565b5460301c90565b90612399565b91926123ea81612663565b81039081116114495761239093855f5265ffffffffffff808360205f20015416908516105f1461241b575091612385565b9291506124279061143b565b90612385565b6040519061243a826109bd565b5f6020838281520152565b9061246e61246861248f9261245861242d565b5061246161242d565b5084611614565b50611ff5565b91600165ffffffffffff845116936020828060d01b03910151169101611614565b9054906040519261249f846109bd565b835260031b1c602082015290565b90808210156124ba575090565b905090565b8054600160401b8110156109d8576124dc91600182018155611614565b61250757815160209092015160301b65ffffffffffff191665ffffffffffff92909216919091179055565b634e487b7160e01b5f525f60045260245ffd5b80549293929190821561260c5761253b6125366123c785611669565b611ff5565b9061254c825165ffffffffffff1690565b65ffffffffffff848116911681106125fa576116cd94602094889261257a611d48875165ffffffffffff1690565b036125c257506125b49261259061259b92611669565b905f5260205f200190565b9065ffffffffffff82549181199060301b169116179055565b01516001600160d01b031690565b9150506125f5916125e26125d4610a19565b65ffffffffffff9093168352565b6001600160d01b038816828601526124bf565b6125b4565b604051632520601d60e01b8152600490fd5b612630925061261c6125d4610a19565b6001600160d01b03851660208301526124bf565b5f9190565b60ff5f805160206128368339815191525460401c161561265157565b604051631afcd79f60e31b8152600490fd5b80156112695780611ed961272e61272461271a6127106127066126fc6126f260016110fe9a5f908b60801c8061278a575b508060401c8061277d575b508060201c80612770575b508060101c80612763575b508060081c80612756575b508060041c80612749575b508060021c8061273c575b50821c612735575b811c1b6126eb818b61141d565b0160011c90565b6126eb818a61141d565b6126eb818961141d565b6126eb818861141d565b6126eb818761141d565b6126eb818661141d565b6126eb818561141d565b809261141d565b81016126de565b600291509101905f6126d6565b600491509101905f6126cb565b600891509101905f6126c0565b601091509101905f6126b5565b602091509101905f6126aa565b604091509101905f61269f565b9150506080905f612694565b91905b8382106127a65750505090565b9091928083169080841860011c820180921161144957845f5265ffffffffffff808360205f20015416908416105f146127e35750925b9190612799565b9392506127ef9061143b565b916127dc56fe02dd7bc7dec4dceedda775e58dd541e08a116c6c53815c0bd028192f7b6268009b779b17422d0df92223018b32b4d1fa46e071723d6817e2486d003becc55f00f0c57e16840df040f15088dc2f81fe391c3923bec73e23a9662efc9c229c6a00a26469706673582212202a9ca48e74050ddd1556d9aeb572b7d5f3019142a83914f90efdb222882a2cc364736f6c63430008190033","linkReferences":{}},"methodIdentifiers":{"DEFAULT_ADMIN_ROLE()":"a217fddf","FACTORY()":"2dd31000","HOOK_GAS_LIMIT()":"ff54740f","HOOK_RESERVE()":"557cab44","HOOK_SET_ROLE()":"6679191e","NETWORK_LIMIT_SET_ROLE()":"7d24bb27","NETWORK_REGISTRY()":"c0cd7c3e","OPERATOR_NETWORK_OPT_IN_SERVICE()":"1a80e500","OPERATOR_REGISTRY()":"83ce0322","OPERATOR_VAULT_OPT_IN_SERVICE()":"128e5d82","TYPE()":"bb24fe8a","VAULT_FACTORY()":"103f2907","VERSION()":"ffa1ad74","getRoleAdmin(bytes32)":"248a9ca3","grantRole(bytes32,address)":"2f2ff15d","hasRole(bytes32,address)":"91d14854","hook()":"7f5a7c7b","initialize(bytes)":"439fab91","maxNetworkLimit(bytes32)":"d15b740e","networkLimit(bytes32)":"3eb22c0f","networkLimitAt(bytes32,uint48,bytes)":"5d32a1c9","onSlash(bytes32,address,uint256,uint48,bytes)":"e49561ee","operator()":"570ca735","renounceRole(bytes32,address)":"36568abe","revokeRole(bytes32,address)":"d547741f","setHook(address)":"3dfd3873","setMaxNetworkLimit(uint96,uint256)":"23f752d5","setNetworkLimit(bytes32,uint256)":"02145348","stake(bytes32,address)":"fd4d447c","stakeAt(bytes32,address,uint48,bytes)":"e02f6937","staticDelegateCall(address,bytes)":"9f86fd85","supportsInterface(bytes4)":"01ffc9a7","vault()":"fbfa77cf"},"id":170}