{"abi":[{"type":"constructor","inputs":[{"name":"operatorRegistry","type":"address","internalType":"address"},{"name":"networkRegistry","type":"address","internalType":"address"},{"name":"vaultFactory","type":"address","internalType":"address"},{"name":"operatorVaultOptInService","type":"address","internalType":"address"},{"name":"operatorNetworkOptInService","type":"address","internalType":"address"},{"name":"delegatorFactory","type":"address","internalType":"address"},{"name":"entityType","type":"uint64","internalType":"uint64"}],"stateMutability":"nonpayable"},{"type":"function","name":"DEFAULT_ADMIN_ROLE","inputs":[],"outputs":[{"name":"","type":"bytes32","internalType":"bytes32"}],"stateMutability":"view"},{"type":"function","name":"FACTORY","inputs":[],"outputs":[{"name":"","type":"address","internalType":"address"}],"stateMutability":"view"},{"type":"function","name":"HOOK_GAS_LIMIT","inputs":[],"outputs":[{"name":"","type":"uint256","internalType":"uint256"}],"stateMutability":"view"},{"type":"function","name":"HOOK_RESERVE","inputs":[],"outputs":[{"name":"","type":"uint256","internalType":"uint256"}],"stateMutability":"view"},{"type":"function","name":"HOOK_SET_ROLE","inputs":[],"outputs":[{"name":"","type":"bytes32","internalType":"bytes32"}],"stateMutability":"view"},{"type":"function","name":"NETWORK_LIMIT_SET_ROLE","inputs":[],"outputs":[{"name":"","type":"bytes32","internalType":"bytes32"}],"stateMutability":"view"},{"type":"function","name":"NETWORK_REGISTRY","inputs":[],"outputs":[{"name":"","type":"address","internalType":"address"}],"stateMutability":"view"},{"type":"function","name":"OPERATOR_NETWORK_OPT_IN_SERVICE","inputs":[],"outputs":[{"name":"","type":"address","internalType":"address"}],"stateMutability":"view"},{"type":"function","name":"OPERATOR_REGISTRY","inputs":[],"outputs":[{"name":"","type":"address","internalType":"address"}],"stateMutability":"view"},{"type":"function","name":"OPERATOR_VAULT_OPT_IN_SERVICE","inputs":[],"outputs":[{"name":"","type":"address","internalType":"address"}],"stateMutability":"view"},{"type":"function","name":"TYPE","inputs":[],"outputs":[{"name":"","type":"uint64","internalType":"uint64"}],"stateMutability":"view"},{"type":"function","name":"VAULT_FACTORY","inputs":[],"outputs":[{"name":"","type":"address","internalType":"address"}],"stateMutability":"view"},{"type":"function","name":"VERSION","inputs":[],"outputs":[{"name":"","type":"uint64","internalType":"uint64"}],"stateMutability":"pure"},{"type":"function","name":"getRoleAdmin","inputs":[{"name":"role","type":"bytes32","internalType":"bytes32"}],"outputs":[{"name":"","type":"bytes32","internalType":"bytes32"}],"stateMutability":"view"},{"type":"function","name":"grantRole","inputs":[{"name":"role","type":"bytes32","internalType":"bytes32"},{"name":"account","type":"address","internalType":"address"}],"outputs":[],"stateMutability":"nonpayable"},{"type":"function","name":"hasRole","inputs":[{"name":"role","type":"bytes32","internalType":"bytes32"},{"name":"account","type":"address","internalType":"address"}],"outputs":[{"name":"","type":"bool","internalType":"bool"}],"stateMutability":"view"},{"type":"function","name":"hook","inputs":[],"outputs":[{"name":"","type":"address","internalType":"address"}],"stateMutability":"view"},{"type":"function","name":"initialize","inputs":[{"name":"data","type":"bytes","internalType":"bytes"}],"outputs":[],"stateMutability":"nonpayable"},{"type":"function","name":"maxNetworkLimit","inputs":[{"name":"subnetwork","type":"bytes32","internalType":"bytes32"}],"outputs":[{"name":"value","type":"uint256","internalType":"uint256"}],"stateMutability":"view"},{"type":"function","name":"networkLimit","inputs":[{"name":"subnetwork","type":"bytes32","internalType":"bytes32"}],"outputs":[{"name":"","type":"uint256","internalType":"uint256"}],"stateMutability":"view"},{"type":"function","name":"networkLimitAt","inputs":[{"name":"subnetwork","type":"bytes32","internalType":"bytes32"},{"name":"timestamp","type":"uint48","internalType":"uint48"},{"name":"hint","type":"bytes","internalType":"bytes"}],"outputs":[{"name":"","type":"uint256","internalType":"uint256"}],"stateMutability":"view"},{"type":"function","name":"onSlash","inputs":[{"name":"subnetwork","type":"bytes32","internalType":"bytes32"},{"name":"operator","type":"address","internalType":"address"},{"name":"amount","type":"uint256","internalType":"uint256"},{"name":"captureTimestamp","type":"uint48","internalType":"uint48"},{"name":"data","type":"bytes","internalType":"bytes"}],"outputs":[],"stateMutability":"nonpayable"},{"type":"function","name":"operator","inputs":[],"outputs":[{"name":"","type":"address","internalType":"address"}],"stateMutability":"view"},{"type":"function","name":"renounceRole","inputs":[{"name":"role","type":"bytes32","internalType":"bytes32"},{"name":"callerConfirmation","type":"address","internalType":"address"}],"outputs":[],"stateMutability":"nonpayable"},{"type":"function","name":"revokeRole","inputs":[{"name":"role","type":"bytes32","internalType":"bytes32"},{"name":"account","type":"address","internalType":"address"}],"outputs":[],"stateMutability":"nonpayable"},{"type":"function","name":"setHook","inputs":[{"name":"hook_","type":"address","internalType":"address"}],"outputs":[],"stateMutability":"nonpayable"},{"type":"function","name":"setMaxNetworkLimit","inputs":[{"name":"identifier","type":"uint96","internalType":"uint96"},{"name":"amount","type":"uint256","internalType":"uint256"}],"outputs":[],"stateMutability":"nonpayable"},{"type":"function","name":"setNetworkLimit","inputs":[{"name":"subnetwork","type":"bytes32","internalType":"bytes32"},{"name":"amount","type":"uint256","internalType":"uint256"}],"outputs":[],"stateMutability":"nonpayable"},{"type":"function","name":"stake","inputs":[{"name":"subnetwork","type":"bytes32","internalType":"bytes32"},{"name":"operator","type":"address","internalType":"address"}],"outputs":[{"name":"","type":"uint256","internalType":"uint256"}],"stateMutability":"view"},{"type":"function","name":"stakeAt","inputs":[{"name":"subnetwork","type":"bytes32","internalType":"bytes32"},{"name":"operator","type":"address","internalType":"address"},{"name":"timestamp","type":"uint48","internalType":"uint48"},{"name":"hints","type":"bytes","internalType":"bytes"}],"outputs":[{"name":"","type":"uint256","internalType":"uint256"}],"stateMutability":"view"},{"type":"function","name":"staticDelegateCall","inputs":[{"name":"target","type":"address","internalType":"address"},{"name":"data","type":"bytes","internalType":"bytes"}],"outputs":[],"stateMutability":"nonpayable"},{"type":"function","name":"supportsInterface","inputs":[{"name":"interfaceId","type":"bytes4","internalType":"bytes4"}],"outputs":[{"name":"","type":"bool","internalType":"bool"}],"stateMutability":"view"},{"type":"function","name":"vault","inputs":[],"outputs":[{"name":"","type":"address","internalType":"address"}],"stateMutability":"view"},{"type":"event","name":"Initialized","inputs":[{"name":"version","type":"uint64","indexed":false,"internalType":"uint64"}],"anonymous":false},{"type":"event","name":"OnSlash","inputs":[{"name":"subnetwork","type":"bytes32","indexed":true,"internalType":"bytes32"},{"name":"operator","type":"address","indexed":true,"internalType":"address"},{"name":"amount","type":"uint256","indexed":false,"internalType":"uint256"},{"name":"captureTimestamp","type":"uint48","indexed":false,"internalType":"uint48"}],"anonymous":false},{"type":"event","name":"RoleAdminChanged","inputs":[{"name":"role","type":"bytes32","indexed":true,"internalType":"bytes32"},{"name":"previousAdminRole","type":"bytes32","indexed":true,"internalType":"bytes32"},{"name":"newAdminRole","type":"bytes32","indexed":true,"internalType":"bytes32"}],"anonymous":false},{"type":"event","name":"RoleGranted","inputs":[{"name":"role","type":"bytes32","indexed":true,"internalType":"bytes32"},{"name":"account","type":"address","indexed":true,"internalType":"address"},{"name":"sender","type":"address","indexed":true,"internalType":"address"}],"anonymous":false},{"type":"event","name":"RoleRevoked","inputs":[{"name":"role","type":"bytes32","indexed":true,"internalType":"bytes32"},{"name":"account","type":"address","indexed":true,"internalType":"address"},{"name":"sender","type":"address","indexed":true,"internalType":"address"}],"anonymous":false},{"type":"event","name":"SetHook","inputs":[{"name":"hook","type":"address","indexed":true,"internalType":"address"}],"anonymous":false},{"type":"event","name":"SetMaxNetworkLimit","inputs":[{"name":"subnetwork","type":"bytes32","indexed":true,"internalType":"bytes32"},{"name":"amount","type":"uint256","indexed":false,"internalType":"uint256"}],"anonymous":false},{"type":"event","name":"SetNetworkLimit","inputs":[{"name":"subnetwork","type":"bytes32","indexed":true,"internalType":"bytes32"},{"name":"amount","type":"uint256","indexed":false,"internalType":"uint256"}],"anonymous":false},{"type":"error","name":"AccessControlBadConfirmation","inputs":[]},{"type":"error","name":"AccessControlUnauthorizedAccount","inputs":[{"name":"account","type":"address","internalType":"address"},{"name":"neededRole","type":"bytes32","internalType":"bytes32"}]},{"type":"error","name":"AlreadySet","inputs":[]},{"type":"error","name":"CheckpointUnorderedInsertion","inputs":[]},{"type":"error","name":"DuplicateRoleHolder","inputs":[]},{"type":"error","name":"ExceedsMaxNetworkLimit","inputs":[]},{"type":"error","name":"InsufficientHookGas","inputs":[]},{"type":"error","name":"InvalidInitialization","inputs":[]},{"type":"error","name":"MissingRoleHolders","inputs":[]},{"type":"error","name":"NotInitialized","inputs":[]},{"type":"error","name":"NotInitializing","inputs":[]},{"type":"error","name":"NotNetwork","inputs":[]},{"type":"error","name":"NotOperator","inputs":[]},{"type":"error","name":"NotSlasher","inputs":[]},{"type":"error","name":"NotVault","inputs":[]},{"type":"error","name":"ReentrancyGuardReentrantCall","inputs":[]},{"type":"error","name":"SafeCastOverflowedUintDowncast","inputs":[{"name":"bits","type":"uint8","internalType":"uint8"},{"name":"value","type":"uint256","internalType":"uint256"}]},{"type":"error","name":"ZeroAddressRoleHolder","inputs":[]}],"bytecode":{"object":"0x610160346101c2576001600160401b0390601f612b4b38819003918201601f191683019190848311848410176101c7578160e092859260409586528339810103126101c25761004d826101dd565b9061005a602084016101dd565b6100658285016101dd565b90610072606086016101dd565b9561007f608087016101dd565b9560c061008e60a083016101dd565b9101519180831683036101c2577ff0c57e16840df040f15088dc2f81fe391c3923bec73e23a9662efc9c229c6a009081549060ff82891c166101b157808083160361016d575b50505060805260a05260c05260e052610100938452610120928352610140918252519161295993846101f28539608051846105ff015260a05184610d4d015260c0518481816104740152610d87015260e0518481816103680152611bfc0152518381816103ad015281816113a401526114f90152518281816103f2015281816113090152611579015251818181610bc301526122fe0152f35b6001600160401b0319909116811790915585519081527fc7f505b2f371ae2175ee4913f4499e1f2633a7b5936321eed1cdaeb6115181d290602090a13880806100d4565b875163f92ee8a960e01b8152600490fd5b600080fd5b634e487b7160e01b600052604160045260246000fd5b51906001600160a01b03821682036101c25756fe6080604052600436101561001257600080fd5b60003560e01c806301ffc9a7146102275780630214534814610222578063103f29071461021d578063128e5d82146102185780631a80e5001461021357806323f752d51461020e578063248a9ca3146102095780632dd31000146102045780632f2ff15d146101ff57806336568abe146101fa5780633dfd3873146101f55780633eb22c0f146101f0578063439fab91146101eb578063557cab44146101e6578063570ca735146101e15780635d32a1c9146101dc5780636679191e146101d75780637d24bb27146101d25780637f5a7c7b146101cd57806383ce0322146101c857806391d14854146101c35780639f86fd85146101be578063a217fddf146101b9578063bb24fe8a146101b4578063c0cd7c3e146101af578063d15b740e146101aa578063d547741f146101a5578063e02f6937146101a0578063e49561ee1461019b578063fbfa77cf14610196578063fd4d447c14610191578063ff54740f1461018c5763ffa1ad741461018757600080fd5b6110f1565b6110d3565b6110a9565b611080565b610e90565b610e31565b610de2565b610db6565b610d71565b610d2d565b610d11565b610c55565b610bf2565b610bad565b610b84565b610b4a565b610b0f565b610ab2565b610991565b610974565b610838565b6107d8565b6106d9565b61068e565b61063f565b6105e9565b6105ad565b610421565b6103dc565b610397565b610352565b610282565b3461027d57602036600319011261027d5760043563ffffffff60e01b811680910361027d57602090637965db0b60e01b811490811561026c575b506040519015158152f35b6301ffc9a760e01b14905038610261565b600080fd5b3461027d5760408060031936011261027d576004356024356102a26115ef565b6000928284526002602052808420548211610342578284526003602052816102cb828620611b3e565b14610332578161032c9161031c7e899d104fc3d8820bd96540612bcc5c448c8837b13b9f7faa43ad0728f0c14f9461030d876000526003602052604060002090565b61031642612075565b906116f8565b5050519081529081906020820190565b0390a280f35b5163a741a04560e01b8152600490fd5b51631eefc06360e31b8152600490fd5b3461027d57600036600319011261027d576040517f00000000000000000000000000000000000000000000000000000000000000006001600160a01b03168152602090f35b3461027d57600036600319011261027d576040517f00000000000000000000000000000000000000000000000000000000000000006001600160a01b03168152602090f35b3461027d57600036600319011261027d576040517f00000000000000000000000000000000000000000000000000000000000000006001600160a01b03168152602090f35b3461027d57604036600319011261027d576004356001600160601b038116810361027d57602435906104516117bc565b6040516302910f8b60e31b81523360048201526020816024816001600160a01b037f0000000000000000000000000000000000000000000000000000000000000000165afa9081156105a857600091610579575b5015610567576001600160601b03166bffffffffffffffffffffffff193360601b161790806104de836000526002602052604060002090565b541461055557610539817fc67e7929681aa1bccd63f52b3799bf5805f3009f197db6fdf584b14f7fbf608c9261051e856000526002602052604060002090565b5561052981856117ec565b6040519081529081906020820190565b0390a261055360016000805160206128e483398151915255565b005b60405163a741a04560e01b8152600490fd5b6040516323d53b9760e21b8152600490fd5b61059b915060203d6020116105a1575b6105938183610a20565b81019061110d565b386104a5565b503d610589565b611125565b3461027d57602036600319011261027d576004356000526000805160206128c48339815191526020526020600160406000200154604051908152f35b3461027d57600036600319011261027d576040517f00000000000000000000000000000000000000000000000000000000000000006001600160a01b03168152602090f35b6001600160a01b0381160361027d57565b3461027d57604036600319011261027d576105536024356004356106628261062e565b806000526000805160206128c483398151915260205261068960016040600020015461164c565b611a6c565b3461027d57604036600319011261027d576024356106ab8161062e565b336001600160a01b038216036106c75761055390600435611aa6565b60405163334bd91960e11b8152600490fd5b3461027d57602036600319011261027d576004356106f68161062e565b6106fe6117bc565b3360009081527f9ebbcbe0d2961d3fbe56ca6f679bc753bd848d3e6bb3eaf9041c51b286881d2c60205260408120549091907fd1c1f6fa6bf27d54c5e54c7c1dc6e5004d3c027ea1994fe68b29c1b51b69c36c9060ff16156107ba57506001546001600160a01b039182169181168214610555576001600160a01b03191681176001557f5bbb1d3ebb6a3ad2a0f17ff35e579a83af60604d1d3c2a4c83c62adecadf666d8280a260016000805160206128e48339815191525580f35b6044906040519063e2517d3f60e01b82523360048301526024820152fd5b3461027d57602036600319011261027d57600435600052600360205260206108036040600020611b3e565b604051908152f35b9181601f8401121561027d578235916001600160401b03831161027d576020838186019501011161027d57565b3461027d57602036600319011261027d576001600160401b0360043581811161027d5761086990369060040161080b565b600080516020612904833981519152549260ff8460401c161593168015908161096c575b6001149081610962575b159081610959575b5061094757600080516020612904833981519152805467ffffffffffffffff191660011790556108d3918361092257611bc7565b6108d957005b600080516020612904833981519152805460ff60401b19169055604051600181527fc7f505b2f371ae2175ee4913f4499e1f2633a7b5936321eed1cdaeb6115181d290602090a1005b600080516020612904833981519152805460ff60401b1916600160401b179055611bc7565b60405163f92ee8a960e01b8152600490fd5b9050153861089f565b303b159150610897565b84915061088d565b3461027d57600036600319011261027d576020604051614e208152f35b3461027d57600036600319011261027d576004546040516001600160a01b039091168152602090f35b6064359065ffffffffffff8216820361027d57565b634e487b7160e01b600052604160045260246000fd5b604081019081106001600160401b03821117610a0057604052565b6109cf565b606081019081106001600160401b03821117610a0057604052565b90601f801991011681019081106001600160401b03821117610a0057604052565b60405190610a4e826109e5565b565b6001600160401b038111610a0057601f01601f191660200190565b81601f8201121561027d57803590610a8282610a50565b92610a906040519485610a20565b8284526020838301011161027d57816000926020809301838601378301015290565b3461027d57606036600319011261027d5760243565ffffffffffff8116810361027d576044356001600160401b03811161027d57602091610afa610803923690600401610a6b565b90600435600052600384526040600020611d39565b3461027d57600036600319011261027d5760206040517fd1c1f6fa6bf27d54c5e54c7c1dc6e5004d3c027ea1994fe68b29c1b51b69c36c8152f35b3461027d57600036600319011261027d5760206040517e8b9b1e5fa9cf3b14f87f435649268146305ddf689f082e5961a335b07a9abf8152f35b3461027d57600036600319011261027d576001546040516001600160a01b039091168152602090f35b3461027d57600036600319011261027d576040517f00000000000000000000000000000000000000000000000000000000000000006001600160a01b03168152602090f35b3461027d57604036600319011261027d57602060ff610c49602435610c168161062e565b6004356000526000805160206128c4833981519152845260406000209060018060a01b0316600052602052604060002090565b54166040519015158152f35b3461027d5760408060031936011261027d57600435610c738161062e565b602435906001600160401b03821161027d5760008091610c9a610cff94369060040161080b565b908187519283928337810184815203915af43d15610d0757610cf13d610cbf81610a50565b90610ccc86519283610a20565b81523d6000602083013e5b84519485931515602085015280840152606083019061116f565b03601f198101835282610a20565b805190602001fd5b610cf16060610cd7565b3461027d57600036600319011261027d57602060405160008152f35b3461027d57600036600319011261027d5760206040516001600160401b037f0000000000000000000000000000000000000000000000000000000000000000168152f35b3461027d57600036600319011261027d576040517f00000000000000000000000000000000000000000000000000000000000000006001600160a01b03168152602090f35b3461027d57602036600319011261027d5760043560005260026020526020604060002054604051908152f35b3461027d57604036600319011261027d57610553602435600435610e058261062e565b806000526000805160206128c4833981519152602052610e2c60016040600020015461164c565b611aa6565b3461027d57608036600319011261027d57602435610e4e8161062e565b6044359065ffffffffffff8216820361027d57606435906001600160401b03821161027d57602092610e87610803933690600401610a6b565b91600435611292565b3461027d5760a036600319011261027d57602435600435610eb08261062e565b60443590610ebc6109ba565b6084356001600160401b03811161027d57610edc60049136908301610a6b565b94610ee56117bc565b6000956020610f0c610f00610f008a5460018060a01b031690565b6001600160a01b031690565b60405163b134427160e01b815294859182905afa9283156105a857879361104f575b506001600160a01b03928316330361103d576001546001600160a01b0316838116610fb2575b50506040805195865265ffffffffffff909316602086015216927f741a5de99085c0d660f3e4192217b0ffb0ea4e35a0480de48e857a4bc3ee36ed91819081015b0390a3610faf60016000805160206128e483398151915255565b80f35b909360405194610fe986610fdb602082019363724ab0f760e11b8552858c898d60248701611440565b03601f198101885287610a20565b62042e305a1061102b5788610f95938192827f741a5de99085c0d660f3e4192217b0ffb0ea4e35a0480de48e857a4bc3ee36ed9951926203d090f15093610f54565b604051638072475160e01b8152600490fd5b60405163dabc4ad960e01b8152600490fd5b61107291935060203d602011611079575b61106a8183610a20565b81019061142b565b9138610f2e565b503d611060565b3461027d57600036600319011261027d576000546040516001600160a01b039091168152602090f35b3461027d57604036600319011261027d5760206108036024356110cb8161062e565b6004356114c1565b3461027d57600036600319011261027d5760206040516203d0908152f35b3461027d57600036600319011261027d57602060405160018152f35b9081602091031261027d5751801515810361027d5790565b6040513d6000823e3d90fd5b90611149929160005260036020526040600020611d39565b90565b60005b83811061115f5750506000910152565b818101518382015260200161114f565b906020916111888151809281855285808601910161114c565b601f01601f1916010190565b604051906111a1826109e5565b60606020838281520152565b81601f8201121561027d5780516111c381610a50565b926111d16040519485610a20565b8184526020828401011161027d57611149916020808501910161114c565b9060208282031261027d5781516001600160401b039283821161027d57019060408282031261027d5760405192611225846109e5565b825181811161027d578261123a9185016111ad565b8452602083015190811161027d5761125292016111ad565b602082015290565b6001600160a01b0391821681529116602082015265ffffffffffff90911660408201526080606082018190526111499291019061116f565b926112a290929192828486611ef1565b9290936112ad611194565b93805180611404575b5050841593841561136c575b84156112da575b505050506112d45790565b50600090565b602080949550611305910151604051958694859463530e1d4360e01b865260601c906004860161125a565b03817f00000000000000000000000000000000000000000000000000000000000000006001600160a01b03165afa9081156105a85760009161134d575b5015388080806112c9565b611366915060203d6020116105a1576105938183610a20565b38611342565b6000549094506001600160a01b03166020848651926113a0604051948593849363530e1d4360e01b8552896004860161125a565b03817f00000000000000000000000000000000000000000000000000000000000000006001600160a01b03165afa9081156105a8576000916113e5575b5015936112c2565b6113fe915060203d6020116105a1576105938183610a20565b386113dd565b6114189295506020809183010191016111ef565b9238806112b6565b5190610a4e8261062e565b9081602091031261027d57516111498161062e565b919360a093611149969565ffffffffffff938552600180871b031660208501526040840152166060820152816080820152019061116f565b634e487b7160e01b600052601160045260246000fd5b8115611498570490565b634e487b7160e01b600052601260045260246000fd5b90600182018092116114bc57565b611478565b6000546040516308834cb560e21b8082526001600160a01b0385811660048401529283166024830152929392602092909183816044817f000000000000000000000000000000000000000000000000000000000000000086165afa9081156105a8576000916115d2575b501591821561154d575b505090506115465761114991611fe9565b5050600090565b6040519081526001600160a01b0385166004820152606086901c602482015291508290829060449082907f0000000000000000000000000000000000000000000000000000000000000000165afa9182156105a8576000926115b5575b505015803880611535565b6115cb9250803d106105a1576105938183610a20565b38806115aa565b6115e99150843d86116105a1576105938183610a20565b3861152b565b3360009081527f72a65082a5691803ab2b62c9bc729b34205ba1b183d950896526b2fd8714d0c7602052604090207e8b9b1e5fa9cf3b14f87f435649268146305ddf689f082e5961a335b07a9abf9060ff905b5416156107ba5750565b60008181526000805160206128c483398151915260209081526040808320338452909152902060ff90611642565b634e487b7160e01b600052603260045260246000fd5b80548210156116a85760005260206000200190600090565b61167a565b90815491600160401b831015610a0057826116d0916001610a4e95018155611690565b90919082549060031b91821b91600019901b1916179055565b6000198101919082116114bc57565b9092919260018201908154801561178b575b5084611715846120cb565b5094909284549361172583611b3e565b9681611776575b50156117535750505060001981019081116114bc576116d0859161174f93611690565b9190565b61174f94929361176f926001600160d01b0390911691906125e1565b50506116ad565b65ffffffffffff83811691161490503861172c565b600160401b811015610a00578060016117a79201845583611690565b8154906000199060031b1b191690553861170a565b6000805160206128e483398151915260028154146117da5760029055565b604051633ee5aeb560e01b8152600490fd5b9060009180835260036020526040832082611806826120cb565b91939050831561186557611826916001600160d01b031690600101611690565b90549060031b1c5b8261185b575b505061183f57505050565b82604091611857945260036020522061031642612075565b5050565b1190508238611834565b50508461182e565b6001600160a01b03811660009081527fb7db2dd08fcb62d0c9e08c51941cae53c267786a0b75803fb7960902fc8ef97d60205260408120546000805160206128c48339815191529060ff1661191c57818052602090815260408083206001600160a01b038516600090815292529020805460ff1916600117905533916001600160a01b0316907f2f8788117e7eff1d82e926ec794901d17c78024a50270940304540a733656f0d8180a4600190565b50905090565b6001600160a01b03811660009081527f9ebbcbe0d2961d3fbe56ca6f679bc753bd848d3e6bb3eaf9041c51b286881d2c602052604081207fd1c1f6fa6bf27d54c5e54c7c1dc6e5004d3c027ea1994fe68b29c1b51b69c36c906000805160206128c48339815191529060ff905b54166119f557818352602090815260408084206001600160a01b038616600090815292529020805460ff1916600117905533926001600160a01b0316917f2f8788117e7eff1d82e926ec794901d17c78024a50270940304540a733656f0d9080a4600190565b5050905090565b6001600160a01b03811660009081527f72a65082a5691803ab2b62c9bc729b34205ba1b183d950896526b2fd8714d0c7602052604081207e8b9b1e5fa9cf3b14f87f435649268146305ddf689f082e5961a335b07a9abf906000805160206128c48339815191529060ff9061198f565b60008181526000805160206128c4833981519152602081815260408084206001600160a01b0387168552909152822091929160ff9061198f565b60008181526000805160206128c4833981519152602081815260408084206001600160a01b038716855290915282205491929160ff16156119f557818352602090815260408084206001600160a01b038616600090815292529020805460ff1916905533926001600160a01b0316917ff6391f5c32d9c69d2a47ea670b442974b53935d1edc7fd64eb21e047a839171b9080a4600190565b805460009080611b7257505060005b6001600160d01b03811615611546576001611b689201611690565b90549060031b1c90565b6000199181838101116114bc578084602092522001015460301c611b4d565b91909160408184031261027d578035611ba98161062e565b9260208201356001600160401b03811161027d576111499201610a6b565b611bd391810190611b91565b6040516302910f8b60e31b81526001600160a01b039283166004820181905291906020816024817f000000000000000000000000000000000000000000000000000000000000000088165afa9081156105a857600091611ce9575b5015611cd757611c6b604091611c66611cb194611c49612120565b60018060a01b03166001600160601b0360a01b6000541617600055565b61228e565b6020810151600180546001600160a01b0319166001600160a01b0390921691909117905580516001600160a01b0316848116611cc7575b5001516001600160a01b031690565b908116611cbb5750565b611cc490611922565b50565b611cd09061186d565b5038611ca2565b6040516362df054560e01b8152600490fd5b611d02915060203d6020116105a1576105938183610a20565b38611c2e565b9081602091031261027d575163ffffffff8116810361027d5790565b90600163ffffffff809316019182116114bc57565b91805115611e125780602080611d5493518301019101611d08565b91611d5f8382612509565b92611d70845165ffffffffffff1690565b9065ffffffffffff8085169216828114611e065782119182611da6575b5050611d9d576111499250612431565b50506020015190565b909150611db383546116e9565b63ffffffff831614918215611dcc575b50503880611d8d565b611dfe919250611de7611de1611df392611d24565b85612509565b5165ffffffffffff1690565b65ffffffffffff1690565b113880611dc3565b50505050506020015190565b5061114991612431565b60405190611e2982610a05565b60606040838281528260208201520152565b9060208282031261027d5781516001600160401b039283821161027d57019060608282031261027d5760405192611e7184610a05565b825181811161027d5782611e869185016111ad565b8452602083015181811161027d5782611ea09185016111ad565b6020850152604083015190811161027d57611ebb92016111ad565b604082015290565b9081602091031261027d575190565b60409065ffffffffffff6111499493168152816020820152019061116f565b90939293611efd611e1c565b94805180611fcd575b50506004546001600160a01b03918216911603611fc457600054611f5e929190602090611f3d90610f00906001600160a01b031681565b8187015190604051808097819463810da75d60e01b83528860048401611ed2565b03915afa9081156105a857611f8c93600092611f91575b50611f869192604087015191611131565b90612571565b915190565b611f869250611fb79060203d602011611fbd575b611faf8183610a20565b810190611ec3565b91611f75565b503d611fa5565b50509051600091565b611fe1929650602080918301019101611e3b565b933880611f06565b6004546001600160a01b039290831690831603611546576020600492600054166040519384809263bd49c35f60e01b82525afa9081156105a8576111499260009261204c575b50612047611f86916000526003602052604060002090565b611b3e565b611f8691925061206d6120479160203d602011611fbd57611faf8183610a20565b92915061202f565b65ffffffffffff90818111612088571690565b604490604051906306dfcc6560e41b8252603060048301526024820152fd5b906040516120b4816109e5565b915465ffffffffffff8116835260301c6020830152565b8054806120df575050600090600090600090565b6000199080828101116114bc576120ff92600052602060002001016120a7565b9065ffffffffffff82511691602060018060d01b0391015116906001929190565b6121286126ff565b6121306126ff565b60016000805160206128e483398151915255565b6040519061215182610a05565b60006040838281528260208201520152565b81601f8201121561027d578051916020916001600160401b038411610a00578360051b906040519461219785840187610a20565b8552838086019282010192831161027d578301905b8282106121ba575050505090565b83809183516121c88161062e565b8152019101906121ac565b60208183031261027d5780516001600160401b039182821161027d5701918281039260a0841261027d5760606040519461220c86610a05565b1261027d5760405161221d81610a05565b81516122288161062e565b815260208201516122388161062e565b6020820152604082015161224b8161062e565b60408201528452606081015192831161027d5761226f608092611ebb948301612163565b602085015201611420565b80518210156116a85760209160051b010190565b612296612144565b506122ac815191602080809483010191016121d3565b8051516001600160a01b0393919084161580612425575b612413576040818101805182516302910f8b60e31b81526001600160a01b0390911660048083019190915296929491928690829060249082907f0000000000000000000000000000000000000000000000000000000000000000165afa9081156105a8576000916123f6575b50156123e457919384019160005b835180518210156123b357610f00612358836123659361227a565b516001600160a01b031690565b156123a35761238761238361237e61235884885161227a565b6119fc565b1590565b6123935760010161233d565b8451635140fefd60e11b81528790fd5b84516323cda06760e01b81528790fd5b50509051600480546001600160a01b0319166001600160a01b0390921691909117905593506123e0915050565b5190565b604051631f0853c160e21b8152600490fd5b61240d9150863d88116105a1576105938183610a20565b3861232f565b6040516303501f5960e11b8152600490fd5b508281015151156122c3565b90815490600082916005841161249f575b61244d935084612862565b8061247657506000905b6001600160d01b0382161561154657611149916001611b689201611690565b612492612485612499926116e9565b8360005260206000200190565b5460301c90565b90612457565b91926124aa8161272e565b81039081116114bc5761244d938560005265ffffffffffff80836020600020015416908516106000146124de575091612442565b9291506124ea906114ae565b90612442565b604051906124fd826109e5565b60006020838281520152565b9061253261252c6125539261251c6124f0565b506125256124f0565b5084611690565b506120a7565b91600165ffffffffffff845116936020828060d01b03910151169101611690565b90549060405192612563846109e5565b835260031b1c602082015290565b908082101561257e575090565b905090565b8054600160401b811015610a00576125a091600182018155611690565b6125cb57815160209092015160301b65ffffffffffff191665ffffffffffff92909216919091179055565b634e487b7160e01b600052600060045260246000fd5b8054929392919082156126d5576126026125fd612485856116e9565b6120a7565b90612613825165ffffffffffff1690565b65ffffffffffff848116911681106126c35761174f946020948892612641611df3875165ffffffffffff1690565b0361268b575061267d92612657612664926116e9565b9060005260206000200190565b9065ffffffffffff82549181199060301b169116179055565b01516001600160d01b031690565b9150506126be916126ab61269d610a41565b65ffffffffffff9093168352565b6001600160d01b03881682860152612583565b61267d565b604051632520601d60e01b8152600490fd5b6126f992506126e561269d610a41565b6001600160d01b0385166020830152612583565b60009190565b60ff6000805160206129048339815191525460401c161561271c57565b604051631afcd79f60e31b8152600490fd5b80156112d45780611f866127fa6127f06127e66127dc6127d26127c86127be60016111499a6000908b60801c80612856575b508060401c80612849575b508060201c8061283c575b508060101c8061282f575b508060081c80612822575b508060041c80612815575b508060021c80612808575b50821c612801575b811c1b6127b7818b61148e565b0160011c90565b6127b7818a61148e565b6127b7818961148e565b6127b7818861148e565b6127b7818761148e565b6127b7818661148e565b6127b7818561148e565b809261148e565b81016127aa565b60029150910190386127a2565b6004915091019038612797565b600891509101903861278c565b6010915091019038612781565b6020915091019038612776565b604091509101903861276b565b91505060809038612760565b91905b8382106128725750505090565b9091928083169080841860011c82018092116114bc5760008581526020902082015465ffffffffffff90811690841610156128b15750925b9190612865565b9392506128bd906114ae565b916128aa56fe02dd7bc7dec4dceedda775e58dd541e08a116c6c53815c0bd028192f7b6268009b779b17422d0df92223018b32b4d1fa46e071723d6817e2486d003becc55f00f0c57e16840df040f15088dc2f81fe391c3923bec73e23a9662efc9c229c6a00a26469706673582212203b7726d3f3cfa7bae1328d4c5e55f95cab7608e07dcd31ce68dd5dac550741b764736f6c63430008190033","linkReferences":{}},"methodIdentifiers":{"DEFAULT_ADMIN_ROLE()":"a217fddf","FACTORY()":"2dd31000","HOOK_GAS_LIMIT()":"ff54740f","HOOK_RESERVE()":"557cab44","HOOK_SET_ROLE()":"6679191e","NETWORK_LIMIT_SET_ROLE()":"7d24bb27","NETWORK_REGISTRY()":"c0cd7c3e","OPERATOR_NETWORK_OPT_IN_SERVICE()":"1a80e500","OPERATOR_REGISTRY()":"83ce0322","OPERATOR_VAULT_OPT_IN_SERVICE()":"128e5d82","TYPE()":"bb24fe8a","VAULT_FACTORY()":"103f2907","VERSION()":"ffa1ad74","getRoleAdmin(bytes32)":"248a9ca3","grantRole(bytes32,address)":"2f2ff15d","hasRole(bytes32,address)":"91d14854","hook()":"7f5a7c7b","initialize(bytes)":"439fab91","maxNetworkLimit(bytes32)":"d15b740e","networkLimit(bytes32)":"3eb22c0f","networkLimitAt(bytes32,uint48,bytes)":"5d32a1c9","onSlash(bytes32,address,uint256,uint48,bytes)":"e49561ee","operator()":"570ca735","renounceRole(bytes32,address)":"36568abe","revokeRole(bytes32,address)":"d547741f","setHook(address)":"3dfd3873","setMaxNetworkLimit(uint96,uint256)":"23f752d5","setNetworkLimit(bytes32,uint256)":"02145348","stake(bytes32,address)":"fd4d447c","stakeAt(bytes32,address,uint48,bytes)":"e02f6937","staticDelegateCall(address,bytes)":"9f86fd85","supportsInterface(bytes4)":"01ffc9a7","vault()":"fbfa77cf"},"id":77}