{"abi":[{"type":"constructor","inputs":[{"name":"vaultFactory","type":"address","internalType":"address"},{"name":"networkMiddlewareService","type":"address","internalType":"address"},{"name":"networkRegistry","type":"address","internalType":"address"},{"name":"slasherFactory","type":"address","internalType":"address"},{"name":"entityType","type":"uint64","internalType":"uint64"}],"stateMutability":"nonpayable"},{"type":"function","name":"BURNER_GAS_LIMIT","inputs":[],"outputs":[{"name":"","type":"uint256","internalType":"uint256"}],"stateMutability":"view"},{"type":"function","name":"BURNER_RESERVE","inputs":[],"outputs":[{"name":"","type":"uint256","internalType":"uint256"}],"stateMutability":"view"},{"type":"function","name":"FACTORY","inputs":[],"outputs":[{"name":"","type":"address","internalType":"address"}],"stateMutability":"view"},{"type":"function","name":"NETWORK_MIDDLEWARE_SERVICE","inputs":[],"outputs":[{"name":"","type":"address","internalType":"address"}],"stateMutability":"view"},{"type":"function","name":"NETWORK_REGISTRY","inputs":[],"outputs":[{"name":"","type":"address","internalType":"address"}],"stateMutability":"view"},{"type":"function","name":"TYPE","inputs":[],"outputs":[{"name":"","type":"uint64","internalType":"uint64"}],"stateMutability":"view"},{"type":"function","name":"VAULT_FACTORY","inputs":[],"outputs":[{"name":"","type":"address","internalType":"address"}],"stateMutability":"view"},{"type":"function","name":"cumulativeSlash","inputs":[{"name":"subnetwork","type":"bytes32","internalType":"bytes32"},{"name":"operator","type":"address","internalType":"address"}],"outputs":[{"name":"","type":"uint256","internalType":"uint256"}],"stateMutability":"view"},{"type":"function","name":"cumulativeSlashAt","inputs":[{"name":"subnetwork","type":"bytes32","internalType":"bytes32"},{"name":"operator","type":"address","internalType":"address"},{"name":"timestamp","type":"uint48","internalType":"uint48"},{"name":"hint","type":"bytes","internalType":"bytes"}],"outputs":[{"name":"","type":"uint256","internalType":"uint256"}],"stateMutability":"view"},{"type":"function","name":"executeSlash","inputs":[{"name":"slashIndex","type":"uint256","internalType":"uint256"},{"name":"hints","type":"bytes","internalType":"bytes"}],"outputs":[{"name":"slashedAmount","type":"uint256","internalType":"uint256"}],"stateMutability":"nonpayable"},{"type":"function","name":"initialize","inputs":[{"name":"data","type":"bytes","internalType":"bytes"}],"outputs":[],"stateMutability":"nonpayable"},{"type":"function","name":"isBurnerHook","inputs":[],"outputs":[{"name":"","type":"bool","internalType":"bool"}],"stateMutability":"view"},{"type":"function","name":"latestSlashedCaptureTimestamp","inputs":[{"name":"subnetwork","type":"bytes32","internalType":"bytes32"},{"name":"operator","type":"address","internalType":"address"}],"outputs":[{"name":"value","type":"uint48","internalType":"uint48"}],"stateMutability":"view"},{"type":"function","name":"requestSlash","inputs":[{"name":"subnetwork","type":"bytes32","internalType":"bytes32"},{"name":"operator","type":"address","internalType":"address"},{"name":"amount","type":"uint256","internalType":"uint256"},{"name":"captureTimestamp","type":"uint48","internalType":"uint48"},{"name":"hints","type":"bytes","internalType":"bytes"}],"outputs":[{"name":"slashIndex","type":"uint256","internalType":"uint256"}],"stateMutability":"nonpayable"},{"type":"function","name":"resolver","inputs":[{"name":"subnetwork","type":"bytes32","internalType":"bytes32"},{"name":"hint","type":"bytes","internalType":"bytes"}],"outputs":[{"name":"","type":"address","internalType":"address"}],"stateMutability":"view"},{"type":"function","name":"resolverAt","inputs":[{"name":"subnetwork","type":"bytes32","internalType":"bytes32"},{"name":"timestamp","type":"uint48","internalType":"uint48"},{"name":"hint","type":"bytes","internalType":"bytes"}],"outputs":[{"name":"","type":"address","internalType":"address"}],"stateMutability":"view"},{"type":"function","name":"resolverSetEpochsDelay","inputs":[],"outputs":[{"name":"","type":"uint256","internalType":"uint256"}],"stateMutability":"view"},{"type":"function","name":"setResolver","inputs":[{"name":"identifier","type":"uint96","internalType":"uint96"},{"name":"resolver_","type":"address","internalType":"address"},{"name":"hints","type":"bytes","internalType":"bytes"}],"outputs":[],"stateMutability":"nonpayable"},{"type":"function","name":"slashRequests","inputs":[{"name":"","type":"uint256","internalType":"uint256"}],"outputs":[{"name":"subnetwork","type":"bytes32","internalType":"bytes32"},{"name":"operator","type":"address","internalType":"address"},{"name":"amount","type":"uint256","internalType":"uint256"},{"name":"captureTimestamp","type":"uint48","internalType":"uint48"},{"name":"vetoDeadline","type":"uint48","internalType":"uint48"},{"name":"completed","type":"bool","internalType":"bool"}],"stateMutability":"view"},{"type":"function","name":"slashRequestsLength","inputs":[],"outputs":[{"name":"","type":"uint256","internalType":"uint256"}],"stateMutability":"view"},{"type":"function","name":"slashableStake","inputs":[{"name":"subnetwork","type":"bytes32","internalType":"bytes32"},{"name":"operator","type":"address","internalType":"address"},{"name":"captureTimestamp","type":"uint48","internalType":"uint48"},{"name":"hints","type":"bytes","internalType":"bytes"}],"outputs":[{"name":"amount","type":"uint256","internalType":"uint256"}],"stateMutability":"view"},{"type":"function","name":"staticDelegateCall","inputs":[{"name":"target","type":"address","internalType":"address"},{"name":"data","type":"bytes","internalType":"bytes"}],"outputs":[],"stateMutability":"nonpayable"},{"type":"function","name":"vault","inputs":[],"outputs":[{"name":"","type":"address","internalType":"address"}],"stateMutability":"view"},{"type":"function","name":"vetoDuration","inputs":[],"outputs":[{"name":"","type":"uint48","internalType":"uint48"}],"stateMutability":"view"},{"type":"function","name":"vetoSlash","inputs":[{"name":"slashIndex","type":"uint256","internalType":"uint256"},{"name":"hints","type":"bytes","internalType":"bytes"}],"outputs":[],"stateMutability":"nonpayable"},{"type":"event","name":"ExecuteSlash","inputs":[{"name":"slashIndex","type":"uint256","indexed":true,"internalType":"uint256"},{"name":"slashedAmount","type":"uint256","indexed":false,"internalType":"uint256"}],"anonymous":false},{"type":"event","name":"Initialized","inputs":[{"name":"version","type":"uint64","indexed":false,"internalType":"uint64"}],"anonymous":false},{"type":"event","name":"RequestSlash","inputs":[{"name":"slashIndex","type":"uint256","indexed":true,"internalType":"uint256"},{"name":"subnetwork","type":"bytes32","indexed":true,"internalType":"bytes32"},{"name":"operator","type":"address","indexed":true,"internalType":"address"},{"name":"slashAmount","type":"uint256","indexed":false,"internalType":"uint256"},{"name":"captureTimestamp","type":"uint48","indexed":false,"internalType":"uint48"},{"name":"vetoDeadline","type":"uint48","indexed":false,"internalType":"uint48"}],"anonymous":false},{"type":"event","name":"SetResolver","inputs":[{"name":"subnetwork","type":"bytes32","indexed":true,"internalType":"bytes32"},{"name":"resolver","type":"address","indexed":false,"internalType":"address"}],"anonymous":false},{"type":"event","name":"VetoSlash","inputs":[{"name":"slashIndex","type":"uint256","indexed":true,"internalType":"uint256"},{"name":"resolver","type":"address","indexed":true,"internalType":"address"}],"anonymous":false},{"type":"error","name":"AlreadySet","inputs":[]},{"type":"error","name":"CheckpointUnorderedInsertion","inputs":[]},{"type":"error","name":"InsufficientBurnerGas","inputs":[]},{"type":"error","name":"InsufficientSlash","inputs":[]},{"type":"error","name":"InvalidCaptureTimestamp","inputs":[]},{"type":"error","name":"InvalidInitialization","inputs":[]},{"type":"error","name":"InvalidResolverSetEpochsDelay","inputs":[]},{"type":"error","name":"InvalidVetoDuration","inputs":[]},{"type":"error","name":"NoBurner","inputs":[]},{"type":"error","name":"NoResolver","inputs":[]},{"type":"error","name":"NotInitialized","inputs":[]},{"type":"error","name":"NotInitializing","inputs":[]},{"type":"error","name":"NotNetwork","inputs":[]},{"type":"error","name":"NotNetworkMiddleware","inputs":[]},{"type":"error","name":"NotResolver","inputs":[]},{"type":"error","name":"NotVault","inputs":[]},{"type":"error","name":"ReentrancyGuardReentrantCall","inputs":[]},{"type":"error","name":"SafeCastOverflowedUintDowncast","inputs":[{"name":"bits","type":"uint8","internalType":"uint8"},{"name":"value","type":"uint256","internalType":"uint256"}]},{"type":"error","name":"SlashPeriodEnded","inputs":[]},{"type":"error","name":"SlashRequestCompleted","inputs":[]},{"type":"error","name":"SlashRequestNotExist","inputs":[]},{"type":"error","name":"VetoPeriodEnded","inputs":[]},{"type":"error","name":"VetoPeriodNotEnded","inputs":[]}],"bytecode":{"object":"0x6101203461017757601f61304b38819003918201601f19168301916001600160401b03918284118585101761017c578160a092869260409687528339810103126101775761004c83610192565b61005860208501610192565b91610064848601610192565b94608061007360608301610192565b910151918083168303610177577ff0c57e16840df040f15088dc2f81fe391c3923bec73e23a9662efc9c229c6a009081549060ff82891c16610166578080831603610122575b50505060805260a05260c05260e05261010091825251612ea491826101a783396080518261033b015260a05182818161134801526124e5015260c0518281816101d20152611c07015260e0518281816102f60152611d96015251818181610a0c01526113a00152f35b6001600160401b0319909116811790915585519081527fc7f505b2f371ae2175ee4913f4499e1f2633a7b5936321eed1cdaeb6115181d290602090a13880806100b9565b875163f92ee8a960e01b8152600490fd5b600080fd5b634e487b7160e01b600052604160045260246000fd5b51906001600160a01b03821682036101775756fe6080604052600436101561001257600080fd5b60003560e01c8063103f2907146101a75780631a2be2c4146101a2578063267de1f31461019d5780632964f8dc146101985780632c9d45b3146101935780632dd310001461018e57806331ce4dfe1461018957806334d098ea14610184578063439fab911461017f578063545ce3891461017a5780638f42f9ab146101755780639168f9d2146101705780639a8965511461016b5780639f86fd8514610166578063aa8e648914610161578063aab3595f1461015c578063b94c386e14610157578063bb24fe8a14610152578063bc6eac5b1461014d578063c0cd7c3e14610148578063cd05b8a114610143578063d5c24e1a1461013e578063e054e08b14610139578063f9268d18146101345763fbfa77cf1461012f57600080fd5b6115db565b61146b565b611445565b611427565b6113cf565b61138a565b61136c565b611328565b610fd9565b610f81565b610f3f565b610e37565b610dac565b61096c565b61094e565b6106b0565b610574565b610521565b6104b7565b610325565b6102e0565b6102c3565b61026a565b610212565b6101bc565b60009103126101b757565b600080fd5b346101b75760003660031901126101b7576040517f00000000000000000000000000000000000000000000000000000000000000006001600160a01b03168152602090f35b6001600160a01b038116036101b757565b346101b75760403660031901126101b757602061026261025d60243561023781610201565b6004356000526002845260406000209060018060a01b0316600052602052604060002090565b611a15565b604051908152f35b346101b75760403660031901126101b757602065ffffffffffff6102b960243561029381610201565b6004356000526001845260406000209060018060a01b0316600052602052604060002090565b5416604051908152f35b346101b75760003660031901126101b7576020604051614e208152f35b346101b75760003660031901126101b7576040517f00000000000000000000000000000000000000000000000000000000000000006001600160a01b03168152602090f35b346101b75760003660031901126101b7576040517f00000000000000000000000000000000000000000000000000000000000000006001600160a01b03168152602090f35b65ffffffffffff8116036101b757565b634e487b7160e01b600052604160045260246000fd5b602081019081106001600160401b038211176103ab57604052565b61037a565b606081019081106001600160401b038211176103ab57604052565b604081019081106001600160401b038211176103ab57604052565b6001600160401b0381116103ab57604052565b90601f801991011681019081106001600160401b038211176103ab57604052565b6040519060c082018281106001600160401b038211176103ab57604052565b60405190610446826103b0565b565b60405190610446826103cb565b6001600160401b0381116103ab57601f01601f191660200190565b81601f820112156101b75780359061048782610455565b9261049560405194856103f9565b828452602083830101116101b757816000926020809301838601378301015290565b346101b75760603660031901126101b7576024356104d48161036a565b604435906001600160401b0382116101b7576105186104f96020933690600401610470565b600435600090815260068552604090206001600160a01b039390611a97565b16604051908152f35b346101b75760003660031901126101b757602060ff60005460a01c166040519015158152f35b9181601f840112156101b7578235916001600160401b0383116101b757602083818601950101116101b757565b346101b75760203660031901126101b7576001600160401b036004358181116101b7576105a5903690600401610547565b600080516020612e4f833981519152549260ff8460401c16159316801590816106a8575b600114908161069e575b159081610695575b5061068357600080516020612e4f833981519152805467ffffffffffffffff1916600117905561060f918361065e57611bd0565b61061557005b600080516020612e4f833981519152805460ff60401b19169055604051600181527fc7f505b2f371ae2175ee4913f4499e1f2633a7b5936321eed1cdaeb6115181d290602090a1005b600080516020612e4f833981519152805460ff60401b1916600160401b179055611bd0565b60405163f92ee8a960e01b8152600490fd5b905015386105db565b303b1591506105d3565b8491506105c9565b346101b75760a03660031901126101b757600460243581356106d182610201565b606435916106de8361036a565b6084356001600160401b0381116101b7576106fc9036908601610547565b9390610706611d3e565b61070f84611d6e565b61071761162a565b9480610938575b505061072942611e5b565b61074361073c875465ffffffffffff1690565b80926116a1565b6000549095906107699061075d906001600160a01b031681565b6001600160a01b031690565b958760206040988951928380926327f843b560e11b82525afa8015610933576107a99261079e92600092610902575b506116f9565b65ffffffffffff1690565b65ffffffffffff84169081109081156108ec575b506108dc576107d26107db9151848688612044565b50604435611e06565b9586156108ce576108ca6108a2878988887f3cb7f4ff6cecf74cee0eb9ae3ebf8933fa60a53014cce52f96da72a78dba8464896108208a61081b42611e5b565b6116a1565b9260035497889461087261083261041a565b8881526001600160a01b0385166020820152808b018a905265ffffffffffff8616606082015265ffffffffffff83166080820152600060a0820152611727565b885197885265ffffffffffff938416602089015290921660408701526001600160a01b0316949081906060820190565b0390a46108bc6001600080516020612e2f83398151915255565b519081529081906020820190565b0390f35b855163167f871760e31b8152fd5b8551631357ac9160e11b81528790fd5b90506108fa61079e42611e5b565b1115386107bd565b61092591925060203d60201161092c575b61091d81836103f9565b8101906116c0565b9038610798565b503d610913565b6116d5565b61094692955081019061163d565b92388061071e565b346101b75760003660031901126101b7576020600354604051908152f35b346101b75760603660031901126101b75760048035906bffffffffffffffffffffffff821682036101b7576024356109a381610201565b6044356001600160401b0381116101b7576109c19036908401610547565b906109ca611d3e565b6109d261162a565b5081610d43575b5050604080516302910f8b60e31b8152338185019081526001600160a01b0395929491602091829082908190830103818a7f0000000000000000000000000000000000000000000000000000000000000000165afa90811561093357600091610d16575b5015610d0757600054610a79906001600160a01b0316936bffffffffffffffffffffffff166bffffffffffffffffffffffff193360601b161790565b95610a96610a91886000526006602052604060002090565b61295a565b50949015610c9b57610aaa61079e42611e5b565b65ffffffffffff9586161115610c6357610ad6610ad1896000526006602052604060002090565b611e18565b505b610afd61075d61075d61075d610af88c6000526006602052604060002090565b61270c565b91808716928303610b6a575b505050505050610b4e907f7b0b759b513b299fd2811f51926dca8854222a675557e8d544ce0933bf5b7570925b516001600160a01b0390911681529081906020820190565b0390a2610b686001600080516020612e2f83398151915255565b005b610b838998959796986000526006602052604060002090565b911692845163186a323160e21b815281818981885afa90811561093357600091610c46575b5081600554958751998a80926327f843b560e11b82525afa9081156109335789610c0e610c20977f7b0b759b513b299fd2811f51926dca8854222a675557e8d544ce0933bf5b75709c610c1595610b4e9d610c1a98600092610c29575b5050169061182f565b9116611850565b611e5b565b90612bcc565b82958495610b09565b610c3f9250803d1061092c5761091d81836103f9565b3880610c05565b610c5d9150823d841161092c5761091d81836103f9565b38610ba8565b610c8361075d61075d61075d610af88c6000526006602052604060002090565b82871603610ad857865163a741a04560e01b81528490fd5b5093949385169250508115610cf9575091610b4e91610cf27f7b0b759b513b299fd2811f51926dca8854222a675557e8d544ce0933bf5b757094610ce9876000526006602052604060002090565b610c1a42611e5b565b5050610b36565b825163a741a04560e01b8152fd5b5083516323d53b9760e21b8152fd5b610d369150823d8411610d3c575b610d2e81836103f9565b81019061181b565b38610a3d565b503d610d24565b610d4f9181019061163d565b5038806109d9565b634e487b7160e01b600052603260045260246000fd5b600354811015610da757600360005260021b7fc2575a0e9e593c00f959f8c92f12db2869c3395a3b0502d05e2516446f71f85b0190600090565b610d57565b346101b75760203660031901126101b7576004356003548110156101b757610dd390610d6d565b50805460018201546002830154600390930154604080519384526001600160a01b0390921660208401529082019290925265ffffffffffff808316606080840191909152603084901c90911660808301529190911c60ff16151560a082015260c090f35b346101b7576040806003193601126101b757600435610e5581610201565b602435906001600160401b0382116101b75760008091610e7c610ee1943690600401610547565b908187519283928337810184815203915af43d15610ee957610ed33d610ea181610455565b90610eae865192836103f9565b81523d6000602083013e5b845194859315156020850152808401526060830190611880565b03601f1981018352826103f9565b805190602001fd5b610ed36060610eb9565b9060806003198301126101b75760043591602435610f1081610201565b91604435610f1d8161036a565b91606435906001600160401b0382116101b757610f3c91600401610470565b90565b346101b7576020610262610f7c610f5536610ef3565b939190926000526002865260406000209060018060a01b0316600052602052604060002090565b611e8d565b346101b7576020610f9d610f9436610ef3565b92919091612044565b50604051908152f35b9060406003198301126101b75760043591602435906001600160401b0382116101b757610fd591600401610547565b9091565b346101b757610fe736610fa6565b9190610ff1611d3e565b610ff96118d2565b9280611312575b50506003548110156113005761101581610d6d565b509081549061102382611d6e565b6003830180549365ffffffffffff9384861660018060a01b0361104889518385611604565b161515806112d5575b806112bc575b6112aa5761106d8161106842611e5b565b6116f9565b6000546110849061075d906001600160a01b031681565b96600460206040998a51928380926327f843b560e11b82525afa801561093357829160009161128b575b501691161161127a5760018301805490986110d993929188906001600160a01b031691015192612044565b906110e8816002850154611e06565b9687156112695760601c60ff16611258579261121061120389946111db6111c88b9687876108ca9f6111d68f9d8f9e6112169f61113286600160601b60ff60601b19825416179055565b8a54855461115491906001600160a01b0316885465ffffffffffff1691612280565b8a54855461116d9189916001600160a01b031690612308565b8a54945461118b906001600160a01b0316965465ffffffffffff1690565b97611194610439565b9384526020840152818301525196879160208301919091604080606083019480518452602081015160208501520151910152565b03601f1981018752866103f9565b61247e565b6111f46111ee855465ffffffffffff1690565b8661258d565b5494546001600160a01b031690565b915465ffffffffffff1690565b9261260d565b81518381527f5cc28df3b54da9d06f805d87616ebf969c81310f2aa8369cb14ca50f815d411190602090a26108bc6001600080516020612e2f83398151915255565b8551633428e90760e01b8152600490fd5b865163167f871760e31b8152600490fd5b8551639ea153eb60e01b8152600490fd5b6112a4915060203d60201161092c5761091d81836103f9565b386110ae565b60405163b62b15c760e01b8152600490fd5b506112c961079e42611e5b565b868860301c1611611057565b506112f961075d6112ed6112e842611e5b565b6116e1565b60208b01519085611604565b1515611051565b604051637822972360e11b8152600490fd5b6113209293508101906118f1565b903880611000565b346101b75760003660031901126101b75760206040516001600160401b037f0000000000000000000000000000000000000000000000000000000000000000168152f35b346101b75760003660031901126101b7576020600554604051908152f35b346101b75760003660031901126101b7576040517f00000000000000000000000000000000000000000000000000000000000000006001600160a01b03168152602090f35b346101b75760403660031901126101b7576024356001600160401b0381116101b7576114156114046020923690600401610470565b61140d42611e5b565b600435611604565b6040516001600160a01b039091168152f35b346101b75760003660031901126101b7576020604051620249f08152f35b346101b75760003660031901126101b757602065ffffffffffff60045416604051908152f35b346101b75761147936610fa6565b90611482611d3e565b61148a611979565b91806115c7575b5050600354821015611300576114a682610d6d565b506003815491019182549165ffffffffffff9160018060a01b036114ce825185871685611604565b1691821591821561159e575b505061158c57330361157a576114f261079e42611e5b565b908260301c1611156115695760601c60ff1661155757805460ff60601b1916600160601b17905533907f7d3d269c851b72257a5194a401d151902e9be4347d555996dcff3ff86a077e92600080a3610b686001600080516020612e2f83398151915255565b604051633428e90760e01b8152600490fd5b60405162c457e560e81b8152600490fd5b604051635d154fe160e11b8152600490fd5b60405163dd1ebd9d60e01b8152600490fd5b6115bf92509061075d9160206115b66112e842611e5b565b91015191611604565b1538806114da565b6115d49250810190611992565b3880611491565b346101b75760003660031901126101b7576000546040516001600160a01b039091168152602090f35b60009081526006602052604090206001600160a01b0392611626929091611a97565b1690565b6040519061163782610390565b60608252565b906020828203126101b75781356001600160401b03928382116101b75701906020828203126101b7576040519261167384610390565b82359081116101b7576116869201610470565b815290565b634e487b7160e01b600052601160045260246000fd5b91909165ffffffffffff808094169116019182116116bb57565b61168b565b908160209103126101b75751610f3c8161036a565b6040513d6000823e3d90fd5b65ffffffffffff90811660001901919082116116bb57565b65ffffffffffff91821690821603919082116116bb57565b634e487b7160e01b600052600060045260246000fd5b600354600160401b8110156103ab578060016117469201600355610d6d565b919091611809578051825560208101516001830180546001600160a01b0319166001600160a01b0392909216919091179055610446916117ef9060a0906003906040850151600282015501926117bc65ffffffffffff606083015116859065ffffffffffff1665ffffffffffff19825416179055565b60808101516bffffffffffff00000000000085549160301b16906bffffffffffff00000000000019161784550151151590565b815460ff60601b191690151560601b60ff60601b16179055565b611711565b519081151582036101b757565b908160209103126101b757610f3c9061180e565b818102929181159184041417156116bb57565b90600182018092116116bb57565b919082018092116116bb57565b60005b8381106118705750506000910152565b8181015183820152602001611860565b906020916118998151809281855285808601910161185d565b601f01601f1916010190565b60009081526002602090815260408083206001600160a01b03909416835292905220610f3c929190611e8d565b604051906118df826103b0565b60606040838281528260208201520152565b906020828203126101b75781356001600160401b03928382116101b75701906060828203126101b75760405192611927846103b0565b82358181116101b7578261193c918501610470565b845260208301358181116101b75782611956918501610470565b602085015260408301359081116101b7576119719201610470565b604082015290565b60405190611986826103cb565b60606020838281520152565b906020828203126101b75781356001600160401b03928382116101b75701906040828203126101b757604051926119c8846103cb565b82358181116101b757826119dd918501610470565b845260208301359081116101b7576119f59201610470565b602082015290565b8054821015610da75760005260206000200190600090565b611a1e8161270c565b6001600160d01b03811615611a43576001611a3992016119fd565b90549060031b1c90565b5050600090565b908160209103126101b7575163ffffffff811681036101b75790565b6000198101919082116116bb57565b919082039182116116bb57565b90600163ffffffff809316019182116116bb57565b91805115611b7b5780602080611ab293518301019101611a4a565b91611abd8382612751565b92611ace845165ffffffffffff1690565b9065ffffffffffff8085169216828114611b625782119182611b0d575b5050611afb57610f3c9250612a6d565b5050602001516001600160d01b031690565b909150611b1a8354611a66565b63ffffffff831614918215611b33575b50503880611aeb565b611b5a919250611b4e611b4861079e92611a82565b85612751565b5165ffffffffffff1690565b113880611b2a565b50505050602091909101516001600160d01b0316905090565b50610f3c91612a6d565b9190916040818403126101b7578035611b9d81610201565b9260208201356001600160401b0381116101b757610f3c9201610470565b908160209103126101b75751610f3c81610201565b611bdc91810190611b85565b6040516302910f8b60e31b81526001600160a01b0392831660048201819052929160209182816024817f000000000000000000000000000000000000000000000000000000000000000088165afa90811561093357600091611d21575b5015611d0f5781611c6f600492611c4e6127a5565b600080546001600160a01b0319166001600160a01b03891617905586612834565b94604051928380926313c085b760e11b82525afa91821561093357600092611ce2575b5050161580611cd8575b611cc657516104469015156000805460ff60a01b191691151560a01b60ff60a01b16919091179055565b60405163d2420f5960e01b8152600490fd5b5080511515611c9c565b611d019250803d10611d08575b611cf981836103f9565b810190611bbb565b3880611c92565b503d611cef565b6040516362df054560e01b8152600490fd5b611d389150833d8511610d3c57610d2e81836103f9565b38611c39565b600080516020612e2f8339815191526002815414611d5c5760029055565b604051633ee5aeb560e01b8152600490fd5b604051635daf681960e11b815260609190911c60048201526001600160a01b036020826024817f000000000000000000000000000000000000000000000000000000000000000085165afa91821561093357600092611de5575b5033911603611dd357565b60405163227bf64d60e01b8152600490fd5b611dff91925060203d602011611d0857611cf981836103f9565b9038611dc8565b9080821015611e13575090565b905090565b90611e228261270c565b9180548015611e45576000190190611e3a82826119fd565b611809576000905555565b634e487b7160e01b600052603160045260246000fd5b65ffffffffffff90818111611e6e571690565b604490604051906306dfcc6560e41b8252603060048301526024820152fd5b91805115611f4f5780602080611ea893518301019101611a4a565b91611eb383826129ba565b92611ec4845165ffffffffffff1690565b9065ffffffffffff8085169216828114611f435782119182611efa575b5050611ef157610f3c92506129af565b50506020015190565b909150611f078354611a66565b63ffffffff831614918215611f20575b50503880611ee1565b611f3b919250611b4e611f3561079e92611a82565b856129ba565b113880611f17565b50505050506020015190565b50610f3c916129af565b81601f820112156101b7578051611f6f81610455565b92611f7d60405194856103f9565b818452602082840101116101b757610f3c916020808501910161185d565b906020828203126101b75781516001600160401b03928382116101b75701906040828203126101b75760405192611fd1846103cb565b82518181116101b75782611fe6918501611f59565b845260208301519081116101b7576119f59201611f59565b908160209103126101b7575190565b9081526001600160a01b03909116602082015265ffffffffffff9091166040820152608060608201819052610f3c92910190611880565b9261204d611979565b90805180612266575b505061206142611e5b565b60005490949061207b9061075d906001600160a01b031681565b93604051956327f843b560e11b875260209687816004818a5afa8015610933576120b09261079e9260009261224e57506116f9565b65ffffffffffff8216908110908115612237575b8115612204575b506121f6578560049560405196878092630ce9b79360e41b82525afa9485156109335761211e9587916000916121d9575b50845190604051808099819463e02f693760e01b8352878b8a6004860161200d565b03916001600160a01b03165afa9384156109335761219595600095612198575b509261218a85936121909361218a96869a61218161025d8361216a876000526002602052604060002090565b9060018060a01b0316600052602052604060002090565b950151926118a5565b90611a75565b611e06565b91565b61219092955061218a9491936121c661218a928a3d8c116121d2575b6121be81836103f9565b810190611ffe565b9693509391945061213e565b503d6121b4565b6121f09150823d8411611d0857611cf981836103f9565b386120fc565b505050505050600090600090565b905061223061079e6122248761216a876000526001602052604060002090565b5465ffffffffffff1690565b11386120cb565b905061224561079e42611e5b565b811015906120c4565b6109259192508a3d8c1161092c5761091d81836103f9565b6122799250602080918301019101611f9b565b3880612056565b91909180600052600160205265ffffffffffff806122b48560406000209060018060a01b0316600052602052604060002090565b5416908316116122c357505050565b610446926122ef91600052600160205260406000209060018060a01b0316600052602052604060002090565b9065ffffffffffff1665ffffffffffff19825416179055565b919082600052600260205261236861025d6123398360406000209060018060a01b0316600052602052604060002090565b9261234342611e5b565b95600052600260205260406000209060018060a01b0316600052602052604060002090565b9182018092116116bb57600181019081541561240e575b6123888161295a565b50949083549561239784611a15565b50816123f9575b50156123d857505060001983019283116116bb57610446926123bf916119fd565b90919082549060031b91821b91600019901b1916179055565b610446946123f2926001600160d01b039091169190612bcc565b5050612a4a565b65ffffffffffff83811691161490503861239e565b61241782612a1c565b61237f565b60606020610f3c938184526001600160401b03815116828501520151916040808201520190611880565b919360a093610f3c969565ffffffffffff938552600180871b0316602085015260408401521660608201528160808201520190611880565b9293906000936004602061249e61075d61075d895460018060a01b031690565b604051630ce9b79360e41b815292839182905afa90811561093357610ed39161251c91889161256e575b506001600160a01b0316946124db610448565b6001600160401b037f00000000000000000000000000000000000000000000000000000000000000001681529060208201526040519283916020830161241c565b833b1561256a579061254686926040519889978896879563724ab0f760e11b875260048701612446565b03925af18015610933576125575750565b80612564610446926103e6565b806101ac565b8580fd5b612587915060203d602011611d0857611cf981836103f9565b386124c8565b65ffffffffffff916044602092600060018060a01b038154166040519687958694631c9e38c760e21b865260048601521660248401525af18015610933576125d25750565b6125ea9060203d6020116121d2576121be81836103f9565b50565b81156125f7570490565b634e487b7160e01b600052601260045260246000fd5b92906000549060ff8260a01c16612626575b5050505050565b6040516313c085b760e11b815291602090839060049082906001600160a01b03165afa918215610933576000926126e5575b5060405163065c1e0360e01b6020820190815260248201969096526001600160a01b039091166044820152606481019390935265ffffffffffff90911660848301526126b18260a481015b03601f1981018452836103f9565b6202a15c5a106126d3576000928380935192620249f0f150388080808061261f565b604051632153f33560e21b8152600490fd5b6126b192506127056126a39160203d602011611d0857611cf981836103f9565b9250612658565b80548061271a575050600090565b6000199181838101116116bb57600052602060002001015460301c90565b60405190612745826103cb565b60006020838281520152565b6127769161277091612761612738565b5061276a612738565b506119fd565b50612936565b65ffffffffffff81511690602060018060d01b03910151166040519161279b836103cb565b8252602082015290565b6127ad612b56565b6127b5612b56565b6001600080516020612e2f83398151915255565b604051906127d682610390565b60008252565b80910390606082126101b7576020604051926127f7846103b0565b126101b757604090815161280a81610390565b6128138261180e565b8152835260208101516128258161036a565b60208401520151604082015290565b906004906128406127c9565b5080516128576020928380809483010191016127dc565b6040516327f843b560e11b815290949093849182906001600160a01b03165afa91821561093357600092612917575b5082019061289a825165ffffffffffff1690565b65ffffffffffff91821691161015612905576040820160038151106128f3576128e96128cf6128ef935165ffffffffffff1690565b65ffffffffffff1665ffffffffffff196004541617600455565b51600555565b5190565b6040516354f778f360e01b8152600490fd5b6040516367d5e3df60e11b8152600490fd5b8161292f9293503d841161092c5761091d81836103f9565b9038612886565b90604051612943816103cb565b915465ffffffffffff8116835260301c6020830152565b80548061296e575050600090600090600090565b6000199080828101116116bb5761298e9260005260206000200101612936565b9065ffffffffffff82511691602060018060d01b0391015116906001929190565b90611a1e9082612a6d565b906129dd6127706129fe926129cd612738565b506129d6612738565b50846119fd565b91600165ffffffffffff845116936020828060d01b039101511691016119fd565b90549060405192612a0e846103cb565b835260031b1c602082015290565b8054600160401b8110156103ab57612a39916001820181556119fd565b8154906000199060031b1b19169055565b90815491600160401b8310156103ab57826123bf916001610446950181556119fd565b908154906000918060058111612b0a575b50915b828110612aba57505080612a96575050600090565b610f3c91612aa6612ab392611a66565b9060005260206000200190565b5460301c90565b90918082169080831860011c82018092116116bb578460005265ffffffffffff8083602060002001541690851610600014612af85750915b90612a81565b929150612b0490611842565b90612af2565b90612b1482612cee565b82039182116116bb578460005265ffffffffffff8083602060002001541690841610600014612b4557505b38612a7e565b9250612b5090611842565b91612b3f565b60ff600080516020612e4f8339815191525460401c1615612b7357565b604051631afcd79f60e31b8152600490fd5b8054600160401b8110156103ab57612ba2916001820181556119fd565b61180957815160209092015160301b65ffffffffffff191665ffffffffffff909216919091179055565b805492939291908215612cc457612bfa612bf5612be885611a66565b8360005260206000200190565b612936565b90612c0b825165ffffffffffff1690565b65ffffffffffff84811691168110612cb257612c76946020948892612c3961079e875165ffffffffffff1690565b03612c7a5750612c6892612aa6612c4f92611a66565b9065ffffffffffff82549181199060301b169116179055565b01516001600160d01b031690565b9190565b915050612cad91612c9a612c8c610448565b65ffffffffffff9093168352565b6001600160d01b03881682860152612b85565b612c68565b604051632520601d60e01b8152600490fd5b612ce89250612cd4612c8c610448565b6001600160d01b0385166020830152612b85565b60009190565b8015612e285780612dc1612dba612db0612da6612d9c612d92612d88612d7e6001610f3c9a6000908b60801c80612e1c575b508060401c80612e0f575b508060201c80612e02575b508060101c80612df5575b508060081c80612de8575b508060041c80612ddb575b508060021c80612dce575b50821c612dc7575b811c1b612d77818b6125ed565b0160011c90565b612d77818a6125ed565b612d7781896125ed565b612d7781886125ed565b612d7781876125ed565b612d7781866125ed565b612d7781856125ed565b80926125ed565b90611e06565b8101612d6a565b6002915091019038612d62565b6004915091019038612d57565b6008915091019038612d4c565b6010915091019038612d41565b6020915091019038612d36565b6040915091019038612d2b565b91505060809038612d20565b5060009056fe9b779b17422d0df92223018b32b4d1fa46e071723d6817e2486d003becc55f00f0c57e16840df040f15088dc2f81fe391c3923bec73e23a9662efc9c229c6a00a26469706673582212200755effab203521fabf861dd846d31d5ea9dd70b3768dfc3d867429351d1973364736f6c63430008190033","linkReferences":{}},"methodIdentifiers":{"BURNER_GAS_LIMIT()":"d5c24e1a","BURNER_RESERVE()":"2964f8dc","FACTORY()":"2dd31000","NETWORK_MIDDLEWARE_SERVICE()":"2c9d45b3","NETWORK_REGISTRY()":"c0cd7c3e","TYPE()":"bb24fe8a","VAULT_FACTORY()":"103f2907","cumulativeSlash(bytes32,address)":"1a2be2c4","cumulativeSlashAt(bytes32,address,uint48,bytes)":"aa8e6489","executeSlash(uint256,bytes)":"b94c386e","initialize(bytes)":"439fab91","isBurnerHook()":"34d098ea","latestSlashedCaptureTimestamp(bytes32,address)":"267de1f3","requestSlash(bytes32,address,uint256,uint48,bytes)":"545ce389","resolver(bytes32,bytes)":"cd05b8a1","resolverAt(bytes32,uint48,bytes)":"31ce4dfe","resolverSetEpochsDelay()":"bc6eac5b","setResolver(uint96,address,bytes)":"9168f9d2","slashRequests(uint256)":"9a896551","slashRequestsLength()":"8f42f9ab","slashableStake(bytes32,address,uint48,bytes)":"aab3595f","staticDelegateCall(address,bytes)":"9f86fd85","vault()":"fbfa77cf","vetoDuration()":"e054e08b","vetoSlash(uint256,bytes)":"f9268d18"},"id":91}