{"abi":[{"type":"constructor","inputs":[{"name":"vaultFactory","type":"address","internalType":"address"},{"name":"networkMiddlewareService","type":"address","internalType":"address"},{"name":"networkRegistry","type":"address","internalType":"address"},{"name":"slasherFactory","type":"address","internalType":"address"},{"name":"entityType","type":"uint64","internalType":"uint64"}],"stateMutability":"nonpayable"},{"type":"function","name":"BURNER_GAS_LIMIT","inputs":[],"outputs":[{"name":"","type":"uint256","internalType":"uint256"}],"stateMutability":"view"},{"type":"function","name":"BURNER_RESERVE","inputs":[],"outputs":[{"name":"","type":"uint256","internalType":"uint256"}],"stateMutability":"view"},{"type":"function","name":"FACTORY","inputs":[],"outputs":[{"name":"","type":"address","internalType":"address"}],"stateMutability":"view"},{"type":"function","name":"NETWORK_MIDDLEWARE_SERVICE","inputs":[],"outputs":[{"name":"","type":"address","internalType":"address"}],"stateMutability":"view"},{"type":"function","name":"NETWORK_REGISTRY","inputs":[],"outputs":[{"name":"","type":"address","internalType":"address"}],"stateMutability":"view"},{"type":"function","name":"TYPE","inputs":[],"outputs":[{"name":"","type":"uint64","internalType":"uint64"}],"stateMutability":"view"},{"type":"function","name":"VAULT_FACTORY","inputs":[],"outputs":[{"name":"","type":"address","internalType":"address"}],"stateMutability":"view"},{"type":"function","name":"cumulativeSlash","inputs":[{"name":"subnetwork","type":"bytes32","internalType":"bytes32"},{"name":"operator","type":"address","internalType":"address"}],"outputs":[{"name":"","type":"uint256","internalType":"uint256"}],"stateMutability":"view"},{"type":"function","name":"cumulativeSlashAt","inputs":[{"name":"subnetwork","type":"bytes32","internalType":"bytes32"},{"name":"operator","type":"address","internalType":"address"},{"name":"timestamp","type":"uint48","internalType":"uint48"},{"name":"hint","type":"bytes","internalType":"bytes"}],"outputs":[{"name":"","type":"uint256","internalType":"uint256"}],"stateMutability":"view"},{"type":"function","name":"executeSlash","inputs":[{"name":"slashIndex","type":"uint256","internalType":"uint256"},{"name":"hints","type":"bytes","internalType":"bytes"}],"outputs":[{"name":"slashedAmount","type":"uint256","internalType":"uint256"}],"stateMutability":"nonpayable"},{"type":"function","name":"initialize","inputs":[{"name":"data","type":"bytes","internalType":"bytes"}],"outputs":[],"stateMutability":"nonpayable"},{"type":"function","name":"isBurnerHook","inputs":[],"outputs":[{"name":"","type":"bool","internalType":"bool"}],"stateMutability":"view"},{"type":"function","name":"latestSlashedCaptureTimestamp","inputs":[{"name":"subnetwork","type":"bytes32","internalType":"bytes32"},{"name":"operator","type":"address","internalType":"address"}],"outputs":[{"name":"value","type":"uint48","internalType":"uint48"}],"stateMutability":"view"},{"type":"function","name":"requestSlash","inputs":[{"name":"subnetwork","type":"bytes32","internalType":"bytes32"},{"name":"operator","type":"address","internalType":"address"},{"name":"amount","type":"uint256","internalType":"uint256"},{"name":"captureTimestamp","type":"uint48","internalType":"uint48"},{"name":"hints","type":"bytes","internalType":"bytes"}],"outputs":[{"name":"slashIndex","type":"uint256","internalType":"uint256"}],"stateMutability":"nonpayable"},{"type":"function","name":"resolver","inputs":[{"name":"subnetwork","type":"bytes32","internalType":"bytes32"},{"name":"hint","type":"bytes","internalType":"bytes"}],"outputs":[{"name":"","type":"address","internalType":"address"}],"stateMutability":"view"},{"type":"function","name":"resolverAt","inputs":[{"name":"subnetwork","type":"bytes32","internalType":"bytes32"},{"name":"timestamp","type":"uint48","internalType":"uint48"},{"name":"hint","type":"bytes","internalType":"bytes"}],"outputs":[{"name":"","type":"address","internalType":"address"}],"stateMutability":"view"},{"type":"function","name":"resolverSetEpochsDelay","inputs":[],"outputs":[{"name":"","type":"uint256","internalType":"uint256"}],"stateMutability":"view"},{"type":"function","name":"setResolver","inputs":[{"name":"identifier","type":"uint96","internalType":"uint96"},{"name":"resolver_","type":"address","internalType":"address"},{"name":"hints","type":"bytes","internalType":"bytes"}],"outputs":[],"stateMutability":"nonpayable"},{"type":"function","name":"slashRequests","inputs":[{"name":"","type":"uint256","internalType":"uint256"}],"outputs":[{"name":"subnetwork","type":"bytes32","internalType":"bytes32"},{"name":"operator","type":"address","internalType":"address"},{"name":"amount","type":"uint256","internalType":"uint256"},{"name":"captureTimestamp","type":"uint48","internalType":"uint48"},{"name":"vetoDeadline","type":"uint48","internalType":"uint48"},{"name":"completed","type":"bool","internalType":"bool"}],"stateMutability":"view"},{"type":"function","name":"slashRequestsLength","inputs":[],"outputs":[{"name":"","type":"uint256","internalType":"uint256"}],"stateMutability":"view"},{"type":"function","name":"slashableStake","inputs":[{"name":"subnetwork","type":"bytes32","internalType":"bytes32"},{"name":"operator","type":"address","internalType":"address"},{"name":"captureTimestamp","type":"uint48","internalType":"uint48"},{"name":"hints","type":"bytes","internalType":"bytes"}],"outputs":[{"name":"amount","type":"uint256","internalType":"uint256"}],"stateMutability":"view"},{"type":"function","name":"staticDelegateCall","inputs":[{"name":"target","type":"address","internalType":"address"},{"name":"data","type":"bytes","internalType":"bytes"}],"outputs":[],"stateMutability":"nonpayable"},{"type":"function","name":"vault","inputs":[],"outputs":[{"name":"","type":"address","internalType":"address"}],"stateMutability":"view"},{"type":"function","name":"vetoDuration","inputs":[],"outputs":[{"name":"","type":"uint48","internalType":"uint48"}],"stateMutability":"view"},{"type":"function","name":"vetoSlash","inputs":[{"name":"slashIndex","type":"uint256","internalType":"uint256"},{"name":"hints","type":"bytes","internalType":"bytes"}],"outputs":[],"stateMutability":"nonpayable"},{"type":"event","name":"ExecuteSlash","inputs":[{"name":"slashIndex","type":"uint256","indexed":true,"internalType":"uint256"},{"name":"slashedAmount","type":"uint256","indexed":false,"internalType":"uint256"}],"anonymous":false},{"type":"event","name":"Initialized","inputs":[{"name":"version","type":"uint64","indexed":false,"internalType":"uint64"}],"anonymous":false},{"type":"event","name":"RequestSlash","inputs":[{"name":"slashIndex","type":"uint256","indexed":true,"internalType":"uint256"},{"name":"subnetwork","type":"bytes32","indexed":true,"internalType":"bytes32"},{"name":"operator","type":"address","indexed":true,"internalType":"address"},{"name":"slashAmount","type":"uint256","indexed":false,"internalType":"uint256"},{"name":"captureTimestamp","type":"uint48","indexed":false,"internalType":"uint48"},{"name":"vetoDeadline","type":"uint48","indexed":false,"internalType":"uint48"}],"anonymous":false},{"type":"event","name":"SetResolver","inputs":[{"name":"subnetwork","type":"bytes32","indexed":true,"internalType":"bytes32"},{"name":"resolver","type":"address","indexed":false,"internalType":"address"}],"anonymous":false},{"type":"event","name":"VetoSlash","inputs":[{"name":"slashIndex","type":"uint256","indexed":true,"internalType":"uint256"},{"name":"resolver","type":"address","indexed":true,"internalType":"address"}],"anonymous":false},{"type":"error","name":"AlreadySet","inputs":[]},{"type":"error","name":"CheckpointUnorderedInsertion","inputs":[]},{"type":"error","name":"InsufficientBurnerGas","inputs":[]},{"type":"error","name":"InsufficientSlash","inputs":[]},{"type":"error","name":"InvalidCaptureTimestamp","inputs":[]},{"type":"error","name":"InvalidInitialization","inputs":[]},{"type":"error","name":"InvalidResolverSetEpochsDelay","inputs":[]},{"type":"error","name":"InvalidVetoDuration","inputs":[]},{"type":"error","name":"NoBurner","inputs":[]},{"type":"error","name":"NoResolver","inputs":[]},{"type":"error","name":"NotInitialized","inputs":[]},{"type":"error","name":"NotInitializing","inputs":[]},{"type":"error","name":"NotNetwork","inputs":[]},{"type":"error","name":"NotNetworkMiddleware","inputs":[]},{"type":"error","name":"NotResolver","inputs":[]},{"type":"error","name":"NotVault","inputs":[]},{"type":"error","name":"ReentrancyGuardReentrantCall","inputs":[]},{"type":"error","name":"SafeCastOverflowedUintDowncast","inputs":[{"name":"bits","type":"uint8","internalType":"uint8"},{"name":"value","type":"uint256","internalType":"uint256"}]},{"type":"error","name":"SlashPeriodEnded","inputs":[]},{"type":"error","name":"SlashRequestCompleted","inputs":[]},{"type":"error","name":"SlashRequestNotExist","inputs":[]},{"type":"error","name":"VetoPeriodEnded","inputs":[]},{"type":"error","name":"VetoPeriodNotEnded","inputs":[]}],"bytecode":{"object":"0x6101203461017757601f612f8038819003918201601f19168301916001600160401b03918284118585101761017b578160a092869260409687528339810103126101775761004c8361018f565b6100586020850161018f565b9161006484860161018f565b9460806100736060830161018f565b910151918083168303610177577ff0c57e16840df040f15088dc2f81fe391c3923bec73e23a9662efc9c229c6a009081549060ff82891c16610166578080831603610122575b50505060805260a05260c05260e05261010091825251612ddc91826101a483396080518261032a015260a0518281816113090152612445015260c0518281816101cc0152611b8e015260e0518281816102e60152611d180152518181816109ec015261135f0152f35b6001600160401b0319909116811790915585519081527fc7f505b2f371ae2175ee4913f4499e1f2633a7b5936321eed1cdaeb6115181d290602090a15f80806100b9565b875163f92ee8a960e01b8152600490fd5b5f80fd5b634e487b7160e01b5f52604160045260245ffd5b51906001600160a01b03821682036101775756fe60806040526004361015610011575f80fd5b5f3560e01c8063103f2907146101a45780631a2be2c41461019f578063267de1f31461019a5780632964f8dc146101955780632c9d45b3146101905780632dd310001461018b57806331ce4dfe1461018657806334d098ea14610181578063439fab911461017c578063545ce389146101775780638f42f9ab146101725780639168f9d21461016d5780639a896551146101685780639f86fd8514610163578063aa8e64891461015e578063aab3595f14610159578063b94c386e14610154578063bb24fe8a1461014f578063bc6eac5b1461014a578063c0cd7c3e14610145578063cd05b8a114610140578063d5c24e1a1461013b578063e054e08b14610136578063f9268d18146101315763fbfa77cf1461012c575f80fd5b611596565b611428565b611403565b6113e6565b61138e565b61134a565b61132d565b6112ea565b610f9e565b610f46565b610f08565b610e02565b610d77565b61094c565b61092f565b610695565b61055d565b61050c565b6104a3565b610315565b6102d1565b6102b5565b610260565b61020c565b6101b7565b5f9103126101b357565b5f80fd5b346101b3575f3660031901126101b3576040517f00000000000000000000000000000000000000000000000000000000000000006001600160a01b03168152602090f35b6001600160a01b038116036101b357565b346101b35760403660031901126101b3576020610258610253602435610231816101fb565b6004355f526002845260405f209060018060a01b03165f5260205260405f2090565b61199e565b604051908152f35b346101b35760403660031901126101b357602065ffffffffffff6102ab602435610289816101fb565b6004355f526001845260405f209060018060a01b03165f5260205260405f2090565b5416604051908152f35b346101b3575f3660031901126101b3576020604051614e208152f35b346101b3575f3660031901126101b3576040517f00000000000000000000000000000000000000000000000000000000000000006001600160a01b03168152602090f35b346101b3575f3660031901126101b3576040517f00000000000000000000000000000000000000000000000000000000000000006001600160a01b03168152602090f35b65ffffffffffff8116036101b357565b634e487b7160e01b5f52604160045260245ffd5b602081019081106001600160401b0382111761039857604052565b610369565b606081019081106001600160401b0382111761039857604052565b604081019081106001600160401b0382111761039857604052565b6001600160401b03811161039857604052565b90601f801991011681019081106001600160401b0382111761039857604052565b6040519060c082018281106001600160401b0382111761039857604052565b604051906104338261039d565b565b60405190610433826103b8565b6001600160401b03811161039857601f01601f191660200190565b81601f820112156101b35780359061047482610442565b9261048260405194856103e6565b828452602083830101116101b357815f926020809301838601378301015290565b346101b35760603660031901126101b3576024356104c081610359565b604435906001600160401b0382116101b3576105036104e5602093369060040161045d565b6004355f90815260068552604090206001600160a01b039390611a1e565b16604051908152f35b346101b3575f3660031901126101b357602060ff5f5460a01c166040519015158152f35b9181601f840112156101b3578235916001600160401b0383116101b357602083818601950101116101b357565b346101b35760203660031901126101b3576001600160401b036004358181116101b35761058e903690600401610530565b5f80516020612d87833981519152549260ff8460401c161593168015908161068d575b6001149081610683575b15908161067a575b50610668575f80516020612d87833981519152805467ffffffffffffffff191660011790556105f6918361064457611b57565b6105fc57005b5f80516020612d87833981519152805460ff60401b19169055604051600181527fc7f505b2f371ae2175ee4913f4499e1f2633a7b5936321eed1cdaeb6115181d290602090a1005b5f80516020612d87833981519152805460ff60401b1916600160401b179055611b57565b60405163f92ee8a960e01b8152600490fd5b9050155f6105c3565b303b1591506105bb565b8491506105b1565b346101b35760a03660031901126101b357600460243581356106b6826101fb565b606435916106c383610359565b6084356001600160401b0381116101b3576106e19036908601610530565b93906106eb611cc1565b6106f484611cf0565b6106fc6115e2565b9480610919575b505061070e42611dd8565b610728610721875465ffffffffffff1690565b8092611657565b5f5490959061074d90610741906001600160a01b031681565b6001600160a01b031690565b958760206040988951928380926327f843b560e11b82525afa80156109145761078c92610781925f926108e3575b506116ad565b65ffffffffffff1690565b65ffffffffffff84169081109081156108cd575b506108bd576107b56107be9151848688611fc5565b50604435611d87565b9586156108af576108ab610884878988887f3cb7f4ff6cecf74cee0eb9ae3ebf8933fa60a53014cce52f96da72a78dba8464896108038a6107fe42611dd8565b611657565b92600354978894610854610815610407565b8881526001600160a01b0385166020820152808b018a905265ffffffffffff8616606082015265ffffffffffff831660808201525f60a08201526116d8565b885197885265ffffffffffff938416602089015290921660408701526001600160a01b0316949081906060820190565b0390a461089d60015f80516020612d6783398151915255565b519081529081906020820190565b0390f35b855163167f871760e31b8152fd5b8551631357ac9160e11b81528790fd5b90506108db61078142611dd8565b11155f6107a0565b61090691925060203d60201161090d575b6108fe81836103e6565b810190611676565b905f61077b565b503d6108f4565b61168b565b6109279295508101906115f5565b925f80610703565b346101b3575f3660031901126101b3576020600354604051908152f35b346101b35760603660031901126101b35760048035906bffffffffffffffffffffffff821682036101b357602435610983816101fb565b6044356001600160401b0381116101b3576109a19036908401610530565b906109aa611cc1565b6109b26115e2565b5081610d12575b5050604080516302910f8b60e31b8152338185019081526001600160a01b0395929491602091829082908190830103818a7f0000000000000000000000000000000000000000000000000000000000000000165afa908115610914575f91610ce5575b5015610cd6575f54610a57906001600160a01b0316936bffffffffffffffffffffffff166bffffffffffffffffffffffff193360601b161790565b95610a72610a6d885f52600660205260405f2090565b6128a9565b50949015610c6c57610a8661078142611dd8565b65ffffffffffff9586161115610c3657610ab0610aab895f52600660205260405f2090565b611d99565b505b610ad5610741610741610741610ad08c5f52600660205260405f2090565b612663565b91808716928303610b41575b505050505050610b26907f7b0b759b513b299fd2811f51926dca8854222a675557e8d544ce0933bf5b7570925b516001600160a01b0390911681529081906020820190565b0390a2610b3f60015f80516020612d6783398151915255565b005b610b588998959796985f52600660205260405f2090565b911692845163186a323160e21b815281818981885afa908115610914575f91610c19575b5081600554958751998a80926327f843b560e11b82525afa9081156109145789610be1610bf3977f7b0b759b513b299fd2811f51926dca8854222a675557e8d544ce0933bf5b75709c610be895610b269d610bed985f92610bfc575b505016906117e0565b9116611801565b611dd8565b90612b09565b82958495610ae1565b610c129250803d1061090d576108fe81836103e6565b5f80610bd8565b610c309150823d841161090d576108fe81836103e6565b5f610b7c565b610c54610741610741610741610ad08c5f52600660205260405f2090565b82871603610ab257865163a741a04560e01b81528490fd5b5093949385169250508115610cc8575091610b2691610cc17f7b0b759b513b299fd2811f51926dca8854222a675557e8d544ce0933bf5b757094610cb8875f52600660205260405f2090565b610bed42611dd8565b5050610b0e565b825163a741a04560e01b8152fd5b5083516323d53b9760e21b8152fd5b610d059150823d8411610d0b575b610cfd81836103e6565b8101906117cc565b5f610a1c565b503d610cf3565b610d1e918101906115f5565b505f806109b9565b634e487b7160e01b5f52603260045260245ffd5b600354811015610d725760035f5260021b7fc2575a0e9e593c00f959f8c92f12db2869c3395a3b0502d05e2516446f71f85b01905f90565b610d26565b346101b35760203660031901126101b3576004356003548110156101b357610d9e90610d3a565b50805460018201546002830154600390930154604080519384526001600160a01b0390921660208401529082019290925265ffffffffffff808316606080840191909152603084901c90911660808301529190911c60ff16151560a082015260c090f35b346101b3576040806003193601126101b357600435610e20816101fb565b602435906001600160401b0382116101b3575f8091610e46610eaa943690600401610530565b908187519283928337810184815203915af43d15610eb257610e9c3d610e6b81610442565b90610e78865192836103e6565b81523d5f602083013e5b84519485931515602085015280840152606083019061180e565b03601f1981018352826103e6565b805190602001fd5b610e9c6060610e82565b9060806003198301126101b35760043591602435610ed9816101fb565b91604435610ee681610359565b91606435906001600160401b0382116101b357610f059160040161045d565b90565b346101b3576020610258610f41610f1e36610ebc565b939190925f526002865260405f209060018060a01b03165f5260205260405f2090565b611e0a565b346101b3576020610f62610f5936610ebc565b92919091611fc5565b50604051908152f35b9060406003198301126101b35760043591602435906001600160401b0382116101b357610f9a91600401610530565b9091565b346101b357610fac36610f6b565b9190610fb6611cc1565b610fbe61185e565b92806112d4575b50506003548110156112c257610fda81610d3a565b5090815490610fe882611cf0565b6003830180549365ffffffffffff9384861660018060a01b0361100d895183856115bd565b16151580611297575b8061127e575b61126c576110328161102d42611dd8565b6116ad565b5f5461104890610741906001600160a01b031681565b96600460206040998a51928380926327f843b560e11b82525afa80156109145782915f9161124d575b501691161161123c57600183018054909861109c93929188906001600160a01b031691015192611fc5565b906110ab816002850154611d87565b96871561122b5760601c60ff1661121a57926111d36111c6899461119e61118b8b9687876108ab9f6111998f9d8f9e6111d99f6110f586600160601b60ff60601b19825416179055565b8a54855461111791906001600160a01b0316885465ffffffffffff16916121f5565b8a5485546111309189916001600160a01b031690612275565b8a54945461114e906001600160a01b0316965465ffffffffffff1690565b97611157610426565b9384526020840152818301525196879160208301919091604080606083019480518452602081015160208501520151910152565b03601f1981018752866103e6565b6123e1565b6111b76111b1855465ffffffffffff1690565b866124ea565b5494546001600160a01b031690565b915465ffffffffffff1690565b92612567565b81518381527f5cc28df3b54da9d06f805d87616ebf969c81310f2aa8369cb14ca50f815d411190602090a261089d60015f80516020612d6783398151915255565b8551633428e90760e01b8152600490fd5b865163167f871760e31b8152600490fd5b8551639ea153eb60e01b8152600490fd5b611266915060203d60201161090d576108fe81836103e6565b5f611071565b60405163b62b15c760e01b8152600490fd5b5061128b61078142611dd8565b868860301c161161101c565b506112bb6107416112af6112aa42611dd8565b611696565b60208b015190856115bd565b1515611016565b604051637822972360e11b8152600490fd5b6112e292935081019061187d565b905f80610fc5565b346101b3575f3660031901126101b35760206040516001600160401b037f0000000000000000000000000000000000000000000000000000000000000000168152f35b346101b3575f3660031901126101b3576020600554604051908152f35b346101b3575f3660031901126101b3576040517f00000000000000000000000000000000000000000000000000000000000000006001600160a01b03168152602090f35b346101b35760403660031901126101b3576024356001600160401b0381116101b3576113d46113c3602092369060040161045d565b6113cc42611dd8565b6004356115bd565b6040516001600160a01b039091168152f35b346101b3575f3660031901126101b3576020604051620249f08152f35b346101b3575f3660031901126101b357602065ffffffffffff60045416604051908152f35b346101b35761143636610f6b565b9061143f611cc1565b611447611905565b9180611582575b50506003548210156112c25761146382610d3a565b506003815491019182549165ffffffffffff9160018060a01b0361148b8251858716856115bd565b16918215918215611559575b5050611547573303611535576114af61078142611dd8565b908260301c1611156115245760601c60ff1661151257805460ff60601b1916600160601b17905533907f7d3d269c851b72257a5194a401d151902e9be4347d555996dcff3ff86a077e925f80a3610b3f60015f80516020612d6783398151915255565b604051633428e90760e01b8152600490fd5b60405162c457e560e81b8152600490fd5b604051635d154fe160e11b8152600490fd5b60405163dd1ebd9d60e01b8152600490fd5b61157a9250906107419160206115716112aa42611dd8565b910151916115bd565b155f80611497565b61158f925081019061191e565b5f8061144e565b346101b3575f3660031901126101b3575f546040516001600160a01b039091168152602090f35b5f9081526006602052604090206001600160a01b03926115de929091611a1e565b1690565b604051906115ef8261037d565b60608252565b906020828203126101b35781356001600160401b03928382116101b35701906020828203126101b3576040519261162b8461037d565b82359081116101b35761163e920161045d565b815290565b634e487b7160e01b5f52601160045260245ffd5b91909165ffffffffffff8080941691160191821161167157565b611643565b908160209103126101b35751610f0581610359565b6040513d5f823e3d90fd5b65ffffffffffff9081165f19019190821161167157565b65ffffffffffff918216908216039190821161167157565b634e487b7160e01b5f525f60045260245ffd5b600354600160401b811015610398578060016116f79201600355610d3a565b9190916117ba578051825560208101516001830180546001600160a01b0319166001600160a01b0392909216919091179055610433916117a09060a09060039060408501516002820155019261176d65ffffffffffff606083015116859065ffffffffffff1665ffffffffffff19825416179055565b60808101516bffffffffffff00000000000085549160301b16906bffffffffffff00000000000019161784550151151590565b815460ff60601b191690151560601b60ff60601b16179055565b6116c5565b519081151582036101b357565b908160209103126101b357610f05906117bf565b8181029291811591840414171561167157565b906001820180921161167157565b9190820180921161167157565b805180835260209291819084018484015e5f828201840152601f01601f1916010190565b5f9081526002602090815260408083206001600160a01b03909416835292905220610f05929190611e0a565b6040519061186b8261039d565b60606040838281528260208201520152565b906020828203126101b35781356001600160401b03928382116101b35701906060828203126101b357604051926118b38461039d565b82358181116101b357826118c891850161045d565b845260208301358181116101b357826118e291850161045d565b602085015260408301359081116101b3576118fd920161045d565b604082015290565b60405190611912826103b8565b60606020838281520152565b906020828203126101b35781356001600160401b03928382116101b35701906040828203126101b35760405192611954846103b8565b82358181116101b3578261196991850161045d565b845260208301359081116101b357611981920161045d565b602082015290565b8054821015610d72575f5260205f2001905f90565b6119a781612663565b6001600160d01b038116156119cc5760016119c29201611989565b90549060031b1c90565b50505f90565b908160209103126101b3575163ffffffff811681036101b35790565b5f1981019190821161167157565b9190820391821161167157565b90600163ffffffff8093160191821161167157565b91805115611b025780602080611a39935183010191016119d2565b91611a4483826126a3565b92611a55845165ffffffffffff1690565b9065ffffffffffff8085169216828114611ae95782119182611a94575b5050611a8257610f0592506129b5565b5050602001516001600160d01b031690565b909150611aa183546119ee565b63ffffffff831614918215611aba575b50505f80611a72565b611ae1919250611ad5611acf61078192611a09565b856126a3565b5165ffffffffffff1690565b115f80611ab1565b50505050602091909101516001600160d01b0316905090565b50610f05916129b5565b9190916040818403126101b3578035611b24816101fb565b9260208201356001600160401b0381116101b357610f05920161045d565b908160209103126101b35751610f05816101fb565b611b6391810190611b0c565b6040516302910f8b60e31b81526001600160a01b0392831660048201819052929160209182816024817f000000000000000000000000000000000000000000000000000000000000000088165afa908115610914575f91611ca4575b5015611c925781611bf4600492611bd46126f7565b5f80546001600160a01b0319166001600160a01b03891617905586612784565b94604051928380926313c085b760e11b82525afa918215610914575f92611c65575b5050161580611c5b575b611c4957516104339015155f805460ff60a01b191691151560a01b60ff60a01b16919091179055565b60405163d2420f5960e01b8152600490fd5b5080511515611c20565b611c849250803d10611c8b575b611c7c81836103e6565b810190611b42565b5f80611c16565b503d611c72565b6040516362df054560e01b8152600490fd5b611cbb9150833d8511610d0b57610cfd81836103e6565b5f611bbf565b5f80516020612d678339815191526002815414611cde5760029055565b604051633ee5aeb560e01b8152600490fd5b604051635daf681960e11b815260609190911c60048201526001600160a01b036020826024817f000000000000000000000000000000000000000000000000000000000000000085165afa918215610914575f92611d66575b5033911603611d5457565b60405163227bf64d60e01b8152600490fd5b611d8091925060203d602011611c8b57611c7c81836103e6565b905f611d49565b9080821015611d94575090565b905090565b90611da382612663565b9180548015611dc4575f190190611dba8282611989565b6117ba575f905555565b634e487b7160e01b5f52603160045260245ffd5b65ffffffffffff90818111611deb571690565b604490604051906306dfcc6560e41b8252603060048301526024820152fd5b91805115611ecc5780602080611e25935183010191016119d2565b91611e308382612903565b92611e41845165ffffffffffff1690565b9065ffffffffffff8085169216828114611ec05782119182611e77575b5050611e6e57610f0592506128f8565b50506020015190565b909150611e8483546119ee565b63ffffffff831614918215611e9d575b50505f80611e5e565b611eb8919250611ad5611eb261078192611a09565b85612903565b115f80611e94565b50505050506020015190565b50610f05916128f8565b81601f820112156101b357805190611eed82610442565b92611efb60405194856103e6565b828452602083830101116101b357815f9260208093018386015e8301015290565b906020828203126101b35781516001600160401b03928382116101b35701906040828203126101b35760405192611f52846103b8565b82518181116101b35782611f67918501611ed6565b845260208301519081116101b3576119819201611ed6565b908160209103126101b3575190565b9081526001600160a01b03909116602082015265ffffffffffff9091166040820152608060608201819052610f059291019061180e565b92611fce611905565b908051806121db575b5050611fe242611dd8565b5f54909490611ffb90610741906001600160a01b031681565b93604051956327f843b560e11b875260209687816004818a5afa80156109145761202f92610781925f926121c357506116ad565b65ffffffffffff82169081109081156121ac575b811561217b575b5061216f578560049560405196878092630ce9b79360e41b82525afa9485156109145761209c9587915f91612152575b50845190604051808099819463e02f693760e01b8352878b8a60048601611f8e565b03916001600160a01b03165afa9384156109145761210e955f95612111575b509261210385936121099361210396869a6120fa610253836120e5875f52600260205260405f2090565b9060018060a01b03165f5260205260405f2090565b95015192611832565b906119fc565b611d87565b91565b61210992955061210394919361213f612103928a3d8c1161214b575b61213781836103e6565b810190611f7f565b969350939194506120bb565b503d61212d565b6121699150823d8411611c8b57611c7c81836103e6565b5f61207a565b5050505050505f905f90565b90506121a5610781612199876120e5875f52600160205260405f2090565b5465ffffffffffff1690565b115f61204a565b90506121ba61078142611dd8565b81101590612043565b6109069192508a3d8c1161090d576108fe81836103e6565b6121ee9250602080918301019101611f1c565b5f80611fd7565b919091805f52600160205265ffffffffffff806122258560405f209060018060a01b03165f5260205260405f2090565b54169083161161223457505050565b6104339261225c915f52600160205260405f209060018060a01b03165f5260205260405f2090565b9065ffffffffffff1665ffffffffffff19825416179055565b9190825f5260026020526122cd6102536122a28360405f209060018060a01b03165f5260205260405f2090565b926122ac42611dd8565b955f52600260205260405f209060018060a01b03165f5260205260405f2090565b918201809211611671576001810190815415612371575b6122ed816128a9565b5094908354956122fc8461199e565b508161235c575b501561233b5750505f198301928311611671576104339261232391611989565b90919082549060031b91821b915f19901b1916179055565b61043394612355926001600160d01b039091169190612b09565b5050612992565b65ffffffffffff83811691161490505f612303565b61237a82612965565b6122e4565b60606020610f05938184526001600160401b0381511682850152015191604080820152019061180e565b919360a093610f05969565ffffffffffff938552600180871b031660208501526040840152166060820152816080820152019061180e565b929390600460206123fe6107416107415f5460018060a01b031690565b604051630ce9b79360e41b815292839182905afa90811561091457610e9c9161247c915f916124cb575b506001600160a01b03169361243b610435565b6001600160401b037f00000000000000000000000000000000000000000000000000000000000000001681529060208201526040519283916020830161237f565b823b156101b3575f946124a786926040519889978896879563724ab0f760e11b8752600487016123a9565b03925af18015610914576124b85750565b806124c5610433926103d3565b806101a9565b6124e4915060203d602011611c8b57611c7c81836103e6565b5f612428565b65ffffffffffff9160446020925f60018060a01b038154166040519687958694631c9e38c760e21b865260048601521660248401525af180156109145761252e5750565b6125469060203d60201161214b5761213781836103e6565b50565b8115612553570490565b634e487b7160e01b5f52601260045260245ffd5b92905f549060ff8260a01c1661257f575b5050505050565b6040516313c085b760e11b815291602090839060049082906001600160a01b03165afa918215610914575f9261263c575b5060405163065c1e0360e01b6020820190815260248201969096526001600160a01b039091166044820152606481019390935265ffffffffffff90911660848301526126098260a481015b03601f1981018452836103e6565b6202a15c5a1061262a575f928380935192620249f0f1505f80808080612578565b604051632153f33560e21b8152600490fd5b612609925061265c6125fb9160203d602011611c8b57611c7c81836103e6565b92506125b0565b8054806126705750505f90565b5f19918183810111611671575f5260205f2001015460301c90565b60405190612698826103b8565b5f6020838281520152565b6126c8916126c2916126b361268b565b506126bc61268b565b50611989565b50612885565b65ffffffffffff81511690602060018060d01b0391015116604051916126ed836103b8565b8252602082015290565b6126ff612a94565b612707612a94565b60015f80516020612d6783398151915255565b604051906127278261037d565b5f8252565b80910390606082126101b3576020604051926127478461039d565b126101b357604090815161275a8161037d565b612763826117bf565b81528352602081015161277581610359565b60208401520151604082015290565b9060049061279061271a565b5080516127a760209283808094830101910161272c565b6040516327f843b560e11b815290949093849182906001600160a01b03165afa918215610914575f92612866575b508201906127e9825165ffffffffffff1690565b65ffffffffffff91821691161015612854576040820160038151106128425761283861281e61283e935165ffffffffffff1690565b65ffffffffffff1665ffffffffffff196004541617600455565b51600555565b5190565b6040516354f778f360e01b8152600490fd5b6040516367d5e3df60e11b8152600490fd5b8161287e9293503d841161090d576108fe81836103e6565b905f6127d5565b90604051612892816103b8565b915465ffffffffffff8116835260301c6020830152565b8054806128ba5750505f905f905f90565b5f19908082810111611671576128d7925f5260205f200101612885565b9065ffffffffffff82511691602060018060d01b0391015116906001929190565b906119a790826129b5565b906129266126c26129479261291661268b565b5061291f61268b565b5084611989565b91600165ffffffffffff845116936020828060d01b03910151169101611989565b90549060405192612957846103b8565b835260031b1c602082015290565b8054600160401b8110156103985761298291600182018155611989565b8154905f199060031b1b19169055565b90815491600160401b831015610398578261232391600161043395018155611989565b908154905f918060058111612a4b575b50915b8281106129fe575050806129dc5750505f90565b610f05916129ec6129f7926119ee565b905f5260205f200190565b5460301c90565b90918082169080831860011c820180921161167157845f5265ffffffffffff808360205f20015416908516105f14612a395750915b906129c8565b929150612a45906117f3565b90612a33565b90612a5582612c28565b820391821161167157845f5265ffffffffffff808360205f20015416908416105f14612a8357505b5f6129c5565b9250612a8e906117f3565b91612a7d565b60ff5f80516020612d878339815191525460401c1615612ab057565b604051631afcd79f60e31b8152600490fd5b8054600160401b81101561039857612adf91600182018155611989565b6117ba57815160209092015160301b65ffffffffffff191665ffffffffffff909216919091179055565b805492939291908215612bff57612b35612b30612b25856119ee565b835f5260205f200190565b612885565b90612b46825165ffffffffffff1690565b65ffffffffffff84811691168110612bed57612bb1946020948892612b74610781875165ffffffffffff1690565b03612bb55750612ba3926129ec612b8a926119ee565b9065ffffffffffff82549181199060301b169116179055565b01516001600160d01b031690565b9190565b915050612be891612bd5612bc7610435565b65ffffffffffff9093168352565b6001600160d01b03881682860152612ac2565b612ba3565b604051632520601d60e01b8152600490fd5b612c239250612c0f612bc7610435565b6001600160d01b0385166020830152612ac2565b5f9190565b8015612d615780612cfa612cf3612ce9612cdf612cd5612ccb612cc1612cb76001610f059a5f908b60801c80612d55575b508060401c80612d48575b508060201c80612d3b575b508060101c80612d2e575b508060081c80612d21575b508060041c80612d14575b508060021c80612d07575b50821c612d00575b811c1b612cb0818b612549565b0160011c90565b612cb0818a612549565b612cb08189612549565b612cb08188612549565b612cb08187612549565b612cb08186612549565b612cb08185612549565b8092612549565b90611d87565b8101612ca3565b600291509101905f612c9b565b600491509101905f612c90565b600891509101905f612c85565b601091509101905f612c7a565b602091509101905f612c6f565b604091509101905f612c64565b9150506080905f612c59565b505f9056fe9b779b17422d0df92223018b32b4d1fa46e071723d6817e2486d003becc55f00f0c57e16840df040f15088dc2f81fe391c3923bec73e23a9662efc9c229c6a00a2646970667358221220bb6fa7a99b7a6490ae0c43c10d551899d4f182ebc183826e8ecc19e570f7f02f64736f6c63430008190033","linkReferences":{}},"methodIdentifiers":{"BURNER_GAS_LIMIT()":"d5c24e1a","BURNER_RESERVE()":"2964f8dc","FACTORY()":"2dd31000","NETWORK_MIDDLEWARE_SERVICE()":"2c9d45b3","NETWORK_REGISTRY()":"c0cd7c3e","TYPE()":"bb24fe8a","VAULT_FACTORY()":"103f2907","cumulativeSlash(bytes32,address)":"1a2be2c4","cumulativeSlashAt(bytes32,address,uint48,bytes)":"aa8e6489","executeSlash(uint256,bytes)":"b94c386e","initialize(bytes)":"439fab91","isBurnerHook()":"34d098ea","latestSlashedCaptureTimestamp(bytes32,address)":"267de1f3","requestSlash(bytes32,address,uint256,uint48,bytes)":"545ce389","resolver(bytes32,bytes)":"cd05b8a1","resolverAt(bytes32,uint48,bytes)":"31ce4dfe","resolverSetEpochsDelay()":"bc6eac5b","setResolver(uint96,address,bytes)":"9168f9d2","slashRequests(uint256)":"9a896551","slashRequestsLength()":"8f42f9ab","slashableStake(bytes32,address,uint48,bytes)":"aab3595f","staticDelegateCall(address,bytes)":"9f86fd85","vault()":"fbfa77cf","vetoDuration()":"e054e08b","vetoSlash(uint256,bytes)":"f9268d18"},"id":163}