{"abi":[{"type":"constructor","inputs":[{"name":"name_","type":"string","internalType":"string"}],"stateMutability":"nonpayable"},{"type":"function","name":"DOMAIN_SEPARATOR","inputs":[],"outputs":[{"name":"","type":"bytes32","internalType":"bytes32"}],"stateMutability":"view"},{"type":"function","name":"allowance","inputs":[{"name":"owner","type":"address","internalType":"address"},{"name":"spender","type":"address","internalType":"address"}],"outputs":[{"name":"","type":"uint256","internalType":"uint256"}],"stateMutability":"view"},{"type":"function","name":"approve","inputs":[{"name":"spender","type":"address","internalType":"address"},{"name":"value","type":"uint256","internalType":"uint256"}],"outputs":[{"name":"","type":"bool","internalType":"bool"}],"stateMutability":"nonpayable"},{"type":"function","name":"balanceOf","inputs":[{"name":"account","type":"address","internalType":"address"}],"outputs":[{"name":"","type":"uint256","internalType":"uint256"}],"stateMutability":"view"},{"type":"function","name":"decimals","inputs":[],"outputs":[{"name":"","type":"uint8","internalType":"uint8"}],"stateMutability":"view"},{"type":"function","name":"eip712Domain","inputs":[],"outputs":[{"name":"fields","type":"bytes1","internalType":"bytes1"},{"name":"name","type":"string","internalType":"string"},{"name":"version","type":"string","internalType":"string"},{"name":"chainId","type":"uint256","internalType":"uint256"},{"name":"verifyingContract","type":"address","internalType":"address"},{"name":"salt","type":"bytes32","internalType":"bytes32"},{"name":"extensions","type":"uint256[]","internalType":"uint256[]"}],"stateMutability":"view"},{"type":"function","name":"name","inputs":[],"outputs":[{"name":"","type":"string","internalType":"string"}],"stateMutability":"view"},{"type":"function","name":"nonces","inputs":[{"name":"owner","type":"address","internalType":"address"}],"outputs":[{"name":"","type":"uint256","internalType":"uint256"}],"stateMutability":"view"},{"type":"function","name":"permit","inputs":[{"name":"owner","type":"address","internalType":"address"},{"name":"spender","type":"address","internalType":"address"},{"name":"value","type":"uint256","internalType":"uint256"},{"name":"deadline","type":"uint256","internalType":"uint256"},{"name":"v","type":"uint8","internalType":"uint8"},{"name":"r","type":"bytes32","internalType":"bytes32"},{"name":"s","type":"bytes32","internalType":"bytes32"}],"outputs":[],"stateMutability":"nonpayable"},{"type":"function","name":"symbol","inputs":[],"outputs":[{"name":"","type":"string","internalType":"string"}],"stateMutability":"view"},{"type":"function","name":"totalSupply","inputs":[],"outputs":[{"name":"","type":"uint256","internalType":"uint256"}],"stateMutability":"view"},{"type":"function","name":"transfer","inputs":[{"name":"to","type":"address","internalType":"address"},{"name":"value","type":"uint256","internalType":"uint256"}],"outputs":[{"name":"","type":"bool","internalType":"bool"}],"stateMutability":"nonpayable"},{"type":"function","name":"transferFrom","inputs":[{"name":"from","type":"address","internalType":"address"},{"name":"to","type":"address","internalType":"address"},{"name":"value","type":"uint256","internalType":"uint256"}],"outputs":[{"name":"","type":"bool","internalType":"bool"}],"stateMutability":"nonpayable"},{"type":"event","name":"Approval","inputs":[{"name":"owner","type":"address","indexed":true,"internalType":"address"},{"name":"spender","type":"address","indexed":true,"internalType":"address"},{"name":"value","type":"uint256","indexed":false,"internalType":"uint256"}],"anonymous":false},{"type":"event","name":"EIP712DomainChanged","inputs":[],"anonymous":false},{"type":"event","name":"Transfer","inputs":[{"name":"from","type":"address","indexed":true,"internalType":"address"},{"name":"to","type":"address","indexed":true,"internalType":"address"},{"name":"value","type":"uint256","indexed":false,"internalType":"uint256"}],"anonymous":false},{"type":"error","name":"ECDSAInvalidSignature","inputs":[]},{"type":"error","name":"ECDSAInvalidSignatureLength","inputs":[{"name":"length","type":"uint256","internalType":"uint256"}]},{"type":"error","name":"ECDSAInvalidSignatureS","inputs":[{"name":"s","type":"bytes32","internalType":"bytes32"}]},{"type":"error","name":"ERC20InsufficientAllowance","inputs":[{"name":"spender","type":"address","internalType":"address"},{"name":"allowance","type":"uint256","internalType":"uint256"},{"name":"needed","type":"uint256","internalType":"uint256"}]},{"type":"error","name":"ERC20InsufficientBalance","inputs":[{"name":"sender","type":"address","internalType":"address"},{"name":"balance","type":"uint256","internalType":"uint256"},{"name":"needed","type":"uint256","internalType":"uint256"}]},{"type":"error","name":"ERC20InvalidApprover","inputs":[{"name":"approver","type":"address","internalType":"address"}]},{"type":"error","name":"ERC20InvalidReceiver","inputs":[{"name":"receiver","type":"address","internalType":"address"}]},{"type":"error","name":"ERC20InvalidSender","inputs":[{"name":"sender","type":"address","internalType":"address"}]},{"type":"error","name":"ERC20InvalidSpender","inputs":[{"name":"spender","type":"address","internalType":"address"}]},{"type":"error","name":"ERC2612ExpiredSignature","inputs":[{"name":"deadline","type":"uint256","internalType":"uint256"}]},{"type":"error","name":"ERC2612InvalidSigner","inputs":[{"name":"signer","type":"address","internalType":"address"},{"name":"owner","type":"address","internalType":"address"}]},{"type":"error","name":"InvalidAccountNonce","inputs":[{"name":"account","type":"address","internalType":"address"},{"name":"currentNonce","type":"uint256","internalType":"uint256"}]},{"type":"error","name":"InvalidShortString","inputs":[]},{"type":"error","name":"StringTooLong","inputs":[{"name":"str","type":"string","internalType":"string"}]}],"bytecode":{"object":"0x6101606040818152346104d95761162e803803809161001e82866104de565b843982019060209081848403126104d95783516001600160401b03948582116104d9570193601f8481870112156104d9578551938285116104c357601f1996845195610070838a8684011601886104de565b808752828701978382840101116104d957878361008d9301610501565b835192818401848110828211176104c3578552600092838552855198868a018a8110848211176104af578752600191828b52848b0192603160f81b845289519085821161049b5760039182548281811c91168015610491575b8982101461047d5784811161043a575b5080888582116001146103d4578a916103c9575b5060001982851b1c191690821b1782555b8851928684116103b5576004998a548381811c911680156103ab575b8a82101461039857828111610355575b50889185116001146102f457849550908492918a956102e9575b50501b92600019911b1c19161785555b61017a87610524565b9761012098895261018a8a6106cb565b97610140988952519020988960e05251902061010098818a524660a052865191848301917f8b73c3c69bb8fe3d512ecc4cf759cc79239f7b179b0ffacaa9a75d522b39400f83528884015260608301524660808301523060a083015260a0825260c0820192828410908411176102d657828752815190206080523060c05233156102c157505060025469d3c21bcecceda1000000938482018092116102ae5750907fddf252ad1be2c89b69c2b068fc378daa952ba7f163c4a11628f55a4df523b3ef9160025533835282815284832084815401905584519384523393a35191610e1d9384610811853960805184610989015260a05184610a55015260c05184610953015260e051846109d8015251836109fe015251826103a4015251816103ce0152f35b634e487b7160e01b845260119052602483fd5b63ec442f0560e01b825260c401839052602490fd5b634e487b7160e01b855260418652602485fd5b015193503880610161565b9291948416928a8a5284898b20948b5b8b8983831061033e5750505010610324575b50505050811b018555610171565b01519060f884600019921b161c1916905538808080610316565b868601518955909701969485019488935001610304565b8b8b52898b208380880160051c8201928c891061038f575b0160051c019084905b828110610384575050610147565b8c8155018490610376565b9250819261036d565b634e487b7160e01b8b5260228c5260248bfd5b90607f1690610137565b634e487b7160e01b89526041600452602489fd5b90508c01513861010a565b8d908785941691868d528b8d20928d5b8d82821061041a5750508411610402575b505050811b01825561011b565b015160001983871b60f8161c1916905538808e6103f5565b929484849395979892960151815501940192018f909186959493926103e4565b838a52888a208580840160051c8201928b8510610474575b0160051c019083905b8281106104695750506100f6565b8b815501839061045b565b92508192610452565b634e487b7160e01b8a52602260045260248afd5b90607f16906100e6565b634e487b7160e01b88526041600452602488fd5b634e487b7160e01b86526041600452602486fd5b634e487b7160e01b600052604160045260246000fd5b600080fd5b601f909101601f19168101906001600160401b038211908210176104c357604052565b60005b8381106105145750506000910152565b8181015183820152602001610504565b8051602091908281101561059f575090601f82511161055f578082519201519080831061055057501790565b82600019910360031b1b161790565b6044906105919260405193849263305a27a960e01b845280600485015282519283918260248701528686019101610501565b601f01601f19168101030190fd5b6001600160401b0381116104c3576005928354926001938481811c911680156106c1575b838210146106ab57601f8111610677575b5081601f84116001146106115750928293918392600094610606575b50501b916000199060031b1c191617905560ff90565b0151925038806105f0565b919083601f1981168760005284600020946000905b8883831061065d5750505010610644575b505050811b01905560ff90565b015160001960f88460031b161c19169055388080610637565b858701518855909601959485019487935090810190610626565b8560005284601f846000209201871c820191601f8601881c015b82811061069f5750506105d4565b60008155018590610691565b634e487b7160e01b600052602260045260246000fd5b90607f16906105c3565b8051602090818110156106f55750601f82511161055f578082519201519080831061055057501790565b906001600160401b0382116104c357600654926001938481811c91168015610806575b838210146106ab57601f81116107cf575b5081601f8411600114610767575092829391839260009461075c575b50501b916000199060031b1c19161760065560ff90565b015192503880610745565b919083601f198116600660005284600020946000905b888383106107b5575050501061079c575b505050811b0160065560ff90565b015160001960f88460031b161c1916905538808061078e565b85870151885590960195948501948793509081019061077d565b600660005284601f84600020920160051c820191601f860160051c015b8281106107fa575050610729565b600081550185906107ec565b90607f169061071856fe608060408181526004918236101561001657600080fd5b600092833560e01c91826306fdde031461069b57508163095ea7b31461067157816318160ddd1461065257816323b872dd1461055b578163313ce5671461053f5781633644e5151461051b57816370a08231146104e45781637ecebe00146104ac57816384b0196e1461038c57816395d89b4114610298578163a9059cbb14610267578163d505accf146100ff575063dd62ed3e146100b457600080fd5b346100fb57806003193601126100fb57806020926100d06107b3565b6100d86107ce565b6001600160a01b0391821683526001865283832091168252845220549051908152f35b5080fd5b839150346100fb5760e03660031901126100fb5761011b6107b3565b6101236107ce565b906044359260643560843560ff811681036102635781421161024c5760018060a01b0390818516928389526007602052898920908154916001830190558a519060208201927f6e71edae12b1b97f4d1f60370fef10105fa2faae0126114a169c64845d6126c98452868d840152858a1660608401528a608084015260a083015260c082015260c0815260e0810181811067ffffffffffffffff821117610239578b52519020610207916101fe916101d8610950565b908c519161190160f01b83526002830152602282015260c43591604260a4359220610cd2565b90929192610d62565b1681810361021e578661021b878787610a7b565b80f35b87516325c0072360e11b815292830152602482015260449150fd5b634e487b7160e01b8b526041875260248bfd5b875163313c898160e11b8152808401839052602490fd5b8680fd5b5050346100fb57806003193601126100fb576020906102916102876107b3565b6024359033610872565b5160018152f35b9190503461038857826003193601126103885780518381949084546102bc816107e4565b918285526020966001928860018216918260001461035e575050600114610303575b85886102ff896102f0848a0385610850565b51928284938452830190610773565b0390f35b815286935091907f8a35acfbc15ff81a39ae7d344fd709f28e8600b4aa8c65c6b64bfe7fe36bd19b5b82841061034657505050820101816102f06102ff386102de565b8054848a01860152889550879490930192810161032c565b60ff19168882015294151560051b870190940194508593506102f092506102ff91503890506102de565b8280fd5b919050346103885782600319360112610388576103c87f0000000000000000000000000000000000000000000000000000000000000000610b0e565b926103f27f0000000000000000000000000000000000000000000000000000000000000000610c12565b90825192602092602085019585871067ffffffffffffffff881117610499575092602061044f838896610442998b9996528686528151998a99600f60f81b8b5260e0868c015260e08b0190610773565b91898303908a0152610773565b924660608801523060808801528460a088015286840360c088015251928381520193925b82811061048257505050500390f35b835185528695509381019392810192600101610473565b634e487b7160e01b845260419052602483fd5b5050346100fb5760203660031901126100fb5760209181906001600160a01b036104d46107b3565b1681526007845220549051908152f35b5050346100fb5760203660031901126100fb5760209181906001600160a01b0361050c6107b3565b16815280845220549051908152f35b5050346100fb57816003193601126100fb57602090610538610950565b9051908152f35b5050346100fb57816003193601126100fb576020905160128152f35b9050823461064f57606036600319011261064f576105776107b3565b61057f6107ce565b916044359360018060a01b0383168083526001602052868320338452602052868320549160001983036105bb575b602088610291898989610872565b86831061062357811561060c5733156105f557508252600160209081528683203384528152918690209085900390558290610291876105ad565b8751634a1406b160e11b8152908101849052602490fd5b875163e602df0560e01b8152908101849052602490fd5b8751637dc7a0d960e11b8152339181019182526020820193909352604081018790528291506060010390fd5b80fd5b5050346100fb57816003193601126100fb576020906002549051908152f35b5050346100fb57806003193601126100fb576020906102916106916107b3565b6024359033610a7b565b8484346100fb57816003193601126100fb5782826003546106bb816107e4565b908184526020956001918760018216918260001461074c5750506001146106f0575b5050506102ff92916102f0910385610850565b9190869350600383527fc2575a0e9e593c00f959f8c92f12db2869c3395a3b0502d05e2516446f71f85b5b82841061073457505050820101816102f06102ff6106dd565b8054848a01860152889550879490930192810161071b565b60ff19168782015293151560051b860190930193508492506102f091506102ff90506106dd565b919082519283825260005b84811061079f575050826000602080949584010152601f8019910116010190565b60208183018101518483018201520161077e565b600435906001600160a01b03821682036107c957565b600080fd5b602435906001600160a01b03821682036107c957565b90600182811c92168015610814575b60208310146107fe57565b634e487b7160e01b600052602260045260246000fd5b91607f16916107f3565b6040810190811067ffffffffffffffff82111761083a57604052565b634e487b7160e01b600052604160045260246000fd5b90601f8019910116810190811067ffffffffffffffff82111761083a57604052565b916001600160a01b03808416928315610937571692831561091e57600090838252816020526040822054908382106108ec575091604082827fddf252ad1be2c89b69c2b068fc378daa952ba7f163c4a11628f55a4df523b3ef958760209652828652038282205586815220818154019055604051908152a3565b60405163391434e360e21b81526001600160a01b03919091166004820152602481019190915260448101839052606490fd5b60405163ec442f0560e01b815260006004820152602490fd5b604051634b637e8f60e11b815260006004820152602490fd5b307f00000000000000000000000000000000000000000000000000000000000000006001600160a01b03161480610a52575b156109ab577f000000000000000000000000000000000000000000000000000000000000000090565b60405160208101907f8b73c3c69bb8fe3d512ecc4cf759cc79239f7b179b0ffacaa9a75d522b39400f82527f000000000000000000000000000000000000000000000000000000000000000060408201527f000000000000000000000000000000000000000000000000000000000000000060608201524660808201523060a082015260a0815260c0810181811067ffffffffffffffff82111761083a5760405251902090565b507f00000000000000000000000000000000000000000000000000000000000000004614610982565b6001600160a01b03908116918215610af55716918215610adc5760207f8c5be1e5ebec7d5bd14f71427d1e84f3dd0314c0f7b2291e5b200ac8c7c3b925918360005260018252604060002085600052825280604060002055604051908152a3565b604051634a1406b160e11b815260006004820152602490fd5b60405163e602df0560e01b815260006004820152602490fd5b60ff8114610b4c5760ff811690601f8211610b3a5760405191610b308361081e565b8252602082015290565b604051632cd44ac360e21b8152600490fd5b50604051600554816000610b5f836107e4565b80835292602090600190818116908115610bee5750600114610b8d575b5050610b8a92500382610850565b90565b91509260056000527f036b6384b5eca791c62761152d0c79bb0604c104a5fb6f4eb0703f3154bb3db0936000925b828410610bd65750610b8a9450505081016020013880610b7c565b85548785018301529485019486945092810192610bbb565b91505060209250610b8a94915060ff191682840152151560051b8201013880610b7c565b60ff8114610c345760ff811690601f8211610b3a5760405191610b308361081e565b50604051600654816000610c47836107e4565b80835292602090600190818116908115610bee5750600114610c71575050610b8a92500382610850565b91509260066000527ff652222313e28459528d920b65115c16c04f3efc82aaedc97be59f3f377c0d3f936000925b828410610cba5750610b8a9450505081016020013880610b7c565b85548785018301529485019486945092810192610c9f565b91907f7fffffffffffffffffffffffffffffff5d576e7357a4501ddfe92f46681b20a08411610d5657926020929160ff608095604051948552168484015260408301526060820152600092839182805260015afa15610d4a5780516001600160a01b03811615610d4157918190565b50809160019190565b604051903d90823e3d90fd5b50505060009160039190565b6004811015610dd15780610d74575050565b60018103610d8e5760405163f645eedf60e01b8152600490fd5b60028103610daf5760405163fce698f760e01b815260048101839052602490fd5b600314610db95750565b602490604051906335e2f38360e21b82526004820152fd5b634e487b7160e01b600052602160045260246000fdfea2646970667358221220c0dbb862826d50471e90f3822717a1445ae816f547ad36a63c7266a0c279243064736f6c63430008190033","linkReferences":{}},"methodIdentifiers":{"DOMAIN_SEPARATOR()":"3644e515","allowance(address,address)":"dd62ed3e","approve(address,uint256)":"095ea7b3","balanceOf(address)":"70a08231","decimals()":"313ce567","eip712Domain()":"84b0196e","name()":"06fdde03","nonces(address)":"7ecebe00","permit(address,address,uint256,uint256,uint8,bytes32,bytes32)":"d505accf","symbol()":"95d89b41","totalSupply()":"18160ddd","transfer(address,uint256)":"a9059cbb","transferFrom(address,address,uint256)":"23b872dd"},"id":155}