{"abi":[{"type":"constructor","inputs":[{"name":"delegatorFactory","type":"address","internalType":"address"},{"name":"slasherFactory","type":"address","internalType":"address"},{"name":"vaultFactory","type":"address","internalType":"address"}],"stateMutability":"nonpayable"},{"type":"function","name":"DEFAULT_ADMIN_ROLE","inputs":[],"outputs":[{"name":"","type":"bytes32","internalType":"bytes32"}],"stateMutability":"view"},{"type":"function","name":"DELEGATOR_FACTORY","inputs":[],"outputs":[{"name":"","type":"address","internalType":"address"}],"stateMutability":"view"},{"type":"function","name":"DEPOSITOR_WHITELIST_ROLE","inputs":[],"outputs":[{"name":"","type":"bytes32","internalType":"bytes32"}],"stateMutability":"view"},{"type":"function","name":"DEPOSIT_LIMIT_SET_ROLE","inputs":[],"outputs":[{"name":"","type":"bytes32","internalType":"bytes32"}],"stateMutability":"view"},{"type":"function","name":"DEPOSIT_WHITELIST_SET_ROLE","inputs":[],"outputs":[{"name":"","type":"bytes32","internalType":"bytes32"}],"stateMutability":"view"},{"type":"function","name":"FACTORY","inputs":[],"outputs":[{"name":"","type":"address","internalType":"address"}],"stateMutability":"view"},{"type":"function","name":"IS_DEPOSIT_LIMIT_SET_ROLE","inputs":[],"outputs":[{"name":"","type":"bytes32","internalType":"bytes32"}],"stateMutability":"view"},{"type":"function","name":"SLASHER_FACTORY","inputs":[],"outputs":[{"name":"","type":"address","internalType":"address"}],"stateMutability":"view"},{"type":"function","name":"activeBalanceOf","inputs":[{"name":"account","type":"address","internalType":"address"}],"outputs":[{"name":"","type":"uint256","internalType":"uint256"}],"stateMutability":"view"},{"type":"function","name":"activeBalanceOfAt","inputs":[{"name":"account","type":"address","internalType":"address"},{"name":"timestamp","type":"uint48","internalType":"uint48"},{"name":"hints","type":"bytes","internalType":"bytes"}],"outputs":[{"name":"","type":"uint256","internalType":"uint256"}],"stateMutability":"view"},{"type":"function","name":"activeShares","inputs":[],"outputs":[{"name":"","type":"uint256","internalType":"uint256"}],"stateMutability":"view"},{"type":"function","name":"activeSharesAt","inputs":[{"name":"timestamp","type":"uint48","internalType":"uint48"},{"name":"hint","type":"bytes","internalType":"bytes"}],"outputs":[{"name":"","type":"uint256","internalType":"uint256"}],"stateMutability":"view"},{"type":"function","name":"activeSharesOf","inputs":[{"name":"account","type":"address","internalType":"address"}],"outputs":[{"name":"","type":"uint256","internalType":"uint256"}],"stateMutability":"view"},{"type":"function","name":"activeSharesOfAt","inputs":[{"name":"account","type":"address","internalType":"address"},{"name":"timestamp","type":"uint48","internalType":"uint48"},{"name":"hint","type":"bytes","internalType":"bytes"}],"outputs":[{"name":"","type":"uint256","internalType":"uint256"}],"stateMutability":"view"},{"type":"function","name":"activeStake","inputs":[],"outputs":[{"name":"","type":"uint256","internalType":"uint256"}],"stateMutability":"view"},{"type":"function","name":"activeStakeAt","inputs":[{"name":"timestamp","type":"uint48","internalType":"uint48"},{"name":"hint","type":"bytes","internalType":"bytes"}],"outputs":[{"name":"","type":"uint256","internalType":"uint256"}],"stateMutability":"view"},{"type":"function","name":"allowance","inputs":[{"name":"owner","type":"address","internalType":"address"},{"name":"spender","type":"address","internalType":"address"}],"outputs":[{"name":"","type":"uint256","internalType":"uint256"}],"stateMutability":"view"},{"type":"function","name":"approve","inputs":[{"name":"spender","type":"address","internalType":"address"},{"name":"value","type":"uint256","internalType":"uint256"}],"outputs":[{"name":"","type":"bool","internalType":"bool"}],"stateMutability":"nonpayable"},{"type":"function","name":"balanceOf","inputs":[{"name":"account","type":"address","internalType":"address"}],"outputs":[{"name":"","type":"uint256","internalType":"uint256"}],"stateMutability":"view"},{"type":"function","name":"burner","inputs":[],"outputs":[{"name":"","type":"address","internalType":"address"}],"stateMutability":"view"},{"type":"function","name":"claim","inputs":[{"name":"recipient","type":"address","internalType":"address"},{"name":"epoch","type":"uint256","internalType":"uint256"}],"outputs":[{"name":"amount","type":"uint256","internalType":"uint256"}],"stateMutability":"nonpayable"},{"type":"function","name":"claimBatch","inputs":[{"name":"recipient","type":"address","internalType":"address"},{"name":"epochs","type":"uint256[]","internalType":"uint256[]"}],"outputs":[{"name":"amount","type":"uint256","internalType":"uint256"}],"stateMutability":"nonpayable"},{"type":"function","name":"collateral","inputs":[],"outputs":[{"name":"","type":"address","internalType":"address"}],"stateMutability":"view"},{"type":"function","name":"currentEpoch","inputs":[],"outputs":[{"name":"","type":"uint256","internalType":"uint256"}],"stateMutability":"view"},{"type":"function","name":"currentEpochStart","inputs":[],"outputs":[{"name":"","type":"uint48","internalType":"uint48"}],"stateMutability":"view"},{"type":"function","name":"decimals","inputs":[],"outputs":[{"name":"","type":"uint8","internalType":"uint8"}],"stateMutability":"view"},{"type":"function","name":"delegator","inputs":[],"outputs":[{"name":"","type":"address","internalType":"address"}],"stateMutability":"view"},{"type":"function","name":"deposit","inputs":[{"name":"onBehalfOf","type":"address","internalType":"address"},{"name":"amount","type":"uint256","internalType":"uint256"}],"outputs":[{"name":"depositedAmount","type":"uint256","internalType":"uint256"},{"name":"mintedShares","type":"uint256","internalType":"uint256"}],"stateMutability":"nonpayable"},{"type":"function","name":"depositLimit","inputs":[],"outputs":[{"name":"","type":"uint256","internalType":"uint256"}],"stateMutability":"view"},{"type":"function","name":"depositWhitelist","inputs":[],"outputs":[{"name":"","type":"bool","internalType":"bool"}],"stateMutability":"view"},{"type":"function","name":"epochAt","inputs":[{"name":"timestamp","type":"uint48","internalType":"uint48"}],"outputs":[{"name":"","type":"uint256","internalType":"uint256"}],"stateMutability":"view"},{"type":"function","name":"epochDuration","inputs":[],"outputs":[{"name":"","type":"uint48","internalType":"uint48"}],"stateMutability":"view"},{"type":"function","name":"epochDurationInit","inputs":[],"outputs":[{"name":"","type":"uint48","internalType":"uint48"}],"stateMutability":"view"},{"type":"function","name":"getRoleAdmin","inputs":[{"name":"role","type":"bytes32","internalType":"bytes32"}],"outputs":[{"name":"","type":"bytes32","internalType":"bytes32"}],"stateMutability":"view"},{"type":"function","name":"grantRole","inputs":[{"name":"role","type":"bytes32","internalType":"bytes32"},{"name":"account","type":"address","internalType":"address"}],"outputs":[],"stateMutability":"nonpayable"},{"type":"function","name":"hasRole","inputs":[{"name":"role","type":"bytes32","internalType":"bytes32"},{"name":"account","type":"address","internalType":"address"}],"outputs":[{"name":"","type":"bool","internalType":"bool"}],"stateMutability":"view"},{"type":"function","name":"initialize","inputs":[{"name":"initialVersion","type":"uint64","internalType":"uint64"},{"name":"owner_","type":"address","internalType":"address"},{"name":"data","type":"bytes","internalType":"bytes"}],"outputs":[],"stateMutability":"nonpayable"},{"type":"function","name":"isDelegatorInitialized","inputs":[],"outputs":[{"name":"","type":"bool","internalType":"bool"}],"stateMutability":"view"},{"type":"function","name":"isDepositLimit","inputs":[],"outputs":[{"name":"","type":"bool","internalType":"bool"}],"stateMutability":"view"},{"type":"function","name":"isDepositorWhitelisted","inputs":[{"name":"account","type":"address","internalType":"address"}],"outputs":[{"name":"value","type":"bool","internalType":"bool"}],"stateMutability":"view"},{"type":"function","name":"isInitialized","inputs":[],"outputs":[{"name":"","type":"bool","internalType":"bool"}],"stateMutability":"view"},{"type":"function","name":"isSlasherInitialized","inputs":[],"outputs":[{"name":"","type":"bool","internalType":"bool"}],"stateMutability":"view"},{"type":"function","name":"isWithdrawalsClaimed","inputs":[{"name":"epoch","type":"uint256","internalType":"uint256"},{"name":"account","type":"address","internalType":"address"}],"outputs":[{"name":"value","type":"bool","internalType":"bool"}],"stateMutability":"view"},{"type":"function","name":"migrate","inputs":[{"name":"newVersion","type":"uint64","internalType":"uint64"},{"name":"data","type":"bytes","internalType":"bytes"}],"outputs":[],"stateMutability":"nonpayable"},{"type":"function","name":"name","inputs":[],"outputs":[{"name":"","type":"string","internalType":"string"}],"stateMutability":"view"},{"type":"function","name":"nextEpochStart","inputs":[],"outputs":[{"name":"","type":"uint48","internalType":"uint48"}],"stateMutability":"view"},{"type":"function","name":"onSlash","inputs":[{"name":"amount","type":"uint256","internalType":"uint256"},{"name":"captureTimestamp","type":"uint48","internalType":"uint48"}],"outputs":[{"name":"slashedAmount","type":"uint256","internalType":"uint256"}],"stateMutability":"nonpayable"},{"type":"function","name":"owner","inputs":[],"outputs":[{"name":"","type":"address","internalType":"address"}],"stateMutability":"view"},{"type":"function","name":"previousEpochStart","inputs":[],"outputs":[{"name":"","type":"uint48","internalType":"uint48"}],"stateMutability":"view"},{"type":"function","name":"redeem","inputs":[{"name":"claimer","type":"address","internalType":"address"},{"name":"shares","type":"uint256","internalType":"uint256"}],"outputs":[{"name":"withdrawnAssets","type":"uint256","internalType":"uint256"},{"name":"mintedShares","type":"uint256","internalType":"uint256"}],"stateMutability":"nonpayable"},{"type":"function","name":"renounceOwnership","inputs":[],"outputs":[],"stateMutability":"nonpayable"},{"type":"function","name":"renounceRole","inputs":[{"name":"role","type":"bytes32","internalType":"bytes32"},{"name":"callerConfirmation","type":"address","internalType":"address"}],"outputs":[],"stateMutability":"nonpayable"},{"type":"function","name":"revokeRole","inputs":[{"name":"role","type":"bytes32","internalType":"bytes32"},{"name":"account","type":"address","internalType":"address"}],"outputs":[],"stateMutability":"nonpayable"},{"type":"function","name":"setDelegator","inputs":[{"name":"delegator_","type":"address","internalType":"address"}],"outputs":[],"stateMutability":"nonpayable"},{"type":"function","name":"setDepositLimit","inputs":[{"name":"limit","type":"uint256","internalType":"uint256"}],"outputs":[],"stateMutability":"nonpayable"},{"type":"function","name":"setDepositWhitelist","inputs":[{"name":"status","type":"bool","internalType":"bool"}],"outputs":[],"stateMutability":"nonpayable"},{"type":"function","name":"setDepositorWhitelistStatus","inputs":[{"name":"account","type":"address","internalType":"address"},{"name":"status","type":"bool","internalType":"bool"}],"outputs":[],"stateMutability":"nonpayable"},{"type":"function","name":"setIsDepositLimit","inputs":[{"name":"status","type":"bool","internalType":"bool"}],"outputs":[],"stateMutability":"nonpayable"},{"type":"function","name":"setSlasher","inputs":[{"name":"slasher_","type":"address","internalType":"address"}],"outputs":[],"stateMutability":"nonpayable"},{"type":"function","name":"slashableBalanceOf","inputs":[{"name":"account","type":"address","internalType":"address"}],"outputs":[{"name":"","type":"uint256","internalType":"uint256"}],"stateMutability":"view"},{"type":"function","name":"slasher","inputs":[],"outputs":[{"name":"","type":"address","internalType":"address"}],"stateMutability":"view"},{"type":"function","name":"staticDelegateCall","inputs":[{"name":"target","type":"address","internalType":"address"},{"name":"data","type":"bytes","internalType":"bytes"}],"outputs":[],"stateMutability":"nonpayable"},{"type":"function","name":"supportsInterface","inputs":[{"name":"interfaceId","type":"bytes4","internalType":"bytes4"}],"outputs":[{"name":"","type":"bool","internalType":"bool"}],"stateMutability":"view"},{"type":"function","name":"symbol","inputs":[],"outputs":[{"name":"","type":"string","internalType":"string"}],"stateMutability":"view"},{"type":"function","name":"totalStake","inputs":[],"outputs":[{"name":"","type":"uint256","internalType":"uint256"}],"stateMutability":"view"},{"type":"function","name":"totalSupply","inputs":[],"outputs":[{"name":"","type":"uint256","internalType":"uint256"}],"stateMutability":"view"},{"type":"function","name":"transfer","inputs":[{"name":"to","type":"address","internalType":"address"},{"name":"value","type":"uint256","internalType":"uint256"}],"outputs":[{"name":"","type":"bool","internalType":"bool"}],"stateMutability":"nonpayable"},{"type":"function","name":"transferFrom","inputs":[{"name":"from","type":"address","internalType":"address"},{"name":"to","type":"address","internalType":"address"},{"name":"value","type":"uint256","internalType":"uint256"}],"outputs":[{"name":"","type":"bool","internalType":"bool"}],"stateMutability":"nonpayable"},{"type":"function","name":"transferOwnership","inputs":[{"name":"newOwner","type":"address","internalType":"address"}],"outputs":[],"stateMutability":"nonpayable"},{"type":"function","name":"version","inputs":[],"outputs":[{"name":"","type":"uint64","internalType":"uint64"}],"stateMutability":"view"},{"type":"function","name":"withdraw","inputs":[{"name":"claimer","type":"address","internalType":"address"},{"name":"amount","type":"uint256","internalType":"uint256"}],"outputs":[{"name":"burnedShares","type":"uint256","internalType":"uint256"},{"name":"mintedShares","type":"uint256","internalType":"uint256"}],"stateMutability":"nonpayable"},{"type":"function","name":"withdrawalShares","inputs":[{"name":"epoch","type":"uint256","internalType":"uint256"}],"outputs":[{"name":"amount","type":"uint256","internalType":"uint256"}],"stateMutability":"view"},{"type":"function","name":"withdrawalSharesOf","inputs":[{"name":"epoch","type":"uint256","internalType":"uint256"},{"name":"account","type":"address","internalType":"address"}],"outputs":[{"name":"amount","type":"uint256","internalType":"uint256"}],"stateMutability":"view"},{"type":"function","name":"withdrawals","inputs":[{"name":"epoch","type":"uint256","internalType":"uint256"}],"outputs":[{"name":"amount","type":"uint256","internalType":"uint256"}],"stateMutability":"view"},{"type":"function","name":"withdrawalsOf","inputs":[{"name":"epoch","type":"uint256","internalType":"uint256"},{"name":"account","type":"address","internalType":"address"}],"outputs":[{"name":"","type":"uint256","internalType":"uint256"}],"stateMutability":"view"},{"type":"event","name":"Approval","inputs":[{"name":"owner","type":"address","indexed":true,"internalType":"address"},{"name":"spender","type":"address","indexed":true,"internalType":"address"},{"name":"value","type":"uint256","indexed":false,"internalType":"uint256"}],"anonymous":false},{"type":"event","name":"Claim","inputs":[{"name":"claimer","type":"address","indexed":true,"internalType":"address"},{"name":"recipient","type":"address","indexed":true,"internalType":"address"},{"name":"epoch","type":"uint256","indexed":false,"internalType":"uint256"},{"name":"amount","type":"uint256","indexed":false,"internalType":"uint256"}],"anonymous":false},{"type":"event","name":"ClaimBatch","inputs":[{"name":"claimer","type":"address","indexed":true,"internalType":"address"},{"name":"recipient","type":"address","indexed":true,"internalType":"address"},{"name":"epochs","type":"uint256[]","indexed":false,"internalType":"uint256[]"},{"name":"amount","type":"uint256","indexed":false,"internalType":"uint256"}],"anonymous":false},{"type":"event","name":"Deposit","inputs":[{"name":"depositor","type":"address","indexed":true,"internalType":"address"},{"name":"onBehalfOf","type":"address","indexed":true,"internalType":"address"},{"name":"amount","type":"uint256","indexed":false,"internalType":"uint256"},{"name":"shares","type":"uint256","indexed":false,"internalType":"uint256"}],"anonymous":false},{"type":"event","name":"Initialized","inputs":[{"name":"version","type":"uint64","indexed":false,"internalType":"uint64"}],"anonymous":false},{"type":"event","name":"OnSlash","inputs":[{"name":"amount","type":"uint256","indexed":false,"internalType":"uint256"},{"name":"captureTimestamp","type":"uint48","indexed":false,"internalType":"uint48"},{"name":"slashedAmount","type":"uint256","indexed":false,"internalType":"uint256"}],"anonymous":false},{"type":"event","name":"OwnershipTransferred","inputs":[{"name":"previousOwner","type":"address","indexed":true,"internalType":"address"},{"name":"newOwner","type":"address","indexed":true,"internalType":"address"}],"anonymous":false},{"type":"event","name":"RoleAdminChanged","inputs":[{"name":"role","type":"bytes32","indexed":true,"internalType":"bytes32"},{"name":"previousAdminRole","type":"bytes32","indexed":true,"internalType":"bytes32"},{"name":"newAdminRole","type":"bytes32","indexed":true,"internalType":"bytes32"}],"anonymous":false},{"type":"event","name":"RoleGranted","inputs":[{"name":"role","type":"bytes32","indexed":true,"internalType":"bytes32"},{"name":"account","type":"address","indexed":true,"internalType":"address"},{"name":"sender","type":"address","indexed":true,"internalType":"address"}],"anonymous":false},{"type":"event","name":"RoleRevoked","inputs":[{"name":"role","type":"bytes32","indexed":true,"internalType":"bytes32"},{"name":"account","type":"address","indexed":true,"internalType":"address"},{"name":"sender","type":"address","indexed":true,"internalType":"address"}],"anonymous":false},{"type":"event","name":"SetDelegator","inputs":[{"name":"delegator","type":"address","indexed":true,"internalType":"address"}],"anonymous":false},{"type":"event","name":"SetDepositLimit","inputs":[{"name":"limit","type":"uint256","indexed":false,"internalType":"uint256"}],"anonymous":false},{"type":"event","name":"SetDepositWhitelist","inputs":[{"name":"status","type":"bool","indexed":false,"internalType":"bool"}],"anonymous":false},{"type":"event","name":"SetDepositorWhitelistStatus","inputs":[{"name":"account","type":"address","indexed":true,"internalType":"address"},{"name":"status","type":"bool","indexed":false,"internalType":"bool"}],"anonymous":false},{"type":"event","name":"SetIsDepositLimit","inputs":[{"name":"status","type":"bool","indexed":false,"internalType":"bool"}],"anonymous":false},{"type":"event","name":"SetSlasher","inputs":[{"name":"slasher","type":"address","indexed":true,"internalType":"address"}],"anonymous":false},{"type":"event","name":"Transfer","inputs":[{"name":"from","type":"address","indexed":true,"internalType":"address"},{"name":"to","type":"address","indexed":true,"internalType":"address"},{"name":"value","type":"uint256","indexed":false,"internalType":"uint256"}],"anonymous":false},{"type":"event","name":"Withdraw","inputs":[{"name":"withdrawer","type":"address","indexed":true,"internalType":"address"},{"name":"claimer","type":"address","indexed":true,"internalType":"address"},{"name":"amount","type":"uint256","indexed":false,"internalType":"uint256"},{"name":"burnedShares","type":"uint256","indexed":false,"internalType":"uint256"},{"name":"mintedShares","type":"uint256","indexed":false,"internalType":"uint256"}],"anonymous":false},{"type":"error","name":"AccessControlBadConfirmation","inputs":[]},{"type":"error","name":"AccessControlUnauthorizedAccount","inputs":[{"name":"account","type":"address","internalType":"address"},{"name":"neededRole","type":"bytes32","internalType":"bytes32"}]},{"type":"error","name":"AlreadyClaimed","inputs":[]},{"type":"error","name":"AlreadyInitialized","inputs":[]},{"type":"error","name":"AlreadySet","inputs":[]},{"type":"error","name":"CheckpointUnorderedInsertion","inputs":[]},{"type":"error","name":"DelegatorAlreadyInitialized","inputs":[]},{"type":"error","name":"DepositLimitReached","inputs":[]},{"type":"error","name":"ERC20InsufficientAllowance","inputs":[{"name":"spender","type":"address","internalType":"address"},{"name":"allowance","type":"uint256","internalType":"uint256"},{"name":"needed","type":"uint256","internalType":"uint256"}]},{"type":"error","name":"ERC20InsufficientBalance","inputs":[{"name":"sender","type":"address","internalType":"address"},{"name":"balance","type":"uint256","internalType":"uint256"},{"name":"needed","type":"uint256","internalType":"uint256"}]},{"type":"error","name":"ERC20InvalidApprover","inputs":[{"name":"approver","type":"address","internalType":"address"}]},{"type":"error","name":"ERC20InvalidReceiver","inputs":[{"name":"receiver","type":"address","internalType":"address"}]},{"type":"error","name":"ERC20InvalidSender","inputs":[{"name":"sender","type":"address","internalType":"address"}]},{"type":"error","name":"ERC20InvalidSpender","inputs":[{"name":"spender","type":"address","internalType":"address"}]},{"type":"error","name":"InsufficientClaim","inputs":[]},{"type":"error","name":"InsufficientDeposit","inputs":[]},{"type":"error","name":"InsufficientRedemption","inputs":[]},{"type":"error","name":"InsufficientWithdrawal","inputs":[]},{"type":"error","name":"InvalidAccount","inputs":[]},{"type":"error","name":"InvalidCaptureEpoch","inputs":[]},{"type":"error","name":"InvalidClaimer","inputs":[]},{"type":"error","name":"InvalidCollateral","inputs":[]},{"type":"error","name":"InvalidDelegator","inputs":[]},{"type":"error","name":"InvalidEpoch","inputs":[]},{"type":"error","name":"InvalidEpochDuration","inputs":[]},{"type":"error","name":"InvalidInitialization","inputs":[]},{"type":"error","name":"InvalidLengthEpochs","inputs":[]},{"type":"error","name":"InvalidOnBehalfOf","inputs":[]},{"type":"error","name":"InvalidRecipient","inputs":[]},{"type":"error","name":"InvalidSlasher","inputs":[]},{"type":"error","name":"InvalidTimestamp","inputs":[]},{"type":"error","name":"MissingRoles","inputs":[]},{"type":"error","name":"NoPreviousEpoch","inputs":[]},{"type":"error","name":"NotDelegator","inputs":[]},{"type":"error","name":"NotFactory","inputs":[]},{"type":"error","name":"NotInitialized","inputs":[]},{"type":"error","name":"NotInitializing","inputs":[]},{"type":"error","name":"NotSlasher","inputs":[]},{"type":"error","name":"NotWhitelistedDepositor","inputs":[]},{"type":"error","name":"OwnableInvalidOwner","inputs":[{"name":"owner","type":"address","internalType":"address"}]},{"type":"error","name":"OwnableUnauthorizedAccount","inputs":[{"name":"account","type":"address","internalType":"address"}]},{"type":"error","name":"ReentrancyGuardReentrantCall","inputs":[]},{"type":"error","name":"SafeCastOverflowedUintDowncast","inputs":[{"name":"bits","type":"uint8","internalType":"uint8"},{"name":"value","type":"uint256","internalType":"uint256"}]},{"type":"error","name":"SafeERC20FailedOperation","inputs":[{"name":"token","type":"address","internalType":"address"}]},{"type":"error","name":"SlasherAlreadyInitialized","inputs":[]},{"type":"error","name":"TooMuchRedeem","inputs":[]},{"type":"error","name":"TooMuchWithdraw","inputs":[]}],"bytecode":{"object":"0x60e03461013c57601f61569238819003918201601f1916830192916001600160401b03918285118486101761014057816060928592604097885283398101031261013c5761004c82610154565b916100648461005d60208401610154565b9201610154565b9260805260a0527ff0c57e16840df040f15088dc2f81fe391c3923bec73e23a9662efc9c229c6a009081549060ff82861c1661012b5780808316036100e7575b50505060c05251615529908161016982396080518181816115810152611b26015260a051818181611c8f0152612212015260c051818181610a9c0152610cc20152f35b6001600160401b0319909116811790915582519081527fc7f505b2f371ae2175ee4913f4499e1f2633a7b5936321eed1cdaeb6115181d290602090a15f80806100a4565b845163f92ee8a960e01b8152600490fd5b5f80fd5b634e487b7160e01b5f52604160045260245ffd5b51906001600160a01b038216820361013c5756fe60806040526004361015610011575f80fd5b5f3560e01c806301ffc9a7146104ba57806306fdde03146104b5578063095ea7b3146104b05780631415519b146104ab57806318160ddd146103895780631b66c9e1146104a65780631e9a6950146104a157806323b872dd1461049c578063248a9ca31461049757806327810b6e14610492578063281f57521461048d5780632abe3048146104885780632d73c69c146104835780632dd310001461047e5780632f2ff15d14610479578063313ce5671461047457806336568abe1461046f578063392e53cd1461046a5780634105a7dd14610465578063463616711461046057806347e7ef241461045b57806348d3b775146104565780634ff0876a1461045157806350861adc1461044c57806350f22068146104475780635346e34f1461044257806354fd4d501461043d57806357ec83cc1461043857806359f769a9146104335780635cc070761461042e57806361a8c8c4146104295780636da3e06d146104245780636ec1e3f81461041f57806370a08231146103d4578063715018a61461041a5780637278e31c1461041557806373790ab314610410578063766718081461040b578063794b15b7146104065780637953b33b146104015780637c04c80a146103fc578063810da75d146103f757806383cd9cc3146103f257806387df0788146103ed5780638b0e9f3f146103e85780638da5cb5b146103e357806391d14854146103de57806395d89b41146103d95780639d66201b146103d45780639f86fd85146103cf578063a1b12202146103ca578063a217fddf146103c5578063a21a1df9146103c0578063a2861466146103bb578063a3b54172146103b6578063a5d03223146103b1578063a9059cbb146103ac578063aabc2496146103a7578063aad3ec96146103a2578063afba70ad1461039d578063b134427114610398578063bd49c35f14610393578063bdc8144b1461038e578063bfefcd7b14610389578063c31e8dd714610384578063ce9b79301461037f578063d547741f1461037a578063d8dfeb4514610375578063db38871514610370578063dd62ed3e1461036b578063ecf7085814610366578063efb559d614610361578063f2fde38b1461035c578063f3fef3a3146103575763f5e7ee0f14610352575f80fd5b6128cc565b612826565b6127f9565b6126aa565b61268d565b612656565b61261c565b6125f1565b6125a5565b61257d565b612513565b610749565b612435565b61241b565b6123f3565b6123c9565b612308565b612151565b61211c565b6120d6565b612089565b611f96565b611f5c565b611f42565b611f1e565b611e64565b6115d5565b611db2565b611d54565b611d20565b611cbe565b611c7a565b611ac1565b611aa8565b611a42565b611a1b565b6119db565b611989565b611948565b611676565b61160f565b6115b0565b61156c565b611519565b6114ef565b6114c8565b611390565b61135e565b6112c9565b6112b0565b611253565b611233565b611212565b610f2a565b610f02565b610e67565b610e22565b610dd7565b610d3f565b610cf1565b610cad565b610c41565b610a56565b610988565b610960565b610927565b61088a565b6107a5565b61076b565b61070f565b61064d565b61054c565b346105105760203660031901126105105760043563ffffffff60e01b811680910361051057602090637965db0b60e01b81149081156104ff575b506040519015158152f35b6301ffc9a760e01b1490505f6104f4565b5f80fd5b805180835260209291819084018484015e5f828201840152601f01601f1916010190565b906020610549928181520190610514565b90565b34610510575f366003190112610510576040515f5f805160206153d483398151915280549061057a826128f6565b8085529160209160019182811690811561060f57506001146105b7575b6105b3866105a781880382610b85565b60405191829182610538565b0390f35b5f90815293507f2ae08a8e29253f69ac5d979a101956ab8f8d9d7ded63fa7a83b16fc47648eab05b8385106105fc575050505081016020016105a7826105b35f610597565b80548686018401529382019381016105df565b90508695506105b3969350602092506105a794915060ff191682840152151560051b82010192935f610597565b6001600160a01b0381160361051057565b346105105760403660031901126105105760043561066a8161063c565b60243533156106f7576001600160a01b0382169182156106df576106a78291610692336119a3565b9060018060a01b03165f5260205260405f2090565b556040519081527f8c5be1e5ebec7d5bd14f71427d1e84f3dd0314c0f7b2291e5b200ac8c7c3b92560203392a3602060405160018152f35b604051634a1406b160e11b81525f6004820152602490fd5b60405163e602df0560e01b81525f6004820152602490fd5b34610510575f3660031901126105105760206040517fc6aaadd7371d5e8f9ed6849dd66a66573a3ba37167d03f4352c9ba5693678fac8152f35b34610510575f366003190112610510576020610763613feb565b604051908152f35b34610510575f3660031901126105105760206040517f9c56d972d63cbb4195b3c1484691dfc220fa96a4c47e7b6613bd82a022029e068152f35b34610510576040366003190112610510576004356107c28161063c565b602435906107ce612e0e565b6001600160a01b0381161561087957335f908152600e602052604090206107f9906140d8565b6140d8565b82116108675761081961080a614064565b610812613feb565b908461414c565b918215610852578261082a92612e3d565b9061084160015f805160206154b483398151915255565b604080519182526020820192909252f35b60405160016245ddc760e11b03198152600490fd5b604051632418411f60e11b8152600490fd5b6040516208978560e71b8152600490fd5b34610510576060366003190112610510576004356108a78161063c565b6024356108b38161063c565b604435906108c433610692856119a3565b5492600184016108e5575b6108d99350612fcd565b60405160018152602090f35b828410610901576108fc836108d995033383614125565b6108cf565b604051637dc7a0d960e11b81523360048201526024810185905260448101849052606490fd5b34610510576020366003190112610510576004355f525f805160206154948339815191526020526020600160405f200154604051908152f35b34610510575f366003190112610510576001546040516001600160a01b039091168152602090f35b34610510575f366003190112610510576109a0612b62565b8015610a015760015465ffffffffffff8160a01c16915f1981019081116109fc576109ce9160d01c9061295d565b81018091116109fc576109e36105b39161312c565b60405165ffffffffffff90911681529081906020820190565b61292e565b604051639fa56a5b60e01b8152600490fd5b600435906001600160401b038216820361051057565b9181601f84011215610510578235916001600160401b038311610510576020838186019501011161051057565b3461051057604036600319011261051057610a6f610a13565b6001600160401b0360243581811161051057610a8f903690600401610a29565b929091610a9a612e0e565b7f00000000000000000000000000000000000000000000000000000000000000006001600160a01b03163303610b14575f805160206154d4833981519152549060ff8260401c16928315610b04575b5050501561315e575b60405163f92ee8a960e01b8152600490fd5b81169116101590505f8080610ae9565b604051631966391b60e11b8152600490fd5b65ffffffffffff81160361051057565b634e487b7160e01b5f52604160045260245ffd5b606081019081106001600160401b03821117610b6557604052565b610b36565b604081019081106001600160401b03821117610b6557604052565b90601f801991011681019081106001600160401b03821117610b6557604052565b6040519061016082018281106001600160401b03821117610b6557604052565b60405190610bd382610b6a565b565b6001600160401b038111610b6557601f01601f191660200190565b929192610bfc82610bd5565b91610c0a6040519384610b85565b829481845281830111610510578281602093845f960137010152565b9080601f830112156105105781602061054993359101610bf0565b3461051057606036600319011261051057600435610c5e8161063c565b60243590610c6b82610b26565b604435906001600160401b03821161051057602092610c91610763933690600401610c26565b6001600160a01b039092165f908152600e855260409020613330565b34610510575f366003190112610510576040517f00000000000000000000000000000000000000000000000000000000000000006001600160a01b03168152602090f35b3461051057604036600319011261051057610d3d602435600435610d148261063c565b805f525f80516020615494833981519152602052610d38600160405f200154613507565b613807565b005b34610510575f366003190112610510575f5460405163313ce56760e01b8152906020908290600490829060101c6001600160a01b03165afa8015610dd2575f90610d94575b60405160ff919091168152602090f35b506020813d602011610dca575b81610dae60209383610b85565b81010312610510575160ff81168103610510576105b390610d84565b3d9150610da1565b6129ac565b3461051057604036600319011261051057602435610df48161063c565b336001600160a01b03821603610e1057610d3d9060043561383d565b60405163334bd91960e11b8152600490fd5b34610510575f3660031901126105105760ff60025460a01c1680610e4e575b6020906040519015158152f35b5060035460a01c60ff16610e41565b8015150361051057565b3461051057602036600319011261051057600435610e8481610e5d565b610e8c612e0e565b610e946133fc565b5f54901515908160ff8216151514610ef05760ff191660ff8216175f556040519081527f3e12b7b36c75ac9609a3f58609b331210428e1a85909132638955ba0301eec3390602090a160015f805160206154b483398151915255005b60405163a741a04560e01b8152600490fd5b34610510575f36600319011261051057602065ffffffffffff60015460a01c16604051908152f35b3461051057604080600319360112610510576004803591610f4a8361063c565b610f52612e0e565b6001600160a01b0391838316908115611204575f5460ff8116806111eb575b6111dc5783516370a0823160e01b808252308483019081529096602093909160109190911c82169084908490819083010381845afa928315610dd2575f936111b9575b50610fc6906024359030903390614535565b5f5486519788523085890190815290979184918391908290819060200103918b60101c165afa908115610dd257611005935f9261118c575b5050612950565b93841561117d5760081c60ff1680611168575b61115a5750906105b3916110c961102d614064565b95611076611039613feb565b6110616110478a838b61414c565b9961105b8a6110554261312c565b9261297e565b90613c86565b5050611070896110554261312c565b90613d66565b50506001600160a01b0381165f908152600e60205260409020906110c3886110be6107f46110a34261312c565b6001600160a01b039095165f908152600e6020526040902090565b61297e565b91613e42565b5050815184815260208101869052819033907fdcbc1c05240f31ff3ad067ef1ee35ce4997762752e3a095284754544f4c709d790604090a361111760015f805160206154b483398151915255565b81518581525f907fddf252ad1be2c89b69c2b068fc378daa952ba7f163c4a11628f55a4df523b3ef90602090a35191825260208201929092529081906040820190565b8251632484557960e01b8152fd5b50611175846110be614064565b815410611018565b50825163070f6eed60e11b8152fd5b6111ab9250803d106111b2575b6111a38183610b85565b8101906138cf565b5f80610ffe565b503d611199565b610fc69193506111d590853d87116111b2576111a38183610b85565b9290610fb4565b5082516304f63b8560e01b8152fd5b50335f9081526005602052604090205460ff1615610f71565b8251630d534ce360e11b8152fd5b34610510575f36600319011261051057602060ff5f54166040519015158152f35b34610510575f36600319011261051057602060015460d01c604051908152f35b34610510575f36600319011261051057602060ff60025460a01c166040519015158152f35b9060406003198301126105105760043561129181610b26565b91602435906001600160401b0382116105105761054991600401610c26565b346105105760206107636112c336611278565b9061319a565b34610510576020366003190112610510576004356112e681610e5d565b6112ee612e0e565b6112f6613459565b5f54901515908160ff8260081c16151514610ef05761ff001916600882901b61ff0016175f556040519081527ffa7a25a0b611d4ba3c0ea990e90dc23d484a5dd7a1be4733fef2946ba74530c690602090a1610d3d60015f805160206154b483398151915255565b34610510575f3660031901126105105760206001600160401b035f805160206154d48339815191525416604051908152f35b34610510576060366003190112610510576113a9610a13565b6024356113b58161063c565b6001600160401b0391604435838111610510576113d6903690600401610a29565b5f805160206154d48339815191529491855494838616806114b75760ff8760401c169081156114aa575b50610af2577fc7f505b2f371ae2175ee4913f4499e1f2633a7b5936321eed1cdaeb6115181d2966114a59661146d958716906001600160401b0319161790556114685f805160206154d4833981519152600160401b68ff000000000000000019825416179055565b6129b7565b5f805160206154d4833981519152805468ff0000000000000000191690556040516001600160401b0390911681529081906020820190565b0390a1005b905084861611155f611400565b60405162dc149f60e41b8152600490fd5b346105105760203660031901126105105760206107636004356114ea8161063c565b612acb565b34610510576020366003190112610510576004355f526006602052602060405f2054604051908152f35b34610510575f3660031901126105105760015465ffffffffffff61154f818360a01c1692611545612b62565b9060d01c9061295d565b82018092116109fc5761156360209261312c565b60405191168152f35b34610510575f366003190112610510576040517f00000000000000000000000000000000000000000000000000000000000000006001600160a01b03168152602090f35b34610510575f36600319011261051057602060ff60035460a01c166040519015158152f35b34610510576020366003190112610510576004356115f28161063c565b60018060a01b03165f52600e602052602061076360405f206140d8565b34610510575f36600319011261051057611627613abb565b5f8051602061543483398151915280546001600160a01b031981169091555f906001600160a01b03167f8be0079c531659141344cd1fd0a4f28419497f9722a3daafe3b4186f6b6457e08280a3005b346105105760403660031901126105105760043560243561169681610b26565b61169e612e0e565b6003546116bb906001600160a01b03165b6001600160a01b031690565b3303611936576116c9612b62565b906116d381612b96565b9082151580611925575b801561191c575b61190a576105b3937ff9d090c096f71cd1659861a9ce5b6f384bceb4e2fa4e4a19edf6489a9b8d56c792611716614064565b9461173161172382612970565b5f52600660205260405f2090565b54908281036118245750611745818761297e565b8381188185100281189687806117dd575b50505050505b836117a9575b6040805191825265ffffffffffff929092166020820152908101839052606090a161179960015f805160206154b483398151915255565b6040519081529081906020820190565b5f546117d89085906117c69060101c6001600160a01b03166116af565b6001546001600160a01b031690613f00565b611762565b61181993610ffe8361105b6118036117fc611723986118139888613afd565b8096612950565b9461180d4261312c565b92612950565b92612970565b555f80808087611756565b9150611838825f52600660205260405f2090565b5490611848816110be848a61297e565b908482188286100282189788611863575b505050505061175c565b6118d8938361188b936118988c6118936118816118c9998884613afd565b9788958584613afd565b948592612950565b612950565b938484106118e3575b610ffe9061105b6118b795969761180d4261312c565b6118c361172387612970565b55612950565b915f52600660205260405f2090565b555f80808080611859565b916118ff610ffe916118f9866118b79798612950565b9061297e565b8594509290506118a1565b604051635e18d2a560e01b8152600490fd5b508282116116e4565b5061192f83612942565b82106116dd565b60405163dabc4ad960e01b8152600490fd5b34610510575f3660031901126105105760015465ffffffffffff808260a01c1691611971612b62565b600181018091116109fc5761154f9160d01c9061295d565b34610510575f366003190112610510576020610763612b62565b6001600160a01b03165f9081527f52c63247e1f47db19d5ce0460030c497f067ca4cebf71ba98eeadabe20bace016020526040902090565b34610510576020366003190112610510576004356119f88161063c565b60018060a01b03165f526005602052602060ff60405f2054166040519015158152f35b34610510576020366003190112610510576020610763600435611a3d81610b26565b612b96565b3461051057604036600319011261051057600435611a5f8161063c565b6024356001600160401b038082116105105736602383011215610510578160040135908111610510573660248260051b84010111610510576105b3926024611799930190612bd1565b34610510576020610763611abb36611278565b9061327b565b3461051057602080600319360112610510576004803590611ae18261063c565b611ae9612e0e565b60025460a01c60ff16611c6b576040516302910f8b60e31b81526001600160a01b03838116838301908152909491908290829081906020010381887f0000000000000000000000000000000000000000000000000000000000000000165afa908115610dd2575f91611c3e575b5015611c2e5760405163fbfa77cf60e01b8152838516949082818581895afa928315610dd2575f93611bff575b505030911603611bf05750600280546001600160a01b03929092166001600160a81b031990921691909117600160a01b1790557fdb2160616f776a37b24808115554e79439bf26cccbbd4438190cc6d28e80ecd15f80a2610d3d60015f805160206154b483398151915255565b60405163b9f0f17160e01b8152fd5b611c1f929350803d10611c27575b611c178183610b85565b810190612d2a565b905f80611b83565b503d611c0d565b506040516324e5af8d60e21b8152fd5b611c5e9150823d8411611c64575b611c568183610b85565b810190612d0a565b5f611b56565b503d611c4c565b604051631380833b60e01b8152fd5b34610510575f366003190112610510576040517f00000000000000000000000000000000000000000000000000000000000000006001600160a01b03168152602090f35b34610510575f36600319011261051057611cd6612b62565b611cde614064565b90805f52600660205260405f205482018092116109fc57600181018091116109fc575f52600660205260405f205481018091116109fc57602090604051908152f35b34610510575f366003190112610510575f80516020615434833981519152546040516001600160a01b039091168152602090f35b3461051057604036600319011261051057602060ff611da6602435611d788161063c565b6004355f525f80516020615494833981519152845260405f209060018060a01b03165f5260205260405f2090565b54166040519015158152f35b34610510575f366003190112610510576040515f5f80516020615414833981519152805490611de0826128f6565b8085529160209160019182811690811561060f5750600114611e0c576105b3866105a781880382610b85565b5f90815293507f46a2803e59a4de4e7a4c574b1243f25977ac4c77d5a1a4a609b5394cebb4a2aa5b838510611e51575050505081016020016105a7826105b35f610597565b8054868601840152938201938101611e34565b346105105760408060031936011261051057600435611e828161063c565b602435906001600160401b038211610510575f8091611ea8611f0c943690600401610a29565b908187519283928337810184815203915af43d15611f1457611efe3d611ecd81610bd5565b90611eda86519283610b85565b81523d5f602083013e5b845194859315156020850152808401526060830190610514565b03601f198101835282610b85565b805190602001fd5b611efe6060611ee4565b34610510575f36600319011261051057602060ff5f5460081c166040519015158152f35b34610510575f3660031901126105105760206040515f8152f35b34610510575f3660031901126105105760206040517f4a634bc14d77baf979756509ef4298c6f6318af357828612545267ee2eb792338152f35b3461051057604036600319011261051057600435611fb38161063c565b602435611fbf81610e5d565b611fc7612e0e565b611fcf6134b0565b6001600160a01b038216918215612077575f8381526005602052604090205460ff16151582151514610ef0576001600160a01b03165f9081526005602052604090207ff991b1ecfb5115cbb36a2b2e2240c058406d2acc2fcc6e9e2dc99d845ff70a629161205e9161204c908260ff801983541691151516179055565b60405190151581529081906020820190565b0390a2610d3d60015f805160206154b483398151915255565b604051630da30f6560e31b8152600490fd5b346105105760403660031901126105105760206120cd6024356120ab8161063c565b6004355f526008835260405f209060018060a01b03165f5260205260405f2090565b54604051908152f35b3461051057604036600319011261051057602060ff611da66024356120fa8161063c565b6004355f526009845260405f209060018060a01b03165f5260205260405f2090565b346105105760403660031901126105105761214660043561213c8161063c565b6024359033612fcd565b602060405160018152f35b34610510576020806003193601126105105760048035906121718261063c565b612179612e0e565b60035460a01c60ff166122f9576001600160a01b038281169390846121e7575b6003805460ff60a01b1916600160a01b179055847fe7e4c932e03abddfe20f83af42c33627e816115c7ec2b168441f65dc14bfc3ba5f80a2610d3d60015f805160206154b483398151915255565b6040516302910f8b60e31b81526001600160a01b0385168482019081528390829081906020010381857f0000000000000000000000000000000000000000000000000000000000000000165afa908115610dd2575f916122dc575b50156122cb5760405163fbfa77cf60e01b815282818581895afa928315610dd2575f936122ac575b50503091160361229d5750600380546001600160a01b0319166001600160a01b039092169190911790555f808080612199565b604051633f3e089160e21b8152fd5b6122c3929350803d10611c2757611c178183610b85565b905f8061226a565b60405163dabc4ad960e01b81528390fd5b6122f39150833d8511611c6457611c568183610b85565b5f612242565b60405163703fe2e560e01b8152fd5b34610510576040366003190112610510576004356123258161063c565b60243590612331612e0e565b6001600160a01b03918183169081156123b7576123626105b39461235483613f4f565b9485915f5460101c16613f00565b604080519182526020820184905233917f865ca08d59f5cb456e85cd2f7ef63664ea4f73327414e9d8152c4158b0e946459190a360015f805160206154b4833981519152556040519081529081906020820190565b604051634e46966960e11b8152600490fd5b34610510576020366003190112610510576004355f526007602052602060405f2054604051908152f35b34610510575f366003190112610510576003546040516001600160a01b039091168152602090f35b34610510575f366003190112610510576020610763614064565b3461051057602036600319011261051057600435612451612e0e565b335f9081527f2d4ccbfe9f7672a6f2537c1e5bce6adacb73706879154bbab6ce096012d6721660205260409020547f4a634bc14d77baf979756509ef4298c6f6318af357828612545267ee2eb792339060ff16156124f557508060045414610ef0576020817f854df3eb95564502c8bc871ebdd15310ee26270f955f6c6bd8cea68e75045bc092600455604051908152a160015f805160206154b483398151915255005b6044906040519063e2517d3f60e01b82523360048301526024820152fd5b34610510576020366003190112610510576004356125308161063c565b612538612b62565b61254182612acb565b9161254c8183612db0565b83018093116109fc57600182018092116109fc5761256991612db0565b81018091116109fc57602090604051908152f35b34610510575f366003190112610510576002546040516001600160a01b039091168152602090f35b3461051057604036600319011261051057610d3d6024356004356125c88261063c565b805f525f805160206154948339815191526020526125ec600160405f200154613507565b61383d565b34610510575f366003190112610510575f5460405160109190911c6001600160a01b03168152602090f35b34610510575f3660031901126105105760206040517fbae4ee3de6c709ff9a002e774c5b78cb381560b219213c88ae0f1e207c03c0238152f35b346105105760403660031901126105105760206120cd6004356126788161063c565b610692602435916126888361063c565b6119a3565b34610510575f366003190112610510576020600454604051908152f35b34610510576060366003190112610510576004356126c78161063c565b602435906126d482610b26565b6001600160401b0391604435838111610510576126f5903690600401610a29565b9092604093845161270581610b4a565b60608152606060208201526060868201529280612764575b6105b386612755878761274f612736898484519161298b565b928561274660208501518361327b565b9301519061319a565b9161414c565b90519081529081906020820190565b8101939250602081850312610510578035908682116105105701926060848203126105105784519561279587610b4a565b843581811161051057826127aa918701610c26565b8752602085013581811161051057826127c4918701610c26565b602088015285850135908111610510576105b3966127ed61274f93612736936127559801610c26565b8782015293945061271d565b3461051057602036600319011261051057610d3d6004356128198161063c565b612821613abb565b612d3f565b34610510576040366003190112610510576004356128438161063c565b60243561284e612e0e565b6001600160a01b038216156108795780156128ba5761287d61286e613feb565b612876614064565b9083614bfe565b335f908152600e60205260409020909290612897906140d8565b83116128a85761082a918391612e3d565b6040516321727a3760e11b8152600490fd5b604051636c6c627d60e11b8152600490fd5b346105105760403660031901126105105760206107636024356128ee8161063c565b600435612db0565b90600182811c92168015612924575b602083101461291057565b634e487b7160e01b5f52602260045260245ffd5b91607f1691612905565b634e487b7160e01b5f52601160045260245ffd5b5f198101919082116109fc57565b919082039182116109fc57565b818102929181159184041417156109fc57565b90600182018092116109fc57565b919082018092116109fc57565b6001600160a01b03165f908152600e60205260409020610549929190613330565b6040513d5f823e3d90fd5b916129f4926129c461458d565b6129cc61458d565b60015f805160206154b4833981519152556001600160a01b038116612ab1575b503691610bf0565b80516020908201818101828483031261051057828401516001600160401b039485821161051057019283926101a093849103126105105760405193612a3885610b4a565b612a44838383016138e9565b8552610180810151868111610510578383612a61928401016139b2565b9382860194855281015195861161051057612a89612aa89383610bd398612aa39401016139b2565b94604081019586525191611efe60405193849283016139f8565b6145d0565b5190519061498c565b612ac590612abd61458d565b61282161458d565b5f6129ec565b6001600160a01b03165f908152600e60205260409020612aea906140d8565b612af2614064565b612afa613feb565b90600181018091116109fc57600182018092116109fc5761054992613afd565b65ffffffffffff91821690821603919082116109fc57565b634e487b7160e01b5f52601260045260245ffd5b9065ffffffffffff809116918215612b5d57160490565b612b32565b612b6b4261312c565b612b92600154612b8865ffffffffffff93848360a01c1690612b1a565b9060d01c90612b46565b1690565b6001549065ffffffffffff91828160a01c16918284821610612bbf57612b9292612b8891612b1a565b60405163b7d0949760e01b8152600490fd5b90612bda612e0e565b5f926001600160a01b0383169283156123b7578115612c92575f5b828110612c7057505f547f326b6aff1cd2fb1c8234de4f9dcfb9047c5c36eb9ef2eb34af5121e969a75d279286929091612c45918491612c409060101c6001600160a01b03166116af565b613f00565b612c56604051928392339684612ccd565b0390a390610bd360015f805160206154b483398151915255565b94612c8b6001916118f9612c85898789612cb8565b35613f4f565b9501612bf5565b60405163edf3b93360e01b8152600490fd5b634e487b7160e01b5f52603260045260245ffd5b9190811015612cc85760051b0190565b612ca4565b604080825281018390529392916001600160fb1b0381116105105760209160609160051b809183880137850101930152565b5190610bd382610e5d565b90816020910312610510575161054981610e5d565b5190610bd38261063c565b9081602091031261051057516105498161063c565b6001600160a01b03908116908115612d98575f8051602061543483398151915280546001600160a01b031981168417909155167f8be0079c531659141344cd1fd0a4f28419497f9722a3daafe3b4186f6b6457e05f80a3565b604051631e4fbdf760e01b81525f6004820152602490fd5b90612dd690825f52600860205260405f209060018060a01b03165f5260205260405f2090565b54905f52600660205260405f2054600760205260405f205490600181018091116109fc57600182018092116109fc5761054992613afd565b5f805160206154b48339815191526002815414612e2b5760029055565b604051633ee5aeb560e01b8152600490fd5b335f908152600e6020526040812093949390929190612e7c90612e5f4261312c565b335f908152600e602052604090206110c3908990611893906140d8565b5050612e96612e8a4261312c565b61107087611893613feb565b5050612eb0612ea44261312c565b61105b84611893614064565b505081612f4282610692612eca612ec5612b62565b612970565b612f21612edf825f52600660205260405f2090565b54612ef2835f52600760205260405f2090565b54612f09612f0183838b61414c565b9a8b9361297e565b612f1b855f52600660205260405f2090565b5561297e565b612f33825f52600760205260405f2090565b555f52600860205260405f2090565b612f4d84825461297e565b9055604080519182526020820187905281018390526001600160a01b03919091169033907febff2602b3f468259e1e99f613fed6691f3a6526effe6ef3e768ba7ae7a36c4f90606090a36040519384529233907fddf252ad1be2c89b69c2b068fc378daa952ba7f163c4a11628f55a4df523b3ef9080602081015b0390a3565b916001600160a01b03808416929083156131145781169384156130fc576001600160a01b0381165f908152600e6020526040902061300a906140d8565b908382106130ca57612fc89261306c7fddf252ad1be2c89b69c2b068fc378daa952ba7f163c4a11628f55a4df523b3ef95936130596130b89460018060a01b03165f52600e60205260405f2090565b90856130644261312c565b910391613e42565b50506001600160a01b0381165f908152600e6020526040902090836130b16107f46130964261312c565b6001600160a01b039094165f908152600e6020526040902090565b0191613e42565b50506040519081529081906020820190565b60405163391434e360e21b81526001600160a01b03919091166004820152602481019190915260448101839052606490fd5b60405163ec442f0560e01b81525f6004820152602490fd5b604051634b637e8f60e11b81525f6004820152602490fd5b65ffffffffffff9081811161313f571690565b604490604051906306dfcc6560e41b8252603060048301526024820152fd5b610510913691610bf0565b90816020910312610510575163ffffffff811681036105105790565b90600163ffffffff809316019182116109fc57565b9080511561327157806020806131b593518301019101613169565b6131be816143bd565b906131cf825165ffffffffffff1690565b9065ffffffffffff80851692168281146132655782119182613205575b50506131fc57506105499061416d565b60209150015190565b909150613213600a54612942565b63ffffffff83161491821561322c575b50505f806131ec565b61325d91925061324661324161325292613185565b6143bd565b5165ffffffffffff1690565b65ffffffffffff1690565b115f80613223565b50505060209150015190565b506105499061416d565b90805115613326578060208061329693518301019101613169565b61329f81614447565b906132b0825165ffffffffffff1690565b9065ffffffffffff808516921682811461326557821191826132dd575b50506131fc575061054990614234565b9091506132eb600c54612942565b63ffffffff831614918215613304575b50505f806132cd565b61331e91925061324661331961325292613185565b614447565b115f806132fb565b5061054990614234565b918051156133f2578060208061334b93518301019101613169565b9161335683826144c7565b92613367845165ffffffffffff1690565b9065ffffffffffff80851692168281146133e6578211918261339d575b50506133945761054992506142f4565b50506020015190565b9091506133aa8354612942565b63ffffffff8316149182156133c3575b50505f80613384565b6133de9192506132466133d861325292613185565b856144c7565b115f806133ba565b50505050506020015190565b50610549916142f4565b335f9081527f03b26b53c87faa1058f30bb5d2fee64f717719a0d9b7e4f4df027aa5e9b6ed69602052604090207fbae4ee3de6c709ff9a002e774c5b78cb381560b219213c88ae0f1e207c03c0239060ff905b5416156124f55750565b335f9081527fe41986b390c4ce6791b87f7423b5fab7a81a0e6d89660b6264f697d008b2243a602052604090207fc6aaadd7371d5e8f9ed6849dd66a66573a3ba37167d03f4352c9ba5693678fac9060ff9061344f565b335f9081527f0287ab4cb376ea253d7b2ce0c2cbf458f7deae9458470d74afdfbbee484e9540602052604090207f9c56d972d63cbb4195b3c1484691dfc220fa96a4c47e7b6613bd82a022029e069060ff9061344f565b5f8181525f8051602061549483398151915260209081526040808320338452909152902060ff9061344f565b6001600160a01b0381165f9081527fb7db2dd08fcb62d0c9e08c51941cae53c267786a0b75803fb7960902fc8ef97d60205260409020545f805160206154948339815191529060ff166135de575f808052602091825260408082206001600160a01b038516835290925220805460ff1916600117905533906001600160a01b03165f7f2f8788117e7eff1d82e926ec794901d17c78024a50270940304540a733656f0d8180a4600190565b50505f90565b6001600160a01b0381165f9081527f03b26b53c87faa1058f30bb5d2fee64f717719a0d9b7e4f4df027aa5e9b6ed69602052604090207fbae4ee3de6c709ff9a002e774c5b78cb381560b219213c88ae0f1e207c03c023905f805160206154948339815191529060ff905b54166136b3575f828152602091825260408082206001600160a01b038616835290925220805460ff1916600117905533916001600160a01b0316907f2f8788117e7eff1d82e926ec794901d17c78024a50270940304540a733656f0d5f80a4600190565b5050505f90565b6001600160a01b0381165f9081527f0287ab4cb376ea253d7b2ce0c2cbf458f7deae9458470d74afdfbbee484e9540602052604090207f9c56d972d63cbb4195b3c1484691dfc220fa96a4c47e7b6613bd82a022029e06905f805160206154948339815191529060ff9061364f565b6001600160a01b0381165f9081527fe41986b390c4ce6791b87f7423b5fab7a81a0e6d89660b6264f697d008b2243a602052604090207fc6aaadd7371d5e8f9ed6849dd66a66573a3ba37167d03f4352c9ba5693678fac905f805160206154948339815191529060ff9061364f565b6001600160a01b0381165f9081527f2d4ccbfe9f7672a6f2537c1e5bce6adacb73706879154bbab6ce096012d67216602052604090207f4a634bc14d77baf979756509ef4298c6f6318af357828612545267ee2eb79233905f805160206154948339815191529060ff9061364f565b5f8181525f80516020615494833981519152602081815260408084206001600160a01b038716855290915290912060ff9061364f565b5f8181525f80516020615494833981519152602081815260408084206001600160a01b03871685529091529091205460ff16156136b3575f828152602091825260408082206001600160a01b038616835290925220805460ff1916905533916001600160a01b0316907ff6391f5c32d9c69d2a47ea670b442974b53935d1edc7fd64eb21e047a839171b5f80a4600190565b90816020910312610510575190565b5190610bd382610b26565b919082610160910312610510576138fe610ba6565b9161390881612d1f565b835261391660208201612d1f565b6020840152613927604082016138de565b604084015261393860608201612cff565b606084015261394960808201612cff565b608084015260a081015160a084015261396460c08201612d1f565b60c084015261397560e08201612d1f565b60e0840152610100613988818301612d1f565b9084015261012061399a818301612d1f565b908401526139ac610140809201612d1f565b90830152565b81601f82011215610510578051906139c982610bd5565b926139d76040519485610b85565b8284526020838301011161051057815f9260208093018386015e8301015290565b81516001600160a01b0316815261016081019291610bd391906020818101516001600160a01b03169083015260408181015165ffffffffffff169083015260608181015115159083015260808181015115159083015260a0818101519083015260c0808201516001600160a01b03169083015260e0818101516001600160a01b031690830152610100818101516001600160a01b031690830152610120818101516001600160a01b031690830152610140908101516001600160a01b0316910152565b5f80516020615434833981519152546001600160a01b03163303613adb57565b60405163118cdaa760e01b8152336004820152602490fd5b8115612b5d570490565b91818302915f1981850993838086109503948086039514613b7d5784831115613b705790829109815f038216809204600280826003021880830282030280830282030280830282030280830282030280830282030280920290030293600183805f03040190848311900302920304170290565b8215600302601118614ab1565b5050906105499250613af3565b600b54811015612cc857600b5f525f8051602061547483398151915201905f90565b600d54811015612cc857600d5f525f8051602061545483398151915201905f90565b8054821015612cc8575f5260205f2001905f90565b600d54600160401b811015610b65576001810180600d55811015612cc857600d5f525f805160206154548339815191520155565b600b54600160401b811015610b65576001810180600b55811015612cc857600b5f525f805160206154748339815191520155565b90815491600160401b831015610b655782613c6e916001610bd395018155613bce565b90919082549060031b91821b915f19901b1916179055565b919091600d9081548015613d31575b50613c9e614ac1565b50929091815492613cad614064565b9481613d1c575b5015613cf957505f1982018281116109fc5781541115612cc8575f527fd7b6990105719101dabeb77144f2a3385c8033acd3af97e9423a695e81ad1eb4018390559190565b613d0d926001600160d01b03169150614f2b565b5050613d1883613be3565b9190565b65ffffffffffff83811691161490505f613cb4565b600160401b811015610b655760018101808455811015612cc8575f908382525f8051602061545483398151915201555f613c95565b919091600b9081548015613e0d575b50613d7e614b16565b50929091815492613d8d613feb565b9481613df8575b5015613dd957505f1982018281116109fc5781541115612cc8575f527f0175b7a638427703f0dbe7bb9bbf987a2551717b34e79f33b5b1008d1fa01db8018390559190565b613ded926001600160d01b03169150614ffb565b5050613d1883613c17565b65ffffffffffff83811691161490505f613d94565b600160401b811015610b655760018101808455811015612cc8575f908382525f8051602061547483398151915201555f613d75565b90929192600182019081548015613ed0575b5084613e5f84614b6b565b50949092845493613e6f836140d8565b9681613ebb575b5015613e98575050505f1981019081116109fc57613c6e8591613d1893613bce565b613d18949293613eb4926001600160d01b03909116919061509a565b5050613c4b565b65ffffffffffff83811691161490505f613e76565b600160401b811015610b6557806001613eec9201845583613bce565b8154905f199060031b1b191690555f613e54565b60405163a9059cbb60e01b60208201526001600160a01b03909216602483015260448083019390935291815260808101916001600160401b03831182841017610b6557610bd392604052614ba4565b90613f58612b62565b821015613fd9575f82815260096020908152604080832033845290915290205460ff16613fc757613f893383612db0565b918215613fb5575f9081526009602090815260408083203384529091529020805460ff19166001179055565b6040516366c0bcbf60e11b8152600490fd5b604051630c8d9eab60e31b8152600490fd5b60405163d5b25b6360e01b8152600490fd5b600a548061402b57505f5b6001600160d01b0381161561402657600b54811015612cc857600b5f525f80516020615474833981519152015490565b505f90565b805f198101116109fc57600a5f527fc65a7bb8d6351c1cf70c95a316cc6a92839c986682d98bc35f958f4883f9d2a7015460301c613ff6565b600c548061409f57505f5b6001600160d01b0381161561402657600d54811015612cc857600d5f525f80516020615454833981519152015490565b805f198101116109fc57600c5f527fdf6966c971051c3d54ec59162606531493a51404a002842f56009d7e5cf4a8c6015460301c61406f565b80548061410757505f5b6001600160d01b038116156135de5760016140fd9201613bce565b90549060031b1c90565b5f199080828101116109fc57825f5260205f2001015460301c6140e2565b906001600160a01b03808316156106f7578116156106df57610692614149926119a3565b55565b9190600181018091116109fc57600182018092116109fc5761054992613afd565b600a54905f8291600584116141db575b614187935061527f565b806141aa57505f5b6001600160d01b03811615614026576140fd61054991613b8a565b6141cf6141b96141d692612942565b600a5f525f805160206153f48339815191520190565b5460301c90565b61418f565b91926141e681615154565b81039081116109fc5761418793600a5f5265ffffffffffff80835f805160206153f4833981519152015416908516105f1461422257509161417d565b92915061422e90612970565b9061417d565b600c54905f82916005841161429b575b61424e93506152e8565b8061427157505f5b6001600160d01b03811615614026576140fd61054991613bac565b6141cf61428061429692612942565b600c5f525f805160206153b48339815191520190565b614256565b91926142a681615154565b81039081116109fc5761424e93600c5f5265ffffffffffff80835f805160206153b4833981519152015416908516105f146142e2575091614244565b9291506142ee90612970565b90614244565b908154905f829160058411614357575b61430f935084615351565b8061433757505f905b6001600160d01b038216156135de576105499160016140fd9201613bce565b6141cf61434661435192612942565b835f5260205f200190565b90614318565b919261436281615154565b81039081116109fc5761430f93855f5265ffffffffffff808360205f20015416908516105f14614393575091614304565b92915061439f90612970565b90614304565b604051906143b282610b6a565b5f6020838281520152565b6143c56143a5565b506143ce6143a5565b50600a54811015612cc857600a5f526020604051916143ec83610b6a565b5f805160206153f483398151915201549165ffffffffffff83169283825260301c9182910152600b54811015612cc857600b5f525f8051602061547483398151915201546040519161443d83610b6a565b8252602082015290565b61444f6143a5565b506144586143a5565b50600c54811015612cc857600c5f5260206040519161447683610b6a565b5f805160206153b483398151915201549165ffffffffffff83169283825260301c9182910152600d54811015612cc857600d5f525f8051602061545483398151915201546040519161443d83610b6a565b90602060016144eb614517936144db6143a5565b506144e46143a5565b5085613bce565b5093604051946144fa86610b6a565b549465ffffffffffff86169586825260301c938491015201613bce565b9054906040519261452784610b6a565b835260031b1c602082015290565b6040516323b872dd60e01b60208201526001600160a01b03928316602482015292909116604483015260648083019390935291815260a08101918183106001600160401b03841117610b6557610bd392604052614ba4565b60ff5f805160206154d48339815191525460401c16156145a957565b604051631afcd79f60e31b8152600490fd5b906101608282031261051057610549916138e9565b6145e390602080825183010191016145bb565b80516001600160a01b03919082161561497a57604080820165ffffffffffff614612825165ffffffffffff1690565b16156149695760c083018051909290614633906001600160a01b03166116af565b1561481a575b5091614766610140926147056146e06147c49661468761465f875160018060a01b031690565b5f805462010000600160b01b03191660109290921b62010000600160b01b0316919091179055565b6020860151600180546001600160a01b0319166001600160a01b039092169190911790556132466146b74261312c565b6001805465ffffffffffff60a01b191660a09290921b65ffffffffffff60a01b16919091179055565b600180546001600160d01b031660d09290921b6001600160d01b031916919091179055565b6147256147156060850151151590565b60ff80195f541691151516175f55565b61474c6147356080850151151590565b61ff005f5491151560081b169061ff001916175f55565b61475960a0840151600455565b516001600160a01b031690565b84811661480a575b5060e08101516001600160a01b03168481166147fa575b506101008101516001600160a01b03168481166147ea575b506101208101516001600160a01b03168481166147da575b5001516001600160a01b031690565b9081166147ce5750565b6147d790613798565b50565b6147e390613729565b505f6147b5565b6147f3906136ba565b505f61479d565b614803906135e4565b505f614785565b61481390613533565b505f61476e565b60e0840151614831906001600160a01b03166116af565b15614906575b61012084015161484f906001600160a01b03166116af565b614639576080840151156148bc5760a0840151158061489d575b61488d575091614766610140926147056146e06147c4965b94965050509250614639565b5163183c854560e21b8152600490fd5b506101408401516148b6906001600160a01b03166116af565b15614869565b60a0840151158015906148e6575b61488d575091614766610140926147056146e06147c496614881565b506101408401516148ff906001600160a01b03166116af565b15156148ca565b60608401511561493c57610100840151614928906001600160a01b03166116af565b614837575163183c854560e21b8152600490fd5b610100840151614954906001600160a01b03166116af565b15614837575163183c854560e21b8152600490fd5b81516368f5f8f160e11b8152600490fd5b6040516368f7a67560e11b8152600490fd5b919061499661458d565b61499e61458d565b82516001600160401b038111610b65575f805160206153d4833981519152906149d0816149cb84546128f6565b614c37565b602080601f8311600114614a1757509080614a0592610bd396975f92614a0c575b50508160011b915f199060031b1c19161790565b9055614d29565b015190505f806149f1565b90601f19831696614a555f805160206153d48339815191525f527f2ae08a8e29253f69ac5d979a101956ab8f8d9d7ded63fa7a83b16fc47648eab090565b925f905b898210614a9957505090839291600194610bd3989910614a81575b505050811b019055614d29565b01515f1960f88460031b161c191690555f8080614a74565b80600185968294968601518155019501930190614a59565b634e487b715f526020526024601cfd5b600c5480614ad257505f905f905f90565b805f198101116109fc57600c5f527fdf6966c971051c3d54ec59162606531493a51404a002842f56009d7e5cf4a8c6015460019165ffffffffffff82169160301c90565b600a5480614b2757505f905f905f90565b805f198101116109fc57600a5f527fc65a7bb8d6351c1cf70c95a316cc6a92839c986682d98bc35f958f4883f9d2a7015460019165ffffffffffff82169160301c90565b805480614b7c5750505f905f905f90565b5f199181838101116109fc575f5260205f2001015460019165ffffffffffff82169160301c90565b905f602091828151910182855af1156129ac575f513d614bf557506001600160a01b0381163b155b614bd35750565b604051635274afe760e01b81526001600160a01b039091166004820152602490fd5b60011415614bcc565b9190600181018091116109fc57600182018092116109fc57614c21828285613afd565b928215612b5d5709151581018091116109fc5790565b601f8111614c43575050565b5f805160206153d48339815191525f527f2ae08a8e29253f69ac5d979a101956ab8f8d9d7ded63fa7a83b16fc47648eab0906020601f840160051c83019310614ca6575b601f0160051c01905b818110614c9b575050565b5f8155600101614c90565b9091508190614c87565b601f8111614cbc575050565b5f805160206154148339815191525f527f46a2803e59a4de4e7a4c574b1243f25977ac4c77d5a1a4a609b5394cebb4a2aa906020601f840160051c83019310614d1f575b601f0160051c01905b818110614d14575050565b5f8155600101614d09565b9091508190614d00565b9081516001600160401b038111610b65575f8051602061541483398151915290614d5c81614d5784546128f6565b614cb0565b602080601f8311600114614d9157508190614d8d9394955f92614a0c5750508160011b915f199060031b1c19161790565b9055565b90601f19831695614dcf5f805160206154148339815191525f527f46a2803e59a4de4e7a4c574b1243f25977ac4c77d5a1a4a609b5394cebb4a2aa90565b925f905b888210614e0a57505083600195969710614df2575b505050811b019055565b01515f1960f88460031b161c191690555f8080614de8565b80600185968294968601518155019501930190614dd3565b600c5490600160401b821015610b65576001820180600c55821015612cc857600c5f52805160209091015160301b65ffffffffffff191665ffffffffffff91909116175f805160206153b483398151915290910155565b600a5490600160401b821015610b65576001820180600a55821015612cc857600a5f52805160209091015160301b65ffffffffffff191665ffffffffffff91909116175f805160206153f483398151915290910155565b8054600160401b811015610b6557614eed91600182018155613bce565b614f1857815160209092015160301b65ffffffffffff191665ffffffffffff92909216919091179055565b634e487b7160e01b5f525f60045260245ffd5b600c549192918015614fd257614280614f4391612942565b9081549165ffffffffffff90818416918316808311614fc057869203614f8857614f8192509065ffffffffffff82549181199060301b169116179055565b60301c9190565b5050614fbb90614fa7614f99610bc6565b65ffffffffffff9092168252565b6001600160d01b0385166020820152614e22565b614f81565b604051632520601d60e01b8152600490fd5b50614ff690614fe2614f99610bc6565b6001600160d01b0384166020820152614e22565b5f9190565b600a549192918015615076576141b961501391612942565b9081549165ffffffffffff90818416918316808311614fc05786920361505157614f8192509065ffffffffffff82549181199060301b169116179055565b5050614fbb90615062614f99610bc6565b6001600160d01b0385166020820152614e79565b50614ff690615086614f99610bc6565b6001600160d01b0384166020820152614e79565b8054929392801561512f576150b16150bc91612942565b825f5260205f200190565b9182549265ffffffffffff91828516928116808411614fc0578793036150fb5750614f8192509065ffffffffffff82549181199060301b169116179055565b915050614fbb9161511b61510d610bc6565b65ffffffffffff9093168352565b6001600160d01b0386166020830152614ed0565b5090614ff69161514061510d610bc6565b6001600160d01b0385166020830152614ed0565b600181111561054957600181600160801b81101561526d575b61521561520b6152016151f76151ed6151e361522197600488600160401b61521c9a1015615260575b640100000000811015615253575b62010000811015615246575b61010081101561523a575b601081101561522e575b1015615226575b60030260011c6151dc818b613af3565b0160011c90565b6151dc818a613af3565b6151dc8189613af3565b6151dc8188613af3565b6151dc8187613af3565b6151dc8186613af3565b8093613af3565b821190565b900390565b60011b6151cc565b811c9160021b916151c5565b60081c91811b916151bb565b60101c9160081b916151b0565b60201c9160101b916151a4565b60401c9160201b91615196565b50600160401b9050608082901c61516d565b905b82811061528d57505090565b9091808216906001818418811c83018093116109fc57600a5f5265ffffffffffff80845f805160206153f4833981519152015416908616105f146152d5575050915b90615281565b9093925081018091116109fc57906152cf565b905b8281106152f657505090565b9091808216906001818418811c83018093116109fc57600c5f5265ffffffffffff80845f805160206153b4833981519152015416908616105f1461533e575050915b906152ea565b9093925081018091116109fc5790615338565b91905b8382106153615750505090565b909192808316906001818518811c83018093116109fc57855f5265ffffffffffff808460205f20015416908516105f146153a0575050925b9190615354565b9094935081018091116109fc579161539956fedf6966c971051c3d54ec59162606531493a51404a002842f56009d7e5cf4a8c752c63247e1f47db19d5ce0460030c497f067ca4cebf71ba98eeadabe20bace03c65a7bb8d6351c1cf70c95a316cc6a92839c986682d98bc35f958f4883f9d2a852c63247e1f47db19d5ce0460030c497f067ca4cebf71ba98eeadabe20bace049016d09d72d40fdae2fd8ceac6b6234c7706214fd39c1cd1e609a0528c199300d7b6990105719101dabeb77144f2a3385c8033acd3af97e9423a695e81ad1eb50175b7a638427703f0dbe7bb9bbf987a2551717b34e79f33b5b1008d1fa01db902dd7bc7dec4dceedda775e58dd541e08a116c6c53815c0bd028192f7b6268009b779b17422d0df92223018b32b4d1fa46e071723d6817e2486d003becc55f00f0c57e16840df040f15088dc2f81fe391c3923bec73e23a9662efc9c229c6a00a2646970667358221220b9bc961cf9d9c9c89aa268126ef0b84208d178b706ef9625b4f4a0a71d8201c864736f6c63430008190033","linkReferences":{}},"methodIdentifiers":{"DEFAULT_ADMIN_ROLE()":"a217fddf","DELEGATOR_FACTORY()":"6da3e06d","DEPOSITOR_WHITELIST_ROLE()":"1b66c9e1","DEPOSIT_LIMIT_SET_ROLE()":"a21a1df9","DEPOSIT_WHITELIST_SET_ROLE()":"db388715","FACTORY()":"2dd31000","IS_DEPOSIT_LIMIT_SET_ROLE()":"1415519b","SLASHER_FACTORY()":"87df0788","activeBalanceOf(address)":"59f769a9","activeBalanceOfAt(address,uint48,bytes)":"efb559d6","activeShares()":"bfefcd7b","activeSharesAt(uint48,bytes)":"50f22068","activeSharesOf(address)":"9d66201b","activeSharesOfAt(address,uint48,bytes)":"2d73c69c","activeStake()":"bd49c35f","activeStakeAt(uint48,bytes)":"810da75d","allowance(address,address)":"dd62ed3e","approve(address,uint256)":"095ea7b3","balanceOf(address)":"70a08231","burner()":"27810b6e","claim(address,uint256)":"aad3ec96","claimBatch(address,uint256[])":"7c04c80a","collateral()":"d8dfeb45","currentEpoch()":"76671808","currentEpochStart()":"61a8c8c4","decimals()":"313ce567","delegator()":"ce9b7930","deposit(address,uint256)":"47e7ef24","depositLimit()":"ecf70858","depositWhitelist()":"48d3b775","epochAt(uint48)":"7953b33b","epochDuration()":"4ff0876a","epochDurationInit()":"46361671","getRoleAdmin(bytes32)":"248a9ca3","grantRole(bytes32,address)":"2f2ff15d","hasRole(bytes32,address)":"91d14854","initialize(uint64,address,bytes)":"57ec83cc","isDelegatorInitialized()":"50861adc","isDepositLimit()":"a1b12202","isDepositorWhitelisted(address)":"794b15b7","isInitialized()":"392e53cd","isSlasherInitialized()":"6ec1e3f8","isWithdrawalsClaimed(uint256,address)":"a5d03223","migrate(uint64,bytes)":"2abe3048","name()":"06fdde03","nextEpochStart()":"73790ab3","onSlash(uint256,uint48)":"7278e31c","owner()":"8da5cb5b","previousEpochStart()":"281f5752","redeem(address,uint256)":"1e9a6950","renounceOwnership()":"715018a6","renounceRole(bytes32,address)":"36568abe","revokeRole(bytes32,address)":"d547741f","setDelegator(address)":"83cd9cc3","setDepositLimit(uint256)":"bdc8144b","setDepositWhitelist(bool)":"4105a7dd","setDepositorWhitelistStatus(address,bool)":"a2861466","setIsDepositLimit(bool)":"5346e34f","setSlasher(address)":"aabc2496","slashableBalanceOf(address)":"c31e8dd7","slasher()":"b1344271","staticDelegateCall(address,bytes)":"9f86fd85","supportsInterface(bytes4)":"01ffc9a7","symbol()":"95d89b41","totalStake()":"8b0e9f3f","totalSupply()":"18160ddd","transfer(address,uint256)":"a9059cbb","transferFrom(address,address,uint256)":"23b872dd","transferOwnership(address)":"f2fde38b","version()":"54fd4d50","withdraw(address,uint256)":"f3fef3a3","withdrawalShares(uint256)":"afba70ad","withdrawalSharesOf(uint256,address)":"a3b54172","withdrawals(uint256)":"5cc07076","withdrawalsOf(uint256,address)":"f5e7ee0f"},"id":108}