{"abi":[{"type":"constructor","inputs":[{"name":"delegatorFactory","type":"address","internalType":"address"},{"name":"slasherFactory","type":"address","internalType":"address"},{"name":"vaultFactory","type":"address","internalType":"address"}],"stateMutability":"nonpayable"},{"type":"function","name":"DEFAULT_ADMIN_ROLE","inputs":[],"outputs":[{"name":"","type":"bytes32","internalType":"bytes32"}],"stateMutability":"view"},{"type":"function","name":"DELEGATOR_FACTORY","inputs":[],"outputs":[{"name":"","type":"address","internalType":"address"}],"stateMutability":"view"},{"type":"function","name":"DEPOSITOR_WHITELIST_ROLE","inputs":[],"outputs":[{"name":"","type":"bytes32","internalType":"bytes32"}],"stateMutability":"view"},{"type":"function","name":"DEPOSIT_LIMIT_SET_ROLE","inputs":[],"outputs":[{"name":"","type":"bytes32","internalType":"bytes32"}],"stateMutability":"view"},{"type":"function","name":"DEPOSIT_WHITELIST_SET_ROLE","inputs":[],"outputs":[{"name":"","type":"bytes32","internalType":"bytes32"}],"stateMutability":"view"},{"type":"function","name":"FACTORY","inputs":[],"outputs":[{"name":"","type":"address","internalType":"address"}],"stateMutability":"view"},{"type":"function","name":"IS_DEPOSIT_LIMIT_SET_ROLE","inputs":[],"outputs":[{"name":"","type":"bytes32","internalType":"bytes32"}],"stateMutability":"view"},{"type":"function","name":"SLASHER_FACTORY","inputs":[],"outputs":[{"name":"","type":"address","internalType":"address"}],"stateMutability":"view"},{"type":"function","name":"activeBalanceOf","inputs":[{"name":"account","type":"address","internalType":"address"}],"outputs":[{"name":"","type":"uint256","internalType":"uint256"}],"stateMutability":"view"},{"type":"function","name":"activeBalanceOfAt","inputs":[{"name":"account","type":"address","internalType":"address"},{"name":"timestamp","type":"uint48","internalType":"uint48"},{"name":"hints","type":"bytes","internalType":"bytes"}],"outputs":[{"name":"","type":"uint256","internalType":"uint256"}],"stateMutability":"view"},{"type":"function","name":"activeShares","inputs":[],"outputs":[{"name":"","type":"uint256","internalType":"uint256"}],"stateMutability":"view"},{"type":"function","name":"activeSharesAt","inputs":[{"name":"timestamp","type":"uint48","internalType":"uint48"},{"name":"hint","type":"bytes","internalType":"bytes"}],"outputs":[{"name":"","type":"uint256","internalType":"uint256"}],"stateMutability":"view"},{"type":"function","name":"activeSharesOf","inputs":[{"name":"account","type":"address","internalType":"address"}],"outputs":[{"name":"","type":"uint256","internalType":"uint256"}],"stateMutability":"view"},{"type":"function","name":"activeSharesOfAt","inputs":[{"name":"account","type":"address","internalType":"address"},{"name":"timestamp","type":"uint48","internalType":"uint48"},{"name":"hint","type":"bytes","internalType":"bytes"}],"outputs":[{"name":"","type":"uint256","internalType":"uint256"}],"stateMutability":"view"},{"type":"function","name":"activeStake","inputs":[],"outputs":[{"name":"","type":"uint256","internalType":"uint256"}],"stateMutability":"view"},{"type":"function","name":"activeStakeAt","inputs":[{"name":"timestamp","type":"uint48","internalType":"uint48"},{"name":"hint","type":"bytes","internalType":"bytes"}],"outputs":[{"name":"","type":"uint256","internalType":"uint256"}],"stateMutability":"view"},{"type":"function","name":"allowance","inputs":[{"name":"owner","type":"address","internalType":"address"},{"name":"spender","type":"address","internalType":"address"}],"outputs":[{"name":"","type":"uint256","internalType":"uint256"}],"stateMutability":"view"},{"type":"function","name":"approve","inputs":[{"name":"spender","type":"address","internalType":"address"},{"name":"value","type":"uint256","internalType":"uint256"}],"outputs":[{"name":"","type":"bool","internalType":"bool"}],"stateMutability":"nonpayable"},{"type":"function","name":"balanceOf","inputs":[{"name":"account","type":"address","internalType":"address"}],"outputs":[{"name":"","type":"uint256","internalType":"uint256"}],"stateMutability":"view"},{"type":"function","name":"burner","inputs":[],"outputs":[{"name":"","type":"address","internalType":"address"}],"stateMutability":"view"},{"type":"function","name":"claim","inputs":[{"name":"recipient","type":"address","internalType":"address"},{"name":"epoch","type":"uint256","internalType":"uint256"}],"outputs":[{"name":"amount","type":"uint256","internalType":"uint256"}],"stateMutability":"nonpayable"},{"type":"function","name":"claimBatch","inputs":[{"name":"recipient","type":"address","internalType":"address"},{"name":"epochs","type":"uint256[]","internalType":"uint256[]"}],"outputs":[{"name":"amount","type":"uint256","internalType":"uint256"}],"stateMutability":"nonpayable"},{"type":"function","name":"collateral","inputs":[],"outputs":[{"name":"","type":"address","internalType":"address"}],"stateMutability":"view"},{"type":"function","name":"currentEpoch","inputs":[],"outputs":[{"name":"","type":"uint256","internalType":"uint256"}],"stateMutability":"view"},{"type":"function","name":"currentEpochStart","inputs":[],"outputs":[{"name":"","type":"uint48","internalType":"uint48"}],"stateMutability":"view"},{"type":"function","name":"decimals","inputs":[],"outputs":[{"name":"","type":"uint8","internalType":"uint8"}],"stateMutability":"view"},{"type":"function","name":"delegator","inputs":[],"outputs":[{"name":"","type":"address","internalType":"address"}],"stateMutability":"view"},{"type":"function","name":"deposit","inputs":[{"name":"onBehalfOf","type":"address","internalType":"address"},{"name":"amount","type":"uint256","internalType":"uint256"}],"outputs":[{"name":"depositedAmount","type":"uint256","internalType":"uint256"},{"name":"mintedShares","type":"uint256","internalType":"uint256"}],"stateMutability":"nonpayable"},{"type":"function","name":"depositLimit","inputs":[],"outputs":[{"name":"","type":"uint256","internalType":"uint256"}],"stateMutability":"view"},{"type":"function","name":"depositWhitelist","inputs":[],"outputs":[{"name":"","type":"bool","internalType":"bool"}],"stateMutability":"view"},{"type":"function","name":"epochAt","inputs":[{"name":"timestamp","type":"uint48","internalType":"uint48"}],"outputs":[{"name":"","type":"uint256","internalType":"uint256"}],"stateMutability":"view"},{"type":"function","name":"epochDuration","inputs":[],"outputs":[{"name":"","type":"uint48","internalType":"uint48"}],"stateMutability":"view"},{"type":"function","name":"epochDurationInit","inputs":[],"outputs":[{"name":"","type":"uint48","internalType":"uint48"}],"stateMutability":"view"},{"type":"function","name":"getRoleAdmin","inputs":[{"name":"role","type":"bytes32","internalType":"bytes32"}],"outputs":[{"name":"","type":"bytes32","internalType":"bytes32"}],"stateMutability":"view"},{"type":"function","name":"grantRole","inputs":[{"name":"role","type":"bytes32","internalType":"bytes32"},{"name":"account","type":"address","internalType":"address"}],"outputs":[],"stateMutability":"nonpayable"},{"type":"function","name":"hasRole","inputs":[{"name":"role","type":"bytes32","internalType":"bytes32"},{"name":"account","type":"address","internalType":"address"}],"outputs":[{"name":"","type":"bool","internalType":"bool"}],"stateMutability":"view"},{"type":"function","name":"initialize","inputs":[{"name":"initialVersion","type":"uint64","internalType":"uint64"},{"name":"owner_","type":"address","internalType":"address"},{"name":"data","type":"bytes","internalType":"bytes"}],"outputs":[],"stateMutability":"nonpayable"},{"type":"function","name":"isDelegatorInitialized","inputs":[],"outputs":[{"name":"","type":"bool","internalType":"bool"}],"stateMutability":"view"},{"type":"function","name":"isDepositLimit","inputs":[],"outputs":[{"name":"","type":"bool","internalType":"bool"}],"stateMutability":"view"},{"type":"function","name":"isDepositorWhitelisted","inputs":[{"name":"account","type":"address","internalType":"address"}],"outputs":[{"name":"value","type":"bool","internalType":"bool"}],"stateMutability":"view"},{"type":"function","name":"isInitialized","inputs":[],"outputs":[{"name":"","type":"bool","internalType":"bool"}],"stateMutability":"view"},{"type":"function","name":"isSlasherInitialized","inputs":[],"outputs":[{"name":"","type":"bool","internalType":"bool"}],"stateMutability":"view"},{"type":"function","name":"isWithdrawalsClaimed","inputs":[{"name":"epoch","type":"uint256","internalType":"uint256"},{"name":"account","type":"address","internalType":"address"}],"outputs":[{"name":"value","type":"bool","internalType":"bool"}],"stateMutability":"view"},{"type":"function","name":"migrate","inputs":[{"name":"newVersion","type":"uint64","internalType":"uint64"},{"name":"data","type":"bytes","internalType":"bytes"}],"outputs":[],"stateMutability":"nonpayable"},{"type":"function","name":"name","inputs":[],"outputs":[{"name":"","type":"string","internalType":"string"}],"stateMutability":"view"},{"type":"function","name":"nextEpochStart","inputs":[],"outputs":[{"name":"","type":"uint48","internalType":"uint48"}],"stateMutability":"view"},{"type":"function","name":"onSlash","inputs":[{"name":"amount","type":"uint256","internalType":"uint256"},{"name":"captureTimestamp","type":"uint48","internalType":"uint48"}],"outputs":[{"name":"slashedAmount","type":"uint256","internalType":"uint256"}],"stateMutability":"nonpayable"},{"type":"function","name":"owner","inputs":[],"outputs":[{"name":"","type":"address","internalType":"address"}],"stateMutability":"view"},{"type":"function","name":"previousEpochStart","inputs":[],"outputs":[{"name":"","type":"uint48","internalType":"uint48"}],"stateMutability":"view"},{"type":"function","name":"redeem","inputs":[{"name":"claimer","type":"address","internalType":"address"},{"name":"shares","type":"uint256","internalType":"uint256"}],"outputs":[{"name":"withdrawnAssets","type":"uint256","internalType":"uint256"},{"name":"mintedShares","type":"uint256","internalType":"uint256"}],"stateMutability":"nonpayable"},{"type":"function","name":"renounceOwnership","inputs":[],"outputs":[],"stateMutability":"nonpayable"},{"type":"function","name":"renounceRole","inputs":[{"name":"role","type":"bytes32","internalType":"bytes32"},{"name":"callerConfirmation","type":"address","internalType":"address"}],"outputs":[],"stateMutability":"nonpayable"},{"type":"function","name":"revokeRole","inputs":[{"name":"role","type":"bytes32","internalType":"bytes32"},{"name":"account","type":"address","internalType":"address"}],"outputs":[],"stateMutability":"nonpayable"},{"type":"function","name":"setDelegator","inputs":[{"name":"delegator_","type":"address","internalType":"address"}],"outputs":[],"stateMutability":"nonpayable"},{"type":"function","name":"setDepositLimit","inputs":[{"name":"limit","type":"uint256","internalType":"uint256"}],"outputs":[],"stateMutability":"nonpayable"},{"type":"function","name":"setDepositWhitelist","inputs":[{"name":"status","type":"bool","internalType":"bool"}],"outputs":[],"stateMutability":"nonpayable"},{"type":"function","name":"setDepositorWhitelistStatus","inputs":[{"name":"account","type":"address","internalType":"address"},{"name":"status","type":"bool","internalType":"bool"}],"outputs":[],"stateMutability":"nonpayable"},{"type":"function","name":"setIsDepositLimit","inputs":[{"name":"status","type":"bool","internalType":"bool"}],"outputs":[],"stateMutability":"nonpayable"},{"type":"function","name":"setSlasher","inputs":[{"name":"slasher_","type":"address","internalType":"address"}],"outputs":[],"stateMutability":"nonpayable"},{"type":"function","name":"slashableBalanceOf","inputs":[{"name":"account","type":"address","internalType":"address"}],"outputs":[{"name":"","type":"uint256","internalType":"uint256"}],"stateMutability":"view"},{"type":"function","name":"slasher","inputs":[],"outputs":[{"name":"","type":"address","internalType":"address"}],"stateMutability":"view"},{"type":"function","name":"staticDelegateCall","inputs":[{"name":"target","type":"address","internalType":"address"},{"name":"data","type":"bytes","internalType":"bytes"}],"outputs":[],"stateMutability":"nonpayable"},{"type":"function","name":"supportsInterface","inputs":[{"name":"interfaceId","type":"bytes4","internalType":"bytes4"}],"outputs":[{"name":"","type":"bool","internalType":"bool"}],"stateMutability":"view"},{"type":"function","name":"symbol","inputs":[],"outputs":[{"name":"","type":"string","internalType":"string"}],"stateMutability":"view"},{"type":"function","name":"totalStake","inputs":[],"outputs":[{"name":"","type":"uint256","internalType":"uint256"}],"stateMutability":"view"},{"type":"function","name":"totalSupply","inputs":[],"outputs":[{"name":"","type":"uint256","internalType":"uint256"}],"stateMutability":"view"},{"type":"function","name":"transfer","inputs":[{"name":"to","type":"address","internalType":"address"},{"name":"value","type":"uint256","internalType":"uint256"}],"outputs":[{"name":"","type":"bool","internalType":"bool"}],"stateMutability":"nonpayable"},{"type":"function","name":"transferFrom","inputs":[{"name":"from","type":"address","internalType":"address"},{"name":"to","type":"address","internalType":"address"},{"name":"value","type":"uint256","internalType":"uint256"}],"outputs":[{"name":"","type":"bool","internalType":"bool"}],"stateMutability":"nonpayable"},{"type":"function","name":"transferOwnership","inputs":[{"name":"newOwner","type":"address","internalType":"address"}],"outputs":[],"stateMutability":"nonpayable"},{"type":"function","name":"version","inputs":[],"outputs":[{"name":"","type":"uint64","internalType":"uint64"}],"stateMutability":"view"},{"type":"function","name":"withdraw","inputs":[{"name":"claimer","type":"address","internalType":"address"},{"name":"amount","type":"uint256","internalType":"uint256"}],"outputs":[{"name":"burnedShares","type":"uint256","internalType":"uint256"},{"name":"mintedShares","type":"uint256","internalType":"uint256"}],"stateMutability":"nonpayable"},{"type":"function","name":"withdrawalShares","inputs":[{"name":"epoch","type":"uint256","internalType":"uint256"}],"outputs":[{"name":"amount","type":"uint256","internalType":"uint256"}],"stateMutability":"view"},{"type":"function","name":"withdrawalSharesOf","inputs":[{"name":"epoch","type":"uint256","internalType":"uint256"},{"name":"account","type":"address","internalType":"address"}],"outputs":[{"name":"amount","type":"uint256","internalType":"uint256"}],"stateMutability":"view"},{"type":"function","name":"withdrawals","inputs":[{"name":"epoch","type":"uint256","internalType":"uint256"}],"outputs":[{"name":"amount","type":"uint256","internalType":"uint256"}],"stateMutability":"view"},{"type":"function","name":"withdrawalsOf","inputs":[{"name":"epoch","type":"uint256","internalType":"uint256"},{"name":"account","type":"address","internalType":"address"}],"outputs":[{"name":"","type":"uint256","internalType":"uint256"}],"stateMutability":"view"},{"type":"event","name":"Approval","inputs":[{"name":"owner","type":"address","indexed":true,"internalType":"address"},{"name":"spender","type":"address","indexed":true,"internalType":"address"},{"name":"value","type":"uint256","indexed":false,"internalType":"uint256"}],"anonymous":false},{"type":"event","name":"Claim","inputs":[{"name":"claimer","type":"address","indexed":true,"internalType":"address"},{"name":"recipient","type":"address","indexed":true,"internalType":"address"},{"name":"epoch","type":"uint256","indexed":false,"internalType":"uint256"},{"name":"amount","type":"uint256","indexed":false,"internalType":"uint256"}],"anonymous":false},{"type":"event","name":"ClaimBatch","inputs":[{"name":"claimer","type":"address","indexed":true,"internalType":"address"},{"name":"recipient","type":"address","indexed":true,"internalType":"address"},{"name":"epochs","type":"uint256[]","indexed":false,"internalType":"uint256[]"},{"name":"amount","type":"uint256","indexed":false,"internalType":"uint256"}],"anonymous":false},{"type":"event","name":"Deposit","inputs":[{"name":"depositor","type":"address","indexed":true,"internalType":"address"},{"name":"onBehalfOf","type":"address","indexed":true,"internalType":"address"},{"name":"amount","type":"uint256","indexed":false,"internalType":"uint256"},{"name":"shares","type":"uint256","indexed":false,"internalType":"uint256"}],"anonymous":false},{"type":"event","name":"Initialized","inputs":[{"name":"version","type":"uint64","indexed":false,"internalType":"uint64"}],"anonymous":false},{"type":"event","name":"OnSlash","inputs":[{"name":"amount","type":"uint256","indexed":false,"internalType":"uint256"},{"name":"captureTimestamp","type":"uint48","indexed":false,"internalType":"uint48"},{"name":"slashedAmount","type":"uint256","indexed":false,"internalType":"uint256"}],"anonymous":false},{"type":"event","name":"OwnershipTransferred","inputs":[{"name":"previousOwner","type":"address","indexed":true,"internalType":"address"},{"name":"newOwner","type":"address","indexed":true,"internalType":"address"}],"anonymous":false},{"type":"event","name":"RoleAdminChanged","inputs":[{"name":"role","type":"bytes32","indexed":true,"internalType":"bytes32"},{"name":"previousAdminRole","type":"bytes32","indexed":true,"internalType":"bytes32"},{"name":"newAdminRole","type":"bytes32","indexed":true,"internalType":"bytes32"}],"anonymous":false},{"type":"event","name":"RoleGranted","inputs":[{"name":"role","type":"bytes32","indexed":true,"internalType":"bytes32"},{"name":"account","type":"address","indexed":true,"internalType":"address"},{"name":"sender","type":"address","indexed":true,"internalType":"address"}],"anonymous":false},{"type":"event","name":"RoleRevoked","inputs":[{"name":"role","type":"bytes32","indexed":true,"internalType":"bytes32"},{"name":"account","type":"address","indexed":true,"internalType":"address"},{"name":"sender","type":"address","indexed":true,"internalType":"address"}],"anonymous":false},{"type":"event","name":"SetDelegator","inputs":[{"name":"delegator","type":"address","indexed":true,"internalType":"address"}],"anonymous":false},{"type":"event","name":"SetDepositLimit","inputs":[{"name":"limit","type":"uint256","indexed":false,"internalType":"uint256"}],"anonymous":false},{"type":"event","name":"SetDepositWhitelist","inputs":[{"name":"status","type":"bool","indexed":false,"internalType":"bool"}],"anonymous":false},{"type":"event","name":"SetDepositorWhitelistStatus","inputs":[{"name":"account","type":"address","indexed":true,"internalType":"address"},{"name":"status","type":"bool","indexed":false,"internalType":"bool"}],"anonymous":false},{"type":"event","name":"SetIsDepositLimit","inputs":[{"name":"status","type":"bool","indexed":false,"internalType":"bool"}],"anonymous":false},{"type":"event","name":"SetSlasher","inputs":[{"name":"slasher","type":"address","indexed":true,"internalType":"address"}],"anonymous":false},{"type":"event","name":"Transfer","inputs":[{"name":"from","type":"address","indexed":true,"internalType":"address"},{"name":"to","type":"address","indexed":true,"internalType":"address"},{"name":"value","type":"uint256","indexed":false,"internalType":"uint256"}],"anonymous":false},{"type":"event","name":"Withdraw","inputs":[{"name":"withdrawer","type":"address","indexed":true,"internalType":"address"},{"name":"claimer","type":"address","indexed":true,"internalType":"address"},{"name":"amount","type":"uint256","indexed":false,"internalType":"uint256"},{"name":"burnedShares","type":"uint256","indexed":false,"internalType":"uint256"},{"name":"mintedShares","type":"uint256","indexed":false,"internalType":"uint256"}],"anonymous":false},{"type":"error","name":"AccessControlBadConfirmation","inputs":[]},{"type":"error","name":"AccessControlUnauthorizedAccount","inputs":[{"name":"account","type":"address","internalType":"address"},{"name":"neededRole","type":"bytes32","internalType":"bytes32"}]},{"type":"error","name":"AddressEmptyCode","inputs":[{"name":"target","type":"address","internalType":"address"}]},{"type":"error","name":"AddressInsufficientBalance","inputs":[{"name":"account","type":"address","internalType":"address"}]},{"type":"error","name":"AlreadyClaimed","inputs":[]},{"type":"error","name":"AlreadyInitialized","inputs":[]},{"type":"error","name":"AlreadySet","inputs":[]},{"type":"error","name":"CheckpointUnorderedInsertion","inputs":[]},{"type":"error","name":"DelegatorAlreadyInitialized","inputs":[]},{"type":"error","name":"DepositLimitReached","inputs":[]},{"type":"error","name":"ERC20InsufficientAllowance","inputs":[{"name":"spender","type":"address","internalType":"address"},{"name":"allowance","type":"uint256","internalType":"uint256"},{"name":"needed","type":"uint256","internalType":"uint256"}]},{"type":"error","name":"ERC20InsufficientBalance","inputs":[{"name":"sender","type":"address","internalType":"address"},{"name":"balance","type":"uint256","internalType":"uint256"},{"name":"needed","type":"uint256","internalType":"uint256"}]},{"type":"error","name":"ERC20InvalidApprover","inputs":[{"name":"approver","type":"address","internalType":"address"}]},{"type":"error","name":"ERC20InvalidReceiver","inputs":[{"name":"receiver","type":"address","internalType":"address"}]},{"type":"error","name":"ERC20InvalidSender","inputs":[{"name":"sender","type":"address","internalType":"address"}]},{"type":"error","name":"ERC20InvalidSpender","inputs":[{"name":"spender","type":"address","internalType":"address"}]},{"type":"error","name":"FailedInnerCall","inputs":[]},{"type":"error","name":"InsufficientClaim","inputs":[]},{"type":"error","name":"InsufficientDeposit","inputs":[]},{"type":"error","name":"InsufficientRedemption","inputs":[]},{"type":"error","name":"InsufficientWithdrawal","inputs":[]},{"type":"error","name":"InvalidAccount","inputs":[]},{"type":"error","name":"InvalidCaptureEpoch","inputs":[]},{"type":"error","name":"InvalidClaimer","inputs":[]},{"type":"error","name":"InvalidCollateral","inputs":[]},{"type":"error","name":"InvalidDelegator","inputs":[]},{"type":"error","name":"InvalidEpoch","inputs":[]},{"type":"error","name":"InvalidEpochDuration","inputs":[]},{"type":"error","name":"InvalidInitialization","inputs":[]},{"type":"error","name":"InvalidLengthEpochs","inputs":[]},{"type":"error","name":"InvalidOnBehalfOf","inputs":[]},{"type":"error","name":"InvalidRecipient","inputs":[]},{"type":"error","name":"InvalidSlasher","inputs":[]},{"type":"error","name":"InvalidTimestamp","inputs":[]},{"type":"error","name":"MathOverflowedMulDiv","inputs":[]},{"type":"error","name":"MissingRoles","inputs":[]},{"type":"error","name":"NoPreviousEpoch","inputs":[]},{"type":"error","name":"NotDelegator","inputs":[]},{"type":"error","name":"NotFactory","inputs":[]},{"type":"error","name":"NotInitialized","inputs":[]},{"type":"error","name":"NotInitializing","inputs":[]},{"type":"error","name":"NotSlasher","inputs":[]},{"type":"error","name":"NotWhitelistedDepositor","inputs":[]},{"type":"error","name":"OwnableInvalidOwner","inputs":[{"name":"owner","type":"address","internalType":"address"}]},{"type":"error","name":"OwnableUnauthorizedAccount","inputs":[{"name":"account","type":"address","internalType":"address"}]},{"type":"error","name":"ReentrancyGuardReentrantCall","inputs":[]},{"type":"error","name":"SafeCastOverflowedUintDowncast","inputs":[{"name":"bits","type":"uint8","internalType":"uint8"},{"name":"value","type":"uint256","internalType":"uint256"}]},{"type":"error","name":"SafeERC20FailedOperation","inputs":[{"name":"token","type":"address","internalType":"address"}]},{"type":"error","name":"SlasherAlreadyInitialized","inputs":[]},{"type":"error","name":"TooMuchRedeem","inputs":[]},{"type":"error","name":"TooMuchWithdraw","inputs":[]}],"bytecode":{"object":"0x60e03461013c57601f61579138819003918201601f1916830192916001600160401b03918285118486101761014057816060928592604097885283398101031261013c5761004c82610154565b916100648461005d60208401610154565b9201610154565b9260805260a0527ff0c57e16840df040f15088dc2f81fe391c3923bec73e23a9662efc9c229c6a009081549060ff82861c1661012b5780808316036100e7575b50505060c05251615628908161016982396080518181816115820152611b29015260a051818181611c9201526121ef015260c051818181610a9b0152610cc30152f35b6001600160401b0319909116811790915582519081527fc7f505b2f371ae2175ee4913f4499e1f2633a7b5936321eed1cdaeb6115181d290602090a15f80806100a4565b845163f92ee8a960e01b8152600490fd5b5f80fd5b634e487b7160e01b5f52604160045260245ffd5b51906001600160a01b038216820361013c5756fe60806040526004361015610011575f80fd5b5f3560e01c806301ffc9a7146104ba57806306fdde03146104b5578063095ea7b3146104b05780631415519b146104ab57806318160ddd146103895780631b66c9e1146104a65780631e9a6950146104a157806323b872dd1461049c578063248a9ca31461049757806327810b6e14610492578063281f57521461048d5780632abe3048146104885780632d73c69c146104835780632dd310001461047e5780632f2ff15d14610479578063313ce5671461047457806336568abe1461046f578063392e53cd1461046a5780634105a7dd14610465578063463616711461046057806347e7ef241461045b57806348d3b775146104565780634ff0876a1461045157806350861adc1461044c57806350f22068146104475780635346e34f1461044257806354fd4d501461043d57806357ec83cc1461043857806359f769a9146104335780635cc070761461042e57806361a8c8c4146104295780636da3e06d146104245780636ec1e3f81461041f57806370a08231146103d4578063715018a61461041a5780637278e31c1461041557806373790ab314610410578063766718081461040b578063794b15b7146104065780637953b33b146104015780637c04c80a146103fc578063810da75d146103f757806383cd9cc3146103f257806387df0788146103ed5780638b0e9f3f146103e85780638da5cb5b146103e357806391d14854146103de57806395d89b41146103d95780639d66201b146103d45780639f86fd85146103cf578063a1b12202146103ca578063a217fddf146103c5578063a21a1df9146103c0578063a2861466146103bb578063a3b54172146103b6578063a5d03223146103b1578063a9059cbb146103ac578063aabc2496146103a7578063aad3ec96146103a2578063afba70ad1461039d578063b134427114610398578063bd49c35f14610393578063bdc8144b1461038e578063bfefcd7b14610389578063c31e8dd714610384578063ce9b79301461037f578063d547741f1461037a578063d8dfeb4514610375578063db38871514610370578063dd62ed3e1461036b578063ecf7085814610366578063efb559d614610361578063f2fde38b1461035c578063f3fef3a3146103575763f5e7ee0f14610352575f80fd5b6128a9565b612803565b6127d6565b612687565b61266a565b612633565b6125f9565b6125ce565b612582565b61255a565b6124f0565b610749565b612412565b6123f8565b6123d0565b6123a6565b6122e5565b61212e565b6120f9565b6120b3565b612066565b611f73565b611f39565b611f1f565b611efb565b611e67565b6115d6565b611db5565b611d57565b611d23565b611cc1565b611c7d565b611ac4565b611aab565b611a45565b611a1e565b6119de565b61198c565b61194b565b611677565b611610565b6115b1565b61156d565b61151a565b6114f0565b6114c9565b611391565b61135f565b6112ca565b6112b1565b611254565b611234565b611213565b610f2b565b610f03565b610e68565b610e23565b610dd8565b610d40565b610cf2565b610cae565b610c42565b610a56565b610988565b610960565b610927565b61088a565b6107a5565b61076b565b61070f565b61064d565b61054c565b346105105760203660031901126105105760043563ffffffff60e01b811680910361051057602090637965db0b60e01b81149081156104ff575b506040519015158152f35b6301ffc9a760e01b1490505f6104f4565b5f80fd5b805180835260209291819084018484015e5f828201840152601f01601f1916010190565b906020610549928181520190610514565b90565b34610510575f366003190112610510576040515f5f805160206154d383398151915280549061057a826128d3565b8085529160209160019182811690811561060f57506001146105b7575b6105b3866105a781880382610b86565b60405191829182610538565b0390f35b5f90815293507f2ae08a8e29253f69ac5d979a101956ab8f8d9d7ded63fa7a83b16fc47648eab05b8385106105fc575050505081016020016105a7826105b35f610597565b80548686018401529382019381016105df565b90508695506105b3969350602092506105a794915060ff191682840152151560051b82010192935f610597565b6001600160a01b0381160361051057565b346105105760403660031901126105105760043561066a8161063c565b60243533156106f7576001600160a01b0382169182156106df576106a78291610692336119a6565b9060018060a01b03165f5260205260405f2090565b556040519081527f8c5be1e5ebec7d5bd14f71427d1e84f3dd0314c0f7b2291e5b200ac8c7c3b92560203392a3602060405160018152f35b604051634a1406b160e11b81525f6004820152602490fd5b60405163e602df0560e01b81525f6004820152602490fd5b34610510575f3660031901126105105760206040517fc6aaadd7371d5e8f9ed6849dd66a66573a3ba37167d03f4352c9ba5693678fac8152f35b34610510575f366003190112610510576020610763614003565b604051908152f35b34610510575f3660031901126105105760206040517f9c56d972d63cbb4195b3c1484691dfc220fa96a4c47e7b6613bd82a022029e068152f35b34610510576040366003190112610510576004356107c28161063c565b602435906107ce612e1a565b6001600160a01b0381161561087957335f908152600e602052604090206107f9906140f0565b6140f0565b82116108675761081961080a61407c565b610812614003565b9084614164565b918215610852578261082a92612e49565b9061084160015f805160206155b383398151915255565b604080519182526020820192909252f35b60405160016245ddc760e11b03198152600490fd5b604051632418411f60e11b8152600490fd5b6040516208978560e71b8152600490fd5b34610510576060366003190112610510576004356108a78161063c565b6024356108b38161063c565b604435906108c433610692856119a6565b5492600184016108e5575b6108d99350612fd9565b60405160018152602090f35b828410610901576108fc836108d99503338361413d565b6108cf565b604051637dc7a0d960e11b81523360048201526024810185905260448101849052606490fd5b34610510576020366003190112610510576004355f525f805160206155938339815191526020526020600160405f200154604051908152f35b34610510575f366003190112610510576001546040516001600160a01b039091168152602090f35b34610510575f366003190112610510576109a0612b3f565b8015610a015760015465ffffffffffff8160a01c16915f1981019081116109fc576109ce9160d01c9061293a565b81018091116109fc576109e36105b391613138565b60405165ffffffffffff90911681529081906020820190565b61290b565b604051639fa56a5b60e01b8152600490fd5b600435906001600160401b038216820361051057565b9181601f84011215610510578235916001600160401b038311610510576020838186019501011161051057565b3461051057604036600319011261051057610a6f610a13565b6001600160401b0360243581811161051057610a8f903690600401610a29565b5050610a99612e1a565b7f00000000000000000000000000000000000000000000000000000000000000006001600160a01b03163303610b15575f805160206155d3833981519152549060ff8260401c16928315610b05575b505050610af3575f80fd5b60405163f92ee8a960e01b8152600490fd5b81169116101590505f8080610ae8565b604051631966391b60e11b8152600490fd5b65ffffffffffff81160361051057565b634e487b7160e01b5f52604160045260245ffd5b606081019081106001600160401b03821117610b6657604052565b610b37565b604081019081106001600160401b03821117610b6657604052565b90601f801991011681019081106001600160401b03821117610b6657604052565b6040519061016082018281106001600160401b03821117610b6657604052565b60405190610bd482610b6b565b565b6001600160401b038111610b6657601f01601f191660200190565b929192610bfd82610bd6565b91610c0b6040519384610b86565b829481845281830111610510578281602093845f960137010152565b9080601f830112156105105781602061054993359101610bf1565b3461051057606036600319011261051057600435610c5f8161063c565b60243590610c6c82610b27565b604435906001600160401b03821161051057602092610c92610763933690600401610c27565b6001600160a01b039092165f908152600e855260409020613331565b34610510575f366003190112610510576040517f00000000000000000000000000000000000000000000000000000000000000006001600160a01b03168152602090f35b3461051057604036600319011261051057610d3e602435600435610d158261063c565b805f525f80516020615593833981519152602052610d39600160405f200154613508565b613808565b005b34610510575f366003190112610510575f5460405163313ce56760e01b8152906020908290600490829060101c6001600160a01b03165afa8015610dd3575f90610d95575b60405160ff919091168152602090f35b506020813d602011610dcb575b81610daf60209383610b86565b81010312610510575160ff81168103610510576105b390610d85565b3d9150610da2565b612989565b3461051057604036600319011261051057602435610df58161063c565b336001600160a01b03821603610e1157610d3e9060043561383e565b60405163334bd91960e11b8152600490fd5b34610510575f3660031901126105105760ff60025460a01c1680610e4f575b6020906040519015158152f35b5060035460a01c60ff16610e42565b8015150361051057565b3461051057602036600319011261051057600435610e8581610e5e565b610e8d612e1a565b610e956133fd565b5f54901515908160ff8216151514610ef15760ff191660ff8216175f556040519081527f3e12b7b36c75ac9609a3f58609b331210428e1a85909132638955ba0301eec3390602090a160015f805160206155b383398151915255005b60405163a741a04560e01b8152600490fd5b34610510575f36600319011261051057602065ffffffffffff60015460a01c16604051908152f35b3461051057604080600319360112610510576004803591610f4b8361063c565b610f53612e1a565b6001600160a01b0391838316908115611205575f5460ff8116806111ec575b6111dd5783516370a0823160e01b808252308483019081529096602093909160109190911c82169084908490819083010381845afa928315610dd3575f936111ba575b50610fc790602435903090339061453d565b5f5486519788523085890190815290979184918391908290819060200103918b60101c165afa908115610dd357611006935f9261118d575b505061292d565b93841561117e5760081c60ff1680611169575b61115b5750906105b3916110ca61102e61407c565b9561107761103a614003565b6110626110488a838b614164565b9961105c8a61105642613138565b9261295b565b90613c9e565b50506110718961105642613138565b90613d7e565b50506001600160a01b0381165f908152600e60205260409020906110c4886110bf6107f46110a442613138565b6001600160a01b039095165f908152600e6020526040902090565b61295b565b91613e5a565b5050815184815260208101869052819033907fdcbc1c05240f31ff3ad067ef1ee35ce4997762752e3a095284754544f4c709d790604090a361111860015f805160206155b383398151915255565b81518581525f907fddf252ad1be2c89b69c2b068fc378daa952ba7f163c4a11628f55a4df523b3ef90602090a35191825260208201929092529081906040820190565b8251632484557960e01b8152fd5b50611176846110bf61407c565b815410611019565b50825163070f6eed60e11b8152fd5b6111ac9250803d106111b3575b6111a48183610b86565b8101906138d0565b5f80610fff565b503d61119a565b610fc79193506111d690853d87116111b3576111a48183610b86565b9290610fb5565b5082516304f63b8560e01b8152fd5b50335f9081526005602052604090205460ff1615610f72565b8251630d534ce360e11b8152fd5b34610510575f36600319011261051057602060ff5f54166040519015158152f35b34610510575f36600319011261051057602060015460d01c604051908152f35b34610510575f36600319011261051057602060ff60025460a01c166040519015158152f35b9060406003198301126105105760043561129281610b27565b91602435906001600160401b0382116105105761054991600401610c27565b346105105760206107636112c436611279565b9061319b565b34610510576020366003190112610510576004356112e781610e5e565b6112ef612e1a565b6112f761345a565b5f54901515908160ff8260081c16151514610ef15761ff001916600882901b61ff0016175f556040519081527ffa7a25a0b611d4ba3c0ea990e90dc23d484a5dd7a1be4733fef2946ba74530c690602090a1610d3e60015f805160206155b383398151915255565b34610510575f3660031901126105105760206001600160401b035f805160206155d38339815191525416604051908152f35b34610510576060366003190112610510576113aa610a13565b6024356113b68161063c565b6001600160401b0391604435838111610510576113d7903690600401610a29565b5f805160206155d38339815191529491855494838616806114b85760ff8760401c169081156114ab575b50610af3577fc7f505b2f371ae2175ee4913f4499e1f2633a7b5936321eed1cdaeb6115181d2966114a69661146e958716906001600160401b0319161790556114695f805160206155d3833981519152600160401b68ff000000000000000019825416179055565b612994565b5f805160206155d3833981519152805468ff0000000000000000191690556040516001600160401b0390911681529081906020820190565b0390a1005b905084861611155f611401565b60405162dc149f60e41b8152600490fd5b346105105760203660031901126105105760206107636004356114eb8161063c565b612aa8565b34610510576020366003190112610510576004355f526006602052602060405f2054604051908152f35b34610510575f3660031901126105105760015465ffffffffffff611550818360a01c1692611546612b3f565b9060d01c9061293a565b82018092116109fc57611564602092613138565b60405191168152f35b34610510575f366003190112610510576040517f00000000000000000000000000000000000000000000000000000000000000006001600160a01b03168152602090f35b34610510575f36600319011261051057602060ff60035460a01c166040519015158152f35b34610510576020366003190112610510576004356115f38161063c565b60018060a01b03165f52600e602052602061076360405f206140f0565b34610510575f36600319011261051057611628613abc565b5f8051602061553383398151915280546001600160a01b031981169091555f906001600160a01b03167f8be0079c531659141344cd1fd0a4f28419497f9722a3daafe3b4186f6b6457e08280a3005b346105105760403660031901126105105760043560243561169781610b27565b61169f612e1a565b6003546116bc906001600160a01b03165b6001600160a01b031690565b3303611939576116ca612b3f565b906116d481612b73565b9082151580611928575b801561191f575b61190d576105b3937ff9d090c096f71cd1659861a9ce5b6f384bceb4e2fa4e4a19edf6489a9b8d56c79261171761407c565b946117326117248261294d565b5f52600660205260405f2090565b54908281036118265750611746818761295b565b6117508185613af4565b9687806117df575b50505050505b836117ab575b6040805191825265ffffffffffff929092166020820152908101839052606090a161179b60015f805160206155b383398151915255565b6040519081529081906020820190565b5f546117da9085906117c89060101c6001600160a01b03166116b0565b6001546001600160a01b031690613f18565b611764565b61181b93610fff8361105c6118056117fe611724986118159888613b10565b809661292d565b9461180f42613138565b9261292d565b9261294d565b555f80808087611758565b915061183a825f52600660205260405f2090565b549061184a816110bf848a61295b565b906118558286613af4565b9788611866575b505050505061175e565b6118db938361188e9361189b8c6118966118846118cc998884613b10565b9788958584613b10565b94859261292d565b61292d565b938484106118e6575b610fff9061105c6118ba95969761180f42613138565b6118c66117248761294d565b5561292d565b915f52600660205260405f2090565b555f8080808061185c565b91611902610fff916118fc866118ba979861292d565b9061295b565b8594509290506118a4565b604051635e18d2a560e01b8152600490fd5b508282116116e5565b506119328361291f565b82106116de565b60405163dabc4ad960e01b8152600490fd5b34610510575f3660031901126105105760015465ffffffffffff808260a01c1691611974612b3f565b600181018091116109fc576115509160d01c9061293a565b34610510575f366003190112610510576020610763612b3f565b6001600160a01b03165f9081527f52c63247e1f47db19d5ce0460030c497f067ca4cebf71ba98eeadabe20bace016020526040902090565b34610510576020366003190112610510576004356119fb8161063c565b60018060a01b03165f526005602052602060ff60405f2054166040519015158152f35b34610510576020366003190112610510576020610763600435611a4081610b27565b612b73565b3461051057604036600319011261051057600435611a628161063c565b6024356001600160401b038082116105105736602383011215610510578160040135908111610510573660248260051b84010111610510576105b392602461179b930190612bae565b34610510576020610763611abe36611279565b9061327c565b3461051057602080600319360112610510576004803590611ae48261063c565b611aec612e1a565b60025460a01c60ff16611c6e576040516302910f8b60e31b81526001600160a01b03838116838301908152909491908290829081906020010381887f0000000000000000000000000000000000000000000000000000000000000000165afa908115610dd3575f91611c41575b5015611c315760405163fbfa77cf60e01b8152838516949082818581895afa928315610dd3575f93611c02575b505030911603611bf35750600280546001600160a01b03929092166001600160a81b031990921691909117600160a01b1790557fdb2160616f776a37b24808115554e79439bf26cccbbd4438190cc6d28e80ecd15f80a2610d3e60015f805160206155b383398151915255565b60405163b9f0f17160e01b8152fd5b611c22929350803d10611c2a575b611c1a8183610b86565b810190612d07565b905f80611b86565b503d611c10565b506040516324e5af8d60e21b8152fd5b611c619150823d8411611c67575b611c598183610b86565b810190612ce7565b5f611b59565b503d611c4f565b604051631380833b60e01b8152fd5b34610510575f366003190112610510576040517f00000000000000000000000000000000000000000000000000000000000000006001600160a01b03168152602090f35b34610510575f36600319011261051057611cd9612b3f565b611ce161407c565b90805f52600660205260405f205482018092116109fc57600181018091116109fc575f52600660205260405f205481018091116109fc57602090604051908152f35b34610510575f366003190112610510575f80516020615533833981519152546040516001600160a01b039091168152602090f35b3461051057604036600319011261051057602060ff611da9602435611d7b8161063c565b6004355f525f80516020615593833981519152845260405f209060018060a01b03165f5260205260405f2090565b54166040519015158152f35b34610510575f366003190112610510576040515f5f80516020615513833981519152805490611de3826128d3565b8085529160209160019182811690811561060f5750600114611e0f576105b3866105a781880382610b86565b5f90815293507f46a2803e59a4de4e7a4c574b1243f25977ac4c77d5a1a4a609b5394cebb4a2aa5b838510611e54575050505081016020016105a7826105b35f610597565b8054868601840152938201938101611e37565b3461051057604036600319011261051057600435611e848161063c565b6024356001600160401b038111610510575f91611ea683923690600401610a29565b90816040519283928337810184815203915af4611ef3611ec4612d1c565b91611ee5604051938492151560208401526040808401526060830190610514565b03601f198101835282610b86565b805190602001fd5b34610510575f36600319011261051057602060ff5f5460081c166040519015158152f35b34610510575f3660031901126105105760206040515f8152f35b34610510575f3660031901126105105760206040517f4a634bc14d77baf979756509ef4298c6f6318af357828612545267ee2eb792338152f35b3461051057604036600319011261051057600435611f908161063c565b602435611f9c81610e5e565b611fa4612e1a565b611fac6134b1565b6001600160a01b038216918215612054575f8381526005602052604090205460ff16151582151514610ef1576001600160a01b03165f9081526005602052604090207ff991b1ecfb5115cbb36a2b2e2240c058406d2acc2fcc6e9e2dc99d845ff70a629161203b91612029908260ff801983541691151516179055565b60405190151581529081906020820190565b0390a2610d3e60015f805160206155b383398151915255565b604051630da30f6560e31b8152600490fd5b346105105760403660031901126105105760206120aa6024356120888161063c565b6004355f526008835260405f209060018060a01b03165f5260205260405f2090565b54604051908152f35b3461051057604036600319011261051057602060ff611da96024356120d78161063c565b6004355f526009845260405f209060018060a01b03165f5260205260405f2090565b34610510576040366003190112610510576121236004356121198161063c565b6024359033612fd9565b602060405160018152f35b346105105760208060031936011261051057600480359061214e8261063c565b612156612e1a565b60035460a01c60ff166122d6576001600160a01b038281169390846121c4575b6003805460ff60a01b1916600160a01b179055847fe7e4c932e03abddfe20f83af42c33627e816115c7ec2b168441f65dc14bfc3ba5f80a2610d3e60015f805160206155b383398151915255565b6040516302910f8b60e31b81526001600160a01b0385168482019081528390829081906020010381857f0000000000000000000000000000000000000000000000000000000000000000165afa908115610dd3575f916122b9575b50156122a85760405163fbfa77cf60e01b815282818581895afa928315610dd3575f93612289575b50503091160361227a5750600380546001600160a01b0319166001600160a01b039092169190911790555f808080612176565b604051633f3e089160e21b8152fd5b6122a0929350803d10611c2a57611c1a8183610b86565b905f80612247565b60405163dabc4ad960e01b81528390fd5b6122d09150833d8511611c6757611c598183610b86565b5f61221f565b60405163703fe2e560e01b8152fd5b34610510576040366003190112610510576004356123028161063c565b6024359061230e612e1a565b6001600160a01b03918183169081156123945761233f6105b39461233183613f67565b9485915f5460101c16613f18565b604080519182526020820184905233917f865ca08d59f5cb456e85cd2f7ef63664ea4f73327414e9d8152c4158b0e946459190a360015f805160206155b3833981519152556040519081529081906020820190565b604051634e46966960e11b8152600490fd5b34610510576020366003190112610510576004355f526007602052602060405f2054604051908152f35b34610510575f366003190112610510576003546040516001600160a01b039091168152602090f35b34610510575f36600319011261051057602061076361407c565b346105105760203660031901126105105760043561242e612e1a565b335f9081527f2d4ccbfe9f7672a6f2537c1e5bce6adacb73706879154bbab6ce096012d6721660205260409020547f4a634bc14d77baf979756509ef4298c6f6318af357828612545267ee2eb792339060ff16156124d257508060045414610ef1576020817f854df3eb95564502c8bc871ebdd15310ee26270f955f6c6bd8cea68e75045bc092600455604051908152a160015f805160206155b383398151915255005b6044906040519063e2517d3f60e01b82523360048301526024820152fd5b346105105760203660031901126105105760043561250d8161063c565b612515612b3f565b61251e82612aa8565b916125298183612dbc565b83018093116109fc57600182018092116109fc5761254691612dbc565b81018091116109fc57602090604051908152f35b34610510575f366003190112610510576002546040516001600160a01b039091168152602090f35b3461051057604036600319011261051057610d3e6024356004356125a58261063c565b805f525f805160206155938339815191526020526125c9600160405f200154613508565b61383e565b34610510575f366003190112610510575f5460405160109190911c6001600160a01b03168152602090f35b34610510575f3660031901126105105760206040517fbae4ee3de6c709ff9a002e774c5b78cb381560b219213c88ae0f1e207c03c0238152f35b346105105760403660031901126105105760206120aa6004356126558161063c565b610692602435916126658361063c565b6119a6565b34610510575f366003190112610510576020600454604051908152f35b34610510576060366003190112610510576004356126a48161063c565b602435906126b182610b27565b6001600160401b0391604435838111610510576126d2903690600401610a29565b909260409384516126e281610b4b565b60608152606060208201526060868201529280612741575b6105b386612732878761272c6127138984845191612968565b928561272360208501518361327c565b9301519061319b565b91614164565b90519081529081906020820190565b8101939250602081850312610510578035908682116105105701926060848203126105105784519561277287610b4b565b84358181116105105782612787918701610c27565b8752602085013581811161051057826127a1918701610c27565b602088015285850135908111610510576105b3966127ca61272c93612713936127329801610c27565b878201529394506126fa565b3461051057602036600319011261051057610d3e6004356127f68161063c565b6127fe613abc565b612d4b565b34610510576040366003190112610510576004356128208161063c565b60243561282b612e1a565b6001600160a01b038216156108795780156128975761285a61284b614003565b61285361407c565b9083614c31565b335f908152600e60205260409020909290612874906140f0565b83116128855761082a918391612e49565b6040516321727a3760e11b8152600490fd5b604051636c6c627d60e11b8152600490fd5b346105105760403660031901126105105760206107636024356128cb8161063c565b600435612dbc565b90600182811c92168015612901575b60208310146128ed57565b634e487b7160e01b5f52602260045260245ffd5b91607f16916128e2565b634e487b7160e01b5f52601160045260245ffd5b5f198101919082116109fc57565b919082039182116109fc57565b818102929181159184041417156109fc57565b90600182018092116109fc57565b919082018092116109fc57565b6001600160a01b03165f908152600e60205260409020610549929190613331565b6040513d5f823e3d90fd5b916129d1926129a1614595565b6129a9614595565b60015f805160206155b3833981519152556001600160a01b038116612a8e575b503691610bf1565b80516020908201818101828483031261051057828401516001600160401b039485821161051057019283926101a093849103126105105760405193612a1585610b4b565b612a21838383016138ea565b8552610180810151868111610510578383612a3e928401016139b3565b9382860194855281015195861161051057612a66612a859383610bd498612a809401016139b3565b94604081019586525191611ee560405193849283016139f9565b6145d8565b51905190614994565b612aa290612a9a614595565b6127fe614595565b5f6129c9565b6001600160a01b03165f908152600e60205260409020612ac7906140f0565b612acf61407c565b612ad7614003565b90600181018091116109fc57600182018092116109fc5761054992613b10565b65ffffffffffff91821690821603919082116109fc57565b634e487b7160e01b5f52601260045260245ffd5b9065ffffffffffff809116918215612b3a57160490565b612b0f565b612b4842613138565b612b6f600154612b6565ffffffffffff93848360a01c1690612af7565b9060d01c90612b23565b1690565b6001549065ffffffffffff91828160a01c16918284821610612b9c57612b6f92612b6591612af7565b60405163b7d0949760e01b8152600490fd5b90612bb7612e1a565b5f926001600160a01b038316928315612394578115612c6f575f5b828110612c4d57505f547f326b6aff1cd2fb1c8234de4f9dcfb9047c5c36eb9ef2eb34af5121e969a75d279286929091612c22918491612c1d9060101c6001600160a01b03166116b0565b613f18565b612c33604051928392339684612caa565b0390a390610bd460015f805160206155b383398151915255565b94612c686001916118fc612c62898789612c95565b35613f67565b9501612bd2565b60405163edf3b93360e01b8152600490fd5b634e487b7160e01b5f52603260045260245ffd5b9190811015612ca55760051b0190565b612c81565b604080825281018390529392916001600160fb1b0381116105105760209160609160051b809183880137850101930152565b5190610bd482610e5e565b90816020910312610510575161054981610e5e565b5190610bd48261063c565b9081602091031261051057516105498161063c565b3d15612d46573d90612d2d82610bd6565b91612d3b6040519384610b86565b82523d5f602084013e565b606090565b6001600160a01b03908116908115612da4575f8051602061553383398151915280546001600160a01b031981168417909155167f8be0079c531659141344cd1fd0a4f28419497f9722a3daafe3b4186f6b6457e05f80a3565b604051631e4fbdf760e01b81525f6004820152602490fd5b90612de290825f52600860205260405f209060018060a01b03165f5260205260405f2090565b54905f52600660205260405f2054600760205260405f205490600181018091116109fc57600182018092116109fc5761054992613b10565b5f805160206155b38339815191526002815414612e375760029055565b604051633ee5aeb560e01b8152600490fd5b335f908152600e6020526040812093949390929190612e8890612e6b42613138565b335f908152600e602052604090206110c4908990611896906140f0565b5050612ea2612e9642613138565b61107187611896614003565b5050612ebc612eb042613138565b61105c8461189661407c565b505081612f4e82610692612ed6612ed1612b3f565b61294d565b612f2d612eeb825f52600660205260405f2090565b54612efe835f52600760205260405f2090565b54612f15612f0d83838b614164565b9a8b9361295b565b612f27855f52600660205260405f2090565b5561295b565b612f3f825f52600760205260405f2090565b555f52600860205260405f2090565b612f5984825461295b565b9055604080519182526020820187905281018390526001600160a01b03919091169033907febff2602b3f468259e1e99f613fed6691f3a6526effe6ef3e768ba7ae7a36c4f90606090a36040519384529233907fddf252ad1be2c89b69c2b068fc378daa952ba7f163c4a11628f55a4df523b3ef9080602081015b0390a3565b916001600160a01b0380841692908315613120578116938415613108576001600160a01b0381165f908152600e60205260409020613016906140f0565b908382106130d657612fd4926130787fddf252ad1be2c89b69c2b068fc378daa952ba7f163c4a11628f55a4df523b3ef95936130656130c49460018060a01b03165f52600e60205260405f2090565b908561307042613138565b910391613e5a565b50506001600160a01b0381165f908152600e6020526040902090836130bd6107f46130a242613138565b6001600160a01b039094165f908152600e6020526040902090565b0191613e5a565b50506040519081529081906020820190565b60405163391434e360e21b81526001600160a01b03919091166004820152602481019190915260448101839052606490fd5b60405163ec442f0560e01b81525f6004820152602490fd5b604051634b637e8f60e11b81525f6004820152602490fd5b65ffffffffffff9081811161314b571690565b604490604051906306dfcc6560e41b8252603060048301526024820152fd5b90816020910312610510575163ffffffff811681036105105790565b90600163ffffffff809316019182116109fc57565b9080511561327257806020806131b69351830101910161316a565b6131bf816143d5565b906131d0825165ffffffffffff1690565b9065ffffffffffff80851692168281146132665782119182613206575b50506131fd575061054990614185565b60209150015190565b909150613214600a5461291f565b63ffffffff83161491821561322d575b50505f806131ed565b61325e91925061324761324261325392613186565b6143d5565b5165ffffffffffff1690565b65ffffffffffff1690565b115f80613224565b50505060209150015190565b5061054990614185565b9080511561332757806020806132979351830101910161316a565b6132a08161445a565b906132b1825165ffffffffffff1690565b9065ffffffffffff808516921682811461326657821191826132de575b50506131fd57506105499061424c565b9091506132ec600c5461291f565b63ffffffff831614918215613305575b50505f806132ce565b61331f91925061324761331a61325392613186565b61445a565b115f806132fc565b506105499061424c565b918051156133f3578060208061334c9351830101910161316a565b9161335783826144d5565b92613368845165ffffffffffff1690565b9065ffffffffffff80851692168281146133e7578211918261339e575b505061339557610549925061430c565b50506020015190565b9091506133ab835461291f565b63ffffffff8316149182156133c4575b50505f80613385565b6133df9192506132476133d961325392613186565b856144d5565b115f806133bb565b50505050506020015190565b506105499161430c565b335f9081527f03b26b53c87faa1058f30bb5d2fee64f717719a0d9b7e4f4df027aa5e9b6ed69602052604090207fbae4ee3de6c709ff9a002e774c5b78cb381560b219213c88ae0f1e207c03c0239060ff905b5416156124d25750565b335f9081527fe41986b390c4ce6791b87f7423b5fab7a81a0e6d89660b6264f697d008b2243a602052604090207fc6aaadd7371d5e8f9ed6849dd66a66573a3ba37167d03f4352c9ba5693678fac9060ff90613450565b335f9081527f0287ab4cb376ea253d7b2ce0c2cbf458f7deae9458470d74afdfbbee484e9540602052604090207f9c56d972d63cbb4195b3c1484691dfc220fa96a4c47e7b6613bd82a022029e069060ff90613450565b5f8181525f8051602061559383398151915260209081526040808320338452909152902060ff90613450565b6001600160a01b0381165f9081527fb7db2dd08fcb62d0c9e08c51941cae53c267786a0b75803fb7960902fc8ef97d60205260409020545f805160206155938339815191529060ff166135df575f808052602091825260408082206001600160a01b038516835290925220805460ff1916600117905533906001600160a01b03165f7f2f8788117e7eff1d82e926ec794901d17c78024a50270940304540a733656f0d8180a4600190565b50505f90565b6001600160a01b0381165f9081527f03b26b53c87faa1058f30bb5d2fee64f717719a0d9b7e4f4df027aa5e9b6ed69602052604090207fbae4ee3de6c709ff9a002e774c5b78cb381560b219213c88ae0f1e207c03c023905f805160206155938339815191529060ff905b54166136b4575f828152602091825260408082206001600160a01b038616835290925220805460ff1916600117905533916001600160a01b0316907f2f8788117e7eff1d82e926ec794901d17c78024a50270940304540a733656f0d5f80a4600190565b5050505f90565b6001600160a01b0381165f9081527f0287ab4cb376ea253d7b2ce0c2cbf458f7deae9458470d74afdfbbee484e9540602052604090207f9c56d972d63cbb4195b3c1484691dfc220fa96a4c47e7b6613bd82a022029e06905f805160206155938339815191529060ff90613650565b6001600160a01b0381165f9081527fe41986b390c4ce6791b87f7423b5fab7a81a0e6d89660b6264f697d008b2243a602052604090207fc6aaadd7371d5e8f9ed6849dd66a66573a3ba37167d03f4352c9ba5693678fac905f805160206155938339815191529060ff90613650565b6001600160a01b0381165f9081527f2d4ccbfe9f7672a6f2537c1e5bce6adacb73706879154bbab6ce096012d67216602052604090207f4a634bc14d77baf979756509ef4298c6f6318af357828612545267ee2eb79233905f805160206155938339815191529060ff90613650565b5f8181525f80516020615593833981519152602081815260408084206001600160a01b038716855290915290912060ff90613650565b5f8181525f80516020615593833981519152602081815260408084206001600160a01b03871685529091529091205460ff16156136b4575f828152602091825260408082206001600160a01b038616835290925220805460ff1916905533916001600160a01b0316907ff6391f5c32d9c69d2a47ea670b442974b53935d1edc7fd64eb21e047a839171b5f80a4600190565b90816020910312610510575190565b5190610bd482610b27565b919082610160910312610510576138ff610ba7565b9161390981612cfc565b835261391760208201612cfc565b6020840152613928604082016138df565b604084015261393960608201612cdc565b606084015261394a60808201612cdc565b608084015260a081015160a084015261396560c08201612cfc565b60c084015261397660e08201612cfc565b60e0840152610100613989818301612cfc565b9084015261012061399b818301612cfc565b908401526139ad610140809201612cfc565b90830152565b81601f82011215610510578051906139ca82610bd6565b926139d86040519485610b86565b8284526020838301011161051057815f9260208093018386015e8301015290565b81516001600160a01b0316815261016081019291610bd491906020818101516001600160a01b03169083015260408181015165ffffffffffff169083015260608181015115159083015260808181015115159083015260a0818101519083015260c0808201516001600160a01b03169083015260e0818101516001600160a01b031690830152610100818101516001600160a01b031690830152610120818101516001600160a01b031690830152610140908101516001600160a01b0316910152565b5f80516020615533833981519152546001600160a01b03163303613adc57565b60405163118cdaa760e01b8152336004820152602490fd5b9080821015613b01575090565b905090565b8115612b3a570490565b9091828202915f1984820993838086109503948086039514613b955784831115613b8357829109815f038216809204600280826003021880830282030280830282030280830282030280830282030280830282030280920290030293600183805f03040190848311900302920304170290565b60405163227bc15360e01b8152600490fd5b5050906105499250613b06565b600b54811015612ca557600b5f525f8051602061557383398151915201905f90565b600d54811015612ca557600d5f525f8051602061555383398151915201905f90565b8054821015612ca5575f5260205f2001905f90565b600d54600160401b811015610b66576001810180600d55811015612ca557600d5f525f805160206155538339815191520155565b600b54600160401b811015610b66576001810180600b55811015612ca557600b5f525f805160206155738339815191520155565b90815491600160401b831015610b665782613c86916001610bd495018155613be6565b90919082549060031b91821b915f19901b1916179055565b919091600d9081548015613d49575b50613cb6614add565b50929091815492613cc561407c565b9481613d34575b5015613d1157505f1982018281116109fc5781541115612ca5575f527fd7b6990105719101dabeb77144f2a3385c8033acd3af97e9423a695e81ad1eb4018390559190565b613d25926001600160d01b03169150614f65565b5050613d3083613bfb565b9190565b65ffffffffffff83811691161490505f613ccc565b600160401b811015610b665760018101808455811015612ca5575f908382525f8051602061555383398151915201555f613cad565b919091600b9081548015613e25575b50613d96614b48565b50929091815492613da5614003565b9481613e10575b5015613df157505f1982018281116109fc5781541115612ca5575f527f0175b7a638427703f0dbe7bb9bbf987a2551717b34e79f33b5b1008d1fa01db8018390559190565b613e05926001600160d01b03169150615065565b5050613d3083613c2f565b65ffffffffffff83811691161490505f613dac565b600160401b811015610b665760018101808455811015612ca5575f908382525f8051602061557383398151915201555f613d8d565b90929192600182019081548015613ee8575b5084613e7784614b92565b50949092845493613e87836140f0565b9681613ed3575b5015613eb0575050505f1981019081116109fc57613c868591613d3093613be6565b613d30949293613ecc926001600160d01b03909116919061510f565b5050613c63565b65ffffffffffff83811691161490505f613e8e565b600160401b811015610b6657806001613f049201845583613be6565b8154905f199060031b1b191690555f613e6c565b60405163a9059cbb60e01b60208201526001600160a01b03909216602483015260448083019390935291815260808101916001600160401b03831182841017610b6657610bd492604052614bc0565b90613f70612b3f565b821015613ff1575f82815260096020908152604080832033845290915290205460ff16613fdf57613fa13383612dbc565b918215613fcd575f9081526009602090815260408083203384529091529020805460ff19166001179055565b6040516366c0bcbf60e11b8152600490fd5b604051630c8d9eab60e31b8152600490fd5b60405163d5b25b6360e01b8152600490fd5b600a548061404357505f5b6001600160d01b0381161561403e57600b54811015612ca557600b5f525f80516020615573833981519152015490565b505f90565b805f198101116109fc57600a5f527fc65a7bb8d6351c1cf70c95a316cc6a92839c986682d98bc35f958f4883f9d2a7015460301c61400e565b600c54806140b757505f5b6001600160d01b0381161561403e57600d54811015612ca557600d5f525f80516020615553833981519152015490565b805f198101116109fc57600c5f527fdf6966c971051c3d54ec59162606531493a51404a002842f56009d7e5cf4a8c6015460301c614087565b80548061411f57505f5b6001600160d01b038116156135df5760016141159201613be6565b90549060031b1c90565b5f199080828101116109fc57825f5260205f2001015460301c6140fa565b906001600160a01b03808316156106f7578116156106df57610692614161926119a6565b55565b9190600181018091116109fc57600182018092116109fc5761054992613b10565b600a54905f8291600584116141f3575b61419f935061531b565b806141c257505f5b6001600160d01b0381161561403e5761411561054991613ba2565b6141e76141d16141ee9261291f565b600a5f525f805160206154f38339815191520190565b5460301c90565b6141a7565b91926141fe816151e2565b81039081116109fc5761419f93600a5f5265ffffffffffff80835f805160206154f3833981519152015416908516105f1461423a575091614195565b9291506142469061294d565b90614195565b600c54905f8291600584116142b3575b6142669350615384565b8061428957505f5b6001600160d01b0381161561403e5761411561054991613bc4565b6141e76142986142ae9261291f565b600c5f525f805160206154b38339815191520190565b61426e565b91926142be816151e2565b81039081116109fc5761426693600c5f5265ffffffffffff80835f805160206154b3833981519152015416908516105f146142fa57509161425c565b9291506143069061294d565b9061425c565b908154905f82916005841161436f575b6143279350846153ed565b8061434f57505f905b6001600160d01b038216156135df576105499160016141159201613be6565b6141e761435e6143699261291f565b835f5260205f200190565b90614330565b919261437a816151e2565b81039081116109fc5761432793855f5265ffffffffffff808360205f20015416908516105f146143ab57509161431c565b9291506143b79061294d565b9061431c565b604051906143ca82610b6b565b5f6020838281520152565b6143dd6143bd565b506143e66143bd565b50600a54811015612ca55761440d90600a5f525f805160206154f383398151915201614ab9565b65ffffffffffff81511690602060018060d01b0391015116600b54811015612ca557600b5f525f8051602061557383398151915201546040519161445083610b6b565b8252602082015290565b6144626143bd565b5061446b6143bd565b50600c54811015612ca55761449290600c5f525f805160206154b383398151915201614ab9565b65ffffffffffff81511690602060018060d01b0391015116600d54811015612ca557600d5f525f8051602061555383398151915201546040519161445083610b6b565b906144fe6144f861451f926144e86143bd565b506144f16143bd565b5084613be6565b50614ab9565b91600165ffffffffffff845116936020828060d01b03910151169101613be6565b9054906040519261452f84610b6b565b835260031b1c602082015290565b6040516323b872dd60e01b60208201526001600160a01b03928316602482015292909116604483015260648083019390935291815260a08101918183106001600160401b03841117610b6657610bd492604052614bc0565b60ff5f805160206155d38339815191525460401c16156145b157565b604051631afcd79f60e31b8152600490fd5b906101608282031261051057610549916138ea565b6145eb90602080825183010191016145c3565b80516001600160a01b03919082161561498257604080820165ffffffffffff61461a825165ffffffffffff1690565b16156149715760c08301805190929061463b906001600160a01b03166116b0565b15614822575b509161476e6101409261470d6146e86147cc9661468f614667875160018060a01b031690565b5f805462010000600160b01b03191660109290921b62010000600160b01b0316919091179055565b6020860151600180546001600160a01b0319166001600160a01b039092169190911790556132476146bf42613138565b6001805465ffffffffffff60a01b191660a09290921b65ffffffffffff60a01b16919091179055565b600180546001600160d01b031660d09290921b6001600160d01b031916919091179055565b61472d61471d6060850151151590565b60ff80195f541691151516175f55565b61475461473d6080850151151590565b61ff005f5491151560081b169061ff001916175f55565b61476160a0840151600455565b516001600160a01b031690565b848116614812575b5060e08101516001600160a01b0316848116614802575b506101008101516001600160a01b03168481166147f2575b506101208101516001600160a01b03168481166147e2575b5001516001600160a01b031690565b9081166147d65750565b6147df90613799565b50565b6147eb9061372a565b505f6147bd565b6147fb906136bb565b505f6147a5565b61480b906135e5565b505f61478d565b61481b90613534565b505f614776565b60e0840151614839906001600160a01b03166116b0565b1561490e575b610120840151614857906001600160a01b03166116b0565b614641576080840151156148c45760a084015115806148a5575b61489557509161476e6101409261470d6146e86147cc965b94965050509250614641565b5163183c854560e21b8152600490fd5b506101408401516148be906001600160a01b03166116b0565b15614871565b60a0840151158015906148ee575b61489557509161476e6101409261470d6146e86147cc96614889565b50610140840151614907906001600160a01b03166116b0565b15156148d2565b60608401511561494457610100840151614930906001600160a01b03166116b0565b61483f575163183c854560e21b8152600490fd5b61010084015161495c906001600160a01b03166116b0565b1561483f575163183c854560e21b8152600490fd5b81516368f5f8f160e11b8152600490fd5b6040516368f7a67560e11b8152600490fd5b919061499e614595565b6149a6614595565b82516001600160401b038111610b66575f805160206154d3833981519152906149d8816149d384546128d3565b614c71565b602080601f8311600114614a1f57509080614a0d92610bd496975f92614a14575b50508160011b915f199060031b1c19161790565b9055614d63565b015190505f806149f9565b90601f19831696614a5d5f805160206154d38339815191525f527f2ae08a8e29253f69ac5d979a101956ab8f8d9d7ded63fa7a83b16fc47648eab090565b925f905b898210614aa157505090839291600194610bd4989910614a89575b505050811b019055614d63565b01515f1960f88460031b161c191690555f8080614a7c565b80600185968294968601518155019501930190614a61565b90604051614ac681610b6b565b915465ffffffffffff8116835260301c6020830152565b600c5480614aee57505f905f905f90565b805f198101116109fc577fdf6966c971051c3d54ec59162606531493a51404a002842f56009d7e5cf4a8c6614b2791600c5f5201614ab9565b9065ffffffffffff82511691602060018060d01b0391015116906001929190565b600a5480614b5957505f905f905f90565b805f198101116109fc577fc65a7bb8d6351c1cf70c95a316cc6a92839c986682d98bc35f958f4883f9d2a7614b2791600a5f5201614ab9565b805480614ba35750505f905f905f90565b5f199080828101116109fc57614b27925f5260205f200101614ab9565b5f80614be89260018060a01b03169360208151910182865af1614be1612d1c565b908361544f565b8051908115159182614c16575b5050614bfe5750565b60249060405190635274afe760e01b82526004820152fd5b614c299250602080918301019101612ce7565b155f80614bf5565b9190600181018091116109fc57600182018092116109fc57614c54828285613b10565b928215612b3a5709614c635790565b600181018091116109fc5790565b601f8111614c7d575050565b5f805160206154d38339815191525f527f2ae08a8e29253f69ac5d979a101956ab8f8d9d7ded63fa7a83b16fc47648eab0906020601f840160051c83019310614ce0575b601f0160051c01905b818110614cd5575050565b5f8155600101614cca565b9091508190614cc1565b601f8111614cf6575050565b5f805160206155138339815191525f527f46a2803e59a4de4e7a4c574b1243f25977ac4c77d5a1a4a609b5394cebb4a2aa906020601f840160051c83019310614d59575b601f0160051c01905b818110614d4e575050565b5f8155600101614d43565b9091508190614d3a565b9081516001600160401b038111610b66575f8051602061551383398151915290614d9681614d9184546128d3565b614cea565b602080601f8311600114614dcb57508190614dc79394955f92614a145750508160011b915f199060031b1c19161790565b9055565b90601f19831695614e095f805160206155138339815191525f527f46a2803e59a4de4e7a4c574b1243f25977ac4c77d5a1a4a609b5394cebb4a2aa90565b925f905b888210614e4457505083600195969710614e2c575b505050811b019055565b01515f1960f88460031b161c191690555f8080614e22565b80600185968294968601518155019501930190614e0d565b600c5490600160401b821015610b66576001820180600c55821015612ca557600c5f52805160209091015160301b65ffffffffffff191665ffffffffffff91909116175f805160206154b383398151915290910155565b600a5490600160401b821015610b66576001820180600a55821015612ca557600a5f52805160209091015160301b65ffffffffffff191665ffffffffffff91909116175f805160206154f383398151915290910155565b8054600160401b811015610b6657614f2791600182018155613be6565b614f5257815160209092015160301b65ffffffffffff191665ffffffffffff92909216919091179055565b634e487b7160e01b5f525f60045260245ffd5b600c5491929190811561503c57614f86614f816142988461291f565b614ab9565b805165ffffffffffff838116949116841061502a5785602093613d3095614fb6613253865165ffffffffffff1690565b03614ff25750614fcb614298614fe49361291f565b9065ffffffffffff82549181199060301b169116179055565b01516001600160d01b031690565b90506150259150615012615004610bc7565b65ffffffffffff9092168252565b6001600160d01b03871681850152614e5c565b614fe4565b604051632520601d60e01b8152600490fd5b615060915061504c615004610bc7565b6001600160d01b0384166020820152614e5c565b5f9190565b600a549192919081156150eb57615081614f816141d18461291f565b805165ffffffffffff838116949116841061502a5785602093613d30956150b1613253865165ffffffffffff1690565b036150c65750614fcb6141d1614fe49361291f565b905061502591506150d8615004610bc7565b6001600160d01b03871681850152614eb3565b61506091506150fb615004610bc7565b6001600160d01b0384166020820152614eb3565b8054929392919082156151be5761512b614f8161435e8561291f565b9061513c825165ffffffffffff1690565b65ffffffffffff8481169116811061502a57613d3094602094889261516a613253875165ffffffffffff1690565b0361518b5750614fe492615180614fcb9261291f565b905f5260205f200190565b915050615025916151ab61519d610bc7565b65ffffffffffff9093168352565b6001600160d01b03881682860152614f0a565b61506092506151ce61519d610bc7565b6001600160d01b0385166020830152614f0a565b801561403e57806152b46152ad6152a361529961528f61528561527b61527160016105499a5f908b60801c8061530f575b508060401c80615302575b508060201c806152f5575b508060101c806152e8575b508060081c806152db575b508060041c806152ce575b508060021c806152c1575b50821c6152ba575b811c1b61526a818b613b06565b0160011c90565b61526a818a613b06565b61526a8189613b06565b61526a8188613b06565b61526a8187613b06565b61526a8186613b06565b61526a8185613b06565b8092613b06565b90613af4565b810161525d565b600291509101905f615255565b600491509101905f61524a565b600891509101905f61523f565b601091509101905f615234565b602091509101905f615229565b604091509101905f61521e565b9150506080905f615213565b905b82811061532957505090565b9091808216906001818418811c83018093116109fc57600a5f5265ffffffffffff80845f805160206154f3833981519152015416908616105f14615371575050915b9061531d565b9093925081018091116109fc579061536b565b905b82811061539257505090565b9091808216906001818418811c83018093116109fc57600c5f5265ffffffffffff80845f805160206154b3833981519152015416908616105f146153da575050915b90615386565b9093925081018091116109fc57906153d4565b91905b8382106153fd5750505090565b909192808316906001818518811c83018093116109fc57855f5265ffffffffffff808460205f20015416908516105f1461543c575050925b91906153f0565b9094935081018091116109fc5791615435565b90615476575080511561546457805190602001fd5b604051630a12f52160e11b8152600490fd5b815115806154a9575b615487575090565b604051639996b31560e01b81526001600160a01b039091166004820152602490fd5b50803b1561547f56fedf6966c971051c3d54ec59162606531493a51404a002842f56009d7e5cf4a8c752c63247e1f47db19d5ce0460030c497f067ca4cebf71ba98eeadabe20bace03c65a7bb8d6351c1cf70c95a316cc6a92839c986682d98bc35f958f4883f9d2a852c63247e1f47db19d5ce0460030c497f067ca4cebf71ba98eeadabe20bace049016d09d72d40fdae2fd8ceac6b6234c7706214fd39c1cd1e609a0528c199300d7b6990105719101dabeb77144f2a3385c8033acd3af97e9423a695e81ad1eb50175b7a638427703f0dbe7bb9bbf987a2551717b34e79f33b5b1008d1fa01db902dd7bc7dec4dceedda775e58dd541e08a116c6c53815c0bd028192f7b6268009b779b17422d0df92223018b32b4d1fa46e071723d6817e2486d003becc55f00f0c57e16840df040f15088dc2f81fe391c3923bec73e23a9662efc9c229c6a00a2646970667358221220fc8b386c3222118c0338e59dcf730ede1251801f67673f0524275156e175ffa264736f6c63430008190033","linkReferences":{}},"methodIdentifiers":{"DEFAULT_ADMIN_ROLE()":"a217fddf","DELEGATOR_FACTORY()":"6da3e06d","DEPOSITOR_WHITELIST_ROLE()":"1b66c9e1","DEPOSIT_LIMIT_SET_ROLE()":"a21a1df9","DEPOSIT_WHITELIST_SET_ROLE()":"db388715","FACTORY()":"2dd31000","IS_DEPOSIT_LIMIT_SET_ROLE()":"1415519b","SLASHER_FACTORY()":"87df0788","activeBalanceOf(address)":"59f769a9","activeBalanceOfAt(address,uint48,bytes)":"efb559d6","activeShares()":"bfefcd7b","activeSharesAt(uint48,bytes)":"50f22068","activeSharesOf(address)":"9d66201b","activeSharesOfAt(address,uint48,bytes)":"2d73c69c","activeStake()":"bd49c35f","activeStakeAt(uint48,bytes)":"810da75d","allowance(address,address)":"dd62ed3e","approve(address,uint256)":"095ea7b3","balanceOf(address)":"70a08231","burner()":"27810b6e","claim(address,uint256)":"aad3ec96","claimBatch(address,uint256[])":"7c04c80a","collateral()":"d8dfeb45","currentEpoch()":"76671808","currentEpochStart()":"61a8c8c4","decimals()":"313ce567","delegator()":"ce9b7930","deposit(address,uint256)":"47e7ef24","depositLimit()":"ecf70858","depositWhitelist()":"48d3b775","epochAt(uint48)":"7953b33b","epochDuration()":"4ff0876a","epochDurationInit()":"46361671","getRoleAdmin(bytes32)":"248a9ca3","grantRole(bytes32,address)":"2f2ff15d","hasRole(bytes32,address)":"91d14854","initialize(uint64,address,bytes)":"57ec83cc","isDelegatorInitialized()":"50861adc","isDepositLimit()":"a1b12202","isDepositorWhitelisted(address)":"794b15b7","isInitialized()":"392e53cd","isSlasherInitialized()":"6ec1e3f8","isWithdrawalsClaimed(uint256,address)":"a5d03223","migrate(uint64,bytes)":"2abe3048","name()":"06fdde03","nextEpochStart()":"73790ab3","onSlash(uint256,uint48)":"7278e31c","owner()":"8da5cb5b","previousEpochStart()":"281f5752","redeem(address,uint256)":"1e9a6950","renounceOwnership()":"715018a6","renounceRole(bytes32,address)":"36568abe","revokeRole(bytes32,address)":"d547741f","setDelegator(address)":"83cd9cc3","setDepositLimit(uint256)":"bdc8144b","setDepositWhitelist(bool)":"4105a7dd","setDepositorWhitelistStatus(address,bool)":"a2861466","setIsDepositLimit(bool)":"5346e34f","setSlasher(address)":"aabc2496","slashableBalanceOf(address)":"c31e8dd7","slasher()":"b1344271","staticDelegateCall(address,bytes)":"9f86fd85","supportsInterface(bytes4)":"01ffc9a7","symbol()":"95d89b41","totalStake()":"8b0e9f3f","totalSupply()":"18160ddd","transfer(address,uint256)":"a9059cbb","transferFrom(address,address,uint256)":"23b872dd","transferOwnership(address)":"f2fde38b","version()":"54fd4d50","withdraw(address,uint256)":"f3fef3a3","withdrawalShares(uint256)":"afba70ad","withdrawalSharesOf(uint256,address)":"a3b54172","withdrawals(uint256)":"5cc07076","withdrawalsOf(uint256,address)":"f5e7ee0f"},"id":113}