{"abi":[{"type":"constructor","inputs":[{"name":"factory","type":"address","internalType":"address"}],"stateMutability":"nonpayable"},{"type":"function","name":"FACTORY","inputs":[],"outputs":[{"name":"","type":"address","internalType":"address"}],"stateMutability":"view"},{"type":"function","name":"a","inputs":[],"outputs":[{"name":"","type":"uint256","internalType":"uint256"}],"stateMutability":"view"},{"type":"function","name":"b","inputs":[],"outputs":[{"name":"","type":"uint256","internalType":"uint256"}],"stateMutability":"view"},{"type":"function","name":"initialize","inputs":[{"name":"initialVersion","type":"uint64","internalType":"uint64"},{"name":"owner_","type":"address","internalType":"address"},{"name":"data","type":"bytes","internalType":"bytes"}],"outputs":[],"stateMutability":"nonpayable"},{"type":"function","name":"migrate","inputs":[{"name":"newVersion","type":"uint64","internalType":"uint64"},{"name":"data","type":"bytes","internalType":"bytes"}],"outputs":[],"stateMutability":"nonpayable"},{"type":"function","name":"owner","inputs":[],"outputs":[{"name":"","type":"address","internalType":"address"}],"stateMutability":"view"},{"type":"function","name":"renounceOwnership","inputs":[],"outputs":[],"stateMutability":"nonpayable"},{"type":"function","name":"setA","inputs":[{"name":"a_","type":"uint256","internalType":"uint256"}],"outputs":[],"stateMutability":"nonpayable"},{"type":"function","name":"setB","inputs":[{"name":"b_","type":"uint256","internalType":"uint256"}],"outputs":[],"stateMutability":"nonpayable"},{"type":"function","name":"transferOwnership","inputs":[{"name":"newOwner","type":"address","internalType":"address"}],"outputs":[],"stateMutability":"nonpayable"},{"type":"function","name":"version","inputs":[],"outputs":[{"name":"","type":"uint64","internalType":"uint64"}],"stateMutability":"view"},{"type":"event","name":"Initialized","inputs":[{"name":"version","type":"uint64","indexed":false,"internalType":"uint64"}],"anonymous":false},{"type":"event","name":"OwnershipTransferred","inputs":[{"name":"previousOwner","type":"address","indexed":true,"internalType":"address"},{"name":"newOwner","type":"address","indexed":true,"internalType":"address"}],"anonymous":false},{"type":"error","name":"AlreadyInitialized","inputs":[]},{"type":"error","name":"InvalidInitialization","inputs":[]},{"type":"error","name":"NotFactory","inputs":[]},{"type":"error","name":"NotInitialized","inputs":[]},{"type":"error","name":"NotInitializing","inputs":[]},{"type":"error","name":"OwnableInvalidOwner","inputs":[{"name":"owner","type":"address","internalType":"address"}]},{"type":"error","name":"OwnableUnauthorizedAccount","inputs":[{"name":"account","type":"address","internalType":"address"}]},{"type":"error","name":"ReentrancyGuardReentrantCall","inputs":[]}],"bytecode":{"object":"0x60a034610106576001600160401b0390601f6108a238819003918201601f19168301918483118484101761010b578084926020946040528339810103126101065751906001600160a01b0382168203610106577ff0c57e16840df040f15088dc2f81fe391c3923bec73e23a9662efc9c229c6a009081549060ff8260401c166100f45780808316036100af575b83608052604051610780908161012282396080518181816103ed015261048a0152f35b6001600160401b031990911681179091556040519081527fc7f505b2f371ae2175ee4913f4499e1f2633a7b5936321eed1cdaeb6115181d290602090a138808061008c565b60405163f92ee8a960e01b8152600490fd5b600080fd5b634e487b7160e01b600052604160045260246000fdfe60806040908082526004908136101561001757600080fd5b600092833560e01c91826309cdcf9b146105c95782630dbe671f146105ad575081632abe30481461041c5781632dd31000146103d85781634df7e3d0146103b957816354fd4d501461038357816357ec83cc146101b6578163715018a6146101495781638da5cb5b1461011357508063ee919d50146100d95763f2fde38b1461009f57600080fd5b346100d55760203660031901126100d557356001600160a01b03811681036100d5576100d2906100cd6106a2565b61062e565b80f35b5080fd5b50346100d55760203660031901126100d557803590600182018092116101005750600a5580f35b634e487b7160e01b835260119052602482fd5b8390346100d557816003193601126100d55760008051602061070b8339815191525490516001600160a01b039091168152602090f35b83346101b357806003193601126101b3576101626106a2565b60008051602061070b83398151915280546001600160a01b0319811690915581906001600160a01b03167f8be0079c531659141344cd1fd0a4f28419497f9722a3daafe3b4186f6b6457e08280a380f35b80fd5b9190503461037f57606036600319011261037f576101d26105e4565b602435926001600160a01b03841680850361037b5767ffffffffffffffff94604435868111610377576102089036908701610600565b96909160008051602061072b83398151915293845496838816806103685760ff89891c1690811561035b575b5061034b5783600160401b9116809868ffffffffffffffffff19161717855561025b6106db565b6102636106db565b60017f9b779b17422d0df92223018b32b4d1fa46e071723d6817e2486d003becc55f0055610331575b5080871161031e57835195601f8801601f19908116603f011687019182118783101761030b57508352858552869036878201116100d55786867fc7f505b2f371ae2175ee4913f4499e1f2633a7b5936321eed1cdaeb6115181d298602098938980950137010152805468ff00000000000000001916905551908152a180f35b634e487b7160e01b895260419052602488fd5b634e487b7160e01b885260418652602488fd5b6103459061033d6106db565b6100cd6106db565b3861028c565b865163f92ee8a960e01b81528990fd5b9050848216111538610234565b875162dc149f60e41b81528a90fd5b8780fd5b8580fd5b8280fd5b8390346100d557816003193601126100d55760209067ffffffffffffffff60008051602061072b83398151915254169051908152f35b8390346100d557816003193601126100d557602090600b549051908152f35b8390346100d557816003193601126100d557517f00000000000000000000000000000000000000000000000000000000000000006001600160a01b03168152602090f35b9190503461037f578160031936011261037f576104376105e4565b906024359267ffffffffffffffff9384811161037b5761045a9036908401610600565b9390917f9b779b17422d0df92223018b32b4d1fa46e071723d6817e2486d003becc55f0094600286541461059d577f00000000000000000000000000000000000000000000000000000000000000006001600160a01b0316330361058d5760008051602061072b833981519152968754958187169460ff88861c168015610581575b6105725782169485039082821161055f5750600191161161037757836020918101031261055b576001957fc7f505b2f371ae2175ee4913f4499e1f2633a7b5936321eed1cdaeb6115181d29460209435600b55600160401b8468ff0000000000000000199268ffffffffffffffffff1916171716905551908152a15580f35b8680fd5b634e487b7160e01b8b526011905260248afd5b50835163f92ee8a960e01b8152fd5b508281168610156104dc565b8151631966391b60e11b81528590fd5b8151633ee5aeb560e01b81528590fd5b8490346100d557816003193601126100d557602090600a548152f35b505050346100d55760203660031901126100d55735600b5580f35b6004359067ffffffffffffffff821682036105fb57565b600080fd5b9181601f840112156105fb5782359167ffffffffffffffff83116105fb57602083818601950101116105fb57565b6001600160a01b039081169081156106895760008051602061070b83398151915280546001600160a01b031981168417909155167f8be0079c531659141344cd1fd0a4f28419497f9722a3daafe3b4186f6b6457e0600080a3565b604051631e4fbdf760e01b815260006004820152602490fd5b60008051602061070b833981519152546001600160a01b031633036106c357565b60405163118cdaa760e01b8152336004820152602490fd5b60ff60008051602061072b8339815191525460401c16156106f857565b604051631afcd79f60e31b8152600490fdfe9016d09d72d40fdae2fd8ceac6b6234c7706214fd39c1cd1e609a0528c199300f0c57e16840df040f15088dc2f81fe391c3923bec73e23a9662efc9c229c6a00a26469706673582212202add8150540ddb0384e243df5a7f223ae0f2ba4f12d3a837957ae9bec7af2ed464736f6c63430008190033","linkReferences":{}},"methodIdentifiers":{"FACTORY()":"2dd31000","a()":"0dbe671f","b()":"4df7e3d0","initialize(uint64,address,bytes)":"57ec83cc","migrate(uint64,bytes)":"2abe3048","owner()":"8da5cb5b","renounceOwnership()":"715018a6","setA(uint256)":"ee919d50","setB(uint256)":"09cdcf9b","transferOwnership(address)":"f2fde38b","version()":"54fd4d50"},"id":147}