{"abi":[{"type":"constructor","inputs":[{"name":"factory","type":"address","internalType":"address"}],"stateMutability":"nonpayable"},{"type":"function","name":"FACTORY","inputs":[],"outputs":[{"name":"","type":"address","internalType":"address"}],"stateMutability":"view"},{"type":"function","name":"a","inputs":[],"outputs":[{"name":"","type":"uint256","internalType":"uint256"}],"stateMutability":"view"},{"type":"function","name":"b","inputs":[],"outputs":[{"name":"","type":"uint256","internalType":"uint256"}],"stateMutability":"view"},{"type":"function","name":"initialize","inputs":[{"name":"initialVersion","type":"uint64","internalType":"uint64"},{"name":"owner_","type":"address","internalType":"address"},{"name":"data","type":"bytes","internalType":"bytes"}],"outputs":[],"stateMutability":"nonpayable"},{"type":"function","name":"migrate","inputs":[{"name":"newVersion","type":"uint64","internalType":"uint64"},{"name":"data","type":"bytes","internalType":"bytes"}],"outputs":[],"stateMutability":"nonpayable"},{"type":"function","name":"owner","inputs":[],"outputs":[{"name":"","type":"address","internalType":"address"}],"stateMutability":"view"},{"type":"function","name":"renounceOwnership","inputs":[],"outputs":[],"stateMutability":"nonpayable"},{"type":"function","name":"setA","inputs":[{"name":"a_","type":"uint256","internalType":"uint256"}],"outputs":[],"stateMutability":"nonpayable"},{"type":"function","name":"setB","inputs":[{"name":"b_","type":"uint256","internalType":"uint256"}],"outputs":[],"stateMutability":"nonpayable"},{"type":"function","name":"transferOwnership","inputs":[{"name":"newOwner","type":"address","internalType":"address"}],"outputs":[],"stateMutability":"nonpayable"},{"type":"function","name":"version","inputs":[],"outputs":[{"name":"","type":"uint64","internalType":"uint64"}],"stateMutability":"view"},{"type":"event","name":"Initialized","inputs":[{"name":"version","type":"uint64","indexed":false,"internalType":"uint64"}],"anonymous":false},{"type":"event","name":"OwnershipTransferred","inputs":[{"name":"previousOwner","type":"address","indexed":true,"internalType":"address"},{"name":"newOwner","type":"address","indexed":true,"internalType":"address"}],"anonymous":false},{"type":"error","name":"AlreadyInitialized","inputs":[]},{"type":"error","name":"InvalidInitialization","inputs":[]},{"type":"error","name":"NotFactory","inputs":[]},{"type":"error","name":"NotInitialized","inputs":[]},{"type":"error","name":"NotInitializing","inputs":[]},{"type":"error","name":"OwnableInvalidOwner","inputs":[{"name":"owner","type":"address","internalType":"address"}]},{"type":"error","name":"OwnableUnauthorizedAccount","inputs":[{"name":"account","type":"address","internalType":"address"}]},{"type":"error","name":"ReentrancyGuardReentrantCall","inputs":[]}],"bytecode":{"object":"0x60a034610106576001600160401b0390601f61084c38819003918201601f19168301918483118484101761010a578084926020946040528339810103126101065751906001600160a01b0382168203610106577ff0c57e16840df040f15088dc2f81fe391c3923bec73e23a9662efc9c229c6a009081549060ff8260401c166100f45780808316036100af575b8360805260405161072d908161011f82396080518181816103c4015261045f0152f35b6001600160401b031990911681179091556040519081527fc7f505b2f371ae2175ee4913f4499e1f2633a7b5936321eed1cdaeb6115181d290602090a15f808061008c565b60405163f92ee8a960e01b8152600490fd5b5f80fd5b634e487b7160e01b5f52604160045260245ffdfe608060409080825260049182361015610016575f80fd5b5f3560e01c91826309cdcf9b146105835782630dbe671f14610569575081632abe3048146103f35781632dd31000146103b15781634df7e3d01461039457816354fd4d501461036157816357ec83cc146101a6578163715018a61461013f5781638da5cb5b1461010c57508063ee919d50146100d35763f2fde38b1461009a575f80fd5b346100cf5760203660031901126100cf57356001600160a01b03811681036100cf576100cd906100c8610651565b6105e0565b005b5f80fd5b50346100cf5760203660031901126100cf57803590600182018092116100f95750600a55005b601190634e487b7160e01b5f525260245ffd5b346100cf575f3660031901126100cf575f805160206106b88339815191525490516001600160a01b039091168152602090f35b346100cf575f3660031901126100cf57610157610651565b5f805160206106b883398151915280546001600160a01b031981169091555f906001600160a01b03167f8be0079c531659141344cd1fd0a4f28419497f9722a3daafe3b4186f6b6457e08280a3005b82346100cf5760603660031901126100cf576101c061059b565b602435926001600160a01b0384168085036100cf5767ffffffffffffffff936044358581116100cf576101f690369083016105b2565b9590965f805160206106d883398151915293845496838816806103525760ff89891c16908115610345575b506103355783600160401b9116809868ffffffffffffffffff191617178555610248610689565b610250610689565b60017f9b779b17422d0df92223018b32b4d1fa46e071723d6817e2486d003becc55f005561031b575b5080861161030857835191601f8701601f19908116603f01168301918211838310176102f55750835284815236858701116100cf576020858282977fc7f505b2f371ae2175ee4913f4499e1f2633a7b5936321eed1cdaeb6115181d299845f960137010152805468ff00000000000000001916905551908152a1005b604190634e487b7160e01b5f525260245ffd5b604182634e487b7160e01b5f525260245ffd5b61032f90610327610689565b6100c8610689565b87610279565b865163f92ee8a960e01b81528590fd5b905084821611158b610221565b875162dc149f60e41b81528690fd5b346100cf575f3660031901126100cf5760209067ffffffffffffffff5f805160206106d883398151915254169051908152f35b346100cf575f3660031901126100cf57602090600b549051908152f35b346100cf575f3660031901126100cf57517f00000000000000000000000000000000000000000000000000000000000000006001600160a01b03168152602090f35b82346100cf57816003193601126100cf5761040c61059b565b906024359267ffffffffffffffff938481116100cf5761042f90369084016105b2565b9390917f9b779b17422d0df92223018b32b4d1fa46e071723d6817e2486d003becc55f00946002865414610559577f00000000000000000000000000000000000000000000000000000000000000006001600160a01b03163303610549575f805160206106d8833981519152968754958187169460ff88861c16801561053d575b61052e578216948503908282116100f9575060019116116100cf5783602091810103126100cf576001957fc7f505b2f371ae2175ee4913f4499e1f2633a7b5936321eed1cdaeb6115181d29460209435600b55600160401b8468ff0000000000000000199268ffffffffffffffffff1916171716905551908152a155005b50835163f92ee8a960e01b8152fd5b508281168610156104b0565b8151631966391b60e11b81528590fd5b8151633ee5aeb560e01b81528590fd5b346100cf575f3660031901126100cf57602090600a548152f35b83346100cf5760203660031901126100cf5735600b55005b6004359067ffffffffffffffff821682036100cf57565b9181601f840112156100cf5782359167ffffffffffffffff83116100cf57602083818601950101116100cf57565b6001600160a01b03908116908115610639575f805160206106b883398151915280546001600160a01b031981168417909155167f8be0079c531659141344cd1fd0a4f28419497f9722a3daafe3b4186f6b6457e05f80a3565b604051631e4fbdf760e01b81525f6004820152602490fd5b5f805160206106b8833981519152546001600160a01b0316330361067157565b60405163118cdaa760e01b8152336004820152602490fd5b60ff5f805160206106d88339815191525460401c16156106a557565b604051631afcd79f60e31b8152600490fdfe9016d09d72d40fdae2fd8ceac6b6234c7706214fd39c1cd1e609a0528c199300f0c57e16840df040f15088dc2f81fe391c3923bec73e23a9662efc9c229c6a00a26469706673582212206efc215e5bf0caa7ed2e20b4f3b1ce4889f2fd34a449b369cfafb36e0b0841ef64736f6c63430008190033","linkReferences":{}},"methodIdentifiers":{"FACTORY()":"2dd31000","a()":"0dbe671f","b()":"4df7e3d0","initialize(uint64,address,bytes)":"57ec83cc","migrate(uint64,bytes)":"2abe3048","owner()":"8da5cb5b","renounceOwnership()":"715018a6","setA(uint256)":"ee919d50","setB(uint256)":"09cdcf9b","transferOwnership(address)":"f2fde38b","version()":"54fd4d50"},"id":157}