{"abi":[{"type":"constructor","inputs":[{"name":"owner_","type":"address","internalType":"address"}],"stateMutability":"nonpayable"},{"type":"function","name":"blacklist","inputs":[{"name":"version","type":"uint64","internalType":"uint64"}],"outputs":[],"stateMutability":"nonpayable"},{"type":"function","name":"blacklisted","inputs":[{"name":"version","type":"uint64","internalType":"uint64"}],"outputs":[{"name":"value","type":"bool","internalType":"bool"}],"stateMutability":"view"},{"type":"function","name":"create","inputs":[{"name":"version","type":"uint64","internalType":"uint64"},{"name":"owner_","type":"address","internalType":"address"},{"name":"data","type":"bytes","internalType":"bytes"}],"outputs":[{"name":"entity_","type":"address","internalType":"address"}],"stateMutability":"nonpayable"},{"type":"function","name":"entity","inputs":[{"name":"index","type":"uint256","internalType":"uint256"}],"outputs":[{"name":"","type":"address","internalType":"address"}],"stateMutability":"view"},{"type":"function","name":"implementation","inputs":[{"name":"version","type":"uint64","internalType":"uint64"}],"outputs":[{"name":"","type":"address","internalType":"address"}],"stateMutability":"view"},{"type":"function","name":"isEntity","inputs":[{"name":"entity_","type":"address","internalType":"address"}],"outputs":[{"name":"","type":"bool","internalType":"bool"}],"stateMutability":"view"},{"type":"function","name":"lastVersion","inputs":[],"outputs":[{"name":"","type":"uint64","internalType":"uint64"}],"stateMutability":"view"},{"type":"function","name":"migrate","inputs":[{"name":"entity_","type":"address","internalType":"address"},{"name":"newVersion","type":"uint64","internalType":"uint64"},{"name":"data","type":"bytes","internalType":"bytes"}],"outputs":[],"stateMutability":"nonpayable"},{"type":"function","name":"owner","inputs":[],"outputs":[{"name":"","type":"address","internalType":"address"}],"stateMutability":"view"},{"type":"function","name":"renounceOwnership","inputs":[],"outputs":[],"stateMutability":"nonpayable"},{"type":"function","name":"totalEntities","inputs":[],"outputs":[{"name":"","type":"uint256","internalType":"uint256"}],"stateMutability":"view"},{"type":"function","name":"transferOwnership","inputs":[{"name":"newOwner","type":"address","internalType":"address"}],"outputs":[],"stateMutability":"nonpayable"},{"type":"function","name":"whitelist","inputs":[{"name":"implementation_","type":"address","internalType":"address"}],"outputs":[],"stateMutability":"nonpayable"},{"type":"event","name":"AddEntity","inputs":[{"name":"entity","type":"address","indexed":true,"internalType":"address"}],"anonymous":false},{"type":"event","name":"Blacklist","inputs":[{"name":"version","type":"uint64","indexed":true,"internalType":"uint64"}],"anonymous":false},{"type":"event","name":"Migrate","inputs":[{"name":"entity","type":"address","indexed":true,"internalType":"address"},{"name":"newVersion","type":"uint64","indexed":false,"internalType":"uint64"}],"anonymous":false},{"type":"event","name":"OwnershipTransferred","inputs":[{"name":"previousOwner","type":"address","indexed":true,"internalType":"address"},{"name":"newOwner","type":"address","indexed":true,"internalType":"address"}],"anonymous":false},{"type":"event","name":"Whitelist","inputs":[{"name":"implementation","type":"address","indexed":true,"internalType":"address"}],"anonymous":false},{"type":"error","name":"AlreadyBlacklisted","inputs":[]},{"type":"error","name":"AlreadyWhitelisted","inputs":[]},{"type":"error","name":"EntityNotExist","inputs":[]},{"type":"error","name":"InvalidImplementation","inputs":[]},{"type":"error","name":"InvalidVersion","inputs":[]},{"type":"error","name":"NotOwner","inputs":[]},{"type":"error","name":"OldVersion","inputs":[]},{"type":"error","name":"OwnableInvalidOwner","inputs":[{"name":"owner","type":"address","internalType":"address"}]},{"type":"error","name":"OwnableUnauthorizedAccount","inputs":[{"name":"account","type":"address","internalType":"address"}]}],"bytecode":{"object":"0x60803460b757601f6112ce38819003918201601f19168301916001600160401b0383118484101760bc5780849260209460405283398101031260b757516001600160a01b03908181169081900360b7578015609e57600280546001600160a01b03198116831790915560405192167f8be0079c531659141344cd1fd0a4f28419497f9722a3daafe3b4186f6b6457e0600080a36111fb90816100d38239f35b604051631e4fbdf760e01b815260006004820152602490fd5b600080fd5b634e487b7160e01b600052604160045260246000fdfe6040608081526004908136101561001557600080fd5b600091823560e01c90816314887c58146108615781633ac04911146106ed578163583366621461049d5781635cd8b15e1461048057816364dfea0614610458578163715018a6146103fa5781638da5cb5b146103d15781639b19251a146102eb578163b42ba2a214610277578163b572a966146101bd578163b6caa11914610180578163f2fde38b146100eb575063f9661602146100b257600080fd5b346100e75760203660031901126100e7576020906100d66100d16108c2565b6109d9565b90516001600160a01b039091168152f35b5080fd5b90503461017c57602036600319011261017c576101066108a7565b9061010f610a52565b6001600160a01b03918216928315610166575050600254826bffffffffffffffffffffffff60a01b821617600255167f8be0079c531659141344cd1fd0a4f28419497f9722a3daafe3b4186f6b6457e0600080a380f35b51631e4fbdf760e01b8152908101849052602490fd5b8280fd5b5050346100e75760203660031901126100e75760ff8160209367ffffffffffffffff6101aa6108c2565b1681526003855220541690519015158152f35b9190503461017c57602036600319011261017c576101d96108c2565b916101e2610a52565b67ffffffffffffffff80931692831590811561026a575b5061025c57828452600360205260ff828520541661024e575081835260036020528220805460ff191660011790557ffc8245c2838846b295ae66fbe0d08e20c799b737c93b56f7b209df2e5fa2d4588280a280f35b905163f53de75f60e01b8152fd5b905163a9146eeb60e01b8152fd5b90508154168311386101f9565b8284346102e85760203660031901126102e8575081356000548110156102d357600080527f290decd9548b62a8d60345a988386fc84ba6bc95484008f6362f93160ef3e563015490516001600160a01b03909116815260209150f35b603283634e487b7160e01b6000525260246000fd5b80fd5b90503461017c57602036600319011261017c576103066108a7565b9161030f610a52565b80516202dd3160ec1b81526001600160a01b03938416936020828581885afa9182156103c7578692610396575b50309116036103895761034e83610b60565b1561037c5750507feb73900b98b6a3e2b8b01708fe544760cf570d21e7fbe5225f24e48b5b2b432e8280a280f35b5163b73e95e160e01b8152fd5b5163340aafcd60e11b8152fd5b6103b991925060203d6020116103c0575b6103b18183610928565b8101906109ba565b903861033c565b503d6103a7565b83513d88823e3d90fd5b5050346100e757816003193601126100e75760025490516001600160a01b039091168152602090f35b83346102e857806003193601126102e857610413610a52565b600280546001600160a01b031981169091556000906001600160a01b03167f8be0079c531659141344cd1fd0a4f28419497f9722a3daafe3b4186f6b6457e08280a380f35b8284346102e857806003193601126102e8575067ffffffffffffffff60209254169051908152f35b5050346100e757816003193601126100e757602091549051908152f35b8383346100e75760603660031901126100e7576104b86108a7565b6024359167ffffffffffffffff90818416918285036106e9576044358181116106e5576104e890369089016108d9565b6001600160a01b03958616600081815260016020526040902054909790156106d5578451638da5cb5b60e01b81526020979088818d818d5afa9081156106cb578b916106ae575b5016330361069e57845163054fd4d560e41b815287818c818c5afa908115610694579085918b91610656575b5016861115610646576105706105a9916109d9565b9161059b8651948592630557c60960e31b8b8501528960248501528860448501526064840191610907565b03601f198101845283610928565b863b1561064257835163278f794360e11b815292918891849182916105d191908d8401610960565b0381838a5af180156106385761060f575b5050519081527fb91c18bf7dbfdff96560fb98128531c4c6187079fe0bd7f24a81f54ea87f35a79190a280f35b81969296116106255785529394508486806105e2565b634e487b7160e01b825260418752602482fd5b83513d89823e3d90fd5b8780fd5b8451630384ebd960e41b81528a90fd5b809250898092503d831161068d575b61066f8183610928565b81010312610689575184811681036106895784908c61055b565b8980fd5b503d610665565b86513d8c823e3d90fd5b84516330cd747160e01b81528a90fd5b6106c59150893d8b116103c0576103b18183610928565b8c61052f565b87513d8d823e3d90fd5b845163e3fd10ff60e01b81528a90fd5b8680fd5b8580fd5b90503461017c57606036600319011261017c576107086108c2565b6001600160a01b0391602435838116908190036106e95760443567ffffffffffffffff808211610642576107426107d292369086016108d9565b9290886107c68b549261079883519460208601908152878c1680958701528960608701526080808701528561077b60a082018b86610907565b039561078f601f1997888101835282610928565b5190209a6109d9565b968c519889946315fb20f360e21b602087015260248601526044850152606060648501526084840191610907565b03908101855284610928565b86519361060990818601928684109084111761084e5750918493916107fb93610bbd8639610960565b039085f5801561084257917fb919910dcefbf753bfd926ab3b1d3f85d877190c3d01ba1bd585047b99b99f0b91602094931691829161083983610acb565b50519380a28152f35b505051903d90823e3d90fd5b634e487b7160e01b8a5260419052602489fd5b5050346100e75760203660031901126100e75760209061089e6001600160a01b0361088a6108a7565b166000526001602052604060002054151590565b90519015158152f35b600435906001600160a01b03821682036108bd57565b600080fd5b6004359067ffffffffffffffff821682036108bd57565b9181601f840112156108bd5782359167ffffffffffffffff83116108bd57602083818601950101116108bd57565b908060209392818452848401376000828201840152601f01601f1916010190565b90601f8019910116810190811067ffffffffffffffff82111761094a57604052565b634e487b7160e01b600052604160045260246000fd5b6001600160a01b039091168152604060208083018290528351918301829052939260005b8281106109a657505060609293506000838284010152601f8019910116010190565b818101860151848201606001528501610984565b908160209103126108bd57516001600160a01b03811681036108bd5790565b67ffffffffffffffff80911680158015610a45575b610a33576000190190808211610a1d57610a089116610a7e565b905460039190911b1c6001600160a01b031690565b634e487b7160e01b600052601160045260246000fd5b60405163a9146eeb60e01b8152600490fd5b50816004541681116109ee565b6002546001600160a01b03163303610a6657565b60405163118cdaa760e01b8152336004820152602490fd5b600454811015610ab55760046000527f8a35acfbc15ff81a39ae7d344fd709f28e8600b4aa8c65c6b64bfe7fe36bd19b0190600090565b634e487b7160e01b600052603260045260246000fd5b600081815260016020526040812054610b5b578054600160401b811015610b475760018101808355811015610b335790826040927f290decd9548b62a8d60345a988386fc84ba6bc95484008f6362f93160ef3e5630155805492815260016020522055600190565b634e487b7160e01b82526032600452602482fd5b634e487b7160e01b82526041600452602482fd5b905090565b600081815260056020526040812054610b5b57600454600160401b811015610b475790610b9582600160409401600455610a7e565b81549060031b9085821b91600019901b19161790556004549281526005602052205560019056fe604060a0815234610204576106098038038061001a81610209565b92833981019082818303126102045780516001600160a01b0392838216918281036102045760208481015190946001600160401b038211610204570182601f820112156102045780519061007561007083610244565b610209565b9382855286838301011161020457859060005b8381106101f057505060009184010152803b156101d8577f360894a13ba1a3210667c828492db98dca3e2076cc3735a920a3ca505d382bbc80546001600160a01b03199081168517909155927fbc7cd75a20ee27fd9adebab32041f755214dbc6bffa90cc0225b39da2e5c2d3b600080a2815191849083156101cf5761013493600092839201845af43d156101c7573d9161012561007084610244565b9283523d60008785013e61025f565b505b336080527f7e644d79422f17c01e4894b5f4f588d331ebfa28653d42ae832dc59e38c9798f847fb53127684a568b3173ae13b9f8a6016e243e63b6e8ee1178d6a717850b5d610394855494825191861682523390820152a133156101af5716331790555161034690816102c38239608051816101030152f35b8351633173bdd160e11b815260006004820152602490fd5b60609161025f565b50505050610136565b8551634c9c8ce360e01b815260048101849052602490fd5b818101830151868201840152879201610088565b600080fd5b6040519190601f01601f191682016001600160401b0381118382101761022e57604052565b634e487b7160e01b600052604160045260246000fd5b6001600160401b03811161022e57601f01601f191660200190565b90610286575080511561027457805190602001fd5b604051630a12f52160e11b8152600490fd5b815115806102b9575b610297575090565b604051639996b31560e01b81526001600160a01b039091166004820152602490fd5b50803b1561028f56fe60806040526004361061020d576000803560e01c634f1ef28614610023575061020d565b34610097576040366003190112610097576004356001600160a01b0381168103610093576024359067ffffffffffffffff9081831161008f573660238401121561008f57826004013591821161008f57366024838501011161008f57602461008c9301906100f7565b80f35b8380fd5b5080fd5b80fd5b634e487b7160e01b600052604160045260246000fd5b6040519190601f01601f1916820167ffffffffffffffff8111838210176100d657604052565b61009a565b67ffffffffffffffff81116100d657601f01601f191660200190565b916001600160a01b03907f0000000000000000000000000000000000000000000000000000000000000000821633036101fb5761013b610136826100db565b6100b0565b9281845236828201116101f657816000926020928387013784010152823b156101dc5782167f360894a13ba1a3210667c828492db98dca3e2076cc3735a920a3ca505d382bbc816bffffffffffffffffffffffff60a01b8254161790557fbc7cd75a20ee27fd9adebab32041f755214dbc6bffa90cc0225b39da2e5c2d3b600080a28051156101d0576101cd91610272565b50565b50506101da610259565b565b604051634c9c8ce360e01b81529083166004820152602490fd5b600080fd5b6040516334ad5dbb60e21b8152600490fd5b7f360894a13ba1a3210667c828492db98dca3e2076cc3735a920a3ca505d382bbc54600090819081906001600160a01b0316368280378136915af43d82803e15610255573d90f35b3d90fd5b3461026057565b60405163b398979f60e01b8152600490fd5b6000806102a693602081519101845af43d156102a9573d91610296610136846100db565b9283523d6000602085013e6102ad565b90565b6060915b906102d457508051156102c257805190602001fd5b604051630a12f52160e11b8152600490fd5b81511580610307575b6102e5575090565b604051639996b31560e01b81526001600160a01b039091166004820152602490fd5b50803b156102dd56fea2646970667358221220e5c18f58a04218f912ea9f96de2e9f1b005db1c63ed03f594dd8fa5fd75fea9a64736f6c63430008190033a2646970667358221220288c7434326c915affc06cab20f3d451377fbc2a6352e16903b8fb058cb5de8164736f6c63430008190033","linkReferences":{}},"methodIdentifiers":{"blacklist(uint64)":"b572a966","blacklisted(uint64)":"b6caa119","create(uint64,address,bytes)":"3ac04911","entity(uint256)":"b42ba2a2","implementation(uint64)":"f9661602","isEntity(address)":"14887c58","lastVersion()":"64dfea06","migrate(address,uint64,bytes)":"58336662","owner()":"8da5cb5b","renounceOwnership()":"715018a6","totalEntities()":"5cd8b15e","transferOwnership(address)":"f2fde38b","whitelist(address)":"9b19251a"},"id":71}