{"abi":[{"type":"constructor","inputs":[{"name":"networkRegistry","type":"address","internalType":"address"},{"name":"vaultFactory","type":"address","internalType":"address"},{"name":"operatorVaultOptInService","type":"address","internalType":"address"},{"name":"operatorNetworkOptInService","type":"address","internalType":"address"},{"name":"delegatorFactory","type":"address","internalType":"address"},{"name":"entityType","type":"uint64","internalType":"uint64"}],"stateMutability":"nonpayable"},{"type":"function","name":"DEFAULT_ADMIN_ROLE","inputs":[],"outputs":[{"name":"","type":"bytes32","internalType":"bytes32"}],"stateMutability":"view"},{"type":"function","name":"FACTORY","inputs":[],"outputs":[{"name":"","type":"address","internalType":"address"}],"stateMutability":"view"},{"type":"function","name":"HOOK_GAS_LIMIT","inputs":[],"outputs":[{"name":"","type":"uint256","internalType":"uint256"}],"stateMutability":"view"},{"type":"function","name":"HOOK_RESERVE","inputs":[],"outputs":[{"name":"","type":"uint256","internalType":"uint256"}],"stateMutability":"view"},{"type":"function","name":"HOOK_SET_ROLE","inputs":[],"outputs":[{"name":"","type":"bytes32","internalType":"bytes32"}],"stateMutability":"view"},{"type":"function","name":"NETWORK_LIMIT_SET_ROLE","inputs":[],"outputs":[{"name":"","type":"bytes32","internalType":"bytes32"}],"stateMutability":"view"},{"type":"function","name":"NETWORK_REGISTRY","inputs":[],"outputs":[{"name":"","type":"address","internalType":"address"}],"stateMutability":"view"},{"type":"function","name":"OPERATOR_NETWORK_LIMIT_SET_ROLE","inputs":[],"outputs":[{"name":"","type":"bytes32","internalType":"bytes32"}],"stateMutability":"view"},{"type":"function","name":"OPERATOR_NETWORK_OPT_IN_SERVICE","inputs":[],"outputs":[{"name":"","type":"address","internalType":"address"}],"stateMutability":"view"},{"type":"function","name":"OPERATOR_VAULT_OPT_IN_SERVICE","inputs":[],"outputs":[{"name":"","type":"address","internalType":"address"}],"stateMutability":"view"},{"type":"function","name":"TYPE","inputs":[],"outputs":[{"name":"","type":"uint64","internalType":"uint64"}],"stateMutability":"view"},{"type":"function","name":"VAULT_FACTORY","inputs":[],"outputs":[{"name":"","type":"address","internalType":"address"}],"stateMutability":"view"},{"type":"function","name":"VERSION","inputs":[],"outputs":[{"name":"","type":"uint64","internalType":"uint64"}],"stateMutability":"pure"},{"type":"function","name":"getRoleAdmin","inputs":[{"name":"role","type":"bytes32","internalType":"bytes32"}],"outputs":[{"name":"","type":"bytes32","internalType":"bytes32"}],"stateMutability":"view"},{"type":"function","name":"grantRole","inputs":[{"name":"role","type":"bytes32","internalType":"bytes32"},{"name":"account","type":"address","internalType":"address"}],"outputs":[],"stateMutability":"nonpayable"},{"type":"function","name":"hasRole","inputs":[{"name":"role","type":"bytes32","internalType":"bytes32"},{"name":"account","type":"address","internalType":"address"}],"outputs":[{"name":"","type":"bool","internalType":"bool"}],"stateMutability":"view"},{"type":"function","name":"hook","inputs":[],"outputs":[{"name":"","type":"address","internalType":"address"}],"stateMutability":"view"},{"type":"function","name":"initialize","inputs":[{"name":"data","type":"bytes","internalType":"bytes"}],"outputs":[],"stateMutability":"nonpayable"},{"type":"function","name":"maxNetworkLimit","inputs":[{"name":"subnetwork","type":"bytes32","internalType":"bytes32"}],"outputs":[{"name":"value","type":"uint256","internalType":"uint256"}],"stateMutability":"view"},{"type":"function","name":"networkLimit","inputs":[{"name":"subnetwork","type":"bytes32","internalType":"bytes32"}],"outputs":[{"name":"","type":"uint256","internalType":"uint256"}],"stateMutability":"view"},{"type":"function","name":"networkLimitAt","inputs":[{"name":"subnetwork","type":"bytes32","internalType":"bytes32"},{"name":"timestamp","type":"uint48","internalType":"uint48"},{"name":"hint","type":"bytes","internalType":"bytes"}],"outputs":[{"name":"","type":"uint256","internalType":"uint256"}],"stateMutability":"view"},{"type":"function","name":"onSlash","inputs":[{"name":"subnetwork","type":"bytes32","internalType":"bytes32"},{"name":"operator","type":"address","internalType":"address"},{"name":"amount","type":"uint256","internalType":"uint256"},{"name":"captureTimestamp","type":"uint48","internalType":"uint48"},{"name":"data","type":"bytes","internalType":"bytes"}],"outputs":[],"stateMutability":"nonpayable"},{"type":"function","name":"operatorNetworkLimit","inputs":[{"name":"subnetwork","type":"bytes32","internalType":"bytes32"},{"name":"operator","type":"address","internalType":"address"}],"outputs":[{"name":"","type":"uint256","internalType":"uint256"}],"stateMutability":"view"},{"type":"function","name":"operatorNetworkLimitAt","inputs":[{"name":"subnetwork","type":"bytes32","internalType":"bytes32"},{"name":"operator","type":"address","internalType":"address"},{"name":"timestamp","type":"uint48","internalType":"uint48"},{"name":"hint","type":"bytes","internalType":"bytes"}],"outputs":[{"name":"","type":"uint256","internalType":"uint256"}],"stateMutability":"view"},{"type":"function","name":"renounceRole","inputs":[{"name":"role","type":"bytes32","internalType":"bytes32"},{"name":"callerConfirmation","type":"address","internalType":"address"}],"outputs":[],"stateMutability":"nonpayable"},{"type":"function","name":"revokeRole","inputs":[{"name":"role","type":"bytes32","internalType":"bytes32"},{"name":"account","type":"address","internalType":"address"}],"outputs":[],"stateMutability":"nonpayable"},{"type":"function","name":"setHook","inputs":[{"name":"hook_","type":"address","internalType":"address"}],"outputs":[],"stateMutability":"nonpayable"},{"type":"function","name":"setMaxNetworkLimit","inputs":[{"name":"identifier","type":"uint96","internalType":"uint96"},{"name":"amount","type":"uint256","internalType":"uint256"}],"outputs":[],"stateMutability":"nonpayable"},{"type":"function","name":"setNetworkLimit","inputs":[{"name":"subnetwork","type":"bytes32","internalType":"bytes32"},{"name":"amount","type":"uint256","internalType":"uint256"}],"outputs":[],"stateMutability":"nonpayable"},{"type":"function","name":"setOperatorNetworkLimit","inputs":[{"name":"subnetwork","type":"bytes32","internalType":"bytes32"},{"name":"operator","type":"address","internalType":"address"},{"name":"amount","type":"uint256","internalType":"uint256"}],"outputs":[],"stateMutability":"nonpayable"},{"type":"function","name":"stake","inputs":[{"name":"subnetwork","type":"bytes32","internalType":"bytes32"},{"name":"operator","type":"address","internalType":"address"}],"outputs":[{"name":"","type":"uint256","internalType":"uint256"}],"stateMutability":"view"},{"type":"function","name":"stakeAt","inputs":[{"name":"subnetwork","type":"bytes32","internalType":"bytes32"},{"name":"operator","type":"address","internalType":"address"},{"name":"timestamp","type":"uint48","internalType":"uint48"},{"name":"hints","type":"bytes","internalType":"bytes"}],"outputs":[{"name":"","type":"uint256","internalType":"uint256"}],"stateMutability":"view"},{"type":"function","name":"staticDelegateCall","inputs":[{"name":"target","type":"address","internalType":"address"},{"name":"data","type":"bytes","internalType":"bytes"}],"outputs":[],"stateMutability":"nonpayable"},{"type":"function","name":"supportsInterface","inputs":[{"name":"interfaceId","type":"bytes4","internalType":"bytes4"}],"outputs":[{"name":"","type":"bool","internalType":"bool"}],"stateMutability":"view"},{"type":"function","name":"vault","inputs":[],"outputs":[{"name":"","type":"address","internalType":"address"}],"stateMutability":"view"},{"type":"event","name":"Initialized","inputs":[{"name":"version","type":"uint64","indexed":false,"internalType":"uint64"}],"anonymous":false},{"type":"event","name":"OnSlash","inputs":[{"name":"subnetwork","type":"bytes32","indexed":true,"internalType":"bytes32"},{"name":"operator","type":"address","indexed":true,"internalType":"address"},{"name":"amount","type":"uint256","indexed":false,"internalType":"uint256"},{"name":"captureTimestamp","type":"uint48","indexed":false,"internalType":"uint48"}],"anonymous":false},{"type":"event","name":"RoleAdminChanged","inputs":[{"name":"role","type":"bytes32","indexed":true,"internalType":"bytes32"},{"name":"previousAdminRole","type":"bytes32","indexed":true,"internalType":"bytes32"},{"name":"newAdminRole","type":"bytes32","indexed":true,"internalType":"bytes32"}],"anonymous":false},{"type":"event","name":"RoleGranted","inputs":[{"name":"role","type":"bytes32","indexed":true,"internalType":"bytes32"},{"name":"account","type":"address","indexed":true,"internalType":"address"},{"name":"sender","type":"address","indexed":true,"internalType":"address"}],"anonymous":false},{"type":"event","name":"RoleRevoked","inputs":[{"name":"role","type":"bytes32","indexed":true,"internalType":"bytes32"},{"name":"account","type":"address","indexed":true,"internalType":"address"},{"name":"sender","type":"address","indexed":true,"internalType":"address"}],"anonymous":false},{"type":"event","name":"SetHook","inputs":[{"name":"hook","type":"address","indexed":true,"internalType":"address"}],"anonymous":false},{"type":"event","name":"SetMaxNetworkLimit","inputs":[{"name":"subnetwork","type":"bytes32","indexed":true,"internalType":"bytes32"},{"name":"amount","type":"uint256","indexed":false,"internalType":"uint256"}],"anonymous":false},{"type":"event","name":"SetNetworkLimit","inputs":[{"name":"subnetwork","type":"bytes32","indexed":true,"internalType":"bytes32"},{"name":"amount","type":"uint256","indexed":false,"internalType":"uint256"}],"anonymous":false},{"type":"event","name":"SetOperatorNetworkLimit","inputs":[{"name":"subnetwork","type":"bytes32","indexed":true,"internalType":"bytes32"},{"name":"operator","type":"address","indexed":true,"internalType":"address"},{"name":"amount","type":"uint256","indexed":false,"internalType":"uint256"}],"anonymous":false},{"type":"error","name":"AccessControlBadConfirmation","inputs":[]},{"type":"error","name":"AccessControlUnauthorizedAccount","inputs":[{"name":"account","type":"address","internalType":"address"},{"name":"neededRole","type":"bytes32","internalType":"bytes32"}]},{"type":"error","name":"AlreadySet","inputs":[]},{"type":"error","name":"CheckpointUnorderedInsertion","inputs":[]},{"type":"error","name":"DuplicateRoleHolder","inputs":[]},{"type":"error","name":"ExceedsMaxNetworkLimit","inputs":[]},{"type":"error","name":"InsufficientHookGas","inputs":[]},{"type":"error","name":"InvalidInitialization","inputs":[]},{"type":"error","name":"MissingRoleHolders","inputs":[]},{"type":"error","name":"NotInitialized","inputs":[]},{"type":"error","name":"NotInitializing","inputs":[]},{"type":"error","name":"NotNetwork","inputs":[]},{"type":"error","name":"NotSlasher","inputs":[]},{"type":"error","name":"NotVault","inputs":[]},{"type":"error","name":"ReentrancyGuardReentrantCall","inputs":[]},{"type":"error","name":"SafeCastOverflowedUintDowncast","inputs":[{"name":"bits","type":"uint8","internalType":"uint8"},{"name":"value","type":"uint256","internalType":"uint256"}]},{"type":"error","name":"ZeroAddressRoleHolder","inputs":[]}],"bytecode":{"object":"0x610140346101a1576001600160401b0390601f612cbd38819003918201601f191683019190848311848410176101a5578160c092859260409586528339810103126101a15761004d826101b9565b610059602084016101b9565b906100658385016101b9565b94610072606086016101b9565b9460a0610081608083016101b9565b9101519180831683036101a1577ff0c57e16840df040f15088dc2f81fe391c3923bec73e23a9662efc9c229c6a009081549060ff82891c1661019057808083160361014c575b50505060805260a05260c05260e0526101009283526101209182525190612aef92836101ce84396080518361072a015260a05183610eb8015260c0518381816105bb0152610ef1015260e0518381816104620152611d990152518281816104f5015281816114c001526116040152518181816105390152818161142701526116820152f35b6001600160401b0319909116811790915585519081527fc7f505b2f371ae2175ee4913f4499e1f2633a7b5936321eed1cdaeb6115181d290602090a15f80806100c7565b875163f92ee8a960e01b8152600490fd5b5f80fd5b634e487b7160e01b5f52604160045260245ffd5b51906001600160a01b03821682036101a15756fe60806040526004361015610011575f80fd5b5f3560e01c806301ffc9a714610244578063020cf0c21461023f578063021453481461023a578063103f2907146102355780631142209514610230578063128e5d821461022b5780631a80e5001461022657806323f752d514610221578063248a9ca31461021c5780632dd31000146102175780632f2ff15d1461021257806336568abe1461020d5780633dfd3873146102085780633eb22c0f14610203578063439fab91146101fe578063518504ba146101f9578063557cab44146101f45780635d32a1c9146101ef5780636679191e146101ea5780637d24bb27146101e55780637f5a7c7b146101e057806391d14854146101db57806394d2558a146101d65780639f86fd85146101d1578063a217fddf146101cc578063bb24fe8a146101c7578063c0cd7c3e146101c2578063d15b740e146101bd578063d547741f146101b8578063e02f6937146101b3578063e49561ee146101ae578063fbfa77cf146101a9578063fd4d447c146101a4578063ff54740f1461019f5763ffa1ad741461019a575f80fd5b61120b565b6111ee565b6111c4565b61119d565b610fb2565b610f96565b610f4a565b610f20565b610edc565b610e99565b610e7f565b610dc5565b610d87565b610cd7565b610caf565b610c76565b610c3c565b610be1565b610ab1565b610a77565b61093f565b6108e9565b6107f0565b6107a5565b610759565b610715565b6106dc565b610568565b610524565b6104e0565b610491565b61044d565b610390565b6102af565b3461029a57602036600319011261029a5760043563ffffffff60e01b811680910361029a57602090637965db0b60e01b8114908115610289575b506040519015158152f35b6301ffc9a760e01b1490505f61027e565b5f80fd5b6001600160a01b0381160361029a57565b3461029a57606036600319011261029a576024356004356102cf8261029e565b604435916102db6116f7565b815f526004602052826103096103048360405f209060018060a01b03165f5260205260405f2090565b61190f565b1461037e5760207ffc9545f07ffadfb668efd0144cdcaf2d6e2c8192dce1ea9fc131934f9c90fc7e91835f52600482526103698561035a8360405f209060018060a01b03165f5260205260405f2090565b61036342612254565b9061184d565b50506040519485526001600160a01b031693a3005b60405163a741a04560e01b8152600490fd5b3461029a5760408060031936011261029a5760043590602435906103b2611754565b825f526002602052805f2054821161043d57825f526003602052816103d8825f2061190f565b1461042d5781610428916104187e899d104fc3d8820bd96540612bcc5c448c8837b13b9f7faa43ad0728f0c14f9461035a875f52600360205260405f2090565b5050519081529081906020820190565b0390a2005b5163a741a04560e01b8152600490fd5b51631eefc06360e31b8152600490fd5b3461029a575f36600319011261029a576040517f00000000000000000000000000000000000000000000000000000000000000006001600160a01b03168152602090f35b3461029a57604036600319011261029a5760206104d86103046024356104b68161029e565b6004355f526004845260405f209060018060a01b03165f5260205260405f2090565b604051908152f35b3461029a575f36600319011261029a576040517f00000000000000000000000000000000000000000000000000000000000000006001600160a01b03168152602090f35b3461029a575f36600319011261029a576040517f00000000000000000000000000000000000000000000000000000000000000006001600160a01b03168152602090f35b3461029a57604036600319011261029a576004356001600160601b038116810361029a576024359061059861195c565b6040516302910f8b60e31b81523360048201526020816024816001600160a01b037f0000000000000000000000000000000000000000000000000000000000000000165afa9081156106d7575f916106a8575b5015610696576001600160601b03166bffffffffffffffffffffffff193360601b16179080610622835f52600260205260405f2090565b541461037e5761067b817fc67e7929681aa1bccd63f52b3799bf5805f3009f197db6fdf584b14f7fbf608c92610660855f52600260205260405f2090565b5561066b818561198b565b6040519081529081906020820190565b0390a261069460015f80516020612a7a83398151915255565b005b6040516323d53b9760e21b8152600490fd5b6106ca915060203d6020116106d0575b6106c28183610b31565b810190611226565b5f6105eb565b503d6106b8565b61123e565b3461029a57602036600319011261029a576004355f525f80516020612a5a8339815191526020526020600160405f200154604051908152f35b3461029a575f36600319011261029a576040517f00000000000000000000000000000000000000000000000000000000000000006001600160a01b03168152602090f35b3461029a57604036600319011261029a5761069460243560043561077c8261029e565b805f525f80516020612a5a8339815191526020526107a0600160405f2001546117aa565b611c66565b3461029a57604036600319011261029a576024356107c28161029e565b336001600160a01b038216036107de5761069490600435611c9c565b60405163334bd91960e11b8152600490fd5b3461029a57602036600319011261029a5760043561080d8161029e565b61081561195c565b335f9081527f9ebbcbe0d2961d3fbe56ca6f679bc753bd848d3e6bb3eaf9041c51b286881d2c60205260409020547fd1c1f6fa6bf27d54c5e54c7c1dc6e5004d3c027ea1994fe68b29c1b51b69c36c9060ff16156108cb57506001546001600160a01b03918216918116821461037e576001600160a01b03191681176001557f5bbb1d3ebb6a3ad2a0f17ff35e579a83af60604d1d3c2a4c83c62adecadf666d5f80a260015f80516020612a7a83398151915255005b6044906040519063e2517d3f60e01b82523360048301526024820152fd5b3461029a57602036600319011261029a576004355f52600360205260206104d860405f2061190f565b9181601f8401121561029a578235916001600160401b03831161029a576020838186019501011161029a57565b3461029a57602036600319011261029a576001600160401b0360043581811161029a57610970903690600401610912565b5f80516020612a9a833981519152549260ff8460401c1615931680159081610a6f575b6001149081610a65575b159081610a5c575b50610a4a575f80516020612a9a833981519152805467ffffffffffffffff191660011790556109d89183610a2657611d64565b6109de57005b5f80516020612a9a833981519152805460ff60401b19169055604051600181527fc7f505b2f371ae2175ee4913f4499e1f2633a7b5936321eed1cdaeb6115181d290602090a1005b5f80516020612a9a833981519152805460ff60401b1916600160401b179055611d64565b60405163f92ee8a960e01b8152600490fd5b9050155f6109a5565b303b15915061099d565b849150610993565b3461029a575f36600319011261029a5760206040517f15e7c882d74e8821ebf34aaff46fd0e1d53b9393d91490019124113d28dc32a38152f35b3461029a575f36600319011261029a576020604051614e208152f35b6064359065ffffffffffff8216820361029a57565b634e487b7160e01b5f52604160045260245ffd5b604081019081106001600160401b03821117610b1157604052565b610ae2565b606081019081106001600160401b03821117610b1157604052565b90601f801991011681019081106001600160401b03821117610b1157604052565b60405190608082018281106001600160401b03821117610b1157604052565b60405190610b7e82610af6565b565b6001600160401b038111610b1157601f01601f191660200190565b81601f8201121561029a57803590610bb282610b80565b92610bc06040519485610b31565b8284526020838301011161029a57815f926020809301838601378301015290565b3461029a57606036600319011261029a5760243565ffffffffffff8116810361029a576044356001600160401b03811161029a57602091610c296104d8923690600401610b9b565b906004355f526003845260405f20611ed3565b3461029a575f36600319011261029a5760206040517fd1c1f6fa6bf27d54c5e54c7c1dc6e5004d3c027ea1994fe68b29c1b51b69c36c8152f35b3461029a575f36600319011261029a5760206040517e8b9b1e5fa9cf3b14f87f435649268146305ddf689f082e5961a335b07a9abf8152f35b3461029a575f36600319011261029a576001546040516001600160a01b039091168152602090f35b3461029a57604036600319011261029a57602060ff610d29602435610cfb8161029e565b6004355f525f80516020612a5a833981519152845260405f209060018060a01b03165f5260205260405f2090565b54166040519015158152f35b90608060031983011261029a5760043591602435610d528161029e565b9160443565ffffffffffff8116810361029a5791606435906001600160401b03821161029a57610d8491600401610b9b565b90565b3461029a5760206104d8610dc0610d9d36610d35565b939190925f526004865260405f209060018060a01b03165f5260205260405f2090565b611ed3565b3461029a5760408060031936011261029a57600435610de38161029e565b602435906001600160401b03821161029a575f8091610e09610e6d943690600401610912565b908187519283928337810184815203915af43d15610e7557610e5f3d610e2e81610b80565b90610e3b86519283610b31565b81523d5f602083013e5b84519485931515602085015280840152606083019061128b565b03601f198101835282610b31565b805190602001fd5b610e5f6060610e45565b3461029a575f36600319011261029a5760206040515f8152f35b3461029a575f36600319011261029a5760206040516001600160401b037f0000000000000000000000000000000000000000000000000000000000000000168152f35b3461029a575f36600319011261029a576040517f00000000000000000000000000000000000000000000000000000000000000006001600160a01b03168152602090f35b3461029a57602036600319011261029a576004355f526002602052602060405f2054604051908152f35b3461029a57604036600319011261029a57610694602435600435610f6d8261029e565b805f525f80516020612a5a833981519152602052610f91600160405f2001546117aa565b611c9c565b3461029a5760206104d8610fa936610d35565b929190916113b1565b3461029a5760a036600319011261029a57602435600435610fd28261029e565b60443591610fde610acd565b90608435906001600160401b03821161029a5761100060049236908401610b9b565b61100861195c565b5f5460209061102d90611021906001600160a01b031681565b6001600160a01b031690565b60405163b134427160e01b815294859182905afa9283156106d7575f9361116c575b506001600160a01b03928316330361115a576001546001600160a01b03168381166110cf575b50506040805195865265ffffffffffff909316602086015216927f741a5de99085c0d660f3e4192217b0ffb0ea4e35a0480de48e857a4bc3ee36ed91819081015b0390a361069460015f80516020612a7a83398151915255565b909360405194611106866110f8602082019363724ab0f760e11b8552858c898d60248701611550565b03601f198101885287610b31565b62042e305a10611148575f6110b6938192827f741a5de99085c0d660f3e4192217b0ffb0ea4e35a0480de48e857a4bc3ee36ed9951926203d090f15093611075565b604051638072475160e01b8152600490fd5b60405163dabc4ad960e01b8152600490fd5b61118f91935060203d602011611196575b6111878183610b31565b81019061153b565b915f61104f565b503d61117d565b3461029a575f36600319011261029a575f546040516001600160a01b039091168152602090f35b3461029a57604036600319011261029a5760206104d86024356111e68161029e565b6004356115cd565b3461029a575f36600319011261029a5760206040516203d0908152f35b3461029a575f36600319011261029a57602060405160018152f35b9081602091031261029a5751801515810361029a5790565b6040513d5f823e3d90fd5b90610d8492915f52600360205260405f20611ed3565b5f9081526004602090815260408083206001600160a01b03909416835292905220610d84929190611ed3565b805180835260209291819084018484015e5f828201840152601f01601f1916010190565b604051906112bc82610af6565b60606020838281520152565b81601f8201121561029a578051906112df82610b80565b926112ed6040519485610b31565b8284526020838301011161029a57815f9260208093018386015e8301015290565b9060208282031261029a5781516001600160401b039283821161029a57019060408282031261029a576040519261134484610af6565b825181811161029a57826113599185016112c8565b8452602083015190811161029a5761137192016112c8565b602082015290565b6001600160a01b0391821681529116602082015265ffffffffffff9091166040820152608060608201819052610d849291019061128b565b926113c1909291928284866120b9565b9290936113cc6112af565b9380518061151f575b50508415938415611489575b84156113f8575b505050506113f35790565b505f90565b602080949550611423910151604051958694859463530e1d4360e01b865260601c9060048601611379565b03817f00000000000000000000000000000000000000000000000000000000000000006001600160a01b03165afa9081156106d7575f9161146a575b50155f8080806113e8565b611483915060203d6020116106d0576106c28183610b31565b5f61145f565b5f549094506001600160a01b03166020848651926114bc604051948593849363530e1d4360e01b85528960048601611379565b03817f00000000000000000000000000000000000000000000000000000000000000006001600160a01b03165afa9081156106d7575f91611500575b5015936113e1565b611519915060203d6020116106d0576106c28183610b31565b5f6114f8565b61153392955060208091830101910161130e565b925f806113d5565b9081602091031261029a5751610d848161029e565b919360a093610d84969565ffffffffffff938552600180871b031660208501526040840152166060820152816080820152019061128b565b634e487b7160e01b5f52601160045260245ffd5b81156115a6570490565b634e487b7160e01b5f52601260045260245ffd5b90600182018092116115c857565b611588565b5f546040516308834cb560e21b8082526001600160a01b0385811660048401529283166024830152929392602092909183816044817f000000000000000000000000000000000000000000000000000000000000000086165afa9081156106d7575f916116da575b5015918215611656575b5050905061165057610d84916121ae565b50505f90565b6040519081526001600160a01b0385166004820152606086901c602482015291508290829060449082907f0000000000000000000000000000000000000000000000000000000000000000165afa9182156106d7575f926116bd575b505015805f8061163f565b6116d39250803d106106d0576106c28183610b31565b5f806116b2565b6116f19150843d86116106d0576106c28183610b31565b5f611635565b335f9081527f24e48de785eeca8420b70f73d267a66970ccc187d459f2a4b53e74ed92a5ab86602052604090207f15e7c882d74e8821ebf34aaff46fd0e1d53b9393d91490019124113d28dc32a39060ff905b5416156108cb5750565b335f9081527f72a65082a5691803ab2b62c9bc729b34205ba1b183d950896526b2fd8714d0c7602052604090207e8b9b1e5fa9cf3b14f87f435649268146305ddf689f082e5961a335b07a9abf9060ff9061174a565b5f8181525f80516020612a5a83398151915260209081526040808320338452909152902060ff9061174a565b634e487b7160e01b5f52603260045260245ffd5b80548210156117ff575f5260205f2001905f90565b6117d6565b90815491600160401b831015610b115782611827916001610b7e950181556117ea565b90919082549060031b91821b915f19901b1916179055565b5f198101919082116115c857565b909291926001820190815480156118df575b508461186a846122aa565b5094909284549361187a8361190f565b96816118ca575b50156118a7575050505f1981019081116115c85761182785916118a3936117ea565b9190565b6118a39492936118c3926001600160d01b03909116919061277e565b5050611804565b65ffffffffffff83811691161490505f611881565b600160401b811015610b11578060016118fb92018455836117ea565b8154905f199060031b1b191690555f61185f565b80548061193e57505f5b6001600160d01b0381161561165057600161193492016117ea565b90549060031b1c90565b5f199080828101116115c857825f5260205f2001015460301c611919565b5f80516020612a7a83398151915260028154146119795760029055565b604051633ee5aeb560e01b8152600490fd5b90815f52600360205260405f20816119a2826122aa565b919390508315611a00576119c2916001600160d01b0316906001016117ea565b90549060031b1c5b826119f6575b50506119da575050565b6119f2915f52600360205260405f2061036342612254565b5050565b119050815f6119d0565b50505f6119ca565b6001600160a01b0381165f9081527fb7db2dd08fcb62d0c9e08c51941cae53c267786a0b75803fb7960902fc8ef97d60205260409020545f80516020612a5a8339815191529060ff16611650575f808052602091825260408082206001600160a01b038516835290925220805460ff1916600117905533906001600160a01b03165f7f2f8788117e7eff1d82e926ec794901d17c78024a50270940304540a733656f0d8180a4600190565b6001600160a01b0381165f9081527f9ebbcbe0d2961d3fbe56ca6f679bc753bd848d3e6bb3eaf9041c51b286881d2c602052604090207fd1c1f6fa6bf27d54c5e54c7c1dc6e5004d3c027ea1994fe68b29c1b51b69c36c905f80516020612a5a8339815191529060ff905b5416611b82575f828152602091825260408082206001600160a01b038616835290925220805460ff1916600117905533916001600160a01b0316907f2f8788117e7eff1d82e926ec794901d17c78024a50270940304540a733656f0d5f80a4600190565b5050505f90565b6001600160a01b0381165f9081527f72a65082a5691803ab2b62c9bc729b34205ba1b183d950896526b2fd8714d0c7602052604090207e8b9b1e5fa9cf3b14f87f435649268146305ddf689f082e5961a335b07a9abf905f80516020612a5a8339815191529060ff90611b1e565b6001600160a01b0381165f9081527f24e48de785eeca8420b70f73d267a66970ccc187d459f2a4b53e74ed92a5ab86602052604090207f15e7c882d74e8821ebf34aaff46fd0e1d53b9393d91490019124113d28dc32a3905f80516020612a5a8339815191529060ff90611b1e565b5f8181525f80516020612a5a833981519152602081815260408084206001600160a01b038716855290915290912060ff90611b1e565b5f8181525f80516020612a5a833981519152602081815260408084206001600160a01b03871685529091529091205460ff1615611b82575f828152602091825260408082206001600160a01b038616835290925220805460ff1916905533916001600160a01b0316907ff6391f5c32d9c69d2a47ea670b442974b53935d1edc7fd64eb21e047a839171b5f80a4600190565b91909160408184031261029a578035611d468161029e565b9260208201356001600160401b03811161029a57610d849201610b9b565b611d7091810190611d2e565b6040516302910f8b60e31b81526001600160a01b039283166004820181905291906020816024817f000000000000000000000000000000000000000000000000000000000000000088165afa9081156106d7575f91611e83575b5015611e7157611e05604091611e00611e4b94611de56122f9565b60018060a01b03166001600160601b0360a01b5f5416175f55565b612479565b6020810151600180546001600160a01b0319166001600160a01b0390921691909117905580516001600160a01b0316848116611e61575b5001516001600160a01b031690565b908116611e555750565b611e5e90611ab3565b50565b611e6a90611a08565b505f611e3c565b6040516362df054560e01b8152600490fd5b611e9c915060203d6020116106d0576106c28183610b31565b5f611dca565b9081602091031261029a575163ffffffff8116810361029a5790565b90600163ffffffff809316019182116115c857565b91805115611fac5780602080611eee93518301019101611ea2565b91611ef983826126a9565b92611f0a845165ffffffffffff1690565b9065ffffffffffff8085169216828114611fa05782119182611f40575b5050611f3757610d8492506125d9565b50506020015190565b909150611f4d835461183f565b63ffffffff831614918215611f66575b50505f80611f27565b611f98919250611f81611f7b611f8d92611ebe565b856126a9565b5165ffffffffffff1690565b65ffffffffffff1690565b115f80611f5d565b50505050506020015190565b50610d84916125d9565b60405190608082018281106001600160401b03821117610b1157604052606080838181528160208201528160408201520152565b9060208282031261029a5781516001600160401b039283821161029a57019060808282031261029a5761201b610b52565b92825181811161029a57826120319185016112c8565b8452602083015181811161029a578261204b9185016112c8565b6020850152604083015181811161029a57826120689185016112c8565b6040850152606083015190811161029a5761208392016112c8565b606082015290565b9081602091031261029a575190565b60409065ffffffffffff610d849493168152816020820152019061128b565b939190936120c5611fb6565b9380518061218e575b505061210f92939460206120ee6110216110215f5460018060a01b031690565b8188015190604051808098819463810da75d60e01b8352896004840161209a565b03915afa9182156106d757612150945f93612155575b5061214a9061214a939461213e60408a01518284611249565b9360608a01519261125f565b90612711565b915190565b61214a93509061217f61214a9260203d602011612187575b6121778183610b31565b81019061208b565b935090612125565b503d61216d565b61210f949550906020806121a6938301019101611fea565b93925f6120ce565b5f5460405163bd49c35f60e01b8152929190602090849060049082906001600160a01b03165afa9081156106d757610d84935f92612229575b5061214a61030461214a9394612208610304855f52600360205260405f2090565b935f52600460205260405f209060018060a01b03165f5260205260405f2090565b61214a925061030461224c61214a9260203d602011612187576121778183610b31565b9350506121e7565b65ffffffffffff90818111612267571690565b604490604051906306dfcc6560e41b8252603060048301526024820152fd5b9060405161229381610af6565b915465ffffffffffff8116835260301c6020830152565b8054806122bb5750505f905f905f90565b5f199080828101116115c8576122d8925f5260205f200101612286565b9065ffffffffffff82511691602060018060d01b0391015116906001929190565b612301612899565b612309612899565b60015f80516020612a7a83398151915255565b6040519061232982610b16565b5f6040838281528260208201520152565b81601f8201121561029a578051916020916001600160401b038411610b11578360051b906040519461236e85840187610b31565b8552838086019282010192831161029a578301905b828210612391575050505090565b838091835161239f8161029e565b815201910190612383565b9060208282031261029a5781516001600160401b039283821161029a5701908181039260a0841261029a576060604051946123e486610b16565b1261029a576040516123f581610b16565b83516124008161029e565b815260208401516124108161029e565b602082015260408401516124238161029e565b60408201528452606083015181811161029a578261244291850161233a565b6020850152608083015190811161029a5761245d920161233a565b604082015290565b80518210156117ff5760209160051b010190565b6124959061248561231c565b50602080825183010191016123aa565b8051519091906001600160a01b031615806125bf575b6125ad579060208101905f5b82518051821015612531576110216124d2836124df93612465565b516001600160a01b031690565b1561251f576125016124fd6124f86124d2848751612465565b611b89565b1590565b61250d576001016124b7565b604051635140fefd60e11b8152600490fd5b6040516323cda06760e01b8152600490fd5b506040925050818101905f5b825180518210156125a4576110216124d28361255893612465565b15612593576125766124fd6125716124d2848751612465565b611bf7565b6125825760010161253d565b8351635140fefd60e11b8152600490fd5b83516323cda06760e01b8152600490fd5b50509150505190565b6040516303501f5960e11b8152600490fd5b5060208201515115806124ab5750604082015151156124ab565b908154905f829160058411612643575b6125f49350846129fa565b8061261c57505f905b6001600160d01b0382161561165057610d8491600161193492016117ea565b61263661262b61263d9261183f565b835f5260205f200190565b5460301c90565b906125fd565b919261264e816128c7565b81039081116115c8576125f493855f5265ffffffffffff808360205f20015416908516105f1461267f5750916125e9565b92915061268b906115ba565b906125e9565b6040519061269e82610af6565b5f6020838281520152565b906126d26126cc6126f3926126bc612691565b506126c5612691565b50846117ea565b50612286565b91600165ffffffffffff845116936020828060d01b039101511691016117ea565b9054906040519261270384610af6565b835260031b1c602082015290565b908082101561271e575090565b905090565b8054600160401b811015610b1157612740916001820181556117ea565b61276b57815160209092015160301b65ffffffffffff191665ffffffffffff92909216919091179055565b634e487b7160e01b5f525f60045260245ffd5b8054929392919082156128705761279f61279a61262b8561183f565b612286565b906127b0825165ffffffffffff1690565b65ffffffffffff8481169116811061285e576118a39460209488926127de611f8d875165ffffffffffff1690565b036128265750612818926127f46127ff9261183f565b905f5260205f200190565b9065ffffffffffff82549181199060301b169116179055565b01516001600160d01b031690565b91505061285991612846612838610b71565b65ffffffffffff9093168352565b6001600160d01b03881682860152612723565b612818565b604051632520601d60e01b8152600490fd5b6128949250612880612838610b71565b6001600160d01b0385166020830152612723565b5f9190565b60ff5f80516020612a9a8339815191525460401c16156128b557565b604051631afcd79f60e31b8152600490fd5b80156113f3578061214a61299261298861297e61297461296a6129606129566001610d849a5f908b60801c806129ee575b508060401c806129e1575b508060201c806129d4575b508060101c806129c7575b508060081c806129ba575b508060041c806129ad575b508060021c806129a0575b50821c612999575b811c1b61294f818b61159c565b0160011c90565b61294f818a61159c565b61294f818961159c565b61294f818861159c565b61294f818761159c565b61294f818661159c565b61294f818561159c565b809261159c565b8101612942565b600291509101905f61293a565b600491509101905f61292f565b600891509101905f612924565b601091509101905f612919565b602091509101905f61290e565b604091509101905f612903565b9150506080905f6128f8565b91905b838210612a0a5750505090565b9091928083169080841860011c82018092116115c857845f5265ffffffffffff808360205f20015416908416105f14612a475750925b91906129fd565b939250612a53906115ba565b91612a4056fe02dd7bc7dec4dceedda775e58dd541e08a116c6c53815c0bd028192f7b6268009b779b17422d0df92223018b32b4d1fa46e071723d6817e2486d003becc55f00f0c57e16840df040f15088dc2f81fe391c3923bec73e23a9662efc9c229c6a00a26469706673582212205a47ef0800ec8586221910bfda595b4c0690e3271bc72e3aaf2a5da09d84aada64736f6c63430008190033","linkReferences":{}},"methodIdentifiers":{"DEFAULT_ADMIN_ROLE()":"a217fddf","FACTORY()":"2dd31000","HOOK_GAS_LIMIT()":"ff54740f","HOOK_RESERVE()":"557cab44","HOOK_SET_ROLE()":"6679191e","NETWORK_LIMIT_SET_ROLE()":"7d24bb27","NETWORK_REGISTRY()":"c0cd7c3e","OPERATOR_NETWORK_LIMIT_SET_ROLE()":"518504ba","OPERATOR_NETWORK_OPT_IN_SERVICE()":"1a80e500","OPERATOR_VAULT_OPT_IN_SERVICE()":"128e5d82","TYPE()":"bb24fe8a","VAULT_FACTORY()":"103f2907","VERSION()":"ffa1ad74","getRoleAdmin(bytes32)":"248a9ca3","grantRole(bytes32,address)":"2f2ff15d","hasRole(bytes32,address)":"91d14854","hook()":"7f5a7c7b","initialize(bytes)":"439fab91","maxNetworkLimit(bytes32)":"d15b740e","networkLimit(bytes32)":"3eb22c0f","networkLimitAt(bytes32,uint48,bytes)":"5d32a1c9","onSlash(bytes32,address,uint256,uint48,bytes)":"e49561ee","operatorNetworkLimit(bytes32,address)":"11422095","operatorNetworkLimitAt(bytes32,address,uint48,bytes)":"94d2558a","renounceRole(bytes32,address)":"36568abe","revokeRole(bytes32,address)":"d547741f","setHook(address)":"3dfd3873","setMaxNetworkLimit(uint96,uint256)":"23f752d5","setNetworkLimit(bytes32,uint256)":"02145348","setOperatorNetworkLimit(bytes32,address,uint256)":"020cf0c2","stake(bytes32,address)":"fd4d447c","stakeAt(bytes32,address,uint48,bytes)":"e02f6937","staticDelegateCall(address,bytes)":"9f86fd85","supportsInterface(bytes4)":"01ffc9a7","vault()":"fbfa77cf"},"id":77}