{"abi":[{"type":"constructor","inputs":[{"name":"networkRegistry","type":"address","internalType":"address"},{"name":"vaultFactory","type":"address","internalType":"address"},{"name":"operatorVaultOptInService","type":"address","internalType":"address"},{"name":"operatorNetworkOptInService","type":"address","internalType":"address"},{"name":"delegatorFactory","type":"address","internalType":"address"},{"name":"entityType","type":"uint64","internalType":"uint64"}],"stateMutability":"nonpayable"},{"type":"function","name":"DEFAULT_ADMIN_ROLE","inputs":[],"outputs":[{"name":"","type":"bytes32","internalType":"bytes32"}],"stateMutability":"view"},{"type":"function","name":"FACTORY","inputs":[],"outputs":[{"name":"","type":"address","internalType":"address"}],"stateMutability":"view"},{"type":"function","name":"HOOK_GAS_LIMIT","inputs":[],"outputs":[{"name":"","type":"uint256","internalType":"uint256"}],"stateMutability":"view"},{"type":"function","name":"HOOK_RESERVE","inputs":[],"outputs":[{"name":"","type":"uint256","internalType":"uint256"}],"stateMutability":"view"},{"type":"function","name":"HOOK_SET_ROLE","inputs":[],"outputs":[{"name":"","type":"bytes32","internalType":"bytes32"}],"stateMutability":"view"},{"type":"function","name":"NETWORK_LIMIT_SET_ROLE","inputs":[],"outputs":[{"name":"","type":"bytes32","internalType":"bytes32"}],"stateMutability":"view"},{"type":"function","name":"NETWORK_REGISTRY","inputs":[],"outputs":[{"name":"","type":"address","internalType":"address"}],"stateMutability":"view"},{"type":"function","name":"OPERATOR_NETWORK_LIMIT_SET_ROLE","inputs":[],"outputs":[{"name":"","type":"bytes32","internalType":"bytes32"}],"stateMutability":"view"},{"type":"function","name":"OPERATOR_NETWORK_OPT_IN_SERVICE","inputs":[],"outputs":[{"name":"","type":"address","internalType":"address"}],"stateMutability":"view"},{"type":"function","name":"OPERATOR_VAULT_OPT_IN_SERVICE","inputs":[],"outputs":[{"name":"","type":"address","internalType":"address"}],"stateMutability":"view"},{"type":"function","name":"TYPE","inputs":[],"outputs":[{"name":"","type":"uint64","internalType":"uint64"}],"stateMutability":"view"},{"type":"function","name":"VAULT_FACTORY","inputs":[],"outputs":[{"name":"","type":"address","internalType":"address"}],"stateMutability":"view"},{"type":"function","name":"VERSION","inputs":[],"outputs":[{"name":"","type":"uint64","internalType":"uint64"}],"stateMutability":"pure"},{"type":"function","name":"getRoleAdmin","inputs":[{"name":"role","type":"bytes32","internalType":"bytes32"}],"outputs":[{"name":"","type":"bytes32","internalType":"bytes32"}],"stateMutability":"view"},{"type":"function","name":"grantRole","inputs":[{"name":"role","type":"bytes32","internalType":"bytes32"},{"name":"account","type":"address","internalType":"address"}],"outputs":[],"stateMutability":"nonpayable"},{"type":"function","name":"hasRole","inputs":[{"name":"role","type":"bytes32","internalType":"bytes32"},{"name":"account","type":"address","internalType":"address"}],"outputs":[{"name":"","type":"bool","internalType":"bool"}],"stateMutability":"view"},{"type":"function","name":"hook","inputs":[],"outputs":[{"name":"","type":"address","internalType":"address"}],"stateMutability":"view"},{"type":"function","name":"initialize","inputs":[{"name":"data","type":"bytes","internalType":"bytes"}],"outputs":[],"stateMutability":"nonpayable"},{"type":"function","name":"maxNetworkLimit","inputs":[{"name":"subnetwork","type":"bytes32","internalType":"bytes32"}],"outputs":[{"name":"value","type":"uint256","internalType":"uint256"}],"stateMutability":"view"},{"type":"function","name":"networkLimit","inputs":[{"name":"subnetwork","type":"bytes32","internalType":"bytes32"}],"outputs":[{"name":"","type":"uint256","internalType":"uint256"}],"stateMutability":"view"},{"type":"function","name":"networkLimitAt","inputs":[{"name":"subnetwork","type":"bytes32","internalType":"bytes32"},{"name":"timestamp","type":"uint48","internalType":"uint48"},{"name":"hint","type":"bytes","internalType":"bytes"}],"outputs":[{"name":"","type":"uint256","internalType":"uint256"}],"stateMutability":"view"},{"type":"function","name":"onSlash","inputs":[{"name":"subnetwork","type":"bytes32","internalType":"bytes32"},{"name":"operator","type":"address","internalType":"address"},{"name":"amount","type":"uint256","internalType":"uint256"},{"name":"captureTimestamp","type":"uint48","internalType":"uint48"},{"name":"data","type":"bytes","internalType":"bytes"}],"outputs":[],"stateMutability":"nonpayable"},{"type":"function","name":"operatorNetworkLimit","inputs":[{"name":"subnetwork","type":"bytes32","internalType":"bytes32"},{"name":"operator","type":"address","internalType":"address"}],"outputs":[{"name":"","type":"uint256","internalType":"uint256"}],"stateMutability":"view"},{"type":"function","name":"operatorNetworkLimitAt","inputs":[{"name":"subnetwork","type":"bytes32","internalType":"bytes32"},{"name":"operator","type":"address","internalType":"address"},{"name":"timestamp","type":"uint48","internalType":"uint48"},{"name":"hint","type":"bytes","internalType":"bytes"}],"outputs":[{"name":"","type":"uint256","internalType":"uint256"}],"stateMutability":"view"},{"type":"function","name":"renounceRole","inputs":[{"name":"role","type":"bytes32","internalType":"bytes32"},{"name":"callerConfirmation","type":"address","internalType":"address"}],"outputs":[],"stateMutability":"nonpayable"},{"type":"function","name":"revokeRole","inputs":[{"name":"role","type":"bytes32","internalType":"bytes32"},{"name":"account","type":"address","internalType":"address"}],"outputs":[],"stateMutability":"nonpayable"},{"type":"function","name":"setHook","inputs":[{"name":"hook_","type":"address","internalType":"address"}],"outputs":[],"stateMutability":"nonpayable"},{"type":"function","name":"setMaxNetworkLimit","inputs":[{"name":"identifier","type":"uint96","internalType":"uint96"},{"name":"amount","type":"uint256","internalType":"uint256"}],"outputs":[],"stateMutability":"nonpayable"},{"type":"function","name":"setNetworkLimit","inputs":[{"name":"subnetwork","type":"bytes32","internalType":"bytes32"},{"name":"amount","type":"uint256","internalType":"uint256"}],"outputs":[],"stateMutability":"nonpayable"},{"type":"function","name":"setOperatorNetworkLimit","inputs":[{"name":"subnetwork","type":"bytes32","internalType":"bytes32"},{"name":"operator","type":"address","internalType":"address"},{"name":"amount","type":"uint256","internalType":"uint256"}],"outputs":[],"stateMutability":"nonpayable"},{"type":"function","name":"stake","inputs":[{"name":"subnetwork","type":"bytes32","internalType":"bytes32"},{"name":"operator","type":"address","internalType":"address"}],"outputs":[{"name":"","type":"uint256","internalType":"uint256"}],"stateMutability":"view"},{"type":"function","name":"stakeAt","inputs":[{"name":"subnetwork","type":"bytes32","internalType":"bytes32"},{"name":"operator","type":"address","internalType":"address"},{"name":"timestamp","type":"uint48","internalType":"uint48"},{"name":"hints","type":"bytes","internalType":"bytes"}],"outputs":[{"name":"","type":"uint256","internalType":"uint256"}],"stateMutability":"view"},{"type":"function","name":"staticDelegateCall","inputs":[{"name":"target","type":"address","internalType":"address"},{"name":"data","type":"bytes","internalType":"bytes"}],"outputs":[],"stateMutability":"nonpayable"},{"type":"function","name":"supportsInterface","inputs":[{"name":"interfaceId","type":"bytes4","internalType":"bytes4"}],"outputs":[{"name":"","type":"bool","internalType":"bool"}],"stateMutability":"view"},{"type":"function","name":"vault","inputs":[],"outputs":[{"name":"","type":"address","internalType":"address"}],"stateMutability":"view"},{"type":"event","name":"Initialized","inputs":[{"name":"version","type":"uint64","indexed":false,"internalType":"uint64"}],"anonymous":false},{"type":"event","name":"OnSlash","inputs":[{"name":"subnetwork","type":"bytes32","indexed":true,"internalType":"bytes32"},{"name":"operator","type":"address","indexed":true,"internalType":"address"},{"name":"amount","type":"uint256","indexed":false,"internalType":"uint256"},{"name":"captureTimestamp","type":"uint48","indexed":false,"internalType":"uint48"}],"anonymous":false},{"type":"event","name":"RoleAdminChanged","inputs":[{"name":"role","type":"bytes32","indexed":true,"internalType":"bytes32"},{"name":"previousAdminRole","type":"bytes32","indexed":true,"internalType":"bytes32"},{"name":"newAdminRole","type":"bytes32","indexed":true,"internalType":"bytes32"}],"anonymous":false},{"type":"event","name":"RoleGranted","inputs":[{"name":"role","type":"bytes32","indexed":true,"internalType":"bytes32"},{"name":"account","type":"address","indexed":true,"internalType":"address"},{"name":"sender","type":"address","indexed":true,"internalType":"address"}],"anonymous":false},{"type":"event","name":"RoleRevoked","inputs":[{"name":"role","type":"bytes32","indexed":true,"internalType":"bytes32"},{"name":"account","type":"address","indexed":true,"internalType":"address"},{"name":"sender","type":"address","indexed":true,"internalType":"address"}],"anonymous":false},{"type":"event","name":"SetHook","inputs":[{"name":"hook","type":"address","indexed":true,"internalType":"address"}],"anonymous":false},{"type":"event","name":"SetMaxNetworkLimit","inputs":[{"name":"subnetwork","type":"bytes32","indexed":true,"internalType":"bytes32"},{"name":"amount","type":"uint256","indexed":false,"internalType":"uint256"}],"anonymous":false},{"type":"event","name":"SetNetworkLimit","inputs":[{"name":"subnetwork","type":"bytes32","indexed":true,"internalType":"bytes32"},{"name":"amount","type":"uint256","indexed":false,"internalType":"uint256"}],"anonymous":false},{"type":"event","name":"SetOperatorNetworkLimit","inputs":[{"name":"subnetwork","type":"bytes32","indexed":true,"internalType":"bytes32"},{"name":"operator","type":"address","indexed":true,"internalType":"address"},{"name":"amount","type":"uint256","indexed":false,"internalType":"uint256"}],"anonymous":false},{"type":"error","name":"AccessControlBadConfirmation","inputs":[]},{"type":"error","name":"AccessControlUnauthorizedAccount","inputs":[{"name":"account","type":"address","internalType":"address"},{"name":"neededRole","type":"bytes32","internalType":"bytes32"}]},{"type":"error","name":"AlreadySet","inputs":[]},{"type":"error","name":"CheckpointUnorderedInsertion","inputs":[]},{"type":"error","name":"DuplicateRoleHolder","inputs":[]},{"type":"error","name":"ExceedsMaxNetworkLimit","inputs":[]},{"type":"error","name":"InsufficientHookGas","inputs":[]},{"type":"error","name":"InvalidInitialization","inputs":[]},{"type":"error","name":"MissingRoleHolders","inputs":[]},{"type":"error","name":"NotInitialized","inputs":[]},{"type":"error","name":"NotInitializing","inputs":[]},{"type":"error","name":"NotNetwork","inputs":[]},{"type":"error","name":"NotSlasher","inputs":[]},{"type":"error","name":"NotVault","inputs":[]},{"type":"error","name":"ReentrancyGuardReentrantCall","inputs":[]},{"type":"error","name":"SafeCastOverflowedUintDowncast","inputs":[{"name":"bits","type":"uint8","internalType":"uint8"},{"name":"value","type":"uint256","internalType":"uint256"}]},{"type":"error","name":"ZeroAddressRoleHolder","inputs":[]}],"bytecode":{"object":"0x610140346101a1576001600160401b0390601f612da438819003918201601f191683019190848311848410176101a6578160c092859260409586528339810103126101a15761004d826101bc565b610059602084016101bc565b906100658385016101bc565b94610072606086016101bc565b9460a0610081608083016101bc565b9101519180831683036101a1577ff0c57e16840df040f15088dc2f81fe391c3923bec73e23a9662efc9c229c6a009081549060ff82891c1661019057808083160361014c575b50505060805260a05260c05260e0526101009283526101209182525190612bd392836101d184396080518361074b015260a05183610f00015260c0518381816105d20152610f3a015260e0518381816104730152611e5401525182818161050b0152818161153e0152611688015251818181610550015281816114a301526117080152f35b6001600160401b0319909116811790915585519081527fc7f505b2f371ae2175ee4913f4499e1f2633a7b5936321eed1cdaeb6115181d290602090a13880806100c7565b875163f92ee8a960e01b8152600490fd5b600080fd5b634e487b7160e01b600052604160045260246000fd5b51906001600160a01b03821682036101a15756fe6080604052600436101561001257600080fd5b60003560e01c806301ffc9a714610247578063020cf0c214610242578063021453481461023d578063103f2907146102385780631142209514610233578063128e5d821461022e5780631a80e5001461022957806323f752d514610224578063248a9ca31461021f5780632dd310001461021a5780632f2ff15d1461021557806336568abe146102105780633dfd38731461020b5780633eb22c0f14610206578063439fab9114610201578063518504ba146101fc578063557cab44146101f75780635d32a1c9146101f25780636679191e146101ed5780637d24bb27146101e85780637f5a7c7b146101e357806391d14854146101de57806394d2558a146101d95780639f86fd85146101d4578063a217fddf146101cf578063bb24fe8a146101ca578063c0cd7c3e146101c5578063d15b740e146101c0578063d547741f146101bb578063e02f6937146101b6578063e49561ee146101b1578063fbfa77cf146101ac578063fd4d447c146101a7578063ff54740f146101a25763ffa1ad741461019d57600080fd5b611261565b611243565b611219565b6111f0565b611000565b610fe4565b610f95565b610f69565b610f24565b610ee0565b610ec4565b610e08565b610dc6565b610d11565b610ce8565b610cae565b610c73565b610c16565b610ae2565b610aa7565b61096b565b610913565b610814565b6107c9565b61077a565b610735565b6106f9565b61057f565b61053a565b6104f5565b6104a2565b61045d565b61039c565b6102b3565b3461029d57602036600319011261029d5760043563ffffffff60e01b811680910361029d57602090637965db0b60e01b811490811561028c575b506040519015158152f35b6301ffc9a760e01b14905038610281565b600080fd5b6001600160a01b0381160361029d57565b3461029d57606036600319011261029d576024356004356102d3826102a2565b604435906102df61177e565b60009281845260046020528261031261030d83604088209060018060a01b0316600052602052604060002090565b6119a3565b1461038a5760207ffc9545f07ffadfb668efd0144cdcaf2d6e2c8192dce1ea9fc131934f9c90fc7e9183865260048252610374856103658360408a209060018060a01b0316600052602052604060002090565b61036e4261231c565b906118df565b50506040519485526001600160a01b031693a380f35b60405163a741a04560e01b8152600490fd5b3461029d5760408060031936011261029d576004356024356103bc6117dc565b600092828452600260205280842054821161044d578284526003602052816103e58286206119a3565b1461043d5781610437916104277e899d104fc3d8820bd96540612bcc5c448c8837b13b9f7faa43ad0728f0c14f94610365876000526003602052604060002090565b5050519081529081906020820190565b0390a280f35b5163a741a04560e01b8152600490fd5b51631eefc06360e31b8152600490fd5b3461029d57600036600319011261029d576040517f00000000000000000000000000000000000000000000000000000000000000006001600160a01b03168152602090f35b3461029d57604036600319011261029d5760206104ed61030d6024356104c7816102a2565b6004356000526004845260406000209060018060a01b0316600052602052604060002090565b604051908152f35b3461029d57600036600319011261029d576040517f00000000000000000000000000000000000000000000000000000000000000006001600160a01b03168152602090f35b3461029d57600036600319011261029d576040517f00000000000000000000000000000000000000000000000000000000000000006001600160a01b03168152602090f35b3461029d57604036600319011261029d576004356001600160601b038116810361029d57602435906105af6119f6565b6040516302910f8b60e31b81523360048201526020816024816001600160a01b037f0000000000000000000000000000000000000000000000000000000000000000165afa9081156106f4576000916106c5575b50156106b3576001600160601b03166bffffffffffffffffffffffff193360601b1617908061063c836000526002602052604060002090565b541461038a57610697817fc67e7929681aa1bccd63f52b3799bf5805f3009f197db6fdf584b14f7fbf608c9261067c856000526002602052604060002090565b556106878185611a26565b6040519081529081906020820190565b0390a26106b16001600080516020612b5e83398151915255565b005b6040516323d53b9760e21b8152600490fd5b6106e7915060203d6020116106ed575b6106df8183610b65565b81019061127d565b38610603565b503d6106d5565b611295565b3461029d57602036600319011261029d57600435600052600080516020612b3e8339815191526020526020600160406000200154604051908152f35b3461029d57600036600319011261029d576040517f00000000000000000000000000000000000000000000000000000000000000006001600160a01b03168152602090f35b3461029d57604036600319011261029d576106b160243560043561079d826102a2565b80600052600080516020612b3e8339815191526020526107c4600160406000200154611833565b611d17565b3461029d57604036600319011261029d576024356107e6816102a2565b336001600160a01b03821603610802576106b190600435611d51565b60405163334bd91960e11b8152600490fd5b3461029d57602036600319011261029d57600435610831816102a2565b6108396119f6565b3360009081527f9ebbcbe0d2961d3fbe56ca6f679bc753bd848d3e6bb3eaf9041c51b286881d2c60205260408120549091907fd1c1f6fa6bf27d54c5e54c7c1dc6e5004d3c027ea1994fe68b29c1b51b69c36c9060ff16156108f557506001546001600160a01b03918216918116821461038a576001600160a01b03191681176001557f5bbb1d3ebb6a3ad2a0f17ff35e579a83af60604d1d3c2a4c83c62adecadf666d8280a26001600080516020612b5e8339815191525580f35b6044906040519063e2517d3f60e01b82523360048301526024820152fd5b3461029d57602036600319011261029d57600435600052600360205260206104ed60406000206119a3565b9181601f8401121561029d578235916001600160401b03831161029d576020838186019501011161029d57565b3461029d57602036600319011261029d576001600160401b0360043581811161029d5761099c90369060040161093e565b600080516020612b7e833981519152549260ff8460401c1615931680159081610a9f575b6001149081610a95575b159081610a8c575b50610a7a57600080516020612b7e833981519152805467ffffffffffffffff19166001179055610a069183610a5557611e1f565b610a0c57005b600080516020612b7e833981519152805460ff60401b19169055604051600181527fc7f505b2f371ae2175ee4913f4499e1f2633a7b5936321eed1cdaeb6115181d290602090a1005b600080516020612b7e833981519152805460ff60401b1916600160401b179055611e1f565b60405163f92ee8a960e01b8152600490fd5b905015386109d2565b303b1591506109ca565b8491506109c0565b3461029d57600036600319011261029d5760206040517f15e7c882d74e8821ebf34aaff46fd0e1d53b9393d91490019124113d28dc32a38152f35b3461029d57600036600319011261029d576020604051614e208152f35b6064359065ffffffffffff8216820361029d57565b634e487b7160e01b600052604160045260246000fd5b604081019081106001600160401b03821117610b4557604052565b610b14565b606081019081106001600160401b03821117610b4557604052565b90601f801991011681019081106001600160401b03821117610b4557604052565b60405190608082018281106001600160401b03821117610b4557604052565b60405190610bb282610b2a565b565b6001600160401b038111610b4557601f01601f191660200190565b81601f8201121561029d57803590610be682610bb4565b92610bf46040519485610b65565b8284526020838301011161029d57816000926020809301838601378301015290565b3461029d57606036600319011261029d5760243565ffffffffffff8116810361029d576044356001600160401b03811161029d57602091610c5e6104ed923690600401610bcf565b90600435600052600384526040600020611f91565b3461029d57600036600319011261029d5760206040517fd1c1f6fa6bf27d54c5e54c7c1dc6e5004d3c027ea1994fe68b29c1b51b69c36c8152f35b3461029d57600036600319011261029d5760206040517e8b9b1e5fa9cf3b14f87f435649268146305ddf689f082e5961a335b07a9abf8152f35b3461029d57600036600319011261029d576001546040516001600160a01b039091168152602090f35b3461029d57604036600319011261029d57602060ff610d68602435610d35816102a2565b600435600052600080516020612b3e833981519152845260406000209060018060a01b0316600052602052604060002090565b54166040519015158152f35b90608060031983011261029d5760043591602435610d91816102a2565b9160443565ffffffffffff8116810361029d5791606435906001600160401b03821161029d57610dc391600401610bcf565b90565b3461029d5760206104ed610e03610ddc36610d74565b939190926000526004865260406000209060018060a01b0316600052602052604060002090565b611f91565b3461029d5760408060031936011261029d57600435610e26816102a2565b602435906001600160401b03821161029d5760008091610e4d610eb294369060040161093e565b908187519283928337810184815203915af43d15610eba57610ea43d610e7281610bb4565b90610e7f86519283610b65565b81523d6000602083013e5b845194859315156020850152808401526060830190611309565b03601f198101835282610b65565b805190602001fd5b610ea46060610e8a565b3461029d57600036600319011261029d57602060405160008152f35b3461029d57600036600319011261029d5760206040516001600160401b037f0000000000000000000000000000000000000000000000000000000000000000168152f35b3461029d57600036600319011261029d576040517f00000000000000000000000000000000000000000000000000000000000000006001600160a01b03168152602090f35b3461029d57602036600319011261029d5760043560005260026020526020604060002054604051908152f35b3461029d57604036600319011261029d576106b1602435600435610fb8826102a2565b80600052600080516020612b3e833981519152602052610fdf600160406000200154611833565b611d51565b3461029d5760206104ed610ff736610d74565b9291909161142c565b3461029d5760a036600319011261029d57602435600435611020826102a2565b6044359061102c610aff565b6084356001600160401b03811161029d5761104c60049136908301610bcf565b946110556119f6565b600095602061107c6110706110708a5460018060a01b031690565b6001600160a01b031690565b60405163b134427160e01b815294859182905afa9283156106f45787936111bf575b506001600160a01b0392831633036111ad576001546001600160a01b0316838116611122575b50506040805195865265ffffffffffff909316602086015216927f741a5de99085c0d660f3e4192217b0ffb0ea4e35a0480de48e857a4bc3ee36ed91819081015b0390a361111f6001600080516020612b5e83398151915255565b80f35b9093604051946111598661114b602082019363724ab0f760e11b8552858c898d602487016115cf565b03601f198101885287610b65565b62042e305a1061119b5788611105938192827f741a5de99085c0d660f3e4192217b0ffb0ea4e35a0480de48e857a4bc3ee36ed9951926203d090f150936110c4565b604051638072475160e01b8152600490fd5b60405163dabc4ad960e01b8152600490fd5b6111e291935060203d6020116111e9575b6111da8183610b65565b8101906115ba565b913861109e565b503d6111d0565b3461029d57600036600319011261029d576000546040516001600160a01b039091168152602090f35b3461029d57604036600319011261029d5760206104ed60243561123b816102a2565b600435611650565b3461029d57600036600319011261029d5760206040516203d0908152f35b3461029d57600036600319011261029d57602060405160018152f35b9081602091031261029d5751801515810361029d5790565b6040513d6000823e3d90fd5b90610dc3929160005260036020526040600020611f91565b60009081526004602090815260408083206001600160a01b03909416835292905220610dc3929190611f91565b60005b8381106112f95750506000910152565b81810151838201526020016112e9565b90602091611322815180928185528580860191016112e6565b601f01601f1916010190565b6040519061133b82610b2a565b60606020838281520152565b81601f8201121561029d57805161135d81610bb4565b9261136b6040519485610b65565b8184526020828401011161029d57610dc391602080850191016112e6565b9060208282031261029d5781516001600160401b039283821161029d57019060408282031261029d57604051926113bf84610b2a565b825181811161029d57826113d4918501611347565b8452602083015190811161029d576113ec9201611347565b602082015290565b6001600160a01b0391821681529116602082015265ffffffffffff9091166040820152608060608201819052610dc392910190611309565b9261143c90929192828486612177565b92909361144761132e565b9380518061159e575b50508415938415611506575b8415611474575b5050505061146e5790565b50600090565b60208094955061149f910151604051958694859463530e1d4360e01b865260601c90600486016113f4565b03817f00000000000000000000000000000000000000000000000000000000000000006001600160a01b03165afa9081156106f4576000916114e7575b501538808080611463565b611500915060203d6020116106ed576106df8183610b65565b386114dc565b6000549094506001600160a01b031660208486519261153a604051948593849363530e1d4360e01b855289600486016113f4565b03817f00000000000000000000000000000000000000000000000000000000000000006001600160a01b03165afa9081156106f45760009161157f575b50159361145c565b611598915060203d6020116106ed576106df8183610b65565b38611577565b6115b2929550602080918301019101611389565b923880611450565b9081602091031261029d5751610dc3816102a2565b919360a093610dc3969565ffffffffffff938552600180871b0316602085015260408401521660608201528160808201520190611309565b634e487b7160e01b600052601160045260246000fd5b8115611627570490565b634e487b7160e01b600052601260045260246000fd5b906001820180921161164b57565b611607565b6000546040516308834cb560e21b8082526001600160a01b0385811660048401529283166024830152929392602092909183816044817f000000000000000000000000000000000000000000000000000000000000000086165afa9081156106f457600091611761575b50159182156116dc575b505090506116d557610dc39161226e565b5050600090565b6040519081526001600160a01b0385166004820152606086901c602482015291508290829060449082907f0000000000000000000000000000000000000000000000000000000000000000165afa9182156106f457600092611744575b5050158038806116c4565b61175a9250803d106106ed576106df8183610b65565b3880611739565b6117789150843d86116106ed576106df8183610b65565b386116ba565b3360009081527f24e48de785eeca8420b70f73d267a66970ccc187d459f2a4b53e74ed92a5ab86602052604090207f15e7c882d74e8821ebf34aaff46fd0e1d53b9393d91490019124113d28dc32a39060ff905b5416156108f55750565b3360009081527f72a65082a5691803ab2b62c9bc729b34205ba1b183d950896526b2fd8714d0c7602052604090207e8b9b1e5fa9cf3b14f87f435649268146305ddf689f082e5961a335b07a9abf9060ff906117d2565b6000818152600080516020612b3e83398151915260209081526040808320338452909152902060ff906117d2565b634e487b7160e01b600052603260045260246000fd5b805482101561188f5760005260206000200190600090565b611861565b90815491600160401b831015610b4557826118b7916001610bb295018155611877565b90919082549060031b91821b91600019901b1916179055565b60001981019190821161164b57565b90929192600182019081548015611972575b50846118fc84612372565b5094909284549361190c836119a3565b968161195d575b501561193a57505050600019810190811161164b576118b7859161193693611877565b9190565b611936949293611956926001600160d01b03909116919061285b565b5050611894565b65ffffffffffff838116911614905038611913565b600160401b811015610b455780600161198e9201845583611877565b8154906000199060031b1b19169055386118f1565b8054600090806119d757505060005b6001600160d01b038116156116d55760016119cd9201611877565b90549060031b1c90565b60001991818381011161164b578084602092522001015460301c6119b2565b600080516020612b5e8339815191526002815414611a145760029055565b604051633ee5aeb560e01b8152600490fd5b9060009180835260036020526040832082611a4082612372565b919390508315611a9f57611a60916001600160d01b031690600101611877565b90549060031b1c5b82611a95575b5050611a7957505050565b82604091611a91945260036020522061036e4261231c565b5050565b1190508238611a6e565b505084611a68565b6001600160a01b03811660009081527fb7db2dd08fcb62d0c9e08c51941cae53c267786a0b75803fb7960902fc8ef97d6020526040812054600080516020612b3e8339815191529060ff16611b5657818052602090815260408083206001600160a01b038516600090815292529020805460ff1916600117905533916001600160a01b0316907f2f8788117e7eff1d82e926ec794901d17c78024a50270940304540a733656f0d8180a4600190565b50905090565b6001600160a01b03811660009081527f9ebbcbe0d2961d3fbe56ca6f679bc753bd848d3e6bb3eaf9041c51b286881d2c602052604081207fd1c1f6fa6bf27d54c5e54c7c1dc6e5004d3c027ea1994fe68b29c1b51b69c36c90600080516020612b3e8339815191529060ff905b5416611c2f57818352602090815260408084206001600160a01b038616600090815292529020805460ff1916600117905533926001600160a01b0316917f2f8788117e7eff1d82e926ec794901d17c78024a50270940304540a733656f0d9080a4600190565b5050905090565b6001600160a01b03811660009081527f72a65082a5691803ab2b62c9bc729b34205ba1b183d950896526b2fd8714d0c7602052604081207e8b9b1e5fa9cf3b14f87f435649268146305ddf689f082e5961a335b07a9abf90600080516020612b3e8339815191529060ff90611bc9565b6001600160a01b03811660009081527f24e48de785eeca8420b70f73d267a66970ccc187d459f2a4b53e74ed92a5ab86602052604081207f15e7c882d74e8821ebf34aaff46fd0e1d53b9393d91490019124113d28dc32a390600080516020612b3e8339815191529060ff90611bc9565b6000818152600080516020612b3e833981519152602081815260408084206001600160a01b0387168552909152822091929160ff90611bc9565b6000818152600080516020612b3e833981519152602081815260408084206001600160a01b038716855290915282205491929160ff1615611c2f57818352602090815260408084206001600160a01b038616600090815292529020805460ff1916905533926001600160a01b0316917ff6391f5c32d9c69d2a47ea670b442974b53935d1edc7fd64eb21e047a839171b9080a4600190565b91909160408184031261029d578035611e01816102a2565b9260208201356001600160401b03811161029d57610dc39201610bcf565b611e2b91810190611de9565b6040516302910f8b60e31b81526001600160a01b039283166004820181905291906020816024817f000000000000000000000000000000000000000000000000000000000000000088165afa9081156106f457600091611f41575b5015611f2f57611ec3604091611ebe611f0994611ea16123c7565b60018060a01b03166001600160601b0360a01b6000541617600055565b612549565b6020810151600180546001600160a01b0319166001600160a01b0390921691909117905580516001600160a01b0316848116611f1f575b5001516001600160a01b031690565b908116611f135750565b611f1c90611b5c565b50565b611f2890611aa7565b5038611efa565b6040516362df054560e01b8152600490fd5b611f5a915060203d6020116106ed576106df8183610b65565b38611e86565b9081602091031261029d575163ffffffff8116810361029d5790565b90600163ffffffff8093160191821161164b57565b9180511561206a5780602080611fac93518301019101611f60565b91611fb78382612783565b92611fc8845165ffffffffffff1690565b9065ffffffffffff808516921682811461205e5782119182611ffe575b5050611ff557610dc392506126ab565b50506020015190565b90915061200b83546118d0565b63ffffffff831614918215612024575b50503880611fe5565b61205691925061203f61203961204b92611f7c565b85612783565b5165ffffffffffff1690565b65ffffffffffff1690565b11388061201b565b50505050506020015190565b50610dc3916126ab565b60405190608082018281106001600160401b03821117610b4557604052606080838181528160208201528160408201520152565b9060208282031261029d5781516001600160401b039283821161029d57019060808282031261029d576120d9610b86565b92825181811161029d57826120ef918501611347565b8452602083015181811161029d5782612109918501611347565b6020850152604083015181811161029d5782612126918501611347565b6040850152606083015190811161029d576121419201611347565b606082015290565b9081602091031261029d575190565b60409065ffffffffffff610dc394931681528160208201520190611309565b93919093612183612074565b9380518061224e575b50506121ce92939460206121ad61107061107060005460018060a01b031690565b8188015190604051808098819463810da75d60e01b83528960048401612158565b03915afa9182156106f45761221094600093612215575b5061220a9061220a93946121fe60408a015182846112a1565b9360608a0151926112b9565b906127eb565b915190565b61220a93509061223f61220a9260203d602011612247575b6122378183610b65565b810190612149565b9350906121e5565b503d61222d565b6121ce949550906020806122669383010191016120a8565b93923861218c565b60005460405163bd49c35f60e01b8152929190602090849060049082906001600160a01b03165afa9081156106f457610dc3936000926122f1575b5061220a61030d61220a93946122cc61030d856000526003602052604060002090565b93600052600460205260406000209060018060a01b0316600052602052604060002090565b61220a925061030d61231461220a9260203d602011612247576122378183610b65565b9350506122a9565b65ffffffffffff9081811161232f571690565b604490604051906306dfcc6560e41b8252603060048301526024820152fd5b9060405161235b81610b2a565b915465ffffffffffff8116835260301c6020830152565b805480612386575050600090600090600090565b60001990808281011161164b576123a6926000526020600020010161234e565b9065ffffffffffff82511691602060018060d01b0391015116906001929190565b6123cf612979565b6123d7612979565b6001600080516020612b5e83398151915255565b604051906123f882610b4a565b60006040838281528260208201520152565b81601f8201121561029d578051916020916001600160401b038411610b45578360051b906040519461243e85840187610b65565b8552838086019282010192831161029d578301905b828210612461575050505090565b838091835161246f816102a2565b815201910190612453565b9060208282031261029d5781516001600160401b039283821161029d5701908181039260a0841261029d576060604051946124b486610b4a565b1261029d576040516124c581610b4a565b83516124d0816102a2565b815260208401516124e0816102a2565b602082015260408401516124f3816102a2565b60408201528452606083015181811161029d578261251291850161240a565b6020850152608083015190811161029d5761252d920161240a565b604082015290565b805182101561188f5760209160051b010190565b612565906125556123eb565b506020808251830101910161247a565b8051519091906001600160a01b03161580612691575b61267f5790602081019060005b82518051821015612602576110706125a3836125b093612535565b516001600160a01b031690565b156125f0576125d26125ce6125c96125a3848751612535565b611c36565b1590565b6125de57600101612588565b604051635140fefd60e11b8152600490fd5b6040516323cda06760e01b8152600490fd5b5060409250508181019060005b82518051821015612676576110706125a38361262a93612535565b15612665576126486125ce6126436125a3848751612535565b611ca6565b6126545760010161260f565b8351635140fefd60e11b8152600490fd5b83516323cda06760e01b8152600490fd5b50509150505190565b6040516303501f5960e11b8152600490fd5b50602082015151158061257b57506040820151511561257b565b908154906000829160058411612719575b6126c7935084612adc565b806126f057506000905b6001600160d01b038216156116d557610dc39160016119cd9201611877565b61270c6126ff612713926118d0565b8360005260206000200190565b5460301c90565b906126d1565b9192612724816129a8565b810390811161164b576126c7938560005265ffffffffffff80836020600020015416908516106000146127585750916126bc565b9291506127649061163d565b906126bc565b6040519061277782610b2a565b60006020838281520152565b906127ac6127a66127cd9261279661276a565b5061279f61276a565b5084611877565b5061234e565b91600165ffffffffffff845116936020828060d01b03910151169101611877565b905490604051926127dd84610b2a565b835260031b1c602082015290565b90808210156127f8575090565b905090565b8054600160401b811015610b455761281a91600182018155611877565b61284557815160209092015160301b65ffffffffffff191665ffffffffffff92909216919091179055565b634e487b7160e01b600052600060045260246000fd5b80549293929190821561294f5761287c6128776126ff856118d0565b61234e565b9061288d825165ffffffffffff1690565b65ffffffffffff8481169116811061293d576119369460209488926128bb61204b875165ffffffffffff1690565b0361290557506128f7926128d16128de926118d0565b9060005260206000200190565b9065ffffffffffff82549181199060301b169116179055565b01516001600160d01b031690565b91505061293891612925612917610ba5565b65ffffffffffff9093168352565b6001600160d01b038816828601526127fd565b6128f7565b604051632520601d60e01b8152600490fd5b612973925061295f612917610ba5565b6001600160d01b03851660208301526127fd565b60009190565b60ff600080516020612b7e8339815191525460401c161561299657565b604051631afcd79f60e31b8152600490fd5b801561146e578061220a612a74612a6a612a60612a56612a4c612a42612a386001610dc39a6000908b60801c80612ad0575b508060401c80612ac3575b508060201c80612ab6575b508060101c80612aa9575b508060081c80612a9c575b508060041c80612a8f575b508060021c80612a82575b50821c612a7b575b811c1b612a31818b61161d565b0160011c90565b612a31818a61161d565b612a31818961161d565b612a31818861161d565b612a31818761161d565b612a31818661161d565b612a31818561161d565b809261161d565b8101612a24565b6002915091019038612a1c565b6004915091019038612a11565b6008915091019038612a06565b60109150910190386129fb565b60209150910190386129f0565b60409150910190386129e5565b915050608090386129da565b91905b838210612aec5750505090565b9091928083169080841860011c820180921161164b5760008581526020902082015465ffffffffffff9081169084161015612b2b5750925b9190612adf565b939250612b379061163d565b91612b2456fe02dd7bc7dec4dceedda775e58dd541e08a116c6c53815c0bd028192f7b6268009b779b17422d0df92223018b32b4d1fa46e071723d6817e2486d003becc55f00f0c57e16840df040f15088dc2f81fe391c3923bec73e23a9662efc9c229c6a00a2646970667358221220508a90bfa0a695da52c71cbf77d4eaabc3486fa738b458951fee94b8a178e56264736f6c63430008190033","linkReferences":{}},"methodIdentifiers":{"DEFAULT_ADMIN_ROLE()":"a217fddf","FACTORY()":"2dd31000","HOOK_GAS_LIMIT()":"ff54740f","HOOK_RESERVE()":"557cab44","HOOK_SET_ROLE()":"6679191e","NETWORK_LIMIT_SET_ROLE()":"7d24bb27","NETWORK_REGISTRY()":"c0cd7c3e","OPERATOR_NETWORK_LIMIT_SET_ROLE()":"518504ba","OPERATOR_NETWORK_OPT_IN_SERVICE()":"1a80e500","OPERATOR_VAULT_OPT_IN_SERVICE()":"128e5d82","TYPE()":"bb24fe8a","VAULT_FACTORY()":"103f2907","VERSION()":"ffa1ad74","getRoleAdmin(bytes32)":"248a9ca3","grantRole(bytes32,address)":"2f2ff15d","hasRole(bytes32,address)":"91d14854","hook()":"7f5a7c7b","initialize(bytes)":"439fab91","maxNetworkLimit(bytes32)":"d15b740e","networkLimit(bytes32)":"3eb22c0f","networkLimitAt(bytes32,uint48,bytes)":"5d32a1c9","onSlash(bytes32,address,uint256,uint48,bytes)":"e49561ee","operatorNetworkLimit(bytes32,address)":"11422095","operatorNetworkLimitAt(bytes32,address,uint48,bytes)":"94d2558a","renounceRole(bytes32,address)":"36568abe","revokeRole(bytes32,address)":"d547741f","setHook(address)":"3dfd3873","setMaxNetworkLimit(uint96,uint256)":"23f752d5","setNetworkLimit(bytes32,uint256)":"02145348","setOperatorNetworkLimit(bytes32,address,uint256)":"020cf0c2","stake(bytes32,address)":"fd4d447c","stakeAt(bytes32,address,uint48,bytes)":"e02f6937","staticDelegateCall(address,bytes)":"9f86fd85","supportsInterface(bytes4)":"01ffc9a7","vault()":"fbfa77cf"},"id":75}