{"abi":[{"type":"constructor","inputs":[{"name":"logic","type":"address","internalType":"address"},{"name":"data","type":"bytes","internalType":"bytes"}],"stateMutability":"nonpayable"},{"type":"fallback","stateMutability":"payable"},{"type":"function","name":"upgradeToAndCall","inputs":[{"name":"newImplementation","type":"address","internalType":"address"},{"name":"data","type":"bytes","internalType":"bytes"}],"outputs":[],"stateMutability":"nonpayable"},{"type":"event","name":"AdminChanged","inputs":[{"name":"previousAdmin","type":"address","indexed":false,"internalType":"address"},{"name":"newAdmin","type":"address","indexed":false,"internalType":"address"}],"anonymous":false},{"type":"event","name":"Upgraded","inputs":[{"name":"implementation","type":"address","indexed":true,"internalType":"address"}],"anonymous":false},{"type":"error","name":"AddressEmptyCode","inputs":[{"name":"target","type":"address","internalType":"address"}]},{"type":"error","name":"ERC1967InvalidAdmin","inputs":[{"name":"admin","type":"address","internalType":"address"}]},{"type":"error","name":"ERC1967InvalidImplementation","inputs":[{"name":"implementation","type":"address","internalType":"address"}]},{"type":"error","name":"ERC1967NonPayable","inputs":[]},{"type":"error","name":"FailedInnerCall","inputs":[]},{"type":"error","name":"ProxyDeniedAdminAccess","inputs":[]}],"bytecode":{"object":"0x604060a08152346101df576105c38038038061001a816101e3565b92833981019082818303126101df5780516001600160a01b0392838216918281036101df5760208481015190946001600160401b0382116101df570182601f820112156101df57805161007461006f8261021c565b6101e3565b91818352868301948783830101116101df57815f9288809301875e83010152813b156101c7577f360894a13ba1a3210667c828492db98dca3e2076cc3735a920a3ca505d382bbc80546001600160a01b03199081168617909155937fbc7cd75a20ee27fd9adebab32041f755214dbc6bffa90cc0225b39da2e5c2d3b5f80a25180156101bf575f809161012694845af43d156101b7573d9161011861006f8461021c565b9283523d5f8785013e610237565b505b336080527f7e644d79422f17c01e4894b5f4f588d331ebfa28653d42ae832dc59e38c9798f847fb53127684a568b3173ae13b9f8a6016e243e63b6e8ee1178d6a717850b5d610394855494825191861682523390820152a133156101a057163317905551610328908161029b82396080518160f10152f35b8351633173bdd160e11b81525f6004820152602490fd5b606091610237565b505050610128565b8651634c9c8ce360e01b815260048101859052602490fd5b5f80fd5b6040519190601f01601f191682016001600160401b0381118382101761020857604052565b634e487b7160e01b5f52604160045260245ffd5b6001600160401b03811161020857601f01601f191660200190565b9061025e575080511561024c57805190602001fd5b604051630a12f52160e11b8152600490fd5b81511580610291575b61026f575090565b604051639996b31560e01b81526001600160a01b039091166004820152602490fd5b50803b1561026756fe6080604052600436106101f4575f3560e01c634f1ef286036101f45734610086576040366003190112610086576004356001600160a01b0381168103610086576024359067ffffffffffffffff9081831161008657366023840112156100865782600401359182116100865736602483850101116100865760246100849301906100e5565b005b5f80fd5b634e487b7160e01b5f52604160045260245ffd5b6040519190601f01601f1916820167ffffffffffffffff8111838210176100c457604052565b61008a565b67ffffffffffffffff81116100c457601f01601f191660200190565b916001600160a01b03907f0000000000000000000000000000000000000000000000000000000000000000821633036101e257610129610124826100c9565b61009e565b92818452368282011161008657815f926020928387013784010152823b156101c85782167f360894a13ba1a3210667c828492db98dca3e2076cc3735a920a3ca505d382bbc816bffffffffffffffffffffffff60a01b8254161790557fbc7cd75a20ee27fd9adebab32041f755214dbc6bffa90cc0225b39da2e5c2d3b5f80a28051156101bc576101b991610256565b50565b50506101c661023d565b565b604051634c9c8ce360e01b81529083166004820152602490fd5b6040516334ad5dbb60e21b8152600490fd5b7f360894a13ba1a3210667c828492db98dca3e2076cc3735a920a3ca505d382bbc545f9081906001600160a01b0316368280378136915af43d5f803e15610239573d5ff35b3d5ffd5b3461024457565b60405163b398979f60e01b8152600490fd5b5f8061028893602081519101845af43d1561028b573d91610279610124846100c9565b9283523d5f602085013e61028f565b90565b6060915b906102b657508051156102a457805190602001fd5b604051630a12f52160e11b8152600490fd5b815115806102e9575b6102c7575090565b604051639996b31560e01b81526001600160a01b039091166004820152602490fd5b50803b156102bf56fea264697066735822122028e25eef202279b950fae0b3b6144d4d7a8824832024cb7fc76ff5455d7c319964736f6c63430008190033","linkReferences":{}},"methodIdentifiers":{"upgradeToAndCall(address,bytes)":"4f1ef286"},"id":72}