{"abi":[{"type":"constructor","inputs":[{"name":"delegatorFactory","type":"address","internalType":"address"},{"name":"slasherFactory","type":"address","internalType":"address"}],"stateMutability":"nonpayable"},{"type":"function","name":"DEFAULT_ADMIN_ROLE","inputs":[],"outputs":[{"name":"","type":"bytes32","internalType":"bytes32"}],"stateMutability":"view"},{"type":"function","name":"DELEGATOR_FACTORY","inputs":[],"outputs":[{"name":"","type":"address","internalType":"address"}],"stateMutability":"view"},{"type":"function","name":"DEPOSITOR_WHITELIST_ROLE","inputs":[],"outputs":[{"name":"","type":"bytes32","internalType":"bytes32"}],"stateMutability":"view"},{"type":"function","name":"DEPOSIT_LIMIT_SET_ROLE","inputs":[],"outputs":[{"name":"","type":"bytes32","internalType":"bytes32"}],"stateMutability":"view"},{"type":"function","name":"DEPOSIT_WHITELIST_SET_ROLE","inputs":[],"outputs":[{"name":"","type":"bytes32","internalType":"bytes32"}],"stateMutability":"view"},{"type":"function","name":"EPOCH_DURATION_SET_ROLE","inputs":[],"outputs":[{"name":"","type":"bytes32","internalType":"bytes32"}],"stateMutability":"view"},{"type":"function","name":"FLASH_FEE_BASE","inputs":[],"outputs":[{"name":"","type":"uint256","internalType":"uint256"}],"stateMutability":"view"},{"type":"function","name":"FLASH_FEE_RATE_SET_ROLE","inputs":[],"outputs":[{"name":"","type":"bytes32","internalType":"bytes32"}],"stateMutability":"view"},{"type":"function","name":"FLASH_FEE_RECEIVER_SET_ROLE","inputs":[],"outputs":[{"name":"","type":"bytes32","internalType":"bytes32"}],"stateMutability":"view"},{"type":"function","name":"FLASH_LOAN_ENABLED_SET_ROLE","inputs":[],"outputs":[{"name":"","type":"bytes32","internalType":"bytes32"}],"stateMutability":"view"},{"type":"function","name":"IS_DEPOSIT_LIMIT_SET_ROLE","inputs":[],"outputs":[{"name":"","type":"bytes32","internalType":"bytes32"}],"stateMutability":"view"},{"type":"function","name":"RETURN_VALUE","inputs":[],"outputs":[{"name":"","type":"bytes32","internalType":"bytes32"}],"stateMutability":"view"},{"type":"function","name":"SLASHER_FACTORY","inputs":[],"outputs":[{"name":"","type":"address","internalType":"address"}],"stateMutability":"view"},{"type":"function","name":"activeBalanceOf","inputs":[{"name":"account","type":"address","internalType":"address"}],"outputs":[{"name":"","type":"uint256","internalType":"uint256"}],"stateMutability":"view"},{"type":"function","name":"activeBalanceOfAt","inputs":[{"name":"account","type":"address","internalType":"address"},{"name":"timestamp","type":"uint48","internalType":"uint48"},{"name":"hints","type":"bytes","internalType":"bytes"}],"outputs":[{"name":"","type":"uint256","internalType":"uint256"}],"stateMutability":"view"},{"type":"function","name":"activeShares","inputs":[],"outputs":[{"name":"","type":"uint256","internalType":"uint256"}],"stateMutability":"view"},{"type":"function","name":"activeSharesAt","inputs":[{"name":"timestamp","type":"uint48","internalType":"uint48"},{"name":"hint","type":"bytes","internalType":"bytes"}],"outputs":[{"name":"","type":"uint256","internalType":"uint256"}],"stateMutability":"view"},{"type":"function","name":"activeSharesOf","inputs":[{"name":"account","type":"address","internalType":"address"}],"outputs":[{"name":"","type":"uint256","internalType":"uint256"}],"stateMutability":"view"},{"type":"function","name":"activeSharesOfAt","inputs":[{"name":"account","type":"address","internalType":"address"},{"name":"timestamp","type":"uint48","internalType":"uint48"},{"name":"hint","type":"bytes","internalType":"bytes"}],"outputs":[{"name":"","type":"uint256","internalType":"uint256"}],"stateMutability":"view"},{"type":"function","name":"activeStake","inputs":[],"outputs":[{"name":"","type":"uint256","internalType":"uint256"}],"stateMutability":"view"},{"type":"function","name":"activeStakeAt","inputs":[{"name":"timestamp","type":"uint48","internalType":"uint48"},{"name":"hint","type":"bytes","internalType":"bytes"}],"outputs":[{"name":"","type":"uint256","internalType":"uint256"}],"stateMutability":"view"},{"type":"function","name":"burner","inputs":[],"outputs":[{"name":"","type":"address","internalType":"address"}],"stateMutability":"view"},{"type":"function","name":"claim","inputs":[{"name":"recipient","type":"address","internalType":"address"},{"name":"epoch","type":"uint256","internalType":"uint256"}],"outputs":[{"name":"amount","type":"uint256","internalType":"uint256"}],"stateMutability":"nonpayable"},{"type":"function","name":"claimBatch","inputs":[{"name":"recipient","type":"address","internalType":"address"},{"name":"epochs","type":"uint256[]","internalType":"uint256[]"}],"outputs":[{"name":"amount","type":"uint256","internalType":"uint256"}],"stateMutability":"nonpayable"},{"type":"function","name":"collateral","inputs":[],"outputs":[{"name":"","type":"address","internalType":"address"}],"stateMutability":"view"},{"type":"function","name":"currentEpoch","inputs":[],"outputs":[{"name":"","type":"uint256","internalType":"uint256"}],"stateMutability":"view"},{"type":"function","name":"currentEpochStart","inputs":[],"outputs":[{"name":"","type":"uint48","internalType":"uint48"}],"stateMutability":"view"},{"type":"function","name":"delegator","inputs":[],"outputs":[{"name":"","type":"address","internalType":"address"}],"stateMutability":"view"},{"type":"function","name":"deposit","inputs":[{"name":"onBehalfOf","type":"address","internalType":"address"},{"name":"amount","type":"uint256","internalType":"uint256"}],"outputs":[{"name":"depositedAmount","type":"uint256","internalType":"uint256"},{"name":"mintedShares","type":"uint256","internalType":"uint256"}],"stateMutability":"nonpayable"},{"type":"function","name":"depositLimit","inputs":[],"outputs":[{"name":"","type":"uint256","internalType":"uint256"}],"stateMutability":"view"},{"type":"function","name":"depositWhitelist","inputs":[],"outputs":[{"name":"","type":"bool","internalType":"bool"}],"stateMutability":"view"},{"type":"function","name":"epochAt","inputs":[{"name":"timestamp","type":"uint48","internalType":"uint48"}],"outputs":[{"name":"","type":"uint256","internalType":"uint256"}],"stateMutability":"view"},{"type":"function","name":"epochDuration","inputs":[],"outputs":[{"name":"","type":"uint48","internalType":"uint48"}],"stateMutability":"view"},{"type":"function","name":"epochDurationInit","inputs":[],"outputs":[{"name":"","type":"uint48","internalType":"uint48"}],"stateMutability":"view"},{"type":"function","name":"epochDurationSetEpochsDelay","inputs":[],"outputs":[{"name":"","type":"uint256","internalType":"uint256"}],"stateMutability":"view"},{"type":"function","name":"epochStart","inputs":[{"name":"epoch","type":"uint256","internalType":"uint256"}],"outputs":[{"name":"","type":"uint48","internalType":"uint48"}],"stateMutability":"view"},{"type":"function","name":"flashFee","inputs":[{"name":"token","type":"address","internalType":"address"},{"name":"value","type":"uint256","internalType":"uint256"}],"outputs":[{"name":"","type":"uint256","internalType":"uint256"}],"stateMutability":"view"},{"type":"function","name":"flashFeeRate","inputs":[],"outputs":[{"name":"","type":"uint256","internalType":"uint256"}],"stateMutability":"view"},{"type":"function","name":"flashFeeReceiver","inputs":[],"outputs":[{"name":"","type":"address","internalType":"address"}],"stateMutability":"view"},{"type":"function","name":"flashLoan","inputs":[{"name":"receiver","type":"address","internalType":"contract IERC3156FlashBorrower"},{"name":"token","type":"address","internalType":"address"},{"name":"value","type":"uint256","internalType":"uint256"},{"name":"data","type":"bytes","internalType":"bytes"}],"outputs":[{"name":"","type":"bool","internalType":"bool"}],"stateMutability":"nonpayable"},{"type":"function","name":"flashLoanEnabled","inputs":[],"outputs":[{"name":"","type":"bool","internalType":"bool"}],"stateMutability":"view"},{"type":"function","name":"getRoleAdmin","inputs":[{"name":"role","type":"bytes32","internalType":"bytes32"}],"outputs":[{"name":"","type":"bytes32","internalType":"bytes32"}],"stateMutability":"view"},{"type":"function","name":"grantRole","inputs":[{"name":"role","type":"bytes32","internalType":"bytes32"},{"name":"account","type":"address","internalType":"address"}],"outputs":[],"stateMutability":"nonpayable"},{"type":"function","name":"hasRole","inputs":[{"name":"role","type":"bytes32","internalType":"bytes32"},{"name":"account","type":"address","internalType":"address"}],"outputs":[{"name":"","type":"bool","internalType":"bool"}],"stateMutability":"view"},{"type":"function","name":"isDelegatorInitialized","inputs":[],"outputs":[{"name":"","type":"bool","internalType":"bool"}],"stateMutability":"view"},{"type":"function","name":"isDepositLimit","inputs":[],"outputs":[{"name":"","type":"bool","internalType":"bool"}],"stateMutability":"view"},{"type":"function","name":"isDepositorWhitelisted","inputs":[{"name":"account","type":"address","internalType":"address"}],"outputs":[{"name":"value","type":"bool","internalType":"bool"}],"stateMutability":"view"},{"type":"function","name":"isInitialized","inputs":[],"outputs":[{"name":"","type":"bool","internalType":"bool"}],"stateMutability":"view"},{"type":"function","name":"isSlasherInitialized","inputs":[],"outputs":[{"name":"","type":"bool","internalType":"bool"}],"stateMutability":"view"},{"type":"function","name":"isWithdrawalsClaimed","inputs":[{"name":"epoch","type":"uint256","internalType":"uint256"},{"name":"account","type":"address","internalType":"address"}],"outputs":[{"name":"value","type":"bool","internalType":"bool"}],"stateMutability":"view"},{"type":"function","name":"maxFlashLoan","inputs":[{"name":"token","type":"address","internalType":"address"}],"outputs":[{"name":"","type":"uint256","internalType":"uint256"}],"stateMutability":"view"},{"type":"function","name":"nextEpochStart","inputs":[],"outputs":[{"name":"","type":"uint48","internalType":"uint48"}],"stateMutability":"view"},{"type":"function","name":"onSlash","inputs":[{"name":"amount","type":"uint256","internalType":"uint256"},{"name":"captureTimestamp","type":"uint48","internalType":"uint48"}],"outputs":[{"name":"slashedAmount","type":"uint256","internalType":"uint256"}],"stateMutability":"nonpayable"},{"type":"function","name":"previousEpochStart","inputs":[],"outputs":[{"name":"","type":"uint48","internalType":"uint48"}],"stateMutability":"view"},{"type":"function","name":"redeem","inputs":[{"name":"claimer","type":"address","internalType":"address"},{"name":"shares","type":"uint256","internalType":"uint256"}],"outputs":[{"name":"withdrawnAssets","type":"uint256","internalType":"uint256"},{"name":"mintedShares","type":"uint256","internalType":"uint256"}],"stateMutability":"nonpayable"},{"type":"function","name":"renounceRole","inputs":[{"name":"role","type":"bytes32","internalType":"bytes32"},{"name":"callerConfirmation","type":"address","internalType":"address"}],"outputs":[],"stateMutability":"nonpayable"},{"type":"function","name":"revokeRole","inputs":[{"name":"role","type":"bytes32","internalType":"bytes32"},{"name":"account","type":"address","internalType":"address"}],"outputs":[],"stateMutability":"nonpayable"},{"type":"function","name":"setDelegator","inputs":[{"name":"delegator_","type":"address","internalType":"address"}],"outputs":[],"stateMutability":"nonpayable"},{"type":"function","name":"setDepositLimit","inputs":[{"name":"limit","type":"uint256","internalType":"uint256"}],"outputs":[],"stateMutability":"nonpayable"},{"type":"function","name":"setDepositWhitelist","inputs":[{"name":"status","type":"bool","internalType":"bool"}],"outputs":[],"stateMutability":"nonpayable"},{"type":"function","name":"setDepositorWhitelistStatus","inputs":[{"name":"account","type":"address","internalType":"address"},{"name":"status","type":"bool","internalType":"bool"}],"outputs":[],"stateMutability":"nonpayable"},{"type":"function","name":"setEpochDuration","inputs":[{"name":"epochDuration_","type":"uint48","internalType":"uint48"},{"name":"epochDurationSetEpochsDelay_","type":"uint256","internalType":"uint256"}],"outputs":[],"stateMutability":"nonpayable"},{"type":"function","name":"setFlashFeeRate","inputs":[{"name":"flashFeeRate_","type":"uint256","internalType":"uint256"}],"outputs":[],"stateMutability":"nonpayable"},{"type":"function","name":"setFlashFeeReceiver","inputs":[{"name":"flashFeeReceiver_","type":"address","internalType":"address"}],"outputs":[],"stateMutability":"nonpayable"},{"type":"function","name":"setFlashloanEnabled","inputs":[{"name":"status","type":"bool","internalType":"bool"}],"outputs":[],"stateMutability":"nonpayable"},{"type":"function","name":"setIsDepositLimit","inputs":[{"name":"status","type":"bool","internalType":"bool"}],"outputs":[],"stateMutability":"nonpayable"},{"type":"function","name":"setSlasher","inputs":[{"name":"slasher_","type":"address","internalType":"address"}],"outputs":[],"stateMutability":"nonpayable"},{"type":"function","name":"slashableBalanceOf","inputs":[{"name":"account","type":"address","internalType":"address"}],"outputs":[{"name":"","type":"uint256","internalType":"uint256"}],"stateMutability":"view"},{"type":"function","name":"slasher","inputs":[],"outputs":[{"name":"","type":"address","internalType":"address"}],"stateMutability":"view"},{"type":"function","name":"staticDelegateCall","inputs":[{"name":"target","type":"address","internalType":"address"},{"name":"data","type":"bytes","internalType":"bytes"}],"outputs":[],"stateMutability":"nonpayable"},{"type":"function","name":"supportsInterface","inputs":[{"name":"interfaceId","type":"bytes4","internalType":"bytes4"}],"outputs":[{"name":"","type":"bool","internalType":"bool"}],"stateMutability":"view"},{"type":"function","name":"totalStake","inputs":[],"outputs":[{"name":"","type":"uint256","internalType":"uint256"}],"stateMutability":"view"},{"type":"function","name":"withdraw","inputs":[{"name":"claimer","type":"address","internalType":"address"},{"name":"amount","type":"uint256","internalType":"uint256"}],"outputs":[{"name":"burnedShares","type":"uint256","internalType":"uint256"},{"name":"mintedShares","type":"uint256","internalType":"uint256"}],"stateMutability":"nonpayable"},{"type":"function","name":"withdrawalShares","inputs":[{"name":"epoch","type":"uint256","internalType":"uint256"}],"outputs":[{"name":"amount","type":"uint256","internalType":"uint256"}],"stateMutability":"view"},{"type":"function","name":"withdrawalSharesOf","inputs":[{"name":"epoch","type":"uint256","internalType":"uint256"},{"name":"account","type":"address","internalType":"address"}],"outputs":[{"name":"amount","type":"uint256","internalType":"uint256"}],"stateMutability":"view"},{"type":"function","name":"withdrawals","inputs":[{"name":"epoch","type":"uint256","internalType":"uint256"}],"outputs":[{"name":"amount","type":"uint256","internalType":"uint256"}],"stateMutability":"view"},{"type":"function","name":"withdrawalsOf","inputs":[{"name":"epoch","type":"uint256","internalType":"uint256"},{"name":"account","type":"address","internalType":"address"}],"outputs":[{"name":"","type":"uint256","internalType":"uint256"}],"stateMutability":"view"},{"type":"event","name":"Claim","inputs":[{"name":"claimer","type":"address","indexed":true,"internalType":"address"},{"name":"recipient","type":"address","indexed":true,"internalType":"address"},{"name":"epoch","type":"uint256","indexed":false,"internalType":"uint256"},{"name":"amount","type":"uint256","indexed":false,"internalType":"uint256"}],"anonymous":false},{"type":"event","name":"ClaimBatch","inputs":[{"name":"claimer","type":"address","indexed":true,"internalType":"address"},{"name":"recipient","type":"address","indexed":true,"internalType":"address"},{"name":"epochs","type":"uint256[]","indexed":false,"internalType":"uint256[]"},{"name":"amount","type":"uint256","indexed":false,"internalType":"uint256"}],"anonymous":false},{"type":"event","name":"Deposit","inputs":[{"name":"depositor","type":"address","indexed":true,"internalType":"address"},{"name":"onBehalfOf","type":"address","indexed":true,"internalType":"address"},{"name":"amount","type":"uint256","indexed":false,"internalType":"uint256"},{"name":"shares","type":"uint256","indexed":false,"internalType":"uint256"}],"anonymous":false},{"type":"event","name":"Initialized","inputs":[{"name":"version","type":"uint64","indexed":false,"internalType":"uint64"}],"anonymous":false},{"type":"event","name":"OnSlash","inputs":[{"name":"amount","type":"uint256","indexed":false,"internalType":"uint256"},{"name":"captureTimestamp","type":"uint48","indexed":false,"internalType":"uint48"},{"name":"slashedAmount","type":"uint256","indexed":false,"internalType":"uint256"}],"anonymous":false},{"type":"event","name":"RoleAdminChanged","inputs":[{"name":"role","type":"bytes32","indexed":true,"internalType":"bytes32"},{"name":"previousAdminRole","type":"bytes32","indexed":true,"internalType":"bytes32"},{"name":"newAdminRole","type":"bytes32","indexed":true,"internalType":"bytes32"}],"anonymous":false},{"type":"event","name":"RoleGranted","inputs":[{"name":"role","type":"bytes32","indexed":true,"internalType":"bytes32"},{"name":"account","type":"address","indexed":true,"internalType":"address"},{"name":"sender","type":"address","indexed":true,"internalType":"address"}],"anonymous":false},{"type":"event","name":"RoleRevoked","inputs":[{"name":"role","type":"bytes32","indexed":true,"internalType":"bytes32"},{"name":"account","type":"address","indexed":true,"internalType":"address"},{"name":"sender","type":"address","indexed":true,"internalType":"address"}],"anonymous":false},{"type":"event","name":"SetDelegator","inputs":[{"name":"delegator","type":"address","indexed":true,"internalType":"address"}],"anonymous":false},{"type":"event","name":"SetDepositLimit","inputs":[{"name":"limit","type":"uint256","indexed":false,"internalType":"uint256"}],"anonymous":false},{"type":"event","name":"SetDepositWhitelist","inputs":[{"name":"status","type":"bool","indexed":false,"internalType":"bool"}],"anonymous":false},{"type":"event","name":"SetDepositorWhitelistStatus","inputs":[{"name":"account","type":"address","indexed":true,"internalType":"address"},{"name":"status","type":"bool","indexed":false,"internalType":"bool"}],"anonymous":false},{"type":"event","name":"SetEpochDuration","inputs":[{"name":"epochDuration","type":"uint48","indexed":false,"internalType":"uint48"},{"name":"epochDurationSetEpochsDelay","type":"uint256","indexed":false,"internalType":"uint256"}],"anonymous":false},{"type":"event","name":"SetFlashFeeRate","inputs":[{"name":"flashFeeRate","type":"uint256","indexed":false,"internalType":"uint256"}],"anonymous":false},{"type":"event","name":"SetFlashFeeReceiver","inputs":[{"name":"flashFeeReceiver","type":"address","indexed":false,"internalType":"address"}],"anonymous":false},{"type":"event","name":"SetFlashloanEnabled","inputs":[{"name":"status","type":"bool","indexed":false,"internalType":"bool"}],"anonymous":false},{"type":"event","name":"SetIsDepositLimit","inputs":[{"name":"status","type":"bool","indexed":false,"internalType":"bool"}],"anonymous":false},{"type":"event","name":"SetSlasher","inputs":[{"name":"slasher","type":"address","indexed":true,"internalType":"address"}],"anonymous":false},{"type":"event","name":"Withdraw","inputs":[{"name":"withdrawer","type":"address","indexed":true,"internalType":"address"},{"name":"claimer","type":"address","indexed":true,"internalType":"address"},{"name":"amount","type":"uint256","indexed":false,"internalType":"uint256"},{"name":"burnedShares","type":"uint256","indexed":false,"internalType":"uint256"},{"name":"mintedShares","type":"uint256","indexed":false,"internalType":"uint256"}],"anonymous":false},{"type":"error","name":"AccessControlBadConfirmation","inputs":[]},{"type":"error","name":"AccessControlUnauthorizedAccount","inputs":[{"name":"account","type":"address","internalType":"address"},{"name":"neededRole","type":"bytes32","internalType":"bytes32"}]},{"type":"error","name":"AlreadyClaimed","inputs":[]},{"type":"error","name":"AlreadySet","inputs":[]},{"type":"error","name":"CheckpointUnorderedInsertion","inputs":[]},{"type":"error","name":"DelegatorAlreadyInitialized","inputs":[]},{"type":"error","name":"DepositLimitReached","inputs":[]},{"type":"error","name":"InsufficientClaim","inputs":[]},{"type":"error","name":"InsufficientDeposit","inputs":[]},{"type":"error","name":"InsufficientExitWindow","inputs":[]},{"type":"error","name":"InsufficientRedemption","inputs":[]},{"type":"error","name":"InsufficientWithdrawal","inputs":[]},{"type":"error","name":"InvalidAccount","inputs":[]},{"type":"error","name":"InvalidCaptureEpoch","inputs":[]},{"type":"error","name":"InvalidClaimer","inputs":[]},{"type":"error","name":"InvalidCollateral","inputs":[]},{"type":"error","name":"InvalidDelegator","inputs":[]},{"type":"error","name":"InvalidEpoch","inputs":[]},{"type":"error","name":"InvalidEpochDuration","inputs":[]},{"type":"error","name":"InvalidEpochDurationSetEpochsDelay","inputs":[]},{"type":"error","name":"InvalidFlashParams","inputs":[]},{"type":"error","name":"InvalidInitialization","inputs":[]},{"type":"error","name":"InvalidLengthEpochs","inputs":[]},{"type":"error","name":"InvalidNewEpochDuration","inputs":[]},{"type":"error","name":"InvalidOnBehalfOf","inputs":[]},{"type":"error","name":"InvalidOrigin","inputs":[]},{"type":"error","name":"InvalidReceiver","inputs":[]},{"type":"error","name":"InvalidRecipient","inputs":[]},{"type":"error","name":"InvalidReturnAmount","inputs":[]},{"type":"error","name":"InvalidSlasher","inputs":[]},{"type":"error","name":"InvalidTimestamp","inputs":[]},{"type":"error","name":"MaxLoanExceeded","inputs":[]},{"type":"error","name":"MissingRoles","inputs":[]},{"type":"error","name":"NewEpochDurationNotReady","inputs":[]},{"type":"error","name":"NoDepositWhitelist","inputs":[]},{"type":"error","name":"NoPreviousEpoch","inputs":[]},{"type":"error","name":"NotDelegator","inputs":[]},{"type":"error","name":"NotInitializing","inputs":[]},{"type":"error","name":"NotSlasher","inputs":[]},{"type":"error","name":"NotWhitelistedDepositor","inputs":[]},{"type":"error","name":"ReentrancyGuardReentrantCall","inputs":[]},{"type":"error","name":"SafeCastOverflowedUintDowncast","inputs":[{"name":"bits","type":"uint8","internalType":"uint8"},{"name":"value","type":"uint256","internalType":"uint256"}]},{"type":"error","name":"SafeERC20FailedOperation","inputs":[{"name":"token","type":"address","internalType":"address"}]},{"type":"error","name":"SlasherAlreadyInitialized","inputs":[]},{"type":"error","name":"TooLowFlashLoanValue","inputs":[]},{"type":"error","name":"TooMuchRedeem","inputs":[]},{"type":"error","name":"TooMuchWithdraw","inputs":[]},{"type":"error","name":"UnsupportedToken","inputs":[]}],"bytecode":{"object":"0x60c034608157601f614c3638819003918201601f19168301916001600160401b038311848410176085578084926040948552833981010312608157604b60206045836099565b92016099565b9060805260a052604051614b8990816100ad82396080518181816113cf0152611870015260a051818181611d6901526122860152f35b5f80fd5b634e487b7160e01b5f52604160045260245ffd5b51906001600160a01b038216820360815756fe60806040526004361015610011575f80fd5b5f3560e01c806301ffc9a7146104e45780631415519b146104df5780631b66c9e1146104da5780631e9a6950146104d5578063248a9ca3146104d057806327810b6e146104cb578063281f5752146104c65780632d73c69c146104c15780632f2ff15d146104bc57806331d9736c146104b757806336568abe146104b2578063392e53cd146104ad5780634105a7dd146104a857806346361671146104a357806347e7ef241461049e57806348d3b775146104995780634ff0876a1461049457806350861adc1461048f57806350f220681461048a57806352741a40146104855780635346e34f1461048057806359f769a91461047b5780635cc07076146104765780635cffe9de14610471578063613255ab1461046c57806361819dd81461046757806361a8c8c414610462578063653b04cd1461045d57806365d61c6c146104585780636da3e06d146104535780636ec1e3f81461044e5780637278e31c1461044957806373790ab314610444578063766718081461043f578063794b15b71461043a5780637953b33b146104355780637c04c80a14610430578063810da75d1461042b57806383cd9cc31461042657806383f46c2c14610421578063859b93441461041c57806387df0788146104175780638b0e9f3f1461041257806391d148541461040d5780639d66201b146104085780639f86fd8514610403578063a1b12202146103fe578063a217fddf146103f9578063a21a1df9146103f4578063a2861466146103ef578063a3b54172146103ea578063a5d03223146103e5578063a66b3a73146103e0578063a8b24f9a146103db578063aa9354a3146103d6578063aabc2496146103d1578063aad3ec96146103cc578063afba70ad146103c7578063b1344271146103c2578063bc46f722146103bd578063bd49c35f146103b8578063bdc8144b146103b3578063bfefcd7b146103ae578063c31e8dd7146103a9578063c642b050146103a4578063ce9b79301461039f578063d547741f1461039a578063d626811b14610395578063d8dfeb4514610390578063d9d98ce41461038b578063db38871514610386578063e945da7f14610381578063ecc98f051461037c578063ecf7085814610377578063efb559d614610372578063f3fef3a31461036d5763f5e7ee0f14610368575f80fd5b612a52565b6129ac565b612861565b612844565b612826565b612809565b6127cf565b6127a4565b612779565b6126b9565b61266d565b612645565b61262b565b6125bd565b6125a3565b6124e3565b6124c9565b61248f565b612467565b61243d565b61237c565b6121d3565b6121b5565b61218d565b612153565b61210d565b6120c0565b611fdb565b611fa1565b611f87565b611f63565b611e96565b611e5c565b611dfe565b611d98565b611d54565b611cc8565b6119b6565b61180b565b6117f2565b61178c565b61176e565b61172e565b611710565b6116de565b611423565b6113fe565b6113ba565b611395565b61135b565b611335565b6112fb565b6112d4565b61101a565b610fc3565b610f9c565b610f15565b610e14565b610dfb565b610d95565b610d7b565b610d5a565b610aaa565b610a90565b6109f5565b6109b0565b610965565b61092b565b6108dd565b61086d565b6106ff565b6106d7565b61069e565b6105c3565b610578565b61053e565b3461053a57602036600319011261053a5760043563ffffffff60e01b811680910361053a57602090637965db0b60e01b8114908115610529575b506040519015158152f35b6301ffc9a760e01b1490505f61051e565b5f80fd5b3461053a575f36600319011261053a5760206040517fc6aaadd7371d5e8f9ed6849dd66a66573a3ba37167d03f4352c9ba5693678fac8152f35b3461053a575f36600319011261053a5760206040517f9c56d972d63cbb4195b3c1484691dfc220fa96a4c47e7b6613bd82a022029e068152f35b6001600160a01b0381160361053a57565b3461053a57604036600319011261053a576004356105e0816105b2565b602435906105ec6130fe565b6001600160a01b0381161561068d57335f908152600e6020526040902061061790613f40565b613f40565b821161067b57610637610628613e58565b610630613ecc565b9084613f93565b918215610666578261064892613140565b9061065161312d565b604080519182526020820192909252f35b0390f35b60405160016245ddc760e11b03198152600490fd5b604051632418411f60e11b8152600490fd5b6040516208978560e71b8152600490fd5b3461053a57602036600319011261053a576004355f525f80516020614b148339815191526020526020600160405f200154604051908152f35b3461053a575f36600319011261053a576001546040516001600160a01b039091168152602090f35b3461053a575f36600319011261053a5761072061071b42613e26565b612ce4565b8015610751575f19810190811161074c5761073c602091612f2c565b65ffffffffffff60405191168152f35b612a7c565b604051639fa56a5b60e01b8152600490fd5b6024359065ffffffffffff8216820361053a57565b6004359065ffffffffffff8216820361053a57565b634e487b7160e01b5f52604160045260245ffd5b606081019081106001600160401b038211176107bc57604052565b61078d565b604081019081106001600160401b038211176107bc57604052565b90601f801991011681019081106001600160401b038211176107bc57604052565b6040519061080a826107c1565b565b6001600160401b0381116107bc57601f01601f191660200190565b81601f8201121561053a5780359061083e8261080c565b9261084c60405194856107dc565b8284526020838301011161053a57815f926020809301838601378301015290565b3461053a57606036600319011261053a5760043561088a816105b2565b610892610763565b90604435906001600160401b03821161053a576020926108b96108d5933690600401610827565b6001600160a01b039092165f908152600e85526040902061347a565b604051908152f35b3461053a57604036600319011261053a57610929602435600435610900826105b2565b805f525f80516020614b14833981519152602052610924600160405f2001546136ff565b61372b565b005b3461053a575f36600319011261053a5760206040517f5295aaaa27fdd659293eafacbfafbc634c1b96298957e87de5f59308cdbfdad18152f35b3461053a57604036600319011261053a57602435610982816105b2565b336001600160a01b0382160361099e57610929906004356137c6565b60405163334bd91960e11b8152600490fd5b3461053a575f36600319011261053a5760ff60025460a01c16806109dc575b6020906040519015158152f35b5060035460a01c60ff166109cf565b8015150361053a57565b3461053a57602036600319011261053a57600435610a12816109eb565b610a1a6130fe565b610a22613546565b5f54901515908160ff8216151514610a7e5760ff191660ff8216175f556040519081527f3e12b7b36c75ac9609a3f58609b331210428e1a85909132638955ba0301eec3390602090a160015f80516020614b3483398151915255005b60405163a741a04560e01b8152600490fd5b3461053a575f36600319011261053a57602061073c612acc565b3461053a5760408060031936011261053a576004803591610aca836105b2565b610ad26130fe565b6001600160a01b0391838316908115610d4c575f5460ff811680610d33575b610d245783516370a0823160e01b808252308483019081529096602093909160109190911c82169084908490819083010381845afa928315610cfc575f93610d01575b50610b46906024359030903390613858565b5f5486519788523085890190815290979184918391908290819060200103918b60101c165afa908115610cfc57610b85935f92610ccf575b5050612a9e565b938415610cc05760081c60ff1680610cab575b610c9d57509061066291610c49610bad613e58565b95610bf6610bb9613ecc565b610be1610bc78a838b613f93565b99610bdb8a610bd542613e26565b92612b34565b906139ac565b5050610bf089610bd542613e26565b90613a8c565b50506001600160a01b0381165f908152600e6020526040902090610c4388610c3e610612610c2342613e26565b6001600160a01b039095165f908152600e6020526040902090565b612b34565b91613b68565b505081518481526020810186905233907fdcbc1c05240f31ff3ad067ef1ee35ce4997762752e3a095284754544f4c709d790604090a3610c8761312d565b5191825260208201929092529081906040820190565b8251632484557960e01b8152fd5b50610cb884610c3e613e58565b815410610b98565b50825163070f6eed60e11b8152fd5b610cee9250803d10610cf5575b610ce681836107dc565b810190612b0c565b5f80610b7e565b503d610cdc565b612b1b565b610b46919350610d1d90853d8711610cf557610ce681836107dc565b9290610b34565b5082516304f63b8560e01b8152fd5b50335f9081526005602052604090205460ff1615610af1565b8251630d534ce360e11b8152fd5b3461053a575f36600319011261053a57602060ff5f54166040519015158152f35b3461053a575f36600319011261053a57602061073c612b41565b3461053a575f36600319011261053a57602060ff60025460a01c166040519015158152f35b90604060031983011261053a5760043565ffffffffffff8116810361053a5791602435906001600160401b03821161053a57610df891600401610827565b90565b3461053a5760206108d5610e0e36610dba565b906132ef565b3461053a57602036600319011261053a57600435610e31816105b2565b610e396130fe565b335f9081527f9aeaa4f1a9be826e331dea6728ca206744e0a34dccbc1d3da4a68acb8abf036360205260409020547f5295aaaa27fdd659293eafacbfafbc634c1b96298957e87de5f59308cdbfdad19060ff1615610ef757506016546001600160a01b039182169181168214610a7e576001600160a01b03191681176016556040519081527f08aacfdb137d688b12f67ef81735dede1ae18b0664f6b347ee9ef00ae94ff91990602090a160015f80516020614b3483398151915255005b6044906040519063e2517d3f60e01b82523360048301526024820152fd5b3461053a57602036600319011261053a57600435610f32816109eb565b610f3a6130fe565b610f426135a3565b5f54901515908160ff8260081c16151514610a7e5761ff001916600882901b61ff0016175f556040519081527ffa7a25a0b611d4ba3c0ea990e90dc23d484a5dd7a1be4733fef2946ba74530c690602090a161092961312d565b3461053a57602036600319011261053a5760206108d5600435610fbe816105b2565b612b87565b3461053a57602036600319011261053a576004355f526006602052602060405f2054604051908152f35b9181601f8401121561053a578235916001600160401b03831161053a576020838186019501011161053a57565b3461053a57608036600319011261053a5760048035611038816105b2565b602435611044816105b2565b604435906064356001600160401b03811161053a576110669036908601610fed565b9190926110716130fe565b80156112c35761108082612c20565b81116112b25781611094826110f594613044565b5f549092906110b69060101c6001600160a01b03165b6001600160a01b031690565b604080516370a0823160e01b808252308c8301908152929a939991986020986001600160a01b03808d16989097939693959094918b918d918291840190565b03818b5afa9a8b15610cfc578c978f948f925f9e61126d575b50928b611142936111298f98968b9a98958b9116809e613c26565b516323e30c8b60e01b8152978896879633908801612bd6565b03815f885af18015610cfc577f439148f0bbc682ca079e46d6e2c2f0c1e3b820f1a291b069d8882abf8cf18dd9915f91611250575b500361124057859261118c8661119593612b34565b9030908a613858565b875190815230898201908152909283918290819060200103915afa928315610cfc575f93611221575b50506111ca8383612a9e565b1061121157906111d991612a9e565b806111f2575b826111e861312d565b5160018152602090f35b60165461120a92906001600160a01b03165b90613c26565b81806111df565b50505051637f28d71160e01b8152fd5b611238929350803d10610cf557610ce681836107dc565b905f806111be565b8851631e4ec46b60e01b81528a90fd5b6112679150883d8a11610cf557610ce681836107dc565b5f611177565b889e5088979592938e9795928e92893d8b116112ab575b61128e81836107dc565b810161129991612b0c565b9f509295979e9f50939295975061110e565b503d611284565b60405163347177ad60e21b81528690fd5b6040516391ba94bf60e01b81528690fd5b3461053a57602036600319011261053a5760206108d56004356112f6816105b2565b612c20565b3461053a575f36600319011261053a5760206040517f591f6a0113ada8aff67efadec8ae2fa585cb4ebf4e1f8fc1205ffbeff98d00ec8152f35b3461053a575f36600319011261053a57602061073c61135661071b42613e26565b612f2c565b3461053a575f36600319011261053a5760206040517f439148f0bbc682ca079e46d6e2c2f0c1e3b820f1a291b069d8882abf8cf18dd98152f35b3461053a575f36600319011261053a57602060ff60165460a01c166040519015158152f35b3461053a575f36600319011261053a576040517f00000000000000000000000000000000000000000000000000000000000000006001600160a01b03168152602090f35b3461053a575f36600319011261053a57602060ff60035460a01c166040519015158152f35b3461053a57604036600319011261053a5760043561143f610763565b6114476130fe565b60035461145c906001600160a01b03166110aa565b33036116cc5761146e61071b42613e26565b9061147881612ce4565b90821515806116bb575b80156116b2575b6116a057610662937ff9d090c096f71cd1659861a9ce5b6f384bceb4e2fa4e4a19edf6489a9b8d56c7926114bb613e58565b946114d66114c882612b26565b5f52600660205260405f2090565b54908281036115ba57506114ea8187612b34565b838118818510028118968780611573575b50505050505b83611540575b6040805191825265ffffffffffff929092166020820152908101839052606090a161153061312d565b6040519081529081906020820190565b5f5461156e90859061155d9060101c6001600160a01b03166110aa565b6001546001600160a01b0316611204565b611507565b6115af93610b7e83610bdb6115996115926114c8986115a99888613cfd565b8096612a9e565b946115a342613e26565b92612a9e565b92612b26565b555f808080876114fb565b91506115ce825f52600660205260405f2090565b54906115de81610c3e848a612b34565b9084821882861002821897886115f9575b5050505050611501565b61166e93836116219361162e8c61162961161761165f998884613cfd565b9788958584613cfd565b948592612a9e565b612a9e565b93848410611679575b610b7e90610bdb61164d9596976115a342613e26565b6116596114c887612b26565b55612a9e565b915f52600660205260405f2090565b555f808080806115ef565b91611695610b7e9161168f8661164d9798612a9e565b90612b34565b859450929050611637565b604051635e18d2a560e01b8152600490fd5b50828211611489565b506116c583612a90565b8210611482565b60405163dabc4ad960e01b8152600490fd5b3461053a575f36600319011261053a576116fa61071b42613e26565b6001810180911161074c5761073c602091612f2c565b3461053a575f36600319011261053a5760206108d561071b42613e26565b3461053a57602036600319011261053a5760043561174b816105b2565b60018060a01b03165f526005602052602060ff60405f2054166040519015158152f35b3461053a57602036600319011261053a5760206108d561071b610778565b3461053a57604036600319011261053a576004356117a9816105b2565b6024356001600160401b0380821161053a573660238301121561053a57816004013590811161053a573660248260051b8401011161053a57610662926024611530930190612dcf565b3461053a5760206108d561180536610dba565b906133c5565b3461053a5760208060031936011261053a57600480359061182b826105b2565b6118336130fe565b60025460a01c60ff166119a7576040516302910f8b60e31b81526001600160a01b03838116838301908152909491908290829081906020010381887f0000000000000000000000000000000000000000000000000000000000000000165afa908115610cfc575f9161197a575b501561196a5760405163fbfa77cf60e01b8152838516949082818581895afa928315610cfc575f9361193b575b50503091160361192c5750600280546001600160a01b03929092166001600160a81b031990921691909117600160a01b1790557fdb2160616f776a37b24808115554e79439bf26cccbbd4438190cc6d28e80ecd15f80a261092961312d565b60405163b9f0f17160e01b8152fd5b61195b929350803d10611963575b61195381836107dc565b810190612f04565b905f806118cd565b503d611949565b506040516324e5af8d60e21b8152fd5b61199a9150823d84116119a0575b61199281836107dc565b810190612eef565b5f6118a0565b503d611988565b604051631380833b60e01b8152fd5b3461053a57604036600319011261053a576119cf610778565b6024356119da6130fe565b6119e26135fa565b60038110611cb65765ffffffffffff9182611a0860135465ffffffffffff9060601c1690565b168015159081611ca0575b50611b7d575b60015460d01c8316818416808211611b6b57601354611a499060601c65ffffffffffff165b65ffffffffffff1690565b159182611b61575b505080611b56575b610a7e57611b2b611b02611afd7f1b3efab1b836932ce515e4748ca76335809d1d202c92ee86d594e43ce0039e8395611aa8611aa3611a9a61071b42613e26565b600f5490612b34565b601455565b6013805465ffffffffffff60901b1916609087901b65ffffffffffff60901b16179055611ada61135661071b42613e26565b90611af6600f54611af0611a3e60015460d01c90565b90612f19565b9116612b34565b613e26565b6013805465ffffffffffff60601b191660609290921b65ffffffffffff60601b16919091179055565b611b3482601055565b6040805165ffffffffffff9290921682526020820192909252a161092961312d565b5081600f5414611a59565b1490505f80611a51565b6040516359dcfd5560e11b8152600490fd5b611b88601154601255565b611bc2611b9760015460d01c90565b6bffffffffffff0000000000006013549160301b16906bffffffffffff000000000000191617601355565b600154611bee9060a01c65ffffffffffff1665ffffffffffff1665ffffffffffff196013541617601355565b611bf9601454601155565b601354611c309060901c65ffffffffffff16600180546001600160d01b031660d09290921b6001600160d01b031916919091179055565b601354611c6b9060601c65ffffffffffff166001805465ffffffffffff60a01b191660a09290921b65ffffffffffff60a01b16919091179055565b611c76601054600f55565b611c7f5f601455565b601380546bffffffffffffffffffffffff60601b191690555f601055611a19565b9050611cae611a3e42613e26565b10155f611a13565b6040516317a509b960e31b8152600490fd5b3461053a57602036600319011261053a57600435611ce5816109eb565b611ced6130fe565b611cf5613651565b601654901515908160ff8260a01c16151514610a7e5760ff60a01b191660a082901b60ff60a01b16176016556040519081527e4ea26b9681ba216ba307c9c0ee4edcef296c9af6506b16ad458a51431745d990602090a161092961312d565b3461053a575f36600319011261053a576040517f00000000000000000000000000000000000000000000000000000000000000006001600160a01b03168152602090f35b3461053a575f36600319011261053a57611db461071b42613e26565b611dbc613e58565b90805f52600660205260405f2054820180921161074c576001810180911161074c575f52600660205260405f2054810180911161074c57604051908152602090f35b3461053a57604036600319011261053a57602060ff611e50602435611e22816105b2565b6004355f525f80516020614b14833981519152845260405f209060018060a01b03165f5260205260405f2090565b54166040519015158152f35b3461053a57602036600319011261053a57600435611e79816105b2565b60018060a01b03165f52600e60205260206108d560405f20613f40565b3461053a5760408060031936011261053a57600435611eb4816105b2565b6024356001600160401b03811161053a575f80611f5293611edb6080943690600401610fed565b908188519283928337810184815203915af43d15611f5a5760203d611eff8161080c565b90611f0c875192836107dc565b81523d5f8383013e5b8551958693151583850152808401528051918291826060860152018484015e5f838284010152601f801991011681010360608101845201826107dc565b805190602001fd5b60206060611f15565b3461053a575f36600319011261053a57602060ff5f5460081c166040519015158152f35b3461053a575f36600319011261053a5760206040515f8152f35b3461053a575f36600319011261053a5760206040517f4a634bc14d77baf979756509ef4298c6f6318af357828612545267ee2eb792338152f35b3461053a57604036600319011261053a57600435611ff8816105b2565b602435612004816109eb565b61200c6130fe565b6120146136a8565b6001600160a01b0382169182156120ae575f8381526005602052604090205460ff16151582151514610a7e576001600160a01b03165f9081526005602052604090207ff991b1ecfb5115cbb36a2b2e2240c058406d2acc2fcc6e9e2dc99d845ff70a62916120a391612091908260ff801983541691151516179055565b60405190151581529081906020820190565b0390a261092961312d565b604051630da30f6560e31b8152600490fd5b3461053a57604036600319011261053a5760206121046024356120e2816105b2565b6004355f526008835260405f209060018060a01b03165f5260205260405f2090565b54604051908152f35b3461053a57604036600319011261053a57602060ff611e50602435612131816105b2565b6004355f526009845260405f209060018060a01b03165f5260205260405f2090565b3461053a575f36600319011261053a5760206040517fc9feed28b4b1a1d11c6791da7bb7f6b8d33e831a4992a9383dead1ec2c82c35a8152f35b3461053a575f36600319011261053a576016546040516001600160a01b039091168152602090f35b3461053a57602036600319011261053a57602061073c600435612f2c565b3461053a5760208060031936011261053a5760048035906121f3826105b2565b6121fb6130fe565b60035460a01c60ff1661236d576001600160a01b0382811693908461225b575b6003805460ff60a01b1916600160a01b179055847fe7e4c932e03abddfe20f83af42c33627e816115c7ec2b168441f65dc14bfc3ba5f80a261092961312d565b6040516302910f8b60e31b81526001600160a01b0385168482019081528390829081906020010381857f0000000000000000000000000000000000000000000000000000000000000000165afa908115610cfc575f91612350575b501561233f5760405163fbfa77cf60e01b815282818581895afa928315610cfc575f93612320575b5050309116036123115750600380546001600160a01b0319166001600160a01b039092169190911790555f80808061221b565b604051633f3e089160e21b8152fd5b612337929350803d106119635761195381836107dc565b905f806122de565b60405163dabc4ad960e01b81528390fd5b6123679150833d85116119a05761199281836107dc565b5f6122b6565b60405163703fe2e560e01b8152fd5b3461053a57604036600319011261053a57600435612399816105b2565b602435906123a56130fe565b6001600160a01b039181831690811561242b576123d6610662946123c883613d8a565b9485915f5460101c16613c26565b604080519182526020820184905233917f865ca08d59f5cb456e85cd2f7ef63664ea4f73327414e9d8152c4158b0e946459190a360015f80516020614b34833981519152556040519081529081906020820190565b604051634e46966960e11b8152600490fd5b3461053a57602036600319011261053a576004355f526007602052602060405f2054604051908152f35b3461053a575f36600319011261053a576003546040516001600160a01b039091168152602090f35b3461053a575f36600319011261053a5760206040517fc9078c78bcaac2be1c77c160c539a489be2b72939771b1a6302fed3e2150c7458152f35b3461053a575f36600319011261053a5760206108d5613e58565b3461053a57602036600319011261053a576004356124ff6130fe565b335f9081527f2d4ccbfe9f7672a6f2537c1e5bce6adacb73706879154bbab6ce096012d6721660205260409020547f4a634bc14d77baf979756509ef4298c6f6318af357828612545267ee2eb792339060ff1615610ef757508060045414610a7e576020817f854df3eb95564502c8bc871ebdd15310ee26270f955f6c6bd8cea68e75045bc092600455604051908152a160015f80516020614b3483398151915255005b3461053a575f36600319011261053a5760206108d5613ecc565b3461053a57602036600319011261053a576004356125da816105b2565b6125e661071b42613e26565b6125ef82612b87565b916125fa81836130a0565b830180931161074c576001820180921161074c57612617916130a0565b810180911161074c57602090604051908152f35b3461053a575f36600319011261053a5760206108d5613004565b3461053a575f36600319011261053a576002546040516001600160a01b039091168152602090f35b3461053a57604036600319011261053a57610929602435600435612690826105b2565b805f525f80516020614b148339815191526020526126b4600160405f2001546136ff565b6137c6565b3461053a57602036600319011261053a576004356126d56130fe565b335f9081527f82a1dc868a49801aa31c5dd393dc0b9005735300cdcd4bbc1af68215effcd6f860205260409020547fc9078c78bcaac2be1c77c160c539a489be2b72939771b1a6302fed3e2150c7459060ff1615610ef757508060155414610a7e576020817f85370e46fb038a73f13e1c280ffc745e71ff72b4ea57b15c6eca3749d73c0cb892601555604051908152a160015f80516020614b3483398151915255005b3461053a575f36600319011261053a575f5460405160109190911c6001600160a01b03168152602090f35b3461053a57604036600319011261053a5760206108d56004356127c6816105b2565b60243590613044565b3461053a575f36600319011261053a5760206040517fbae4ee3de6c709ff9a002e774c5b78cb381560b219213c88ae0f1e207c03c0238152f35b3461053a575f36600319011261053a576020601554604051908152f35b3461053a575f36600319011261053a576020604051633b9aca008152f35b3461053a575f36600319011261053a576020600454604051908152f35b3461053a57606036600319011261053a5760043561287e816105b2565b612886610763565b6001600160401b03919060443583811161053a576128a8903690600401610fed565b909260409384516128b8816107a1565b60608152606060208201526060868201529280612917575b6106628661290887876129026128e98984845191612aab565b92856128f96020850151836133c5565b930151906132ef565b91613f93565b90519081529081906020820190565b810193925060208185031261053a5780359086821161053a57019260608482031261053a57845195612948876107a1565b843581811161053a578261295d918701610827565b8752602085013581811161053a5782612977918701610827565b60208801528585013590811161053a57610662966129a0612902936128e9936129089801610827565b878201529394506128d0565b3461053a57604036600319011261053a576004356129c9816105b2565b6024356129d46130fe565b6001600160a01b0382161561068d578015612a4057612a036129f4613ecc565b6129fc613e58565b90836143d6565b335f908152600e60205260409020909290612a1d90613f40565b8311612a2e57610648918391613140565b6040516321727a3760e11b8152600490fd5b604051636c6c627d60e11b8152600490fd5b3461053a57604036600319011261053a5760206108d5602435612a74816105b2565b6004356130a0565b634e487b7160e01b5f52601160045260245ffd5b5f1981019190821161074c57565b9190820391821161074c57565b6001600160a01b03165f908152600e60205260409020610df892919061347a565b65ffffffffffff8060135460601c169081158015612af9575b612aed575090565b905060015460a01c1690565b508181612b0542613e26565b1610612ae5565b9081602091031261053a575190565b6040513d5f823e3d90fd5b906001820180921161074c57565b9190820180921161074c57565b60135465ffffffffffff90818160601c168015908115612b73575b50612b685760901c1690565b505060015460d01c90565b905082612b7f42613e26565b16105f612b5c565b6001600160a01b03165f908152600e60205260409020612ba690613f40565b612bae613e58565b612bb6613ecc565b906001810180911161074c576001820180921161074c57610df892613cfd565b94919286949160c0979460018060a01b0380921688521660208701526040860152606085015260a060808501528160a0850152848401375f828201840152601f01601f1916010190565b601654612c319060a01c60ff161590565b612c97575f5460101c6001600160a01b0390811691168103612c97576040516370a0823160e01b815230600482015290602090829060249082905afa908115610cfc575f91612c7e575090565b610df8915060203d602011610cf557610ce681836107dc565b505f90565b65ffffffffffff918216908216039190821161074c57565b634e487b7160e01b5f52601260045260245ffd5b9065ffffffffffff809116918215612cdf57160490565b612cb4565b60015465ffffffffffff808316929160a081901c821680851015612d5c5750506013549281841690818015918215612d52575b5050612d4057610df89361168f92612d35611a3e9360125496612c9c565b9160301c1690612cc8565b60405163b7d0949760e01b8152600490fd5b109050815f612d17565b909160135490808260601c1695868015918215612dc5575b505015612da0575050610df8935061168f91612d96611a3e9260115495612c9c565b9060d01c90612cc8565b61168f9350611a3e9250612dba610df89660145496612c9c565b9160901c1690612cc8565b109050865f612d74565b90612dd86130fe565b5f926001600160a01b03831692831561242b578115612e82575f5b828110612e6057505f547f326b6aff1cd2fb1c8234de4f9dcfb9047c5c36eb9ef2eb34af5121e969a75d279286929091612e43918491612e3e9060101c6001600160a01b03166110aa565b613c26565b612e54604051928392339684612ebd565b0390a39061080a61312d565b94612e7b60019161168f612e75898789612ea8565b35613d8a565b9501612df3565b60405163edf3b93360e01b8152600490fd5b634e487b7160e01b5f52603260045260245ffd5b9190811015612eb85760051b0190565b612e94565b604080825281018390529392916001600160fb1b03811161053a5760209160609160051b809183880137850101930152565b9081602091031261053a5751610df8816109eb565b9081602091031261053a5751610df8816105b2565b8181029291811591840414171561074c57565b601254808210612ff25760115480831015612f6d5750611afd90610df892611af6612f616013549365ffffffffffff93612a9e565b828460301c1690612f19565b905060145480158015612fe9575b15612fb35750610df89165ffffffffffff612fa9612f9f611afd9460015494612a9e565b8360d01c90612f19565b9160a01c16612b34565b611afd9150610df892612fdf612fd36013549365ffffffffffff93612a9e565b828460901c1690612f19565b9160601c16612b34565b50808310612f7b565b60405163d5b25b6360e01b8152600490fd5b65ffffffffffff8060135460601c16801591821561302f575b50506130295760105490565b600f5490565b90915061303b42613e26565b16105f8061301d565b5f546001600160a01b039160109190911c82169082160361308e576016541661306c57505f90565b633b9aca0060155461307e8184613c7f565b92091515810180911161074c5790565b60405163350b944160e11b8152600490fd5b906130c690825f52600860205260405f209060018060a01b03165f5260205260405f2090565b54905f52600660205260405f2054600760205260405f2054906001810180911161074c576001820180921161074c57610df892613cfd565b5f80516020614b34833981519152600281541461311b5760029055565b604051633ee5aeb560e01b8152600490fd5b60015f80516020614b3483398151915255565b335f908152600e602052604090209392919061315b42613e26565b335f908152600e6020526040902061317290613f40565b9184830392831161074c576131ad7febff2602b3f468259e1e99f613fed6691f3a6526effe6ef3e768ba7ae7a36c4f93859361323c99613b68565b50506131c76131bb42613e26565b610bf087611629613ecc565b50506131e16131d542613e26565b610bdb84611629613e58565b505061328a816132756131fe6131f961071b42613e26565b612b26565b613254613213825f52600660205260405f2090565b54613226835f52600760205260405f2090565b5461323282828b613f93565b9d8e998a93612b34565b61324e855f52600660205260405f2090565b55612b34565b613266825f52600760205260405f2090565b555f52600860205260405f2090565b9060018060a01b03165f5260205260405f2090565b613295838254612b34565b9055604080519485526020850195909552938301526001600160a01b03909216913391606090a3565b9081602091031261053a575163ffffffff8116810361053a5790565b90600163ffffffff8093160191821161074c57565b908051156133bb578060208061330a935183010191016132be565b61331381614204565b90613324825165ffffffffffff1690565b9065ffffffffffff80851692168281146133af578211918261335a575b50506133515750610df890613fb4565b60209150015190565b909150613368600a54612a90565b63ffffffff831614918215613381575b50505f80613341565b6133a791925061339b613396611a3e926132da565b614204565b5165ffffffffffff1690565b115f80613378565b50505060209150015190565b50610df890613fb4565b9080511561347057806020806133e0935183010191016132be565b6133e98161428e565b906133fa825165ffffffffffff1690565b9065ffffffffffff80851692168281146133af5782119182613427575b50506133515750610df89061407b565b909150613435600c54612a90565b63ffffffff83161491821561344e575b50505f80613417565b61346891925061339b613463611a3e926132da565b61428e565b115f80613445565b50610df89061407b565b9180511561353c5780602080613495935183010191016132be565b916134a0838261430e565b926134b1845165ffffffffffff1690565b9065ffffffffffff808516921682811461353057821191826134e7575b50506134de57610df8925061413b565b50506020015190565b9091506134f48354612a90565b63ffffffff83161491821561350d575b50505f806134ce565b61352891925061339b613522611a3e926132da565b8561430e565b115f80613504565b50505050506020015190565b50610df89161413b565b335f9081527f03b26b53c87faa1058f30bb5d2fee64f717719a0d9b7e4f4df027aa5e9b6ed69602052604090207fbae4ee3de6c709ff9a002e774c5b78cb381560b219213c88ae0f1e207c03c0239060ff905b541615610ef75750565b335f9081527fe41986b390c4ce6791b87f7423b5fab7a81a0e6d89660b6264f697d008b2243a602052604090207fc6aaadd7371d5e8f9ed6849dd66a66573a3ba37167d03f4352c9ba5693678fac9060ff90613599565b335f9081527f99e47f2907af87dbb5c62e22bd8ea822f5011dfd1e243469ce26ebebf3ab93e3602052604090207f591f6a0113ada8aff67efadec8ae2fa585cb4ebf4e1f8fc1205ffbeff98d00ec9060ff90613599565b335f9081527f665296150f4083bfe5a58682f99690b24ea27a3f56243679fa9797c6a16217aa602052604090207fc9feed28b4b1a1d11c6791da7bb7f6b8d33e831a4992a9383dead1ec2c82c35a9060ff90613599565b335f9081527f0287ab4cb376ea253d7b2ce0c2cbf458f7deae9458470d74afdfbbee484e9540602052604090207f9c56d972d63cbb4195b3c1484691dfc220fa96a4c47e7b6613bd82a022029e069060ff90613599565b5f8181525f80516020614b1483398151915260209081526040808320338452909152902060ff90613599565b5f8181525f80516020614b14833981519152602081815260408084206001600160a01b03871685529091529091205460ff166137bf575f828152602091825260408082206001600160a01b038616835290925220805460ff1916600117905533916001600160a01b0316907f2f8788117e7eff1d82e926ec794901d17c78024a50270940304540a733656f0d5f80a4600190565b5050505f90565b5f8181525f80516020614b14833981519152602081815260408084206001600160a01b03871685529091529091205460ff16156137bf575f828152602091825260408082206001600160a01b038616835290925220805460ff1916905533916001600160a01b0316907ff6391f5c32d9c69d2a47ea670b442974b53935d1edc7fd64eb21e047a839171b5f80a4600190565b6040516323b872dd60e01b60208201526001600160a01b03928316602482015292909116604483015260648083019390935291815260a08101918183106001600160401b038411176107bc5761080a9260405261437c565b600b54811015612eb857600b5f525f80516020614af483398151915201905f90565b600d54811015612eb857600d5f525f80516020614ad483398151915201905f90565b8054821015612eb8575f5260205f2001905f90565b600d54600160401b8110156107bc576001810180600d55811015612eb857600d5f525f80516020614ad48339815191520155565b600b54600160401b8110156107bc576001810180600b55811015612eb857600b5f525f80516020614af48339815191520155565b90815491600160401b8310156107bc578261399491600161080a950181556138f4565b90919082549060031b91821b915f19901b1916179055565b919091600d9081548015613a57575b506139c461440f565b509290918154926139d3613e58565b9481613a42575b5015613a1f57505f19820182811161074c5781541115612eb8575f527fd7b6990105719101dabeb77144f2a3385c8033acd3af97e9423a695e81ad1eb4018390559190565b613a33926001600160d01b0316915061460b565b5050613a3e83613909565b9190565b65ffffffffffff83811691161490505f6139da565b600160401b8110156107bc5760018101808455811015612eb8575f908382525f80516020614ad483398151915201555f6139bb565b919091600b9081548015613b33575b50613aa4614464565b50929091815492613ab3613ecc565b9481613b1e575b5015613aff57505f19820182811161074c5781541115612eb8575f527f0175b7a638427703f0dbe7bb9bbf987a2551717b34e79f33b5b1008d1fa01db8018390559190565b613b13926001600160d01b031691506146db565b5050613a3e8361393d565b65ffffffffffff83811691161490505f613aba565b600160401b8110156107bc5760018101808455811015612eb8575f908382525f80516020614af483398151915201555f613a9b565b90929192600182019081548015613bf6575b5084613b85846144b9565b50949092845493613b9583613f40565b9681613be1575b5015613bbe575050505f19810190811161074c576139948591613a3e936138f4565b613a3e949293613bda926001600160d01b03909116919061477a565b5050613971565b65ffffffffffff83811691161490505f613b9c565b600160401b8110156107bc57806001613c1292018455836138f4565b8154905f199060031b1b191690555f613b7a565b60405163a9059cbb60e01b60208201526001600160a01b03909216602483015260448083019390935291815260808101916001600160401b038311828410176107bc5761080a9260405261437c565b8115612cdf570490565b90808202905f1981840990828083109203918083039214613cf057633b9aca009082821115613cde577f88f2cfb83100cb4e69e7c79c58b316e597157d372fb9787e8e47ce423a2e9c6d940990828211900360f71b910360091c170290565b634e487b715f5260116020526024601cfd5b5050633b9aca0091500490565b91818302915f1981850993838086109503948086039514613d7d5784831115613d705790829109815f038216809204600280826003021880830282030280830282030280830282030280830282030280830282030280920290030293600183805f03040190848311900302920304170290565b82156003026011186144f2565b505090610df89250613c75565b90613d9761071b42613e26565b821015612ff25760ff613dc7613db5845f52600960205260405f2090565b335f9081526020919091526040902090565b5416613e1457613dd733836130a0565b918215613e0257613df59061327533915f52600960205260405f2090565b805460ff19166001179055565b6040516366c0bcbf60e11b8152600490fd5b604051630c8d9eab60e31b8152600490fd5b65ffffffffffff90818111613e39571690565b604490604051906306dfcc6560e41b8252603060048301526024820152fd5b600c5480613e9357505f5b6001600160d01b03811615612c9757600d54811015612eb857600d5f525f80516020614ad4833981519152015490565b805f1981011161074c57600c5f527fdf6966c971051c3d54ec59162606531493a51404a002842f56009d7e5cf4a8c6015460301c613e63565b600a5480613f0757505f5b6001600160d01b03811615612c9757600b54811015612eb857600b5f525f80516020614af4833981519152015490565b805f1981011161074c57600a5f527fc65a7bb8d6351c1cf70c95a316cc6a92839c986682d98bc35f958f4883f9d2a7015460301c613ed7565b805480613f7557505f5b6001600160d01b03811615613f6f576001613f6592016138f4565b90549060031b1c90565b50505f90565b5f1990808281011161074c57825f5260205f2001015460301c613f4a565b91906001810180911161074c576001820180921161074c57610df892613cfd565b600a54905f829160058411614022575b613fce935061495f565b80613ff157505f5b6001600160d01b03811615612c9757613f65610df8916138b0565b61401661400061401d92612a90565b600a5f525f80516020614ab48339815191520190565b5460301c90565b613fd6565b919261402d81614834565b810390811161074c57613fce93600a5f5265ffffffffffff80835f80516020614ab4833981519152015416908516105f14614069575091613fc4565b92915061407590612b26565b90613fc4565b600c54905f8291600584116140e2575b61409593506149c8565b806140b857505f5b6001600160d01b03811615612c9757613f65610df8916138d2565b6140166140c76140dd92612a90565b600c5f525f80516020614a948339815191520190565b61409d565b91926140ed81614834565b810390811161074c5761409593600c5f5265ffffffffffff80835f80516020614a94833981519152015416908516105f1461412957509161408b565b92915061413590612b26565b9061408b565b908154905f82916005841161419e575b614156935084614a31565b8061417e57505f905b6001600160d01b03821615613f6f57610df8916001613f6592016138f4565b61401661418d61419892612a90565b835f5260205f200190565b9061415f565b91926141a981614834565b810390811161074c5761415693855f5265ffffffffffff808360205f20015416908516105f146141da57509161414b565b9291506141e690612b26565b9061414b565b604051906141f9826107c1565b5f6020838281520152565b61420c6141ec565b506142156141ec565b50600a54811015612eb857600a5f52602060405191614233836107c1565b5f80516020614ab483398151915201549165ffffffffffff83169283825260301c9182910152600b54811015612eb857600b5f525f80516020614af4833981519152015460405191614284836107c1565b8252602082015290565b6142966141ec565b5061429f6141ec565b50600c54811015612eb857600c5f526020604051916142bd836107c1565b5f80516020614a9483398151915201549165ffffffffffff83169283825260301c9182910152600d54811015612eb857600d5f525f80516020614ad4833981519152015460405191614284836107c1565b906020600161433261435e936143226141ec565b5061432b6141ec565b50856138f4565b509360405194614341866107c1565b549465ffffffffffff86169586825260301c9384910152016138f4565b9054906040519261436e846107c1565b835260031b1c602082015290565b905f602091828151910182855af115612b1b575f513d6143cd57506001600160a01b0381163b155b6143ab5750565b604051635274afe760e01b81526001600160a01b039091166004820152602490fd5b600114156143a4565b91906001810180911161074c576001820180921161074c576143f9828285613cfd565b928215612cdf57091515810180911161074c5790565b600c548061442057505f905f905f90565b805f1981011161074c57600c5f527fdf6966c971051c3d54ec59162606531493a51404a002842f56009d7e5cf4a8c6015460019165ffffffffffff82169160301c90565b600a548061447557505f905f905f90565b805f1981011161074c57600a5f527fc65a7bb8d6351c1cf70c95a316cc6a92839c986682d98bc35f958f4883f9d2a7015460019165ffffffffffff82169160301c90565b8054806144ca5750505f905f905f90565b5f1991818381011161074c575f5260205f2001015460019165ffffffffffff82169160301c90565b634e487b715f526020526024601cfd5b600c5490600160401b8210156107bc576001820180600c55821015612eb857600c5f52805160209091015160301b65ffffffffffff191665ffffffffffff91909116175f80516020614a9483398151915290910155565b600a5490600160401b8210156107bc576001820180600a55821015612eb857600a5f52805160209091015160301b65ffffffffffff191665ffffffffffff91909116175f80516020614ab483398151915290910155565b8054600160401b8110156107bc576145cd916001820181556138f4565b6145f857815160209092015160301b65ffffffffffff191665ffffffffffff92909216919091179055565b634e487b7160e01b5f525f60045260245ffd5b600c5491929180156146b2576140c761462391612a90565b9081549165ffffffffffff908184169183168083116146a0578692036146685761466192509065ffffffffffff82549181199060301b169116179055565b60301c9190565b505061469b906146876146796107fd565b65ffffffffffff9092168252565b6001600160d01b0385166020820152614502565b614661565b604051632520601d60e01b8152600490fd5b506146d6906146c26146796107fd565b6001600160d01b0384166020820152614502565b5f9190565b600a549192918015614756576140006146f391612a90565b9081549165ffffffffffff908184169183168083116146a0578692036147315761466192509065ffffffffffff82549181199060301b169116179055565b505061469b906147426146796107fd565b6001600160d01b0385166020820152614559565b506146d6906147666146796107fd565b6001600160d01b0384166020820152614559565b8054929392801561480f5761479161479c91612a90565b825f5260205f200190565b9182549265ffffffffffff918285169281168084116146a0578793036147db575061466192509065ffffffffffff82549181199060301b169116179055565b91505061469b916147fb6147ed6107fd565b65ffffffffffff9093168352565b6001600160d01b03861660208301526145b0565b50906146d6916148206147ed6107fd565b6001600160d01b03851660208301526145b0565b6001811115610df857600181600160801b81101561494d575b6148f56148eb6148e16148d76148cd6148c361490197600488600160401b6148fc9a1015614940575b640100000000811015614933575b62010000811015614926575b61010081101561491a575b601081101561490e575b1015614906575b60030260011c6148bc818b613c75565b0160011c90565b6148bc818a613c75565b6148bc8189613c75565b6148bc8188613c75565b6148bc8187613c75565b6148bc8186613c75565b8093613c75565b821190565b900390565b60011b6148ac565b811c9160021b916148a5565b60081c91811b9161489b565b60101c9160081b91614890565b60201c9160101b91614884565b60401c9160201b91614876565b50600160401b9050608082901c61484d565b905b82811061496d57505090565b9091808216906001818418811c830180931161074c57600a5f5265ffffffffffff80845f80516020614ab4833981519152015416908616105f146149b5575050915b90614961565b90939250810180911161074c57906149af565b905b8281106149d657505090565b9091808216906001818418811c830180931161074c57600c5f5265ffffffffffff80845f80516020614a94833981519152015416908616105f14614a1e575050915b906149ca565b90939250810180911161074c5790614a18565b91905b838210614a415750505090565b909192808316906001818518811c830180931161074c57855f5265ffffffffffff808460205f20015416908516105f14614a80575050925b9190614a34565b90949350810180911161074c5791614a7956fedf6966c971051c3d54ec59162606531493a51404a002842f56009d7e5cf4a8c7c65a7bb8d6351c1cf70c95a316cc6a92839c986682d98bc35f958f4883f9d2a8d7b6990105719101dabeb77144f2a3385c8033acd3af97e9423a695e81ad1eb50175b7a638427703f0dbe7bb9bbf987a2551717b34e79f33b5b1008d1fa01db902dd7bc7dec4dceedda775e58dd541e08a116c6c53815c0bd028192f7b6268009b779b17422d0df92223018b32b4d1fa46e071723d6817e2486d003becc55f00a2646970667358221220ac823fce5da4c65530b4382f05d5e1620cd63891e7cada7b067ca18bfa5c908464736f6c63430008190033","linkReferences":{}},"methodIdentifiers":{"DEFAULT_ADMIN_ROLE()":"a217fddf","DELEGATOR_FACTORY()":"6da3e06d","DEPOSITOR_WHITELIST_ROLE()":"1b66c9e1","DEPOSIT_LIMIT_SET_ROLE()":"a21a1df9","DEPOSIT_WHITELIST_SET_ROLE()":"db388715","EPOCH_DURATION_SET_ROLE()":"61819dd8","FLASH_FEE_BASE()":"ecc98f05","FLASH_FEE_RATE_SET_ROLE()":"bc46f722","FLASH_FEE_RECEIVER_SET_ROLE()":"31d9736c","FLASH_LOAN_ENABLED_SET_ROLE()":"a66b3a73","IS_DEPOSIT_LIMIT_SET_ROLE()":"1415519b","RETURN_VALUE()":"653b04cd","SLASHER_FACTORY()":"87df0788","activeBalanceOf(address)":"59f769a9","activeBalanceOfAt(address,uint48,bytes)":"efb559d6","activeShares()":"bfefcd7b","activeSharesAt(uint48,bytes)":"50f22068","activeSharesOf(address)":"9d66201b","activeSharesOfAt(address,uint48,bytes)":"2d73c69c","activeStake()":"bd49c35f","activeStakeAt(uint48,bytes)":"810da75d","burner()":"27810b6e","claim(address,uint256)":"aad3ec96","claimBatch(address,uint256[])":"7c04c80a","collateral()":"d8dfeb45","currentEpoch()":"76671808","currentEpochStart()":"61a8c8c4","delegator()":"ce9b7930","deposit(address,uint256)":"47e7ef24","depositLimit()":"ecf70858","depositWhitelist()":"48d3b775","epochAt(uint48)":"7953b33b","epochDuration()":"4ff0876a","epochDurationInit()":"46361671","epochDurationSetEpochsDelay()":"c642b050","epochStart(uint256)":"aa9354a3","flashFee(address,uint256)":"d9d98ce4","flashFeeRate()":"e945da7f","flashFeeReceiver()":"a8b24f9a","flashLoan(address,address,uint256,bytes)":"5cffe9de","flashLoanEnabled()":"65d61c6c","getRoleAdmin(bytes32)":"248a9ca3","grantRole(bytes32,address)":"2f2ff15d","hasRole(bytes32,address)":"91d14854","isDelegatorInitialized()":"50861adc","isDepositLimit()":"a1b12202","isDepositorWhitelisted(address)":"794b15b7","isInitialized()":"392e53cd","isSlasherInitialized()":"6ec1e3f8","isWithdrawalsClaimed(uint256,address)":"a5d03223","maxFlashLoan(address)":"613255ab","nextEpochStart()":"73790ab3","onSlash(uint256,uint48)":"7278e31c","previousEpochStart()":"281f5752","redeem(address,uint256)":"1e9a6950","renounceRole(bytes32,address)":"36568abe","revokeRole(bytes32,address)":"d547741f","setDelegator(address)":"83cd9cc3","setDepositLimit(uint256)":"bdc8144b","setDepositWhitelist(bool)":"4105a7dd","setDepositorWhitelistStatus(address,bool)":"a2861466","setEpochDuration(uint48,uint256)":"83f46c2c","setFlashFeeRate(uint256)":"d626811b","setFlashFeeReceiver(address)":"52741a40","setFlashloanEnabled(bool)":"859b9344","setIsDepositLimit(bool)":"5346e34f","setSlasher(address)":"aabc2496","slashableBalanceOf(address)":"c31e8dd7","slasher()":"b1344271","staticDelegateCall(address,bytes)":"9f86fd85","supportsInterface(bytes4)":"01ffc9a7","totalStake()":"8b0e9f3f","withdraw(address,uint256)":"f3fef3a3","withdrawalShares(uint256)":"afba70ad","withdrawalSharesOf(uint256,address)":"a3b54172","withdrawals(uint256)":"5cc07076","withdrawalsOf(uint256,address)":"f5e7ee0f"},"id":107}