{"abi":[{"type":"constructor","inputs":[{"name":"delegatorFactory","type":"address","internalType":"address"},{"name":"slasherFactory","type":"address","internalType":"address"}],"stateMutability":"nonpayable"},{"type":"function","name":"DEFAULT_ADMIN_ROLE","inputs":[],"outputs":[{"name":"","type":"bytes32","internalType":"bytes32"}],"stateMutability":"view"},{"type":"function","name":"DELEGATOR_FACTORY","inputs":[],"outputs":[{"name":"","type":"address","internalType":"address"}],"stateMutability":"view"},{"type":"function","name":"DEPOSITOR_WHITELIST_ROLE","inputs":[],"outputs":[{"name":"","type":"bytes32","internalType":"bytes32"}],"stateMutability":"view"},{"type":"function","name":"DEPOSIT_LIMIT_SET_ROLE","inputs":[],"outputs":[{"name":"","type":"bytes32","internalType":"bytes32"}],"stateMutability":"view"},{"type":"function","name":"DEPOSIT_WHITELIST_SET_ROLE","inputs":[],"outputs":[{"name":"","type":"bytes32","internalType":"bytes32"}],"stateMutability":"view"},{"type":"function","name":"EPOCH_DURATION_SET_ROLE","inputs":[],"outputs":[{"name":"","type":"bytes32","internalType":"bytes32"}],"stateMutability":"view"},{"type":"function","name":"FLASH_FEE_BASE","inputs":[],"outputs":[{"name":"","type":"uint256","internalType":"uint256"}],"stateMutability":"view"},{"type":"function","name":"FLASH_FEE_RATE_SET_ROLE","inputs":[],"outputs":[{"name":"","type":"bytes32","internalType":"bytes32"}],"stateMutability":"view"},{"type":"function","name":"FLASH_FEE_RECEIVER_SET_ROLE","inputs":[],"outputs":[{"name":"","type":"bytes32","internalType":"bytes32"}],"stateMutability":"view"},{"type":"function","name":"IS_DEPOSIT_LIMIT_SET_ROLE","inputs":[],"outputs":[{"name":"","type":"bytes32","internalType":"bytes32"}],"stateMutability":"view"},{"type":"function","name":"RETURN_VALUE","inputs":[],"outputs":[{"name":"","type":"bytes32","internalType":"bytes32"}],"stateMutability":"view"},{"type":"function","name":"SLASHER_FACTORY","inputs":[],"outputs":[{"name":"","type":"address","internalType":"address"}],"stateMutability":"view"},{"type":"function","name":"_Vault_init","inputs":[],"outputs":[],"stateMutability":"nonpayable"},{"type":"function","name":"activeBalanceOf","inputs":[{"name":"account","type":"address","internalType":"address"}],"outputs":[{"name":"","type":"uint256","internalType":"uint256"}],"stateMutability":"view"},{"type":"function","name":"activeBalanceOfAt","inputs":[{"name":"account","type":"address","internalType":"address"},{"name":"timestamp","type":"uint48","internalType":"uint48"},{"name":"hints","type":"bytes","internalType":"bytes"}],"outputs":[{"name":"","type":"uint256","internalType":"uint256"}],"stateMutability":"view"},{"type":"function","name":"activeShares","inputs":[],"outputs":[{"name":"","type":"uint256","internalType":"uint256"}],"stateMutability":"view"},{"type":"function","name":"activeSharesAt","inputs":[{"name":"timestamp","type":"uint48","internalType":"uint48"},{"name":"hint","type":"bytes","internalType":"bytes"}],"outputs":[{"name":"","type":"uint256","internalType":"uint256"}],"stateMutability":"view"},{"type":"function","name":"activeSharesOf","inputs":[{"name":"account","type":"address","internalType":"address"}],"outputs":[{"name":"","type":"uint256","internalType":"uint256"}],"stateMutability":"view"},{"type":"function","name":"activeSharesOfAt","inputs":[{"name":"account","type":"address","internalType":"address"},{"name":"timestamp","type":"uint48","internalType":"uint48"},{"name":"hint","type":"bytes","internalType":"bytes"}],"outputs":[{"name":"","type":"uint256","internalType":"uint256"}],"stateMutability":"view"},{"type":"function","name":"activeStake","inputs":[],"outputs":[{"name":"","type":"uint256","internalType":"uint256"}],"stateMutability":"view"},{"type":"function","name":"activeStakeAt","inputs":[{"name":"timestamp","type":"uint48","internalType":"uint48"},{"name":"hint","type":"bytes","internalType":"bytes"}],"outputs":[{"name":"","type":"uint256","internalType":"uint256"}],"stateMutability":"view"},{"type":"function","name":"burner","inputs":[],"outputs":[{"name":"","type":"address","internalType":"address"}],"stateMutability":"view"},{"type":"function","name":"claim","inputs":[{"name":"recipient","type":"address","internalType":"address"},{"name":"epoch","type":"uint256","internalType":"uint256"}],"outputs":[{"name":"amount","type":"uint256","internalType":"uint256"}],"stateMutability":"nonpayable"},{"type":"function","name":"claimBatch","inputs":[{"name":"recipient","type":"address","internalType":"address"},{"name":"epochs","type":"uint256[]","internalType":"uint256[]"}],"outputs":[{"name":"amount","type":"uint256","internalType":"uint256"}],"stateMutability":"nonpayable"},{"type":"function","name":"collateral","inputs":[],"outputs":[{"name":"","type":"address","internalType":"address"}],"stateMutability":"view"},{"type":"function","name":"currentEpoch","inputs":[],"outputs":[{"name":"","type":"uint256","internalType":"uint256"}],"stateMutability":"view"},{"type":"function","name":"currentEpochStart","inputs":[],"outputs":[{"name":"","type":"uint48","internalType":"uint48"}],"stateMutability":"view"},{"type":"function","name":"delegator","inputs":[],"outputs":[{"name":"","type":"address","internalType":"address"}],"stateMutability":"view"},{"type":"function","name":"deposit","inputs":[{"name":"onBehalfOf","type":"address","internalType":"address"},{"name":"amount","type":"uint256","internalType":"uint256"}],"outputs":[{"name":"depositedAmount","type":"uint256","internalType":"uint256"},{"name":"mintedShares","type":"uint256","internalType":"uint256"}],"stateMutability":"nonpayable"},{"type":"function","name":"depositLimit","inputs":[],"outputs":[{"name":"","type":"uint256","internalType":"uint256"}],"stateMutability":"view"},{"type":"function","name":"depositWhitelist","inputs":[],"outputs":[{"name":"","type":"bool","internalType":"bool"}],"stateMutability":"view"},{"type":"function","name":"epochAt","inputs":[{"name":"timestamp","type":"uint48","internalType":"uint48"}],"outputs":[{"name":"","type":"uint256","internalType":"uint256"}],"stateMutability":"view"},{"type":"function","name":"epochDuration","inputs":[],"outputs":[{"name":"","type":"uint48","internalType":"uint48"}],"stateMutability":"view"},{"type":"function","name":"epochDurationInit","inputs":[],"outputs":[{"name":"","type":"uint48","internalType":"uint48"}],"stateMutability":"view"},{"type":"function","name":"epochDurationInitInternal","inputs":[],"outputs":[{"name":"","type":"uint48","internalType":"uint48"}],"stateMutability":"view"},{"type":"function","name":"epochDurationInternal","inputs":[],"outputs":[{"name":"","type":"uint48","internalType":"uint48"}],"stateMutability":"view"},{"type":"function","name":"epochDurationSetEpochsDelay","inputs":[],"outputs":[{"name":"","type":"uint256","internalType":"uint256"}],"stateMutability":"view"},{"type":"function","name":"epochDurationSetEpochsDelayInternal","inputs":[],"outputs":[{"name":"","type":"uint256","internalType":"uint256"}],"stateMutability":"view"},{"type":"function","name":"epochInitInternal","inputs":[],"outputs":[{"name":"","type":"uint256","internalType":"uint256"}],"stateMutability":"view"},{"type":"function","name":"epochStart","inputs":[{"name":"epoch","type":"uint256","internalType":"uint256"}],"outputs":[{"name":"","type":"uint48","internalType":"uint48"}],"stateMutability":"view"},{"type":"function","name":"flashFee","inputs":[{"name":"token","type":"address","internalType":"address"},{"name":"value","type":"uint256","internalType":"uint256"}],"outputs":[{"name":"","type":"uint256","internalType":"uint256"}],"stateMutability":"view"},{"type":"function","name":"flashFeeRate","inputs":[],"outputs":[{"name":"","type":"uint256","internalType":"uint256"}],"stateMutability":"view"},{"type":"function","name":"flashFeeReceiver","inputs":[],"outputs":[{"name":"","type":"address","internalType":"address"}],"stateMutability":"view"},{"type":"function","name":"flashLoan","inputs":[{"name":"receiver","type":"address","internalType":"contract IERC3156FlashBorrower"},{"name":"token","type":"address","internalType":"address"},{"name":"value","type":"uint256","internalType":"uint256"},{"name":"data","type":"bytes","internalType":"bytes"}],"outputs":[{"name":"","type":"bool","internalType":"bool"}],"stateMutability":"nonpayable"},{"type":"function","name":"getRoleAdmin","inputs":[{"name":"role","type":"bytes32","internalType":"bytes32"}],"outputs":[{"name":"","type":"bytes32","internalType":"bytes32"}],"stateMutability":"view"},{"type":"function","name":"grantRole","inputs":[{"name":"role","type":"bytes32","internalType":"bytes32"},{"name":"account","type":"address","internalType":"address"}],"outputs":[],"stateMutability":"nonpayable"},{"type":"function","name":"hasRole","inputs":[{"name":"role","type":"bytes32","internalType":"bytes32"},{"name":"account","type":"address","internalType":"address"}],"outputs":[{"name":"","type":"bool","internalType":"bool"}],"stateMutability":"view"},{"type":"function","name":"isDelegatorInitialized","inputs":[],"outputs":[{"name":"","type":"bool","internalType":"bool"}],"stateMutability":"view"},{"type":"function","name":"isDepositLimit","inputs":[],"outputs":[{"name":"","type":"bool","internalType":"bool"}],"stateMutability":"view"},{"type":"function","name":"isDepositorWhitelisted","inputs":[{"name":"account","type":"address","internalType":"address"}],"outputs":[{"name":"value","type":"bool","internalType":"bool"}],"stateMutability":"view"},{"type":"function","name":"isInitialized","inputs":[],"outputs":[{"name":"","type":"bool","internalType":"bool"}],"stateMutability":"view"},{"type":"function","name":"isSlasherInitialized","inputs":[],"outputs":[{"name":"","type":"bool","internalType":"bool"}],"stateMutability":"view"},{"type":"function","name":"isWithdrawalsClaimed","inputs":[{"name":"epoch","type":"uint256","internalType":"uint256"},{"name":"account","type":"address","internalType":"address"}],"outputs":[{"name":"value","type":"bool","internalType":"bool"}],"stateMutability":"view"},{"type":"function","name":"maxFlashLoan","inputs":[{"name":"token","type":"address","internalType":"address"}],"outputs":[{"name":"","type":"uint256","internalType":"uint256"}],"stateMutability":"view"},{"type":"function","name":"nextEpochDurationInitInternal","inputs":[],"outputs":[{"name":"","type":"uint48","internalType":"uint48"}],"stateMutability":"view"},{"type":"function","name":"nextEpochDurationInternal","inputs":[],"outputs":[{"name":"","type":"uint48","internalType":"uint48"}],"stateMutability":"view"},{"type":"function","name":"nextEpochDurationSetEpochsDelayInternal","inputs":[],"outputs":[{"name":"","type":"uint256","internalType":"uint256"}],"stateMutability":"view"},{"type":"function","name":"nextEpochInitInternal","inputs":[],"outputs":[{"name":"","type":"uint256","internalType":"uint256"}],"stateMutability":"view"},{"type":"function","name":"nextEpochStart","inputs":[],"outputs":[{"name":"","type":"uint48","internalType":"uint48"}],"stateMutability":"view"},{"type":"function","name":"onSlash","inputs":[{"name":"amount","type":"uint256","internalType":"uint256"},{"name":"captureTimestamp","type":"uint48","internalType":"uint48"}],"outputs":[{"name":"slashedAmount","type":"uint256","internalType":"uint256"}],"stateMutability":"nonpayable"},{"type":"function","name":"prevEpochDurationInitInternal","inputs":[],"outputs":[{"name":"","type":"uint48","internalType":"uint48"}],"stateMutability":"view"},{"type":"function","name":"prevEpochDurationInternal","inputs":[],"outputs":[{"name":"","type":"uint48","internalType":"uint48"}],"stateMutability":"view"},{"type":"function","name":"prevEpochInitInternal","inputs":[],"outputs":[{"name":"","type":"uint256","internalType":"uint256"}],"stateMutability":"view"},{"type":"function","name":"previousEpochStart","inputs":[],"outputs":[{"name":"","type":"uint48","internalType":"uint48"}],"stateMutability":"view"},{"type":"function","name":"redeem","inputs":[{"name":"claimer","type":"address","internalType":"address"},{"name":"shares","type":"uint256","internalType":"uint256"}],"outputs":[{"name":"withdrawnAssets","type":"uint256","internalType":"uint256"},{"name":"mintedShares","type":"uint256","internalType":"uint256"}],"stateMutability":"nonpayable"},{"type":"function","name":"renounceRole","inputs":[{"name":"role","type":"bytes32","internalType":"bytes32"},{"name":"callerConfirmation","type":"address","internalType":"address"}],"outputs":[],"stateMutability":"nonpayable"},{"type":"function","name":"revokeRole","inputs":[{"name":"role","type":"bytes32","internalType":"bytes32"},{"name":"account","type":"address","internalType":"address"}],"outputs":[],"stateMutability":"nonpayable"},{"type":"function","name":"setDelegator","inputs":[{"name":"delegator_","type":"address","internalType":"address"}],"outputs":[],"stateMutability":"nonpayable"},{"type":"function","name":"setDepositLimit","inputs":[{"name":"limit","type":"uint256","internalType":"uint256"}],"outputs":[],"stateMutability":"nonpayable"},{"type":"function","name":"setDepositWhitelist","inputs":[{"name":"status","type":"bool","internalType":"bool"}],"outputs":[],"stateMutability":"nonpayable"},{"type":"function","name":"setDepositorWhitelistStatus","inputs":[{"name":"account","type":"address","internalType":"address"},{"name":"status","type":"bool","internalType":"bool"}],"outputs":[],"stateMutability":"nonpayable"},{"type":"function","name":"setEpochDuration","inputs":[{"name":"epochDuration_","type":"uint48","internalType":"uint48"},{"name":"epochDurationSetEpochsDelay_","type":"uint256","internalType":"uint256"}],"outputs":[],"stateMutability":"nonpayable"},{"type":"function","name":"setFlashFeeRate","inputs":[{"name":"flashFeeRate_","type":"uint256","internalType":"uint256"}],"outputs":[],"stateMutability":"nonpayable"},{"type":"function","name":"setFlashFeeReceiver","inputs":[{"name":"flashFeeReceiver_","type":"address","internalType":"address"}],"outputs":[],"stateMutability":"nonpayable"},{"type":"function","name":"setIsDepositLimit","inputs":[{"name":"status","type":"bool","internalType":"bool"}],"outputs":[],"stateMutability":"nonpayable"},{"type":"function","name":"setSlasher","inputs":[{"name":"slasher_","type":"address","internalType":"address"}],"outputs":[],"stateMutability":"nonpayable"},{"type":"function","name":"slashableBalanceOf","inputs":[{"name":"account","type":"address","internalType":"address"}],"outputs":[{"name":"","type":"uint256","internalType":"uint256"}],"stateMutability":"view"},{"type":"function","name":"slasher","inputs":[],"outputs":[{"name":"","type":"address","internalType":"address"}],"stateMutability":"view"},{"type":"function","name":"staticDelegateCall","inputs":[{"name":"target","type":"address","internalType":"address"},{"name":"data","type":"bytes","internalType":"bytes"}],"outputs":[],"stateMutability":"nonpayable"},{"type":"function","name":"supportsInterface","inputs":[{"name":"interfaceId","type":"bytes4","internalType":"bytes4"}],"outputs":[{"name":"","type":"bool","internalType":"bool"}],"stateMutability":"view"},{"type":"function","name":"totalStake","inputs":[],"outputs":[{"name":"","type":"uint256","internalType":"uint256"}],"stateMutability":"view"},{"type":"function","name":"withdraw","inputs":[{"name":"claimer","type":"address","internalType":"address"},{"name":"amount","type":"uint256","internalType":"uint256"}],"outputs":[{"name":"burnedShares","type":"uint256","internalType":"uint256"},{"name":"mintedShares","type":"uint256","internalType":"uint256"}],"stateMutability":"nonpayable"},{"type":"function","name":"withdrawalShares","inputs":[{"name":"epoch","type":"uint256","internalType":"uint256"}],"outputs":[{"name":"amount","type":"uint256","internalType":"uint256"}],"stateMutability":"view"},{"type":"function","name":"withdrawalSharesOf","inputs":[{"name":"epoch","type":"uint256","internalType":"uint256"},{"name":"account","type":"address","internalType":"address"}],"outputs":[{"name":"amount","type":"uint256","internalType":"uint256"}],"stateMutability":"view"},{"type":"function","name":"withdrawals","inputs":[{"name":"epoch","type":"uint256","internalType":"uint256"}],"outputs":[{"name":"amount","type":"uint256","internalType":"uint256"}],"stateMutability":"view"},{"type":"function","name":"withdrawalsOf","inputs":[{"name":"epoch","type":"uint256","internalType":"uint256"},{"name":"account","type":"address","internalType":"address"}],"outputs":[{"name":"","type":"uint256","internalType":"uint256"}],"stateMutability":"view"},{"type":"event","name":"AcceptEpochDuration","inputs":[],"anonymous":false},{"type":"event","name":"Claim","inputs":[{"name":"claimer","type":"address","indexed":true,"internalType":"address"},{"name":"recipient","type":"address","indexed":true,"internalType":"address"},{"name":"epoch","type":"uint256","indexed":false,"internalType":"uint256"},{"name":"amount","type":"uint256","indexed":false,"internalType":"uint256"}],"anonymous":false},{"type":"event","name":"ClaimBatch","inputs":[{"name":"claimer","type":"address","indexed":true,"internalType":"address"},{"name":"recipient","type":"address","indexed":true,"internalType":"address"},{"name":"epochs","type":"uint256[]","indexed":false,"internalType":"uint256[]"},{"name":"amount","type":"uint256","indexed":false,"internalType":"uint256"}],"anonymous":false},{"type":"event","name":"Deposit","inputs":[{"name":"depositor","type":"address","indexed":true,"internalType":"address"},{"name":"onBehalfOf","type":"address","indexed":true,"internalType":"address"},{"name":"amount","type":"uint256","indexed":false,"internalType":"uint256"},{"name":"shares","type":"uint256","indexed":false,"internalType":"uint256"}],"anonymous":false},{"type":"event","name":"Initialized","inputs":[{"name":"version","type":"uint64","indexed":false,"internalType":"uint64"}],"anonymous":false},{"type":"event","name":"OnSlash","inputs":[{"name":"amount","type":"uint256","indexed":false,"internalType":"uint256"},{"name":"captureTimestamp","type":"uint48","indexed":false,"internalType":"uint48"},{"name":"slashedAmount","type":"uint256","indexed":false,"internalType":"uint256"}],"anonymous":false},{"type":"event","name":"RoleAdminChanged","inputs":[{"name":"role","type":"bytes32","indexed":true,"internalType":"bytes32"},{"name":"previousAdminRole","type":"bytes32","indexed":true,"internalType":"bytes32"},{"name":"newAdminRole","type":"bytes32","indexed":true,"internalType":"bytes32"}],"anonymous":false},{"type":"event","name":"RoleGranted","inputs":[{"name":"role","type":"bytes32","indexed":true,"internalType":"bytes32"},{"name":"account","type":"address","indexed":true,"internalType":"address"},{"name":"sender","type":"address","indexed":true,"internalType":"address"}],"anonymous":false},{"type":"event","name":"RoleRevoked","inputs":[{"name":"role","type":"bytes32","indexed":true,"internalType":"bytes32"},{"name":"account","type":"address","indexed":true,"internalType":"address"},{"name":"sender","type":"address","indexed":true,"internalType":"address"}],"anonymous":false},{"type":"event","name":"SetDelegator","inputs":[{"name":"delegator","type":"address","indexed":true,"internalType":"address"}],"anonymous":false},{"type":"event","name":"SetDepositLimit","inputs":[{"name":"limit","type":"uint256","indexed":false,"internalType":"uint256"}],"anonymous":false},{"type":"event","name":"SetDepositWhitelist","inputs":[{"name":"status","type":"bool","indexed":false,"internalType":"bool"}],"anonymous":false},{"type":"event","name":"SetDepositorWhitelistStatus","inputs":[{"name":"account","type":"address","indexed":true,"internalType":"address"},{"name":"status","type":"bool","indexed":false,"internalType":"bool"}],"anonymous":false},{"type":"event","name":"SetEpochDuration","inputs":[{"name":"epochDuration","type":"uint48","indexed":false,"internalType":"uint48"}],"anonymous":false},{"type":"event","name":"SetFlashFeeRate","inputs":[{"name":"flashFeeRate","type":"uint256","indexed":false,"internalType":"uint256"}],"anonymous":false},{"type":"event","name":"SetFlashFeeReceiver","inputs":[{"name":"flashFeeReceiver","type":"address","indexed":false,"internalType":"address"}],"anonymous":false},{"type":"event","name":"SetIsDepositLimit","inputs":[{"name":"status","type":"bool","indexed":false,"internalType":"bool"}],"anonymous":false},{"type":"event","name":"SetSlasher","inputs":[{"name":"slasher","type":"address","indexed":true,"internalType":"address"}],"anonymous":false},{"type":"event","name":"Withdraw","inputs":[{"name":"withdrawer","type":"address","indexed":true,"internalType":"address"},{"name":"claimer","type":"address","indexed":true,"internalType":"address"},{"name":"amount","type":"uint256","indexed":false,"internalType":"uint256"},{"name":"burnedShares","type":"uint256","indexed":false,"internalType":"uint256"},{"name":"mintedShares","type":"uint256","indexed":false,"internalType":"uint256"}],"anonymous":false},{"type":"error","name":"AccessControlBadConfirmation","inputs":[]},{"type":"error","name":"AccessControlUnauthorizedAccount","inputs":[{"name":"account","type":"address","internalType":"address"},{"name":"neededRole","type":"bytes32","internalType":"bytes32"}]},{"type":"error","name":"AlreadyClaimed","inputs":[]},{"type":"error","name":"AlreadySet","inputs":[]},{"type":"error","name":"CheckpointUnorderedInsertion","inputs":[]},{"type":"error","name":"DelegatorAlreadyInitialized","inputs":[]},{"type":"error","name":"DepositLimitReached","inputs":[]},{"type":"error","name":"InsufficientClaim","inputs":[]},{"type":"error","name":"InsufficientDeposit","inputs":[]},{"type":"error","name":"InsufficientExitWindow","inputs":[]},{"type":"error","name":"InsufficientRedemption","inputs":[]},{"type":"error","name":"InsufficientWithdrawal","inputs":[]},{"type":"error","name":"InvalidAccount","inputs":[]},{"type":"error","name":"InvalidCaptureEpoch","inputs":[]},{"type":"error","name":"InvalidClaimer","inputs":[]},{"type":"error","name":"InvalidCollateral","inputs":[]},{"type":"error","name":"InvalidDelegator","inputs":[]},{"type":"error","name":"InvalidEpoch","inputs":[]},{"type":"error","name":"InvalidEpochDuration","inputs":[]},{"type":"error","name":"InvalidEpochDurationSetEpochsDelay","inputs":[]},{"type":"error","name":"InvalidFlashParams","inputs":[]},{"type":"error","name":"InvalidInitialization","inputs":[]},{"type":"error","name":"InvalidLengthEpochs","inputs":[]},{"type":"error","name":"InvalidNewEpochDuration","inputs":[]},{"type":"error","name":"InvalidOnBehalfOf","inputs":[]},{"type":"error","name":"InvalidReceiver","inputs":[]},{"type":"error","name":"InvalidRecipient","inputs":[]},{"type":"error","name":"InvalidReturnAmount","inputs":[]},{"type":"error","name":"InvalidSlasher","inputs":[]},{"type":"error","name":"InvalidTimestamp","inputs":[]},{"type":"error","name":"MaxLoanExceeded","inputs":[]},{"type":"error","name":"MissingRoles","inputs":[]},{"type":"error","name":"NewEpochDurationNotReady","inputs":[]},{"type":"error","name":"NoDepositWhitelist","inputs":[]},{"type":"error","name":"NoPreviousEpoch","inputs":[]},{"type":"error","name":"NotDelegator","inputs":[]},{"type":"error","name":"NotInitializing","inputs":[]},{"type":"error","name":"NotSlasher","inputs":[]},{"type":"error","name":"NotWhitelistedDepositor","inputs":[]},{"type":"error","name":"ReentrancyGuardReentrantCall","inputs":[]},{"type":"error","name":"SafeCastOverflowedUintDowncast","inputs":[{"name":"bits","type":"uint8","internalType":"uint8"},{"name":"value","type":"uint256","internalType":"uint256"}]},{"type":"error","name":"SafeERC20FailedOperation","inputs":[{"name":"token","type":"address","internalType":"address"}]},{"type":"error","name":"SlasherAlreadyInitialized","inputs":[]},{"type":"error","name":"TooMuchRedeem","inputs":[]},{"type":"error","name":"TooMuchWithdraw","inputs":[]},{"type":"error","name":"UnsupportedToken","inputs":[]}],"bytecode":{"object":"0x60c034608157601f614cc938819003918201601f19168301916001600160401b038311848410176085578084926040948552833981010312608157604b60206045836099565b92016099565b9060805260a052604051614c1c90816100ad8239608051818181611458015261194a015260a051818181611e2001526123280152f35b5f80fd5b634e487b7160e01b5f52604160045260245ffd5b51906001600160a01b038216820360815756fe60806040526004361015610011575f80fd5b5f3560e01c806301ffc9a7146105745780630fcaeb1b1461056f5780631415519b1461056a5780631b66c9e1146105655780631e89bd8a146105605780631e9a69501461055b578063248a9ca31461055657806327810b6e14610551578063281f57521461054c5780632d73c69c146105475780632f2ff15d1461054257806331d9736c1461053d57806336568abe14610538578063392e53cd146105335780634105a7dd1461052e578063463616711461052957806347e7ef241461052457806348d3b7751461051f5780634ff0876a1461051a578063502b4d601461051557806350861adc1461051057806350f220681461050b57806352741a40146105065780635346e34f1461050157806359f769a9146104fc5780635cc07076146104f75780635cffe9de146104f2578063613255ab146104ed57806361819dd8146104e857806361a8c8c4146104e357806364601402146104de578063653b04cd146104d95780636da3e06d146104d45780636ec1e3f8146104cf5780637278e31c146104ca57806373790ab3146104c557806375d6c765146104c057806376671808146104bb578063794b15b7146104b65780637953b33b146104b15780637c04c80a146104ac5780637e84ec81146104a7578063810da75d146104a257806383cd9cc31461049d57806383f46c2c1461049857806387df0788146104935780638b0e9f3f1461048e5780638d30d7a71461048957806391d14854146104845780639d66201b1461047f5780639f86fd851461047a578063a1b1220214610475578063a217fddf14610470578063a21a1df91461046b578063a286146614610466578063a3b5417214610461578063a5d032231461045c578063a8b24f9a14610457578063aa9354a314610452578063aabc24961461044d578063aad3ec9614610448578063afba70ad14610443578063b13442711461043e578063bc46f72214610439578063bc4f8c0514610434578063bd49c35f1461042f578063bdc8144b1461042a578063bfefcd7b14610425578063c31e8dd714610420578063c642b0501461041b578063ce9b793014610416578063d2356eb514610411578063d547741f1461040c578063d626811b14610407578063d8dfeb4514610402578063d9d98ce4146103fd578063db388715146103f8578063dc0b1d71146103f3578063ddd0f28a146103ee578063e945da7f146103e9578063ecc98f05146103e4578063ecf70858146103df578063efb559d6146103da578063f3fef3a3146103d5578063f5e7ee0f146103d05763fcdc5b60146103cb575f80fd5b612b87565b612b5d565b612ab7565b61296c565b61294f565b612931565b612914565b6128f7565b6128e5565b6128ab565b612880565b612855565b612795565b612749565b61272c565b612704565b6126ea565b61267c565b612662565b6125a2565b612588565b61256b565b612531565b612509565b6124df565b61241e565b612275565b612257565b61222f565b6121e9565b61219c565b6120b7565b61207d565b612063565b61203f565b611f72565b611f38565b611eda565b611eb5565b611e4f565b611e0b565b611a90565b6118e5565b6118cc565b6118a4565b61183e565b611820565b6117e0565b6117c2565b61179a565b611768565b6114ac565b611487565b611443565b611409565b6113e1565b6113bb565b611381565b61135a565b61110f565b6110b8565b611091565b61100a565b610f09565b610ef0565b610e8a565b610e62565b610e48565b610e27565b610b77565b610b5d565b610ac2565b610a7d565b610a32565b6109f8565b6109aa565b61093a565b6107cc565b6107a4565b61076b565b610690565b61065f565b610625565b6105eb565b6105ce565b346105ca5760203660031901126105ca5760043563ffffffff60e01b81168091036105ca57602090637965db0b60e01b81149081156105b9575b506040519015158152f35b6301ffc9a760e01b1490505f6105ae565b5f80fd5b346105ca575f3660031901126105ca576020601154604051908152f35b346105ca575f3660031901126105ca5760206040517fc6aaadd7371d5e8f9ed6849dd66a66573a3ba37167d03f4352c9ba5693678fac8152f35b346105ca575f3660031901126105ca5760206040517f9c56d972d63cbb4195b3c1484691dfc220fa96a4c47e7b6613bd82a022029e068152f35b346105ca575f3660031901126105ca57602060015460d01c604051908152f35b6001600160a01b038116036105ca57565b346105ca5760403660031901126105ca576004356106ad8161067f565b602435906106b96131e8565b6001600160a01b0381161561075a57335f908152600e602052604090206106e490613fd3565b613fd3565b8211610748576107046106f5613eeb565b6106fd613f5f565b9084614026565b91821561073357826107159261322a565b9061071e613217565b604080519182526020820192909252f35b0390f35b60405160016245ddc760e11b03198152600490fd5b604051632418411f60e11b8152600490fd5b6040516208978560e71b8152600490fd5b346105ca5760203660031901126105ca576004355f525f80516020614ba78339815191526020526020600160405f200154604051908152f35b346105ca575f3660031901126105ca576001546040516001600160a01b039091168152602090f35b346105ca575f3660031901126105ca576107ed6107e842613eb9565b612df5565b801561081e575f1981019081116108195761080960209161303d565b65ffffffffffff60405191168152f35b612ba4565b604051639fa56a5b60e01b8152600490fd5b6024359065ffffffffffff821682036105ca57565b6004359065ffffffffffff821682036105ca57565b634e487b7160e01b5f52604160045260245ffd5b606081019081106001600160401b0382111761088957604052565b61085a565b604081019081106001600160401b0382111761088957604052565b90601f801991011681019081106001600160401b0382111761088957604052565b604051906108d78261088e565b565b6001600160401b03811161088957601f01601f191660200190565b81601f820112156105ca5780359061090b826108d9565b9261091960405194856108a9565b828452602083830101116105ca57815f926020809301838601378301015290565b346105ca5760603660031901126105ca576004356109578161067f565b61095f610830565b90604435906001600160401b0382116105ca576020926109866109a29336906004016108f4565b6001600160a01b039092165f908152600e855260409020613564565b604051908152f35b346105ca5760403660031901126105ca576109f66024356004356109cd8261067f565b805f525f80516020614ba78339815191526020526109f1600160405f200154613792565b6137be565b005b346105ca575f3660031901126105ca5760206040517f5295aaaa27fdd659293eafacbfafbc634c1b96298957e87de5f59308cdbfdad18152f35b346105ca5760403660031901126105ca57602435610a4f8161067f565b336001600160a01b03821603610a6b576109f690600435613859565b60405163334bd91960e11b8152600490fd5b346105ca575f3660031901126105ca5760ff60025460a01c1680610aa9575b6020906040519015158152f35b5060035460a01c60ff16610a9c565b801515036105ca57565b346105ca5760203660031901126105ca57600435610adf81610ab8565b610ae76131e8565b610aef613630565b5f54901515908160ff8216151514610b4b5760ff191660ff8216175f556040519081527f3e12b7b36c75ac9609a3f58609b331210428e1a85909132638955ba0301eec3390602090a160015f80516020614bc783398151915255005b60405163a741a04560e01b8152600490fd5b346105ca575f3660031901126105ca576020610809612bf4565b346105ca576040806003193601126105ca576004803591610b978361067f565b610b9f6131e8565b6001600160a01b0391838316908115610e19575f5460ff811680610e00575b610df15783516370a0823160e01b808252308483019081529096602093909160109190911c82169084908490819083010381845afa928315610dc9575f93610dce575b50610c139060243590309033906138eb565b5f5486519788523085890190815290979184918391908290819060200103918b60101c165afa908115610dc957610c52935f92610d9c575b5050612bc6565b938415610d8d5760081c60ff1680610d78575b610d6a57509061072f91610d16610c7a613eeb565b95610cc3610c86613f5f565b610cae610c948a838b614026565b99610ca88a610ca242613eb9565b92612c5c565b90613a3f565b5050610cbd89610ca242613eb9565b90613b1f565b50506001600160a01b0381165f908152600e6020526040902090610d1088610d0b6106df610cf042613eb9565b6001600160a01b039095165f908152600e6020526040902090565b612c5c565b91613bfb565b505081518481526020810186905233907fdcbc1c05240f31ff3ad067ef1ee35ce4997762752e3a095284754544f4c709d790604090a3610d54613217565b5191825260208201929092529081906040820190565b8251632484557960e01b8152fd5b50610d8584610d0b613eeb565b815410610c65565b50825163070f6eed60e11b8152fd5b610dbb9250803d10610dc2575b610db381836108a9565b810190612c34565b5f80610c4b565b503d610da9565b612c43565b610c13919350610dea90853d8711610dc257610db381836108a9565b9290610c01565b5082516304f63b8560e01b8152fd5b50335f9081526005602052604090205460ff1615610bbe565b8251630d534ce360e11b8152fd5b346105ca575f3660031901126105ca57602060ff5f54166040519015158152f35b346105ca575f3660031901126105ca576020610809612c69565b346105ca575f3660031901126105ca57602065ffffffffffff60135460901c16604051908152f35b346105ca575f3660031901126105ca57602060ff60025460a01c166040519015158152f35b9060406003198301126105ca5760043565ffffffffffff811681036105ca5791602435906001600160401b0382116105ca57610eed916004016108f4565b90565b346105ca5760206109a2610f0336610eaf565b906133d9565b346105ca5760203660031901126105ca57600435610f268161067f565b610f2e6131e8565b335f9081527f9aeaa4f1a9be826e331dea6728ca206744e0a34dccbc1d3da4a68acb8abf036360205260409020547f5295aaaa27fdd659293eafacbfafbc634c1b96298957e87de5f59308cdbfdad19060ff1615610fec57506016546001600160a01b039182169181168214610b4b576001600160a01b03191681176016556040519081527f08aacfdb137d688b12f67ef81735dede1ae18b0664f6b347ee9ef00ae94ff91990602090a160015f80516020614bc783398151915255005b6044906040519063e2517d3f60e01b82523360048301526024820152fd5b346105ca5760203660031901126105ca5760043561102781610ab8565b61102f6131e8565b61103761368d565b5f54901515908160ff8260081c16151514610b4b5761ff001916600882901b61ff0016175f556040519081527ffa7a25a0b611d4ba3c0ea990e90dc23d484a5dd7a1be4733fef2946ba74530c690602090a16109f6613217565b346105ca5760203660031901126105ca5760206109a26004356110b38161067f565b612caf565b346105ca5760203660031901126105ca576004355f526006602052602060405f2054604051908152f35b9181601f840112156105ca578235916001600160401b0383116105ca57602083818601950101116105ca57565b346105ca5760803660031901126105ca576004803561112d8161067f565b6024356111398161067f565b6044356064356001600160401b0381116105ca5761115a90369086016110e2565b6111659591956131e8565b61116e84612d48565b831161134a5761117e8385613155565b5f549094906111a09060101c6001600160a01b03165b6001600160a01b031690565b604080516370a0823160e01b80825230878301908152929a93996001600160a01b0398898c1697602097929693959094919290889083908190830103818c5afa968715610dc9578c958f958f94968e8e948d995f9d611315575b50916112118961122c95935f98979516809a613cb9565b516323e30c8b60e01b8152998a988997889633908801612cfe565b03925af18015610dc9577f439148f0bbc682ca079e46d6e2c2f0c1e3b820f1a291b069d8882abf8cf18dd9915f916112f8575b50036112e857885190815230858201908152909383918591908290819060200103915afa8015610dc957869361129c935f92610d9c575050612bc6565b036112da57506016546001600160a01b03169081166112c9575b836112bf613217565b5160018152602090f35b6112d292613cb9565b5f80806112b6565b8451637f28d71160e01b8152fd5b8851631e4ec46b60e01b81528590fd5b61130f9150853d8711610dc257610db381836108a9565b5f61125f565b5f969593919d508961122c959361133b611211938e803d10610dc257610db381836108a9565b9f9395979850939550506111fa565b5060405163347177ad60e21b8152fd5b346105ca5760203660031901126105ca5760206109a260043561137c8161067f565b612d48565b346105ca575f3660031901126105ca5760206040517f591f6a0113ada8aff67efadec8ae2fa585cb4ebf4e1f8fc1205ffbeff98d00ec8152f35b346105ca575f3660031901126105ca5760206108096113dc6107e842613eb9565b61303d565b346105ca575f3660031901126105ca57602065ffffffffffff60015460a01c16604051908152f35b346105ca575f3660031901126105ca5760206040517f439148f0bbc682ca079e46d6e2c2f0c1e3b820f1a291b069d8882abf8cf18dd98152f35b346105ca575f3660031901126105ca576040517f00000000000000000000000000000000000000000000000000000000000000006001600160a01b03168152602090f35b346105ca575f3660031901126105ca57602060ff60035460a01c166040519015158152f35b346105ca5760403660031901126105ca576004356114c8610830565b6114d06131e8565b6003546114e5906001600160a01b0316611194565b3303611756576114f76107e842613eb9565b9061150181612df5565b9082151580611745575b801561173c575b61172a5761072f937ff9d090c096f71cd1659861a9ce5b6f384bceb4e2fa4e4a19edf6489a9b8d56c792611544613eeb565b9461155f61155182612c4e565b5f52600660205260405f2090565b549082810361164457506115738187612c5c565b8381188185100281189687806115fd575b50505050505b836115c9575b6040805191825265ffffffffffff929092166020820152908101839052606090a16115b9613217565b6040519081529081906020820190565b5f546115f89085906115e69060101c6001600160a01b0316611194565b6001546001600160a01b031690613cb9565b611590565b61163993610c4b83610ca861162361161c611551986116339888613d90565b8096612bc6565b9461162d42613eb9565b92612bc6565b92612c4e565b555f80808087611584565b9150611658825f52600660205260405f2090565b549061166881610d0b848a612c5c565b908482188286100282189788611683575b505050505061158a565b6116f893836116ab936116b88c6116b36116a16116e9998884613d90565b9788958584613d90565b948592612bc6565b612bc6565b93848410611703575b610c4b90610ca86116d795969761162d42613eb9565b6116e361155187612c4e565b55612bc6565b915f52600660205260405f2090565b555f80808080611679565b9161171f610c4b91611719866116d79798612bc6565b90612c5c565b8594509290506116c1565b604051635e18d2a560e01b8152600490fd5b50828211611512565b5061174f83612bb8565b821061150b565b60405163dabc4ad960e01b8152600490fd5b346105ca575f3660031901126105ca576117846107e842613eb9565b600181018091116108195761080960209161303d565b346105ca575f3660031901126105ca57602065ffffffffffff60135460601c16604051908152f35b346105ca575f3660031901126105ca5760206109a26107e842613eb9565b346105ca5760203660031901126105ca576004356117fd8161067f565b60018060a01b03165f526005602052602060ff60405f2054166040519015158152f35b346105ca5760203660031901126105ca5760206109a26107e8610845565b346105ca5760403660031901126105ca5760043561185b8161067f565b6024356001600160401b038082116105ca57366023830112156105ca5781600401359081116105ca573660248260051b840101116105ca5761072f9260246115b9930190612ee0565b346105ca575f3660031901126105ca57602065ffffffffffff60135460301c16604051908152f35b346105ca5760206109a26118df36610eaf565b906134af565b346105ca576020806003193601126105ca5760048035906119058261067f565b61190d6131e8565b60025460a01c60ff16611a81576040516302910f8b60e31b81526001600160a01b03838116838301908152909491908290829081906020010381887f0000000000000000000000000000000000000000000000000000000000000000165afa908115610dc9575f91611a54575b5015611a445760405163fbfa77cf60e01b8152838516949082818581895afa928315610dc9575f93611a15575b505030911603611a065750600280546001600160a01b03929092166001600160a81b031990921691909117600160a01b1790557fdb2160616f776a37b24808115554e79439bf26cccbbd4438190cc6d28e80ecd15f80a26109f6613217565b60405163b9f0f17160e01b8152fd5b611a35929350803d10611a3d575b611a2d81836108a9565b810190613015565b905f806119a7565b503d611a23565b506040516324e5af8d60e21b8152fd5b611a749150823d8411611a7a575b611a6c81836108a9565b810190613000565b5f61197a565b503d611a62565b604051631380833b60e01b8152fd5b346105ca5760403660031901126105ca57611aa9610845565b60243590611ab56131e8565b611abd6136e4565b60038210611df95765ffffffffffff80611ae260135465ffffffffffff9060601c1690565b168015159081611de3575b50611cb6575b60015460d01c818084169116818111611ca457601354611b249060601c65ffffffffffff165b65ffffffffffff1690565b15611c6f5750907fc950f06b73b224f8b32d39245a5905020aebfc426a15833a70ac2e4e2ebe098c93611ba89392611b5b5f601455565b601380546bffffffffffffffffffffffff60601b191690555f6010555b611b87611b1960015460d01c90565b03611bb3575b505060405165ffffffffffff90911681529081906020820190565b0390a16109f6613217565b611c63611c3a611c35611c6894611be0611bdb611bd26107e842613eb9565b600f5490612c5c565b601455565b6013805465ffffffffffff60901b1916609089901b65ffffffffffff60901b16179055611c126113dc6107e842613eb9565b90611c2e600f54611c28611b1960015460d01c90565b9061302a565b9116612c5c565b613eb9565b6013805465ffffffffffff60601b191660609290921b65ffffffffffff60601b16919091179055565b601055565b5f80611b8d565b908093929114610b4b577fc950f06b73b224f8b32d39245a5905020aebfc426a15833a70ac2e4e2ebe098c93611ba893611b78565b6040516359dcfd5560e11b8152600490fd5b611dae611cc56107e842613eb9565b611d4e611cd76113dc6107e842613eb9565b91611ce3601154601255565b611d1d611cf260015460d01c90565b6bffffffffffff0000000000006013549160301b16906bffffffffffff000000000000191617601355565b600154611d499060a01c65ffffffffffff1665ffffffffffff1665ffffffffffff196013541617601355565b601155565b601354611d859060901c65ffffffffffff16600180546001600160d01b031660d09290921b6001600160d01b031916919091179055565b6001805465ffffffffffff60a01b191660a09290921b65ffffffffffff60a01b16919091179055565b611db9601054600f55565b611dc25f601455565b601380546bffffffffffffffffffffffff60601b191690555f601055611af3565b9050611df1611b1942613eb9565b10155f611aed565b6040516317a509b960e31b8152600490fd5b346105ca575f3660031901126105ca576040517f00000000000000000000000000000000000000000000000000000000000000006001600160a01b03168152602090f35b346105ca575f3660031901126105ca57611e6b6107e842613eb9565b611e73613eeb565b90805f52600660205260405f205482018092116108195760018101809111610819575f52600660205260405f2054810180911161081957604051908152602090f35b346105ca575f3660031901126105ca57602065ffffffffffff60135416604051908152f35b346105ca5760403660031901126105ca57602060ff611f2c602435611efe8161067f565b6004355f525f80516020614ba7833981519152845260405f209060018060a01b03165f5260205260405f2090565b54166040519015158152f35b346105ca5760203660031901126105ca57600435611f558161067f565b60018060a01b03165f52600e60205260206109a260405f20613fd3565b346105ca576040806003193601126105ca57600435611f908161067f565b6024356001600160401b0381116105ca575f8061202e93611fb760809436906004016110e2565b908188519283928337810184815203915af43d156120365760203d611fdb816108d9565b90611fe8875192836108a9565b81523d5f8383013e5b8551958693151583850152808401528051918291826060860152018484015e5f838284010152601f801991011681010360608101845201826108a9565b805190602001fd5b60206060611ff1565b346105ca575f3660031901126105ca57602060ff5f5460081c166040519015158152f35b346105ca575f3660031901126105ca5760206040515f8152f35b346105ca575f3660031901126105ca5760206040517f4a634bc14d77baf979756509ef4298c6f6318af357828612545267ee2eb792338152f35b346105ca5760403660031901126105ca576004356120d48161067f565b6024356120e081610ab8565b6120e86131e8565b6120f061373b565b6001600160a01b03821691821561218a575f8381526005602052604090205460ff16151582151514610b4b576001600160a01b03165f9081526005602052604090207ff991b1ecfb5115cbb36a2b2e2240c058406d2acc2fcc6e9e2dc99d845ff70a629161217f9161216d908260ff801983541691151516179055565b60405190151581529081906020820190565b0390a26109f6613217565b604051630da30f6560e31b8152600490fd5b346105ca5760403660031901126105ca5760206121e06024356121be8161067f565b6004355f526008835260405f209060018060a01b03165f5260205260405f2090565b54604051908152f35b346105ca5760403660031901126105ca57602060ff611f2c60243561220d8161067f565b6004355f526009845260405f209060018060a01b03165f5260205260405f2090565b346105ca575f3660031901126105ca576016546040516001600160a01b039091168152602090f35b346105ca5760203660031901126105ca57602061080960043561303d565b346105ca576020806003193601126105ca5760048035906122958261067f565b61229d6131e8565b60035460a01c60ff1661240f576001600160a01b038281169390846122fd575b6003805460ff60a01b1916600160a01b179055847fe7e4c932e03abddfe20f83af42c33627e816115c7ec2b168441f65dc14bfc3ba5f80a26109f6613217565b6040516302910f8b60e31b81526001600160a01b0385168482019081528390829081906020010381857f0000000000000000000000000000000000000000000000000000000000000000165afa908115610dc9575f916123f2575b50156123e15760405163fbfa77cf60e01b815282818581895afa928315610dc9575f936123c2575b5050309116036123b35750600380546001600160a01b0319166001600160a01b039092169190911790555f8080806122bd565b604051633f3e089160e21b8152fd5b6123d9929350803d10611a3d57611a2d81836108a9565b905f80612380565b60405163dabc4ad960e01b81528390fd5b6124099150833d8511611a7a57611a6c81836108a9565b5f612358565b60405163703fe2e560e01b8152fd5b346105ca5760403660031901126105ca5760043561243b8161067f565b602435906124476131e8565b6001600160a01b03918183169081156124cd5761247861072f9461246a83613e1d565b9485915f5460101c16613cb9565b604080519182526020820184905233917f865ca08d59f5cb456e85cd2f7ef63664ea4f73327414e9d8152c4158b0e946459190a360015f80516020614bc7833981519152556040519081529081906020820190565b604051634e46966960e11b8152600490fd5b346105ca5760203660031901126105ca576004355f526007602052602060405f2054604051908152f35b346105ca575f3660031901126105ca576003546040516001600160a01b039091168152602090f35b346105ca575f3660031901126105ca5760206040517fc9078c78bcaac2be1c77c160c539a489be2b72939771b1a6302fed3e2150c7458152f35b346105ca575f3660031901126105ca576020601054604051908152f35b346105ca575f3660031901126105ca5760206109a2613eeb565b346105ca5760203660031901126105ca576004356125be6131e8565b335f9081527f2d4ccbfe9f7672a6f2537c1e5bce6adacb73706879154bbab6ce096012d6721660205260409020547f4a634bc14d77baf979756509ef4298c6f6318af357828612545267ee2eb792339060ff1615610fec57508060045414610b4b576020817f854df3eb95564502c8bc871ebdd15310ee26270f955f6c6bd8cea68e75045bc092600455604051908152a160015f80516020614bc783398151915255005b346105ca575f3660031901126105ca5760206109a2613f5f565b346105ca5760203660031901126105ca576004356126998161067f565b6126a56107e842613eb9565b6126ae82612caf565b916126b9818361318a565b83018093116108195760018201809211610819576126d69161318a565b810180911161081957602090604051908152f35b346105ca575f3660031901126105ca5760206109a2613115565b346105ca575f3660031901126105ca576002546040516001600160a01b039091168152602090f35b346105ca575f3660031901126105ca576020601254604051908152f35b346105ca5760403660031901126105ca576109f660243560043561276c8261067f565b805f525f80516020614ba7833981519152602052612790600160405f200154613792565b613859565b346105ca5760203660031901126105ca576004356127b16131e8565b335f9081527f82a1dc868a49801aa31c5dd393dc0b9005735300cdcd4bbc1af68215effcd6f860205260409020547fc9078c78bcaac2be1c77c160c539a489be2b72939771b1a6302fed3e2150c7459060ff1615610fec57508060155414610b4b576020817f85370e46fb038a73f13e1c280ffc745e71ff72b4ea57b15c6eca3749d73c0cb892601555604051908152a160015f80516020614bc783398151915255005b346105ca575f3660031901126105ca575f5460405160109190911c6001600160a01b03168152602090f35b346105ca5760403660031901126105ca5760206109a26004356128a28161067f565b60243590613155565b346105ca575f3660031901126105ca5760206040517fbae4ee3de6c709ff9a002e774c5b78cb381560b219213c88ae0f1e207c03c0238152f35b346105ca575f3660031901126105ca57005b346105ca575f3660031901126105ca576020601454604051908152f35b346105ca575f3660031901126105ca576020601554604051908152f35b346105ca575f3660031901126105ca576020604051633b9aca008152f35b346105ca575f3660031901126105ca576020600454604051908152f35b346105ca5760603660031901126105ca576004356129898161067f565b612991610830565b6001600160401b0391906044358381116105ca576129b39036906004016110e2565b909260409384516129c38161086e565b60608152606060208201526060868201529280612a22575b61072f86612a138787612a0d6129f48984845191612bd3565b9285612a046020850151836134af565b930151906133d9565b91614026565b90519081529081906020820190565b81019392506020818503126105ca578035908682116105ca5701926060848203126105ca57845195612a538761086e565b84358181116105ca5782612a689187016108f4565b875260208501358181116105ca5782612a829187016108f4565b6020880152858501359081116105ca5761072f96612aab612a0d936129f493612a1398016108f4565b878201529394506129db565b346105ca5760403660031901126105ca57600435612ad48161067f565b602435612adf6131e8565b6001600160a01b0382161561075a578015612b4b57612b0e612aff613f5f565b612b07613eeb565b9083614469565b335f908152600e60205260409020909290612b2890613fd3565b8311612b395761071591839161322a565b6040516321727a3760e11b8152600490fd5b604051636c6c627d60e11b8152600490fd5b346105ca5760403660031901126105ca5760206109a2602435612b7f8161067f565b60043561318a565b346105ca575f3660031901126105ca576020600f54604051908152f35b634e487b7160e01b5f52601160045260245ffd5b5f1981019190821161081957565b9190820391821161081957565b6001600160a01b03165f908152600e60205260409020610eed929190613564565b65ffffffffffff8060135460601c169081158015612c21575b612c15575090565b905060015460a01c1690565b508181612c2d42613eb9565b1610612c0d565b908160209103126105ca575190565b6040513d5f823e3d90fd5b906001820180921161081957565b9190820180921161081957565b60135465ffffffffffff90818160601c168015908115612c9b575b50612c905760901c1690565b505060015460d01c90565b905082612ca742613eb9565b16105f612c84565b6001600160a01b03165f908152600e60205260409020612cce90613fd3565b612cd6613eeb565b612cde613f5f565b9060018101809111610819576001820180921161081957610eed92613d90565b94919286949160c0979460018060a01b0380921688521660208701526040860152606085015260a060808501528160a0850152848401375f828201840152601f01601f1916010190565b5f5460101c6001600160a01b0390811691168103612da8576020602491604051928380926370a0823160e01b82523060048301525afa908115610dc9575f91612d8f575090565b610eed915060203d602011610dc257610db381836108a9565b505f90565b65ffffffffffff918216908216039190821161081957565b634e487b7160e01b5f52601260045260245ffd5b9065ffffffffffff809116918215612df057160490565b612dc5565b60015465ffffffffffff808316929160a081901c821680851015612e6d5750506013549281841690818015918215612e63575b5050612e5157610eed9361171992612e46611b199360125496612dad565b9160301c1690612dd9565b60405163b7d0949760e01b8152600490fd5b109050815f612e28565b909160135490808260601c1695868015918215612ed6575b505015612eb1575050610eed935061171991612ea7611b199260115495612dad565b9060d01c90612dd9565b6117199350611b199250612ecb610eed9660145496612dad565b9160901c1690612dd9565b109050865f612e85565b90612ee96131e8565b5f926001600160a01b0383169283156124cd578115612f93575f5b828110612f7157505f547f326b6aff1cd2fb1c8234de4f9dcfb9047c5c36eb9ef2eb34af5121e969a75d279286929091612f54918491612f4f9060101c6001600160a01b0316611194565b613cb9565b612f65604051928392339684612fce565b0390a3906108d7613217565b94612f8c600191611719612f86898789612fb9565b35613e1d565b9501612f04565b60405163edf3b93360e01b8152600490fd5b634e487b7160e01b5f52603260045260245ffd5b9190811015612fc95760051b0190565b612fa5565b604080825281018390529392916001600160fb1b0381116105ca5760209160609160051b809183880137850101930152565b908160209103126105ca5751610eed81610ab8565b908160209103126105ca5751610eed8161067f565b8181029291811591840414171561081957565b601254808210613103576011548083101561307e5750611c3590610eed92611c2e6130726013549365ffffffffffff93612bc6565b828460301c169061302a565b9050601454801580156130fa575b156130c45750610eed9165ffffffffffff6130ba6130b0611c359460015494612bc6565b8360d01c9061302a565b9160a01c16612c5c565b611c359150610eed926130f06130e46013549365ffffffffffff93612bc6565b828460901c169061302a565b9160601c16612c5c565b5080831061308c565b60405163d5b25b6360e01b8152600490fd5b65ffffffffffff8060135460601c168015918215613140575b505061313a5760105490565b600f5490565b90915061314c42613eb9565b16105f8061312e565b5f5460101c6001600160a01b0390811691160361317857601554610eed91613d12565b60405163350b944160e11b8152600490fd5b906131b090825f52600860205260405f209060018060a01b03165f5260205260405f2090565b54905f52600660205260405f2054600760205260405f20549060018101809111610819576001820180921161081957610eed92613d90565b5f80516020614bc783398151915260028154146132055760029055565b604051633ee5aeb560e01b8152600490fd5b60015f80516020614bc783398151915255565b335f908152600e602052604090209392919061324542613eb9565b335f908152600e6020526040902061325c90613fd3565b91848303928311610819576132977febff2602b3f468259e1e99f613fed6691f3a6526effe6ef3e768ba7ae7a36c4f93859361332699613bfb565b50506132b16132a542613eb9565b610cbd876116b3613f5f565b50506132cb6132bf42613eb9565b610ca8846116b3613eeb565b50506133748161335f6132e86132e36107e842613eb9565b612c4e565b61333e6132fd825f52600660205260405f2090565b54613310835f52600760205260405f2090565b5461331c82828b614026565b9d8e998a93612c5c565b613338855f52600660205260405f2090565b55612c5c565b613350825f52600760205260405f2090565b555f52600860205260405f2090565b9060018060a01b03165f5260205260405f2090565b61337f838254612c5c565b9055604080519485526020850195909552938301526001600160a01b03909216913391606090a3565b908160209103126105ca575163ffffffff811681036105ca5790565b90600163ffffffff8093160191821161081957565b908051156134a557806020806133f4935183010191016133a8565b6133fd81614297565b9061340e825165ffffffffffff1690565b9065ffffffffffff80851692168281146134995782119182613444575b505061343b5750610eed90614047565b60209150015190565b909150613452600a54612bb8565b63ffffffff83161491821561346b575b50505f8061342b565b613491919250613485613480611b19926133c4565b614297565b5165ffffffffffff1690565b115f80613462565b50505060209150015190565b50610eed90614047565b9080511561355a57806020806134ca935183010191016133a8565b6134d381614321565b906134e4825165ffffffffffff1690565b9065ffffffffffff80851692168281146134995782119182613511575b505061343b5750610eed9061410e565b90915061351f600c54612bb8565b63ffffffff831614918215613538575b50505f80613501565b61355291925061348561354d611b19926133c4565b614321565b115f8061352f565b50610eed9061410e565b91805115613626578060208061357f935183010191016133a8565b9161358a83826143a1565b9261359b845165ffffffffffff1690565b9065ffffffffffff808516921682811461361a57821191826135d1575b50506135c857610eed92506141ce565b50506020015190565b9091506135de8354612bb8565b63ffffffff8316149182156135f7575b50505f806135b8565b61361291925061348561360c611b19926133c4565b856143a1565b115f806135ee565b50505050506020015190565b50610eed916141ce565b335f9081527f03b26b53c87faa1058f30bb5d2fee64f717719a0d9b7e4f4df027aa5e9b6ed69602052604090207fbae4ee3de6c709ff9a002e774c5b78cb381560b219213c88ae0f1e207c03c0239060ff905b541615610fec5750565b335f9081527fe41986b390c4ce6791b87f7423b5fab7a81a0e6d89660b6264f697d008b2243a602052604090207fc6aaadd7371d5e8f9ed6849dd66a66573a3ba37167d03f4352c9ba5693678fac9060ff90613683565b335f9081527f99e47f2907af87dbb5c62e22bd8ea822f5011dfd1e243469ce26ebebf3ab93e3602052604090207f591f6a0113ada8aff67efadec8ae2fa585cb4ebf4e1f8fc1205ffbeff98d00ec9060ff90613683565b335f9081527f0287ab4cb376ea253d7b2ce0c2cbf458f7deae9458470d74afdfbbee484e9540602052604090207f9c56d972d63cbb4195b3c1484691dfc220fa96a4c47e7b6613bd82a022029e069060ff90613683565b5f8181525f80516020614ba783398151915260209081526040808320338452909152902060ff90613683565b5f8181525f80516020614ba7833981519152602081815260408084206001600160a01b03871685529091529091205460ff16613852575f828152602091825260408082206001600160a01b038616835290925220805460ff1916600117905533916001600160a01b0316907f2f8788117e7eff1d82e926ec794901d17c78024a50270940304540a733656f0d5f80a4600190565b5050505f90565b5f8181525f80516020614ba7833981519152602081815260408084206001600160a01b03871685529091529091205460ff1615613852575f828152602091825260408082206001600160a01b038616835290925220805460ff1916905533916001600160a01b0316907ff6391f5c32d9c69d2a47ea670b442974b53935d1edc7fd64eb21e047a839171b5f80a4600190565b6040516323b872dd60e01b60208201526001600160a01b03928316602482015292909116604483015260648083019390935291815260a08101918183106001600160401b03841117610889576108d79260405261440f565b600b54811015612fc957600b5f525f80516020614b8783398151915201905f90565b600d54811015612fc957600d5f525f80516020614b6783398151915201905f90565b8054821015612fc9575f5260205f2001905f90565b600d54600160401b811015610889576001810180600d55811015612fc957600d5f525f80516020614b678339815191520155565b600b54600160401b811015610889576001810180600b55811015612fc957600b5f525f80516020614b878339815191520155565b90815491600160401b8310156108895782613a279160016108d795018155613987565b90919082549060031b91821b915f19901b1916179055565b919091600d9081548015613aea575b50613a576144a2565b50929091815492613a66613eeb565b9481613ad5575b5015613ab257505f1982018281116108195781541115612fc9575f527fd7b6990105719101dabeb77144f2a3385c8033acd3af97e9423a695e81ad1eb4018390559190565b613ac6926001600160d01b0316915061469e565b5050613ad18361399c565b9190565b65ffffffffffff83811691161490505f613a6d565b600160401b8110156108895760018101808455811015612fc9575f908382525f80516020614b6783398151915201555f613a4e565b919091600b9081548015613bc6575b50613b376144f7565b50929091815492613b46613f5f565b9481613bb1575b5015613b9257505f1982018281116108195781541115612fc9575f527f0175b7a638427703f0dbe7bb9bbf987a2551717b34e79f33b5b1008d1fa01db8018390559190565b613ba6926001600160d01b0316915061476e565b5050613ad1836139d0565b65ffffffffffff83811691161490505f613b4d565b600160401b8110156108895760018101808455811015612fc9575f908382525f80516020614b8783398151915201555f613b2e565b90929192600182019081548015613c89575b5084613c188461454c565b50949092845493613c2883613fd3565b9681613c74575b5015613c51575050505f19810190811161081957613a278591613ad193613987565b613ad1949293613c6d926001600160d01b03909116919061480d565b5050613a04565b65ffffffffffff83811691161490505f613c2f565b600160401b81101561088957806001613ca59201845583613987565b8154905f199060031b1b191690555f613c0d565b60405163a9059cbb60e01b60208201526001600160a01b03909216602483015260448083019390935291815260808101916001600160401b03831182841017610889576108d79260405261440f565b8115612df0570490565b90808202905f1981840990828083109203918083039214613d8357633b9aca009082821115613d71577f88f2cfb83100cb4e69e7c79c58b316e597157d372fb9787e8e47ce423a2e9c6d940990828211900360f71b910360091c170290565b634e487b715f5260116020526024601cfd5b5050633b9aca0091500490565b91818302915f1981850993838086109503948086039514613e105784831115613e035790829109815f038216809204600280826003021880830282030280830282030280830282030280830282030280830282030280920290030293600183805f03040190848311900302920304170290565b8215600302601118614585565b505090610eed9250613d08565b90613e2a6107e842613eb9565b8210156131035760ff613e5a613e48845f52600960205260405f2090565b335f9081526020919091526040902090565b5416613ea757613e6a338361318a565b918215613e9557613e889061335f33915f52600960205260405f2090565b805460ff19166001179055565b6040516366c0bcbf60e11b8152600490fd5b604051630c8d9eab60e31b8152600490fd5b65ffffffffffff90818111613ecc571690565b604490604051906306dfcc6560e41b8252603060048301526024820152fd5b600c5480613f2657505f5b6001600160d01b03811615612da857600d54811015612fc957600d5f525f80516020614b67833981519152015490565b805f1981011161081957600c5f527fdf6966c971051c3d54ec59162606531493a51404a002842f56009d7e5cf4a8c6015460301c613ef6565b600a5480613f9a57505f5b6001600160d01b03811615612da857600b54811015612fc957600b5f525f80516020614b87833981519152015490565b805f1981011161081957600a5f527fc65a7bb8d6351c1cf70c95a316cc6a92839c986682d98bc35f958f4883f9d2a7015460301c613f6a565b80548061400857505f5b6001600160d01b03811615614002576001613ff89201613987565b90549060031b1c90565b50505f90565b5f1990808281011161081957825f5260205f2001015460301c613fdd565b919060018101809111610819576001820180921161081957610eed92613d90565b600a54905f8291600584116140b5575b61406193506149f2565b8061408457505f5b6001600160d01b03811615612da857613ff8610eed91613943565b6140a96140936140b092612bb8565b600a5f525f80516020614b478339815191520190565b5460301c90565b614069565b91926140c0816148c7565b81039081116108195761406193600a5f5265ffffffffffff80835f80516020614b47833981519152015416908516105f146140fc575091614057565b92915061410890612c4e565b90614057565b600c54905f829160058411614175575b6141289350614a5b565b8061414b57505f5b6001600160d01b03811615612da857613ff8610eed91613965565b6140a961415a61417092612bb8565b600c5f525f80516020614b278339815191520190565b614130565b9192614180816148c7565b81039081116108195761412893600c5f5265ffffffffffff80835f80516020614b27833981519152015416908516105f146141bc57509161411e565b9291506141c890612c4e565b9061411e565b908154905f829160058411614231575b6141e9935084614ac4565b8061421157505f905b6001600160d01b0382161561400257610eed916001613ff89201613987565b6140a961422061422b92612bb8565b835f5260205f200190565b906141f2565b919261423c816148c7565b8103908111610819576141e993855f5265ffffffffffff808360205f20015416908516105f1461426d5750916141de565b92915061427990612c4e565b906141de565b6040519061428c8261088e565b5f6020838281520152565b61429f61427f565b506142a861427f565b50600a54811015612fc957600a5f526020604051916142c68361088e565b5f80516020614b4783398151915201549165ffffffffffff83169283825260301c9182910152600b54811015612fc957600b5f525f80516020614b878339815191520154604051916143178361088e565b8252602082015290565b61432961427f565b5061433261427f565b50600c54811015612fc957600c5f526020604051916143508361088e565b5f80516020614b2783398151915201549165ffffffffffff83169283825260301c9182910152600d54811015612fc957600d5f525f80516020614b678339815191520154604051916143178361088e565b90602060016143c56143f1936143b561427f565b506143be61427f565b5085613987565b5093604051946143d48661088e565b549465ffffffffffff86169586825260301c938491015201613987565b905490604051926144018461088e565b835260031b1c602082015290565b905f602091828151910182855af115612c43575f513d61446057506001600160a01b0381163b155b61443e5750565b604051635274afe760e01b81526001600160a01b039091166004820152602490fd5b60011415614437565b91906001810180911161081957600182018092116108195761448c828285613d90565b928215612df05709151581018091116108195790565b600c54806144b357505f905f905f90565b805f1981011161081957600c5f527fdf6966c971051c3d54ec59162606531493a51404a002842f56009d7e5cf4a8c6015460019165ffffffffffff82169160301c90565b600a548061450857505f905f905f90565b805f1981011161081957600a5f527fc65a7bb8d6351c1cf70c95a316cc6a92839c986682d98bc35f958f4883f9d2a7015460019165ffffffffffff82169160301c90565b80548061455d5750505f905f905f90565b5f19918183810111610819575f5260205f2001015460019165ffffffffffff82169160301c90565b634e487b715f526020526024601cfd5b600c5490600160401b821015610889576001820180600c55821015612fc957600c5f52805160209091015160301b65ffffffffffff191665ffffffffffff91909116175f80516020614b2783398151915290910155565b600a5490600160401b821015610889576001820180600a55821015612fc957600a5f52805160209091015160301b65ffffffffffff191665ffffffffffff91909116175f80516020614b4783398151915290910155565b8054600160401b8110156108895761466091600182018155613987565b61468b57815160209092015160301b65ffffffffffff191665ffffffffffff92909216919091179055565b634e487b7160e01b5f525f60045260245ffd5b600c5491929180156147455761415a6146b691612bb8565b9081549165ffffffffffff90818416918316808311614733578692036146fb576146f492509065ffffffffffff82549181199060301b169116179055565b60301c9190565b505061472e9061471a61470c6108ca565b65ffffffffffff9092168252565b6001600160d01b0385166020820152614595565b6146f4565b604051632520601d60e01b8152600490fd5b506147699061475561470c6108ca565b6001600160d01b0384166020820152614595565b5f9190565b600a5491929180156147e95761409361478691612bb8565b9081549165ffffffffffff90818416918316808311614733578692036147c4576146f492509065ffffffffffff82549181199060301b169116179055565b505061472e906147d561470c6108ca565b6001600160d01b03851660208201526145ec565b50614769906147f961470c6108ca565b6001600160d01b03841660208201526145ec565b805492939280156148a25761482461482f91612bb8565b825f5260205f200190565b9182549265ffffffffffff918285169281168084116147335787930361486e57506146f492509065ffffffffffff82549181199060301b169116179055565b91505061472e9161488e6148806108ca565b65ffffffffffff9093168352565b6001600160d01b0386166020830152614643565b5090614769916148b36148806108ca565b6001600160d01b0385166020830152614643565b6001811115610eed57600181600160801b8110156149e0575b61498861497e61497461496a61496061495661499497600488600160401b61498f9a10156149d3575b6401000000008110156149c6575b620100008110156149b9575b6101008110156149ad575b60108110156149a1575b1015614999575b60030260011c61494f818b613d08565b0160011c90565b61494f818a613d08565b61494f8189613d08565b61494f8188613d08565b61494f8187613d08565b61494f8186613d08565b8093613d08565b821190565b900390565b60011b61493f565b811c9160021b91614938565b60081c91811b9161492e565b60101c9160081b91614923565b60201c9160101b91614917565b60401c9160201b91614909565b50600160401b9050608082901c6148e0565b905b828110614a0057505090565b9091808216906001818418811c830180931161081957600a5f5265ffffffffffff80845f80516020614b47833981519152015416908616105f14614a48575050915b906149f4565b9093925081018091116108195790614a42565b905b828110614a6957505090565b9091808216906001818418811c830180931161081957600c5f5265ffffffffffff80845f80516020614b27833981519152015416908616105f14614ab1575050915b90614a5d565b9093925081018091116108195790614aab565b91905b838210614ad45750505090565b909192808316906001818518811c830180931161081957855f5265ffffffffffff808460205f20015416908516105f14614b13575050925b9190614ac7565b9094935081018091116108195791614b0c56fedf6966c971051c3d54ec59162606531493a51404a002842f56009d7e5cf4a8c7c65a7bb8d6351c1cf70c95a316cc6a92839c986682d98bc35f958f4883f9d2a8d7b6990105719101dabeb77144f2a3385c8033acd3af97e9423a695e81ad1eb50175b7a638427703f0dbe7bb9bbf987a2551717b34e79f33b5b1008d1fa01db902dd7bc7dec4dceedda775e58dd541e08a116c6c53815c0bd028192f7b6268009b779b17422d0df92223018b32b4d1fa46e071723d6817e2486d003becc55f00a2646970667358221220a9f326954cff8e5263453131c97e40d00cc8e612c316b4d620d2fc7a34366ff964736f6c63430008190033","linkReferences":{}},"methodIdentifiers":{"DEFAULT_ADMIN_ROLE()":"a217fddf","DELEGATOR_FACTORY()":"6da3e06d","DEPOSITOR_WHITELIST_ROLE()":"1b66c9e1","DEPOSIT_LIMIT_SET_ROLE()":"a21a1df9","DEPOSIT_WHITELIST_SET_ROLE()":"db388715","EPOCH_DURATION_SET_ROLE()":"61819dd8","FLASH_FEE_BASE()":"ecc98f05","FLASH_FEE_RATE_SET_ROLE()":"bc46f722","FLASH_FEE_RECEIVER_SET_ROLE()":"31d9736c","IS_DEPOSIT_LIMIT_SET_ROLE()":"1415519b","RETURN_VALUE()":"653b04cd","SLASHER_FACTORY()":"87df0788","_Vault_init()":"dc0b1d71","activeBalanceOf(address)":"59f769a9","activeBalanceOfAt(address,uint48,bytes)":"efb559d6","activeShares()":"bfefcd7b","activeSharesAt(uint48,bytes)":"50f22068","activeSharesOf(address)":"9d66201b","activeSharesOfAt(address,uint48,bytes)":"2d73c69c","activeStake()":"bd49c35f","activeStakeAt(uint48,bytes)":"810da75d","burner()":"27810b6e","claim(address,uint256)":"aad3ec96","claimBatch(address,uint256[])":"7c04c80a","collateral()":"d8dfeb45","currentEpoch()":"76671808","currentEpochStart()":"61a8c8c4","delegator()":"ce9b7930","deposit(address,uint256)":"47e7ef24","depositLimit()":"ecf70858","depositWhitelist()":"48d3b775","epochAt(uint48)":"7953b33b","epochDuration()":"4ff0876a","epochDurationInit()":"46361671","epochDurationInitInternal()":"64601402","epochDurationInternal()":"1e89bd8a","epochDurationSetEpochsDelay()":"c642b050","epochDurationSetEpochsDelayInternal()":"fcdc5b60","epochInitInternal()":"0fcaeb1b","epochStart(uint256)":"aa9354a3","flashFee(address,uint256)":"d9d98ce4","flashFeeRate()":"e945da7f","flashFeeReceiver()":"a8b24f9a","flashLoan(address,address,uint256,bytes)":"5cffe9de","getRoleAdmin(bytes32)":"248a9ca3","grantRole(bytes32,address)":"2f2ff15d","hasRole(bytes32,address)":"91d14854","isDelegatorInitialized()":"50861adc","isDepositLimit()":"a1b12202","isDepositorWhitelisted(address)":"794b15b7","isInitialized()":"392e53cd","isSlasherInitialized()":"6ec1e3f8","isWithdrawalsClaimed(uint256,address)":"a5d03223","maxFlashLoan(address)":"613255ab","nextEpochDurationInitInternal()":"75d6c765","nextEpochDurationInternal()":"502b4d60","nextEpochDurationSetEpochsDelayInternal()":"bc4f8c05","nextEpochInitInternal()":"ddd0f28a","nextEpochStart()":"73790ab3","onSlash(uint256,uint48)":"7278e31c","prevEpochDurationInitInternal()":"8d30d7a7","prevEpochDurationInternal()":"7e84ec81","prevEpochInitInternal()":"d2356eb5","previousEpochStart()":"281f5752","redeem(address,uint256)":"1e9a6950","renounceRole(bytes32,address)":"36568abe","revokeRole(bytes32,address)":"d547741f","setDelegator(address)":"83cd9cc3","setDepositLimit(uint256)":"bdc8144b","setDepositWhitelist(bool)":"4105a7dd","setDepositorWhitelistStatus(address,bool)":"a2861466","setEpochDuration(uint48,uint256)":"83f46c2c","setFlashFeeRate(uint256)":"d626811b","setFlashFeeReceiver(address)":"52741a40","setIsDepositLimit(bool)":"5346e34f","setSlasher(address)":"aabc2496","slashableBalanceOf(address)":"c31e8dd7","slasher()":"b1344271","staticDelegateCall(address,bytes)":"9f86fd85","supportsInterface(bytes4)":"01ffc9a7","totalStake()":"8b0e9f3f","withdraw(address,uint256)":"f3fef3a3","withdrawalShares(uint256)":"afba70ad","withdrawalSharesOf(uint256,address)":"a3b54172","withdrawals(uint256)":"5cc07076","withdrawalsOf(uint256,address)":"f5e7ee0f"},"id":107}