{"abi":[{"type":"constructor","inputs":[{"name":"delegatorFactory","type":"address","internalType":"address"},{"name":"slasherFactory","type":"address","internalType":"address"}],"stateMutability":"nonpayable"},{"type":"function","name":"DEFAULT_ADMIN_ROLE","inputs":[],"outputs":[{"name":"","type":"bytes32","internalType":"bytes32"}],"stateMutability":"view"},{"type":"function","name":"DELEGATOR_FACTORY","inputs":[],"outputs":[{"name":"","type":"address","internalType":"address"}],"stateMutability":"view"},{"type":"function","name":"DEPOSITOR_WHITELIST_ROLE","inputs":[],"outputs":[{"name":"","type":"bytes32","internalType":"bytes32"}],"stateMutability":"view"},{"type":"function","name":"DEPOSIT_LIMIT_SET_ROLE","inputs":[],"outputs":[{"name":"","type":"bytes32","internalType":"bytes32"}],"stateMutability":"view"},{"type":"function","name":"DEPOSIT_WHITELIST_SET_ROLE","inputs":[],"outputs":[{"name":"","type":"bytes32","internalType":"bytes32"}],"stateMutability":"view"},{"type":"function","name":"EPOCH_DURATION_SET_ROLE","inputs":[],"outputs":[{"name":"","type":"bytes32","internalType":"bytes32"}],"stateMutability":"view"},{"type":"function","name":"FLASH_FEE_BASE","inputs":[],"outputs":[{"name":"","type":"uint256","internalType":"uint256"}],"stateMutability":"view"},{"type":"function","name":"FLASH_FEE_RATE_SET_ROLE","inputs":[],"outputs":[{"name":"","type":"bytes32","internalType":"bytes32"}],"stateMutability":"view"},{"type":"function","name":"FLASH_FEE_RECEIVER_SET_ROLE","inputs":[],"outputs":[{"name":"","type":"bytes32","internalType":"bytes32"}],"stateMutability":"view"},{"type":"function","name":"IS_DEPOSIT_LIMIT_SET_ROLE","inputs":[],"outputs":[{"name":"","type":"bytes32","internalType":"bytes32"}],"stateMutability":"view"},{"type":"function","name":"RETURN_VALUE","inputs":[],"outputs":[{"name":"","type":"bytes32","internalType":"bytes32"}],"stateMutability":"view"},{"type":"function","name":"SLASHER_FACTORY","inputs":[],"outputs":[{"name":"","type":"address","internalType":"address"}],"stateMutability":"view"},{"type":"function","name":"_Vault_init","inputs":[],"outputs":[],"stateMutability":"nonpayable"},{"type":"function","name":"_epochDuration","inputs":[],"outputs":[{"name":"","type":"uint48","internalType":"uint48"}],"stateMutability":"view"},{"type":"function","name":"_epochDurationInit","inputs":[],"outputs":[{"name":"","type":"uint48","internalType":"uint48"}],"stateMutability":"view"},{"type":"function","name":"_epochDurationInitIndex","inputs":[],"outputs":[{"name":"","type":"uint256","internalType":"uint256"}],"stateMutability":"view"},{"type":"function","name":"_epochDurationSetEpochsDelay","inputs":[],"outputs":[{"name":"","type":"uint256","internalType":"uint256"}],"stateMutability":"view"},{"type":"function","name":"_nextEpochDuration","inputs":[],"outputs":[{"name":"","type":"uint48","internalType":"uint48"}],"stateMutability":"view"},{"type":"function","name":"_nextEpochDurationInit","inputs":[],"outputs":[{"name":"","type":"uint48","internalType":"uint48"}],"stateMutability":"view"},{"type":"function","name":"_nextEpochDurationSetEpochsDelay","inputs":[],"outputs":[{"name":"","type":"uint256","internalType":"uint256"}],"stateMutability":"view"},{"type":"function","name":"_nextEpochInitIndex","inputs":[],"outputs":[{"name":"","type":"uint256","internalType":"uint256"}],"stateMutability":"view"},{"type":"function","name":"_prevEpochDuration","inputs":[],"outputs":[{"name":"","type":"uint48","internalType":"uint48"}],"stateMutability":"view"},{"type":"function","name":"_prevEpochDurationInit","inputs":[],"outputs":[{"name":"","type":"uint48","internalType":"uint48"}],"stateMutability":"view"},{"type":"function","name":"_prevEpochDurationInitIndex","inputs":[],"outputs":[{"name":"","type":"uint256","internalType":"uint256"}],"stateMutability":"view"},{"type":"function","name":"activeBalanceOf","inputs":[{"name":"account","type":"address","internalType":"address"}],"outputs":[{"name":"","type":"uint256","internalType":"uint256"}],"stateMutability":"view"},{"type":"function","name":"activeBalanceOfAt","inputs":[{"name":"account","type":"address","internalType":"address"},{"name":"timestamp","type":"uint48","internalType":"uint48"},{"name":"hints","type":"bytes","internalType":"bytes"}],"outputs":[{"name":"","type":"uint256","internalType":"uint256"}],"stateMutability":"view"},{"type":"function","name":"activeShares","inputs":[],"outputs":[{"name":"","type":"uint256","internalType":"uint256"}],"stateMutability":"view"},{"type":"function","name":"activeSharesAt","inputs":[{"name":"timestamp","type":"uint48","internalType":"uint48"},{"name":"hint","type":"bytes","internalType":"bytes"}],"outputs":[{"name":"","type":"uint256","internalType":"uint256"}],"stateMutability":"view"},{"type":"function","name":"activeSharesOf","inputs":[{"name":"account","type":"address","internalType":"address"}],"outputs":[{"name":"","type":"uint256","internalType":"uint256"}],"stateMutability":"view"},{"type":"function","name":"activeSharesOfAt","inputs":[{"name":"account","type":"address","internalType":"address"},{"name":"timestamp","type":"uint48","internalType":"uint48"},{"name":"hint","type":"bytes","internalType":"bytes"}],"outputs":[{"name":"","type":"uint256","internalType":"uint256"}],"stateMutability":"view"},{"type":"function","name":"activeStake","inputs":[],"outputs":[{"name":"","type":"uint256","internalType":"uint256"}],"stateMutability":"view"},{"type":"function","name":"activeStakeAt","inputs":[{"name":"timestamp","type":"uint48","internalType":"uint48"},{"name":"hint","type":"bytes","internalType":"bytes"}],"outputs":[{"name":"","type":"uint256","internalType":"uint256"}],"stateMutability":"view"},{"type":"function","name":"burner","inputs":[],"outputs":[{"name":"","type":"address","internalType":"address"}],"stateMutability":"view"},{"type":"function","name":"claim","inputs":[{"name":"recipient","type":"address","internalType":"address"},{"name":"epoch","type":"uint256","internalType":"uint256"}],"outputs":[{"name":"amount","type":"uint256","internalType":"uint256"}],"stateMutability":"nonpayable"},{"type":"function","name":"claimBatch","inputs":[{"name":"recipient","type":"address","internalType":"address"},{"name":"epochs","type":"uint256[]","internalType":"uint256[]"}],"outputs":[{"name":"amount","type":"uint256","internalType":"uint256"}],"stateMutability":"nonpayable"},{"type":"function","name":"collateral","inputs":[],"outputs":[{"name":"","type":"address","internalType":"address"}],"stateMutability":"view"},{"type":"function","name":"currentEpoch","inputs":[],"outputs":[{"name":"","type":"uint256","internalType":"uint256"}],"stateMutability":"view"},{"type":"function","name":"currentEpochStart","inputs":[],"outputs":[{"name":"","type":"uint48","internalType":"uint48"}],"stateMutability":"view"},{"type":"function","name":"delegator","inputs":[],"outputs":[{"name":"","type":"address","internalType":"address"}],"stateMutability":"view"},{"type":"function","name":"deposit","inputs":[{"name":"onBehalfOf","type":"address","internalType":"address"},{"name":"amount","type":"uint256","internalType":"uint256"}],"outputs":[{"name":"depositedAmount","type":"uint256","internalType":"uint256"},{"name":"mintedShares","type":"uint256","internalType":"uint256"}],"stateMutability":"nonpayable"},{"type":"function","name":"depositLimit","inputs":[],"outputs":[{"name":"","type":"uint256","internalType":"uint256"}],"stateMutability":"view"},{"type":"function","name":"depositWhitelist","inputs":[],"outputs":[{"name":"","type":"bool","internalType":"bool"}],"stateMutability":"view"},{"type":"function","name":"epochAt","inputs":[{"name":"timestamp","type":"uint48","internalType":"uint48"}],"outputs":[{"name":"","type":"uint256","internalType":"uint256"}],"stateMutability":"view"},{"type":"function","name":"epochDuration","inputs":[],"outputs":[{"name":"","type":"uint48","internalType":"uint48"}],"stateMutability":"view"},{"type":"function","name":"epochDurationInit","inputs":[],"outputs":[{"name":"","type":"uint48","internalType":"uint48"}],"stateMutability":"view"},{"type":"function","name":"epochDurationSetEpochsDelay","inputs":[],"outputs":[{"name":"","type":"uint256","internalType":"uint256"}],"stateMutability":"view"},{"type":"function","name":"epochStart","inputs":[{"name":"epoch","type":"uint256","internalType":"uint256"}],"outputs":[{"name":"","type":"uint48","internalType":"uint48"}],"stateMutability":"view"},{"type":"function","name":"flashFee","inputs":[{"name":"token","type":"address","internalType":"address"},{"name":"value","type":"uint256","internalType":"uint256"}],"outputs":[{"name":"","type":"uint256","internalType":"uint256"}],"stateMutability":"view"},{"type":"function","name":"flashFeeRate","inputs":[],"outputs":[{"name":"","type":"uint256","internalType":"uint256"}],"stateMutability":"view"},{"type":"function","name":"flashFeeReceiver","inputs":[],"outputs":[{"name":"","type":"address","internalType":"address"}],"stateMutability":"view"},{"type":"function","name":"flashLoan","inputs":[{"name":"receiver","type":"address","internalType":"contract IERC3156FlashBorrower"},{"name":"token","type":"address","internalType":"address"},{"name":"value","type":"uint256","internalType":"uint256"},{"name":"data","type":"bytes","internalType":"bytes"}],"outputs":[{"name":"","type":"bool","internalType":"bool"}],"stateMutability":"nonpayable"},{"type":"function","name":"getRoleAdmin","inputs":[{"name":"role","type":"bytes32","internalType":"bytes32"}],"outputs":[{"name":"","type":"bytes32","internalType":"bytes32"}],"stateMutability":"view"},{"type":"function","name":"grantRole","inputs":[{"name":"role","type":"bytes32","internalType":"bytes32"},{"name":"account","type":"address","internalType":"address"}],"outputs":[],"stateMutability":"nonpayable"},{"type":"function","name":"hasRole","inputs":[{"name":"role","type":"bytes32","internalType":"bytes32"},{"name":"account","type":"address","internalType":"address"}],"outputs":[{"name":"","type":"bool","internalType":"bool"}],"stateMutability":"view"},{"type":"function","name":"isDelegatorInitialized","inputs":[],"outputs":[{"name":"","type":"bool","internalType":"bool"}],"stateMutability":"view"},{"type":"function","name":"isDepositLimit","inputs":[],"outputs":[{"name":"","type":"bool","internalType":"bool"}],"stateMutability":"view"},{"type":"function","name":"isDepositorWhitelisted","inputs":[{"name":"account","type":"address","internalType":"address"}],"outputs":[{"name":"value","type":"bool","internalType":"bool"}],"stateMutability":"view"},{"type":"function","name":"isInitialized","inputs":[],"outputs":[{"name":"","type":"bool","internalType":"bool"}],"stateMutability":"view"},{"type":"function","name":"isSlasherInitialized","inputs":[],"outputs":[{"name":"","type":"bool","internalType":"bool"}],"stateMutability":"view"},{"type":"function","name":"isWithdrawalsClaimed","inputs":[{"name":"epoch","type":"uint256","internalType":"uint256"},{"name":"account","type":"address","internalType":"address"}],"outputs":[{"name":"value","type":"bool","internalType":"bool"}],"stateMutability":"view"},{"type":"function","name":"maxFlashLoan","inputs":[{"name":"token","type":"address","internalType":"address"}],"outputs":[{"name":"","type":"uint256","internalType":"uint256"}],"stateMutability":"view"},{"type":"function","name":"nextEpochStart","inputs":[],"outputs":[{"name":"","type":"uint48","internalType":"uint48"}],"stateMutability":"view"},{"type":"function","name":"onSlash","inputs":[{"name":"amount","type":"uint256","internalType":"uint256"},{"name":"captureTimestamp","type":"uint48","internalType":"uint48"}],"outputs":[{"name":"slashedAmount","type":"uint256","internalType":"uint256"}],"stateMutability":"nonpayable"},{"type":"function","name":"previousEpochStart","inputs":[],"outputs":[{"name":"","type":"uint48","internalType":"uint48"}],"stateMutability":"view"},{"type":"function","name":"redeem","inputs":[{"name":"claimer","type":"address","internalType":"address"},{"name":"shares","type":"uint256","internalType":"uint256"}],"outputs":[{"name":"withdrawnAssets","type":"uint256","internalType":"uint256"},{"name":"mintedShares","type":"uint256","internalType":"uint256"}],"stateMutability":"nonpayable"},{"type":"function","name":"renounceRole","inputs":[{"name":"role","type":"bytes32","internalType":"bytes32"},{"name":"callerConfirmation","type":"address","internalType":"address"}],"outputs":[],"stateMutability":"nonpayable"},{"type":"function","name":"revokeRole","inputs":[{"name":"role","type":"bytes32","internalType":"bytes32"},{"name":"account","type":"address","internalType":"address"}],"outputs":[],"stateMutability":"nonpayable"},{"type":"function","name":"setDelegator","inputs":[{"name":"delegator_","type":"address","internalType":"address"}],"outputs":[],"stateMutability":"nonpayable"},{"type":"function","name":"setDepositLimit","inputs":[{"name":"limit","type":"uint256","internalType":"uint256"}],"outputs":[],"stateMutability":"nonpayable"},{"type":"function","name":"setDepositWhitelist","inputs":[{"name":"status","type":"bool","internalType":"bool"}],"outputs":[],"stateMutability":"nonpayable"},{"type":"function","name":"setDepositorWhitelistStatus","inputs":[{"name":"account","type":"address","internalType":"address"},{"name":"status","type":"bool","internalType":"bool"}],"outputs":[],"stateMutability":"nonpayable"},{"type":"function","name":"setEpochDuration","inputs":[{"name":"epochDuration_","type":"uint48","internalType":"uint48"},{"name":"epochDurationSetEpochsDelay_","type":"uint256","internalType":"uint256"}],"outputs":[],"stateMutability":"nonpayable"},{"type":"function","name":"setFlashFeeRate","inputs":[{"name":"flashFeeRate_","type":"uint256","internalType":"uint256"}],"outputs":[],"stateMutability":"nonpayable"},{"type":"function","name":"setFlashFeeReceiver","inputs":[{"name":"flashFeeReceiver_","type":"address","internalType":"address"}],"outputs":[],"stateMutability":"nonpayable"},{"type":"function","name":"setIsDepositLimit","inputs":[{"name":"status","type":"bool","internalType":"bool"}],"outputs":[],"stateMutability":"nonpayable"},{"type":"function","name":"setSlasher","inputs":[{"name":"slasher_","type":"address","internalType":"address"}],"outputs":[],"stateMutability":"nonpayable"},{"type":"function","name":"slashableBalanceOf","inputs":[{"name":"account","type":"address","internalType":"address"}],"outputs":[{"name":"","type":"uint256","internalType":"uint256"}],"stateMutability":"view"},{"type":"function","name":"slasher","inputs":[],"outputs":[{"name":"","type":"address","internalType":"address"}],"stateMutability":"view"},{"type":"function","name":"staticDelegateCall","inputs":[{"name":"target","type":"address","internalType":"address"},{"name":"data","type":"bytes","internalType":"bytes"}],"outputs":[],"stateMutability":"nonpayable"},{"type":"function","name":"supportsInterface","inputs":[{"name":"interfaceId","type":"bytes4","internalType":"bytes4"}],"outputs":[{"name":"","type":"bool","internalType":"bool"}],"stateMutability":"view"},{"type":"function","name":"totalStake","inputs":[],"outputs":[{"name":"","type":"uint256","internalType":"uint256"}],"stateMutability":"view"},{"type":"function","name":"withdraw","inputs":[{"name":"claimer","type":"address","internalType":"address"},{"name":"amount","type":"uint256","internalType":"uint256"}],"outputs":[{"name":"burnedShares","type":"uint256","internalType":"uint256"},{"name":"mintedShares","type":"uint256","internalType":"uint256"}],"stateMutability":"nonpayable"},{"type":"function","name":"withdrawalShares","inputs":[{"name":"epoch","type":"uint256","internalType":"uint256"}],"outputs":[{"name":"amount","type":"uint256","internalType":"uint256"}],"stateMutability":"view"},{"type":"function","name":"withdrawalSharesOf","inputs":[{"name":"epoch","type":"uint256","internalType":"uint256"},{"name":"account","type":"address","internalType":"address"}],"outputs":[{"name":"amount","type":"uint256","internalType":"uint256"}],"stateMutability":"view"},{"type":"function","name":"withdrawals","inputs":[{"name":"epoch","type":"uint256","internalType":"uint256"}],"outputs":[{"name":"amount","type":"uint256","internalType":"uint256"}],"stateMutability":"view"},{"type":"function","name":"withdrawalsOf","inputs":[{"name":"epoch","type":"uint256","internalType":"uint256"},{"name":"account","type":"address","internalType":"address"}],"outputs":[{"name":"","type":"uint256","internalType":"uint256"}],"stateMutability":"view"},{"type":"event","name":"AcceptEpochDuration","inputs":[],"anonymous":false},{"type":"event","name":"Claim","inputs":[{"name":"claimer","type":"address","indexed":true,"internalType":"address"},{"name":"recipient","type":"address","indexed":true,"internalType":"address"},{"name":"epoch","type":"uint256","indexed":false,"internalType":"uint256"},{"name":"amount","type":"uint256","indexed":false,"internalType":"uint256"}],"anonymous":false},{"type":"event","name":"ClaimBatch","inputs":[{"name":"claimer","type":"address","indexed":true,"internalType":"address"},{"name":"recipient","type":"address","indexed":true,"internalType":"address"},{"name":"epochs","type":"uint256[]","indexed":false,"internalType":"uint256[]"},{"name":"amount","type":"uint256","indexed":false,"internalType":"uint256"}],"anonymous":false},{"type":"event","name":"Deposit","inputs":[{"name":"depositor","type":"address","indexed":true,"internalType":"address"},{"name":"onBehalfOf","type":"address","indexed":true,"internalType":"address"},{"name":"amount","type":"uint256","indexed":false,"internalType":"uint256"},{"name":"shares","type":"uint256","indexed":false,"internalType":"uint256"}],"anonymous":false},{"type":"event","name":"Initialized","inputs":[{"name":"version","type":"uint64","indexed":false,"internalType":"uint64"}],"anonymous":false},{"type":"event","name":"OnSlash","inputs":[{"name":"amount","type":"uint256","indexed":false,"internalType":"uint256"},{"name":"captureTimestamp","type":"uint48","indexed":false,"internalType":"uint48"},{"name":"slashedAmount","type":"uint256","indexed":false,"internalType":"uint256"}],"anonymous":false},{"type":"event","name":"RoleAdminChanged","inputs":[{"name":"role","type":"bytes32","indexed":true,"internalType":"bytes32"},{"name":"previousAdminRole","type":"bytes32","indexed":true,"internalType":"bytes32"},{"name":"newAdminRole","type":"bytes32","indexed":true,"internalType":"bytes32"}],"anonymous":false},{"type":"event","name":"RoleGranted","inputs":[{"name":"role","type":"bytes32","indexed":true,"internalType":"bytes32"},{"name":"account","type":"address","indexed":true,"internalType":"address"},{"name":"sender","type":"address","indexed":true,"internalType":"address"}],"anonymous":false},{"type":"event","name":"RoleRevoked","inputs":[{"name":"role","type":"bytes32","indexed":true,"internalType":"bytes32"},{"name":"account","type":"address","indexed":true,"internalType":"address"},{"name":"sender","type":"address","indexed":true,"internalType":"address"}],"anonymous":false},{"type":"event","name":"SetDelegator","inputs":[{"name":"delegator","type":"address","indexed":true,"internalType":"address"}],"anonymous":false},{"type":"event","name":"SetDepositLimit","inputs":[{"name":"limit","type":"uint256","indexed":false,"internalType":"uint256"}],"anonymous":false},{"type":"event","name":"SetDepositWhitelist","inputs":[{"name":"status","type":"bool","indexed":false,"internalType":"bool"}],"anonymous":false},{"type":"event","name":"SetDepositorWhitelistStatus","inputs":[{"name":"account","type":"address","indexed":true,"internalType":"address"},{"name":"status","type":"bool","indexed":false,"internalType":"bool"}],"anonymous":false},{"type":"event","name":"SetEpochDuration","inputs":[{"name":"epochDuration","type":"uint48","indexed":false,"internalType":"uint48"},{"name":"epochDurationSetEpochsDelay","type":"uint256","indexed":false,"internalType":"uint256"}],"anonymous":false},{"type":"event","name":"SetFlashFeeRate","inputs":[{"name":"flashFeeRate","type":"uint256","indexed":false,"internalType":"uint256"}],"anonymous":false},{"type":"event","name":"SetFlashFeeReceiver","inputs":[{"name":"flashFeeReceiver","type":"address","indexed":false,"internalType":"address"}],"anonymous":false},{"type":"event","name":"SetIsDepositLimit","inputs":[{"name":"status","type":"bool","indexed":false,"internalType":"bool"}],"anonymous":false},{"type":"event","name":"SetSlasher","inputs":[{"name":"slasher","type":"address","indexed":true,"internalType":"address"}],"anonymous":false},{"type":"event","name":"Withdraw","inputs":[{"name":"withdrawer","type":"address","indexed":true,"internalType":"address"},{"name":"claimer","type":"address","indexed":true,"internalType":"address"},{"name":"amount","type":"uint256","indexed":false,"internalType":"uint256"},{"name":"burnedShares","type":"uint256","indexed":false,"internalType":"uint256"},{"name":"mintedShares","type":"uint256","indexed":false,"internalType":"uint256"}],"anonymous":false},{"type":"error","name":"AccessControlBadConfirmation","inputs":[]},{"type":"error","name":"AccessControlUnauthorizedAccount","inputs":[{"name":"account","type":"address","internalType":"address"},{"name":"neededRole","type":"bytes32","internalType":"bytes32"}]},{"type":"error","name":"AlreadyClaimed","inputs":[]},{"type":"error","name":"AlreadySet","inputs":[]},{"type":"error","name":"CheckpointUnorderedInsertion","inputs":[]},{"type":"error","name":"DelegatorAlreadyInitialized","inputs":[]},{"type":"error","name":"DepositLimitReached","inputs":[]},{"type":"error","name":"InsufficientClaim","inputs":[]},{"type":"error","name":"InsufficientDeposit","inputs":[]},{"type":"error","name":"InsufficientExitWindow","inputs":[]},{"type":"error","name":"InsufficientRedemption","inputs":[]},{"type":"error","name":"InsufficientWithdrawal","inputs":[]},{"type":"error","name":"InvalidAccount","inputs":[]},{"type":"error","name":"InvalidCaptureEpoch","inputs":[]},{"type":"error","name":"InvalidClaimer","inputs":[]},{"type":"error","name":"InvalidCollateral","inputs":[]},{"type":"error","name":"InvalidDelegator","inputs":[]},{"type":"error","name":"InvalidEpoch","inputs":[]},{"type":"error","name":"InvalidEpochDuration","inputs":[]},{"type":"error","name":"InvalidEpochDurationSetEpochsDelay","inputs":[]},{"type":"error","name":"InvalidFlashParams","inputs":[]},{"type":"error","name":"InvalidInitialization","inputs":[]},{"type":"error","name":"InvalidLengthEpochs","inputs":[]},{"type":"error","name":"InvalidNewEpochDuration","inputs":[]},{"type":"error","name":"InvalidOnBehalfOf","inputs":[]},{"type":"error","name":"InvalidReceiver","inputs":[]},{"type":"error","name":"InvalidRecipient","inputs":[]},{"type":"error","name":"InvalidReturnAmount","inputs":[]},{"type":"error","name":"InvalidSlasher","inputs":[]},{"type":"error","name":"InvalidTimestamp","inputs":[]},{"type":"error","name":"MaxLoanExceeded","inputs":[]},{"type":"error","name":"MissingRoles","inputs":[]},{"type":"error","name":"NewEpochDurationNotReady","inputs":[]},{"type":"error","name":"NoDepositWhitelist","inputs":[]},{"type":"error","name":"NoPreviousEpoch","inputs":[]},{"type":"error","name":"NotDelegator","inputs":[]},{"type":"error","name":"NotInitializing","inputs":[]},{"type":"error","name":"NotSlasher","inputs":[]},{"type":"error","name":"NotWhitelistedDepositor","inputs":[]},{"type":"error","name":"ReentrancyGuardReentrantCall","inputs":[]},{"type":"error","name":"SafeCastOverflowedUintDowncast","inputs":[{"name":"bits","type":"uint8","internalType":"uint8"},{"name":"value","type":"uint256","internalType":"uint256"}]},{"type":"error","name":"SafeERC20FailedOperation","inputs":[{"name":"token","type":"address","internalType":"address"}]},{"type":"error","name":"SlasherAlreadyInitialized","inputs":[]},{"type":"error","name":"TooMuchRedeem","inputs":[]},{"type":"error","name":"TooMuchWithdraw","inputs":[]},{"type":"error","name":"UnsupportedToken","inputs":[]}],"bytecode":{"object":"0x60c034608157601f614c2e38819003918201601f19168301916001600160401b038311848410176085578084926040948552833981010312608157604b60206045836099565b92016099565b9060805260a052604051614b8190816100ad823960805181818161143801526118fe015260a051818181611d2101526122660152f35b5f80fd5b634e487b7160e01b5f52604160045260245ffd5b51906001600160a01b038216820360815756fe60806040526004361015610011575f80fd5b5f3560e01c806301ffc9a7146105745780631415519b1461056f5780631b66c9e11461056a5780631e9a695014610565578063248a9ca3146105605780632749f9c41461055b57806327810b6e14610556578063281f5752146105515780632d73c69c1461054c5780632f2ff15d146105475780632fa27fae1461054257806331d9736c1461053d57806336568abe14610538578063392e53cd146105335780634105a7dd1461052e578063463616711461052957806347e7ef241461052457806348d3b7751461051f5780634ff0876a1461051a57806350861adc1461051557806350f220681461051057806352741a401461050b5780635346e34f1461050657806359f769a9146105015780635a36aa74146104fc5780635cc07076146104f75780635cffe9de146104f2578063613255ab146104ed57806361819dd8146104e857806361a8c8c4146104e3578063653b04cd146104de5780636da3e06d146104d95780636e0f2455146104d45780636ec1e3f8146104cf5780637278e31c146104ca57806373790ab3146104c557806376671808146104c0578063794b15b7146104bb5780637953b33b146104b65780637c04c80a146104b1578063810da75d146104ac57806383cd9cc3146104a757806383f46c2c146104a257806387df07881461049d5780638b0e9f3f1461049857806391d148541461049357806398ccba4a1461048e5780639b4bae3e146104895780639d66201b146104845780639f86fd851461047f5780639f9962dd1461047a578063a1b1220214610475578063a217fddf14610470578063a21a1df91461046b578063a286146614610466578063a3b5417214610461578063a5d032231461045c578063a8b24f9a14610457578063aa9354a314610452578063aabc24961461044d578063aad3ec9614610448578063afba70ad14610443578063b13442711461043e578063bba6ff4a14610439578063bc46f72214610434578063bd49c35f1461042f578063bdc8144b1461042a578063bfefcd7b14610425578063c1bc6f5114610420578063c31e8dd71461041b578063c4db46fc14610416578063c642b05014610411578063cc52aee71461040c578063ce9b793014610407578063d547741f14610402578063d626811b146103fd578063d8dfeb45146103f8578063d9d98ce4146103f3578063db388715146103ee578063dc0b1d71146103e9578063e945da7f146103e4578063ecc98f05146103df578063ecf70858146103da578063efb559d6146103d5578063f3fef3a3146103d05763f5e7ee0f146103cb575f80fd5b612ace565b612a28565b6128dd565b6128c0565b6128a2565b612885565b612873565b612839565b61280e565b6127e3565b612723565b6126d7565b6126af565b612687565b61266d565b612650565b6125e2565b6125ba565b6125a0565b6124e0565b6124c6565b61248c565b61246f565b612447565b61241d565b61235c565b6121b3565b612195565b61216d565b612127565b6120da565b611ff5565b611fbb565b611fa1565b611f7d565b611f55565b611e88565b611e4e565b611e31565b611e14565b611db6565b611d50565b611d0c565b611a44565b611899565b611880565b61181a565b6117fc565b6117bc565b61179e565b61176c565b6114b1565b61148c565b611467565b611423565b6113e9565b6113c3565b611389565b611362565b61110f565b6110b8565b611090565b611069565b610fe2565b610ee1565b610ec8565b610e62565b610e48565b610e27565b610b77565b610b5d565b610ac2565b610a7d565b610a32565b6109f8565b6109d8565b61098a565b61091a565b6107ac565b610784565b610767565b61072e565b610653565b610608565b6105ce565b346105ca5760203660031901126105ca5760043563ffffffff60e01b81168091036105ca57602090637965db0b60e01b81149081156105b9575b506040519015158152f35b6301ffc9a760e01b1490505f6105ae565b5f80fd5b346105ca575f3660031901126105ca5760206040517fc6aaadd7371d5e8f9ed6849dd66a66573a3ba37167d03f4352c9ba5693678fac8152f35b346105ca575f3660031901126105ca5760206040517f9c56d972d63cbb4195b3c1484691dfc220fa96a4c47e7b6613bd82a022029e068152f35b6001600160a01b038116036105ca57565b346105ca5760403660031901126105ca5760043561067081610642565b6024359061067c61314d565b6001600160a01b0381161561071d57335f908152600e602052604090206106a790613f38565b613f38565b821161070b576106c76106b8613e50565b6106c0613ec4565b9084613f8b565b9182156106f657826106d89261318f565b906106e161317c565b604080519182526020820192909252f35b0390f35b60405160016245ddc760e11b03198152600490fd5b604051632418411f60e11b8152600490fd5b6040516208978560e71b8152600490fd5b346105ca5760203660031901126105ca576004355f525f80516020614b0c8339815191526020526020600160405f200154604051908152f35b346105ca575f3660031901126105ca576020601454604051908152f35b346105ca575f3660031901126105ca576001546040516001600160a01b039091168152602090f35b346105ca575f3660031901126105ca576107cd6107c842613e1e565b612d49565b80156107fe575f1981019081116107f9576107e9602091612f91565b65ffffffffffff60405191168152f35b612af8565b604051639fa56a5b60e01b8152600490fd5b6024359065ffffffffffff821682036105ca57565b6004359065ffffffffffff821682036105ca57565b634e487b7160e01b5f52604160045260245ffd5b606081019081106001600160401b0382111761086957604052565b61083a565b604081019081106001600160401b0382111761086957604052565b90601f801991011681019081106001600160401b0382111761086957604052565b604051906108b78261086e565b565b6001600160401b03811161086957601f01601f191660200190565b81601f820112156105ca578035906108eb826108b9565b926108f96040519485610889565b828452602083830101116105ca57815f926020809301838601378301015290565b346105ca5760603660031901126105ca5760043561093781610642565b61093f610810565b90604435906001600160401b0382116105ca576020926109666109829336906004016108d4565b6001600160a01b039092165f908152600e8552604090206134c9565b604051908152f35b346105ca5760403660031901126105ca576109d66024356004356109ad82610642565b805f525f80516020614b0c8339815191526020526109d1600160405f2001546136f7565b613723565b005b346105ca575f3660031901126105ca57602060015460d01c604051908152f35b346105ca575f3660031901126105ca5760206040517f5295aaaa27fdd659293eafacbfafbc634c1b96298957e87de5f59308cdbfdad18152f35b346105ca5760403660031901126105ca57602435610a4f81610642565b336001600160a01b03821603610a6b576109d6906004356137be565b60405163334bd91960e11b8152600490fd5b346105ca575f3660031901126105ca5760ff60025460a01c1680610aa9575b6020906040519015158152f35b5060035460a01c60ff16610a9c565b801515036105ca57565b346105ca5760203660031901126105ca57600435610adf81610ab8565b610ae761314d565b610aef613595565b5f54901515908160ff8216151514610b4b5760ff191660ff8216175f556040519081527f3e12b7b36c75ac9609a3f58609b331210428e1a85909132638955ba0301eec3390602090a160015f80516020614b2c83398151915255005b60405163a741a04560e01b8152600490fd5b346105ca575f3660031901126105ca5760206107e9612b48565b346105ca576040806003193601126105ca576004803591610b9783610642565b610b9f61314d565b6001600160a01b0391838316908115610e19575f5460ff811680610e00575b610df15783516370a0823160e01b808252308483019081529096602093909160109190911c82169084908490819083010381845afa928315610dc9575f93610dce575b50610c13906024359030903390613850565b5f5486519788523085890190815290979184918391908290819060200103918b60101c165afa908115610dc957610c52935f92610d9c575b5050612b1a565b938415610d8d5760081c60ff1680610d78575b610d6a5750906106f291610d16610c7a613e50565b95610cc3610c86613ec4565b610cae610c948a838b613f8b565b99610ca88a610ca242613e1e565b92612bb0565b906139a4565b5050610cbd89610ca242613e1e565b90613a84565b50506001600160a01b0381165f908152600e6020526040902090610d1088610d0b6106a2610cf042613e1e565b6001600160a01b039095165f908152600e6020526040902090565b612bb0565b91613b60565b505081518481526020810186905233907fdcbc1c05240f31ff3ad067ef1ee35ce4997762752e3a095284754544f4c709d790604090a3610d5461317c565b5191825260208201929092529081906040820190565b8251632484557960e01b8152fd5b50610d8584610d0b613e50565b815410610c65565b50825163070f6eed60e11b8152fd5b610dbb9250803d10610dc2575b610db38183610889565b810190612b88565b5f80610c4b565b503d610da9565b612b97565b610c13919350610dea90853d8711610dc257610db38183610889565b9290610c01565b5082516304f63b8560e01b8152fd5b50335f9081526005602052604090205460ff1615610bbe565b8251630d534ce360e11b8152fd5b346105ca575f3660031901126105ca57602060ff5f54166040519015158152f35b346105ca575f3660031901126105ca5760206107e9612bbd565b346105ca575f3660031901126105ca57602060ff60025460a01c166040519015158152f35b9060406003198301126105ca5760043565ffffffffffff811681036105ca5791602435906001600160401b0382116105ca57610ec5916004016108d4565b90565b346105ca576020610982610edb36610e87565b9061333e565b346105ca5760203660031901126105ca57600435610efe81610642565b610f0661314d565b335f9081527f9aeaa4f1a9be826e331dea6728ca206744e0a34dccbc1d3da4a68acb8abf036360205260409020547f5295aaaa27fdd659293eafacbfafbc634c1b96298957e87de5f59308cdbfdad19060ff1615610fc457506016546001600160a01b039182169181168214610b4b576001600160a01b03191681176016556040519081527f08aacfdb137d688b12f67ef81735dede1ae18b0664f6b347ee9ef00ae94ff91990602090a160015f80516020614b2c83398151915255005b6044906040519063e2517d3f60e01b82523360048301526024820152fd5b346105ca5760203660031901126105ca57600435610fff81610ab8565b61100761314d565b61100f6135f2565b5f54901515908160ff8260081c16151514610b4b5761ff001916600882901b61ff0016175f556040519081527ffa7a25a0b611d4ba3c0ea990e90dc23d484a5dd7a1be4733fef2946ba74530c690602090a16109d661317c565b346105ca5760203660031901126105ca57602061098260043561108b81610642565b612c03565b346105ca575f3660031901126105ca57602065ffffffffffff60135460301c16604051908152f35b346105ca5760203660031901126105ca576004355f526006602052602060405f2054604051908152f35b9181601f840112156105ca578235916001600160401b0383116105ca57602083818601950101116105ca57565b346105ca5760803660031901126105ca57600480359061112e82610642565b60243561113a81610642565b604435916064356001600160401b0381116105ca5761115c90369083016110e2565b61116794919461314d565b61117084612c9c565b8211611351576111e49061118483866130a9565b5f549095906111a69060101c6001600160a01b03165b6001600160a01b031690565b604080516370a0823160e01b80825230898301908152929b939a6001600160a01b03808d1699602099939792969195909491938a9183918291840190565b03818d5afa978815610dc9578c968f8f95978c988f955f9d61131c575b50916112188961123395935f98979516809a613c1e565b516323e30c8b60e01b8152998a988997889633908801612c52565b03925af18015610dc9577f439148f0bbc682ca079e46d6e2c2f0c1e3b820f1a291b069d8882abf8cf18dd9915f916112ff575b50036112ef57875190815230858201908152909383918591908290819060200103915afa8015610dc95785936112a3935f92610d9c575050612b1a565b036112e15750806112c2575b826112b861317c565b5160018152602090f35b6016546112da92906001600160a01b03165b90613c1e565b5f806112af565b8351637f28d71160e01b8152fd5b8751631e4ec46b60e01b81528590fd5b6113169150853d8711610dc257610db38183610889565b5f611266565b5f969593919d50896112339593611342611218938e803d10610dc257610db38183610889565b9f939597985093955050611201565b60405163347177ad60e21b81528390fd5b346105ca5760203660031901126105ca57602061098260043561138481610642565b612c9c565b346105ca575f3660031901126105ca5760206040517f591f6a0113ada8aff67efadec8ae2fa585cb4ebf4e1f8fc1205ffbeff98d00ec8152f35b346105ca575f3660031901126105ca5760206107e96113e46107c842613e1e565b612f91565b346105ca575f3660031901126105ca5760206040517f439148f0bbc682ca079e46d6e2c2f0c1e3b820f1a291b069d8882abf8cf18dd98152f35b346105ca575f3660031901126105ca576040517f00000000000000000000000000000000000000000000000000000000000000006001600160a01b03168152602090f35b346105ca575f3660031901126105ca57602065ffffffffffff60135416604051908152f35b346105ca575f3660031901126105ca57602060ff60035460a01c166040519015158152f35b346105ca5760403660031901126105ca576004356114cd610810565b6114d561314d565b6003546114ea906001600160a01b031661119a565b330361175a576114fc6107c842613e1e565b9061150681612d49565b9082151580611749575b8015611740575b61172e576106f2937ff9d090c096f71cd1659861a9ce5b6f384bceb4e2fa4e4a19edf6489a9b8d56c792611549613e50565b9461156461155682612ba2565b5f52600660205260405f2090565b549082810361164857506115788187612bb0565b838118818510028118968780611601575b50505050505b836115ce575b6040805191825265ffffffffffff929092166020820152908101839052606090a16115be61317c565b6040519081529081906020820190565b5f546115fc9085906115eb9060101c6001600160a01b031661119a565b6001546001600160a01b03166112d4565b611595565b61163d93610c4b83610ca8611627611620611556986116379888613cf5565b8096612b1a565b9461163142613e1e565b92612b1a565b92612ba2565b555f80808087611589565b915061165c825f52600660205260405f2090565b549061166c81610d0b848a612bb0565b908482188286100282189788611687575b505050505061158f565b6116fc93836116af936116bc8c6116b76116a56116ed998884613cf5565b9788958584613cf5565b948592612b1a565b612b1a565b93848410611707575b610c4b90610ca86116db95969761163142613e1e565b6116e761155687612ba2565b55612b1a565b915f52600660205260405f2090565b555f8080808061167d565b91611723610c4b9161171d866116db9798612b1a565b90612bb0565b8594509290506116c5565b604051635e18d2a560e01b8152600490fd5b50828211611517565b5061175383612b0c565b8210611510565b60405163dabc4ad960e01b8152600490fd5b346105ca575f3660031901126105ca576117886107c842613e1e565b600181018091116107f9576107e9602091612f91565b346105ca575f3660031901126105ca5760206109826107c842613e1e565b346105ca5760203660031901126105ca576004356117d981610642565b60018060a01b03165f526005602052602060ff60405f2054166040519015158152f35b346105ca5760203660031901126105ca5760206109826107c8610825565b346105ca5760403660031901126105ca5760043561183781610642565b6024356001600160401b038082116105ca57366023830112156105ca5781600401359081116105ca573660248260051b840101116105ca576106f29260246115be930190612e34565b346105ca57602061098261189336610e87565b90613414565b346105ca576020806003193601126105ca5760048035906118b982610642565b6118c161314d565b60025460a01c60ff16611a35576040516302910f8b60e31b81526001600160a01b03838116838301908152909491908290829081906020010381887f0000000000000000000000000000000000000000000000000000000000000000165afa908115610dc9575f91611a08575b50156119f85760405163fbfa77cf60e01b8152838516949082818581895afa928315610dc9575f936119c9575b5050309116036119ba5750600280546001600160a01b03929092166001600160a81b031990921691909117600160a01b1790557fdb2160616f776a37b24808115554e79439bf26cccbbd4438190cc6d28e80ecd15f80a26109d661317c565b60405163b9f0f17160e01b8152fd5b6119e9929350803d106119f1575b6119e18183610889565b810190612f69565b905f8061195b565b503d6119d7565b506040516324e5af8d60e21b8152fd5b611a289150823d8411611a2e575b611a208183610889565b810190612f54565b5f61192e565b503d611a16565b604051631380833b60e01b8152fd5b346105ca5760403660031901126105ca57611a5d610825565b602435611a6861314d565b611a70613649565b60038110611cfa5765ffffffffffff9182611a9660135465ffffffffffff9060601c1690565b168015159081611ce4575b50611be6575b60015460d01c838083169116818111611bd4571480611bc9575b610b4b57611b9e611b75611b707f1b3efab1b836932ce515e4748ca76335809d1d202c92ee86d594e43ce0039e8395611b10611b0b611b026107c842613e1e565b600f5490612bb0565b601455565b6013805465ffffffffffff60901b1916609087901b65ffffffffffff60901b16179055611b426113e46107c842613e1e565b90611b69600f54611b63611b5860015460d01c90565b65ffffffffffff1690565b90612f7e565b9116612bb0565b613e1e565b6013805465ffffffffffff60601b191660609290921b65ffffffffffff60601b16919091179055565b611ba782601055565b6040805165ffffffffffff9290921682526020820192909252a16109d661317c565b5081600f5414611ac1565b6040516359dcfd5560e11b8152600490fd5b611bf1601154601255565b611c2b611c0060015460d01c90565b6bffffffffffff0000000000006013549160301b16906bffffffffffff000000000000191617601355565b600154611c579060a01c65ffffffffffff1665ffffffffffff1665ffffffffffff196013541617601355565b611c62601454601155565b601354611c999060901c65ffffffffffff16600180546001600160d01b031660d09290921b6001600160d01b031916919091179055565b601354611cd49060601c65ffffffffffff166001805465ffffffffffff60a01b191660a09290921b65ffffffffffff60a01b16919091179055565b611cdf601054600f55565b611aa7565b9050611cf2611b5842613e1e565b10155f611aa1565b6040516317a509b960e31b8152600490fd5b346105ca575f3660031901126105ca576040517f00000000000000000000000000000000000000000000000000000000000000006001600160a01b03168152602090f35b346105ca575f3660031901126105ca57611d6c6107c842613e1e565b611d74613e50565b90805f52600660205260405f205482018092116107f957600181018091116107f9575f52600660205260405f205481018091116107f957604051908152602090f35b346105ca5760403660031901126105ca57602060ff611e08602435611dda81610642565b6004355f525f80516020614b0c833981519152845260405f209060018060a01b03165f5260205260405f2090565b54166040519015158152f35b346105ca575f3660031901126105ca576020601254604051908152f35b346105ca575f3660031901126105ca576020601154604051908152f35b346105ca5760203660031901126105ca57600435611e6b81610642565b60018060a01b03165f52600e602052602061098260405f20613f38565b346105ca576040806003193601126105ca57600435611ea681610642565b6024356001600160401b0381116105ca575f80611f4493611ecd60809436906004016110e2565b908188519283928337810184815203915af43d15611f4c5760203d611ef1816108b9565b90611efe87519283610889565b81523d5f8383013e5b8551958693151583850152808401528051918291826060860152018484015e5f838284010152601f80199101168101036060810184520182610889565b805190602001fd5b60206060611f07565b346105ca575f3660031901126105ca57602065ffffffffffff60015460a01c16604051908152f35b346105ca575f3660031901126105ca57602060ff5f5460081c166040519015158152f35b346105ca575f3660031901126105ca5760206040515f8152f35b346105ca575f3660031901126105ca5760206040517f4a634bc14d77baf979756509ef4298c6f6318af357828612545267ee2eb792338152f35b346105ca5760403660031901126105ca5760043561201281610642565b60243561201e81610ab8565b61202661314d565b61202e6136a0565b6001600160a01b0382169182156120c8575f8381526005602052604090205460ff16151582151514610b4b576001600160a01b03165f9081526005602052604090207ff991b1ecfb5115cbb36a2b2e2240c058406d2acc2fcc6e9e2dc99d845ff70a62916120bd916120ab908260ff801983541691151516179055565b60405190151581529081906020820190565b0390a26109d661317c565b604051630da30f6560e31b8152600490fd5b346105ca5760403660031901126105ca57602061211e6024356120fc81610642565b6004355f526008835260405f209060018060a01b03165f5260205260405f2090565b54604051908152f35b346105ca5760403660031901126105ca57602060ff611e0860243561214b81610642565b6004355f526009845260405f209060018060a01b03165f5260205260405f2090565b346105ca575f3660031901126105ca576016546040516001600160a01b039091168152602090f35b346105ca5760203660031901126105ca5760206107e9600435612f91565b346105ca576020806003193601126105ca5760048035906121d382610642565b6121db61314d565b60035460a01c60ff1661234d576001600160a01b0382811693908461223b575b6003805460ff60a01b1916600160a01b179055847fe7e4c932e03abddfe20f83af42c33627e816115c7ec2b168441f65dc14bfc3ba5f80a26109d661317c565b6040516302910f8b60e31b81526001600160a01b0385168482019081528390829081906020010381857f0000000000000000000000000000000000000000000000000000000000000000165afa908115610dc9575f91612330575b501561231f5760405163fbfa77cf60e01b815282818581895afa928315610dc9575f93612300575b5050309116036122f15750600380546001600160a01b0319166001600160a01b039092169190911790555f8080806121fb565b604051633f3e089160e21b8152fd5b612317929350803d106119f1576119e18183610889565b905f806122be565b60405163dabc4ad960e01b81528390fd5b6123479150833d8511611a2e57611a208183610889565b5f612296565b60405163703fe2e560e01b8152fd5b346105ca5760403660031901126105ca5760043561237981610642565b6024359061238561314d565b6001600160a01b039181831690811561240b576123b66106f2946123a883613d82565b9485915f5460101c16613c1e565b604080519182526020820184905233917f865ca08d59f5cb456e85cd2f7ef63664ea4f73327414e9d8152c4158b0e946459190a360015f80516020614b2c833981519152556040519081529081906020820190565b604051634e46966960e11b8152600490fd5b346105ca5760203660031901126105ca576004355f526007602052602060405f2054604051908152f35b346105ca575f3660031901126105ca576003546040516001600160a01b039091168152602090f35b346105ca575f3660031901126105ca576020600f54604051908152f35b346105ca575f3660031901126105ca5760206040517fc9078c78bcaac2be1c77c160c539a489be2b72939771b1a6302fed3e2150c7458152f35b346105ca575f3660031901126105ca576020610982613e50565b346105ca5760203660031901126105ca576004356124fc61314d565b335f9081527f2d4ccbfe9f7672a6f2537c1e5bce6adacb73706879154bbab6ce096012d6721660205260409020547f4a634bc14d77baf979756509ef4298c6f6318af357828612545267ee2eb792339060ff1615610fc457508060045414610b4b576020817f854df3eb95564502c8bc871ebdd15310ee26270f955f6c6bd8cea68e75045bc092600455604051908152a160015f80516020614b2c83398151915255005b346105ca575f3660031901126105ca576020610982613ec4565b346105ca575f3660031901126105ca57602065ffffffffffff60135460901c16604051908152f35b346105ca5760203660031901126105ca576004356125ff81610642565b61260b6107c842613e1e565b61261482612c03565b9161261f81836130ef565b83018093116107f957600182018092116107f95761263c916130ef565b81018091116107f957602090604051908152f35b346105ca575f3660031901126105ca576020601054604051908152f35b346105ca575f3660031901126105ca576020610982613069565b346105ca575f3660031901126105ca57602065ffffffffffff60135460601c16604051908152f35b346105ca575f3660031901126105ca576002546040516001600160a01b039091168152602090f35b346105ca5760403660031901126105ca576109d66024356004356126fa82610642565b805f525f80516020614b0c83398151915260205261271e600160405f2001546136f7565b6137be565b346105ca5760203660031901126105ca5760043561273f61314d565b335f9081527f82a1dc868a49801aa31c5dd393dc0b9005735300cdcd4bbc1af68215effcd6f860205260409020547fc9078c78bcaac2be1c77c160c539a489be2b72939771b1a6302fed3e2150c7459060ff1615610fc457508060155414610b4b576020817f85370e46fb038a73f13e1c280ffc745e71ff72b4ea57b15c6eca3749d73c0cb892601555604051908152a160015f80516020614b2c83398151915255005b346105ca575f3660031901126105ca575f5460405160109190911c6001600160a01b03168152602090f35b346105ca5760403660031901126105ca57602061098260043561283081610642565b602435906130a9565b346105ca575f3660031901126105ca5760206040517fbae4ee3de6c709ff9a002e774c5b78cb381560b219213c88ae0f1e207c03c0238152f35b346105ca575f3660031901126105ca57005b346105ca575f3660031901126105ca576020601554604051908152f35b346105ca575f3660031901126105ca576020604051633b9aca008152f35b346105ca575f3660031901126105ca576020600454604051908152f35b346105ca5760603660031901126105ca576004356128fa81610642565b612902610810565b6001600160401b0391906044358381116105ca576129249036906004016110e2565b909260409384516129348161084e565b60608152606060208201526060868201529280612993575b6106f286612984878761297e6129658984845191612b27565b9285612975602085015183613414565b9301519061333e565b91613f8b565b90519081529081906020820190565b81019392506020818503126105ca578035908682116105ca5701926060848203126105ca578451956129c48761084e565b84358181116105ca57826129d99187016108d4565b875260208501358181116105ca57826129f39187016108d4565b6020880152858501359081116105ca576106f296612a1c61297e936129659361298498016108d4565b8782015293945061294c565b346105ca5760403660031901126105ca57600435612a4581610642565b602435612a5061314d565b6001600160a01b0382161561071d578015612abc57612a7f612a70613ec4565b612a78613e50565b90836143ce565b335f908152600e60205260409020909290612a9990613f38565b8311612aaa576106d891839161318f565b6040516321727a3760e11b8152600490fd5b604051636c6c627d60e11b8152600490fd5b346105ca5760403660031901126105ca576020610982602435612af081610642565b6004356130ef565b634e487b7160e01b5f52601160045260245ffd5b5f198101919082116107f957565b919082039182116107f957565b6001600160a01b03165f908152600e60205260409020610ec59291906134c9565b65ffffffffffff8060135460601c169081158015612b75575b612b69575090565b905060015460a01c1690565b508181612b8142613e1e565b1610612b61565b908160209103126105ca575190565b6040513d5f823e3d90fd5b90600182018092116107f957565b919082018092116107f957565b60135465ffffffffffff90818160601c168015908115612bef575b50612be45760901c1690565b505060015460d01c90565b905082612bfb42613e1e565b16105f612bd8565b6001600160a01b03165f908152600e60205260409020612c2290613f38565b612c2a613e50565b612c32613ec4565b90600181018091116107f957600182018092116107f957610ec592613cf5565b94919286949160c0979460018060a01b0380921688521660208701526040860152606085015260a060808501528160a0850152848401375f828201840152601f01601f1916010190565b5f5460101c6001600160a01b0390811691168103612cfc576020602491604051928380926370a0823160e01b82523060048301525afa908115610dc9575f91612ce3575090565b610ec5915060203d602011610dc257610db38183610889565b505f90565b65ffffffffffff91821690821603919082116107f957565b634e487b7160e01b5f52601260045260245ffd5b9065ffffffffffff809116918215612d4457160490565b612d19565b60015465ffffffffffff808316929160a081901c821680851015612dc15750506013549281841690818015918215612db7575b5050612da557610ec59361171d92612d9a611b589360125496612d01565b9160301c1690612d2d565b60405163b7d0949760e01b8152600490fd5b109050815f612d7c565b909160135490808260601c1695868015918215612e2a575b505015612e05575050610ec5935061171d91612dfb611b589260115495612d01565b9060d01c90612d2d565b61171d9350611b589250612e1f610ec59660145496612d01565b9160901c1690612d2d565b109050865f612dd9565b90612e3d61314d565b5f926001600160a01b03831692831561240b578115612ee7575f5b828110612ec557505f547f326b6aff1cd2fb1c8234de4f9dcfb9047c5c36eb9ef2eb34af5121e969a75d279286929091612ea8918491612ea39060101c6001600160a01b031661119a565b613c1e565b612eb9604051928392339684612f22565b0390a3906108b761317c565b94612ee060019161171d612eda898789612f0d565b35613d82565b9501612e58565b60405163edf3b93360e01b8152600490fd5b634e487b7160e01b5f52603260045260245ffd5b9190811015612f1d5760051b0190565b612ef9565b604080825281018390529392916001600160fb1b0381116105ca5760209160609160051b809183880137850101930152565b908160209103126105ca5751610ec581610ab8565b908160209103126105ca5751610ec581610642565b818102929181159184041417156107f957565b6012548082106130575760115480831015612fd25750611b7090610ec592611b69612fc66013549365ffffffffffff93612b1a565b828460301c1690612f7e565b90506014548015801561304e575b156130185750610ec59165ffffffffffff61300e613004611b709460015494612b1a565b8360d01c90612f7e565b9160a01c16612bb0565b611b709150610ec5926130446130386013549365ffffffffffff93612b1a565b828460901c1690612f7e565b9160601c16612bb0565b50808310612fe0565b60405163d5b25b6360e01b8152600490fd5b65ffffffffffff8060135460601c168015918215613094575b505061308e5760105490565b600f5490565b9091506130a042613e1e565b16105f80613082565b5f546001600160a01b039160109190911c8216908216036130dd57601654166130d157505f90565b601554610ec591613c77565b60405163350b944160e11b8152600490fd5b9061311590825f52600860205260405f209060018060a01b03165f5260205260405f2090565b54905f52600660205260405f2054600760205260405f205490600181018091116107f957600182018092116107f957610ec592613cf5565b5f80516020614b2c833981519152600281541461316a5760029055565b604051633ee5aeb560e01b8152600490fd5b60015f80516020614b2c83398151915255565b335f908152600e60205260409020939291906131aa42613e1e565b335f908152600e602052604090206131c190613f38565b918483039283116107f9576131fc7febff2602b3f468259e1e99f613fed6691f3a6526effe6ef3e768ba7ae7a36c4f93859361328b99613b60565b505061321661320a42613e1e565b610cbd876116b7613ec4565b505061323061322442613e1e565b610ca8846116b7613e50565b50506132d9816132c461324d6132486107c842613e1e565b612ba2565b6132a3613262825f52600660205260405f2090565b54613275835f52600760205260405f2090565b5461328182828b613f8b565b9d8e998a93612bb0565b61329d855f52600660205260405f2090565b55612bb0565b6132b5825f52600760205260405f2090565b555f52600860205260405f2090565b9060018060a01b03165f5260205260405f2090565b6132e4838254612bb0565b9055604080519485526020850195909552938301526001600160a01b03909216913391606090a3565b908160209103126105ca575163ffffffff811681036105ca5790565b90600163ffffffff809316019182116107f957565b9080511561340a57806020806133599351830101910161330d565b613362816141fc565b90613373825165ffffffffffff1690565b9065ffffffffffff80851692168281146133fe57821191826133a9575b50506133a05750610ec590613fac565b60209150015190565b9091506133b7600a54612b0c565b63ffffffff8316149182156133d0575b50505f80613390565b6133f69192506133ea6133e5611b5892613329565b6141fc565b5165ffffffffffff1690565b115f806133c7565b50505060209150015190565b50610ec590613fac565b908051156134bf578060208061342f9351830101910161330d565b61343881614286565b90613449825165ffffffffffff1690565b9065ffffffffffff80851692168281146133fe5782119182613476575b50506133a05750610ec590614073565b909150613484600c54612b0c565b63ffffffff83161491821561349d575b50505f80613466565b6134b79192506133ea6134b2611b5892613329565b614286565b115f80613494565b50610ec590614073565b9180511561358b57806020806134e49351830101910161330d565b916134ef8382614306565b92613500845165ffffffffffff1690565b9065ffffffffffff808516921682811461357f5782119182613536575b505061352d57610ec59250614133565b50506020015190565b9091506135438354612b0c565b63ffffffff83161491821561355c575b50505f8061351d565b6135779192506133ea613571611b5892613329565b85614306565b115f80613553565b50505050506020015190565b50610ec591614133565b335f9081527f03b26b53c87faa1058f30bb5d2fee64f717719a0d9b7e4f4df027aa5e9b6ed69602052604090207fbae4ee3de6c709ff9a002e774c5b78cb381560b219213c88ae0f1e207c03c0239060ff905b541615610fc45750565b335f9081527fe41986b390c4ce6791b87f7423b5fab7a81a0e6d89660b6264f697d008b2243a602052604090207fc6aaadd7371d5e8f9ed6849dd66a66573a3ba37167d03f4352c9ba5693678fac9060ff906135e8565b335f9081527f99e47f2907af87dbb5c62e22bd8ea822f5011dfd1e243469ce26ebebf3ab93e3602052604090207f591f6a0113ada8aff67efadec8ae2fa585cb4ebf4e1f8fc1205ffbeff98d00ec9060ff906135e8565b335f9081527f0287ab4cb376ea253d7b2ce0c2cbf458f7deae9458470d74afdfbbee484e9540602052604090207f9c56d972d63cbb4195b3c1484691dfc220fa96a4c47e7b6613bd82a022029e069060ff906135e8565b5f8181525f80516020614b0c83398151915260209081526040808320338452909152902060ff906135e8565b5f8181525f80516020614b0c833981519152602081815260408084206001600160a01b03871685529091529091205460ff166137b7575f828152602091825260408082206001600160a01b038616835290925220805460ff1916600117905533916001600160a01b0316907f2f8788117e7eff1d82e926ec794901d17c78024a50270940304540a733656f0d5f80a4600190565b5050505f90565b5f8181525f80516020614b0c833981519152602081815260408084206001600160a01b03871685529091529091205460ff16156137b7575f828152602091825260408082206001600160a01b038616835290925220805460ff1916905533916001600160a01b0316907ff6391f5c32d9c69d2a47ea670b442974b53935d1edc7fd64eb21e047a839171b5f80a4600190565b6040516323b872dd60e01b60208201526001600160a01b03928316602482015292909116604483015260648083019390935291815260a08101918183106001600160401b03841117610869576108b792604052614374565b600b54811015612f1d57600b5f525f80516020614aec83398151915201905f90565b600d54811015612f1d57600d5f525f80516020614acc83398151915201905f90565b8054821015612f1d575f5260205f2001905f90565b600d54600160401b811015610869576001810180600d55811015612f1d57600d5f525f80516020614acc8339815191520155565b600b54600160401b811015610869576001810180600b55811015612f1d57600b5f525f80516020614aec8339815191520155565b90815491600160401b831015610869578261398c9160016108b7950181556138ec565b90919082549060031b91821b915f19901b1916179055565b919091600d9081548015613a4f575b506139bc614407565b509290918154926139cb613e50565b9481613a3a575b5015613a1757505f1982018281116107f95781541115612f1d575f527fd7b6990105719101dabeb77144f2a3385c8033acd3af97e9423a695e81ad1eb4018390559190565b613a2b926001600160d01b03169150614603565b5050613a3683613901565b9190565b65ffffffffffff83811691161490505f6139d2565b600160401b8110156108695760018101808455811015612f1d575f908382525f80516020614acc83398151915201555f6139b3565b919091600b9081548015613b2b575b50613a9c61445c565b50929091815492613aab613ec4565b9481613b16575b5015613af757505f1982018281116107f95781541115612f1d575f527f0175b7a638427703f0dbe7bb9bbf987a2551717b34e79f33b5b1008d1fa01db8018390559190565b613b0b926001600160d01b031691506146d3565b5050613a3683613935565b65ffffffffffff83811691161490505f613ab2565b600160401b8110156108695760018101808455811015612f1d575f908382525f80516020614aec83398151915201555f613a93565b90929192600182019081548015613bee575b5084613b7d846144b1565b50949092845493613b8d83613f38565b9681613bd9575b5015613bb6575050505f1981019081116107f95761398c8591613a36936138ec565b613a36949293613bd2926001600160d01b039091169190614772565b5050613969565b65ffffffffffff83811691161490505f613b94565b600160401b81101561086957806001613c0a92018455836138ec565b8154905f199060031b1b191690555f613b72565b60405163a9059cbb60e01b60208201526001600160a01b03909216602483015260448083019390935291815260808101916001600160401b03831182841017610869576108b792604052614374565b8115612d44570490565b90808202905f1981840990828083109203918083039214613ce857633b9aca009082821115613cd6577f88f2cfb83100cb4e69e7c79c58b316e597157d372fb9787e8e47ce423a2e9c6d940990828211900360f71b910360091c170290565b634e487b715f5260116020526024601cfd5b5050633b9aca0091500490565b91818302915f1981850993838086109503948086039514613d755784831115613d685790829109815f038216809204600280826003021880830282030280830282030280830282030280830282030280830282030280920290030293600183805f03040190848311900302920304170290565b82156003026011186144ea565b505090610ec59250613c6d565b90613d8f6107c842613e1e565b8210156130575760ff613dbf613dad845f52600960205260405f2090565b335f9081526020919091526040902090565b5416613e0c57613dcf33836130ef565b918215613dfa57613ded906132c433915f52600960205260405f2090565b805460ff19166001179055565b6040516366c0bcbf60e11b8152600490fd5b604051630c8d9eab60e31b8152600490fd5b65ffffffffffff90818111613e31571690565b604490604051906306dfcc6560e41b8252603060048301526024820152fd5b600c5480613e8b57505f5b6001600160d01b03811615612cfc57600d54811015612f1d57600d5f525f80516020614acc833981519152015490565b805f198101116107f957600c5f527fdf6966c971051c3d54ec59162606531493a51404a002842f56009d7e5cf4a8c6015460301c613e5b565b600a5480613eff57505f5b6001600160d01b03811615612cfc57600b54811015612f1d57600b5f525f80516020614aec833981519152015490565b805f198101116107f957600a5f527fc65a7bb8d6351c1cf70c95a316cc6a92839c986682d98bc35f958f4883f9d2a7015460301c613ecf565b805480613f6d57505f5b6001600160d01b03811615613f67576001613f5d92016138ec565b90549060031b1c90565b50505f90565b5f199080828101116107f957825f5260205f2001015460301c613f42565b9190600181018091116107f957600182018092116107f957610ec592613cf5565b600a54905f82916005841161401a575b613fc69350614957565b80613fe957505f5b6001600160d01b03811615612cfc57613f5d610ec5916138a8565b61400e613ff861401592612b0c565b600a5f525f80516020614aac8339815191520190565b5460301c90565b613fce565b91926140258161482c565b81039081116107f957613fc693600a5f5265ffffffffffff80835f80516020614aac833981519152015416908516105f14614061575091613fbc565b92915061406d90612ba2565b90613fbc565b600c54905f8291600584116140da575b61408d93506149c0565b806140b057505f5b6001600160d01b03811615612cfc57613f5d610ec5916138ca565b61400e6140bf6140d592612b0c565b600c5f525f80516020614a8c8339815191520190565b614095565b91926140e58161482c565b81039081116107f95761408d93600c5f5265ffffffffffff80835f80516020614a8c833981519152015416908516105f14614121575091614083565b92915061412d90612ba2565b90614083565b908154905f829160058411614196575b61414e935084614a29565b8061417657505f905b6001600160d01b03821615613f6757610ec5916001613f5d92016138ec565b61400e61418561419092612b0c565b835f5260205f200190565b90614157565b91926141a18161482c565b81039081116107f95761414e93855f5265ffffffffffff808360205f20015416908516105f146141d2575091614143565b9291506141de90612ba2565b90614143565b604051906141f18261086e565b5f6020838281520152565b6142046141e4565b5061420d6141e4565b50600a54811015612f1d57600a5f5260206040519161422b8361086e565b5f80516020614aac83398151915201549165ffffffffffff83169283825260301c9182910152600b54811015612f1d57600b5f525f80516020614aec83398151915201546040519161427c8361086e565b8252602082015290565b61428e6141e4565b506142976141e4565b50600c54811015612f1d57600c5f526020604051916142b58361086e565b5f80516020614a8c83398151915201549165ffffffffffff83169283825260301c9182910152600d54811015612f1d57600d5f525f80516020614acc83398151915201546040519161427c8361086e565b906020600161432a6143569361431a6141e4565b506143236141e4565b50856138ec565b5093604051946143398661086e565b549465ffffffffffff86169586825260301c9384910152016138ec565b905490604051926143668461086e565b835260031b1c602082015290565b905f602091828151910182855af115612b97575f513d6143c557506001600160a01b0381163b155b6143a35750565b604051635274afe760e01b81526001600160a01b039091166004820152602490fd5b6001141561439c565b9190600181018091116107f957600182018092116107f9576143f1828285613cf5565b928215612d445709151581018091116107f95790565b600c548061441857505f905f905f90565b805f198101116107f957600c5f527fdf6966c971051c3d54ec59162606531493a51404a002842f56009d7e5cf4a8c6015460019165ffffffffffff82169160301c90565b600a548061446d57505f905f905f90565b805f198101116107f957600a5f527fc65a7bb8d6351c1cf70c95a316cc6a92839c986682d98bc35f958f4883f9d2a7015460019165ffffffffffff82169160301c90565b8054806144c25750505f905f905f90565b5f199181838101116107f9575f5260205f2001015460019165ffffffffffff82169160301c90565b634e487b715f526020526024601cfd5b600c5490600160401b821015610869576001820180600c55821015612f1d57600c5f52805160209091015160301b65ffffffffffff191665ffffffffffff91909116175f80516020614a8c83398151915290910155565b600a5490600160401b821015610869576001820180600a55821015612f1d57600a5f52805160209091015160301b65ffffffffffff191665ffffffffffff91909116175f80516020614aac83398151915290910155565b8054600160401b811015610869576145c5916001820181556138ec565b6145f057815160209092015160301b65ffffffffffff191665ffffffffffff92909216919091179055565b634e487b7160e01b5f525f60045260245ffd5b600c5491929180156146aa576140bf61461b91612b0c565b9081549165ffffffffffff90818416918316808311614698578692036146605761465992509065ffffffffffff82549181199060301b169116179055565b60301c9190565b50506146939061467f6146716108aa565b65ffffffffffff9092168252565b6001600160d01b03851660208201526144fa565b614659565b604051632520601d60e01b8152600490fd5b506146ce906146ba6146716108aa565b6001600160d01b03841660208201526144fa565b5f9190565b600a54919291801561474e57613ff86146eb91612b0c565b9081549165ffffffffffff90818416918316808311614698578692036147295761465992509065ffffffffffff82549181199060301b169116179055565b50506146939061473a6146716108aa565b6001600160d01b0385166020820152614551565b506146ce9061475e6146716108aa565b6001600160d01b0384166020820152614551565b805492939280156148075761478961479491612b0c565b825f5260205f200190565b9182549265ffffffffffff91828516928116808411614698578793036147d3575061465992509065ffffffffffff82549181199060301b169116179055565b915050614693916147f36147e56108aa565b65ffffffffffff9093168352565b6001600160d01b03861660208301526145a8565b50906146ce916148186147e56108aa565b6001600160d01b03851660208301526145a8565b6001811115610ec557600181600160801b811015614945575b6148ed6148e36148d96148cf6148c56148bb6148f997600488600160401b6148f49a1015614938575b64010000000081101561492b575b6201000081101561491e575b610100811015614912575b6010811015614906575b10156148fe575b60030260011c6148b4818b613c6d565b0160011c90565b6148b4818a613c6d565b6148b48189613c6d565b6148b48188613c6d565b6148b48187613c6d565b6148b48186613c6d565b8093613c6d565b821190565b900390565b60011b6148a4565b811c9160021b9161489d565b60081c91811b91614893565b60101c9160081b91614888565b60201c9160101b9161487c565b60401c9160201b9161486e565b50600160401b9050608082901c614845565b905b82811061496557505090565b9091808216906001818418811c83018093116107f957600a5f5265ffffffffffff80845f80516020614aac833981519152015416908616105f146149ad575050915b90614959565b9093925081018091116107f957906149a7565b905b8281106149ce57505090565b9091808216906001818418811c83018093116107f957600c5f5265ffffffffffff80845f80516020614a8c833981519152015416908616105f14614a16575050915b906149c2565b9093925081018091116107f95790614a10565b91905b838210614a395750505090565b909192808316906001818518811c83018093116107f957855f5265ffffffffffff808460205f20015416908516105f14614a78575050925b9190614a2c565b9094935081018091116107f95791614a7156fedf6966c971051c3d54ec59162606531493a51404a002842f56009d7e5cf4a8c7c65a7bb8d6351c1cf70c95a316cc6a92839c986682d98bc35f958f4883f9d2a8d7b6990105719101dabeb77144f2a3385c8033acd3af97e9423a695e81ad1eb50175b7a638427703f0dbe7bb9bbf987a2551717b34e79f33b5b1008d1fa01db902dd7bc7dec4dceedda775e58dd541e08a116c6c53815c0bd028192f7b6268009b779b17422d0df92223018b32b4d1fa46e071723d6817e2486d003becc55f00a26469706673582212209a08630ecac45f83fdb7d85909764f45aa928f3197a3b8c81dbd5fc71b9410b664736f6c63430008190033","linkReferences":{}},"methodIdentifiers":{"DEFAULT_ADMIN_ROLE()":"a217fddf","DELEGATOR_FACTORY()":"6da3e06d","DEPOSITOR_WHITELIST_ROLE()":"1b66c9e1","DEPOSIT_LIMIT_SET_ROLE()":"a21a1df9","DEPOSIT_WHITELIST_SET_ROLE()":"db388715","EPOCH_DURATION_SET_ROLE()":"61819dd8","FLASH_FEE_BASE()":"ecc98f05","FLASH_FEE_RATE_SET_ROLE()":"bc46f722","FLASH_FEE_RECEIVER_SET_ROLE()":"31d9736c","IS_DEPOSIT_LIMIT_SET_ROLE()":"1415519b","RETURN_VALUE()":"653b04cd","SLASHER_FACTORY()":"87df0788","_Vault_init()":"dc0b1d71","_epochDuration()":"2fa27fae","_epochDurationInit()":"9f9962dd","_epochDurationInitIndex()":"9b4bae3e","_epochDurationSetEpochsDelay()":"bba6ff4a","_nextEpochDuration()":"c1bc6f51","_nextEpochDurationInit()":"cc52aee7","_nextEpochDurationSetEpochsDelay()":"c4db46fc","_nextEpochInitIndex()":"2749f9c4","_prevEpochDuration()":"5a36aa74","_prevEpochDurationInit()":"6e0f2455","_prevEpochDurationInitIndex()":"98ccba4a","activeBalanceOf(address)":"59f769a9","activeBalanceOfAt(address,uint48,bytes)":"efb559d6","activeShares()":"bfefcd7b","activeSharesAt(uint48,bytes)":"50f22068","activeSharesOf(address)":"9d66201b","activeSharesOfAt(address,uint48,bytes)":"2d73c69c","activeStake()":"bd49c35f","activeStakeAt(uint48,bytes)":"810da75d","burner()":"27810b6e","claim(address,uint256)":"aad3ec96","claimBatch(address,uint256[])":"7c04c80a","collateral()":"d8dfeb45","currentEpoch()":"76671808","currentEpochStart()":"61a8c8c4","delegator()":"ce9b7930","deposit(address,uint256)":"47e7ef24","depositLimit()":"ecf70858","depositWhitelist()":"48d3b775","epochAt(uint48)":"7953b33b","epochDuration()":"4ff0876a","epochDurationInit()":"46361671","epochDurationSetEpochsDelay()":"c642b050","epochStart(uint256)":"aa9354a3","flashFee(address,uint256)":"d9d98ce4","flashFeeRate()":"e945da7f","flashFeeReceiver()":"a8b24f9a","flashLoan(address,address,uint256,bytes)":"5cffe9de","getRoleAdmin(bytes32)":"248a9ca3","grantRole(bytes32,address)":"2f2ff15d","hasRole(bytes32,address)":"91d14854","isDelegatorInitialized()":"50861adc","isDepositLimit()":"a1b12202","isDepositorWhitelisted(address)":"794b15b7","isInitialized()":"392e53cd","isSlasherInitialized()":"6ec1e3f8","isWithdrawalsClaimed(uint256,address)":"a5d03223","maxFlashLoan(address)":"613255ab","nextEpochStart()":"73790ab3","onSlash(uint256,uint48)":"7278e31c","previousEpochStart()":"281f5752","redeem(address,uint256)":"1e9a6950","renounceRole(bytes32,address)":"36568abe","revokeRole(bytes32,address)":"d547741f","setDelegator(address)":"83cd9cc3","setDepositLimit(uint256)":"bdc8144b","setDepositWhitelist(bool)":"4105a7dd","setDepositorWhitelistStatus(address,bool)":"a2861466","setEpochDuration(uint48,uint256)":"83f46c2c","setFlashFeeRate(uint256)":"d626811b","setFlashFeeReceiver(address)":"52741a40","setIsDepositLimit(bool)":"5346e34f","setSlasher(address)":"aabc2496","slashableBalanceOf(address)":"c31e8dd7","slasher()":"b1344271","staticDelegateCall(address,bytes)":"9f86fd85","supportsInterface(bytes4)":"01ffc9a7","totalStake()":"8b0e9f3f","withdraw(address,uint256)":"f3fef3a3","withdrawalShares(uint256)":"afba70ad","withdrawalSharesOf(uint256,address)":"a3b54172","withdrawals(uint256)":"5cc07076","withdrawalsOf(uint256,address)":"f5e7ee0f"},"id":107}