{"abi":[{"type":"constructor","inputs":[{"name":"delegatorFactory","type":"address","internalType":"address"},{"name":"slasherFactory","type":"address","internalType":"address"}],"stateMutability":"nonpayable"},{"type":"function","name":"DEFAULT_ADMIN_ROLE","inputs":[],"outputs":[{"name":"","type":"bytes32","internalType":"bytes32"}],"stateMutability":"view"},{"type":"function","name":"DELEGATOR_FACTORY","inputs":[],"outputs":[{"name":"","type":"address","internalType":"address"}],"stateMutability":"view"},{"type":"function","name":"DEPOSITOR_WHITELIST_ROLE","inputs":[],"outputs":[{"name":"","type":"bytes32","internalType":"bytes32"}],"stateMutability":"view"},{"type":"function","name":"DEPOSIT_LIMIT_SET_ROLE","inputs":[],"outputs":[{"name":"","type":"bytes32","internalType":"bytes32"}],"stateMutability":"view"},{"type":"function","name":"DEPOSIT_WHITELIST_SET_ROLE","inputs":[],"outputs":[{"name":"","type":"bytes32","internalType":"bytes32"}],"stateMutability":"view"},{"type":"function","name":"EPOCH_DURATION_SET_ROLE","inputs":[],"outputs":[{"name":"","type":"bytes32","internalType":"bytes32"}],"stateMutability":"view"},{"type":"function","name":"FLASH_FEE_BASE","inputs":[],"outputs":[{"name":"","type":"uint256","internalType":"uint256"}],"stateMutability":"view"},{"type":"function","name":"FLASH_FEE_RATE_SET_ROLE","inputs":[],"outputs":[{"name":"","type":"bytes32","internalType":"bytes32"}],"stateMutability":"view"},{"type":"function","name":"FLASH_FEE_RECEIVER_SET_ROLE","inputs":[],"outputs":[{"name":"","type":"bytes32","internalType":"bytes32"}],"stateMutability":"view"},{"type":"function","name":"FLASH_LOAN_ENABLED_SET_ROLE","inputs":[],"outputs":[{"name":"","type":"bytes32","internalType":"bytes32"}],"stateMutability":"view"},{"type":"function","name":"IS_DEPOSIT_LIMIT_SET_ROLE","inputs":[],"outputs":[{"name":"","type":"bytes32","internalType":"bytes32"}],"stateMutability":"view"},{"type":"function","name":"RETURN_VALUE","inputs":[],"outputs":[{"name":"","type":"bytes32","internalType":"bytes32"}],"stateMutability":"view"},{"type":"function","name":"SLASHER_FACTORY","inputs":[],"outputs":[{"name":"","type":"address","internalType":"address"}],"stateMutability":"view"},{"type":"function","name":"_epochDuration","inputs":[],"outputs":[{"name":"","type":"uint48","internalType":"uint48"}],"stateMutability":"view"},{"type":"function","name":"_epochDurationInit","inputs":[],"outputs":[{"name":"","type":"uint48","internalType":"uint48"}],"stateMutability":"view"},{"type":"function","name":"activeBalanceOf","inputs":[{"name":"account","type":"address","internalType":"address"}],"outputs":[{"name":"","type":"uint256","internalType":"uint256"}],"stateMutability":"view"},{"type":"function","name":"activeBalanceOfAt","inputs":[{"name":"account","type":"address","internalType":"address"},{"name":"timestamp","type":"uint48","internalType":"uint48"},{"name":"hints","type":"bytes","internalType":"bytes"}],"outputs":[{"name":"","type":"uint256","internalType":"uint256"}],"stateMutability":"view"},{"type":"function","name":"activeShares","inputs":[],"outputs":[{"name":"","type":"uint256","internalType":"uint256"}],"stateMutability":"view"},{"type":"function","name":"activeSharesAt","inputs":[{"name":"timestamp","type":"uint48","internalType":"uint48"},{"name":"hint","type":"bytes","internalType":"bytes"}],"outputs":[{"name":"","type":"uint256","internalType":"uint256"}],"stateMutability":"view"},{"type":"function","name":"activeSharesOf","inputs":[{"name":"account","type":"address","internalType":"address"}],"outputs":[{"name":"","type":"uint256","internalType":"uint256"}],"stateMutability":"view"},{"type":"function","name":"activeSharesOfAt","inputs":[{"name":"account","type":"address","internalType":"address"},{"name":"timestamp","type":"uint48","internalType":"uint48"},{"name":"hint","type":"bytes","internalType":"bytes"}],"outputs":[{"name":"","type":"uint256","internalType":"uint256"}],"stateMutability":"view"},{"type":"function","name":"activeStake","inputs":[],"outputs":[{"name":"","type":"uint256","internalType":"uint256"}],"stateMutability":"view"},{"type":"function","name":"activeStakeAt","inputs":[{"name":"timestamp","type":"uint48","internalType":"uint48"},{"name":"hint","type":"bytes","internalType":"bytes"}],"outputs":[{"name":"","type":"uint256","internalType":"uint256"}],"stateMutability":"view"},{"type":"function","name":"burner","inputs":[],"outputs":[{"name":"","type":"address","internalType":"address"}],"stateMutability":"view"},{"type":"function","name":"claim","inputs":[{"name":"recipient","type":"address","internalType":"address"},{"name":"epoch","type":"uint256","internalType":"uint256"}],"outputs":[{"name":"amount","type":"uint256","internalType":"uint256"}],"stateMutability":"nonpayable"},{"type":"function","name":"claimBatch","inputs":[{"name":"recipient","type":"address","internalType":"address"},{"name":"epochs","type":"uint256[]","internalType":"uint256[]"}],"outputs":[{"name":"amount","type":"uint256","internalType":"uint256"}],"stateMutability":"nonpayable"},{"type":"function","name":"collateral","inputs":[],"outputs":[{"name":"","type":"address","internalType":"address"}],"stateMutability":"view"},{"type":"function","name":"currentEpoch","inputs":[],"outputs":[{"name":"","type":"uint256","internalType":"uint256"}],"stateMutability":"view"},{"type":"function","name":"currentEpochStart","inputs":[],"outputs":[{"name":"","type":"uint48","internalType":"uint48"}],"stateMutability":"view"},{"type":"function","name":"delegator","inputs":[],"outputs":[{"name":"","type":"address","internalType":"address"}],"stateMutability":"view"},{"type":"function","name":"deposit","inputs":[{"name":"onBehalfOf","type":"address","internalType":"address"},{"name":"amount","type":"uint256","internalType":"uint256"}],"outputs":[{"name":"depositedAmount","type":"uint256","internalType":"uint256"},{"name":"mintedShares","type":"uint256","internalType":"uint256"}],"stateMutability":"nonpayable"},{"type":"function","name":"depositLimit","inputs":[],"outputs":[{"name":"","type":"uint256","internalType":"uint256"}],"stateMutability":"view"},{"type":"function","name":"depositWhitelist","inputs":[],"outputs":[{"name":"","type":"bool","internalType":"bool"}],"stateMutability":"view"},{"type":"function","name":"epochAt","inputs":[{"name":"timestamp","type":"uint48","internalType":"uint48"}],"outputs":[{"name":"","type":"uint256","internalType":"uint256"}],"stateMutability":"view"},{"type":"function","name":"epochDuration","inputs":[],"outputs":[{"name":"","type":"uint48","internalType":"uint48"}],"stateMutability":"view"},{"type":"function","name":"epochDurationInit","inputs":[],"outputs":[{"name":"","type":"uint48","internalType":"uint48"}],"stateMutability":"view"},{"type":"function","name":"epochDurationSetEpochsDelay","inputs":[],"outputs":[{"name":"","type":"uint256","internalType":"uint256"}],"stateMutability":"view"},{"type":"function","name":"epochStart","inputs":[{"name":"epoch","type":"uint256","internalType":"uint256"}],"outputs":[{"name":"","type":"uint48","internalType":"uint48"}],"stateMutability":"view"},{"type":"function","name":"flashFee","inputs":[{"name":"token","type":"address","internalType":"address"},{"name":"value","type":"uint256","internalType":"uint256"}],"outputs":[{"name":"","type":"uint256","internalType":"uint256"}],"stateMutability":"view"},{"type":"function","name":"flashFeeRate","inputs":[],"outputs":[{"name":"","type":"uint256","internalType":"uint256"}],"stateMutability":"view"},{"type":"function","name":"flashFeeReceiver","inputs":[],"outputs":[{"name":"","type":"address","internalType":"address"}],"stateMutability":"view"},{"type":"function","name":"flashLoan","inputs":[{"name":"receiver","type":"address","internalType":"contract IERC3156FlashBorrower"},{"name":"token","type":"address","internalType":"address"},{"name":"value","type":"uint256","internalType":"uint256"},{"name":"data","type":"bytes","internalType":"bytes"}],"outputs":[{"name":"","type":"bool","internalType":"bool"}],"stateMutability":"nonpayable"},{"type":"function","name":"flashLoanEnabled","inputs":[],"outputs":[{"name":"","type":"bool","internalType":"bool"}],"stateMutability":"view"},{"type":"function","name":"getRoleAdmin","inputs":[{"name":"role","type":"bytes32","internalType":"bytes32"}],"outputs":[{"name":"","type":"bytes32","internalType":"bytes32"}],"stateMutability":"view"},{"type":"function","name":"grantRole","inputs":[{"name":"role","type":"bytes32","internalType":"bytes32"},{"name":"account","type":"address","internalType":"address"}],"outputs":[],"stateMutability":"nonpayable"},{"type":"function","name":"hasRole","inputs":[{"name":"role","type":"bytes32","internalType":"bytes32"},{"name":"account","type":"address","internalType":"address"}],"outputs":[{"name":"","type":"bool","internalType":"bool"}],"stateMutability":"view"},{"type":"function","name":"isDelegatorInitialized","inputs":[],"outputs":[{"name":"","type":"bool","internalType":"bool"}],"stateMutability":"view"},{"type":"function","name":"isDepositLimit","inputs":[],"outputs":[{"name":"","type":"bool","internalType":"bool"}],"stateMutability":"view"},{"type":"function","name":"isDepositorWhitelisted","inputs":[{"name":"account","type":"address","internalType":"address"}],"outputs":[{"name":"value","type":"bool","internalType":"bool"}],"stateMutability":"view"},{"type":"function","name":"isInitialized","inputs":[],"outputs":[{"name":"","type":"bool","internalType":"bool"}],"stateMutability":"view"},{"type":"function","name":"isSlasherInitialized","inputs":[],"outputs":[{"name":"","type":"bool","internalType":"bool"}],"stateMutability":"view"},{"type":"function","name":"isWithdrawalsClaimed","inputs":[{"name":"epoch","type":"uint256","internalType":"uint256"},{"name":"account","type":"address","internalType":"address"}],"outputs":[{"name":"value","type":"bool","internalType":"bool"}],"stateMutability":"view"},{"type":"function","name":"maxFlashLoan","inputs":[{"name":"token","type":"address","internalType":"address"}],"outputs":[{"name":"","type":"uint256","internalType":"uint256"}],"stateMutability":"view"},{"type":"function","name":"nextEpochStart","inputs":[],"outputs":[{"name":"","type":"uint48","internalType":"uint48"}],"stateMutability":"view"},{"type":"function","name":"onSlash","inputs":[{"name":"amount","type":"uint256","internalType":"uint256"},{"name":"captureTimestamp","type":"uint48","internalType":"uint48"}],"outputs":[{"name":"slashedAmount","type":"uint256","internalType":"uint256"}],"stateMutability":"nonpayable"},{"type":"function","name":"previousEpochStart","inputs":[],"outputs":[{"name":"","type":"uint48","internalType":"uint48"}],"stateMutability":"view"},{"type":"function","name":"redeem","inputs":[{"name":"claimer","type":"address","internalType":"address"},{"name":"shares","type":"uint256","internalType":"uint256"}],"outputs":[{"name":"withdrawnAssets","type":"uint256","internalType":"uint256"},{"name":"mintedShares","type":"uint256","internalType":"uint256"}],"stateMutability":"nonpayable"},{"type":"function","name":"renounceRole","inputs":[{"name":"role","type":"bytes32","internalType":"bytes32"},{"name":"callerConfirmation","type":"address","internalType":"address"}],"outputs":[],"stateMutability":"nonpayable"},{"type":"function","name":"revokeRole","inputs":[{"name":"role","type":"bytes32","internalType":"bytes32"},{"name":"account","type":"address","internalType":"address"}],"outputs":[],"stateMutability":"nonpayable"},{"type":"function","name":"setDelegator","inputs":[{"name":"delegator_","type":"address","internalType":"address"}],"outputs":[],"stateMutability":"nonpayable"},{"type":"function","name":"setDepositLimit","inputs":[{"name":"limit","type":"uint256","internalType":"uint256"}],"outputs":[],"stateMutability":"nonpayable"},{"type":"function","name":"setDepositWhitelist","inputs":[{"name":"status","type":"bool","internalType":"bool"}],"outputs":[],"stateMutability":"nonpayable"},{"type":"function","name":"setDepositorWhitelistStatus","inputs":[{"name":"account","type":"address","internalType":"address"},{"name":"status","type":"bool","internalType":"bool"}],"outputs":[],"stateMutability":"nonpayable"},{"type":"function","name":"setEpochDuration","inputs":[{"name":"epochDuration_","type":"uint48","internalType":"uint48"},{"name":"epochDurationSetEpochsDelay_","type":"uint256","internalType":"uint256"}],"outputs":[],"stateMutability":"nonpayable"},{"type":"function","name":"setFlashFeeRate","inputs":[{"name":"flashFeeRate_","type":"uint256","internalType":"uint256"}],"outputs":[],"stateMutability":"nonpayable"},{"type":"function","name":"setFlashFeeReceiver","inputs":[{"name":"flashFeeReceiver_","type":"address","internalType":"address"}],"outputs":[],"stateMutability":"nonpayable"},{"type":"function","name":"setFlashloanEnabled","inputs":[{"name":"status","type":"bool","internalType":"bool"}],"outputs":[],"stateMutability":"nonpayable"},{"type":"function","name":"setIsDepositLimit","inputs":[{"name":"status","type":"bool","internalType":"bool"}],"outputs":[],"stateMutability":"nonpayable"},{"type":"function","name":"setSlasher","inputs":[{"name":"slasher_","type":"address","internalType":"address"}],"outputs":[],"stateMutability":"nonpayable"},{"type":"function","name":"slashableBalanceOf","inputs":[{"name":"account","type":"address","internalType":"address"}],"outputs":[{"name":"","type":"uint256","internalType":"uint256"}],"stateMutability":"view"},{"type":"function","name":"slasher","inputs":[],"outputs":[{"name":"","type":"address","internalType":"address"}],"stateMutability":"view"},{"type":"function","name":"staticDelegateCall","inputs":[{"name":"target","type":"address","internalType":"address"},{"name":"data","type":"bytes","internalType":"bytes"}],"outputs":[],"stateMutability":"nonpayable"},{"type":"function","name":"supportsInterface","inputs":[{"name":"interfaceId","type":"bytes4","internalType":"bytes4"}],"outputs":[{"name":"","type":"bool","internalType":"bool"}],"stateMutability":"view"},{"type":"function","name":"totalStake","inputs":[],"outputs":[{"name":"","type":"uint256","internalType":"uint256"}],"stateMutability":"view"},{"type":"function","name":"withdraw","inputs":[{"name":"claimer","type":"address","internalType":"address"},{"name":"amount","type":"uint256","internalType":"uint256"}],"outputs":[{"name":"burnedShares","type":"uint256","internalType":"uint256"},{"name":"mintedShares","type":"uint256","internalType":"uint256"}],"stateMutability":"nonpayable"},{"type":"function","name":"withdrawalShares","inputs":[{"name":"epoch","type":"uint256","internalType":"uint256"}],"outputs":[{"name":"amount","type":"uint256","internalType":"uint256"}],"stateMutability":"view"},{"type":"function","name":"withdrawalSharesOf","inputs":[{"name":"epoch","type":"uint256","internalType":"uint256"},{"name":"account","type":"address","internalType":"address"}],"outputs":[{"name":"amount","type":"uint256","internalType":"uint256"}],"stateMutability":"view"},{"type":"function","name":"withdrawals","inputs":[{"name":"epoch","type":"uint256","internalType":"uint256"}],"outputs":[{"name":"amount","type":"uint256","internalType":"uint256"}],"stateMutability":"view"},{"type":"function","name":"withdrawalsOf","inputs":[{"name":"epoch","type":"uint256","internalType":"uint256"},{"name":"account","type":"address","internalType":"address"}],"outputs":[{"name":"","type":"uint256","internalType":"uint256"}],"stateMutability":"view"},{"type":"event","name":"Claim","inputs":[{"name":"claimer","type":"address","indexed":true,"internalType":"address"},{"name":"recipient","type":"address","indexed":true,"internalType":"address"},{"name":"epoch","type":"uint256","indexed":false,"internalType":"uint256"},{"name":"amount","type":"uint256","indexed":false,"internalType":"uint256"}],"anonymous":false},{"type":"event","name":"ClaimBatch","inputs":[{"name":"claimer","type":"address","indexed":true,"internalType":"address"},{"name":"recipient","type":"address","indexed":true,"internalType":"address"},{"name":"epochs","type":"uint256[]","indexed":false,"internalType":"uint256[]"},{"name":"amount","type":"uint256","indexed":false,"internalType":"uint256"}],"anonymous":false},{"type":"event","name":"Deposit","inputs":[{"name":"depositor","type":"address","indexed":true,"internalType":"address"},{"name":"onBehalfOf","type":"address","indexed":true,"internalType":"address"},{"name":"amount","type":"uint256","indexed":false,"internalType":"uint256"},{"name":"shares","type":"uint256","indexed":false,"internalType":"uint256"}],"anonymous":false},{"type":"event","name":"Initialized","inputs":[{"name":"version","type":"uint64","indexed":false,"internalType":"uint64"}],"anonymous":false},{"type":"event","name":"OnSlash","inputs":[{"name":"amount","type":"uint256","indexed":false,"internalType":"uint256"},{"name":"captureTimestamp","type":"uint48","indexed":false,"internalType":"uint48"},{"name":"slashedAmount","type":"uint256","indexed":false,"internalType":"uint256"}],"anonymous":false},{"type":"event","name":"RoleAdminChanged","inputs":[{"name":"role","type":"bytes32","indexed":true,"internalType":"bytes32"},{"name":"previousAdminRole","type":"bytes32","indexed":true,"internalType":"bytes32"},{"name":"newAdminRole","type":"bytes32","indexed":true,"internalType":"bytes32"}],"anonymous":false},{"type":"event","name":"RoleGranted","inputs":[{"name":"role","type":"bytes32","indexed":true,"internalType":"bytes32"},{"name":"account","type":"address","indexed":true,"internalType":"address"},{"name":"sender","type":"address","indexed":true,"internalType":"address"}],"anonymous":false},{"type":"event","name":"RoleRevoked","inputs":[{"name":"role","type":"bytes32","indexed":true,"internalType":"bytes32"},{"name":"account","type":"address","indexed":true,"internalType":"address"},{"name":"sender","type":"address","indexed":true,"internalType":"address"}],"anonymous":false},{"type":"event","name":"SetDelegator","inputs":[{"name":"delegator","type":"address","indexed":true,"internalType":"address"}],"anonymous":false},{"type":"event","name":"SetDepositLimit","inputs":[{"name":"limit","type":"uint256","indexed":false,"internalType":"uint256"}],"anonymous":false},{"type":"event","name":"SetDepositWhitelist","inputs":[{"name":"status","type":"bool","indexed":false,"internalType":"bool"}],"anonymous":false},{"type":"event","name":"SetDepositorWhitelistStatus","inputs":[{"name":"account","type":"address","indexed":true,"internalType":"address"},{"name":"status","type":"bool","indexed":false,"internalType":"bool"}],"anonymous":false},{"type":"event","name":"SetEpochDuration","inputs":[{"name":"epochDuration","type":"uint48","indexed":false,"internalType":"uint48"},{"name":"epochDurationSetEpochsDelay","type":"uint256","indexed":false,"internalType":"uint256"}],"anonymous":false},{"type":"event","name":"SetFlashFeeRate","inputs":[{"name":"flashFeeRate","type":"uint256","indexed":false,"internalType":"uint256"}],"anonymous":false},{"type":"event","name":"SetFlashFeeReceiver","inputs":[{"name":"flashFeeReceiver","type":"address","indexed":false,"internalType":"address"}],"anonymous":false},{"type":"event","name":"SetFlashloanEnabled","inputs":[{"name":"status","type":"bool","indexed":false,"internalType":"bool"}],"anonymous":false},{"type":"event","name":"SetIsDepositLimit","inputs":[{"name":"status","type":"bool","indexed":false,"internalType":"bool"}],"anonymous":false},{"type":"event","name":"SetSlasher","inputs":[{"name":"slasher","type":"address","indexed":true,"internalType":"address"}],"anonymous":false},{"type":"event","name":"Withdraw","inputs":[{"name":"withdrawer","type":"address","indexed":true,"internalType":"address"},{"name":"claimer","type":"address","indexed":true,"internalType":"address"},{"name":"amount","type":"uint256","indexed":false,"internalType":"uint256"},{"name":"burnedShares","type":"uint256","indexed":false,"internalType":"uint256"},{"name":"mintedShares","type":"uint256","indexed":false,"internalType":"uint256"}],"anonymous":false},{"type":"error","name":"AccessControlBadConfirmation","inputs":[]},{"type":"error","name":"AccessControlUnauthorizedAccount","inputs":[{"name":"account","type":"address","internalType":"address"},{"name":"neededRole","type":"bytes32","internalType":"bytes32"}]},{"type":"error","name":"AlreadyClaimed","inputs":[]},{"type":"error","name":"AlreadySet","inputs":[]},{"type":"error","name":"CheckpointUnorderedInsertion","inputs":[]},{"type":"error","name":"DelegatorAlreadyInitialized","inputs":[]},{"type":"error","name":"DepositLimitReached","inputs":[]},{"type":"error","name":"InsufficientClaim","inputs":[]},{"type":"error","name":"InsufficientDeposit","inputs":[]},{"type":"error","name":"InsufficientExitWindow","inputs":[]},{"type":"error","name":"InsufficientRedemption","inputs":[]},{"type":"error","name":"InsufficientWithdrawal","inputs":[]},{"type":"error","name":"InvalidAccount","inputs":[]},{"type":"error","name":"InvalidCaptureEpoch","inputs":[]},{"type":"error","name":"InvalidClaimer","inputs":[]},{"type":"error","name":"InvalidCollateral","inputs":[]},{"type":"error","name":"InvalidDelegator","inputs":[]},{"type":"error","name":"InvalidEpoch","inputs":[]},{"type":"error","name":"InvalidEpochDuration","inputs":[]},{"type":"error","name":"InvalidEpochDurationSetEpochsDelay","inputs":[]},{"type":"error","name":"InvalidFlashParams","inputs":[]},{"type":"error","name":"InvalidInitialization","inputs":[]},{"type":"error","name":"InvalidLengthEpochs","inputs":[]},{"type":"error","name":"InvalidNewEpochDuration","inputs":[]},{"type":"error","name":"InvalidOnBehalfOf","inputs":[]},{"type":"error","name":"InvalidOrigin","inputs":[]},{"type":"error","name":"InvalidReceiver","inputs":[]},{"type":"error","name":"InvalidRecipient","inputs":[]},{"type":"error","name":"InvalidReturnAmount","inputs":[]},{"type":"error","name":"InvalidSlasher","inputs":[]},{"type":"error","name":"InvalidTimestamp","inputs":[]},{"type":"error","name":"MaxLoanExceeded","inputs":[]},{"type":"error","name":"MissingRoles","inputs":[]},{"type":"error","name":"NewEpochDurationNotReady","inputs":[]},{"type":"error","name":"NoDepositWhitelist","inputs":[]},{"type":"error","name":"NoPreviousEpoch","inputs":[]},{"type":"error","name":"NotDelegator","inputs":[]},{"type":"error","name":"NotInitializing","inputs":[]},{"type":"error","name":"NotSlasher","inputs":[]},{"type":"error","name":"NotWhitelistedDepositor","inputs":[]},{"type":"error","name":"ReentrancyGuardReentrantCall","inputs":[]},{"type":"error","name":"SafeCastOverflowedUintDowncast","inputs":[{"name":"bits","type":"uint8","internalType":"uint8"},{"name":"value","type":"uint256","internalType":"uint256"}]},{"type":"error","name":"SafeERC20FailedOperation","inputs":[{"name":"token","type":"address","internalType":"address"}]},{"type":"error","name":"SlasherAlreadyInitialized","inputs":[]},{"type":"error","name":"TooLowFlashLoanValue","inputs":[]},{"type":"error","name":"TooMuchRedeem","inputs":[]},{"type":"error","name":"TooMuchWithdraw","inputs":[]},{"type":"error","name":"UnsupportedToken","inputs":[]}],"bytecode":{"object":"0x60c034608157601f614c9e38819003918201601f19168301916001600160401b038311848410176085578084926040948552833981010312608157604b60206045836099565b92016099565b9060805260a052604051614bf190816100ad823960805181818161140f01526118b0015260a051818181611da901526122ee0152f35b5f80fd5b634e487b7160e01b5f52604160045260245ffd5b51906001600160a01b038216820360815756fe60806040526004361015610011575f80fd5b5f3560e01c806301ffc9a7146105045780631415519b146104ff5780631b66c9e1146104fa5780631e9a6950146104f5578063248a9ca3146104f057806327810b6e146104eb578063281f5752146104e65780632d73c69c146104e15780632f2ff15d146104dc5780632fa27fae146104d757806331d9736c146104d257806336568abe146104cd578063392e53cd146104c85780634105a7dd146104c357806346361671146104be57806347e7ef24146104b957806348d3b775146104b45780634ff0876a146104af57806350861adc146104aa57806350f22068146104a557806352741a40146104a05780635346e34f1461049b57806359f769a9146104965780635cc07076146104915780635cffe9de1461048c578063613255ab1461048757806361819dd81461048257806361a8c8c41461047d578063653b04cd1461047857806365d61c6c146104735780636da3e06d1461046e5780636ec1e3f8146104695780637278e31c1461046457806373790ab31461045f578063766718081461045a578063794b15b7146104555780637953b33b146104505780637c04c80a1461044b578063810da75d1461044657806383cd9cc31461044157806383f46c2c1461043c578063859b93441461043757806387df0788146104325780638b0e9f3f1461042d57806391d14854146104285780639d66201b146104235780639f86fd851461041e5780639f9962dd14610419578063a1b1220214610414578063a217fddf1461040f578063a21a1df91461040a578063a286146614610405578063a3b5417214610400578063a5d03223146103fb578063a66b3a73146103f6578063a8b24f9a146103f1578063aa9354a3146103ec578063aabc2496146103e7578063aad3ec96146103e2578063afba70ad146103dd578063b1344271146103d8578063bc46f722146103d3578063bd49c35f146103ce578063bdc8144b146103c9578063bfefcd7b146103c4578063c31e8dd7146103bf578063c642b050146103ba578063ce9b7930146103b5578063d547741f146103b0578063d626811b146103ab578063d8dfeb45146103a6578063d9d98ce4146103a1578063db3887151461039c578063e945da7f14610397578063ecc98f0514610392578063ecf708581461038d578063efb559d614610388578063f3fef3a3146103835763f5e7ee0f1461037e575f80fd5b612aba565b612a14565b6128c9565b6128ac565b61288e565b612871565b612837565b61280c565b6127e1565b612721565b6126d5565b6126ad565b612693565b612625565b61260b565b61254b565b612531565b6124f7565b6124cf565b6124a5565b6123e4565b61223b565b61221d565b6121f5565b6121bb565b612175565b612128565b612043565b612009565b611fef565b611fcb565b611fa3565b611ed6565b611e9c565b611e3e565b611dd8565b611d94565b611d08565b6119f6565b61184b565b611832565b6117cc565b6117ae565b61176e565b611750565b61171e565b611463565b61143e565b6113fa565b6113d5565b61139b565b611375565b61133b565b611314565b61105a565b611003565b610fdc565b610f55565b610e54565b610e3b565b610dd5565b610dbb565b610d9a565b610aea565b610ad0565b610a35565b6109f0565b6109a5565b61096b565b61094b565b6108fd565b61088d565b61071f565b6106f7565b6106be565b6105e3565b610598565b61055e565b3461055a57602036600319011261055a5760043563ffffffff60e01b811680910361055a57602090637965db0b60e01b8114908115610549575b506040519015158152f35b6301ffc9a760e01b1490505f61053e565b5f80fd5b3461055a575f36600319011261055a5760206040517fc6aaadd7371d5e8f9ed6849dd66a66573a3ba37167d03f4352c9ba5693678fac8152f35b3461055a575f36600319011261055a5760206040517f9c56d972d63cbb4195b3c1484691dfc220fa96a4c47e7b6613bd82a022029e068152f35b6001600160a01b0381160361055a57565b3461055a57604036600319011261055a57600435610600816105d2565b6024359061060c613166565b6001600160a01b038116156106ad57335f908152600e6020526040902061063790613fa8565b613fa8565b821161069b57610657610648613ec0565b610650613f34565b9084613ffb565b9182156106865782610668926131a8565b90610671613195565b604080519182526020820192909252f35b0390f35b60405160016245ddc760e11b03198152600490fd5b604051632418411f60e11b8152600490fd5b6040516208978560e71b8152600490fd5b3461055a57602036600319011261055a576004355f525f80516020614b7c8339815191526020526020600160405f200154604051908152f35b3461055a575f36600319011261055a576001546040516001600160a01b039091168152602090f35b3461055a575f36600319011261055a5761074061073b42613e8e565b612d4c565b8015610771575f19810190811161076c5761075c602091612f94565b65ffffffffffff60405191168152f35b612ae4565b604051639fa56a5b60e01b8152600490fd5b6024359065ffffffffffff8216820361055a57565b6004359065ffffffffffff8216820361055a57565b634e487b7160e01b5f52604160045260245ffd5b606081019081106001600160401b038211176107dc57604052565b6107ad565b604081019081106001600160401b038211176107dc57604052565b90601f801991011681019081106001600160401b038211176107dc57604052565b6040519061082a826107e1565b565b6001600160401b0381116107dc57601f01601f191660200190565b81601f8201121561055a5780359061085e8261082c565b9261086c60405194856107fc565b8284526020838301011161055a57815f926020809301838601378301015290565b3461055a57606036600319011261055a576004356108aa816105d2565b6108b2610783565b90604435906001600160401b03821161055a576020926108d96108f5933690600401610847565b6001600160a01b039092165f908152600e8552604090206134e2565b604051908152f35b3461055a57604036600319011261055a57610949602435600435610920826105d2565b805f525f80516020614b7c833981519152602052610944600160405f200154613767565b613793565b005b3461055a575f36600319011261055a57602060015460d01c604051908152f35b3461055a575f36600319011261055a5760206040517f5295aaaa27fdd659293eafacbfafbc634c1b96298957e87de5f59308cdbfdad18152f35b3461055a57604036600319011261055a576024356109c2816105d2565b336001600160a01b038216036109de576109499060043561382e565b60405163334bd91960e11b8152600490fd5b3461055a575f36600319011261055a5760ff60025460a01c1680610a1c575b6020906040519015158152f35b5060035460a01c60ff16610a0f565b8015150361055a57565b3461055a57602036600319011261055a57600435610a5281610a2b565b610a5a613166565b610a626135ae565b5f54901515908160ff8216151514610abe5760ff191660ff8216175f556040519081527f3e12b7b36c75ac9609a3f58609b331210428e1a85909132638955ba0301eec3390602090a160015f80516020614b9c83398151915255005b60405163a741a04560e01b8152600490fd5b3461055a575f36600319011261055a57602061075c612b34565b3461055a5760408060031936011261055a576004803591610b0a836105d2565b610b12613166565b6001600160a01b0391838316908115610d8c575f5460ff811680610d73575b610d645783516370a0823160e01b808252308483019081529096602093909160109190911c82169084908490819083010381845afa928315610d3c575f93610d41575b50610b869060243590309033906138c0565b5f5486519788523085890190815290979184918391908290819060200103918b60101c165afa908115610d3c57610bc5935f92610d0f575b5050612b06565b938415610d005760081c60ff1680610ceb575b610cdd57509061068291610c89610bed613ec0565b95610c36610bf9613f34565b610c21610c078a838b613ffb565b99610c1b8a610c1542613e8e565b92612b9c565b90613a14565b5050610c3089610c1542613e8e565b90613af4565b50506001600160a01b0381165f908152600e6020526040902090610c8388610c7e610632610c6342613e8e565b6001600160a01b039095165f908152600e6020526040902090565b612b9c565b91613bd0565b505081518481526020810186905233907fdcbc1c05240f31ff3ad067ef1ee35ce4997762752e3a095284754544f4c709d790604090a3610cc7613195565b5191825260208201929092529081906040820190565b8251632484557960e01b8152fd5b50610cf884610c7e613ec0565b815410610bd8565b50825163070f6eed60e11b8152fd5b610d2e9250803d10610d35575b610d2681836107fc565b810190612b74565b5f80610bbe565b503d610d1c565b612b83565b610b86919350610d5d90853d8711610d3557610d2681836107fc565b9290610b74565b5082516304f63b8560e01b8152fd5b50335f9081526005602052604090205460ff1615610b31565b8251630d534ce360e11b8152fd5b3461055a575f36600319011261055a57602060ff5f54166040519015158152f35b3461055a575f36600319011261055a57602061075c612ba9565b3461055a575f36600319011261055a57602060ff60025460a01c166040519015158152f35b90604060031983011261055a5760043565ffffffffffff8116810361055a5791602435906001600160401b03821161055a57610e3891600401610847565b90565b3461055a5760206108f5610e4e36610dfa565b90613357565b3461055a57602036600319011261055a57600435610e71816105d2565b610e79613166565b335f9081527f9aeaa4f1a9be826e331dea6728ca206744e0a34dccbc1d3da4a68acb8abf036360205260409020547f5295aaaa27fdd659293eafacbfafbc634c1b96298957e87de5f59308cdbfdad19060ff1615610f3757506016546001600160a01b039182169181168214610abe576001600160a01b03191681176016556040519081527f08aacfdb137d688b12f67ef81735dede1ae18b0664f6b347ee9ef00ae94ff91990602090a160015f80516020614b9c83398151915255005b6044906040519063e2517d3f60e01b82523360048301526024820152fd5b3461055a57602036600319011261055a57600435610f7281610a2b565b610f7a613166565b610f8261360b565b5f54901515908160ff8260081c16151514610abe5761ff001916600882901b61ff0016175f556040519081527ffa7a25a0b611d4ba3c0ea990e90dc23d484a5dd7a1be4733fef2946ba74530c690602090a1610949613195565b3461055a57602036600319011261055a5760206108f5600435610ffe816105d2565b612bef565b3461055a57602036600319011261055a576004355f526006602052602060405f2054604051908152f35b9181601f8401121561055a578235916001600160401b03831161055a576020838186019501011161055a57565b3461055a57608036600319011261055a5760048035611078816105d2565b602435611084816105d2565b604435906064356001600160401b03811161055a576110a6903690860161102d565b9190926110b1613166565b8015611303576110c082612c88565b81116112f257816110d482611135946130ac565b5f549092906110f69060101c6001600160a01b03165b6001600160a01b031690565b604080516370a0823160e01b808252308c8301908152929a939991986020986001600160a01b03808d16989097939693959094918b918d918291840190565b03818b5afa9a8b15610d3c578c978f948f925f9e6112ad575b50928b611182936111698f98968b9a98958b9116809e613c8e565b516323e30c8b60e01b8152978896879633908801612c3e565b03815f885af18015610d3c577f439148f0bbc682ca079e46d6e2c2f0c1e3b820f1a291b069d8882abf8cf18dd9915f91611290575b50036112805785926111cc866111d593612b9c565b9030908a6138c0565b875190815230898201908152909283918290819060200103915afa928315610d3c575f93611261575b505061120a8383612b06565b10611251579061121991612b06565b80611232575b82611228613195565b5160018152602090f35b60165461124a92906001600160a01b03165b90613c8e565b818061121f565b50505051637f28d71160e01b8152fd5b611278929350803d10610d3557610d2681836107fc565b905f806111fe565b8851631e4ec46b60e01b81528a90fd5b6112a79150883d8a11610d3557610d2681836107fc565b5f6111b7565b889e5088979592938e9795928e92893d8b116112eb575b6112ce81836107fc565b81016112d991612b74565b9f509295979e9f50939295975061114e565b503d6112c4565b60405163347177ad60e21b81528690fd5b6040516391ba94bf60e01b81528690fd5b3461055a57602036600319011261055a5760206108f5600435611336816105d2565b612c88565b3461055a575f36600319011261055a5760206040517f591f6a0113ada8aff67efadec8ae2fa585cb4ebf4e1f8fc1205ffbeff98d00ec8152f35b3461055a575f36600319011261055a57602061075c61139661073b42613e8e565b612f94565b3461055a575f36600319011261055a5760206040517f439148f0bbc682ca079e46d6e2c2f0c1e3b820f1a291b069d8882abf8cf18dd98152f35b3461055a575f36600319011261055a57602060ff60165460a01c166040519015158152f35b3461055a575f36600319011261055a576040517f00000000000000000000000000000000000000000000000000000000000000006001600160a01b03168152602090f35b3461055a575f36600319011261055a57602060ff60035460a01c166040519015158152f35b3461055a57604036600319011261055a5760043561147f610783565b611487613166565b60035461149c906001600160a01b03166110ea565b330361170c576114ae61073b42613e8e565b906114b881612d4c565b90821515806116fb575b80156116f2575b6116e057610682937ff9d090c096f71cd1659861a9ce5b6f384bceb4e2fa4e4a19edf6489a9b8d56c7926114fb613ec0565b9461151661150882612b8e565b5f52600660205260405f2090565b54908281036115fa575061152a8187612b9c565b8381188185100281189687806115b3575b50505050505b83611580575b6040805191825265ffffffffffff929092166020820152908101839052606090a1611570613195565b6040519081529081906020820190565b5f546115ae90859061159d9060101c6001600160a01b03166110ea565b6001546001600160a01b0316611244565b611547565b6115ef93610bbe83610c1b6115d96115d2611508986115e99888613d65565b8096612b06565b946115e342613e8e565b92612b06565b92612b8e565b555f8080808761153b565b915061160e825f52600660205260405f2090565b549061161e81610c7e848a612b9c565b908482188286100282189788611639575b5050505050611541565b6116ae93836116619361166e8c61166961165761169f998884613d65565b9788958584613d65565b948592612b06565b612b06565b938484106116b9575b610bbe90610c1b61168d9596976115e342613e8e565b61169961150887612b8e565b55612b06565b915f52600660205260405f2090565b555f8080808061162f565b916116d5610bbe916116cf8661168d9798612b06565b90612b9c565b859450929050611677565b604051635e18d2a560e01b8152600490fd5b508282116114c9565b5061170583612af8565b82106114c2565b60405163dabc4ad960e01b8152600490fd5b3461055a575f36600319011261055a5761173a61073b42613e8e565b6001810180911161076c5761075c602091612f94565b3461055a575f36600319011261055a5760206108f561073b42613e8e565b3461055a57602036600319011261055a5760043561178b816105d2565b60018060a01b03165f526005602052602060ff60405f2054166040519015158152f35b3461055a57602036600319011261055a5760206108f561073b610798565b3461055a57604036600319011261055a576004356117e9816105d2565b6024356001600160401b0380821161055a573660238301121561055a57816004013590811161055a573660248260051b8401011161055a57610682926024611570930190612e37565b3461055a5760206108f561184536610dfa565b9061342d565b3461055a5760208060031936011261055a57600480359061186b826105d2565b611873613166565b60025460a01c60ff166119e7576040516302910f8b60e31b81526001600160a01b03838116838301908152909491908290829081906020010381887f0000000000000000000000000000000000000000000000000000000000000000165afa908115610d3c575f916119ba575b50156119aa5760405163fbfa77cf60e01b8152838516949082818581895afa928315610d3c575f9361197b575b50503091160361196c5750600280546001600160a01b03929092166001600160a81b031990921691909117600160a01b1790557fdb2160616f776a37b24808115554e79439bf26cccbbd4438190cc6d28e80ecd15f80a2610949613195565b60405163b9f0f17160e01b8152fd5b61199b929350803d106119a3575b61199381836107fc565b810190612f6c565b905f8061190d565b503d611989565b506040516324e5af8d60e21b8152fd5b6119da9150823d84116119e0575b6119d281836107fc565b810190612f57565b5f6118e0565b503d6119c8565b604051631380833b60e01b8152fd5b3461055a57604036600319011261055a57611a0f610798565b602435611a1a613166565b611a22613662565b60038110611cf65765ffffffffffff9182611a4860135465ffffffffffff9060601c1690565b168015159081611ce0575b50611bbd575b60015460d01c8316818416808211611bab57601354611a899060601c65ffffffffffff165b65ffffffffffff1690565b159182611ba1575b505080611b96575b610abe57611b6b611b42611b3d7f1b3efab1b836932ce515e4748ca76335809d1d202c92ee86d594e43ce0039e8395611ae8611ae3611ada61073b42613e8e565b600f5490612b9c565b601455565b6013805465ffffffffffff60901b1916609087901b65ffffffffffff60901b16179055611b1a61139661073b42613e8e565b90611b36600f54611b30611a7e60015460d01c90565b90612f81565b9116612b9c565b613e8e565b6013805465ffffffffffff60601b191660609290921b65ffffffffffff60601b16919091179055565b611b7482601055565b6040805165ffffffffffff9290921682526020820192909252a1610949613195565b5081600f5414611a99565b1490505f80611a91565b6040516359dcfd5560e11b8152600490fd5b611bc8601154601255565b611c02611bd760015460d01c90565b6bffffffffffff0000000000006013549160301b16906bffffffffffff000000000000191617601355565b600154611c2e9060a01c65ffffffffffff1665ffffffffffff1665ffffffffffff196013541617601355565b611c39601454601155565b601354611c709060901c65ffffffffffff16600180546001600160d01b031660d09290921b6001600160d01b031916919091179055565b601354611cab9060601c65ffffffffffff166001805465ffffffffffff60a01b191660a09290921b65ffffffffffff60a01b16919091179055565b611cb6601054600f55565b611cbf5f601455565b601380546bffffffffffffffffffffffff60601b191690555f601055611a59565b9050611cee611a7e42613e8e565b10155f611a53565b6040516317a509b960e31b8152600490fd5b3461055a57602036600319011261055a57600435611d2581610a2b565b611d2d613166565b611d356136b9565b601654901515908160ff8260a01c16151514610abe5760ff60a01b191660a082901b60ff60a01b16176016556040519081527e4ea26b9681ba216ba307c9c0ee4edcef296c9af6506b16ad458a51431745d990602090a1610949613195565b3461055a575f36600319011261055a576040517f00000000000000000000000000000000000000000000000000000000000000006001600160a01b03168152602090f35b3461055a575f36600319011261055a57611df461073b42613e8e565b611dfc613ec0565b90805f52600660205260405f2054820180921161076c576001810180911161076c575f52600660205260405f2054810180911161076c57604051908152602090f35b3461055a57604036600319011261055a57602060ff611e90602435611e62816105d2565b6004355f525f80516020614b7c833981519152845260405f209060018060a01b03165f5260205260405f2090565b54166040519015158152f35b3461055a57602036600319011261055a57600435611eb9816105d2565b60018060a01b03165f52600e60205260206108f560405f20613fa8565b3461055a5760408060031936011261055a57600435611ef4816105d2565b6024356001600160401b03811161055a575f80611f9293611f1b608094369060040161102d565b908188519283928337810184815203915af43d15611f9a5760203d611f3f8161082c565b90611f4c875192836107fc565b81523d5f8383013e5b8551958693151583850152808401528051918291826060860152018484015e5f838284010152601f801991011681010360608101845201826107fc565b805190602001fd5b60206060611f55565b3461055a575f36600319011261055a57602065ffffffffffff60015460a01c16604051908152f35b3461055a575f36600319011261055a57602060ff5f5460081c166040519015158152f35b3461055a575f36600319011261055a5760206040515f8152f35b3461055a575f36600319011261055a5760206040517f4a634bc14d77baf979756509ef4298c6f6318af357828612545267ee2eb792338152f35b3461055a57604036600319011261055a57600435612060816105d2565b60243561206c81610a2b565b612074613166565b61207c613710565b6001600160a01b038216918215612116575f8381526005602052604090205460ff16151582151514610abe576001600160a01b03165f9081526005602052604090207ff991b1ecfb5115cbb36a2b2e2240c058406d2acc2fcc6e9e2dc99d845ff70a629161210b916120f9908260ff801983541691151516179055565b60405190151581529081906020820190565b0390a2610949613195565b604051630da30f6560e31b8152600490fd5b3461055a57604036600319011261055a57602061216c60243561214a816105d2565b6004355f526008835260405f209060018060a01b03165f5260205260405f2090565b54604051908152f35b3461055a57604036600319011261055a57602060ff611e90602435612199816105d2565b6004355f526009845260405f209060018060a01b03165f5260205260405f2090565b3461055a575f36600319011261055a5760206040517fc9feed28b4b1a1d11c6791da7bb7f6b8d33e831a4992a9383dead1ec2c82c35a8152f35b3461055a575f36600319011261055a576016546040516001600160a01b039091168152602090f35b3461055a57602036600319011261055a57602061075c600435612f94565b3461055a5760208060031936011261055a57600480359061225b826105d2565b612263613166565b60035460a01c60ff166123d5576001600160a01b038281169390846122c3575b6003805460ff60a01b1916600160a01b179055847fe7e4c932e03abddfe20f83af42c33627e816115c7ec2b168441f65dc14bfc3ba5f80a2610949613195565b6040516302910f8b60e31b81526001600160a01b0385168482019081528390829081906020010381857f0000000000000000000000000000000000000000000000000000000000000000165afa908115610d3c575f916123b8575b50156123a75760405163fbfa77cf60e01b815282818581895afa928315610d3c575f93612388575b5050309116036123795750600380546001600160a01b0319166001600160a01b039092169190911790555f808080612283565b604051633f3e089160e21b8152fd5b61239f929350803d106119a35761199381836107fc565b905f80612346565b60405163dabc4ad960e01b81528390fd5b6123cf9150833d85116119e0576119d281836107fc565b5f61231e565b60405163703fe2e560e01b8152fd5b3461055a57604036600319011261055a57600435612401816105d2565b6024359061240d613166565b6001600160a01b03918183169081156124935761243e6106829461243083613df2565b9485915f5460101c16613c8e565b604080519182526020820184905233917f865ca08d59f5cb456e85cd2f7ef63664ea4f73327414e9d8152c4158b0e946459190a360015f80516020614b9c833981519152556040519081529081906020820190565b604051634e46966960e11b8152600490fd5b3461055a57602036600319011261055a576004355f526007602052602060405f2054604051908152f35b3461055a575f36600319011261055a576003546040516001600160a01b039091168152602090f35b3461055a575f36600319011261055a5760206040517fc9078c78bcaac2be1c77c160c539a489be2b72939771b1a6302fed3e2150c7458152f35b3461055a575f36600319011261055a5760206108f5613ec0565b3461055a57602036600319011261055a57600435612567613166565b335f9081527f2d4ccbfe9f7672a6f2537c1e5bce6adacb73706879154bbab6ce096012d6721660205260409020547f4a634bc14d77baf979756509ef4298c6f6318af357828612545267ee2eb792339060ff1615610f3757508060045414610abe576020817f854df3eb95564502c8bc871ebdd15310ee26270f955f6c6bd8cea68e75045bc092600455604051908152a160015f80516020614b9c83398151915255005b3461055a575f36600319011261055a5760206108f5613f34565b3461055a57602036600319011261055a57600435612642816105d2565b61264e61073b42613e8e565b61265782612bef565b916126628183613108565b830180931161076c576001820180921161076c5761267f91613108565b810180911161076c57602090604051908152f35b3461055a575f36600319011261055a5760206108f561306c565b3461055a575f36600319011261055a576002546040516001600160a01b039091168152602090f35b3461055a57604036600319011261055a576109496024356004356126f8826105d2565b805f525f80516020614b7c83398151915260205261271c600160405f200154613767565b61382e565b3461055a57602036600319011261055a5760043561273d613166565b335f9081527f82a1dc868a49801aa31c5dd393dc0b9005735300cdcd4bbc1af68215effcd6f860205260409020547fc9078c78bcaac2be1c77c160c539a489be2b72939771b1a6302fed3e2150c7459060ff1615610f3757508060155414610abe576020817f85370e46fb038a73f13e1c280ffc745e71ff72b4ea57b15c6eca3749d73c0cb892601555604051908152a160015f80516020614b9c83398151915255005b3461055a575f36600319011261055a575f5460405160109190911c6001600160a01b03168152602090f35b3461055a57604036600319011261055a5760206108f560043561282e816105d2565b602435906130ac565b3461055a575f36600319011261055a5760206040517fbae4ee3de6c709ff9a002e774c5b78cb381560b219213c88ae0f1e207c03c0238152f35b3461055a575f36600319011261055a576020601554604051908152f35b3461055a575f36600319011261055a576020604051633b9aca008152f35b3461055a575f36600319011261055a576020600454604051908152f35b3461055a57606036600319011261055a576004356128e6816105d2565b6128ee610783565b6001600160401b03919060443583811161055a5761291090369060040161102d565b90926040938451612920816107c1565b6060815260606020820152606086820152928061297f575b61068286612970878761296a6129518984845191612b13565b928561296160208501518361342d565b93015190613357565b91613ffb565b90519081529081906020820190565b810193925060208185031261055a5780359086821161055a57019260608482031261055a578451956129b0876107c1565b843581811161055a57826129c5918701610847565b8752602085013581811161055a57826129df918701610847565b60208801528585013590811161055a5761068296612a0861296a93612951936129709801610847565b87820152939450612938565b3461055a57604036600319011261055a57600435612a31816105d2565b602435612a3c613166565b6001600160a01b038216156106ad578015612aa857612a6b612a5c613f34565b612a64613ec0565b908361443e565b335f908152600e60205260409020909290612a8590613fa8565b8311612a96576106689183916131a8565b6040516321727a3760e11b8152600490fd5b604051636c6c627d60e11b8152600490fd5b3461055a57604036600319011261055a5760206108f5602435612adc816105d2565b600435613108565b634e487b7160e01b5f52601160045260245ffd5b5f1981019190821161076c57565b9190820391821161076c57565b6001600160a01b03165f908152600e60205260409020610e389291906134e2565b65ffffffffffff8060135460601c169081158015612b61575b612b55575090565b905060015460a01c1690565b508181612b6d42613e8e565b1610612b4d565b9081602091031261055a575190565b6040513d5f823e3d90fd5b906001820180921161076c57565b9190820180921161076c57565b60135465ffffffffffff90818160601c168015908115612bdb575b50612bd05760901c1690565b505060015460d01c90565b905082612be742613e8e565b16105f612bc4565b6001600160a01b03165f908152600e60205260409020612c0e90613fa8565b612c16613ec0565b612c1e613f34565b906001810180911161076c576001820180921161076c57610e3892613d65565b94919286949160c0979460018060a01b0380921688521660208701526040860152606085015260a060808501528160a0850152848401375f828201840152601f01601f1916010190565b601654612c999060a01c60ff161590565b612cff575f5460101c6001600160a01b0390811691168103612cff576040516370a0823160e01b815230600482015290602090829060249082905afa908115610d3c575f91612ce6575090565b610e38915060203d602011610d3557610d2681836107fc565b505f90565b65ffffffffffff918216908216039190821161076c57565b634e487b7160e01b5f52601260045260245ffd5b9065ffffffffffff809116918215612d4757160490565b612d1c565b60015465ffffffffffff808316929160a081901c821680851015612dc45750506013549281841690818015918215612dba575b5050612da857610e38936116cf92612d9d611a7e9360125496612d04565b9160301c1690612d30565b60405163b7d0949760e01b8152600490fd5b109050815f612d7f565b909160135490808260601c1695868015918215612e2d575b505015612e08575050610e3893506116cf91612dfe611a7e9260115495612d04565b9060d01c90612d30565b6116cf9350611a7e9250612e22610e389660145496612d04565b9160901c1690612d30565b109050865f612ddc565b90612e40613166565b5f926001600160a01b038316928315612493578115612eea575f5b828110612ec857505f547f326b6aff1cd2fb1c8234de4f9dcfb9047c5c36eb9ef2eb34af5121e969a75d279286929091612eab918491612ea69060101c6001600160a01b03166110ea565b613c8e565b612ebc604051928392339684612f25565b0390a39061082a613195565b94612ee36001916116cf612edd898789612f10565b35613df2565b9501612e5b565b60405163edf3b93360e01b8152600490fd5b634e487b7160e01b5f52603260045260245ffd5b9190811015612f205760051b0190565b612efc565b604080825281018390529392916001600160fb1b03811161055a5760209160609160051b809183880137850101930152565b9081602091031261055a5751610e3881610a2b565b9081602091031261055a5751610e38816105d2565b8181029291811591840414171561076c57565b60125480821061305a5760115480831015612fd55750611b3d90610e3892611b36612fc96013549365ffffffffffff93612b06565b828460301c1690612f81565b905060145480158015613051575b1561301b5750610e389165ffffffffffff613011613007611b3d9460015494612b06565b8360d01c90612f81565b9160a01c16612b9c565b611b3d9150610e389261304761303b6013549365ffffffffffff93612b06565b828460901c1690612f81565b9160601c16612b9c565b50808310612fe3565b60405163d5b25b6360e01b8152600490fd5b65ffffffffffff8060135460601c168015918215613097575b50506130915760105490565b600f5490565b9091506130a342613e8e565b16105f80613085565b5f546001600160a01b039160109190911c8216908216036130f657601654166130d457505f90565b633b9aca006015546130e68184613ce7565b92091515810180911161076c5790565b60405163350b944160e11b8152600490fd5b9061312e90825f52600860205260405f209060018060a01b03165f5260205260405f2090565b54905f52600660205260405f2054600760205260405f2054906001810180911161076c576001820180921161076c57610e3892613d65565b5f80516020614b9c83398151915260028154146131835760029055565b604051633ee5aeb560e01b8152600490fd5b60015f80516020614b9c83398151915255565b335f908152600e60205260409020939291906131c342613e8e565b335f908152600e602052604090206131da90613fa8565b9184830392831161076c576132157febff2602b3f468259e1e99f613fed6691f3a6526effe6ef3e768ba7ae7a36c4f9385936132a499613bd0565b505061322f61322342613e8e565b610c3087611669613f34565b505061324961323d42613e8e565b610c1b84611669613ec0565b50506132f2816132dd61326661326161073b42613e8e565b612b8e565b6132bc61327b825f52600660205260405f2090565b5461328e835f52600760205260405f2090565b5461329a82828b613ffb565b9d8e998a93612b9c565b6132b6855f52600660205260405f2090565b55612b9c565b6132ce825f52600760205260405f2090565b555f52600860205260405f2090565b9060018060a01b03165f5260205260405f2090565b6132fd838254612b9c565b9055604080519485526020850195909552938301526001600160a01b03909216913391606090a3565b9081602091031261055a575163ffffffff8116810361055a5790565b90600163ffffffff8093160191821161076c57565b90805115613423578060208061337293518301019101613326565b61337b8161426c565b9061338c825165ffffffffffff1690565b9065ffffffffffff808516921682811461341757821191826133c2575b50506133b95750610e389061401c565b60209150015190565b9091506133d0600a54612af8565b63ffffffff8316149182156133e9575b50505f806133a9565b61340f9192506134036133fe611a7e92613342565b61426c565b5165ffffffffffff1690565b115f806133e0565b50505060209150015190565b50610e389061401c565b908051156134d8578060208061344893518301019101613326565b613451816142f6565b90613462825165ffffffffffff1690565b9065ffffffffffff8085169216828114613417578211918261348f575b50506133b95750610e38906140e3565b90915061349d600c54612af8565b63ffffffff8316149182156134b6575b50505f8061347f565b6134d09192506134036134cb611a7e92613342565b6142f6565b115f806134ad565b50610e38906140e3565b918051156135a457806020806134fd93518301019101613326565b916135088382614376565b92613519845165ffffffffffff1690565b9065ffffffffffff8085169216828114613598578211918261354f575b505061354657610e3892506141a3565b50506020015190565b90915061355c8354612af8565b63ffffffff831614918215613575575b50505f80613536565b61359091925061340361358a611a7e92613342565b85614376565b115f8061356c565b50505050506020015190565b50610e38916141a3565b335f9081527f03b26b53c87faa1058f30bb5d2fee64f717719a0d9b7e4f4df027aa5e9b6ed69602052604090207fbae4ee3de6c709ff9a002e774c5b78cb381560b219213c88ae0f1e207c03c0239060ff905b541615610f375750565b335f9081527fe41986b390c4ce6791b87f7423b5fab7a81a0e6d89660b6264f697d008b2243a602052604090207fc6aaadd7371d5e8f9ed6849dd66a66573a3ba37167d03f4352c9ba5693678fac9060ff90613601565b335f9081527f99e47f2907af87dbb5c62e22bd8ea822f5011dfd1e243469ce26ebebf3ab93e3602052604090207f591f6a0113ada8aff67efadec8ae2fa585cb4ebf4e1f8fc1205ffbeff98d00ec9060ff90613601565b335f9081527f665296150f4083bfe5a58682f99690b24ea27a3f56243679fa9797c6a16217aa602052604090207fc9feed28b4b1a1d11c6791da7bb7f6b8d33e831a4992a9383dead1ec2c82c35a9060ff90613601565b335f9081527f0287ab4cb376ea253d7b2ce0c2cbf458f7deae9458470d74afdfbbee484e9540602052604090207f9c56d972d63cbb4195b3c1484691dfc220fa96a4c47e7b6613bd82a022029e069060ff90613601565b5f8181525f80516020614b7c83398151915260209081526040808320338452909152902060ff90613601565b5f8181525f80516020614b7c833981519152602081815260408084206001600160a01b03871685529091529091205460ff16613827575f828152602091825260408082206001600160a01b038616835290925220805460ff1916600117905533916001600160a01b0316907f2f8788117e7eff1d82e926ec794901d17c78024a50270940304540a733656f0d5f80a4600190565b5050505f90565b5f8181525f80516020614b7c833981519152602081815260408084206001600160a01b03871685529091529091205460ff1615613827575f828152602091825260408082206001600160a01b038616835290925220805460ff1916905533916001600160a01b0316907ff6391f5c32d9c69d2a47ea670b442974b53935d1edc7fd64eb21e047a839171b5f80a4600190565b6040516323b872dd60e01b60208201526001600160a01b03928316602482015292909116604483015260648083019390935291815260a08101918183106001600160401b038411176107dc5761082a926040526143e4565b600b54811015612f2057600b5f525f80516020614b5c83398151915201905f90565b600d54811015612f2057600d5f525f80516020614b3c83398151915201905f90565b8054821015612f20575f5260205f2001905f90565b600d54600160401b8110156107dc576001810180600d55811015612f2057600d5f525f80516020614b3c8339815191520155565b600b54600160401b8110156107dc576001810180600b55811015612f2057600b5f525f80516020614b5c8339815191520155565b90815491600160401b8310156107dc57826139fc91600161082a9501815561395c565b90919082549060031b91821b915f19901b1916179055565b919091600d9081548015613abf575b50613a2c614477565b50929091815492613a3b613ec0565b9481613aaa575b5015613a8757505f19820182811161076c5781541115612f20575f527fd7b6990105719101dabeb77144f2a3385c8033acd3af97e9423a695e81ad1eb4018390559190565b613a9b926001600160d01b03169150614673565b5050613aa683613971565b9190565b65ffffffffffff83811691161490505f613a42565b600160401b8110156107dc5760018101808455811015612f20575f908382525f80516020614b3c83398151915201555f613a23565b919091600b9081548015613b9b575b50613b0c6144cc565b50929091815492613b1b613f34565b9481613b86575b5015613b6757505f19820182811161076c5781541115612f20575f527f0175b7a638427703f0dbe7bb9bbf987a2551717b34e79f33b5b1008d1fa01db8018390559190565b613b7b926001600160d01b03169150614743565b5050613aa6836139a5565b65ffffffffffff83811691161490505f613b22565b600160401b8110156107dc5760018101808455811015612f20575f908382525f80516020614b5c83398151915201555f613b03565b90929192600182019081548015613c5e575b5084613bed84614521565b50949092845493613bfd83613fa8565b9681613c49575b5015613c26575050505f19810190811161076c576139fc8591613aa69361395c565b613aa6949293613c42926001600160d01b0390911691906147e2565b50506139d9565b65ffffffffffff83811691161490505f613c04565b600160401b8110156107dc57806001613c7a920184558361395c565b8154905f199060031b1b191690555f613be2565b60405163a9059cbb60e01b60208201526001600160a01b03909216602483015260448083019390935291815260808101916001600160401b038311828410176107dc5761082a926040526143e4565b8115612d47570490565b90808202905f1981840990828083109203918083039214613d5857633b9aca009082821115613d46577f88f2cfb83100cb4e69e7c79c58b316e597157d372fb9787e8e47ce423a2e9c6d940990828211900360f71b910360091c170290565b634e487b715f5260116020526024601cfd5b5050633b9aca0091500490565b91818302915f1981850993838086109503948086039514613de55784831115613dd85790829109815f038216809204600280826003021880830282030280830282030280830282030280830282030280830282030280920290030293600183805f03040190848311900302920304170290565b821560030260111861455a565b505090610e389250613cdd565b90613dff61073b42613e8e565b82101561305a5760ff613e2f613e1d845f52600960205260405f2090565b335f9081526020919091526040902090565b5416613e7c57613e3f3383613108565b918215613e6a57613e5d906132dd33915f52600960205260405f2090565b805460ff19166001179055565b6040516366c0bcbf60e11b8152600490fd5b604051630c8d9eab60e31b8152600490fd5b65ffffffffffff90818111613ea1571690565b604490604051906306dfcc6560e41b8252603060048301526024820152fd5b600c5480613efb57505f5b6001600160d01b03811615612cff57600d54811015612f2057600d5f525f80516020614b3c833981519152015490565b805f1981011161076c57600c5f527fdf6966c971051c3d54ec59162606531493a51404a002842f56009d7e5cf4a8c6015460301c613ecb565b600a5480613f6f57505f5b6001600160d01b03811615612cff57600b54811015612f2057600b5f525f80516020614b5c833981519152015490565b805f1981011161076c57600a5f527fc65a7bb8d6351c1cf70c95a316cc6a92839c986682d98bc35f958f4883f9d2a7015460301c613f3f565b805480613fdd57505f5b6001600160d01b03811615613fd7576001613fcd920161395c565b90549060031b1c90565b50505f90565b5f1990808281011161076c57825f5260205f2001015460301c613fb2565b91906001810180911161076c576001820180921161076c57610e3892613d65565b600a54905f82916005841161408a575b61403693506149c7565b8061405957505f5b6001600160d01b03811615612cff57613fcd610e3891613918565b61407e61406861408592612af8565b600a5f525f80516020614b1c8339815191520190565b5460301c90565b61403e565b91926140958161489c565b810390811161076c5761403693600a5f5265ffffffffffff80835f80516020614b1c833981519152015416908516105f146140d157509161402c565b9291506140dd90612b8e565b9061402c565b600c54905f82916005841161414a575b6140fd9350614a30565b8061412057505f5b6001600160d01b03811615612cff57613fcd610e389161393a565b61407e61412f61414592612af8565b600c5f525f80516020614afc8339815191520190565b614105565b91926141558161489c565b810390811161076c576140fd93600c5f5265ffffffffffff80835f80516020614afc833981519152015416908516105f146141915750916140f3565b92915061419d90612b8e565b906140f3565b908154905f829160058411614206575b6141be935084614a99565b806141e657505f905b6001600160d01b03821615613fd757610e38916001613fcd920161395c565b61407e6141f561420092612af8565b835f5260205f200190565b906141c7565b91926142118161489c565b810390811161076c576141be93855f5265ffffffffffff808360205f20015416908516105f146142425750916141b3565b92915061424e90612b8e565b906141b3565b60405190614261826107e1565b5f6020838281520152565b614274614254565b5061427d614254565b50600a54811015612f2057600a5f5260206040519161429b836107e1565b5f80516020614b1c83398151915201549165ffffffffffff83169283825260301c9182910152600b54811015612f2057600b5f525f80516020614b5c8339815191520154604051916142ec836107e1565b8252602082015290565b6142fe614254565b50614307614254565b50600c54811015612f2057600c5f52602060405191614325836107e1565b5f80516020614afc83398151915201549165ffffffffffff83169283825260301c9182910152600d54811015612f2057600d5f525f80516020614b3c8339815191520154604051916142ec836107e1565b906020600161439a6143c69361438a614254565b50614393614254565b508561395c565b5093604051946143a9866107e1565b549465ffffffffffff86169586825260301c93849101520161395c565b905490604051926143d6846107e1565b835260031b1c602082015290565b905f602091828151910182855af115612b83575f513d61443557506001600160a01b0381163b155b6144135750565b604051635274afe760e01b81526001600160a01b039091166004820152602490fd5b6001141561440c565b91906001810180911161076c576001820180921161076c57614461828285613d65565b928215612d4757091515810180911161076c5790565b600c548061448857505f905f905f90565b805f1981011161076c57600c5f527fdf6966c971051c3d54ec59162606531493a51404a002842f56009d7e5cf4a8c6015460019165ffffffffffff82169160301c90565b600a54806144dd57505f905f905f90565b805f1981011161076c57600a5f527fc65a7bb8d6351c1cf70c95a316cc6a92839c986682d98bc35f958f4883f9d2a7015460019165ffffffffffff82169160301c90565b8054806145325750505f905f905f90565b5f1991818381011161076c575f5260205f2001015460019165ffffffffffff82169160301c90565b634e487b715f526020526024601cfd5b600c5490600160401b8210156107dc576001820180600c55821015612f2057600c5f52805160209091015160301b65ffffffffffff191665ffffffffffff91909116175f80516020614afc83398151915290910155565b600a5490600160401b8210156107dc576001820180600a55821015612f2057600a5f52805160209091015160301b65ffffffffffff191665ffffffffffff91909116175f80516020614b1c83398151915290910155565b8054600160401b8110156107dc576146359160018201815561395c565b61466057815160209092015160301b65ffffffffffff191665ffffffffffff92909216919091179055565b634e487b7160e01b5f525f60045260245ffd5b600c54919291801561471a5761412f61468b91612af8565b9081549165ffffffffffff90818416918316808311614708578692036146d0576146c992509065ffffffffffff82549181199060301b169116179055565b60301c9190565b5050614703906146ef6146e161081d565b65ffffffffffff9092168252565b6001600160d01b038516602082015261456a565b6146c9565b604051632520601d60e01b8152600490fd5b5061473e9061472a6146e161081d565b6001600160d01b038416602082015261456a565b5f9190565b600a5491929180156147be5761406861475b91612af8565b9081549165ffffffffffff9081841691831680831161470857869203614799576146c992509065ffffffffffff82549181199060301b169116179055565b5050614703906147aa6146e161081d565b6001600160d01b03851660208201526145c1565b5061473e906147ce6146e161081d565b6001600160d01b03841660208201526145c1565b80549293928015614877576147f961480491612af8565b825f5260205f200190565b9182549265ffffffffffff918285169281168084116147085787930361484357506146c992509065ffffffffffff82549181199060301b169116179055565b9150506147039161486361485561081d565b65ffffffffffff9093168352565b6001600160d01b0386166020830152614618565b509061473e9161488861485561081d565b6001600160d01b0385166020830152614618565b6001811115610e3857600181600160801b8110156149b5575b61495d61495361494961493f61493561492b61496997600488600160401b6149649a10156149a8575b64010000000081101561499b575b6201000081101561498e575b610100811015614982575b6010811015614976575b101561496e575b60030260011c614924818b613cdd565b0160011c90565b614924818a613cdd565b6149248189613cdd565b6149248188613cdd565b6149248187613cdd565b6149248186613cdd565b8093613cdd565b821190565b900390565b60011b614914565b811c9160021b9161490d565b60081c91811b91614903565b60101c9160081b916148f8565b60201c9160101b916148ec565b60401c9160201b916148de565b50600160401b9050608082901c6148b5565b905b8281106149d557505090565b9091808216906001818418811c830180931161076c57600a5f5265ffffffffffff80845f80516020614b1c833981519152015416908616105f14614a1d575050915b906149c9565b90939250810180911161076c5790614a17565b905b828110614a3e57505090565b9091808216906001818418811c830180931161076c57600c5f5265ffffffffffff80845f80516020614afc833981519152015416908616105f14614a86575050915b90614a32565b90939250810180911161076c5790614a80565b91905b838210614aa95750505090565b909192808316906001818518811c830180931161076c57855f5265ffffffffffff808460205f20015416908516105f14614ae8575050925b9190614a9c565b90949350810180911161076c5791614ae156fedf6966c971051c3d54ec59162606531493a51404a002842f56009d7e5cf4a8c7c65a7bb8d6351c1cf70c95a316cc6a92839c986682d98bc35f958f4883f9d2a8d7b6990105719101dabeb77144f2a3385c8033acd3af97e9423a695e81ad1eb50175b7a638427703f0dbe7bb9bbf987a2551717b34e79f33b5b1008d1fa01db902dd7bc7dec4dceedda775e58dd541e08a116c6c53815c0bd028192f7b6268009b779b17422d0df92223018b32b4d1fa46e071723d6817e2486d003becc55f00a26469706673582212202632620c82beb9de67b7233fbc00cd1ddaeee360502da438e7275ede4eb560a864736f6c63430008190033","linkReferences":{}},"methodIdentifiers":{"DEFAULT_ADMIN_ROLE()":"a217fddf","DELEGATOR_FACTORY()":"6da3e06d","DEPOSITOR_WHITELIST_ROLE()":"1b66c9e1","DEPOSIT_LIMIT_SET_ROLE()":"a21a1df9","DEPOSIT_WHITELIST_SET_ROLE()":"db388715","EPOCH_DURATION_SET_ROLE()":"61819dd8","FLASH_FEE_BASE()":"ecc98f05","FLASH_FEE_RATE_SET_ROLE()":"bc46f722","FLASH_FEE_RECEIVER_SET_ROLE()":"31d9736c","FLASH_LOAN_ENABLED_SET_ROLE()":"a66b3a73","IS_DEPOSIT_LIMIT_SET_ROLE()":"1415519b","RETURN_VALUE()":"653b04cd","SLASHER_FACTORY()":"87df0788","_epochDuration()":"2fa27fae","_epochDurationInit()":"9f9962dd","activeBalanceOf(address)":"59f769a9","activeBalanceOfAt(address,uint48,bytes)":"efb559d6","activeShares()":"bfefcd7b","activeSharesAt(uint48,bytes)":"50f22068","activeSharesOf(address)":"9d66201b","activeSharesOfAt(address,uint48,bytes)":"2d73c69c","activeStake()":"bd49c35f","activeStakeAt(uint48,bytes)":"810da75d","burner()":"27810b6e","claim(address,uint256)":"aad3ec96","claimBatch(address,uint256[])":"7c04c80a","collateral()":"d8dfeb45","currentEpoch()":"76671808","currentEpochStart()":"61a8c8c4","delegator()":"ce9b7930","deposit(address,uint256)":"47e7ef24","depositLimit()":"ecf70858","depositWhitelist()":"48d3b775","epochAt(uint48)":"7953b33b","epochDuration()":"4ff0876a","epochDurationInit()":"46361671","epochDurationSetEpochsDelay()":"c642b050","epochStart(uint256)":"aa9354a3","flashFee(address,uint256)":"d9d98ce4","flashFeeRate()":"e945da7f","flashFeeReceiver()":"a8b24f9a","flashLoan(address,address,uint256,bytes)":"5cffe9de","flashLoanEnabled()":"65d61c6c","getRoleAdmin(bytes32)":"248a9ca3","grantRole(bytes32,address)":"2f2ff15d","hasRole(bytes32,address)":"91d14854","isDelegatorInitialized()":"50861adc","isDepositLimit()":"a1b12202","isDepositorWhitelisted(address)":"794b15b7","isInitialized()":"392e53cd","isSlasherInitialized()":"6ec1e3f8","isWithdrawalsClaimed(uint256,address)":"a5d03223","maxFlashLoan(address)":"613255ab","nextEpochStart()":"73790ab3","onSlash(uint256,uint48)":"7278e31c","previousEpochStart()":"281f5752","redeem(address,uint256)":"1e9a6950","renounceRole(bytes32,address)":"36568abe","revokeRole(bytes32,address)":"d547741f","setDelegator(address)":"83cd9cc3","setDepositLimit(uint256)":"bdc8144b","setDepositWhitelist(bool)":"4105a7dd","setDepositorWhitelistStatus(address,bool)":"a2861466","setEpochDuration(uint48,uint256)":"83f46c2c","setFlashFeeRate(uint256)":"d626811b","setFlashFeeReceiver(address)":"52741a40","setFlashloanEnabled(bool)":"859b9344","setIsDepositLimit(bool)":"5346e34f","setSlasher(address)":"aabc2496","slashableBalanceOf(address)":"c31e8dd7","slasher()":"b1344271","staticDelegateCall(address,bytes)":"9f86fd85","supportsInterface(bytes4)":"01ffc9a7","totalStake()":"8b0e9f3f","withdraw(address,uint256)":"f3fef3a3","withdrawalShares(uint256)":"afba70ad","withdrawalSharesOf(uint256,address)":"a3b54172","withdrawals(uint256)":"5cc07076","withdrawalsOf(uint256,address)":"f5e7ee0f"},"id":112}