{"abi":[{"type":"constructor","inputs":[{"name":"delegatorFactory","type":"address","internalType":"address"},{"name":"slasherFactory","type":"address","internalType":"address"}],"stateMutability":"nonpayable"},{"type":"function","name":"DEFAULT_ADMIN_ROLE","inputs":[],"outputs":[{"name":"","type":"bytes32","internalType":"bytes32"}],"stateMutability":"view"},{"type":"function","name":"DELEGATOR_FACTORY","inputs":[],"outputs":[{"name":"","type":"address","internalType":"address"}],"stateMutability":"view"},{"type":"function","name":"DEPOSITOR_WHITELIST_ROLE","inputs":[],"outputs":[{"name":"","type":"bytes32","internalType":"bytes32"}],"stateMutability":"view"},{"type":"function","name":"DEPOSIT_LIMIT_SET_ROLE","inputs":[],"outputs":[{"name":"","type":"bytes32","internalType":"bytes32"}],"stateMutability":"view"},{"type":"function","name":"DEPOSIT_WHITELIST_SET_ROLE","inputs":[],"outputs":[{"name":"","type":"bytes32","internalType":"bytes32"}],"stateMutability":"view"},{"type":"function","name":"EPOCH_DURATION_SET_ROLE","inputs":[],"outputs":[{"name":"","type":"bytes32","internalType":"bytes32"}],"stateMutability":"view"},{"type":"function","name":"FLASH_FEE_BASE","inputs":[],"outputs":[{"name":"","type":"uint256","internalType":"uint256"}],"stateMutability":"view"},{"type":"function","name":"FLASH_FEE_RATE_SET_ROLE","inputs":[],"outputs":[{"name":"","type":"bytes32","internalType":"bytes32"}],"stateMutability":"view"},{"type":"function","name":"FLASH_FEE_RECEIVER_SET_ROLE","inputs":[],"outputs":[{"name":"","type":"bytes32","internalType":"bytes32"}],"stateMutability":"view"},{"type":"function","name":"FLASH_LOAN_ENABLED_SET_ROLE","inputs":[],"outputs":[{"name":"","type":"bytes32","internalType":"bytes32"}],"stateMutability":"view"},{"type":"function","name":"IS_DEPOSIT_LIMIT_SET_ROLE","inputs":[],"outputs":[{"name":"","type":"bytes32","internalType":"bytes32"}],"stateMutability":"view"},{"type":"function","name":"RETURN_VALUE","inputs":[],"outputs":[{"name":"","type":"bytes32","internalType":"bytes32"}],"stateMutability":"view"},{"type":"function","name":"SLASHER_FACTORY","inputs":[],"outputs":[{"name":"","type":"address","internalType":"address"}],"stateMutability":"view"},{"type":"function","name":"_Vault_init","inputs":[],"outputs":[],"stateMutability":"nonpayable"},{"type":"function","name":"_epochDuration","inputs":[],"outputs":[{"name":"","type":"uint48","internalType":"uint48"}],"stateMutability":"view"},{"type":"function","name":"_epochDurationInit","inputs":[],"outputs":[{"name":"","type":"uint48","internalType":"uint48"}],"stateMutability":"view"},{"type":"function","name":"_epochDurationInitIndex","inputs":[],"outputs":[{"name":"","type":"uint256","internalType":"uint256"}],"stateMutability":"view"},{"type":"function","name":"_epochDurationSetEpochsDelay","inputs":[],"outputs":[{"name":"","type":"uint256","internalType":"uint256"}],"stateMutability":"view"},{"type":"function","name":"_nextEpochDuration","inputs":[],"outputs":[{"name":"","type":"uint48","internalType":"uint48"}],"stateMutability":"view"},{"type":"function","name":"_nextEpochDurationInit","inputs":[],"outputs":[{"name":"","type":"uint48","internalType":"uint48"}],"stateMutability":"view"},{"type":"function","name":"_nextEpochDurationSetEpochsDelay","inputs":[],"outputs":[{"name":"","type":"uint256","internalType":"uint256"}],"stateMutability":"view"},{"type":"function","name":"_nextEpochInitIndex","inputs":[],"outputs":[{"name":"","type":"uint256","internalType":"uint256"}],"stateMutability":"view"},{"type":"function","name":"_prevEpochDuration","inputs":[],"outputs":[{"name":"","type":"uint48","internalType":"uint48"}],"stateMutability":"view"},{"type":"function","name":"_prevEpochDurationInit","inputs":[],"outputs":[{"name":"","type":"uint48","internalType":"uint48"}],"stateMutability":"view"},{"type":"function","name":"_prevEpochDurationInitIndex","inputs":[],"outputs":[{"name":"","type":"uint256","internalType":"uint256"}],"stateMutability":"view"},{"type":"function","name":"activeBalanceOf","inputs":[{"name":"account","type":"address","internalType":"address"}],"outputs":[{"name":"","type":"uint256","internalType":"uint256"}],"stateMutability":"view"},{"type":"function","name":"activeBalanceOfAt","inputs":[{"name":"account","type":"address","internalType":"address"},{"name":"timestamp","type":"uint48","internalType":"uint48"},{"name":"hints","type":"bytes","internalType":"bytes"}],"outputs":[{"name":"","type":"uint256","internalType":"uint256"}],"stateMutability":"view"},{"type":"function","name":"activeShares","inputs":[],"outputs":[{"name":"","type":"uint256","internalType":"uint256"}],"stateMutability":"view"},{"type":"function","name":"activeSharesAt","inputs":[{"name":"timestamp","type":"uint48","internalType":"uint48"},{"name":"hint","type":"bytes","internalType":"bytes"}],"outputs":[{"name":"","type":"uint256","internalType":"uint256"}],"stateMutability":"view"},{"type":"function","name":"activeSharesOf","inputs":[{"name":"account","type":"address","internalType":"address"}],"outputs":[{"name":"","type":"uint256","internalType":"uint256"}],"stateMutability":"view"},{"type":"function","name":"activeSharesOfAt","inputs":[{"name":"account","type":"address","internalType":"address"},{"name":"timestamp","type":"uint48","internalType":"uint48"},{"name":"hint","type":"bytes","internalType":"bytes"}],"outputs":[{"name":"","type":"uint256","internalType":"uint256"}],"stateMutability":"view"},{"type":"function","name":"activeStake","inputs":[],"outputs":[{"name":"","type":"uint256","internalType":"uint256"}],"stateMutability":"view"},{"type":"function","name":"activeStakeAt","inputs":[{"name":"timestamp","type":"uint48","internalType":"uint48"},{"name":"hint","type":"bytes","internalType":"bytes"}],"outputs":[{"name":"","type":"uint256","internalType":"uint256"}],"stateMutability":"view"},{"type":"function","name":"burner","inputs":[],"outputs":[{"name":"","type":"address","internalType":"address"}],"stateMutability":"view"},{"type":"function","name":"claim","inputs":[{"name":"recipient","type":"address","internalType":"address"},{"name":"epoch","type":"uint256","internalType":"uint256"}],"outputs":[{"name":"amount","type":"uint256","internalType":"uint256"}],"stateMutability":"nonpayable"},{"type":"function","name":"claimBatch","inputs":[{"name":"recipient","type":"address","internalType":"address"},{"name":"epochs","type":"uint256[]","internalType":"uint256[]"}],"outputs":[{"name":"amount","type":"uint256","internalType":"uint256"}],"stateMutability":"nonpayable"},{"type":"function","name":"collateral","inputs":[],"outputs":[{"name":"","type":"address","internalType":"address"}],"stateMutability":"view"},{"type":"function","name":"currentEpoch","inputs":[],"outputs":[{"name":"","type":"uint256","internalType":"uint256"}],"stateMutability":"view"},{"type":"function","name":"currentEpochStart","inputs":[],"outputs":[{"name":"","type":"uint48","internalType":"uint48"}],"stateMutability":"view"},{"type":"function","name":"delegator","inputs":[],"outputs":[{"name":"","type":"address","internalType":"address"}],"stateMutability":"view"},{"type":"function","name":"deposit","inputs":[{"name":"onBehalfOf","type":"address","internalType":"address"},{"name":"amount","type":"uint256","internalType":"uint256"}],"outputs":[{"name":"depositedAmount","type":"uint256","internalType":"uint256"},{"name":"mintedShares","type":"uint256","internalType":"uint256"}],"stateMutability":"nonpayable"},{"type":"function","name":"depositLimit","inputs":[],"outputs":[{"name":"","type":"uint256","internalType":"uint256"}],"stateMutability":"view"},{"type":"function","name":"depositWhitelist","inputs":[],"outputs":[{"name":"","type":"bool","internalType":"bool"}],"stateMutability":"view"},{"type":"function","name":"epochAt","inputs":[{"name":"timestamp","type":"uint48","internalType":"uint48"}],"outputs":[{"name":"","type":"uint256","internalType":"uint256"}],"stateMutability":"view"},{"type":"function","name":"epochDuration","inputs":[],"outputs":[{"name":"","type":"uint48","internalType":"uint48"}],"stateMutability":"view"},{"type":"function","name":"epochDurationInit","inputs":[],"outputs":[{"name":"","type":"uint48","internalType":"uint48"}],"stateMutability":"view"},{"type":"function","name":"epochDurationSetEpochsDelay","inputs":[],"outputs":[{"name":"","type":"uint256","internalType":"uint256"}],"stateMutability":"view"},{"type":"function","name":"epochStart","inputs":[{"name":"epoch","type":"uint256","internalType":"uint256"}],"outputs":[{"name":"","type":"uint48","internalType":"uint48"}],"stateMutability":"view"},{"type":"function","name":"flashFee","inputs":[{"name":"token","type":"address","internalType":"address"},{"name":"value","type":"uint256","internalType":"uint256"}],"outputs":[{"name":"","type":"uint256","internalType":"uint256"}],"stateMutability":"view"},{"type":"function","name":"flashFeeRate","inputs":[],"outputs":[{"name":"","type":"uint256","internalType":"uint256"}],"stateMutability":"view"},{"type":"function","name":"flashFeeReceiver","inputs":[],"outputs":[{"name":"","type":"address","internalType":"address"}],"stateMutability":"view"},{"type":"function","name":"flashLoan","inputs":[{"name":"receiver","type":"address","internalType":"contract IERC3156FlashBorrower"},{"name":"token","type":"address","internalType":"address"},{"name":"value","type":"uint256","internalType":"uint256"},{"name":"data","type":"bytes","internalType":"bytes"}],"outputs":[{"name":"","type":"bool","internalType":"bool"}],"stateMutability":"nonpayable"},{"type":"function","name":"flashLoanEnabled","inputs":[],"outputs":[{"name":"","type":"bool","internalType":"bool"}],"stateMutability":"view"},{"type":"function","name":"getRoleAdmin","inputs":[{"name":"role","type":"bytes32","internalType":"bytes32"}],"outputs":[{"name":"","type":"bytes32","internalType":"bytes32"}],"stateMutability":"view"},{"type":"function","name":"grantRole","inputs":[{"name":"role","type":"bytes32","internalType":"bytes32"},{"name":"account","type":"address","internalType":"address"}],"outputs":[],"stateMutability":"nonpayable"},{"type":"function","name":"hasRole","inputs":[{"name":"role","type":"bytes32","internalType":"bytes32"},{"name":"account","type":"address","internalType":"address"}],"outputs":[{"name":"","type":"bool","internalType":"bool"}],"stateMutability":"view"},{"type":"function","name":"isDelegatorInitialized","inputs":[],"outputs":[{"name":"","type":"bool","internalType":"bool"}],"stateMutability":"view"},{"type":"function","name":"isDepositLimit","inputs":[],"outputs":[{"name":"","type":"bool","internalType":"bool"}],"stateMutability":"view"},{"type":"function","name":"isDepositorWhitelisted","inputs":[{"name":"account","type":"address","internalType":"address"}],"outputs":[{"name":"value","type":"bool","internalType":"bool"}],"stateMutability":"view"},{"type":"function","name":"isInitialized","inputs":[],"outputs":[{"name":"","type":"bool","internalType":"bool"}],"stateMutability":"view"},{"type":"function","name":"isSlasherInitialized","inputs":[],"outputs":[{"name":"","type":"bool","internalType":"bool"}],"stateMutability":"view"},{"type":"function","name":"isWithdrawalsClaimed","inputs":[{"name":"epoch","type":"uint256","internalType":"uint256"},{"name":"account","type":"address","internalType":"address"}],"outputs":[{"name":"value","type":"bool","internalType":"bool"}],"stateMutability":"view"},{"type":"function","name":"maxFlashLoan","inputs":[{"name":"token","type":"address","internalType":"address"}],"outputs":[{"name":"","type":"uint256","internalType":"uint256"}],"stateMutability":"view"},{"type":"function","name":"nextEpochStart","inputs":[],"outputs":[{"name":"","type":"uint48","internalType":"uint48"}],"stateMutability":"view"},{"type":"function","name":"onSlash","inputs":[{"name":"amount","type":"uint256","internalType":"uint256"},{"name":"captureTimestamp","type":"uint48","internalType":"uint48"}],"outputs":[{"name":"slashedAmount","type":"uint256","internalType":"uint256"}],"stateMutability":"nonpayable"},{"type":"function","name":"previousEpochStart","inputs":[],"outputs":[{"name":"","type":"uint48","internalType":"uint48"}],"stateMutability":"view"},{"type":"function","name":"redeem","inputs":[{"name":"claimer","type":"address","internalType":"address"},{"name":"shares","type":"uint256","internalType":"uint256"}],"outputs":[{"name":"withdrawnAssets","type":"uint256","internalType":"uint256"},{"name":"mintedShares","type":"uint256","internalType":"uint256"}],"stateMutability":"nonpayable"},{"type":"function","name":"renounceRole","inputs":[{"name":"role","type":"bytes32","internalType":"bytes32"},{"name":"callerConfirmation","type":"address","internalType":"address"}],"outputs":[],"stateMutability":"nonpayable"},{"type":"function","name":"revokeRole","inputs":[{"name":"role","type":"bytes32","internalType":"bytes32"},{"name":"account","type":"address","internalType":"address"}],"outputs":[],"stateMutability":"nonpayable"},{"type":"function","name":"setDelegator","inputs":[{"name":"delegator_","type":"address","internalType":"address"}],"outputs":[],"stateMutability":"nonpayable"},{"type":"function","name":"setDepositLimit","inputs":[{"name":"limit","type":"uint256","internalType":"uint256"}],"outputs":[],"stateMutability":"nonpayable"},{"type":"function","name":"setDepositWhitelist","inputs":[{"name":"status","type":"bool","internalType":"bool"}],"outputs":[],"stateMutability":"nonpayable"},{"type":"function","name":"setDepositorWhitelistStatus","inputs":[{"name":"account","type":"address","internalType":"address"},{"name":"status","type":"bool","internalType":"bool"}],"outputs":[],"stateMutability":"nonpayable"},{"type":"function","name":"setEpochDuration","inputs":[{"name":"epochDuration_","type":"uint48","internalType":"uint48"},{"name":"epochDurationSetEpochsDelay_","type":"uint256","internalType":"uint256"}],"outputs":[],"stateMutability":"nonpayable"},{"type":"function","name":"setFlashFeeRate","inputs":[{"name":"flashFeeRate_","type":"uint256","internalType":"uint256"}],"outputs":[],"stateMutability":"nonpayable"},{"type":"function","name":"setFlashFeeReceiver","inputs":[{"name":"flashFeeReceiver_","type":"address","internalType":"address"}],"outputs":[],"stateMutability":"nonpayable"},{"type":"function","name":"setFlashloanEnabled","inputs":[{"name":"status","type":"bool","internalType":"bool"}],"outputs":[],"stateMutability":"nonpayable"},{"type":"function","name":"setIsDepositLimit","inputs":[{"name":"status","type":"bool","internalType":"bool"}],"outputs":[],"stateMutability":"nonpayable"},{"type":"function","name":"setSlasher","inputs":[{"name":"slasher_","type":"address","internalType":"address"}],"outputs":[],"stateMutability":"nonpayable"},{"type":"function","name":"slashableBalanceOf","inputs":[{"name":"account","type":"address","internalType":"address"}],"outputs":[{"name":"","type":"uint256","internalType":"uint256"}],"stateMutability":"view"},{"type":"function","name":"slasher","inputs":[],"outputs":[{"name":"","type":"address","internalType":"address"}],"stateMutability":"view"},{"type":"function","name":"staticDelegateCall","inputs":[{"name":"target","type":"address","internalType":"address"},{"name":"data","type":"bytes","internalType":"bytes"}],"outputs":[],"stateMutability":"nonpayable"},{"type":"function","name":"supportsInterface","inputs":[{"name":"interfaceId","type":"bytes4","internalType":"bytes4"}],"outputs":[{"name":"","type":"bool","internalType":"bool"}],"stateMutability":"view"},{"type":"function","name":"totalStake","inputs":[],"outputs":[{"name":"","type":"uint256","internalType":"uint256"}],"stateMutability":"view"},{"type":"function","name":"withdraw","inputs":[{"name":"claimer","type":"address","internalType":"address"},{"name":"amount","type":"uint256","internalType":"uint256"}],"outputs":[{"name":"burnedShares","type":"uint256","internalType":"uint256"},{"name":"mintedShares","type":"uint256","internalType":"uint256"}],"stateMutability":"nonpayable"},{"type":"function","name":"withdrawalShares","inputs":[{"name":"epoch","type":"uint256","internalType":"uint256"}],"outputs":[{"name":"amount","type":"uint256","internalType":"uint256"}],"stateMutability":"view"},{"type":"function","name":"withdrawalSharesOf","inputs":[{"name":"epoch","type":"uint256","internalType":"uint256"},{"name":"account","type":"address","internalType":"address"}],"outputs":[{"name":"amount","type":"uint256","internalType":"uint256"}],"stateMutability":"view"},{"type":"function","name":"withdrawals","inputs":[{"name":"epoch","type":"uint256","internalType":"uint256"}],"outputs":[{"name":"amount","type":"uint256","internalType":"uint256"}],"stateMutability":"view"},{"type":"function","name":"withdrawalsOf","inputs":[{"name":"epoch","type":"uint256","internalType":"uint256"},{"name":"account","type":"address","internalType":"address"}],"outputs":[{"name":"","type":"uint256","internalType":"uint256"}],"stateMutability":"view"},{"type":"event","name":"Claim","inputs":[{"name":"claimer","type":"address","indexed":true,"internalType":"address"},{"name":"recipient","type":"address","indexed":true,"internalType":"address"},{"name":"epoch","type":"uint256","indexed":false,"internalType":"uint256"},{"name":"amount","type":"uint256","indexed":false,"internalType":"uint256"}],"anonymous":false},{"type":"event","name":"ClaimBatch","inputs":[{"name":"claimer","type":"address","indexed":true,"internalType":"address"},{"name":"recipient","type":"address","indexed":true,"internalType":"address"},{"name":"epochs","type":"uint256[]","indexed":false,"internalType":"uint256[]"},{"name":"amount","type":"uint256","indexed":false,"internalType":"uint256"}],"anonymous":false},{"type":"event","name":"Deposit","inputs":[{"name":"depositor","type":"address","indexed":true,"internalType":"address"},{"name":"onBehalfOf","type":"address","indexed":true,"internalType":"address"},{"name":"amount","type":"uint256","indexed":false,"internalType":"uint256"},{"name":"shares","type":"uint256","indexed":false,"internalType":"uint256"}],"anonymous":false},{"type":"event","name":"Initialized","inputs":[{"name":"version","type":"uint64","indexed":false,"internalType":"uint64"}],"anonymous":false},{"type":"event","name":"OnSlash","inputs":[{"name":"amount","type":"uint256","indexed":false,"internalType":"uint256"},{"name":"captureTimestamp","type":"uint48","indexed":false,"internalType":"uint48"},{"name":"slashedAmount","type":"uint256","indexed":false,"internalType":"uint256"}],"anonymous":false},{"type":"event","name":"RoleAdminChanged","inputs":[{"name":"role","type":"bytes32","indexed":true,"internalType":"bytes32"},{"name":"previousAdminRole","type":"bytes32","indexed":true,"internalType":"bytes32"},{"name":"newAdminRole","type":"bytes32","indexed":true,"internalType":"bytes32"}],"anonymous":false},{"type":"event","name":"RoleGranted","inputs":[{"name":"role","type":"bytes32","indexed":true,"internalType":"bytes32"},{"name":"account","type":"address","indexed":true,"internalType":"address"},{"name":"sender","type":"address","indexed":true,"internalType":"address"}],"anonymous":false},{"type":"event","name":"RoleRevoked","inputs":[{"name":"role","type":"bytes32","indexed":true,"internalType":"bytes32"},{"name":"account","type":"address","indexed":true,"internalType":"address"},{"name":"sender","type":"address","indexed":true,"internalType":"address"}],"anonymous":false},{"type":"event","name":"SetDelegator","inputs":[{"name":"delegator","type":"address","indexed":true,"internalType":"address"}],"anonymous":false},{"type":"event","name":"SetDepositLimit","inputs":[{"name":"limit","type":"uint256","indexed":false,"internalType":"uint256"}],"anonymous":false},{"type":"event","name":"SetDepositWhitelist","inputs":[{"name":"status","type":"bool","indexed":false,"internalType":"bool"}],"anonymous":false},{"type":"event","name":"SetDepositorWhitelistStatus","inputs":[{"name":"account","type":"address","indexed":true,"internalType":"address"},{"name":"status","type":"bool","indexed":false,"internalType":"bool"}],"anonymous":false},{"type":"event","name":"SetEpochDuration","inputs":[{"name":"epochDuration","type":"uint48","indexed":false,"internalType":"uint48"},{"name":"epochDurationSetEpochsDelay","type":"uint256","indexed":false,"internalType":"uint256"}],"anonymous":false},{"type":"event","name":"SetFlashFeeRate","inputs":[{"name":"flashFeeRate","type":"uint256","indexed":false,"internalType":"uint256"}],"anonymous":false},{"type":"event","name":"SetFlashFeeReceiver","inputs":[{"name":"flashFeeReceiver","type":"address","indexed":false,"internalType":"address"}],"anonymous":false},{"type":"event","name":"SetFlashloanEnabled","inputs":[{"name":"status","type":"bool","indexed":false,"internalType":"bool"}],"anonymous":false},{"type":"event","name":"SetIsDepositLimit","inputs":[{"name":"status","type":"bool","indexed":false,"internalType":"bool"}],"anonymous":false},{"type":"event","name":"SetSlasher","inputs":[{"name":"slasher","type":"address","indexed":true,"internalType":"address"}],"anonymous":false},{"type":"event","name":"Withdraw","inputs":[{"name":"withdrawer","type":"address","indexed":true,"internalType":"address"},{"name":"claimer","type":"address","indexed":true,"internalType":"address"},{"name":"amount","type":"uint256","indexed":false,"internalType":"uint256"},{"name":"burnedShares","type":"uint256","indexed":false,"internalType":"uint256"},{"name":"mintedShares","type":"uint256","indexed":false,"internalType":"uint256"}],"anonymous":false},{"type":"error","name":"AccessControlBadConfirmation","inputs":[]},{"type":"error","name":"AccessControlUnauthorizedAccount","inputs":[{"name":"account","type":"address","internalType":"address"},{"name":"neededRole","type":"bytes32","internalType":"bytes32"}]},{"type":"error","name":"AlreadyClaimed","inputs":[]},{"type":"error","name":"AlreadySet","inputs":[]},{"type":"error","name":"CheckpointUnorderedInsertion","inputs":[]},{"type":"error","name":"DelegatorAlreadyInitialized","inputs":[]},{"type":"error","name":"DepositLimitReached","inputs":[]},{"type":"error","name":"InsufficientClaim","inputs":[]},{"type":"error","name":"InsufficientDeposit","inputs":[]},{"type":"error","name":"InsufficientExitWindow","inputs":[]},{"type":"error","name":"InsufficientRedemption","inputs":[]},{"type":"error","name":"InsufficientWithdrawal","inputs":[]},{"type":"error","name":"InvalidAccount","inputs":[]},{"type":"error","name":"InvalidCaptureEpoch","inputs":[]},{"type":"error","name":"InvalidClaimer","inputs":[]},{"type":"error","name":"InvalidCollateral","inputs":[]},{"type":"error","name":"InvalidDelegator","inputs":[]},{"type":"error","name":"InvalidEpoch","inputs":[]},{"type":"error","name":"InvalidEpochDuration","inputs":[]},{"type":"error","name":"InvalidEpochDurationSetEpochsDelay","inputs":[]},{"type":"error","name":"InvalidFlashParams","inputs":[]},{"type":"error","name":"InvalidInitialization","inputs":[]},{"type":"error","name":"InvalidLengthEpochs","inputs":[]},{"type":"error","name":"InvalidNewEpochDuration","inputs":[]},{"type":"error","name":"InvalidOnBehalfOf","inputs":[]},{"type":"error","name":"InvalidReceiver","inputs":[]},{"type":"error","name":"InvalidRecipient","inputs":[]},{"type":"error","name":"InvalidReturnAmount","inputs":[]},{"type":"error","name":"InvalidSlasher","inputs":[]},{"type":"error","name":"InvalidTimestamp","inputs":[]},{"type":"error","name":"MaxLoanExceeded","inputs":[]},{"type":"error","name":"MissingRoles","inputs":[]},{"type":"error","name":"NewEpochDurationNotReady","inputs":[]},{"type":"error","name":"NoDepositWhitelist","inputs":[]},{"type":"error","name":"NoPreviousEpoch","inputs":[]},{"type":"error","name":"NotDelegator","inputs":[]},{"type":"error","name":"NotInitializing","inputs":[]},{"type":"error","name":"NotSlasher","inputs":[]},{"type":"error","name":"NotWhitelistedDepositor","inputs":[]},{"type":"error","name":"ReentrancyGuardReentrantCall","inputs":[]},{"type":"error","name":"SafeCastOverflowedUintDowncast","inputs":[{"name":"bits","type":"uint8","internalType":"uint8"},{"name":"value","type":"uint256","internalType":"uint256"}]},{"type":"error","name":"SafeERC20FailedOperation","inputs":[{"name":"token","type":"address","internalType":"address"}]},{"type":"error","name":"SlasherAlreadyInitialized","inputs":[]},{"type":"error","name":"TooLowFlashLoanValue","inputs":[]},{"type":"error","name":"TooMuchRedeem","inputs":[]},{"type":"error","name":"TooMuchWithdraw","inputs":[]},{"type":"error","name":"UnsupportedToken","inputs":[]}],"bytecode":{"object":"0x60c034608157601f614dce38819003918201601f19168301916001600160401b038311848410176085578084926040948552833981010312608157604b60206045836099565b92016099565b9060805260a052604051614d2190816100ad82396080518181816114a4015261196a015260a051818181611e1901526123980152f35b5f80fd5b634e487b7160e01b5f52604160045260245ffd5b51906001600160a01b038216820360815756fe60806040526004361015610011575f80fd5b5f3560e01c806301ffc9a7146105a45780631415519b1461059f5780631b66c9e11461059a5780631e9a695014610595578063248a9ca3146105905780632749f9c41461058b57806327810b6e14610586578063281f5752146105815780632d73c69c1461057c5780632f2ff15d146105775780632fa27fae1461057257806331d9736c1461056d57806336568abe14610568578063392e53cd146105635780634105a7dd1461055e578063463616711461055957806347e7ef241461055457806348d3b7751461054f5780634ff0876a1461054a57806350861adc1461054557806350f220681461054057806352741a401461053b5780635346e34f1461053657806359f769a9146105315780635a36aa741461052c5780635cc07076146105275780635cffe9de14610522578063613255ab1461051d57806361819dd81461051857806361a8c8c414610513578063653b04cd1461050e57806365d61c6c146105095780636da3e06d146105045780636e0f2455146104ff5780636ec1e3f8146104fa5780637278e31c146104f557806373790ab3146104f057806376671808146104eb578063794b15b7146104e65780637953b33b146104e15780637c04c80a146104dc578063810da75d146104d757806383cd9cc3146104d257806383f46c2c146104cd578063859b9344146104c857806387df0788146104c35780638b0e9f3f146104be57806391d14854146104b957806398ccba4a146104b45780639b4bae3e146104af5780639d66201b146104aa5780639f86fd85146104a55780639f9962dd146104a0578063a1b122021461049b578063a217fddf14610496578063a21a1df914610491578063a28614661461048c578063a3b5417214610487578063a5d0322314610482578063a66b3a731461047d578063a8b24f9a14610478578063aa9354a314610473578063aabc24961461046e578063aad3ec9614610469578063afba70ad14610464578063b13442711461045f578063bba6ff4a1461045a578063bc46f72214610455578063bd49c35f14610450578063bdc8144b1461044b578063bfefcd7b14610446578063c1bc6f5114610441578063c31e8dd71461043c578063c4db46fc14610437578063c642b05014610432578063cc52aee71461042d578063ce9b793014610428578063d547741f14610423578063d626811b1461041e578063d8dfeb4514610419578063d9d98ce414610414578063db3887151461040f578063dc0b1d711461040a578063e945da7f14610405578063ecc98f0514610400578063ecf70858146103fb578063efb559d6146103f6578063f3fef3a3146103f15763f5e7ee0f146103ec575f80fd5b612c00565b612b5a565b612a0f565b6129f2565b6129d4565b6129b7565b6129a5565b61296b565b612940565b612915565b612855565b612809565b6127e1565b6127b9565b61279f565b612782565b612714565b6126ec565b6126d2565b612612565b6125f8565b6125be565b6125a1565b612579565b61254f565b61248e565b6122e5565b6122c7565b61229f565b612265565b61221f565b6121d2565b6120ed565b6120b3565b612099565b612075565b61204d565b611f80565b611f46565b611f29565b611f0c565b611eae565b611e48565b611e04565b611d78565b611ab0565b611905565b6118ec565b611886565b611868565b611828565b61180a565b6117d8565b61151d565b6114f8565b6114d3565b61148f565b61146a565b611430565b61140a565b6113d0565b6113a9565b61113f565b6110e8565b6110c0565b611099565b611012565b610f11565b610ef8565b610e92565b610e78565b610e57565b610ba7565b610b8d565b610af2565b610aad565b610a62565b610a28565b610a08565b6109ba565b61094a565b6107dc565b6107b4565b610797565b61075e565b610683565b610638565b6105fe565b346105fa5760203660031901126105fa5760043563ffffffff60e01b81168091036105fa57602090637965db0b60e01b81149081156105e9575b506040519015158152f35b6301ffc9a760e01b1490505f6105de565b5f80fd5b346105fa575f3660031901126105fa5760206040517fc6aaadd7371d5e8f9ed6849dd66a66573a3ba37167d03f4352c9ba5693678fac8152f35b346105fa575f3660031901126105fa5760206040517f9c56d972d63cbb4195b3c1484691dfc220fa96a4c47e7b6613bd82a022029e068152f35b6001600160a01b038116036105fa57565b346105fa5760403660031901126105fa576004356106a081610672565b602435906106ac613296565b6001600160a01b0381161561074d57335f908152600e602052604090206106d7906140d8565b6140d8565b821161073b576106f76106e8613ff0565b6106f0614064565b908461412b565b9182156107265782610708926132d8565b906107116132c5565b604080519182526020820192909252f35b0390f35b60405160016245ddc760e11b03198152600490fd5b604051632418411f60e11b8152600490fd5b6040516208978560e71b8152600490fd5b346105fa5760203660031901126105fa576004355f525f80516020614cac8339815191526020526020600160405f200154604051908152f35b346105fa575f3660031901126105fa576020601454604051908152f35b346105fa575f3660031901126105fa576001546040516001600160a01b039091168152602090f35b346105fa575f3660031901126105fa576107fd6107f842613fbe565b612e92565b801561082e575f198101908111610829576108196020916130da565b65ffffffffffff60405191168152f35b612c2a565b604051639fa56a5b60e01b8152600490fd5b6024359065ffffffffffff821682036105fa57565b6004359065ffffffffffff821682036105fa57565b634e487b7160e01b5f52604160045260245ffd5b606081019081106001600160401b0382111761089957604052565b61086a565b604081019081106001600160401b0382111761089957604052565b90601f801991011681019081106001600160401b0382111761089957604052565b604051906108e78261089e565b565b6001600160401b03811161089957601f01601f191660200190565b81601f820112156105fa5780359061091b826108e9565b9261092960405194856108b9565b828452602083830101116105fa57815f926020809301838601378301015290565b346105fa5760603660031901126105fa5760043561096781610672565b61096f610840565b90604435906001600160401b0382116105fa576020926109966109b2933690600401610904565b6001600160a01b039092165f908152600e855260409020613612565b604051908152f35b346105fa5760403660031901126105fa57610a066024356004356109dd82610672565b805f525f80516020614cac833981519152602052610a01600160405f200154613897565b6138c3565b005b346105fa575f3660031901126105fa57602060015460d01c604051908152f35b346105fa575f3660031901126105fa5760206040517f5295aaaa27fdd659293eafacbfafbc634c1b96298957e87de5f59308cdbfdad18152f35b346105fa5760403660031901126105fa57602435610a7f81610672565b336001600160a01b03821603610a9b57610a069060043561395e565b60405163334bd91960e11b8152600490fd5b346105fa575f3660031901126105fa5760ff60025460a01c1680610ad9575b6020906040519015158152f35b5060035460a01c60ff16610acc565b801515036105fa57565b346105fa5760203660031901126105fa57600435610b0f81610ae8565b610b17613296565b610b1f6136de565b5f54901515908160ff8216151514610b7b5760ff191660ff8216175f556040519081527f3e12b7b36c75ac9609a3f58609b331210428e1a85909132638955ba0301eec3390602090a160015f80516020614ccc83398151915255005b60405163a741a04560e01b8152600490fd5b346105fa575f3660031901126105fa576020610819612c7a565b346105fa576040806003193601126105fa576004803591610bc783610672565b610bcf613296565b6001600160a01b0391838316908115610e49575f5460ff811680610e30575b610e215783516370a0823160e01b808252308483019081529096602093909160109190911c82169084908490819083010381845afa928315610df9575f93610dfe575b50610c439060243590309033906139f0565b5f5486519788523085890190815290979184918391908290819060200103918b60101c165afa908115610df957610c82935f92610dcc575b5050612c4c565b938415610dbd5760081c60ff1680610da8575b610d9a57509061072291610d46610caa613ff0565b95610cf3610cb6614064565b610cde610cc48a838b61412b565b99610cd88a610cd242613fbe565b92612ce2565b90613b44565b5050610ced89610cd242613fbe565b90613c24565b50506001600160a01b0381165f908152600e6020526040902090610d4088610d3b6106d2610d2042613fbe565b6001600160a01b039095165f908152600e6020526040902090565b612ce2565b91613d00565b505081518481526020810186905233907fdcbc1c05240f31ff3ad067ef1ee35ce4997762752e3a095284754544f4c709d790604090a3610d846132c5565b5191825260208201929092529081906040820190565b8251632484557960e01b8152fd5b50610db584610d3b613ff0565b815410610c95565b50825163070f6eed60e11b8152fd5b610deb9250803d10610df2575b610de381836108b9565b810190612cba565b5f80610c7b565b503d610dd9565b612cc9565b610c43919350610e1a90853d8711610df257610de381836108b9565b9290610c31565b5082516304f63b8560e01b8152fd5b50335f9081526005602052604090205460ff1615610bee565b8251630d534ce360e11b8152fd5b346105fa575f3660031901126105fa57602060ff5f54166040519015158152f35b346105fa575f3660031901126105fa576020610819612cef565b346105fa575f3660031901126105fa57602060ff60025460a01c166040519015158152f35b9060406003198301126105fa5760043565ffffffffffff811681036105fa5791602435906001600160401b0382116105fa57610ef591600401610904565b90565b346105fa5760206109b2610f0b36610eb7565b90613487565b346105fa5760203660031901126105fa57600435610f2e81610672565b610f36613296565b335f9081527f9aeaa4f1a9be826e331dea6728ca206744e0a34dccbc1d3da4a68acb8abf036360205260409020547f5295aaaa27fdd659293eafacbfafbc634c1b96298957e87de5f59308cdbfdad19060ff1615610ff457506016546001600160a01b039182169181168214610b7b576001600160a01b03191681176016556040519081527f08aacfdb137d688b12f67ef81735dede1ae18b0664f6b347ee9ef00ae94ff91990602090a160015f80516020614ccc83398151915255005b6044906040519063e2517d3f60e01b82523360048301526024820152fd5b346105fa5760203660031901126105fa5760043561102f81610ae8565b611037613296565b61103f61373b565b5f54901515908160ff8260081c16151514610b7b5761ff001916600882901b61ff0016175f556040519081527ffa7a25a0b611d4ba3c0ea990e90dc23d484a5dd7a1be4733fef2946ba74530c690602090a1610a066132c5565b346105fa5760203660031901126105fa5760206109b26004356110bb81610672565b612d35565b346105fa575f3660031901126105fa57602065ffffffffffff60135460301c16604051908152f35b346105fa5760203660031901126105fa576004355f526006602052602060405f2054604051908152f35b9181601f840112156105fa578235916001600160401b0383116105fa57602083818601950101116105fa57565b346105fa5760803660031901126105fa57600480359061115e82610672565b60243561116a81610672565b604435916064356001600160401b0381116105fa5761118c9036908301611112565b611197949194613296565b8115611398576111a684612dce565b82116113875761121a906111ba83866131f2565b5f549095906111dc9060101c6001600160a01b03165b6001600160a01b031690565b604080516370a0823160e01b80825230898301908152929b939a6001600160a01b03808d1699602099939792969195909491938a9183918291840190565b03818d5afa978815610df9578c968f8f95978c988f955f9d611352575b509161124e8961126995935f98979516809a613dbe565b516323e30c8b60e01b8152998a988997889633908801612d84565b03925af18015610df9577f439148f0bbc682ca079e46d6e2c2f0c1e3b820f1a291b069d8882abf8cf18dd9915f91611335575b500361132557875190815230858201908152909383918591908290819060200103915afa8015610df95785936112d9935f92610dcc575050612c4c565b036113175750806112f8575b826112ee6132c5565b5160018152602090f35b60165461131092906001600160a01b03165b90613dbe565b5f806112e5565b8351637f28d71160e01b8152fd5b8751631e4ec46b60e01b81528590fd5b61134c9150853d8711610df257610de381836108b9565b5f61129c565b5f969593919d5089611269959361137861124e938e803d10610df257610de381836108b9565b9f939597985093955050611237565b60405163347177ad60e21b81528390fd5b6040516391ba94bf60e01b81528390fd5b346105fa5760203660031901126105fa5760206109b26004356113cb81610672565b612dce565b346105fa575f3660031901126105fa5760206040517f591f6a0113ada8aff67efadec8ae2fa585cb4ebf4e1f8fc1205ffbeff98d00ec8152f35b346105fa575f3660031901126105fa57602061081961142b6107f842613fbe565b6130da565b346105fa575f3660031901126105fa5760206040517f439148f0bbc682ca079e46d6e2c2f0c1e3b820f1a291b069d8882abf8cf18dd98152f35b346105fa575f3660031901126105fa57602060ff60165460a01c166040519015158152f35b346105fa575f3660031901126105fa576040517f00000000000000000000000000000000000000000000000000000000000000006001600160a01b03168152602090f35b346105fa575f3660031901126105fa57602065ffffffffffff60135416604051908152f35b346105fa575f3660031901126105fa57602060ff60035460a01c166040519015158152f35b346105fa5760403660031901126105fa57600435611539610840565b611541613296565b600354611556906001600160a01b03166111d0565b33036117c6576115686107f842613fbe565b9061157281612e92565b90821515806117b5575b80156117ac575b61179a57610722937ff9d090c096f71cd1659861a9ce5b6f384bceb4e2fa4e4a19edf6489a9b8d56c7926115b5613ff0565b946115d06115c282612cd4565b5f52600660205260405f2090565b54908281036116b457506115e48187612ce2565b83811881851002811896878061166d575b50505050505b8361163a575b6040805191825265ffffffffffff929092166020820152908101839052606090a161162a6132c5565b6040519081529081906020820190565b5f546116689085906116579060101c6001600160a01b03166111d0565b6001546001600160a01b031661130a565b611601565b6116a993610c7b83610cd861169361168c6115c2986116a39888613e95565b8096612c4c565b9461169d42613fbe565b92612c4c565b92612cd4565b555f808080876115f5565b91506116c8825f52600660205260405f2090565b54906116d881610d3b848a612ce2565b9084821882861002821897886116f3575b50505050506115fb565b611768938361171b936117288c611723611711611759998884613e95565b9788958584613e95565b948592612c4c565b612c4c565b93848410611773575b610c7b90610cd861174795969761169d42613fbe565b6117536115c287612cd4565b55612c4c565b915f52600660205260405f2090565b555f808080806116e9565b9161178f610c7b91611789866117479798612c4c565b90612ce2565b859450929050611731565b604051635e18d2a560e01b8152600490fd5b50828211611583565b506117bf83612c3e565b821061157c565b60405163dabc4ad960e01b8152600490fd5b346105fa575f3660031901126105fa576117f46107f842613fbe565b60018101809111610829576108196020916130da565b346105fa575f3660031901126105fa5760206109b26107f842613fbe565b346105fa5760203660031901126105fa5760043561184581610672565b60018060a01b03165f526005602052602060ff60405f2054166040519015158152f35b346105fa5760203660031901126105fa5760206109b26107f8610855565b346105fa5760403660031901126105fa576004356118a381610672565b6024356001600160401b038082116105fa57366023830112156105fa5781600401359081116105fa573660248260051b840101116105fa5761072292602461162a930190612f7d565b346105fa5760206109b26118ff36610eb7565b9061355d565b346105fa576020806003193601126105fa57600480359061192582610672565b61192d613296565b60025460a01c60ff16611aa1576040516302910f8b60e31b81526001600160a01b03838116838301908152909491908290829081906020010381887f0000000000000000000000000000000000000000000000000000000000000000165afa908115610df9575f91611a74575b5015611a645760405163fbfa77cf60e01b8152838516949082818581895afa928315610df9575f93611a35575b505030911603611a265750600280546001600160a01b03929092166001600160a81b031990921691909117600160a01b1790557fdb2160616f776a37b24808115554e79439bf26cccbbd4438190cc6d28e80ecd15f80a2610a066132c5565b60405163b9f0f17160e01b8152fd5b611a55929350803d10611a5d575b611a4d81836108b9565b8101906130b2565b905f806119c7565b503d611a43565b506040516324e5af8d60e21b8152fd5b611a949150823d8411611a9a575b611a8c81836108b9565b81019061309d565b5f61199a565b503d611a82565b604051631380833b60e01b8152fd5b346105fa5760403660031901126105fa57611ac9610855565b602435611ad4613296565b611adc613792565b60038110611d665765ffffffffffff9182611b0260135465ffffffffffff9060601c1690565b168015159081611d50575b50611c52575b60015460d01c838083169116818111611c40571480611c35575b610b7b57611c0a611be1611bdc7f1b3efab1b836932ce515e4748ca76335809d1d202c92ee86d594e43ce0039e8395611b7c611b77611b6e6107f842613fbe565b600f5490612ce2565b601455565b6013805465ffffffffffff60901b1916609087901b65ffffffffffff60901b16179055611bae61142b6107f842613fbe565b90611bd5600f54611bcf611bc460015460d01c90565b65ffffffffffff1690565b906130c7565b9116612ce2565b613fbe565b6013805465ffffffffffff60601b191660609290921b65ffffffffffff60601b16919091179055565b611c1382601055565b6040805165ffffffffffff9290921682526020820192909252a1610a066132c5565b5081600f5414611b2d565b6040516359dcfd5560e11b8152600490fd5b611c5d601154601255565b611c97611c6c60015460d01c90565b6bffffffffffff0000000000006013549160301b16906bffffffffffff000000000000191617601355565b600154611cc39060a01c65ffffffffffff1665ffffffffffff1665ffffffffffff196013541617601355565b611cce601454601155565b601354611d059060901c65ffffffffffff16600180546001600160d01b031660d09290921b6001600160d01b031916919091179055565b601354611d409060601c65ffffffffffff166001805465ffffffffffff60a01b191660a09290921b65ffffffffffff60a01b16919091179055565b611d4b601054600f55565b611b13565b9050611d5e611bc442613fbe565b10155f611b0d565b6040516317a509b960e31b8152600490fd5b346105fa5760203660031901126105fa57600435611d9581610ae8565b611d9d613296565b611da56137e9565b601654901515908160ff8260a01c16151514610b7b5760ff60a01b191660a082901b60ff60a01b16176016556040519081527e4ea26b9681ba216ba307c9c0ee4edcef296c9af6506b16ad458a51431745d990602090a1610a066132c5565b346105fa575f3660031901126105fa576040517f00000000000000000000000000000000000000000000000000000000000000006001600160a01b03168152602090f35b346105fa575f3660031901126105fa57611e646107f842613fbe565b611e6c613ff0565b90805f52600660205260405f205482018092116108295760018101809111610829575f52600660205260405f2054810180911161082957604051908152602090f35b346105fa5760403660031901126105fa57602060ff611f00602435611ed281610672565b6004355f525f80516020614cac833981519152845260405f209060018060a01b03165f5260205260405f2090565b54166040519015158152f35b346105fa575f3660031901126105fa576020601254604051908152f35b346105fa575f3660031901126105fa576020601154604051908152f35b346105fa5760203660031901126105fa57600435611f6381610672565b60018060a01b03165f52600e60205260206109b260405f206140d8565b346105fa576040806003193601126105fa57600435611f9e81610672565b6024356001600160401b0381116105fa575f8061203c93611fc56080943690600401611112565b908188519283928337810184815203915af43d156120445760203d611fe9816108e9565b90611ff6875192836108b9565b81523d5f8383013e5b8551958693151583850152808401528051918291826060860152018484015e5f838284010152601f801991011681010360608101845201826108b9565b805190602001fd5b60206060611fff565b346105fa575f3660031901126105fa57602065ffffffffffff60015460a01c16604051908152f35b346105fa575f3660031901126105fa57602060ff5f5460081c166040519015158152f35b346105fa575f3660031901126105fa5760206040515f8152f35b346105fa575f3660031901126105fa5760206040517f4a634bc14d77baf979756509ef4298c6f6318af357828612545267ee2eb792338152f35b346105fa5760403660031901126105fa5760043561210a81610672565b60243561211681610ae8565b61211e613296565b612126613840565b6001600160a01b0382169182156121c0575f8381526005602052604090205460ff16151582151514610b7b576001600160a01b03165f9081526005602052604090207ff991b1ecfb5115cbb36a2b2e2240c058406d2acc2fcc6e9e2dc99d845ff70a62916121b5916121a3908260ff801983541691151516179055565b60405190151581529081906020820190565b0390a2610a066132c5565b604051630da30f6560e31b8152600490fd5b346105fa5760403660031901126105fa5760206122166024356121f481610672565b6004355f526008835260405f209060018060a01b03165f5260205260405f2090565b54604051908152f35b346105fa5760403660031901126105fa57602060ff611f0060243561224381610672565b6004355f526009845260405f209060018060a01b03165f5260205260405f2090565b346105fa575f3660031901126105fa5760206040517fc9feed28b4b1a1d11c6791da7bb7f6b8d33e831a4992a9383dead1ec2c82c35a8152f35b346105fa575f3660031901126105fa576016546040516001600160a01b039091168152602090f35b346105fa5760203660031901126105fa5760206108196004356130da565b346105fa576020806003193601126105fa57600480359061230582610672565b61230d613296565b60035460a01c60ff1661247f576001600160a01b0382811693908461236d575b6003805460ff60a01b1916600160a01b179055847fe7e4c932e03abddfe20f83af42c33627e816115c7ec2b168441f65dc14bfc3ba5f80a2610a066132c5565b6040516302910f8b60e31b81526001600160a01b0385168482019081528390829081906020010381857f0000000000000000000000000000000000000000000000000000000000000000165afa908115610df9575f91612462575b50156124515760405163fbfa77cf60e01b815282818581895afa928315610df9575f93612432575b5050309116036124235750600380546001600160a01b0319166001600160a01b039092169190911790555f80808061232d565b604051633f3e089160e21b8152fd5b612449929350803d10611a5d57611a4d81836108b9565b905f806123f0565b60405163dabc4ad960e01b81528390fd5b6124799150833d8511611a9a57611a8c81836108b9565b5f6123c8565b60405163703fe2e560e01b8152fd5b346105fa5760403660031901126105fa576004356124ab81610672565b602435906124b7613296565b6001600160a01b039181831690811561253d576124e8610722946124da83613f22565b9485915f5460101c16613dbe565b604080519182526020820184905233917f865ca08d59f5cb456e85cd2f7ef63664ea4f73327414e9d8152c4158b0e946459190a360015f80516020614ccc833981519152556040519081529081906020820190565b604051634e46966960e11b8152600490fd5b346105fa5760203660031901126105fa576004355f526007602052602060405f2054604051908152f35b346105fa575f3660031901126105fa576003546040516001600160a01b039091168152602090f35b346105fa575f3660031901126105fa576020600f54604051908152f35b346105fa575f3660031901126105fa5760206040517fc9078c78bcaac2be1c77c160c539a489be2b72939771b1a6302fed3e2150c7458152f35b346105fa575f3660031901126105fa5760206109b2613ff0565b346105fa5760203660031901126105fa5760043561262e613296565b335f9081527f2d4ccbfe9f7672a6f2537c1e5bce6adacb73706879154bbab6ce096012d6721660205260409020547f4a634bc14d77baf979756509ef4298c6f6318af357828612545267ee2eb792339060ff1615610ff457508060045414610b7b576020817f854df3eb95564502c8bc871ebdd15310ee26270f955f6c6bd8cea68e75045bc092600455604051908152a160015f80516020614ccc83398151915255005b346105fa575f3660031901126105fa5760206109b2614064565b346105fa575f3660031901126105fa57602065ffffffffffff60135460901c16604051908152f35b346105fa5760203660031901126105fa5760043561273181610672565b61273d6107f842613fbe565b61274682612d35565b916127518183613238565b830180931161082957600182018092116108295761276e91613238565b810180911161082957602090604051908152f35b346105fa575f3660031901126105fa576020601054604051908152f35b346105fa575f3660031901126105fa5760206109b26131b2565b346105fa575f3660031901126105fa57602065ffffffffffff60135460601c16604051908152f35b346105fa575f3660031901126105fa576002546040516001600160a01b039091168152602090f35b346105fa5760403660031901126105fa57610a0660243560043561282c82610672565b805f525f80516020614cac833981519152602052612850600160405f200154613897565b61395e565b346105fa5760203660031901126105fa57600435612871613296565b335f9081527f82a1dc868a49801aa31c5dd393dc0b9005735300cdcd4bbc1af68215effcd6f860205260409020547fc9078c78bcaac2be1c77c160c539a489be2b72939771b1a6302fed3e2150c7459060ff1615610ff457508060155414610b7b576020817f85370e46fb038a73f13e1c280ffc745e71ff72b4ea57b15c6eca3749d73c0cb892601555604051908152a160015f80516020614ccc83398151915255005b346105fa575f3660031901126105fa575f5460405160109190911c6001600160a01b03168152602090f35b346105fa5760403660031901126105fa5760206109b260043561296281610672565b602435906131f2565b346105fa575f3660031901126105fa5760206040517fbae4ee3de6c709ff9a002e774c5b78cb381560b219213c88ae0f1e207c03c0238152f35b346105fa575f3660031901126105fa57005b346105fa575f3660031901126105fa576020601554604051908152f35b346105fa575f3660031901126105fa576020604051633b9aca008152f35b346105fa575f3660031901126105fa576020600454604051908152f35b346105fa5760603660031901126105fa57600435612a2c81610672565b612a34610840565b6001600160401b0391906044358381116105fa57612a56903690600401611112565b90926040938451612a668161087e565b60608152606060208201526060868201529280612ac5575b61072286612ab68787612ab0612a978984845191612c59565b9285612aa760208501518361355d565b93015190613487565b9161412b565b90519081529081906020820190565b81019392506020818503126105fa578035908682116105fa5701926060848203126105fa57845195612af68761087e565b84358181116105fa5782612b0b918701610904565b875260208501358181116105fa5782612b25918701610904565b6020880152858501359081116105fa5761072296612b4e612ab093612a9793612ab69801610904565b87820152939450612a7e565b346105fa5760403660031901126105fa57600435612b7781610672565b602435612b82613296565b6001600160a01b0382161561074d578015612bee57612bb1612ba2614064565b612baa613ff0565b908361456e565b335f908152600e60205260409020909290612bcb906140d8565b8311612bdc576107089183916132d8565b6040516321727a3760e11b8152600490fd5b604051636c6c627d60e11b8152600490fd5b346105fa5760403660031901126105fa5760206109b2602435612c2281610672565b600435613238565b634e487b7160e01b5f52601160045260245ffd5b5f1981019190821161082957565b9190820391821161082957565b6001600160a01b03165f908152600e60205260409020610ef5929190613612565b65ffffffffffff8060135460601c169081158015612ca7575b612c9b575090565b905060015460a01c1690565b508181612cb342613fbe565b1610612c93565b908160209103126105fa575190565b6040513d5f823e3d90fd5b906001820180921161082957565b9190820180921161082957565b60135465ffffffffffff90818160601c168015908115612d21575b50612d165760901c1690565b505060015460d01c90565b905082612d2d42613fbe565b16105f612d0a565b6001600160a01b03165f908152600e60205260409020612d54906140d8565b612d5c613ff0565b612d64614064565b9060018101809111610829576001820180921161082957610ef592613e95565b94919286949160c0979460018060a01b0380921688521660208701526040860152606085015260a060808501528160a0850152848401375f828201840152601f01601f1916010190565b601654612ddf9060a01c60ff161590565b612e45575f5460101c6001600160a01b0390811691168103612e45576040516370a0823160e01b815230600482015290602090829060249082905afa908115610df9575f91612e2c575090565b610ef5915060203d602011610df257610de381836108b9565b505f90565b65ffffffffffff918216908216039190821161082957565b634e487b7160e01b5f52601260045260245ffd5b9065ffffffffffff809116918215612e8d57160490565b612e62565b60015465ffffffffffff808316929160a081901c821680851015612f0a5750506013549281841690818015918215612f00575b5050612eee57610ef59361178992612ee3611bc49360125496612e4a565b9160301c1690612e76565b60405163b7d0949760e01b8152600490fd5b109050815f612ec5565b909160135490808260601c1695868015918215612f73575b505015612f4e575050610ef5935061178991612f44611bc49260115495612e4a565b9060d01c90612e76565b6117899350611bc49250612f68610ef59660145496612e4a565b9160901c1690612e76565b109050865f612f22565b90612f86613296565b5f926001600160a01b03831692831561253d578115613030575f5b82811061300e57505f547f326b6aff1cd2fb1c8234de4f9dcfb9047c5c36eb9ef2eb34af5121e969a75d279286929091612ff1918491612fec9060101c6001600160a01b03166111d0565b613dbe565b61300260405192839233968461306b565b0390a3906108e76132c5565b94613029600191611789613023898789613056565b35613f22565b9501612fa1565b60405163edf3b93360e01b8152600490fd5b634e487b7160e01b5f52603260045260245ffd5b91908110156130665760051b0190565b613042565b604080825281018390529392916001600160fb1b0381116105fa5760209160609160051b809183880137850101930152565b908160209103126105fa5751610ef581610ae8565b908160209103126105fa5751610ef581610672565b8181029291811591840414171561082957565b6012548082106131a0576011548083101561311b5750611bdc90610ef592611bd561310f6013549365ffffffffffff93612c4c565b828460301c16906130c7565b905060145480158015613197575b156131615750610ef59165ffffffffffff61315761314d611bdc9460015494612c4c565b8360d01c906130c7565b9160a01c16612ce2565b611bdc9150610ef59261318d6131816013549365ffffffffffff93612c4c565b828460901c16906130c7565b9160601c16612ce2565b50808310613129565b60405163d5b25b6360e01b8152600490fd5b65ffffffffffff8060135460601c1680159182156131dd575b50506131d75760105490565b600f5490565b9091506131e942613fbe565b16105f806131cb565b5f546001600160a01b039160109190911c821690821603613226576016541661321a57505f90565b601554610ef591613e17565b60405163350b944160e11b8152600490fd5b9061325e90825f52600860205260405f209060018060a01b03165f5260205260405f2090565b54905f52600660205260405f2054600760205260405f20549060018101809111610829576001820180921161082957610ef592613e95565b5f80516020614ccc83398151915260028154146132b35760029055565b604051633ee5aeb560e01b8152600490fd5b60015f80516020614ccc83398151915255565b335f908152600e60205260409020939291906132f342613fbe565b335f908152600e6020526040902061330a906140d8565b91848303928311610829576133457febff2602b3f468259e1e99f613fed6691f3a6526effe6ef3e768ba7ae7a36c4f9385936133d499613d00565b505061335f61335342613fbe565b610ced87611723614064565b505061337961336d42613fbe565b610cd884611723613ff0565b50506134228161340d6133966133916107f842613fbe565b612cd4565b6133ec6133ab825f52600660205260405f2090565b546133be835f52600760205260405f2090565b546133ca82828b61412b565b9d8e998a93612ce2565b6133e6855f52600660205260405f2090565b55612ce2565b6133fe825f52600760205260405f2090565b555f52600860205260405f2090565b9060018060a01b03165f5260205260405f2090565b61342d838254612ce2565b9055604080519485526020850195909552938301526001600160a01b03909216913391606090a3565b908160209103126105fa575163ffffffff811681036105fa5790565b90600163ffffffff8093160191821161082957565b9080511561355357806020806134a293518301019101613456565b6134ab8161439c565b906134bc825165ffffffffffff1690565b9065ffffffffffff808516921682811461354757821191826134f2575b50506134e95750610ef59061414c565b60209150015190565b909150613500600a54612c3e565b63ffffffff831614918215613519575b50505f806134d9565b61353f91925061353361352e611bc492613472565b61439c565b5165ffffffffffff1690565b115f80613510565b50505060209150015190565b50610ef59061414c565b90805115613608578060208061357893518301019101613456565b61358181614426565b90613592825165ffffffffffff1690565b9065ffffffffffff808516921682811461354757821191826135bf575b50506134e95750610ef590614213565b9091506135cd600c54612c3e565b63ffffffff8316149182156135e6575b50505f806135af565b6136009192506135336135fb611bc492613472565b614426565b115f806135dd565b50610ef590614213565b918051156136d4578060208061362d93518301019101613456565b9161363883826144a6565b92613649845165ffffffffffff1690565b9065ffffffffffff80851692168281146136c8578211918261367f575b505061367657610ef592506142d3565b50506020015190565b90915061368c8354612c3e565b63ffffffff8316149182156136a5575b50505f80613666565b6136c09192506135336136ba611bc492613472565b856144a6565b115f8061369c565b50505050506020015190565b50610ef5916142d3565b335f9081527f03b26b53c87faa1058f30bb5d2fee64f717719a0d9b7e4f4df027aa5e9b6ed69602052604090207fbae4ee3de6c709ff9a002e774c5b78cb381560b219213c88ae0f1e207c03c0239060ff905b541615610ff45750565b335f9081527fe41986b390c4ce6791b87f7423b5fab7a81a0e6d89660b6264f697d008b2243a602052604090207fc6aaadd7371d5e8f9ed6849dd66a66573a3ba37167d03f4352c9ba5693678fac9060ff90613731565b335f9081527f99e47f2907af87dbb5c62e22bd8ea822f5011dfd1e243469ce26ebebf3ab93e3602052604090207f591f6a0113ada8aff67efadec8ae2fa585cb4ebf4e1f8fc1205ffbeff98d00ec9060ff90613731565b335f9081527f665296150f4083bfe5a58682f99690b24ea27a3f56243679fa9797c6a16217aa602052604090207fc9feed28b4b1a1d11c6791da7bb7f6b8d33e831a4992a9383dead1ec2c82c35a9060ff90613731565b335f9081527f0287ab4cb376ea253d7b2ce0c2cbf458f7deae9458470d74afdfbbee484e9540602052604090207f9c56d972d63cbb4195b3c1484691dfc220fa96a4c47e7b6613bd82a022029e069060ff90613731565b5f8181525f80516020614cac83398151915260209081526040808320338452909152902060ff90613731565b5f8181525f80516020614cac833981519152602081815260408084206001600160a01b03871685529091529091205460ff16613957575f828152602091825260408082206001600160a01b038616835290925220805460ff1916600117905533916001600160a01b0316907f2f8788117e7eff1d82e926ec794901d17c78024a50270940304540a733656f0d5f80a4600190565b5050505f90565b5f8181525f80516020614cac833981519152602081815260408084206001600160a01b03871685529091529091205460ff1615613957575f828152602091825260408082206001600160a01b038616835290925220805460ff1916905533916001600160a01b0316907ff6391f5c32d9c69d2a47ea670b442974b53935d1edc7fd64eb21e047a839171b5f80a4600190565b6040516323b872dd60e01b60208201526001600160a01b03928316602482015292909116604483015260648083019390935291815260a08101918183106001600160401b03841117610899576108e792604052614514565b600b5481101561306657600b5f525f80516020614c8c83398151915201905f90565b600d5481101561306657600d5f525f80516020614c6c83398151915201905f90565b8054821015613066575f5260205f2001905f90565b600d54600160401b811015610899576001810180600d5581101561306657600d5f525f80516020614c6c8339815191520155565b600b54600160401b811015610899576001810180600b5581101561306657600b5f525f80516020614c8c8339815191520155565b90815491600160401b8310156108995782613b2c9160016108e795018155613a8c565b90919082549060031b91821b915f19901b1916179055565b919091600d9081548015613bef575b50613b5c6145a7565b50929091815492613b6b613ff0565b9481613bda575b5015613bb757505f1982018281116108295781541115613066575f527fd7b6990105719101dabeb77144f2a3385c8033acd3af97e9423a695e81ad1eb4018390559190565b613bcb926001600160d01b031691506147a3565b5050613bd683613aa1565b9190565b65ffffffffffff83811691161490505f613b72565b600160401b8110156108995760018101808455811015613066575f908382525f80516020614c6c83398151915201555f613b53565b919091600b9081548015613ccb575b50613c3c6145fc565b50929091815492613c4b614064565b9481613cb6575b5015613c9757505f1982018281116108295781541115613066575f527f0175b7a638427703f0dbe7bb9bbf987a2551717b34e79f33b5b1008d1fa01db8018390559190565b613cab926001600160d01b03169150614873565b5050613bd683613ad5565b65ffffffffffff83811691161490505f613c52565b600160401b8110156108995760018101808455811015613066575f908382525f80516020614c8c83398151915201555f613c33565b90929192600182019081548015613d8e575b5084613d1d84614651565b50949092845493613d2d836140d8565b9681613d79575b5015613d56575050505f19810190811161082957613b2c8591613bd693613a8c565b613bd6949293613d72926001600160d01b039091169190614912565b5050613b09565b65ffffffffffff83811691161490505f613d34565b600160401b81101561089957806001613daa9201845583613a8c565b8154905f199060031b1b191690555f613d12565b60405163a9059cbb60e01b60208201526001600160a01b03909216602483015260448083019390935291815260808101916001600160401b03831182841017610899576108e792604052614514565b8115612e8d570490565b90808202905f1981840990828083109203918083039214613e8857633b9aca009082821115613e76577f88f2cfb83100cb4e69e7c79c58b316e597157d372fb9787e8e47ce423a2e9c6d940990828211900360f71b910360091c170290565b634e487b715f5260116020526024601cfd5b5050633b9aca0091500490565b91818302915f1981850993838086109503948086039514613f155784831115613f085790829109815f038216809204600280826003021880830282030280830282030280830282030280830282030280830282030280920290030293600183805f03040190848311900302920304170290565b821560030260111861468a565b505090610ef59250613e0d565b90613f2f6107f842613fbe565b8210156131a05760ff613f5f613f4d845f52600960205260405f2090565b335f9081526020919091526040902090565b5416613fac57613f6f3383613238565b918215613f9a57613f8d9061340d33915f52600960205260405f2090565b805460ff19166001179055565b6040516366c0bcbf60e11b8152600490fd5b604051630c8d9eab60e31b8152600490fd5b65ffffffffffff90818111613fd1571690565b604490604051906306dfcc6560e41b8252603060048301526024820152fd5b600c548061402b57505f5b6001600160d01b03811615612e4557600d5481101561306657600d5f525f80516020614c6c833981519152015490565b805f1981011161082957600c5f527fdf6966c971051c3d54ec59162606531493a51404a002842f56009d7e5cf4a8c6015460301c613ffb565b600a548061409f57505f5b6001600160d01b03811615612e4557600b5481101561306657600b5f525f80516020614c8c833981519152015490565b805f1981011161082957600a5f527fc65a7bb8d6351c1cf70c95a316cc6a92839c986682d98bc35f958f4883f9d2a7015460301c61406f565b80548061410d57505f5b6001600160d01b038116156141075760016140fd9201613a8c565b90549060031b1c90565b50505f90565b5f1990808281011161082957825f5260205f2001015460301c6140e2565b919060018101809111610829576001820180921161082957610ef592613e95565b600a54905f8291600584116141ba575b6141669350614af7565b8061418957505f5b6001600160d01b03811615612e45576140fd610ef591613a48565b6141ae6141986141b592612c3e565b600a5f525f80516020614c4c8339815191520190565b5460301c90565b61416e565b91926141c5816149cc565b81039081116108295761416693600a5f5265ffffffffffff80835f80516020614c4c833981519152015416908516105f1461420157509161415c565b92915061420d90612cd4565b9061415c565b600c54905f82916005841161427a575b61422d9350614b60565b8061425057505f5b6001600160d01b03811615612e45576140fd610ef591613a6a565b6141ae61425f61427592612c3e565b600c5f525f80516020614c2c8339815191520190565b614235565b9192614285816149cc565b81039081116108295761422d93600c5f5265ffffffffffff80835f80516020614c2c833981519152015416908516105f146142c1575091614223565b9291506142cd90612cd4565b90614223565b908154905f829160058411614336575b6142ee935084614bc9565b8061431657505f905b6001600160d01b0382161561410757610ef59160016140fd9201613a8c565b6141ae61432561433092612c3e565b835f5260205f200190565b906142f7565b9192614341816149cc565b8103908111610829576142ee93855f5265ffffffffffff808360205f20015416908516105f146143725750916142e3565b92915061437e90612cd4565b906142e3565b604051906143918261089e565b5f6020838281520152565b6143a4614384565b506143ad614384565b50600a5481101561306657600a5f526020604051916143cb8361089e565b5f80516020614c4c83398151915201549165ffffffffffff83169283825260301c9182910152600b5481101561306657600b5f525f80516020614c8c83398151915201546040519161441c8361089e565b8252602082015290565b61442e614384565b50614437614384565b50600c5481101561306657600c5f526020604051916144558361089e565b5f80516020614c2c83398151915201549165ffffffffffff83169283825260301c9182910152600d5481101561306657600d5f525f80516020614c6c83398151915201546040519161441c8361089e565b90602060016144ca6144f6936144ba614384565b506144c3614384565b5085613a8c565b5093604051946144d98661089e565b549465ffffffffffff86169586825260301c938491015201613a8c565b905490604051926145068461089e565b835260031b1c602082015290565b905f602091828151910182855af115612cc9575f513d61456557506001600160a01b0381163b155b6145435750565b604051635274afe760e01b81526001600160a01b039091166004820152602490fd5b6001141561453c565b919060018101809111610829576001820180921161082957614591828285613e95565b928215612e8d5709151581018091116108295790565b600c54806145b857505f905f905f90565b805f1981011161082957600c5f527fdf6966c971051c3d54ec59162606531493a51404a002842f56009d7e5cf4a8c6015460019165ffffffffffff82169160301c90565b600a548061460d57505f905f905f90565b805f1981011161082957600a5f527fc65a7bb8d6351c1cf70c95a316cc6a92839c986682d98bc35f958f4883f9d2a7015460019165ffffffffffff82169160301c90565b8054806146625750505f905f905f90565b5f19918183810111610829575f5260205f2001015460019165ffffffffffff82169160301c90565b634e487b715f526020526024601cfd5b600c5490600160401b821015610899576001820180600c5582101561306657600c5f52805160209091015160301b65ffffffffffff191665ffffffffffff91909116175f80516020614c2c83398151915290910155565b600a5490600160401b821015610899576001820180600a5582101561306657600a5f52805160209091015160301b65ffffffffffff191665ffffffffffff91909116175f80516020614c4c83398151915290910155565b8054600160401b8110156108995761476591600182018155613a8c565b61479057815160209092015160301b65ffffffffffff191665ffffffffffff92909216919091179055565b634e487b7160e01b5f525f60045260245ffd5b600c54919291801561484a5761425f6147bb91612c3e565b9081549165ffffffffffff9081841691831680831161483857869203614800576147f992509065ffffffffffff82549181199060301b169116179055565b60301c9190565b50506148339061481f6148116108da565b65ffffffffffff9092168252565b6001600160d01b038516602082015261469a565b6147f9565b604051632520601d60e01b8152600490fd5b5061486e9061485a6148116108da565b6001600160d01b038416602082015261469a565b5f9190565b600a5491929180156148ee5761419861488b91612c3e565b9081549165ffffffffffff90818416918316808311614838578692036148c9576147f992509065ffffffffffff82549181199060301b169116179055565b5050614833906148da6148116108da565b6001600160d01b03851660208201526146f1565b5061486e906148fe6148116108da565b6001600160d01b03841660208201526146f1565b805492939280156149a75761492961493491612c3e565b825f5260205f200190565b9182549265ffffffffffff918285169281168084116148385787930361497357506147f992509065ffffffffffff82549181199060301b169116179055565b915050614833916149936149856108da565b65ffffffffffff9093168352565b6001600160d01b0386166020830152614748565b509061486e916149b86149856108da565b6001600160d01b0385166020830152614748565b6001811115610ef557600181600160801b811015614ae5575b614a8d614a83614a79614a6f614a65614a5b614a9997600488600160401b614a949a1015614ad8575b640100000000811015614acb575b62010000811015614abe575b610100811015614ab2575b6010811015614aa6575b1015614a9e575b60030260011c614a54818b613e0d565b0160011c90565b614a54818a613e0d565b614a548189613e0d565b614a548188613e0d565b614a548187613e0d565b614a548186613e0d565b8093613e0d565b821190565b900390565b60011b614a44565b811c9160021b91614a3d565b60081c91811b91614a33565b60101c9160081b91614a28565b60201c9160101b91614a1c565b60401c9160201b91614a0e565b50600160401b9050608082901c6149e5565b905b828110614b0557505090565b9091808216906001818418811c830180931161082957600a5f5265ffffffffffff80845f80516020614c4c833981519152015416908616105f14614b4d575050915b90614af9565b9093925081018091116108295790614b47565b905b828110614b6e57505090565b9091808216906001818418811c830180931161082957600c5f5265ffffffffffff80845f80516020614c2c833981519152015416908616105f14614bb6575050915b90614b62565b9093925081018091116108295790614bb0565b91905b838210614bd95750505090565b909192808316906001818518811c830180931161082957855f5265ffffffffffff808460205f20015416908516105f14614c18575050925b9190614bcc565b9094935081018091116108295791614c1156fedf6966c971051c3d54ec59162606531493a51404a002842f56009d7e5cf4a8c7c65a7bb8d6351c1cf70c95a316cc6a92839c986682d98bc35f958f4883f9d2a8d7b6990105719101dabeb77144f2a3385c8033acd3af97e9423a695e81ad1eb50175b7a638427703f0dbe7bb9bbf987a2551717b34e79f33b5b1008d1fa01db902dd7bc7dec4dceedda775e58dd541e08a116c6c53815c0bd028192f7b6268009b779b17422d0df92223018b32b4d1fa46e071723d6817e2486d003becc55f00a264697066735822122012153bfa4c0f9b957d3c4b2546052a59eb8172e5f30d51055c4113275b014a4a64736f6c63430008190033","linkReferences":{}},"methodIdentifiers":{"DEFAULT_ADMIN_ROLE()":"a217fddf","DELEGATOR_FACTORY()":"6da3e06d","DEPOSITOR_WHITELIST_ROLE()":"1b66c9e1","DEPOSIT_LIMIT_SET_ROLE()":"a21a1df9","DEPOSIT_WHITELIST_SET_ROLE()":"db388715","EPOCH_DURATION_SET_ROLE()":"61819dd8","FLASH_FEE_BASE()":"ecc98f05","FLASH_FEE_RATE_SET_ROLE()":"bc46f722","FLASH_FEE_RECEIVER_SET_ROLE()":"31d9736c","FLASH_LOAN_ENABLED_SET_ROLE()":"a66b3a73","IS_DEPOSIT_LIMIT_SET_ROLE()":"1415519b","RETURN_VALUE()":"653b04cd","SLASHER_FACTORY()":"87df0788","_Vault_init()":"dc0b1d71","_epochDuration()":"2fa27fae","_epochDurationInit()":"9f9962dd","_epochDurationInitIndex()":"9b4bae3e","_epochDurationSetEpochsDelay()":"bba6ff4a","_nextEpochDuration()":"c1bc6f51","_nextEpochDurationInit()":"cc52aee7","_nextEpochDurationSetEpochsDelay()":"c4db46fc","_nextEpochInitIndex()":"2749f9c4","_prevEpochDuration()":"5a36aa74","_prevEpochDurationInit()":"6e0f2455","_prevEpochDurationInitIndex()":"98ccba4a","activeBalanceOf(address)":"59f769a9","activeBalanceOfAt(address,uint48,bytes)":"efb559d6","activeShares()":"bfefcd7b","activeSharesAt(uint48,bytes)":"50f22068","activeSharesOf(address)":"9d66201b","activeSharesOfAt(address,uint48,bytes)":"2d73c69c","activeStake()":"bd49c35f","activeStakeAt(uint48,bytes)":"810da75d","burner()":"27810b6e","claim(address,uint256)":"aad3ec96","claimBatch(address,uint256[])":"7c04c80a","collateral()":"d8dfeb45","currentEpoch()":"76671808","currentEpochStart()":"61a8c8c4","delegator()":"ce9b7930","deposit(address,uint256)":"47e7ef24","depositLimit()":"ecf70858","depositWhitelist()":"48d3b775","epochAt(uint48)":"7953b33b","epochDuration()":"4ff0876a","epochDurationInit()":"46361671","epochDurationSetEpochsDelay()":"c642b050","epochStart(uint256)":"aa9354a3","flashFee(address,uint256)":"d9d98ce4","flashFeeRate()":"e945da7f","flashFeeReceiver()":"a8b24f9a","flashLoan(address,address,uint256,bytes)":"5cffe9de","flashLoanEnabled()":"65d61c6c","getRoleAdmin(bytes32)":"248a9ca3","grantRole(bytes32,address)":"2f2ff15d","hasRole(bytes32,address)":"91d14854","isDelegatorInitialized()":"50861adc","isDepositLimit()":"a1b12202","isDepositorWhitelisted(address)":"794b15b7","isInitialized()":"392e53cd","isSlasherInitialized()":"6ec1e3f8","isWithdrawalsClaimed(uint256,address)":"a5d03223","maxFlashLoan(address)":"613255ab","nextEpochStart()":"73790ab3","onSlash(uint256,uint48)":"7278e31c","previousEpochStart()":"281f5752","redeem(address,uint256)":"1e9a6950","renounceRole(bytes32,address)":"36568abe","revokeRole(bytes32,address)":"d547741f","setDelegator(address)":"83cd9cc3","setDepositLimit(uint256)":"bdc8144b","setDepositWhitelist(bool)":"4105a7dd","setDepositorWhitelistStatus(address,bool)":"a2861466","setEpochDuration(uint48,uint256)":"83f46c2c","setFlashFeeRate(uint256)":"d626811b","setFlashFeeReceiver(address)":"52741a40","setFlashloanEnabled(bool)":"859b9344","setIsDepositLimit(bool)":"5346e34f","setSlasher(address)":"aabc2496","slashableBalanceOf(address)":"c31e8dd7","slasher()":"b1344271","staticDelegateCall(address,bytes)":"9f86fd85","supportsInterface(bytes4)":"01ffc9a7","totalStake()":"8b0e9f3f","withdraw(address,uint256)":"f3fef3a3","withdrawalShares(uint256)":"afba70ad","withdrawalSharesOf(uint256,address)":"a3b54172","withdrawals(uint256)":"5cc07076","withdrawalsOf(uint256,address)":"f5e7ee0f"},"id":107}