{
  "abi": [
    {
      "type": "constructor",
      "inputs": [
        {
          "name": "delegatorFactory",
          "type": "address",
          "internalType": "address"
        },
        {
          "name": "slasherFactory",
          "type": "address",
          "internalType": "address"
        }
      ],
      "stateMutability": "nonpayable"
    },
    {
      "type": "function",
      "name": "DEFAULT_ADMIN_ROLE",
      "inputs": [],
      "outputs": [
        {
          "name": "",
          "type": "bytes32",
          "internalType": "bytes32"
        }
      ],
      "stateMutability": "view"
    },
    {
      "type": "function",
      "name": "DELEGATOR_FACTORY",
      "inputs": [],
      "outputs": [
        {
          "name": "",
          "type": "address",
          "internalType": "address"
        }
      ],
      "stateMutability": "view"
    },
    {
      "type": "function",
      "name": "DEPOSITOR_WHITELIST_ROLE",
      "inputs": [],
      "outputs": [
        {
          "name": "",
          "type": "bytes32",
          "internalType": "bytes32"
        }
      ],
      "stateMutability": "view"
    },
    {
      "type": "function",
      "name": "DEPOSIT_LIMIT_SET_ROLE",
      "inputs": [],
      "outputs": [
        {
          "name": "",
          "type": "bytes32",
          "internalType": "bytes32"
        }
      ],
      "stateMutability": "view"
    },
    {
      "type": "function",
      "name": "DEPOSIT_WHITELIST_SET_ROLE",
      "inputs": [],
      "outputs": [
        {
          "name": "",
          "type": "bytes32",
          "internalType": "bytes32"
        }
      ],
      "stateMutability": "view"
    },
    {
      "type": "function",
      "name": "EPOCH_DURATION_SET_ROLE",
      "inputs": [],
      "outputs": [
        {
          "name": "",
          "type": "bytes32",
          "internalType": "bytes32"
        }
      ],
      "stateMutability": "view"
    },
    {
      "type": "function",
      "name": "FLASH_FEE_BASE",
      "inputs": [],
      "outputs": [
        {
          "name": "",
          "type": "uint256",
          "internalType": "uint256"
        }
      ],
      "stateMutability": "view"
    },
    {
      "type": "function",
      "name": "FLASH_FEE_RATE_SET_ROLE",
      "inputs": [],
      "outputs": [
        {
          "name": "",
          "type": "bytes32",
          "internalType": "bytes32"
        }
      ],
      "stateMutability": "view"
    },
    {
      "type": "function",
      "name": "FLASH_FEE_RECEIVER_SET_ROLE",
      "inputs": [],
      "outputs": [
        {
          "name": "",
          "type": "bytes32",
          "internalType": "bytes32"
        }
      ],
      "stateMutability": "view"
    },
    {
      "type": "function",
      "name": "FLASH_LOAN_ENABLED_SET_ROLE",
      "inputs": [],
      "outputs": [
        {
          "name": "",
          "type": "bytes32",
          "internalType": "bytes32"
        }
      ],
      "stateMutability": "view"
    },
    {
      "type": "function",
      "name": "IS_DEPOSIT_LIMIT_SET_ROLE",
      "inputs": [],
      "outputs": [
        {
          "name": "",
          "type": "bytes32",
          "internalType": "bytes32"
        }
      ],
      "stateMutability": "view"
    },
    {
      "type": "function",
      "name": "RETURN_VALUE",
      "inputs": [],
      "outputs": [
        {
          "name": "",
          "type": "bytes32",
          "internalType": "bytes32"
        }
      ],
      "stateMutability": "view"
    },
    {
      "type": "function",
      "name": "SLASHER_FACTORY",
      "inputs": [],
      "outputs": [
        {
          "name": "",
          "type": "address",
          "internalType": "address"
        }
      ],
      "stateMutability": "view"
    },
    {
      "type": "function",
      "name": "_epochDuration",
      "inputs": [],
      "outputs": [
        {
          "name": "",
          "type": "uint48",
          "internalType": "uint48"
        }
      ],
      "stateMutability": "view"
    },
    {
      "type": "function",
      "name": "_epochDurationInit",
      "inputs": [],
      "outputs": [
        {
          "name": "",
          "type": "uint48",
          "internalType": "uint48"
        }
      ],
      "stateMutability": "view"
    },
    {
      "type": "function",
      "name": "_epochDurationInitIndex",
      "inputs": [],
      "outputs": [
        {
          "name": "",
          "type": "uint256",
          "internalType": "uint256"
        }
      ],
      "stateMutability": "view"
    },
    {
      "type": "function",
      "name": "_epochDurationSetEpochsDelay",
      "inputs": [],
      "outputs": [
        {
          "name": "",
          "type": "uint256",
          "internalType": "uint256"
        }
      ],
      "stateMutability": "view"
    },
    {
      "type": "function",
      "name": "_nextEpochDuration",
      "inputs": [],
      "outputs": [
        {
          "name": "",
          "type": "uint48",
          "internalType": "uint48"
        }
      ],
      "stateMutability": "view"
    },
    {
      "type": "function",
      "name": "_nextEpochDurationInit",
      "inputs": [],
      "outputs": [
        {
          "name": "",
          "type": "uint48",
          "internalType": "uint48"
        }
      ],
      "stateMutability": "view"
    },
    {
      "type": "function",
      "name": "_nextEpochDurationSetEpochsDelay",
      "inputs": [],
      "outputs": [
        {
          "name": "",
          "type": "uint256",
          "internalType": "uint256"
        }
      ],
      "stateMutability": "view"
    },
    {
      "type": "function",
      "name": "_nextEpochInitIndex",
      "inputs": [],
      "outputs": [
        {
          "name": "",
          "type": "uint256",
          "internalType": "uint256"
        }
      ],
      "stateMutability": "view"
    },
    {
      "type": "function",
      "name": "_prevEpochDuration",
      "inputs": [],
      "outputs": [
        {
          "name": "",
          "type": "uint48",
          "internalType": "uint48"
        }
      ],
      "stateMutability": "view"
    },
    {
      "type": "function",
      "name": "_prevEpochDurationInit",
      "inputs": [],
      "outputs": [
        {
          "name": "",
          "type": "uint48",
          "internalType": "uint48"
        }
      ],
      "stateMutability": "view"
    },
    {
      "type": "function",
      "name": "_prevEpochDurationInitIndex",
      "inputs": [],
      "outputs": [
        {
          "name": "",
          "type": "uint256",
          "internalType": "uint256"
        }
      ],
      "stateMutability": "view"
    },
    {
      "type": "function",
      "name": "activeBalanceOf",
      "inputs": [
        {
          "name": "account",
          "type": "address",
          "internalType": "address"
        }
      ],
      "outputs": [
        {
          "name": "",
          "type": "uint256",
          "internalType": "uint256"
        }
      ],
      "stateMutability": "view"
    },
    {
      "type": "function",
      "name": "activeBalanceOfAt",
      "inputs": [
        {
          "name": "account",
          "type": "address",
          "internalType": "address"
        },
        {
          "name": "timestamp",
          "type": "uint48",
          "internalType": "uint48"
        },
        {
          "name": "hints",
          "type": "bytes",
          "internalType": "bytes"
        }
      ],
      "outputs": [
        {
          "name": "",
          "type": "uint256",
          "internalType": "uint256"
        }
      ],
      "stateMutability": "view"
    },
    {
      "type": "function",
      "name": "activeShares",
      "inputs": [],
      "outputs": [
        {
          "name": "",
          "type": "uint256",
          "internalType": "uint256"
        }
      ],
      "stateMutability": "view"
    },
    {
      "type": "function",
      "name": "activeSharesAt",
      "inputs": [
        {
          "name": "timestamp",
          "type": "uint48",
          "internalType": "uint48"
        },
        {
          "name": "hint",
          "type": "bytes",
          "internalType": "bytes"
        }
      ],
      "outputs": [
        {
          "name": "",
          "type": "uint256",
          "internalType": "uint256"
        }
      ],
      "stateMutability": "view"
    },
    {
      "type": "function",
      "name": "activeSharesOf",
      "inputs": [
        {
          "name": "account",
          "type": "address",
          "internalType": "address"
        }
      ],
      "outputs": [
        {
          "name": "",
          "type": "uint256",
          "internalType": "uint256"
        }
      ],
      "stateMutability": "view"
    },
    {
      "type": "function",
      "name": "activeSharesOfAt",
      "inputs": [
        {
          "name": "account",
          "type": "address",
          "internalType": "address"
        },
        {
          "name": "timestamp",
          "type": "uint48",
          "internalType": "uint48"
        },
        {
          "name": "hint",
          "type": "bytes",
          "internalType": "bytes"
        }
      ],
      "outputs": [
        {
          "name": "",
          "type": "uint256",
          "internalType": "uint256"
        }
      ],
      "stateMutability": "view"
    },
    {
      "type": "function",
      "name": "activeStake",
      "inputs": [],
      "outputs": [
        {
          "name": "",
          "type": "uint256",
          "internalType": "uint256"
        }
      ],
      "stateMutability": "view"
    },
    {
      "type": "function",
      "name": "activeStakeAt",
      "inputs": [
        {
          "name": "timestamp",
          "type": "uint48",
          "internalType": "uint48"
        },
        {
          "name": "hint",
          "type": "bytes",
          "internalType": "bytes"
        }
      ],
      "outputs": [
        {
          "name": "",
          "type": "uint256",
          "internalType": "uint256"
        }
      ],
      "stateMutability": "view"
    },
    {
      "type": "function",
      "name": "burner",
      "inputs": [],
      "outputs": [
        {
          "name": "",
          "type": "address",
          "internalType": "address"
        }
      ],
      "stateMutability": "view"
    },
    {
      "type": "function",
      "name": "claim",
      "inputs": [
        {
          "name": "recipient",
          "type": "address",
          "internalType": "address"
        },
        {
          "name": "epoch",
          "type": "uint256",
          "internalType": "uint256"
        }
      ],
      "outputs": [
        {
          "name": "amount",
          "type": "uint256",
          "internalType": "uint256"
        }
      ],
      "stateMutability": "nonpayable"
    },
    {
      "type": "function",
      "name": "claimBatch",
      "inputs": [
        {
          "name": "recipient",
          "type": "address",
          "internalType": "address"
        },
        {
          "name": "epochs",
          "type": "uint256[]",
          "internalType": "uint256[]"
        }
      ],
      "outputs": [
        {
          "name": "amount",
          "type": "uint256",
          "internalType": "uint256"
        }
      ],
      "stateMutability": "nonpayable"
    },
    {
      "type": "function",
      "name": "collateral",
      "inputs": [],
      "outputs": [
        {
          "name": "",
          "type": "address",
          "internalType": "address"
        }
      ],
      "stateMutability": "view"
    },
    {
      "type": "function",
      "name": "currentEpoch",
      "inputs": [],
      "outputs": [
        {
          "name": "",
          "type": "uint256",
          "internalType": "uint256"
        }
      ],
      "stateMutability": "view"
    },
    {
      "type": "function",
      "name": "currentEpochStart",
      "inputs": [],
      "outputs": [
        {
          "name": "",
          "type": "uint48",
          "internalType": "uint48"
        }
      ],
      "stateMutability": "view"
    },
    {
      "type": "function",
      "name": "delegator",
      "inputs": [],
      "outputs": [
        {
          "name": "",
          "type": "address",
          "internalType": "address"
        }
      ],
      "stateMutability": "view"
    },
    {
      "type": "function",
      "name": "deposit",
      "inputs": [
        {
          "name": "onBehalfOf",
          "type": "address",
          "internalType": "address"
        },
        {
          "name": "amount",
          "type": "uint256",
          "internalType": "uint256"
        }
      ],
      "outputs": [
        {
          "name": "depositedAmount",
          "type": "uint256",
          "internalType": "uint256"
        },
        {
          "name": "mintedShares",
          "type": "uint256",
          "internalType": "uint256"
        }
      ],
      "stateMutability": "nonpayable"
    },
    {
      "type": "function",
      "name": "depositLimit",
      "inputs": [],
      "outputs": [
        {
          "name": "",
          "type": "uint256",
          "internalType": "uint256"
        }
      ],
      "stateMutability": "view"
    },
    {
      "type": "function",
      "name": "depositWhitelist",
      "inputs": [],
      "outputs": [
        {
          "name": "",
          "type": "bool",
          "internalType": "bool"
        }
      ],
      "stateMutability": "view"
    },
    {
      "type": "function",
      "name": "epochAt",
      "inputs": [
        {
          "name": "timestamp",
          "type": "uint48",
          "internalType": "uint48"
        }
      ],
      "outputs": [
        {
          "name": "",
          "type": "uint256",
          "internalType": "uint256"
        }
      ],
      "stateMutability": "view"
    },
    {
      "type": "function",
      "name": "epochDuration",
      "inputs": [],
      "outputs": [
        {
          "name": "",
          "type": "uint48",
          "internalType": "uint48"
        }
      ],
      "stateMutability": "view"
    },
    {
      "type": "function",
      "name": "epochDurationInit",
      "inputs": [],
      "outputs": [
        {
          "name": "",
          "type": "uint48",
          "internalType": "uint48"
        }
      ],
      "stateMutability": "view"
    },
    {
      "type": "function",
      "name": "epochDurationSetEpochsDelay",
      "inputs": [],
      "outputs": [
        {
          "name": "",
          "type": "uint256",
          "internalType": "uint256"
        }
      ],
      "stateMutability": "view"
    },
    {
      "type": "function",
      "name": "epochStart",
      "inputs": [
        {
          "name": "epoch",
          "type": "uint256",
          "internalType": "uint256"
        }
      ],
      "outputs": [
        {
          "name": "",
          "type": "uint48",
          "internalType": "uint48"
        }
      ],
      "stateMutability": "view"
    },
    {
      "type": "function",
      "name": "flashFee",
      "inputs": [
        {
          "name": "token",
          "type": "address",
          "internalType": "address"
        },
        {
          "name": "value",
          "type": "uint256",
          "internalType": "uint256"
        }
      ],
      "outputs": [
        {
          "name": "",
          "type": "uint256",
          "internalType": "uint256"
        }
      ],
      "stateMutability": "view"
    },
    {
      "type": "function",
      "name": "flashFeeRate",
      "inputs": [],
      "outputs": [
        {
          "name": "",
          "type": "uint256",
          "internalType": "uint256"
        }
      ],
      "stateMutability": "view"
    },
    {
      "type": "function",
      "name": "flashFeeReceiver",
      "inputs": [],
      "outputs": [
        {
          "name": "",
          "type": "address",
          "internalType": "address"
        }
      ],
      "stateMutability": "view"
    },
    {
      "type": "function",
      "name": "flashLoan",
      "inputs": [
        {
          "name": "receiver",
          "type": "address",
          "internalType": "contract IERC3156FlashBorrower"
        },
        {
          "name": "token",
          "type": "address",
          "internalType": "address"
        },
        {
          "name": "value",
          "type": "uint256",
          "internalType": "uint256"
        },
        {
          "name": "data",
          "type": "bytes",
          "internalType": "bytes"
        }
      ],
      "outputs": [
        {
          "name": "",
          "type": "bool",
          "internalType": "bool"
        }
      ],
      "stateMutability": "nonpayable"
    },
    {
      "type": "function",
      "name": "flashLoanEnabled",
      "inputs": [],
      "outputs": [
        {
          "name": "",
          "type": "bool",
          "internalType": "bool"
        }
      ],
      "stateMutability": "view"
    },
    {
      "type": "function",
      "name": "getRoleAdmin",
      "inputs": [
        {
          "name": "role",
          "type": "bytes32",
          "internalType": "bytes32"
        }
      ],
      "outputs": [
        {
          "name": "",
          "type": "bytes32",
          "internalType": "bytes32"
        }
      ],
      "stateMutability": "view"
    },
    {
      "type": "function",
      "name": "grantRole",
      "inputs": [
        {
          "name": "role",
          "type": "bytes32",
          "internalType": "bytes32"
        },
        {
          "name": "account",
          "type": "address",
          "internalType": "address"
        }
      ],
      "outputs": [],
      "stateMutability": "nonpayable"
    },
    {
      "type": "function",
      "name": "hasRole",
      "inputs": [
        {
          "name": "role",
          "type": "bytes32",
          "internalType": "bytes32"
        },
        {
          "name": "account",
          "type": "address",
          "internalType": "address"
        }
      ],
      "outputs": [
        {
          "name": "",
          "type": "bool",
          "internalType": "bool"
        }
      ],
      "stateMutability": "view"
    },
    {
      "type": "function",
      "name": "isDelegatorInitialized",
      "inputs": [],
      "outputs": [
        {
          "name": "",
          "type": "bool",
          "internalType": "bool"
        }
      ],
      "stateMutability": "view"
    },
    {
      "type": "function",
      "name": "isDepositLimit",
      "inputs": [],
      "outputs": [
        {
          "name": "",
          "type": "bool",
          "internalType": "bool"
        }
      ],
      "stateMutability": "view"
    },
    {
      "type": "function",
      "name": "isDepositorWhitelisted",
      "inputs": [
        {
          "name": "account",
          "type": "address",
          "internalType": "address"
        }
      ],
      "outputs": [
        {
          "name": "value",
          "type": "bool",
          "internalType": "bool"
        }
      ],
      "stateMutability": "view"
    },
    {
      "type": "function",
      "name": "isInitialized",
      "inputs": [],
      "outputs": [
        {
          "name": "",
          "type": "bool",
          "internalType": "bool"
        }
      ],
      "stateMutability": "view"
    },
    {
      "type": "function",
      "name": "isSlasherInitialized",
      "inputs": [],
      "outputs": [
        {
          "name": "",
          "type": "bool",
          "internalType": "bool"
        }
      ],
      "stateMutability": "view"
    },
    {
      "type": "function",
      "name": "isWithdrawalsClaimed",
      "inputs": [
        {
          "name": "epoch",
          "type": "uint256",
          "internalType": "uint256"
        },
        {
          "name": "account",
          "type": "address",
          "internalType": "address"
        }
      ],
      "outputs": [
        {
          "name": "value",
          "type": "bool",
          "internalType": "bool"
        }
      ],
      "stateMutability": "view"
    },
    {
      "type": "function",
      "name": "maxFlashLoan",
      "inputs": [
        {
          "name": "token",
          "type": "address",
          "internalType": "address"
        }
      ],
      "outputs": [
        {
          "name": "",
          "type": "uint256",
          "internalType": "uint256"
        }
      ],
      "stateMutability": "view"
    },
    {
      "type": "function",
      "name": "nextEpochStart",
      "inputs": [],
      "outputs": [
        {
          "name": "",
          "type": "uint48",
          "internalType": "uint48"
        }
      ],
      "stateMutability": "view"
    },
    {
      "type": "function",
      "name": "onSlash",
      "inputs": [
        {
          "name": "amount",
          "type": "uint256",
          "internalType": "uint256"
        },
        {
          "name": "captureTimestamp",
          "type": "uint48",
          "internalType": "uint48"
        }
      ],
      "outputs": [
        {
          "name": "slashedAmount",
          "type": "uint256",
          "internalType": "uint256"
        }
      ],
      "stateMutability": "nonpayable"
    },
    {
      "type": "function",
      "name": "previousEpochStart",
      "inputs": [],
      "outputs": [
        {
          "name": "",
          "type": "uint48",
          "internalType": "uint48"
        }
      ],
      "stateMutability": "view"
    },
    {
      "type": "function",
      "name": "redeem",
      "inputs": [
        {
          "name": "claimer",
          "type": "address",
          "internalType": "address"
        },
        {
          "name": "shares",
          "type": "uint256",
          "internalType": "uint256"
        }
      ],
      "outputs": [
        {
          "name": "withdrawnAssets",
          "type": "uint256",
          "internalType": "uint256"
        },
        {
          "name": "mintedShares",
          "type": "uint256",
          "internalType": "uint256"
        }
      ],
      "stateMutability": "nonpayable"
    },
    {
      "type": "function",
      "name": "renounceRole",
      "inputs": [
        {
          "name": "role",
          "type": "bytes32",
          "internalType": "bytes32"
        },
        {
          "name": "callerConfirmation",
          "type": "address",
          "internalType": "address"
        }
      ],
      "outputs": [],
      "stateMutability": "nonpayable"
    },
    {
      "type": "function",
      "name": "revokeRole",
      "inputs": [
        {
          "name": "role",
          "type": "bytes32",
          "internalType": "bytes32"
        },
        {
          "name": "account",
          "type": "address",
          "internalType": "address"
        }
      ],
      "outputs": [],
      "stateMutability": "nonpayable"
    },
    {
      "type": "function",
      "name": "setDelegator",
      "inputs": [
        {
          "name": "delegator_",
          "type": "address",
          "internalType": "address"
        }
      ],
      "outputs": [],
      "stateMutability": "nonpayable"
    },
    {
      "type": "function",
      "name": "setDepositLimit",
      "inputs": [
        {
          "name": "limit",
          "type": "uint256",
          "internalType": "uint256"
        }
      ],
      "outputs": [],
      "stateMutability": "nonpayable"
    },
    {
      "type": "function",
      "name": "setDepositWhitelist",
      "inputs": [
        {
          "name": "status",
          "type": "bool",
          "internalType": "bool"
        }
      ],
      "outputs": [],
      "stateMutability": "nonpayable"
    },
    {
      "type": "function",
      "name": "setDepositorWhitelistStatus",
      "inputs": [
        {
          "name": "account",
          "type": "address",
          "internalType": "address"
        },
        {
          "name": "status",
          "type": "bool",
          "internalType": "bool"
        }
      ],
      "outputs": [],
      "stateMutability": "nonpayable"
    },
    {
      "type": "function",
      "name": "setEpochDuration",
      "inputs": [
        {
          "name": "epochDuration_",
          "type": "uint48",
          "internalType": "uint48"
        },
        {
          "name": "epochDurationSetEpochsDelay_",
          "type": "uint256",
          "internalType": "uint256"
        }
      ],
      "outputs": [],
      "stateMutability": "nonpayable"
    },
    {
      "type": "function",
      "name": "setFlashFeeRate",
      "inputs": [
        {
          "name": "flashFeeRate_",
          "type": "uint256",
          "internalType": "uint256"
        }
      ],
      "outputs": [],
      "stateMutability": "nonpayable"
    },
    {
      "type": "function",
      "name": "setFlashFeeReceiver",
      "inputs": [
        {
          "name": "flashFeeReceiver_",
          "type": "address",
          "internalType": "address"
        }
      ],
      "outputs": [],
      "stateMutability": "nonpayable"
    },
    {
      "type": "function",
      "name": "setFlashloanEnabled",
      "inputs": [
        {
          "name": "status",
          "type": "bool",
          "internalType": "bool"
        }
      ],
      "outputs": [],
      "stateMutability": "nonpayable"
    },
    {
      "type": "function",
      "name": "setIsDepositLimit",
      "inputs": [
        {
          "name": "status",
          "type": "bool",
          "internalType": "bool"
        }
      ],
      "outputs": [],
      "stateMutability": "nonpayable"
    },
    {
      "type": "function",
      "name": "setSlasher",
      "inputs": [
        {
          "name": "slasher_",
          "type": "address",
          "internalType": "address"
        }
      ],
      "outputs": [],
      "stateMutability": "nonpayable"
    },
    {
      "type": "function",
      "name": "slashableBalanceOf",
      "inputs": [
        {
          "name": "account",
          "type": "address",
          "internalType": "address"
        }
      ],
      "outputs": [
        {
          "name": "",
          "type": "uint256",
          "internalType": "uint256"
        }
      ],
      "stateMutability": "view"
    },
    {
      "type": "function",
      "name": "slasher",
      "inputs": [],
      "outputs": [
        {
          "name": "",
          "type": "address",
          "internalType": "address"
        }
      ],
      "stateMutability": "view"
    },
    {
      "type": "function",
      "name": "staticDelegateCall",
      "inputs": [
        {
          "name": "target",
          "type": "address",
          "internalType": "address"
        },
        {
          "name": "data",
          "type": "bytes",
          "internalType": "bytes"
        }
      ],
      "outputs": [],
      "stateMutability": "nonpayable"
    },
    {
      "type": "function",
      "name": "supportsInterface",
      "inputs": [
        {
          "name": "interfaceId",
          "type": "bytes4",
          "internalType": "bytes4"
        }
      ],
      "outputs": [
        {
          "name": "",
          "type": "bool",
          "internalType": "bool"
        }
      ],
      "stateMutability": "view"
    },
    {
      "type": "function",
      "name": "totalStake",
      "inputs": [],
      "outputs": [
        {
          "name": "",
          "type": "uint256",
          "internalType": "uint256"
        }
      ],
      "stateMutability": "view"
    },
    {
      "type": "function",
      "name": "withdraw",
      "inputs": [
        {
          "name": "claimer",
          "type": "address",
          "internalType": "address"
        },
        {
          "name": "amount",
          "type": "uint256",
          "internalType": "uint256"
        }
      ],
      "outputs": [
        {
          "name": "burnedShares",
          "type": "uint256",
          "internalType": "uint256"
        },
        {
          "name": "mintedShares",
          "type": "uint256",
          "internalType": "uint256"
        }
      ],
      "stateMutability": "nonpayable"
    },
    {
      "type": "function",
      "name": "withdrawalShares",
      "inputs": [
        {
          "name": "epoch",
          "type": "uint256",
          "internalType": "uint256"
        }
      ],
      "outputs": [
        {
          "name": "amount",
          "type": "uint256",
          "internalType": "uint256"
        }
      ],
      "stateMutability": "view"
    },
    {
      "type": "function",
      "name": "withdrawalSharesOf",
      "inputs": [
        {
          "name": "epoch",
          "type": "uint256",
          "internalType": "uint256"
        },
        {
          "name": "account",
          "type": "address",
          "internalType": "address"
        }
      ],
      "outputs": [
        {
          "name": "amount",
          "type": "uint256",
          "internalType": "uint256"
        }
      ],
      "stateMutability": "view"
    },
    {
      "type": "function",
      "name": "withdrawals",
      "inputs": [
        {
          "name": "epoch",
          "type": "uint256",
          "internalType": "uint256"
        }
      ],
      "outputs": [
        {
          "name": "amount",
          "type": "uint256",
          "internalType": "uint256"
        }
      ],
      "stateMutability": "view"
    },
    {
      "type": "function",
      "name": "withdrawalsOf",
      "inputs": [
        {
          "name": "epoch",
          "type": "uint256",
          "internalType": "uint256"
        },
        {
          "name": "account",
          "type": "address",
          "internalType": "address"
        }
      ],
      "outputs": [
        {
          "name": "",
          "type": "uint256",
          "internalType": "uint256"
        }
      ],
      "stateMutability": "view"
    },
    {
      "type": "event",
      "name": "Claim",
      "inputs": [
        {
          "name": "claimer",
          "type": "address",
          "indexed": true,
          "internalType": "address"
        },
        {
          "name": "recipient",
          "type": "address",
          "indexed": true,
          "internalType": "address"
        },
        {
          "name": "epoch",
          "type": "uint256",
          "indexed": false,
          "internalType": "uint256"
        },
        {
          "name": "amount",
          "type": "uint256",
          "indexed": false,
          "internalType": "uint256"
        }
      ],
      "anonymous": false
    },
    {
      "type": "event",
      "name": "ClaimBatch",
      "inputs": [
        {
          "name": "claimer",
          "type": "address",
          "indexed": true,
          "internalType": "address"
        },
        {
          "name": "recipient",
          "type": "address",
          "indexed": true,
          "internalType": "address"
        },
        {
          "name": "epochs",
          "type": "uint256[]",
          "indexed": false,
          "internalType": "uint256[]"
        },
        {
          "name": "amount",
          "type": "uint256",
          "indexed": false,
          "internalType": "uint256"
        }
      ],
      "anonymous": false
    },
    {
      "type": "event",
      "name": "Deposit",
      "inputs": [
        {
          "name": "depositor",
          "type": "address",
          "indexed": true,
          "internalType": "address"
        },
        {
          "name": "onBehalfOf",
          "type": "address",
          "indexed": true,
          "internalType": "address"
        },
        {
          "name": "amount",
          "type": "uint256",
          "indexed": false,
          "internalType": "uint256"
        },
        {
          "name": "shares",
          "type": "uint256",
          "indexed": false,
          "internalType": "uint256"
        }
      ],
      "anonymous": false
    },
    {
      "type": "event",
      "name": "Initialized",
      "inputs": [
        {
          "name": "version",
          "type": "uint64",
          "indexed": false,
          "internalType": "uint64"
        }
      ],
      "anonymous": false
    },
    {
      "type": "event",
      "name": "OnSlash",
      "inputs": [
        {
          "name": "amount",
          "type": "uint256",
          "indexed": false,
          "internalType": "uint256"
        },
        {
          "name": "captureTimestamp",
          "type": "uint48",
          "indexed": false,
          "internalType": "uint48"
        },
        {
          "name": "slashedAmount",
          "type": "uint256",
          "indexed": false,
          "internalType": "uint256"
        }
      ],
      "anonymous": false
    },
    {
      "type": "event",
      "name": "RoleAdminChanged",
      "inputs": [
        {
          "name": "role",
          "type": "bytes32",
          "indexed": true,
          "internalType": "bytes32"
        },
        {
          "name": "previousAdminRole",
          "type": "bytes32",
          "indexed": true,
          "internalType": "bytes32"
        },
        {
          "name": "newAdminRole",
          "type": "bytes32",
          "indexed": true,
          "internalType": "bytes32"
        }
      ],
      "anonymous": false
    },
    {
      "type": "event",
      "name": "RoleGranted",
      "inputs": [
        {
          "name": "role",
          "type": "bytes32",
          "indexed": true,
          "internalType": "bytes32"
        },
        {
          "name": "account",
          "type": "address",
          "indexed": true,
          "internalType": "address"
        },
        {
          "name": "sender",
          "type": "address",
          "indexed": true,
          "internalType": "address"
        }
      ],
      "anonymous": false
    },
    {
      "type": "event",
      "name": "RoleRevoked",
      "inputs": [
        {
          "name": "role",
          "type": "bytes32",
          "indexed": true,
          "internalType": "bytes32"
        },
        {
          "name": "account",
          "type": "address",
          "indexed": true,
          "internalType": "address"
        },
        {
          "name": "sender",
          "type": "address",
          "indexed": true,
          "internalType": "address"
        }
      ],
      "anonymous": false
    },
    {
      "type": "event",
      "name": "SetDelegator",
      "inputs": [
        {
          "name": "delegator",
          "type": "address",
          "indexed": true,
          "internalType": "address"
        }
      ],
      "anonymous": false
    },
    {
      "type": "event",
      "name": "SetDepositLimit",
      "inputs": [
        {
          "name": "limit",
          "type": "uint256",
          "indexed": false,
          "internalType": "uint256"
        }
      ],
      "anonymous": false
    },
    {
      "type": "event",
      "name": "SetDepositWhitelist",
      "inputs": [
        {
          "name": "status",
          "type": "bool",
          "indexed": false,
          "internalType": "bool"
        }
      ],
      "anonymous": false
    },
    {
      "type": "event",
      "name": "SetDepositorWhitelistStatus",
      "inputs": [
        {
          "name": "account",
          "type": "address",
          "indexed": true,
          "internalType": "address"
        },
        {
          "name": "status",
          "type": "bool",
          "indexed": false,
          "internalType": "bool"
        }
      ],
      "anonymous": false
    },
    {
      "type": "event",
      "name": "SetEpochDuration",
      "inputs": [
        {
          "name": "epochDuration",
          "type": "uint48",
          "indexed": false,
          "internalType": "uint48"
        },
        {
          "name": "epochDurationSetEpochsDelay",
          "type": "uint256",
          "indexed": false,
          "internalType": "uint256"
        }
      ],
      "anonymous": false
    },
    {
      "type": "event",
      "name": "SetFlashFeeRate",
      "inputs": [
        {
          "name": "flashFeeRate",
          "type": "uint256",
          "indexed": false,
          "internalType": "uint256"
        }
      ],
      "anonymous": false
    },
    {
      "type": "event",
      "name": "SetFlashFeeReceiver",
      "inputs": [
        {
          "name": "flashFeeReceiver",
          "type": "address",
          "indexed": false,
          "internalType": "address"
        }
      ],
      "anonymous": false
    },
    {
      "type": "event",
      "name": "SetFlashloanEnabled",
      "inputs": [
        {
          "name": "status",
          "type": "bool",
          "indexed": false,
          "internalType": "bool"
        }
      ],
      "anonymous": false
    },
    {
      "type": "event",
      "name": "SetIsDepositLimit",
      "inputs": [
        {
          "name": "status",
          "type": "bool",
          "indexed": false,
          "internalType": "bool"
        }
      ],
      "anonymous": false
    },
    {
      "type": "event",
      "name": "SetSlasher",
      "inputs": [
        {
          "name": "slasher",
          "type": "address",
          "indexed": true,
          "internalType": "address"
        }
      ],
      "anonymous": false
    },
    {
      "type": "event",
      "name": "Withdraw",
      "inputs": [
        {
          "name": "withdrawer",
          "type": "address",
          "indexed": true,
          "internalType": "address"
        },
        {
          "name": "claimer",
          "type": "address",
          "indexed": true,
          "internalType": "address"
        },
        {
          "name": "amount",
          "type": "uint256",
          "indexed": false,
          "internalType": "uint256"
        },
        {
          "name": "burnedShares",
          "type": "uint256",
          "indexed": false,
          "internalType": "uint256"
        },
        {
          "name": "mintedShares",
          "type": "uint256",
          "indexed": false,
          "internalType": "uint256"
        }
      ],
      "anonymous": false
    },
    {
      "type": "error",
      "name": "AccessControlBadConfirmation",
      "inputs": []
    },
    {
      "type": "error",
      "name": "AccessControlUnauthorizedAccount",
      "inputs": [
        {
          "name": "account",
          "type": "address",
          "internalType": "address"
        },
        {
          "name": "neededRole",
          "type": "bytes32",
          "internalType": "bytes32"
        }
      ]
    },
    {
      "type": "error",
      "name": "AlreadyClaimed",
      "inputs": []
    },
    {
      "type": "error",
      "name": "AlreadySet",
      "inputs": []
    },
    {
      "type": "error",
      "name": "CheckpointUnorderedInsertion",
      "inputs": []
    },
    {
      "type": "error",
      "name": "DelegatorAlreadyInitialized",
      "inputs": []
    },
    {
      "type": "error",
      "name": "DepositLimitReached",
      "inputs": []
    },
    {
      "type": "error",
      "name": "InsufficientClaim",
      "inputs": []
    },
    {
      "type": "error",
      "name": "InsufficientDeposit",
      "inputs": []
    },
    {
      "type": "error",
      "name": "InsufficientExitWindow",
      "inputs": []
    },
    {
      "type": "error",
      "name": "InsufficientRedemption",
      "inputs": []
    },
    {
      "type": "error",
      "name": "InsufficientWithdrawal",
      "inputs": []
    },
    {
      "type": "error",
      "name": "InvalidAccount",
      "inputs": []
    },
    {
      "type": "error",
      "name": "InvalidCaptureEpoch",
      "inputs": []
    },
    {
      "type": "error",
      "name": "InvalidClaimer",
      "inputs": []
    },
    {
      "type": "error",
      "name": "InvalidCollateral",
      "inputs": []
    },
    {
      "type": "error",
      "name": "InvalidDelegator",
      "inputs": []
    },
    {
      "type": "error",
      "name": "InvalidEpoch",
      "inputs": []
    },
    {
      "type": "error",
      "name": "InvalidEpochDuration",
      "inputs": []
    },
    {
      "type": "error",
      "name": "InvalidEpochDurationSetEpochsDelay",
      "inputs": []
    },
    {
      "type": "error",
      "name": "InvalidFlashParams",
      "inputs": []
    },
    {
      "type": "error",
      "name": "InvalidInitialization",
      "inputs": []
    },
    {
      "type": "error",
      "name": "InvalidLengthEpochs",
      "inputs": []
    },
    {
      "type": "error",
      "name": "InvalidNewEpochDuration",
      "inputs": []
    },
    {
      "type": "error",
      "name": "InvalidOnBehalfOf",
      "inputs": []
    },
    {
      "type": "error",
      "name": "InvalidOrigin",
      "inputs": []
    },
    {
      "type": "error",
      "name": "InvalidReceiver",
      "inputs": []
    },
    {
      "type": "error",
      "name": "InvalidRecipient",
      "inputs": []
    },
    {
      "type": "error",
      "name": "InvalidReturnAmount",
      "inputs": []
    },
    {
      "type": "error",
      "name": "InvalidSlasher",
      "inputs": []
    },
    {
      "type": "error",
      "name": "InvalidTimestamp",
      "inputs": []
    },
    {
      "type": "error",
      "name": "MaxLoanExceeded",
      "inputs": []
    },
    {
      "type": "error",
      "name": "MissingRoles",
      "inputs": []
    },
    {
      "type": "error",
      "name": "NewEpochDurationNotReady",
      "inputs": []
    },
    {
      "type": "error",
      "name": "NoDepositWhitelist",
      "inputs": []
    },
    {
      "type": "error",
      "name": "NoPreviousEpoch",
      "inputs": []
    },
    {
      "type": "error",
      "name": "NotDelegator",
      "inputs": []
    },
    {
      "type": "error",
      "name": "NotInitializing",
      "inputs": []
    },
    {
      "type": "error",
      "name": "NotSlasher",
      "inputs": []
    },
    {
      "type": "error",
      "name": "NotWhitelistedDepositor",
      "inputs": []
    },
    {
      "type": "error",
      "name": "ReentrancyGuardReentrantCall",
      "inputs": []
    },
    {
      "type": "error",
      "name": "SafeCastOverflowedUintDowncast",
      "inputs": [
        {
          "name": "bits",
          "type": "uint8",
          "internalType": "uint8"
        },
        {
          "name": "value",
          "type": "uint256",
          "internalType": "uint256"
        }
      ]
    },
    {
      "type": "error",
      "name": "SafeERC20FailedOperation",
      "inputs": [
        {
          "name": "token",
          "type": "address",
          "internalType": "address"
        }
      ]
    },
    {
      "type": "error",
      "name": "SlasherAlreadyInitialized",
      "inputs": []
    },
    {
      "type": "error",
      "name": "TooLowFlashLoanValue",
      "inputs": []
    },
    {
      "type": "error",
      "name": "TooMuchRedeem",
      "inputs": []
    },
    {
      "type": "error",
      "name": "TooMuchWithdraw",
      "inputs": []
    },
    {
      "type": "error",
      "name": "UnsupportedToken",
      "inputs": []
    }
  ],
  "bytecode": {
    "object": "0x60c034608157601f614dc238819003918201601f19168301916001600160401b038311848410176085578084926040948552833981010312608157604b60206045836099565b92016099565b9060805260a052604051614d1590816100ad8239608051818181611494015261195a015260a051818181611e0901526123880152f35b5f80fd5b634e487b7160e01b5f52604160045260245ffd5b51906001600160a01b038216820360815756fe60806040526004361015610011575f80fd5b5f3560e01c806301ffc9a7146105945780631415519b1461058f5780631b66c9e11461058a5780631e9a695014610585578063248a9ca3146105805780632749f9c41461057b57806327810b6e14610576578063281f5752146105715780632d73c69c1461056c5780632f2ff15d146105675780632fa27fae1461056257806331d9736c1461055d57806336568abe14610558578063392e53cd146105535780634105a7dd1461054e578063463616711461054957806347e7ef241461054457806348d3b7751461053f5780634ff0876a1461053a57806350861adc1461053557806350f220681461053057806352741a401461052b5780635346e34f1461052657806359f769a9146105215780635a36aa741461051c5780635cc07076146105175780635cffe9de14610512578063613255ab1461050d57806361819dd81461050857806361a8c8c414610503578063653b04cd146104fe57806365d61c6c146104f95780636da3e06d146104f45780636e0f2455146104ef5780636ec1e3f8146104ea5780637278e31c146104e557806373790ab3146104e057806376671808146104db578063794b15b7146104d65780637953b33b146104d15780637c04c80a146104cc578063810da75d146104c757806383cd9cc3146104c257806383f46c2c146104bd578063859b9344146104b857806387df0788146104b35780638b0e9f3f146104ae57806391d14854146104a957806398ccba4a146104a45780639b4bae3e1461049f5780639d66201b1461049a5780639f86fd85146104955780639f9962dd14610490578063a1b122021461048b578063a217fddf14610486578063a21a1df914610481578063a28614661461047c578063a3b5417214610477578063a5d0322314610472578063a66b3a731461046d578063a8b24f9a14610468578063aa9354a314610463578063aabc24961461045e578063aad3ec9614610459578063afba70ad14610454578063b13442711461044f578063bba6ff4a1461044a578063bc46f72214610445578063bd49c35f14610440578063bdc8144b1461043b578063bfefcd7b14610436578063c1bc6f5114610431578063c31e8dd71461042c578063c4db46fc14610427578063c642b05014610422578063cc52aee71461041d578063ce9b793014610418578063d547741f14610413578063d626811b1461040e578063d8dfeb4514610409578063d9d98ce414610404578063db388715146103ff578063e945da7f146103fa578063ecc98f05146103f5578063ecf70858146103f0578063efb559d6146103eb578063f3fef3a3146103e65763f5e7ee0f146103e1575f80fd5b612bde565b612b38565b6129ed565b6129d0565b6129b2565b612995565b61295b565b612930565b612905565b612845565b6127f9565b6127d1565b6127a9565b61278f565b612772565b612704565b6126dc565b6126c2565b612602565b6125e8565b6125ae565b612591565b612569565b61253f565b61247e565b6122d5565b6122b7565b61228f565b612255565b61220f565b6121c2565b6120dd565b6120a3565b612089565b612065565b61203d565b611f70565b611f36565b611f19565b611efc565b611e9e565b611e38565b611df4565b611d68565b611aa0565b6118f5565b6118dc565b611876565b611858565b611818565b6117fa565b6117c8565b61150d565b6114e8565b6114c3565b61147f565b61145a565b611420565b6113fa565b6113c0565b611399565b61112f565b6110d8565b6110b0565b611089565b611002565b610f01565b610ee8565b610e82565b610e68565b610e47565b610b97565b610b7d565b610ae2565b610a9d565b610a52565b610a18565b6109f8565b6109aa565b61093a565b6107cc565b6107a4565b610787565b61074e565b610673565b610628565b6105ee565b346105ea5760203660031901126105ea5760043563ffffffff60e01b81168091036105ea57602090637965db0b60e01b81149081156105d9575b506040519015158152f35b6301ffc9a760e01b1490505f6105ce565b5f80fd5b346105ea575f3660031901126105ea5760206040517fc6aaadd7371d5e8f9ed6849dd66a66573a3ba37167d03f4352c9ba5693678fac8152f35b346105ea575f3660031901126105ea5760206040517f9c56d972d63cbb4195b3c1484691dfc220fa96a4c47e7b6613bd82a022029e068152f35b6001600160a01b038116036105ea57565b346105ea5760403660031901126105ea5760043561069081610662565b6024359061069c61328a565b6001600160a01b0381161561073d57335f908152600e602052604090206106c7906140cc565b6140cc565b821161072b576106e76106d8613fe4565b6106e0614058565b908461411f565b91821561071657826106f8926132cc565b906107016132b9565b604080519182526020820192909252f35b0390f35b60405160016245ddc760e11b03198152600490fd5b604051632418411f60e11b8152600490fd5b6040516208978560e71b8152600490fd5b346105ea5760203660031901126105ea576004355f525f80516020614ca08339815191526020526020600160405f200154604051908152f35b346105ea575f3660031901126105ea576020601454604051908152f35b346105ea575f3660031901126105ea576001546040516001600160a01b039091168152602090f35b346105ea575f3660031901126105ea576107ed6107e842613fb2565b612e70565b801561081e575f198101908111610819576108096020916130b8565b65ffffffffffff60405191168152f35b612c08565b604051639fa56a5b60e01b8152600490fd5b6024359065ffffffffffff821682036105ea57565b6004359065ffffffffffff821682036105ea57565b634e487b7160e01b5f52604160045260245ffd5b606081019081106001600160401b0382111761088957604052565b61085a565b604081019081106001600160401b0382111761088957604052565b90601f801991011681019081106001600160401b0382111761088957604052565b604051906108d78261088e565b565b6001600160401b03811161088957601f01601f191660200190565b81601f820112156105ea5780359061090b826108d9565b9261091960405194856108a9565b828452602083830101116105ea57815f926020809301838601378301015290565b346105ea5760603660031901126105ea5760043561095781610662565b61095f610830565b90604435906001600160401b0382116105ea576020926109866109a29336906004016108f4565b6001600160a01b039092165f908152600e855260409020613606565b604051908152f35b346105ea5760403660031901126105ea576109f66024356004356109cd82610662565b805f525f80516020614ca08339815191526020526109f1600160405f20015461388b565b6138b7565b005b346105ea575f3660031901126105ea57602060015460d01c604051908152f35b346105ea575f3660031901126105ea5760206040517f5295aaaa27fdd659293eafacbfafbc634c1b96298957e87de5f59308cdbfdad18152f35b346105ea5760403660031901126105ea57602435610a6f81610662565b336001600160a01b03821603610a8b576109f690600435613952565b60405163334bd91960e11b8152600490fd5b346105ea575f3660031901126105ea5760ff60025460a01c1680610ac9575b6020906040519015158152f35b5060035460a01c60ff16610abc565b801515036105ea57565b346105ea5760203660031901126105ea57600435610aff81610ad8565b610b0761328a565b610b0f6136d2565b5f54901515908160ff8216151514610b6b5760ff191660ff8216175f556040519081527f3e12b7b36c75ac9609a3f58609b331210428e1a85909132638955ba0301eec3390602090a160015f80516020614cc083398151915255005b60405163a741a04560e01b8152600490fd5b346105ea575f3660031901126105ea576020610809612c58565b346105ea576040806003193601126105ea576004803591610bb783610662565b610bbf61328a565b6001600160a01b0391838316908115610e39575f5460ff811680610e20575b610e115783516370a0823160e01b808252308483019081529096602093909160109190911c82169084908490819083010381845afa928315610de9575f93610dee575b50610c339060243590309033906139e4565b5f5486519788523085890190815290979184918391908290819060200103918b60101c165afa908115610de957610c72935f92610dbc575b5050612c2a565b938415610dad5760081c60ff1680610d98575b610d8a57509061071291610d36610c9a613fe4565b95610ce3610ca6614058565b610cce610cb48a838b61411f565b99610cc88a610cc242613fb2565b92612cc0565b90613b38565b5050610cdd89610cc242613fb2565b90613c18565b50506001600160a01b0381165f908152600e6020526040902090610d3088610d2b6106c2610d1042613fb2565b6001600160a01b039095165f908152600e6020526040902090565b612cc0565b91613cf4565b505081518481526020810186905233907fdcbc1c05240f31ff3ad067ef1ee35ce4997762752e3a095284754544f4c709d790604090a3610d746132b9565b5191825260208201929092529081906040820190565b8251632484557960e01b8152fd5b50610da584610d2b613fe4565b815410610c85565b50825163070f6eed60e11b8152fd5b610ddb9250803d10610de2575b610dd381836108a9565b810190612c98565b5f80610c6b565b503d610dc9565b612ca7565b610c33919350610e0a90853d8711610de257610dd381836108a9565b9290610c21565b5082516304f63b8560e01b8152fd5b50335f9081526005602052604090205460ff1615610bde565b8251630d534ce360e11b8152fd5b346105ea575f3660031901126105ea57602060ff5f54166040519015158152f35b346105ea575f3660031901126105ea576020610809612ccd565b346105ea575f3660031901126105ea57602060ff60025460a01c166040519015158152f35b9060406003198301126105ea5760043565ffffffffffff811681036105ea5791602435906001600160401b0382116105ea57610ee5916004016108f4565b90565b346105ea5760206109a2610efb36610ea7565b9061347b565b346105ea5760203660031901126105ea57600435610f1e81610662565b610f2661328a565b335f9081527f9aeaa4f1a9be826e331dea6728ca206744e0a34dccbc1d3da4a68acb8abf036360205260409020547f5295aaaa27fdd659293eafacbfafbc634c1b96298957e87de5f59308cdbfdad19060ff1615610fe457506016546001600160a01b039182169181168214610b6b576001600160a01b03191681176016556040519081527f08aacfdb137d688b12f67ef81735dede1ae18b0664f6b347ee9ef00ae94ff91990602090a160015f80516020614cc083398151915255005b6044906040519063e2517d3f60e01b82523360048301526024820152fd5b346105ea5760203660031901126105ea5760043561101f81610ad8565b61102761328a565b61102f61372f565b5f54901515908160ff8260081c16151514610b6b5761ff001916600882901b61ff0016175f556040519081527ffa7a25a0b611d4ba3c0ea990e90dc23d484a5dd7a1be4733fef2946ba74530c690602090a16109f66132b9565b346105ea5760203660031901126105ea5760206109a26004356110ab81610662565b612d13565b346105ea575f3660031901126105ea57602065ffffffffffff60135460301c16604051908152f35b346105ea5760203660031901126105ea576004355f526006602052602060405f2054604051908152f35b9181601f840112156105ea578235916001600160401b0383116105ea57602083818601950101116105ea57565b346105ea5760803660031901126105ea57600480359061114e82610662565b60243561115a81610662565b604435916064356001600160401b0381116105ea5761117c9036908301611102565b61118794919461328a565b81156113885761119684612dac565b82116113775761120a906111aa83866131d0565b5f549095906111cc9060101c6001600160a01b03165b6001600160a01b031690565b604080516370a0823160e01b80825230898301908152929b939a6001600160a01b03808d1699602099939792969195909491938a9183918291840190565b03818d5afa978815610de9578c968f8f95978c988f955f9d611342575b509161123e8961125995935f98979516809a613db2565b516323e30c8b60e01b8152998a988997889633908801612d62565b03925af18015610de9577f439148f0bbc682ca079e46d6e2c2f0c1e3b820f1a291b069d8882abf8cf18dd9915f91611325575b500361131557875190815230858201908152909383918591908290819060200103915afa8015610de95785936112c9935f92610dbc575050612c2a565b036113075750806112e8575b826112de6132b9565b5160018152602090f35b60165461130092906001600160a01b03165b90613db2565b5f806112d5565b8351637f28d71160e01b8152fd5b8751631e4ec46b60e01b81528590fd5b61133c9150853d8711610de257610dd381836108a9565b5f61128c565b5f969593919d5089611259959361136861123e938e803d10610de257610dd381836108a9565b9f939597985093955050611227565b60405163347177ad60e21b81528390fd5b6040516391ba94bf60e01b81528390fd5b346105ea5760203660031901126105ea5760206109a26004356113bb81610662565b612dac565b346105ea575f3660031901126105ea5760206040517f591f6a0113ada8aff67efadec8ae2fa585cb4ebf4e1f8fc1205ffbeff98d00ec8152f35b346105ea575f3660031901126105ea57602061080961141b6107e842613fb2565b6130b8565b346105ea575f3660031901126105ea5760206040517f439148f0bbc682ca079e46d6e2c2f0c1e3b820f1a291b069d8882abf8cf18dd98152f35b346105ea575f3660031901126105ea57602060ff60165460a01c166040519015158152f35b346105ea575f3660031901126105ea576040517f00000000000000000000000000000000000000000000000000000000000000006001600160a01b03168152602090f35b346105ea575f3660031901126105ea57602065ffffffffffff60135416604051908152f35b346105ea575f3660031901126105ea57602060ff60035460a01c166040519015158152f35b346105ea5760403660031901126105ea57600435611529610830565b61153161328a565b600354611546906001600160a01b03166111c0565b33036117b6576115586107e842613fb2565b9061156281612e70565b90821515806117a5575b801561179c575b61178a57610712937ff9d090c096f71cd1659861a9ce5b6f384bceb4e2fa4e4a19edf6489a9b8d56c7926115a5613fe4565b946115c06115b282612cb2565b5f52600660205260405f2090565b54908281036116a457506115d48187612cc0565b83811881851002811896878061165d575b50505050505b8361162a575b6040805191825265ffffffffffff929092166020820152908101839052606090a161161a6132b9565b6040519081529081906020820190565b5f546116589085906116479060101c6001600160a01b03166111c0565b6001546001600160a01b03166112fa565b6115f1565b61169993610c6b83610cc861168361167c6115b2986116939888613e89565b8096612c2a565b9461168d42613fb2565b92612c2a565b92612cb2565b555f808080876115e5565b91506116b8825f52600660205260405f2090565b54906116c881610d2b848a612cc0565b9084821882861002821897886116e3575b50505050506115eb565b611758938361170b936117188c611713611701611749998884613e89565b9788958584613e89565b948592612c2a565b612c2a565b93848410611763575b610c6b90610cc861173795969761168d42613fb2565b6117436115b287612cb2565b55612c2a565b915f52600660205260405f2090565b555f808080806116d9565b9161177f610c6b91611779866117379798612c2a565b90612cc0565b859450929050611721565b604051635e18d2a560e01b8152600490fd5b50828211611573565b506117af83612c1c565b821061156c565b60405163dabc4ad960e01b8152600490fd5b346105ea575f3660031901126105ea576117e46107e842613fb2565b60018101809111610819576108096020916130b8565b346105ea575f3660031901126105ea5760206109a26107e842613fb2565b346105ea5760203660031901126105ea5760043561183581610662565b60018060a01b03165f526005602052602060ff60405f2054166040519015158152f35b346105ea5760203660031901126105ea5760206109a26107e8610845565b346105ea5760403660031901126105ea5760043561189381610662565b6024356001600160401b038082116105ea57366023830112156105ea5781600401359081116105ea573660248260051b840101116105ea5761071292602461161a930190612f5b565b346105ea5760206109a26118ef36610ea7565b90613551565b346105ea576020806003193601126105ea57600480359061191582610662565b61191d61328a565b60025460a01c60ff16611a91576040516302910f8b60e31b81526001600160a01b03838116838301908152909491908290829081906020010381887f0000000000000000000000000000000000000000000000000000000000000000165afa908115610de9575f91611a64575b5015611a545760405163fbfa77cf60e01b8152838516949082818581895afa928315610de9575f93611a25575b505030911603611a165750600280546001600160a01b03929092166001600160a81b031990921691909117600160a01b1790557fdb2160616f776a37b24808115554e79439bf26cccbbd4438190cc6d28e80ecd15f80a26109f66132b9565b60405163b9f0f17160e01b8152fd5b611a45929350803d10611a4d575b611a3d81836108a9565b810190613090565b905f806119b7565b503d611a33565b506040516324e5af8d60e21b8152fd5b611a849150823d8411611a8a575b611a7c81836108a9565b81019061307b565b5f61198a565b503d611a72565b604051631380833b60e01b8152fd5b346105ea5760403660031901126105ea57611ab9610845565b602435611ac461328a565b611acc613786565b60038110611d565765ffffffffffff9182611af260135465ffffffffffff9060601c1690565b168015159081611d40575b50611c42575b60015460d01c838083169116818111611c30571480611c25575b610b6b57611bfa611bd1611bcc7f1b3efab1b836932ce515e4748ca76335809d1d202c92ee86d594e43ce0039e8395611b6c611b67611b5e6107e842613fb2565b600f5490612cc0565b601455565b6013805465ffffffffffff60901b1916609087901b65ffffffffffff60901b16179055611b9e61141b6107e842613fb2565b90611bc5600f54611bbf611bb460015460d01c90565b65ffffffffffff1690565b906130a5565b9116612cc0565b613fb2565b6013805465ffffffffffff60601b191660609290921b65ffffffffffff60601b16919091179055565b611c0382601055565b6040805165ffffffffffff9290921682526020820192909252a16109f66132b9565b5081600f5414611b1d565b6040516359dcfd5560e11b8152600490fd5b611c4d601154601255565b611c87611c5c60015460d01c90565b6bffffffffffff0000000000006013549160301b16906bffffffffffff000000000000191617601355565b600154611cb39060a01c65ffffffffffff1665ffffffffffff1665ffffffffffff196013541617601355565b611cbe601454601155565b601354611cf59060901c65ffffffffffff16600180546001600160d01b031660d09290921b6001600160d01b031916919091179055565b601354611d309060601c65ffffffffffff166001805465ffffffffffff60a01b191660a09290921b65ffffffffffff60a01b16919091179055565b611d3b601054600f55565b611b03565b9050611d4e611bb442613fb2565b10155f611afd565b6040516317a509b960e31b8152600490fd5b346105ea5760203660031901126105ea57600435611d8581610ad8565b611d8d61328a565b611d956137dd565b601654901515908160ff8260a01c16151514610b6b5760ff60a01b191660a082901b60ff60a01b16176016556040519081527e4ea26b9681ba216ba307c9c0ee4edcef296c9af6506b16ad458a51431745d990602090a16109f66132b9565b346105ea575f3660031901126105ea576040517f00000000000000000000000000000000000000000000000000000000000000006001600160a01b03168152602090f35b346105ea575f3660031901126105ea57611e546107e842613fb2565b611e5c613fe4565b90805f52600660205260405f205482018092116108195760018101809111610819575f52600660205260405f2054810180911161081957604051908152602090f35b346105ea5760403660031901126105ea57602060ff611ef0602435611ec281610662565b6004355f525f80516020614ca0833981519152845260405f209060018060a01b03165f5260205260405f2090565b54166040519015158152f35b346105ea575f3660031901126105ea576020601254604051908152f35b346105ea575f3660031901126105ea576020601154604051908152f35b346105ea5760203660031901126105ea57600435611f5381610662565b60018060a01b03165f52600e60205260206109a260405f206140cc565b346105ea576040806003193601126105ea57600435611f8e81610662565b6024356001600160401b0381116105ea575f8061202c93611fb56080943690600401611102565b908188519283928337810184815203915af43d156120345760203d611fd9816108d9565b90611fe6875192836108a9565b81523d5f8383013e5b8551958693151583850152808401528051918291826060860152018484015e5f838284010152601f801991011681010360608101845201826108a9565b805190602001fd5b60206060611fef565b346105ea575f3660031901126105ea57602065ffffffffffff60015460a01c16604051908152f35b346105ea575f3660031901126105ea57602060ff5f5460081c166040519015158152f35b346105ea575f3660031901126105ea5760206040515f8152f35b346105ea575f3660031901126105ea5760206040517f4a634bc14d77baf979756509ef4298c6f6318af357828612545267ee2eb792338152f35b346105ea5760403660031901126105ea576004356120fa81610662565b60243561210681610ad8565b61210e61328a565b612116613834565b6001600160a01b0382169182156121b0575f8381526005602052604090205460ff16151582151514610b6b576001600160a01b03165f9081526005602052604090207ff991b1ecfb5115cbb36a2b2e2240c058406d2acc2fcc6e9e2dc99d845ff70a62916121a591612193908260ff801983541691151516179055565b60405190151581529081906020820190565b0390a26109f66132b9565b604051630da30f6560e31b8152600490fd5b346105ea5760403660031901126105ea5760206122066024356121e481610662565b6004355f526008835260405f209060018060a01b03165f5260205260405f2090565b54604051908152f35b346105ea5760403660031901126105ea57602060ff611ef060243561223381610662565b6004355f526009845260405f209060018060a01b03165f5260205260405f2090565b346105ea575f3660031901126105ea5760206040517fc9feed28b4b1a1d11c6791da7bb7f6b8d33e831a4992a9383dead1ec2c82c35a8152f35b346105ea575f3660031901126105ea576016546040516001600160a01b039091168152602090f35b346105ea5760203660031901126105ea5760206108096004356130b8565b346105ea576020806003193601126105ea5760048035906122f582610662565b6122fd61328a565b60035460a01c60ff1661246f576001600160a01b0382811693908461235d575b6003805460ff60a01b1916600160a01b179055847fe7e4c932e03abddfe20f83af42c33627e816115c7ec2b168441f65dc14bfc3ba5f80a26109f66132b9565b6040516302910f8b60e31b81526001600160a01b0385168482019081528390829081906020010381857f0000000000000000000000000000000000000000000000000000000000000000165afa908115610de9575f91612452575b50156124415760405163fbfa77cf60e01b815282818581895afa928315610de9575f93612422575b5050309116036124135750600380546001600160a01b0319166001600160a01b039092169190911790555f80808061231d565b604051633f3e089160e21b8152fd5b612439929350803d10611a4d57611a3d81836108a9565b905f806123e0565b60405163dabc4ad960e01b81528390fd5b6124699150833d8511611a8a57611a7c81836108a9565b5f6123b8565b60405163703fe2e560e01b8152fd5b346105ea5760403660031901126105ea5760043561249b81610662565b602435906124a761328a565b6001600160a01b039181831690811561252d576124d8610712946124ca83613f16565b9485915f5460101c16613db2565b604080519182526020820184905233917f865ca08d59f5cb456e85cd2f7ef63664ea4f73327414e9d8152c4158b0e946459190a360015f80516020614cc0833981519152556040519081529081906020820190565b604051634e46966960e11b8152600490fd5b346105ea5760203660031901126105ea576004355f526007602052602060405f2054604051908152f35b346105ea575f3660031901126105ea576003546040516001600160a01b039091168152602090f35b346105ea575f3660031901126105ea576020600f54604051908152f35b346105ea575f3660031901126105ea5760206040517fc9078c78bcaac2be1c77c160c539a489be2b72939771b1a6302fed3e2150c7458152f35b346105ea575f3660031901126105ea5760206109a2613fe4565b346105ea5760203660031901126105ea5760043561261e61328a565b335f9081527f2d4ccbfe9f7672a6f2537c1e5bce6adacb73706879154bbab6ce096012d6721660205260409020547f4a634bc14d77baf979756509ef4298c6f6318af357828612545267ee2eb792339060ff1615610fe457508060045414610b6b576020817f854df3eb95564502c8bc871ebdd15310ee26270f955f6c6bd8cea68e75045bc092600455604051908152a160015f80516020614cc083398151915255005b346105ea575f3660031901126105ea5760206109a2614058565b346105ea575f3660031901126105ea57602065ffffffffffff60135460901c16604051908152f35b346105ea5760203660031901126105ea5760043561272181610662565b61272d6107e842613fb2565b61273682612d13565b91612741818361322c565b830180931161081957600182018092116108195761275e9161322c565b810180911161081957602090604051908152f35b346105ea575f3660031901126105ea576020601054604051908152f35b346105ea575f3660031901126105ea5760206109a2613190565b346105ea575f3660031901126105ea57602065ffffffffffff60135460601c16604051908152f35b346105ea575f3660031901126105ea576002546040516001600160a01b039091168152602090f35b346105ea5760403660031901126105ea576109f660243560043561281c82610662565b805f525f80516020614ca0833981519152602052612840600160405f20015461388b565b613952565b346105ea5760203660031901126105ea5760043561286161328a565b335f9081527f82a1dc868a49801aa31c5dd393dc0b9005735300cdcd4bbc1af68215effcd6f860205260409020547fc9078c78bcaac2be1c77c160c539a489be2b72939771b1a6302fed3e2150c7459060ff1615610fe457508060155414610b6b576020817f85370e46fb038a73f13e1c280ffc745e71ff72b4ea57b15c6eca3749d73c0cb892601555604051908152a160015f80516020614cc083398151915255005b346105ea575f3660031901126105ea575f5460405160109190911c6001600160a01b03168152602090f35b346105ea5760403660031901126105ea5760206109a260043561295281610662565b602435906131d0565b346105ea575f3660031901126105ea5760206040517fbae4ee3de6c709ff9a002e774c5b78cb381560b219213c88ae0f1e207c03c0238152f35b346105ea575f3660031901126105ea576020601554604051908152f35b346105ea575f3660031901126105ea576020604051633b9aca008152f35b346105ea575f3660031901126105ea576020600454604051908152f35b346105ea5760603660031901126105ea57600435612a0a81610662565b612a12610830565b6001600160401b0391906044358381116105ea57612a34903690600401611102565b90926040938451612a448161086e565b60608152606060208201526060868201529280612aa3575b61071286612a948787612a8e612a758984845191612c37565b9285612a85602085015183613551565b9301519061347b565b9161411f565b90519081529081906020820190565b81019392506020818503126105ea578035908682116105ea5701926060848203126105ea57845195612ad48761086e565b84358181116105ea5782612ae99187016108f4565b875260208501358181116105ea5782612b039187016108f4565b6020880152858501359081116105ea5761071296612b2c612a8e93612a7593612a9498016108f4565b87820152939450612a5c565b346105ea5760403660031901126105ea57600435612b5581610662565b602435612b6061328a565b6001600160a01b0382161561073d578015612bcc57612b8f612b80614058565b612b88613fe4565b9083614562565b335f908152600e60205260409020909290612ba9906140cc565b8311612bba576106f89183916132cc565b6040516321727a3760e11b8152600490fd5b604051636c6c627d60e11b8152600490fd5b346105ea5760403660031901126105ea5760206109a2602435612c0081610662565b60043561322c565b634e487b7160e01b5f52601160045260245ffd5b5f1981019190821161081957565b9190820391821161081957565b6001600160a01b03165f908152600e60205260409020610ee5929190613606565b65ffffffffffff8060135460601c169081158015612c85575b612c79575090565b905060015460a01c1690565b508181612c9142613fb2565b1610612c71565b908160209103126105ea575190565b6040513d5f823e3d90fd5b906001820180921161081957565b9190820180921161081957565b60135465ffffffffffff90818160601c168015908115612cff575b50612cf45760901c1690565b505060015460d01c90565b905082612d0b42613fb2565b16105f612ce8565b6001600160a01b03165f908152600e60205260409020612d32906140cc565b612d3a613fe4565b612d42614058565b9060018101809111610819576001820180921161081957610ee592613e89565b94919286949160c0979460018060a01b0380921688521660208701526040860152606085015260a060808501528160a0850152848401375f828201840152601f01601f1916010190565b601654612dbd9060a01c60ff161590565b612e23575f5460101c6001600160a01b0390811691168103612e23576040516370a0823160e01b815230600482015290602090829060249082905afa908115610de9575f91612e0a575090565b610ee5915060203d602011610de257610dd381836108a9565b505f90565b65ffffffffffff918216908216039190821161081957565b634e487b7160e01b5f52601260045260245ffd5b9065ffffffffffff809116918215612e6b57160490565b612e40565b60015465ffffffffffff808316929160a081901c821680851015612ee85750506013549281841690818015918215612ede575b5050612ecc57610ee59361177992612ec1611bb49360125496612e28565b9160301c1690612e54565b60405163b7d0949760e01b8152600490fd5b109050815f612ea3565b909160135490808260601c1695868015918215612f51575b505015612f2c575050610ee5935061177991612f22611bb49260115495612e28565b9060d01c90612e54565b6117799350611bb49250612f46610ee59660145496612e28565b9160901c1690612e54565b109050865f612f00565b90612f6461328a565b5f926001600160a01b03831692831561252d57811561300e575f5b828110612fec57505f547f326b6aff1cd2fb1c8234de4f9dcfb9047c5c36eb9ef2eb34af5121e969a75d279286929091612fcf918491612fca9060101c6001600160a01b03166111c0565b613db2565b612fe0604051928392339684613049565b0390a3906108d76132b9565b94613007600191611779613001898789613034565b35613f16565b9501612f7f565b60405163edf3b93360e01b8152600490fd5b634e487b7160e01b5f52603260045260245ffd5b91908110156130445760051b0190565b613020565b604080825281018390529392916001600160fb1b0381116105ea5760209160609160051b809183880137850101930152565b908160209103126105ea5751610ee581610ad8565b908160209103126105ea5751610ee581610662565b8181029291811591840414171561081957565b60125480821061317e57601154808310156130f95750611bcc90610ee592611bc56130ed6013549365ffffffffffff93612c2a565b828460301c16906130a5565b905060145480158015613175575b1561313f5750610ee59165ffffffffffff61313561312b611bcc9460015494612c2a565b8360d01c906130a5565b9160a01c16612cc0565b611bcc9150610ee59261316b61315f6013549365ffffffffffff93612c2a565b828460901c16906130a5565b9160601c16612cc0565b50808310613107565b60405163d5b25b6360e01b8152600490fd5b65ffffffffffff8060135460601c1680159182156131bb575b50506131b55760105490565b600f5490565b9091506131c742613fb2565b16105f806131a9565b5f546001600160a01b039160109190911c82169082160361321a57601654166131f857505f90565b633b9aca0060155461320a8184613e0b565b9209151581018091116108195790565b60405163350b944160e11b8152600490fd5b9061325290825f52600860205260405f209060018060a01b03165f5260205260405f2090565b54905f52600660205260405f2054600760205260405f20549060018101809111610819576001820180921161081957610ee592613e89565b5f80516020614cc083398151915260028154146132a75760029055565b604051633ee5aeb560e01b8152600490fd5b60015f80516020614cc083398151915255565b335f908152600e60205260409020939291906132e742613fb2565b335f908152600e602052604090206132fe906140cc565b91848303928311610819576133397febff2602b3f468259e1e99f613fed6691f3a6526effe6ef3e768ba7ae7a36c4f9385936133c899613cf4565b505061335361334742613fb2565b610cdd87611713614058565b505061336d61336142613fb2565b610cc884611713613fe4565b50506134168161340161338a6133856107e842613fb2565b612cb2565b6133e061339f825f52600660205260405f2090565b546133b2835f52600760205260405f2090565b546133be82828b61411f565b9d8e998a93612cc0565b6133da855f52600660205260405f2090565b55612cc0565b6133f2825f52600760205260405f2090565b555f52600860205260405f2090565b9060018060a01b03165f5260205260405f2090565b613421838254612cc0565b9055604080519485526020850195909552938301526001600160a01b03909216913391606090a3565b908160209103126105ea575163ffffffff811681036105ea5790565b90600163ffffffff8093160191821161081957565b9080511561354757806020806134969351830101910161344a565b61349f81614390565b906134b0825165ffffffffffff1690565b9065ffffffffffff808516921682811461353b57821191826134e6575b50506134dd5750610ee590614140565b60209150015190565b9091506134f4600a54612c1c565b63ffffffff83161491821561350d575b50505f806134cd565b613533919250613527613522611bb492613466565b614390565b5165ffffffffffff1690565b115f80613504565b50505060209150015190565b50610ee590614140565b908051156135fc578060208061356c9351830101910161344a565b6135758161441a565b90613586825165ffffffffffff1690565b9065ffffffffffff808516921682811461353b57821191826135b3575b50506134dd5750610ee590614207565b9091506135c1600c54612c1c565b63ffffffff8316149182156135da575b50505f806135a3565b6135f49192506135276135ef611bb492613466565b61441a565b115f806135d1565b50610ee590614207565b918051156136c857806020806136219351830101910161344a565b9161362c838261449a565b9261363d845165ffffffffffff1690565b9065ffffffffffff80851692168281146136bc5782119182613673575b505061366a57610ee592506142c7565b50506020015190565b9091506136808354612c1c565b63ffffffff831614918215613699575b50505f8061365a565b6136b49192506135276136ae611bb492613466565b8561449a565b115f80613690565b50505050506020015190565b50610ee5916142c7565b335f9081527f03b26b53c87faa1058f30bb5d2fee64f717719a0d9b7e4f4df027aa5e9b6ed69602052604090207fbae4ee3de6c709ff9a002e774c5b78cb381560b219213c88ae0f1e207c03c0239060ff905b541615610fe45750565b335f9081527fe41986b390c4ce6791b87f7423b5fab7a81a0e6d89660b6264f697d008b2243a602052604090207fc6aaadd7371d5e8f9ed6849dd66a66573a3ba37167d03f4352c9ba5693678fac9060ff90613725565b335f9081527f99e47f2907af87dbb5c62e22bd8ea822f5011dfd1e243469ce26ebebf3ab93e3602052604090207f591f6a0113ada8aff67efadec8ae2fa585cb4ebf4e1f8fc1205ffbeff98d00ec9060ff90613725565b335f9081527f665296150f4083bfe5a58682f99690b24ea27a3f56243679fa9797c6a16217aa602052604090207fc9feed28b4b1a1d11c6791da7bb7f6b8d33e831a4992a9383dead1ec2c82c35a9060ff90613725565b335f9081527f0287ab4cb376ea253d7b2ce0c2cbf458f7deae9458470d74afdfbbee484e9540602052604090207f9c56d972d63cbb4195b3c1484691dfc220fa96a4c47e7b6613bd82a022029e069060ff90613725565b5f8181525f80516020614ca083398151915260209081526040808320338452909152902060ff90613725565b5f8181525f80516020614ca0833981519152602081815260408084206001600160a01b03871685529091529091205460ff1661394b575f828152602091825260408082206001600160a01b038616835290925220805460ff1916600117905533916001600160a01b0316907f2f8788117e7eff1d82e926ec794901d17c78024a50270940304540a733656f0d5f80a4600190565b5050505f90565b5f8181525f80516020614ca0833981519152602081815260408084206001600160a01b03871685529091529091205460ff161561394b575f828152602091825260408082206001600160a01b038616835290925220805460ff1916905533916001600160a01b0316907ff6391f5c32d9c69d2a47ea670b442974b53935d1edc7fd64eb21e047a839171b5f80a4600190565b6040516323b872dd60e01b60208201526001600160a01b03928316602482015292909116604483015260648083019390935291815260a08101918183106001600160401b03841117610889576108d792604052614508565b600b5481101561304457600b5f525f80516020614c8083398151915201905f90565b600d5481101561304457600d5f525f80516020614c6083398151915201905f90565b8054821015613044575f5260205f2001905f90565b600d54600160401b811015610889576001810180600d5581101561304457600d5f525f80516020614c608339815191520155565b600b54600160401b811015610889576001810180600b5581101561304457600b5f525f80516020614c808339815191520155565b90815491600160401b8310156108895782613b209160016108d795018155613a80565b90919082549060031b91821b915f19901b1916179055565b919091600d9081548015613be3575b50613b5061459b565b50929091815492613b5f613fe4565b9481613bce575b5015613bab57505f1982018281116108195781541115613044575f527fd7b6990105719101dabeb77144f2a3385c8033acd3af97e9423a695e81ad1eb4018390559190565b613bbf926001600160d01b03169150614797565b5050613bca83613a95565b9190565b65ffffffffffff83811691161490505f613b66565b600160401b8110156108895760018101808455811015613044575f908382525f80516020614c6083398151915201555f613b47565b919091600b9081548015613cbf575b50613c306145f0565b50929091815492613c3f614058565b9481613caa575b5015613c8b57505f1982018281116108195781541115613044575f527f0175b7a638427703f0dbe7bb9bbf987a2551717b34e79f33b5b1008d1fa01db8018390559190565b613c9f926001600160d01b03169150614867565b5050613bca83613ac9565b65ffffffffffff83811691161490505f613c46565b600160401b8110156108895760018101808455811015613044575f908382525f80516020614c8083398151915201555f613c27565b90929192600182019081548015613d82575b5084613d1184614645565b50949092845493613d21836140cc565b9681613d6d575b5015613d4a575050505f19810190811161081957613b208591613bca93613a80565b613bca949293613d66926001600160d01b039091169190614906565b5050613afd565b65ffffffffffff83811691161490505f613d28565b600160401b81101561088957806001613d9e9201845583613a80565b8154905f199060031b1b191690555f613d06565b60405163a9059cbb60e01b60208201526001600160a01b03909216602483015260448083019390935291815260808101916001600160401b03831182841017610889576108d792604052614508565b8115612e6b570490565b90808202905f1981840990828083109203918083039214613e7c57633b9aca009082821115613e6a577f88f2cfb83100cb4e69e7c79c58b316e597157d372fb9787e8e47ce423a2e9c6d940990828211900360f71b910360091c170290565b634e487b715f5260116020526024601cfd5b5050633b9aca0091500490565b91818302915f1981850993838086109503948086039514613f095784831115613efc5790829109815f038216809204600280826003021880830282030280830282030280830282030280830282030280830282030280920290030293600183805f03040190848311900302920304170290565b821560030260111861467e565b505090610ee59250613e01565b90613f236107e842613fb2565b82101561317e5760ff613f53613f41845f52600960205260405f2090565b335f9081526020919091526040902090565b5416613fa057613f63338361322c565b918215613f8e57613f819061340133915f52600960205260405f2090565b805460ff19166001179055565b6040516366c0bcbf60e11b8152600490fd5b604051630c8d9eab60e31b8152600490fd5b65ffffffffffff90818111613fc5571690565b604490604051906306dfcc6560e41b8252603060048301526024820152fd5b600c548061401f57505f5b6001600160d01b03811615612e2357600d5481101561304457600d5f525f80516020614c60833981519152015490565b805f1981011161081957600c5f527fdf6966c971051c3d54ec59162606531493a51404a002842f56009d7e5cf4a8c6015460301c613fef565b600a548061409357505f5b6001600160d01b03811615612e2357600b5481101561304457600b5f525f80516020614c80833981519152015490565b805f1981011161081957600a5f527fc65a7bb8d6351c1cf70c95a316cc6a92839c986682d98bc35f958f4883f9d2a7015460301c614063565b80548061410157505f5b6001600160d01b038116156140fb5760016140f19201613a80565b90549060031b1c90565b50505f90565b5f1990808281011161081957825f5260205f2001015460301c6140d6565b919060018101809111610819576001820180921161081957610ee592613e89565b600a54905f8291600584116141ae575b61415a9350614aeb565b8061417d57505f5b6001600160d01b03811615612e23576140f1610ee591613a3c565b6141a261418c6141a992612c1c565b600a5f525f80516020614c408339815191520190565b5460301c90565b614162565b91926141b9816149c0565b81039081116108195761415a93600a5f5265ffffffffffff80835f80516020614c40833981519152015416908516105f146141f5575091614150565b92915061420190612cb2565b90614150565b600c54905f82916005841161426e575b6142219350614b54565b8061424457505f5b6001600160d01b03811615612e23576140f1610ee591613a5e565b6141a261425361426992612c1c565b600c5f525f80516020614c208339815191520190565b614229565b9192614279816149c0565b81039081116108195761422193600c5f5265ffffffffffff80835f80516020614c20833981519152015416908516105f146142b5575091614217565b9291506142c190612cb2565b90614217565b908154905f82916005841161432a575b6142e2935084614bbd565b8061430a57505f905b6001600160d01b038216156140fb57610ee59160016140f19201613a80565b6141a261431961432492612c1c565b835f5260205f200190565b906142eb565b9192614335816149c0565b8103908111610819576142e293855f5265ffffffffffff808360205f20015416908516105f146143665750916142d7565b92915061437290612cb2565b906142d7565b604051906143858261088e565b5f6020838281520152565b614398614378565b506143a1614378565b50600a5481101561304457600a5f526020604051916143bf8361088e565b5f80516020614c4083398151915201549165ffffffffffff83169283825260301c9182910152600b5481101561304457600b5f525f80516020614c808339815191520154604051916144108361088e565b8252602082015290565b614422614378565b5061442b614378565b50600c5481101561304457600c5f526020604051916144498361088e565b5f80516020614c2083398151915201549165ffffffffffff83169283825260301c9182910152600d5481101561304457600d5f525f80516020614c608339815191520154604051916144108361088e565b90602060016144be6144ea936144ae614378565b506144b7614378565b5085613a80565b5093604051946144cd8661088e565b549465ffffffffffff86169586825260301c938491015201613a80565b905490604051926144fa8461088e565b835260031b1c602082015290565b905f602091828151910182855af115612ca7575f513d61455957506001600160a01b0381163b155b6145375750565b604051635274afe760e01b81526001600160a01b039091166004820152602490fd5b60011415614530565b919060018101809111610819576001820180921161081957614585828285613e89565b928215612e6b5709151581018091116108195790565b600c54806145ac57505f905f905f90565b805f1981011161081957600c5f527fdf6966c971051c3d54ec59162606531493a51404a002842f56009d7e5cf4a8c6015460019165ffffffffffff82169160301c90565b600a548061460157505f905f905f90565b805f1981011161081957600a5f527fc65a7bb8d6351c1cf70c95a316cc6a92839c986682d98bc35f958f4883f9d2a7015460019165ffffffffffff82169160301c90565b8054806146565750505f905f905f90565b5f19918183810111610819575f5260205f2001015460019165ffffffffffff82169160301c90565b634e487b715f526020526024601cfd5b600c5490600160401b821015610889576001820180600c5582101561304457600c5f52805160209091015160301b65ffffffffffff191665ffffffffffff91909116175f80516020614c2083398151915290910155565b600a5490600160401b821015610889576001820180600a5582101561304457600a5f52805160209091015160301b65ffffffffffff191665ffffffffffff91909116175f80516020614c4083398151915290910155565b8054600160401b8110156108895761475991600182018155613a80565b61478457815160209092015160301b65ffffffffffff191665ffffffffffff92909216919091179055565b634e487b7160e01b5f525f60045260245ffd5b600c54919291801561483e576142536147af91612c1c565b9081549165ffffffffffff9081841691831680831161482c578692036147f4576147ed92509065ffffffffffff82549181199060301b169116179055565b60301c9190565b5050614827906148136148056108ca565b65ffffffffffff9092168252565b6001600160d01b038516602082015261468e565b6147ed565b604051632520601d60e01b8152600490fd5b506148629061484e6148056108ca565b6001600160d01b038416602082015261468e565b5f9190565b600a5491929180156148e25761418c61487f91612c1c565b9081549165ffffffffffff9081841691831680831161482c578692036148bd576147ed92509065ffffffffffff82549181199060301b169116179055565b5050614827906148ce6148056108ca565b6001600160d01b03851660208201526146e5565b50614862906148f26148056108ca565b6001600160d01b03841660208201526146e5565b8054929392801561499b5761491d61492891612c1c565b825f5260205f200190565b9182549265ffffffffffff9182851692811680841161482c5787930361496757506147ed92509065ffffffffffff82549181199060301b169116179055565b915050614827916149876149796108ca565b65ffffffffffff9093168352565b6001600160d01b038616602083015261473c565b5090614862916149ac6149796108ca565b6001600160d01b038516602083015261473c565b6001811115610ee557600181600160801b811015614ad9575b614a81614a77614a6d614a63614a59614a4f614a8d97600488600160401b614a889a1015614acc575b640100000000811015614abf575b62010000811015614ab2575b610100811015614aa6575b6010811015614a9a575b1015614a92575b60030260011c614a48818b613e01565b0160011c90565b614a48818a613e01565b614a488189613e01565b614a488188613e01565b614a488187613e01565b614a488186613e01565b8093613e01565b821190565b900390565b60011b614a38565b811c9160021b91614a31565b60081c91811b91614a27565b60101c9160081b91614a1c565b60201c9160101b91614a10565b60401c9160201b91614a02565b50600160401b9050608082901c6149d9565b905b828110614af957505090565b9091808216906001818418811c830180931161081957600a5f5265ffffffffffff80845f80516020614c40833981519152015416908616105f14614b41575050915b90614aed565b9093925081018091116108195790614b3b565b905b828110614b6257505090565b9091808216906001818418811c830180931161081957600c5f5265ffffffffffff80845f80516020614c20833981519152015416908616105f14614baa575050915b90614b56565b9093925081018091116108195790614ba4565b91905b838210614bcd5750505090565b909192808316906001818518811c830180931161081957855f5265ffffffffffff808460205f20015416908516105f14614c0c575050925b9190614bc0565b9094935081018091116108195791614c0556fedf6966c971051c3d54ec59162606531493a51404a002842f56009d7e5cf4a8c7c65a7bb8d6351c1cf70c95a316cc6a92839c986682d98bc35f958f4883f9d2a8d7b6990105719101dabeb77144f2a3385c8033acd3af97e9423a695e81ad1eb50175b7a638427703f0dbe7bb9bbf987a2551717b34e79f33b5b1008d1fa01db902dd7bc7dec4dceedda775e58dd541e08a116c6c53815c0bd028192f7b6268009b779b17422d0df92223018b32b4d1fa46e071723d6817e2486d003becc55f00a2646970667358221220b46961e5957721742129f004f4342d39f9c9ecd5fbb1450234b8b21aabcec4cf64736f6c63430008190033",
    "linkReferences": {}
  },
  "methodIdentifiers": {
    "DEFAULT_ADMIN_ROLE()": "a217fddf",
    "DELEGATOR_FACTORY()": "6da3e06d",
    "DEPOSITOR_WHITELIST_ROLE()": "1b66c9e1",
    "DEPOSIT_LIMIT_SET_ROLE()": "a21a1df9",
    "DEPOSIT_WHITELIST_SET_ROLE()": "db388715",
    "EPOCH_DURATION_SET_ROLE()": "61819dd8",
    "FLASH_FEE_BASE()": "ecc98f05",
    "FLASH_FEE_RATE_SET_ROLE()": "bc46f722",
    "FLASH_FEE_RECEIVER_SET_ROLE()": "31d9736c",
    "FLASH_LOAN_ENABLED_SET_ROLE()": "a66b3a73",
    "IS_DEPOSIT_LIMIT_SET_ROLE()": "1415519b",
    "RETURN_VALUE()": "653b04cd",
    "SLASHER_FACTORY()": "87df0788",
    "_epochDuration()": "2fa27fae",
    "_epochDurationInit()": "9f9962dd",
    "_epochDurationInitIndex()": "9b4bae3e",
    "_epochDurationSetEpochsDelay()": "bba6ff4a",
    "_nextEpochDuration()": "c1bc6f51",
    "_nextEpochDurationInit()": "cc52aee7",
    "_nextEpochDurationSetEpochsDelay()": "c4db46fc",
    "_nextEpochInitIndex()": "2749f9c4",
    "_prevEpochDuration()": "5a36aa74",
    "_prevEpochDurationInit()": "6e0f2455",
    "_prevEpochDurationInitIndex()": "98ccba4a",
    "activeBalanceOf(address)": "59f769a9",
    "activeBalanceOfAt(address,uint48,bytes)": "efb559d6",
    "activeShares()": "bfefcd7b",
    "activeSharesAt(uint48,bytes)": "50f22068",
    "activeSharesOf(address)": "9d66201b",
    "activeSharesOfAt(address,uint48,bytes)": "2d73c69c",
    "activeStake()": "bd49c35f",
    "activeStakeAt(uint48,bytes)": "810da75d",
    "burner()": "27810b6e",
    "claim(address,uint256)": "aad3ec96",
    "claimBatch(address,uint256[])": "7c04c80a",
    "collateral()": "d8dfeb45",
    "currentEpoch()": "76671808",
    "currentEpochStart()": "61a8c8c4",
    "delegator()": "ce9b7930",
    "deposit(address,uint256)": "47e7ef24",
    "depositLimit()": "ecf70858",
    "depositWhitelist()": "48d3b775",
    "epochAt(uint48)": "7953b33b",
    "epochDuration()": "4ff0876a",
    "epochDurationInit()": "46361671",
    "epochDurationSetEpochsDelay()": "c642b050",
    "epochStart(uint256)": "aa9354a3",
    "flashFee(address,uint256)": "d9d98ce4",
    "flashFeeRate()": "e945da7f",
    "flashFeeReceiver()": "a8b24f9a",
    "flashLoan(address,address,uint256,bytes)": "5cffe9de",
    "flashLoanEnabled()": "65d61c6c",
    "getRoleAdmin(bytes32)": "248a9ca3",
    "grantRole(bytes32,address)": "2f2ff15d",
    "hasRole(bytes32,address)": "91d14854",
    "isDelegatorInitialized()": "50861adc",
    "isDepositLimit()": "a1b12202",
    "isDepositorWhitelisted(address)": "794b15b7",
    "isInitialized()": "392e53cd",
    "isSlasherInitialized()": "6ec1e3f8",
    "isWithdrawalsClaimed(uint256,address)": "a5d03223",
    "maxFlashLoan(address)": "613255ab",
    "nextEpochStart()": "73790ab3",
    "onSlash(uint256,uint48)": "7278e31c",
    "previousEpochStart()": "281f5752",
    "redeem(address,uint256)": "1e9a6950",
    "renounceRole(bytes32,address)": "36568abe",
    "revokeRole(bytes32,address)": "d547741f",
    "setDelegator(address)": "83cd9cc3",
    "setDepositLimit(uint256)": "bdc8144b",
    "setDepositWhitelist(bool)": "4105a7dd",
    "setDepositorWhitelistStatus(address,bool)": "a2861466",
    "setEpochDuration(uint48,uint256)": "83f46c2c",
    "setFlashFeeRate(uint256)": "d626811b",
    "setFlashFeeReceiver(address)": "52741a40",
    "setFlashloanEnabled(bool)": "859b9344",
    "setIsDepositLimit(bool)": "5346e34f",
    "setSlasher(address)": "aabc2496",
    "slashableBalanceOf(address)": "c31e8dd7",
    "slasher()": "b1344271",
    "staticDelegateCall(address,bytes)": "9f86fd85",
    "supportsInterface(bytes4)": "01ffc9a7",
    "totalStake()": "8b0e9f3f",
    "withdraw(address,uint256)": "f3fef3a3",
    "withdrawalShares(uint256)": "afba70ad",
    "withdrawalSharesOf(uint256,address)": "a3b54172",
    "withdrawals(uint256)": "5cc07076",
    "withdrawalsOf(uint256,address)": "f5e7ee0f"
  },
  "id": 130
}