{"abi":[{"type":"constructor","inputs":[{"name":"delegatorFactory","type":"address","internalType":"address"},{"name":"slasherFactory","type":"address","internalType":"address"}],"stateMutability":"nonpayable"},{"type":"function","name":"DEFAULT_ADMIN_ROLE","inputs":[],"outputs":[{"name":"","type":"bytes32","internalType":"bytes32"}],"stateMutability":"view"},{"type":"function","name":"DELEGATOR_FACTORY","inputs":[],"outputs":[{"name":"","type":"address","internalType":"address"}],"stateMutability":"view"},{"type":"function","name":"DEPOSITOR_WHITELIST_ROLE","inputs":[],"outputs":[{"name":"","type":"bytes32","internalType":"bytes32"}],"stateMutability":"view"},{"type":"function","name":"DEPOSIT_LIMIT_SET_ROLE","inputs":[],"outputs":[{"name":"","type":"bytes32","internalType":"bytes32"}],"stateMutability":"view"},{"type":"function","name":"DEPOSIT_WHITELIST_SET_ROLE","inputs":[],"outputs":[{"name":"","type":"bytes32","internalType":"bytes32"}],"stateMutability":"view"},{"type":"function","name":"EPOCH_DURATION_SET_ROLE","inputs":[],"outputs":[{"name":"","type":"bytes32","internalType":"bytes32"}],"stateMutability":"view"},{"type":"function","name":"FLASH_FEE_BASE","inputs":[],"outputs":[{"name":"","type":"uint256","internalType":"uint256"}],"stateMutability":"view"},{"type":"function","name":"FLASH_FEE_RATE_SET_ROLE","inputs":[],"outputs":[{"name":"","type":"bytes32","internalType":"bytes32"}],"stateMutability":"view"},{"type":"function","name":"FLASH_FEE_RECEIVER_SET_ROLE","inputs":[],"outputs":[{"name":"","type":"bytes32","internalType":"bytes32"}],"stateMutability":"view"},{"type":"function","name":"FLASH_LOAN_ENABLED_SET_ROLE","inputs":[],"outputs":[{"name":"","type":"bytes32","internalType":"bytes32"}],"stateMutability":"view"},{"type":"function","name":"IS_DEPOSIT_LIMIT_SET_ROLE","inputs":[],"outputs":[{"name":"","type":"bytes32","internalType":"bytes32"}],"stateMutability":"view"},{"type":"function","name":"RETURN_VALUE","inputs":[],"outputs":[{"name":"","type":"bytes32","internalType":"bytes32"}],"stateMutability":"view"},{"type":"function","name":"SLASHER_FACTORY","inputs":[],"outputs":[{"name":"","type":"address","internalType":"address"}],"stateMutability":"view"},{"type":"function","name":"_epochDuration","inputs":[],"outputs":[{"name":"","type":"uint48","internalType":"uint48"}],"stateMutability":"view"},{"type":"function","name":"_epochDurationInit","inputs":[],"outputs":[{"name":"","type":"uint48","internalType":"uint48"}],"stateMutability":"view"},{"type":"function","name":"_epochDurationInitIndex","inputs":[],"outputs":[{"name":"","type":"uint256","internalType":"uint256"}],"stateMutability":"view"},{"type":"function","name":"_epochDurationSetEpochsDelay","inputs":[],"outputs":[{"name":"","type":"uint256","internalType":"uint256"}],"stateMutability":"view"},{"type":"function","name":"_nextEpochDuration","inputs":[],"outputs":[{"name":"","type":"uint48","internalType":"uint48"}],"stateMutability":"view"},{"type":"function","name":"_nextEpochDurationInit","inputs":[],"outputs":[{"name":"","type":"uint48","internalType":"uint48"}],"stateMutability":"view"},{"type":"function","name":"_nextEpochDurationSetEpochsDelay","inputs":[],"outputs":[{"name":"","type":"uint256","internalType":"uint256"}],"stateMutability":"view"},{"type":"function","name":"_nextEpochInitIndex","inputs":[],"outputs":[{"name":"","type":"uint256","internalType":"uint256"}],"stateMutability":"view"},{"type":"function","name":"_prevEpochDuration","inputs":[],"outputs":[{"name":"","type":"uint48","internalType":"uint48"}],"stateMutability":"view"},{"type":"function","name":"_prevEpochDurationInit","inputs":[],"outputs":[{"name":"","type":"uint48","internalType":"uint48"}],"stateMutability":"view"},{"type":"function","name":"_prevEpochDurationInitIndex","inputs":[],"outputs":[{"name":"","type":"uint256","internalType":"uint256"}],"stateMutability":"view"},{"type":"function","name":"activeBalanceOf","inputs":[{"name":"account","type":"address","internalType":"address"}],"outputs":[{"name":"","type":"uint256","internalType":"uint256"}],"stateMutability":"view"},{"type":"function","name":"activeBalanceOfAt","inputs":[{"name":"account","type":"address","internalType":"address"},{"name":"timestamp","type":"uint48","internalType":"uint48"},{"name":"hints","type":"bytes","internalType":"bytes"}],"outputs":[{"name":"","type":"uint256","internalType":"uint256"}],"stateMutability":"view"},{"type":"function","name":"activeShares","inputs":[],"outputs":[{"name":"","type":"uint256","internalType":"uint256"}],"stateMutability":"view"},{"type":"function","name":"activeSharesAt","inputs":[{"name":"timestamp","type":"uint48","internalType":"uint48"},{"name":"hint","type":"bytes","internalType":"bytes"}],"outputs":[{"name":"","type":"uint256","internalType":"uint256"}],"stateMutability":"view"},{"type":"function","name":"activeSharesOf","inputs":[{"name":"account","type":"address","internalType":"address"}],"outputs":[{"name":"","type":"uint256","internalType":"uint256"}],"stateMutability":"view"},{"type":"function","name":"activeSharesOfAt","inputs":[{"name":"account","type":"address","internalType":"address"},{"name":"timestamp","type":"uint48","internalType":"uint48"},{"name":"hint","type":"bytes","internalType":"bytes"}],"outputs":[{"name":"","type":"uint256","internalType":"uint256"}],"stateMutability":"view"},{"type":"function","name":"activeStake","inputs":[],"outputs":[{"name":"","type":"uint256","internalType":"uint256"}],"stateMutability":"view"},{"type":"function","name":"activeStakeAt","inputs":[{"name":"timestamp","type":"uint48","internalType":"uint48"},{"name":"hint","type":"bytes","internalType":"bytes"}],"outputs":[{"name":"","type":"uint256","internalType":"uint256"}],"stateMutability":"view"},{"type":"function","name":"burner","inputs":[],"outputs":[{"name":"","type":"address","internalType":"address"}],"stateMutability":"view"},{"type":"function","name":"claim","inputs":[{"name":"recipient","type":"address","internalType":"address"},{"name":"epoch","type":"uint256","internalType":"uint256"}],"outputs":[{"name":"amount","type":"uint256","internalType":"uint256"}],"stateMutability":"nonpayable"},{"type":"function","name":"claimBatch","inputs":[{"name":"recipient","type":"address","internalType":"address"},{"name":"epochs","type":"uint256[]","internalType":"uint256[]"}],"outputs":[{"name":"amount","type":"uint256","internalType":"uint256"}],"stateMutability":"nonpayable"},{"type":"function","name":"collateral","inputs":[],"outputs":[{"name":"","type":"address","internalType":"address"}],"stateMutability":"view"},{"type":"function","name":"currentEpoch","inputs":[],"outputs":[{"name":"","type":"uint256","internalType":"uint256"}],"stateMutability":"view"},{"type":"function","name":"currentEpochStart","inputs":[],"outputs":[{"name":"","type":"uint48","internalType":"uint48"}],"stateMutability":"view"},{"type":"function","name":"delegator","inputs":[],"outputs":[{"name":"","type":"address","internalType":"address"}],"stateMutability":"view"},{"type":"function","name":"deposit","inputs":[{"name":"onBehalfOf","type":"address","internalType":"address"},{"name":"amount","type":"uint256","internalType":"uint256"}],"outputs":[{"name":"depositedAmount","type":"uint256","internalType":"uint256"},{"name":"mintedShares","type":"uint256","internalType":"uint256"}],"stateMutability":"nonpayable"},{"type":"function","name":"depositLimit","inputs":[],"outputs":[{"name":"","type":"uint256","internalType":"uint256"}],"stateMutability":"view"},{"type":"function","name":"depositWhitelist","inputs":[],"outputs":[{"name":"","type":"bool","internalType":"bool"}],"stateMutability":"view"},{"type":"function","name":"epochAt","inputs":[{"name":"timestamp","type":"uint48","internalType":"uint48"}],"outputs":[{"name":"","type":"uint256","internalType":"uint256"}],"stateMutability":"view"},{"type":"function","name":"epochDuration","inputs":[],"outputs":[{"name":"","type":"uint48","internalType":"uint48"}],"stateMutability":"view"},{"type":"function","name":"epochDurationInit","inputs":[],"outputs":[{"name":"","type":"uint48","internalType":"uint48"}],"stateMutability":"view"},{"type":"function","name":"epochDurationSetEpochsDelay","inputs":[],"outputs":[{"name":"","type":"uint256","internalType":"uint256"}],"stateMutability":"view"},{"type":"function","name":"epochStart","inputs":[{"name":"epoch","type":"uint256","internalType":"uint256"}],"outputs":[{"name":"","type":"uint48","internalType":"uint48"}],"stateMutability":"view"},{"type":"function","name":"flashFee","inputs":[{"name":"token","type":"address","internalType":"address"},{"name":"value","type":"uint256","internalType":"uint256"}],"outputs":[{"name":"","type":"uint256","internalType":"uint256"}],"stateMutability":"view"},{"type":"function","name":"flashFeeRate","inputs":[],"outputs":[{"name":"","type":"uint256","internalType":"uint256"}],"stateMutability":"view"},{"type":"function","name":"flashFeeReceiver","inputs":[],"outputs":[{"name":"","type":"address","internalType":"address"}],"stateMutability":"view"},{"type":"function","name":"flashLoan","inputs":[{"name":"receiver","type":"address","internalType":"contract IERC3156FlashBorrower"},{"name":"token","type":"address","internalType":"address"},{"name":"value","type":"uint256","internalType":"uint256"},{"name":"data","type":"bytes","internalType":"bytes"}],"outputs":[{"name":"","type":"bool","internalType":"bool"}],"stateMutability":"nonpayable"},{"type":"function","name":"flashLoanEnabled","inputs":[],"outputs":[{"name":"","type":"bool","internalType":"bool"}],"stateMutability":"view"},{"type":"function","name":"getRoleAdmin","inputs":[{"name":"role","type":"bytes32","internalType":"bytes32"}],"outputs":[{"name":"","type":"bytes32","internalType":"bytes32"}],"stateMutability":"view"},{"type":"function","name":"grantRole","inputs":[{"name":"role","type":"bytes32","internalType":"bytes32"},{"name":"account","type":"address","internalType":"address"}],"outputs":[],"stateMutability":"nonpayable"},{"type":"function","name":"hasRole","inputs":[{"name":"role","type":"bytes32","internalType":"bytes32"},{"name":"account","type":"address","internalType":"address"}],"outputs":[{"name":"","type":"bool","internalType":"bool"}],"stateMutability":"view"},{"type":"function","name":"isDelegatorInitialized","inputs":[],"outputs":[{"name":"","type":"bool","internalType":"bool"}],"stateMutability":"view"},{"type":"function","name":"isDepositLimit","inputs":[],"outputs":[{"name":"","type":"bool","internalType":"bool"}],"stateMutability":"view"},{"type":"function","name":"isDepositorWhitelisted","inputs":[{"name":"account","type":"address","internalType":"address"}],"outputs":[{"name":"value","type":"bool","internalType":"bool"}],"stateMutability":"view"},{"type":"function","name":"isInitialized","inputs":[],"outputs":[{"name":"","type":"bool","internalType":"bool"}],"stateMutability":"view"},{"type":"function","name":"isSlasherInitialized","inputs":[],"outputs":[{"name":"","type":"bool","internalType":"bool"}],"stateMutability":"view"},{"type":"function","name":"isWithdrawalsClaimed","inputs":[{"name":"epoch","type":"uint256","internalType":"uint256"},{"name":"account","type":"address","internalType":"address"}],"outputs":[{"name":"value","type":"bool","internalType":"bool"}],"stateMutability":"view"},{"type":"function","name":"maxFlashLoan","inputs":[{"name":"token","type":"address","internalType":"address"}],"outputs":[{"name":"","type":"uint256","internalType":"uint256"}],"stateMutability":"view"},{"type":"function","name":"nextEpochStart","inputs":[],"outputs":[{"name":"","type":"uint48","internalType":"uint48"}],"stateMutability":"view"},{"type":"function","name":"onSlash","inputs":[{"name":"amount","type":"uint256","internalType":"uint256"},{"name":"captureTimestamp","type":"uint48","internalType":"uint48"}],"outputs":[{"name":"slashedAmount","type":"uint256","internalType":"uint256"}],"stateMutability":"nonpayable"},{"type":"function","name":"previousEpochStart","inputs":[],"outputs":[{"name":"","type":"uint48","internalType":"uint48"}],"stateMutability":"view"},{"type":"function","name":"redeem","inputs":[{"name":"claimer","type":"address","internalType":"address"},{"name":"shares","type":"uint256","internalType":"uint256"}],"outputs":[{"name":"withdrawnAssets","type":"uint256","internalType":"uint256"},{"name":"mintedShares","type":"uint256","internalType":"uint256"}],"stateMutability":"nonpayable"},{"type":"function","name":"renounceRole","inputs":[{"name":"role","type":"bytes32","internalType":"bytes32"},{"name":"callerConfirmation","type":"address","internalType":"address"}],"outputs":[],"stateMutability":"nonpayable"},{"type":"function","name":"revokeRole","inputs":[{"name":"role","type":"bytes32","internalType":"bytes32"},{"name":"account","type":"address","internalType":"address"}],"outputs":[],"stateMutability":"nonpayable"},{"type":"function","name":"setDelegator","inputs":[{"name":"delegator_","type":"address","internalType":"address"}],"outputs":[],"stateMutability":"nonpayable"},{"type":"function","name":"setDepositLimit","inputs":[{"name":"limit","type":"uint256","internalType":"uint256"}],"outputs":[],"stateMutability":"nonpayable"},{"type":"function","name":"setDepositWhitelist","inputs":[{"name":"status","type":"bool","internalType":"bool"}],"outputs":[],"stateMutability":"nonpayable"},{"type":"function","name":"setDepositorWhitelistStatus","inputs":[{"name":"account","type":"address","internalType":"address"},{"name":"status","type":"bool","internalType":"bool"}],"outputs":[],"stateMutability":"nonpayable"},{"type":"function","name":"setEpochDuration","inputs":[{"name":"epochDuration_","type":"uint48","internalType":"uint48"},{"name":"epochDurationSetEpochsDelay_","type":"uint256","internalType":"uint256"}],"outputs":[],"stateMutability":"nonpayable"},{"type":"function","name":"setFlashFeeRate","inputs":[{"name":"flashFeeRate_","type":"uint256","internalType":"uint256"}],"outputs":[],"stateMutability":"nonpayable"},{"type":"function","name":"setFlashFeeReceiver","inputs":[{"name":"flashFeeReceiver_","type":"address","internalType":"address"}],"outputs":[],"stateMutability":"nonpayable"},{"type":"function","name":"setFlashloanEnabled","inputs":[{"name":"status","type":"bool","internalType":"bool"}],"outputs":[],"stateMutability":"nonpayable"},{"type":"function","name":"setIsDepositLimit","inputs":[{"name":"status","type":"bool","internalType":"bool"}],"outputs":[],"stateMutability":"nonpayable"},{"type":"function","name":"setSlasher","inputs":[{"name":"slasher_","type":"address","internalType":"address"}],"outputs":[],"stateMutability":"nonpayable"},{"type":"function","name":"slashableBalanceOf","inputs":[{"name":"account","type":"address","internalType":"address"}],"outputs":[{"name":"","type":"uint256","internalType":"uint256"}],"stateMutability":"view"},{"type":"function","name":"slasher","inputs":[],"outputs":[{"name":"","type":"address","internalType":"address"}],"stateMutability":"view"},{"type":"function","name":"staticDelegateCall","inputs":[{"name":"target","type":"address","internalType":"address"},{"name":"data","type":"bytes","internalType":"bytes"}],"outputs":[],"stateMutability":"nonpayable"},{"type":"function","name":"supportsInterface","inputs":[{"name":"interfaceId","type":"bytes4","internalType":"bytes4"}],"outputs":[{"name":"","type":"bool","internalType":"bool"}],"stateMutability":"view"},{"type":"function","name":"totalStake","inputs":[],"outputs":[{"name":"","type":"uint256","internalType":"uint256"}],"stateMutability":"view"},{"type":"function","name":"withdraw","inputs":[{"name":"claimer","type":"address","internalType":"address"},{"name":"amount","type":"uint256","internalType":"uint256"}],"outputs":[{"name":"burnedShares","type":"uint256","internalType":"uint256"},{"name":"mintedShares","type":"uint256","internalType":"uint256"}],"stateMutability":"nonpayable"},{"type":"function","name":"withdrawalShares","inputs":[{"name":"epoch","type":"uint256","internalType":"uint256"}],"outputs":[{"name":"amount","type":"uint256","internalType":"uint256"}],"stateMutability":"view"},{"type":"function","name":"withdrawalSharesOf","inputs":[{"name":"epoch","type":"uint256","internalType":"uint256"},{"name":"account","type":"address","internalType":"address"}],"outputs":[{"name":"amount","type":"uint256","internalType":"uint256"}],"stateMutability":"view"},{"type":"function","name":"withdrawals","inputs":[{"name":"epoch","type":"uint256","internalType":"uint256"}],"outputs":[{"name":"amount","type":"uint256","internalType":"uint256"}],"stateMutability":"view"},{"type":"function","name":"withdrawalsOf","inputs":[{"name":"epoch","type":"uint256","internalType":"uint256"},{"name":"account","type":"address","internalType":"address"}],"outputs":[{"name":"","type":"uint256","internalType":"uint256"}],"stateMutability":"view"},{"type":"event","name":"Claim","inputs":[{"name":"claimer","type":"address","indexed":true,"internalType":"address"},{"name":"recipient","type":"address","indexed":true,"internalType":"address"},{"name":"epoch","type":"uint256","indexed":false,"internalType":"uint256"},{"name":"amount","type":"uint256","indexed":false,"internalType":"uint256"}],"anonymous":false},{"type":"event","name":"ClaimBatch","inputs":[{"name":"claimer","type":"address","indexed":true,"internalType":"address"},{"name":"recipient","type":"address","indexed":true,"internalType":"address"},{"name":"epochs","type":"uint256[]","indexed":false,"internalType":"uint256[]"},{"name":"amount","type":"uint256","indexed":false,"internalType":"uint256"}],"anonymous":false},{"type":"event","name":"Deposit","inputs":[{"name":"depositor","type":"address","indexed":true,"internalType":"address"},{"name":"onBehalfOf","type":"address","indexed":true,"internalType":"address"},{"name":"amount","type":"uint256","indexed":false,"internalType":"uint256"},{"name":"shares","type":"uint256","indexed":false,"internalType":"uint256"}],"anonymous":false},{"type":"event","name":"Initialized","inputs":[{"name":"version","type":"uint64","indexed":false,"internalType":"uint64"}],"anonymous":false},{"type":"event","name":"OnSlash","inputs":[{"name":"amount","type":"uint256","indexed":false,"internalType":"uint256"},{"name":"captureTimestamp","type":"uint48","indexed":false,"internalType":"uint48"},{"name":"slashedAmount","type":"uint256","indexed":false,"internalType":"uint256"}],"anonymous":false},{"type":"event","name":"RoleAdminChanged","inputs":[{"name":"role","type":"bytes32","indexed":true,"internalType":"bytes32"},{"name":"previousAdminRole","type":"bytes32","indexed":true,"internalType":"bytes32"},{"name":"newAdminRole","type":"bytes32","indexed":true,"internalType":"bytes32"}],"anonymous":false},{"type":"event","name":"RoleGranted","inputs":[{"name":"role","type":"bytes32","indexed":true,"internalType":"bytes32"},{"name":"account","type":"address","indexed":true,"internalType":"address"},{"name":"sender","type":"address","indexed":true,"internalType":"address"}],"anonymous":false},{"type":"event","name":"RoleRevoked","inputs":[{"name":"role","type":"bytes32","indexed":true,"internalType":"bytes32"},{"name":"account","type":"address","indexed":true,"internalType":"address"},{"name":"sender","type":"address","indexed":true,"internalType":"address"}],"anonymous":false},{"type":"event","name":"SetDelegator","inputs":[{"name":"delegator","type":"address","indexed":true,"internalType":"address"}],"anonymous":false},{"type":"event","name":"SetDepositLimit","inputs":[{"name":"limit","type":"uint256","indexed":false,"internalType":"uint256"}],"anonymous":false},{"type":"event","name":"SetDepositWhitelist","inputs":[{"name":"status","type":"bool","indexed":false,"internalType":"bool"}],"anonymous":false},{"type":"event","name":"SetDepositorWhitelistStatus","inputs":[{"name":"account","type":"address","indexed":true,"internalType":"address"},{"name":"status","type":"bool","indexed":false,"internalType":"bool"}],"anonymous":false},{"type":"event","name":"SetEpochDuration","inputs":[{"name":"epochDuration","type":"uint48","indexed":false,"internalType":"uint48"},{"name":"epochDurationSetEpochsDelay","type":"uint256","indexed":false,"internalType":"uint256"}],"anonymous":false},{"type":"event","name":"SetFlashFeeRate","inputs":[{"name":"flashFeeRate","type":"uint256","indexed":false,"internalType":"uint256"}],"anonymous":false},{"type":"event","name":"SetFlashFeeReceiver","inputs":[{"name":"flashFeeReceiver","type":"address","indexed":false,"internalType":"address"}],"anonymous":false},{"type":"event","name":"SetFlashloanEnabled","inputs":[{"name":"status","type":"bool","indexed":false,"internalType":"bool"}],"anonymous":false},{"type":"event","name":"SetIsDepositLimit","inputs":[{"name":"status","type":"bool","indexed":false,"internalType":"bool"}],"anonymous":false},{"type":"event","name":"SetSlasher","inputs":[{"name":"slasher","type":"address","indexed":true,"internalType":"address"}],"anonymous":false},{"type":"event","name":"Withdraw","inputs":[{"name":"withdrawer","type":"address","indexed":true,"internalType":"address"},{"name":"claimer","type":"address","indexed":true,"internalType":"address"},{"name":"amount","type":"uint256","indexed":false,"internalType":"uint256"},{"name":"burnedShares","type":"uint256","indexed":false,"internalType":"uint256"},{"name":"mintedShares","type":"uint256","indexed":false,"internalType":"uint256"}],"anonymous":false},{"type":"error","name":"AccessControlBadConfirmation","inputs":[]},{"type":"error","name":"AccessControlUnauthorizedAccount","inputs":[{"name":"account","type":"address","internalType":"address"},{"name":"neededRole","type":"bytes32","internalType":"bytes32"}]},{"type":"error","name":"AlreadyClaimed","inputs":[]},{"type":"error","name":"AlreadySet","inputs":[]},{"type":"error","name":"CheckpointUnorderedInsertion","inputs":[]},{"type":"error","name":"DelegatorAlreadyInitialized","inputs":[]},{"type":"error","name":"DepositLimitReached","inputs":[]},{"type":"error","name":"InsufficientClaim","inputs":[]},{"type":"error","name":"InsufficientDeposit","inputs":[]},{"type":"error","name":"InsufficientExitWindow","inputs":[]},{"type":"error","name":"InsufficientRedemption","inputs":[]},{"type":"error","name":"InsufficientWithdrawal","inputs":[]},{"type":"error","name":"InvalidAccount","inputs":[]},{"type":"error","name":"InvalidCaptureEpoch","inputs":[]},{"type":"error","name":"InvalidClaimer","inputs":[]},{"type":"error","name":"InvalidCollateral","inputs":[]},{"type":"error","name":"InvalidDelegator","inputs":[]},{"type":"error","name":"InvalidEpoch","inputs":[]},{"type":"error","name":"InvalidEpochDuration","inputs":[]},{"type":"error","name":"InvalidEpochDurationSetEpochsDelay","inputs":[]},{"type":"error","name":"InvalidFlashParams","inputs":[]},{"type":"error","name":"InvalidInitialization","inputs":[]},{"type":"error","name":"InvalidLengthEpochs","inputs":[]},{"type":"error","name":"InvalidNewEpochDuration","inputs":[]},{"type":"error","name":"InvalidOnBehalfOf","inputs":[]},{"type":"error","name":"InvalidOrigin","inputs":[]},{"type":"error","name":"InvalidReceiver","inputs":[]},{"type":"error","name":"InvalidRecipient","inputs":[]},{"type":"error","name":"InvalidReturnAmount","inputs":[]},{"type":"error","name":"InvalidSlasher","inputs":[]},{"type":"error","name":"InvalidTimestamp","inputs":[]},{"type":"error","name":"MaxLoanExceeded","inputs":[]},{"type":"error","name":"MissingRoles","inputs":[]},{"type":"error","name":"NewEpochDurationNotReady","inputs":[]},{"type":"error","name":"NoDepositWhitelist","inputs":[]},{"type":"error","name":"NoPreviousEpoch","inputs":[]},{"type":"error","name":"NotDelegator","inputs":[]},{"type":"error","name":"NotInitializing","inputs":[]},{"type":"error","name":"NotSlasher","inputs":[]},{"type":"error","name":"NotWhitelistedDepositor","inputs":[]},{"type":"error","name":"ReentrancyGuardReentrantCall","inputs":[]},{"type":"error","name":"SafeCastOverflowedUintDowncast","inputs":[{"name":"bits","type":"uint8","internalType":"uint8"},{"name":"value","type":"uint256","internalType":"uint256"}]},{"type":"error","name":"SafeERC20FailedOperation","inputs":[{"name":"token","type":"address","internalType":"address"}]},{"type":"error","name":"SlasherAlreadyInitialized","inputs":[]},{"type":"error","name":"TooLowFlashLoanValue","inputs":[]},{"type":"error","name":"TooMuchRedeem","inputs":[]},{"type":"error","name":"TooMuchWithdraw","inputs":[]},{"type":"error","name":"UnsupportedToken","inputs":[]}],"bytecode":{"object":"0x60c034608157601f614dfb38819003918201601f19168301916001600160401b038311848410176085578084926040948552833981010312608157604b60206045836099565b92016099565b9060805260a052604051614d4e90816100ad82396080518181816114cd0152611993015260a051818181611e4201526123c10152f35b5f80fd5b634e487b7160e01b5f52604160045260245ffd5b51906001600160a01b038216820360815756fe60806040526004361015610011575f80fd5b5f3560e01c806301ffc9a7146105945780631415519b1461058f5780631b66c9e11461058a5780631e9a695014610585578063248a9ca3146105805780632749f9c41461057b57806327810b6e14610576578063281f5752146105715780632d73c69c1461056c5780632f2ff15d146105675780632fa27fae1461056257806331d9736c1461055d57806336568abe14610558578063392e53cd146105535780634105a7dd1461054e578063463616711461054957806347e7ef241461054457806348d3b7751461053f5780634ff0876a1461053a57806350861adc1461053557806350f220681461053057806352741a401461052b5780635346e34f1461052657806359f769a9146105215780635a36aa741461051c5780635cc07076146105175780635cffe9de14610512578063613255ab1461050d57806361819dd81461050857806361a8c8c414610503578063653b04cd146104fe57806365d61c6c146104f95780636da3e06d146104f45780636e0f2455146104ef5780636ec1e3f8146104ea5780637278e31c146104e557806373790ab3146104e057806376671808146104db578063794b15b7146104d65780637953b33b146104d15780637c04c80a146104cc578063810da75d146104c757806383cd9cc3146104c257806383f46c2c146104bd578063859b9344146104b857806387df0788146104b35780638b0e9f3f146104ae57806391d14854146104a957806398ccba4a146104a45780639b4bae3e1461049f5780639d66201b1461049a5780639f86fd85146104955780639f9962dd14610490578063a1b122021461048b578063a217fddf14610486578063a21a1df914610481578063a28614661461047c578063a3b5417214610477578063a5d0322314610472578063a66b3a731461046d578063a8b24f9a14610468578063aa9354a314610463578063aabc24961461045e578063aad3ec9614610459578063afba70ad14610454578063b13442711461044f578063bba6ff4a1461044a578063bc46f72214610445578063bd49c35f14610440578063bdc8144b1461043b578063bfefcd7b14610436578063c1bc6f5114610431578063c31e8dd71461042c578063c4db46fc14610427578063c642b05014610422578063cc52aee71461041d578063ce9b793014610418578063d547741f14610413578063d626811b1461040e578063d8dfeb4514610409578063d9d98ce414610404578063db388715146103ff578063e945da7f146103fa578063ecc98f05146103f5578063ecf70858146103f0578063efb559d6146103eb578063f3fef3a3146103e65763f5e7ee0f146103e1575f80fd5b612c17565b612b71565b612a26565b612a09565b6129eb565b6129ce565b612994565b612969565b61293e565b61287e565b612832565b61280a565b6127e2565b6127c8565b6127ab565b61273d565b612715565b6126fb565b61263b565b612621565b6125e7565b6125ca565b6125a2565b612578565b6124b7565b61230e565b6122f0565b6122c8565b61228e565b612248565b6121fb565b612116565b6120dc565b6120c2565b61209e565b612076565b611fa9565b611f6f565b611f52565b611f35565b611ed7565b611e71565b611e2d565b611da1565b611ad9565b61192e565b611915565b6118af565b611891565b611851565b611833565b611801565b611546565b611521565b6114fc565b6114b8565b611493565b611459565b611433565b6113f9565b6113d2565b61112f565b6110d8565b6110b0565b611089565b611002565b610f01565b610ee8565b610e82565b610e68565b610e47565b610b97565b610b7d565b610ae2565b610a9d565b610a52565b610a18565b6109f8565b6109aa565b61093a565b6107cc565b6107a4565b610787565b61074e565b610673565b610628565b6105ee565b346105ea5760203660031901126105ea5760043563ffffffff60e01b81168091036105ea57602090637965db0b60e01b81149081156105d9575b506040519015158152f35b6301ffc9a760e01b1490505f6105ce565b5f80fd5b346105ea575f3660031901126105ea5760206040517fc6aaadd7371d5e8f9ed6849dd66a66573a3ba37167d03f4352c9ba5693678fac8152f35b346105ea575f3660031901126105ea5760206040517f9c56d972d63cbb4195b3c1484691dfc220fa96a4c47e7b6613bd82a022029e068152f35b6001600160a01b038116036105ea57565b346105ea5760403660031901126105ea5760043561069081610662565b6024359061069c6132c3565b6001600160a01b0381161561073d57335f908152600e602052604090206106c790614105565b614105565b821161072b576106e76106d861401d565b6106e0614091565b9084614158565b91821561071657826106f892613305565b906107016132f2565b604080519182526020820192909252f35b0390f35b60405160016245ddc760e11b03198152600490fd5b604051632418411f60e11b8152600490fd5b6040516208978560e71b8152600490fd5b346105ea5760203660031901126105ea576004355f525f80516020614cd98339815191526020526020600160405f200154604051908152f35b346105ea575f3660031901126105ea576020601454604051908152f35b346105ea575f3660031901126105ea576001546040516001600160a01b039091168152602090f35b346105ea575f3660031901126105ea576107ed6107e842613feb565b612ea9565b801561081e575f198101908111610819576108096020916130f1565b65ffffffffffff60405191168152f35b612c41565b604051639fa56a5b60e01b8152600490fd5b6024359065ffffffffffff821682036105ea57565b6004359065ffffffffffff821682036105ea57565b634e487b7160e01b5f52604160045260245ffd5b606081019081106001600160401b0382111761088957604052565b61085a565b604081019081106001600160401b0382111761088957604052565b90601f801991011681019081106001600160401b0382111761088957604052565b604051906108d78261088e565b565b6001600160401b03811161088957601f01601f191660200190565b81601f820112156105ea5780359061090b826108d9565b9261091960405194856108a9565b828452602083830101116105ea57815f926020809301838601378301015290565b346105ea5760603660031901126105ea5760043561095781610662565b61095f610830565b90604435906001600160401b0382116105ea576020926109866109a29336906004016108f4565b6001600160a01b039092165f908152600e85526040902061363f565b604051908152f35b346105ea5760403660031901126105ea576109f66024356004356109cd82610662565b805f525f80516020614cd98339815191526020526109f1600160405f2001546138c4565b6138f0565b005b346105ea575f3660031901126105ea57602060015460d01c604051908152f35b346105ea575f3660031901126105ea5760206040517f5295aaaa27fdd659293eafacbfafbc634c1b96298957e87de5f59308cdbfdad18152f35b346105ea5760403660031901126105ea57602435610a6f81610662565b336001600160a01b03821603610a8b576109f69060043561398b565b60405163334bd91960e11b8152600490fd5b346105ea575f3660031901126105ea5760ff60025460a01c1680610ac9575b6020906040519015158152f35b5060035460a01c60ff16610abc565b801515036105ea57565b346105ea5760203660031901126105ea57600435610aff81610ad8565b610b076132c3565b610b0f61370b565b5f54901515908160ff8216151514610b6b5760ff191660ff8216175f556040519081527f3e12b7b36c75ac9609a3f58609b331210428e1a85909132638955ba0301eec3390602090a160015f80516020614cf983398151915255005b60405163a741a04560e01b8152600490fd5b346105ea575f3660031901126105ea576020610809612c91565b346105ea576040806003193601126105ea576004803591610bb783610662565b610bbf6132c3565b6001600160a01b0391838316908115610e39575f5460ff811680610e20575b610e115783516370a0823160e01b808252308483019081529096602093909160109190911c82169084908490819083010381845afa928315610de9575f93610dee575b50610c33906024359030903390613a1d565b5f5486519788523085890190815290979184918391908290819060200103918b60101c165afa908115610de957610c72935f92610dbc575b5050612c63565b938415610dad5760081c60ff1680610d98575b610d8a57509061071291610d36610c9a61401d565b95610ce3610ca6614091565b610cce610cb48a838b614158565b99610cc88a610cc242613feb565b92612cf9565b90613b71565b5050610cdd89610cc242613feb565b90613c51565b50506001600160a01b0381165f908152600e6020526040902090610d3088610d2b6106c2610d1042613feb565b6001600160a01b039095165f908152600e6020526040902090565b612cf9565b91613d2d565b505081518481526020810186905233907fdcbc1c05240f31ff3ad067ef1ee35ce4997762752e3a095284754544f4c709d790604090a3610d746132f2565b5191825260208201929092529081906040820190565b8251632484557960e01b8152fd5b50610da584610d2b61401d565b815410610c85565b50825163070f6eed60e11b8152fd5b610ddb9250803d10610de2575b610dd381836108a9565b810190612cd1565b5f80610c6b565b503d610dc9565b612ce0565b610c33919350610e0a90853d8711610de257610dd381836108a9565b9290610c21565b5082516304f63b8560e01b8152fd5b50335f9081526005602052604090205460ff1615610bde565b8251630d534ce360e11b8152fd5b346105ea575f3660031901126105ea57602060ff5f54166040519015158152f35b346105ea575f3660031901126105ea576020610809612d06565b346105ea575f3660031901126105ea57602060ff60025460a01c166040519015158152f35b9060406003198301126105ea5760043565ffffffffffff811681036105ea5791602435906001600160401b0382116105ea57610ee5916004016108f4565b90565b346105ea5760206109a2610efb36610ea7565b906134b4565b346105ea5760203660031901126105ea57600435610f1e81610662565b610f266132c3565b335f9081527f9aeaa4f1a9be826e331dea6728ca206744e0a34dccbc1d3da4a68acb8abf036360205260409020547f5295aaaa27fdd659293eafacbfafbc634c1b96298957e87de5f59308cdbfdad19060ff1615610fe457506016546001600160a01b039182169181168214610b6b576001600160a01b03191681176016556040519081527f08aacfdb137d688b12f67ef81735dede1ae18b0664f6b347ee9ef00ae94ff91990602090a160015f80516020614cf983398151915255005b6044906040519063e2517d3f60e01b82523360048301526024820152fd5b346105ea5760203660031901126105ea5760043561101f81610ad8565b6110276132c3565b61102f613768565b5f54901515908160ff8260081c16151514610b6b5761ff001916600882901b61ff0016175f556040519081527ffa7a25a0b611d4ba3c0ea990e90dc23d484a5dd7a1be4733fef2946ba74530c690602090a16109f66132f2565b346105ea5760203660031901126105ea5760206109a26004356110ab81610662565b612d4c565b346105ea575f3660031901126105ea57602065ffffffffffff60135460301c16604051908152f35b346105ea5760203660031901126105ea576004355f526006602052602060405f2054604051908152f35b9181601f840112156105ea578235916001600160401b0383116105ea57602083818601950101116105ea57565b346105ea5760803660031901126105ea576004803561114d81610662565b60243561115981610662565b604435906064356001600160401b0381116105ea5761117b9036908601611102565b91906111856132c3565b83156113c15761119482612de5565b84116113b057816111a88561120894613209565b5f549092906111ca9060101c6001600160a01b03165b6001600160a01b031690565b9560018060a01b03808816936040998a51986370a0823160e01b95868b528d8b8060209c8d9330908301919091602081019260018060a01b03169052565b03818b5afa9a8b15610de9578c958f948f925f9e61136d575b50935f938d98969361123e8b8f9c9a98956112599616809a613deb565b516323e30c8b60e01b8152998a988997889633908801612d9b565b03925af18015610de9577f439148f0bbc682ca079e46d6e2c2f0c1e3b820f1a291b069d8882abf8cf18dd9915f91611350575b500361134057865190815230888201908152909184918391908290819060200103915afa928315610de9575f93611321575b50506112ca8383612c63565b1061131157906112d991612c63565b806112f2575b826112e86132f2565b5160018152602090f35b60165461130a92906001600160a01b03165b90613deb565b81806112df565b50505051637f28d71160e01b8152fd5b611338929350803d10610de257610dd381836108a9565b905f806112be565b8651631e4ec46b60e01b81528890fd5b6113679150863d8811610de257610dd381836108a9565b5f61128c565b899795919e50938d9896938d9a958a3d8c116113a9575b61138e81836108a9565b810161139991612cd1565b9f92969850939698509398611221565b503d611384565b60405163347177ad60e21b81528690fd5b6040516391ba94bf60e01b81528690fd5b346105ea5760203660031901126105ea5760206109a26004356113f481610662565b612de5565b346105ea575f3660031901126105ea5760206040517f591f6a0113ada8aff67efadec8ae2fa585cb4ebf4e1f8fc1205ffbeff98d00ec8152f35b346105ea575f3660031901126105ea5760206108096114546107e842613feb565b6130f1565b346105ea575f3660031901126105ea5760206040517f439148f0bbc682ca079e46d6e2c2f0c1e3b820f1a291b069d8882abf8cf18dd98152f35b346105ea575f3660031901126105ea57602060ff60165460a01c166040519015158152f35b346105ea575f3660031901126105ea576040517f00000000000000000000000000000000000000000000000000000000000000006001600160a01b03168152602090f35b346105ea575f3660031901126105ea57602065ffffffffffff60135416604051908152f35b346105ea575f3660031901126105ea57602060ff60035460a01c166040519015158152f35b346105ea5760403660031901126105ea57600435611562610830565b61156a6132c3565b60035461157f906001600160a01b03166111be565b33036117ef576115916107e842613feb565b9061159b81612ea9565b90821515806117de575b80156117d5575b6117c357610712937ff9d090c096f71cd1659861a9ce5b6f384bceb4e2fa4e4a19edf6489a9b8d56c7926115de61401d565b946115f96115eb82612ceb565b5f52600660205260405f2090565b54908281036116dd575061160d8187612cf9565b838118818510028118968780611696575b50505050505b83611663575b6040805191825265ffffffffffff929092166020820152908101839052606090a16116536132f2565b6040519081529081906020820190565b5f546116919085906116809060101c6001600160a01b03166111be565b6001546001600160a01b0316611304565b61162a565b6116d293610c6b83610cc86116bc6116b56115eb986116cc9888613ec2565b8096612c63565b946116c642613feb565b92612c63565b92612ceb565b555f8080808761161e565b91506116f1825f52600660205260405f2090565b549061170181610d2b848a612cf9565b90848218828610028218978861171c575b5050505050611624565b6117919383611744936117518c61174c61173a611782998884613ec2565b9788958584613ec2565b948592612c63565b612c63565b9384841061179c575b610c6b90610cc86117709596976116c642613feb565b61177c6115eb87612ceb565b55612c63565b915f52600660205260405f2090565b555f80808080611712565b916117b8610c6b916117b2866117709798612c63565b90612cf9565b85945092905061175a565b604051635e18d2a560e01b8152600490fd5b508282116115ac565b506117e883612c55565b82106115a5565b60405163dabc4ad960e01b8152600490fd5b346105ea575f3660031901126105ea5761181d6107e842613feb565b60018101809111610819576108096020916130f1565b346105ea575f3660031901126105ea5760206109a26107e842613feb565b346105ea5760203660031901126105ea5760043561186e81610662565b60018060a01b03165f526005602052602060ff60405f2054166040519015158152f35b346105ea5760203660031901126105ea5760206109a26107e8610845565b346105ea5760403660031901126105ea576004356118cc81610662565b6024356001600160401b038082116105ea57366023830112156105ea5781600401359081116105ea573660248260051b840101116105ea57610712926024611653930190612f94565b346105ea5760206109a261192836610ea7565b9061358a565b346105ea576020806003193601126105ea57600480359061194e82610662565b6119566132c3565b60025460a01c60ff16611aca576040516302910f8b60e31b81526001600160a01b03838116838301908152909491908290829081906020010381887f0000000000000000000000000000000000000000000000000000000000000000165afa908115610de9575f91611a9d575b5015611a8d5760405163fbfa77cf60e01b8152838516949082818581895afa928315610de9575f93611a5e575b505030911603611a4f5750600280546001600160a01b03929092166001600160a81b031990921691909117600160a01b1790557fdb2160616f776a37b24808115554e79439bf26cccbbd4438190cc6d28e80ecd15f80a26109f66132f2565b60405163b9f0f17160e01b8152fd5b611a7e929350803d10611a86575b611a7681836108a9565b8101906130c9565b905f806119f0565b503d611a6c565b506040516324e5af8d60e21b8152fd5b611abd9150823d8411611ac3575b611ab581836108a9565b8101906130b4565b5f6119c3565b503d611aab565b604051631380833b60e01b8152fd5b346105ea5760403660031901126105ea57611af2610845565b602435611afd6132c3565b611b056137bf565b60038110611d8f5765ffffffffffff9182611b2b60135465ffffffffffff9060601c1690565b168015159081611d79575b50611c7b575b60015460d01c838083169116818111611c69571480611c5e575b610b6b57611c33611c0a611c057f1b3efab1b836932ce515e4748ca76335809d1d202c92ee86d594e43ce0039e8395611ba5611ba0611b976107e842613feb565b600f5490612cf9565b601455565b6013805465ffffffffffff60901b1916609087901b65ffffffffffff60901b16179055611bd76114546107e842613feb565b90611bfe600f54611bf8611bed60015460d01c90565b65ffffffffffff1690565b906130de565b9116612cf9565b613feb565b6013805465ffffffffffff60601b191660609290921b65ffffffffffff60601b16919091179055565b611c3c82601055565b6040805165ffffffffffff9290921682526020820192909252a16109f66132f2565b5081600f5414611b56565b6040516359dcfd5560e11b8152600490fd5b611c86601154601255565b611cc0611c9560015460d01c90565b6bffffffffffff0000000000006013549160301b16906bffffffffffff000000000000191617601355565b600154611cec9060a01c65ffffffffffff1665ffffffffffff1665ffffffffffff196013541617601355565b611cf7601454601155565b601354611d2e9060901c65ffffffffffff16600180546001600160d01b031660d09290921b6001600160d01b031916919091179055565b601354611d699060601c65ffffffffffff166001805465ffffffffffff60a01b191660a09290921b65ffffffffffff60a01b16919091179055565b611d74601054600f55565b611b3c565b9050611d87611bed42613feb565b10155f611b36565b6040516317a509b960e31b8152600490fd5b346105ea5760203660031901126105ea57600435611dbe81610ad8565b611dc66132c3565b611dce613816565b601654901515908160ff8260a01c16151514610b6b5760ff60a01b191660a082901b60ff60a01b16176016556040519081527e4ea26b9681ba216ba307c9c0ee4edcef296c9af6506b16ad458a51431745d990602090a16109f66132f2565b346105ea575f3660031901126105ea576040517f00000000000000000000000000000000000000000000000000000000000000006001600160a01b03168152602090f35b346105ea575f3660031901126105ea57611e8d6107e842613feb565b611e9561401d565b90805f52600660205260405f205482018092116108195760018101809111610819575f52600660205260405f2054810180911161081957604051908152602090f35b346105ea5760403660031901126105ea57602060ff611f29602435611efb81610662565b6004355f525f80516020614cd9833981519152845260405f209060018060a01b03165f5260205260405f2090565b54166040519015158152f35b346105ea575f3660031901126105ea576020601254604051908152f35b346105ea575f3660031901126105ea576020601154604051908152f35b346105ea5760203660031901126105ea57600435611f8c81610662565b60018060a01b03165f52600e60205260206109a260405f20614105565b346105ea576040806003193601126105ea57600435611fc781610662565b6024356001600160401b0381116105ea575f8061206593611fee6080943690600401611102565b908188519283928337810184815203915af43d1561206d5760203d612012816108d9565b9061201f875192836108a9565b81523d5f8383013e5b8551958693151583850152808401528051918291826060860152018484015e5f838284010152601f801991011681010360608101845201826108a9565b805190602001fd5b60206060612028565b346105ea575f3660031901126105ea57602065ffffffffffff60015460a01c16604051908152f35b346105ea575f3660031901126105ea57602060ff5f5460081c166040519015158152f35b346105ea575f3660031901126105ea5760206040515f8152f35b346105ea575f3660031901126105ea5760206040517f4a634bc14d77baf979756509ef4298c6f6318af357828612545267ee2eb792338152f35b346105ea5760403660031901126105ea5760043561213381610662565b60243561213f81610ad8565b6121476132c3565b61214f61386d565b6001600160a01b0382169182156121e9575f8381526005602052604090205460ff16151582151514610b6b576001600160a01b03165f9081526005602052604090207ff991b1ecfb5115cbb36a2b2e2240c058406d2acc2fcc6e9e2dc99d845ff70a62916121de916121cc908260ff801983541691151516179055565b60405190151581529081906020820190565b0390a26109f66132f2565b604051630da30f6560e31b8152600490fd5b346105ea5760403660031901126105ea57602061223f60243561221d81610662565b6004355f526008835260405f209060018060a01b03165f5260205260405f2090565b54604051908152f35b346105ea5760403660031901126105ea57602060ff611f2960243561226c81610662565b6004355f526009845260405f209060018060a01b03165f5260205260405f2090565b346105ea575f3660031901126105ea5760206040517fc9feed28b4b1a1d11c6791da7bb7f6b8d33e831a4992a9383dead1ec2c82c35a8152f35b346105ea575f3660031901126105ea576016546040516001600160a01b039091168152602090f35b346105ea5760203660031901126105ea5760206108096004356130f1565b346105ea576020806003193601126105ea57600480359061232e82610662565b6123366132c3565b60035460a01c60ff166124a8576001600160a01b03828116939084612396575b6003805460ff60a01b1916600160a01b179055847fe7e4c932e03abddfe20f83af42c33627e816115c7ec2b168441f65dc14bfc3ba5f80a26109f66132f2565b6040516302910f8b60e31b81526001600160a01b0385168482019081528390829081906020010381857f0000000000000000000000000000000000000000000000000000000000000000165afa908115610de9575f9161248b575b501561247a5760405163fbfa77cf60e01b815282818581895afa928315610de9575f9361245b575b50503091160361244c5750600380546001600160a01b0319166001600160a01b039092169190911790555f808080612356565b604051633f3e089160e21b8152fd5b612472929350803d10611a8657611a7681836108a9565b905f80612419565b60405163dabc4ad960e01b81528390fd5b6124a29150833d8511611ac357611ab581836108a9565b5f6123f1565b60405163703fe2e560e01b8152fd5b346105ea5760403660031901126105ea576004356124d481610662565b602435906124e06132c3565b6001600160a01b0391818316908115612566576125116107129461250383613f4f565b9485915f5460101c16613deb565b604080519182526020820184905233917f865ca08d59f5cb456e85cd2f7ef63664ea4f73327414e9d8152c4158b0e946459190a360015f80516020614cf9833981519152556040519081529081906020820190565b604051634e46966960e11b8152600490fd5b346105ea5760203660031901126105ea576004355f526007602052602060405f2054604051908152f35b346105ea575f3660031901126105ea576003546040516001600160a01b039091168152602090f35b346105ea575f3660031901126105ea576020600f54604051908152f35b346105ea575f3660031901126105ea5760206040517fc9078c78bcaac2be1c77c160c539a489be2b72939771b1a6302fed3e2150c7458152f35b346105ea575f3660031901126105ea5760206109a261401d565b346105ea5760203660031901126105ea576004356126576132c3565b335f9081527f2d4ccbfe9f7672a6f2537c1e5bce6adacb73706879154bbab6ce096012d6721660205260409020547f4a634bc14d77baf979756509ef4298c6f6318af357828612545267ee2eb792339060ff1615610fe457508060045414610b6b576020817f854df3eb95564502c8bc871ebdd15310ee26270f955f6c6bd8cea68e75045bc092600455604051908152a160015f80516020614cf983398151915255005b346105ea575f3660031901126105ea5760206109a2614091565b346105ea575f3660031901126105ea57602065ffffffffffff60135460901c16604051908152f35b346105ea5760203660031901126105ea5760043561275a81610662565b6127666107e842613feb565b61276f82612d4c565b9161277a8183613265565b830180931161081957600182018092116108195761279791613265565b810180911161081957602090604051908152f35b346105ea575f3660031901126105ea576020601054604051908152f35b346105ea575f3660031901126105ea5760206109a26131c9565b346105ea575f3660031901126105ea57602065ffffffffffff60135460601c16604051908152f35b346105ea575f3660031901126105ea576002546040516001600160a01b039091168152602090f35b346105ea5760403660031901126105ea576109f660243560043561285582610662565b805f525f80516020614cd9833981519152602052612879600160405f2001546138c4565b61398b565b346105ea5760203660031901126105ea5760043561289a6132c3565b335f9081527f82a1dc868a49801aa31c5dd393dc0b9005735300cdcd4bbc1af68215effcd6f860205260409020547fc9078c78bcaac2be1c77c160c539a489be2b72939771b1a6302fed3e2150c7459060ff1615610fe457508060155414610b6b576020817f85370e46fb038a73f13e1c280ffc745e71ff72b4ea57b15c6eca3749d73c0cb892601555604051908152a160015f80516020614cf983398151915255005b346105ea575f3660031901126105ea575f5460405160109190911c6001600160a01b03168152602090f35b346105ea5760403660031901126105ea5760206109a260043561298b81610662565b60243590613209565b346105ea575f3660031901126105ea5760206040517fbae4ee3de6c709ff9a002e774c5b78cb381560b219213c88ae0f1e207c03c0238152f35b346105ea575f3660031901126105ea576020601554604051908152f35b346105ea575f3660031901126105ea576020604051633b9aca008152f35b346105ea575f3660031901126105ea576020600454604051908152f35b346105ea5760603660031901126105ea57600435612a4381610662565b612a4b610830565b6001600160401b0391906044358381116105ea57612a6d903690600401611102565b90926040938451612a7d8161086e565b60608152606060208201526060868201529280612adc575b61071286612acd8787612ac7612aae8984845191612c70565b9285612abe60208501518361358a565b930151906134b4565b91614158565b90519081529081906020820190565b81019392506020818503126105ea578035908682116105ea5701926060848203126105ea57845195612b0d8761086e565b84358181116105ea5782612b229187016108f4565b875260208501358181116105ea5782612b3c9187016108f4565b6020880152858501359081116105ea5761071296612b65612ac793612aae93612acd98016108f4565b87820152939450612a95565b346105ea5760403660031901126105ea57600435612b8e81610662565b602435612b996132c3565b6001600160a01b0382161561073d578015612c0557612bc8612bb9614091565b612bc161401d565b908361459b565b335f908152600e60205260409020909290612be290614105565b8311612bf3576106f8918391613305565b6040516321727a3760e11b8152600490fd5b604051636c6c627d60e11b8152600490fd5b346105ea5760403660031901126105ea5760206109a2602435612c3981610662565b600435613265565b634e487b7160e01b5f52601160045260245ffd5b5f1981019190821161081957565b9190820391821161081957565b6001600160a01b03165f908152600e60205260409020610ee592919061363f565b65ffffffffffff8060135460601c169081158015612cbe575b612cb2575090565b905060015460a01c1690565b508181612cca42613feb565b1610612caa565b908160209103126105ea575190565b6040513d5f823e3d90fd5b906001820180921161081957565b9190820180921161081957565b60135465ffffffffffff90818160601c168015908115612d38575b50612d2d5760901c1690565b505060015460d01c90565b905082612d4442613feb565b16105f612d21565b6001600160a01b03165f908152600e60205260409020612d6b90614105565b612d7361401d565b612d7b614091565b9060018101809111610819576001820180921161081957610ee592613ec2565b94919286949160c0979460018060a01b0380921688521660208701526040860152606085015260a060808501528160a0850152848401375f828201840152601f01601f1916010190565b601654612df69060a01c60ff161590565b612e5c575f5460101c6001600160a01b0390811691168103612e5c576040516370a0823160e01b815230600482015290602090829060249082905afa908115610de9575f91612e43575090565b610ee5915060203d602011610de257610dd381836108a9565b505f90565b65ffffffffffff918216908216039190821161081957565b634e487b7160e01b5f52601260045260245ffd5b9065ffffffffffff809116918215612ea457160490565b612e79565b60015465ffffffffffff808316929160a081901c821680851015612f215750506013549281841690818015918215612f17575b5050612f0557610ee5936117b292612efa611bed9360125496612e61565b9160301c1690612e8d565b60405163b7d0949760e01b8152600490fd5b109050815f612edc565b909160135490808260601c1695868015918215612f8a575b505015612f65575050610ee593506117b291612f5b611bed9260115495612e61565b9060d01c90612e8d565b6117b29350611bed9250612f7f610ee59660145496612e61565b9160901c1690612e8d565b109050865f612f39565b90612f9d6132c3565b5f926001600160a01b038316928315612566578115613047575f5b82811061302557505f547f326b6aff1cd2fb1c8234de4f9dcfb9047c5c36eb9ef2eb34af5121e969a75d2792869290916130089184916130039060101c6001600160a01b03166111be565b613deb565b613019604051928392339684613082565b0390a3906108d76132f2565b946130406001916117b261303a89878961306d565b35613f4f565b9501612fb8565b60405163edf3b93360e01b8152600490fd5b634e487b7160e01b5f52603260045260245ffd5b919081101561307d5760051b0190565b613059565b604080825281018390529392916001600160fb1b0381116105ea5760209160609160051b809183880137850101930152565b908160209103126105ea5751610ee581610ad8565b908160209103126105ea5751610ee581610662565b8181029291811591840414171561081957565b6012548082106131b757601154808310156131325750611c0590610ee592611bfe6131266013549365ffffffffffff93612c63565b828460301c16906130de565b9050601454801580156131ae575b156131785750610ee59165ffffffffffff61316e613164611c059460015494612c63565b8360d01c906130de565b9160a01c16612cf9565b611c059150610ee5926131a46131986013549365ffffffffffff93612c63565b828460901c16906130de565b9160601c16612cf9565b50808310613140565b60405163d5b25b6360e01b8152600490fd5b65ffffffffffff8060135460601c1680159182156131f4575b50506131ee5760105490565b600f5490565b90915061320042613feb565b16105f806131e2565b5f546001600160a01b039160109190911c821690821603613253576016541661323157505f90565b633b9aca006015546132438184613e44565b9209151581018091116108195790565b60405163350b944160e11b8152600490fd5b9061328b90825f52600860205260405f209060018060a01b03165f5260205260405f2090565b54905f52600660205260405f2054600760205260405f20549060018101809111610819576001820180921161081957610ee592613ec2565b5f80516020614cf983398151915260028154146132e05760029055565b604051633ee5aeb560e01b8152600490fd5b60015f80516020614cf983398151915255565b335f908152600e602052604090209392919061332042613feb565b335f908152600e6020526040902061333790614105565b91848303928311610819576133727febff2602b3f468259e1e99f613fed6691f3a6526effe6ef3e768ba7ae7a36c4f93859361340199613d2d565b505061338c61338042613feb565b610cdd8761174c614091565b50506133a661339a42613feb565b610cc88461174c61401d565b505061344f8161343a6133c36133be6107e842613feb565b612ceb565b6134196133d8825f52600660205260405f2090565b546133eb835f52600760205260405f2090565b546133f782828b614158565b9d8e998a93612cf9565b613413855f52600660205260405f2090565b55612cf9565b61342b825f52600760205260405f2090565b555f52600860205260405f2090565b9060018060a01b03165f5260205260405f2090565b61345a838254612cf9565b9055604080519485526020850195909552938301526001600160a01b03909216913391606090a3565b908160209103126105ea575163ffffffff811681036105ea5790565b90600163ffffffff8093160191821161081957565b9080511561358057806020806134cf93518301019101613483565b6134d8816143c9565b906134e9825165ffffffffffff1690565b9065ffffffffffff8085169216828114613574578211918261351f575b50506135165750610ee590614179565b60209150015190565b90915061352d600a54612c55565b63ffffffff831614918215613546575b50505f80613506565b61356c91925061356061355b611bed9261349f565b6143c9565b5165ffffffffffff1690565b115f8061353d565b50505060209150015190565b50610ee590614179565b9080511561363557806020806135a593518301019101613483565b6135ae81614453565b906135bf825165ffffffffffff1690565b9065ffffffffffff808516921682811461357457821191826135ec575b50506135165750610ee590614240565b9091506135fa600c54612c55565b63ffffffff831614918215613613575b50505f806135dc565b61362d919250613560613628611bed9261349f565b614453565b115f8061360a565b50610ee590614240565b91805115613701578060208061365a93518301019101613483565b9161366583826144d3565b92613676845165ffffffffffff1690565b9065ffffffffffff80851692168281146136f557821191826136ac575b50506136a357610ee59250614300565b50506020015190565b9091506136b98354612c55565b63ffffffff8316149182156136d2575b50505f80613693565b6136ed9192506135606136e7611bed9261349f565b856144d3565b115f806136c9565b50505050506020015190565b50610ee591614300565b335f9081527f03b26b53c87faa1058f30bb5d2fee64f717719a0d9b7e4f4df027aa5e9b6ed69602052604090207fbae4ee3de6c709ff9a002e774c5b78cb381560b219213c88ae0f1e207c03c0239060ff905b541615610fe45750565b335f9081527fe41986b390c4ce6791b87f7423b5fab7a81a0e6d89660b6264f697d008b2243a602052604090207fc6aaadd7371d5e8f9ed6849dd66a66573a3ba37167d03f4352c9ba5693678fac9060ff9061375e565b335f9081527f99e47f2907af87dbb5c62e22bd8ea822f5011dfd1e243469ce26ebebf3ab93e3602052604090207f591f6a0113ada8aff67efadec8ae2fa585cb4ebf4e1f8fc1205ffbeff98d00ec9060ff9061375e565b335f9081527f665296150f4083bfe5a58682f99690b24ea27a3f56243679fa9797c6a16217aa602052604090207fc9feed28b4b1a1d11c6791da7bb7f6b8d33e831a4992a9383dead1ec2c82c35a9060ff9061375e565b335f9081527f0287ab4cb376ea253d7b2ce0c2cbf458f7deae9458470d74afdfbbee484e9540602052604090207f9c56d972d63cbb4195b3c1484691dfc220fa96a4c47e7b6613bd82a022029e069060ff9061375e565b5f8181525f80516020614cd983398151915260209081526040808320338452909152902060ff9061375e565b5f8181525f80516020614cd9833981519152602081815260408084206001600160a01b03871685529091529091205460ff16613984575f828152602091825260408082206001600160a01b038616835290925220805460ff1916600117905533916001600160a01b0316907f2f8788117e7eff1d82e926ec794901d17c78024a50270940304540a733656f0d5f80a4600190565b5050505f90565b5f8181525f80516020614cd9833981519152602081815260408084206001600160a01b03871685529091529091205460ff1615613984575f828152602091825260408082206001600160a01b038616835290925220805460ff1916905533916001600160a01b0316907ff6391f5c32d9c69d2a47ea670b442974b53935d1edc7fd64eb21e047a839171b5f80a4600190565b6040516323b872dd60e01b60208201526001600160a01b03928316602482015292909116604483015260648083019390935291815260a08101918183106001600160401b03841117610889576108d792604052614541565b600b5481101561307d57600b5f525f80516020614cb983398151915201905f90565b600d5481101561307d57600d5f525f80516020614c9983398151915201905f90565b805482101561307d575f5260205f2001905f90565b600d54600160401b811015610889576001810180600d5581101561307d57600d5f525f80516020614c998339815191520155565b600b54600160401b811015610889576001810180600b5581101561307d57600b5f525f80516020614cb98339815191520155565b90815491600160401b8310156108895782613b599160016108d795018155613ab9565b90919082549060031b91821b915f19901b1916179055565b919091600d9081548015613c1c575b50613b896145d4565b50929091815492613b9861401d565b9481613c07575b5015613be457505f198201828111610819578154111561307d575f527fd7b6990105719101dabeb77144f2a3385c8033acd3af97e9423a695e81ad1eb4018390559190565b613bf8926001600160d01b031691506147d0565b5050613c0383613ace565b9190565b65ffffffffffff83811691161490505f613b9f565b600160401b811015610889576001810180845581101561307d575f908382525f80516020614c9983398151915201555f613b80565b919091600b9081548015613cf8575b50613c69614629565b50929091815492613c78614091565b9481613ce3575b5015613cc457505f198201828111610819578154111561307d575f527f0175b7a638427703f0dbe7bb9bbf987a2551717b34e79f33b5b1008d1fa01db8018390559190565b613cd8926001600160d01b031691506148a0565b5050613c0383613b02565b65ffffffffffff83811691161490505f613c7f565b600160401b811015610889576001810180845581101561307d575f908382525f80516020614cb983398151915201555f613c60565b90929192600182019081548015613dbb575b5084613d4a8461467e565b50949092845493613d5a83614105565b9681613da6575b5015613d83575050505f19810190811161081957613b598591613c0393613ab9565b613c03949293613d9f926001600160d01b03909116919061493f565b5050613b36565b65ffffffffffff83811691161490505f613d61565b600160401b81101561088957806001613dd79201845583613ab9565b8154905f199060031b1b191690555f613d3f565b60405163a9059cbb60e01b60208201526001600160a01b03909216602483015260448083019390935291815260808101916001600160401b03831182841017610889576108d792604052614541565b8115612ea4570490565b90808202905f1981840990828083109203918083039214613eb557633b9aca009082821115613ea3577f88f2cfb83100cb4e69e7c79c58b316e597157d372fb9787e8e47ce423a2e9c6d940990828211900360f71b910360091c170290565b634e487b715f5260116020526024601cfd5b5050633b9aca0091500490565b91818302915f1981850993838086109503948086039514613f425784831115613f355790829109815f038216809204600280826003021880830282030280830282030280830282030280830282030280830282030280920290030293600183805f03040190848311900302920304170290565b82156003026011186146b7565b505090610ee59250613e3a565b90613f5c6107e842613feb565b8210156131b75760ff613f8c613f7a845f52600960205260405f2090565b335f9081526020919091526040902090565b5416613fd957613f9c3383613265565b918215613fc757613fba9061343a33915f52600960205260405f2090565b805460ff19166001179055565b6040516366c0bcbf60e11b8152600490fd5b604051630c8d9eab60e31b8152600490fd5b65ffffffffffff90818111613ffe571690565b604490604051906306dfcc6560e41b8252603060048301526024820152fd5b600c548061405857505f5b6001600160d01b03811615612e5c57600d5481101561307d57600d5f525f80516020614c99833981519152015490565b805f1981011161081957600c5f527fdf6966c971051c3d54ec59162606531493a51404a002842f56009d7e5cf4a8c6015460301c614028565b600a54806140cc57505f5b6001600160d01b03811615612e5c57600b5481101561307d57600b5f525f80516020614cb9833981519152015490565b805f1981011161081957600a5f527fc65a7bb8d6351c1cf70c95a316cc6a92839c986682d98bc35f958f4883f9d2a7015460301c61409c565b80548061413a57505f5b6001600160d01b0381161561413457600161412a9201613ab9565b90549060031b1c90565b50505f90565b5f1990808281011161081957825f5260205f2001015460301c61410f565b919060018101809111610819576001820180921161081957610ee592613ec2565b600a54905f8291600584116141e7575b6141939350614b24565b806141b657505f5b6001600160d01b03811615612e5c5761412a610ee591613a75565b6141db6141c56141e292612c55565b600a5f525f80516020614c798339815191520190565b5460301c90565b61419b565b91926141f2816149f9565b81039081116108195761419393600a5f5265ffffffffffff80835f80516020614c79833981519152015416908516105f1461422e575091614189565b92915061423a90612ceb565b90614189565b600c54905f8291600584116142a7575b61425a9350614b8d565b8061427d57505f5b6001600160d01b03811615612e5c5761412a610ee591613a97565b6141db61428c6142a292612c55565b600c5f525f80516020614c598339815191520190565b614262565b91926142b2816149f9565b81039081116108195761425a93600c5f5265ffffffffffff80835f80516020614c59833981519152015416908516105f146142ee575091614250565b9291506142fa90612ceb565b90614250565b908154905f829160058411614363575b61431b935084614bf6565b8061434357505f905b6001600160d01b0382161561413457610ee591600161412a9201613ab9565b6141db61435261435d92612c55565b835f5260205f200190565b90614324565b919261436e816149f9565b81039081116108195761431b93855f5265ffffffffffff808360205f20015416908516105f1461439f575091614310565b9291506143ab90612ceb565b90614310565b604051906143be8261088e565b5f6020838281520152565b6143d16143b1565b506143da6143b1565b50600a5481101561307d57600a5f526020604051916143f88361088e565b5f80516020614c7983398151915201549165ffffffffffff83169283825260301c9182910152600b5481101561307d57600b5f525f80516020614cb98339815191520154604051916144498361088e565b8252602082015290565b61445b6143b1565b506144646143b1565b50600c5481101561307d57600c5f526020604051916144828361088e565b5f80516020614c5983398151915201549165ffffffffffff83169283825260301c9182910152600d5481101561307d57600d5f525f80516020614c998339815191520154604051916144498361088e565b90602060016144f7614523936144e76143b1565b506144f06143b1565b5085613ab9565b5093604051946145068661088e565b549465ffffffffffff86169586825260301c938491015201613ab9565b905490604051926145338461088e565b835260031b1c602082015290565b905f602091828151910182855af115612ce0575f513d61459257506001600160a01b0381163b155b6145705750565b604051635274afe760e01b81526001600160a01b039091166004820152602490fd5b60011415614569565b9190600181018091116108195760018201809211610819576145be828285613ec2565b928215612ea45709151581018091116108195790565b600c54806145e557505f905f905f90565b805f1981011161081957600c5f527fdf6966c971051c3d54ec59162606531493a51404a002842f56009d7e5cf4a8c6015460019165ffffffffffff82169160301c90565b600a548061463a57505f905f905f90565b805f1981011161081957600a5f527fc65a7bb8d6351c1cf70c95a316cc6a92839c986682d98bc35f958f4883f9d2a7015460019165ffffffffffff82169160301c90565b80548061468f5750505f905f905f90565b5f19918183810111610819575f5260205f2001015460019165ffffffffffff82169160301c90565b634e487b715f526020526024601cfd5b600c5490600160401b821015610889576001820180600c5582101561307d57600c5f52805160209091015160301b65ffffffffffff191665ffffffffffff91909116175f80516020614c5983398151915290910155565b600a5490600160401b821015610889576001820180600a5582101561307d57600a5f52805160209091015160301b65ffffffffffff191665ffffffffffff91909116175f80516020614c7983398151915290910155565b8054600160401b8110156108895761479291600182018155613ab9565b6147bd57815160209092015160301b65ffffffffffff191665ffffffffffff92909216919091179055565b634e487b7160e01b5f525f60045260245ffd5b600c5491929180156148775761428c6147e891612c55565b9081549165ffffffffffff908184169183168083116148655786920361482d5761482692509065ffffffffffff82549181199060301b169116179055565b60301c9190565b50506148609061484c61483e6108ca565b65ffffffffffff9092168252565b6001600160d01b03851660208201526146c7565b614826565b604051632520601d60e01b8152600490fd5b5061489b9061488761483e6108ca565b6001600160d01b03841660208201526146c7565b5f9190565b600a54919291801561491b576141c56148b891612c55565b9081549165ffffffffffff90818416918316808311614865578692036148f65761482692509065ffffffffffff82549181199060301b169116179055565b50506148609061490761483e6108ca565b6001600160d01b038516602082015261471e565b5061489b9061492b61483e6108ca565b6001600160d01b038416602082015261471e565b805492939280156149d45761495661496191612c55565b825f5260205f200190565b9182549265ffffffffffff91828516928116808411614865578793036149a0575061482692509065ffffffffffff82549181199060301b169116179055565b915050614860916149c06149b26108ca565b65ffffffffffff9093168352565b6001600160d01b0386166020830152614775565b509061489b916149e56149b26108ca565b6001600160d01b0385166020830152614775565b6001811115610ee557600181600160801b811015614b12575b614aba614ab0614aa6614a9c614a92614a88614ac697600488600160401b614ac19a1015614b05575b640100000000811015614af8575b62010000811015614aeb575b610100811015614adf575b6010811015614ad3575b1015614acb575b60030260011c614a81818b613e3a565b0160011c90565b614a81818a613e3a565b614a818189613e3a565b614a818188613e3a565b614a818187613e3a565b614a818186613e3a565b8093613e3a565b821190565b900390565b60011b614a71565b811c9160021b91614a6a565b60081c91811b91614a60565b60101c9160081b91614a55565b60201c9160101b91614a49565b60401c9160201b91614a3b565b50600160401b9050608082901c614a12565b905b828110614b3257505090565b9091808216906001818418811c830180931161081957600a5f5265ffffffffffff80845f80516020614c79833981519152015416908616105f14614b7a575050915b90614b26565b9093925081018091116108195790614b74565b905b828110614b9b57505090565b9091808216906001818418811c830180931161081957600c5f5265ffffffffffff80845f80516020614c59833981519152015416908616105f14614be3575050915b90614b8f565b9093925081018091116108195790614bdd565b91905b838210614c065750505090565b909192808316906001818518811c830180931161081957855f5265ffffffffffff808460205f20015416908516105f14614c45575050925b9190614bf9565b9094935081018091116108195791614c3e56fedf6966c971051c3d54ec59162606531493a51404a002842f56009d7e5cf4a8c7c65a7bb8d6351c1cf70c95a316cc6a92839c986682d98bc35f958f4883f9d2a8d7b6990105719101dabeb77144f2a3385c8033acd3af97e9423a695e81ad1eb50175b7a638427703f0dbe7bb9bbf987a2551717b34e79f33b5b1008d1fa01db902dd7bc7dec4dceedda775e58dd541e08a116c6c53815c0bd028192f7b6268009b779b17422d0df92223018b32b4d1fa46e071723d6817e2486d003becc55f00a264697066735822122082ca328ab99bb196c5160d9392504efc8b6e6656a057ff32d8ed717ebed826c864736f6c63430008190033","linkReferences":{}},"methodIdentifiers":{"DEFAULT_ADMIN_ROLE()":"a217fddf","DELEGATOR_FACTORY()":"6da3e06d","DEPOSITOR_WHITELIST_ROLE()":"1b66c9e1","DEPOSIT_LIMIT_SET_ROLE()":"a21a1df9","DEPOSIT_WHITELIST_SET_ROLE()":"db388715","EPOCH_DURATION_SET_ROLE()":"61819dd8","FLASH_FEE_BASE()":"ecc98f05","FLASH_FEE_RATE_SET_ROLE()":"bc46f722","FLASH_FEE_RECEIVER_SET_ROLE()":"31d9736c","FLASH_LOAN_ENABLED_SET_ROLE()":"a66b3a73","IS_DEPOSIT_LIMIT_SET_ROLE()":"1415519b","RETURN_VALUE()":"653b04cd","SLASHER_FACTORY()":"87df0788","_epochDuration()":"2fa27fae","_epochDurationInit()":"9f9962dd","_epochDurationInitIndex()":"9b4bae3e","_epochDurationSetEpochsDelay()":"bba6ff4a","_nextEpochDuration()":"c1bc6f51","_nextEpochDurationInit()":"cc52aee7","_nextEpochDurationSetEpochsDelay()":"c4db46fc","_nextEpochInitIndex()":"2749f9c4","_prevEpochDuration()":"5a36aa74","_prevEpochDurationInit()":"6e0f2455","_prevEpochDurationInitIndex()":"98ccba4a","activeBalanceOf(address)":"59f769a9","activeBalanceOfAt(address,uint48,bytes)":"efb559d6","activeShares()":"bfefcd7b","activeSharesAt(uint48,bytes)":"50f22068","activeSharesOf(address)":"9d66201b","activeSharesOfAt(address,uint48,bytes)":"2d73c69c","activeStake()":"bd49c35f","activeStakeAt(uint48,bytes)":"810da75d","burner()":"27810b6e","claim(address,uint256)":"aad3ec96","claimBatch(address,uint256[])":"7c04c80a","collateral()":"d8dfeb45","currentEpoch()":"76671808","currentEpochStart()":"61a8c8c4","delegator()":"ce9b7930","deposit(address,uint256)":"47e7ef24","depositLimit()":"ecf70858","depositWhitelist()":"48d3b775","epochAt(uint48)":"7953b33b","epochDuration()":"4ff0876a","epochDurationInit()":"46361671","epochDurationSetEpochsDelay()":"c642b050","epochStart(uint256)":"aa9354a3","flashFee(address,uint256)":"d9d98ce4","flashFeeRate()":"e945da7f","flashFeeReceiver()":"a8b24f9a","flashLoan(address,address,uint256,bytes)":"5cffe9de","flashLoanEnabled()":"65d61c6c","getRoleAdmin(bytes32)":"248a9ca3","grantRole(bytes32,address)":"2f2ff15d","hasRole(bytes32,address)":"91d14854","isDelegatorInitialized()":"50861adc","isDepositLimit()":"a1b12202","isDepositorWhitelisted(address)":"794b15b7","isInitialized()":"392e53cd","isSlasherInitialized()":"6ec1e3f8","isWithdrawalsClaimed(uint256,address)":"a5d03223","maxFlashLoan(address)":"613255ab","nextEpochStart()":"73790ab3","onSlash(uint256,uint48)":"7278e31c","previousEpochStart()":"281f5752","redeem(address,uint256)":"1e9a6950","renounceRole(bytes32,address)":"36568abe","revokeRole(bytes32,address)":"d547741f","setDelegator(address)":"83cd9cc3","setDepositLimit(uint256)":"bdc8144b","setDepositWhitelist(bool)":"4105a7dd","setDepositorWhitelistStatus(address,bool)":"a2861466","setEpochDuration(uint48,uint256)":"83f46c2c","setFlashFeeRate(uint256)":"d626811b","setFlashFeeReceiver(address)":"52741a40","setFlashloanEnabled(bool)":"859b9344","setIsDepositLimit(bool)":"5346e34f","setSlasher(address)":"aabc2496","slashableBalanceOf(address)":"c31e8dd7","slasher()":"b1344271","staticDelegateCall(address,bytes)":"9f86fd85","supportsInterface(bytes4)":"01ffc9a7","totalStake()":"8b0e9f3f","withdraw(address,uint256)":"f3fef3a3","withdrawalShares(uint256)":"afba70ad","withdrawalSharesOf(uint256,address)":"a3b54172","withdrawals(uint256)":"5cc07076","withdrawalsOf(uint256,address)":"f5e7ee0f"},"id":107}