{"abi":[{"type":"constructor","inputs":[{"name":"vaultFactory","type":"address","internalType":"address"},{"name":"delegatorFactory","type":"address","internalType":"address"},{"name":"slasherFactory","type":"address","internalType":"address"}],"stateMutability":"nonpayable"},{"type":"function","name":"DEFAULT_ADMIN_ROLE","inputs":[],"outputs":[{"name":"","type":"bytes32","internalType":"bytes32"}],"stateMutability":"view"},{"type":"function","name":"DELEGATOR_FACTORY","inputs":[],"outputs":[{"name":"","type":"address","internalType":"address"}],"stateMutability":"view"},{"type":"function","name":"DEPOSITOR_WHITELIST_ROLE","inputs":[],"outputs":[{"name":"","type":"bytes32","internalType":"bytes32"}],"stateMutability":"view"},{"type":"function","name":"DEPOSIT_LIMIT_SET_ROLE","inputs":[],"outputs":[{"name":"","type":"bytes32","internalType":"bytes32"}],"stateMutability":"view"},{"type":"function","name":"DEPOSIT_WHITELIST_SET_ROLE","inputs":[],"outputs":[{"name":"","type":"bytes32","internalType":"bytes32"}],"stateMutability":"view"},{"type":"function","name":"EPOCH_DURATION_SET_ROLE","inputs":[],"outputs":[{"name":"","type":"bytes32","internalType":"bytes32"}],"stateMutability":"view"},{"type":"function","name":"FLASH_FEE_BASE","inputs":[],"outputs":[{"name":"","type":"uint256","internalType":"uint256"}],"stateMutability":"view"},{"type":"function","name":"FLASH_FEE_RATE_SET_ROLE","inputs":[],"outputs":[{"name":"","type":"bytes32","internalType":"bytes32"}],"stateMutability":"view"},{"type":"function","name":"FLASH_FEE_RECEIVER_SET_ROLE","inputs":[],"outputs":[{"name":"","type":"bytes32","internalType":"bytes32"}],"stateMutability":"view"},{"type":"function","name":"FLASH_LOAN_ENABLED_SET_ROLE","inputs":[],"outputs":[{"name":"","type":"bytes32","internalType":"bytes32"}],"stateMutability":"view"},{"type":"function","name":"IS_DEPOSIT_LIMIT_SET_ROLE","inputs":[],"outputs":[{"name":"","type":"bytes32","internalType":"bytes32"}],"stateMutability":"view"},{"type":"function","name":"RETURN_VALUE","inputs":[],"outputs":[{"name":"","type":"bytes32","internalType":"bytes32"}],"stateMutability":"view"},{"type":"function","name":"SLASHER_FACTORY","inputs":[],"outputs":[{"name":"","type":"address","internalType":"address"}],"stateMutability":"view"},{"type":"function","name":"_Vault_init","inputs":[{"name":"","type":"bytes","internalType":"bytes"}],"outputs":[],"stateMutability":"nonpayable"},{"type":"function","name":"_epochDuration","inputs":[],"outputs":[{"name":"","type":"uint48","internalType":"uint48"}],"stateMutability":"view"},{"type":"function","name":"_epochDurationInit","inputs":[],"outputs":[{"name":"","type":"uint48","internalType":"uint48"}],"stateMutability":"view"},{"type":"function","name":"_epochDurationInitIndex","inputs":[],"outputs":[{"name":"","type":"uint256","internalType":"uint256"}],"stateMutability":"view"},{"type":"function","name":"_epochDurationSetEpochsDelay","inputs":[],"outputs":[{"name":"","type":"uint256","internalType":"uint256"}],"stateMutability":"view"},{"type":"function","name":"_nextEpochDuration","inputs":[],"outputs":[{"name":"","type":"uint48","internalType":"uint48"}],"stateMutability":"view"},{"type":"function","name":"_nextEpochDurationInit","inputs":[],"outputs":[{"name":"","type":"uint48","internalType":"uint48"}],"stateMutability":"view"},{"type":"function","name":"_nextEpochDurationSetEpochsDelay","inputs":[],"outputs":[{"name":"","type":"uint256","internalType":"uint256"}],"stateMutability":"view"},{"type":"function","name":"_nextEpochInitIndex","inputs":[],"outputs":[{"name":"","type":"uint256","internalType":"uint256"}],"stateMutability":"view"},{"type":"function","name":"_prevEpochDuration","inputs":[],"outputs":[{"name":"","type":"uint48","internalType":"uint48"}],"stateMutability":"view"},{"type":"function","name":"_prevEpochDurationInit","inputs":[],"outputs":[{"name":"","type":"uint48","internalType":"uint48"}],"stateMutability":"view"},{"type":"function","name":"_prevEpochDurationInitIndex","inputs":[],"outputs":[{"name":"","type":"uint256","internalType":"uint256"}],"stateMutability":"view"},{"type":"function","name":"activeBalanceOf","inputs":[{"name":"account","type":"address","internalType":"address"}],"outputs":[{"name":"","type":"uint256","internalType":"uint256"}],"stateMutability":"view"},{"type":"function","name":"activeBalanceOfAt","inputs":[{"name":"account","type":"address","internalType":"address"},{"name":"timestamp","type":"uint48","internalType":"uint48"},{"name":"hints","type":"bytes","internalType":"bytes"}],"outputs":[{"name":"","type":"uint256","internalType":"uint256"}],"stateMutability":"view"},{"type":"function","name":"activeShares","inputs":[],"outputs":[{"name":"","type":"uint256","internalType":"uint256"}],"stateMutability":"view"},{"type":"function","name":"activeSharesAt","inputs":[{"name":"timestamp","type":"uint48","internalType":"uint48"},{"name":"hint","type":"bytes","internalType":"bytes"}],"outputs":[{"name":"","type":"uint256","internalType":"uint256"}],"stateMutability":"view"},{"type":"function","name":"activeSharesOf","inputs":[{"name":"account","type":"address","internalType":"address"}],"outputs":[{"name":"","type":"uint256","internalType":"uint256"}],"stateMutability":"view"},{"type":"function","name":"activeSharesOfAt","inputs":[{"name":"account","type":"address","internalType":"address"},{"name":"timestamp","type":"uint48","internalType":"uint48"},{"name":"hint","type":"bytes","internalType":"bytes"}],"outputs":[{"name":"","type":"uint256","internalType":"uint256"}],"stateMutability":"view"},{"type":"function","name":"activeStake","inputs":[],"outputs":[{"name":"","type":"uint256","internalType":"uint256"}],"stateMutability":"view"},{"type":"function","name":"activeStakeAt","inputs":[{"name":"timestamp","type":"uint48","internalType":"uint48"},{"name":"hint","type":"bytes","internalType":"bytes"}],"outputs":[{"name":"","type":"uint256","internalType":"uint256"}],"stateMutability":"view"},{"type":"function","name":"burner","inputs":[],"outputs":[{"name":"","type":"address","internalType":"address"}],"stateMutability":"view"},{"type":"function","name":"claim","inputs":[{"name":"recipient","type":"address","internalType":"address"},{"name":"epoch","type":"uint256","internalType":"uint256"}],"outputs":[{"name":"amount","type":"uint256","internalType":"uint256"}],"stateMutability":"nonpayable"},{"type":"function","name":"claimBatch","inputs":[{"name":"recipient","type":"address","internalType":"address"},{"name":"epochs","type":"uint256[]","internalType":"uint256[]"}],"outputs":[{"name":"amount","type":"uint256","internalType":"uint256"}],"stateMutability":"nonpayable"},{"type":"function","name":"collateral","inputs":[],"outputs":[{"name":"","type":"address","internalType":"address"}],"stateMutability":"view"},{"type":"function","name":"currentEpoch","inputs":[],"outputs":[{"name":"","type":"uint256","internalType":"uint256"}],"stateMutability":"view"},{"type":"function","name":"currentEpochStart","inputs":[],"outputs":[{"name":"","type":"uint48","internalType":"uint48"}],"stateMutability":"view"},{"type":"function","name":"delegator","inputs":[],"outputs":[{"name":"","type":"address","internalType":"address"}],"stateMutability":"view"},{"type":"function","name":"deposit","inputs":[{"name":"onBehalfOf","type":"address","internalType":"address"},{"name":"amount","type":"uint256","internalType":"uint256"}],"outputs":[{"name":"depositedAmount","type":"uint256","internalType":"uint256"},{"name":"mintedShares","type":"uint256","internalType":"uint256"}],"stateMutability":"nonpayable"},{"type":"function","name":"depositLimit","inputs":[],"outputs":[{"name":"","type":"uint256","internalType":"uint256"}],"stateMutability":"view"},{"type":"function","name":"depositWhitelist","inputs":[],"outputs":[{"name":"","type":"bool","internalType":"bool"}],"stateMutability":"view"},{"type":"function","name":"epochAt","inputs":[{"name":"timestamp","type":"uint48","internalType":"uint48"}],"outputs":[{"name":"","type":"uint256","internalType":"uint256"}],"stateMutability":"view"},{"type":"function","name":"epochDuration","inputs":[],"outputs":[{"name":"","type":"uint48","internalType":"uint48"}],"stateMutability":"view"},{"type":"function","name":"epochDurationInit","inputs":[],"outputs":[{"name":"","type":"uint48","internalType":"uint48"}],"stateMutability":"view"},{"type":"function","name":"epochDurationSetEpochsDelay","inputs":[],"outputs":[{"name":"","type":"uint256","internalType":"uint256"}],"stateMutability":"view"},{"type":"function","name":"epochStart","inputs":[{"name":"epoch","type":"uint256","internalType":"uint256"}],"outputs":[{"name":"","type":"uint48","internalType":"uint48"}],"stateMutability":"view"},{"type":"function","name":"flashFee","inputs":[{"name":"token","type":"address","internalType":"address"},{"name":"value","type":"uint256","internalType":"uint256"}],"outputs":[{"name":"","type":"uint256","internalType":"uint256"}],"stateMutability":"view"},{"type":"function","name":"flashFeeRate","inputs":[],"outputs":[{"name":"","type":"uint256","internalType":"uint256"}],"stateMutability":"view"},{"type":"function","name":"flashFeeReceiver","inputs":[],"outputs":[{"name":"","type":"address","internalType":"address"}],"stateMutability":"view"},{"type":"function","name":"flashLoan","inputs":[{"name":"receiver","type":"address","internalType":"contract IERC3156FlashBorrower"},{"name":"token","type":"address","internalType":"address"},{"name":"value","type":"uint256","internalType":"uint256"},{"name":"data","type":"bytes","internalType":"bytes"}],"outputs":[{"name":"","type":"bool","internalType":"bool"}],"stateMutability":"nonpayable"},{"type":"function","name":"flashLoanEnabled","inputs":[],"outputs":[{"name":"","type":"bool","internalType":"bool"}],"stateMutability":"view"},{"type":"function","name":"getRoleAdmin","inputs":[{"name":"role","type":"bytes32","internalType":"bytes32"}],"outputs":[{"name":"","type":"bytes32","internalType":"bytes32"}],"stateMutability":"view"},{"type":"function","name":"grantRole","inputs":[{"name":"role","type":"bytes32","internalType":"bytes32"},{"name":"account","type":"address","internalType":"address"}],"outputs":[],"stateMutability":"nonpayable"},{"type":"function","name":"hasRole","inputs":[{"name":"role","type":"bytes32","internalType":"bytes32"},{"name":"account","type":"address","internalType":"address"}],"outputs":[{"name":"","type":"bool","internalType":"bool"}],"stateMutability":"view"},{"type":"function","name":"isDelegatorInitialized","inputs":[],"outputs":[{"name":"","type":"bool","internalType":"bool"}],"stateMutability":"view"},{"type":"function","name":"isDepositLimit","inputs":[],"outputs":[{"name":"","type":"bool","internalType":"bool"}],"stateMutability":"view"},{"type":"function","name":"isDepositorWhitelisted","inputs":[{"name":"account","type":"address","internalType":"address"}],"outputs":[{"name":"value","type":"bool","internalType":"bool"}],"stateMutability":"view"},{"type":"function","name":"isInitialized","inputs":[],"outputs":[{"name":"","type":"bool","internalType":"bool"}],"stateMutability":"view"},{"type":"function","name":"isSlasherInitialized","inputs":[],"outputs":[{"name":"","type":"bool","internalType":"bool"}],"stateMutability":"view"},{"type":"function","name":"isWithdrawalsClaimed","inputs":[{"name":"epoch","type":"uint256","internalType":"uint256"},{"name":"account","type":"address","internalType":"address"}],"outputs":[{"name":"value","type":"bool","internalType":"bool"}],"stateMutability":"view"},{"type":"function","name":"maxFlashLoan","inputs":[{"name":"token","type":"address","internalType":"address"}],"outputs":[{"name":"","type":"uint256","internalType":"uint256"}],"stateMutability":"view"},{"type":"function","name":"nextEpochStart","inputs":[],"outputs":[{"name":"","type":"uint48","internalType":"uint48"}],"stateMutability":"view"},{"type":"function","name":"onSlash","inputs":[{"name":"amount","type":"uint256","internalType":"uint256"},{"name":"captureTimestamp","type":"uint48","internalType":"uint48"}],"outputs":[{"name":"slashedAmount","type":"uint256","internalType":"uint256"}],"stateMutability":"nonpayable"},{"type":"function","name":"previousEpochStart","inputs":[],"outputs":[{"name":"","type":"uint48","internalType":"uint48"}],"stateMutability":"view"},{"type":"function","name":"redeem","inputs":[{"name":"claimer","type":"address","internalType":"address"},{"name":"shares","type":"uint256","internalType":"uint256"}],"outputs":[{"name":"withdrawnAssets","type":"uint256","internalType":"uint256"},{"name":"mintedShares","type":"uint256","internalType":"uint256"}],"stateMutability":"nonpayable"},{"type":"function","name":"renounceRole","inputs":[{"name":"role","type":"bytes32","internalType":"bytes32"},{"name":"callerConfirmation","type":"address","internalType":"address"}],"outputs":[],"stateMutability":"nonpayable"},{"type":"function","name":"revokeRole","inputs":[{"name":"role","type":"bytes32","internalType":"bytes32"},{"name":"account","type":"address","internalType":"address"}],"outputs":[],"stateMutability":"nonpayable"},{"type":"function","name":"setDelegator","inputs":[{"name":"delegator_","type":"address","internalType":"address"}],"outputs":[],"stateMutability":"nonpayable"},{"type":"function","name":"setDepositLimit","inputs":[{"name":"limit","type":"uint256","internalType":"uint256"}],"outputs":[],"stateMutability":"nonpayable"},{"type":"function","name":"setDepositWhitelist","inputs":[{"name":"status","type":"bool","internalType":"bool"}],"outputs":[],"stateMutability":"nonpayable"},{"type":"function","name":"setDepositorWhitelistStatus","inputs":[{"name":"account","type":"address","internalType":"address"},{"name":"status","type":"bool","internalType":"bool"}],"outputs":[],"stateMutability":"nonpayable"},{"type":"function","name":"setEpochDuration","inputs":[{"name":"epochDuration_","type":"uint48","internalType":"uint48"},{"name":"epochDurationSetEpochsDelay_","type":"uint256","internalType":"uint256"}],"outputs":[],"stateMutability":"nonpayable"},{"type":"function","name":"setFlashFeeRate","inputs":[{"name":"flashFeeRate_","type":"uint256","internalType":"uint256"}],"outputs":[],"stateMutability":"nonpayable"},{"type":"function","name":"setFlashFeeReceiver","inputs":[{"name":"flashFeeReceiver_","type":"address","internalType":"address"}],"outputs":[],"stateMutability":"nonpayable"},{"type":"function","name":"setFlashloanEnabled","inputs":[{"name":"status","type":"bool","internalType":"bool"}],"outputs":[],"stateMutability":"nonpayable"},{"type":"function","name":"setIsDepositLimit","inputs":[{"name":"status","type":"bool","internalType":"bool"}],"outputs":[],"stateMutability":"nonpayable"},{"type":"function","name":"setSlasher","inputs":[{"name":"slasher_","type":"address","internalType":"address"}],"outputs":[],"stateMutability":"nonpayable"},{"type":"function","name":"slashableBalanceOf","inputs":[{"name":"account","type":"address","internalType":"address"}],"outputs":[{"name":"","type":"uint256","internalType":"uint256"}],"stateMutability":"view"},{"type":"function","name":"slasher","inputs":[],"outputs":[{"name":"","type":"address","internalType":"address"}],"stateMutability":"view"},{"type":"function","name":"staticDelegateCall","inputs":[{"name":"target","type":"address","internalType":"address"},{"name":"data","type":"bytes","internalType":"bytes"}],"outputs":[],"stateMutability":"nonpayable"},{"type":"function","name":"supportsInterface","inputs":[{"name":"interfaceId","type":"bytes4","internalType":"bytes4"}],"outputs":[{"name":"","type":"bool","internalType":"bool"}],"stateMutability":"view"},{"type":"function","name":"totalStake","inputs":[],"outputs":[{"name":"","type":"uint256","internalType":"uint256"}],"stateMutability":"view"},{"type":"function","name":"withdraw","inputs":[{"name":"claimer","type":"address","internalType":"address"},{"name":"amount","type":"uint256","internalType":"uint256"}],"outputs":[{"name":"burnedShares","type":"uint256","internalType":"uint256"},{"name":"mintedShares","type":"uint256","internalType":"uint256"}],"stateMutability":"nonpayable"},{"type":"function","name":"withdrawalShares","inputs":[{"name":"epoch","type":"uint256","internalType":"uint256"}],"outputs":[{"name":"amount","type":"uint256","internalType":"uint256"}],"stateMutability":"view"},{"type":"function","name":"withdrawalSharesOf","inputs":[{"name":"epoch","type":"uint256","internalType":"uint256"},{"name":"account","type":"address","internalType":"address"}],"outputs":[{"name":"amount","type":"uint256","internalType":"uint256"}],"stateMutability":"view"},{"type":"function","name":"withdrawals","inputs":[{"name":"epoch","type":"uint256","internalType":"uint256"}],"outputs":[{"name":"amount","type":"uint256","internalType":"uint256"}],"stateMutability":"view"},{"type":"function","name":"withdrawalsOf","inputs":[{"name":"epoch","type":"uint256","internalType":"uint256"},{"name":"account","type":"address","internalType":"address"}],"outputs":[{"name":"","type":"uint256","internalType":"uint256"}],"stateMutability":"view"},{"type":"event","name":"Claim","inputs":[{"name":"claimer","type":"address","indexed":true,"internalType":"address"},{"name":"recipient","type":"address","indexed":true,"internalType":"address"},{"name":"epoch","type":"uint256","indexed":false,"internalType":"uint256"},{"name":"amount","type":"uint256","indexed":false,"internalType":"uint256"}],"anonymous":false},{"type":"event","name":"ClaimBatch","inputs":[{"name":"claimer","type":"address","indexed":true,"internalType":"address"},{"name":"recipient","type":"address","indexed":true,"internalType":"address"},{"name":"epochs","type":"uint256[]","indexed":false,"internalType":"uint256[]"},{"name":"amount","type":"uint256","indexed":false,"internalType":"uint256"}],"anonymous":false},{"type":"event","name":"Deposit","inputs":[{"name":"depositor","type":"address","indexed":true,"internalType":"address"},{"name":"onBehalfOf","type":"address","indexed":true,"internalType":"address"},{"name":"amount","type":"uint256","indexed":false,"internalType":"uint256"},{"name":"shares","type":"uint256","indexed":false,"internalType":"uint256"}],"anonymous":false},{"type":"event","name":"Initialized","inputs":[{"name":"version","type":"uint64","indexed":false,"internalType":"uint64"}],"anonymous":false},{"type":"event","name":"OnSlash","inputs":[{"name":"amount","type":"uint256","indexed":false,"internalType":"uint256"},{"name":"captureTimestamp","type":"uint48","indexed":false,"internalType":"uint48"},{"name":"slashedAmount","type":"uint256","indexed":false,"internalType":"uint256"}],"anonymous":false},{"type":"event","name":"RoleAdminChanged","inputs":[{"name":"role","type":"bytes32","indexed":true,"internalType":"bytes32"},{"name":"previousAdminRole","type":"bytes32","indexed":true,"internalType":"bytes32"},{"name":"newAdminRole","type":"bytes32","indexed":true,"internalType":"bytes32"}],"anonymous":false},{"type":"event","name":"RoleGranted","inputs":[{"name":"role","type":"bytes32","indexed":true,"internalType":"bytes32"},{"name":"account","type":"address","indexed":true,"internalType":"address"},{"name":"sender","type":"address","indexed":true,"internalType":"address"}],"anonymous":false},{"type":"event","name":"RoleRevoked","inputs":[{"name":"role","type":"bytes32","indexed":true,"internalType":"bytes32"},{"name":"account","type":"address","indexed":true,"internalType":"address"},{"name":"sender","type":"address","indexed":true,"internalType":"address"}],"anonymous":false},{"type":"event","name":"SetDelegator","inputs":[{"name":"delegator","type":"address","indexed":true,"internalType":"address"}],"anonymous":false},{"type":"event","name":"SetDepositLimit","inputs":[{"name":"limit","type":"uint256","indexed":false,"internalType":"uint256"}],"anonymous":false},{"type":"event","name":"SetDepositWhitelist","inputs":[{"name":"status","type":"bool","indexed":false,"internalType":"bool"}],"anonymous":false},{"type":"event","name":"SetDepositorWhitelistStatus","inputs":[{"name":"account","type":"address","indexed":true,"internalType":"address"},{"name":"status","type":"bool","indexed":false,"internalType":"bool"}],"anonymous":false},{"type":"event","name":"SetEpochDuration","inputs":[{"name":"epochDuration","type":"uint48","indexed":false,"internalType":"uint48"},{"name":"epochDurationSetEpochsDelay","type":"uint256","indexed":false,"internalType":"uint256"}],"anonymous":false},{"type":"event","name":"SetFlashFeeRate","inputs":[{"name":"flashFeeRate","type":"uint256","indexed":false,"internalType":"uint256"}],"anonymous":false},{"type":"event","name":"SetFlashFeeReceiver","inputs":[{"name":"flashFeeReceiver","type":"address","indexed":false,"internalType":"address"}],"anonymous":false},{"type":"event","name":"SetFlashloanEnabled","inputs":[{"name":"status","type":"bool","indexed":false,"internalType":"bool"}],"anonymous":false},{"type":"event","name":"SetIsDepositLimit","inputs":[{"name":"status","type":"bool","indexed":false,"internalType":"bool"}],"anonymous":false},{"type":"event","name":"SetSlasher","inputs":[{"name":"slasher","type":"address","indexed":true,"internalType":"address"}],"anonymous":false},{"type":"event","name":"Withdraw","inputs":[{"name":"withdrawer","type":"address","indexed":true,"internalType":"address"},{"name":"claimer","type":"address","indexed":true,"internalType":"address"},{"name":"amount","type":"uint256","indexed":false,"internalType":"uint256"},{"name":"burnedShares","type":"uint256","indexed":false,"internalType":"uint256"},{"name":"mintedShares","type":"uint256","indexed":false,"internalType":"uint256"}],"anonymous":false},{"type":"error","name":"AccessControlBadConfirmation","inputs":[]},{"type":"error","name":"AccessControlUnauthorizedAccount","inputs":[{"name":"account","type":"address","internalType":"address"},{"name":"neededRole","type":"bytes32","internalType":"bytes32"}]},{"type":"error","name":"AlreadyClaimed","inputs":[]},{"type":"error","name":"AlreadySet","inputs":[]},{"type":"error","name":"CheckpointUnorderedInsertion","inputs":[]},{"type":"error","name":"DelegatorAlreadyInitialized","inputs":[]},{"type":"error","name":"DepositLimitReached","inputs":[]},{"type":"error","name":"InsufficientClaim","inputs":[]},{"type":"error","name":"InsufficientDeposit","inputs":[]},{"type":"error","name":"InsufficientExitWindow","inputs":[]},{"type":"error","name":"InsufficientRedemption","inputs":[]},{"type":"error","name":"InsufficientWithdrawal","inputs":[]},{"type":"error","name":"InvalidAccount","inputs":[]},{"type":"error","name":"InvalidCaptureEpoch","inputs":[]},{"type":"error","name":"InvalidClaimer","inputs":[]},{"type":"error","name":"InvalidCollateral","inputs":[]},{"type":"error","name":"InvalidDelegator","inputs":[]},{"type":"error","name":"InvalidEpoch","inputs":[]},{"type":"error","name":"InvalidEpochDuration","inputs":[]},{"type":"error","name":"InvalidEpochDurationSetEpochsDelay","inputs":[]},{"type":"error","name":"InvalidFlashParams","inputs":[]},{"type":"error","name":"InvalidInitialization","inputs":[]},{"type":"error","name":"InvalidLengthEpochs","inputs":[]},{"type":"error","name":"InvalidNewEpochDuration","inputs":[]},{"type":"error","name":"InvalidOnBehalfOf","inputs":[]},{"type":"error","name":"InvalidOrigin","inputs":[]},{"type":"error","name":"InvalidReceiver","inputs":[]},{"type":"error","name":"InvalidRecipient","inputs":[]},{"type":"error","name":"InvalidReturnAmount","inputs":[]},{"type":"error","name":"InvalidSlasher","inputs":[]},{"type":"error","name":"InvalidTimestamp","inputs":[]},{"type":"error","name":"MaxLoanExceeded","inputs":[]},{"type":"error","name":"MissingRoles","inputs":[]},{"type":"error","name":"NewEpochDurationNotReady","inputs":[]},{"type":"error","name":"NoDepositWhitelist","inputs":[]},{"type":"error","name":"NoPreviousEpoch","inputs":[]},{"type":"error","name":"NotDelegator","inputs":[]},{"type":"error","name":"NotFactory","inputs":[]},{"type":"error","name":"NotInitializing","inputs":[]},{"type":"error","name":"NotSlasher","inputs":[]},{"type":"error","name":"NotWhitelistedDepositor","inputs":[]},{"type":"error","name":"ReentrancyGuardReentrantCall","inputs":[]},{"type":"error","name":"SafeCastOverflowedUintDowncast","inputs":[{"name":"bits","type":"uint8","internalType":"uint8"},{"name":"value","type":"uint256","internalType":"uint256"}]},{"type":"error","name":"SafeERC20FailedOperation","inputs":[{"name":"token","type":"address","internalType":"address"}]},{"type":"error","name":"SlasherAlreadyInitialized","inputs":[]},{"type":"error","name":"TooLowFlashLoanValue","inputs":[]},{"type":"error","name":"TooMuchRedeem","inputs":[]},{"type":"error","name":"TooMuchWithdraw","inputs":[]},{"type":"error","name":"UnsupportedToken","inputs":[]}],"bytecode":{"object":"0x60e0346100a257601f614e6a38819003918201601f19168301916001600160401b038311848410176100a6578084926060946040528339810103126100a257610047816100ba565b906100606040610059602084016100ba565b92016100ba565b9160805260a05260c052604051614d9b90816100cf823960805181612583015260a0518181816114a4015261196a015260c051818181611e1901526123980152f35b5f80fd5b634e487b7160e01b5f52604160045260245ffd5b51906001600160a01b03821682036100a25756fe60806040526004361015610011575f80fd5b5f3560e01c806301ffc9a7146105a45780631415519b1461059f5780631b66c9e11461059a5780631e9a695014610595578063248a9ca3146105905780632749f9c41461058b57806327810b6e14610586578063281f5752146105815780632d73c69c1461057c5780632f2ff15d146105775780632fa27fae1461057257806331d9736c1461056d57806336568abe14610568578063392e53cd146105635780634105a7dd1461055e578063463616711461055957806347e7ef241461055457806348d3b7751461054f5780634ff0876a1461054a57806350861adc1461054557806350f220681461054057806352741a401461053b5780635346e34f1461053657806359f769a9146105315780635a36aa741461052c5780635cc07076146105275780635cffe9de14610522578063613255ab1461051d57806361819dd81461051857806361a8c8c414610513578063653b04cd1461050e57806365d61c6c146105095780636da3e06d146105045780636e0f2455146104ff5780636ec1e3f8146104fa5780637278e31c146104f557806373790ab3146104f057806376671808146104eb578063794b15b7146104e65780637953b33b146104e15780637c04c80a146104dc578063810da75d146104d757806383cd9cc3146104d257806383f46c2c146104cd578063859b9344146104c857806387df0788146104c35780638b0e9f3f146104be57806391d14854146104b957806398ccba4a146104b45780639b4bae3e146104af5780639d66201b146104aa5780639f86fd85146104a55780639f9962dd146104a0578063a1b122021461049b578063a217fddf14610496578063a21a1df914610491578063a28614661461048c578063a3b5417214610487578063a5d0322314610482578063a66b3a731461047d578063a8b24f9a14610478578063aa9354a314610473578063aabc24961461046e578063aad3ec9614610469578063ae13539e14610464578063afba70ad1461045f578063b13442711461045a578063bba6ff4a14610455578063bc46f72214610450578063bd49c35f1461044b578063bdc8144b14610446578063bfefcd7b14610441578063c1bc6f511461043c578063c31e8dd714610437578063c4db46fc14610432578063c642b0501461042d578063cc52aee714610428578063ce9b793014610423578063d547741f1461041e578063d626811b14610419578063d8dfeb4514610414578063d9d98ce41461040f578063db3887151461040a578063e945da7f14610405578063ecc98f0514610400578063ecf70858146103fb578063efb559d6146103f6578063f3fef3a3146103f15763f5e7ee0f146103ec575f80fd5b612c64565b612bbe565b612a73565b612a56565b612a38565b612a1b565b6129e1565b6129b6565b61298b565b6128cb565b61287f565b612857565b61282f565b612815565b6127f8565b61278a565b612762565b612748565b612688565b61266e565b612634565b612617565b6125ef565b6125c5565b61254f565b61248e565b6122e5565b6122c7565b61229f565b612265565b61221f565b6121d2565b6120ed565b6120b3565b612099565b612075565b61204d565b611f80565b611f46565b611f29565b611f0c565b611eae565b611e48565b611e04565b611d78565b611ab0565b611905565b6118ec565b611886565b611868565b611828565b61180a565b6117d8565b61151d565b6114f8565b6114d3565b61148f565b61146a565b611430565b61140a565b6113d0565b6113a9565b61113f565b6110e8565b6110c0565b611099565b611012565b610f11565b610ef8565b610e92565b610e78565b610e57565b610ba7565b610b8d565b610af2565b610aad565b610a62565b610a28565b610a08565b6109ba565b61094a565b6107dc565b6107b4565b610797565b61075e565b610683565b610638565b6105fe565b346105fa5760203660031901126105fa5760043563ffffffff60e01b81168091036105fa57602090637965db0b60e01b81149081156105e9575b506040519015158152f35b6301ffc9a760e01b1490505f6105de565b5f80fd5b346105fa575f3660031901126105fa5760206040517fc6aaadd7371d5e8f9ed6849dd66a66573a3ba37167d03f4352c9ba5693678fac8152f35b346105fa575f3660031901126105fa5760206040517f9c56d972d63cbb4195b3c1484691dfc220fa96a4c47e7b6613bd82a022029e068152f35b6001600160a01b038116036105fa57565b346105fa5760403660031901126105fa576004356106a081610672565b602435906106ac613310565b6001600160a01b0381161561074d57335f908152600e602052604090206106d790614152565b614152565b821161073b576106f76106e861406a565b6106f06140de565b90846141a5565b918215610726578261070892613352565b9061071161333f565b604080519182526020820192909252f35b0390f35b60405160016245ddc760e11b03198152600490fd5b604051632418411f60e11b8152600490fd5b6040516208978560e71b8152600490fd5b346105fa5760203660031901126105fa576004355f525f80516020614d268339815191526020526020600160405f200154604051908152f35b346105fa575f3660031901126105fa576020601454604051908152f35b346105fa575f3660031901126105fa576001546040516001600160a01b039091168152602090f35b346105fa575f3660031901126105fa576107fd6107f842614038565b612ef6565b801561082e575f1981019081116108295761081960209161313e565b65ffffffffffff60405191168152f35b612c8e565b604051639fa56a5b60e01b8152600490fd5b6024359065ffffffffffff821682036105fa57565b6004359065ffffffffffff821682036105fa57565b634e487b7160e01b5f52604160045260245ffd5b606081019081106001600160401b0382111761089957604052565b61086a565b604081019081106001600160401b0382111761089957604052565b90601f801991011681019081106001600160401b0382111761089957604052565b604051906108e78261089e565b565b6001600160401b03811161089957601f01601f191660200190565b81601f820112156105fa5780359061091b826108e9565b9261092960405194856108b9565b828452602083830101116105fa57815f926020809301838601378301015290565b346105fa5760603660031901126105fa5760043561096781610672565b61096f610840565b90604435906001600160401b0382116105fa576020926109966109b2933690600401610904565b6001600160a01b039092165f908152600e85526040902061368c565b604051908152f35b346105fa5760403660031901126105fa57610a066024356004356109dd82610672565b805f525f80516020614d26833981519152602052610a01600160405f200154613911565b61393d565b005b346105fa575f3660031901126105fa57602060015460d01c604051908152f35b346105fa575f3660031901126105fa5760206040517f5295aaaa27fdd659293eafacbfafbc634c1b96298957e87de5f59308cdbfdad18152f35b346105fa5760403660031901126105fa57602435610a7f81610672565b336001600160a01b03821603610a9b57610a06906004356139d8565b60405163334bd91960e11b8152600490fd5b346105fa575f3660031901126105fa5760ff60025460a01c1680610ad9575b6020906040519015158152f35b5060035460a01c60ff16610acc565b801515036105fa57565b346105fa5760203660031901126105fa57600435610b0f81610ae8565b610b17613310565b610b1f613758565b5f54901515908160ff8216151514610b7b5760ff191660ff8216175f556040519081527f3e12b7b36c75ac9609a3f58609b331210428e1a85909132638955ba0301eec3390602090a160015f80516020614d4683398151915255005b60405163a741a04560e01b8152600490fd5b346105fa575f3660031901126105fa576020610819612cde565b346105fa576040806003193601126105fa576004803591610bc783610672565b610bcf613310565b6001600160a01b0391838316908115610e49575f5460ff811680610e30575b610e215783516370a0823160e01b808252308483019081529096602093909160109190911c82169084908490819083010381845afa928315610df9575f93610dfe575b50610c43906024359030903390613a6a565b5f5486519788523085890190815290979184918391908290819060200103918b60101c165afa908115610df957610c82935f92610dcc575b5050612cb0565b938415610dbd5760081c60ff1680610da8575b610d9a57509061072291610d46610caa61406a565b95610cf3610cb66140de565b610cde610cc48a838b6141a5565b99610cd88a610cd242614038565b92612d46565b90613bbe565b5050610ced89610cd242614038565b90613c9e565b50506001600160a01b0381165f908152600e6020526040902090610d4088610d3b6106d2610d2042614038565b6001600160a01b039095165f908152600e6020526040902090565b612d46565b91613d7a565b505081518481526020810186905233907fdcbc1c05240f31ff3ad067ef1ee35ce4997762752e3a095284754544f4c709d790604090a3610d8461333f565b5191825260208201929092529081906040820190565b8251632484557960e01b8152fd5b50610db584610d3b61406a565b815410610c95565b50825163070f6eed60e11b8152fd5b610deb9250803d10610df2575b610de381836108b9565b810190612d1e565b5f80610c7b565b503d610dd9565b612d2d565b610c43919350610e1a90853d8711610df257610de381836108b9565b9290610c31565b5082516304f63b8560e01b8152fd5b50335f9081526005602052604090205460ff1615610bee565b8251630d534ce360e11b8152fd5b346105fa575f3660031901126105fa57602060ff5f54166040519015158152f35b346105fa575f3660031901126105fa576020610819612d53565b346105fa575f3660031901126105fa57602060ff60025460a01c166040519015158152f35b9060406003198301126105fa5760043565ffffffffffff811681036105fa5791602435906001600160401b0382116105fa57610ef591600401610904565b90565b346105fa5760206109b2610f0b36610eb7565b90613501565b346105fa5760203660031901126105fa57600435610f2e81610672565b610f36613310565b335f9081527f9aeaa4f1a9be826e331dea6728ca206744e0a34dccbc1d3da4a68acb8abf036360205260409020547f5295aaaa27fdd659293eafacbfafbc634c1b96298957e87de5f59308cdbfdad19060ff1615610ff457506016546001600160a01b039182169181168214610b7b576001600160a01b03191681176016556040519081527f08aacfdb137d688b12f67ef81735dede1ae18b0664f6b347ee9ef00ae94ff91990602090a160015f80516020614d4683398151915255005b6044906040519063e2517d3f60e01b82523360048301526024820152fd5b346105fa5760203660031901126105fa5760043561102f81610ae8565b611037613310565b61103f6137b5565b5f54901515908160ff8260081c16151514610b7b5761ff001916600882901b61ff0016175f556040519081527ffa7a25a0b611d4ba3c0ea990e90dc23d484a5dd7a1be4733fef2946ba74530c690602090a1610a0661333f565b346105fa5760203660031901126105fa5760206109b26004356110bb81610672565b612d99565b346105fa575f3660031901126105fa57602065ffffffffffff60135460301c16604051908152f35b346105fa5760203660031901126105fa576004355f526006602052602060405f2054604051908152f35b9181601f840112156105fa578235916001600160401b0383116105fa57602083818601950101116105fa57565b346105fa5760803660031901126105fa57600480359061115e82610672565b60243561116a81610672565b604435916064356001600160401b0381116105fa5761118c9036908301611112565b611197949194613310565b8115611398576111a684612e32565b82116113875761121a906111ba8386613256565b5f549095906111dc9060101c6001600160a01b03165b6001600160a01b031690565b604080516370a0823160e01b80825230898301908152929b939a6001600160a01b03808d1699602099939792969195909491938a9183918291840190565b03818d5afa978815610df9578c968f8f95978c988f955f9d611352575b509161124e8961126995935f98979516809a613e38565b516323e30c8b60e01b8152998a988997889633908801612de8565b03925af18015610df9577f439148f0bbc682ca079e46d6e2c2f0c1e3b820f1a291b069d8882abf8cf18dd9915f91611335575b500361132557875190815230858201908152909383918591908290819060200103915afa8015610df95785936112d9935f92610dcc575050612cb0565b036113175750806112f8575b826112ee61333f565b5160018152602090f35b60165461131092906001600160a01b03165b90613e38565b5f806112e5565b8351637f28d71160e01b8152fd5b8751631e4ec46b60e01b81528590fd5b61134c9150853d8711610df257610de381836108b9565b5f61129c565b5f969593919d5089611269959361137861124e938e803d10610df257610de381836108b9565b9f939597985093955050611237565b60405163347177ad60e21b81528390fd5b6040516391ba94bf60e01b81528390fd5b346105fa5760203660031901126105fa5760206109b26004356113cb81610672565b612e32565b346105fa575f3660031901126105fa5760206040517f591f6a0113ada8aff67efadec8ae2fa585cb4ebf4e1f8fc1205ffbeff98d00ec8152f35b346105fa575f3660031901126105fa57602061081961142b6107f842614038565b61313e565b346105fa575f3660031901126105fa5760206040517f439148f0bbc682ca079e46d6e2c2f0c1e3b820f1a291b069d8882abf8cf18dd98152f35b346105fa575f3660031901126105fa57602060ff60165460a01c166040519015158152f35b346105fa575f3660031901126105fa576040517f00000000000000000000000000000000000000000000000000000000000000006001600160a01b03168152602090f35b346105fa575f3660031901126105fa57602065ffffffffffff60135416604051908152f35b346105fa575f3660031901126105fa57602060ff60035460a01c166040519015158152f35b346105fa5760403660031901126105fa57600435611539610840565b611541613310565b600354611556906001600160a01b03166111d0565b33036117c6576115686107f842614038565b9061157281612ef6565b90821515806117b5575b80156117ac575b61179a57610722937ff9d090c096f71cd1659861a9ce5b6f384bceb4e2fa4e4a19edf6489a9b8d56c7926115b561406a565b946115d06115c282612d38565b5f52600660205260405f2090565b54908281036116b457506115e48187612d46565b83811881851002811896878061166d575b50505050505b8361163a575b6040805191825265ffffffffffff929092166020820152908101839052606090a161162a61333f565b6040519081529081906020820190565b5f546116689085906116579060101c6001600160a01b03166111d0565b6001546001600160a01b031661130a565b611601565b6116a993610c7b83610cd861169361168c6115c2986116a39888613f0f565b8096612cb0565b9461169d42614038565b92612cb0565b92612d38565b555f808080876115f5565b91506116c8825f52600660205260405f2090565b54906116d881610d3b848a612d46565b9084821882861002821897886116f3575b50505050506115fb565b611768938361171b936117288c611723611711611759998884613f0f565b9788958584613f0f565b948592612cb0565b612cb0565b93848410611773575b610c7b90610cd861174795969761169d42614038565b6117536115c287612d38565b55612cb0565b915f52600660205260405f2090565b555f808080806116e9565b9161178f610c7b91611789866117479798612cb0565b90612d46565b859450929050611731565b604051635e18d2a560e01b8152600490fd5b50828211611583565b506117bf83612ca2565b821061157c565b60405163dabc4ad960e01b8152600490fd5b346105fa575f3660031901126105fa576117f46107f842614038565b600181018091116108295761081960209161313e565b346105fa575f3660031901126105fa5760206109b26107f842614038565b346105fa5760203660031901126105fa5760043561184581610672565b60018060a01b03165f526005602052602060ff60405f2054166040519015158152f35b346105fa5760203660031901126105fa5760206109b26107f8610855565b346105fa5760403660031901126105fa576004356118a381610672565b6024356001600160401b038082116105fa57366023830112156105fa5781600401359081116105fa573660248260051b840101116105fa5761072292602461162a930190612fe1565b346105fa5760206109b26118ff36610eb7565b906135d7565b346105fa576020806003193601126105fa57600480359061192582610672565b61192d613310565b60025460a01c60ff16611aa1576040516302910f8b60e31b81526001600160a01b03838116838301908152909491908290829081906020010381887f0000000000000000000000000000000000000000000000000000000000000000165afa908115610df9575f91611a74575b5015611a645760405163fbfa77cf60e01b8152838516949082818581895afa928315610df9575f93611a35575b505030911603611a265750600280546001600160a01b03929092166001600160a81b031990921691909117600160a01b1790557fdb2160616f776a37b24808115554e79439bf26cccbbd4438190cc6d28e80ecd15f80a2610a0661333f565b60405163b9f0f17160e01b8152fd5b611a55929350803d10611a5d575b611a4d81836108b9565b810190613116565b905f806119c7565b503d611a43565b506040516324e5af8d60e21b8152fd5b611a949150823d8411611a9a575b611a8c81836108b9565b810190613101565b5f61199a565b503d611a82565b604051631380833b60e01b8152fd5b346105fa5760403660031901126105fa57611ac9610855565b602435611ad4613310565b611adc61380c565b60038110611d665765ffffffffffff9182611b0260135465ffffffffffff9060601c1690565b168015159081611d50575b50611c52575b60015460d01c838083169116818111611c40571480611c35575b610b7b57611c0a611be1611bdc7f1b3efab1b836932ce515e4748ca76335809d1d202c92ee86d594e43ce0039e8395611b7c611b77611b6e6107f842614038565b600f5490612d46565b601455565b6013805465ffffffffffff60901b1916609087901b65ffffffffffff60901b16179055611bae61142b6107f842614038565b90611bd5600f54611bcf611bc460015460d01c90565b65ffffffffffff1690565b9061312b565b9116612d46565b614038565b6013805465ffffffffffff60601b191660609290921b65ffffffffffff60601b16919091179055565b611c1382601055565b6040805165ffffffffffff9290921682526020820192909252a1610a0661333f565b5081600f5414611b2d565b6040516359dcfd5560e11b8152600490fd5b611c5d601154601255565b611c97611c6c60015460d01c90565b6bffffffffffff0000000000006013549160301b16906bffffffffffff000000000000191617601355565b600154611cc39060a01c65ffffffffffff1665ffffffffffff1665ffffffffffff196013541617601355565b611cce601454601155565b601354611d059060901c65ffffffffffff16600180546001600160d01b031660d09290921b6001600160d01b031916919091179055565b601354611d409060601c65ffffffffffff166001805465ffffffffffff60a01b191660a09290921b65ffffffffffff60a01b16919091179055565b611d4b601054600f55565b611b13565b9050611d5e611bc442614038565b10155f611b0d565b6040516317a509b960e31b8152600490fd5b346105fa5760203660031901126105fa57600435611d9581610ae8565b611d9d613310565b611da5613863565b601654901515908160ff8260a01c16151514610b7b5760ff60a01b191660a082901b60ff60a01b16176016556040519081527e4ea26b9681ba216ba307c9c0ee4edcef296c9af6506b16ad458a51431745d990602090a1610a0661333f565b346105fa575f3660031901126105fa576040517f00000000000000000000000000000000000000000000000000000000000000006001600160a01b03168152602090f35b346105fa575f3660031901126105fa57611e646107f842614038565b611e6c61406a565b90805f52600660205260405f205482018092116108295760018101809111610829575f52600660205260405f2054810180911161082957604051908152602090f35b346105fa5760403660031901126105fa57602060ff611f00602435611ed281610672565b6004355f525f80516020614d26833981519152845260405f209060018060a01b03165f5260205260405f2090565b54166040519015158152f35b346105fa575f3660031901126105fa576020601254604051908152f35b346105fa575f3660031901126105fa576020601154604051908152f35b346105fa5760203660031901126105fa57600435611f6381610672565b60018060a01b03165f52600e60205260206109b260405f20614152565b346105fa576040806003193601126105fa57600435611f9e81610672565b6024356001600160401b0381116105fa575f8061203c93611fc56080943690600401611112565b908188519283928337810184815203915af43d156120445760203d611fe9816108e9565b90611ff6875192836108b9565b81523d5f8383013e5b8551958693151583850152808401528051918291826060860152018484015e5f838284010152601f801991011681010360608101845201826108b9565b805190602001fd5b60206060611fff565b346105fa575f3660031901126105fa57602065ffffffffffff60015460a01c16604051908152f35b346105fa575f3660031901126105fa57602060ff5f5460081c166040519015158152f35b346105fa575f3660031901126105fa5760206040515f8152f35b346105fa575f3660031901126105fa5760206040517f4a634bc14d77baf979756509ef4298c6f6318af357828612545267ee2eb792338152f35b346105fa5760403660031901126105fa5760043561210a81610672565b60243561211681610ae8565b61211e613310565b6121266138ba565b6001600160a01b0382169182156121c0575f8381526005602052604090205460ff16151582151514610b7b576001600160a01b03165f9081526005602052604090207ff991b1ecfb5115cbb36a2b2e2240c058406d2acc2fcc6e9e2dc99d845ff70a62916121b5916121a3908260ff801983541691151516179055565b60405190151581529081906020820190565b0390a2610a0661333f565b604051630da30f6560e31b8152600490fd5b346105fa5760403660031901126105fa5760206122166024356121f481610672565b6004355f526008835260405f209060018060a01b03165f5260205260405f2090565b54604051908152f35b346105fa5760403660031901126105fa57602060ff611f0060243561224381610672565b6004355f526009845260405f209060018060a01b03165f5260205260405f2090565b346105fa575f3660031901126105fa5760206040517fc9feed28b4b1a1d11c6791da7bb7f6b8d33e831a4992a9383dead1ec2c82c35a8152f35b346105fa575f3660031901126105fa576016546040516001600160a01b039091168152602090f35b346105fa5760203660031901126105fa57602061081960043561313e565b346105fa576020806003193601126105fa57600480359061230582610672565b61230d613310565b60035460a01c60ff1661247f576001600160a01b0382811693908461236d575b6003805460ff60a01b1916600160a01b179055847fe7e4c932e03abddfe20f83af42c33627e816115c7ec2b168441f65dc14bfc3ba5f80a2610a0661333f565b6040516302910f8b60e31b81526001600160a01b0385168482019081528390829081906020010381857f0000000000000000000000000000000000000000000000000000000000000000165afa908115610df9575f91612462575b50156124515760405163fbfa77cf60e01b815282818581895afa928315610df9575f93612432575b5050309116036124235750600380546001600160a01b0319166001600160a01b039092169190911790555f80808061232d565b604051633f3e089160e21b8152fd5b612449929350803d10611a5d57611a4d81836108b9565b905f806123f0565b60405163dabc4ad960e01b81528390fd5b6124799150833d8511611a9a57611a8c81836108b9565b5f6123c8565b60405163703fe2e560e01b8152fd5b346105fa5760403660031901126105fa576004356124ab81610672565b602435906124b7613310565b6001600160a01b039181831690811561253d576124e8610722946124da83613f9c565b9485915f5460101c16613e38565b604080519182526020820184905233917f865ca08d59f5cb456e85cd2f7ef63664ea4f73327414e9d8152c4158b0e946459190a360015f80516020614d46833981519152556040519081529081906020820190565b604051634e46966960e11b8152600490fd5b346105fa5760203660031901126105fa576004356001600160401b0381116105fa5761257f903690600401611112565b50507f00000000000000000000000000000000000000000000000000000000000000006001600160a01b031633036125b357005b604051631966391b60e11b8152600490fd5b346105fa5760203660031901126105fa576004355f526007602052602060405f2054604051908152f35b346105fa575f3660031901126105fa576003546040516001600160a01b039091168152602090f35b346105fa575f3660031901126105fa576020600f54604051908152f35b346105fa575f3660031901126105fa5760206040517fc9078c78bcaac2be1c77c160c539a489be2b72939771b1a6302fed3e2150c7458152f35b346105fa575f3660031901126105fa5760206109b261406a565b346105fa5760203660031901126105fa576004356126a4613310565b335f9081527f2d4ccbfe9f7672a6f2537c1e5bce6adacb73706879154bbab6ce096012d6721660205260409020547f4a634bc14d77baf979756509ef4298c6f6318af357828612545267ee2eb792339060ff1615610ff457508060045414610b7b576020817f854df3eb95564502c8bc871ebdd15310ee26270f955f6c6bd8cea68e75045bc092600455604051908152a160015f80516020614d4683398151915255005b346105fa575f3660031901126105fa5760206109b26140de565b346105fa575f3660031901126105fa57602065ffffffffffff60135460901c16604051908152f35b346105fa5760203660031901126105fa576004356127a781610672565b6127b36107f842614038565b6127bc82612d99565b916127c781836132b2565b83018093116108295760018201809211610829576127e4916132b2565b810180911161082957602090604051908152f35b346105fa575f3660031901126105fa576020601054604051908152f35b346105fa575f3660031901126105fa5760206109b2613216565b346105fa575f3660031901126105fa57602065ffffffffffff60135460601c16604051908152f35b346105fa575f3660031901126105fa576002546040516001600160a01b039091168152602090f35b346105fa5760403660031901126105fa57610a066024356004356128a282610672565b805f525f80516020614d268339815191526020526128c6600160405f200154613911565b6139d8565b346105fa5760203660031901126105fa576004356128e7613310565b335f9081527f82a1dc868a49801aa31c5dd393dc0b9005735300cdcd4bbc1af68215effcd6f860205260409020547fc9078c78bcaac2be1c77c160c539a489be2b72939771b1a6302fed3e2150c7459060ff1615610ff457508060155414610b7b576020817f85370e46fb038a73f13e1c280ffc745e71ff72b4ea57b15c6eca3749d73c0cb892601555604051908152a160015f80516020614d4683398151915255005b346105fa575f3660031901126105fa575f5460405160109190911c6001600160a01b03168152602090f35b346105fa5760403660031901126105fa5760206109b26004356129d881610672565b60243590613256565b346105fa575f3660031901126105fa5760206040517fbae4ee3de6c709ff9a002e774c5b78cb381560b219213c88ae0f1e207c03c0238152f35b346105fa575f3660031901126105fa576020601554604051908152f35b346105fa575f3660031901126105fa576020604051633b9aca008152f35b346105fa575f3660031901126105fa576020600454604051908152f35b346105fa5760603660031901126105fa57600435612a9081610672565b612a98610840565b6001600160401b0391906044358381116105fa57612aba903690600401611112565b90926040938451612aca8161087e565b60608152606060208201526060868201529280612b29575b61072286612b1a8787612b14612afb8984845191612cbd565b9285612b0b6020850151836135d7565b93015190613501565b916141a5565b90519081529081906020820190565b81019392506020818503126105fa578035908682116105fa5701926060848203126105fa57845195612b5a8761087e565b84358181116105fa5782612b6f918701610904565b875260208501358181116105fa5782612b89918701610904565b6020880152858501359081116105fa5761072296612bb2612b1493612afb93612b1a9801610904565b87820152939450612ae2565b346105fa5760403660031901126105fa57600435612bdb81610672565b602435612be6613310565b6001600160a01b0382161561074d578015612c5257612c15612c066140de565b612c0e61406a565b90836145e8565b335f908152600e60205260409020909290612c2f90614152565b8311612c4057610708918391613352565b6040516321727a3760e11b8152600490fd5b604051636c6c627d60e11b8152600490fd5b346105fa5760403660031901126105fa5760206109b2602435612c8681610672565b6004356132b2565b634e487b7160e01b5f52601160045260245ffd5b5f1981019190821161082957565b9190820391821161082957565b6001600160a01b03165f908152600e60205260409020610ef592919061368c565b65ffffffffffff8060135460601c169081158015612d0b575b612cff575090565b905060015460a01c1690565b508181612d1742614038565b1610612cf7565b908160209103126105fa575190565b6040513d5f823e3d90fd5b906001820180921161082957565b9190820180921161082957565b60135465ffffffffffff90818160601c168015908115612d85575b50612d7a5760901c1690565b505060015460d01c90565b905082612d9142614038565b16105f612d6e565b6001600160a01b03165f908152600e60205260409020612db890614152565b612dc061406a565b612dc86140de565b9060018101809111610829576001820180921161082957610ef592613f0f565b94919286949160c0979460018060a01b0380921688521660208701526040860152606085015260a060808501528160a0850152848401375f828201840152601f01601f1916010190565b601654612e439060a01c60ff161590565b612ea9575f5460101c6001600160a01b0390811691168103612ea9576040516370a0823160e01b815230600482015290602090829060249082905afa908115610df9575f91612e90575090565b610ef5915060203d602011610df257610de381836108b9565b505f90565b65ffffffffffff918216908216039190821161082957565b634e487b7160e01b5f52601260045260245ffd5b9065ffffffffffff809116918215612ef157160490565b612ec6565b60015465ffffffffffff808316929160a081901c821680851015612f6e5750506013549281841690818015918215612f64575b5050612f5257610ef59361178992612f47611bc49360125496612eae565b9160301c1690612eda565b60405163b7d0949760e01b8152600490fd5b109050815f612f29565b909160135490808260601c1695868015918215612fd7575b505015612fb2575050610ef5935061178991612fa8611bc49260115495612eae565b9060d01c90612eda565b6117899350611bc49250612fcc610ef59660145496612eae565b9160901c1690612eda565b109050865f612f86565b90612fea613310565b5f926001600160a01b03831692831561253d578115613094575f5b82811061307257505f547f326b6aff1cd2fb1c8234de4f9dcfb9047c5c36eb9ef2eb34af5121e969a75d2792869290916130559184916130509060101c6001600160a01b03166111d0565b613e38565b6130666040519283923396846130cf565b0390a3906108e761333f565b9461308d6001916117896130878987896130ba565b35613f9c565b9501613005565b60405163edf3b93360e01b8152600490fd5b634e487b7160e01b5f52603260045260245ffd5b91908110156130ca5760051b0190565b6130a6565b604080825281018390529392916001600160fb1b0381116105fa5760209160609160051b809183880137850101930152565b908160209103126105fa5751610ef581610ae8565b908160209103126105fa5751610ef581610672565b8181029291811591840414171561082957565b601254808210613204576011548083101561317f5750611bdc90610ef592611bd56131736013549365ffffffffffff93612cb0565b828460301c169061312b565b9050601454801580156131fb575b156131c55750610ef59165ffffffffffff6131bb6131b1611bdc9460015494612cb0565b8360d01c9061312b565b9160a01c16612d46565b611bdc9150610ef5926131f16131e56013549365ffffffffffff93612cb0565b828460901c169061312b565b9160601c16612d46565b5080831061318d565b60405163d5b25b6360e01b8152600490fd5b65ffffffffffff8060135460601c168015918215613241575b505061323b5760105490565b600f5490565b90915061324d42614038565b16105f8061322f565b5f546001600160a01b039160109190911c8216908216036132a0576016541661327e57505f90565b633b9aca006015546132908184613e91565b9209151581018091116108295790565b60405163350b944160e11b8152600490fd5b906132d890825f52600860205260405f209060018060a01b03165f5260205260405f2090565b54905f52600660205260405f2054600760205260405f20549060018101809111610829576001820180921161082957610ef592613f0f565b5f80516020614d46833981519152600281541461332d5760029055565b604051633ee5aeb560e01b8152600490fd5b60015f80516020614d4683398151915255565b335f908152600e602052604090209392919061336d42614038565b335f908152600e6020526040902061338490614152565b91848303928311610829576133bf7febff2602b3f468259e1e99f613fed6691f3a6526effe6ef3e768ba7ae7a36c4f93859361344e99613d7a565b50506133d96133cd42614038565b610ced876117236140de565b50506133f36133e742614038565b610cd88461172361406a565b505061349c8161348761341061340b6107f842614038565b612d38565b613466613425825f52600660205260405f2090565b54613438835f52600760205260405f2090565b5461344482828b6141a5565b9d8e998a93612d46565b613460855f52600660205260405f2090565b55612d46565b613478825f52600760205260405f2090565b555f52600860205260405f2090565b9060018060a01b03165f5260205260405f2090565b6134a7838254612d46565b9055604080519485526020850195909552938301526001600160a01b03909216913391606090a3565b908160209103126105fa575163ffffffff811681036105fa5790565b90600163ffffffff8093160191821161082957565b908051156135cd578060208061351c935183010191016134d0565b61352581614416565b90613536825165ffffffffffff1690565b9065ffffffffffff80851692168281146135c1578211918261356c575b50506135635750610ef5906141c6565b60209150015190565b90915061357a600a54612ca2565b63ffffffff831614918215613593575b50505f80613553565b6135b99192506135ad6135a8611bc4926134ec565b614416565b5165ffffffffffff1690565b115f8061358a565b50505060209150015190565b50610ef5906141c6565b9080511561368257806020806135f2935183010191016134d0565b6135fb816144a0565b9061360c825165ffffffffffff1690565b9065ffffffffffff80851692168281146135c15782119182613639575b50506135635750610ef59061428d565b909150613647600c54612ca2565b63ffffffff831614918215613660575b50505f80613629565b61367a9192506135ad613675611bc4926134ec565b6144a0565b115f80613657565b50610ef59061428d565b9180511561374e57806020806136a7935183010191016134d0565b916136b28382614520565b926136c3845165ffffffffffff1690565b9065ffffffffffff808516921682811461374257821191826136f9575b50506136f057610ef5925061434d565b50506020015190565b9091506137068354612ca2565b63ffffffff83161491821561371f575b50505f806136e0565b61373a9192506135ad613734611bc4926134ec565b85614520565b115f80613716565b50505050506020015190565b50610ef59161434d565b335f9081527f03b26b53c87faa1058f30bb5d2fee64f717719a0d9b7e4f4df027aa5e9b6ed69602052604090207fbae4ee3de6c709ff9a002e774c5b78cb381560b219213c88ae0f1e207c03c0239060ff905b541615610ff45750565b335f9081527fe41986b390c4ce6791b87f7423b5fab7a81a0e6d89660b6264f697d008b2243a602052604090207fc6aaadd7371d5e8f9ed6849dd66a66573a3ba37167d03f4352c9ba5693678fac9060ff906137ab565b335f9081527f99e47f2907af87dbb5c62e22bd8ea822f5011dfd1e243469ce26ebebf3ab93e3602052604090207f591f6a0113ada8aff67efadec8ae2fa585cb4ebf4e1f8fc1205ffbeff98d00ec9060ff906137ab565b335f9081527f665296150f4083bfe5a58682f99690b24ea27a3f56243679fa9797c6a16217aa602052604090207fc9feed28b4b1a1d11c6791da7bb7f6b8d33e831a4992a9383dead1ec2c82c35a9060ff906137ab565b335f9081527f0287ab4cb376ea253d7b2ce0c2cbf458f7deae9458470d74afdfbbee484e9540602052604090207f9c56d972d63cbb4195b3c1484691dfc220fa96a4c47e7b6613bd82a022029e069060ff906137ab565b5f8181525f80516020614d2683398151915260209081526040808320338452909152902060ff906137ab565b5f8181525f80516020614d26833981519152602081815260408084206001600160a01b03871685529091529091205460ff166139d1575f828152602091825260408082206001600160a01b038616835290925220805460ff1916600117905533916001600160a01b0316907f2f8788117e7eff1d82e926ec794901d17c78024a50270940304540a733656f0d5f80a4600190565b5050505f90565b5f8181525f80516020614d26833981519152602081815260408084206001600160a01b03871685529091529091205460ff16156139d1575f828152602091825260408082206001600160a01b038616835290925220805460ff1916905533916001600160a01b0316907ff6391f5c32d9c69d2a47ea670b442974b53935d1edc7fd64eb21e047a839171b5f80a4600190565b6040516323b872dd60e01b60208201526001600160a01b03928316602482015292909116604483015260648083019390935291815260a08101918183106001600160401b03841117610899576108e79260405261458e565b600b548110156130ca57600b5f525f80516020614d0683398151915201905f90565b600d548110156130ca57600d5f525f80516020614ce683398151915201905f90565b80548210156130ca575f5260205f2001905f90565b600d54600160401b811015610899576001810180600d558110156130ca57600d5f525f80516020614ce68339815191520155565b600b54600160401b811015610899576001810180600b558110156130ca57600b5f525f80516020614d068339815191520155565b90815491600160401b8310156108995782613ba69160016108e795018155613b06565b90919082549060031b91821b915f19901b1916179055565b919091600d9081548015613c69575b50613bd6614621565b50929091815492613be561406a565b9481613c54575b5015613c3157505f19820182811161082957815411156130ca575f527fd7b6990105719101dabeb77144f2a3385c8033acd3af97e9423a695e81ad1eb4018390559190565b613c45926001600160d01b0316915061481d565b5050613c5083613b1b565b9190565b65ffffffffffff83811691161490505f613bec565b600160401b81101561089957600181018084558110156130ca575f908382525f80516020614ce683398151915201555f613bcd565b919091600b9081548015613d45575b50613cb6614676565b50929091815492613cc56140de565b9481613d30575b5015613d1157505f19820182811161082957815411156130ca575f527f0175b7a638427703f0dbe7bb9bbf987a2551717b34e79f33b5b1008d1fa01db8018390559190565b613d25926001600160d01b031691506148ed565b5050613c5083613b4f565b65ffffffffffff83811691161490505f613ccc565b600160401b81101561089957600181018084558110156130ca575f908382525f80516020614d0683398151915201555f613cad565b90929192600182019081548015613e08575b5084613d97846146cb565b50949092845493613da783614152565b9681613df3575b5015613dd0575050505f19810190811161082957613ba68591613c5093613b06565b613c50949293613dec926001600160d01b03909116919061498c565b5050613b83565b65ffffffffffff83811691161490505f613dae565b600160401b81101561089957806001613e249201845583613b06565b8154905f199060031b1b191690555f613d8c565b60405163a9059cbb60e01b60208201526001600160a01b03909216602483015260448083019390935291815260808101916001600160401b03831182841017610899576108e79260405261458e565b8115612ef1570490565b90808202905f1981840990828083109203918083039214613f0257633b9aca009082821115613ef0577f88f2cfb83100cb4e69e7c79c58b316e597157d372fb9787e8e47ce423a2e9c6d940990828211900360f71b910360091c170290565b634e487b715f5260116020526024601cfd5b5050633b9aca0091500490565b91818302915f1981850993838086109503948086039514613f8f5784831115613f825790829109815f038216809204600280826003021880830282030280830282030280830282030280830282030280830282030280920290030293600183805f03040190848311900302920304170290565b8215600302601118614704565b505090610ef59250613e87565b90613fa96107f842614038565b8210156132045760ff613fd9613fc7845f52600960205260405f2090565b335f9081526020919091526040902090565b541661402657613fe933836132b2565b918215614014576140079061348733915f52600960205260405f2090565b805460ff19166001179055565b6040516366c0bcbf60e11b8152600490fd5b604051630c8d9eab60e31b8152600490fd5b65ffffffffffff9081811161404b571690565b604490604051906306dfcc6560e41b8252603060048301526024820152fd5b600c54806140a557505f5b6001600160d01b03811615612ea957600d548110156130ca57600d5f525f80516020614ce6833981519152015490565b805f1981011161082957600c5f527fdf6966c971051c3d54ec59162606531493a51404a002842f56009d7e5cf4a8c6015460301c614075565b600a548061411957505f5b6001600160d01b03811615612ea957600b548110156130ca57600b5f525f80516020614d06833981519152015490565b805f1981011161082957600a5f527fc65a7bb8d6351c1cf70c95a316cc6a92839c986682d98bc35f958f4883f9d2a7015460301c6140e9565b80548061418757505f5b6001600160d01b038116156141815760016141779201613b06565b90549060031b1c90565b50505f90565b5f1990808281011161082957825f5260205f2001015460301c61415c565b919060018101809111610829576001820180921161082957610ef592613f0f565b600a54905f829160058411614234575b6141e09350614b71565b8061420357505f5b6001600160d01b03811615612ea957614177610ef591613ac2565b61422861421261422f92612ca2565b600a5f525f80516020614cc68339815191520190565b5460301c90565b6141e8565b919261423f81614a46565b8103908111610829576141e093600a5f5265ffffffffffff80835f80516020614cc6833981519152015416908516105f1461427b5750916141d6565b92915061428790612d38565b906141d6565b600c54905f8291600584116142f4575b6142a79350614bda565b806142ca57505f5b6001600160d01b03811615612ea957614177610ef591613ae4565b6142286142d96142ef92612ca2565b600c5f525f80516020614ca68339815191520190565b6142af565b91926142ff81614a46565b8103908111610829576142a793600c5f5265ffffffffffff80835f80516020614ca6833981519152015416908516105f1461433b57509161429d565b92915061434790612d38565b9061429d565b908154905f8291600584116143b0575b614368935084614c43565b8061439057505f905b6001600160d01b0382161561418157610ef59160016141779201613b06565b61422861439f6143aa92612ca2565b835f5260205f200190565b90614371565b91926143bb81614a46565b81039081116108295761436893855f5265ffffffffffff808360205f20015416908516105f146143ec57509161435d565b9291506143f890612d38565b9061435d565b6040519061440b8261089e565b5f6020838281520152565b61441e6143fe565b506144276143fe565b50600a548110156130ca57600a5f526020604051916144458361089e565b5f80516020614cc683398151915201549165ffffffffffff83169283825260301c9182910152600b548110156130ca57600b5f525f80516020614d068339815191520154604051916144968361089e565b8252602082015290565b6144a86143fe565b506144b16143fe565b50600c548110156130ca57600c5f526020604051916144cf8361089e565b5f80516020614ca683398151915201549165ffffffffffff83169283825260301c9182910152600d548110156130ca57600d5f525f80516020614ce68339815191520154604051916144968361089e565b9060206001614544614570936145346143fe565b5061453d6143fe565b5085613b06565b5093604051946145538661089e565b549465ffffffffffff86169586825260301c938491015201613b06565b905490604051926145808461089e565b835260031b1c602082015290565b905f602091828151910182855af115612d2d575f513d6145df57506001600160a01b0381163b155b6145bd5750565b604051635274afe760e01b81526001600160a01b039091166004820152602490fd5b600114156145b6565b91906001810180911161082957600182018092116108295761460b828285613f0f565b928215612ef15709151581018091116108295790565b600c548061463257505f905f905f90565b805f1981011161082957600c5f527fdf6966c971051c3d54ec59162606531493a51404a002842f56009d7e5cf4a8c6015460019165ffffffffffff82169160301c90565b600a548061468757505f905f905f90565b805f1981011161082957600a5f527fc65a7bb8d6351c1cf70c95a316cc6a92839c986682d98bc35f958f4883f9d2a7015460019165ffffffffffff82169160301c90565b8054806146dc5750505f905f905f90565b5f19918183810111610829575f5260205f2001015460019165ffffffffffff82169160301c90565b634e487b715f526020526024601cfd5b600c5490600160401b821015610899576001820180600c558210156130ca57600c5f52805160209091015160301b65ffffffffffff191665ffffffffffff91909116175f80516020614ca683398151915290910155565b600a5490600160401b821015610899576001820180600a558210156130ca57600a5f52805160209091015160301b65ffffffffffff191665ffffffffffff91909116175f80516020614cc683398151915290910155565b8054600160401b811015610899576147df91600182018155613b06565b61480a57815160209092015160301b65ffffffffffff191665ffffffffffff92909216919091179055565b634e487b7160e01b5f525f60045260245ffd5b600c5491929180156148c4576142d961483591612ca2565b9081549165ffffffffffff908184169183168083116148b25786920361487a5761487392509065ffffffffffff82549181199060301b169116179055565b60301c9190565b50506148ad9061489961488b6108da565b65ffffffffffff9092168252565b6001600160d01b0385166020820152614714565b614873565b604051632520601d60e01b8152600490fd5b506148e8906148d461488b6108da565b6001600160d01b0384166020820152614714565b5f9190565b600a5491929180156149685761421261490591612ca2565b9081549165ffffffffffff908184169183168083116148b2578692036149435761487392509065ffffffffffff82549181199060301b169116179055565b50506148ad9061495461488b6108da565b6001600160d01b038516602082015261476b565b506148e89061497861488b6108da565b6001600160d01b038416602082015261476b565b80549293928015614a21576149a36149ae91612ca2565b825f5260205f200190565b9182549265ffffffffffff918285169281168084116148b2578793036149ed575061487392509065ffffffffffff82549181199060301b169116179055565b9150506148ad91614a0d6149ff6108da565b65ffffffffffff9093168352565b6001600160d01b03861660208301526147c2565b50906148e891614a326149ff6108da565b6001600160d01b03851660208301526147c2565b6001811115610ef557600181600160801b811015614b5f575b614b07614afd614af3614ae9614adf614ad5614b1397600488600160401b614b0e9a1015614b52575b640100000000811015614b45575b62010000811015614b38575b610100811015614b2c575b6010811015614b20575b1015614b18575b60030260011c614ace818b613e87565b0160011c90565b614ace818a613e87565b614ace8189613e87565b614ace8188613e87565b614ace8187613e87565b614ace8186613e87565b8093613e87565b821190565b900390565b60011b614abe565b811c9160021b91614ab7565b60081c91811b91614aad565b60101c9160081b91614aa2565b60201c9160101b91614a96565b60401c9160201b91614a88565b50600160401b9050608082901c614a5f565b905b828110614b7f57505090565b9091808216906001818418811c830180931161082957600a5f5265ffffffffffff80845f80516020614cc6833981519152015416908616105f14614bc7575050915b90614b73565b9093925081018091116108295790614bc1565b905b828110614be857505090565b9091808216906001818418811c830180931161082957600c5f5265ffffffffffff80845f80516020614ca6833981519152015416908616105f14614c30575050915b90614bdc565b9093925081018091116108295790614c2a565b91905b838210614c535750505090565b909192808316906001818518811c830180931161082957855f5265ffffffffffff808460205f20015416908516105f14614c92575050925b9190614c46565b9094935081018091116108295791614c8b56fedf6966c971051c3d54ec59162606531493a51404a002842f56009d7e5cf4a8c7c65a7bb8d6351c1cf70c95a316cc6a92839c986682d98bc35f958f4883f9d2a8d7b6990105719101dabeb77144f2a3385c8033acd3af97e9423a695e81ad1eb50175b7a638427703f0dbe7bb9bbf987a2551717b34e79f33b5b1008d1fa01db902dd7bc7dec4dceedda775e58dd541e08a116c6c53815c0bd028192f7b6268009b779b17422d0df92223018b32b4d1fa46e071723d6817e2486d003becc55f00a2646970667358221220e8428a681b511a30813c5049030bc63c76aec9bb59e48a4d2e3e0e5a1e4a0ceb64736f6c63430008190033","linkReferences":{}},"methodIdentifiers":{"DEFAULT_ADMIN_ROLE()":"a217fddf","DELEGATOR_FACTORY()":"6da3e06d","DEPOSITOR_WHITELIST_ROLE()":"1b66c9e1","DEPOSIT_LIMIT_SET_ROLE()":"a21a1df9","DEPOSIT_WHITELIST_SET_ROLE()":"db388715","EPOCH_DURATION_SET_ROLE()":"61819dd8","FLASH_FEE_BASE()":"ecc98f05","FLASH_FEE_RATE_SET_ROLE()":"bc46f722","FLASH_FEE_RECEIVER_SET_ROLE()":"31d9736c","FLASH_LOAN_ENABLED_SET_ROLE()":"a66b3a73","IS_DEPOSIT_LIMIT_SET_ROLE()":"1415519b","RETURN_VALUE()":"653b04cd","SLASHER_FACTORY()":"87df0788","_Vault_init(bytes)":"ae13539e","_epochDuration()":"2fa27fae","_epochDurationInit()":"9f9962dd","_epochDurationInitIndex()":"9b4bae3e","_epochDurationSetEpochsDelay()":"bba6ff4a","_nextEpochDuration()":"c1bc6f51","_nextEpochDurationInit()":"cc52aee7","_nextEpochDurationSetEpochsDelay()":"c4db46fc","_nextEpochInitIndex()":"2749f9c4","_prevEpochDuration()":"5a36aa74","_prevEpochDurationInit()":"6e0f2455","_prevEpochDurationInitIndex()":"98ccba4a","activeBalanceOf(address)":"59f769a9","activeBalanceOfAt(address,uint48,bytes)":"efb559d6","activeShares()":"bfefcd7b","activeSharesAt(uint48,bytes)":"50f22068","activeSharesOf(address)":"9d66201b","activeSharesOfAt(address,uint48,bytes)":"2d73c69c","activeStake()":"bd49c35f","activeStakeAt(uint48,bytes)":"810da75d","burner()":"27810b6e","claim(address,uint256)":"aad3ec96","claimBatch(address,uint256[])":"7c04c80a","collateral()":"d8dfeb45","currentEpoch()":"76671808","currentEpochStart()":"61a8c8c4","delegator()":"ce9b7930","deposit(address,uint256)":"47e7ef24","depositLimit()":"ecf70858","depositWhitelist()":"48d3b775","epochAt(uint48)":"7953b33b","epochDuration()":"4ff0876a","epochDurationInit()":"46361671","epochDurationSetEpochsDelay()":"c642b050","epochStart(uint256)":"aa9354a3","flashFee(address,uint256)":"d9d98ce4","flashFeeRate()":"e945da7f","flashFeeReceiver()":"a8b24f9a","flashLoan(address,address,uint256,bytes)":"5cffe9de","flashLoanEnabled()":"65d61c6c","getRoleAdmin(bytes32)":"248a9ca3","grantRole(bytes32,address)":"2f2ff15d","hasRole(bytes32,address)":"91d14854","isDelegatorInitialized()":"50861adc","isDepositLimit()":"a1b12202","isDepositorWhitelisted(address)":"794b15b7","isInitialized()":"392e53cd","isSlasherInitialized()":"6ec1e3f8","isWithdrawalsClaimed(uint256,address)":"a5d03223","maxFlashLoan(address)":"613255ab","nextEpochStart()":"73790ab3","onSlash(uint256,uint48)":"7278e31c","previousEpochStart()":"281f5752","redeem(address,uint256)":"1e9a6950","renounceRole(bytes32,address)":"36568abe","revokeRole(bytes32,address)":"d547741f","setDelegator(address)":"83cd9cc3","setDepositLimit(uint256)":"bdc8144b","setDepositWhitelist(bool)":"4105a7dd","setDepositorWhitelistStatus(address,bool)":"a2861466","setEpochDuration(uint48,uint256)":"83f46c2c","setFlashFeeRate(uint256)":"d626811b","setFlashFeeReceiver(address)":"52741a40","setFlashloanEnabled(bool)":"859b9344","setIsDepositLimit(bool)":"5346e34f","setSlasher(address)":"aabc2496","slashableBalanceOf(address)":"c31e8dd7","slasher()":"b1344271","staticDelegateCall(address,bytes)":"9f86fd85","supportsInterface(bytes4)":"01ffc9a7","totalStake()":"8b0e9f3f","withdraw(address,uint256)":"f3fef3a3","withdrawalShares(uint256)":"afba70ad","withdrawalSharesOf(uint256,address)":"a3b54172","withdrawals(uint256)":"5cc07076","withdrawalsOf(uint256,address)":"f5e7ee0f"},"id":108}