{"abi":[{"type":"constructor","inputs":[{"name":"delegatorFactory","type":"address","internalType":"address"},{"name":"slasherFactory","type":"address","internalType":"address"},{"name":"vaultFactory","type":"address","internalType":"address"}],"stateMutability":"nonpayable"},{"type":"function","name":"DEFAULT_ADMIN_ROLE","inputs":[],"outputs":[{"name":"","type":"bytes32","internalType":"bytes32"}],"stateMutability":"view"},{"type":"function","name":"DELEGATOR_FACTORY","inputs":[],"outputs":[{"name":"","type":"address","internalType":"address"}],"stateMutability":"view"},{"type":"function","name":"DEPOSITOR_WHITELIST_ROLE","inputs":[],"outputs":[{"name":"","type":"bytes32","internalType":"bytes32"}],"stateMutability":"view"},{"type":"function","name":"DEPOSIT_LIMIT_SET_ROLE","inputs":[],"outputs":[{"name":"","type":"bytes32","internalType":"bytes32"}],"stateMutability":"view"},{"type":"function","name":"DEPOSIT_WHITELIST_SET_ROLE","inputs":[],"outputs":[{"name":"","type":"bytes32","internalType":"bytes32"}],"stateMutability":"view"},{"type":"function","name":"FACTORY","inputs":[],"outputs":[{"name":"","type":"address","internalType":"address"}],"stateMutability":"view"},{"type":"function","name":"IS_DEPOSIT_LIMIT_SET_ROLE","inputs":[],"outputs":[{"name":"","type":"bytes32","internalType":"bytes32"}],"stateMutability":"view"},{"type":"function","name":"SLASHER_FACTORY","inputs":[],"outputs":[{"name":"","type":"address","internalType":"address"}],"stateMutability":"view"},{"type":"function","name":"activeBalanceOf","inputs":[{"name":"account","type":"address","internalType":"address"}],"outputs":[{"name":"","type":"uint256","internalType":"uint256"}],"stateMutability":"view"},{"type":"function","name":"activeBalanceOfAt","inputs":[{"name":"account","type":"address","internalType":"address"},{"name":"timestamp","type":"uint48","internalType":"uint48"},{"name":"hints","type":"bytes","internalType":"bytes"}],"outputs":[{"name":"","type":"uint256","internalType":"uint256"}],"stateMutability":"view"},{"type":"function","name":"activeShares","inputs":[],"outputs":[{"name":"","type":"uint256","internalType":"uint256"}],"stateMutability":"view"},{"type":"function","name":"activeSharesAt","inputs":[{"name":"timestamp","type":"uint48","internalType":"uint48"},{"name":"hint","type":"bytes","internalType":"bytes"}],"outputs":[{"name":"","type":"uint256","internalType":"uint256"}],"stateMutability":"view"},{"type":"function","name":"activeSharesOf","inputs":[{"name":"account","type":"address","internalType":"address"}],"outputs":[{"name":"","type":"uint256","internalType":"uint256"}],"stateMutability":"view"},{"type":"function","name":"activeSharesOfAt","inputs":[{"name":"account","type":"address","internalType":"address"},{"name":"timestamp","type":"uint48","internalType":"uint48"},{"name":"hint","type":"bytes","internalType":"bytes"}],"outputs":[{"name":"","type":"uint256","internalType":"uint256"}],"stateMutability":"view"},{"type":"function","name":"activeStake","inputs":[],"outputs":[{"name":"","type":"uint256","internalType":"uint256"}],"stateMutability":"view"},{"type":"function","name":"activeStakeAt","inputs":[{"name":"timestamp","type":"uint48","internalType":"uint48"},{"name":"hint","type":"bytes","internalType":"bytes"}],"outputs":[{"name":"","type":"uint256","internalType":"uint256"}],"stateMutability":"view"},{"type":"function","name":"burner","inputs":[],"outputs":[{"name":"","type":"address","internalType":"address"}],"stateMutability":"view"},{"type":"function","name":"claim","inputs":[{"name":"recipient","type":"address","internalType":"address"},{"name":"epoch","type":"uint256","internalType":"uint256"}],"outputs":[{"name":"amount","type":"uint256","internalType":"uint256"}],"stateMutability":"nonpayable"},{"type":"function","name":"claimBatch","inputs":[{"name":"recipient","type":"address","internalType":"address"},{"name":"epochs","type":"uint256[]","internalType":"uint256[]"}],"outputs":[{"name":"amount","type":"uint256","internalType":"uint256"}],"stateMutability":"nonpayable"},{"type":"function","name":"collateral","inputs":[],"outputs":[{"name":"","type":"address","internalType":"address"}],"stateMutability":"view"},{"type":"function","name":"currentEpoch","inputs":[],"outputs":[{"name":"","type":"uint256","internalType":"uint256"}],"stateMutability":"view"},{"type":"function","name":"currentEpochStart","inputs":[],"outputs":[{"name":"","type":"uint48","internalType":"uint48"}],"stateMutability":"view"},{"type":"function","name":"delegator","inputs":[],"outputs":[{"name":"","type":"address","internalType":"address"}],"stateMutability":"view"},{"type":"function","name":"deposit","inputs":[{"name":"onBehalfOf","type":"address","internalType":"address"},{"name":"amount","type":"uint256","internalType":"uint256"}],"outputs":[{"name":"depositedAmount","type":"uint256","internalType":"uint256"},{"name":"mintedShares","type":"uint256","internalType":"uint256"}],"stateMutability":"nonpayable"},{"type":"function","name":"depositLimit","inputs":[],"outputs":[{"name":"","type":"uint256","internalType":"uint256"}],"stateMutability":"view"},{"type":"function","name":"depositWhitelist","inputs":[],"outputs":[{"name":"","type":"bool","internalType":"bool"}],"stateMutability":"view"},{"type":"function","name":"epochAt","inputs":[{"name":"timestamp","type":"uint48","internalType":"uint48"}],"outputs":[{"name":"","type":"uint256","internalType":"uint256"}],"stateMutability":"view"},{"type":"function","name":"epochDuration","inputs":[],"outputs":[{"name":"","type":"uint48","internalType":"uint48"}],"stateMutability":"view"},{"type":"function","name":"epochDurationInit","inputs":[],"outputs":[{"name":"","type":"uint48","internalType":"uint48"}],"stateMutability":"view"},{"type":"function","name":"getRoleAdmin","inputs":[{"name":"role","type":"bytes32","internalType":"bytes32"}],"outputs":[{"name":"","type":"bytes32","internalType":"bytes32"}],"stateMutability":"view"},{"type":"function","name":"grantRole","inputs":[{"name":"role","type":"bytes32","internalType":"bytes32"},{"name":"account","type":"address","internalType":"address"}],"outputs":[],"stateMutability":"nonpayable"},{"type":"function","name":"hasRole","inputs":[{"name":"role","type":"bytes32","internalType":"bytes32"},{"name":"account","type":"address","internalType":"address"}],"outputs":[{"name":"","type":"bool","internalType":"bool"}],"stateMutability":"view"},{"type":"function","name":"initialize","inputs":[{"name":"initialVersion","type":"uint64","internalType":"uint64"},{"name":"owner_","type":"address","internalType":"address"},{"name":"data","type":"bytes","internalType":"bytes"}],"outputs":[],"stateMutability":"nonpayable"},{"type":"function","name":"isDelegatorInitialized","inputs":[],"outputs":[{"name":"","type":"bool","internalType":"bool"}],"stateMutability":"view"},{"type":"function","name":"isDepositLimit","inputs":[],"outputs":[{"name":"","type":"bool","internalType":"bool"}],"stateMutability":"view"},{"type":"function","name":"isDepositorWhitelisted","inputs":[{"name":"account","type":"address","internalType":"address"}],"outputs":[{"name":"value","type":"bool","internalType":"bool"}],"stateMutability":"view"},{"type":"function","name":"isInitialized","inputs":[],"outputs":[{"name":"","type":"bool","internalType":"bool"}],"stateMutability":"view"},{"type":"function","name":"isSlasherInitialized","inputs":[],"outputs":[{"name":"","type":"bool","internalType":"bool"}],"stateMutability":"view"},{"type":"function","name":"isWithdrawalsClaimed","inputs":[{"name":"epoch","type":"uint256","internalType":"uint256"},{"name":"account","type":"address","internalType":"address"}],"outputs":[{"name":"value","type":"bool","internalType":"bool"}],"stateMutability":"view"},{"type":"function","name":"migrate","inputs":[{"name":"newVersion","type":"uint64","internalType":"uint64"},{"name":"data","type":"bytes","internalType":"bytes"}],"outputs":[],"stateMutability":"nonpayable"},{"type":"function","name":"nextEpochStart","inputs":[],"outputs":[{"name":"","type":"uint48","internalType":"uint48"}],"stateMutability":"view"},{"type":"function","name":"onSlash","inputs":[{"name":"amount","type":"uint256","internalType":"uint256"},{"name":"captureTimestamp","type":"uint48","internalType":"uint48"}],"outputs":[{"name":"slashedAmount","type":"uint256","internalType":"uint256"}],"stateMutability":"nonpayable"},{"type":"function","name":"owner","inputs":[],"outputs":[{"name":"","type":"address","internalType":"address"}],"stateMutability":"view"},{"type":"function","name":"previousEpochStart","inputs":[],"outputs":[{"name":"","type":"uint48","internalType":"uint48"}],"stateMutability":"view"},{"type":"function","name":"redeem","inputs":[{"name":"claimer","type":"address","internalType":"address"},{"name":"shares","type":"uint256","internalType":"uint256"}],"outputs":[{"name":"withdrawnAssets","type":"uint256","internalType":"uint256"},{"name":"mintedShares","type":"uint256","internalType":"uint256"}],"stateMutability":"nonpayable"},{"type":"function","name":"renounceOwnership","inputs":[],"outputs":[],"stateMutability":"nonpayable"},{"type":"function","name":"renounceRole","inputs":[{"name":"role","type":"bytes32","internalType":"bytes32"},{"name":"callerConfirmation","type":"address","internalType":"address"}],"outputs":[],"stateMutability":"nonpayable"},{"type":"function","name":"revokeRole","inputs":[{"name":"role","type":"bytes32","internalType":"bytes32"},{"name":"account","type":"address","internalType":"address"}],"outputs":[],"stateMutability":"nonpayable"},{"type":"function","name":"setDelegator","inputs":[{"name":"delegator_","type":"address","internalType":"address"}],"outputs":[],"stateMutability":"nonpayable"},{"type":"function","name":"setDepositLimit","inputs":[{"name":"limit","type":"uint256","internalType":"uint256"}],"outputs":[],"stateMutability":"nonpayable"},{"type":"function","name":"setDepositWhitelist","inputs":[{"name":"status","type":"bool","internalType":"bool"}],"outputs":[],"stateMutability":"nonpayable"},{"type":"function","name":"setDepositorWhitelistStatus","inputs":[{"name":"account","type":"address","internalType":"address"},{"name":"status","type":"bool","internalType":"bool"}],"outputs":[],"stateMutability":"nonpayable"},{"type":"function","name":"setIsDepositLimit","inputs":[{"name":"status","type":"bool","internalType":"bool"}],"outputs":[],"stateMutability":"nonpayable"},{"type":"function","name":"setSlasher","inputs":[{"name":"slasher_","type":"address","internalType":"address"}],"outputs":[],"stateMutability":"nonpayable"},{"type":"function","name":"slashableBalanceOf","inputs":[{"name":"account","type":"address","internalType":"address"}],"outputs":[{"name":"","type":"uint256","internalType":"uint256"}],"stateMutability":"view"},{"type":"function","name":"slasher","inputs":[],"outputs":[{"name":"","type":"address","internalType":"address"}],"stateMutability":"view"},{"type":"function","name":"staticDelegateCall","inputs":[{"name":"target","type":"address","internalType":"address"},{"name":"data","type":"bytes","internalType":"bytes"}],"outputs":[],"stateMutability":"nonpayable"},{"type":"function","name":"supportsInterface","inputs":[{"name":"interfaceId","type":"bytes4","internalType":"bytes4"}],"outputs":[{"name":"","type":"bool","internalType":"bool"}],"stateMutability":"view"},{"type":"function","name":"totalStake","inputs":[],"outputs":[{"name":"","type":"uint256","internalType":"uint256"}],"stateMutability":"view"},{"type":"function","name":"transferOwnership","inputs":[{"name":"newOwner","type":"address","internalType":"address"}],"outputs":[],"stateMutability":"nonpayable"},{"type":"function","name":"version","inputs":[],"outputs":[{"name":"","type":"uint64","internalType":"uint64"}],"stateMutability":"view"},{"type":"function","name":"withdraw","inputs":[{"name":"claimer","type":"address","internalType":"address"},{"name":"amount","type":"uint256","internalType":"uint256"}],"outputs":[{"name":"burnedShares","type":"uint256","internalType":"uint256"},{"name":"mintedShares","type":"uint256","internalType":"uint256"}],"stateMutability":"nonpayable"},{"type":"function","name":"withdrawalShares","inputs":[{"name":"epoch","type":"uint256","internalType":"uint256"}],"outputs":[{"name":"amount","type":"uint256","internalType":"uint256"}],"stateMutability":"view"},{"type":"function","name":"withdrawalSharesOf","inputs":[{"name":"epoch","type":"uint256","internalType":"uint256"},{"name":"account","type":"address","internalType":"address"}],"outputs":[{"name":"amount","type":"uint256","internalType":"uint256"}],"stateMutability":"view"},{"type":"function","name":"withdrawals","inputs":[{"name":"epoch","type":"uint256","internalType":"uint256"}],"outputs":[{"name":"amount","type":"uint256","internalType":"uint256"}],"stateMutability":"view"},{"type":"function","name":"withdrawalsOf","inputs":[{"name":"epoch","type":"uint256","internalType":"uint256"},{"name":"account","type":"address","internalType":"address"}],"outputs":[{"name":"","type":"uint256","internalType":"uint256"}],"stateMutability":"view"},{"type":"event","name":"Claim","inputs":[{"name":"claimer","type":"address","indexed":true,"internalType":"address"},{"name":"recipient","type":"address","indexed":true,"internalType":"address"},{"name":"epoch","type":"uint256","indexed":false,"internalType":"uint256"},{"name":"amount","type":"uint256","indexed":false,"internalType":"uint256"}],"anonymous":false},{"type":"event","name":"ClaimBatch","inputs":[{"name":"claimer","type":"address","indexed":true,"internalType":"address"},{"name":"recipient","type":"address","indexed":true,"internalType":"address"},{"name":"epochs","type":"uint256[]","indexed":false,"internalType":"uint256[]"},{"name":"amount","type":"uint256","indexed":false,"internalType":"uint256"}],"anonymous":false},{"type":"event","name":"Deposit","inputs":[{"name":"depositor","type":"address","indexed":true,"internalType":"address"},{"name":"onBehalfOf","type":"address","indexed":true,"internalType":"address"},{"name":"amount","type":"uint256","indexed":false,"internalType":"uint256"},{"name":"shares","type":"uint256","indexed":false,"internalType":"uint256"}],"anonymous":false},{"type":"event","name":"Initialized","inputs":[{"name":"version","type":"uint64","indexed":false,"internalType":"uint64"}],"anonymous":false},{"type":"event","name":"OnSlash","inputs":[{"name":"amount","type":"uint256","indexed":false,"internalType":"uint256"},{"name":"captureTimestamp","type":"uint48","indexed":false,"internalType":"uint48"},{"name":"slashedAmount","type":"uint256","indexed":false,"internalType":"uint256"}],"anonymous":false},{"type":"event","name":"OwnershipTransferred","inputs":[{"name":"previousOwner","type":"address","indexed":true,"internalType":"address"},{"name":"newOwner","type":"address","indexed":true,"internalType":"address"}],"anonymous":false},{"type":"event","name":"RoleAdminChanged","inputs":[{"name":"role","type":"bytes32","indexed":true,"internalType":"bytes32"},{"name":"previousAdminRole","type":"bytes32","indexed":true,"internalType":"bytes32"},{"name":"newAdminRole","type":"bytes32","indexed":true,"internalType":"bytes32"}],"anonymous":false},{"type":"event","name":"RoleGranted","inputs":[{"name":"role","type":"bytes32","indexed":true,"internalType":"bytes32"},{"name":"account","type":"address","indexed":true,"internalType":"address"},{"name":"sender","type":"address","indexed":true,"internalType":"address"}],"anonymous":false},{"type":"event","name":"RoleRevoked","inputs":[{"name":"role","type":"bytes32","indexed":true,"internalType":"bytes32"},{"name":"account","type":"address","indexed":true,"internalType":"address"},{"name":"sender","type":"address","indexed":true,"internalType":"address"}],"anonymous":false},{"type":"event","name":"SetDelegator","inputs":[{"name":"delegator","type":"address","indexed":true,"internalType":"address"}],"anonymous":false},{"type":"event","name":"SetDepositLimit","inputs":[{"name":"limit","type":"uint256","indexed":false,"internalType":"uint256"}],"anonymous":false},{"type":"event","name":"SetDepositWhitelist","inputs":[{"name":"status","type":"bool","indexed":false,"internalType":"bool"}],"anonymous":false},{"type":"event","name":"SetDepositorWhitelistStatus","inputs":[{"name":"account","type":"address","indexed":true,"internalType":"address"},{"name":"status","type":"bool","indexed":false,"internalType":"bool"}],"anonymous":false},{"type":"event","name":"SetIsDepositLimit","inputs":[{"name":"status","type":"bool","indexed":false,"internalType":"bool"}],"anonymous":false},{"type":"event","name":"SetSlasher","inputs":[{"name":"slasher","type":"address","indexed":true,"internalType":"address"}],"anonymous":false},{"type":"event","name":"Withdraw","inputs":[{"name":"withdrawer","type":"address","indexed":true,"internalType":"address"},{"name":"claimer","type":"address","indexed":true,"internalType":"address"},{"name":"amount","type":"uint256","indexed":false,"internalType":"uint256"},{"name":"burnedShares","type":"uint256","indexed":false,"internalType":"uint256"},{"name":"mintedShares","type":"uint256","indexed":false,"internalType":"uint256"}],"anonymous":false},{"type":"error","name":"AccessControlBadConfirmation","inputs":[]},{"type":"error","name":"AccessControlUnauthorizedAccount","inputs":[{"name":"account","type":"address","internalType":"address"},{"name":"neededRole","type":"bytes32","internalType":"bytes32"}]},{"type":"error","name":"AddressEmptyCode","inputs":[{"name":"target","type":"address","internalType":"address"}]},{"type":"error","name":"AddressInsufficientBalance","inputs":[{"name":"account","type":"address","internalType":"address"}]},{"type":"error","name":"AlreadyClaimed","inputs":[]},{"type":"error","name":"AlreadyInitialized","inputs":[]},{"type":"error","name":"AlreadySet","inputs":[]},{"type":"error","name":"CheckpointUnorderedInsertion","inputs":[]},{"type":"error","name":"DelegatorAlreadyInitialized","inputs":[]},{"type":"error","name":"DepositLimitReached","inputs":[]},{"type":"error","name":"FailedInnerCall","inputs":[]},{"type":"error","name":"InsufficientClaim","inputs":[]},{"type":"error","name":"InsufficientDeposit","inputs":[]},{"type":"error","name":"InsufficientRedemption","inputs":[]},{"type":"error","name":"InsufficientWithdrawal","inputs":[]},{"type":"error","name":"InvalidAccount","inputs":[]},{"type":"error","name":"InvalidCaptureEpoch","inputs":[]},{"type":"error","name":"InvalidClaimer","inputs":[]},{"type":"error","name":"InvalidCollateral","inputs":[]},{"type":"error","name":"InvalidDelegator","inputs":[]},{"type":"error","name":"InvalidEpoch","inputs":[]},{"type":"error","name":"InvalidEpochDuration","inputs":[]},{"type":"error","name":"InvalidInitialization","inputs":[]},{"type":"error","name":"InvalidLengthEpochs","inputs":[]},{"type":"error","name":"InvalidOnBehalfOf","inputs":[]},{"type":"error","name":"InvalidRecipient","inputs":[]},{"type":"error","name":"InvalidSlasher","inputs":[]},{"type":"error","name":"InvalidTimestamp","inputs":[]},{"type":"error","name":"MathOverflowedMulDiv","inputs":[]},{"type":"error","name":"MissingRoles","inputs":[]},{"type":"error","name":"NoPreviousEpoch","inputs":[]},{"type":"error","name":"NotDelegator","inputs":[]},{"type":"error","name":"NotFactory","inputs":[]},{"type":"error","name":"NotInitialized","inputs":[]},{"type":"error","name":"NotInitializing","inputs":[]},{"type":"error","name":"NotSlasher","inputs":[]},{"type":"error","name":"NotWhitelistedDepositor","inputs":[]},{"type":"error","name":"OwnableInvalidOwner","inputs":[{"name":"owner","type":"address","internalType":"address"}]},{"type":"error","name":"OwnableUnauthorizedAccount","inputs":[{"name":"account","type":"address","internalType":"address"}]},{"type":"error","name":"ReentrancyGuardReentrantCall","inputs":[]},{"type":"error","name":"SafeCastOverflowedUintDowncast","inputs":[{"name":"bits","type":"uint8","internalType":"uint8"},{"name":"value","type":"uint256","internalType":"uint256"}]},{"type":"error","name":"SafeERC20FailedOperation","inputs":[{"name":"token","type":"address","internalType":"address"}]},{"type":"error","name":"SlasherAlreadyInitialized","inputs":[]},{"type":"error","name":"TooMuchRedeem","inputs":[]},{"type":"error","name":"TooMuchWithdraw","inputs":[]}],"bytecode":{"object":"0x60e03461013c57601f614cf538819003918201601f1916830192916001600160401b03918285118486101761014157816060928592604097885283398101031261013c5761004c82610157565b916100648461005d60208401610157565b9201610157565b9260805260a0527ff0c57e16840df040f15088dc2f81fe391c3923bec73e23a9662efc9c229c6a009081549060ff82861c1661012b5780808316036100e7575b50505060c05251614b89908161016c82396080518181816111d5015261171e015260a05181818161188c0152611d8e015260c05181818161077e01526109b80152f35b6001600160401b0319909116811790915582519081527fc7f505b2f371ae2175ee4913f4499e1f2633a7b5936321eed1cdaeb6115181d290602090a13880806100a4565b845163f92ee8a960e01b8152600490fd5b600080fd5b634e487b7160e01b600052604160045260246000fd5b51906001600160a01b038216820361013c5756fe6080604052600436101561001257600080fd5b60003560e01c806301ffc9a7146104375780631415519b146104325780631b66c9e11461042d5780631e9a695014610428578063248a9ca31461042357806327810b6e1461041e578063281f5752146104195780632abe3048146104145780632d73c69c1461040f5780632dd310001461040a5780632f2ff15d1461040557806336568abe14610400578063392e53cd146103fb5780634105a7dd146103f657806346361671146103f157806347e7ef24146103ec57806348d3b775146103e75780634ff0876a146103e257806350861adc146103dd57806350f22068146103d85780635346e34f146103d357806354fd4d50146103ce57806357ec83cc146103c957806359f769a9146103c45780635cc07076146103bf57806361a8c8c4146103ba5780636da3e06d146103b55780636ec1e3f8146103b0578063715018a6146103ab5780637278e31c146103a657806373790ab3146103a1578063766718081461039c578063794b15b7146103975780637953b33b146103925780637c04c80a1461038d578063810da75d1461038857806383cd9cc31461038357806387df07881461037e5780638b0e9f3f146103795780638da5cb5b1461037457806391d148541461036f5780639d66201b1461036a5780639f86fd8514610365578063a1b1220214610360578063a217fddf1461035b578063a21a1df914610356578063a286146614610351578063a3b541721461034c578063a5d0322314610347578063aabc249614610342578063aad3ec961461033d578063afba70ad14610338578063b134427114610333578063bd49c35f1461032e578063bdc8144b14610329578063bfefcd7b14610324578063c31e8dd71461031f578063ce9b79301461031a578063d547741f14610315578063d8dfeb4514610310578063db3887151461030b578063ecf7085814610306578063efb559d614610301578063f2fde38b146102fc578063f3fef3a3146102f75763f5e7ee0f146102f257600080fd5b61243f565b612398565b61236b565b61221c565b6121fe565b6121c3565b612196565b612147565b61211e565b6120b4565b612099565b611fb9565b611f9e565b611f75565b611f49565b611e86565b611ccb565b611c81565b611c30565b611b3a565b611aff565b611ae3565b611abd565b6119f4565b6119b8565b611955565b61191f565b6118bb565b611876565b6116b9565b6116a0565b61163a565b611613565b6115d1565b6115b6565b611574565b611298565b61122a565b611204565b6111bf565b61116b565b61113f565b611118565b610fdd565b610fa9565b610f11565b610ef8565b610e9a565b610e79565b610e56565b610b90565b610b67565b610ac9565b610a83565b610a38565b6109e7565b6109a2565b61092d565b610739565b610669565b610640565b610604565b610519565b6104cd565b610492565b3461048d57602036600319011261048d5760043563ffffffff60e01b811680910361048d57602090637965db0b60e01b811490811561047c575b506040519015158152f35b6301ffc9a760e01b14905038610471565b600080fd5b3461048d57600036600319011261048d5760206040517fc6aaadd7371d5e8f9ed6849dd66a66573a3ba37167d03f4352c9ba5693678fac8152f35b3461048d57600036600319011261048d5760206040517f9c56d972d63cbb4195b3c1484691dfc220fa96a4c47e7b6613bd82a022029e068152f35b6001600160a01b0381160361048d57565b3461048d57604036600319011261048d5760043561053681610508565b60243590610542612cb1565b6001600160a01b038116156105f357336000908152600e6020526040902061056e90613da1565b613da1565b82116105e15761058e61057f613ca3565b610587613d25565b9084613dfb565b9182156105cc578261059f92612ce1565b906105b76001600080516020614b1483398151915255565b604080519182526020820192909252f35b0390f35b60405160016245ddc760e11b03198152600490fd5b604051632418411f60e11b8152600490fd5b6040516208978560e71b8152600490fd5b3461048d57602036600319011261048d57600435600052600080516020614af48339815191526020526020600160406000200154604051908152f35b3461048d57600036600319011261048d576001546040516001600160a01b039091168152602090f35b3461048d57600036600319011261048d576106826129c6565b80156106e45760015465ffffffffffff8160a01c169160001981019081116106df576106b19160d01c9061249b565b81018091116106df576106c66105c891612e69565b60405165ffffffffffff90911681529081906020820190565b612469565b604051639fa56a5b60e01b8152600490fd5b600435906001600160401b038216820361048d57565b9181601f8401121561048d578235916001600160401b03831161048d576020838186019501011161048d57565b3461048d57604036600319011261048d576107526106f6565b6001600160401b0360243581811161048d5761077290369060040161070c565b505061077c612cb1565b7f00000000000000000000000000000000000000000000000000000000000000006001600160a01b031633036107fa57600080516020614b34833981519152549060ff8260401c169283156107ea575b5050506107d857600080fd5b60405163f92ee8a960e01b8152600490fd5b81169116101590503880806107cc565b604051631966391b60e11b8152600490fd5b65ffffffffffff81160361048d57565b634e487b7160e01b600052604160045260246000fd5b606081019081106001600160401b0382111761084d57604052565b61081c565b604081019081106001600160401b0382111761084d57604052565b90601f801991011681019081106001600160401b0382111761084d57604052565b6040519061016082018281106001600160401b0382111761084d57604052565b604051906108bb82610852565b565b6001600160401b03811161084d57601f01601f191660200190565b9291926108e4826108bd565b916108f2604051938461086d565b82948184528183011161048d578281602093846000960137010152565b9080601f8301121561048d5781602061092a933591016108d8565b90565b3461048d57606036600319011261048d5760043561094a81610508565b602435906109578261080c565b604435906001600160401b03821161048d5760209261097d61099a93369060040161090f565b6001600160a01b039092166000908152600e855260409020613056565b604051908152f35b3461048d57600036600319011261048d576040517f00000000000000000000000000000000000000000000000000000000000000006001600160a01b03168152602090f35b3461048d57604036600319011261048d57610a36602435600435610a0a82610508565b80600052600080516020614af4833981519152602052610a31600160406000200154613230565b613540565b005b3461048d57604036600319011261048d57602435610a5581610508565b336001600160a01b03821603610a7157610a369060043561357a565b60405163334bd91960e11b8152600490fd5b3461048d57600036600319011261048d5760ff60025460a01c1680610ab0575b6020906040519015158152f35b5060035460a01c60ff16610aa3565b8015150361048d57565b3461048d57602036600319011261048d57600435610ae681610abf565b610aee612cb1565b610af6613122565b600054901515908160ff8216151514610b555760ff191660ff8216176000556040519081527f3e12b7b36c75ac9609a3f58609b331210428e1a85909132638955ba0301eec3390602090a16001600080516020614b1483398151915255005b60405163a741a04560e01b8152600490fd5b3461048d57600036600319011261048d57602065ffffffffffff60015460a01c16604051908152f35b3461048d5760408060031936011261048d576004803591610bb083610508565b610bb8612cb1565b6001600160a01b0391838316908115610e485760005460ff811680610e2e575b610e1f5783516370a0823160e01b808252308483019081529096602093909160109190911c82169084908490819083010381845afa928315610df757600093610dfc575b50610c2e906024359030903390613612565b60005486519788523085890190815290979184918391908290819060200103918b60101c165afa908115610df757610c6f93600092610dca575b505061248e565b938415610dbb5760081c60ff1680610da6575b610d985750906105c891610d35610c97613ca3565b95610ce0610ca3613d25565b610ccb610cb18a838b613dfb565b99610cc58a610cbf42612e69565b926124bc565b90613774565b5050610cda89610cbf42612e69565b90613858565b50506001600160a01b0381166000908152600e6020526040902090610d2f88610d2a610569610d0e42612e69565b6001600160a01b039095166000908152600e6020526040902090565b6124bc565b91613938565b505081518481526020810186905233907fdcbc1c05240f31ff3ad067ef1ee35ce4997762752e3a095284754544f4c709d790604090a3610d826001600080516020614b1483398151915255565b5191825260208201929092529081906040820190565b8251632484557960e01b8152fd5b50610db384610d2a613ca3565b815410610c82565b50825163070f6eed60e11b8152fd5b610de99250803d10610df0575b610de1818361086d565b8101906124eb565b3880610c68565b503d610dd7565b6124fa565b610c2e919350610e1890853d8711610df057610de1818361086d565b9290610c1c565b5082516304f63b8560e01b8152fd5b503360009081526005602052604090205460ff1615610bd8565b8251630d534ce360e11b8152fd5b3461048d57600036600319011261048d57602060ff600054166040519015158152f35b3461048d57600036600319011261048d57602060015460d01c604051908152f35b3461048d57600036600319011261048d57602060ff60025460a01c166040519015158152f35b90604060031983011261048d57600435610ed98161080c565b91602435906001600160401b03821161048d5761092a9160040161090f565b3461048d57602061099a610f0b36610ec0565b90612ecc565b3461048d57602036600319011261048d57600435610f2e81610abf565b610f36612cb1565b610f3e613180565b600054901515908160ff8260081c16151514610b555761ff001916600882901b61ff0016176000556040519081527ffa7a25a0b611d4ba3c0ea990e90dc23d484a5dd7a1be4733fef2946ba74530c690602090a1610a366001600080516020614b1483398151915255565b3461048d57600036600319011261048d5760206001600160401b03600080516020614b348339815191525416604051908152f35b3461048d57606036600319011261048d57610ff66106f6565b60243561100281610508565b6001600160401b039160443583811161048d5761102390369060040161070c565b600080516020614b348339815191529491855494838616806111075760ff8760401c169081156110fa575b506107d8577fc7f505b2f371ae2175ee4913f4499e1f2633a7b5936321eed1cdaeb6115181d2966110f5966110bc958716906001600160401b0319161790556110b7600080516020614b34833981519152600160401b68ff000000000000000019825416179055565b612506565b600080516020614b34833981519152805468ff0000000000000000191690556040516001600160401b0390911681529081906020820190565b0390a1005b905084861611153861104e565b60405162dc149f60e41b8152600490fd5b3461048d57602036600319011261048d57602061099a60043561113a81610508565b61292c565b3461048d57602036600319011261048d5760043560005260066020526020604060002054604051908152f35b3461048d57600036600319011261048d5760015465ffffffffffff6111a2818360a01c16926111986129c6565b9060d01c9061249b565b82018092116106df576111b6602092612e69565b60405191168152f35b3461048d57600036600319011261048d576040517f00000000000000000000000000000000000000000000000000000000000000006001600160a01b03168152602090f35b3461048d57600036600319011261048d57602060ff60035460a01c166040519015158152f35b3461048d5760008060031936011261129557611244613acc565b600080516020614a9483398151915280546001600160a01b0319811690915581906001600160a01b03167f8be0079c531659141344cd1fd0a4f28419497f9722a3daafe3b4186f6b6457e08280a380f35b80fd5b3461048d57604036600319011261048d576004356024356112b88161080c565b6112c0612cb1565b6003546112dd906001600160a01b03165b6001600160a01b031690565b3303611562576112eb6129c6565b906112f5816129fa565b9082151580611551575b8015611548575b611536576105c8937ff9d090c096f71cd1659861a9ce5b6f384bceb4e2fa4e4a19edf6489a9b8d56c792611338613ca3565b94611355611345826124ae565b6000526006602052604060002090565b549082810361144b575061136981876124bc565b6113738185613b05565b968780611404575b50505050505b836113cf575b6040805191825265ffffffffffff929092166020820152908101839052606090a16113bf6001600080516020614b1483398151915255565b6040519081529081906020820190565b6000546113ff9085906113ed9060101c6001600160a01b03166112d1565b6001546001600160a01b031690613bb6565b611387565b61144093610c6883610cc561142a6114236113459861143a9888613b21565b809661248e565b9461143442612e69565b9261248e565b926124ae565b55388080808761137b565b9150611461826000526006602052604060002090565b549061147181610d2a848a6124bc565b9061147c8286613b05565b978861148d575b5050505050611381565b61150493836114b5936114c28c6114bd6114ab6114f3998884613b21565b9788958584613b21565b94859261248e565b61248e565b9384841061150f575b610c6890610cc56114e195969761143442612e69565b6114ed611345876124ae565b5561248e565b916000526006602052604060002090565b553880808080611483565b9161152b610c6891611525866114e1979861248e565b906124bc565b8594509290506114cb565b604051635e18d2a560e01b8152600490fd5b50828211611306565b5061155b8361247f565b82106112ff565b60405163dabc4ad960e01b8152600490fd5b3461048d57600036600319011261048d5760015465ffffffffffff808260a01c169161159e6129c6565b600181018091116106df576111a29160d01c9061249b565b3461048d57600036600319011261048d57602061099a6129c6565b3461048d57602036600319011261048d576004356115ee81610508565b60018060a01b03166000526005602052602060ff604060002054166040519015158152f35b3461048d57602036600319011261048d57602061099a6004356116358161080c565b6129fa565b3461048d57604036600319011261048d5760043561165781610508565b6024356001600160401b0380821161048d573660238301121561048d57816004013590811161048d573660248260051b8401011161048d576105c89260246113bf930190612a35565b3461048d57602061099a6116b336610ec0565b90612fa1565b3461048d5760208060031936011261048d5760048035906116d982610508565b6116e1612cb1565b60025460a01c60ff16611867576040516302910f8b60e31b81526001600160a01b03838116838301908152909491908290829081906020010381887f0000000000000000000000000000000000000000000000000000000000000000165afa908115610df75760009161183a575b501561182a5760405163fbfa77cf60e01b8152838516949082818581895afa928315610df7576000936117fb575b5050309116036117ec5750600280546001600160a01b03929092166001600160a81b031990921691909117600160a01b1790557fdb2160616f776a37b24808115554e79439bf26cccbbd4438190cc6d28e80ecd1600080a2610a366001600080516020614b1483398151915255565b60405163b9f0f17160e01b8152fd5b61181b929350803d10611823575b611813818361086d565b810190612b93565b90388061177d565b503d611809565b506040516324e5af8d60e21b8152fd5b61185a9150823d8411611860575b611852818361086d565b810190612b73565b3861174f565b503d611848565b604051631380833b60e01b8152fd5b3461048d57600036600319011261048d576040517f00000000000000000000000000000000000000000000000000000000000000006001600160a01b03168152602090f35b3461048d57600080600319360112611295576118d56129c6565b6118dd613ca3565b918181526006602052604081205483018093116106df57600182018092116106df5760409181526006602052205481018091116106df57602090604051908152f35b3461048d57600036600319011261048d57600080516020614a94833981519152546040516001600160a01b039091168152602090f35b3461048d57604036600319011261048d57602060ff6119ac60243561197981610508565b600435600052600080516020614af4833981519152845260406000209060018060a01b0316600052602052604060002090565b54166040519015158152f35b3461048d57602036600319011261048d576004356119d581610508565b60018060a01b0316600052600e602052602061099a6040600020613da1565b3461048d57604036600319011261048d57600435611a1181610508565b6024356001600160401b03811161048d57600091611a348392369060040161070c565b90816040519283928337810184815203915af4611a4f612ba8565b60405180926020901515602083015260408083015282519283606084015260005b848110611aa65783611a9e608082886000838284010152601f8019910116810103606081018452018261086d565b805190602001fd5b818101830151868201608001528593508201611a70565b3461048d57600036600319011261048d57602060ff60005460081c166040519015158152f35b3461048d57600036600319011261048d57602060405160008152f35b3461048d57600036600319011261048d5760206040517f4a634bc14d77baf979756509ef4298c6f6318af357828612545267ee2eb792338152f35b3461048d57604036600319011261048d57600435611b5781610508565b602435611b6381610abf565b611b6b612cb1565b611b736131d8565b6001600160a01b038216918215611c1e5760008381526005602052604090205460ff16151582151514610b55576001600160a01b031660009081526005602052604090207ff991b1ecfb5115cbb36a2b2e2240c058406d2acc2fcc6e9e2dc99d845ff70a6291611c0491611bf2908260ff801983541691151516179055565b60405190151581529081906020820190565b0390a2610a366001600080516020614b1483398151915255565b604051630da30f6560e31b8152600490fd5b3461048d57604036600319011261048d576020611c78602435611c5281610508565b6004356000526008835260406000209060018060a01b0316600052602052604060002090565b54604051908152f35b3461048d57604036600319011261048d57602060ff6119ac602435611ca581610508565b6004356000526009845260406000209060018060a01b0316600052602052604060002090565b3461048d5760208060031936011261048d576004803590611ceb82610508565b611cf3612cb1565b60035460a01c60ff16611e77576001600160a01b03828116939084611d63575b6003805460ff60a01b1916600160a01b179055847fe7e4c932e03abddfe20f83af42c33627e816115c7ec2b168441f65dc14bfc3ba600080a2610a366001600080516020614b1483398151915255565b6040516302910f8b60e31b81526001600160a01b0385168482019081528390829081906020010381857f0000000000000000000000000000000000000000000000000000000000000000165afa908115610df757600091611e5a575b5015611e495760405163fbfa77cf60e01b815282818581895afa928315610df757600093611e2a575b505030911603611e1b5750600380546001600160a01b0319166001600160a01b0390921691909117905538808080611d13565b604051633f3e089160e21b8152fd5b611e41929350803d1061182357611813818361086d565b903880611de8565b60405163dabc4ad960e01b81528390fd5b611e719150833d851161186057611852818361086d565b38611dbf565b60405163703fe2e560e01b8152fd5b3461048d57604036600319011261048d57600435611ea381610508565b60243590611eaf612cb1565b6001600160a01b0391818316908115611f3757611ee16105c894611ed283613c05565b94859160005460101c16613bb6565b604080519182526020820184905233917f865ca08d59f5cb456e85cd2f7ef63664ea4f73327414e9d8152c4158b0e946459190a36001600080516020614b14833981519152556040519081529081906020820190565b604051634e46966960e11b8152600490fd5b3461048d57602036600319011261048d5760043560005260076020526020604060002054604051908152f35b3461048d57600036600319011261048d576003546040516001600160a01b039091168152602090f35b3461048d57600036600319011261048d57602061099a613ca3565b3461048d57602036600319011261048d57600435611fd5612cb1565b3360009081527f2d4ccbfe9f7672a6f2537c1e5bce6adacb73706879154bbab6ce096012d6721660205260409020547f4a634bc14d77baf979756509ef4298c6f6318af357828612545267ee2eb792339060ff161561207b57508060045414610b55576020817f854df3eb95564502c8bc871ebdd15310ee26270f955f6c6bd8cea68e75045bc092600455604051908152a16001600080516020614b1483398151915255005b6044906040519063e2517d3f60e01b82523360048301526024820152fd5b3461048d57600036600319011261048d57602061099a613d25565b3461048d57602036600319011261048d576004356120d181610508565b6120d96129c6565b6120e28261292c565b916120ed8183612c4c565b83018093116106df57600182018092116106df5761210a91612c4c565b81018091116106df57602090604051908152f35b3461048d57600036600319011261048d576002546040516001600160a01b039091168152602090f35b3461048d57604036600319011261048d57610a3660243560043561216a82610508565b80600052600080516020614af4833981519152602052612191600160406000200154613230565b61357a565b3461048d57600036600319011261048d5760005460405160109190911c6001600160a01b03168152602090f35b3461048d57600036600319011261048d5760206040517fbae4ee3de6c709ff9a002e774c5b78cb381560b219213c88ae0f1e207c03c0238152f35b3461048d57600036600319011261048d576020600454604051908152f35b3461048d57606036600319011261048d5760043561223981610508565b602435906122468261080c565b6001600160401b039160443583811161048d5761226790369060040161070c565b9092604093845161227781610832565b606081526060602082015260608682015292806122d6575b6105c8866122c787876122c16122a889848451916124c9565b92856122b8602085015183612fa1565b93015190612ecc565b91613dfb565b90519081529081906020820190565b810193925060208185031261048d5780359086821161048d57019260608482031261048d5784519561230787610832565b843581811161048d578261231c91870161090f565b8752602085013581811161048d578261233691870161090f565b60208801528585013590811161048d576105c89661235f6122c1936122a8936122c7980161090f565b8782015293945061228f565b3461048d57602036600319011261048d57610a3660043561238b81610508565b612393613acc565b612bd8565b3461048d57604036600319011261048d576004356123b581610508565b6024356123c0612cb1565b6001600160a01b038216156105f357801561242d576123ef6123e0613d25565b6123e8613ca3565b9083614264565b336000908152600e6020526040902090929061240a90613da1565b831161241b5761059f918391612ce1565b6040516321727a3760e11b8152600490fd5b604051636c6c627d60e11b8152600490fd5b3461048d57604036600319011261048d57602061099a60243561246181610508565b600435612c4c565b634e487b7160e01b600052601160045260246000fd5b6000198101919082116106df57565b919082039182116106df57565b818102929181159184041417156106df57565b90600182018092116106df57565b919082018092116106df57565b6001600160a01b03166000908152600e6020526040902061092a929190613056565b9081602091031261048d575190565b6040513d6000823e3d90fd5b916125599161254a916125176143bb565b61251f6143bb565b6001600080516020614b14833981519152556001600160a01b0394808616612912575b5036916108d8565b60208082518301019101613a03565b805182166001600160a01b03161561290057604080820165ffffffffffff612587825165ffffffffffff1690565b16156128ef5760c0830180519092906125a8906001600160a01b03166112d1565b156127a0575b50916126ec6101409261268761266261274a966125fd6125d4875160018060a01b031690565b6000805462010000600160b01b03191660109290921b62010000600160b01b0316919091179055565b6020860151600180546001600160a01b0319166001600160a01b0390921691909117905561265661262d42612e69565b6001805465ffffffffffff60a01b191660a09290921b65ffffffffffff60a01b16919091179055565b5165ffffffffffff1690565b600180546001600160d01b031660d09290921b6001600160d01b031916919091179055565b6126a96126976060850151151590565b60ff8019600054169115151617600055565b6126d26126b96080850151151590565b61ff0060005491151560081b169061ff00191617600055565b6126df60a0840151600455565b516001600160a01b031690565b848116612790575b5060e08101516001600160a01b0316848116612780575b506101008101516001600160a01b0316848116612770575b506101208101516001600160a01b0316848116612760575b5001516001600160a01b031690565b9081166127545750565b61275d906134cf565b50565b6127699061345e565b503861273b565b612779906133ed565b5038612723565b61278990613313565b503861270b565b6127999061325e565b50386126f4565b60e08401516127b7906001600160a01b03166112d1565b1561288c575b6101208401516127d5906001600160a01b03166112d1565b6125ae576080840151156128425760a08401511580612823575b6128135750916126ec6101409261268761266261274a965b949650505092506125ae565b5163183c854560e21b8152600490fd5b5061014084015161283c906001600160a01b03166112d1565b156127ef565b60a08401511580159061286c575b6128135750916126ec6101409261268761266261274a96612807565b50610140840151612885906001600160a01b03166112d1565b1515612850565b6060840151156128c2576101008401516128ae906001600160a01b03166112d1565b6127bd575163183c854560e21b8152600490fd5b6101008401516128da906001600160a01b03166112d1565b156127bd575163183c854560e21b8152600490fd5b81516368f5f8f160e11b8152600490fd5b6040516368f7a67560e11b8152600490fd5b6129269061291e6143bb565b6123936143bb565b38612542565b6001600160a01b03166000908152600e6020526040902061294c90613da1565b612954613ca3565b61295c613d25565b90600181018091116106df57600182018092116106df5761092a92613b21565b65ffffffffffff91821690821603919082116106df57565b634e487b7160e01b600052601260045260246000fd5b9065ffffffffffff8091169182156129c157160490565b612994565b6129cf42612e69565b6129f66001546129ec65ffffffffffff93848360a01c169061297c565b9060d01c906129aa565b1690565b6001549065ffffffffffff91828160a01c16918284821610612a23576129f6926129ec9161297c565b60405163b7d0949760e01b8152600490fd5b90612a3e612cb1565b6000926001600160a01b038316928315611f37578115612af957845b828110612ad757506000547f326b6aff1cd2fb1c8234de4f9dcfb9047c5c36eb9ef2eb34af5121e969a75d279286929091612aab918491612aa69060101c6001600160a01b03166112d1565b613bb6565b612abc604051928392339684612b36565b0390a3906108bb6001600080516020614b1483398151915255565b94612af2600191611525612aec898789612b21565b35613c05565b9501612a5a565b60405163edf3b93360e01b8152600490fd5b634e487b7160e01b600052603260045260246000fd5b9190811015612b315760051b0190565b612b0b565b604080825281018390529392916001600160fb1b03811161048d5760209160609160051b809183880137850101930152565b51906108bb82610abf565b9081602091031261048d575161092a81610abf565b51906108bb82610508565b9081602091031261048d575161092a81610508565b3d15612bd3573d90612bb9826108bd565b91612bc7604051938461086d565b82523d6000602084013e565b606090565b6001600160a01b03908116908115612c3357600080516020614a9483398151915280546001600160a01b031981168417909155167f8be0079c531659141344cd1fd0a4f28419497f9722a3daafe3b4186f6b6457e0600080a3565b604051631e4fbdf760e01b815260006004820152602490fd5b90612c769082600052600860205260406000209060018060a01b0316600052602052604060002090565b54906000526006602052604060002054600760205260406000205490600181018091116106df57600182018092116106df5761092a92613b21565b600080516020614b148339815191526002815414612ccf5760029055565b604051633ee5aeb560e01b8152600490fd5b336000908152600e6020526040902093929190612cfd42612e69565b336000908152600e60205260409020612d1590613da1565b918483039283116106df57612d507febff2602b3f468259e1e99f613fed6691f3a6526effe6ef3e768ba7ae7a36c4f938593612ddf99613938565b5050612d6a612d5e42612e69565b610cda876114bd613d25565b5050612d84612d7842612e69565b610cc5846114bd613ca3565b5050612e3581612e1e612d9d612d986129c6565b6124ae565b612df9612db4826000526006602052604060002090565b54612dc9836000526007602052604060002090565b54612dd582828b613dfb565b9d8e998a936124bc565b612df3856000526006602052604060002090565b556124bc565b612e0d826000526007602052604060002090565b556000526008602052604060002090565b9060018060a01b0316600052602052604060002090565b612e408382546124bc565b9055604080519485526020850195909552938301526001600160a01b03909216913391606090a3565b65ffffffffffff90818111612e7c571690565b604490604051906306dfcc6560e41b8252603060048301526024820152fd5b9081602091031261048d575163ffffffff8116810361048d5790565b90600163ffffffff809316019182116106df57565b90805115612f975780602080612ee793518301019101612e9b565b612ef081614082565b90612f01825165ffffffffffff1690565b9065ffffffffffff8085169216828114612f8b5782119182612f37575b5050612f2e575061092a90613e1c565b60209150015190565b909150612f45600a5461247f565b63ffffffff831614918215612f5e575b50503880612f1e565b612f83919250612656612f73612f7892612eb7565b614082565b65ffffffffffff1690565b113880612f55565b50505060209150015190565b5061092a90613e1c565b9080511561304c5780602080612fbc93518301019101612e9b565b612fc58161410b565b90612fd6825165ffffffffffff1690565b9065ffffffffffff8085169216828114612f8b5782119182613003575b5050612f2e575061092a90613eea565b909150613011600c5461247f565b63ffffffff83161491821561302a575b50503880612ff3565b61304491925061265661303f612f7892612eb7565b61410b565b113880613021565b5061092a90613eea565b91805115613118578060208061307193518301019101612e9b565b9161307c838261418a565b9261308d845165ffffffffffff1690565b9065ffffffffffff808516921682811461310c57821191826130c3575b50506130ba5761092a9250613fb1565b50506020015190565b9091506130d0835461247f565b63ffffffff8316149182156130e9575b505038806130aa565b6131049192506126566130fe612f7892612eb7565b8561418a565b1138806130e0565b50505050506020015190565b5061092a91613fb1565b3360009081527f03b26b53c87faa1058f30bb5d2fee64f717719a0d9b7e4f4df027aa5e9b6ed69602052604090207fbae4ee3de6c709ff9a002e774c5b78cb381560b219213c88ae0f1e207c03c0239060ff905b54161561207b5750565b3360009081527fe41986b390c4ce6791b87f7423b5fab7a81a0e6d89660b6264f697d008b2243a602052604090207fc6aaadd7371d5e8f9ed6849dd66a66573a3ba37167d03f4352c9ba5693678fac9060ff90613176565b3360009081527f0287ab4cb376ea253d7b2ce0c2cbf458f7deae9458470d74afdfbbee484e9540602052604090207f9c56d972d63cbb4195b3c1484691dfc220fa96a4c47e7b6613bd82a022029e069060ff90613176565b6000818152600080516020614af483398151915260209081526040808320338452909152902060ff90613176565b6001600160a01b03811660009081527fb7db2dd08fcb62d0c9e08c51941cae53c267786a0b75803fb7960902fc8ef97d6020526040812054600080516020614af48339815191529060ff1661330d57818052602090815260408083206001600160a01b038516600090815292529020805460ff1916600117905533916001600160a01b0316907f2f8788117e7eff1d82e926ec794901d17c78024a50270940304540a733656f0d8180a4600190565b50905090565b6001600160a01b03811660009081527f03b26b53c87faa1058f30bb5d2fee64f717719a0d9b7e4f4df027aa5e9b6ed69602052604081207fbae4ee3de6c709ff9a002e774c5b78cb381560b219213c88ae0f1e207c03c02390600080516020614af48339815191529060ff905b54166133e657818352602090815260408084206001600160a01b038616600090815292529020805460ff1916600117905533926001600160a01b0316917f2f8788117e7eff1d82e926ec794901d17c78024a50270940304540a733656f0d9080a4600190565b5050905090565b6001600160a01b03811660009081527f0287ab4cb376ea253d7b2ce0c2cbf458f7deae9458470d74afdfbbee484e9540602052604081207f9c56d972d63cbb4195b3c1484691dfc220fa96a4c47e7b6613bd82a022029e0690600080516020614af48339815191529060ff90613380565b6001600160a01b03811660009081527fe41986b390c4ce6791b87f7423b5fab7a81a0e6d89660b6264f697d008b2243a602052604081207fc6aaadd7371d5e8f9ed6849dd66a66573a3ba37167d03f4352c9ba5693678fac90600080516020614af48339815191529060ff90613380565b6001600160a01b03811660009081527f2d4ccbfe9f7672a6f2537c1e5bce6adacb73706879154bbab6ce096012d67216602052604081207f4a634bc14d77baf979756509ef4298c6f6318af357828612545267ee2eb7923390600080516020614af48339815191529060ff90613380565b6000818152600080516020614af4833981519152602081815260408084206001600160a01b0387168552909152822091929160ff90613380565b6000818152600080516020614af4833981519152602081815260408084206001600160a01b038716855290915282205491929160ff16156133e657818352602090815260408084206001600160a01b038616600090815292529020805460ff1916905533926001600160a01b0316917ff6391f5c32d9c69d2a47ea670b442974b53935d1edc7fd64eb21e047a839171b9080a4600190565b6040516323b872dd60e01b60208201526001600160a01b03928316602482015292909116604483015260648083019390935291815260a08101918183106001600160401b0384111761084d576108bb926040526141f2565b600b54811015612b3157600b600052600080516020614ad48339815191520190600090565b600d54811015612b3157600d600052600080516020614ab48339815191520190600090565b8054821015612b315760005260206000200190600090565b600d54600160401b81101561084d576001810180600d55811015612b3157600d600052600080516020614ab48339815191520155565b600b54600160401b81101561084d576001810180600b55811015612b3157600b600052600080516020614ad48339815191520155565b90815491600160401b83101561084d578261375b9160016108bb950181556136b4565b90919082549060031b91821b91600019901b1916179055565b919091600d9081548015613821575b5061378c6142c8565b5092909181549261379b613ca3565b948161380c575b50156137e9575060001982018281116106df5781541115612b31576000527fd7b6990105719101dabeb77144f2a3385c8033acd3af97e9423a695e81ad1eb4018390559190565b6137fd926001600160d01b031691506144fa565b5050613808836136cc565b9190565b65ffffffffffff8381169116149050386137a2565b600160401b81101561084d5760018101808455811015612b3157600090838252600080516020614ab4833981519152015538613783565b919091600b9081548015613901575b50613870614338565b5092909181549261387f613d25565b94816138ec575b50156138cd575060001982018281116106df5781541115612b31576000527f0175b7a638427703f0dbe7bb9bbf987a2551717b34e79f33b5b1008d1fa01db8018390559190565b6138e1926001600160d01b031691506145fb565b505061380883613702565b65ffffffffffff838116911614905038613886565b600160401b81101561084d5760018101808455811015612b3157600090838252600080516020614ad4833981519152015538613867565b909291926001820190815480156139c7575b508461395584614387565b5094909284549361396583613da1565b96816139b2575b501561398f5750505060001981019081116106df5761375b8591613808936136b4565b6138089492936139ab926001600160d01b0390911691906146a5565b5050613738565b65ffffffffffff83811691161490503861396c565b600160401b81101561084d578060016139e392018455836136b4565b8154906000199060031b1b191690553861394a565b51906108bb8261080c565b908161016091031261048d57613a1761088e565b90613a2181612b88565b8252613a2f60208201612b88565b6020830152613a40604082016139f8565b6040830152613a5160608201612b68565b6060830152613a6260808201612b68565b608083015260a081015160a0830152613a7d60c08201612b88565b60c0830152613a8e60e08201612b88565b60e0830152610100613aa1818301612b88565b90830152610120613ab3818301612b88565b90830152613ac5610140809201612b88565b9082015290565b600080516020614a94833981519152546001600160a01b03163303613aed57565b60405163118cdaa760e01b8152336004820152602490fd5b9080821015613b12575090565b905090565b81156129c1570490565b90918282029160001984820993838086109503948086039514613ba95784831115613b975782910981600003821680920460028082600302188083028203028083028203028083028203028083028203028083028203028092029003029360018380600003040190848311900302920304170290565b60405163227bc15360e01b8152600490fd5b50509061092a9250613b17565b60405163a9059cbb60e01b60208201526001600160a01b03909216602483015260448083019390935291815260808101916001600160401b0383118284101761084d576108bb926040526141f2565b90613c0e6129c6565b821015613c9157600082815260096020908152604080832033845290915290205460ff16613c7f57613c403383612c4c565b918215613c6d5760009081526009602090815260408083203384529091529020805460ff19166001179055565b6040516366c0bcbf60e11b8152600490fd5b604051630c8d9eab60e31b8152600490fd5b60405163d5b25b6360e01b8152600490fd5b600c5460009080613ceb57505060005b6001600160d01b03811615613ce557600d54811015612b3157600d600052600080516020614ab4833981519152015490565b50600090565b806000198101116106df57600c7fdf6966c971051c3d54ec59162606531493a51404a002842f56009d7e5cf4a8c69252015460301c613cb3565b600a5460009080613d6757505060005b6001600160d01b03811615613ce557600b54811015612b3157600b600052600080516020614ad4833981519152015490565b806000198101116106df57600a7fc65a7bb8d6351c1cf70c95a316cc6a92839c986682d98bc35f958f4883f9d2a79252015460301c613d35565b805460009080613ddc57505060005b6001600160d01b03811615613dd5576001613dcb92016136b4565b90549060031b1c90565b5050600090565b6000199181838101116106df578084602092522001015460301c613db0565b9190600181018091116106df57600182018092116106df5761092a92613b21565b600a54906000829160058411613e8e575b613e3793506148b4565b80613e5b575060005b6001600160d01b03811615613ce557613dcb61092a9161366a565b613e82613e6a613e899261247f565b600a600052600080516020614a748339815191520190565b5460301c90565b613e40565b9192613e998161477a565b81039081116106df57613e3793600a60005265ffffffffffff8083600080516020614a7483398151915201541690851610600014613ed8575091613e2d565b929150613ee4906124ae565b90613e2d565b600c54906000829160058411613f55575b613f059350614920565b80613f29575060005b6001600160d01b03811615613ce557613dcb61092a9161368f565b613e82613f38613f509261247f565b600c600052600080516020614a548339815191520190565b613f0e565b9192613f608161477a565b81039081116106df57613f0593600c60005265ffffffffffff8083600080516020614a5483398151915201541690851610600014613f9f575091613efb565b929150613fab906124ae565b90613efb565b908154906000829160058411614018575b613fcd93508461498c565b80613ff657506000905b6001600160d01b03821615613dd55761092a916001613dcb92016136b4565b613e826140056140129261247f565b8360005260206000200190565b90613fd7565b91926140238161477a565b81039081116106df57613fcd938560005265ffffffffffff8083602060002001541690851610600014614057575091613fc2565b929150614063906124ae565b90613fc2565b6040519061407682610852565b60006020838281520152565b61408a614069565b50614093614069565b50600a54811015612b31576140bc90600a600052600080516020614a74833981519152016142a4565b65ffffffffffff81511690602060018060d01b0391015116600b54811015612b3157600b600052600080516020614ad483398151915201546040519161410183610852565b8252602082015290565b614113614069565b5061411c614069565b50600c54811015612b315761414590600c600052600080516020614a54833981519152016142a4565b65ffffffffffff81511690602060018060d01b0391015116600d54811015612b3157600d600052600080516020614ab483398151915201546040519161410183610852565b906141b36141ad6141d49261419d614069565b506141a6614069565b50846136b4565b506142a4565b91600165ffffffffffff845116936020828060d01b039101511691016136b4565b905490604051926141e484610852565b835260031b1c602082015290565b60008061421b9260018060a01b03169360208151910182865af1614214612ba8565b90836149f0565b8051908115159182614249575b50506142315750565b60249060405190635274afe760e01b82526004820152fd5b61425c9250602080918301019101612b73565b153880614228565b9190600181018091116106df57600182018092116106df57614287828285613b21565b9282156129c157096142965790565b600181018091116106df5790565b906040516142b181610852565b915465ffffffffffff8116835260301c6020830152565b600c54806142dc5750600090600090600090565b806000198101116106df577fdf6966c971051c3d54ec59162606531493a51404a002842f56009d7e5cf4a8c661431791600c600052016142a4565b9065ffffffffffff82511691602060018060d01b0391015116906001929190565b600a548061434c5750600090600090600090565b806000198101116106df577fc65a7bb8d6351c1cf70c95a316cc6a92839c986682d98bc35f958f4883f9d2a761431791600a600052016142a4565b80548061439b575050600090600090600090565b6000199080828101116106df5761431792600052602060002001016142a4565b60ff600080516020614b348339815191525460401c16156143d857565b604051631afcd79f60e31b8152600490fd5b600c5490600160401b82101561084d576001820180600c55821015612b3157600c600052805160209091015160301b65ffffffffffff191665ffffffffffff9190911617600080516020614a5483398151915290910155565b600a5490600160401b82101561084d576001820180600a55821015612b3157600a600052805160209091015160301b65ffffffffffff191665ffffffffffff9190911617600080516020614a7483398151915290910155565b8054600160401b81101561084d576144b9916001820181556136b4565b6144e457815160209092015160301b65ffffffffffff191665ffffffffffff92909216919091179055565b634e487b7160e01b600052600060045260246000fd5b600c549192919081156145d15761451b614516613f388461247f565b6142a4565b805165ffffffffffff83811694911684106145bf57856020936138089561454b612f78865165ffffffffffff1690565b036145875750614560613f386145799361247f565b9065ffffffffffff82549181199060301b169116179055565b01516001600160d01b031690565b90506145ba91506145a76145996108ae565b65ffffffffffff9092168252565b6001600160d01b038716818501526143ea565b614579565b604051632520601d60e01b8152600490fd5b6145f591506145e16145996108ae565b6001600160d01b03841660208201526143ea565b60009190565b600a5491929190811561468157614617614516613e6a8461247f565b805165ffffffffffff83811694911684106145bf578560209361380895614647612f78865165ffffffffffff1690565b0361465c5750614560613e6a6145799361247f565b90506145ba915061466e6145996108ae565b6001600160d01b03871681850152614443565b6145f591506146916145996108ae565b6001600160d01b0384166020820152614443565b805492939291908215614756576146c16145166140058561247f565b906146d2825165ffffffffffff1690565b65ffffffffffff848116911681106145bf57613808946020948892614700612f78875165ffffffffffff1690565b036147235750614579926147166145609261247f565b9060005260206000200190565b9150506145ba916147436147356108ae565b65ffffffffffff9093168352565b6001600160d01b0388168286015261449c565b6145f592506147666147356108ae565b6001600160d01b038516602083015261449c565b8015613ce5578061484d61484661483c61483261482861481e61481461480a600161092a9a6000908b60801c806148a8575b508060401c8061489b575b508060201c8061488e575b508060101c80614881575b508060081c80614874575b508060041c80614867575b508060021c8061485a575b50821c614853575b811c1b614803818b613b17565b0160011c90565b614803818a613b17565b6148038189613b17565b6148038188613b17565b6148038187613b17565b6148038186613b17565b6148038185613b17565b8092613b17565b90613b05565b81016147f6565b60029150910190386147ee565b60049150910190386147e3565b60089150910190386147d8565b60109150910190386147cd565b60209150910190386147c2565b60409150910190386147b7565b915050608090386147ac565b905b8281106148c257505090565b9091808216906001818418811c83018093116106df57600a60005265ffffffffffff8084600080516020614a748339815191520154169086161060001461490d575050915b906148b6565b9093925081018091116106df5790614907565b905b82811061492e57505090565b9091808216906001818418811c83018093116106df57600c60005265ffffffffffff8084600080516020614a5483398151915201541690861610600014614979575050915b90614922565b9093925081018091116106df5790614973565b91905b83821061499c5750505090565b909192808316906001818518811c83018093116106df5760008681526020902083015465ffffffffffff90811690851610156149dd575050925b919061498f565b9094935081018091116106df57916149d6565b90614a175750805115614a0557805190602001fd5b604051630a12f52160e11b8152600490fd5b81511580614a4a575b614a28575090565b604051639996b31560e01b81526001600160a01b039091166004820152602490fd5b50803b15614a2056fedf6966c971051c3d54ec59162606531493a51404a002842f56009d7e5cf4a8c7c65a7bb8d6351c1cf70c95a316cc6a92839c986682d98bc35f958f4883f9d2a89016d09d72d40fdae2fd8ceac6b6234c7706214fd39c1cd1e609a0528c199300d7b6990105719101dabeb77144f2a3385c8033acd3af97e9423a695e81ad1eb50175b7a638427703f0dbe7bb9bbf987a2551717b34e79f33b5b1008d1fa01db902dd7bc7dec4dceedda775e58dd541e08a116c6c53815c0bd028192f7b6268009b779b17422d0df92223018b32b4d1fa46e071723d6817e2486d003becc55f00f0c57e16840df040f15088dc2f81fe391c3923bec73e23a9662efc9c229c6a00a26469706673582212204b30afd1f254f9b91d97ab68e7848b807b696e77b35ed03ea2cc82836098188664736f6c63430008190033","linkReferences":{}},"methodIdentifiers":{"DEFAULT_ADMIN_ROLE()":"a217fddf","DELEGATOR_FACTORY()":"6da3e06d","DEPOSITOR_WHITELIST_ROLE()":"1b66c9e1","DEPOSIT_LIMIT_SET_ROLE()":"a21a1df9","DEPOSIT_WHITELIST_SET_ROLE()":"db388715","FACTORY()":"2dd31000","IS_DEPOSIT_LIMIT_SET_ROLE()":"1415519b","SLASHER_FACTORY()":"87df0788","activeBalanceOf(address)":"59f769a9","activeBalanceOfAt(address,uint48,bytes)":"efb559d6","activeShares()":"bfefcd7b","activeSharesAt(uint48,bytes)":"50f22068","activeSharesOf(address)":"9d66201b","activeSharesOfAt(address,uint48,bytes)":"2d73c69c","activeStake()":"bd49c35f","activeStakeAt(uint48,bytes)":"810da75d","burner()":"27810b6e","claim(address,uint256)":"aad3ec96","claimBatch(address,uint256[])":"7c04c80a","collateral()":"d8dfeb45","currentEpoch()":"76671808","currentEpochStart()":"61a8c8c4","delegator()":"ce9b7930","deposit(address,uint256)":"47e7ef24","depositLimit()":"ecf70858","depositWhitelist()":"48d3b775","epochAt(uint48)":"7953b33b","epochDuration()":"4ff0876a","epochDurationInit()":"46361671","getRoleAdmin(bytes32)":"248a9ca3","grantRole(bytes32,address)":"2f2ff15d","hasRole(bytes32,address)":"91d14854","initialize(uint64,address,bytes)":"57ec83cc","isDelegatorInitialized()":"50861adc","isDepositLimit()":"a1b12202","isDepositorWhitelisted(address)":"794b15b7","isInitialized()":"392e53cd","isSlasherInitialized()":"6ec1e3f8","isWithdrawalsClaimed(uint256,address)":"a5d03223","migrate(uint64,bytes)":"2abe3048","nextEpochStart()":"73790ab3","onSlash(uint256,uint48)":"7278e31c","owner()":"8da5cb5b","previousEpochStart()":"281f5752","redeem(address,uint256)":"1e9a6950","renounceOwnership()":"715018a6","renounceRole(bytes32,address)":"36568abe","revokeRole(bytes32,address)":"d547741f","setDelegator(address)":"83cd9cc3","setDepositLimit(uint256)":"bdc8144b","setDepositWhitelist(bool)":"4105a7dd","setDepositorWhitelistStatus(address,bool)":"a2861466","setIsDepositLimit(bool)":"5346e34f","setSlasher(address)":"aabc2496","slashableBalanceOf(address)":"c31e8dd7","slasher()":"b1344271","staticDelegateCall(address,bytes)":"9f86fd85","supportsInterface(bytes4)":"01ffc9a7","totalStake()":"8b0e9f3f","transferOwnership(address)":"f2fde38b","version()":"54fd4d50","withdraw(address,uint256)":"f3fef3a3","withdrawalShares(uint256)":"afba70ad","withdrawalSharesOf(uint256,address)":"a3b54172","withdrawals(uint256)":"5cc07076","withdrawalsOf(uint256,address)":"f5e7ee0f"},"id":92}