{"abi":[{"type":"function","name":"counter1","inputs":[],"outputs":[{"name":"","type":"uint256","internalType":"uint256"}],"stateMutability":"view"},{"type":"function","name":"counter2","inputs":[],"outputs":[{"name":"","type":"uint256","internalType":"uint256"}],"stateMutability":"view"},{"type":"function","name":"counter3","inputs":[],"outputs":[{"name":"","type":"uint256","internalType":"uint256"}],"stateMutability":"view"},{"type":"function","name":"onSlash","inputs":[{"name":"subnetwork","type":"bytes32","internalType":"bytes32"},{"name":"operator","type":"address","internalType":"address"},{"name":"","type":"uint256","internalType":"uint256"},{"name":"","type":"uint48","internalType":"uint48"},{"name":"data","type":"bytes","internalType":"bytes"}],"outputs":[],"stateMutability":"nonpayable"},{"type":"function","name":"setData","inputs":[{"name":"slasherType_","type":"uint64","internalType":"uint64"},{"name":"slashableStake_","type":"uint256","internalType":"uint256"},{"name":"stakeAt_","type":"uint256","internalType":"uint256"},{"name":"slashIndex_","type":"uint256","internalType":"uint256"}],"outputs":[],"stateMutability":"nonpayable"}],"bytecode":{"object":"0x60808060405234601557610479908161001b8239f35b600080fdfe608060408181526004918236101561001657600080fd5b600092833560e01c91826301f7f299146103b5575081630399bfef14610377578163a17d256a14610358578163e49561ee1461007d575063f722ff7e1461005c57600080fd5b346100795781600319360112610079576020906002549051908152f35b5080fd5b919050346103545760a036600319011261035457602480356001600160a01b03811693908490036103505760643565ffffffffffff8116036103505767ffffffffffffffff60843581811161034c573660238201121561034c578083013582811161029257810184810190368211610348576020928381830312610340578681013585811161034457889101809203126103485786519061011d826103cf565b8681013585811681036103445782526044810135908582116103445701908260438301121561034057868201359185831161032e57885193601f8401601f19908116603f011685018781118682101761031c578a528385528b91908482016044011161007957838794604488930183880137850101528381019283526101a98282511660035414610401565b511680610296575051908582805181010312610292576101ea6101f4928751926101d2846103cf565b88818301519283865201519301928352855414610401565b5160055414610401565b6002610200875461041e565b80885561020e60015461041e565b60015561021b825461041e565b825514610226578580f35b333b1561028e57835194630106786160e11b865282358387015283860152856044860152858560648183335af1801561028457610261578580f35b84116102735750505238808080808580f35b634e487b7160e01b85526041905283fd5b84513d88823e3d90fd5b8580fd5b8780fd5b6001146102a5575b50506101f4565b519060608280518101031261029257855191606083018381108582111761030a57916101ea6102f99261030395948a5289606084830151928388528281015195880195865201519501948552875414610401565b5160065414610401565b388061029e565b634e487b7160e01b8a5260418652868afd5b634e487b7160e01b8d5260418952898dfd5b634e487b7160e01b8b5260418752878bfd5b8980fd5b8a80fd5b8880fd5b8680fd5b8480fd5b8280fd5b5050346100795781600319360112610079576020906001549051908152f35b83903461007957608036600319011261007957803567ffffffffffffffff811680910361035457600355602435905560443560055560643560065580f35b849034610079578160031936011261007957602091548152f35b6040810190811067ffffffffffffffff8211176103eb57604052565b634e487b7160e01b600052604160045260246000fd5b1561040857565b634e487b7160e01b600052600160045260246000fd5b600019811461042d5760010190565b634e487b7160e01b600052601160045260246000fdfea26469706673582212207eb4e5193c6d6a7ab2ab5b25372c3d50fe4ce53519ad028964712e71cafbaeba64736f6c63430008190033","linkReferences":{}},"methodIdentifiers":{"counter1()":"01f7f299","counter2()":"a17d256a","counter3()":"f722ff7e","onSlash(bytes32,address,uint256,uint48,bytes)":"e49561ee","setData(uint64,uint256,uint256,uint256)":"0399bfef"},"id":148}