{"abi":[{"type":"function","name":"counter1","inputs":[],"outputs":[{"name":"","type":"uint256","internalType":"uint256"}],"stateMutability":"view"},{"type":"function","name":"counter2","inputs":[],"outputs":[{"name":"","type":"uint256","internalType":"uint256"}],"stateMutability":"view"},{"type":"function","name":"counter3","inputs":[],"outputs":[{"name":"","type":"uint256","internalType":"uint256"}],"stateMutability":"view"},{"type":"function","name":"onSlash","inputs":[{"name":"subnetwork","type":"bytes32","internalType":"bytes32"},{"name":"operator","type":"address","internalType":"address"},{"name":"","type":"uint256","internalType":"uint256"},{"name":"","type":"uint48","internalType":"uint48"},{"name":"data","type":"bytes","internalType":"bytes"}],"outputs":[],"stateMutability":"nonpayable"},{"type":"function","name":"setData","inputs":[{"name":"slasherType_","type":"uint64","internalType":"uint64"},{"name":"slashableStake_","type":"uint256","internalType":"uint256"},{"name":"stakeAt_","type":"uint256","internalType":"uint256"},{"name":"slashIndex_","type":"uint256","internalType":"uint256"}],"outputs":[],"stateMutability":"nonpayable"}],"bytecode":{"object":"0x6080806040523460155761044a908161001a8239f35b5f80fdfe6080604081815260049182361015610015575f80fd5b5f925f3560e01c91826301f7f2991461038e575081630399bfef14610353578163a17d256a14610335578163e49561ee1461007a575063f722ff7e14610059575f80fd5b346100765781600319360112610076576020906002549051908152f35b5080fd5b919050346102875760a036600319011261028757602480356001600160a01b03811693908490036102875760643565ffffffffffff8116036102875767ffffffffffffffff6084358181116102875736602382011215610287578083013582811161028757810184810190368211610287576020928381830312610287578681013585811161028757889101809203126102875786519061011a826103a7565b86810135858116810361028757825260448101359085821161028757019082604383011215610287578682013585811161032357885193601f8201601f19908116603f0116850187811186821017610311578a52818552604482850101116102875784815f92604489960183880137850101528381019283526101a382825116600354146103d7565b51168061028b575051908582805181010312610287576101e46101ee928751926101cc846103a7565b888183015192838652015193019283528554146103d7565b51600554146103d7565b60026101fa5f546103f2565b805f556102086001546103f2565b60015561021582546103f2565b825514610220578580f35b333b1561028757835194630106786160e11b8652823583870152838601525f60448601525f8560648183335af1801561027d5761025b578580f35b909192938095501161026c57505052005b604190634e487b7160e01b5f52525ffd5b84513d5f823e3d90fd5b5f80fd5b60011461029a575b50506101ee565b51906060828051810103126102875785519160608301838110858211176102ff57916101e46102ee926102f895948a52896060848301519283885282810151958801958652015195019485528754146103d7565b51600654146103d7565b5f80610293565b86604187634e487b7160e01b5f52525ffd5b8960418a634e487b7160e01b5f52525ffd5b87604188634e487b7160e01b5f52525ffd5b8234610287575f366003190112610287576020906001549051908152f35b3461028757608036600319011261028757803567ffffffffffffffff8116809103610287576003556024359055604435600555606435600655005b34610287575f366003190112610287576020905f548152f35b6040810190811067ffffffffffffffff8211176103c357604052565b634e487b7160e01b5f52604160045260245ffd5b156103de57565b634e487b7160e01b5f52600160045260245ffd5b5f1981146104005760010190565b634e487b7160e01b5f52601160045260245ffdfea26469706673582212203ebbd84810db3f2f731953df51c8b8cb35f659c5ae32fb7ab92b4a0f2325995164736f6c63430008190033","linkReferences":{}},"methodIdentifiers":{"counter1()":"01f7f299","counter2()":"a17d256a","counter3()":"f722ff7e","onSlash(bytes32,address,uint256,uint48,bytes)":"e49561ee","setData(uint64,uint256,uint256,uint256)":"0399bfef"},"id":158}