{"abi":[{"type":"function","name":"onSlash","inputs":[{"name":"subnetwork","type":"bytes32","internalType":"bytes32"},{"name":"operator","type":"address","internalType":"address"},{"name":"","type":"uint256","internalType":"uint256"},{"name":"","type":"uint48","internalType":"uint48"},{"name":"data","type":"bytes","internalType":"bytes"}],"outputs":[],"stateMutability":"nonpayable"},{"type":"function","name":"setData","inputs":[{"name":"slasherType_","type":"uint64","internalType":"uint64"},{"name":"slashableStake_","type":"uint256","internalType":"uint256"},{"name":"stakeAt_","type":"uint256","internalType":"uint256"},{"name":"slashIndex_","type":"uint256","internalType":"uint256"}],"outputs":[],"stateMutability":"nonpayable"}],"bytecode":{"object":"0x608080604052346015576103ff908161001b8239f35b600080fdfe60806040908082526004918236101561001757600080fd5b600092833560e01c80630399bfef146103135763e49561ee1461003957600080fd5b3461030f5760a036600319011261030f576001600160a01b0360248035918216949092918590036102495760643565ffffffffffff8116036102495760843567ffffffffffffffff9182821161024d573660238301121561024d578184013583811161030b57820190858201913683116102ff576020938481830312610303578781013586811161030757899101809203126102ff576100d882610355565b868101358581168103610303578252604481013590858211610303570190826043830112156102ff5786820135918583116102ed57885193601f8401601f19908116603f01168501878111868210176102db578a528385528b9190848201604401116102d757838794604488930183880137850101528381019283526101648282511660035414610387565b51168061025157505190858280518101031261024d576101a56101af9287519261018d84610355565b88818301519283865201519301928352855414610387565b5160055414610387565b60026101bb87546103a4565b8088556101c96001546103a4565b6001556101d682546103a4565b8255146101e1578580f35b333b1561024957835194630106786160e11b865282358387015283860152856044860152858560648183335af1801561023f5761021c578580f35b841161022e5750505238808080808580f35b634e487b7160e01b85526041905283fd5b84513d88823e3d90fd5b8580fd5b8780fd5b600114610260575b50506101af565b519060608280518101031261024d5785519160608301838110858211176102c557916101a56102b4926102be95948a5289606084830151928388528281015195880195865201519501948552875414610387565b5160065414610387565b3880610259565b634e487b7160e01b8a5260418652868afd5b5080fd5b634e487b7160e01b8d5260418952898dfd5b634e487b7160e01b8b5260418752878bfd5b8980fd5b8a80fd5b8b80fd5b8880fd5b8380fd5b8482346102d75760803660031901126102d757803567ffffffffffffffff811680910361035157600355602435905560443560055560643560065580f35b8280fd5b6040810190811067ffffffffffffffff82111761037157604052565b634e487b7160e01b600052604160045260246000fd5b1561038e57565b634e487b7160e01b600052600160045260246000fd5b60001981146103b35760010190565b634e487b7160e01b600052601160045260246000fdfea264697066735822122069dbb52d5744460b447827a2a011d9cff310d93ca5835019833ed9292660e63464736f6c63430008190033","linkReferences":{}},"methodIdentifiers":{"onSlash(bytes32,address,uint256,uint48,bytes)":"e49561ee","setData(uint64,uint256,uint256,uint256)":"0399bfef"},"id":145}