{"abi":[{"type":"function","name":"counter1","inputs":[],"outputs":[{"name":"","type":"uint256","internalType":"uint256"}],"stateMutability":"view"},{"type":"function","name":"counter2","inputs":[],"outputs":[{"name":"","type":"uint256","internalType":"uint256"}],"stateMutability":"view"},{"type":"function","name":"counter3","inputs":[],"outputs":[{"name":"","type":"uint256","internalType":"uint256"}],"stateMutability":"view"},{"type":"function","name":"onSlash","inputs":[{"name":"subnetwork","type":"bytes32","internalType":"bytes32"},{"name":"","type":"address","internalType":"address"},{"name":"","type":"uint256","internalType":"uint256"},{"name":"","type":"uint48","internalType":"uint48"},{"name":"","type":"bytes","internalType":"bytes"}],"outputs":[],"stateMutability":"nonpayable"}],"bytecode":{"object":"0x6080806040523460155761020f908161001b8239f35b600080fdfe60806040818152600436101561001457600080fd5b600091823560e01c90816301f7f2991461019a57508063a17d256a1461017c578063e49561ee1461006f5763f722ff7e1461004e57600080fd5b3461006b578160031936011261006b576020906002549051908152f35b5080fd5b503461006b5760a036600319011261006b576024356001600160a01b0381160361006b5760643565ffffffffffff81160361006b5767ffffffffffffffff90608435828111610178573660238201121561017857806004013583811161017457369101602401116101705760026100e684546101b4565b8085556100f46001546101b4565b60015561010182546101b4565b82551461010c578280f35b333b156101705780519162428a6960e31b83526004356004840152836024840152838360448183335af180156101665761014557508280f35b8211610152575238808280f35b634e487b7160e01b83526041600452602483fd5b82513d86823e3d90fd5b8280fd5b8480fd5b8380fd5b503461006b578160031936011261006b576020906001549051908152f35b83903461006b578160031936011261006b57602091548152f35b60001981146101c35760010190565b634e487b7160e01b600052601160045260246000fdfea2646970667358221220d013dfabb2a67febd98fd44bc10c23ea99cff5523e230458198904cba153978c64736f6c63430008190033","linkReferences":{}},"methodIdentifiers":{"counter1()":"01f7f299","counter2()":"a17d256a","counter3()":"f722ff7e","onSlash(bytes32,address,uint256,uint48,bytes)":"e49561ee"},"id":153}