{"abi":[{"type":"function","name":"onSlash","inputs":[{"name":"subnetwork","type":"bytes32","internalType":"bytes32"},{"name":"","type":"address","internalType":"address"},{"name":"","type":"uint256","internalType":"uint256"},{"name":"","type":"uint48","internalType":"uint48"},{"name":"","type":"bytes","internalType":"bytes"}],"outputs":[],"stateMutability":"nonpayable"}],"bytecode":{"object":"0x60808060405234601557610183908161001a8239f35b5f80fdfe60806040526004361015610011575f80fd5b5f803560e01c63e49561ee14610025575f80fd5b346101275760a0366003190112610127576024356001600160a01b038116036101275760643565ffffffffffff8116036101275767ffffffffffffffff6084358181116101275736602382011215610127578060040135828111610127573691016024011161012757600261009a5f5461012b565b805f556100a860015461012b565b6001556100b5825461012b565b8255146100c0575080f35b333b15610127576040519062428a6960e31b825260043560048301525f60248301525f8260448183335af1801561011c576100fa57505080f35b908092501161010857604052005b634e487b7160e01b5f52604160045260245ffd5b6040513d5f823e3d90fd5b5f80fd5b5f1981146101395760010190565b634e487b7160e01b5f52601160045260245ffdfea264697066735822122062e0ba3c3e64126d2af2d49e051234d5fb5d574fc4a91eb1a3e4b28b2125c9c964736f6c63430008190033","linkReferences":{}},"methodIdentifiers":{"onSlash(bytes32,address,uint256,uint48,bytes)":"e49561ee"},"id":159}