{"abi":[{"type":"function","name":"onSlash","inputs":[{"name":"subnetwork","type":"bytes32","internalType":"bytes32"},{"name":"","type":"address","internalType":"address"},{"name":"","type":"uint256","internalType":"uint256"},{"name":"","type":"uint48","internalType":"uint48"},{"name":"","type":"bytes","internalType":"bytes"}],"outputs":[],"stateMutability":"nonpayable"}],"bytecode":{"object":"0x60808060405234601557610192908161001b8239f35b600080fdfe6080604052600436101561001257600080fd5b6000803560e01c63e49561ee1461002857600080fd5b346101345760a0366003190112610134576024356001600160a01b038116036101345760643565ffffffffffff8116036101345767ffffffffffffffff608435818111610130573660238201121561013057806004013582811161012c573691016024011161012857600261009d8354610137565b8084556100ab600154610137565b6001556100b88254610137565b8255146100c3575080f35b333b15610128576040519062428a6960e31b82526004356004830152826024830152828260448183335af1801561011d576100fd57505080f35b81116101095760405280f35b634e487b7160e01b82526041600452602482fd5b6040513d85823e3d90fd5b5080fd5b8380fd5b8280fd5b80fd5b60001981146101465760010190565b634e487b7160e01b600052601160045260246000fdfea2646970667358221220851a66d3a5baa76f94ddded60446a5ac31313e2b1eef026b57d52ec8ca213bc664736f6c63430008190033","linkReferences":{}},"methodIdentifiers":{"onSlash(bytes32,address,uint256,uint48,bytes)":"e49561ee"},"id":149}