{"abi":[{"type":"constructor","inputs":[{"name":"vaultFactory","type":"address","internalType":"address"},{"name":"baseImplementation","type":"address","internalType":"address"}],"stateMutability":"nonpayable"},{"type":"fallback","stateMutability":"payable"},{"type":"function","name":"CLOCK_MODE","inputs":[],"outputs":[{"name":"","type":"string","internalType":"string"}],"stateMutability":"view"},{"type":"function","name":"DEPOSITOR_WHITELIST_ROLE","inputs":[],"outputs":[{"name":"","type":"bytes32","internalType":"bytes32"}],"stateMutability":"view"},{"type":"function","name":"DEPOSIT_LIMIT_SET_ROLE","inputs":[],"outputs":[{"name":"","type":"bytes32","internalType":"bytes32"}],"stateMutability":"view"},{"type":"function","name":"DEPOSIT_WHITELIST_SET_ROLE","inputs":[],"outputs":[{"name":"","type":"bytes32","internalType":"bytes32"}],"stateMutability":"view"},{"type":"function","name":"EPOCH_DURATION_SET_ROLE","inputs":[],"outputs":[{"name":"","type":"bytes32","internalType":"bytes32"}],"stateMutability":"view"},{"type":"function","name":"FLASH_FEE_BASE","inputs":[],"outputs":[{"name":"","type":"uint256","internalType":"uint256"}],"stateMutability":"view"},{"type":"function","name":"FLASH_FEE_RATE_SET_ROLE","inputs":[],"outputs":[{"name":"","type":"bytes32","internalType":"bytes32"}],"stateMutability":"view"},{"type":"function","name":"FLASH_FEE_RECEIVER_SET_ROLE","inputs":[],"outputs":[{"name":"","type":"bytes32","internalType":"bytes32"}],"stateMutability":"view"},{"type":"function","name":"FLASH_LOAN_ENABLED_SET_ROLE","inputs":[],"outputs":[{"name":"","type":"bytes32","internalType":"bytes32"}],"stateMutability":"view"},{"type":"function","name":"IS_DEPOSIT_LIMIT_SET_ROLE","inputs":[],"outputs":[{"name":"","type":"bytes32","internalType":"bytes32"}],"stateMutability":"view"},{"type":"function","name":"RETURN_VALUE","inputs":[],"outputs":[{"name":"","type":"bytes32","internalType":"bytes32"}],"stateMutability":"view"},{"type":"function","name":"_VaultTokenized_init","inputs":[{"name":"data","type":"bytes","internalType":"bytes"}],"outputs":[],"stateMutability":"nonpayable"},{"type":"function","name":"_VaultVotes_init","inputs":[{"name":"","type":"bytes","internalType":"bytes"}],"outputs":[],"stateMutability":"nonpayable"},{"type":"function","name":"_epochDuration","inputs":[],"outputs":[{"name":"","type":"uint48","internalType":"uint48"}],"stateMutability":"view"},{"type":"function","name":"_epochDurationInit","inputs":[],"outputs":[{"name":"","type":"uint48","internalType":"uint48"}],"stateMutability":"view"},{"type":"function","name":"_epochDurationInitIndex","inputs":[],"outputs":[{"name":"","type":"uint256","internalType":"uint256"}],"stateMutability":"view"},{"type":"function","name":"_epochDurationSetEpochsDelay","inputs":[],"outputs":[{"name":"","type":"uint256","internalType":"uint256"}],"stateMutability":"view"},{"type":"function","name":"_nextEpochDuration","inputs":[],"outputs":[{"name":"","type":"uint48","internalType":"uint48"}],"stateMutability":"view"},{"type":"function","name":"_nextEpochDurationInit","inputs":[],"outputs":[{"name":"","type":"uint48","internalType":"uint48"}],"stateMutability":"view"},{"type":"function","name":"_nextEpochDurationSetEpochsDelay","inputs":[],"outputs":[{"name":"","type":"uint256","internalType":"uint256"}],"stateMutability":"view"},{"type":"function","name":"_nextEpochInitIndex","inputs":[],"outputs":[{"name":"","type":"uint256","internalType":"uint256"}],"stateMutability":"view"},{"type":"function","name":"_prevEpochDuration","inputs":[],"outputs":[{"name":"","type":"uint48","internalType":"uint48"}],"stateMutability":"view"},{"type":"function","name":"_prevEpochDurationInit","inputs":[],"outputs":[{"name":"","type":"uint48","internalType":"uint48"}],"stateMutability":"view"},{"type":"function","name":"_prevEpochDurationInitIndex","inputs":[],"outputs":[{"name":"","type":"uint256","internalType":"uint256"}],"stateMutability":"view"},{"type":"function","name":"allowance","inputs":[{"name":"owner","type":"address","internalType":"address"},{"name":"spender","type":"address","internalType":"address"}],"outputs":[{"name":"","type":"uint256","internalType":"uint256"}],"stateMutability":"view"},{"type":"function","name":"approve","inputs":[{"name":"spender","type":"address","internalType":"address"},{"name":"value","type":"uint256","internalType":"uint256"}],"outputs":[{"name":"","type":"bool","internalType":"bool"}],"stateMutability":"nonpayable"},{"type":"function","name":"balanceOf","inputs":[{"name":"account","type":"address","internalType":"address"}],"outputs":[{"name":"","type":"uint256","internalType":"uint256"}],"stateMutability":"view"},{"type":"function","name":"burner","inputs":[],"outputs":[{"name":"","type":"address","internalType":"address"}],"stateMutability":"view"},{"type":"function","name":"clock","inputs":[],"outputs":[{"name":"","type":"uint48","internalType":"uint48"}],"stateMutability":"view"},{"type":"function","name":"collateral","inputs":[],"outputs":[{"name":"","type":"address","internalType":"address"}],"stateMutability":"view"},{"type":"function","name":"decimals","inputs":[],"outputs":[{"name":"","type":"uint8","internalType":"uint8"}],"stateMutability":"view"},{"type":"function","name":"delegate","inputs":[{"name":"delegatee","type":"address","internalType":"address"}],"outputs":[],"stateMutability":"nonpayable"},{"type":"function","name":"delegateBySig","inputs":[{"name":"delegatee","type":"address","internalType":"address"},{"name":"nonce","type":"uint256","internalType":"uint256"},{"name":"expiry","type":"uint256","internalType":"uint256"},{"name":"v","type":"uint8","internalType":"uint8"},{"name":"r","type":"bytes32","internalType":"bytes32"},{"name":"s","type":"bytes32","internalType":"bytes32"}],"outputs":[],"stateMutability":"nonpayable"},{"type":"function","name":"delegates","inputs":[{"name":"account","type":"address","internalType":"address"}],"outputs":[{"name":"","type":"address","internalType":"address"}],"stateMutability":"view"},{"type":"function","name":"delegator","inputs":[],"outputs":[{"name":"","type":"address","internalType":"address"}],"stateMutability":"view"},{"type":"function","name":"deposit","inputs":[{"name":"onBehalfOf","type":"address","internalType":"address"},{"name":"amount","type":"uint256","internalType":"uint256"}],"outputs":[{"name":"depositedAmount","type":"uint256","internalType":"uint256"},{"name":"mintedShares","type":"uint256","internalType":"uint256"}],"stateMutability":"nonpayable"},{"type":"function","name":"depositLimit","inputs":[],"outputs":[{"name":"","type":"uint256","internalType":"uint256"}],"stateMutability":"view"},{"type":"function","name":"depositWhitelist","inputs":[],"outputs":[{"name":"","type":"bool","internalType":"bool"}],"stateMutability":"view"},{"type":"function","name":"eip712Domain","inputs":[],"outputs":[{"name":"fields","type":"bytes1","internalType":"bytes1"},{"name":"name","type":"string","internalType":"string"},{"name":"version","type":"string","internalType":"string"},{"name":"chainId","type":"uint256","internalType":"uint256"},{"name":"verifyingContract","type":"address","internalType":"address"},{"name":"salt","type":"bytes32","internalType":"bytes32"},{"name":"extensions","type":"uint256[]","internalType":"uint256[]"}],"stateMutability":"view"},{"type":"function","name":"flashFeeRate","inputs":[],"outputs":[{"name":"","type":"uint256","internalType":"uint256"}],"stateMutability":"view"},{"type":"function","name":"flashFeeReceiver","inputs":[],"outputs":[{"name":"","type":"address","internalType":"address"}],"stateMutability":"view"},{"type":"function","name":"flashLoanEnabled","inputs":[],"outputs":[{"name":"","type":"bool","internalType":"bool"}],"stateMutability":"view"},{"type":"function","name":"getPastTotalSupply","inputs":[{"name":"timepoint","type":"uint256","internalType":"uint256"}],"outputs":[{"name":"","type":"uint256","internalType":"uint256"}],"stateMutability":"view"},{"type":"function","name":"getPastVotes","inputs":[{"name":"account","type":"address","internalType":"address"},{"name":"timepoint","type":"uint256","internalType":"uint256"}],"outputs":[{"name":"","type":"uint256","internalType":"uint256"}],"stateMutability":"view"},{"type":"function","name":"getVotes","inputs":[{"name":"account","type":"address","internalType":"address"}],"outputs":[{"name":"","type":"uint256","internalType":"uint256"}],"stateMutability":"view"},{"type":"function","name":"isDelegatorInitialized","inputs":[],"outputs":[{"name":"","type":"bool","internalType":"bool"}],"stateMutability":"view"},{"type":"function","name":"isDepositLimit","inputs":[],"outputs":[{"name":"","type":"bool","internalType":"bool"}],"stateMutability":"view"},{"type":"function","name":"isDepositorWhitelisted","inputs":[{"name":"account","type":"address","internalType":"address"}],"outputs":[{"name":"value","type":"bool","internalType":"bool"}],"stateMutability":"view"},{"type":"function","name":"isSlasherInitialized","inputs":[],"outputs":[{"name":"","type":"bool","internalType":"bool"}],"stateMutability":"view"},{"type":"function","name":"isWithdrawalsClaimed","inputs":[{"name":"epoch","type":"uint256","internalType":"uint256"},{"name":"account","type":"address","internalType":"address"}],"outputs":[{"name":"value","type":"bool","internalType":"bool"}],"stateMutability":"view"},{"type":"function","name":"name","inputs":[],"outputs":[{"name":"","type":"string","internalType":"string"}],"stateMutability":"view"},{"type":"function","name":"nonces","inputs":[{"name":"owner","type":"address","internalType":"address"}],"outputs":[{"name":"","type":"uint256","internalType":"uint256"}],"stateMutability":"view"},{"type":"function","name":"redeem","inputs":[{"name":"claimer","type":"address","internalType":"address"},{"name":"shares","type":"uint256","internalType":"uint256"}],"outputs":[{"name":"withdrawnAssets","type":"uint256","internalType":"uint256"},{"name":"mintedShares","type":"uint256","internalType":"uint256"}],"stateMutability":"nonpayable"},{"type":"function","name":"slasher","inputs":[],"outputs":[{"name":"","type":"address","internalType":"address"}],"stateMutability":"view"},{"type":"function","name":"staticDelegateCall","inputs":[{"name":"target","type":"address","internalType":"address"},{"name":"data","type":"bytes","internalType":"bytes"}],"outputs":[],"stateMutability":"nonpayable"},{"type":"function","name":"symbol","inputs":[],"outputs":[{"name":"","type":"string","internalType":"string"}],"stateMutability":"view"},{"type":"function","name":"totalSupply","inputs":[],"outputs":[{"name":"","type":"uint256","internalType":"uint256"}],"stateMutability":"view"},{"type":"function","name":"transfer","inputs":[{"name":"to","type":"address","internalType":"address"},{"name":"value","type":"uint256","internalType":"uint256"}],"outputs":[{"name":"","type":"bool","internalType":"bool"}],"stateMutability":"nonpayable"},{"type":"function","name":"transferFrom","inputs":[{"name":"from","type":"address","internalType":"address"},{"name":"to","type":"address","internalType":"address"},{"name":"value","type":"uint256","internalType":"uint256"}],"outputs":[{"name":"","type":"bool","internalType":"bool"}],"stateMutability":"nonpayable"},{"type":"function","name":"withdraw","inputs":[{"name":"claimer","type":"address","internalType":"address"},{"name":"amount","type":"uint256","internalType":"uint256"}],"outputs":[{"name":"burnedShares","type":"uint256","internalType":"uint256"},{"name":"mintedShares","type":"uint256","internalType":"uint256"}],"stateMutability":"nonpayable"},{"type":"function","name":"withdrawalShares","inputs":[{"name":"epoch","type":"uint256","internalType":"uint256"}],"outputs":[{"name":"amount","type":"uint256","internalType":"uint256"}],"stateMutability":"view"},{"type":"function","name":"withdrawalSharesOf","inputs":[{"name":"epoch","type":"uint256","internalType":"uint256"},{"name":"account","type":"address","internalType":"address"}],"outputs":[{"name":"amount","type":"uint256","internalType":"uint256"}],"stateMutability":"view"},{"type":"function","name":"withdrawals","inputs":[{"name":"epoch","type":"uint256","internalType":"uint256"}],"outputs":[{"name":"amount","type":"uint256","internalType":"uint256"}],"stateMutability":"view"},{"type":"event","name":"Approval","inputs":[{"name":"owner","type":"address","indexed":true,"internalType":"address"},{"name":"spender","type":"address","indexed":true,"internalType":"address"},{"name":"value","type":"uint256","indexed":false,"internalType":"uint256"}],"anonymous":false},{"type":"event","name":"DelegateChanged","inputs":[{"name":"delegator","type":"address","indexed":true,"internalType":"address"},{"name":"fromDelegate","type":"address","indexed":true,"internalType":"address"},{"name":"toDelegate","type":"address","indexed":true,"internalType":"address"}],"anonymous":false},{"type":"event","name":"DelegateVotesChanged","inputs":[{"name":"delegate","type":"address","indexed":true,"internalType":"address"},{"name":"previousVotes","type":"uint256","indexed":false,"internalType":"uint256"},{"name":"newVotes","type":"uint256","indexed":false,"internalType":"uint256"}],"anonymous":false},{"type":"event","name":"EIP712DomainChanged","inputs":[],"anonymous":false},{"type":"event","name":"Initialized","inputs":[{"name":"version","type":"uint64","indexed":false,"internalType":"uint64"}],"anonymous":false},{"type":"event","name":"Transfer","inputs":[{"name":"from","type":"address","indexed":true,"internalType":"address"},{"name":"to","type":"address","indexed":true,"internalType":"address"},{"name":"value","type":"uint256","indexed":false,"internalType":"uint256"}],"anonymous":false},{"type":"error","name":"AddressEmptyCode","inputs":[{"name":"target","type":"address","internalType":"address"}]},{"type":"error","name":"CheckpointUnorderedInsertion","inputs":[]},{"type":"error","name":"ECDSAInvalidSignature","inputs":[]},{"type":"error","name":"ECDSAInvalidSignatureLength","inputs":[{"name":"length","type":"uint256","internalType":"uint256"}]},{"type":"error","name":"ECDSAInvalidSignatureS","inputs":[{"name":"s","type":"bytes32","internalType":"bytes32"}]},{"type":"error","name":"ERC20InsufficientAllowance","inputs":[{"name":"spender","type":"address","internalType":"address"},{"name":"allowance","type":"uint256","internalType":"uint256"},{"name":"needed","type":"uint256","internalType":"uint256"}]},{"type":"error","name":"ERC20InsufficientBalance","inputs":[{"name":"sender","type":"address","internalType":"address"},{"name":"balance","type":"uint256","internalType":"uint256"},{"name":"needed","type":"uint256","internalType":"uint256"}]},{"type":"error","name":"ERC20InvalidApprover","inputs":[{"name":"approver","type":"address","internalType":"address"}]},{"type":"error","name":"ERC20InvalidReceiver","inputs":[{"name":"receiver","type":"address","internalType":"address"}]},{"type":"error","name":"ERC20InvalidSender","inputs":[{"name":"sender","type":"address","internalType":"address"}]},{"type":"error","name":"ERC20InvalidSpender","inputs":[{"name":"spender","type":"address","internalType":"address"}]},{"type":"error","name":"ERC5805FutureLookup","inputs":[{"name":"timepoint","type":"uint256","internalType":"uint256"},{"name":"clock","type":"uint48","internalType":"uint48"}]},{"type":"error","name":"ERC6372InconsistentClock","inputs":[]},{"type":"error","name":"FailedCall","inputs":[]},{"type":"error","name":"InvalidAccountNonce","inputs":[{"name":"account","type":"address","internalType":"address"},{"name":"currentNonce","type":"uint256","internalType":"uint256"}]},{"type":"error","name":"InvalidData","inputs":[]},{"type":"error","name":"InvalidInitialization","inputs":[]},{"type":"error","name":"NotFactory","inputs":[]},{"type":"error","name":"NotInitializing","inputs":[]},{"type":"error","name":"ReentrancyGuardReentrantCall","inputs":[]},{"type":"error","name":"SafeCastOverflowedUintDowncast","inputs":[{"name":"bits","type":"uint8","internalType":"uint8"},{"name":"value","type":"uint256","internalType":"uint256"}]},{"type":"error","name":"SafeSupplyExceeded","inputs":[]},{"type":"error","name":"VotesExpiredSignature","inputs":[{"name":"expiry","type":"uint256","internalType":"uint256"}]}],"bytecode":{"object":"0x60c034607a57601f61345438819003918201601f19168301916001600160401b03831184841017607e578084926040948552833981010312607a57604b60206045836092565b92016092565b9060805260a0526040516133ae90816100a6823960805181611dde015260a05181818161092d01526125080152f35b5f80fd5b634e487b7160e01b5f52604160045260245ffd5b51906001600160a01b0382168203607a5756fe6080604052600436106124fe575f3560e01c806306fdde03146103fb578063095ea7b3146103f65780630eac105e146103f15780631415519b146103ec57806318160ddd146103e75780631b66c9e1146103e25780631e9a6950146103dd57806323b872dd146103d85780632749f9c4146103d357806327810b6e146103ce5780632fa27fae146103c9578063313ce567146103c457806331d9736c146103bf5780633a46b1a8146103ba57806347e7ef24146103b557806348d3b775146103b05780634bf5d7e9146103ab57806350861adc146103a6578063587cde1e146103a15780635a36aa741461039c5780635c19a95c146103975780635cc070761461039257806361819dd81461038d578063653b04cd1461038857806365d61c6c146103835780636e0f24551461037e5780636ec1e3f81461037957806370a0823114610374578063794b15b71461036f5780637bd00ae81461036a5780637ecebe001461036557806384b0196e146103605780638e539e8c1461035b57806391ddadf41461035657806395d89b411461035157806398ccba4a1461034c5780639ab24eb0146103475780639b4bae3e146103425780639f86fd851461033d5780639f9962dd14610338578063a1b1220214610333578063a21a1df91461032e578063a3b5417214610329578063a5d0322314610324578063a66b3a731461031f578063a8b24f9a1461031a578063a9059cbb14610315578063afba70ad14610310578063b13442711461030b578063bba6ff4a14610306578063bc46f72214610301578063c1bc6f51146102fc578063c3cda520146102f7578063c4db46fc146102f2578063cc52aee7146102ed578063ce9b7930146102e8578063d8dfeb45146102e3578063db388715146102de578063dd62ed3e146102d9578063e945da7f146102d4578063ecc98f05146102cf578063ecf70858146102ca5763f3fef3a3036124fe57611a92565b611a75565b611a57565b611a3a565b611a0b565b6119d1565b6119a6565b61197e565b611956565b611939565b61186c565b611839565b6117ff565b6117e2565b6117ba565b611790565b61175f565b611737565b6116fd565b6116af565b611666565b61162c565b611608565b6115e0565b61155e565b611541565b611505565b6114e8565b611436565b61140b565b611369565b611299565b6111bc565b611059565b61101c565b610f75565b610f50565b610f2b565b610f06565b610ecc565b610e92565b610e68565b610e46565b610e1e565b610dd9565b610db4565b610d66565b610d45565b610c9a565b610b78565b610b3e565b610aa7565b610a87565b610a5f565b610a42565b610994565b6108c5565b61088b565b610869565b61082f565b610671565b610558565b610438565b805180835260209291819084018484015e5f828201840152601f01601f1916010190565b906020610435928181520190610400565b90565b34610528575f366003190112610528576040515f5f8051602061329983398151915280549061046682611b10565b808552916020916001918281169081156104fb57506001146104a3575b61049f8661049381880382611b92565b60405191829182610424565b0390f35b5f90815293507f2ae08a8e29253f69ac5d979a101956ab8f8d9d7ded63fa7a83b16fc47648eab05b8385106104e8575050505081016020016104938261049f5f610483565b80548686018401529382019381016104cb565b905086955061049f9693506020925061049394915060ff191682840152151560051b82010192935f610483565b5f80fd5b600435906001600160a01b038216820361052857565b602435906001600160a01b038216820361052857565b346105285760403660031901126105285761057161052c565b60243533156105fe576001600160a01b0382169182156105e6576105ae829161059933610fac565b9060018060a01b03165f5260205260405f2090565b556040519081527f8c5be1e5ebec7d5bd14f71427d1e84f3dd0314c0f7b2291e5b200ac8c7c3b92560203392a3602060405160018152f35b604051634a1406b160e11b81525f6004820152602490fd5b60405163e602df0560e01b81525f6004820152602490fd5b9181601f84011215610528578235916001600160401b038311610528576020838186019501011161052857565b602060031982011261052857600435906001600160401b0382116105285761066d91600401610616565b9091565b346105285761067f36610643565b5050610689611ddc565b60405161069581611b5c565b600a8152602090695661756c74566f74657360b01b6020820152604051906106bc82611b5c565b60019260018352603160f81b60208401526106d561253a565b6106dd61253a565b8151906001600160401b03821161082a575f805160206132b9833981519152926107108361070b8654611b10565b61257b565b602091601f84116001146107a9575061074c955061074592915f918361079e575b50508160011b915f199060031b1c19161790565b9055612739565b6107745f7fa16a46d94261c7517cc8ff89f61c0ce93598e3c849801011dee649a6a557d10055565b61079c5f7fa16a46d94261c7517cc8ff89f61c0ce93598e3c849801011dee649a6a557d10155565b005b015190505f80610731565b5f805160206132b98339815191525f529195601f198416905f80516020613319833981519152935f915b838310610813575050509583929160019461074c98106107fb575b505050811b019055612739565b01515f1960f88460031b161c191690555f80806107ee565b848a015186559881019894850194918101916107d3565b611b48565b34610528575f3660031901126105285760206040517fc6aaadd7371d5e8f9ed6849dd66a66573a3ba37167d03f4352c9ba5693678fac8152f35b34610528575f366003190112610528576020610883611e83565b604051908152f35b34610528575f3660031901126105285760206040517f9c56d972d63cbb4195b3c1484691dfc220fa96a4c47e7b6613bd82a022029e068152f35b346105285760403660031901126105285761098361092b6109606109516108ea61052c565b6040516301e9a69560e41b60208201526001600160a01b0390911660248281019190915235604482018190529381606481015b03601f198101835282611b92565b7f00000000000000000000000000000000000000000000000000000000000000006128fb565b60208082518301019101611f43565b9290915f6040518281525f8051602061333983398151915260203392a333611f59565b604080519182526020820192909252f35b34610528576060366003190112610528576109ad61052c565b6109b5610542565b604435906109c63361059985610fac565b5492600184016109e7575b6109db9350612045565b60405160018152602090f35b828410610a1c576001600160a01b038116156105fe5733156105e657826109db9403610a163361059984610fac565b556109d1565b604051637dc7a0d960e11b81523360048201526024810185905260448101849052606490fd5b34610528575f366003190112610528576020601454604051908152f35b34610528575f366003190112610528576001546040516001600160a01b039091168152602090f35b34610528575f36600319011261052857602060015460d01c604051908152f35b34610528575f366003190112610528575f5460405163313ce56760e01b8152906020908290600490829060101c6001600160a01b03165afa8015610b39575f90610afc575b60405160ff919091168152602090f35b506020813d602011610b31575b81610b1660209383611b92565b810103126105285761049f9051610b2c81611861565b610aec565b3d9150610b09565b611d36565b34610528575f3660031901126105285760206040517f5295aaaa27fdd659293eafacbfafbc634c1b96298957e87de5f59308cdbfdad18152f35b3461052857604036600319011261052857610b9161052c565b60243590610b9e42612193565b9065ffffffffffff91828116841015610c715750610bbe610bc491610fe4565b92612193565b8254905f908260058111610c23575b50610bdf935084612b95565b9081610c0657505061049f5f5b6040516001600160d01b0390911681529081906020820190565b610c1261049f926121d9565b905f5260205f20015460301c610bec565b9092610c2e82612a6a565b8203918211610c6c57610bdf94865f52808360205f20015416908516105f14610c5a5750915b5f610bd3565b929150610c66906121e7565b90610c54565b6121c5565b604051637669fc0f60e11b81526004810185905265ffffffffffff919091166024820152604490fd5b3461052857604036600319011261052857610cb361052c565b6040516311f9fbc960e21b60208201526001600160a01b038216602480830191909152356044820152610cf1906109519061092b816064810161091d565b916040518381525f5f80516020613339833981519152602060018060a01b03851693a36001600160d01b03610d24611e83565b11610d33578261098391611fb2565b604051630a84eab560e11b8152600490fd5b34610528575f36600319011261052857602060ff5f54166040519015158152f35b34610528575f3660031901126105285761049f604051610d8581611b5c565b600e81526d06d6f64653d74696d657374616d760941b6020820152604051918291602083526020830190610400565b34610528575f36600319011261052857602060ff60025460a01c166040519015158152f35b346105285760203660031901126105285760206001600160a01b0380610dfd61052c565b165f525f80516020613279833981519152825260405f205416604051908152f35b34610528575f36600319011261052857602065ffffffffffff60135460301c16604051908152f35b346105285760203660031901126105285761079c610e6261052c565b33612327565b34610528576020366003190112610528576004355f526006602052602060405f2054604051908152f35b34610528575f3660031901126105285760206040517f591f6a0113ada8aff67efadec8ae2fa585cb4ebf4e1f8fc1205ffbeff98d00ec8152f35b34610528575f3660031901126105285760206040517f439148f0bbc682ca079e46d6e2c2f0c1e3b820f1a291b069d8882abf8cf18dd98152f35b34610528575f36600319011261052857602060ff60165460a01c166040519015158152f35b34610528575f36600319011261052857602065ffffffffffff60135416604051908152f35b34610528575f36600319011261052857602060ff60035460a01c166040519015158152f35b34610528576020366003190112610528576001600160a01b03610f9661052c565b165f52600e602052602061088360405f20611f0f565b6001600160a01b03165f9081527f52c63247e1f47db19d5ce0460030c497f067ca4cebf71ba98eeadabe20bace016020526040902090565b6001600160a01b03165f9081527fe8b26c30fad74198956032a3533d903385d56dd795af560196f9c78d4af40d016020526040902090565b34610528576020366003190112610528576001600160a01b0361103d61052c565b165f526005602052602060ff60405f2054166040519015158152f35b346105285761106736610643565b61106f611ddc565b8101604082820312610528576001600160401b039180358381116105285782611099918301611d41565b906020926020820135858111610528576110b39201611d41565b916110bc61253a565b6110c461253a565b815193841161082a575f80516020613299833981519152916110ef856110ea8554611b10565b6125e1565b602091601f8611600114611129575093806111229261079c965f9261079e5750508160011b915f199060031b1c19161790565b905561281f565b5f805160206132998339815191525f529190601f1986167f2ae08a8e29253f69ac5d979a101956ab8f8d9d7ded63fa7a83b16fc47648eab0935f905b8282106111a457505091600193918761079c98941061118c575b505050811b01905561281f565b01515f1960f88460031b161c191690555f808061117f565b80600186978294978701518155019601940190611165565b34610528576020366003190112610528576001600160a01b036111dd61052c565b165f527f5ab42ced628888259c08ac98db1eb0cf702fc1501344311d8b100cd1bfe4bb00602052602060405f2054604051908152f35b9161124790949194600f60f81b845261123960209660e0602087015260e0860190610400565b908482036040860152610400565b92606083015260018060a01b031660808201525f60a082015260c0818303910152602080845192838152019301915f5b828110611285575050505090565b835185529381019392810192600101611277565b34610528575f366003190112610528577fa16a46d94261c7517cc8ff89f61c0ce93598e3c849801011dee649a6a557d100541580611340575b15611303576112df611bb3565b6112e7611c75565b9061049f6112f3611d87565b6040519384933091469186611213565b60405162461bcd60e51b81526020600482015260156024820152741152540dcc4c8e88155b9a5b9a5d1a585b1a5e9959605a1b6044820152606490fd5b507fa16a46d94261c7517cc8ff89f61c0ce93598e3c849801011dee649a6a557d10154156112d2565b346105285760203660031901126105285760043561138642612193565b65ffffffffffff81168210156113e4576113a76113a283612193565b6121f5565b6001600160d01b038116156113da576113c261049f91611e34565b90549060031b1c5b6040519081529081906020820190565b5061049f5f6113ca565b604051637669fc0f60e11b8152600481019290925265ffffffffffff166024820152604490fd5b34610528575f36600319011261052857602061142642612193565b65ffffffffffff60405191168152f35b34610528575f366003190112610528576040515f5f805160206132d983398151915280549061146482611b10565b808552916020916001918281169081156104fb57506001146114905761049f8661049381880382611b92565b5f90815293507f46a2803e59a4de4e7a4c574b1243f25977ac4c77d5a1a4a609b5394cebb4a2aa5b8385106114d5575050505081016020016104938261049f5f610483565b80548686018401529382019381016114b8565b34610528575f366003190112610528576020601254604051908152f35b346105285760203660031901126105285760206001600160d01b0361153861153361152e61052c565b610fe4565b6123b9565b16604051908152f35b34610528575f366003190112610528576020601154604051908152f35b346105285760403660031901126105285761157761052c565b6024356001600160401b038111610528575f9161159983923690600401610616565b90816040519283928337810184815203915af46115d86115b7611dad565b9161091d604051938492151560208401526040808401526060830190610400565b805190602001fd5b34610528575f36600319011261052857602065ffffffffffff60015460a01c16604051908152f35b34610528575f36600319011261052857602060ff5f5460081c166040519015158152f35b34610528575f3660031901126105285760206040517f4a634bc14d77baf979756509ef4298c6f6318af357828612545267ee2eb792338152f35b346105285760403660031901126105285760206116a6611684610542565b6004355f526008835260405f209060018060a01b03165f5260205260405f2090565b54604051908152f35b3461052857604036600319011261052857602060ff6116f16116cf610542565b6004355f526009845260405f209060018060a01b03165f5260205260405f2090565b54166040519015158152f35b34610528575f3660031901126105285760206040517fc9feed28b4b1a1d11c6791da7bb7f6b8d33e831a4992a9383dead1ec2c82c35a8152f35b34610528575f366003190112610528576016546040516001600160a01b039091168152602090f35b346105285760403660031901126105285761178561177b61052c565b6024359033612045565b602060405160018152f35b34610528576020366003190112610528576004355f526007602052602060405f2054604051908152f35b34610528575f366003190112610528576003546040516001600160a01b039091168152602090f35b34610528575f366003190112610528576020600f54604051908152f35b34610528575f3660031901126105285760206040517fc9078c78bcaac2be1c77c160c539a489be2b72939771b1a6302fed3e2150c7458152f35b34610528575f36600319011261052857602065ffffffffffff60135460901c16604051908152f35b60ff81160361052857565b346105285760c03660031901126105285761188561052c565b6044359060243560643561189881611861565b8342116119205761191461079c9461191b926040519060208201927fe48329057bfd03d55e49b547132e39cffd9c1820ad7b9d4c5307691425d15adf845260018060a01b03881660408401528660608401526080830152608082526118fc82611b77565b61190f60a43593608435935190206123e1565b612470565b9182612488565b612327565b604051632341d78760e11b815260048101859052602490fd5b34610528575f366003190112610528576020601054604051908152f35b34610528575f36600319011261052857602065ffffffffffff60135460601c16604051908152f35b34610528575f366003190112610528576002546040516001600160a01b039091168152602090f35b34610528575f366003190112610528575f5460405160109190911c6001600160a01b03168152602090f35b34610528575f3660031901126105285760206040517fbae4ee3de6c709ff9a002e774c5b78cb381560b219213c88ae0f1e207c03c0238152f35b346105285760403660031901126105285760206116a6611a2961052c565b610599611a34610542565b91610fac565b34610528575f366003190112610528576020601554604051908152f35b34610528575f366003190112610528576020604051633b9aca008152f35b34610528575f366003190112610528576020600454604051908152f35b3461052857604036600319011261052857611aeb61095161091d61092b611ab761052c565b60405163f3fef3a360e01b60208201526001600160a01b039091166024808301919091523560448201529182906064820190565b905f6040518281525f8051602061333983398151915260203392a36109838133611f59565b90600182811c92168015611b3e575b6020831014611b2a57565b634e487b7160e01b5f52602260045260245ffd5b91607f1691611b1f565b634e487b7160e01b5f52604160045260245ffd5b604081019081106001600160401b0382111761082a57604052565b60a081019081106001600160401b0382111761082a57604052565b90601f801991011681019081106001600160401b0382111761082a57604052565b604051905f825f805160206132b983398151915291825492611bd484611b10565b80845293602091600191828116908115611c4f5750600114611c02575b505050611c0092500383611b92565b565b5f9081525f805160206133198339815191529590935091905b828410611c375750611c009450505081016020015f8080611bf1565b85548885018301529485019487945092810192611c1b565b9250505060209250611c0094915060ff191682840152151560051b8201015f8080611bf1565b604051905f825f805160206132f983398151915291825492611c9684611b10565b80845293602091600191828116908115611c4f5750600114611cc157505050611c0092500383611b92565b5f9081525f805160206133598339815191529590935091905b828410611cf65750611c009450505081016020015f8080611bf1565b85548885018301529485019487945092810192611cda565b60405190611c0082611b5c565b6001600160401b03811161082a57601f01601f191660200190565b6040513d5f823e3d90fd5b81601f8201121561052857803590611d5882611d1b565b92611d666040519485611b92565b8284526020838301011161052857815f926020809301838601378301015290565b604051602081018181106001600160401b0382111761082a576040525f8152905f368137565b3d15611dd7573d90611dbe82611d1b565b91611dcc6040519384611b92565b82523d5f602084013e565b606090565b7f00000000000000000000000000000000000000000000000000000000000000006001600160a01b03163303611e0e57565b604051631966391b60e11b8152600490fd5b634e487b7160e01b5f52603260045260245ffd5b600b54811015611e6957600b5f527f0175b7a638427703f0dbe7bb9bbf987a2551717b34e79f33b5b1008d1fa01db901905f90565b611e20565b8054821015611e69575f5260205f2001905f90565b600a5480611ed657505f5b6001600160d01b03811615611ed157600b54811015611e6957600b5f527f0175b7a638427703f0dbe7bb9bbf987a2551717b34e79f33b5b1008d1fa01db9015490565b505f90565b805f19810111610c6c57600a5f527fc65a7bb8d6351c1cf70c95a316cc6a92839c986682d98bc35f958f4883f9d2a7015460301c611e8e565b611f18816123b9565b6001600160d01b03811615611f3d576001611f339201611e6e565b90549060031b1c90565b50505f90565b9190826040910312610528576020825192015190565b6001600160a01b039081165f9081525f8051602061327983398151915260205260408120549080527fd4fb29e10204005f1a39963c6862b79a755e22f0177c53f05cdc3786c702f97454611c0093929081169116612918565b5f805160206132798339815191526020527fd4fb29e10204005f1a39963c6862b79a755e22f0177c53f05cdc3786c702f974546001600160a01b039182165f9081526040902054611c0093929081169116612918565b6001600160a01b039081165f9081525f805160206132798339815191526020526040808220549383168252902054611c0093929082169116612918565b6001600160a01b038082169493929190851561217b5782168015612163576001600160a01b0382165f908152600e6020526040902061208890611f0f565b611f0f565b95848710612134576120c5611c0096976120b28560018060a01b03165f52600e60205260405f2090565b90876120bd42612193565b910391612e24565b50506001600160a01b0384165f908152600e60205260409020612114906120eb42612193565b6001600160a01b0387165f908152600e60205260409020889061210d90611f0f565b0191612e24565b50506040518581525f8051602061333983398151915290602090a3612008565b60405163391434e360e21b81526001600160a01b03841660048201526024810188905260448101869052606490fd5b60405163ec442f0560e01b81525f6004820152602490fd5b604051634b637e8f60e11b81525f6004820152602490fd5b65ffffffffffff908181116121a6571690565b604490604051906306dfcc6560e41b8252603060048301526024820152fd5b634e487b7160e01b5f52601160045260245ffd5b5f19810191908211610c6c57565b9060018201809211610c6c57565b600a8054915f9280600581116122c0575b5092905b838210612254575050508061221e57505f90565b612227906121d9565b600a5f527fc65a7bb8d6351c1cf70c95a316cc6a92839c986682d98bc35f958f4883f9d2a8015460301c90565b9091928083169080841860011c8201809211610c6c57845f5265ffffffffffff80837fc65a7bb8d6351c1cf70c95a316cc6a92839c986682d98bc35f958f4883f9d2a8015416908416105f146122ae5750925b919061220a565b9392506122ba906121e7565b916122a7565b906122ca82612a6a565b8203918211610c6c57600a5f5265ffffffffffff80837fc65a7bb8d6351c1cf70c95a316cc6a92839c986682d98bc35f958f4883f9d2a8015416908416105f1461231657505b5f612206565b9350612321906121e7565b92612310565b611c00916123b361208360018060a01b0393848116805f525f8051602061327983398151915260205260405f2095865491818316978892881680946bffffffffffffffffffffffff60a01b161790557f3134e8a2e6d97e929a7e54011ea5485d7d196dd5f0ba4d4ef95803e8e3fc257f5f80a46001600160a01b03165f908152600e6020526040902090565b91612918565b8054806123c65750505f90565b5f19918183810111610c6c575f5260205f2001015460301c90565b6123e9612ee6565b6123f1613009565b916040519260208401927f8b73c3c69bb8fe3d512ecc4cf759cc79239f7b179b0ffacaa9a75d522b39400f8452604085015260608401524660808401523060a084015260a0835260c08301918383106001600160401b0384111761082a5760429360e291846040528151902061190160f01b855260c282015201522090565b91610435939161247f93612bf4565b90929192612c94565b6001600160a01b0381165f9081527f5ab42ced628888259c08ac98db1eb0cf702fc1501344311d8b100cd1bfe4bb0060205260409020805460018101909155918290036124d3575050565b6040516301d4b62360e61b81526001600160a01b039190911660048201526024810191909152604490fd5b365f80375f8036817f00000000000000000000000000000000000000000000000000000000000000005af43d5f803e15612536573d5ff35b3d5ffd5b60ff7ff0c57e16840df040f15088dc2f81fe391c3923bec73e23a9662efc9c229c6a005460401c161561256957565b604051631afcd79f60e31b8152600490fd5b601f8111612587575050565b5f805160206132b98339815191525f525f80516020613319833981519152906020601f840160051c830193106125d7575b601f0160051c01905b8181106125cc575050565b5f81556001016125c1565b90915081906125b8565b601f81116125ed575050565b5f805160206132998339815191525f527f2ae08a8e29253f69ac5d979a101956ab8f8d9d7ded63fa7a83b16fc47648eab0906020601f840160051c83019310612650575b601f0160051c01905b818110612645575050565b5f815560010161263a565b9091508190612631565b601f8111612666575050565b5f805160206132f98339815191525f525f80516020613359833981519152906020601f840160051c830193106126b6575b601f0160051c01905b8181106126ab575050565b5f81556001016126a0565b9091508190612697565b601f81116126cc575050565b5f805160206132d98339815191525f527f46a2803e59a4de4e7a4c574b1243f25977ac4c77d5a1a4a609b5394cebb4a2aa906020601f840160051c8301931061272f575b601f0160051c01905b818110612724575050565b5f8155600101612719565b9091508190612710565b9081516001600160401b03811161082a575f805160206132f98339815191529061276c816127678454611b10565b61265a565b602080601f83116001146127a15750819061279d9394955f9261079e5750508160011b915f199060031b1c19161790565b9055565b90601f198316956127cc5f805160206132f98339815191525f525f8051602061335983398151915290565b925f905b888210612807575050836001959697106127ef575b505050811b019055565b01515f1960f88460031b161c191690555f80806127e5565b806001859682949686015181550195019301906127d0565b9081516001600160401b03811161082a575f805160206132d9833981519152906128528161284d8454611b10565b6126c0565b602080601f83116001146128835750819061279d9394955f9261079e5750508160011b915f199060031b1c19161790565b90601f198316956128c15f805160206132d98339815191525f527f46a2803e59a4de4e7a4c574b1243f25977ac4c77d5a1a4a609b5394cebb4a2aa90565b925f905b8882106128e3575050836001959697106127ef57505050811b019055565b806001859682949686015181550195019301906128c5565b5f8061043593602081519101845af4612912611dad565b91612d21565b6001600160a01b03808316939291908116908185141580612a43575b612940575b5050505050565b816129b5575b505082612955575b8080612939565b7fdec2bacdd2f05b59de34da9b523dff8be42e5e38e818c82fdb0bae774387a7249161298c61298661299293610fe4565b91612d84565b90612db7565b604080516001600160d01b039384168152919092166020820152a25f808061294e565b6129be90610fe4565b6129c784612d84565b6129d042612193565b6001600160d01b039182806129e4866123b9565b169116900392828411610c6c577fdec2bacdd2f05b59de34da9b523dff8be42e5e38e818c82fdb0bae774387a72493612a3992612a2092613162565b6040805192851683529316602082015291829190820190565b0390a25f80612946565b50831515612934565b8115612a56570490565b634e487b7160e01b5f52601260045260245ffd5b600181111561043557600181600160801b811015612b83575b612b2b612b21612b17612b0d612b03612af9612b3797600488600160401b612b329a1015612b76575b640100000000811015612b69575b62010000811015612b5c575b610100811015612b50575b6010811015612b44575b1015612b3c575b60030260011c612af2818b612a4c565b0160011c90565b612af2818a612a4c565b612af28189612a4c565b612af28188612a4c565b612af28187612a4c565b612af28186612a4c565b8093612a4c565b821190565b900390565b60011b612ae2565b811c9160021b91612adb565b60081c91811b91612ad1565b60101c9160081b91612ac6565b60201c9160101b91612aba565b60401c9160201b91612aac565b50600160401b9050608082901c612a83565b91905b838210612ba55750505090565b9091928083169080841860011c8201809211610c6c57845f5265ffffffffffff808360205f20015416908416105f14612be25750925b9190612b98565b939250612bee906121e7565b91612bdb565b91907f7fffffffffffffffffffffffffffffff5d576e7357a4501ddfe92f46681b20a08411612c6b579160209360809260ff5f9560405194855216868401526040830152606082015282805260015afa15610b39575f516001600160a01b03811615612c6157905f905f90565b505f906001905f90565b5050505f9160039190565b60041115612c8057565b634e487b7160e01b5f52602160045260245ffd5b612c9d81612c76565b80612ca6575050565b612caf81612c76565b60018103612cc95760405163f645eedf60e01b8152600490fd5b612cd281612c76565b60028103612cf35760405163fce698f760e01b815260048101839052602490fd5b80612cff600392612c76565b14612d075750565b6040516335e2f38360e21b81526004810191909152602490fd5b90612d485750805115612d3657805190602001fd5b60405163d6bda27560e01b8152600490fd5b81511580612d7b575b612d59575090565b604051639996b31560e01b81526001600160a01b039091166004820152602490fd5b50803b15612d51565b6001600160d01b0390818111612d98571690565b604490604051906306dfcc6560e41b825260d060048301526024820152fd5b90612dc142612193565b6001600160d01b03918280612dd5866123b9565b16911601918211610c6c5761066d92613162565b90815491600160401b83101561082a5782612e0c916001611c0095018155611e6e565b90919082549060031b91821b915f19901b1916179055565b90929192600182019081548015612eb6575b5084612e418461323f565b50949092845493612e5183611f0f565b9681612ea1575b5015612e7e575050505f198101908111610c6c57612e0c8591612e7a93611e6e565b9190565b612e7a949293612e9a926001600160d01b039091169190613162565b5050612de9565b65ffffffffffff83811691161490505f612e58565b600160401b81101561082a57806001612ed29201845583611e6e565b8154905f199060031b1b191690555f612e36565b6040515f905f805160206132b98339815191529181835491612f0783611b10565b9283835260209060208401966001916001811690815f14612fe55750600114612f98575b505050612f3a92500382611b92565b51908115612f46572090565b50507fa16a46d94261c7517cc8ff89f61c0ce93598e3c849801011dee649a6a557d100548015612f735790565b507fc5d2460186f7233c927e7db2dcc703c0e500b653ca82273b7bfad8045d85a47090565b5f9081525f805160206133198339815191529590935091905b828410612fcd5750612f3a9450505081016020015f8080612f2b565b85548785018301529485019486945092810192612fb1565b9250505060209250612f3a94915060ff19168652151560051b8201015f8080612f2b565b6040515f905f805160206132f9833981519152918183549161302a83611b10565b9283835260209060208401966001916001811690815f146130e35750600114613096575b50505061305d92500382611b92565b51908115613069572090565b50507fa16a46d94261c7517cc8ff89f61c0ce93598e3c849801011dee649a6a557d101548015612f735790565b5f9081525f805160206133598339815191529590935091905b8284106130cb575061305d9450505081016020015f808061304e565b855487850183015294850194869450928101926130af565b925050506020925061305d94915060ff19168652151560051b8201015f808061304e565b8054600160401b81101561082a5761312491600182018155611e6e565b61314f57815160209092015160301b65ffffffffffff191665ffffffffffff92909216919091179055565b634e487b7160e01b5f525f60045260245ffd5b8054929392801561321557613179613184916121d9565b825f5260205f200190565b9182549265ffffffffffff91828516928116808411613203578793036131ca57506131c392509065ffffffffffff82549181199060301b169116179055565b60301c9190565b9150506131fe916131ea6131dc611d0e565b65ffffffffffff9093168352565b6001600160d01b0386166020830152613107565b6131c3565b604051632520601d60e01b8152600490fd5b509061323a916132266131dc611d0e565b6001600160d01b0385166020830152613107565b5f9190565b8054806132505750505f905f905f90565b5f19918183810111610c6c575f5260205f2001015460019165ffffffffffff82169160301c9056fee8b26c30fad74198956032a3533d903385d56dd795af560196f9c78d4af40d0052c63247e1f47db19d5ce0460030c497f067ca4cebf71ba98eeadabe20bace03a16a46d94261c7517cc8ff89f61c0ce93598e3c849801011dee649a6a557d10252c63247e1f47db19d5ce0460030c497f067ca4cebf71ba98eeadabe20bace04a16a46d94261c7517cc8ff89f61c0ce93598e3c849801011dee649a6a557d10342ad5d3e1f2e6e70edcf6d991b8a3023d3fca8047a131592f9edb9fd9b89d57dddf252ad1be2c89b69c2b068fc378daa952ba7f163c4a11628f55a4df523b3ef5f9ce34815f8e11431c7bb75a8e6886a91478f7ffc1dbb0a98dc240fddd76b75a2646970667358221220a2c608df65fbb6a334b727711100850f634b2be8024b92d758a7d617a3088bca64736f6c63430008190033","linkReferences":{}},"methodIdentifiers":{"CLOCK_MODE()":"4bf5d7e9","DEPOSITOR_WHITELIST_ROLE()":"1b66c9e1","DEPOSIT_LIMIT_SET_ROLE()":"a21a1df9","DEPOSIT_WHITELIST_SET_ROLE()":"db388715","EPOCH_DURATION_SET_ROLE()":"61819dd8","FLASH_FEE_BASE()":"ecc98f05","FLASH_FEE_RATE_SET_ROLE()":"bc46f722","FLASH_FEE_RECEIVER_SET_ROLE()":"31d9736c","FLASH_LOAN_ENABLED_SET_ROLE()":"a66b3a73","IS_DEPOSIT_LIMIT_SET_ROLE()":"1415519b","RETURN_VALUE()":"653b04cd","_VaultTokenized_init(bytes)":"7bd00ae8","_VaultVotes_init(bytes)":"0eac105e","_epochDuration()":"2fa27fae","_epochDurationInit()":"9f9962dd","_epochDurationInitIndex()":"9b4bae3e","_epochDurationSetEpochsDelay()":"bba6ff4a","_nextEpochDuration()":"c1bc6f51","_nextEpochDurationInit()":"cc52aee7","_nextEpochDurationSetEpochsDelay()":"c4db46fc","_nextEpochInitIndex()":"2749f9c4","_prevEpochDuration()":"5a36aa74","_prevEpochDurationInit()":"6e0f2455","_prevEpochDurationInitIndex()":"98ccba4a","allowance(address,address)":"dd62ed3e","approve(address,uint256)":"095ea7b3","balanceOf(address)":"70a08231","burner()":"27810b6e","clock()":"91ddadf4","collateral()":"d8dfeb45","decimals()":"313ce567","delegate(address)":"5c19a95c","delegateBySig(address,uint256,uint256,uint8,bytes32,bytes32)":"c3cda520","delegates(address)":"587cde1e","delegator()":"ce9b7930","deposit(address,uint256)":"47e7ef24","depositLimit()":"ecf70858","depositWhitelist()":"48d3b775","eip712Domain()":"84b0196e","flashFeeRate()":"e945da7f","flashFeeReceiver()":"a8b24f9a","flashLoanEnabled()":"65d61c6c","getPastTotalSupply(uint256)":"8e539e8c","getPastVotes(address,uint256)":"3a46b1a8","getVotes(address)":"9ab24eb0","isDelegatorInitialized()":"50861adc","isDepositLimit()":"a1b12202","isDepositorWhitelisted(address)":"794b15b7","isSlasherInitialized()":"6ec1e3f8","isWithdrawalsClaimed(uint256,address)":"a5d03223","name()":"06fdde03","nonces(address)":"7ecebe00","redeem(address,uint256)":"1e9a6950","slasher()":"b1344271","staticDelegateCall(address,bytes)":"9f86fd85","symbol()":"95d89b41","totalSupply()":"18160ddd","transfer(address,uint256)":"a9059cbb","transferFrom(address,address,uint256)":"23b872dd","withdraw(address,uint256)":"f3fef3a3","withdrawalShares(uint256)":"afba70ad","withdrawalSharesOf(uint256,address)":"a3b54172","withdrawals(uint256)":"5cc07076"},"id":113}