{"abi":[{"type":"constructor","inputs":[{"name":"baseImplementation","type":"address","internalType":"address"}],"stateMutability":"nonpayable"},{"type":"fallback","stateMutability":"payable"},{"type":"function","name":"CLOCK_MODE","inputs":[],"outputs":[{"name":"","type":"string","internalType":"string"}],"stateMutability":"view"},{"type":"function","name":"DEPOSITOR_WHITELIST_ROLE","inputs":[],"outputs":[{"name":"","type":"bytes32","internalType":"bytes32"}],"stateMutability":"view"},{"type":"function","name":"DEPOSIT_LIMIT_SET_ROLE","inputs":[],"outputs":[{"name":"","type":"bytes32","internalType":"bytes32"}],"stateMutability":"view"},{"type":"function","name":"DEPOSIT_WHITELIST_SET_ROLE","inputs":[],"outputs":[{"name":"","type":"bytes32","internalType":"bytes32"}],"stateMutability":"view"},{"type":"function","name":"EPOCH_DURATION_SET_ROLE","inputs":[],"outputs":[{"name":"","type":"bytes32","internalType":"bytes32"}],"stateMutability":"view"},{"type":"function","name":"FLASH_FEE_BASE","inputs":[],"outputs":[{"name":"","type":"uint256","internalType":"uint256"}],"stateMutability":"view"},{"type":"function","name":"FLASH_FEE_RATE_SET_ROLE","inputs":[],"outputs":[{"name":"","type":"bytes32","internalType":"bytes32"}],"stateMutability":"view"},{"type":"function","name":"FLASH_FEE_RECEIVER_SET_ROLE","inputs":[],"outputs":[{"name":"","type":"bytes32","internalType":"bytes32"}],"stateMutability":"view"},{"type":"function","name":"FLASH_LOAN_ENABLED_SET_ROLE","inputs":[],"outputs":[{"name":"","type":"bytes32","internalType":"bytes32"}],"stateMutability":"view"},{"type":"function","name":"IS_DEPOSIT_LIMIT_SET_ROLE","inputs":[],"outputs":[{"name":"","type":"bytes32","internalType":"bytes32"}],"stateMutability":"view"},{"type":"function","name":"RETURN_VALUE","inputs":[],"outputs":[{"name":"","type":"bytes32","internalType":"bytes32"}],"stateMutability":"view"},{"type":"function","name":"_VaultTokenized_init","inputs":[{"name":"data","type":"bytes","internalType":"bytes"}],"outputs":[],"stateMutability":"nonpayable"},{"type":"function","name":"_VaultVotes_init","inputs":[{"name":"","type":"bytes","internalType":"bytes"}],"outputs":[],"stateMutability":"nonpayable"},{"type":"function","name":"allowance","inputs":[{"name":"owner","type":"address","internalType":"address"},{"name":"spender","type":"address","internalType":"address"}],"outputs":[{"name":"","type":"uint256","internalType":"uint256"}],"stateMutability":"view"},{"type":"function","name":"approve","inputs":[{"name":"spender","type":"address","internalType":"address"},{"name":"value","type":"uint256","internalType":"uint256"}],"outputs":[{"name":"","type":"bool","internalType":"bool"}],"stateMutability":"nonpayable"},{"type":"function","name":"balanceOf","inputs":[{"name":"account","type":"address","internalType":"address"}],"outputs":[{"name":"","type":"uint256","internalType":"uint256"}],"stateMutability":"view"},{"type":"function","name":"burner","inputs":[],"outputs":[{"name":"","type":"address","internalType":"address"}],"stateMutability":"view"},{"type":"function","name":"clock","inputs":[],"outputs":[{"name":"","type":"uint48","internalType":"uint48"}],"stateMutability":"view"},{"type":"function","name":"collateral","inputs":[],"outputs":[{"name":"","type":"address","internalType":"address"}],"stateMutability":"view"},{"type":"function","name":"decimals","inputs":[],"outputs":[{"name":"","type":"uint8","internalType":"uint8"}],"stateMutability":"view"},{"type":"function","name":"delegate","inputs":[{"name":"delegatee","type":"address","internalType":"address"}],"outputs":[],"stateMutability":"nonpayable"},{"type":"function","name":"delegateBySig","inputs":[{"name":"delegatee","type":"address","internalType":"address"},{"name":"nonce","type":"uint256","internalType":"uint256"},{"name":"expiry","type":"uint256","internalType":"uint256"},{"name":"v","type":"uint8","internalType":"uint8"},{"name":"r","type":"bytes32","internalType":"bytes32"},{"name":"s","type":"bytes32","internalType":"bytes32"}],"outputs":[],"stateMutability":"nonpayable"},{"type":"function","name":"delegates","inputs":[{"name":"account","type":"address","internalType":"address"}],"outputs":[{"name":"","type":"address","internalType":"address"}],"stateMutability":"view"},{"type":"function","name":"delegator","inputs":[],"outputs":[{"name":"","type":"address","internalType":"address"}],"stateMutability":"view"},{"type":"function","name":"deposit","inputs":[{"name":"onBehalfOf","type":"address","internalType":"address"},{"name":"amount","type":"uint256","internalType":"uint256"}],"outputs":[{"name":"depositedAmount","type":"uint256","internalType":"uint256"},{"name":"mintedShares","type":"uint256","internalType":"uint256"}],"stateMutability":"nonpayable"},{"type":"function","name":"depositLimit","inputs":[],"outputs":[{"name":"","type":"uint256","internalType":"uint256"}],"stateMutability":"view"},{"type":"function","name":"depositWhitelist","inputs":[],"outputs":[{"name":"","type":"bool","internalType":"bool"}],"stateMutability":"view"},{"type":"function","name":"eip712Domain","inputs":[],"outputs":[{"name":"fields","type":"bytes1","internalType":"bytes1"},{"name":"name","type":"string","internalType":"string"},{"name":"version","type":"string","internalType":"string"},{"name":"chainId","type":"uint256","internalType":"uint256"},{"name":"verifyingContract","type":"address","internalType":"address"},{"name":"salt","type":"bytes32","internalType":"bytes32"},{"name":"extensions","type":"uint256[]","internalType":"uint256[]"}],"stateMutability":"view"},{"type":"function","name":"flashFeeRate","inputs":[],"outputs":[{"name":"","type":"uint256","internalType":"uint256"}],"stateMutability":"view"},{"type":"function","name":"flashFeeReceiver","inputs":[],"outputs":[{"name":"","type":"address","internalType":"address"}],"stateMutability":"view"},{"type":"function","name":"flashLoanEnabled","inputs":[],"outputs":[{"name":"","type":"bool","internalType":"bool"}],"stateMutability":"view"},{"type":"function","name":"getPastTotalSupply","inputs":[{"name":"timepoint","type":"uint256","internalType":"uint256"}],"outputs":[{"name":"","type":"uint256","internalType":"uint256"}],"stateMutability":"view"},{"type":"function","name":"getPastVotes","inputs":[{"name":"account","type":"address","internalType":"address"},{"name":"timepoint","type":"uint256","internalType":"uint256"}],"outputs":[{"name":"","type":"uint256","internalType":"uint256"}],"stateMutability":"view"},{"type":"function","name":"getVotes","inputs":[{"name":"account","type":"address","internalType":"address"}],"outputs":[{"name":"","type":"uint256","internalType":"uint256"}],"stateMutability":"view"},{"type":"function","name":"isDelegatorInitialized","inputs":[],"outputs":[{"name":"","type":"bool","internalType":"bool"}],"stateMutability":"view"},{"type":"function","name":"isDepositLimit","inputs":[],"outputs":[{"name":"","type":"bool","internalType":"bool"}],"stateMutability":"view"},{"type":"function","name":"isDepositorWhitelisted","inputs":[{"name":"account","type":"address","internalType":"address"}],"outputs":[{"name":"value","type":"bool","internalType":"bool"}],"stateMutability":"view"},{"type":"function","name":"isSlasherInitialized","inputs":[],"outputs":[{"name":"","type":"bool","internalType":"bool"}],"stateMutability":"view"},{"type":"function","name":"isWithdrawalsClaimed","inputs":[{"name":"epoch","type":"uint256","internalType":"uint256"},{"name":"account","type":"address","internalType":"address"}],"outputs":[{"name":"value","type":"bool","internalType":"bool"}],"stateMutability":"view"},{"type":"function","name":"name","inputs":[],"outputs":[{"name":"","type":"string","internalType":"string"}],"stateMutability":"view"},{"type":"function","name":"nonces","inputs":[{"name":"owner","type":"address","internalType":"address"}],"outputs":[{"name":"","type":"uint256","internalType":"uint256"}],"stateMutability":"view"},{"type":"function","name":"redeem","inputs":[{"name":"claimer","type":"address","internalType":"address"},{"name":"shares","type":"uint256","internalType":"uint256"}],"outputs":[{"name":"withdrawnAssets","type":"uint256","internalType":"uint256"},{"name":"mintedShares","type":"uint256","internalType":"uint256"}],"stateMutability":"nonpayable"},{"type":"function","name":"slasher","inputs":[],"outputs":[{"name":"","type":"address","internalType":"address"}],"stateMutability":"view"},{"type":"function","name":"staticDelegateCall","inputs":[{"name":"target","type":"address","internalType":"address"},{"name":"data","type":"bytes","internalType":"bytes"}],"outputs":[],"stateMutability":"nonpayable"},{"type":"function","name":"symbol","inputs":[],"outputs":[{"name":"","type":"string","internalType":"string"}],"stateMutability":"view"},{"type":"function","name":"totalSupply","inputs":[],"outputs":[{"name":"","type":"uint256","internalType":"uint256"}],"stateMutability":"view"},{"type":"function","name":"transfer","inputs":[{"name":"to","type":"address","internalType":"address"},{"name":"value","type":"uint256","internalType":"uint256"}],"outputs":[{"name":"","type":"bool","internalType":"bool"}],"stateMutability":"nonpayable"},{"type":"function","name":"transferFrom","inputs":[{"name":"from","type":"address","internalType":"address"},{"name":"to","type":"address","internalType":"address"},{"name":"value","type":"uint256","internalType":"uint256"}],"outputs":[{"name":"","type":"bool","internalType":"bool"}],"stateMutability":"nonpayable"},{"type":"function","name":"withdraw","inputs":[{"name":"claimer","type":"address","internalType":"address"},{"name":"amount","type":"uint256","internalType":"uint256"}],"outputs":[{"name":"burnedShares","type":"uint256","internalType":"uint256"},{"name":"mintedShares","type":"uint256","internalType":"uint256"}],"stateMutability":"nonpayable"},{"type":"function","name":"withdrawalShares","inputs":[{"name":"epoch","type":"uint256","internalType":"uint256"}],"outputs":[{"name":"amount","type":"uint256","internalType":"uint256"}],"stateMutability":"view"},{"type":"function","name":"withdrawalSharesOf","inputs":[{"name":"epoch","type":"uint256","internalType":"uint256"},{"name":"account","type":"address","internalType":"address"}],"outputs":[{"name":"amount","type":"uint256","internalType":"uint256"}],"stateMutability":"view"},{"type":"function","name":"withdrawals","inputs":[{"name":"epoch","type":"uint256","internalType":"uint256"}],"outputs":[{"name":"amount","type":"uint256","internalType":"uint256"}],"stateMutability":"view"},{"type":"event","name":"Approval","inputs":[{"name":"owner","type":"address","indexed":true,"internalType":"address"},{"name":"spender","type":"address","indexed":true,"internalType":"address"},{"name":"value","type":"uint256","indexed":false,"internalType":"uint256"}],"anonymous":false},{"type":"event","name":"DelegateChanged","inputs":[{"name":"delegator","type":"address","indexed":true,"internalType":"address"},{"name":"fromDelegate","type":"address","indexed":true,"internalType":"address"},{"name":"toDelegate","type":"address","indexed":true,"internalType":"address"}],"anonymous":false},{"type":"event","name":"DelegateVotesChanged","inputs":[{"name":"delegate","type":"address","indexed":true,"internalType":"address"},{"name":"previousVotes","type":"uint256","indexed":false,"internalType":"uint256"},{"name":"newVotes","type":"uint256","indexed":false,"internalType":"uint256"}],"anonymous":false},{"type":"event","name":"EIP712DomainChanged","inputs":[],"anonymous":false},{"type":"event","name":"Initialized","inputs":[{"name":"version","type":"uint64","indexed":false,"internalType":"uint64"}],"anonymous":false},{"type":"event","name":"Transfer","inputs":[{"name":"from","type":"address","indexed":true,"internalType":"address"},{"name":"to","type":"address","indexed":true,"internalType":"address"},{"name":"value","type":"uint256","indexed":false,"internalType":"uint256"}],"anonymous":false},{"type":"error","name":"AddressEmptyCode","inputs":[{"name":"target","type":"address","internalType":"address"}]},{"type":"error","name":"CheckpointUnorderedInsertion","inputs":[]},{"type":"error","name":"ECDSAInvalidSignature","inputs":[]},{"type":"error","name":"ECDSAInvalidSignatureLength","inputs":[{"name":"length","type":"uint256","internalType":"uint256"}]},{"type":"error","name":"ECDSAInvalidSignatureS","inputs":[{"name":"s","type":"bytes32","internalType":"bytes32"}]},{"type":"error","name":"ERC20InsufficientAllowance","inputs":[{"name":"spender","type":"address","internalType":"address"},{"name":"allowance","type":"uint256","internalType":"uint256"},{"name":"needed","type":"uint256","internalType":"uint256"}]},{"type":"error","name":"ERC20InsufficientBalance","inputs":[{"name":"sender","type":"address","internalType":"address"},{"name":"balance","type":"uint256","internalType":"uint256"},{"name":"needed","type":"uint256","internalType":"uint256"}]},{"type":"error","name":"ERC20InvalidApprover","inputs":[{"name":"approver","type":"address","internalType":"address"}]},{"type":"error","name":"ERC20InvalidReceiver","inputs":[{"name":"receiver","type":"address","internalType":"address"}]},{"type":"error","name":"ERC20InvalidSender","inputs":[{"name":"sender","type":"address","internalType":"address"}]},{"type":"error","name":"ERC20InvalidSpender","inputs":[{"name":"spender","type":"address","internalType":"address"}]},{"type":"error","name":"ERC5805FutureLookup","inputs":[{"name":"timepoint","type":"uint256","internalType":"uint256"},{"name":"clock","type":"uint48","internalType":"uint48"}]},{"type":"error","name":"ERC6372InconsistentClock","inputs":[]},{"type":"error","name":"FailedCall","inputs":[]},{"type":"error","name":"InvalidAccountNonce","inputs":[{"name":"account","type":"address","internalType":"address"},{"name":"currentNonce","type":"uint256","internalType":"uint256"}]},{"type":"error","name":"InvalidData","inputs":[]},{"type":"error","name":"InvalidInitialization","inputs":[]},{"type":"error","name":"NotInitializing","inputs":[]},{"type":"error","name":"ReentrancyGuardReentrantCall","inputs":[]},{"type":"error","name":"SafeCastOverflowedUintDowncast","inputs":[{"name":"bits","type":"uint8","internalType":"uint8"},{"name":"value","type":"uint256","internalType":"uint256"}]},{"type":"error","name":"SafeSupplyExceeded","inputs":[]},{"type":"error","name":"VotesExpiredSignature","inputs":[{"name":"expiry","type":"uint256","internalType":"uint256"}]}],"bytecode":{"object":"0x60a034606d57601f6130e338819003918201601f19168301916001600160401b03831184841017607157808492602094604052833981010312606d57516001600160a01b0381168103606d5760805260405161305d9081610086823960805181818161088801526123300152f35b5f80fd5b634e487b7160e01b5f52604160045260245ffdfe608060405260043610612326575f3560e01c806306fdde031461034b578063095ea7b3146103465780630eac105e146103415780631415519b1461033c57806318160ddd146103375780631b66c9e1146103325780631e9a69501461032d57806323b872dd1461032857806327810b6e14610323578063313ce5671461031e57806331d9736c146103195780633a46b1a81461031457806347e7ef241461030f57806348d3b7751461030a5780634bf5d7e91461030557806350861adc14610300578063587cde1e146102fb5780635c19a95c146102f65780635cc07076146102f157806361819dd8146102ec578063653b04cd146102e757806365d61c6c146102e25780636ec1e3f8146102dd57806370a08231146102d8578063794b15b7146102d35780637bd00ae8146102ce5780637ecebe00146102c957806384b0196e146102c45780638e539e8c146102bf57806391ddadf4146102ba57806395d89b41146102b55780639ab24eb0146102b05780639f86fd85146102ab578063a1b12202146102a6578063a21a1df9146102a1578063a3b541721461029c578063a5d0322314610297578063a66b3a7314610292578063a8b24f9a1461028d578063a9059cbb14610288578063afba70ad14610283578063b13442711461027e578063bc46f72214610279578063c3cda52014610274578063ce9b79301461026f578063d8dfeb451461026a578063db38871514610265578063dd62ed3e14610260578063e945da7f1461025b578063ecc98f0514610256578063ecf70858146102515763f3fef3a3036123265761186f565b611852565b611834565b611817565b6117e8565b6117ae565b611783565b61175b565b61168e565b611649565b611621565b6115f7565b6115c6565b61159e565b611564565b611516565b6114cd565b611493565b61146f565b6113ed565b6113b1565b6112ff565b6112d4565b611232565b611162565b611085565b610f2a565b610eed565b610e46565b610e21565b610dfc565b610dc2565b610d88565b610d5e565b610d3c565b610cf7565b610cd2565b610c84565b610c63565b610bb8565b610a96565b610a5c565b6109c5565b61099d565b6108ef565b610820565b6107e6565b6107c4565b61078a565b6105c1565b6104a8565b610388565b805180835260209291819084018484015e5f828201840152601f01601f1916010190565b906020610385928181520190610350565b90565b34610478575f366003190112610478576040515f5f80516020612f888339815191528054906103b6826118ed565b8085529160209160019182811690811561044b57506001146103f3575b6103ef866103e38188038261196f565b60405191829182610374565b0390f35b5f90815293507f2ae08a8e29253f69ac5d979a101956ab8f8d9d7ded63fa7a83b16fc47648eab05b838510610438575050505081016020016103e3826103ef5f6103d3565b805486860184015293820193810161041b565b90508695506103ef969350602092506103e394915060ff191682840152151560051b82010192935f6103d3565b5f80fd5b600435906001600160a01b038216820361047857565b602435906001600160a01b038216820361047857565b34610478576040366003190112610478576104c161047c565b602435331561054e576001600160a01b038216918215610536576104fe82916104e933610e7d565b9060018060a01b03165f5260205260405f2090565b556040519081527f8c5be1e5ebec7d5bd14f71427d1e84f3dd0314c0f7b2291e5b200ac8c7c3b92560203392a3602060405160018152f35b604051634a1406b160e11b81525f6004820152602490fd5b60405163e602df0560e01b81525f6004820152602490fd5b9181601f84011215610478578235916001600160401b038311610478576020838186019501011161047857565b602060031982011261047857600435906001600160401b038211610478576105bd91600401610566565b9091565b34610478576105cf36610593565b50506040516105dd81611939565b600a8152602090695661756c74566f74657360b01b60208201526040519061060482611939565b60019260018352603160f81b602084015261061d612362565b610625612362565b8151906001600160401b038211610785575f80516020612fa8833981519152926106588361065386546118ed565b6123a3565b602091601f84116001146106f15750610694955061068d92915f91836106e6575b50508160011b915f199060031b1c19161790565b9055612587565b6106bc5f7fa16a46d94261c7517cc8ff89f61c0ce93598e3c849801011dee649a6a557d10055565b6106e45f7fa16a46d94261c7517cc8ff89f61c0ce93598e3c849801011dee649a6a557d10155565b005b015190505f80610679565b5f80516020612fa88339815191525f529195601f198416907f42ad5d3e1f2e6e70edcf6d991b8a3023d3fca8047a131592f9edb9fd9b89d57d935f915b83831061076e57505050958392916001946106949810610756575b505050811b019055612587565b01515f1960f88460031b161c191690555f8080610749565b848a0151865598810198948501949181019161072e565b611925565b34610478575f3660031901126104785760206040517fc6aaadd7371d5e8f9ed6849dd66a66573a3ba37167d03f4352c9ba5693678fac8152f35b34610478575f3660031901126104785760206107de611c42565b604051908152f35b34610478575f3660031901126104785760206040517f9c56d972d63cbb4195b3c1484691dfc220fa96a4c47e7b6613bd82a022029e068152f35b34610478576040366003190112610478576108de6108866108bb6108ac61084561047c565b6040516301e9a69560e41b60208201526001600160a01b0390911660248281019190915235604482018190529381606481015b03601f19810183528261196f565b7f000000000000000000000000000000000000000000000000000000000000000061275c565b60208082518301019101611d02565b9290915f6040518281525f8051602061300883398151915260203392a333611d18565b604080519182526020820192909252f35b346104785760603660031901126104785761090861047c565b610910610492565b60443590610921336104e985610e7d565b549260018401610942575b6109369350611e04565b60405160018152602090f35b828410610977576001600160a01b0381161561054e57331561053657826109369403610971336104e984610e7d565b5561092c565b604051637dc7a0d960e11b81523360048201526024810185905260448101849052606490fd5b34610478575f366003190112610478576001546040516001600160a01b039091168152602090f35b34610478575f366003190112610478575f5460405163313ce56760e01b8152906020908290600490829060101c6001600160a01b03165afa8015610a57575f90610a1a575b60405160ff919091168152602090f35b506020813d602011610a4f575b81610a346020938361196f565b81010312610478576103ef9051610a4a81611683565b610a0a565b3d9150610a27565b611b39565b34610478575f3660031901126104785760206040517f5295aaaa27fdd659293eafacbfafbc634c1b96298957e87de5f59308cdbfdad18152f35b3461047857604036600319011261047857610aaf61047c565b60243590610abc42611fbb565b9065ffffffffffff91828116841015610b8f5750610adc610ae291610eb5565b92611fbb565b8254905f908260058111610b41575b50610afd9350846129f6565b9081610b245750506103ef5f5b6040516001600160d01b0390911681529081906020820190565b610b306103ef92612001565b905f5260205f20015460301c610b0a565b9092610b4c826128cb565b8203918211610b8a57610afd94865f52808360205f20015416908516105f14610b785750915b5f610af1565b929150610b849061200f565b90610b72565b611fed565b604051637669fc0f60e11b81526004810185905265ffffffffffff919091166024820152604490fd5b3461047857604036600319011261047857610bd161047c565b6040516311f9fbc960e21b60208201526001600160a01b038216602480830191909152356044820152610c0f906108ac906108868160648101610878565b916040518381525f5f80516020613008833981519152602060018060a01b03851693a36001600160d01b03610c42611c42565b11610c5157826108de91611d71565b604051630a84eab560e11b8152600490fd5b34610478575f36600319011261047857602060ff5f54166040519015158152f35b34610478575f366003190112610478576103ef604051610ca381611939565b600e81526d06d6f64653d74696d657374616d760941b6020820152604051918291602083526020830190610350565b34610478575f36600319011261047857602060ff60025460a01c166040519015158152f35b346104785760203660031901126104785760206001600160a01b0380610d1b61047c565b165f525f80516020612f68833981519152825260405f205416604051908152f35b34610478576020366003190112610478576106e4610d5861047c565b3361214f565b34610478576020366003190112610478576004355f526006602052602060405f2054604051908152f35b34610478575f3660031901126104785760206040517f591f6a0113ada8aff67efadec8ae2fa585cb4ebf4e1f8fc1205ffbeff98d00ec8152f35b34610478575f3660031901126104785760206040517f439148f0bbc682ca079e46d6e2c2f0c1e3b820f1a291b069d8882abf8cf18dd98152f35b34610478575f36600319011261047857602060ff60165460a01c166040519015158152f35b34610478575f36600319011261047857602060ff60035460a01c166040519015158152f35b34610478576020366003190112610478576001600160a01b03610e6761047c565b165f52600e60205260206107de60405f20611cce565b6001600160a01b03165f9081527f52c63247e1f47db19d5ce0460030c497f067ca4cebf71ba98eeadabe20bace016020526040902090565b6001600160a01b03165f9081527fe8b26c30fad74198956032a3533d903385d56dd795af560196f9c78d4af40d016020526040902090565b34610478576020366003190112610478576001600160a01b03610f0e61047c565b165f526005602052602060ff60405f2054166040519015158152f35b3461047857610f3836610593565b8101604082820312610478576001600160401b039180358381116104785782610f62918301611b44565b90602092602082013585811161047857610f7c9201611b44565b91610f85612362565b610f8d612362565b8151938411610785575f80516020612f8883398151915291610fb885610fb385546118ed565b61241c565b602091601f8611600114610ff257509380610feb926106e4965f926106e65750508160011b915f199060031b1c19161790565b9055612680565b5f80516020612f888339815191525f529190601f1986167f2ae08a8e29253f69ac5d979a101956ab8f8d9d7ded63fa7a83b16fc47648eab0935f905b82821061106d5750509160019391876106e4989410611055575b505050811b019055612680565b01515f1960f88460031b161c191690555f8080611048565b8060018697829497870151815501960194019061102e565b34610478576020366003190112610478576001600160a01b036110a661047c565b165f527f5ab42ced628888259c08ac98db1eb0cf702fc1501344311d8b100cd1bfe4bb00602052602060405f2054604051908152f35b9161111090949194600f60f81b845261110260209660e0602087015260e0860190610350565b908482036040860152610350565b92606083015260018060a01b031660808201525f60a082015260c0818303910152602080845192838152019301915f5b82811061114e575050505090565b835185529381019392810192600101611140565b34610478575f366003190112610478577fa16a46d94261c7517cc8ff89f61c0ce93598e3c849801011dee649a6a557d100541580611209575b156111cc576111a8611990565b6111b0611a65565b906103ef6111bc611b8a565b60405193849330914691866110dc565b60405162461bcd60e51b81526020600482015260156024820152741152540dcc4c8e88155b9a5b9a5d1a585b1a5e9959605a1b6044820152606490fd5b507fa16a46d94261c7517cc8ff89f61c0ce93598e3c849801011dee649a6a557d101541561119b565b346104785760203660031901126104785760043561124f42611fbb565b65ffffffffffff81168210156112ad5761127061126b83611fbb565b61201d565b6001600160d01b038116156112a35761128b6103ef91611bf3565b90549060031b1c5b6040519081529081906020820190565b506103ef5f611293565b604051637669fc0f60e11b8152600481019290925265ffffffffffff166024820152604490fd5b34610478575f3660031901126104785760206112ef42611fbb565b65ffffffffffff60405191168152f35b34610478575f366003190112610478576040515f5f80516020612fc883398151915280549061132d826118ed565b8085529160209160019182811690811561044b5750600114611359576103ef866103e38188038261196f565b5f90815293507f46a2803e59a4de4e7a4c574b1243f25977ac4c77d5a1a4a609b5394cebb4a2aa5b83851061139e575050505081016020016103e3826103ef5f6103d3565b8054868601840152938201938101611381565b346104785760203660031901126104785760206001600160d01b036113e46113df6113da61047c565b610eb5565b6121e1565b16604051908152f35b346104785760403660031901126104785761140661047c565b6024356001600160401b038111610478575f9161142883923690600401610566565b90816040519283928337810184815203915af4611467611446611bb0565b91610878604051938492151560208401526040808401526060830190610350565b805190602001fd5b34610478575f36600319011261047857602060ff5f5460081c166040519015158152f35b34610478575f3660031901126104785760206040517f4a634bc14d77baf979756509ef4298c6f6318af357828612545267ee2eb792338152f35b3461047857604036600319011261047857602061150d6114eb610492565b6004355f526008835260405f209060018060a01b03165f5260205260405f2090565b54604051908152f35b3461047857604036600319011261047857602060ff611558611536610492565b6004355f526009845260405f209060018060a01b03165f5260205260405f2090565b54166040519015158152f35b34610478575f3660031901126104785760206040517fc9feed28b4b1a1d11c6791da7bb7f6b8d33e831a4992a9383dead1ec2c82c35a8152f35b34610478575f366003190112610478576016546040516001600160a01b039091168152602090f35b34610478576040366003190112610478576115ec6115e261047c565b6024359033611e04565b602060405160018152f35b34610478576020366003190112610478576004355f526007602052602060405f2054604051908152f35b34610478575f366003190112610478576003546040516001600160a01b039091168152602090f35b34610478575f3660031901126104785760206040517fc9078c78bcaac2be1c77c160c539a489be2b72939771b1a6302fed3e2150c7458152f35b60ff81160361047857565b346104785760c0366003190112610478576116a761047c565b604435906024356064356116ba81611683565b834211611742576117366106e49461173d926040519060208201927fe48329057bfd03d55e49b547132e39cffd9c1820ad7b9d4c5307691425d15adf845260018060a01b038816604084015286606084015260808301526080825261171e82611954565b61173160a4359360843593519020612209565b612298565b91826122b0565b61214f565b604051632341d78760e11b815260048101859052602490fd5b34610478575f366003190112610478576002546040516001600160a01b039091168152602090f35b34610478575f366003190112610478575f5460405160109190911c6001600160a01b03168152602090f35b34610478575f3660031901126104785760206040517fbae4ee3de6c709ff9a002e774c5b78cb381560b219213c88ae0f1e207c03c0238152f35b3461047857604036600319011261047857602061150d61180661047c565b6104e9611811610492565b91610e7d565b34610478575f366003190112610478576020601554604051908152f35b34610478575f366003190112610478576020604051633b9aca008152f35b34610478575f366003190112610478576020600454604051908152f35b34610478576040366003190112610478576118c86108ac61087861088661189461047c565b60405163f3fef3a360e01b60208201526001600160a01b039091166024808301919091523560448201529182906064820190565b905f6040518281525f8051602061300883398151915260203392a36108de8133611d18565b90600182811c9216801561191b575b602083101461190757565b634e487b7160e01b5f52602260045260245ffd5b91607f16916118fc565b634e487b7160e01b5f52604160045260245ffd5b604081019081106001600160401b0382111761078557604052565b60a081019081106001600160401b0382111761078557604052565b90601f801991011681019081106001600160401b0382111761078557604052565b604051905f825f80516020612fa8833981519152918254926119b1846118ed565b80845293602091600191828116908115611a3f57506001146119df575b5050506119dd9250038361196f565b565b5f9081527f42ad5d3e1f2e6e70edcf6d991b8a3023d3fca8047a131592f9edb9fd9b89d57d9590935091905b828410611a2757506119dd9450505081016020015f80806119ce565b85548885018301529485019487945092810192611a0b565b92505050602092506119dd94915060ff191682840152151560051b8201015f80806119ce565b604051905f825f80516020612fe883398151915291825492611a86846118ed565b80845293602091600191828116908115611a3f5750600114611ab1575050506119dd9250038361196f565b5f9081527f5f9ce34815f8e11431c7bb75a8e6886a91478f7ffc1dbb0a98dc240fddd76b759590935091905b828410611af957506119dd9450505081016020015f80806119ce565b85548885018301529485019487945092810192611add565b604051906119dd82611939565b6001600160401b03811161078557601f01601f191660200190565b6040513d5f823e3d90fd5b81601f8201121561047857803590611b5b82611b1e565b92611b69604051948561196f565b8284526020838301011161047857815f926020809301838601378301015290565b604051602081018181106001600160401b03821117610785576040525f8152905f368137565b3d15611bda573d90611bc182611b1e565b91611bcf604051938461196f565b82523d5f602084013e565b606090565b634e487b7160e01b5f52603260045260245ffd5b600b54811015611c2857600b5f527f0175b7a638427703f0dbe7bb9bbf987a2551717b34e79f33b5b1008d1fa01db901905f90565b611bdf565b8054821015611c28575f5260205f2001905f90565b600a5480611c9557505f5b6001600160d01b03811615611c9057600b54811015611c2857600b5f527f0175b7a638427703f0dbe7bb9bbf987a2551717b34e79f33b5b1008d1fa01db9015490565b505f90565b805f19810111610b8a57600a5f527fc65a7bb8d6351c1cf70c95a316cc6a92839c986682d98bc35f958f4883f9d2a7015460301c611c4d565b611cd7816121e1565b6001600160d01b03811615611cfc576001611cf29201611c2d565b90549060031b1c90565b50505f90565b9190826040910312610478576020825192015190565b6001600160a01b039081165f9081525f80516020612f6883398151915260205260408120549080527fd4fb29e10204005f1a39963c6862b79a755e22f0177c53f05cdc3786c702f974546119dd93929081169116612779565b5f80516020612f688339815191526020527fd4fb29e10204005f1a39963c6862b79a755e22f0177c53f05cdc3786c702f974546001600160a01b039182165f90815260409020546119dd93929081169116612779565b6001600160a01b039081165f9081525f80516020612f6883398151915260205260408082205493831682529020546119dd93929082169116612779565b6001600160a01b0380821694939291908515611fa35782168015611f8b577f9b779b17422d0df92223018b32b4d1fa46e071723d6817e2486d003becc55f006002815414611f7957600290556001600160a01b0382165f908152600e60205260409020611e7590611cce565b611cce565b95848710611f4a57611eb26119dd9697611e9f8560018060a01b03165f52600e60205260405f2090565b9087611eaa42611fbb565b910391612c85565b50506001600160a01b0384165f908152600e60205260409020611f0190611ed842611fbb565b6001600160a01b0387165f908152600e602052604090208890611efa90611cce565b0191612c85565b50506040518581525f8051602061300883398151915290602090a3611f4560017f9b779b17422d0df92223018b32b4d1fa46e071723d6817e2486d003becc55f0055565b611dc7565b60405163391434e360e21b81526001600160a01b03841660048201526024810188905260448101869052606490fd5b604051633ee5aeb560e01b8152600490fd5b60405163ec442f0560e01b81525f6004820152602490fd5b604051634b637e8f60e11b81525f6004820152602490fd5b65ffffffffffff90818111611fce571690565b604490604051906306dfcc6560e41b8252603060048301526024820152fd5b634e487b7160e01b5f52601160045260245ffd5b5f19810191908211610b8a57565b9060018201809211610b8a57565b600a8054915f9280600581116120e8575b5092905b83821061207c575050508061204657505f90565b61204f90612001565b600a5f527fc65a7bb8d6351c1cf70c95a316cc6a92839c986682d98bc35f958f4883f9d2a8015460301c90565b9091928083169080841860011c8201809211610b8a57845f5265ffffffffffff80837fc65a7bb8d6351c1cf70c95a316cc6a92839c986682d98bc35f958f4883f9d2a8015416908416105f146120d65750925b9190612032565b9392506120e29061200f565b916120cf565b906120f2826128cb565b8203918211610b8a57600a5f5265ffffffffffff80837fc65a7bb8d6351c1cf70c95a316cc6a92839c986682d98bc35f958f4883f9d2a8015416908416105f1461213e57505b5f61202e565b93506121499061200f565b92612138565b6119dd916121db611e7060018060a01b0393848116805f525f80516020612f6883398151915260205260405f2095865491818316978892881680946bffffffffffffffffffffffff60a01b161790557f3134e8a2e6d97e929a7e54011ea5485d7d196dd5f0ba4d4ef95803e8e3fc257f5f80a46001600160a01b03165f908152600e6020526040902090565b91612779565b8054806121ee5750505f90565b5f19918183810111610b8a575f5260205f2001015460301c90565b612211612d47565b612219612db1565b916040519260208401927f8b73c3c69bb8fe3d512ecc4cf759cc79239f7b179b0ffacaa9a75d522b39400f8452604085015260608401524660808401523060a084015260a0835260c08301918383106001600160401b038411176107855760429360e291846040528151902061190160f01b855260c282015201522090565b9161038593916122a793612a55565b90929192612af5565b6001600160a01b0381165f9081527f5ab42ced628888259c08ac98db1eb0cf702fc1501344311d8b100cd1bfe4bb0060205260409020805460018101909155918290036122fb575050565b6040516301d4b62360e61b81526001600160a01b039190911660048201526024810191909152604490fd5b365f80375f8036817f00000000000000000000000000000000000000000000000000000000000000005af43d5f803e1561235e573d5ff35b3d5ffd5b60ff7ff0c57e16840df040f15088dc2f81fe391c3923bec73e23a9662efc9c229c6a005460401c161561239157565b604051631afcd79f60e31b8152600490fd5b601f81116123af575050565b5f80516020612fa88339815191525f527f42ad5d3e1f2e6e70edcf6d991b8a3023d3fca8047a131592f9edb9fd9b89d57d906020601f840160051c83019310612412575b601f0160051c01905b818110612407575050565b5f81556001016123fc565b90915081906123f3565b601f8111612428575050565b5f80516020612f888339815191525f527f2ae08a8e29253f69ac5d979a101956ab8f8d9d7ded63fa7a83b16fc47648eab0906020601f840160051c8301931061248b575b601f0160051c01905b818110612480575050565b5f8155600101612475565b909150819061246c565b601f81116124a1575050565b5f80516020612fe88339815191525f527f5f9ce34815f8e11431c7bb75a8e6886a91478f7ffc1dbb0a98dc240fddd76b75906020601f840160051c83019310612504575b601f0160051c01905b8181106124f9575050565b5f81556001016124ee565b90915081906124e5565b601f811161251a575050565b5f80516020612fc88339815191525f527f46a2803e59a4de4e7a4c574b1243f25977ac4c77d5a1a4a609b5394cebb4a2aa906020601f840160051c8301931061257d575b601f0160051c01905b818110612572575050565b5f8155600101612567565b909150819061255e565b9081516001600160401b038111610785575f80516020612fe8833981519152906125ba816125b584546118ed565b612495565b602080601f83116001146125ef575081906125eb9394955f926106e65750508160011b915f199060031b1c19161790565b9055565b90601f1983169561262d5f80516020612fe88339815191525f527f5f9ce34815f8e11431c7bb75a8e6886a91478f7ffc1dbb0a98dc240fddd76b7590565b925f905b88821061266857505083600195969710612650575b505050811b019055565b01515f1960f88460031b161c191690555f8080612646565b80600185968294968601518155019501930190612631565b9081516001600160401b038111610785575f80516020612fc8833981519152906126b3816126ae84546118ed565b61250e565b602080601f83116001146126e4575081906125eb9394955f926106e65750508160011b915f199060031b1c19161790565b90601f198316956127225f80516020612fc88339815191525f527f46a2803e59a4de4e7a4c574b1243f25977ac4c77d5a1a4a609b5394cebb4a2aa90565b925f905b8882106127445750508360019596971061265057505050811b019055565b80600185968294968601518155019501930190612726565b5f8061038593602081519101845af4612773611bb0565b91612b82565b6001600160a01b038083169392919081169081851415806128a4575b6127a1575b5050505050565b81612816575b5050826127b6575b808061279a565b7fdec2bacdd2f05b59de34da9b523dff8be42e5e38e818c82fdb0bae774387a724916127ed6127e76127f393610eb5565b91612be5565b90612c18565b604080516001600160d01b039384168152919092166020820152a25f80806127af565b61281f90610eb5565b61282884612be5565b61283142611fbb565b6001600160d01b03918280612845866121e1565b169116900392828411610b8a577fdec2bacdd2f05b59de34da9b523dff8be42e5e38e818c82fdb0bae774387a7249361289a9261288192612e51565b6040805192851683529316602082015291829190820190565b0390a25f806127a7565b50831515612795565b81156128b7570490565b634e487b7160e01b5f52601260045260245ffd5b600181111561038557600181600160801b8110156129e4575b61298c61298261297861296e61296461295a61299897600488600160401b6129939a10156129d7575b6401000000008110156129ca575b620100008110156129bd575b6101008110156129b1575b60108110156129a5575b101561299d575b60030260011c612953818b6128ad565b0160011c90565b612953818a6128ad565b61295381896128ad565b61295381886128ad565b61295381876128ad565b61295381866128ad565b80936128ad565b821190565b900390565b60011b612943565b811c9160021b9161293c565b60081c91811b91612932565b60101c9160081b91612927565b60201c9160101b9161291b565b60401c9160201b9161290d565b50600160401b9050608082901c6128e4565b91905b838210612a065750505090565b9091928083169080841860011c8201809211610b8a57845f5265ffffffffffff808360205f20015416908416105f14612a435750925b91906129f9565b939250612a4f9061200f565b91612a3c565b91907f7fffffffffffffffffffffffffffffff5d576e7357a4501ddfe92f46681b20a08411612acc579160209360809260ff5f9560405194855216868401526040830152606082015282805260015afa15610a57575f516001600160a01b03811615612ac257905f905f90565b505f906001905f90565b5050505f9160039190565b60041115612ae157565b634e487b7160e01b5f52602160045260245ffd5b612afe81612ad7565b80612b07575050565b612b1081612ad7565b60018103612b2a5760405163f645eedf60e01b8152600490fd5b612b3381612ad7565b60028103612b545760405163fce698f760e01b815260048101839052602490fd5b80612b60600392612ad7565b14612b685750565b6040516335e2f38360e21b81526004810191909152602490fd5b90612ba95750805115612b9757805190602001fd5b60405163d6bda27560e01b8152600490fd5b81511580612bdc575b612bba575090565b604051639996b31560e01b81526001600160a01b039091166004820152602490fd5b50803b15612bb2565b6001600160d01b0390818111612bf9571690565b604490604051906306dfcc6560e41b825260d060048301526024820152fd5b90612c2242611fbb565b6001600160d01b03918280612c36866121e1565b16911601918211610b8a576105bd92612e51565b90815491600160401b8310156107855782612c6d9160016119dd95018155611c2d565b90919082549060031b91821b915f19901b1916179055565b90929192600182019081548015612d17575b5084612ca284612f2e565b50949092845493612cb283611cce565b9681612d02575b5015612cdf575050505f198101908111610b8a57612c6d8591612cdb93611c2d565b9190565b612cdb949293612cfb926001600160d01b039091169190612e51565b5050612c4a565b65ffffffffffff83811691161490505f612cb9565b600160401b81101561078557806001612d339201845583611c2d565b8154905f199060031b1b191690555f612c97565b612d4f611990565b8051908115612d5f576020012090565b50507fa16a46d94261c7517cc8ff89f61c0ce93598e3c849801011dee649a6a557d100548015612d8c5790565b507fc5d2460186f7233c927e7db2dcc703c0e500b653ca82273b7bfad8045d85a47090565b612db9611a65565b8051908115612dc9576020012090565b50507fa16a46d94261c7517cc8ff89f61c0ce93598e3c849801011dee649a6a557d101548015612d8c5790565b8054600160401b81101561078557612e1391600182018155611c2d565b612e3e57815160209092015160301b65ffffffffffff191665ffffffffffff92909216919091179055565b634e487b7160e01b5f525f60045260245ffd5b80549293928015612f0457612e68612e7391612001565b825f5260205f200190565b9182549265ffffffffffff91828516928116808411612ef257879303612eb95750612eb292509065ffffffffffff82549181199060301b169116179055565b60301c9190565b915050612eed91612ed9612ecb611b11565b65ffffffffffff9093168352565b6001600160d01b0386166020830152612df6565b612eb2565b604051632520601d60e01b8152600490fd5b5090612f2991612f15612ecb611b11565b6001600160d01b0385166020830152612df6565b5f9190565b805480612f3f5750505f905f905f90565b5f19918183810111610b8a575f5260205f2001015460019165ffffffffffff82169160301c9056fee8b26c30fad74198956032a3533d903385d56dd795af560196f9c78d4af40d0052c63247e1f47db19d5ce0460030c497f067ca4cebf71ba98eeadabe20bace03a16a46d94261c7517cc8ff89f61c0ce93598e3c849801011dee649a6a557d10252c63247e1f47db19d5ce0460030c497f067ca4cebf71ba98eeadabe20bace04a16a46d94261c7517cc8ff89f61c0ce93598e3c849801011dee649a6a557d103ddf252ad1be2c89b69c2b068fc378daa952ba7f163c4a11628f55a4df523b3efa2646970667358221220281bd815124fccd7fe9bb7640aa69e8426685935b48f1e0576dd68a6736ca6d664736f6c63430008190033","linkReferences":{}},"methodIdentifiers":{"CLOCK_MODE()":"4bf5d7e9","DEPOSITOR_WHITELIST_ROLE()":"1b66c9e1","DEPOSIT_LIMIT_SET_ROLE()":"a21a1df9","DEPOSIT_WHITELIST_SET_ROLE()":"db388715","EPOCH_DURATION_SET_ROLE()":"61819dd8","FLASH_FEE_BASE()":"ecc98f05","FLASH_FEE_RATE_SET_ROLE()":"bc46f722","FLASH_FEE_RECEIVER_SET_ROLE()":"31d9736c","FLASH_LOAN_ENABLED_SET_ROLE()":"a66b3a73","IS_DEPOSIT_LIMIT_SET_ROLE()":"1415519b","RETURN_VALUE()":"653b04cd","_VaultTokenized_init(bytes)":"7bd00ae8","_VaultVotes_init(bytes)":"0eac105e","allowance(address,address)":"dd62ed3e","approve(address,uint256)":"095ea7b3","balanceOf(address)":"70a08231","burner()":"27810b6e","clock()":"91ddadf4","collateral()":"d8dfeb45","decimals()":"313ce567","delegate(address)":"5c19a95c","delegateBySig(address,uint256,uint256,uint8,bytes32,bytes32)":"c3cda520","delegates(address)":"587cde1e","delegator()":"ce9b7930","deposit(address,uint256)":"47e7ef24","depositLimit()":"ecf70858","depositWhitelist()":"48d3b775","eip712Domain()":"84b0196e","flashFeeRate()":"e945da7f","flashFeeReceiver()":"a8b24f9a","flashLoanEnabled()":"65d61c6c","getPastTotalSupply(uint256)":"8e539e8c","getPastVotes(address,uint256)":"3a46b1a8","getVotes(address)":"9ab24eb0","isDelegatorInitialized()":"50861adc","isDepositLimit()":"a1b12202","isDepositorWhitelisted(address)":"794b15b7","isSlasherInitialized()":"6ec1e3f8","isWithdrawalsClaimed(uint256,address)":"a5d03223","name()":"06fdde03","nonces(address)":"7ecebe00","redeem(address,uint256)":"1e9a6950","slasher()":"b1344271","staticDelegateCall(address,bytes)":"9f86fd85","symbol()":"95d89b41","totalSupply()":"18160ddd","transfer(address,uint256)":"a9059cbb","transferFrom(address,address,uint256)":"23b872dd","withdraw(address,uint256)":"f3fef3a3","withdrawalShares(uint256)":"afba70ad","withdrawalSharesOf(uint256,address)":"a3b54172","withdrawals(uint256)":"5cc07076"},"id":112}