{"abi":[{"type":"constructor","inputs":[{"name":"baseImplementation","type":"address","internalType":"address"}],"stateMutability":"nonpayable"},{"type":"fallback","stateMutability":"payable"},{"type":"function","name":"CLOCK_MODE","inputs":[],"outputs":[{"name":"","type":"string","internalType":"string"}],"stateMutability":"view"},{"type":"function","name":"DEPOSITOR_WHITELIST_ROLE","inputs":[],"outputs":[{"name":"","type":"bytes32","internalType":"bytes32"}],"stateMutability":"view"},{"type":"function","name":"DEPOSIT_LIMIT_SET_ROLE","inputs":[],"outputs":[{"name":"","type":"bytes32","internalType":"bytes32"}],"stateMutability":"view"},{"type":"function","name":"DEPOSIT_WHITELIST_SET_ROLE","inputs":[],"outputs":[{"name":"","type":"bytes32","internalType":"bytes32"}],"stateMutability":"view"},{"type":"function","name":"EPOCH_DURATION_SET_ROLE","inputs":[],"outputs":[{"name":"","type":"bytes32","internalType":"bytes32"}],"stateMutability":"view"},{"type":"function","name":"FLASH_FEE_BASE","inputs":[],"outputs":[{"name":"","type":"uint256","internalType":"uint256"}],"stateMutability":"view"},{"type":"function","name":"FLASH_FEE_RATE_SET_ROLE","inputs":[],"outputs":[{"name":"","type":"bytes32","internalType":"bytes32"}],"stateMutability":"view"},{"type":"function","name":"FLASH_FEE_RECEIVER_SET_ROLE","inputs":[],"outputs":[{"name":"","type":"bytes32","internalType":"bytes32"}],"stateMutability":"view"},{"type":"function","name":"IS_DEPOSIT_LIMIT_SET_ROLE","inputs":[],"outputs":[{"name":"","type":"bytes32","internalType":"bytes32"}],"stateMutability":"view"},{"type":"function","name":"RETURN_VALUE","inputs":[],"outputs":[{"name":"","type":"bytes32","internalType":"bytes32"}],"stateMutability":"view"},{"type":"function","name":"_VaultTokenized_init","inputs":[{"name":"name","type":"string","internalType":"string"},{"name":"symbol","type":"string","internalType":"string"}],"outputs":[],"stateMutability":"nonpayable"},{"type":"function","name":"_VaultVotes_init","inputs":[],"outputs":[],"stateMutability":"nonpayable"},{"type":"function","name":"_epochDuration","inputs":[],"outputs":[{"name":"","type":"uint48","internalType":"uint48"}],"stateMutability":"view"},{"type":"function","name":"_epochDurationInit","inputs":[],"outputs":[{"name":"","type":"uint48","internalType":"uint48"}],"stateMutability":"view"},{"type":"function","name":"_epochDurationInitIndex","inputs":[],"outputs":[{"name":"","type":"uint256","internalType":"uint256"}],"stateMutability":"view"},{"type":"function","name":"_epochDurationSetEpochsDelay","inputs":[],"outputs":[{"name":"","type":"uint256","internalType":"uint256"}],"stateMutability":"view"},{"type":"function","name":"_nextEpochDuration","inputs":[],"outputs":[{"name":"","type":"uint48","internalType":"uint48"}],"stateMutability":"view"},{"type":"function","name":"_nextEpochDurationInit","inputs":[],"outputs":[{"name":"","type":"uint48","internalType":"uint48"}],"stateMutability":"view"},{"type":"function","name":"_nextEpochDurationSetEpochsDelay","inputs":[],"outputs":[{"name":"","type":"uint256","internalType":"uint256"}],"stateMutability":"view"},{"type":"function","name":"_nextEpochInitIndex","inputs":[],"outputs":[{"name":"","type":"uint256","internalType":"uint256"}],"stateMutability":"view"},{"type":"function","name":"_prevEpochDuration","inputs":[],"outputs":[{"name":"","type":"uint48","internalType":"uint48"}],"stateMutability":"view"},{"type":"function","name":"_prevEpochDurationInit","inputs":[],"outputs":[{"name":"","type":"uint48","internalType":"uint48"}],"stateMutability":"view"},{"type":"function","name":"_prevEpochDurationInitIndex","inputs":[],"outputs":[{"name":"","type":"uint256","internalType":"uint256"}],"stateMutability":"view"},{"type":"function","name":"allowance","inputs":[{"name":"owner","type":"address","internalType":"address"},{"name":"spender","type":"address","internalType":"address"}],"outputs":[{"name":"","type":"uint256","internalType":"uint256"}],"stateMutability":"view"},{"type":"function","name":"approve","inputs":[{"name":"spender","type":"address","internalType":"address"},{"name":"value","type":"uint256","internalType":"uint256"}],"outputs":[{"name":"","type":"bool","internalType":"bool"}],"stateMutability":"nonpayable"},{"type":"function","name":"balanceOf","inputs":[{"name":"account","type":"address","internalType":"address"}],"outputs":[{"name":"","type":"uint256","internalType":"uint256"}],"stateMutability":"view"},{"type":"function","name":"burner","inputs":[],"outputs":[{"name":"","type":"address","internalType":"address"}],"stateMutability":"view"},{"type":"function","name":"clock","inputs":[],"outputs":[{"name":"","type":"uint48","internalType":"uint48"}],"stateMutability":"view"},{"type":"function","name":"collateral","inputs":[],"outputs":[{"name":"","type":"address","internalType":"address"}],"stateMutability":"view"},{"type":"function","name":"decimals","inputs":[],"outputs":[{"name":"","type":"uint8","internalType":"uint8"}],"stateMutability":"view"},{"type":"function","name":"delegate","inputs":[{"name":"delegatee","type":"address","internalType":"address"}],"outputs":[],"stateMutability":"nonpayable"},{"type":"function","name":"delegateBySig","inputs":[{"name":"delegatee","type":"address","internalType":"address"},{"name":"nonce","type":"uint256","internalType":"uint256"},{"name":"expiry","type":"uint256","internalType":"uint256"},{"name":"v","type":"uint8","internalType":"uint8"},{"name":"r","type":"bytes32","internalType":"bytes32"},{"name":"s","type":"bytes32","internalType":"bytes32"}],"outputs":[],"stateMutability":"nonpayable"},{"type":"function","name":"delegates","inputs":[{"name":"account","type":"address","internalType":"address"}],"outputs":[{"name":"","type":"address","internalType":"address"}],"stateMutability":"view"},{"type":"function","name":"delegator","inputs":[],"outputs":[{"name":"","type":"address","internalType":"address"}],"stateMutability":"view"},{"type":"function","name":"deposit","inputs":[{"name":"onBehalfOf","type":"address","internalType":"address"},{"name":"amount","type":"uint256","internalType":"uint256"}],"outputs":[{"name":"depositedAmount","type":"uint256","internalType":"uint256"},{"name":"mintedShares","type":"uint256","internalType":"uint256"}],"stateMutability":"nonpayable"},{"type":"function","name":"depositLimit","inputs":[],"outputs":[{"name":"","type":"uint256","internalType":"uint256"}],"stateMutability":"view"},{"type":"function","name":"depositWhitelist","inputs":[],"outputs":[{"name":"","type":"bool","internalType":"bool"}],"stateMutability":"view"},{"type":"function","name":"eip712Domain","inputs":[],"outputs":[{"name":"fields","type":"bytes1","internalType":"bytes1"},{"name":"name","type":"string","internalType":"string"},{"name":"version","type":"string","internalType":"string"},{"name":"chainId","type":"uint256","internalType":"uint256"},{"name":"verifyingContract","type":"address","internalType":"address"},{"name":"salt","type":"bytes32","internalType":"bytes32"},{"name":"extensions","type":"uint256[]","internalType":"uint256[]"}],"stateMutability":"view"},{"type":"function","name":"flashFeeRate","inputs":[],"outputs":[{"name":"","type":"uint256","internalType":"uint256"}],"stateMutability":"view"},{"type":"function","name":"flashFeeReceiver","inputs":[],"outputs":[{"name":"","type":"address","internalType":"address"}],"stateMutability":"view"},{"type":"function","name":"getPastTotalSupply","inputs":[{"name":"timepoint","type":"uint256","internalType":"uint256"}],"outputs":[{"name":"","type":"uint256","internalType":"uint256"}],"stateMutability":"view"},{"type":"function","name":"getPastVotes","inputs":[{"name":"account","type":"address","internalType":"address"},{"name":"timepoint","type":"uint256","internalType":"uint256"}],"outputs":[{"name":"","type":"uint256","internalType":"uint256"}],"stateMutability":"view"},{"type":"function","name":"getVotes","inputs":[{"name":"account","type":"address","internalType":"address"}],"outputs":[{"name":"","type":"uint256","internalType":"uint256"}],"stateMutability":"view"},{"type":"function","name":"isDelegatorInitialized","inputs":[],"outputs":[{"name":"","type":"bool","internalType":"bool"}],"stateMutability":"view"},{"type":"function","name":"isDepositLimit","inputs":[],"outputs":[{"name":"","type":"bool","internalType":"bool"}],"stateMutability":"view"},{"type":"function","name":"isDepositorWhitelisted","inputs":[{"name":"account","type":"address","internalType":"address"}],"outputs":[{"name":"value","type":"bool","internalType":"bool"}],"stateMutability":"view"},{"type":"function","name":"isSlasherInitialized","inputs":[],"outputs":[{"name":"","type":"bool","internalType":"bool"}],"stateMutability":"view"},{"type":"function","name":"isWithdrawalsClaimed","inputs":[{"name":"epoch","type":"uint256","internalType":"uint256"},{"name":"account","type":"address","internalType":"address"}],"outputs":[{"name":"value","type":"bool","internalType":"bool"}],"stateMutability":"view"},{"type":"function","name":"name","inputs":[],"outputs":[{"name":"","type":"string","internalType":"string"}],"stateMutability":"view"},{"type":"function","name":"nonces","inputs":[{"name":"owner","type":"address","internalType":"address"}],"outputs":[{"name":"","type":"uint256","internalType":"uint256"}],"stateMutability":"view"},{"type":"function","name":"redeem","inputs":[{"name":"claimer","type":"address","internalType":"address"},{"name":"shares","type":"uint256","internalType":"uint256"}],"outputs":[{"name":"withdrawnAssets","type":"uint256","internalType":"uint256"},{"name":"mintedShares","type":"uint256","internalType":"uint256"}],"stateMutability":"nonpayable"},{"type":"function","name":"slasher","inputs":[],"outputs":[{"name":"","type":"address","internalType":"address"}],"stateMutability":"view"},{"type":"function","name":"staticDelegateCall","inputs":[{"name":"target","type":"address","internalType":"address"},{"name":"data","type":"bytes","internalType":"bytes"}],"outputs":[],"stateMutability":"nonpayable"},{"type":"function","name":"symbol","inputs":[],"outputs":[{"name":"","type":"string","internalType":"string"}],"stateMutability":"view"},{"type":"function","name":"totalSupply","inputs":[],"outputs":[{"name":"","type":"uint256","internalType":"uint256"}],"stateMutability":"view"},{"type":"function","name":"transfer","inputs":[{"name":"to","type":"address","internalType":"address"},{"name":"value","type":"uint256","internalType":"uint256"}],"outputs":[{"name":"","type":"bool","internalType":"bool"}],"stateMutability":"nonpayable"},{"type":"function","name":"transferFrom","inputs":[{"name":"from","type":"address","internalType":"address"},{"name":"to","type":"address","internalType":"address"},{"name":"value","type":"uint256","internalType":"uint256"}],"outputs":[{"name":"","type":"bool","internalType":"bool"}],"stateMutability":"nonpayable"},{"type":"function","name":"withdraw","inputs":[{"name":"claimer","type":"address","internalType":"address"},{"name":"amount","type":"uint256","internalType":"uint256"}],"outputs":[{"name":"burnedShares","type":"uint256","internalType":"uint256"},{"name":"mintedShares","type":"uint256","internalType":"uint256"}],"stateMutability":"nonpayable"},{"type":"function","name":"withdrawalShares","inputs":[{"name":"epoch","type":"uint256","internalType":"uint256"}],"outputs":[{"name":"amount","type":"uint256","internalType":"uint256"}],"stateMutability":"view"},{"type":"function","name":"withdrawalSharesOf","inputs":[{"name":"epoch","type":"uint256","internalType":"uint256"},{"name":"account","type":"address","internalType":"address"}],"outputs":[{"name":"amount","type":"uint256","internalType":"uint256"}],"stateMutability":"view"},{"type":"function","name":"withdrawals","inputs":[{"name":"epoch","type":"uint256","internalType":"uint256"}],"outputs":[{"name":"amount","type":"uint256","internalType":"uint256"}],"stateMutability":"view"},{"type":"event","name":"Approval","inputs":[{"name":"owner","type":"address","indexed":true,"internalType":"address"},{"name":"spender","type":"address","indexed":true,"internalType":"address"},{"name":"value","type":"uint256","indexed":false,"internalType":"uint256"}],"anonymous":false},{"type":"event","name":"DelegateChanged","inputs":[{"name":"delegator","type":"address","indexed":true,"internalType":"address"},{"name":"fromDelegate","type":"address","indexed":true,"internalType":"address"},{"name":"toDelegate","type":"address","indexed":true,"internalType":"address"}],"anonymous":false},{"type":"event","name":"DelegateVotesChanged","inputs":[{"name":"delegate","type":"address","indexed":true,"internalType":"address"},{"name":"previousVotes","type":"uint256","indexed":false,"internalType":"uint256"},{"name":"newVotes","type":"uint256","indexed":false,"internalType":"uint256"}],"anonymous":false},{"type":"event","name":"EIP712DomainChanged","inputs":[],"anonymous":false},{"type":"event","name":"Initialized","inputs":[{"name":"version","type":"uint64","indexed":false,"internalType":"uint64"}],"anonymous":false},{"type":"event","name":"Transfer","inputs":[{"name":"from","type":"address","indexed":true,"internalType":"address"},{"name":"to","type":"address","indexed":true,"internalType":"address"},{"name":"value","type":"uint256","indexed":false,"internalType":"uint256"}],"anonymous":false},{"type":"error","name":"AddressEmptyCode","inputs":[{"name":"target","type":"address","internalType":"address"}]},{"type":"error","name":"CheckpointUnorderedInsertion","inputs":[]},{"type":"error","name":"ECDSAInvalidSignature","inputs":[]},{"type":"error","name":"ECDSAInvalidSignatureLength","inputs":[{"name":"length","type":"uint256","internalType":"uint256"}]},{"type":"error","name":"ECDSAInvalidSignatureS","inputs":[{"name":"s","type":"bytes32","internalType":"bytes32"}]},{"type":"error","name":"ERC20InsufficientAllowance","inputs":[{"name":"spender","type":"address","internalType":"address"},{"name":"allowance","type":"uint256","internalType":"uint256"},{"name":"needed","type":"uint256","internalType":"uint256"}]},{"type":"error","name":"ERC20InsufficientBalance","inputs":[{"name":"sender","type":"address","internalType":"address"},{"name":"balance","type":"uint256","internalType":"uint256"},{"name":"needed","type":"uint256","internalType":"uint256"}]},{"type":"error","name":"ERC20InvalidApprover","inputs":[{"name":"approver","type":"address","internalType":"address"}]},{"type":"error","name":"ERC20InvalidReceiver","inputs":[{"name":"receiver","type":"address","internalType":"address"}]},{"type":"error","name":"ERC20InvalidSender","inputs":[{"name":"sender","type":"address","internalType":"address"}]},{"type":"error","name":"ERC20InvalidSpender","inputs":[{"name":"spender","type":"address","internalType":"address"}]},{"type":"error","name":"ERC5805FutureLookup","inputs":[{"name":"timepoint","type":"uint256","internalType":"uint256"},{"name":"clock","type":"uint48","internalType":"uint48"}]},{"type":"error","name":"ERC6372InconsistentClock","inputs":[]},{"type":"error","name":"FailedCall","inputs":[]},{"type":"error","name":"InvalidAccountNonce","inputs":[{"name":"account","type":"address","internalType":"address"},{"name":"currentNonce","type":"uint256","internalType":"uint256"}]},{"type":"error","name":"InvalidData","inputs":[]},{"type":"error","name":"InvalidInitialization","inputs":[]},{"type":"error","name":"InvalidOrigin","inputs":[]},{"type":"error","name":"NotInitializing","inputs":[]},{"type":"error","name":"ReentrancyGuardReentrantCall","inputs":[]},{"type":"error","name":"SafeCastOverflowedUintDowncast","inputs":[{"name":"bits","type":"uint8","internalType":"uint8"},{"name":"value","type":"uint256","internalType":"uint256"}]},{"type":"error","name":"SafeSupplyExceeded","inputs":[]},{"type":"error","name":"VotesExpiredSignature","inputs":[{"name":"expiry","type":"uint256","internalType":"uint256"}]}],"bytecode":{"object":"0x60a034606d57601f61320438819003918201601f19168301916001600160401b03831184841017607157808492602094604052833981010312606d57516001600160a01b0381168103606d5760805260405161317e908161008682396080518181816106f4015261244b0152f35b5f80fd5b634e487b7160e01b5f52604160045260245ffdfe608060405260043610612441575f3560e01c806306fdde03146103db578063095ea7b3146103d65780631415519b146103d157806318160ddd146103cc5780631b66c9e1146103c75780631e9a6950146103c257806323b872dd146103bd5780632749f9c4146103b857806327810b6e146103b35780632fa27fae146103ae578063313ce567146103a957806331d9736c146103a45780633a46b1a81461039f57806347e7ef241461039a57806348d3b775146103955780634bf5d7e9146103905780634f4e823d1461038b57806350861adc14610386578063587cde1e146103815780635a36aa741461037c5780635c19a95c146103775780635cc0707614610372578063602bd8e71461036d57806361819dd814610368578063653b04cd146103635780636e0f24551461035e5780636ec1e3f81461035957806370a0823114610354578063794b15b71461034f5780637ecebe001461034a57806384b0196e146103455780638e539e8c1461034057806391ddadf41461033b57806395d89b411461033657806398ccba4a146103315780639ab24eb01461032c5780639b4bae3e146103275780639f86fd85146103225780639f9962dd1461031d578063a1b1220214610318578063a21a1df914610313578063a3b541721461030e578063a5d0322314610309578063a8b24f9a14610304578063a9059cbb146102ff578063afba70ad146102fa578063b1344271146102f5578063bba6ff4a146102f0578063bc46f722146102eb578063c1bc6f51146102e6578063c3cda520146102e1578063c4db46fc146102dc578063cc52aee7146102d7578063ce9b7930146102d2578063d8dfeb45146102cd578063db388715146102c8578063dd62ed3e146102c3578063e945da7f146102be578063ecc98f05146102b9578063ecf70858146102b45763f3fef3a303612441576119fd565b6119e0565b6119c2565b6119a5565b611976565b61193c565b611911565b6118e9565b6118c1565b6118a4565b6117d7565b6117a4565b61176a565b61174d565b611725565b6116fb565b6116ca565b6116a2565b611654565b61160b565b6115d1565b6115ad565b611585565b611502565b6114e5565b6114a9565b61148c565b6113da565b6113af565b61130d565b61123d565b611160565b611123565b61107c565b611057565b611032565b610ff8565b610fbe565b610e51565b610df9565b610dd7565b610daf565b610d6a565b610d45565b610b7b565b610b2d565b610b0c565b610a61565b61093f565b610905565b61086e565b61084e565b610826565b610809565b61075b565b61068c565b610652565b610630565b6105f6565b610538565b610418565b805180835260209291819084018484015e5f828201840152601f01601f1916010190565b9060206104159281815201906103e0565b90565b34610508575f366003190112610508576040515f5f805160206130a983398151915280549061044682611a7b565b808552916020916001918281169081156104db5750600114610483575b61047f8661047381880382611aff565b60405191829182610404565b0390f35b5f90815293507f2ae08a8e29253f69ac5d979a101956ab8f8d9d7ded63fa7a83b16fc47648eab05b8385106104c8575050505081016020016104738261047f5f610463565b80548686018401529382019381016104ab565b905086955061047f9693506020925061047394915060ff191682840152151560051b82010192935f610463565b5f80fd5b600435906001600160a01b038216820361050857565b602435906001600160a01b038216820361050857565b346105085760403660031901126105085761055161050c565b60243533156105de576001600160a01b0382169182156105c65761058e8291610579336110b3565b9060018060a01b03165f5260205260405f2090565b556040519081527f8c5be1e5ebec7d5bd14f71427d1e84f3dd0314c0f7b2291e5b200ac8c7c3b92560203392a3602060405160018152f35b604051634a1406b160e11b81525f6004820152602490fd5b60405163e602df0560e01b81525f6004820152602490fd5b34610508575f3660031901126105085760206040517fc6aaadd7371d5e8f9ed6849dd66a66573a3ba37167d03f4352c9ba5693678fac8152f35b34610508575f36600319011261050857602061064a611dc5565b604051908152f35b34610508575f3660031901126105085760206040517f9c56d972d63cbb4195b3c1484691dfc220fa96a4c47e7b6613bd82a022029e068152f35b346105085760403660031901126105085761074a6106f26107276107186106b161050c565b6040516301e9a69560e41b60208201526001600160a01b0390911660248281019190915235604482018190529381606481015b03601f198101835282611aff565b7f000000000000000000000000000000000000000000000000000000000000000061247d565b60208082518301019101611e85565b9290915f6040518281525f8051602061312983398151915260203392a333611e9b565b604080519182526020820192909252f35b346105085760603660031901126105085761077461050c565b61077c610522565b6044359061078d33610579856110b3565b5492600184016107ae575b6107a29350611f87565b60405160018152602090f35b8284106107e3576001600160a01b038116156105de5733156105c657826107a294036107dd33610579846110b3565b55610798565b604051637dc7a0d960e11b81523360048201526024810185905260448101849052606490fd5b34610508575f366003190112610508576020601454604051908152f35b34610508575f366003190112610508576001546040516001600160a01b039091168152602090f35b34610508575f36600319011261050857602060015460d01c604051908152f35b34610508575f366003190112610508575f5460405163313ce56760e01b8152906020908290600490829060101c6001600160a01b03165afa8015610900575f906108c3575b60405160ff919091168152602090f35b506020813d6020116108f8575b816108dd60209383611aff565b810103126105085761047f90516108f3816117cc565b6108b3565b3d91506108d0565b611ca2565b34610508575f3660031901126105085760206040517f5295aaaa27fdd659293eafacbfafbc634c1b96298957e87de5f59308cdbfdad18152f35b346105085760403660031901126105085761095861050c565b60243590610965426120d5565b9065ffffffffffff91828116841015610a38575061098561098b916110eb565b926120d5565b8254905f9082600581116109ea575b506109a6935084612717565b90816109cd57505061047f5f5b6040516001600160d01b0390911681529081906020820190565b6109d961047f9261211b565b905f5260205f20015460301c6109b3565b90926109f5826125ec565b8203918211610a33576109a694865f52808360205f20015416908516105f14610a215750915b5f61099a565b929150610a2d90612129565b90610a1b565b612107565b604051637669fc0f60e11b81526004810185905265ffffffffffff919091166024820152604490fd5b3461050857604036600319011261050857610a7a61050c565b6040516311f9fbc960e21b60208201526001600160a01b038216602480830191909152356044820152610ab890610718906106f281606481016106e4565b916040518381525f5f80516020613129833981519152602060018060a01b03851693a36001600160d01b03610aeb611dc5565b11610afa578261074a91611ef4565b604051630a84eab560e11b8152600490fd5b34610508575f36600319011261050857602060ff5f54166040519015158152f35b34610508575f3660031901126105085761047f604051610b4c81611ac7565b600e81526d06d6f64653d74696d657374616d760941b60208201526040519182916020835260208301906103e0565b34610508575f36600319011261050857604051610b9781611ac7565b600a8152602090695661756c74566f74657360b01b602082015260405190610bbe82611ac7565b60019260018352603160f81b6020840152610bd7612776565b610bdf612776565b81519067ffffffffffffffff8211610d40575f805160206130c983398151915292610c1383610c0e8654611a7b565b6127b7565b602091601f8411600114610cac5750610c4f9550610c4892915f9183610ca1575b50508160011b915f199060031b1c19161790565b905561299b565b610c775f7fa16a46d94261c7517cc8ff89f61c0ce93598e3c849801011dee649a6a557d10055565b610c9f5f7fa16a46d94261c7517cc8ff89f61c0ce93598e3c849801011dee649a6a557d10155565b005b015190505f80610c34565b5f805160206130c98339815191525f529195601f198416907f42ad5d3e1f2e6e70edcf6d991b8a3023d3fca8047a131592f9edb9fd9b89d57d935f915b838310610d295750505095839291600194610c4f9810610d11575b505050811b01905561299b565b01515f1960f88460031b161c191690555f8080610d04565b848a01518655988101989485019491810191610ce9565b611ab3565b34610508575f36600319011261050857602060ff60025460a01c166040519015158152f35b346105085760203660031901126105085760206001600160a01b0380610d8e61050c565b165f525f80516020613089833981519152825260405f205416604051908152f35b34610508575f36600319011261050857602065ffffffffffff60135460301c16604051908152f35b3461050857602036600319011261050857610c9f610df361050c565b33612269565b34610508576020366003190112610508576004355f526006602052602060405f2054604051908152f35b9181601f840112156105085782359167ffffffffffffffff8311610508576020838186019501011161050857565b346105085760403660031901126105085767ffffffffffffffff60043581811161050857610e83903690600401610e23565b6024359083821161050857610eac610ea2610eb4933690600401610e23565b9490923691611cd6565b923691611cd6565b90610ebd612776565b610ec5612776565b8051928311610d40575f805160206130a983398151915290610ef084610eeb8454611a7b565b612830565b602090816001601f871114610f2b57509380610f2492610c9f965f92610ca15750508160011b915f199060031b1c19161790565b9055612a95565b5f805160206130a98339815191525f529190601f1986167f2ae08a8e29253f69ac5d979a101956ab8f8d9d7ded63fa7a83b16fc47648eab0935f905b828210610fa6575050916001939187610c9f989410610f8e575b505050811b019055612a95565b01515f1960f88460031b161c191690555f8080610f81565b80600186978294978701518155019601940190610f67565b34610508575f3660031901126105085760206040517f591f6a0113ada8aff67efadec8ae2fa585cb4ebf4e1f8fc1205ffbeff98d00ec8152f35b34610508575f3660031901126105085760206040517f439148f0bbc682ca079e46d6e2c2f0c1e3b820f1a291b069d8882abf8cf18dd98152f35b34610508575f36600319011261050857602065ffffffffffff60135416604051908152f35b34610508575f36600319011261050857602060ff60035460a01c166040519015158152f35b34610508576020366003190112610508576001600160a01b0361109d61050c565b165f52600e602052602061064a60405f20611e51565b6001600160a01b03165f9081527f52c63247e1f47db19d5ce0460030c497f067ca4cebf71ba98eeadabe20bace016020526040902090565b6001600160a01b03165f9081527fe8b26c30fad74198956032a3533d903385d56dd795af560196f9c78d4af40d016020526040902090565b34610508576020366003190112610508576001600160a01b0361114461050c565b165f526005602052602060ff60405f2054166040519015158152f35b34610508576020366003190112610508576001600160a01b0361118161050c565b165f527f5ab42ced628888259c08ac98db1eb0cf702fc1501344311d8b100cd1bfe4bb00602052602060405f2054604051908152f35b916111eb90949194600f60f81b84526111dd60209660e0602087015260e08601906103e0565b9084820360408601526103e0565b92606083015260018060a01b031660808201525f60a082015260c0818303910152602080845192838152019301915f5b828110611229575050505090565b83518552938101939281019260010161121b565b34610508575f366003190112610508577fa16a46d94261c7517cc8ff89f61c0ce93598e3c849801011dee649a6a557d1005415806112e4575b156112a757611283611b21565b61128b611bf6565b9061047f611297611d0c565b60405193849330914691866111b7565b60405162461bcd60e51b81526020600482015260156024820152741152540dcc4c8e88155b9a5b9a5d1a585b1a5e9959605a1b6044820152606490fd5b507fa16a46d94261c7517cc8ff89f61c0ce93598e3c849801011dee649a6a557d1015415611276565b346105085760203660031901126105085760043561132a426120d5565b65ffffffffffff81168210156113885761134b611346836120d5565b612137565b6001600160d01b0381161561137e5761136661047f91611d76565b90549060031b1c5b6040519081529081906020820190565b5061047f5f61136e565b604051637669fc0f60e11b8152600481019290925265ffffffffffff166024820152604490fd5b34610508575f3660031901126105085760206113ca426120d5565b65ffffffffffff60405191168152f35b34610508575f366003190112610508576040515f5f805160206130e983398151915280549061140882611a7b565b808552916020916001918281169081156104db57506001146114345761047f8661047381880382611aff565b5f90815293507f46a2803e59a4de4e7a4c574b1243f25977ac4c77d5a1a4a609b5394cebb4a2aa5b838510611479575050505081016020016104738261047f5f610463565b805486860184015293820193810161145c565b34610508575f366003190112610508576020601254604051908152f35b346105085760203660031901126105085760206001600160d01b036114dc6114d76114d261050c565b6110eb565b6122fb565b16604051908152f35b34610508575f366003190112610508576020601154604051908152f35b346105085760403660031901126105085761151b61050c565b60243567ffffffffffffffff8111610508575f9161153e83923690600401610e23565b90816040519283928337810184815203915af461157d61155c611d33565b916106e46040519384921515602084015260408084015260608301906103e0565b805190602001fd5b34610508575f36600319011261050857602065ffffffffffff60015460a01c16604051908152f35b34610508575f36600319011261050857602060ff5f5460081c166040519015158152f35b34610508575f3660031901126105085760206040517f4a634bc14d77baf979756509ef4298c6f6318af357828612545267ee2eb792338152f35b3461050857604036600319011261050857602061164b611629610522565b6004355f526008835260405f209060018060a01b03165f5260205260405f2090565b54604051908152f35b3461050857604036600319011261050857602060ff611696611674610522565b6004355f526009845260405f209060018060a01b03165f5260205260405f2090565b54166040519015158152f35b34610508575f366003190112610508576016546040516001600160a01b039091168152602090f35b34610508576040366003190112610508576116f06116e661050c565b6024359033611f87565b602060405160018152f35b34610508576020366003190112610508576004355f526007602052602060405f2054604051908152f35b34610508575f366003190112610508576003546040516001600160a01b039091168152602090f35b34610508575f366003190112610508576020600f54604051908152f35b34610508575f3660031901126105085760206040517fc9078c78bcaac2be1c77c160c539a489be2b72939771b1a6302fed3e2150c7458152f35b34610508575f36600319011261050857602065ffffffffffff60135460901c16604051908152f35b60ff81160361050857565b346105085760c0366003190112610508576117f061050c565b60443590602435606435611803816117cc565b83421161188b5761187f610c9f94611886926040519060208201927fe48329057bfd03d55e49b547132e39cffd9c1820ad7b9d4c5307691425d15adf845260018060a01b038816604084015286606084015260808301526080825261186782611ae3565b61187a60a4359360843593519020612323565b6123b3565b91826123cb565b612269565b604051632341d78760e11b815260048101859052602490fd5b34610508575f366003190112610508576020601054604051908152f35b34610508575f36600319011261050857602065ffffffffffff60135460601c16604051908152f35b34610508575f366003190112610508576002546040516001600160a01b039091168152602090f35b34610508575f366003190112610508575f5460405160109190911c6001600160a01b03168152602090f35b34610508575f3660031901126105085760206040517fbae4ee3de6c709ff9a002e774c5b78cb381560b219213c88ae0f1e207c03c0238152f35b3461050857604036600319011261050857602061164b61199461050c565b61057961199f610522565b916110b3565b34610508575f366003190112610508576020601554604051908152f35b34610508575f366003190112610508576020604051633b9aca008152f35b34610508575f366003190112610508576020600454604051908152f35b3461050857604036600319011261050857611a566107186106e46106f2611a2261050c565b60405163f3fef3a360e01b60208201526001600160a01b039091166024808301919091523560448201529182906064820190565b905f6040518281525f8051602061312983398151915260203392a361074a8133611e9b565b90600182811c92168015611aa9575b6020831014611a9557565b634e487b7160e01b5f52602260045260245ffd5b91607f1691611a8a565b634e487b7160e01b5f52604160045260245ffd5b6040810190811067ffffffffffffffff821117610d4057604052565b60a0810190811067ffffffffffffffff821117610d4057604052565b90601f8019910116810190811067ffffffffffffffff821117610d4057604052565b604051905f825f805160206130c983398151915291825492611b4284611a7b565b80845293602091600191828116908115611bd05750600114611b70575b505050611b6e92500383611aff565b565b5f9081527f42ad5d3e1f2e6e70edcf6d991b8a3023d3fca8047a131592f9edb9fd9b89d57d9590935091905b828410611bb85750611b6e9450505081016020015f8080611b5f565b85548885018301529485019487945092810192611b9c565b9250505060209250611b6e94915060ff191682840152151560051b8201015f8080611b5f565b604051905f825f8051602061310983398151915291825492611c1784611a7b565b80845293602091600191828116908115611bd05750600114611c4257505050611b6e92500383611aff565b5f9081527f5f9ce34815f8e11431c7bb75a8e6886a91478f7ffc1dbb0a98dc240fddd76b759590935091905b828410611c8a5750611b6e9450505081016020015f8080611b5f565b85548885018301529485019487945092810192611c6e565b6040513d5f823e3d90fd5b60405190611b6e82611ac7565b67ffffffffffffffff8111610d4057601f01601f191660200190565b929192611ce282611cba565b91611cf06040519384611aff565b829481845281830111610508578281602093845f960137010152565b6040516020810181811067ffffffffffffffff821117610d40576040525f8152905f368137565b3d15611d5d573d90611d4482611cba565b91611d526040519384611aff565b82523d5f602084013e565b606090565b634e487b7160e01b5f52603260045260245ffd5b600b54811015611dab57600b5f527f0175b7a638427703f0dbe7bb9bbf987a2551717b34e79f33b5b1008d1fa01db901905f90565b611d62565b8054821015611dab575f5260205f2001905f90565b600a5480611e1857505f5b6001600160d01b03811615611e1357600b54811015611dab57600b5f527f0175b7a638427703f0dbe7bb9bbf987a2551717b34e79f33b5b1008d1fa01db9015490565b505f90565b805f19810111610a3357600a5f527fc65a7bb8d6351c1cf70c95a316cc6a92839c986682d98bc35f958f4883f9d2a7015460301c611dd0565b611e5a816122fb565b6001600160d01b03811615611e7f576001611e759201611db0565b90549060031b1c90565b50505f90565b9190826040910312610508576020825192015190565b6001600160a01b039081165f9081525f8051602061308983398151915260205260408120549080527fd4fb29e10204005f1a39963c6862b79a755e22f0177c53f05cdc3786c702f97454611b6e9392908116911661249a565b5f805160206130898339815191526020527fd4fb29e10204005f1a39963c6862b79a755e22f0177c53f05cdc3786c702f974546001600160a01b039182165f9081526040902054611b6e9392908116911661249a565b6001600160a01b039081165f9081525f805160206130898339815191526020526040808220549383168252902054611b6e9392908216911661249a565b6001600160a01b03808216949392919085156120bd57821680156120a5576001600160a01b0382165f908152600e60205260409020611fca90611e51565b611e51565b9584871061207657612007611b6e9697611ff48560018060a01b03165f52600e60205260405f2090565b9087611fff426120d5565b910391612da6565b50506001600160a01b0384165f908152600e602052604090206120569061202d426120d5565b6001600160a01b0387165f908152600e60205260409020889061204f90611e51565b0191612da6565b50506040518581525f8051602061312983398151915290602090a3611f4a565b60405163391434e360e21b81526001600160a01b03841660048201526024810188905260448101869052606490fd5b60405163ec442f0560e01b81525f6004820152602490fd5b604051634b637e8f60e11b81525f6004820152602490fd5b65ffffffffffff908181116120e8571690565b604490604051906306dfcc6560e41b8252603060048301526024820152fd5b634e487b7160e01b5f52601160045260245ffd5b5f19810191908211610a3357565b9060018201809211610a3357565b600a8054915f928060058111612202575b5092905b838210612196575050508061216057505f90565b6121699061211b565b600a5f527fc65a7bb8d6351c1cf70c95a316cc6a92839c986682d98bc35f958f4883f9d2a8015460301c90565b9091928083169080841860011c8201809211610a3357845f5265ffffffffffff80837fc65a7bb8d6351c1cf70c95a316cc6a92839c986682d98bc35f958f4883f9d2a8015416908416105f146121f05750925b919061214c565b9392506121fc90612129565b916121e9565b9061220c826125ec565b8203918211610a3357600a5f5265ffffffffffff80837fc65a7bb8d6351c1cf70c95a316cc6a92839c986682d98bc35f958f4883f9d2a8015416908416105f1461225857505b5f612148565b935061226390612129565b92612252565b611b6e916122f5611fc560018060a01b0393848116805f525f8051602061308983398151915260205260405f2095865491818316978892881680946bffffffffffffffffffffffff60a01b161790557f3134e8a2e6d97e929a7e54011ea5485d7d196dd5f0ba4d4ef95803e8e3fc257f5f80a46001600160a01b03165f908152600e6020526040902090565b9161249a565b8054806123085750505f90565b5f19918183810111610a33575f5260205f2001015460301c90565b61232b612e68565b612333612ed2565b916040519260208401927f8b73c3c69bb8fe3d512ecc4cf759cc79239f7b179b0ffacaa9a75d522b39400f8452604085015260608401524660808401523060a084015260a0835260c083019183831067ffffffffffffffff841117610d405760429360e291846040528151902061190160f01b855260c282015201522090565b9161041593916123c293612b72565b90929192612c12565b6001600160a01b0381165f9081527f5ab42ced628888259c08ac98db1eb0cf702fc1501344311d8b100cd1bfe4bb006020526040902080546001810190915591829003612416575050565b6040516301d4b62360e61b81526001600160a01b039190911660048201526024810191909152604490fd5b365f80375f8036817f00000000000000000000000000000000000000000000000000000000000000005af43d5f803e15612479573d5ff35b3d5ffd5b5f8061041593602081519101845af4612494611d33565b91612c9f565b6001600160a01b038083169392919081169081851415806125c5575b6124c2575b5050505050565b81612537575b5050826124d7575b80806124bb565b7fdec2bacdd2f05b59de34da9b523dff8be42e5e38e818c82fdb0bae774387a7249161250e612508612514936110eb565b91612d02565b90612d35565b604080516001600160d01b039384168152919092166020820152a25f80806124d0565b612540906110eb565b61254984612d02565b612552426120d5565b6001600160d01b03918280612566866122fb565b169116900392828411610a33577fdec2bacdd2f05b59de34da9b523dff8be42e5e38e818c82fdb0bae774387a724936125bb926125a292612f72565b6040805192851683529316602082015291829190820190565b0390a25f806124c8565b508315156124b6565b81156125d8570490565b634e487b7160e01b5f52601260045260245ffd5b600181111561041557600181600160801b811015612705575b6126ad6126a361269961268f61268561267b6126b997600488600160401b6126b49a10156126f8575b6401000000008110156126eb575b620100008110156126de575b6101008110156126d2575b60108110156126c6575b10156126be575b60030260011c612674818b6125ce565b0160011c90565b612674818a6125ce565b61267481896125ce565b61267481886125ce565b61267481876125ce565b61267481866125ce565b80936125ce565b821190565b900390565b60011b612664565b811c9160021b9161265d565b60081c91811b91612653565b60101c9160081b91612648565b60201c9160101b9161263c565b60401c9160201b9161262e565b50600160401b9050608082901c612605565b91905b8382106127275750505090565b9091928083169080841860011c8201809211610a3357845f5265ffffffffffff808360205f20015416908416105f146127645750925b919061271a565b93925061277090612129565b9161275d565b60ff7ff0c57e16840df040f15088dc2f81fe391c3923bec73e23a9662efc9c229c6a005460401c16156127a557565b604051631afcd79f60e31b8152600490fd5b601f81116127c3575050565b5f805160206130c98339815191525f527f42ad5d3e1f2e6e70edcf6d991b8a3023d3fca8047a131592f9edb9fd9b89d57d906020601f840160051c83019310612826575b601f0160051c01905b81811061281b575050565b5f8155600101612810565b9091508190612807565b601f811161283c575050565b5f805160206130a98339815191525f527f2ae08a8e29253f69ac5d979a101956ab8f8d9d7ded63fa7a83b16fc47648eab0906020601f840160051c8301931061289f575b601f0160051c01905b818110612894575050565b5f8155600101612889565b9091508190612880565b601f81116128b5575050565b5f805160206131098339815191525f527f5f9ce34815f8e11431c7bb75a8e6886a91478f7ffc1dbb0a98dc240fddd76b75906020601f840160051c83019310612918575b601f0160051c01905b81811061290d575050565b5f8155600101612902565b90915081906128f9565b601f811161292e575050565b5f805160206130e98339815191525f527f46a2803e59a4de4e7a4c574b1243f25977ac4c77d5a1a4a609b5394cebb4a2aa906020601f840160051c83019310612991575b601f0160051c01905b818110612986575050565b5f815560010161297b565b9091508190612972565b90815167ffffffffffffffff8111610d40575f80516020613109833981519152906129cf816129ca8454611a7b565b6128a9565b602080601f8311600114612a0457508190612a009394955f92610ca15750508160011b915f199060031b1c19161790565b9055565b90601f19831695612a425f805160206131098339815191525f527f5f9ce34815f8e11431c7bb75a8e6886a91478f7ffc1dbb0a98dc240fddd76b7590565b925f905b888210612a7d57505083600195969710612a65575b505050811b019055565b01515f1960f88460031b161c191690555f8080612a5b565b80600185968294968601518155019501930190612a46565b90815167ffffffffffffffff8111610d40575f805160206130e983398151915290612ac981612ac48454611a7b565b612922565b602080601f8311600114612afa57508190612a009394955f92610ca15750508160011b915f199060031b1c19161790565b90601f19831695612b385f805160206130e98339815191525f527f46a2803e59a4de4e7a4c574b1243f25977ac4c77d5a1a4a609b5394cebb4a2aa90565b925f905b888210612b5a57505083600195969710612a6557505050811b019055565b80600185968294968601518155019501930190612b3c565b91907f7fffffffffffffffffffffffffffffff5d576e7357a4501ddfe92f46681b20a08411612be9579160209360809260ff5f9560405194855216868401526040830152606082015282805260015afa15610900575f516001600160a01b03811615612bdf57905f905f90565b505f906001905f90565b5050505f9160039190565b60041115612bfe57565b634e487b7160e01b5f52602160045260245ffd5b612c1b81612bf4565b80612c24575050565b612c2d81612bf4565b60018103612c475760405163f645eedf60e01b8152600490fd5b612c5081612bf4565b60028103612c715760405163fce698f760e01b815260048101839052602490fd5b80612c7d600392612bf4565b14612c855750565b6040516335e2f38360e21b81526004810191909152602490fd5b90612cc65750805115612cb457805190602001fd5b60405163d6bda27560e01b8152600490fd5b81511580612cf9575b612cd7575090565b604051639996b31560e01b81526001600160a01b039091166004820152602490fd5b50803b15612ccf565b6001600160d01b0390818111612d16571690565b604490604051906306dfcc6560e41b825260d060048301526024820152fd5b90612d3f426120d5565b6001600160d01b03918280612d53866122fb565b16911601918211610a3357612d6792612f72565b9091565b90815491600160401b831015610d405782612d8e916001611b6e95018155611db0565b90919082549060031b91821b915f19901b1916179055565b90929192600182019081548015612e38575b5084612dc38461304f565b50949092845493612dd383611e51565b9681612e23575b5015612e00575050505f198101908111610a3357612d8e8591612dfc93611db0565b9190565b612dfc949293612e1c926001600160d01b039091169190612f72565b5050612d6b565b65ffffffffffff83811691161490505f612dda565b600160401b811015610d4057806001612e549201845583611db0565b8154905f199060031b1b191690555f612db8565b612e70611b21565b8051908115612e80576020012090565b50507fa16a46d94261c7517cc8ff89f61c0ce93598e3c849801011dee649a6a557d100548015612ead5790565b507fc5d2460186f7233c927e7db2dcc703c0e500b653ca82273b7bfad8045d85a47090565b612eda611bf6565b8051908115612eea576020012090565b50507fa16a46d94261c7517cc8ff89f61c0ce93598e3c849801011dee649a6a557d101548015612ead5790565b8054600160401b811015610d4057612f3491600182018155611db0565b612f5f57815160209092015160301b65ffffffffffff191665ffffffffffff92909216919091179055565b634e487b7160e01b5f525f60045260245ffd5b8054929392801561302557612f89612f949161211b565b825f5260205f200190565b9182549265ffffffffffff9182851692811680841161301357879303612fda5750612fd392509065ffffffffffff82549181199060301b169116179055565b60301c9190565b91505061300e91612ffa612fec611cad565b65ffffffffffff9093168352565b6001600160d01b0386166020830152612f17565b612fd3565b604051632520601d60e01b8152600490fd5b509061304a91613036612fec611cad565b6001600160d01b0385166020830152612f17565b5f9190565b8054806130605750505f905f905f90565b5f19918183810111610a33575f5260205f2001015460019165ffffffffffff82169160301c9056fee8b26c30fad74198956032a3533d903385d56dd795af560196f9c78d4af40d0052c63247e1f47db19d5ce0460030c497f067ca4cebf71ba98eeadabe20bace03a16a46d94261c7517cc8ff89f61c0ce93598e3c849801011dee649a6a557d10252c63247e1f47db19d5ce0460030c497f067ca4cebf71ba98eeadabe20bace04a16a46d94261c7517cc8ff89f61c0ce93598e3c849801011dee649a6a557d103ddf252ad1be2c89b69c2b068fc378daa952ba7f163c4a11628f55a4df523b3efa264697066735822122085966307b938f31cae2ab34755d1e880c42e7d4446301c248579a30882cc563064736f6c63430008190033","linkReferences":{}},"methodIdentifiers":{"CLOCK_MODE()":"4bf5d7e9","DEPOSITOR_WHITELIST_ROLE()":"1b66c9e1","DEPOSIT_LIMIT_SET_ROLE()":"a21a1df9","DEPOSIT_WHITELIST_SET_ROLE()":"db388715","EPOCH_DURATION_SET_ROLE()":"61819dd8","FLASH_FEE_BASE()":"ecc98f05","FLASH_FEE_RATE_SET_ROLE()":"bc46f722","FLASH_FEE_RECEIVER_SET_ROLE()":"31d9736c","IS_DEPOSIT_LIMIT_SET_ROLE()":"1415519b","RETURN_VALUE()":"653b04cd","_VaultTokenized_init(string,string)":"602bd8e7","_VaultVotes_init()":"4f4e823d","_epochDuration()":"2fa27fae","_epochDurationInit()":"9f9962dd","_epochDurationInitIndex()":"9b4bae3e","_epochDurationSetEpochsDelay()":"bba6ff4a","_nextEpochDuration()":"c1bc6f51","_nextEpochDurationInit()":"cc52aee7","_nextEpochDurationSetEpochsDelay()":"c4db46fc","_nextEpochInitIndex()":"2749f9c4","_prevEpochDuration()":"5a36aa74","_prevEpochDurationInit()":"6e0f2455","_prevEpochDurationInitIndex()":"98ccba4a","allowance(address,address)":"dd62ed3e","approve(address,uint256)":"095ea7b3","balanceOf(address)":"70a08231","burner()":"27810b6e","clock()":"91ddadf4","collateral()":"d8dfeb45","decimals()":"313ce567","delegate(address)":"5c19a95c","delegateBySig(address,uint256,uint256,uint8,bytes32,bytes32)":"c3cda520","delegates(address)":"587cde1e","delegator()":"ce9b7930","deposit(address,uint256)":"47e7ef24","depositLimit()":"ecf70858","depositWhitelist()":"48d3b775","eip712Domain()":"84b0196e","flashFeeRate()":"e945da7f","flashFeeReceiver()":"a8b24f9a","getPastTotalSupply(uint256)":"8e539e8c","getPastVotes(address,uint256)":"3a46b1a8","getVotes(address)":"9ab24eb0","isDelegatorInitialized()":"50861adc","isDepositLimit()":"a1b12202","isDepositorWhitelisted(address)":"794b15b7","isSlasherInitialized()":"6ec1e3f8","isWithdrawalsClaimed(uint256,address)":"a5d03223","name()":"06fdde03","nonces(address)":"7ecebe00","redeem(address,uint256)":"1e9a6950","slasher()":"b1344271","staticDelegateCall(address,bytes)":"9f86fd85","symbol()":"95d89b41","totalSupply()":"18160ddd","transfer(address,uint256)":"a9059cbb","transferFrom(address,address,uint256)":"23b872dd","withdraw(address,uint256)":"f3fef3a3","withdrawalShares(uint256)":"afba70ad","withdrawalSharesOf(uint256,address)":"a3b54172","withdrawals(uint256)":"5cc07076"},"id":112}