{"abi":[{"type":"constructor","inputs":[{"name":"baseImplementation","type":"address","internalType":"address"}],"stateMutability":"nonpayable"},{"type":"fallback","stateMutability":"payable"},{"type":"function","name":"CLOCK_MODE","inputs":[],"outputs":[{"name":"","type":"string","internalType":"string"}],"stateMutability":"view"},{"type":"function","name":"DEPOSITOR_WHITELIST_ROLE","inputs":[],"outputs":[{"name":"","type":"bytes32","internalType":"bytes32"}],"stateMutability":"view"},{"type":"function","name":"DEPOSIT_LIMIT_SET_ROLE","inputs":[],"outputs":[{"name":"","type":"bytes32","internalType":"bytes32"}],"stateMutability":"view"},{"type":"function","name":"DEPOSIT_WHITELIST_SET_ROLE","inputs":[],"outputs":[{"name":"","type":"bytes32","internalType":"bytes32"}],"stateMutability":"view"},{"type":"function","name":"EPOCH_DURATION_SET_ROLE","inputs":[],"outputs":[{"name":"","type":"bytes32","internalType":"bytes32"}],"stateMutability":"view"},{"type":"function","name":"FLASH_FEE_BASE","inputs":[],"outputs":[{"name":"","type":"uint256","internalType":"uint256"}],"stateMutability":"view"},{"type":"function","name":"FLASH_FEE_RATE_SET_ROLE","inputs":[],"outputs":[{"name":"","type":"bytes32","internalType":"bytes32"}],"stateMutability":"view"},{"type":"function","name":"FLASH_FEE_RECEIVER_SET_ROLE","inputs":[],"outputs":[{"name":"","type":"bytes32","internalType":"bytes32"}],"stateMutability":"view"},{"type":"function","name":"IS_DEPOSIT_LIMIT_SET_ROLE","inputs":[],"outputs":[{"name":"","type":"bytes32","internalType":"bytes32"}],"stateMutability":"view"},{"type":"function","name":"RETURN_VALUE","inputs":[],"outputs":[{"name":"","type":"bytes32","internalType":"bytes32"}],"stateMutability":"view"},{"type":"function","name":"_VaultVotes_init","inputs":[],"outputs":[],"stateMutability":"nonpayable"},{"type":"function","name":"burner","inputs":[],"outputs":[{"name":"","type":"address","internalType":"address"}],"stateMutability":"view"},{"type":"function","name":"clock","inputs":[],"outputs":[{"name":"","type":"uint48","internalType":"uint48"}],"stateMutability":"view"},{"type":"function","name":"collateral","inputs":[],"outputs":[{"name":"","type":"address","internalType":"address"}],"stateMutability":"view"},{"type":"function","name":"delegate","inputs":[{"name":"delegatee","type":"address","internalType":"address"}],"outputs":[],"stateMutability":"nonpayable"},{"type":"function","name":"delegateBySig","inputs":[{"name":"delegatee","type":"address","internalType":"address"},{"name":"nonce","type":"uint256","internalType":"uint256"},{"name":"expiry","type":"uint256","internalType":"uint256"},{"name":"v","type":"uint8","internalType":"uint8"},{"name":"r","type":"bytes32","internalType":"bytes32"},{"name":"s","type":"bytes32","internalType":"bytes32"}],"outputs":[],"stateMutability":"nonpayable"},{"type":"function","name":"delegates","inputs":[{"name":"account","type":"address","internalType":"address"}],"outputs":[{"name":"","type":"address","internalType":"address"}],"stateMutability":"view"},{"type":"function","name":"delegator","inputs":[],"outputs":[{"name":"","type":"address","internalType":"address"}],"stateMutability":"view"},{"type":"function","name":"deposit","inputs":[{"name":"onBehalfOf","type":"address","internalType":"address"},{"name":"amount","type":"uint256","internalType":"uint256"}],"outputs":[{"name":"depositedAmount","type":"uint256","internalType":"uint256"},{"name":"mintedShares","type":"uint256","internalType":"uint256"}],"stateMutability":"nonpayable"},{"type":"function","name":"depositLimit","inputs":[],"outputs":[{"name":"","type":"uint256","internalType":"uint256"}],"stateMutability":"view"},{"type":"function","name":"depositWhitelist","inputs":[],"outputs":[{"name":"","type":"bool","internalType":"bool"}],"stateMutability":"view"},{"type":"function","name":"eip712Domain","inputs":[],"outputs":[{"name":"fields","type":"bytes1","internalType":"bytes1"},{"name":"name","type":"string","internalType":"string"},{"name":"version","type":"string","internalType":"string"},{"name":"chainId","type":"uint256","internalType":"uint256"},{"name":"verifyingContract","type":"address","internalType":"address"},{"name":"salt","type":"bytes32","internalType":"bytes32"},{"name":"extensions","type":"uint256[]","internalType":"uint256[]"}],"stateMutability":"view"},{"type":"function","name":"epochDurationInitInternal","inputs":[],"outputs":[{"name":"","type":"uint48","internalType":"uint48"}],"stateMutability":"view"},{"type":"function","name":"epochDurationInternal","inputs":[],"outputs":[{"name":"","type":"uint48","internalType":"uint48"}],"stateMutability":"view"},{"type":"function","name":"epochDurationSetEpochsDelayInternal","inputs":[],"outputs":[{"name":"","type":"uint256","internalType":"uint256"}],"stateMutability":"view"},{"type":"function","name":"epochInitInternal","inputs":[],"outputs":[{"name":"","type":"uint256","internalType":"uint256"}],"stateMutability":"view"},{"type":"function","name":"flashFeeRate","inputs":[],"outputs":[{"name":"","type":"uint256","internalType":"uint256"}],"stateMutability":"view"},{"type":"function","name":"flashFeeReceiver","inputs":[],"outputs":[{"name":"","type":"address","internalType":"address"}],"stateMutability":"view"},{"type":"function","name":"getPastTotalSupply","inputs":[{"name":"timepoint","type":"uint256","internalType":"uint256"}],"outputs":[{"name":"","type":"uint256","internalType":"uint256"}],"stateMutability":"view"},{"type":"function","name":"getPastVotes","inputs":[{"name":"account","type":"address","internalType":"address"},{"name":"timepoint","type":"uint256","internalType":"uint256"}],"outputs":[{"name":"","type":"uint256","internalType":"uint256"}],"stateMutability":"view"},{"type":"function","name":"getVotes","inputs":[{"name":"account","type":"address","internalType":"address"}],"outputs":[{"name":"","type":"uint256","internalType":"uint256"}],"stateMutability":"view"},{"type":"function","name":"isDelegatorInitialized","inputs":[],"outputs":[{"name":"","type":"bool","internalType":"bool"}],"stateMutability":"view"},{"type":"function","name":"isDepositLimit","inputs":[],"outputs":[{"name":"","type":"bool","internalType":"bool"}],"stateMutability":"view"},{"type":"function","name":"isDepositorWhitelisted","inputs":[{"name":"account","type":"address","internalType":"address"}],"outputs":[{"name":"value","type":"bool","internalType":"bool"}],"stateMutability":"view"},{"type":"function","name":"isSlasherInitialized","inputs":[],"outputs":[{"name":"","type":"bool","internalType":"bool"}],"stateMutability":"view"},{"type":"function","name":"isWithdrawalsClaimed","inputs":[{"name":"epoch","type":"uint256","internalType":"uint256"},{"name":"account","type":"address","internalType":"address"}],"outputs":[{"name":"value","type":"bool","internalType":"bool"}],"stateMutability":"view"},{"type":"function","name":"nextEpochDurationInitInternal","inputs":[],"outputs":[{"name":"","type":"uint48","internalType":"uint48"}],"stateMutability":"view"},{"type":"function","name":"nextEpochDurationInternal","inputs":[],"outputs":[{"name":"","type":"uint48","internalType":"uint48"}],"stateMutability":"view"},{"type":"function","name":"nextEpochDurationSetEpochsDelayInternal","inputs":[],"outputs":[{"name":"","type":"uint256","internalType":"uint256"}],"stateMutability":"view"},{"type":"function","name":"nextEpochInitInternal","inputs":[],"outputs":[{"name":"","type":"uint256","internalType":"uint256"}],"stateMutability":"view"},{"type":"function","name":"nonces","inputs":[{"name":"owner","type":"address","internalType":"address"}],"outputs":[{"name":"","type":"uint256","internalType":"uint256"}],"stateMutability":"view"},{"type":"function","name":"prevEpochDurationInitInternal","inputs":[],"outputs":[{"name":"","type":"uint48","internalType":"uint48"}],"stateMutability":"view"},{"type":"function","name":"prevEpochDurationInternal","inputs":[],"outputs":[{"name":"","type":"uint48","internalType":"uint48"}],"stateMutability":"view"},{"type":"function","name":"prevEpochInitInternal","inputs":[],"outputs":[{"name":"","type":"uint256","internalType":"uint256"}],"stateMutability":"view"},{"type":"function","name":"redeem","inputs":[{"name":"claimer","type":"address","internalType":"address"},{"name":"shares","type":"uint256","internalType":"uint256"}],"outputs":[{"name":"withdrawnAssets","type":"uint256","internalType":"uint256"},{"name":"mintedShares","type":"uint256","internalType":"uint256"}],"stateMutability":"nonpayable"},{"type":"function","name":"slasher","inputs":[],"outputs":[{"name":"","type":"address","internalType":"address"}],"stateMutability":"view"},{"type":"function","name":"staticDelegateCall","inputs":[{"name":"target","type":"address","internalType":"address"},{"name":"data","type":"bytes","internalType":"bytes"}],"outputs":[],"stateMutability":"nonpayable"},{"type":"function","name":"transfer","inputs":[{"name":"to","type":"address","internalType":"address"},{"name":"value","type":"uint256","internalType":"uint256"}],"outputs":[{"name":"result","type":"bool","internalType":"bool"}],"stateMutability":"nonpayable"},{"type":"function","name":"transferFrom","inputs":[{"name":"from","type":"address","internalType":"address"},{"name":"to","type":"address","internalType":"address"},{"name":"value","type":"uint256","internalType":"uint256"}],"outputs":[{"name":"result","type":"bool","internalType":"bool"}],"stateMutability":"nonpayable"},{"type":"function","name":"withdraw","inputs":[{"name":"claimer","type":"address","internalType":"address"},{"name":"amount","type":"uint256","internalType":"uint256"}],"outputs":[{"name":"burnedShares","type":"uint256","internalType":"uint256"},{"name":"mintedShares","type":"uint256","internalType":"uint256"}],"stateMutability":"nonpayable"},{"type":"function","name":"withdrawalShares","inputs":[{"name":"epoch","type":"uint256","internalType":"uint256"}],"outputs":[{"name":"amount","type":"uint256","internalType":"uint256"}],"stateMutability":"view"},{"type":"function","name":"withdrawalSharesOf","inputs":[{"name":"epoch","type":"uint256","internalType":"uint256"},{"name":"account","type":"address","internalType":"address"}],"outputs":[{"name":"amount","type":"uint256","internalType":"uint256"}],"stateMutability":"view"},{"type":"function","name":"withdrawals","inputs":[{"name":"epoch","type":"uint256","internalType":"uint256"}],"outputs":[{"name":"amount","type":"uint256","internalType":"uint256"}],"stateMutability":"view"},{"type":"event","name":"DelegateChanged","inputs":[{"name":"delegator","type":"address","indexed":true,"internalType":"address"},{"name":"fromDelegate","type":"address","indexed":true,"internalType":"address"},{"name":"toDelegate","type":"address","indexed":true,"internalType":"address"}],"anonymous":false},{"type":"event","name":"DelegateVotesChanged","inputs":[{"name":"delegate","type":"address","indexed":true,"internalType":"address"},{"name":"previousVotes","type":"uint256","indexed":false,"internalType":"uint256"},{"name":"newVotes","type":"uint256","indexed":false,"internalType":"uint256"}],"anonymous":false},{"type":"event","name":"EIP712DomainChanged","inputs":[],"anonymous":false},{"type":"event","name":"Initialized","inputs":[{"name":"version","type":"uint64","indexed":false,"internalType":"uint64"}],"anonymous":false},{"type":"error","name":"AddressEmptyCode","inputs":[{"name":"target","type":"address","internalType":"address"}]},{"type":"error","name":"CheckpointUnorderedInsertion","inputs":[]},{"type":"error","name":"ECDSAInvalidSignature","inputs":[]},{"type":"error","name":"ECDSAInvalidSignatureLength","inputs":[{"name":"length","type":"uint256","internalType":"uint256"}]},{"type":"error","name":"ECDSAInvalidSignatureS","inputs":[{"name":"s","type":"bytes32","internalType":"bytes32"}]},{"type":"error","name":"ERC5805FutureLookup","inputs":[{"name":"timepoint","type":"uint256","internalType":"uint256"},{"name":"clock","type":"uint48","internalType":"uint48"}]},{"type":"error","name":"ERC6372InconsistentClock","inputs":[]},{"type":"error","name":"FailedCall","inputs":[]},{"type":"error","name":"InvalidAccountNonce","inputs":[{"name":"account","type":"address","internalType":"address"},{"name":"currentNonce","type":"uint256","internalType":"uint256"}]},{"type":"error","name":"InvalidData","inputs":[]},{"type":"error","name":"InvalidInitialization","inputs":[]},{"type":"error","name":"InvalidOrigin","inputs":[]},{"type":"error","name":"NotInitializing","inputs":[]},{"type":"error","name":"SafeCastOverflowedUintDowncast","inputs":[{"name":"bits","type":"uint8","internalType":"uint8"},{"name":"value","type":"uint256","internalType":"uint256"}]},{"type":"error","name":"SafeSupplyExceeded","inputs":[]},{"type":"error","name":"VotesExpiredSignature","inputs":[{"name":"expiry","type":"uint256","internalType":"uint256"}]}],"bytecode":{"object":"0x60a034606d57601f61271438819003918201601f19168301916001600160401b03831184841017607157808492602094604052833981010312606d57516001600160a01b0381168103606d5760805260405161268e908161008682396080518181816104a40152611cd20152f35b5f80fd5b634e487b7160e01b5f52604160045260245ffdfe608060405260043610611cc8575f3560e01c80630fcaeb1b1461035b5780631415519b146103565780631b66c9e1146103515780631e89bd8a1461034c5780631e9a69501461034757806323b872dd1461034257806327810b6e1461033d57806331d9736c146103385780633a46b1a81461033357806347e7ef241461032e57806348d3b775146103295780634bf5d7e9146103245780634f4e823d1461031f578063502b4d601461031a57806350861adc14610315578063587cde1e146103105780635c19a95c1461030b5780635cc070761461030657806361819dd81461030157806364601402146102fc578063653b04cd146102f75780636ec1e3f8146102f257806375d6c765146102ed578063794b15b7146102e85780637e84ec81146102e35780637ecebe00146102de57806384b0196e146102d95780638d30d7a7146102d45780638e539e8c146102cf57806391ddadf4146102ca5780639ab24eb0146102c55780639f86fd85146102c0578063a1b12202146102bb578063a21a1df9146102b6578063a3b54172146102b1578063a5d03223146102ac578063a8b24f9a146102a7578063a9059cbb146102a2578063afba70ad1461029d578063b134427114610298578063bc46f72214610293578063bc4f8c051461028e578063c3cda52014610289578063ce9b793014610284578063d2356eb51461027f578063d8dfeb451461027a578063db38871514610275578063ddd0f28a14610270578063e945da7f1461026b578063ecc98f0514610266578063ecf7085814610261578063f3fef3a31461025c5763fcdc5b6003611cc857611461565b6113fd565b6113e0565b6113c2565b6113a5565b611388565b61134e565b611323565b611306565b6112de565b611210565b6111f3565b6111b9565b611191565b611167565b6110ea565b6110c2565b611074565b61102b565b610ff1565b610fcd565b610f2f565b610ef3565b610ec8565b610e26565b610e01565b610d31565b610c54565b610c2c565b610bef565b610b8f565b610b6a565b610b30565b610b08565b610ace565b610aa4565b610a82565b610a3d565b610a18565b6109f0565b610826565b6107d8565b610793565b61070a565b6105e8565b6105ae565b610586565b6104f5565b61043c565b6103f0565b6103b6565b61037c565b34610378575f366003190112610378576020601154604051908152f35b5f80fd5b34610378575f3660031901126103785760206040517fc6aaadd7371d5e8f9ed6849dd66a66573a3ba37167d03f4352c9ba5693678fac8152f35b34610378575f3660031901126103785760206040517f9c56d972d63cbb4195b3c1484691dfc220fa96a4c47e7b6613bd82a022029e068152f35b34610378575f36600319011261037857602060015460d01c604051908152f35b600435906001600160a01b038216820361037857565b602435906001600160a01b038216820361037857565b34610378576040366003190112610378576104e06104a26104d76104c8610461610410565b6040516301e9a69560e41b60208201526001600160a01b0390911660248281019190915235604482018190529381606481015b03601f1981018352826114ca565b7f000000000000000000000000000000000000000000000000000000000000000061158f565b602080825183010191016114ec565b929091336115af565b604080519182526020820192909252f35b0390f35b34610378576060366003190112610378576104f1610511610410565b61057461051c610426565b6044359061056e61055f6040516323b872dd60e01b602082015260018060a01b03808816602483015284166044820152846064820152606481526104a281611492565b60208082518301019101611502565b9361165e565b60405190151581529081906020820190565b34610378575f366003190112610378576001546040516001600160a01b039091168152602090f35b34610378575f3660031901126103785760206040517f5295aaaa27fdd659293eafacbfafbc634c1b96298957e87de5f59308cdbfdad18152f35b3461037857604036600319011261037857610601610410565b6024359061060e4261169b565b9065ffffffffffff918281168410156106e1575061062e61063491610bb7565b9261169b565b8254905f908260058111610693575b5061064f935084611fe4565b90816106765750506104f15f5b6040516001600160d01b0390911681529081906020820190565b6106826104f1926116e1565b905f5260205f20015460301c61065c565b909261069e82611eb9565b82039182116106dc5761064f94865f52808360205f20015416908516105f146106ca5750915b5f610643565b9291506106d6906116ef565b906106c4565b6116cd565b604051637669fc0f60e11b81526004810185905265ffffffffffff919091166024820152604490fd5b3461037857604036600319011261037857610723610410565b6040516311f9fbc960e21b60208201526001600160a01b038216602480830191909152356044820152610761906104c8906104a28160648101610494565b916001600160d01b03610772611892565b1161078157826104e091611608565b604051630a84eab560e11b8152600490fd5b34610378575f36600319011261037857602060ff5f54166040519015158152f35b805180835260209291819084018484015e5f828201840152601f01601f1916010190565b34610378575f366003190112610378576104f16040516107f7816114ae565b600e81526d06d6f64653d74696d657374616d760941b60208201526040519182916020835260208301906107b4565b34610378575f36600319011261037857604051610842816114ae565b600a8152602090695661756c74566f74657360b01b602082015260405190610869826114ae565b60019260018352603160f81b6020840152610882612043565b61088a612043565b81519067ffffffffffffffff82116109eb575f80516020612619833981519152926108be836108b986546119cb565b612084565b602091601f841160011461095757506108fa95506108f392915f918361094c575b50508160011b915f199060031b1c19161790565b9055612176565b6109225f7fa16a46d94261c7517cc8ff89f61c0ce93598e3c849801011dee649a6a557d10055565b61094a5f7fa16a46d94261c7517cc8ff89f61c0ce93598e3c849801011dee649a6a557d10155565b005b015190505f806108df565b5f805160206126198339815191525f529195601f198416907f42ad5d3e1f2e6e70edcf6d991b8a3023d3fca8047a131592f9edb9fd9b89d57d935f915b8383106109d457505050958392916001946108fa98106109bc575b505050811b019055612176565b01515f1960f88460031b161c191690555f80806109af565b848a01518655988101989485019491810191610994565b61147e565b34610378575f36600319011261037857602065ffffffffffff60135460901c16604051908152f35b34610378575f36600319011261037857602060ff60025460a01c166040519015158152f35b346103785760203660031901126103785760206001600160a01b0380610a61610410565b165f525f805160206125f9833981519152825260405f205416604051908152f35b346103785760203660031901126103785761094a610a9e610410565b3361191e565b34610378576020366003190112610378576004355f526006602052602060405f2054604051908152f35b34610378575f3660031901126103785760206040517f591f6a0113ada8aff67efadec8ae2fa585cb4ebf4e1f8fc1205ffbeff98d00ec8152f35b34610378575f36600319011261037857602065ffffffffffff60015460a01c16604051908152f35b34610378575f3660031901126103785760206040517f439148f0bbc682ca079e46d6e2c2f0c1e3b820f1a291b069d8882abf8cf18dd98152f35b34610378575f36600319011261037857602060ff60035460a01c166040519015158152f35b34610378575f36600319011261037857602065ffffffffffff60135460601c16604051908152f35b6001600160a01b03165f9081527fe8b26c30fad74198956032a3533d903385d56dd795af560196f9c78d4af40d016020526040902090565b34610378576020366003190112610378576001600160a01b03610c10610410565b165f526005602052602060ff60405f2054166040519015158152f35b34610378575f36600319011261037857602065ffffffffffff60135460301c16604051908152f35b34610378576020366003190112610378576001600160a01b03610c75610410565b165f527f5ab42ced628888259c08ac98db1eb0cf702fc1501344311d8b100cd1bfe4bb00602052602060405f2054604051908152f35b91610cdf90949194600f60f81b8452610cd160209660e0602087015260e08601906107b4565b9084820360408601526107b4565b92606083015260018060a01b031660808201525f60a082015260c0818303910152602080845192838152019301915f5b828110610d1d575050505090565b835185529381019392810192600101610d0f565b34610378575f366003190112610378577fa16a46d94261c7517cc8ff89f61c0ce93598e3c849801011dee649a6a557d100541580610dd8575b15610d9b57610d77611a03565b610d7f611ad6565b906104f1610d8b611529565b6040519384933091469186610cab565b60405162461bcd60e51b81526020600482015260156024820152741152540dcc4c8e88155b9a5b9a5d1a585b1a5e9959605a1b6044820152606490fd5b507fa16a46d94261c7517cc8ff89f61c0ce93598e3c849801011dee649a6a557d1015415610d6a565b34610378575f36600319011261037857602065ffffffffffff60135416604051908152f35b3461037857602036600319011261037857600435610e434261169b565b65ffffffffffff8116821015610ea157610e64610e5f8361169b565b6116fd565b6001600160d01b03811615610e9757610e7f6104f191611843565b90549060031b1c5b6040519081529081906020820190565b506104f15f610e87565b604051637669fc0f60e11b8152600481019290925265ffffffffffff166024820152604490fd5b34610378575f366003190112610378576020610ee34261169b565b65ffffffffffff60405191168152f35b346103785760203660031901126103785760206001600160d01b03610f26610f21610f1c610410565b610bb7565b611b82565b16604051908152f35b3461037857604036600319011261037857610f48610410565b60243567ffffffffffffffff9182821161037857366023830112156103785781600401359283116103785736602484840101116103785760245f9392838594604051938493018337810184815203915af4610fc5610fa4611550565b916104946040519384921515602084015260408084015260608301906107b4565b805190602001fd5b34610378575f36600319011261037857602060ff5f5460081c166040519015158152f35b34610378575f3660031901126103785760206040517f4a634bc14d77baf979756509ef4298c6f6318af357828612545267ee2eb792338152f35b3461037857604036600319011261037857602061106b611049610426565b6004355f526008835260405f209060018060a01b03165f5260205260405f2090565b54604051908152f35b3461037857604036600319011261037857602060ff6110b6611094610426565b6004355f526009845260405f209060018060a01b03165f5260205260405f2090565b54166040519015158152f35b34610378575f366003190112610378576016546040516001600160a01b039091168152602090f35b34610378576040366003190112610378576020611105610410565b60405163a9059cbb60e01b838201526001600160a01b038216602482810191909152356044820181905261115d9161115690611148906104a28160648101610494565b858082518301019101611502565b923361165e565b6040519015158152f35b34610378576020366003190112610378576004355f526007602052602060405f2054604051908152f35b34610378575f366003190112610378576003546040516001600160a01b039091168152602090f35b34610378575f3660031901126103785760206040517fc9078c78bcaac2be1c77c160c539a489be2b72939771b1a6302fed3e2150c7458152f35b34610378575f366003190112610378576020601054604051908152f35b346103785760c036600319011261037857611229610410565b6044359060243560643560ff81168103610378578342116112c5576112b961094a946112c0926040519060208201927fe48329057bfd03d55e49b547132e39cffd9c1820ad7b9d4c5307691425d15adf845260018060a01b03881660408401528660608401526080830152608082526112a182611492565b6112b460a4359360843593519020611baa565b611c3a565b9182611c52565b61191e565b604051632341d78760e11b815260048101859052602490fd5b34610378575f366003190112610378576002546040516001600160a01b039091168152602090f35b34610378575f366003190112610378576020601254604051908152f35b34610378575f366003190112610378575f5460405160109190911c6001600160a01b03168152602090f35b34610378575f3660031901126103785760206040517fbae4ee3de6c709ff9a002e774c5b78cb381560b219213c88ae0f1e207c03c0238152f35b34610378575f366003190112610378576020601454604051908152f35b34610378575f366003190112610378576020601554604051908152f35b34610378575f366003190112610378576020604051633b9aca008152f35b34610378575f366003190112610378576020600454604051908152f35b34610378576040366003190112610378576114566104c86104946104a2611422610410565b60405163f3fef3a360e01b60208201526001600160a01b039091166024808301919091523560448201529182906064820190565b906104e081336115af565b34610378575f366003190112610378576020600f54604051908152f35b634e487b7160e01b5f52604160045260245ffd5b60a0810190811067ffffffffffffffff8211176109eb57604052565b6040810190811067ffffffffffffffff8211176109eb57604052565b90601f8019910116810190811067ffffffffffffffff8211176109eb57604052565b9190826040910312610378576020825192015190565b90816020910312610378575180151581036103785790565b60405190611527826114ae565b565b6040516020810181811067ffffffffffffffff8211176109eb576040525f8152905f368137565b3d1561158a573d9067ffffffffffffffff82116109eb576040519161157f601f8201601f1916602001846114ca565b82523d5f602084013e565b606090565b5f806115ac93602081519101845af46115a6611550565b91611d04565b90565b6001600160a01b039081165f9081525f805160206125f983398151915260205260408120549080527fd4fb29e10204005f1a39963c6862b79a755e22f0177c53f05cdc3786c702f9745461152793929081169116611d67565b5f805160206125f98339815191526020527fd4fb29e10204005f1a39963c6862b79a755e22f0177c53f05cdc3786c702f974546001600160a01b039182165f908152604090205461152793929081169116611d67565b6001600160a01b039081165f9081525f805160206125f9833981519152602052604080822054938316825290205461152793929082169116611d67565b65ffffffffffff908181116116ae571690565b604490604051906306dfcc6560e41b8252603060048301526024820152fd5b634e487b7160e01b5f52601160045260245ffd5b5f198101919082116106dc57565b90600182018092116106dc57565b600a8054915f9280600581116117c8575b5092905b83821061175c575050508061172657505f90565b61172f906116e1565b600a5f527fc65a7bb8d6351c1cf70c95a316cc6a92839c986682d98bc35f958f4883f9d2a8015460301c90565b9091928083169080841860011c82018092116106dc57845f5265ffffffffffff80837fc65a7bb8d6351c1cf70c95a316cc6a92839c986682d98bc35f958f4883f9d2a8015416908416105f146117b65750925b9190611712565b9392506117c2906116ef565b916117af565b906117d282611eb9565b82039182116106dc57600a5f5265ffffffffffff80837fc65a7bb8d6351c1cf70c95a316cc6a92839c986682d98bc35f958f4883f9d2a8015416908416105f1461181e57505b5f61170e565b9350611829906116ef565b92611818565b634e487b7160e01b5f52603260045260245ffd5b600b5481101561187857600b5f527f0175b7a638427703f0dbe7bb9bbf987a2551717b34e79f33b5b1008d1fa01db901905f90565b61182f565b8054821015611878575f5260205f2001905f90565b600a54806118e557505f5b6001600160d01b038116156118e057600b5481101561187857600b5f527f0175b7a638427703f0dbe7bb9bbf987a2551717b34e79f33b5b1008d1fa01db9015490565b505f90565b805f198101116106dc57600a5f527fc65a7bb8d6351c1cf70c95a316cc6a92839c986682d98bc35f958f4883f9d2a7015460301c61189d565b6001600160a01b039081165f8181525f805160206125f98339815191526020526040812080548585166001600160a01b031982168117909255611527959416939290918491907f3134e8a2e6d97e929a7e54011ea5485d7d196dd5f0ba4d4ef95803e8e3fc257f9080a4600e60205260405f2061199a81611b82565b6001600160d01b038116156119c25760016119b5920161187d565b90549060031b1c91611d67565b50505f91611d67565b90600182811c921680156119f9575b60208310146119e557565b634e487b7160e01b5f52602260045260245ffd5b91607f16916119da565b604051905f825f8051602061261983398151915291825492611a24846119cb565b80845293602091600191828116908115611ab05750600114611a50575b505050611527925003836114ca565b5f9081527f42ad5d3e1f2e6e70edcf6d991b8a3023d3fca8047a131592f9edb9fd9b89d57d9590935091905b828410611a9857506115279450505081016020015f8080611a41565b85548885018301529485019487945092810192611a7c565b925050506020925061152794915060ff191682840152151560051b8201015f8080611a41565b604051905f825f8051602061263983398151915291825492611af7846119cb565b80845293602091600191828116908115611ab05750600114611b2257505050611527925003836114ca565b5f9081527f5f9ce34815f8e11431c7bb75a8e6886a91478f7ffc1dbb0a98dc240fddd76b759590935091905b828410611b6a57506115279450505081016020015f8080611a41565b85548885018301529485019487945092810192611b4e565b805480611b8f5750505f90565b5f199181838101116106dc575f5260205f2001015460301c90565b611bb2612411565b611bba61247b565b916040519260208401927f8b73c3c69bb8fe3d512ecc4cf759cc79239f7b179b0ffacaa9a75d522b39400f8452604085015260608401524660808401523060a084015260a0835260c083019183831067ffffffffffffffff8411176109eb5760429360e291846040528151902061190160f01b855260c282015201522090565b916115ac9391611c4993612270565b9092919261231b565b6001600160a01b0381165f9081527f5ab42ced628888259c08ac98db1eb0cf702fc1501344311d8b100cd1bfe4bb006020526040902080546001810190915591829003611c9d575050565b6040516301d4b62360e61b81526001600160a01b039190911660048201526024810191909152604490fd5b365f80375f8036817f00000000000000000000000000000000000000000000000000000000000000005af43d5f803e15611d00573d5ff35b3d5ffd5b90611d2b5750805115611d1957805190602001fd5b60405163d6bda27560e01b8152600490fd5b81511580611d5e575b611d3c575090565b604051639996b31560e01b81526001600160a01b039091166004820152602490fd5b50803b15611d34565b6001600160a01b03808316939291908116908185141580611e92575b611d8f575b5050505050565b81611e04575b505082611da4575b8080611d88565b7fdec2bacdd2f05b59de34da9b523dff8be42e5e38e818c82fdb0bae774387a72491611ddb611dd5611de193610bb7565b916123a8565b906123db565b604080516001600160d01b039384168152919092166020820152a25f8080611d9d565b611e0d90610bb7565b611e16846123a8565b611e1f4261169b565b6001600160d01b03918280611e3386611b82565b1691169003928284116106dc577fdec2bacdd2f05b59de34da9b523dff8be42e5e38e818c82fdb0bae774387a72493611e8892611e6f9261251b565b6040805192851683529316602082015291829190820190565b0390a25f80611d95565b50831515611d83565b8115611ea5570490565b634e487b7160e01b5f52601260045260245ffd5b60018111156115ac57600181600160801b811015611fd2575b611f7a611f70611f66611f5c611f52611f48611f8697600488600160401b611f819a1015611fc5575b640100000000811015611fb8575b62010000811015611fab575b610100811015611f9f575b6010811015611f93575b1015611f8b575b60030260011c611f41818b611e9b565b0160011c90565b611f41818a611e9b565b611f418189611e9b565b611f418188611e9b565b611f418187611e9b565b611f418186611e9b565b8093611e9b565b821190565b900390565b60011b611f31565b811c9160021b91611f2a565b60081c91811b91611f20565b60101c9160081b91611f15565b60201c9160101b91611f09565b60401c9160201b91611efb565b50600160401b9050608082901c611ed2565b91905b838210611ff45750505090565b9091928083169080841860011c82018092116106dc57845f5265ffffffffffff808360205f20015416908416105f146120315750925b9190611fe7565b93925061203d906116ef565b9161202a565b60ff7ff0c57e16840df040f15088dc2f81fe391c3923bec73e23a9662efc9c229c6a005460401c161561207257565b604051631afcd79f60e31b8152600490fd5b601f8111612090575050565b5f805160206126198339815191525f527f42ad5d3e1f2e6e70edcf6d991b8a3023d3fca8047a131592f9edb9fd9b89d57d906020601f840160051c830193106120f3575b601f0160051c01905b8181106120e8575050565b5f81556001016120dd565b90915081906120d4565b601f8111612109575050565b5f805160206126398339815191525f527f5f9ce34815f8e11431c7bb75a8e6886a91478f7ffc1dbb0a98dc240fddd76b75906020601f840160051c8301931061216c575b601f0160051c01905b818110612161575050565b5f8155600101612156565b909150819061214d565b90815167ffffffffffffffff81116109eb575f80516020612639833981519152906121aa816121a584546119cb565b6120fd565b602080601f83116001146121df575081906121db9394955f9261094c5750508160011b915f199060031b1c19161790565b9055565b90601f1983169561221d5f805160206126398339815191525f527f5f9ce34815f8e11431c7bb75a8e6886a91478f7ffc1dbb0a98dc240fddd76b7590565b925f905b88821061225857505083600195969710612240575b505050811b019055565b01515f1960f88460031b161c191690555f8080612236565b80600185968294968601518155019501930190612221565b91907f7fffffffffffffffffffffffffffffff5d576e7357a4501ddfe92f46681b20a084116122f2579160209360809260ff5f9560405194855216868401526040830152606082015282805260015afa156122e7575f516001600160a01b038116156122dd57905f905f90565b505f906001905f90565b6040513d5f823e3d90fd5b5050505f9160039190565b6004111561230757565b634e487b7160e01b5f52602160045260245ffd5b612324816122fd565b8061232d575050565b612336816122fd565b600181036123505760405163f645eedf60e01b8152600490fd5b612359816122fd565b6002810361237a5760405163fce698f760e01b815260048101839052602490fd5b806123866003926122fd565b1461238e5750565b6040516335e2f38360e21b81526004810191909152602490fd5b6001600160d01b03908181116123bc571690565b604490604051906306dfcc6560e41b825260d060048301526024820152fd5b906123e54261169b565b6001600160d01b039182806123f986611b82565b169116019182116106dc5761240d9261251b565b9091565b612419611a03565b8051908115612429576020012090565b50507fa16a46d94261c7517cc8ff89f61c0ce93598e3c849801011dee649a6a557d1005480156124565790565b507fc5d2460186f7233c927e7db2dcc703c0e500b653ca82273b7bfad8045d85a47090565b612483611ad6565b8051908115612493576020012090565b50507fa16a46d94261c7517cc8ff89f61c0ce93598e3c849801011dee649a6a557d1015480156124565790565b8054600160401b8110156109eb576124dd9160018201815561187d565b61250857815160209092015160301b65ffffffffffff191665ffffffffffff92909216919091179055565b634e487b7160e01b5f525f60045260245ffd5b805492939280156125ce5761253261253d916116e1565b825f5260205f200190565b9182549265ffffffffffff918285169281168084116125bc57879303612583575061257c92509065ffffffffffff82549181199060301b169116179055565b60301c9190565b9150506125b7916125a361259561151a565b65ffffffffffff9093168352565b6001600160d01b03861660208301526124c0565b61257c565b604051632520601d60e01b8152600490fd5b50906125f3916125df61259561151a565b6001600160d01b03851660208301526124c0565b5f919056fee8b26c30fad74198956032a3533d903385d56dd795af560196f9c78d4af40d00a16a46d94261c7517cc8ff89f61c0ce93598e3c849801011dee649a6a557d102a16a46d94261c7517cc8ff89f61c0ce93598e3c849801011dee649a6a557d103a2646970667358221220a20804a683abeed55004ec1348c20991bc7e5942b78ed5866d0e3fb4da230d8964736f6c63430008190033","linkReferences":{}},"methodIdentifiers":{"CLOCK_MODE()":"4bf5d7e9","DEPOSITOR_WHITELIST_ROLE()":"1b66c9e1","DEPOSIT_LIMIT_SET_ROLE()":"a21a1df9","DEPOSIT_WHITELIST_SET_ROLE()":"db388715","EPOCH_DURATION_SET_ROLE()":"61819dd8","FLASH_FEE_BASE()":"ecc98f05","FLASH_FEE_RATE_SET_ROLE()":"bc46f722","FLASH_FEE_RECEIVER_SET_ROLE()":"31d9736c","IS_DEPOSIT_LIMIT_SET_ROLE()":"1415519b","RETURN_VALUE()":"653b04cd","_VaultVotes_init()":"4f4e823d","burner()":"27810b6e","clock()":"91ddadf4","collateral()":"d8dfeb45","delegate(address)":"5c19a95c","delegateBySig(address,uint256,uint256,uint8,bytes32,bytes32)":"c3cda520","delegates(address)":"587cde1e","delegator()":"ce9b7930","deposit(address,uint256)":"47e7ef24","depositLimit()":"ecf70858","depositWhitelist()":"48d3b775","eip712Domain()":"84b0196e","epochDurationInitInternal()":"64601402","epochDurationInternal()":"1e89bd8a","epochDurationSetEpochsDelayInternal()":"fcdc5b60","epochInitInternal()":"0fcaeb1b","flashFeeRate()":"e945da7f","flashFeeReceiver()":"a8b24f9a","getPastTotalSupply(uint256)":"8e539e8c","getPastVotes(address,uint256)":"3a46b1a8","getVotes(address)":"9ab24eb0","isDelegatorInitialized()":"50861adc","isDepositLimit()":"a1b12202","isDepositorWhitelisted(address)":"794b15b7","isSlasherInitialized()":"6ec1e3f8","isWithdrawalsClaimed(uint256,address)":"a5d03223","nextEpochDurationInitInternal()":"75d6c765","nextEpochDurationInternal()":"502b4d60","nextEpochDurationSetEpochsDelayInternal()":"bc4f8c05","nextEpochInitInternal()":"ddd0f28a","nonces(address)":"7ecebe00","prevEpochDurationInitInternal()":"8d30d7a7","prevEpochDurationInternal()":"7e84ec81","prevEpochInitInternal()":"d2356eb5","redeem(address,uint256)":"1e9a6950","slasher()":"b1344271","staticDelegateCall(address,bytes)":"9f86fd85","transfer(address,uint256)":"a9059cbb","transferFrom(address,address,uint256)":"23b872dd","withdraw(address,uint256)":"f3fef3a3","withdrawalShares(uint256)":"afba70ad","withdrawalSharesOf(uint256,address)":"a3b54172","withdrawals(uint256)":"5cc07076"},"id":112}