{"abi":[{"type":"constructor","inputs":[{"name":"baseImplementation","type":"address","internalType":"address"}],"stateMutability":"nonpayable"},{"type":"fallback","stateMutability":"payable"},{"type":"function","name":"CLOCK_MODE","inputs":[],"outputs":[{"name":"","type":"string","internalType":"string"}],"stateMutability":"view"},{"type":"function","name":"DEPOSITOR_WHITELIST_ROLE","inputs":[],"outputs":[{"name":"","type":"bytes32","internalType":"bytes32"}],"stateMutability":"view"},{"type":"function","name":"DEPOSIT_LIMIT_SET_ROLE","inputs":[],"outputs":[{"name":"","type":"bytes32","internalType":"bytes32"}],"stateMutability":"view"},{"type":"function","name":"DEPOSIT_WHITELIST_SET_ROLE","inputs":[],"outputs":[{"name":"","type":"bytes32","internalType":"bytes32"}],"stateMutability":"view"},{"type":"function","name":"EPOCH_DURATION_SET_ROLE","inputs":[],"outputs":[{"name":"","type":"bytes32","internalType":"bytes32"}],"stateMutability":"view"},{"type":"function","name":"FLASH_FEE_BASE","inputs":[],"outputs":[{"name":"","type":"uint256","internalType":"uint256"}],"stateMutability":"view"},{"type":"function","name":"FLASH_FEE_RATE_SET_ROLE","inputs":[],"outputs":[{"name":"","type":"bytes32","internalType":"bytes32"}],"stateMutability":"view"},{"type":"function","name":"FLASH_FEE_RECEIVER_SET_ROLE","inputs":[],"outputs":[{"name":"","type":"bytes32","internalType":"bytes32"}],"stateMutability":"view"},{"type":"function","name":"FLASH_LOAN_ENABLED_SET_ROLE","inputs":[],"outputs":[{"name":"","type":"bytes32","internalType":"bytes32"}],"stateMutability":"view"},{"type":"function","name":"IS_DEPOSIT_LIMIT_SET_ROLE","inputs":[],"outputs":[{"name":"","type":"bytes32","internalType":"bytes32"}],"stateMutability":"view"},{"type":"function","name":"RETURN_VALUE","inputs":[],"outputs":[{"name":"","type":"bytes32","internalType":"bytes32"}],"stateMutability":"view"},{"type":"function","name":"_VaultTokenized_init","inputs":[{"name":"data","type":"bytes","internalType":"bytes"}],"outputs":[],"stateMutability":"nonpayable"},{"type":"function","name":"_VaultVotes_init","inputs":[{"name":"","type":"bytes","internalType":"bytes"}],"outputs":[],"stateMutability":"nonpayable"},{"type":"function","name":"_epochDuration","inputs":[],"outputs":[{"name":"","type":"uint48","internalType":"uint48"}],"stateMutability":"view"},{"type":"function","name":"_epochDurationInit","inputs":[],"outputs":[{"name":"","type":"uint48","internalType":"uint48"}],"stateMutability":"view"},{"type":"function","name":"_epochDurationInitIndex","inputs":[],"outputs":[{"name":"","type":"uint256","internalType":"uint256"}],"stateMutability":"view"},{"type":"function","name":"_epochDurationSetEpochsDelay","inputs":[],"outputs":[{"name":"","type":"uint256","internalType":"uint256"}],"stateMutability":"view"},{"type":"function","name":"_nextEpochDuration","inputs":[],"outputs":[{"name":"","type":"uint48","internalType":"uint48"}],"stateMutability":"view"},{"type":"function","name":"_nextEpochDurationInit","inputs":[],"outputs":[{"name":"","type":"uint48","internalType":"uint48"}],"stateMutability":"view"},{"type":"function","name":"_nextEpochDurationSetEpochsDelay","inputs":[],"outputs":[{"name":"","type":"uint256","internalType":"uint256"}],"stateMutability":"view"},{"type":"function","name":"_nextEpochInitIndex","inputs":[],"outputs":[{"name":"","type":"uint256","internalType":"uint256"}],"stateMutability":"view"},{"type":"function","name":"_prevEpochDuration","inputs":[],"outputs":[{"name":"","type":"uint48","internalType":"uint48"}],"stateMutability":"view"},{"type":"function","name":"_prevEpochDurationInit","inputs":[],"outputs":[{"name":"","type":"uint48","internalType":"uint48"}],"stateMutability":"view"},{"type":"function","name":"_prevEpochDurationInitIndex","inputs":[],"outputs":[{"name":"","type":"uint256","internalType":"uint256"}],"stateMutability":"view"},{"type":"function","name":"allowance","inputs":[{"name":"owner","type":"address","internalType":"address"},{"name":"spender","type":"address","internalType":"address"}],"outputs":[{"name":"","type":"uint256","internalType":"uint256"}],"stateMutability":"view"},{"type":"function","name":"approve","inputs":[{"name":"spender","type":"address","internalType":"address"},{"name":"value","type":"uint256","internalType":"uint256"}],"outputs":[{"name":"","type":"bool","internalType":"bool"}],"stateMutability":"nonpayable"},{"type":"function","name":"balanceOf","inputs":[{"name":"account","type":"address","internalType":"address"}],"outputs":[{"name":"","type":"uint256","internalType":"uint256"}],"stateMutability":"view"},{"type":"function","name":"burner","inputs":[],"outputs":[{"name":"","type":"address","internalType":"address"}],"stateMutability":"view"},{"type":"function","name":"clock","inputs":[],"outputs":[{"name":"","type":"uint48","internalType":"uint48"}],"stateMutability":"view"},{"type":"function","name":"collateral","inputs":[],"outputs":[{"name":"","type":"address","internalType":"address"}],"stateMutability":"view"},{"type":"function","name":"decimals","inputs":[],"outputs":[{"name":"","type":"uint8","internalType":"uint8"}],"stateMutability":"view"},{"type":"function","name":"delegate","inputs":[{"name":"delegatee","type":"address","internalType":"address"}],"outputs":[],"stateMutability":"nonpayable"},{"type":"function","name":"delegateBySig","inputs":[{"name":"delegatee","type":"address","internalType":"address"},{"name":"nonce","type":"uint256","internalType":"uint256"},{"name":"expiry","type":"uint256","internalType":"uint256"},{"name":"v","type":"uint8","internalType":"uint8"},{"name":"r","type":"bytes32","internalType":"bytes32"},{"name":"s","type":"bytes32","internalType":"bytes32"}],"outputs":[],"stateMutability":"nonpayable"},{"type":"function","name":"delegates","inputs":[{"name":"account","type":"address","internalType":"address"}],"outputs":[{"name":"","type":"address","internalType":"address"}],"stateMutability":"view"},{"type":"function","name":"delegator","inputs":[],"outputs":[{"name":"","type":"address","internalType":"address"}],"stateMutability":"view"},{"type":"function","name":"deposit","inputs":[{"name":"onBehalfOf","type":"address","internalType":"address"},{"name":"amount","type":"uint256","internalType":"uint256"}],"outputs":[{"name":"depositedAmount","type":"uint256","internalType":"uint256"},{"name":"mintedShares","type":"uint256","internalType":"uint256"}],"stateMutability":"nonpayable"},{"type":"function","name":"depositLimit","inputs":[],"outputs":[{"name":"","type":"uint256","internalType":"uint256"}],"stateMutability":"view"},{"type":"function","name":"depositWhitelist","inputs":[],"outputs":[{"name":"","type":"bool","internalType":"bool"}],"stateMutability":"view"},{"type":"function","name":"eip712Domain","inputs":[],"outputs":[{"name":"fields","type":"bytes1","internalType":"bytes1"},{"name":"name","type":"string","internalType":"string"},{"name":"version","type":"string","internalType":"string"},{"name":"chainId","type":"uint256","internalType":"uint256"},{"name":"verifyingContract","type":"address","internalType":"address"},{"name":"salt","type":"bytes32","internalType":"bytes32"},{"name":"extensions","type":"uint256[]","internalType":"uint256[]"}],"stateMutability":"view"},{"type":"function","name":"flashFeeRate","inputs":[],"outputs":[{"name":"","type":"uint256","internalType":"uint256"}],"stateMutability":"view"},{"type":"function","name":"flashFeeReceiver","inputs":[],"outputs":[{"name":"","type":"address","internalType":"address"}],"stateMutability":"view"},{"type":"function","name":"flashLoanEnabled","inputs":[],"outputs":[{"name":"","type":"bool","internalType":"bool"}],"stateMutability":"view"},{"type":"function","name":"getPastTotalSupply","inputs":[{"name":"timepoint","type":"uint256","internalType":"uint256"}],"outputs":[{"name":"","type":"uint256","internalType":"uint256"}],"stateMutability":"view"},{"type":"function","name":"getPastVotes","inputs":[{"name":"account","type":"address","internalType":"address"},{"name":"timepoint","type":"uint256","internalType":"uint256"}],"outputs":[{"name":"","type":"uint256","internalType":"uint256"}],"stateMutability":"view"},{"type":"function","name":"getVotes","inputs":[{"name":"account","type":"address","internalType":"address"}],"outputs":[{"name":"","type":"uint256","internalType":"uint256"}],"stateMutability":"view"},{"type":"function","name":"isDelegatorInitialized","inputs":[],"outputs":[{"name":"","type":"bool","internalType":"bool"}],"stateMutability":"view"},{"type":"function","name":"isDepositLimit","inputs":[],"outputs":[{"name":"","type":"bool","internalType":"bool"}],"stateMutability":"view"},{"type":"function","name":"isDepositorWhitelisted","inputs":[{"name":"account","type":"address","internalType":"address"}],"outputs":[{"name":"value","type":"bool","internalType":"bool"}],"stateMutability":"view"},{"type":"function","name":"isSlasherInitialized","inputs":[],"outputs":[{"name":"","type":"bool","internalType":"bool"}],"stateMutability":"view"},{"type":"function","name":"isWithdrawalsClaimed","inputs":[{"name":"epoch","type":"uint256","internalType":"uint256"},{"name":"account","type":"address","internalType":"address"}],"outputs":[{"name":"value","type":"bool","internalType":"bool"}],"stateMutability":"view"},{"type":"function","name":"name","inputs":[],"outputs":[{"name":"","type":"string","internalType":"string"}],"stateMutability":"view"},{"type":"function","name":"nonces","inputs":[{"name":"owner","type":"address","internalType":"address"}],"outputs":[{"name":"","type":"uint256","internalType":"uint256"}],"stateMutability":"view"},{"type":"function","name":"redeem","inputs":[{"name":"claimer","type":"address","internalType":"address"},{"name":"shares","type":"uint256","internalType":"uint256"}],"outputs":[{"name":"withdrawnAssets","type":"uint256","internalType":"uint256"},{"name":"mintedShares","type":"uint256","internalType":"uint256"}],"stateMutability":"nonpayable"},{"type":"function","name":"slasher","inputs":[],"outputs":[{"name":"","type":"address","internalType":"address"}],"stateMutability":"view"},{"type":"function","name":"staticDelegateCall","inputs":[{"name":"target","type":"address","internalType":"address"},{"name":"data","type":"bytes","internalType":"bytes"}],"outputs":[],"stateMutability":"nonpayable"},{"type":"function","name":"symbol","inputs":[],"outputs":[{"name":"","type":"string","internalType":"string"}],"stateMutability":"view"},{"type":"function","name":"totalSupply","inputs":[],"outputs":[{"name":"","type":"uint256","internalType":"uint256"}],"stateMutability":"view"},{"type":"function","name":"transfer","inputs":[{"name":"to","type":"address","internalType":"address"},{"name":"value","type":"uint256","internalType":"uint256"}],"outputs":[{"name":"","type":"bool","internalType":"bool"}],"stateMutability":"nonpayable"},{"type":"function","name":"transferFrom","inputs":[{"name":"from","type":"address","internalType":"address"},{"name":"to","type":"address","internalType":"address"},{"name":"value","type":"uint256","internalType":"uint256"}],"outputs":[{"name":"","type":"bool","internalType":"bool"}],"stateMutability":"nonpayable"},{"type":"function","name":"withdraw","inputs":[{"name":"claimer","type":"address","internalType":"address"},{"name":"amount","type":"uint256","internalType":"uint256"}],"outputs":[{"name":"burnedShares","type":"uint256","internalType":"uint256"},{"name":"mintedShares","type":"uint256","internalType":"uint256"}],"stateMutability":"nonpayable"},{"type":"function","name":"withdrawalShares","inputs":[{"name":"epoch","type":"uint256","internalType":"uint256"}],"outputs":[{"name":"amount","type":"uint256","internalType":"uint256"}],"stateMutability":"view"},{"type":"function","name":"withdrawalSharesOf","inputs":[{"name":"epoch","type":"uint256","internalType":"uint256"},{"name":"account","type":"address","internalType":"address"}],"outputs":[{"name":"amount","type":"uint256","internalType":"uint256"}],"stateMutability":"view"},{"type":"function","name":"withdrawals","inputs":[{"name":"epoch","type":"uint256","internalType":"uint256"}],"outputs":[{"name":"amount","type":"uint256","internalType":"uint256"}],"stateMutability":"view"},{"type":"event","name":"Approval","inputs":[{"name":"owner","type":"address","indexed":true,"internalType":"address"},{"name":"spender","type":"address","indexed":true,"internalType":"address"},{"name":"value","type":"uint256","indexed":false,"internalType":"uint256"}],"anonymous":false},{"type":"event","name":"DelegateChanged","inputs":[{"name":"delegator","type":"address","indexed":true,"internalType":"address"},{"name":"fromDelegate","type":"address","indexed":true,"internalType":"address"},{"name":"toDelegate","type":"address","indexed":true,"internalType":"address"}],"anonymous":false},{"type":"event","name":"DelegateVotesChanged","inputs":[{"name":"delegate","type":"address","indexed":true,"internalType":"address"},{"name":"previousVotes","type":"uint256","indexed":false,"internalType":"uint256"},{"name":"newVotes","type":"uint256","indexed":false,"internalType":"uint256"}],"anonymous":false},{"type":"event","name":"EIP712DomainChanged","inputs":[],"anonymous":false},{"type":"event","name":"Initialized","inputs":[{"name":"version","type":"uint64","indexed":false,"internalType":"uint64"}],"anonymous":false},{"type":"event","name":"Transfer","inputs":[{"name":"from","type":"address","indexed":true,"internalType":"address"},{"name":"to","type":"address","indexed":true,"internalType":"address"},{"name":"value","type":"uint256","indexed":false,"internalType":"uint256"}],"anonymous":false},{"type":"error","name":"AddressEmptyCode","inputs":[{"name":"target","type":"address","internalType":"address"}]},{"type":"error","name":"CheckpointUnorderedInsertion","inputs":[]},{"type":"error","name":"ECDSAInvalidSignature","inputs":[]},{"type":"error","name":"ECDSAInvalidSignatureLength","inputs":[{"name":"length","type":"uint256","internalType":"uint256"}]},{"type":"error","name":"ECDSAInvalidSignatureS","inputs":[{"name":"s","type":"bytes32","internalType":"bytes32"}]},{"type":"error","name":"ERC20InsufficientAllowance","inputs":[{"name":"spender","type":"address","internalType":"address"},{"name":"allowance","type":"uint256","internalType":"uint256"},{"name":"needed","type":"uint256","internalType":"uint256"}]},{"type":"error","name":"ERC20InsufficientBalance","inputs":[{"name":"sender","type":"address","internalType":"address"},{"name":"balance","type":"uint256","internalType":"uint256"},{"name":"needed","type":"uint256","internalType":"uint256"}]},{"type":"error","name":"ERC20InvalidApprover","inputs":[{"name":"approver","type":"address","internalType":"address"}]},{"type":"error","name":"ERC20InvalidReceiver","inputs":[{"name":"receiver","type":"address","internalType":"address"}]},{"type":"error","name":"ERC20InvalidSender","inputs":[{"name":"sender","type":"address","internalType":"address"}]},{"type":"error","name":"ERC20InvalidSpender","inputs":[{"name":"spender","type":"address","internalType":"address"}]},{"type":"error","name":"ERC5805FutureLookup","inputs":[{"name":"timepoint","type":"uint256","internalType":"uint256"},{"name":"clock","type":"uint48","internalType":"uint48"}]},{"type":"error","name":"ERC6372InconsistentClock","inputs":[]},{"type":"error","name":"FailedCall","inputs":[]},{"type":"error","name":"InvalidAccountNonce","inputs":[{"name":"account","type":"address","internalType":"address"},{"name":"currentNonce","type":"uint256","internalType":"uint256"}]},{"type":"error","name":"InvalidData","inputs":[]},{"type":"error","name":"InvalidInitialization","inputs":[]},{"type":"error","name":"NotInitializing","inputs":[]},{"type":"error","name":"ReentrancyGuardReentrantCall","inputs":[]},{"type":"error","name":"SafeCastOverflowedUintDowncast","inputs":[{"name":"bits","type":"uint8","internalType":"uint8"},{"name":"value","type":"uint256","internalType":"uint256"}]},{"type":"error","name":"SafeSupplyExceeded","inputs":[]},{"type":"error","name":"VotesExpiredSignature","inputs":[{"name":"expiry","type":"uint256","internalType":"uint256"}]}],"bytecode":{"object":"0x60a034606d57601f61330938819003918201601f19168301916001600160401b03831184841017607157808492602094604052833981010312606d57516001600160a01b0381168103606d576080526040516132839081610086823960805181818161093801526125560152f35b5f80fd5b634e487b7160e01b5f52604160045260245ffdfe60806040526004361061254c575f3560e01c806306fdde03146103fb578063095ea7b3146103f65780630eac105e146103f15780631415519b146103ec57806318160ddd146103e75780631b66c9e1146103e25780631e9a6950146103dd57806323b872dd146103d85780632749f9c4146103d357806327810b6e146103ce5780632fa27fae146103c9578063313ce567146103c457806331d9736c146103bf5780633a46b1a8146103ba57806347e7ef24146103b557806348d3b775146103b05780634bf5d7e9146103ab57806350861adc146103a6578063587cde1e146103a15780635a36aa741461039c5780635c19a95c146103975780635cc070761461039257806361819dd81461038d578063653b04cd1461038857806365d61c6c146103835780636e0f24551461037e5780636ec1e3f81461037957806370a0823114610374578063794b15b71461036f5780637bd00ae81461036a5780637ecebe001461036557806384b0196e146103605780638e539e8c1461035b57806391ddadf41461035657806395d89b411461035157806398ccba4a1461034c5780639ab24eb0146103475780639b4bae3e146103425780639f86fd851461033d5780639f9962dd14610338578063a1b1220214610333578063a21a1df91461032e578063a3b5417214610329578063a5d0322314610324578063a66b3a731461031f578063a8b24f9a1461031a578063a9059cbb14610315578063afba70ad14610310578063b13442711461030b578063bba6ff4a14610306578063bc46f72214610301578063c1bc6f51146102fc578063c3cda520146102f7578063c4db46fc146102f2578063cc52aee7146102ed578063ce9b7930146102e8578063d8dfeb45146102e3578063db388715146102de578063dd62ed3e146102d9578063e945da7f146102d4578063ecc98f05146102cf578063ecf70858146102ca5763f3fef3a30361254c57611a95565b611a78565b611a5a565b611a3d565b611a0e565b6119d4565b6119a9565b611981565b611959565b61193c565b61186f565b61183c565b611802565b6117e5565b6117bd565b611793565b611762565b61173a565b611700565b6116b2565b611669565b61162f565b61160b565b6115e3565b611561565b611544565b611508565b6114eb565b611439565b61140e565b61136c565b61129c565b6111bf565b611064565b611027565b610f80565b610f5b565b610f36565b610f11565b610ed7565b610e9d565b610e73565b610e51565b610e29565b610de4565b610dbf565b610d71565b610d50565b610ca5565b610b83565b610b49565b610ab2565b610a92565b610a6a565b610a4d565b61099f565b6108d0565b610896565b610874565b61083a565b610671565b610558565b610438565b805180835260209291819084018484015e5f828201840152601f01601f1916010190565b906020610435928181520190610400565b90565b34610528575f366003190112610528576040515f5f805160206131ae83398151915280549061046682611b13565b808552916020916001918281169081156104fb57506001146104a3575b61049f8661049381880382611b95565b60405191829182610424565b0390f35b5f90815293507f2ae08a8e29253f69ac5d979a101956ab8f8d9d7ded63fa7a83b16fc47648eab05b8385106104e8575050505081016020016104938261049f5f610483565b80548686018401529382019381016104cb565b905086955061049f9693506020925061049394915060ff191682840152151560051b82010192935f610483565b5f80fd5b600435906001600160a01b038216820361052857565b602435906001600160a01b038216820361052857565b346105285760403660031901126105285761057161052c565b60243533156105fe576001600160a01b0382169182156105e6576105ae829161059933610fb7565b9060018060a01b03165f5260205260405f2090565b556040519081527f8c5be1e5ebec7d5bd14f71427d1e84f3dd0314c0f7b2291e5b200ac8c7c3b92560203392a3602060405160018152f35b604051634a1406b160e11b81525f6004820152602490fd5b60405163e602df0560e01b81525f6004820152602490fd5b9181601f84011215610528578235916001600160401b038311610528576020838186019501011161052857565b602060031982011261052857600435906001600160401b0382116105285761066d91600401610616565b9091565b346105285761067f36610643565b505060405161068d81611b5f565b600a8152602090695661756c74566f74657360b01b6020820152604051906106b482611b5f565b60019260018352603160f81b60208401526106cd612588565b6106d5612588565b8151906001600160401b038211610835575f805160206131ce83398151915292610708836107038654611b13565b6125c9565b602091601f84116001146107a15750610744955061073d92915f9183610796575b50508160011b915f199060031b1c19161790565b90556127ad565b61076c5f7fa16a46d94261c7517cc8ff89f61c0ce93598e3c849801011dee649a6a557d10055565b6107945f7fa16a46d94261c7517cc8ff89f61c0ce93598e3c849801011dee649a6a557d10155565b005b015190505f80610729565b5f805160206131ce8339815191525f529195601f198416907f42ad5d3e1f2e6e70edcf6d991b8a3023d3fca8047a131592f9edb9fd9b89d57d935f915b83831061081e57505050958392916001946107449810610806575b505050811b0190556127ad565b01515f1960f88460031b161c191690555f80806107f9565b848a015186559881019894850194918101916107de565b611b4b565b34610528575f3660031901126105285760206040517fc6aaadd7371d5e8f9ed6849dd66a66573a3ba37167d03f4352c9ba5693678fac8152f35b34610528575f36600319011261052857602061088e611e68565b604051908152f35b34610528575f3660031901126105285760206040517f9c56d972d63cbb4195b3c1484691dfc220fa96a4c47e7b6613bd82a022029e068152f35b346105285760403660031901126105285761098e61093661096b61095c6108f561052c565b6040516301e9a69560e41b60208201526001600160a01b0390911660248281019190915235604482018190529381606481015b03601f198101835282611b95565b7f0000000000000000000000000000000000000000000000000000000000000000612982565b60208082518301019101611f28565b9290915f6040518281525f8051602061322e83398151915260203392a333611f3e565b604080519182526020820192909252f35b34610528576060366003190112610528576109b861052c565b6109c0610542565b604435906109d13361059985610fb7565b5492600184016109f2575b6109e6935061202a565b60405160018152602090f35b828410610a27576001600160a01b038116156105fe5733156105e657826109e69403610a213361059984610fb7565b556109dc565b604051637dc7a0d960e11b81523360048201526024810185905260448101849052606490fd5b34610528575f366003190112610528576020601454604051908152f35b34610528575f366003190112610528576001546040516001600160a01b039091168152602090f35b34610528575f36600319011261052857602060015460d01c604051908152f35b34610528575f366003190112610528575f5460405163313ce56760e01b8152906020908290600490829060101c6001600160a01b03165afa8015610b44575f90610b07575b60405160ff919091168152602090f35b506020813d602011610b3c575b81610b2160209383611b95565b810103126105285761049f9051610b3781611864565b610af7565b3d9150610b14565b611d5f565b34610528575f3660031901126105285760206040517f5295aaaa27fdd659293eafacbfafbc634c1b96298957e87de5f59308cdbfdad18152f35b3461052857604036600319011261052857610b9c61052c565b60243590610ba9426121e1565b9065ffffffffffff91828116841015610c7c5750610bc9610bcf91610fef565b926121e1565b8254905f908260058111610c2e575b50610bea935084612c1c565b9081610c1157505061049f5f5b6040516001600160d01b0390911681529081906020820190565b610c1d61049f92612227565b905f5260205f20015460301c610bf7565b9092610c3982612af1565b8203918211610c7757610bea94865f52808360205f20015416908516105f14610c655750915b5f610bde565b929150610c7190612235565b90610c5f565b612213565b604051637669fc0f60e11b81526004810185905265ffffffffffff919091166024820152604490fd5b3461052857604036600319011261052857610cbe61052c565b6040516311f9fbc960e21b60208201526001600160a01b038216602480830191909152356044820152610cfc9061095c906109368160648101610928565b916040518381525f5f8051602061322e833981519152602060018060a01b03851693a36001600160d01b03610d2f611e68565b11610d3e578261098e91611f97565b604051630a84eab560e11b8152600490fd5b34610528575f36600319011261052857602060ff5f54166040519015158152f35b34610528575f3660031901126105285761049f604051610d9081611b5f565b600e81526d06d6f64653d74696d657374616d760941b6020820152604051918291602083526020830190610400565b34610528575f36600319011261052857602060ff60025460a01c166040519015158152f35b346105285760203660031901126105285760206001600160a01b0380610e0861052c565b165f525f8051602061318e833981519152825260405f205416604051908152f35b34610528575f36600319011261052857602065ffffffffffff60135460301c16604051908152f35b3461052857602036600319011261052857610794610e6d61052c565b33612375565b34610528576020366003190112610528576004355f526006602052602060405f2054604051908152f35b34610528575f3660031901126105285760206040517f591f6a0113ada8aff67efadec8ae2fa585cb4ebf4e1f8fc1205ffbeff98d00ec8152f35b34610528575f3660031901126105285760206040517f439148f0bbc682ca079e46d6e2c2f0c1e3b820f1a291b069d8882abf8cf18dd98152f35b34610528575f36600319011261052857602060ff60165460a01c166040519015158152f35b34610528575f36600319011261052857602065ffffffffffff60135416604051908152f35b34610528575f36600319011261052857602060ff60035460a01c166040519015158152f35b34610528576020366003190112610528576001600160a01b03610fa161052c565b165f52600e602052602061088e60405f20611ef4565b6001600160a01b03165f9081527f52c63247e1f47db19d5ce0460030c497f067ca4cebf71ba98eeadabe20bace016020526040902090565b6001600160a01b03165f9081527fe8b26c30fad74198956032a3533d903385d56dd795af560196f9c78d4af40d016020526040902090565b34610528576020366003190112610528576001600160a01b0361104861052c565b165f526005602052602060ff60405f2054166040519015158152f35b346105285761107236610643565b8101604082820312610528576001600160401b03918035838111610528578261109c918301611d6a565b906020926020820135858111610528576110b69201611d6a565b916110bf612588565b6110c7612588565b8151938411610835575f805160206131ae833981519152916110f2856110ed8554611b13565b612642565b602091601f861160011461112c5750938061112592610794965f926107965750508160011b915f199060031b1c19161790565b90556128a6565b5f805160206131ae8339815191525f529190601f1986167f2ae08a8e29253f69ac5d979a101956ab8f8d9d7ded63fa7a83b16fc47648eab0935f905b8282106111a757505091600193918761079498941061118f575b505050811b0190556128a6565b01515f1960f88460031b161c191690555f8080611182565b80600186978294978701518155019601940190611168565b34610528576020366003190112610528576001600160a01b036111e061052c565b165f527f5ab42ced628888259c08ac98db1eb0cf702fc1501344311d8b100cd1bfe4bb00602052602060405f2054604051908152f35b9161124a90949194600f60f81b845261123c60209660e0602087015260e0860190610400565b908482036040860152610400565b92606083015260018060a01b031660808201525f60a082015260c0818303910152602080845192838152019301915f5b828110611288575050505090565b83518552938101939281019260010161127a565b34610528575f366003190112610528577fa16a46d94261c7517cc8ff89f61c0ce93598e3c849801011dee649a6a557d100541580611343575b15611306576112e2611bb6565b6112ea611c8b565b9061049f6112f6611db0565b6040519384933091469186611216565b60405162461bcd60e51b81526020600482015260156024820152741152540dcc4c8e88155b9a5b9a5d1a585b1a5e9959605a1b6044820152606490fd5b507fa16a46d94261c7517cc8ff89f61c0ce93598e3c849801011dee649a6a557d10154156112d5565b3461052857602036600319011261052857600435611389426121e1565b65ffffffffffff81168210156113e7576113aa6113a5836121e1565b612243565b6001600160d01b038116156113dd576113c561049f91611e19565b90549060031b1c5b6040519081529081906020820190565b5061049f5f6113cd565b604051637669fc0f60e11b8152600481019290925265ffffffffffff166024820152604490fd5b34610528575f366003190112610528576020611429426121e1565b65ffffffffffff60405191168152f35b34610528575f366003190112610528576040515f5f805160206131ee83398151915280549061146782611b13565b808552916020916001918281169081156104fb57506001146114935761049f8661049381880382611b95565b5f90815293507f46a2803e59a4de4e7a4c574b1243f25977ac4c77d5a1a4a609b5394cebb4a2aa5b8385106114d8575050505081016020016104938261049f5f610483565b80548686018401529382019381016114bb565b34610528575f366003190112610528576020601254604051908152f35b346105285760203660031901126105285760206001600160d01b0361153b61153661153161052c565b610fef565b612407565b16604051908152f35b34610528575f366003190112610528576020601154604051908152f35b346105285760403660031901126105285761157a61052c565b6024356001600160401b038111610528575f9161159c83923690600401610616565b90816040519283928337810184815203915af46115db6115ba611dd6565b91610928604051938492151560208401526040808401526060830190610400565b805190602001fd5b34610528575f36600319011261052857602065ffffffffffff60015460a01c16604051908152f35b34610528575f36600319011261052857602060ff5f5460081c166040519015158152f35b34610528575f3660031901126105285760206040517f4a634bc14d77baf979756509ef4298c6f6318af357828612545267ee2eb792338152f35b346105285760403660031901126105285760206116a9611687610542565b6004355f526008835260405f209060018060a01b03165f5260205260405f2090565b54604051908152f35b3461052857604036600319011261052857602060ff6116f46116d2610542565b6004355f526009845260405f209060018060a01b03165f5260205260405f2090565b54166040519015158152f35b34610528575f3660031901126105285760206040517fc9feed28b4b1a1d11c6791da7bb7f6b8d33e831a4992a9383dead1ec2c82c35a8152f35b34610528575f366003190112610528576016546040516001600160a01b039091168152602090f35b346105285760403660031901126105285761178861177e61052c565b602435903361202a565b602060405160018152f35b34610528576020366003190112610528576004355f526007602052602060405f2054604051908152f35b34610528575f366003190112610528576003546040516001600160a01b039091168152602090f35b34610528575f366003190112610528576020600f54604051908152f35b34610528575f3660031901126105285760206040517fc9078c78bcaac2be1c77c160c539a489be2b72939771b1a6302fed3e2150c7458152f35b34610528575f36600319011261052857602065ffffffffffff60135460901c16604051908152f35b60ff81160361052857565b346105285760c03660031901126105285761188861052c565b6044359060243560643561189b81611864565b834211611923576119176107949461191e926040519060208201927fe48329057bfd03d55e49b547132e39cffd9c1820ad7b9d4c5307691425d15adf845260018060a01b03881660408401528660608401526080830152608082526118ff82611b7a565b61191260a435936084359351902061242f565b6124be565b91826124d6565b612375565b604051632341d78760e11b815260048101859052602490fd5b34610528575f366003190112610528576020601054604051908152f35b34610528575f36600319011261052857602065ffffffffffff60135460601c16604051908152f35b34610528575f366003190112610528576002546040516001600160a01b039091168152602090f35b34610528575f366003190112610528575f5460405160109190911c6001600160a01b03168152602090f35b34610528575f3660031901126105285760206040517fbae4ee3de6c709ff9a002e774c5b78cb381560b219213c88ae0f1e207c03c0238152f35b346105285760403660031901126105285760206116a9611a2c61052c565b610599611a37610542565b91610fb7565b34610528575f366003190112610528576020601554604051908152f35b34610528575f366003190112610528576020604051633b9aca008152f35b34610528575f366003190112610528576020600454604051908152f35b3461052857604036600319011261052857611aee61095c610928610936611aba61052c565b60405163f3fef3a360e01b60208201526001600160a01b039091166024808301919091523560448201529182906064820190565b905f6040518281525f8051602061322e83398151915260203392a361098e8133611f3e565b90600182811c92168015611b41575b6020831014611b2d57565b634e487b7160e01b5f52602260045260245ffd5b91607f1691611b22565b634e487b7160e01b5f52604160045260245ffd5b604081019081106001600160401b0382111761083557604052565b60a081019081106001600160401b0382111761083557604052565b90601f801991011681019081106001600160401b0382111761083557604052565b604051905f825f805160206131ce83398151915291825492611bd784611b13565b80845293602091600191828116908115611c655750600114611c05575b505050611c0392500383611b95565b565b5f9081527f42ad5d3e1f2e6e70edcf6d991b8a3023d3fca8047a131592f9edb9fd9b89d57d9590935091905b828410611c4d5750611c039450505081016020015f8080611bf4565b85548885018301529485019487945092810192611c31565b9250505060209250611c0394915060ff191682840152151560051b8201015f8080611bf4565b604051905f825f8051602061320e83398151915291825492611cac84611b13565b80845293602091600191828116908115611c655750600114611cd757505050611c0392500383611b95565b5f9081527f5f9ce34815f8e11431c7bb75a8e6886a91478f7ffc1dbb0a98dc240fddd76b759590935091905b828410611d1f5750611c039450505081016020015f8080611bf4565b85548885018301529485019487945092810192611d03565b60405190611c0382611b5f565b6001600160401b03811161083557601f01601f191660200190565b6040513d5f823e3d90fd5b81601f8201121561052857803590611d8182611d44565b92611d8f6040519485611b95565b8284526020838301011161052857815f926020809301838601378301015290565b604051602081018181106001600160401b03821117610835576040525f8152905f368137565b3d15611e00573d90611de782611d44565b91611df56040519384611b95565b82523d5f602084013e565b606090565b634e487b7160e01b5f52603260045260245ffd5b600b54811015611e4e57600b5f527f0175b7a638427703f0dbe7bb9bbf987a2551717b34e79f33b5b1008d1fa01db901905f90565b611e05565b8054821015611e4e575f5260205f2001905f90565b600a5480611ebb57505f5b6001600160d01b03811615611eb657600b54811015611e4e57600b5f527f0175b7a638427703f0dbe7bb9bbf987a2551717b34e79f33b5b1008d1fa01db9015490565b505f90565b805f19810111610c7757600a5f527fc65a7bb8d6351c1cf70c95a316cc6a92839c986682d98bc35f958f4883f9d2a7015460301c611e73565b611efd81612407565b6001600160d01b03811615611f22576001611f189201611e53565b90549060031b1c90565b50505f90565b9190826040910312610528576020825192015190565b6001600160a01b039081165f9081525f8051602061318e83398151915260205260408120549080527fd4fb29e10204005f1a39963c6862b79a755e22f0177c53f05cdc3786c702f97454611c039392908116911661299f565b5f8051602061318e8339815191526020527fd4fb29e10204005f1a39963c6862b79a755e22f0177c53f05cdc3786c702f974546001600160a01b039182165f9081526040902054611c039392908116911661299f565b6001600160a01b039081165f9081525f8051602061318e8339815191526020526040808220549383168252902054611c039392908216911661299f565b6001600160a01b03808216949392919085156121c957821680156121b1577f9b779b17422d0df92223018b32b4d1fa46e071723d6817e2486d003becc55f00600281541461219f57600290556001600160a01b0382165f908152600e6020526040902061209b90611ef4565b611ef4565b95848710612170576120d8611c0396976120c58560018060a01b03165f52600e60205260405f2090565b90876120d0426121e1565b910391612eab565b50506001600160a01b0384165f908152600e60205260409020612127906120fe426121e1565b6001600160a01b0387165f908152600e60205260409020889061212090611ef4565b0191612eab565b50506040518581525f8051602061322e83398151915290602090a361216b60017f9b779b17422d0df92223018b32b4d1fa46e071723d6817e2486d003becc55f0055565b611fed565b60405163391434e360e21b81526001600160a01b03841660048201526024810188905260448101869052606490fd5b604051633ee5aeb560e01b8152600490fd5b60405163ec442f0560e01b81525f6004820152602490fd5b604051634b637e8f60e11b81525f6004820152602490fd5b65ffffffffffff908181116121f4571690565b604490604051906306dfcc6560e41b8252603060048301526024820152fd5b634e487b7160e01b5f52601160045260245ffd5b5f19810191908211610c7757565b9060018201809211610c7757565b600a8054915f92806005811161230e575b5092905b8382106122a2575050508061226c57505f90565b61227590612227565b600a5f527fc65a7bb8d6351c1cf70c95a316cc6a92839c986682d98bc35f958f4883f9d2a8015460301c90565b9091928083169080841860011c8201809211610c7757845f5265ffffffffffff80837fc65a7bb8d6351c1cf70c95a316cc6a92839c986682d98bc35f958f4883f9d2a8015416908416105f146122fc5750925b9190612258565b93925061230890612235565b916122f5565b9061231882612af1565b8203918211610c7757600a5f5265ffffffffffff80837fc65a7bb8d6351c1cf70c95a316cc6a92839c986682d98bc35f958f4883f9d2a8015416908416105f1461236457505b5f612254565b935061236f90612235565b9261235e565b611c039161240161209660018060a01b0393848116805f525f8051602061318e83398151915260205260405f2095865491818316978892881680946bffffffffffffffffffffffff60a01b161790557f3134e8a2e6d97e929a7e54011ea5485d7d196dd5f0ba4d4ef95803e8e3fc257f5f80a46001600160a01b03165f908152600e6020526040902090565b9161299f565b8054806124145750505f90565b5f19918183810111610c77575f5260205f2001015460301c90565b612437612f6d565b61243f612fd7565b916040519260208401927f8b73c3c69bb8fe3d512ecc4cf759cc79239f7b179b0ffacaa9a75d522b39400f8452604085015260608401524660808401523060a084015260a0835260c08301918383106001600160401b038411176108355760429360e291846040528151902061190160f01b855260c282015201522090565b9161043593916124cd93612c7b565b90929192612d1b565b6001600160a01b0381165f9081527f5ab42ced628888259c08ac98db1eb0cf702fc1501344311d8b100cd1bfe4bb006020526040902080546001810190915591829003612521575050565b6040516301d4b62360e61b81526001600160a01b039190911660048201526024810191909152604490fd5b365f80375f8036817f00000000000000000000000000000000000000000000000000000000000000005af43d5f803e15612584573d5ff35b3d5ffd5b60ff7ff0c57e16840df040f15088dc2f81fe391c3923bec73e23a9662efc9c229c6a005460401c16156125b757565b604051631afcd79f60e31b8152600490fd5b601f81116125d5575050565b5f805160206131ce8339815191525f527f42ad5d3e1f2e6e70edcf6d991b8a3023d3fca8047a131592f9edb9fd9b89d57d906020601f840160051c83019310612638575b601f0160051c01905b81811061262d575050565b5f8155600101612622565b9091508190612619565b601f811161264e575050565b5f805160206131ae8339815191525f527f2ae08a8e29253f69ac5d979a101956ab8f8d9d7ded63fa7a83b16fc47648eab0906020601f840160051c830193106126b1575b601f0160051c01905b8181106126a6575050565b5f815560010161269b565b9091508190612692565b601f81116126c7575050565b5f8051602061320e8339815191525f527f5f9ce34815f8e11431c7bb75a8e6886a91478f7ffc1dbb0a98dc240fddd76b75906020601f840160051c8301931061272a575b601f0160051c01905b81811061271f575050565b5f8155600101612714565b909150819061270b565b601f8111612740575050565b5f805160206131ee8339815191525f527f46a2803e59a4de4e7a4c574b1243f25977ac4c77d5a1a4a609b5394cebb4a2aa906020601f840160051c830193106127a3575b601f0160051c01905b818110612798575050565b5f815560010161278d565b9091508190612784565b9081516001600160401b038111610835575f8051602061320e833981519152906127e0816127db8454611b13565b6126bb565b602080601f8311600114612815575081906128119394955f926107965750508160011b915f199060031b1c19161790565b9055565b90601f198316956128535f8051602061320e8339815191525f527f5f9ce34815f8e11431c7bb75a8e6886a91478f7ffc1dbb0a98dc240fddd76b7590565b925f905b88821061288e57505083600195969710612876575b505050811b019055565b01515f1960f88460031b161c191690555f808061286c565b80600185968294968601518155019501930190612857565b9081516001600160401b038111610835575f805160206131ee833981519152906128d9816128d48454611b13565b612734565b602080601f831160011461290a575081906128119394955f926107965750508160011b915f199060031b1c19161790565b90601f198316956129485f805160206131ee8339815191525f527f46a2803e59a4de4e7a4c574b1243f25977ac4c77d5a1a4a609b5394cebb4a2aa90565b925f905b88821061296a5750508360019596971061287657505050811b019055565b8060018596829496860151815501950193019061294c565b5f8061043593602081519101845af4612999611dd6565b91612da8565b6001600160a01b03808316939291908116908185141580612aca575b6129c7575b5050505050565b81612a3c575b5050826129dc575b80806129c0565b7fdec2bacdd2f05b59de34da9b523dff8be42e5e38e818c82fdb0bae774387a72491612a13612a0d612a1993610fef565b91612e0b565b90612e3e565b604080516001600160d01b039384168152919092166020820152a25f80806129d5565b612a4590610fef565b612a4e84612e0b565b612a57426121e1565b6001600160d01b03918280612a6b86612407565b169116900392828411610c77577fdec2bacdd2f05b59de34da9b523dff8be42e5e38e818c82fdb0bae774387a72493612ac092612aa792613077565b6040805192851683529316602082015291829190820190565b0390a25f806129cd565b508315156129bb565b8115612add570490565b634e487b7160e01b5f52601260045260245ffd5b600181111561043557600181600160801b811015612c0a575b612bb2612ba8612b9e612b94612b8a612b80612bbe97600488600160401b612bb99a1015612bfd575b640100000000811015612bf0575b62010000811015612be3575b610100811015612bd7575b6010811015612bcb575b1015612bc3575b60030260011c612b79818b612ad3565b0160011c90565b612b79818a612ad3565b612b798189612ad3565b612b798188612ad3565b612b798187612ad3565b612b798186612ad3565b8093612ad3565b821190565b900390565b60011b612b69565b811c9160021b91612b62565b60081c91811b91612b58565b60101c9160081b91612b4d565b60201c9160101b91612b41565b60401c9160201b91612b33565b50600160401b9050608082901c612b0a565b91905b838210612c2c5750505090565b9091928083169080841860011c8201809211610c7757845f5265ffffffffffff808360205f20015416908416105f14612c695750925b9190612c1f565b939250612c7590612235565b91612c62565b91907f7fffffffffffffffffffffffffffffff5d576e7357a4501ddfe92f46681b20a08411612cf2579160209360809260ff5f9560405194855216868401526040830152606082015282805260015afa15610b44575f516001600160a01b03811615612ce857905f905f90565b505f906001905f90565b5050505f9160039190565b60041115612d0757565b634e487b7160e01b5f52602160045260245ffd5b612d2481612cfd565b80612d2d575050565b612d3681612cfd565b60018103612d505760405163f645eedf60e01b8152600490fd5b612d5981612cfd565b60028103612d7a5760405163fce698f760e01b815260048101839052602490fd5b80612d86600392612cfd565b14612d8e5750565b6040516335e2f38360e21b81526004810191909152602490fd5b90612dcf5750805115612dbd57805190602001fd5b60405163d6bda27560e01b8152600490fd5b81511580612e02575b612de0575090565b604051639996b31560e01b81526001600160a01b039091166004820152602490fd5b50803b15612dd8565b6001600160d01b0390818111612e1f571690565b604490604051906306dfcc6560e41b825260d060048301526024820152fd5b90612e48426121e1565b6001600160d01b03918280612e5c86612407565b16911601918211610c775761066d92613077565b90815491600160401b8310156108355782612e93916001611c0395018155611e53565b90919082549060031b91821b915f19901b1916179055565b90929192600182019081548015612f3d575b5084612ec884613154565b50949092845493612ed883611ef4565b9681612f28575b5015612f05575050505f198101908111610c7757612e938591612f0193611e53565b9190565b612f01949293612f21926001600160d01b039091169190613077565b5050612e70565b65ffffffffffff83811691161490505f612edf565b600160401b81101561083557806001612f599201845583611e53565b8154905f199060031b1b191690555f612ebd565b612f75611bb6565b8051908115612f85576020012090565b50507fa16a46d94261c7517cc8ff89f61c0ce93598e3c849801011dee649a6a557d100548015612fb25790565b507fc5d2460186f7233c927e7db2dcc703c0e500b653ca82273b7bfad8045d85a47090565b612fdf611c8b565b8051908115612fef576020012090565b50507fa16a46d94261c7517cc8ff89f61c0ce93598e3c849801011dee649a6a557d101548015612fb25790565b8054600160401b8110156108355761303991600182018155611e53565b61306457815160209092015160301b65ffffffffffff191665ffffffffffff92909216919091179055565b634e487b7160e01b5f525f60045260245ffd5b8054929392801561312a5761308e61309991612227565b825f5260205f200190565b9182549265ffffffffffff91828516928116808411613118578793036130df57506130d892509065ffffffffffff82549181199060301b169116179055565b60301c9190565b915050613113916130ff6130f1611d37565b65ffffffffffff9093168352565b6001600160d01b038616602083015261301c565b6130d8565b604051632520601d60e01b8152600490fd5b509061314f9161313b6130f1611d37565b6001600160d01b038516602083015261301c565b5f9190565b8054806131655750505f905f905f90565b5f19918183810111610c77575f5260205f2001015460019165ffffffffffff82169160301c9056fee8b26c30fad74198956032a3533d903385d56dd795af560196f9c78d4af40d0052c63247e1f47db19d5ce0460030c497f067ca4cebf71ba98eeadabe20bace03a16a46d94261c7517cc8ff89f61c0ce93598e3c849801011dee649a6a557d10252c63247e1f47db19d5ce0460030c497f067ca4cebf71ba98eeadabe20bace04a16a46d94261c7517cc8ff89f61c0ce93598e3c849801011dee649a6a557d103ddf252ad1be2c89b69c2b068fc378daa952ba7f163c4a11628f55a4df523b3efa2646970667358221220827f00f236bd8fb03311d50cc87e61e6647c13ad68c3cd8fbda5390c520988ed64736f6c63430008190033","linkReferences":{}},"methodIdentifiers":{"CLOCK_MODE()":"4bf5d7e9","DEPOSITOR_WHITELIST_ROLE()":"1b66c9e1","DEPOSIT_LIMIT_SET_ROLE()":"a21a1df9","DEPOSIT_WHITELIST_SET_ROLE()":"db388715","EPOCH_DURATION_SET_ROLE()":"61819dd8","FLASH_FEE_BASE()":"ecc98f05","FLASH_FEE_RATE_SET_ROLE()":"bc46f722","FLASH_FEE_RECEIVER_SET_ROLE()":"31d9736c","FLASH_LOAN_ENABLED_SET_ROLE()":"a66b3a73","IS_DEPOSIT_LIMIT_SET_ROLE()":"1415519b","RETURN_VALUE()":"653b04cd","_VaultTokenized_init(bytes)":"7bd00ae8","_VaultVotes_init(bytes)":"0eac105e","_epochDuration()":"2fa27fae","_epochDurationInit()":"9f9962dd","_epochDurationInitIndex()":"9b4bae3e","_epochDurationSetEpochsDelay()":"bba6ff4a","_nextEpochDuration()":"c1bc6f51","_nextEpochDurationInit()":"cc52aee7","_nextEpochDurationSetEpochsDelay()":"c4db46fc","_nextEpochInitIndex()":"2749f9c4","_prevEpochDuration()":"5a36aa74","_prevEpochDurationInit()":"6e0f2455","_prevEpochDurationInitIndex()":"98ccba4a","allowance(address,address)":"dd62ed3e","approve(address,uint256)":"095ea7b3","balanceOf(address)":"70a08231","burner()":"27810b6e","clock()":"91ddadf4","collateral()":"d8dfeb45","decimals()":"313ce567","delegate(address)":"5c19a95c","delegateBySig(address,uint256,uint256,uint8,bytes32,bytes32)":"c3cda520","delegates(address)":"587cde1e","delegator()":"ce9b7930","deposit(address,uint256)":"47e7ef24","depositLimit()":"ecf70858","depositWhitelist()":"48d3b775","eip712Domain()":"84b0196e","flashFeeRate()":"e945da7f","flashFeeReceiver()":"a8b24f9a","flashLoanEnabled()":"65d61c6c","getPastTotalSupply(uint256)":"8e539e8c","getPastVotes(address,uint256)":"3a46b1a8","getVotes(address)":"9ab24eb0","isDelegatorInitialized()":"50861adc","isDepositLimit()":"a1b12202","isDepositorWhitelisted(address)":"794b15b7","isSlasherInitialized()":"6ec1e3f8","isWithdrawalsClaimed(uint256,address)":"a5d03223","name()":"06fdde03","nonces(address)":"7ecebe00","redeem(address,uint256)":"1e9a6950","slasher()":"b1344271","staticDelegateCall(address,bytes)":"9f86fd85","symbol()":"95d89b41","totalSupply()":"18160ddd","transfer(address,uint256)":"a9059cbb","transferFrom(address,address,uint256)":"23b872dd","withdraw(address,uint256)":"f3fef3a3","withdrawalShares(uint256)":"afba70ad","withdrawalSharesOf(uint256,address)":"a3b54172","withdrawals(uint256)":"5cc07076"},"id":112}