{"abi":[{"type":"constructor","inputs":[{"name":"baseImplementation","type":"address","internalType":"address"}],"stateMutability":"nonpayable"},{"type":"fallback","stateMutability":"payable"},{"type":"function","name":"CLOCK_MODE","inputs":[],"outputs":[{"name":"","type":"string","internalType":"string"}],"stateMutability":"view"},{"type":"function","name":"DEPOSITOR_WHITELIST_ROLE","inputs":[],"outputs":[{"name":"","type":"bytes32","internalType":"bytes32"}],"stateMutability":"view"},{"type":"function","name":"DEPOSIT_LIMIT_SET_ROLE","inputs":[],"outputs":[{"name":"","type":"bytes32","internalType":"bytes32"}],"stateMutability":"view"},{"type":"function","name":"DEPOSIT_WHITELIST_SET_ROLE","inputs":[],"outputs":[{"name":"","type":"bytes32","internalType":"bytes32"}],"stateMutability":"view"},{"type":"function","name":"EPOCH_DURATION_SET_ROLE","inputs":[],"outputs":[{"name":"","type":"bytes32","internalType":"bytes32"}],"stateMutability":"view"},{"type":"function","name":"FLASH_FEE_BASE","inputs":[],"outputs":[{"name":"","type":"uint256","internalType":"uint256"}],"stateMutability":"view"},{"type":"function","name":"FLASH_FEE_RATE_SET_ROLE","inputs":[],"outputs":[{"name":"","type":"bytes32","internalType":"bytes32"}],"stateMutability":"view"},{"type":"function","name":"FLASH_FEE_RECEIVER_SET_ROLE","inputs":[],"outputs":[{"name":"","type":"bytes32","internalType":"bytes32"}],"stateMutability":"view"},{"type":"function","name":"FLASH_LOAN_ENABLED_SET_ROLE","inputs":[],"outputs":[{"name":"","type":"bytes32","internalType":"bytes32"}],"stateMutability":"view"},{"type":"function","name":"IS_DEPOSIT_LIMIT_SET_ROLE","inputs":[],"outputs":[{"name":"","type":"bytes32","internalType":"bytes32"}],"stateMutability":"view"},{"type":"function","name":"RETURN_VALUE","inputs":[],"outputs":[{"name":"","type":"bytes32","internalType":"bytes32"}],"stateMutability":"view"},{"type":"function","name":"_VaultTokenized_init","inputs":[{"name":"name","type":"string","internalType":"string"},{"name":"symbol","type":"string","internalType":"string"}],"outputs":[],"stateMutability":"nonpayable"},{"type":"function","name":"_VaultVotes_init","inputs":[],"outputs":[],"stateMutability":"nonpayable"},{"type":"function","name":"_epochDuration","inputs":[],"outputs":[{"name":"","type":"uint48","internalType":"uint48"}],"stateMutability":"view"},{"type":"function","name":"_epochDurationInit","inputs":[],"outputs":[{"name":"","type":"uint48","internalType":"uint48"}],"stateMutability":"view"},{"type":"function","name":"_epochDurationInitIndex","inputs":[],"outputs":[{"name":"","type":"uint256","internalType":"uint256"}],"stateMutability":"view"},{"type":"function","name":"_epochDurationSetEpochsDelay","inputs":[],"outputs":[{"name":"","type":"uint256","internalType":"uint256"}],"stateMutability":"view"},{"type":"function","name":"_nextEpochDuration","inputs":[],"outputs":[{"name":"","type":"uint48","internalType":"uint48"}],"stateMutability":"view"},{"type":"function","name":"_nextEpochDurationInit","inputs":[],"outputs":[{"name":"","type":"uint48","internalType":"uint48"}],"stateMutability":"view"},{"type":"function","name":"_nextEpochDurationSetEpochsDelay","inputs":[],"outputs":[{"name":"","type":"uint256","internalType":"uint256"}],"stateMutability":"view"},{"type":"function","name":"_nextEpochInitIndex","inputs":[],"outputs":[{"name":"","type":"uint256","internalType":"uint256"}],"stateMutability":"view"},{"type":"function","name":"_prevEpochDuration","inputs":[],"outputs":[{"name":"","type":"uint48","internalType":"uint48"}],"stateMutability":"view"},{"type":"function","name":"_prevEpochDurationInit","inputs":[],"outputs":[{"name":"","type":"uint48","internalType":"uint48"}],"stateMutability":"view"},{"type":"function","name":"_prevEpochDurationInitIndex","inputs":[],"outputs":[{"name":"","type":"uint256","internalType":"uint256"}],"stateMutability":"view"},{"type":"function","name":"allowance","inputs":[{"name":"owner","type":"address","internalType":"address"},{"name":"spender","type":"address","internalType":"address"}],"outputs":[{"name":"","type":"uint256","internalType":"uint256"}],"stateMutability":"view"},{"type":"function","name":"approve","inputs":[{"name":"spender","type":"address","internalType":"address"},{"name":"value","type":"uint256","internalType":"uint256"}],"outputs":[{"name":"","type":"bool","internalType":"bool"}],"stateMutability":"nonpayable"},{"type":"function","name":"balanceOf","inputs":[{"name":"account","type":"address","internalType":"address"}],"outputs":[{"name":"","type":"uint256","internalType":"uint256"}],"stateMutability":"view"},{"type":"function","name":"burner","inputs":[],"outputs":[{"name":"","type":"address","internalType":"address"}],"stateMutability":"view"},{"type":"function","name":"clock","inputs":[],"outputs":[{"name":"","type":"uint48","internalType":"uint48"}],"stateMutability":"view"},{"type":"function","name":"collateral","inputs":[],"outputs":[{"name":"","type":"address","internalType":"address"}],"stateMutability":"view"},{"type":"function","name":"decimals","inputs":[],"outputs":[{"name":"","type":"uint8","internalType":"uint8"}],"stateMutability":"view"},{"type":"function","name":"delegate","inputs":[{"name":"delegatee","type":"address","internalType":"address"}],"outputs":[],"stateMutability":"nonpayable"},{"type":"function","name":"delegateBySig","inputs":[{"name":"delegatee","type":"address","internalType":"address"},{"name":"nonce","type":"uint256","internalType":"uint256"},{"name":"expiry","type":"uint256","internalType":"uint256"},{"name":"v","type":"uint8","internalType":"uint8"},{"name":"r","type":"bytes32","internalType":"bytes32"},{"name":"s","type":"bytes32","internalType":"bytes32"}],"outputs":[],"stateMutability":"nonpayable"},{"type":"function","name":"delegates","inputs":[{"name":"account","type":"address","internalType":"address"}],"outputs":[{"name":"","type":"address","internalType":"address"}],"stateMutability":"view"},{"type":"function","name":"delegator","inputs":[],"outputs":[{"name":"","type":"address","internalType":"address"}],"stateMutability":"view"},{"type":"function","name":"deposit","inputs":[{"name":"onBehalfOf","type":"address","internalType":"address"},{"name":"amount","type":"uint256","internalType":"uint256"}],"outputs":[{"name":"depositedAmount","type":"uint256","internalType":"uint256"},{"name":"mintedShares","type":"uint256","internalType":"uint256"}],"stateMutability":"nonpayable"},{"type":"function","name":"depositLimit","inputs":[],"outputs":[{"name":"","type":"uint256","internalType":"uint256"}],"stateMutability":"view"},{"type":"function","name":"depositWhitelist","inputs":[],"outputs":[{"name":"","type":"bool","internalType":"bool"}],"stateMutability":"view"},{"type":"function","name":"eip712Domain","inputs":[],"outputs":[{"name":"fields","type":"bytes1","internalType":"bytes1"},{"name":"name","type":"string","internalType":"string"},{"name":"version","type":"string","internalType":"string"},{"name":"chainId","type":"uint256","internalType":"uint256"},{"name":"verifyingContract","type":"address","internalType":"address"},{"name":"salt","type":"bytes32","internalType":"bytes32"},{"name":"extensions","type":"uint256[]","internalType":"uint256[]"}],"stateMutability":"view"},{"type":"function","name":"flashFeeRate","inputs":[],"outputs":[{"name":"","type":"uint256","internalType":"uint256"}],"stateMutability":"view"},{"type":"function","name":"flashFeeReceiver","inputs":[],"outputs":[{"name":"","type":"address","internalType":"address"}],"stateMutability":"view"},{"type":"function","name":"flashLoanEnabled","inputs":[],"outputs":[{"name":"","type":"bool","internalType":"bool"}],"stateMutability":"view"},{"type":"function","name":"getPastTotalSupply","inputs":[{"name":"timepoint","type":"uint256","internalType":"uint256"}],"outputs":[{"name":"","type":"uint256","internalType":"uint256"}],"stateMutability":"view"},{"type":"function","name":"getPastVotes","inputs":[{"name":"account","type":"address","internalType":"address"},{"name":"timepoint","type":"uint256","internalType":"uint256"}],"outputs":[{"name":"","type":"uint256","internalType":"uint256"}],"stateMutability":"view"},{"type":"function","name":"getVotes","inputs":[{"name":"account","type":"address","internalType":"address"}],"outputs":[{"name":"","type":"uint256","internalType":"uint256"}],"stateMutability":"view"},{"type":"function","name":"isDelegatorInitialized","inputs":[],"outputs":[{"name":"","type":"bool","internalType":"bool"}],"stateMutability":"view"},{"type":"function","name":"isDepositLimit","inputs":[],"outputs":[{"name":"","type":"bool","internalType":"bool"}],"stateMutability":"view"},{"type":"function","name":"isDepositorWhitelisted","inputs":[{"name":"account","type":"address","internalType":"address"}],"outputs":[{"name":"value","type":"bool","internalType":"bool"}],"stateMutability":"view"},{"type":"function","name":"isSlasherInitialized","inputs":[],"outputs":[{"name":"","type":"bool","internalType":"bool"}],"stateMutability":"view"},{"type":"function","name":"isWithdrawalsClaimed","inputs":[{"name":"epoch","type":"uint256","internalType":"uint256"},{"name":"account","type":"address","internalType":"address"}],"outputs":[{"name":"value","type":"bool","internalType":"bool"}],"stateMutability":"view"},{"type":"function","name":"name","inputs":[],"outputs":[{"name":"","type":"string","internalType":"string"}],"stateMutability":"view"},{"type":"function","name":"nonces","inputs":[{"name":"owner","type":"address","internalType":"address"}],"outputs":[{"name":"","type":"uint256","internalType":"uint256"}],"stateMutability":"view"},{"type":"function","name":"redeem","inputs":[{"name":"claimer","type":"address","internalType":"address"},{"name":"shares","type":"uint256","internalType":"uint256"}],"outputs":[{"name":"withdrawnAssets","type":"uint256","internalType":"uint256"},{"name":"mintedShares","type":"uint256","internalType":"uint256"}],"stateMutability":"nonpayable"},{"type":"function","name":"slasher","inputs":[],"outputs":[{"name":"","type":"address","internalType":"address"}],"stateMutability":"view"},{"type":"function","name":"staticDelegateCall","inputs":[{"name":"target","type":"address","internalType":"address"},{"name":"data","type":"bytes","internalType":"bytes"}],"outputs":[],"stateMutability":"nonpayable"},{"type":"function","name":"symbol","inputs":[],"outputs":[{"name":"","type":"string","internalType":"string"}],"stateMutability":"view"},{"type":"function","name":"totalSupply","inputs":[],"outputs":[{"name":"","type":"uint256","internalType":"uint256"}],"stateMutability":"view"},{"type":"function","name":"transfer","inputs":[{"name":"to","type":"address","internalType":"address"},{"name":"value","type":"uint256","internalType":"uint256"}],"outputs":[{"name":"","type":"bool","internalType":"bool"}],"stateMutability":"nonpayable"},{"type":"function","name":"transferFrom","inputs":[{"name":"from","type":"address","internalType":"address"},{"name":"to","type":"address","internalType":"address"},{"name":"value","type":"uint256","internalType":"uint256"}],"outputs":[{"name":"","type":"bool","internalType":"bool"}],"stateMutability":"nonpayable"},{"type":"function","name":"withdraw","inputs":[{"name":"claimer","type":"address","internalType":"address"},{"name":"amount","type":"uint256","internalType":"uint256"}],"outputs":[{"name":"burnedShares","type":"uint256","internalType":"uint256"},{"name":"mintedShares","type":"uint256","internalType":"uint256"}],"stateMutability":"nonpayable"},{"type":"function","name":"withdrawalShares","inputs":[{"name":"epoch","type":"uint256","internalType":"uint256"}],"outputs":[{"name":"amount","type":"uint256","internalType":"uint256"}],"stateMutability":"view"},{"type":"function","name":"withdrawalSharesOf","inputs":[{"name":"epoch","type":"uint256","internalType":"uint256"},{"name":"account","type":"address","internalType":"address"}],"outputs":[{"name":"amount","type":"uint256","internalType":"uint256"}],"stateMutability":"view"},{"type":"function","name":"withdrawals","inputs":[{"name":"epoch","type":"uint256","internalType":"uint256"}],"outputs":[{"name":"amount","type":"uint256","internalType":"uint256"}],"stateMutability":"view"},{"type":"event","name":"Approval","inputs":[{"name":"owner","type":"address","indexed":true,"internalType":"address"},{"name":"spender","type":"address","indexed":true,"internalType":"address"},{"name":"value","type":"uint256","indexed":false,"internalType":"uint256"}],"anonymous":false},{"type":"event","name":"DelegateChanged","inputs":[{"name":"delegator","type":"address","indexed":true,"internalType":"address"},{"name":"fromDelegate","type":"address","indexed":true,"internalType":"address"},{"name":"toDelegate","type":"address","indexed":true,"internalType":"address"}],"anonymous":false},{"type":"event","name":"DelegateVotesChanged","inputs":[{"name":"delegate","type":"address","indexed":true,"internalType":"address"},{"name":"previousVotes","type":"uint256","indexed":false,"internalType":"uint256"},{"name":"newVotes","type":"uint256","indexed":false,"internalType":"uint256"}],"anonymous":false},{"type":"event","name":"EIP712DomainChanged","inputs":[],"anonymous":false},{"type":"event","name":"Initialized","inputs":[{"name":"version","type":"uint64","indexed":false,"internalType":"uint64"}],"anonymous":false},{"type":"event","name":"Transfer","inputs":[{"name":"from","type":"address","indexed":true,"internalType":"address"},{"name":"to","type":"address","indexed":true,"internalType":"address"},{"name":"value","type":"uint256","indexed":false,"internalType":"uint256"}],"anonymous":false},{"type":"error","name":"AddressEmptyCode","inputs":[{"name":"target","type":"address","internalType":"address"}]},{"type":"error","name":"CheckpointUnorderedInsertion","inputs":[]},{"type":"error","name":"ECDSAInvalidSignature","inputs":[]},{"type":"error","name":"ECDSAInvalidSignatureLength","inputs":[{"name":"length","type":"uint256","internalType":"uint256"}]},{"type":"error","name":"ECDSAInvalidSignatureS","inputs":[{"name":"s","type":"bytes32","internalType":"bytes32"}]},{"type":"error","name":"ERC20InsufficientAllowance","inputs":[{"name":"spender","type":"address","internalType":"address"},{"name":"allowance","type":"uint256","internalType":"uint256"},{"name":"needed","type":"uint256","internalType":"uint256"}]},{"type":"error","name":"ERC20InsufficientBalance","inputs":[{"name":"sender","type":"address","internalType":"address"},{"name":"balance","type":"uint256","internalType":"uint256"},{"name":"needed","type":"uint256","internalType":"uint256"}]},{"type":"error","name":"ERC20InvalidApprover","inputs":[{"name":"approver","type":"address","internalType":"address"}]},{"type":"error","name":"ERC20InvalidReceiver","inputs":[{"name":"receiver","type":"address","internalType":"address"}]},{"type":"error","name":"ERC20InvalidSender","inputs":[{"name":"sender","type":"address","internalType":"address"}]},{"type":"error","name":"ERC20InvalidSpender","inputs":[{"name":"spender","type":"address","internalType":"address"}]},{"type":"error","name":"ERC5805FutureLookup","inputs":[{"name":"timepoint","type":"uint256","internalType":"uint256"},{"name":"clock","type":"uint48","internalType":"uint48"}]},{"type":"error","name":"ERC6372InconsistentClock","inputs":[]},{"type":"error","name":"FailedCall","inputs":[]},{"type":"error","name":"InvalidAccountNonce","inputs":[{"name":"account","type":"address","internalType":"address"},{"name":"currentNonce","type":"uint256","internalType":"uint256"}]},{"type":"error","name":"InvalidData","inputs":[]},{"type":"error","name":"InvalidInitialization","inputs":[]},{"type":"error","name":"InvalidOrigin","inputs":[]},{"type":"error","name":"NotInitializing","inputs":[]},{"type":"error","name":"ReentrancyGuardReentrantCall","inputs":[]},{"type":"error","name":"SafeCastOverflowedUintDowncast","inputs":[{"name":"bits","type":"uint8","internalType":"uint8"},{"name":"value","type":"uint256","internalType":"uint256"}]},{"type":"error","name":"SafeSupplyExceeded","inputs":[]},{"type":"error","name":"VotesExpiredSignature","inputs":[{"name":"expiry","type":"uint256","internalType":"uint256"}]}],"bytecode":{"object":"0x60a034606d57601f61328338819003918201601f19168301916001600160401b03831184841017607157808492602094604052833981010312606d57516001600160a01b0381168103606d576080526040516131fd9081610086823960805181818161071401526124ca0152f35b5f80fd5b634e487b7160e01b5f52604160045260245ffdfe6080604052600436106124c0575f3560e01c806306fdde03146103fb578063095ea7b3146103f65780631415519b146103f157806318160ddd146103ec5780631b66c9e1146103e75780631e9a6950146103e257806323b872dd146103dd5780632749f9c4146103d857806327810b6e146103d35780632fa27fae146103ce578063313ce567146103c957806331d9736c146103c45780633a46b1a8146103bf57806347e7ef24146103ba57806348d3b775146103b55780634bf5d7e9146103b05780634f4e823d146103ab57806350861adc146103a6578063587cde1e146103a15780635a36aa741461039c5780635c19a95c146103975780635cc0707614610392578063602bd8e71461038d57806361819dd814610388578063653b04cd1461038357806365d61c6c1461037e5780636e0f2455146103795780636ec1e3f81461037457806370a082311461036f578063794b15b71461036a5780637ecebe001461036557806384b0196e146103605780638e539e8c1461035b57806391ddadf41461035657806395d89b411461035157806398ccba4a1461034c5780639ab24eb0146103475780639b4bae3e146103425780639f86fd851461033d5780639f9962dd14610338578063a1b1220214610333578063a21a1df91461032e578063a3b5417214610329578063a5d0322314610324578063a66b3a731461031f578063a8b24f9a1461031a578063a9059cbb14610315578063afba70ad14610310578063b13442711461030b578063bba6ff4a14610306578063bc46f72214610301578063c1bc6f51146102fc578063c3cda520146102f7578063c4db46fc146102f2578063cc52aee7146102ed578063ce9b7930146102e8578063d8dfeb45146102e3578063db388715146102de578063dd62ed3e146102d9578063e945da7f146102d4578063ecc98f05146102cf578063ecf70858146102ca5763f3fef3a3036124c057611a7c565b611a5f565b611a41565b611a24565b6119f5565b6119bb565b611990565b611968565b611940565b611923565b611856565b611823565b6117e9565b6117cc565b6117a4565b61177a565b611749565b611721565b6116e7565b611699565b611650565b611616565b6115f2565b6115ca565b611547565b61152a565b6114ee565b6114d1565b61141f565b6113f4565b611352565b611282565b6111a5565b611168565b6110c1565b61109c565b611077565b611052565b611018565b610fde565b610e71565b610e19565b610df7565b610dcf565b610d8a565b610d65565b610b9b565b610b4d565b610b2c565b610a81565b61095f565b610925565b61088e565b61086e565b610846565b610829565b61077b565b6106ac565b610672565b610650565b610616565b610558565b610438565b805180835260209291819084018484015e5f828201840152601f01601f1916010190565b906020610435928181520190610400565b90565b34610528575f366003190112610528576040515f5f8051602061312883398151915280549061046682611afa565b808552916020916001918281169081156104fb57506001146104a3575b61049f8661049381880382611b7e565b60405191829182610424565b0390f35b5f90815293507f2ae08a8e29253f69ac5d979a101956ab8f8d9d7ded63fa7a83b16fc47648eab05b8385106104e8575050505081016020016104938261049f5f610483565b80548686018401529382019381016104cb565b905086955061049f9693506020925061049394915060ff191682840152151560051b82010192935f610483565b5f80fd5b600435906001600160a01b038216820361052857565b602435906001600160a01b038216820361052857565b346105285760403660031901126105285761057161052c565b60243533156105fe576001600160a01b0382169182156105e6576105ae8291610599336110f8565b9060018060a01b03165f5260205260405f2090565b556040519081527f8c5be1e5ebec7d5bd14f71427d1e84f3dd0314c0f7b2291e5b200ac8c7c3b92560203392a3602060405160018152f35b604051634a1406b160e11b81525f6004820152602490fd5b60405163e602df0560e01b81525f6004820152602490fd5b34610528575f3660031901126105285760206040517fc6aaadd7371d5e8f9ed6849dd66a66573a3ba37167d03f4352c9ba5693678fac8152f35b34610528575f36600319011261052857602061066a611e44565b604051908152f35b34610528575f3660031901126105285760206040517f9c56d972d63cbb4195b3c1484691dfc220fa96a4c47e7b6613bd82a022029e068152f35b346105285760403660031901126105285761076a6107126107476107386106d161052c565b6040516301e9a69560e41b60208201526001600160a01b0390911660248281019190915235604482018190529381606481015b03601f198101835282611b7e565b7f00000000000000000000000000000000000000000000000000000000000000006124fc565b60208082518301019101611f04565b9290915f6040518281525f805160206131a883398151915260203392a333611f1a565b604080519182526020820192909252f35b346105285760603660031901126105285761079461052c565b61079c610542565b604435906107ad33610599856110f8565b5492600184016107ce575b6107c29350612006565b60405160018152602090f35b828410610803576001600160a01b038116156105fe5733156105e657826107c294036107fd33610599846110f8565b556107b8565b604051637dc7a0d960e11b81523360048201526024810185905260448101849052606490fd5b34610528575f366003190112610528576020601454604051908152f35b34610528575f366003190112610528576001546040516001600160a01b039091168152602090f35b34610528575f36600319011261052857602060015460d01c604051908152f35b34610528575f366003190112610528575f5460405163313ce56760e01b8152906020908290600490829060101c6001600160a01b03165afa8015610920575f906108e3575b60405160ff919091168152602090f35b506020813d602011610918575b816108fd60209383611b7e565b810103126105285761049f90516109138161184b565b6108d3565b3d91506108f0565b611d21565b34610528575f3660031901126105285760206040517f5295aaaa27fdd659293eafacbfafbc634c1b96298957e87de5f59308cdbfdad18152f35b346105285760403660031901126105285761097861052c565b6024359061098542612154565b9065ffffffffffff91828116841015610a5857506109a56109ab91611130565b92612154565b8254905f908260058111610a0a575b506109c6935084612796565b90816109ed57505061049f5f5b6040516001600160d01b0390911681529081906020820190565b6109f961049f9261219a565b905f5260205f20015460301c6109d3565b9092610a158261266b565b8203918211610a53576109c694865f52808360205f20015416908516105f14610a415750915b5f6109ba565b929150610a4d906121a8565b90610a3b565b612186565b604051637669fc0f60e11b81526004810185905265ffffffffffff919091166024820152604490fd5b3461052857604036600319011261052857610a9a61052c565b6040516311f9fbc960e21b60208201526001600160a01b038216602480830191909152356044820152610ad890610738906107128160648101610704565b916040518381525f5f805160206131a8833981519152602060018060a01b03851693a36001600160d01b03610b0b611e44565b11610b1a578261076a91611f73565b604051630a84eab560e11b8152600490fd5b34610528575f36600319011261052857602060ff5f54166040519015158152f35b34610528575f3660031901126105285761049f604051610b6c81611b46565b600e81526d06d6f64653d74696d657374616d760941b6020820152604051918291602083526020830190610400565b34610528575f36600319011261052857604051610bb781611b46565b600a8152602090695661756c74566f74657360b01b602082015260405190610bde82611b46565b60019260018352603160f81b6020840152610bf76127f5565b610bff6127f5565b81519067ffffffffffffffff8211610d60575f8051602061314883398151915292610c3383610c2e8654611afa565b612836565b602091601f8411600114610ccc5750610c6f9550610c6892915f9183610cc1575b50508160011b915f199060031b1c19161790565b9055612a1a565b610c975f7fa16a46d94261c7517cc8ff89f61c0ce93598e3c849801011dee649a6a557d10055565b610cbf5f7fa16a46d94261c7517cc8ff89f61c0ce93598e3c849801011dee649a6a557d10155565b005b015190505f80610c54565b5f805160206131488339815191525f529195601f198416907f42ad5d3e1f2e6e70edcf6d991b8a3023d3fca8047a131592f9edb9fd9b89d57d935f915b838310610d495750505095839291600194610c6f9810610d31575b505050811b019055612a1a565b01515f1960f88460031b161c191690555f8080610d24565b848a01518655988101989485019491810191610d09565b611b32565b34610528575f36600319011261052857602060ff60025460a01c166040519015158152f35b346105285760203660031901126105285760206001600160a01b0380610dae61052c565b165f525f80516020613108833981519152825260405f205416604051908152f35b34610528575f36600319011261052857602065ffffffffffff60135460301c16604051908152f35b3461052857602036600319011261052857610cbf610e1361052c565b336122e8565b34610528576020366003190112610528576004355f526006602052602060405f2054604051908152f35b9181601f840112156105285782359167ffffffffffffffff8311610528576020838186019501011161052857565b346105285760403660031901126105285767ffffffffffffffff60043581811161052857610ea3903690600401610e43565b6024359083821161052857610ecc610ec2610ed4933690600401610e43565b9490923691611d55565b923691611d55565b90610edd6127f5565b610ee56127f5565b8051928311610d60575f8051602061312883398151915290610f1084610f0b8454611afa565b6128af565b602090816001601f871114610f4b57509380610f4492610cbf965f92610cc15750508160011b915f199060031b1c19161790565b9055612b14565b5f805160206131288339815191525f529190601f1986167f2ae08a8e29253f69ac5d979a101956ab8f8d9d7ded63fa7a83b16fc47648eab0935f905b828210610fc6575050916001939187610cbf989410610fae575b505050811b019055612b14565b01515f1960f88460031b161c191690555f8080610fa1565b80600186978294978701518155019601940190610f87565b34610528575f3660031901126105285760206040517f591f6a0113ada8aff67efadec8ae2fa585cb4ebf4e1f8fc1205ffbeff98d00ec8152f35b34610528575f3660031901126105285760206040517f439148f0bbc682ca079e46d6e2c2f0c1e3b820f1a291b069d8882abf8cf18dd98152f35b34610528575f36600319011261052857602060ff60165460a01c166040519015158152f35b34610528575f36600319011261052857602065ffffffffffff60135416604051908152f35b34610528575f36600319011261052857602060ff60035460a01c166040519015158152f35b34610528576020366003190112610528576001600160a01b036110e261052c565b165f52600e602052602061066a60405f20611ed0565b6001600160a01b03165f9081527f52c63247e1f47db19d5ce0460030c497f067ca4cebf71ba98eeadabe20bace016020526040902090565b6001600160a01b03165f9081527fe8b26c30fad74198956032a3533d903385d56dd795af560196f9c78d4af40d016020526040902090565b34610528576020366003190112610528576001600160a01b0361118961052c565b165f526005602052602060ff60405f2054166040519015158152f35b34610528576020366003190112610528576001600160a01b036111c661052c565b165f527f5ab42ced628888259c08ac98db1eb0cf702fc1501344311d8b100cd1bfe4bb00602052602060405f2054604051908152f35b9161123090949194600f60f81b845261122260209660e0602087015260e0860190610400565b908482036040860152610400565b92606083015260018060a01b031660808201525f60a082015260c0818303910152602080845192838152019301915f5b82811061126e575050505090565b835185529381019392810192600101611260565b34610528575f366003190112610528577fa16a46d94261c7517cc8ff89f61c0ce93598e3c849801011dee649a6a557d100541580611329575b156112ec576112c8611ba0565b6112d0611c75565b9061049f6112dc611d8b565b60405193849330914691866111fc565b60405162461bcd60e51b81526020600482015260156024820152741152540dcc4c8e88155b9a5b9a5d1a585b1a5e9959605a1b6044820152606490fd5b507fa16a46d94261c7517cc8ff89f61c0ce93598e3c849801011dee649a6a557d10154156112bb565b346105285760203660031901126105285760043561136f42612154565b65ffffffffffff81168210156113cd5761139061138b83612154565b6121b6565b6001600160d01b038116156113c3576113ab61049f91611df5565b90549060031b1c5b6040519081529081906020820190565b5061049f5f6113b3565b604051637669fc0f60e11b8152600481019290925265ffffffffffff166024820152604490fd5b34610528575f36600319011261052857602061140f42612154565b65ffffffffffff60405191168152f35b34610528575f366003190112610528576040515f5f8051602061316883398151915280549061144d82611afa565b808552916020916001918281169081156104fb57506001146114795761049f8661049381880382611b7e565b5f90815293507f46a2803e59a4de4e7a4c574b1243f25977ac4c77d5a1a4a609b5394cebb4a2aa5b8385106114be575050505081016020016104938261049f5f610483565b80548686018401529382019381016114a1565b34610528575f366003190112610528576020601254604051908152f35b346105285760203660031901126105285760206001600160d01b0361152161151c61151761052c565b611130565b61237a565b16604051908152f35b34610528575f366003190112610528576020601154604051908152f35b346105285760403660031901126105285761156061052c565b60243567ffffffffffffffff8111610528575f9161158383923690600401610e43565b90816040519283928337810184815203915af46115c26115a1611db2565b91610704604051938492151560208401526040808401526060830190610400565b805190602001fd5b34610528575f36600319011261052857602065ffffffffffff60015460a01c16604051908152f35b34610528575f36600319011261052857602060ff5f5460081c166040519015158152f35b34610528575f3660031901126105285760206040517f4a634bc14d77baf979756509ef4298c6f6318af357828612545267ee2eb792338152f35b3461052857604036600319011261052857602061169061166e610542565b6004355f526008835260405f209060018060a01b03165f5260205260405f2090565b54604051908152f35b3461052857604036600319011261052857602060ff6116db6116b9610542565b6004355f526009845260405f209060018060a01b03165f5260205260405f2090565b54166040519015158152f35b34610528575f3660031901126105285760206040517fc9feed28b4b1a1d11c6791da7bb7f6b8d33e831a4992a9383dead1ec2c82c35a8152f35b34610528575f366003190112610528576016546040516001600160a01b039091168152602090f35b346105285760403660031901126105285761176f61176561052c565b6024359033612006565b602060405160018152f35b34610528576020366003190112610528576004355f526007602052602060405f2054604051908152f35b34610528575f366003190112610528576003546040516001600160a01b039091168152602090f35b34610528575f366003190112610528576020600f54604051908152f35b34610528575f3660031901126105285760206040517fc9078c78bcaac2be1c77c160c539a489be2b72939771b1a6302fed3e2150c7458152f35b34610528575f36600319011261052857602065ffffffffffff60135460901c16604051908152f35b60ff81160361052857565b346105285760c03660031901126105285761186f61052c565b604435906024356064356118828161184b565b83421161190a576118fe610cbf94611905926040519060208201927fe48329057bfd03d55e49b547132e39cffd9c1820ad7b9d4c5307691425d15adf845260018060a01b03881660408401528660608401526080830152608082526118e682611b62565b6118f960a43593608435935190206123a2565b612432565b918261244a565b6122e8565b604051632341d78760e11b815260048101859052602490fd5b34610528575f366003190112610528576020601054604051908152f35b34610528575f36600319011261052857602065ffffffffffff60135460601c16604051908152f35b34610528575f366003190112610528576002546040516001600160a01b039091168152602090f35b34610528575f366003190112610528575f5460405160109190911c6001600160a01b03168152602090f35b34610528575f3660031901126105285760206040517fbae4ee3de6c709ff9a002e774c5b78cb381560b219213c88ae0f1e207c03c0238152f35b34610528576040366003190112610528576020611690611a1361052c565b610599611a1e610542565b916110f8565b34610528575f366003190112610528576020601554604051908152f35b34610528575f366003190112610528576020604051633b9aca008152f35b34610528575f366003190112610528576020600454604051908152f35b3461052857604036600319011261052857611ad5610738610704610712611aa161052c565b60405163f3fef3a360e01b60208201526001600160a01b039091166024808301919091523560448201529182906064820190565b905f6040518281525f805160206131a883398151915260203392a361076a8133611f1a565b90600182811c92168015611b28575b6020831014611b1457565b634e487b7160e01b5f52602260045260245ffd5b91607f1691611b09565b634e487b7160e01b5f52604160045260245ffd5b6040810190811067ffffffffffffffff821117610d6057604052565b60a0810190811067ffffffffffffffff821117610d6057604052565b90601f8019910116810190811067ffffffffffffffff821117610d6057604052565b604051905f825f8051602061314883398151915291825492611bc184611afa565b80845293602091600191828116908115611c4f5750600114611bef575b505050611bed92500383611b7e565b565b5f9081527f42ad5d3e1f2e6e70edcf6d991b8a3023d3fca8047a131592f9edb9fd9b89d57d9590935091905b828410611c375750611bed9450505081016020015f8080611bde565b85548885018301529485019487945092810192611c1b565b9250505060209250611bed94915060ff191682840152151560051b8201015f8080611bde565b604051905f825f8051602061318883398151915291825492611c9684611afa565b80845293602091600191828116908115611c4f5750600114611cc157505050611bed92500383611b7e565b5f9081527f5f9ce34815f8e11431c7bb75a8e6886a91478f7ffc1dbb0a98dc240fddd76b759590935091905b828410611d095750611bed9450505081016020015f8080611bde565b85548885018301529485019487945092810192611ced565b6040513d5f823e3d90fd5b60405190611bed82611b46565b67ffffffffffffffff8111610d6057601f01601f191660200190565b929192611d6182611d39565b91611d6f6040519384611b7e565b829481845281830111610528578281602093845f960137010152565b6040516020810181811067ffffffffffffffff821117610d60576040525f8152905f368137565b3d15611ddc573d90611dc382611d39565b91611dd16040519384611b7e565b82523d5f602084013e565b606090565b634e487b7160e01b5f52603260045260245ffd5b600b54811015611e2a57600b5f527f0175b7a638427703f0dbe7bb9bbf987a2551717b34e79f33b5b1008d1fa01db901905f90565b611de1565b8054821015611e2a575f5260205f2001905f90565b600a5480611e9757505f5b6001600160d01b03811615611e9257600b54811015611e2a57600b5f527f0175b7a638427703f0dbe7bb9bbf987a2551717b34e79f33b5b1008d1fa01db9015490565b505f90565b805f19810111610a5357600a5f527fc65a7bb8d6351c1cf70c95a316cc6a92839c986682d98bc35f958f4883f9d2a7015460301c611e4f565b611ed98161237a565b6001600160d01b03811615611efe576001611ef49201611e2f565b90549060031b1c90565b50505f90565b9190826040910312610528576020825192015190565b6001600160a01b039081165f9081525f8051602061310883398151915260205260408120549080527fd4fb29e10204005f1a39963c6862b79a755e22f0177c53f05cdc3786c702f97454611bed93929081169116612519565b5f805160206131088339815191526020527fd4fb29e10204005f1a39963c6862b79a755e22f0177c53f05cdc3786c702f974546001600160a01b039182165f9081526040902054611bed93929081169116612519565b6001600160a01b039081165f9081525f805160206131088339815191526020526040808220549383168252902054611bed93929082169116612519565b6001600160a01b038082169493929190851561213c5782168015612124576001600160a01b0382165f908152600e6020526040902061204990611ed0565b611ed0565b958487106120f557612086611bed96976120738560018060a01b03165f52600e60205260405f2090565b908761207e42612154565b910391612e25565b50506001600160a01b0384165f908152600e602052604090206120d5906120ac42612154565b6001600160a01b0387165f908152600e6020526040902088906120ce90611ed0565b0191612e25565b50506040518581525f805160206131a883398151915290602090a3611fc9565b60405163391434e360e21b81526001600160a01b03841660048201526024810188905260448101869052606490fd5b60405163ec442f0560e01b81525f6004820152602490fd5b604051634b637e8f60e11b81525f6004820152602490fd5b65ffffffffffff90818111612167571690565b604490604051906306dfcc6560e41b8252603060048301526024820152fd5b634e487b7160e01b5f52601160045260245ffd5b5f19810191908211610a5357565b9060018201809211610a5357565b600a8054915f928060058111612281575b5092905b83821061221557505050806121df57505f90565b6121e89061219a565b600a5f527fc65a7bb8d6351c1cf70c95a316cc6a92839c986682d98bc35f958f4883f9d2a8015460301c90565b9091928083169080841860011c8201809211610a5357845f5265ffffffffffff80837fc65a7bb8d6351c1cf70c95a316cc6a92839c986682d98bc35f958f4883f9d2a8015416908416105f1461226f5750925b91906121cb565b93925061227b906121a8565b91612268565b9061228b8261266b565b8203918211610a5357600a5f5265ffffffffffff80837fc65a7bb8d6351c1cf70c95a316cc6a92839c986682d98bc35f958f4883f9d2a8015416908416105f146122d757505b5f6121c7565b93506122e2906121a8565b926122d1565b611bed9161237461204460018060a01b0393848116805f525f8051602061310883398151915260205260405f2095865491818316978892881680946bffffffffffffffffffffffff60a01b161790557f3134e8a2e6d97e929a7e54011ea5485d7d196dd5f0ba4d4ef95803e8e3fc257f5f80a46001600160a01b03165f908152600e6020526040902090565b91612519565b8054806123875750505f90565b5f19918183810111610a53575f5260205f2001015460301c90565b6123aa612ee7565b6123b2612f51565b916040519260208401927f8b73c3c69bb8fe3d512ecc4cf759cc79239f7b179b0ffacaa9a75d522b39400f8452604085015260608401524660808401523060a084015260a0835260c083019183831067ffffffffffffffff841117610d605760429360e291846040528151902061190160f01b855260c282015201522090565b91610435939161244193612bf1565b90929192612c91565b6001600160a01b0381165f9081527f5ab42ced628888259c08ac98db1eb0cf702fc1501344311d8b100cd1bfe4bb006020526040902080546001810190915591829003612495575050565b6040516301d4b62360e61b81526001600160a01b039190911660048201526024810191909152604490fd5b365f80375f8036817f00000000000000000000000000000000000000000000000000000000000000005af43d5f803e156124f8573d5ff35b3d5ffd5b5f8061043593602081519101845af4612513611db2565b91612d1e565b6001600160a01b03808316939291908116908185141580612644575b612541575b5050505050565b816125b6575b505082612556575b808061253a565b7fdec2bacdd2f05b59de34da9b523dff8be42e5e38e818c82fdb0bae774387a7249161258d61258761259393611130565b91612d81565b90612db4565b604080516001600160d01b039384168152919092166020820152a25f808061254f565b6125bf90611130565b6125c884612d81565b6125d142612154565b6001600160d01b039182806125e58661237a565b169116900392828411610a53577fdec2bacdd2f05b59de34da9b523dff8be42e5e38e818c82fdb0bae774387a7249361263a9261262192612ff1565b6040805192851683529316602082015291829190820190565b0390a25f80612547565b50831515612535565b8115612657570490565b634e487b7160e01b5f52601260045260245ffd5b600181111561043557600181600160801b811015612784575b61272c61272261271861270e6127046126fa61273897600488600160401b6127339a1015612777575b64010000000081101561276a575b6201000081101561275d575b610100811015612751575b6010811015612745575b101561273d575b60030260011c6126f3818b61264d565b0160011c90565b6126f3818a61264d565b6126f3818961264d565b6126f3818861264d565b6126f3818761264d565b6126f3818661264d565b809361264d565b821190565b900390565b60011b6126e3565b811c9160021b916126dc565b60081c91811b916126d2565b60101c9160081b916126c7565b60201c9160101b916126bb565b60401c9160201b916126ad565b50600160401b9050608082901c612684565b91905b8382106127a65750505090565b9091928083169080841860011c8201809211610a5357845f5265ffffffffffff808360205f20015416908416105f146127e35750925b9190612799565b9392506127ef906121a8565b916127dc565b60ff7ff0c57e16840df040f15088dc2f81fe391c3923bec73e23a9662efc9c229c6a005460401c161561282457565b604051631afcd79f60e31b8152600490fd5b601f8111612842575050565b5f805160206131488339815191525f527f42ad5d3e1f2e6e70edcf6d991b8a3023d3fca8047a131592f9edb9fd9b89d57d906020601f840160051c830193106128a5575b601f0160051c01905b81811061289a575050565b5f815560010161288f565b9091508190612886565b601f81116128bb575050565b5f805160206131288339815191525f527f2ae08a8e29253f69ac5d979a101956ab8f8d9d7ded63fa7a83b16fc47648eab0906020601f840160051c8301931061291e575b601f0160051c01905b818110612913575050565b5f8155600101612908565b90915081906128ff565b601f8111612934575050565b5f805160206131888339815191525f527f5f9ce34815f8e11431c7bb75a8e6886a91478f7ffc1dbb0a98dc240fddd76b75906020601f840160051c83019310612997575b601f0160051c01905b81811061298c575050565b5f8155600101612981565b9091508190612978565b601f81116129ad575050565b5f805160206131688339815191525f527f46a2803e59a4de4e7a4c574b1243f25977ac4c77d5a1a4a609b5394cebb4a2aa906020601f840160051c83019310612a10575b601f0160051c01905b818110612a05575050565b5f81556001016129fa565b90915081906129f1565b90815167ffffffffffffffff8111610d60575f8051602061318883398151915290612a4e81612a498454611afa565b612928565b602080601f8311600114612a8357508190612a7f9394955f92610cc15750508160011b915f199060031b1c19161790565b9055565b90601f19831695612ac15f805160206131888339815191525f527f5f9ce34815f8e11431c7bb75a8e6886a91478f7ffc1dbb0a98dc240fddd76b7590565b925f905b888210612afc57505083600195969710612ae4575b505050811b019055565b01515f1960f88460031b161c191690555f8080612ada565b80600185968294968601518155019501930190612ac5565b90815167ffffffffffffffff8111610d60575f8051602061316883398151915290612b4881612b438454611afa565b6129a1565b602080601f8311600114612b7957508190612a7f9394955f92610cc15750508160011b915f199060031b1c19161790565b90601f19831695612bb75f805160206131688339815191525f527f46a2803e59a4de4e7a4c574b1243f25977ac4c77d5a1a4a609b5394cebb4a2aa90565b925f905b888210612bd957505083600195969710612ae457505050811b019055565b80600185968294968601518155019501930190612bbb565b91907f7fffffffffffffffffffffffffffffff5d576e7357a4501ddfe92f46681b20a08411612c68579160209360809260ff5f9560405194855216868401526040830152606082015282805260015afa15610920575f516001600160a01b03811615612c5e57905f905f90565b505f906001905f90565b5050505f9160039190565b60041115612c7d57565b634e487b7160e01b5f52602160045260245ffd5b612c9a81612c73565b80612ca3575050565b612cac81612c73565b60018103612cc65760405163f645eedf60e01b8152600490fd5b612ccf81612c73565b60028103612cf05760405163fce698f760e01b815260048101839052602490fd5b80612cfc600392612c73565b14612d045750565b6040516335e2f38360e21b81526004810191909152602490fd5b90612d455750805115612d3357805190602001fd5b60405163d6bda27560e01b8152600490fd5b81511580612d78575b612d56575090565b604051639996b31560e01b81526001600160a01b039091166004820152602490fd5b50803b15612d4e565b6001600160d01b0390818111612d95571690565b604490604051906306dfcc6560e41b825260d060048301526024820152fd5b90612dbe42612154565b6001600160d01b03918280612dd28661237a565b16911601918211610a5357612de692612ff1565b9091565b90815491600160401b831015610d605782612e0d916001611bed95018155611e2f565b90919082549060031b91821b915f19901b1916179055565b90929192600182019081548015612eb7575b5084612e42846130ce565b50949092845493612e5283611ed0565b9681612ea2575b5015612e7f575050505f198101908111610a5357612e0d8591612e7b93611e2f565b9190565b612e7b949293612e9b926001600160d01b039091169190612ff1565b5050612dea565b65ffffffffffff83811691161490505f612e59565b600160401b811015610d6057806001612ed39201845583611e2f565b8154905f199060031b1b191690555f612e37565b612eef611ba0565b8051908115612eff576020012090565b50507fa16a46d94261c7517cc8ff89f61c0ce93598e3c849801011dee649a6a557d100548015612f2c5790565b507fc5d2460186f7233c927e7db2dcc703c0e500b653ca82273b7bfad8045d85a47090565b612f59611c75565b8051908115612f69576020012090565b50507fa16a46d94261c7517cc8ff89f61c0ce93598e3c849801011dee649a6a557d101548015612f2c5790565b8054600160401b811015610d6057612fb391600182018155611e2f565b612fde57815160209092015160301b65ffffffffffff191665ffffffffffff92909216919091179055565b634e487b7160e01b5f525f60045260245ffd5b805492939280156130a4576130086130139161219a565b825f5260205f200190565b9182549265ffffffffffff9182851692811680841161309257879303613059575061305292509065ffffffffffff82549181199060301b169116179055565b60301c9190565b91505061308d9161307961306b611d2c565b65ffffffffffff9093168352565b6001600160d01b0386166020830152612f96565b613052565b604051632520601d60e01b8152600490fd5b50906130c9916130b561306b611d2c565b6001600160d01b0385166020830152612f96565b5f9190565b8054806130df5750505f905f905f90565b5f19918183810111610a53575f5260205f2001015460019165ffffffffffff82169160301c9056fee8b26c30fad74198956032a3533d903385d56dd795af560196f9c78d4af40d0052c63247e1f47db19d5ce0460030c497f067ca4cebf71ba98eeadabe20bace03a16a46d94261c7517cc8ff89f61c0ce93598e3c849801011dee649a6a557d10252c63247e1f47db19d5ce0460030c497f067ca4cebf71ba98eeadabe20bace04a16a46d94261c7517cc8ff89f61c0ce93598e3c849801011dee649a6a557d103ddf252ad1be2c89b69c2b068fc378daa952ba7f163c4a11628f55a4df523b3efa264697066735822122071512ef98064844408c87b83ac2d674ae58e54dbd45ae1d45dd4d8b75dfe1ad364736f6c63430008190033","linkReferences":{}},"methodIdentifiers":{"CLOCK_MODE()":"4bf5d7e9","DEPOSITOR_WHITELIST_ROLE()":"1b66c9e1","DEPOSIT_LIMIT_SET_ROLE()":"a21a1df9","DEPOSIT_WHITELIST_SET_ROLE()":"db388715","EPOCH_DURATION_SET_ROLE()":"61819dd8","FLASH_FEE_BASE()":"ecc98f05","FLASH_FEE_RATE_SET_ROLE()":"bc46f722","FLASH_FEE_RECEIVER_SET_ROLE()":"31d9736c","FLASH_LOAN_ENABLED_SET_ROLE()":"a66b3a73","IS_DEPOSIT_LIMIT_SET_ROLE()":"1415519b","RETURN_VALUE()":"653b04cd","_VaultTokenized_init(string,string)":"602bd8e7","_VaultVotes_init()":"4f4e823d","_epochDuration()":"2fa27fae","_epochDurationInit()":"9f9962dd","_epochDurationInitIndex()":"9b4bae3e","_epochDurationSetEpochsDelay()":"bba6ff4a","_nextEpochDuration()":"c1bc6f51","_nextEpochDurationInit()":"cc52aee7","_nextEpochDurationSetEpochsDelay()":"c4db46fc","_nextEpochInitIndex()":"2749f9c4","_prevEpochDuration()":"5a36aa74","_prevEpochDurationInit()":"6e0f2455","_prevEpochDurationInitIndex()":"98ccba4a","allowance(address,address)":"dd62ed3e","approve(address,uint256)":"095ea7b3","balanceOf(address)":"70a08231","burner()":"27810b6e","clock()":"91ddadf4","collateral()":"d8dfeb45","decimals()":"313ce567","delegate(address)":"5c19a95c","delegateBySig(address,uint256,uint256,uint8,bytes32,bytes32)":"c3cda520","delegates(address)":"587cde1e","delegator()":"ce9b7930","deposit(address,uint256)":"47e7ef24","depositLimit()":"ecf70858","depositWhitelist()":"48d3b775","eip712Domain()":"84b0196e","flashFeeRate()":"e945da7f","flashFeeReceiver()":"a8b24f9a","flashLoanEnabled()":"65d61c6c","getPastTotalSupply(uint256)":"8e539e8c","getPastVotes(address,uint256)":"3a46b1a8","getVotes(address)":"9ab24eb0","isDelegatorInitialized()":"50861adc","isDepositLimit()":"a1b12202","isDepositorWhitelisted(address)":"794b15b7","isSlasherInitialized()":"6ec1e3f8","isWithdrawalsClaimed(uint256,address)":"a5d03223","name()":"06fdde03","nonces(address)":"7ecebe00","redeem(address,uint256)":"1e9a6950","slasher()":"b1344271","staticDelegateCall(address,bytes)":"9f86fd85","symbol()":"95d89b41","totalSupply()":"18160ddd","transfer(address,uint256)":"a9059cbb","transferFrom(address,address,uint256)":"23b872dd","withdraw(address,uint256)":"f3fef3a3","withdrawalShares(uint256)":"afba70ad","withdrawalSharesOf(uint256,address)":"a3b54172","withdrawals(uint256)":"5cc07076"},"id":117}