{"abi":[{"type":"constructor","inputs":[{"name":"baseImplementation","type":"address","internalType":"address"}],"stateMutability":"nonpayable"},{"type":"fallback","stateMutability":"payable"},{"type":"function","name":"CLOCK_MODE","inputs":[],"outputs":[{"name":"","type":"string","internalType":"string"}],"stateMutability":"view"},{"type":"function","name":"DEPOSITOR_WHITELIST_ROLE","inputs":[],"outputs":[{"name":"","type":"bytes32","internalType":"bytes32"}],"stateMutability":"view"},{"type":"function","name":"DEPOSIT_LIMIT_SET_ROLE","inputs":[],"outputs":[{"name":"","type":"bytes32","internalType":"bytes32"}],"stateMutability":"view"},{"type":"function","name":"DEPOSIT_WHITELIST_SET_ROLE","inputs":[],"outputs":[{"name":"","type":"bytes32","internalType":"bytes32"}],"stateMutability":"view"},{"type":"function","name":"EPOCH_DURATION_SET_ROLE","inputs":[],"outputs":[{"name":"","type":"bytes32","internalType":"bytes32"}],"stateMutability":"view"},{"type":"function","name":"FLASH_FEE_BASE","inputs":[],"outputs":[{"name":"","type":"uint256","internalType":"uint256"}],"stateMutability":"view"},{"type":"function","name":"FLASH_FEE_RATE_SET_ROLE","inputs":[],"outputs":[{"name":"","type":"bytes32","internalType":"bytes32"}],"stateMutability":"view"},{"type":"function","name":"FLASH_FEE_RECEIVER_SET_ROLE","inputs":[],"outputs":[{"name":"","type":"bytes32","internalType":"bytes32"}],"stateMutability":"view"},{"type":"function","name":"FLASH_LOAN_ENABLED_SET_ROLE","inputs":[],"outputs":[{"name":"","type":"bytes32","internalType":"bytes32"}],"stateMutability":"view"},{"type":"function","name":"IS_DEPOSIT_LIMIT_SET_ROLE","inputs":[],"outputs":[{"name":"","type":"bytes32","internalType":"bytes32"}],"stateMutability":"view"},{"type":"function","name":"RETURN_VALUE","inputs":[],"outputs":[{"name":"","type":"bytes32","internalType":"bytes32"}],"stateMutability":"view"},{"type":"function","name":"_VaultTokenized_init","inputs":[{"name":"data","type":"bytes","internalType":"bytes"}],"outputs":[],"stateMutability":"nonpayable"},{"type":"function","name":"_VaultVotes_init","inputs":[{"name":"","type":"bytes","internalType":"bytes"}],"outputs":[],"stateMutability":"nonpayable"},{"type":"function","name":"_epochDuration","inputs":[],"outputs":[{"name":"","type":"uint48","internalType":"uint48"}],"stateMutability":"view"},{"type":"function","name":"_epochDurationInit","inputs":[],"outputs":[{"name":"","type":"uint48","internalType":"uint48"}],"stateMutability":"view"},{"type":"function","name":"allowance","inputs":[{"name":"owner","type":"address","internalType":"address"},{"name":"spender","type":"address","internalType":"address"}],"outputs":[{"name":"","type":"uint256","internalType":"uint256"}],"stateMutability":"view"},{"type":"function","name":"approve","inputs":[{"name":"spender","type":"address","internalType":"address"},{"name":"value","type":"uint256","internalType":"uint256"}],"outputs":[{"name":"","type":"bool","internalType":"bool"}],"stateMutability":"nonpayable"},{"type":"function","name":"balanceOf","inputs":[{"name":"account","type":"address","internalType":"address"}],"outputs":[{"name":"","type":"uint256","internalType":"uint256"}],"stateMutability":"view"},{"type":"function","name":"burner","inputs":[],"outputs":[{"name":"","type":"address","internalType":"address"}],"stateMutability":"view"},{"type":"function","name":"clock","inputs":[],"outputs":[{"name":"","type":"uint48","internalType":"uint48"}],"stateMutability":"view"},{"type":"function","name":"collateral","inputs":[],"outputs":[{"name":"","type":"address","internalType":"address"}],"stateMutability":"view"},{"type":"function","name":"decimals","inputs":[],"outputs":[{"name":"","type":"uint8","internalType":"uint8"}],"stateMutability":"view"},{"type":"function","name":"delegate","inputs":[{"name":"delegatee","type":"address","internalType":"address"}],"outputs":[],"stateMutability":"nonpayable"},{"type":"function","name":"delegateBySig","inputs":[{"name":"delegatee","type":"address","internalType":"address"},{"name":"nonce","type":"uint256","internalType":"uint256"},{"name":"expiry","type":"uint256","internalType":"uint256"},{"name":"v","type":"uint8","internalType":"uint8"},{"name":"r","type":"bytes32","internalType":"bytes32"},{"name":"s","type":"bytes32","internalType":"bytes32"}],"outputs":[],"stateMutability":"nonpayable"},{"type":"function","name":"delegates","inputs":[{"name":"account","type":"address","internalType":"address"}],"outputs":[{"name":"","type":"address","internalType":"address"}],"stateMutability":"view"},{"type":"function","name":"delegator","inputs":[],"outputs":[{"name":"","type":"address","internalType":"address"}],"stateMutability":"view"},{"type":"function","name":"deposit","inputs":[{"name":"onBehalfOf","type":"address","internalType":"address"},{"name":"amount","type":"uint256","internalType":"uint256"}],"outputs":[{"name":"depositedAmount","type":"uint256","internalType":"uint256"},{"name":"mintedShares","type":"uint256","internalType":"uint256"}],"stateMutability":"nonpayable"},{"type":"function","name":"depositLimit","inputs":[],"outputs":[{"name":"","type":"uint256","internalType":"uint256"}],"stateMutability":"view"},{"type":"function","name":"depositWhitelist","inputs":[],"outputs":[{"name":"","type":"bool","internalType":"bool"}],"stateMutability":"view"},{"type":"function","name":"eip712Domain","inputs":[],"outputs":[{"name":"fields","type":"bytes1","internalType":"bytes1"},{"name":"name","type":"string","internalType":"string"},{"name":"version","type":"string","internalType":"string"},{"name":"chainId","type":"uint256","internalType":"uint256"},{"name":"verifyingContract","type":"address","internalType":"address"},{"name":"salt","type":"bytes32","internalType":"bytes32"},{"name":"extensions","type":"uint256[]","internalType":"uint256[]"}],"stateMutability":"view"},{"type":"function","name":"flashFeeRate","inputs":[],"outputs":[{"name":"","type":"uint256","internalType":"uint256"}],"stateMutability":"view"},{"type":"function","name":"flashFeeReceiver","inputs":[],"outputs":[{"name":"","type":"address","internalType":"address"}],"stateMutability":"view"},{"type":"function","name":"flashLoanEnabled","inputs":[],"outputs":[{"name":"","type":"bool","internalType":"bool"}],"stateMutability":"view"},{"type":"function","name":"getPastTotalSupply","inputs":[{"name":"timepoint","type":"uint256","internalType":"uint256"}],"outputs":[{"name":"","type":"uint256","internalType":"uint256"}],"stateMutability":"view"},{"type":"function","name":"getPastVotes","inputs":[{"name":"account","type":"address","internalType":"address"},{"name":"timepoint","type":"uint256","internalType":"uint256"}],"outputs":[{"name":"","type":"uint256","internalType":"uint256"}],"stateMutability":"view"},{"type":"function","name":"getVotes","inputs":[{"name":"account","type":"address","internalType":"address"}],"outputs":[{"name":"","type":"uint256","internalType":"uint256"}],"stateMutability":"view"},{"type":"function","name":"isDelegatorInitialized","inputs":[],"outputs":[{"name":"","type":"bool","internalType":"bool"}],"stateMutability":"view"},{"type":"function","name":"isDepositLimit","inputs":[],"outputs":[{"name":"","type":"bool","internalType":"bool"}],"stateMutability":"view"},{"type":"function","name":"isDepositorWhitelisted","inputs":[{"name":"account","type":"address","internalType":"address"}],"outputs":[{"name":"value","type":"bool","internalType":"bool"}],"stateMutability":"view"},{"type":"function","name":"isSlasherInitialized","inputs":[],"outputs":[{"name":"","type":"bool","internalType":"bool"}],"stateMutability":"view"},{"type":"function","name":"isWithdrawalsClaimed","inputs":[{"name":"epoch","type":"uint256","internalType":"uint256"},{"name":"account","type":"address","internalType":"address"}],"outputs":[{"name":"value","type":"bool","internalType":"bool"}],"stateMutability":"view"},{"type":"function","name":"name","inputs":[],"outputs":[{"name":"","type":"string","internalType":"string"}],"stateMutability":"view"},{"type":"function","name":"nonces","inputs":[{"name":"owner","type":"address","internalType":"address"}],"outputs":[{"name":"","type":"uint256","internalType":"uint256"}],"stateMutability":"view"},{"type":"function","name":"redeem","inputs":[{"name":"claimer","type":"address","internalType":"address"},{"name":"shares","type":"uint256","internalType":"uint256"}],"outputs":[{"name":"withdrawnAssets","type":"uint256","internalType":"uint256"},{"name":"mintedShares","type":"uint256","internalType":"uint256"}],"stateMutability":"nonpayable"},{"type":"function","name":"slasher","inputs":[],"outputs":[{"name":"","type":"address","internalType":"address"}],"stateMutability":"view"},{"type":"function","name":"staticDelegateCall","inputs":[{"name":"target","type":"address","internalType":"address"},{"name":"data","type":"bytes","internalType":"bytes"}],"outputs":[],"stateMutability":"nonpayable"},{"type":"function","name":"symbol","inputs":[],"outputs":[{"name":"","type":"string","internalType":"string"}],"stateMutability":"view"},{"type":"function","name":"totalSupply","inputs":[],"outputs":[{"name":"","type":"uint256","internalType":"uint256"}],"stateMutability":"view"},{"type":"function","name":"transfer","inputs":[{"name":"to","type":"address","internalType":"address"},{"name":"value","type":"uint256","internalType":"uint256"}],"outputs":[{"name":"","type":"bool","internalType":"bool"}],"stateMutability":"nonpayable"},{"type":"function","name":"transferFrom","inputs":[{"name":"from","type":"address","internalType":"address"},{"name":"to","type":"address","internalType":"address"},{"name":"value","type":"uint256","internalType":"uint256"}],"outputs":[{"name":"","type":"bool","internalType":"bool"}],"stateMutability":"nonpayable"},{"type":"function","name":"withdraw","inputs":[{"name":"claimer","type":"address","internalType":"address"},{"name":"amount","type":"uint256","internalType":"uint256"}],"outputs":[{"name":"burnedShares","type":"uint256","internalType":"uint256"},{"name":"mintedShares","type":"uint256","internalType":"uint256"}],"stateMutability":"nonpayable"},{"type":"function","name":"withdrawalShares","inputs":[{"name":"epoch","type":"uint256","internalType":"uint256"}],"outputs":[{"name":"amount","type":"uint256","internalType":"uint256"}],"stateMutability":"view"},{"type":"function","name":"withdrawalSharesOf","inputs":[{"name":"epoch","type":"uint256","internalType":"uint256"},{"name":"account","type":"address","internalType":"address"}],"outputs":[{"name":"amount","type":"uint256","internalType":"uint256"}],"stateMutability":"view"},{"type":"function","name":"withdrawals","inputs":[{"name":"epoch","type":"uint256","internalType":"uint256"}],"outputs":[{"name":"amount","type":"uint256","internalType":"uint256"}],"stateMutability":"view"},{"type":"event","name":"Approval","inputs":[{"name":"owner","type":"address","indexed":true,"internalType":"address"},{"name":"spender","type":"address","indexed":true,"internalType":"address"},{"name":"value","type":"uint256","indexed":false,"internalType":"uint256"}],"anonymous":false},{"type":"event","name":"DelegateChanged","inputs":[{"name":"delegator","type":"address","indexed":true,"internalType":"address"},{"name":"fromDelegate","type":"address","indexed":true,"internalType":"address"},{"name":"toDelegate","type":"address","indexed":true,"internalType":"address"}],"anonymous":false},{"type":"event","name":"DelegateVotesChanged","inputs":[{"name":"delegate","type":"address","indexed":true,"internalType":"address"},{"name":"previousVotes","type":"uint256","indexed":false,"internalType":"uint256"},{"name":"newVotes","type":"uint256","indexed":false,"internalType":"uint256"}],"anonymous":false},{"type":"event","name":"EIP712DomainChanged","inputs":[],"anonymous":false},{"type":"event","name":"Initialized","inputs":[{"name":"version","type":"uint64","indexed":false,"internalType":"uint64"}],"anonymous":false},{"type":"event","name":"Transfer","inputs":[{"name":"from","type":"address","indexed":true,"internalType":"address"},{"name":"to","type":"address","indexed":true,"internalType":"address"},{"name":"value","type":"uint256","indexed":false,"internalType":"uint256"}],"anonymous":false},{"type":"error","name":"AddressEmptyCode","inputs":[{"name":"target","type":"address","internalType":"address"}]},{"type":"error","name":"CheckpointUnorderedInsertion","inputs":[]},{"type":"error","name":"ECDSAInvalidSignature","inputs":[]},{"type":"error","name":"ECDSAInvalidSignatureLength","inputs":[{"name":"length","type":"uint256","internalType":"uint256"}]},{"type":"error","name":"ECDSAInvalidSignatureS","inputs":[{"name":"s","type":"bytes32","internalType":"bytes32"}]},{"type":"error","name":"ERC20InsufficientAllowance","inputs":[{"name":"spender","type":"address","internalType":"address"},{"name":"allowance","type":"uint256","internalType":"uint256"},{"name":"needed","type":"uint256","internalType":"uint256"}]},{"type":"error","name":"ERC20InsufficientBalance","inputs":[{"name":"sender","type":"address","internalType":"address"},{"name":"balance","type":"uint256","internalType":"uint256"},{"name":"needed","type":"uint256","internalType":"uint256"}]},{"type":"error","name":"ERC20InvalidApprover","inputs":[{"name":"approver","type":"address","internalType":"address"}]},{"type":"error","name":"ERC20InvalidReceiver","inputs":[{"name":"receiver","type":"address","internalType":"address"}]},{"type":"error","name":"ERC20InvalidSender","inputs":[{"name":"sender","type":"address","internalType":"address"}]},{"type":"error","name":"ERC20InvalidSpender","inputs":[{"name":"spender","type":"address","internalType":"address"}]},{"type":"error","name":"ERC5805FutureLookup","inputs":[{"name":"timepoint","type":"uint256","internalType":"uint256"},{"name":"clock","type":"uint48","internalType":"uint48"}]},{"type":"error","name":"ERC6372InconsistentClock","inputs":[]},{"type":"error","name":"FailedCall","inputs":[]},{"type":"error","name":"InvalidAccountNonce","inputs":[{"name":"account","type":"address","internalType":"address"},{"name":"currentNonce","type":"uint256","internalType":"uint256"}]},{"type":"error","name":"InvalidData","inputs":[]},{"type":"error","name":"InvalidInitialization","inputs":[]},{"type":"error","name":"NotInitializing","inputs":[]},{"type":"error","name":"ReentrancyGuardReentrantCall","inputs":[]},{"type":"error","name":"SafeCastOverflowedUintDowncast","inputs":[{"name":"bits","type":"uint8","internalType":"uint8"},{"name":"value","type":"uint256","internalType":"uint256"}]},{"type":"error","name":"SafeSupplyExceeded","inputs":[]},{"type":"error","name":"VotesExpiredSignature","inputs":[{"name":"expiry","type":"uint256","internalType":"uint256"}]}],"bytecode":{"object":"0x60a034606d57601f61314b38819003918201601f19168301916001600160401b03831184841017607157808492602094604052833981010312606d57516001600160a01b0381168103606d576080526040516130c5908161008682396080518181816108a801526123980152f35b5f80fd5b634e487b7160e01b5f52604160045260245ffdfe60806040526004361061238e575f3560e01c806306fdde031461036b578063095ea7b3146103665780630eac105e146103615780631415519b1461035c57806318160ddd146103575780631b66c9e1146103525780631e9a69501461034d57806323b872dd1461034857806327810b6e146103435780632fa27fae1461033e578063313ce5671461033957806331d9736c146103345780633a46b1a81461032f57806347e7ef241461032a57806348d3b775146103255780634bf5d7e91461032057806350861adc1461031b578063587cde1e146103165780635c19a95c146103115780635cc070761461030c57806361819dd814610307578063653b04cd1461030257806365d61c6c146102fd5780636ec1e3f8146102f857806370a08231146102f3578063794b15b7146102ee5780637bd00ae8146102e95780637ecebe00146102e457806384b0196e146102df5780638e539e8c146102da57806391ddadf4146102d557806395d89b41146102d05780639ab24eb0146102cb5780639f86fd85146102c65780639f9962dd146102c1578063a1b12202146102bc578063a21a1df9146102b7578063a3b54172146102b2578063a5d03223146102ad578063a66b3a73146102a8578063a8b24f9a146102a3578063a9059cbb1461029e578063afba70ad14610299578063b134427114610294578063bc46f7221461028f578063c3cda5201461028a578063ce9b793014610285578063d8dfeb4514610280578063db3887151461027b578063dd62ed3e14610276578063e945da7f14610271578063ecc98f051461026c578063ecf70858146102675763f3fef3a30361238e576118d7565b6118ba565b61189c565b61187f565b611850565b611816565b6117eb565b6117c3565b6116f6565b6116b1565b611689565b61165f565b61162e565b611606565b6115cc565b61157e565b611535565b6114fb565b6114d7565b6114af565b61142d565b6113f1565b61133f565b611314565b611272565b6111a2565b6110c5565b610f6a565b610f2d565b610e86565b610e61565b610e3c565b610e02565b610dc8565b610d9e565b610d7c565b610d37565b610d12565b610cc4565b610ca3565b610bf8565b610ad6565b610a9c565b610a05565b6109e5565b6109bd565b61090f565b610840565b610806565b6107e4565b6107aa565b6105e1565b6104c8565b6103a8565b805180835260209291819084018484015e5f828201840152601f01601f1916010190565b9060206103a5928181520190610370565b90565b34610498575f366003190112610498576040515f5f80516020612ff08339815191528054906103d682611955565b8085529160209160019182811690811561046b5750600114610413575b61040f86610403818803826119d7565b60405191829182610394565b0390f35b5f90815293507f2ae08a8e29253f69ac5d979a101956ab8f8d9d7ded63fa7a83b16fc47648eab05b838510610458575050505081016020016104038261040f5f6103f3565b805486860184015293820193810161043b565b905086955061040f9693506020925061040394915060ff191682840152151560051b82010192935f6103f3565b5f80fd5b600435906001600160a01b038216820361049857565b602435906001600160a01b038216820361049857565b34610498576040366003190112610498576104e161049c565b602435331561056e576001600160a01b0382169182156105565761051e829161050933610ebd565b9060018060a01b03165f5260205260405f2090565b556040519081527f8c5be1e5ebec7d5bd14f71427d1e84f3dd0314c0f7b2291e5b200ac8c7c3b92560203392a3602060405160018152f35b604051634a1406b160e11b81525f6004820152602490fd5b60405163e602df0560e01b81525f6004820152602490fd5b9181601f84011215610498578235916001600160401b038311610498576020838186019501011161049857565b602060031982011261049857600435906001600160401b038211610498576105dd91600401610586565b9091565b34610498576105ef366105b3565b50506040516105fd816119a1565b600a8152602090695661756c74566f74657360b01b602082015260405190610624826119a1565b60019260018352603160f81b602084015261063d6123ca565b6106456123ca565b8151906001600160401b0382116107a5575f8051602061301083398151915292610678836106738654611955565b61240b565b602091601f841160011461071157506106b495506106ad92915f9183610706575b50508160011b915f199060031b1c19161790565b90556125ef565b6106dc5f7fa16a46d94261c7517cc8ff89f61c0ce93598e3c849801011dee649a6a557d10055565b6107045f7fa16a46d94261c7517cc8ff89f61c0ce93598e3c849801011dee649a6a557d10155565b005b015190505f80610699565b5f805160206130108339815191525f529195601f198416907f42ad5d3e1f2e6e70edcf6d991b8a3023d3fca8047a131592f9edb9fd9b89d57d935f915b83831061078e57505050958392916001946106b49810610776575b505050811b0190556125ef565b01515f1960f88460031b161c191690555f8080610769565b848a0151865598810198948501949181019161074e565b61198d565b34610498575f3660031901126104985760206040517fc6aaadd7371d5e8f9ed6849dd66a66573a3ba37167d03f4352c9ba5693678fac8152f35b34610498575f3660031901126104985760206107fe611caa565b604051908152f35b34610498575f3660031901126104985760206040517f9c56d972d63cbb4195b3c1484691dfc220fa96a4c47e7b6613bd82a022029e068152f35b34610498576040366003190112610498576108fe6108a66108db6108cc61086561049c565b6040516301e9a69560e41b60208201526001600160a01b0390911660248281019190915235604482018190529381606481015b03601f1981018352826119d7565b7f00000000000000000000000000000000000000000000000000000000000000006127c4565b60208082518301019101611d6a565b9290915f6040518281525f8051602061307083398151915260203392a333611d80565b604080519182526020820192909252f35b346104985760603660031901126104985761092861049c565b6109306104b2565b604435906109413361050985610ebd565b549260018401610962575b6109569350611e6c565b60405160018152602090f35b828410610997576001600160a01b0381161561056e573315610556578261095694036109913361050984610ebd565b5561094c565b604051637dc7a0d960e11b81523360048201526024810185905260448101849052606490fd5b34610498575f366003190112610498576001546040516001600160a01b039091168152602090f35b34610498575f36600319011261049857602060015460d01c604051908152f35b34610498575f366003190112610498575f5460405163313ce56760e01b8152906020908290600490829060101c6001600160a01b03165afa8015610a97575f90610a5a575b60405160ff919091168152602090f35b506020813d602011610a8f575b81610a74602093836119d7565b810103126104985761040f9051610a8a816116eb565b610a4a565b3d9150610a67565b611ba1565b34610498575f3660031901126104985760206040517f5295aaaa27fdd659293eafacbfafbc634c1b96298957e87de5f59308cdbfdad18152f35b3461049857604036600319011261049857610aef61049c565b60243590610afc42612023565b9065ffffffffffff91828116841015610bcf5750610b1c610b2291610ef5565b92612023565b8254905f908260058111610b81575b50610b3d935084612a5e565b9081610b6457505061040f5f5b6040516001600160d01b0390911681529081906020820190565b610b7061040f92612069565b905f5260205f20015460301c610b4a565b9092610b8c82612933565b8203918211610bca57610b3d94865f52808360205f20015416908516105f14610bb85750915b5f610b31565b929150610bc490612077565b90610bb2565b612055565b604051637669fc0f60e11b81526004810185905265ffffffffffff919091166024820152604490fd5b3461049857604036600319011261049857610c1161049c565b6040516311f9fbc960e21b60208201526001600160a01b038216602480830191909152356044820152610c4f906108cc906108a68160648101610898565b916040518381525f5f80516020613070833981519152602060018060a01b03851693a36001600160d01b03610c82611caa565b11610c9157826108fe91611dd9565b604051630a84eab560e11b8152600490fd5b34610498575f36600319011261049857602060ff5f54166040519015158152f35b34610498575f3660031901126104985761040f604051610ce3816119a1565b600e81526d06d6f64653d74696d657374616d760941b6020820152604051918291602083526020830190610370565b34610498575f36600319011261049857602060ff60025460a01c166040519015158152f35b346104985760203660031901126104985760206001600160a01b0380610d5b61049c565b165f525f80516020612fd0833981519152825260405f205416604051908152f35b3461049857602036600319011261049857610704610d9861049c565b336121b7565b34610498576020366003190112610498576004355f526006602052602060405f2054604051908152f35b34610498575f3660031901126104985760206040517f591f6a0113ada8aff67efadec8ae2fa585cb4ebf4e1f8fc1205ffbeff98d00ec8152f35b34610498575f3660031901126104985760206040517f439148f0bbc682ca079e46d6e2c2f0c1e3b820f1a291b069d8882abf8cf18dd98152f35b34610498575f36600319011261049857602060ff60165460a01c166040519015158152f35b34610498575f36600319011261049857602060ff60035460a01c166040519015158152f35b34610498576020366003190112610498576001600160a01b03610ea761049c565b165f52600e60205260206107fe60405f20611d36565b6001600160a01b03165f9081527f52c63247e1f47db19d5ce0460030c497f067ca4cebf71ba98eeadabe20bace016020526040902090565b6001600160a01b03165f9081527fe8b26c30fad74198956032a3533d903385d56dd795af560196f9c78d4af40d016020526040902090565b34610498576020366003190112610498576001600160a01b03610f4e61049c565b165f526005602052602060ff60405f2054166040519015158152f35b3461049857610f78366105b3565b8101604082820312610498576001600160401b039180358381116104985782610fa2918301611bac565b90602092602082013585811161049857610fbc9201611bac565b91610fc56123ca565b610fcd6123ca565b81519384116107a5575f80516020612ff083398151915291610ff885610ff38554611955565b612484565b602091601f86116001146110325750938061102b92610704965f926107065750508160011b915f199060031b1c19161790565b90556126e8565b5f80516020612ff08339815191525f529190601f1986167f2ae08a8e29253f69ac5d979a101956ab8f8d9d7ded63fa7a83b16fc47648eab0935f905b8282106110ad575050916001939187610704989410611095575b505050811b0190556126e8565b01515f1960f88460031b161c191690555f8080611088565b8060018697829497870151815501960194019061106e565b34610498576020366003190112610498576001600160a01b036110e661049c565b165f527f5ab42ced628888259c08ac98db1eb0cf702fc1501344311d8b100cd1bfe4bb00602052602060405f2054604051908152f35b9161115090949194600f60f81b845261114260209660e0602087015260e0860190610370565b908482036040860152610370565b92606083015260018060a01b031660808201525f60a082015260c0818303910152602080845192838152019301915f5b82811061118e575050505090565b835185529381019392810192600101611180565b34610498575f366003190112610498577fa16a46d94261c7517cc8ff89f61c0ce93598e3c849801011dee649a6a557d100541580611249575b1561120c576111e86119f8565b6111f0611acd565b9061040f6111fc611bf2565b604051938493309146918661111c565b60405162461bcd60e51b81526020600482015260156024820152741152540dcc4c8e88155b9a5b9a5d1a585b1a5e9959605a1b6044820152606490fd5b507fa16a46d94261c7517cc8ff89f61c0ce93598e3c849801011dee649a6a557d10154156111db565b346104985760203660031901126104985760043561128f42612023565b65ffffffffffff81168210156112ed576112b06112ab83612023565b612085565b6001600160d01b038116156112e3576112cb61040f91611c5b565b90549060031b1c5b6040519081529081906020820190565b5061040f5f6112d3565b604051637669fc0f60e11b8152600481019290925265ffffffffffff166024820152604490fd5b34610498575f36600319011261049857602061132f42612023565b65ffffffffffff60405191168152f35b34610498575f366003190112610498576040515f5f8051602061303083398151915280549061136d82611955565b8085529160209160019182811690811561046b57506001146113995761040f86610403818803826119d7565b5f90815293507f46a2803e59a4de4e7a4c574b1243f25977ac4c77d5a1a4a609b5394cebb4a2aa5b8385106113de575050505081016020016104038261040f5f6103f3565b80548686018401529382019381016113c1565b346104985760203660031901126104985760206001600160d01b0361142461141f61141a61049c565b610ef5565b612249565b16604051908152f35b346104985760403660031901126104985761144661049c565b6024356001600160401b038111610498575f9161146883923690600401610586565b90816040519283928337810184815203915af46114a7611486611c18565b91610898604051938492151560208401526040808401526060830190610370565b805190602001fd5b34610498575f36600319011261049857602065ffffffffffff60015460a01c16604051908152f35b34610498575f36600319011261049857602060ff5f5460081c166040519015158152f35b34610498575f3660031901126104985760206040517f4a634bc14d77baf979756509ef4298c6f6318af357828612545267ee2eb792338152f35b346104985760403660031901126104985760206115756115536104b2565b6004355f526008835260405f209060018060a01b03165f5260205260405f2090565b54604051908152f35b3461049857604036600319011261049857602060ff6115c061159e6104b2565b6004355f526009845260405f209060018060a01b03165f5260205260405f2090565b54166040519015158152f35b34610498575f3660031901126104985760206040517fc9feed28b4b1a1d11c6791da7bb7f6b8d33e831a4992a9383dead1ec2c82c35a8152f35b34610498575f366003190112610498576016546040516001600160a01b039091168152602090f35b346104985760403660031901126104985761165461164a61049c565b6024359033611e6c565b602060405160018152f35b34610498576020366003190112610498576004355f526007602052602060405f2054604051908152f35b34610498575f366003190112610498576003546040516001600160a01b039091168152602090f35b34610498575f3660031901126104985760206040517fc9078c78bcaac2be1c77c160c539a489be2b72939771b1a6302fed3e2150c7458152f35b60ff81160361049857565b346104985760c03660031901126104985761170f61049c565b60443590602435606435611722816116eb565b8342116117aa5761179e610704946117a5926040519060208201927fe48329057bfd03d55e49b547132e39cffd9c1820ad7b9d4c5307691425d15adf845260018060a01b0388166040840152866060840152608083015260808252611786826119bc565b61179960a4359360843593519020612271565b612300565b9182612318565b6121b7565b604051632341d78760e11b815260048101859052602490fd5b34610498575f366003190112610498576002546040516001600160a01b039091168152602090f35b34610498575f366003190112610498575f5460405160109190911c6001600160a01b03168152602090f35b34610498575f3660031901126104985760206040517fbae4ee3de6c709ff9a002e774c5b78cb381560b219213c88ae0f1e207c03c0238152f35b3461049857604036600319011261049857602061157561186e61049c565b6105096118796104b2565b91610ebd565b34610498575f366003190112610498576020601554604051908152f35b34610498575f366003190112610498576020604051633b9aca008152f35b34610498575f366003190112610498576020600454604051908152f35b34610498576040366003190112610498576119306108cc6108986108a66118fc61049c565b60405163f3fef3a360e01b60208201526001600160a01b039091166024808301919091523560448201529182906064820190565b905f6040518281525f8051602061307083398151915260203392a36108fe8133611d80565b90600182811c92168015611983575b602083101461196f57565b634e487b7160e01b5f52602260045260245ffd5b91607f1691611964565b634e487b7160e01b5f52604160045260245ffd5b604081019081106001600160401b038211176107a557604052565b60a081019081106001600160401b038211176107a557604052565b90601f801991011681019081106001600160401b038211176107a557604052565b604051905f825f8051602061301083398151915291825492611a1984611955565b80845293602091600191828116908115611aa75750600114611a47575b505050611a45925003836119d7565b565b5f9081527f42ad5d3e1f2e6e70edcf6d991b8a3023d3fca8047a131592f9edb9fd9b89d57d9590935091905b828410611a8f5750611a459450505081016020015f8080611a36565b85548885018301529485019487945092810192611a73565b9250505060209250611a4594915060ff191682840152151560051b8201015f8080611a36565b604051905f825f8051602061305083398151915291825492611aee84611955565b80845293602091600191828116908115611aa75750600114611b1957505050611a45925003836119d7565b5f9081527f5f9ce34815f8e11431c7bb75a8e6886a91478f7ffc1dbb0a98dc240fddd76b759590935091905b828410611b615750611a459450505081016020015f8080611a36565b85548885018301529485019487945092810192611b45565b60405190611a45826119a1565b6001600160401b0381116107a557601f01601f191660200190565b6040513d5f823e3d90fd5b81601f8201121561049857803590611bc382611b86565b92611bd160405194856119d7565b8284526020838301011161049857815f926020809301838601378301015290565b604051602081018181106001600160401b038211176107a5576040525f8152905f368137565b3d15611c42573d90611c2982611b86565b91611c3760405193846119d7565b82523d5f602084013e565b606090565b634e487b7160e01b5f52603260045260245ffd5b600b54811015611c9057600b5f527f0175b7a638427703f0dbe7bb9bbf987a2551717b34e79f33b5b1008d1fa01db901905f90565b611c47565b8054821015611c90575f5260205f2001905f90565b600a5480611cfd57505f5b6001600160d01b03811615611cf857600b54811015611c9057600b5f527f0175b7a638427703f0dbe7bb9bbf987a2551717b34e79f33b5b1008d1fa01db9015490565b505f90565b805f19810111610bca57600a5f527fc65a7bb8d6351c1cf70c95a316cc6a92839c986682d98bc35f958f4883f9d2a7015460301c611cb5565b611d3f81612249565b6001600160d01b03811615611d64576001611d5a9201611c95565b90549060031b1c90565b50505f90565b9190826040910312610498576020825192015190565b6001600160a01b039081165f9081525f80516020612fd083398151915260205260408120549080527fd4fb29e10204005f1a39963c6862b79a755e22f0177c53f05cdc3786c702f97454611a45939290811691166127e1565b5f80516020612fd08339815191526020527fd4fb29e10204005f1a39963c6862b79a755e22f0177c53f05cdc3786c702f974546001600160a01b039182165f9081526040902054611a45939290811691166127e1565b6001600160a01b039081165f9081525f80516020612fd08339815191526020526040808220549383168252902054611a45939290821691166127e1565b6001600160a01b038082169493929190851561200b5782168015611ff3577f9b779b17422d0df92223018b32b4d1fa46e071723d6817e2486d003becc55f006002815414611fe157600290556001600160a01b0382165f908152600e60205260409020611edd90611d36565b611d36565b95848710611fb257611f1a611a459697611f078560018060a01b03165f52600e60205260405f2090565b9087611f1242612023565b910391612ced565b50506001600160a01b0384165f908152600e60205260409020611f6990611f4042612023565b6001600160a01b0387165f908152600e602052604090208890611f6290611d36565b0191612ced565b50506040518581525f8051602061307083398151915290602090a3611fad60017f9b779b17422d0df92223018b32b4d1fa46e071723d6817e2486d003becc55f0055565b611e2f565b60405163391434e360e21b81526001600160a01b03841660048201526024810188905260448101869052606490fd5b604051633ee5aeb560e01b8152600490fd5b60405163ec442f0560e01b81525f6004820152602490fd5b604051634b637e8f60e11b81525f6004820152602490fd5b65ffffffffffff90818111612036571690565b604490604051906306dfcc6560e41b8252603060048301526024820152fd5b634e487b7160e01b5f52601160045260245ffd5b5f19810191908211610bca57565b9060018201809211610bca57565b600a8054915f928060058111612150575b5092905b8382106120e457505050806120ae57505f90565b6120b790612069565b600a5f527fc65a7bb8d6351c1cf70c95a316cc6a92839c986682d98bc35f958f4883f9d2a8015460301c90565b9091928083169080841860011c8201809211610bca57845f5265ffffffffffff80837fc65a7bb8d6351c1cf70c95a316cc6a92839c986682d98bc35f958f4883f9d2a8015416908416105f1461213e5750925b919061209a565b93925061214a90612077565b91612137565b9061215a82612933565b8203918211610bca57600a5f5265ffffffffffff80837fc65a7bb8d6351c1cf70c95a316cc6a92839c986682d98bc35f958f4883f9d2a8015416908416105f146121a657505b5f612096565b93506121b190612077565b926121a0565b611a4591612243611ed860018060a01b0393848116805f525f80516020612fd083398151915260205260405f2095865491818316978892881680946bffffffffffffffffffffffff60a01b161790557f3134e8a2e6d97e929a7e54011ea5485d7d196dd5f0ba4d4ef95803e8e3fc257f5f80a46001600160a01b03165f908152600e6020526040902090565b916127e1565b8054806122565750505f90565b5f19918183810111610bca575f5260205f2001015460301c90565b612279612daf565b612281612e19565b916040519260208401927f8b73c3c69bb8fe3d512ecc4cf759cc79239f7b179b0ffacaa9a75d522b39400f8452604085015260608401524660808401523060a084015260a0835260c08301918383106001600160401b038411176107a55760429360e291846040528151902061190160f01b855260c282015201522090565b916103a5939161230f93612abd565b90929192612b5d565b6001600160a01b0381165f9081527f5ab42ced628888259c08ac98db1eb0cf702fc1501344311d8b100cd1bfe4bb006020526040902080546001810190915591829003612363575050565b6040516301d4b62360e61b81526001600160a01b039190911660048201526024810191909152604490fd5b365f80375f8036817f00000000000000000000000000000000000000000000000000000000000000005af43d5f803e156123c6573d5ff35b3d5ffd5b60ff7ff0c57e16840df040f15088dc2f81fe391c3923bec73e23a9662efc9c229c6a005460401c16156123f957565b604051631afcd79f60e31b8152600490fd5b601f8111612417575050565b5f805160206130108339815191525f527f42ad5d3e1f2e6e70edcf6d991b8a3023d3fca8047a131592f9edb9fd9b89d57d906020601f840160051c8301931061247a575b601f0160051c01905b81811061246f575050565b5f8155600101612464565b909150819061245b565b601f8111612490575050565b5f80516020612ff08339815191525f527f2ae08a8e29253f69ac5d979a101956ab8f8d9d7ded63fa7a83b16fc47648eab0906020601f840160051c830193106124f3575b601f0160051c01905b8181106124e8575050565b5f81556001016124dd565b90915081906124d4565b601f8111612509575050565b5f805160206130508339815191525f527f5f9ce34815f8e11431c7bb75a8e6886a91478f7ffc1dbb0a98dc240fddd76b75906020601f840160051c8301931061256c575b601f0160051c01905b818110612561575050565b5f8155600101612556565b909150819061254d565b601f8111612582575050565b5f805160206130308339815191525f527f46a2803e59a4de4e7a4c574b1243f25977ac4c77d5a1a4a609b5394cebb4a2aa906020601f840160051c830193106125e5575b601f0160051c01905b8181106125da575050565b5f81556001016125cf565b90915081906125c6565b9081516001600160401b0381116107a5575f80516020613050833981519152906126228161261d8454611955565b6124fd565b602080601f8311600114612657575081906126539394955f926107065750508160011b915f199060031b1c19161790565b9055565b90601f198316956126955f805160206130508339815191525f527f5f9ce34815f8e11431c7bb75a8e6886a91478f7ffc1dbb0a98dc240fddd76b7590565b925f905b8882106126d0575050836001959697106126b8575b505050811b019055565b01515f1960f88460031b161c191690555f80806126ae565b80600185968294968601518155019501930190612699565b9081516001600160401b0381116107a5575f805160206130308339815191529061271b816127168454611955565b612576565b602080601f831160011461274c575081906126539394955f926107065750508160011b915f199060031b1c19161790565b90601f1983169561278a5f805160206130308339815191525f527f46a2803e59a4de4e7a4c574b1243f25977ac4c77d5a1a4a609b5394cebb4a2aa90565b925f905b8882106127ac575050836001959697106126b857505050811b019055565b8060018596829496860151815501950193019061278e565b5f806103a593602081519101845af46127db611c18565b91612bea565b6001600160a01b0380831693929190811690818514158061290c575b612809575b5050505050565b8161287e575b50508261281e575b8080612802565b7fdec2bacdd2f05b59de34da9b523dff8be42e5e38e818c82fdb0bae774387a7249161285561284f61285b93610ef5565b91612c4d565b90612c80565b604080516001600160d01b039384168152919092166020820152a25f8080612817565b61288790610ef5565b61289084612c4d565b61289942612023565b6001600160d01b039182806128ad86612249565b169116900392828411610bca577fdec2bacdd2f05b59de34da9b523dff8be42e5e38e818c82fdb0bae774387a72493612902926128e992612eb9565b6040805192851683529316602082015291829190820190565b0390a25f8061280f565b508315156127fd565b811561291f570490565b634e487b7160e01b5f52601260045260245ffd5b60018111156103a557600181600160801b811015612a4c575b6129f46129ea6129e06129d66129cc6129c2612a0097600488600160401b6129fb9a1015612a3f575b640100000000811015612a32575b62010000811015612a25575b610100811015612a19575b6010811015612a0d575b1015612a05575b60030260011c6129bb818b612915565b0160011c90565b6129bb818a612915565b6129bb8189612915565b6129bb8188612915565b6129bb8187612915565b6129bb8186612915565b8093612915565b821190565b900390565b60011b6129ab565b811c9160021b916129a4565b60081c91811b9161299a565b60101c9160081b9161298f565b60201c9160101b91612983565b60401c9160201b91612975565b50600160401b9050608082901c61294c565b91905b838210612a6e5750505090565b9091928083169080841860011c8201809211610bca57845f5265ffffffffffff808360205f20015416908416105f14612aab5750925b9190612a61565b939250612ab790612077565b91612aa4565b91907f7fffffffffffffffffffffffffffffff5d576e7357a4501ddfe92f46681b20a08411612b34579160209360809260ff5f9560405194855216868401526040830152606082015282805260015afa15610a97575f516001600160a01b03811615612b2a57905f905f90565b505f906001905f90565b5050505f9160039190565b60041115612b4957565b634e487b7160e01b5f52602160045260245ffd5b612b6681612b3f565b80612b6f575050565b612b7881612b3f565b60018103612b925760405163f645eedf60e01b8152600490fd5b612b9b81612b3f565b60028103612bbc5760405163fce698f760e01b815260048101839052602490fd5b80612bc8600392612b3f565b14612bd05750565b6040516335e2f38360e21b81526004810191909152602490fd5b90612c115750805115612bff57805190602001fd5b60405163d6bda27560e01b8152600490fd5b81511580612c44575b612c22575090565b604051639996b31560e01b81526001600160a01b039091166004820152602490fd5b50803b15612c1a565b6001600160d01b0390818111612c61571690565b604490604051906306dfcc6560e41b825260d060048301526024820152fd5b90612c8a42612023565b6001600160d01b03918280612c9e86612249565b16911601918211610bca576105dd92612eb9565b90815491600160401b8310156107a55782612cd5916001611a4595018155611c95565b90919082549060031b91821b915f19901b1916179055565b90929192600182019081548015612d7f575b5084612d0a84612f96565b50949092845493612d1a83611d36565b9681612d6a575b5015612d47575050505f198101908111610bca57612cd58591612d4393611c95565b9190565b612d43949293612d63926001600160d01b039091169190612eb9565b5050612cb2565b65ffffffffffff83811691161490505f612d21565b600160401b8110156107a557806001612d9b9201845583611c95565b8154905f199060031b1b191690555f612cff565b612db76119f8565b8051908115612dc7576020012090565b50507fa16a46d94261c7517cc8ff89f61c0ce93598e3c849801011dee649a6a557d100548015612df45790565b507fc5d2460186f7233c927e7db2dcc703c0e500b653ca82273b7bfad8045d85a47090565b612e21611acd565b8051908115612e31576020012090565b50507fa16a46d94261c7517cc8ff89f61c0ce93598e3c849801011dee649a6a557d101548015612df45790565b8054600160401b8110156107a557612e7b91600182018155611c95565b612ea657815160209092015160301b65ffffffffffff191665ffffffffffff92909216919091179055565b634e487b7160e01b5f525f60045260245ffd5b80549293928015612f6c57612ed0612edb91612069565b825f5260205f200190565b9182549265ffffffffffff91828516928116808411612f5a57879303612f215750612f1a92509065ffffffffffff82549181199060301b169116179055565b60301c9190565b915050612f5591612f41612f33611b79565b65ffffffffffff9093168352565b6001600160d01b0386166020830152612e5e565b612f1a565b604051632520601d60e01b8152600490fd5b5090612f9191612f7d612f33611b79565b6001600160d01b0385166020830152612e5e565b5f9190565b805480612fa75750505f905f905f90565b5f19918183810111610bca575f5260205f2001015460019165ffffffffffff82169160301c9056fee8b26c30fad74198956032a3533d903385d56dd795af560196f9c78d4af40d0052c63247e1f47db19d5ce0460030c497f067ca4cebf71ba98eeadabe20bace03a16a46d94261c7517cc8ff89f61c0ce93598e3c849801011dee649a6a557d10252c63247e1f47db19d5ce0460030c497f067ca4cebf71ba98eeadabe20bace04a16a46d94261c7517cc8ff89f61c0ce93598e3c849801011dee649a6a557d103ddf252ad1be2c89b69c2b068fc378daa952ba7f163c4a11628f55a4df523b3efa2646970667358221220692b17526c3161731558bcaf6b4416f7b7abccf61c6052af601e82a392c9336664736f6c63430008190033","linkReferences":{}},"methodIdentifiers":{"CLOCK_MODE()":"4bf5d7e9","DEPOSITOR_WHITELIST_ROLE()":"1b66c9e1","DEPOSIT_LIMIT_SET_ROLE()":"a21a1df9","DEPOSIT_WHITELIST_SET_ROLE()":"db388715","EPOCH_DURATION_SET_ROLE()":"61819dd8","FLASH_FEE_BASE()":"ecc98f05","FLASH_FEE_RATE_SET_ROLE()":"bc46f722","FLASH_FEE_RECEIVER_SET_ROLE()":"31d9736c","FLASH_LOAN_ENABLED_SET_ROLE()":"a66b3a73","IS_DEPOSIT_LIMIT_SET_ROLE()":"1415519b","RETURN_VALUE()":"653b04cd","_VaultTokenized_init(bytes)":"7bd00ae8","_VaultVotes_init(bytes)":"0eac105e","_epochDuration()":"2fa27fae","_epochDurationInit()":"9f9962dd","allowance(address,address)":"dd62ed3e","approve(address,uint256)":"095ea7b3","balanceOf(address)":"70a08231","burner()":"27810b6e","clock()":"91ddadf4","collateral()":"d8dfeb45","decimals()":"313ce567","delegate(address)":"5c19a95c","delegateBySig(address,uint256,uint256,uint8,bytes32,bytes32)":"c3cda520","delegates(address)":"587cde1e","delegator()":"ce9b7930","deposit(address,uint256)":"47e7ef24","depositLimit()":"ecf70858","depositWhitelist()":"48d3b775","eip712Domain()":"84b0196e","flashFeeRate()":"e945da7f","flashFeeReceiver()":"a8b24f9a","flashLoanEnabled()":"65d61c6c","getPastTotalSupply(uint256)":"8e539e8c","getPastVotes(address,uint256)":"3a46b1a8","getVotes(address)":"9ab24eb0","isDelegatorInitialized()":"50861adc","isDepositLimit()":"a1b12202","isDepositorWhitelisted(address)":"794b15b7","isSlasherInitialized()":"6ec1e3f8","isWithdrawalsClaimed(uint256,address)":"a5d03223","name()":"06fdde03","nonces(address)":"7ecebe00","redeem(address,uint256)":"1e9a6950","slasher()":"b1344271","staticDelegateCall(address,bytes)":"9f86fd85","symbol()":"95d89b41","totalSupply()":"18160ddd","transfer(address,uint256)":"a9059cbb","transferFrom(address,address,uint256)":"23b872dd","withdraw(address,uint256)":"f3fef3a3","withdrawalShares(uint256)":"afba70ad","withdrawalSharesOf(uint256,address)":"a3b54172","withdrawals(uint256)":"5cc07076"},"id":117}