{"abi":[{"type":"constructor","inputs":[{"name":"name_","type":"string","internalType":"string"}],"stateMutability":"nonpayable"},{"type":"function","name":"allowance","inputs":[{"name":"owner","type":"address","internalType":"address"},{"name":"spender","type":"address","internalType":"address"}],"outputs":[{"name":"","type":"uint256","internalType":"uint256"}],"stateMutability":"view"},{"type":"function","name":"approve","inputs":[{"name":"spender","type":"address","internalType":"address"},{"name":"amount","type":"uint256","internalType":"uint256"}],"outputs":[{"name":"","type":"bool","internalType":"bool"}],"stateMutability":"nonpayable"},{"type":"function","name":"balanceOf","inputs":[{"name":"user","type":"address","internalType":"address"}],"outputs":[{"name":"","type":"uint256","internalType":"uint256"}],"stateMutability":"view"},{"type":"function","name":"decimals","inputs":[],"outputs":[{"name":"","type":"uint8","internalType":"uint8"}],"stateMutability":"view"},{"type":"function","name":"name","inputs":[],"outputs":[{"name":"","type":"string","internalType":"string"}],"stateMutability":"view"},{"type":"function","name":"setMultiplier","inputs":[{"name":"multiplier_","type":"uint256","internalType":"uint256"}],"outputs":[],"stateMutability":"nonpayable"},{"type":"function","name":"sharesOf","inputs":[{"name":"user","type":"address","internalType":"address"}],"outputs":[{"name":"","type":"uint256","internalType":"uint256"}],"stateMutability":"view"},{"type":"function","name":"symbol","inputs":[],"outputs":[{"name":"","type":"string","internalType":"string"}],"stateMutability":"view"},{"type":"function","name":"totalSupply","inputs":[],"outputs":[{"name":"","type":"uint256","internalType":"uint256"}],"stateMutability":"view"},{"type":"function","name":"transfer","inputs":[{"name":"receiver","type":"address","internalType":"address"},{"name":"amount","type":"uint256","internalType":"uint256"}],"outputs":[{"name":"","type":"bool","internalType":"bool"}],"stateMutability":"nonpayable"},{"type":"function","name":"transferFrom","inputs":[{"name":"sender","type":"address","internalType":"address"},{"name":"receiver","type":"address","internalType":"address"},{"name":"amount","type":"uint256","internalType":"uint256"}],"outputs":[{"name":"","type":"bool","internalType":"bool"}],"stateMutability":"nonpayable"},{"type":"event","name":"Approval","inputs":[{"name":"owner","type":"address","indexed":true,"internalType":"address"},{"name":"spender","type":"address","indexed":true,"internalType":"address"},{"name":"value","type":"uint256","indexed":false,"internalType":"uint256"}],"anonymous":false},{"type":"event","name":"Transfer","inputs":[{"name":"from","type":"address","indexed":true,"internalType":"address"},{"name":"to","type":"address","indexed":true,"internalType":"address"},{"name":"value","type":"uint256","indexed":false,"internalType":"uint256"}],"anonymous":false},{"type":"error","name":"ERC20InsufficientAllowance","inputs":[{"name":"spender","type":"address","internalType":"address"},{"name":"allowance","type":"uint256","internalType":"uint256"},{"name":"needed","type":"uint256","internalType":"uint256"}]},{"type":"error","name":"ERC20InsufficientBalance","inputs":[{"name":"sender","type":"address","internalType":"address"},{"name":"balance","type":"uint256","internalType":"uint256"},{"name":"needed","type":"uint256","internalType":"uint256"}]},{"type":"error","name":"ERC20InvalidApprover","inputs":[{"name":"approver","type":"address","internalType":"address"}]},{"type":"error","name":"ERC20InvalidReceiver","inputs":[{"name":"receiver","type":"address","internalType":"address"}]},{"type":"error","name":"ERC20InvalidSender","inputs":[{"name":"sender","type":"address","internalType":"address"}]},{"type":"error","name":"ERC20InvalidSpender","inputs":[{"name":"spender","type":"address","internalType":"address"}]},{"type":"error","name":"MathOverflowedMulDiv","inputs":[]}],"bytecode":{"object":"0x604060808152346103c657610c818038038061001a816103cb565b92833981019060209081818403126103c65780516001600160401b03918282116103c6570190601f8481840112156103c65782518281116102c257601f1993610068828401861687016103cb565b968288528683830101116103c657859060005b8381106103b257505060009187010152855194848601868110848211176102c2578752600086528051918383116102c25760039283546001938482811c921680156103a8575b89831014610392578184849311610341575b5088908483116001146102e3576000926102d8575b505060001982861b1c191690831b1783555b86519384116102c25760049687548381811c911680156102b8575b888210146102a35782811161025d575b50869185116001146101f957849550908492916000956101ee575b50501b92600019911b1c19161782555b6103e860055533156101d75760025469d3c21bcecceda1000000928382018092116101c257506000917fddf252ad1be2c89b69c2b068fc378daa952ba7f163c4a11628f55a4df523b3ef9160025533835282815284832084815401905584519384523393a35161089090816103f18239f35b601190634e487b7160e01b6000525260246000fd5b506000602492519163ec442f0560e01b8352820152fd5b015193503880610140565b9291948416928760005284876000209460005b8989838310610246575050501061022c575b50505050811b018255610150565b01519060f884600019921b161c191690553880808061021e565b86860151895590970196948501948893500161020c565b88600052876000208380880160051c8201928a891061029a575b0160051c019084905b82811061028e575050610125565b60008155018490610280565b92508192610277565b602289634e487b7160e01b6000525260246000fd5b90607f1690610115565b634e487b7160e01b600052604160045260246000fd5b0151905038806100e8565b908886941691876000528a6000209260005b8c82821061032b5750508411610313575b505050811b0183556100fa565b015160001983881b60f8161c19169055388080610306565b83850151865589979095019493840193016102f5565b90915085600052886000208480850160051c8201928b8610610389575b918791869594930160051c01915b82811061037a5750506100d3565b6000815585945087910161036c565b9250819261035e565b634e487b7160e01b600052602260045260246000fd5b91607f16916100c1565b81810183015189820184015287920161007b565b600080fd5b6040519190601f01601f191682016001600160401b038111838210176102c25760405256fe608060408181526004918236101561001657600080fd5b600092833560e01c91826306fdde03146104cf57508163095ea7b31461041657816318160ddd146103f757816323b872dd146102f5578163313ce567146102d9578163641579a6146102bf57816370a082311461027b57816395d89b411461015a57508063a9059cbb1461011f578063dd62ed3e146100d75763f5eb42dc1461009e57600080fd5b346100d35760203660031901126100d35760209181906001600160a01b036100c46105f2565b16815280845220549051908152f35b5080fd5b50346100d357806003193601126100d357806020926100f46105f2565b6100fc61060d565b6001600160a01b0391821683526001865283832091168252845220549051908152f35b50346100d357806003193601126100d35760209061015361013e6105f2565b61014c600554602435610623565b903361077c565b5160018152f35b8383346100d357816003193601126100d35780519082845460018160011c9060018316928315610271575b602093848410811461025e5783885290811561024257506001146101ed575b505050829003601f01601f191682019267ffffffffffffffff8411838510176101da57508291826101d69252826105a9565b0390f35b634e487b7160e01b815260418552602490fd5b8787529192508591837f8a35acfbc15ff81a39ae7d344fd709f28e8600b4aa8c65c6b64bfe7fe36bd19b5b83851061022e57505050508301018580806101a4565b805488860183015293019284908201610218565b60ff1916878501525050151560051b84010190508580806101a4565b634e487b7160e01b895260228a52602489fd5b91607f1691610185565b5050346100d35760203660031901126100d3576020916102b89082906001600160a01b036102a76105f2565b16815280855220546005549061067b565b9051908152f35b8390346100d35760203660031901126100d3573560055580f35b5050346100d357816003193601126100d3576020905160128152f35b905082346103f45760603660031901126103f4576103116105f2565b61031961060d565b91610328600554604435610623565b6001600160a01b038316808352600160208181528885203386529052878420549296908301610360575b60208861015389898961077c565b8683106103c85781156103b157331561039a5750825260016020908152868320338452815291869020908590039055829061015387610352565b8751634a1406b160e11b8152908101849052602490fd5b875163e602df0560e01b8152908101849052602490fd5b8751637dc7a0d960e11b8152339181019182526020820193909352604081018790528291506060010390fd5b80fd5b5050346100d357816003193601126100d3576020906002549051908152f35b9050346104cb57816003193601126104cb576104306105f2565b61043e600554602435610623565b9033156104b4576001600160a01b031691821561049d57508083602095338152600187528181208582528752205582519081527f8c5be1e5ebec7d5bd14f71427d1e84f3dd0314c0f7b2291e5b200ac8c7c3b925843392a35160018152f35b8351634a1406b160e11b8152908101859052602490fd5b835163e602df0560e01b8152808401869052602490fd5b8280fd5b849084346104cb57826003193601126104cb578260035460018160011c906001831692831561059f575b602093848410811461025e57838852908115610242575060011461054957505050829003601f01601f191682019267ffffffffffffffff8411838510176101da57508291826101d69252826105a9565b600387529192508591837fc2575a0e9e593c00f959f8c92f12db2869c3395a3b0502d05e2516446f71f85b5b83851061058b57505050508301018580806101a4565b805488860183015293019284908201610575565b91607f16916104f9565b6020808252825181830181905290939260005b8281106105de57505060409293506000838284010152601f8019910116010190565b8181018601518482016040015285016105bc565b600435906001600160a01b038216820361060857565b600080fd5b602435906001600160a01b038216820361060857565b9061062e81836106f6565b918115610665576103e890096106415790565b6001810180911161064f5790565b634e487b7160e01b600052601160045260246000fd5b634e487b7160e01b600052601260045260246000fd5b9080820290600019818409908280831092039180830392146106eb576103e890828211156106d9577fac083126e978d4fdf3b645a1cac083126e978d4fdf3b645a1cac083126e978d5940990828211900360fd1b910360031c170290565b60405163227bc15360e01b8152600490fd5b50506103e891500490565b6103e891818302916000198482099383808610950394808603951461076e57848311156106d95782910981600003821680920460028082600302188083028203028083028203028083028203028083028203028083028203028092029003029360018380600003040190848311900302920304170290565b505080925015610665570490565b916001600160a01b03808416928315610841571692831561082857600090838252816020526040822054908382106107f6575091604082827fddf252ad1be2c89b69c2b068fc378daa952ba7f163c4a11628f55a4df523b3ef958760209652828652038282205586815220818154019055604051908152a3565b60405163391434e360e21b81526001600160a01b03919091166004820152602481019190915260448101839052606490fd5b60405163ec442f0560e01b815260006004820152602490fd5b604051634b637e8f60e11b815260006004820152602490fdfea2646970667358221220f771bb8e2485551f56ac7f2e5f4019a7cc48da54e1a97d2516ed82ab536c76cd64736f6c63430008190033","linkReferences":{}},"methodIdentifiers":{"allowance(address,address)":"dd62ed3e","approve(address,uint256)":"095ea7b3","balanceOf(address)":"70a08231","decimals()":"313ce567","name()":"06fdde03","setMultiplier(uint256)":"641579a6","sharesOf(address)":"f5eb42dc","symbol()":"95d89b41","totalSupply()":"18160ddd","transfer(address,uint256)":"a9059cbb","transferFrom(address,address,uint256)":"23b872dd"},"id":156}