{"abi":[{"type":"constructor","inputs":[{"name":"vaultFactory","type":"address","internalType":"address"},{"name":"implementation","type":"address","internalType":"address"}],"stateMutability":"nonpayable"},{"type":"fallback","stateMutability":"payable"},{"type":"function","name":"DEFAULT_ADMIN_ROLE","inputs":[],"outputs":[{"name":"","type":"bytes32","internalType":"bytes32"}],"stateMutability":"view"},{"type":"function","name":"DEPOSITOR_WHITELIST_ROLE","inputs":[],"outputs":[{"name":"","type":"bytes32","internalType":"bytes32"}],"stateMutability":"view"},{"type":"function","name":"DEPOSIT_LIMIT_SET_ROLE","inputs":[],"outputs":[{"name":"","type":"bytes32","internalType":"bytes32"}],"stateMutability":"view"},{"type":"function","name":"DEPOSIT_WHITELIST_SET_ROLE","inputs":[],"outputs":[{"name":"","type":"bytes32","internalType":"bytes32"}],"stateMutability":"view"},{"type":"function","name":"EPOCH_DURATION_SET_ROLE","inputs":[],"outputs":[{"name":"","type":"bytes32","internalType":"bytes32"}],"stateMutability":"view"},{"type":"function","name":"FACTORY","inputs":[],"outputs":[{"name":"","type":"address","internalType":"address"}],"stateMutability":"view"},{"type":"function","name":"FLASH_FEE_BASE","inputs":[],"outputs":[{"name":"","type":"uint256","internalType":"uint256"}],"stateMutability":"view"},{"type":"function","name":"FLASH_FEE_RATE_SET_ROLE","inputs":[],"outputs":[{"name":"","type":"bytes32","internalType":"bytes32"}],"stateMutability":"view"},{"type":"function","name":"FLASH_FEE_RECEIVER_SET_ROLE","inputs":[],"outputs":[{"name":"","type":"bytes32","internalType":"bytes32"}],"stateMutability":"view"},{"type":"function","name":"FLASH_LOAN_ENABLED_SET_ROLE","inputs":[],"outputs":[{"name":"","type":"bytes32","internalType":"bytes32"}],"stateMutability":"view"},{"type":"function","name":"IS_DEPOSIT_LIMIT_SET_ROLE","inputs":[],"outputs":[{"name":"","type":"bytes32","internalType":"bytes32"}],"stateMutability":"view"},{"type":"function","name":"MIN_EXIT_WINDOW","inputs":[],"outputs":[{"name":"","type":"uint48","internalType":"uint48"}],"stateMutability":"view"},{"type":"function","name":"RETURN_VALUE","inputs":[],"outputs":[{"name":"","type":"bytes32","internalType":"bytes32"}],"stateMutability":"view"},{"type":"function","name":"burner","inputs":[],"outputs":[{"name":"","type":"address","internalType":"address"}],"stateMutability":"view"},{"type":"function","name":"collateral","inputs":[],"outputs":[{"name":"","type":"address","internalType":"address"}],"stateMutability":"view"},{"type":"function","name":"delegator","inputs":[],"outputs":[{"name":"","type":"address","internalType":"address"}],"stateMutability":"view"},{"type":"function","name":"depositLimit","inputs":[],"outputs":[{"name":"","type":"uint256","internalType":"uint256"}],"stateMutability":"view"},{"type":"function","name":"depositWhitelist","inputs":[],"outputs":[{"name":"","type":"bool","internalType":"bool"}],"stateMutability":"view"},{"type":"function","name":"flashFeeRate","inputs":[],"outputs":[{"name":"","type":"uint256","internalType":"uint256"}],"stateMutability":"view"},{"type":"function","name":"flashFeeReceiver","inputs":[],"outputs":[{"name":"","type":"address","internalType":"address"}],"stateMutability":"view"},{"type":"function","name":"flashLoanEnabled","inputs":[],"outputs":[{"name":"","type":"bool","internalType":"bool"}],"stateMutability":"view"},{"type":"function","name":"getRoleAdmin","inputs":[{"name":"role","type":"bytes32","internalType":"bytes32"}],"outputs":[{"name":"","type":"bytes32","internalType":"bytes32"}],"stateMutability":"view"},{"type":"function","name":"grantRole","inputs":[{"name":"role","type":"bytes32","internalType":"bytes32"},{"name":"account","type":"address","internalType":"address"}],"outputs":[],"stateMutability":"nonpayable"},{"type":"function","name":"hasRole","inputs":[{"name":"role","type":"bytes32","internalType":"bytes32"},{"name":"account","type":"address","internalType":"address"}],"outputs":[{"name":"","type":"bool","internalType":"bool"}],"stateMutability":"view"},{"type":"function","name":"initialize","inputs":[{"name":"initialVersion","type":"uint64","internalType":"uint64"},{"name":"owner_","type":"address","internalType":"address"},{"name":"data","type":"bytes","internalType":"bytes"}],"outputs":[],"stateMutability":"nonpayable"},{"type":"function","name":"isDelegatorInitialized","inputs":[],"outputs":[{"name":"","type":"bool","internalType":"bool"}],"stateMutability":"view"},{"type":"function","name":"isDepositLimit","inputs":[],"outputs":[{"name":"","type":"bool","internalType":"bool"}],"stateMutability":"view"},{"type":"function","name":"isDepositorWhitelisted","inputs":[{"name":"account","type":"address","internalType":"address"}],"outputs":[{"name":"value","type":"bool","internalType":"bool"}],"stateMutability":"view"},{"type":"function","name":"isSlasherInitialized","inputs":[],"outputs":[{"name":"","type":"bool","internalType":"bool"}],"stateMutability":"view"},{"type":"function","name":"isWithdrawalsClaimed","inputs":[{"name":"epoch","type":"uint256","internalType":"uint256"},{"name":"account","type":"address","internalType":"address"}],"outputs":[{"name":"value","type":"bool","internalType":"bool"}],"stateMutability":"view"},{"type":"function","name":"migrate","inputs":[{"name":"newVersion","type":"uint64","internalType":"uint64"},{"name":"data","type":"bytes","internalType":"bytes"}],"outputs":[],"stateMutability":"nonpayable"},{"type":"function","name":"owner","inputs":[],"outputs":[{"name":"","type":"address","internalType":"address"}],"stateMutability":"view"},{"type":"function","name":"renounceOwnership","inputs":[],"outputs":[],"stateMutability":"nonpayable"},{"type":"function","name":"renounceRole","inputs":[{"name":"role","type":"bytes32","internalType":"bytes32"},{"name":"callerConfirmation","type":"address","internalType":"address"}],"outputs":[],"stateMutability":"nonpayable"},{"type":"function","name":"revokeRole","inputs":[{"name":"role","type":"bytes32","internalType":"bytes32"},{"name":"account","type":"address","internalType":"address"}],"outputs":[],"stateMutability":"nonpayable"},{"type":"function","name":"slasher","inputs":[],"outputs":[{"name":"","type":"address","internalType":"address"}],"stateMutability":"view"},{"type":"function","name":"staticDelegateCall","inputs":[{"name":"target","type":"address","internalType":"address"},{"name":"data","type":"bytes","internalType":"bytes"}],"outputs":[],"stateMutability":"nonpayable"},{"type":"function","name":"supportsInterface","inputs":[{"name":"interfaceId","type":"bytes4","internalType":"bytes4"}],"outputs":[{"name":"","type":"bool","internalType":"bool"}],"stateMutability":"view"},{"type":"function","name":"transferOwnership","inputs":[{"name":"newOwner","type":"address","internalType":"address"}],"outputs":[],"stateMutability":"nonpayable"},{"type":"function","name":"version","inputs":[],"outputs":[{"name":"","type":"uint64","internalType":"uint64"}],"stateMutability":"view"},{"type":"function","name":"withdrawalShares","inputs":[{"name":"epoch","type":"uint256","internalType":"uint256"}],"outputs":[{"name":"amount","type":"uint256","internalType":"uint256"}],"stateMutability":"view"},{"type":"function","name":"withdrawalSharesOf","inputs":[{"name":"epoch","type":"uint256","internalType":"uint256"},{"name":"account","type":"address","internalType":"address"}],"outputs":[{"name":"amount","type":"uint256","internalType":"uint256"}],"stateMutability":"view"},{"type":"function","name":"withdrawals","inputs":[{"name":"epoch","type":"uint256","internalType":"uint256"}],"outputs":[{"name":"amount","type":"uint256","internalType":"uint256"}],"stateMutability":"view"},{"type":"event","name":"Initialized","inputs":[{"name":"version","type":"uint64","indexed":false,"internalType":"uint64"}],"anonymous":false},{"type":"event","name":"OwnershipTransferred","inputs":[{"name":"previousOwner","type":"address","indexed":true,"internalType":"address"},{"name":"newOwner","type":"address","indexed":true,"internalType":"address"}],"anonymous":false},{"type":"event","name":"RoleAdminChanged","inputs":[{"name":"role","type":"bytes32","indexed":true,"internalType":"bytes32"},{"name":"previousAdminRole","type":"bytes32","indexed":true,"internalType":"bytes32"},{"name":"newAdminRole","type":"bytes32","indexed":true,"internalType":"bytes32"}],"anonymous":false},{"type":"event","name":"RoleGranted","inputs":[{"name":"role","type":"bytes32","indexed":true,"internalType":"bytes32"},{"name":"account","type":"address","indexed":true,"internalType":"address"},{"name":"sender","type":"address","indexed":true,"internalType":"address"}],"anonymous":false},{"type":"event","name":"RoleRevoked","inputs":[{"name":"role","type":"bytes32","indexed":true,"internalType":"bytes32"},{"name":"account","type":"address","indexed":true,"internalType":"address"},{"name":"sender","type":"address","indexed":true,"internalType":"address"}],"anonymous":false},{"type":"error","name":"AccessControlBadConfirmation","inputs":[]},{"type":"error","name":"AccessControlUnauthorizedAccount","inputs":[{"name":"account","type":"address","internalType":"address"},{"name":"neededRole","type":"bytes32","internalType":"bytes32"}]},{"type":"error","name":"AddressEmptyCode","inputs":[{"name":"target","type":"address","internalType":"address"}]},{"type":"error","name":"AlreadyInitialized","inputs":[]},{"type":"error","name":"AlreadySet","inputs":[]},{"type":"error","name":"FailedCall","inputs":[]},{"type":"error","name":"InsufficientExitWindow","inputs":[]},{"type":"error","name":"InvalidAccount","inputs":[]},{"type":"error","name":"InvalidCollateral","inputs":[]},{"type":"error","name":"InvalidEpochDuration","inputs":[]},{"type":"error","name":"InvalidEpochDurationSetEpochsDelay","inputs":[]},{"type":"error","name":"InvalidFlashParams","inputs":[]},{"type":"error","name":"InvalidInitialization","inputs":[]},{"type":"error","name":"InvalidOrigin","inputs":[]},{"type":"error","name":"MissingRoles","inputs":[]},{"type":"error","name":"NoDepositWhitelist","inputs":[]},{"type":"error","name":"NotFactory","inputs":[]},{"type":"error","name":"NotInitialized","inputs":[]},{"type":"error","name":"NotInitializing","inputs":[]},{"type":"error","name":"OwnableInvalidOwner","inputs":[{"name":"owner","type":"address","internalType":"address"}]},{"type":"error","name":"OwnableUnauthorizedAccount","inputs":[{"name":"account","type":"address","internalType":"address"}]},{"type":"error","name":"ReentrancyGuardReentrantCall","inputs":[]},{"type":"error","name":"SafeCastOverflowedUintDowncast","inputs":[{"name":"bits","type":"uint8","internalType":"uint8"},{"name":"value","type":"uint256","internalType":"uint256"}]}],"bytecode":{"object":"0x60c03461011c57612872906001600160401b0390601f38849003908101601f191682019083821183831017610120578083916040968794855283398101031261011c57610057602061005083610134565b9201610134565b917ff0c57e16840df040f15088dc2f81fe391c3923bec73e23a9662efc9c229c6a009081549060ff82871c1661010b5780808316036100c7575b50505060805260a05251612729908161014982396080518181816104990152610604015260a05181818161114201526119740152f35b6001600160401b0319909116811790915583519081527fc7f505b2f371ae2175ee4913f4499e1f2633a7b5936321eed1cdaeb6115181d290602090a15f8080610091565b855163f92ee8a960e01b8152600490fd5b5f80fd5b634e487b7160e01b5f52604160045260245ffd5b51906001600160a01b038216820361011c5756fe60806040526004361061196a575f3560e01c806301ffc9a7146102bb5780631415519b146102b65780631b66c9e1146102b1578063248a9ca3146102ac57806327810b6e146102a75780632abe3048146102a25780632dd310001461029d5780632f2ff15d1461029857806331d9736c1461029357806336568abe1461028e57806348d3b7751461028957806350861adc1461028457806354fd4d501461027f57806357ec83cc1461027a5780635cc070761461027557806361819dd814610270578063653b04cd1461026b57806365d61c6c146102665780636ec1e3f814610261578063715018a61461025c578063794b15b7146102575780638da5cb5b1461025257806391d148541461024d5780639f86fd8514610248578063a1b1220214610243578063a217fddf1461023e578063a21a1df914610239578063a3b5417214610234578063a5d032231461022f578063a66b3a731461022a578063a8b24f9a14610225578063afba70ad14610220578063b13442711461021b578063bc46f72214610216578063ce9b793014610211578063d547741f1461020c578063d8dfeb4514610207578063db38871514610202578063e945da7f146101fd578063ecc98f05146101f8578063ecf70858146101f3578063f151f6b5146101ee5763f2fde38b0361196a57610ece565b610eb1565b610e94565b610e76565b610e59565b610e1f565b610df4565b610da8565b610d80565b610d46565b610d1e565b610cf4565b610ccc565b610c92565b610c4c565b610bff565b610bc5565b610bab565b610b87565b610af3565b610a95565b610a61565b610a21565b6109ba565b610995565b610970565b610936565b6108fc565b6108d2565b61078d565b61075b565b610736565b610715565b6106ca565b610690565b610644565b6105ef565b61042d565b6103c2565b610389565b61034f565b610315565b346103115760203660031901126103115760043563ffffffff60e01b811680910361031157602090637965db0b60e01b8114908115610300575b506040519015158152f35b6301ffc9a760e01b1490505f6102f5565b5f80fd5b34610311575f3660031901126103115760206040517fc6aaadd7371d5e8f9ed6849dd66a66573a3ba37167d03f4352c9ba5693678fac8152f35b34610311575f3660031901126103115760206040517f9c56d972d63cbb4195b3c1484691dfc220fa96a4c47e7b6613bd82a022029e068152f35b34610311576020366003190112610311576004355f525f805160206126b48339815191526020526020600160405f200154604051908152f35b34610311575f366003190112610311576001546040516001600160a01b039091168152602090f35b600435906001600160401b038216820361031157565b9181601f84011215610311578235916001600160401b038311610311576020838186019501011161031157565b3461031157604080600319360112610311576104476103ea565b906001600160401b0360243581811161031157610468903690600401610400565b917f9b779b17422d0df92223018b32b4d1fa46e071723d6817e2486d003becc55f0060028154146105de57600290557f00000000000000000000000000000000000000000000000000000000000000006001600160a01b031633036105cd575f805160206126d483398151915280548281169260ff82881c1680156105c1575b6105b05767ffffffffffffffff199091169087161790555f805160206126d4833981519152805460ff60401b1916600160401b1790557fc7f505b2f371ae2175ee4913f4499e1f2633a7b5936321eed1cdaeb6115181d294610582949093909261055192611247565b5f805160206126d4833981519152805460ff60401b19169055516001600160401b0390911681529081906020820190565b0390a16105ae60017f9b779b17422d0df92223018b32b4d1fa46e071723d6817e2486d003becc55f0055565b005b865163f92ee8a960e01b8152600490fd5b508088168410156104e8565b8351631966391b60e11b8152600490fd5b8451633ee5aeb560e01b8152600490fd5b34610311575f366003190112610311576040517f00000000000000000000000000000000000000000000000000000000000000006001600160a01b03168152602090f35b6001600160a01b0381160361031157565b34610311576040366003190112610311576105ae60243560043561066782610633565b805f525f805160206126b483398151915260205261068b600160405f200154611303565b6117e1565b34610311575f3660031901126103115760206040517f5295aaaa27fdd659293eafacbfafbc634c1b96298957e87de5f59308cdbfdad18152f35b34610311576040366003190112610311576024356106e781610633565b336001600160a01b03821603610703576105ae90600435611817565b60405163334bd91960e11b8152600490fd5b34610311575f36600319011261031157602060ff5f54166040519015158152f35b34610311575f36600319011261031157602060ff60025460a01c166040519015158152f35b34610311575f3660031901126103115760206001600160401b035f805160206126d48339815191525416604051908152f35b34610311576060366003190112610311576107a66103ea565b6024356107b281610633565b6001600160401b0391604435838111610311576107d3903690600401610400565b5f805160206126d48339815191529491855494838616806108c15760ff8760401c169081156108b4575b506108a2577fc7f505b2f371ae2175ee4913f4499e1f2633a7b5936321eed1cdaeb6115181d29661089d9661086a958716906001600160401b0319161790556108655f805160206126d4833981519152600160401b68ff000000000000000019825416179055565b610fe1565b5f805160206126d4833981519152805460ff60401b191690556040516001600160401b0390911681529081906020820190565b0390a1005b60405163f92ee8a960e01b8152600490fd5b905084861611155f6107fd565b60405162dc149f60e41b8152600490fd5b34610311576020366003190112610311576004355f526006602052602060405f2054604051908152f35b34610311575f3660031901126103115760206040517f591f6a0113ada8aff67efadec8ae2fa585cb4ebf4e1f8fc1205ffbeff98d00ec8152f35b34610311575f3660031901126103115760206040517f439148f0bbc682ca079e46d6e2c2f0c1e3b820f1a291b069d8882abf8cf18dd98152f35b34610311575f36600319011261031157602060ff60165460a01c166040519015158152f35b34610311575f36600319011261031157602060ff60035460a01c166040519015158152f35b34610311575f366003190112610311576109d2611932565b5f8051602061269483398151915280546001600160a01b031981169091555f906001600160a01b03167f8be0079c531659141344cd1fd0a4f28419497f9722a3daafe3b4186f6b6457e08280a3005b3461031157602036600319011261031157600435610a3e81610633565b60018060a01b03165f526005602052602060ff60405f2054166040519015158152f35b34610311575f366003190112610311575f80516020612694833981519152546040516001600160a01b039091168152602090f35b3461031157604036600319011261031157602060ff610ae7602435610ab981610633565b6004355f525f805160206126b4833981519152845260405f209060018060a01b03165f5260205260405f2090565b54166040519015158152f35b3461031157604036600319011261031157600435610b1081610633565b6024356001600160401b038111610311575f91610b3283923690600401610400565b90816040519283928337810184815203915af4610b7f610b50611183565b91610b716040519384921515602084015260408084015260608301906111b2565b03601f198101835282610f2f565b805190602001fd5b34610311575f36600319011261031157602060ff5f5460081c166040519015158152f35b34610311575f3660031901126103115760206040515f8152f35b34610311575f3660031901126103115760206040517f4a634bc14d77baf979756509ef4298c6f6318af357828612545267ee2eb792338152f35b34610311576040366003190112610311576020610c43602435610c2181610633565b6004355f526008835260405f209060018060a01b03165f5260205260405f2090565b54604051908152f35b3461031157604036600319011261031157602060ff610ae7602435610c7081610633565b6004355f526009845260405f209060018060a01b03165f5260205260405f2090565b34610311575f3660031901126103115760206040517fc9feed28b4b1a1d11c6791da7bb7f6b8d33e831a4992a9383dead1ec2c82c35a8152f35b34610311575f366003190112610311576016546040516001600160a01b039091168152602090f35b34610311576020366003190112610311576004355f526007602052602060405f2054604051908152f35b34610311575f366003190112610311576003546040516001600160a01b039091168152602090f35b34610311575f3660031901126103115760206040517fc9078c78bcaac2be1c77c160c539a489be2b72939771b1a6302fed3e2150c7458152f35b34610311575f366003190112610311576002546040516001600160a01b039091168152602090f35b34610311576040366003190112610311576105ae602435600435610dcb82610633565b805f525f805160206126b4833981519152602052610def600160405f200154611303565b611817565b34610311575f366003190112610311575f5460405160109190911c6001600160a01b03168152602090f35b34610311575f3660031901126103115760206040517fbae4ee3de6c709ff9a002e774c5b78cb381560b219213c88ae0f1e207c03c0238152f35b34610311575f366003190112610311576020601554604051908152f35b34610311575f366003190112610311576020604051633b9aca008152f35b34610311575f366003190112610311576020600454604051908152f35b34610311575f36600319011261031157602060405162093a808152f35b34610311576020366003190112610311576105ae600435610eee81610633565b610ef6611932565b6111d6565b634e487b7160e01b5f52604160045260245ffd5b606081019081106001600160401b03821117610f2a57604052565b610efb565b90601f801991011681019081106001600160401b03821117610f2a57604052565b6040519061028082018281106001600160401b03821117610f2a57604052565b6040519061010082018281106001600160401b03821117610f2a57604052565b6001600160401b038111610f2a57601f01601f191660200190565b929192610fb782610f90565b91610fc56040519384610f2f565b829481845281830111610311578281602093845f960137010152565b9161103192610fee611ad3565b610ff6611ad3565b60017f9b779b17422d0df92223018b32b4d1fa46e071723d6817e2486d003becc55f00556001600160a01b038116611169575b503691610fab565b80516020908201918183019180828503126103115780820151916001600160401b03928381116103115760609101809503126103115760409081519361107685610f0f565b8186015184811161031157860181603f82011215610311578181858561109f94015191016118a9565b8552828601518481116103115781836110ba928901016118df565b8286019081526060870151948511610311576110f36110e66111349385611140986111669b01016118df565b9685810197885251611d33565b5194519461110784519687928584016118fc565b039261111b601f1994858101885287610f2f565b51948592630f7a015d60e31b9084015260248301611921565b03908101835282610f2f565b7f000000000000000000000000000000000000000000000000000000000000000061246d565b50565b61117d90611175611ad3565b610ef6611ad3565b5f611029565b3d156111ad573d9061119482610f90565b916111a26040519384610f2f565b82523d5f602084013e565b606090565b805180835260209291819084018484015e5f828201840152601f01601f1916010190565b6001600160a01b0390811690811561122f575f8051602061269483398151915280546001600160a01b031981168417909155167f8be0079c531659141344cd1fd0a4f28419497f9722a3daafe3b4186f6b6457e05f80a3565b604051631e4fbdf760e01b81525f6004820152602490fd5b916001600160401b039161125c913691610fab565b911660028103611284575061127d8160208061128294518301019101611a32565b61249e565b565b6003036112f1576111346111406112a783602080611166965183010191016119a6565b60208151910151906112c1604051928392602084016118fc565b03906112d5601f1992838101835282610f2f565b604051630f7a015d60e31b602082015293849160248301611921565b604051630a1824e360e01b8152600490fd5b5f8181525f805160206126b48339815191526020908152604080832033845290915290205460ff16156113335750565b6044906040519063e2517d3f60e01b82523360048301526024820152fd5b6001600160a01b0381165f9081527fb7db2dd08fcb62d0c9e08c51941cae53c267786a0b75803fb7960902fc8ef97d60205260409020545f805160206126b48339815191529060ff166113fc575f808052602091825260408082206001600160a01b038516835290925220805460ff1916600117905533906001600160a01b03165f7f2f8788117e7eff1d82e926ec794901d17c78024a50270940304540a733656f0d8180a4600190565b50505f90565b6001600160a01b0381165f9081527f03b26b53c87faa1058f30bb5d2fee64f717719a0d9b7e4f4df027aa5e9b6ed69602052604090207fbae4ee3de6c709ff9a002e774c5b78cb381560b219213c88ae0f1e207c03c023905f805160206126b48339815191529060ff905b54166114d1575f828152602091825260408082206001600160a01b038616835290925220805460ff1916600117905533916001600160a01b0316907f2f8788117e7eff1d82e926ec794901d17c78024a50270940304540a733656f0d5f80a4600190565b5050505f90565b6001600160a01b0381165f9081527f0287ab4cb376ea253d7b2ce0c2cbf458f7deae9458470d74afdfbbee484e9540602052604090207f9c56d972d63cbb4195b3c1484691dfc220fa96a4c47e7b6613bd82a022029e06905f805160206126b48339815191529060ff9061146d565b6001600160a01b0381165f9081527fe41986b390c4ce6791b87f7423b5fab7a81a0e6d89660b6264f697d008b2243a602052604090207fc6aaadd7371d5e8f9ed6849dd66a66573a3ba37167d03f4352c9ba5693678fac905f805160206126b48339815191529060ff9061146d565b6001600160a01b0381165f9081527f2d4ccbfe9f7672a6f2537c1e5bce6adacb73706879154bbab6ce096012d67216602052604090207f4a634bc14d77baf979756509ef4298c6f6318af357828612545267ee2eb79233905f805160206126b48339815191529060ff9061146d565b6001600160a01b0381165f9081527f99e47f2907af87dbb5c62e22bd8ea822f5011dfd1e243469ce26ebebf3ab93e3602052604090207f591f6a0113ada8aff67efadec8ae2fa585cb4ebf4e1f8fc1205ffbeff98d00ec905f805160206126b48339815191529060ff9061146d565b6001600160a01b0381165f9081527f665296150f4083bfe5a58682f99690b24ea27a3f56243679fa9797c6a16217aa602052604090207fc9feed28b4b1a1d11c6791da7bb7f6b8d33e831a4992a9383dead1ec2c82c35a905f805160206126b48339815191529060ff9061146d565b6001600160a01b0381165f9081527f82a1dc868a49801aa31c5dd393dc0b9005735300cdcd4bbc1af68215effcd6f8602052604090207fc9078c78bcaac2be1c77c160c539a489be2b72939771b1a6302fed3e2150c745905f805160206126b48339815191529060ff9061146d565b6001600160a01b0381165f9081527f9aeaa4f1a9be826e331dea6728ca206744e0a34dccbc1d3da4a68acb8abf0363602052604090207f5295aaaa27fdd659293eafacbfafbc634c1b96298957e87de5f59308cdbfdad1905f805160206126b48339815191529060ff9061146d565b5f8181525f805160206126b4833981519152602081815260408084206001600160a01b038716855290915290912060ff9061146d565b5f8181525f805160206126b4833981519152602081815260408084206001600160a01b03871685529091529091205460ff16156114d1575f828152602091825260408082206001600160a01b038616835290925220805460ff1916905533916001600160a01b0316907ff6391f5c32d9c69d2a47ea670b442974b53935d1edc7fd64eb21e047a839171b5f80a4600190565b9291926118b582610f90565b916118c36040519384610f2f565b829481845281830111610311578281602093845f96015e010152565b9080601f830112156103115781516118f9926020016118a9565b90565b90916119136118f9936040845260408401906111b2565b9160208184039101526111b2565b9060206118f99281815201906111b2565b5f80516020612694833981519152546001600160a01b0316330361195257565b60405163118cdaa760e01b8152336004820152602490fd5b365f80375f8036817f00000000000000000000000000000000000000000000000000000000000000005af43d5f803e156119a2573d5ff35b3d5ffd5b906020828203126103115781516001600160401b039283821161031157019060408282031261031157604051926040840184811082821117610f2a57604052825181811161031157826119fa9185016118df565b8452602083015190811161031157611a1292016118df565b602082015290565b5190811515820361031157565b519061128282610633565b80916101009283910312610311576040519182018281106001600160401b03821117610f2a57611acb9160e09160405280518452611a7260208201611a1a565b602085015260408101516040850152611a8d60608201611a27565b6060850152611a9e60808201611a27565b6080850152611aaf60a08201611a27565b60a0850152611ac060c08201611a27565b60c085015201611a27565b60e082015290565b60ff5f805160206126d48339815191525460401c1615611aef57565b604051631afcd79f60e31b8152600490fd5b519065ffffffffffff8216820361031157565b81601f82011215610311578051916020916001600160401b038411610f2a578360051b9060405194611b4885840187610f2f565b85528380860192820101928311610311578301905b828210611b6b575050505090565b8380918351611b7981610633565b815201910190611b5d565b906020828203126103115781516001600160401b03928382116103115701906102808282031261031157611bb6610f50565b92611bc083611a27565b8452611bce60208401611a27565b6020850152611bdf60408401611b01565b6040850152611bf060608401611a1a565b6060850152611c0160808401611a1a565b608085015260a083015160a085015260c083015160c0850152611c2660e08401611a1a565b60e08501526101008084015190850152610120611c44818501611a27565b90850152610140611c56818501611a27565b90850152610160611c68818501611a27565b90850152610180611c7a818501611a27565b908501526101a0918284015191821161031157611c98918401611b14565b908301526101c0611caa818301611a27565b908301526101e0611cbc818301611a27565b90830152610200611cce818301611a27565b90830152610220611ce0818301611a27565b90830152610240611cf2818301611a27565b90830152611d04610260809201611a27565b9082015290565b8051821015611d1f5760209160051b010190565b634e487b7160e01b5f52603260045260245ffd5b611d469060208082518301019101611b84565b805190916001600160a01b039182161561245b576040908184019065ffffffffffff611d78835165ffffffffffff1690565b161561244a5761014085018051909490611da2906001600160a01b03165b6001600160a01b031690565b15612315575b6060860195611dbe611dba8851151590565b1590565b80612306575b6122f5576101a0810196955f5b88518051821015611e8257611d96611dec83611df993611d0b565b516001600160a01b031690565b15611e7157611e32611e2b611e12611dec848d51611d0b565b6001600160a01b03165f90815260056020526040902090565b5460ff1690565b611e605780611e5a611e4d611e12611dec6001958e51611d0b565b805460ff19166001179055565b01611dd1565b865163a741a04560e01b8152600490fd5b8651630da30f6560e31b8152600490fd5b505093919592965093611e9e611d96855160018060a01b031690565b15612115575b60c08501519060e0860151611eb890151590565b6101008701516101208801516102008901516102208a01516102408b01516102608c01516001600160a01b0390811697918116969281169593811694169291611eff610f70565b988952151560208901528701526001600160a01b031660608601526001600160a01b031660808501526001600160a01b031660a08401526001600160a01b031660c08301526001600160a01b031660e0820152611f5b906124ed565b83516001600160a01b03165f805462010000600160b01b03191660109290921b62010000600160b01b031691909117905560208401516001600160a01b0316600180546001600160a01b0319166001600160a01b03909216919091179055611fc242612661565b6001805465ffffffffffff60a01b191660a09290921b65ffffffffffff60a01b169190911790555165ffffffffffff16600180546001600160d01b031660d09290921b6001600160d01b03191691909117905551151561202c9060ff80195f541691151516175f55565b60808201515f805461ff00191691151560081b61ff001691909117905560a0820151600455516001600160a01b03166120c2916101e091808516612105575b506101608101516001600160a01b03168481166120f5575b506101808101516001600160a01b03168481166120e5575b506101c08101516001600160a01b03168481166120d5575b5001516001600160a01b031690565b9081166120cc5750565b611166906115b6565b6120de90611547565b505f6120b3565b6120ee906114d8565b505f61209b565b6120fe90611402565b505f612083565b61210e90611351565b505f61206b565b949392919061212760e0850151151590565b80156122d5575b1561223f5761012084015161214b906001600160a01b0316611d96565b1580158161221f575b806121f2575b15612170578651630331eb0f60e41b8152600490fd5b61010085969792939495015115908115916121cf575b816121a2575b5015611ea45751630331eb0f60e41b8152600490fd5b9050806121b0575b5f61218c565b506102608501516121c9906001600160a01b0316611d96565b156121aa565b6102408701519091506121ea906001600160a01b0316611d96565b151590612186565b5061010085015115801561215a5750610240850151612219906001600160a01b0316611d96565b1561215a565b50610260850151612238906001600160a01b0316611d96565b1515612154565b909192939461225b611d9661012087015160018060a01b031690565b158015906122c7575b80156122a7575b8015612287575b15611ea45751630331eb0f60e41b8152600490fd5b506102408501516122a0906001600160a01b0316611d96565b1515612272565b506102608501516122c0906001600160a01b0316611d96565b151561226b565b506101008501511515612264565b506102208401516122ee906001600160a01b0316611d96565b151561212e565b845163ebf503c560e01b8152600490fd5b506101a0810151511515611dc4565b61016086015161232d906001600160a01b0316611d96565b156123e5575b6101c086015161234b906001600160a01b0316611d96565b15612356575b611da8565b6080860151156123a15760a08601511580612382575b15611da857835163183c854560e21b8152600490fd5b506101e086015161239b906001600160a01b0316611d96565b1561236c565b60a0860151158015906123c5575b1561235157835163183c854560e21b8152600490fd5b506101e08601516123de906001600160a01b0316611d96565b15156123af565b60608601511561241c57610180860151612407906001600160a01b0316611d96565b61233357835163183c854560e21b8152600490fd5b610180860151612434906001600160a01b0316611d96565b1561233357835163183c854560e21b8152600490fd5b82516368f5f8f160e11b8152600490fd5b6040516368f7a67560e11b8152600490fd5b5f806118f993602081519101845af4612484611183565b916125fe565b634e487b7160e01b5f52601160045260245ffd5b6124a7816124ed565b5160011981019081116124e85760015460d01c908181029181830414901517156124e85762093a80116124d657565b60405163119796df60e01b8152600490fd5b61248a565b60038151106125ec576125008151600f55565b61252f6125106020830151151590565b6016805460ff60a01b191691151560a01b60ff60a01b16919091179055565b61253c6040820151601555565b6060810151601680546001600160a01b0319166001600160a01b03928316179055608082015190916125b09160e091908416806125dc575b5060a08101516001600160a01b03168481166125cc575b5060c08101516001600160a01b03168481166125c3575001516001600160a01b031690565b9081166125ba5750565b61116690611772565b6120de90611703565b6125d590611694565b505f61258b565b6125e590611625565b505f612574565b6040516317a509b960e31b8152600490fd5b90612625575080511561261357805190602001fd5b60405163d6bda27560e01b8152600490fd5b81511580612658575b612636575090565b604051639996b31560e01b81526001600160a01b039091166004820152602490fd5b50803b1561262e565b65ffffffffffff90818111612674571690565b604490604051906306dfcc6560e41b8252603060048301526024820152fdfe9016d09d72d40fdae2fd8ceac6b6234c7706214fd39c1cd1e609a0528c19930002dd7bc7dec4dceedda775e58dd541e08a116c6c53815c0bd028192f7b626800f0c57e16840df040f15088dc2f81fe391c3923bec73e23a9662efc9c229c6a00a2646970667358221220a5c57862ca4f80c81704de14e9e1b2cddbce47b2abff3548998c1ae9432627a964736f6c63430008190033","linkReferences":{}},"methodIdentifiers":{"DEFAULT_ADMIN_ROLE()":"a217fddf","DEPOSITOR_WHITELIST_ROLE()":"1b66c9e1","DEPOSIT_LIMIT_SET_ROLE()":"a21a1df9","DEPOSIT_WHITELIST_SET_ROLE()":"db388715","EPOCH_DURATION_SET_ROLE()":"61819dd8","FACTORY()":"2dd31000","FLASH_FEE_BASE()":"ecc98f05","FLASH_FEE_RATE_SET_ROLE()":"bc46f722","FLASH_FEE_RECEIVER_SET_ROLE()":"31d9736c","FLASH_LOAN_ENABLED_SET_ROLE()":"a66b3a73","IS_DEPOSIT_LIMIT_SET_ROLE()":"1415519b","MIN_EXIT_WINDOW()":"f151f6b5","RETURN_VALUE()":"653b04cd","burner()":"27810b6e","collateral()":"d8dfeb45","delegator()":"ce9b7930","depositLimit()":"ecf70858","depositWhitelist()":"48d3b775","flashFeeRate()":"e945da7f","flashFeeReceiver()":"a8b24f9a","flashLoanEnabled()":"65d61c6c","getRoleAdmin(bytes32)":"248a9ca3","grantRole(bytes32,address)":"2f2ff15d","hasRole(bytes32,address)":"91d14854","initialize(uint64,address,bytes)":"57ec83cc","isDelegatorInitialized()":"50861adc","isDepositLimit()":"a1b12202","isDepositorWhitelisted(address)":"794b15b7","isSlasherInitialized()":"6ec1e3f8","isWithdrawalsClaimed(uint256,address)":"a5d03223","migrate(uint64,bytes)":"2abe3048","owner()":"8da5cb5b","renounceOwnership()":"715018a6","renounceRole(bytes32,address)":"36568abe","revokeRole(bytes32,address)":"d547741f","slasher()":"b1344271","staticDelegateCall(address,bytes)":"9f86fd85","supportsInterface(bytes4)":"01ffc9a7","transferOwnership(address)":"f2fde38b","version()":"54fd4d50","withdrawalShares(uint256)":"afba70ad","withdrawalSharesOf(uint256,address)":"a3b54172","withdrawals(uint256)":"5cc07076"},"id":109}