{"abi":[{"type":"constructor","inputs":[{"name":"vaultFactory","type":"address","internalType":"address"},{"name":"implementation","type":"address","internalType":"address"}],"stateMutability":"nonpayable"},{"type":"fallback","stateMutability":"payable"},{"type":"function","name":"DEFAULT_ADMIN_ROLE","inputs":[],"outputs":[{"name":"","type":"bytes32","internalType":"bytes32"}],"stateMutability":"view"},{"type":"function","name":"DEPOSITOR_WHITELIST_ROLE","inputs":[],"outputs":[{"name":"","type":"bytes32","internalType":"bytes32"}],"stateMutability":"view"},{"type":"function","name":"DEPOSIT_LIMIT_SET_ROLE","inputs":[],"outputs":[{"name":"","type":"bytes32","internalType":"bytes32"}],"stateMutability":"view"},{"type":"function","name":"DEPOSIT_WHITELIST_SET_ROLE","inputs":[],"outputs":[{"name":"","type":"bytes32","internalType":"bytes32"}],"stateMutability":"view"},{"type":"function","name":"EPOCH_DURATION_SET_ROLE","inputs":[],"outputs":[{"name":"","type":"bytes32","internalType":"bytes32"}],"stateMutability":"view"},{"type":"function","name":"FACTORY","inputs":[],"outputs":[{"name":"","type":"address","internalType":"address"}],"stateMutability":"view"},{"type":"function","name":"FLASH_FEE_BASE","inputs":[],"outputs":[{"name":"","type":"uint256","internalType":"uint256"}],"stateMutability":"view"},{"type":"function","name":"FLASH_FEE_RATE_SET_ROLE","inputs":[],"outputs":[{"name":"","type":"bytes32","internalType":"bytes32"}],"stateMutability":"view"},{"type":"function","name":"FLASH_FEE_RECEIVER_SET_ROLE","inputs":[],"outputs":[{"name":"","type":"bytes32","internalType":"bytes32"}],"stateMutability":"view"},{"type":"function","name":"IS_DEPOSIT_LIMIT_SET_ROLE","inputs":[],"outputs":[{"name":"","type":"bytes32","internalType":"bytes32"}],"stateMutability":"view"},{"type":"function","name":"MIN_EXIT_WINDOW","inputs":[],"outputs":[{"name":"","type":"uint256","internalType":"uint256"}],"stateMutability":"view"},{"type":"function","name":"RETURN_VALUE","inputs":[],"outputs":[{"name":"","type":"bytes32","internalType":"bytes32"}],"stateMutability":"view"},{"type":"function","name":"burner","inputs":[],"outputs":[{"name":"","type":"address","internalType":"address"}],"stateMutability":"view"},{"type":"function","name":"collateral","inputs":[],"outputs":[{"name":"","type":"address","internalType":"address"}],"stateMutability":"view"},{"type":"function","name":"delegator","inputs":[],"outputs":[{"name":"","type":"address","internalType":"address"}],"stateMutability":"view"},{"type":"function","name":"depositLimit","inputs":[],"outputs":[{"name":"","type":"uint256","internalType":"uint256"}],"stateMutability":"view"},{"type":"function","name":"depositWhitelist","inputs":[],"outputs":[{"name":"","type":"bool","internalType":"bool"}],"stateMutability":"view"},{"type":"function","name":"epochDurationInitInternal","inputs":[],"outputs":[{"name":"","type":"uint48","internalType":"uint48"}],"stateMutability":"view"},{"type":"function","name":"epochDurationInternal","inputs":[],"outputs":[{"name":"","type":"uint48","internalType":"uint48"}],"stateMutability":"view"},{"type":"function","name":"epochDurationSetEpochsDelayInternal","inputs":[],"outputs":[{"name":"","type":"uint256","internalType":"uint256"}],"stateMutability":"view"},{"type":"function","name":"epochInitInternal","inputs":[],"outputs":[{"name":"","type":"uint256","internalType":"uint256"}],"stateMutability":"view"},{"type":"function","name":"flashFeeRate","inputs":[],"outputs":[{"name":"","type":"uint256","internalType":"uint256"}],"stateMutability":"view"},{"type":"function","name":"flashFeeReceiver","inputs":[],"outputs":[{"name":"","type":"address","internalType":"address"}],"stateMutability":"view"},{"type":"function","name":"getRoleAdmin","inputs":[{"name":"role","type":"bytes32","internalType":"bytes32"}],"outputs":[{"name":"","type":"bytes32","internalType":"bytes32"}],"stateMutability":"view"},{"type":"function","name":"grantRole","inputs":[{"name":"role","type":"bytes32","internalType":"bytes32"},{"name":"account","type":"address","internalType":"address"}],"outputs":[],"stateMutability":"nonpayable"},{"type":"function","name":"hasRole","inputs":[{"name":"role","type":"bytes32","internalType":"bytes32"},{"name":"account","type":"address","internalType":"address"}],"outputs":[{"name":"","type":"bool","internalType":"bool"}],"stateMutability":"view"},{"type":"function","name":"initialize","inputs":[{"name":"initialVersion","type":"uint64","internalType":"uint64"},{"name":"owner_","type":"address","internalType":"address"},{"name":"data","type":"bytes","internalType":"bytes"}],"outputs":[],"stateMutability":"nonpayable"},{"type":"function","name":"isDelegatorInitialized","inputs":[],"outputs":[{"name":"","type":"bool","internalType":"bool"}],"stateMutability":"view"},{"type":"function","name":"isDepositLimit","inputs":[],"outputs":[{"name":"","type":"bool","internalType":"bool"}],"stateMutability":"view"},{"type":"function","name":"isDepositorWhitelisted","inputs":[{"name":"account","type":"address","internalType":"address"}],"outputs":[{"name":"value","type":"bool","internalType":"bool"}],"stateMutability":"view"},{"type":"function","name":"isSlasherInitialized","inputs":[],"outputs":[{"name":"","type":"bool","internalType":"bool"}],"stateMutability":"view"},{"type":"function","name":"isWithdrawalsClaimed","inputs":[{"name":"epoch","type":"uint256","internalType":"uint256"},{"name":"account","type":"address","internalType":"address"}],"outputs":[{"name":"value","type":"bool","internalType":"bool"}],"stateMutability":"view"},{"type":"function","name":"migrate","inputs":[{"name":"newVersion","type":"uint64","internalType":"uint64"},{"name":"data","type":"bytes","internalType":"bytes"}],"outputs":[],"stateMutability":"nonpayable"},{"type":"function","name":"nextEpochDurationInitInternal","inputs":[],"outputs":[{"name":"","type":"uint48","internalType":"uint48"}],"stateMutability":"view"},{"type":"function","name":"nextEpochDurationInternal","inputs":[],"outputs":[{"name":"","type":"uint48","internalType":"uint48"}],"stateMutability":"view"},{"type":"function","name":"nextEpochDurationSetEpochsDelayInternal","inputs":[],"outputs":[{"name":"","type":"uint256","internalType":"uint256"}],"stateMutability":"view"},{"type":"function","name":"nextEpochInitInternal","inputs":[],"outputs":[{"name":"","type":"uint256","internalType":"uint256"}],"stateMutability":"view"},{"type":"function","name":"owner","inputs":[],"outputs":[{"name":"","type":"address","internalType":"address"}],"stateMutability":"view"},{"type":"function","name":"prevEpochDurationInitInternal","inputs":[],"outputs":[{"name":"","type":"uint48","internalType":"uint48"}],"stateMutability":"view"},{"type":"function","name":"prevEpochDurationInternal","inputs":[],"outputs":[{"name":"","type":"uint48","internalType":"uint48"}],"stateMutability":"view"},{"type":"function","name":"prevEpochInitInternal","inputs":[],"outputs":[{"name":"","type":"uint256","internalType":"uint256"}],"stateMutability":"view"},{"type":"function","name":"renounceOwnership","inputs":[],"outputs":[],"stateMutability":"nonpayable"},{"type":"function","name":"renounceRole","inputs":[{"name":"role","type":"bytes32","internalType":"bytes32"},{"name":"callerConfirmation","type":"address","internalType":"address"}],"outputs":[],"stateMutability":"nonpayable"},{"type":"function","name":"revokeRole","inputs":[{"name":"role","type":"bytes32","internalType":"bytes32"},{"name":"account","type":"address","internalType":"address"}],"outputs":[],"stateMutability":"nonpayable"},{"type":"function","name":"slasher","inputs":[],"outputs":[{"name":"","type":"address","internalType":"address"}],"stateMutability":"view"},{"type":"function","name":"staticDelegateCall","inputs":[{"name":"target","type":"address","internalType":"address"},{"name":"data","type":"bytes","internalType":"bytes"}],"outputs":[],"stateMutability":"nonpayable"},{"type":"function","name":"supportsInterface","inputs":[{"name":"interfaceId","type":"bytes4","internalType":"bytes4"}],"outputs":[{"name":"","type":"bool","internalType":"bool"}],"stateMutability":"view"},{"type":"function","name":"transferOwnership","inputs":[{"name":"newOwner","type":"address","internalType":"address"}],"outputs":[],"stateMutability":"nonpayable"},{"type":"function","name":"version","inputs":[],"outputs":[{"name":"","type":"uint64","internalType":"uint64"}],"stateMutability":"view"},{"type":"function","name":"withdrawalShares","inputs":[{"name":"epoch","type":"uint256","internalType":"uint256"}],"outputs":[{"name":"amount","type":"uint256","internalType":"uint256"}],"stateMutability":"view"},{"type":"function","name":"withdrawalSharesOf","inputs":[{"name":"epoch","type":"uint256","internalType":"uint256"},{"name":"account","type":"address","internalType":"address"}],"outputs":[{"name":"amount","type":"uint256","internalType":"uint256"}],"stateMutability":"view"},{"type":"function","name":"withdrawals","inputs":[{"name":"epoch","type":"uint256","internalType":"uint256"}],"outputs":[{"name":"amount","type":"uint256","internalType":"uint256"}],"stateMutability":"view"},{"type":"event","name":"Initialized","inputs":[{"name":"version","type":"uint64","indexed":false,"internalType":"uint64"}],"anonymous":false},{"type":"event","name":"OwnershipTransferred","inputs":[{"name":"previousOwner","type":"address","indexed":true,"internalType":"address"},{"name":"newOwner","type":"address","indexed":true,"internalType":"address"}],"anonymous":false},{"type":"event","name":"RoleAdminChanged","inputs":[{"name":"role","type":"bytes32","indexed":true,"internalType":"bytes32"},{"name":"previousAdminRole","type":"bytes32","indexed":true,"internalType":"bytes32"},{"name":"newAdminRole","type":"bytes32","indexed":true,"internalType":"bytes32"}],"anonymous":false},{"type":"event","name":"RoleGranted","inputs":[{"name":"role","type":"bytes32","indexed":true,"internalType":"bytes32"},{"name":"account","type":"address","indexed":true,"internalType":"address"},{"name":"sender","type":"address","indexed":true,"internalType":"address"}],"anonymous":false},{"type":"event","name":"RoleRevoked","inputs":[{"name":"role","type":"bytes32","indexed":true,"internalType":"bytes32"},{"name":"account","type":"address","indexed":true,"internalType":"address"},{"name":"sender","type":"address","indexed":true,"internalType":"address"}],"anonymous":false},{"type":"error","name":"AccessControlBadConfirmation","inputs":[]},{"type":"error","name":"AccessControlUnauthorizedAccount","inputs":[{"name":"account","type":"address","internalType":"address"},{"name":"neededRole","type":"bytes32","internalType":"bytes32"}]},{"type":"error","name":"AddressEmptyCode","inputs":[{"name":"target","type":"address","internalType":"address"}]},{"type":"error","name":"AlreadyInitialized","inputs":[]},{"type":"error","name":"AlreadySet","inputs":[]},{"type":"error","name":"FailedCall","inputs":[]},{"type":"error","name":"InsufficientExitWindow","inputs":[]},{"type":"error","name":"InvalidAccount","inputs":[]},{"type":"error","name":"InvalidCollateral","inputs":[]},{"type":"error","name":"InvalidEpochDuration","inputs":[]},{"type":"error","name":"InvalidEpochDurationSetEpochsDelay","inputs":[]},{"type":"error","name":"InvalidFlashParams","inputs":[]},{"type":"error","name":"InvalidInitialization","inputs":[]},{"type":"error","name":"MissingRoles","inputs":[]},{"type":"error","name":"NoDepositWhitelist","inputs":[]},{"type":"error","name":"NotFactory","inputs":[]},{"type":"error","name":"NotInitialized","inputs":[]},{"type":"error","name":"NotInitializing","inputs":[]},{"type":"error","name":"OwnableInvalidOwner","inputs":[{"name":"owner","type":"address","internalType":"address"}]},{"type":"error","name":"OwnableUnauthorizedAccount","inputs":[{"name":"account","type":"address","internalType":"address"}]},{"type":"error","name":"ReentrancyGuardReentrantCall","inputs":[]},{"type":"error","name":"SafeCastOverflowedUintDowncast","inputs":[{"name":"bits","type":"uint8","internalType":"uint8"},{"name":"value","type":"uint256","internalType":"uint256"}]}],"bytecode":{"object":"0x60c03461011c57612882906001600160401b0390601f38849003908101601f191682019083821183831017610120578083916040968794855283398101031261011c57610057602061005083610134565b9201610134565b917ff0c57e16840df040f15088dc2f81fe391c3923bec73e23a9662efc9c229c6a009081549060ff82871c1661010b5780808316036100c7575b50505060805260a052516127399081610149823960805181818161056601526106d1015260a05181818161155d015261222b0152f35b6001600160401b0319909116811790915583519081527fc7f505b2f371ae2175ee4913f4499e1f2633a7b5936321eed1cdaeb6115181d290602090a15f8080610091565b855163f92ee8a960e01b8152600490fd5b5f80fd5b634e487b7160e01b5f52604160045260245ffd5b51906001600160a01b038216820361011c5756fe608060405260043610612221575f3560e01c806301ffc9a71461034b5780630fcaeb1b146103465780631415519b146103415780631b66c9e11461033c5780631e89bd8a14610337578063248a9ca31461033257806327810b6e1461032d5780632abe3048146103285780632dd31000146103235780632f2ff15d1461031e57806331d9736c1461031957806336568abe1461031457806348d3b7751461030f578063502b4d601461030a57806350861adc1461030557806354fd4d501461030057806357ec83cc146102fb5780635cc07076146102f657806361819dd8146102f157806364601402146102ec578063653b04cd146102e75780636ec1e3f8146102e2578063715018a6146102dd57806375d6c765146102d8578063794b15b7146102d35780637e84ec81146102ce5780638d30d7a7146102c95780638da5cb5b146102c457806391d14854146102bf5780639f86fd85146102ba578063a1b12202146102b5578063a217fddf146102b0578063a21a1df9146102ab578063a3b54172146102a6578063a5d03223146102a1578063a8b24f9a1461029c578063afba70ad14610297578063b134427114610292578063bc46f7221461028d578063bc4f8c0514610288578063ce9b793014610283578063d2356eb51461027e578063d547741f14610279578063d8dfeb4514610274578063db3887151461026f578063ddd0f28a1461026a578063e945da7f14610265578063ecc98f0514610260578063ecf708581461025b578063f151f6b514610256578063f2fde38b146102515763fcdc5b600361222157611085565b611058565b61103b565b61101e565b611000565b610fe3565b610fc6565b610f8c565b610f61565b610f15565b610ef8565b610ed0565b610eb3565b610e79565b610e51565b610e27565b610dff565b610db9565b610d6c565b610d32565b610d18565b610cf4565b610c60565b610c02565b610bce565b610ba9565b610b81565b610b41565b610b19565b610ab2565b610a8d565b610a53565b610a2b565b6109f1565b6109c7565b610882565b610850565b61082b565b610803565b6107e2565b610797565b61075d565b610711565b6106bc565b6104fa565b61048f565b610456565b610436565b6103fc565b6103c2565b6103a5565b346103a15760203660031901126103a15760043563ffffffff60e01b81168091036103a157602090637965db0b60e01b8114908115610390575b506040519015158152f35b6301ffc9a760e01b1490505f610385565b5f80fd5b346103a1575f3660031901126103a1576020601154604051908152f35b346103a1575f3660031901126103a15760206040517fc6aaadd7371d5e8f9ed6849dd66a66573a3ba37167d03f4352c9ba5693678fac8152f35b346103a1575f3660031901126103a15760206040517f9c56d972d63cbb4195b3c1484691dfc220fa96a4c47e7b6613bd82a022029e068152f35b346103a1575f3660031901126103a157602060015460d01c604051908152f35b346103a15760203660031901126103a1576004355f525f805160206126c48339815191526020526020600160405f200154604051908152f35b346103a1575f3660031901126103a1576001546040516001600160a01b039091168152602090f35b600435906001600160401b03821682036103a157565b9181601f840112156103a1578235916001600160401b0383116103a157602083818601950101116103a157565b346103a1576040806003193601126103a1576105146104b7565b906001600160401b036024358181116103a1576105359036906004016104cd565b917f9b779b17422d0df92223018b32b4d1fa46e071723d6817e2486d003becc55f0060028154146106ab57600290557f00000000000000000000000000000000000000000000000000000000000000006001600160a01b0316330361069a575f805160206126e483398151915280548281169260ff82881c16801561068e575b61067d5767ffffffffffffffff199091169087161790555f805160206126e4833981519152805460ff60401b1916600160401b1790557fc7f505b2f371ae2175ee4913f4499e1f2633a7b5936321eed1cdaeb6115181d29461064f949093909261061e92611a6d565b5f805160206126e4833981519152805460ff60401b19169055516001600160401b0390911681529081906020820190565b0390a161067b60017f9b779b17422d0df92223018b32b4d1fa46e071723d6817e2486d003becc55f0055565b005b865163f92ee8a960e01b8152600490fd5b508088168410156105b5565b8351631966391b60e11b8152600490fd5b8451633ee5aeb560e01b8152600490fd5b346103a1575f3660031901126103a1576040517f00000000000000000000000000000000000000000000000000000000000000006001600160a01b03168152602090f35b6001600160a01b038116036103a157565b346103a15760403660031901126103a15761067b60243560043561073482610700565b805f525f805160206126c4833981519152602052610758600160405f200154611ba1565b612010565b346103a1575f3660031901126103a15760206040517f5295aaaa27fdd659293eafacbfafbc634c1b96298957e87de5f59308cdbfdad18152f35b346103a15760403660031901126103a1576024356107b481610700565b336001600160a01b038216036107d05761067b90600435612046565b60405163334bd91960e11b8152600490fd5b346103a1575f3660031901126103a157602060ff5f54166040519015158152f35b346103a1575f3660031901126103a157602065ffffffffffff60135460901c16604051908152f35b346103a1575f3660031901126103a157602060ff60025460a01c166040519015158152f35b346103a1575f3660031901126103a15760206001600160401b035f805160206126e48339815191525416604051908152f35b346103a15760603660031901126103a15761089b6104b7565b6024356108a781610700565b6001600160401b03916044358381116103a1576108c89036906004016104cd565b5f805160206126e48339815191529491855494838616806109b65760ff8760401c169081156109a9575b50610997577fc7f505b2f371ae2175ee4913f4499e1f2633a7b5936321eed1cdaeb6115181d2966109929661095f958716906001600160401b03191617905561095a5f805160206126e4833981519152600160401b68ff000000000000000019825416179055565b611192565b5f805160206126e4833981519152805460ff60401b191690556040516001600160401b0390911681529081906020820190565b0390a1005b60405163f92ee8a960e01b8152600490fd5b905084861611155f6108f2565b60405162dc149f60e41b8152600490fd5b346103a15760203660031901126103a1576004355f526006602052602060405f2054604051908152f35b346103a1575f3660031901126103a15760206040517f591f6a0113ada8aff67efadec8ae2fa585cb4ebf4e1f8fc1205ffbeff98d00ec8152f35b346103a1575f3660031901126103a157602065ffffffffffff60015460a01c16604051908152f35b346103a1575f3660031901126103a15760206040517f439148f0bbc682ca079e46d6e2c2f0c1e3b820f1a291b069d8882abf8cf18dd98152f35b346103a1575f3660031901126103a157602060ff60035460a01c166040519015158152f35b346103a1575f3660031901126103a157610aca6121e9565b5f805160206126a483398151915280546001600160a01b031981169091555f906001600160a01b03167f8be0079c531659141344cd1fd0a4f28419497f9722a3daafe3b4186f6b6457e08280a3005b346103a1575f3660031901126103a157602065ffffffffffff60135460601c16604051908152f35b346103a15760203660031901126103a157600435610b5e81610700565b60018060a01b03165f526005602052602060ff60405f2054166040519015158152f35b346103a1575f3660031901126103a157602065ffffffffffff60135460301c16604051908152f35b346103a1575f3660031901126103a157602065ffffffffffff60135416604051908152f35b346103a1575f3660031901126103a1575f805160206126a4833981519152546040516001600160a01b039091168152602090f35b346103a15760403660031901126103a157602060ff610c54602435610c2681610700565b6004355f525f805160206126c4833981519152845260405f209060018060a01b03165f5260205260405f2090565b54166040519015158152f35b346103a15760403660031901126103a157600435610c7d81610700565b6024356001600160401b0381116103a1575f91610c9f839236906004016104cd565b90816040519283928337810184815203915af4610cec610cbd6119a9565b91610cde6040519384921515602084015260408084015260608301906119d8565b03601f1981018352826110f1565b805190602001fd5b346103a1575f3660031901126103a157602060ff5f5460081c166040519015158152f35b346103a1575f3660031901126103a15760206040515f8152f35b346103a1575f3660031901126103a15760206040517f4a634bc14d77baf979756509ef4298c6f6318af357828612545267ee2eb792338152f35b346103a15760403660031901126103a1576020610db0602435610d8e81610700565b6004355f526008835260405f209060018060a01b03165f5260205260405f2090565b54604051908152f35b346103a15760403660031901126103a157602060ff610c54602435610ddd81610700565b6004355f526009845260405f209060018060a01b03165f5260205260405f2090565b346103a1575f3660031901126103a1576016546040516001600160a01b039091168152602090f35b346103a15760203660031901126103a1576004355f526007602052602060405f2054604051908152f35b346103a1575f3660031901126103a1576003546040516001600160a01b039091168152602090f35b346103a1575f3660031901126103a15760206040517fc9078c78bcaac2be1c77c160c539a489be2b72939771b1a6302fed3e2150c7458152f35b346103a1575f3660031901126103a1576020601054604051908152f35b346103a1575f3660031901126103a1576002546040516001600160a01b039091168152602090f35b346103a1575f3660031901126103a1576020601254604051908152f35b346103a15760403660031901126103a15761067b602435600435610f3882610700565b805f525f805160206126c4833981519152602052610f5c600160405f200154611ba1565b612046565b346103a1575f3660031901126103a1575f5460405160109190911c6001600160a01b03168152602090f35b346103a1575f3660031901126103a15760206040517fbae4ee3de6c709ff9a002e774c5b78cb381560b219213c88ae0f1e207c03c0238152f35b346103a1575f3660031901126103a1576020601454604051908152f35b346103a1575f3660031901126103a1576020601554604051908152f35b346103a1575f3660031901126103a1576020604051633b9aca008152f35b346103a1575f3660031901126103a1576020600454604051908152f35b346103a1575f3660031901126103a157602060405162093a808152f35b346103a15760203660031901126103a15761067b60043561107881610700565b6110806121e9565b6119fc565b346103a1575f3660031901126103a1576020600f54604051908152f35b634e487b7160e01b5f52604160045260245ffd5b60c081019081106001600160401b038211176110d157604052565b6110a2565b606081019081106001600160401b038211176110d157604052565b90601f801991011681019081106001600160401b038211176110d157604052565b6040519061111f826110b6565b565b6040519061024082018281106001600160401b038211176110d157604052565b6001600160401b0381116110d157601f01601f191660200190565b92919261116882611141565b9161117660405193846110f1565b8294818452818301116103a1578281602093845f960137010152565b906111ea909392936111a261225d565b6111aa61225d565b60017f9b779b17422d0df92223018b32b4d1fa46e071723d6817e2486d003becc55f00819055946001600160a01b039380851661198f575b50369161115c565b6111ff8151916020808094830101910161212b565b916112138351838082518301019101612326565b805182166001600160a01b03161561197d576040958682019065ffffffffffff611243835165ffffffffffff1690565b161561196c576101208301805190929061126d906001600160a01b03165b6001600160a01b031690565b15611837575b60608401916112896112858451151590565b1590565b80611828575b6118175761018085015f825b61176a575b505083516112b791506001600160a01b0316611261565b156115d4575b6101c0846114d18b956114906114808b9a976115819e9f6114556115309961155b9f6113f2610cde9f916113ac836113a761147a9861139760c06114149801519361138760e08201519361137761131e61010085015160018060a01b031690565b6101e08501516001600160a01b031661020086015190939061135690610220906001600160a01b03169701516001600160a01b031690565b9761135f611112565b9a8b528c8b01526001600160a01b0390911690890152565b6001600160a01b03166060870152565b6001600160a01b03166080850152565b6001600160a01b031660a0830152565b612509565b8b516113e3906001600160a01b03165f805462010000600160b01b03191660109290921b62010000600160b01b0316919091179055565b8b01516001600160a01b031690565b60018060a01b03166bffffffffffffffffffffffff60a01b6001541617600155565b61144961142042612671565b6001805465ffffffffffff60a01b191660a09290921b65ffffffffffff60a01b16919091179055565b5165ffffffffffff1690565b600180546001600160d01b031660d09290921b6001600160d01b031916919091179055565b51151590565b60ff80195f541691151516175f55565b6114b76114a06080850151151590565b61ff005f5491151560081b169061ff001916175f55565b6114c460a0840151600455565b516001600160a01b031690565b8481166115c4575b506101408101516001600160a01b03168481166115b4575b506101608101516001600160a01b03168481166115a4575b506101a08101516001600160a01b0316848116611594575b5001516001600160a01b031690565b908116611584575b508083860151950151905194859363602bd8e760e01b90850152602484016121c4565b7f00000000000000000000000000000000000000000000000000000000000000006124b1565b50565b61158d90611e54565b505f611538565b61159d90611de5565b505f611521565b6115ad90611d76565b505f611509565b6115bd90611ca0565b505f6114f1565b6115cd90611bef565b505f6114d9565b6101008401516115ec906001600160a01b0316611261565b6116fe57610200840151611608906001600160a01b0316611261565b6116a457610220840151611624906001600160a01b0316611261565b151580611698575b611687576101c0846114d18b956114906114808b9a976115819e9f6114556115309961155b9f6113f2610cde9f916113ac611414936113a761147a985b5050505050505099505050979a9b505050959b9a50509450506112bd565b8851630331eb0f60e41b8152600490fd5b5060e08401511561162c565b6102208401516116bc906001600160a01b0316611261565b15611687576101c0846114d18b956114906114808b9a976115819e9f6114556115309961155b9f6113f2610cde9f916113ac611414936113a761147a98611669565b610200840151611716906001600160a01b0316611261565b158061175e575b611687576101c0846114d18b956114906114808b9a976115819e9f6114556115309961155b9f6113f2610cde9f916113ac611414936113a761147a98611669565b5060e08401511561171d565b81518051821015611811576112616114c48361178593612489565b15611800576117be6117b761179e6114c4848651612489565b6001600160a01b03165f90815260056020526040902090565b5460ff1690565b6117ef579082826117e76117da61179e6114c485978751612489565b805460ff19166001179055565b01909161129b565b8b5163a741a04560e01b8152600490fd5b8b51630da30f6560e31b8152600490fd5b506112a0565b895163ebf503c560e01b8152600490fd5b5061018085015151151561128f565b61014084015161184f906001600160a01b0316611261565b15611907575b6101a084015161186d906001600160a01b0316611261565b15611878575b611273565b6080840151156118c35760a084015115806118a4575b1561127357885163183c854560e21b8152600490fd5b506101c08401516118bd906001600160a01b0316611261565b1561188e565b60a0840151158015906118e7575b1561187357885163183c854560e21b8152600490fd5b506101c0840151611900906001600160a01b0316611261565b15156118d1565b60608401511561193e57610160840151611929906001600160a01b0316611261565b61185557885163183c854560e21b8152600490fd5b610160840151611956906001600160a01b0316611261565b1561185557885163183c854560e21b8152600490fd5b87516368f5f8f160e11b8152600490fd5b6040516368f7a67560e11b8152600490fd5b6119a39061199b61225d565b61108061225d565b5f6111e2565b3d156119d3573d906119ba82611141565b916119c860405193846110f1565b82523d5f602084013e565b606090565b805180835260209291819084018484015e5f828201840152601f01601f1916010190565b6001600160a01b03908116908115611a55575f805160206126a483398151915280546001600160a01b031981168417909155167f8be0079c531659141344cd1fd0a4f28419497f9722a3daafe3b4186f6b6457e05f80a3565b604051631e4fbdf760e01b81525f6004820152602490fd5b91611a846001926001600160401b0392369161115c565b921603611ad857611aa1816020806115819451830101910161212b565b611aab8151611ad8565b61155b6040602083015192015191610cde60405193849263602bd8e760e01b6020850152602484016121c4565b60c0818051810103126103a157611b88611b6862093a809260c060405191611aff836110b6565b60208101518352604081015160208401526060810151611b1e81610700565b60408401526080810151611b3181610700565b606084015260a0810151611b4481610700565b60808401520151611b5481610700565b60a0820152611b6281612509565b516124e2565b611b82611b7760015460d01c90565b65ffffffffffff1690565b906124f6565b10611b8f57565b60405163119796df60e01b8152600490fd5b5f8181525f805160206126c48339815191526020908152604080832033845290915290205460ff1615611bd15750565b6044906040519063e2517d3f60e01b82523360048301526024820152fd5b6001600160a01b0381165f9081527fb7db2dd08fcb62d0c9e08c51941cae53c267786a0b75803fb7960902fc8ef97d60205260409020545f805160206126c48339815191529060ff16611c9a575f808052602091825260408082206001600160a01b038516835290925220805460ff1916600117905533906001600160a01b03165f7f2f8788117e7eff1d82e926ec794901d17c78024a50270940304540a733656f0d8180a4600190565b50505f90565b6001600160a01b0381165f9081527f03b26b53c87faa1058f30bb5d2fee64f717719a0d9b7e4f4df027aa5e9b6ed69602052604090207fbae4ee3de6c709ff9a002e774c5b78cb381560b219213c88ae0f1e207c03c023905f805160206126c48339815191529060ff905b5416611d6f575f828152602091825260408082206001600160a01b038616835290925220805460ff1916600117905533916001600160a01b0316907f2f8788117e7eff1d82e926ec794901d17c78024a50270940304540a733656f0d5f80a4600190565b5050505f90565b6001600160a01b0381165f9081527f0287ab4cb376ea253d7b2ce0c2cbf458f7deae9458470d74afdfbbee484e9540602052604090207f9c56d972d63cbb4195b3c1484691dfc220fa96a4c47e7b6613bd82a022029e06905f805160206126c48339815191529060ff90611d0b565b6001600160a01b0381165f9081527fe41986b390c4ce6791b87f7423b5fab7a81a0e6d89660b6264f697d008b2243a602052604090207fc6aaadd7371d5e8f9ed6849dd66a66573a3ba37167d03f4352c9ba5693678fac905f805160206126c48339815191529060ff90611d0b565b6001600160a01b0381165f9081527f2d4ccbfe9f7672a6f2537c1e5bce6adacb73706879154bbab6ce096012d67216602052604090207f4a634bc14d77baf979756509ef4298c6f6318af357828612545267ee2eb79233905f805160206126c48339815191529060ff90611d0b565b6001600160a01b0381165f9081527f99e47f2907af87dbb5c62e22bd8ea822f5011dfd1e243469ce26ebebf3ab93e3602052604090207f591f6a0113ada8aff67efadec8ae2fa585cb4ebf4e1f8fc1205ffbeff98d00ec905f805160206126c48339815191529060ff90611d0b565b6001600160a01b0381165f9081527f82a1dc868a49801aa31c5dd393dc0b9005735300cdcd4bbc1af68215effcd6f8602052604090207fc9078c78bcaac2be1c77c160c539a489be2b72939771b1a6302fed3e2150c745905f805160206126c48339815191529060ff90611d0b565b6001600160a01b0381165f9081527f9aeaa4f1a9be826e331dea6728ca206744e0a34dccbc1d3da4a68acb8abf0363602052604090207f5295aaaa27fdd659293eafacbfafbc634c1b96298957e87de5f59308cdbfdad1905f805160206126c48339815191529060ff90611d0b565b5f8181525f805160206126c4833981519152602081815260408084206001600160a01b038716855290915290912060ff90611d0b565b5f8181525f805160206126c4833981519152602081815260408084206001600160a01b03871685529091529091205460ff1615611d6f575f828152602091825260408082206001600160a01b038616835290925220805460ff1916905533916001600160a01b0316907ff6391f5c32d9c69d2a47ea670b442974b53935d1edc7fd64eb21e047a839171b5f80a4600190565b9291926120e482611141565b916120f260405193846110f1565b8294818452818301116103a1578281602093845f96015e010152565b9080601f830112156103a1578151612128926020016120d8565b90565b906020828203126103a15781516001600160401b03928382116103a15701906060828203126103a15760405192612161846110d6565b82518181116103a157830182601f820112156103a15782816020612187935191016120d8565b845260208301518181116103a157826121a191850161210e565b602085015260408301519081116103a1576121bc920161210e565b604082015290565b90916121db612128936040845260408401906119d8565b9160208184039101526119d8565b5f805160206126a4833981519152546001600160a01b0316330361220957565b60405163118cdaa760e01b8152336004820152602490fd5b365f80375f8036817f00000000000000000000000000000000000000000000000000000000000000005af43d5f803e15612259573d5ff35b3d5ffd5b60ff5f805160206126e48339815191525460401c161561227957565b604051631afcd79f60e31b8152600490fd5b519061111f82610700565b519065ffffffffffff821682036103a157565b519081151582036103a157565b81601f820112156103a1578051916020916001600160401b0384116110d1578360051b90604051946122ea858401876110f1565b855283808601928201019283116103a1578301905b82821061230d575050505090565b838091835161231b81610700565b8152019101906122ff565b906020828203126103a15781516001600160401b03928382116103a1570190610240828203126103a157612358611121565b926123628361228b565b84526123706020840161228b565b602085015261238160408401612296565b6040850152612392606084016122a9565b60608501526123a3608084016122a9565b608085015260a083015160a085015260c083015160c085015260e083015160e08501526101006123d481850161228b565b908501526101206123e681850161228b565b908501526101406123f881850161228b565b9085015261016061240a81850161228b565b9085015261018091828401519182116103a1576124289184016122b6565b908301526101a061243a81830161228b565b908301526101c061244c81830161228b565b908301526101e061245e81830161228b565b9083015261020061247081830161228b565b9083015261248261022080920161228b565b9082015290565b805182101561249d5760209160051b010190565b634e487b7160e01b5f52603260045260245ffd5b5f8061212893602081519101845af46124c86119a9565b9161260e565b634e487b7160e01b5f52601160045260245ffd5b6001198101919082116124f157565b6124ce565b818102929181159184041417156124f157565b60038151106125fc576040810180516001600160a01b03929190831615806125ef575b6125dd578161257661255460a0936125476125b19651600f55565b6114c46020850151601555565b60018060a01b03166bffffffffffffffffffffffff60a01b6016541617601655565b60608101516001600160a01b03168481166125cd575b5060808101516001600160a01b03168481166125c4575001516001600160a01b031690565b9081166125bb5750565b61158190611fa1565b61159d90611f32565b6125d690611ec3565b505f61258c565b604051630331eb0f60e41b8152600490fd5b506020820151151561252c565b6040516317a509b960e31b8152600490fd5b90612635575080511561262357805190602001fd5b60405163d6bda27560e01b8152600490fd5b81511580612668575b612646575090565b604051639996b31560e01b81526001600160a01b039091166004820152602490fd5b50803b1561263e565b65ffffffffffff90818111612684571690565b604490604051906306dfcc6560e41b8252603060048301526024820152fdfe9016d09d72d40fdae2fd8ceac6b6234c7706214fd39c1cd1e609a0528c19930002dd7bc7dec4dceedda775e58dd541e08a116c6c53815c0bd028192f7b626800f0c57e16840df040f15088dc2f81fe391c3923bec73e23a9662efc9c229c6a00a2646970667358221220a79648372fc656069f8df3141066176f40563140db5338976e046b63888720c064736f6c63430008190033","linkReferences":{}},"methodIdentifiers":{"DEFAULT_ADMIN_ROLE()":"a217fddf","DEPOSITOR_WHITELIST_ROLE()":"1b66c9e1","DEPOSIT_LIMIT_SET_ROLE()":"a21a1df9","DEPOSIT_WHITELIST_SET_ROLE()":"db388715","EPOCH_DURATION_SET_ROLE()":"61819dd8","FACTORY()":"2dd31000","FLASH_FEE_BASE()":"ecc98f05","FLASH_FEE_RATE_SET_ROLE()":"bc46f722","FLASH_FEE_RECEIVER_SET_ROLE()":"31d9736c","IS_DEPOSIT_LIMIT_SET_ROLE()":"1415519b","MIN_EXIT_WINDOW()":"f151f6b5","RETURN_VALUE()":"653b04cd","burner()":"27810b6e","collateral()":"d8dfeb45","delegator()":"ce9b7930","depositLimit()":"ecf70858","depositWhitelist()":"48d3b775","epochDurationInitInternal()":"64601402","epochDurationInternal()":"1e89bd8a","epochDurationSetEpochsDelayInternal()":"fcdc5b60","epochInitInternal()":"0fcaeb1b","flashFeeRate()":"e945da7f","flashFeeReceiver()":"a8b24f9a","getRoleAdmin(bytes32)":"248a9ca3","grantRole(bytes32,address)":"2f2ff15d","hasRole(bytes32,address)":"91d14854","initialize(uint64,address,bytes)":"57ec83cc","isDelegatorInitialized()":"50861adc","isDepositLimit()":"a1b12202","isDepositorWhitelisted(address)":"794b15b7","isSlasherInitialized()":"6ec1e3f8","isWithdrawalsClaimed(uint256,address)":"a5d03223","migrate(uint64,bytes)":"2abe3048","nextEpochDurationInitInternal()":"75d6c765","nextEpochDurationInternal()":"502b4d60","nextEpochDurationSetEpochsDelayInternal()":"bc4f8c05","nextEpochInitInternal()":"ddd0f28a","owner()":"8da5cb5b","prevEpochDurationInitInternal()":"8d30d7a7","prevEpochDurationInternal()":"7e84ec81","prevEpochInitInternal()":"d2356eb5","renounceOwnership()":"715018a6","renounceRole(bytes32,address)":"36568abe","revokeRole(bytes32,address)":"d547741f","slasher()":"b1344271","staticDelegateCall(address,bytes)":"9f86fd85","supportsInterface(bytes4)":"01ffc9a7","transferOwnership(address)":"f2fde38b","version()":"54fd4d50","withdrawalShares(uint256)":"afba70ad","withdrawalSharesOf(uint256,address)":"a3b54172","withdrawals(uint256)":"5cc07076"},"id":109}