{"abi":[{"type":"constructor","inputs":[{"name":"vaultFactory","type":"address","internalType":"address"},{"name":"implementation","type":"address","internalType":"address"}],"stateMutability":"nonpayable"},{"type":"fallback","stateMutability":"payable"},{"type":"function","name":"DEFAULT_ADMIN_ROLE","inputs":[],"outputs":[{"name":"","type":"bytes32","internalType":"bytes32"}],"stateMutability":"view"},{"type":"function","name":"DEPOSITOR_WHITELIST_ROLE","inputs":[],"outputs":[{"name":"","type":"bytes32","internalType":"bytes32"}],"stateMutability":"view"},{"type":"function","name":"DEPOSIT_LIMIT_SET_ROLE","inputs":[],"outputs":[{"name":"","type":"bytes32","internalType":"bytes32"}],"stateMutability":"view"},{"type":"function","name":"DEPOSIT_WHITELIST_SET_ROLE","inputs":[],"outputs":[{"name":"","type":"bytes32","internalType":"bytes32"}],"stateMutability":"view"},{"type":"function","name":"EPOCH_DURATION_SET_ROLE","inputs":[],"outputs":[{"name":"","type":"bytes32","internalType":"bytes32"}],"stateMutability":"view"},{"type":"function","name":"FACTORY","inputs":[],"outputs":[{"name":"","type":"address","internalType":"address"}],"stateMutability":"view"},{"type":"function","name":"FLASH_FEE_BASE","inputs":[],"outputs":[{"name":"","type":"uint256","internalType":"uint256"}],"stateMutability":"view"},{"type":"function","name":"FLASH_FEE_RATE_SET_ROLE","inputs":[],"outputs":[{"name":"","type":"bytes32","internalType":"bytes32"}],"stateMutability":"view"},{"type":"function","name":"FLASH_FEE_RECEIVER_SET_ROLE","inputs":[],"outputs":[{"name":"","type":"bytes32","internalType":"bytes32"}],"stateMutability":"view"},{"type":"function","name":"IS_DEPOSIT_LIMIT_SET_ROLE","inputs":[],"outputs":[{"name":"","type":"bytes32","internalType":"bytes32"}],"stateMutability":"view"},{"type":"function","name":"RETURN_VALUE","inputs":[],"outputs":[{"name":"","type":"bytes32","internalType":"bytes32"}],"stateMutability":"view"},{"type":"function","name":"burner","inputs":[],"outputs":[{"name":"","type":"address","internalType":"address"}],"stateMutability":"view"},{"type":"function","name":"collateral","inputs":[],"outputs":[{"name":"","type":"address","internalType":"address"}],"stateMutability":"view"},{"type":"function","name":"delegator","inputs":[],"outputs":[{"name":"","type":"address","internalType":"address"}],"stateMutability":"view"},{"type":"function","name":"depositLimit","inputs":[],"outputs":[{"name":"","type":"uint256","internalType":"uint256"}],"stateMutability":"view"},{"type":"function","name":"depositWhitelist","inputs":[],"outputs":[{"name":"","type":"bool","internalType":"bool"}],"stateMutability":"view"},{"type":"function","name":"epochDurationInitInternal","inputs":[],"outputs":[{"name":"","type":"uint48","internalType":"uint48"}],"stateMutability":"view"},{"type":"function","name":"epochDurationInternal","inputs":[],"outputs":[{"name":"","type":"uint48","internalType":"uint48"}],"stateMutability":"view"},{"type":"function","name":"epochDurationSetEpochsDelayInternal","inputs":[],"outputs":[{"name":"","type":"uint256","internalType":"uint256"}],"stateMutability":"view"},{"type":"function","name":"epochInitInternal","inputs":[],"outputs":[{"name":"","type":"uint256","internalType":"uint256"}],"stateMutability":"view"},{"type":"function","name":"flashFeeRate","inputs":[],"outputs":[{"name":"","type":"uint256","internalType":"uint256"}],"stateMutability":"view"},{"type":"function","name":"flashFeeReceiver","inputs":[],"outputs":[{"name":"","type":"address","internalType":"address"}],"stateMutability":"view"},{"type":"function","name":"getRoleAdmin","inputs":[{"name":"role","type":"bytes32","internalType":"bytes32"}],"outputs":[{"name":"","type":"bytes32","internalType":"bytes32"}],"stateMutability":"view"},{"type":"function","name":"grantRole","inputs":[{"name":"role","type":"bytes32","internalType":"bytes32"},{"name":"account","type":"address","internalType":"address"}],"outputs":[],"stateMutability":"nonpayable"},{"type":"function","name":"hasRole","inputs":[{"name":"role","type":"bytes32","internalType":"bytes32"},{"name":"account","type":"address","internalType":"address"}],"outputs":[{"name":"","type":"bool","internalType":"bool"}],"stateMutability":"view"},{"type":"function","name":"initialize","inputs":[{"name":"initialVersion","type":"uint64","internalType":"uint64"},{"name":"owner_","type":"address","internalType":"address"},{"name":"data","type":"bytes","internalType":"bytes"}],"outputs":[],"stateMutability":"nonpayable"},{"type":"function","name":"isDelegatorInitialized","inputs":[],"outputs":[{"name":"","type":"bool","internalType":"bool"}],"stateMutability":"view"},{"type":"function","name":"isDepositLimit","inputs":[],"outputs":[{"name":"","type":"bool","internalType":"bool"}],"stateMutability":"view"},{"type":"function","name":"isDepositorWhitelisted","inputs":[{"name":"account","type":"address","internalType":"address"}],"outputs":[{"name":"value","type":"bool","internalType":"bool"}],"stateMutability":"view"},{"type":"function","name":"isSlasherInitialized","inputs":[],"outputs":[{"name":"","type":"bool","internalType":"bool"}],"stateMutability":"view"},{"type":"function","name":"isWithdrawalsClaimed","inputs":[{"name":"epoch","type":"uint256","internalType":"uint256"},{"name":"account","type":"address","internalType":"address"}],"outputs":[{"name":"value","type":"bool","internalType":"bool"}],"stateMutability":"view"},{"type":"function","name":"migrate","inputs":[{"name":"newVersion","type":"uint64","internalType":"uint64"},{"name":"data","type":"bytes","internalType":"bytes"}],"outputs":[],"stateMutability":"nonpayable"},{"type":"function","name":"nextEpochDurationInitInternal","inputs":[],"outputs":[{"name":"","type":"uint48","internalType":"uint48"}],"stateMutability":"view"},{"type":"function","name":"nextEpochDurationInternal","inputs":[],"outputs":[{"name":"","type":"uint48","internalType":"uint48"}],"stateMutability":"view"},{"type":"function","name":"nextEpochDurationSetEpochsDelayInternal","inputs":[],"outputs":[{"name":"","type":"uint256","internalType":"uint256"}],"stateMutability":"view"},{"type":"function","name":"nextEpochInitInternal","inputs":[],"outputs":[{"name":"","type":"uint256","internalType":"uint256"}],"stateMutability":"view"},{"type":"function","name":"owner","inputs":[],"outputs":[{"name":"","type":"address","internalType":"address"}],"stateMutability":"view"},{"type":"function","name":"prevEpochDurationInitInternal","inputs":[],"outputs":[{"name":"","type":"uint48","internalType":"uint48"}],"stateMutability":"view"},{"type":"function","name":"prevEpochDurationInternal","inputs":[],"outputs":[{"name":"","type":"uint48","internalType":"uint48"}],"stateMutability":"view"},{"type":"function","name":"prevEpochInitInternal","inputs":[],"outputs":[{"name":"","type":"uint256","internalType":"uint256"}],"stateMutability":"view"},{"type":"function","name":"renounceOwnership","inputs":[],"outputs":[],"stateMutability":"nonpayable"},{"type":"function","name":"renounceRole","inputs":[{"name":"role","type":"bytes32","internalType":"bytes32"},{"name":"callerConfirmation","type":"address","internalType":"address"}],"outputs":[],"stateMutability":"nonpayable"},{"type":"function","name":"revokeRole","inputs":[{"name":"role","type":"bytes32","internalType":"bytes32"},{"name":"account","type":"address","internalType":"address"}],"outputs":[],"stateMutability":"nonpayable"},{"type":"function","name":"slasher","inputs":[],"outputs":[{"name":"","type":"address","internalType":"address"}],"stateMutability":"view"},{"type":"function","name":"staticDelegateCall","inputs":[{"name":"target","type":"address","internalType":"address"},{"name":"data","type":"bytes","internalType":"bytes"}],"outputs":[],"stateMutability":"nonpayable"},{"type":"function","name":"supportsInterface","inputs":[{"name":"interfaceId","type":"bytes4","internalType":"bytes4"}],"outputs":[{"name":"","type":"bool","internalType":"bool"}],"stateMutability":"view"},{"type":"function","name":"transferOwnership","inputs":[{"name":"newOwner","type":"address","internalType":"address"}],"outputs":[],"stateMutability":"nonpayable"},{"type":"function","name":"version","inputs":[],"outputs":[{"name":"","type":"uint64","internalType":"uint64"}],"stateMutability":"view"},{"type":"function","name":"withdrawalShares","inputs":[{"name":"epoch","type":"uint256","internalType":"uint256"}],"outputs":[{"name":"amount","type":"uint256","internalType":"uint256"}],"stateMutability":"view"},{"type":"function","name":"withdrawalSharesOf","inputs":[{"name":"epoch","type":"uint256","internalType":"uint256"},{"name":"account","type":"address","internalType":"address"}],"outputs":[{"name":"amount","type":"uint256","internalType":"uint256"}],"stateMutability":"view"},{"type":"function","name":"withdrawals","inputs":[{"name":"epoch","type":"uint256","internalType":"uint256"}],"outputs":[{"name":"amount","type":"uint256","internalType":"uint256"}],"stateMutability":"view"},{"type":"event","name":"Initialized","inputs":[{"name":"version","type":"uint64","indexed":false,"internalType":"uint64"}],"anonymous":false},{"type":"event","name":"OwnershipTransferred","inputs":[{"name":"previousOwner","type":"address","indexed":true,"internalType":"address"},{"name":"newOwner","type":"address","indexed":true,"internalType":"address"}],"anonymous":false},{"type":"event","name":"RoleAdminChanged","inputs":[{"name":"role","type":"bytes32","indexed":true,"internalType":"bytes32"},{"name":"previousAdminRole","type":"bytes32","indexed":true,"internalType":"bytes32"},{"name":"newAdminRole","type":"bytes32","indexed":true,"internalType":"bytes32"}],"anonymous":false},{"type":"event","name":"RoleGranted","inputs":[{"name":"role","type":"bytes32","indexed":true,"internalType":"bytes32"},{"name":"account","type":"address","indexed":true,"internalType":"address"},{"name":"sender","type":"address","indexed":true,"internalType":"address"}],"anonymous":false},{"type":"event","name":"RoleRevoked","inputs":[{"name":"role","type":"bytes32","indexed":true,"internalType":"bytes32"},{"name":"account","type":"address","indexed":true,"internalType":"address"},{"name":"sender","type":"address","indexed":true,"internalType":"address"}],"anonymous":false},{"type":"error","name":"AccessControlBadConfirmation","inputs":[]},{"type":"error","name":"AccessControlUnauthorizedAccount","inputs":[{"name":"account","type":"address","internalType":"address"},{"name":"neededRole","type":"bytes32","internalType":"bytes32"}]},{"type":"error","name":"AddressEmptyCode","inputs":[{"name":"target","type":"address","internalType":"address"}]},{"type":"error","name":"AlreadyInitialized","inputs":[]},{"type":"error","name":"AlreadySet","inputs":[]},{"type":"error","name":"FailedCall","inputs":[]},{"type":"error","name":"InvalidAccount","inputs":[]},{"type":"error","name":"InvalidCollateral","inputs":[]},{"type":"error","name":"InvalidEpochDuration","inputs":[]},{"type":"error","name":"InvalidEpochDurationSetEpochsDelay","inputs":[]},{"type":"error","name":"InvalidFlashParams","inputs":[]},{"type":"error","name":"InvalidInitialization","inputs":[]},{"type":"error","name":"MissingRoles","inputs":[]},{"type":"error","name":"NoDepositWhitelist","inputs":[]},{"type":"error","name":"NotFactory","inputs":[]},{"type":"error","name":"NotInitialized","inputs":[]},{"type":"error","name":"NotInitializing","inputs":[]},{"type":"error","name":"OwnableInvalidOwner","inputs":[{"name":"owner","type":"address","internalType":"address"}]},{"type":"error","name":"OwnableUnauthorizedAccount","inputs":[{"name":"account","type":"address","internalType":"address"}]},{"type":"error","name":"ReentrancyGuardReentrantCall","inputs":[]},{"type":"error","name":"SafeCastOverflowedUintDowncast","inputs":[{"name":"bits","type":"uint8","internalType":"uint8"},{"name":"value","type":"uint256","internalType":"uint256"}]}],"bytecode":{"object":"0x60c03461011c576127d0906001600160401b0390601f38849003908101601f191682019083821183831017610120578083916040968794855283398101031261011c57610057602061005083610134565b9201610134565b917ff0c57e16840df040f15088dc2f81fe391c3923bec73e23a9662efc9c229c6a009081549060ff82871c1661010b5780808316036100c7575b50505060805260a052516126879081610149823960805181818161055601526106c1015260a05181818161153001526121b40152f35b6001600160401b0319909116811790915583519081527fc7f505b2f371ae2175ee4913f4499e1f2633a7b5936321eed1cdaeb6115181d290602090a15f8080610091565b855163f92ee8a960e01b8152600490fd5b5f80fd5b634e487b7160e01b5f52604160045260245ffd5b51906001600160a01b038216820361011c5756fe6080604052600436106121aa575f3560e01c806301ffc9a71461033b5780630fcaeb1b146103365780631415519b146103315780631b66c9e11461032c5780631e89bd8a14610327578063248a9ca31461032257806327810b6e1461031d5780632abe3048146103185780632dd31000146103135780632f2ff15d1461030e57806331d9736c1461030957806336568abe1461030457806348d3b775146102ff578063502b4d60146102fa57806350861adc146102f557806354fd4d50146102f057806357ec83cc146102eb5780635cc07076146102e657806361819dd8146102e157806364601402146102dc578063653b04cd146102d75780636ec1e3f8146102d2578063715018a6146102cd57806375d6c765146102c8578063794b15b7146102c35780637e84ec81146102be5780638d30d7a7146102b95780638da5cb5b146102b457806391d14854146102af5780639f86fd85146102aa578063a1b12202146102a5578063a217fddf146102a0578063a21a1df91461029b578063a3b5417214610296578063a5d0322314610291578063a8b24f9a1461028c578063afba70ad14610287578063b134427114610282578063bc46f7221461027d578063bc4f8c0514610278578063ce9b793014610273578063d2356eb51461026e578063d547741f14610269578063d8dfeb4514610264578063db3887151461025f578063ddd0f28a1461025a578063e945da7f14610255578063ecc98f0514610250578063ecf708581461024b578063f2fde38b146102465763fcdc5b60036121aa57611058565b61102b565b61100e565b610ff0565b610fd3565b610fb6565b610f7c565b610f51565b610f05565b610ee8565b610ec0565b610ea3565b610e69565b610e41565b610e17565b610def565b610da9565b610d5c565b610d22565b610d08565b610ce4565b610c50565b610bf2565b610bbe565b610b99565b610b71565b610b31565b610b09565b610aa2565b610a7d565b610a43565b610a1b565b6109e1565b6109b7565b610872565b610840565b61081b565b6107f3565b6107d2565b610787565b61074d565b610701565b6106ac565b6104ea565b61047f565b610446565b610426565b6103ec565b6103b2565b610395565b346103915760203660031901126103915760043563ffffffff60e01b811680910361039157602090637965db0b60e01b8114908115610380575b506040519015158152f35b6301ffc9a760e01b1490505f610375565b5f80fd5b34610391575f366003190112610391576020601154604051908152f35b34610391575f3660031901126103915760206040517fc6aaadd7371d5e8f9ed6849dd66a66573a3ba37167d03f4352c9ba5693678fac8152f35b34610391575f3660031901126103915760206040517f9c56d972d63cbb4195b3c1484691dfc220fa96a4c47e7b6613bd82a022029e068152f35b34610391575f36600319011261039157602060015460d01c604051908152f35b34610391576020366003190112610391576004355f525f805160206126128339815191526020526020600160405f200154604051908152f35b34610391575f366003190112610391576001546040516001600160a01b039091168152602090f35b600435906001600160401b038216820361039157565b9181601f84011215610391578235916001600160401b038311610391576020838186019501011161039157565b3461039157604080600319360112610391576105046104a7565b906001600160401b03602435818111610391576105259036906004016104bd565b917f9b779b17422d0df92223018b32b4d1fa46e071723d6817e2486d003becc55f00600281541461069b57600290557f00000000000000000000000000000000000000000000000000000000000000006001600160a01b0316330361068a575f8051602061263283398151915280548281169260ff82881c16801561067e575b61066d5767ffffffffffffffff199091169087161790555f80516020612632833981519152805460ff60401b1916600160401b1790557fc7f505b2f371ae2175ee4913f4499e1f2633a7b5936321eed1cdaeb6115181d29461063f949093909261060e92611a40565b5f80516020612632833981519152805460ff60401b19169055516001600160401b0390911681529081906020820190565b0390a161066b60017f9b779b17422d0df92223018b32b4d1fa46e071723d6817e2486d003becc55f0055565b005b865163f92ee8a960e01b8152600490fd5b508088168410156105a5565b8351631966391b60e11b8152600490fd5b8451633ee5aeb560e01b8152600490fd5b34610391575f366003190112610391576040517f00000000000000000000000000000000000000000000000000000000000000006001600160a01b03168152602090f35b6001600160a01b0381160361039157565b346103915760403660031901126103915761066b602435600435610724826106f0565b805f525f80516020612612833981519152602052610748600160405f200154611b2a565b611f99565b34610391575f3660031901126103915760206040517f5295aaaa27fdd659293eafacbfafbc634c1b96298957e87de5f59308cdbfdad18152f35b34610391576040366003190112610391576024356107a4816106f0565b336001600160a01b038216036107c05761066b90600435611fcf565b60405163334bd91960e11b8152600490fd5b34610391575f36600319011261039157602060ff5f54166040519015158152f35b34610391575f36600319011261039157602065ffffffffffff60135460901c16604051908152f35b34610391575f36600319011261039157602060ff60025460a01c166040519015158152f35b34610391575f3660031901126103915760206001600160401b035f805160206126328339815191525416604051908152f35b346103915760603660031901126103915761088b6104a7565b602435610897816106f0565b6001600160401b0391604435838111610391576108b89036906004016104bd565b5f805160206126328339815191529491855494838616806109a65760ff8760401c16908115610999575b50610987577fc7f505b2f371ae2175ee4913f4499e1f2633a7b5936321eed1cdaeb6115181d2966109829661094f958716906001600160401b03191617905561094a5f80516020612632833981519152600160401b68ff000000000000000019825416179055565b611165565b5f80516020612632833981519152805460ff60401b191690556040516001600160401b0390911681529081906020820190565b0390a1005b60405163f92ee8a960e01b8152600490fd5b905084861611155f6108e2565b60405162dc149f60e41b8152600490fd5b34610391576020366003190112610391576004355f526006602052602060405f2054604051908152f35b34610391575f3660031901126103915760206040517f591f6a0113ada8aff67efadec8ae2fa585cb4ebf4e1f8fc1205ffbeff98d00ec8152f35b34610391575f36600319011261039157602065ffffffffffff60015460a01c16604051908152f35b34610391575f3660031901126103915760206040517f439148f0bbc682ca079e46d6e2c2f0c1e3b820f1a291b069d8882abf8cf18dd98152f35b34610391575f36600319011261039157602060ff60035460a01c166040519015158152f35b34610391575f36600319011261039157610aba612172565b5f805160206125f283398151915280546001600160a01b031981169091555f906001600160a01b03167f8be0079c531659141344cd1fd0a4f28419497f9722a3daafe3b4186f6b6457e08280a3005b34610391575f36600319011261039157602065ffffffffffff60135460601c16604051908152f35b3461039157602036600319011261039157600435610b4e816106f0565b60018060a01b03165f526005602052602060ff60405f2054166040519015158152f35b34610391575f36600319011261039157602065ffffffffffff60135460301c16604051908152f35b34610391575f36600319011261039157602065ffffffffffff60135416604051908152f35b34610391575f366003190112610391575f805160206125f2833981519152546040516001600160a01b039091168152602090f35b3461039157604036600319011261039157602060ff610c44602435610c16816106f0565b6004355f525f80516020612612833981519152845260405f209060018060a01b03165f5260205260405f2090565b54166040519015158152f35b3461039157604036600319011261039157600435610c6d816106f0565b6024356001600160401b038111610391575f91610c8f839236906004016104bd565b90816040519283928337810184815203915af4610cdc610cad61197c565b91610cce6040519384921515602084015260408084015260608301906119ab565b03601f1981018352826110c4565b805190602001fd5b34610391575f36600319011261039157602060ff5f5460081c166040519015158152f35b34610391575f3660031901126103915760206040515f8152f35b34610391575f3660031901126103915760206040517f4a634bc14d77baf979756509ef4298c6f6318af357828612545267ee2eb792338152f35b34610391576040366003190112610391576020610da0602435610d7e816106f0565b6004355f526008835260405f209060018060a01b03165f5260205260405f2090565b54604051908152f35b3461039157604036600319011261039157602060ff610c44602435610dcd816106f0565b6004355f526009845260405f209060018060a01b03165f5260205260405f2090565b34610391575f366003190112610391576016546040516001600160a01b039091168152602090f35b34610391576020366003190112610391576004355f526007602052602060405f2054604051908152f35b34610391575f366003190112610391576003546040516001600160a01b039091168152602090f35b34610391575f3660031901126103915760206040517fc9078c78bcaac2be1c77c160c539a489be2b72939771b1a6302fed3e2150c7458152f35b34610391575f366003190112610391576020601054604051908152f35b34610391575f366003190112610391576002546040516001600160a01b039091168152602090f35b34610391575f366003190112610391576020601254604051908152f35b346103915760403660031901126103915761066b602435600435610f28826106f0565b805f525f80516020612612833981519152602052610f4c600160405f200154611b2a565b611fcf565b34610391575f366003190112610391575f5460405160109190911c6001600160a01b03168152602090f35b34610391575f3660031901126103915760206040517fbae4ee3de6c709ff9a002e774c5b78cb381560b219213c88ae0f1e207c03c0238152f35b34610391575f366003190112610391576020601454604051908152f35b34610391575f366003190112610391576020601554604051908152f35b34610391575f366003190112610391576020604051633b9aca008152f35b34610391575f366003190112610391576020600454604051908152f35b346103915760203660031901126103915761066b60043561104b816106f0565b611053612172565b6119cf565b34610391575f366003190112610391576020600f54604051908152f35b634e487b7160e01b5f52604160045260245ffd5b60c081019081106001600160401b038211176110a457604052565b611075565b606081019081106001600160401b038211176110a457604052565b90601f801991011681019081106001600160401b038211176110a457604052565b604051906110f282611089565b565b6040519061024082018281106001600160401b038211176110a457604052565b6001600160401b0381116110a457601f01601f191660200190565b92919261113b82611114565b9161114960405193846110c4565b829481845281830111610391578281602093845f960137010152565b906111bd909392936111756121e6565b61117d6121e6565b60017f9b779b17422d0df92223018b32b4d1fa46e071723d6817e2486d003becc55f00819055946001600160a01b0393808516611962575b50369161112f565b6111d2815191602080809483010191016120b4565b916111e683518380825183010191016122af565b805182166001600160a01b031615611950576040958682019065ffffffffffff611216835165ffffffffffff1690565b161561193f5761012083018051909290611240906001600160a01b03165b6001600160a01b031690565b1561180a575b606084019161125c6112588451151590565b1590565b806117fb575b6117ea5761018085015f825b61173d575b5050835161128a91506001600160a01b0316611234565b156115a7575b6101c0846114a48b956114636114538b9a976115549e9f6114286115039961152e9f6113c5610cce9f9161137f8361137a61144d9861136a60c06113e79801519361135a60e08201519361134a6112f161010085015160018060a01b031690565b6101e08501516001600160a01b031661020086015190939061132990610220906001600160a01b03169701516001600160a01b031690565b976113326110e5565b9a8b528c8b01526001600160a01b0390911690890152565b6001600160a01b03166060870152565b6001600160a01b03166080850152565b6001600160a01b031660a0830152565b612457565b8b516113b6906001600160a01b03165f805462010000600160b01b03191660109290921b62010000600160b01b0316919091179055565b8b01516001600160a01b031690565b60018060a01b03166bffffffffffffffffffffffff60a01b6001541617600155565b61141c6113f3426125bf565b6001805465ffffffffffff60a01b191660a09290921b65ffffffffffff60a01b16919091179055565b5165ffffffffffff1690565b600180546001600160d01b031660d09290921b6001600160d01b031916919091179055565b51151590565b60ff80195f541691151516175f55565b61148a6114736080850151151590565b61ff005f5491151560081b169061ff001916175f55565b61149760a0840151600455565b516001600160a01b031690565b848116611597575b506101408101516001600160a01b0316848116611587575b506101608101516001600160a01b0316848116611577575b506101a08101516001600160a01b0316848116611567575b5001516001600160a01b031690565b908116611557575b508083860151950151905194859363602bd8e760e01b908501526024840161214d565b7f000000000000000000000000000000000000000000000000000000000000000061243a565b50565b61156090611ddd565b505f61150b565b61157090611d6e565b505f6114f4565b61158090611cff565b505f6114dc565b61159090611c29565b505f6114c4565b6115a090611b78565b505f6114ac565b6101008401516115bf906001600160a01b0316611234565b6116d1576102008401516115db906001600160a01b0316611234565b611677576102208401516115f7906001600160a01b0316611234565b15158061166b575b61165a576101c0846114a48b956114636114538b9a976115549e9f6114286115039961152e9f6113c5610cce9f9161137f6113e79361137a61144d985b5050505050505099505050979a9b505050959b9a5050945050611290565b8851630331eb0f60e41b8152600490fd5b5060e0840151156115ff565b61022084015161168f906001600160a01b0316611234565b1561165a576101c0846114a48b956114636114538b9a976115549e9f6114286115039961152e9f6113c5610cce9f9161137f6113e79361137a61144d9861163c565b6102008401516116e9906001600160a01b0316611234565b1580611731575b61165a576101c0846114a48b956114636114538b9a976115549e9f6114286115039961152e9f6113c5610cce9f9161137f6113e79361137a61144d9861163c565b5060e0840151156116f0565b815180518210156117e4576112346114978361175893612412565b156117d35761179161178a611771611497848651612412565b6001600160a01b03165f90815260056020526040902090565b5460ff1690565b6117c2579082826117ba6117ad61177161149785978751612412565b805460ff19166001179055565b01909161126e565b8b5163a741a04560e01b8152600490fd5b8b51630da30f6560e31b8152600490fd5b50611273565b895163ebf503c560e01b8152600490fd5b50610180850151511515611262565b610140840151611822906001600160a01b0316611234565b156118da575b6101a0840151611840906001600160a01b0316611234565b1561184b575b611246565b6080840151156118965760a08401511580611877575b1561124657885163183c854560e21b8152600490fd5b506101c0840151611890906001600160a01b0316611234565b15611861565b60a0840151158015906118ba575b1561184657885163183c854560e21b8152600490fd5b506101c08401516118d3906001600160a01b0316611234565b15156118a4565b606084015115611911576101608401516118fc906001600160a01b0316611234565b61182857885163183c854560e21b8152600490fd5b610160840151611929906001600160a01b0316611234565b1561182857885163183c854560e21b8152600490fd5b87516368f5f8f160e11b8152600490fd5b6040516368f7a67560e11b8152600490fd5b6119769061196e6121e6565b6110536121e6565b5f6111b5565b3d156119a6573d9061198d82611114565b9161199b60405193846110c4565b82523d5f602084013e565b606090565b805180835260209291819084018484015e5f828201840152601f01601f1916010190565b6001600160a01b03908116908115611a28575f805160206125f283398151915280546001600160a01b031981168417909155167f8be0079c531659141344cd1fd0a4f28419497f9722a3daafe3b4186f6b6457e05f80a3565b604051631e4fbdf760e01b81525f6004820152602490fd5b91611a576001926001600160401b0392369161112f565b921603611aab57611a7481602080611554945183010191016120b4565b611a7e8151611aab565b61152e6040602083015192015191610cce60405193849263602bd8e760e01b60208501526024840161214d565b60c081805181010312610391576110f29060c060405191611acb83611089565b60208101518352604081015160208401526060810151611aea816106f0565b60408401526080810151611afd816106f0565b606084015260a0810151611b10816106f0565b60808401520151611b20816106f0565b60a0820152612457565b5f8181525f805160206126128339815191526020908152604080832033845290915290205460ff1615611b5a5750565b6044906040519063e2517d3f60e01b82523360048301526024820152fd5b6001600160a01b0381165f9081527fb7db2dd08fcb62d0c9e08c51941cae53c267786a0b75803fb7960902fc8ef97d60205260409020545f805160206126128339815191529060ff16611c23575f808052602091825260408082206001600160a01b038516835290925220805460ff1916600117905533906001600160a01b03165f7f2f8788117e7eff1d82e926ec794901d17c78024a50270940304540a733656f0d8180a4600190565b50505f90565b6001600160a01b0381165f9081527f03b26b53c87faa1058f30bb5d2fee64f717719a0d9b7e4f4df027aa5e9b6ed69602052604090207fbae4ee3de6c709ff9a002e774c5b78cb381560b219213c88ae0f1e207c03c023905f805160206126128339815191529060ff905b5416611cf8575f828152602091825260408082206001600160a01b038616835290925220805460ff1916600117905533916001600160a01b0316907f2f8788117e7eff1d82e926ec794901d17c78024a50270940304540a733656f0d5f80a4600190565b5050505f90565b6001600160a01b0381165f9081527f0287ab4cb376ea253d7b2ce0c2cbf458f7deae9458470d74afdfbbee484e9540602052604090207f9c56d972d63cbb4195b3c1484691dfc220fa96a4c47e7b6613bd82a022029e06905f805160206126128339815191529060ff90611c94565b6001600160a01b0381165f9081527fe41986b390c4ce6791b87f7423b5fab7a81a0e6d89660b6264f697d008b2243a602052604090207fc6aaadd7371d5e8f9ed6849dd66a66573a3ba37167d03f4352c9ba5693678fac905f805160206126128339815191529060ff90611c94565b6001600160a01b0381165f9081527f2d4ccbfe9f7672a6f2537c1e5bce6adacb73706879154bbab6ce096012d67216602052604090207f4a634bc14d77baf979756509ef4298c6f6318af357828612545267ee2eb79233905f805160206126128339815191529060ff90611c94565b6001600160a01b0381165f9081527f99e47f2907af87dbb5c62e22bd8ea822f5011dfd1e243469ce26ebebf3ab93e3602052604090207f591f6a0113ada8aff67efadec8ae2fa585cb4ebf4e1f8fc1205ffbeff98d00ec905f805160206126128339815191529060ff90611c94565b6001600160a01b0381165f9081527f82a1dc868a49801aa31c5dd393dc0b9005735300cdcd4bbc1af68215effcd6f8602052604090207fc9078c78bcaac2be1c77c160c539a489be2b72939771b1a6302fed3e2150c745905f805160206126128339815191529060ff90611c94565b6001600160a01b0381165f9081527f9aeaa4f1a9be826e331dea6728ca206744e0a34dccbc1d3da4a68acb8abf0363602052604090207f5295aaaa27fdd659293eafacbfafbc634c1b96298957e87de5f59308cdbfdad1905f805160206126128339815191529060ff90611c94565b5f8181525f80516020612612833981519152602081815260408084206001600160a01b038716855290915290912060ff90611c94565b5f8181525f80516020612612833981519152602081815260408084206001600160a01b03871685529091529091205460ff1615611cf8575f828152602091825260408082206001600160a01b038616835290925220805460ff1916905533916001600160a01b0316907ff6391f5c32d9c69d2a47ea670b442974b53935d1edc7fd64eb21e047a839171b5f80a4600190565b92919261206d82611114565b9161207b60405193846110c4565b829481845281830111610391578281602093845f96015e010152565b9080601f830112156103915781516120b192602001612061565b90565b906020828203126103915781516001600160401b039283821161039157019060608282031261039157604051926120ea846110a9565b825181811161039157830182601f82011215610391578281602061211093519101612061565b84526020830151818111610391578261212a918501612097565b60208501526040830151908111610391576121459201612097565b604082015290565b90916121646120b1936040845260408401906119ab565b9160208184039101526119ab565b5f805160206125f2833981519152546001600160a01b0316330361219257565b60405163118cdaa760e01b8152336004820152602490fd5b365f80375f8036817f00000000000000000000000000000000000000000000000000000000000000005af43d5f803e156121e2573d5ff35b3d5ffd5b60ff5f805160206126328339815191525460401c161561220257565b604051631afcd79f60e31b8152600490fd5b51906110f2826106f0565b519065ffffffffffff8216820361039157565b5190811515820361039157565b81601f82011215610391578051916020916001600160401b0384116110a4578360051b9060405194612273858401876110c4565b85528380860192820101928311610391578301905b828210612296575050505090565b83809183516122a4816106f0565b815201910190612288565b906020828203126103915781516001600160401b039283821161039157019061024082820312610391576122e16110f4565b926122eb83612214565b84526122f960208401612214565b602085015261230a6040840161221f565b604085015261231b60608401612232565b606085015261232c60808401612232565b608085015260a083015160a085015260c083015160c085015260e083015160e085015261010061235d818501612214565b9085015261012061236f818501612214565b90850152610140612381818501612214565b90850152610160612393818501612214565b908501526101809182840151918211610391576123b191840161223f565b908301526101a06123c3818301612214565b908301526101c06123d5818301612214565b908301526101e06123e7818301612214565b908301526102006123f9818301612214565b9083015261240b610220809201612214565b9082015290565b80518210156124265760209160051b010190565b634e487b7160e01b5f52603260045260245ffd5b5f806120b193602081519101845af461245161197c565b9161255c565b600381511061254a576040810180516001600160a01b039291908316158061253d575b61252b57816124c46124a260a0936124956124ff9651600f55565b6114976020850151601555565b60018060a01b03166bffffffffffffffffffffffff60a01b6016541617601655565b60608101516001600160a01b031684811661251b575b5060808101516001600160a01b0316848116612512575001516001600160a01b031690565b9081166125095750565b61155490611f2a565b61157090611ebb565b61252490611e4c565b505f6124da565b604051630331eb0f60e41b8152600490fd5b506020820151151561247a565b6040516317a509b960e31b8152600490fd5b90612583575080511561257157805190602001fd5b60405163d6bda27560e01b8152600490fd5b815115806125b6575b612594575090565b604051639996b31560e01b81526001600160a01b039091166004820152602490fd5b50803b1561258c565b65ffffffffffff908181116125d2571690565b604490604051906306dfcc6560e41b8252603060048301526024820152fdfe9016d09d72d40fdae2fd8ceac6b6234c7706214fd39c1cd1e609a0528c19930002dd7bc7dec4dceedda775e58dd541e08a116c6c53815c0bd028192f7b626800f0c57e16840df040f15088dc2f81fe391c3923bec73e23a9662efc9c229c6a00a2646970667358221220acf50e81dd813b016a7a975621b62823bc794ae18e997c08ca5969f769df67e564736f6c63430008190033","linkReferences":{}},"methodIdentifiers":{"DEFAULT_ADMIN_ROLE()":"a217fddf","DEPOSITOR_WHITELIST_ROLE()":"1b66c9e1","DEPOSIT_LIMIT_SET_ROLE()":"a21a1df9","DEPOSIT_WHITELIST_SET_ROLE()":"db388715","EPOCH_DURATION_SET_ROLE()":"61819dd8","FACTORY()":"2dd31000","FLASH_FEE_BASE()":"ecc98f05","FLASH_FEE_RATE_SET_ROLE()":"bc46f722","FLASH_FEE_RECEIVER_SET_ROLE()":"31d9736c","IS_DEPOSIT_LIMIT_SET_ROLE()":"1415519b","RETURN_VALUE()":"653b04cd","burner()":"27810b6e","collateral()":"d8dfeb45","delegator()":"ce9b7930","depositLimit()":"ecf70858","depositWhitelist()":"48d3b775","epochDurationInitInternal()":"64601402","epochDurationInternal()":"1e89bd8a","epochDurationSetEpochsDelayInternal()":"fcdc5b60","epochInitInternal()":"0fcaeb1b","flashFeeRate()":"e945da7f","flashFeeReceiver()":"a8b24f9a","getRoleAdmin(bytes32)":"248a9ca3","grantRole(bytes32,address)":"2f2ff15d","hasRole(bytes32,address)":"91d14854","initialize(uint64,address,bytes)":"57ec83cc","isDelegatorInitialized()":"50861adc","isDepositLimit()":"a1b12202","isDepositorWhitelisted(address)":"794b15b7","isSlasherInitialized()":"6ec1e3f8","isWithdrawalsClaimed(uint256,address)":"a5d03223","migrate(uint64,bytes)":"2abe3048","nextEpochDurationInitInternal()":"75d6c765","nextEpochDurationInternal()":"502b4d60","nextEpochDurationSetEpochsDelayInternal()":"bc4f8c05","nextEpochInitInternal()":"ddd0f28a","owner()":"8da5cb5b","prevEpochDurationInitInternal()":"8d30d7a7","prevEpochDurationInternal()":"7e84ec81","prevEpochInitInternal()":"d2356eb5","renounceOwnership()":"715018a6","renounceRole(bytes32,address)":"36568abe","revokeRole(bytes32,address)":"d547741f","slasher()":"b1344271","staticDelegateCall(address,bytes)":"9f86fd85","supportsInterface(bytes4)":"01ffc9a7","transferOwnership(address)":"f2fde38b","version()":"54fd4d50","withdrawalShares(uint256)":"afba70ad","withdrawalSharesOf(uint256,address)":"a3b54172","withdrawals(uint256)":"5cc07076"},"id":114}