{"abi":[{"type":"constructor","inputs":[],"stateMutability":"nonpayable"},{"type":"function","name":"WHERE_REGISTRY","inputs":[],"outputs":[{"name":"","type":"address","internalType":"address"}],"stateMutability":"view"},{"type":"function","name":"WHO_REGISTRY","inputs":[],"outputs":[{"name":"","type":"address","internalType":"address"}],"stateMutability":"view"},{"type":"function","name":"eip712Domain","inputs":[],"outputs":[{"name":"fields","type":"bytes1","internalType":"bytes1"},{"name":"name","type":"string","internalType":"string"},{"name":"version","type":"string","internalType":"string"},{"name":"chainId","type":"uint256","internalType":"uint256"},{"name":"verifyingContract","type":"address","internalType":"address"},{"name":"salt","type":"bytes32","internalType":"bytes32"},{"name":"extensions","type":"uint256[]","internalType":"uint256[]"}],"stateMutability":"view"},{"type":"function","name":"increaseNonce","inputs":[{"name":"where","type":"address","internalType":"address"}],"outputs":[],"stateMutability":"nonpayable"},{"type":"function","name":"isOptedIn","inputs":[{"name":"who","type":"address","internalType":"address"},{"name":"where","type":"address","internalType":"address"}],"outputs":[{"name":"","type":"bool","internalType":"bool"}],"stateMutability":"view"},{"type":"function","name":"isOptedInAt","inputs":[{"name":"who","type":"address","internalType":"address"},{"name":"where","type":"address","internalType":"address"},{"name":"timestamp","type":"uint48","internalType":"uint48"},{"name":"hint","type":"bytes","internalType":"bytes"}],"outputs":[{"name":"","type":"bool","internalType":"bool"}],"stateMutability":"view"},{"type":"function","name":"nonces","inputs":[{"name":"who","type":"address","internalType":"address"},{"name":"where","type":"address","internalType":"address"}],"outputs":[{"name":"nonce","type":"uint256","internalType":"uint256"}],"stateMutability":"view"},{"type":"function","name":"optIn","inputs":[{"name":"where","type":"address","internalType":"address"}],"outputs":[],"stateMutability":"nonpayable"},{"type":"function","name":"optIn","inputs":[{"name":"who","type":"address","internalType":"address"},{"name":"where","type":"address","internalType":"address"},{"name":"deadline","type":"uint48","internalType":"uint48"},{"name":"signature","type":"bytes","internalType":"bytes"}],"outputs":[],"stateMutability":"nonpayable"},{"type":"function","name":"optInHint","inputs":[{"name":"optInService","type":"address","internalType":"address"},{"name":"who","type":"address","internalType":"address"},{"name":"where","type":"address","internalType":"address"},{"name":"timestamp","type":"uint48","internalType":"uint48"}],"outputs":[{"name":"","type":"bytes","internalType":"bytes"}],"stateMutability":"view"},{"type":"function","name":"optInHintInternal","inputs":[{"name":"who","type":"address","internalType":"address"},{"name":"where","type":"address","internalType":"address"},{"name":"timestamp","type":"uint48","internalType":"uint48"}],"outputs":[{"name":"exists","type":"bool","internalType":"bool"},{"name":"hint","type":"uint32","internalType":"uint32"}],"stateMutability":"view"},{"type":"function","name":"optOut","inputs":[{"name":"who","type":"address","internalType":"address"},{"name":"where","type":"address","internalType":"address"},{"name":"deadline","type":"uint48","internalType":"uint48"},{"name":"signature","type":"bytes","internalType":"bytes"}],"outputs":[],"stateMutability":"nonpayable"},{"type":"function","name":"optOut","inputs":[{"name":"where","type":"address","internalType":"address"}],"outputs":[],"stateMutability":"nonpayable"},{"type":"function","name":"staticDelegateCall","inputs":[{"name":"target","type":"address","internalType":"address"},{"name":"data","type":"bytes","internalType":"bytes"}],"outputs":[],"stateMutability":"nonpayable"},{"type":"event","name":"EIP712DomainChanged","inputs":[],"anonymous":false},{"type":"event","name":"IncreaseNonce","inputs":[{"name":"who","type":"address","indexed":true,"internalType":"address"},{"name":"where","type":"address","indexed":true,"internalType":"address"}],"anonymous":false},{"type":"event","name":"OptIn","inputs":[{"name":"who","type":"address","indexed":true,"internalType":"address"},{"name":"where","type":"address","indexed":true,"internalType":"address"}],"anonymous":false},{"type":"event","name":"OptOut","inputs":[{"name":"who","type":"address","indexed":true,"internalType":"address"},{"name":"where","type":"address","indexed":true,"internalType":"address"}],"anonymous":false},{"type":"error","name":"AlreadyOptedIn","inputs":[]},{"type":"error","name":"CheckpointUnorderedInsertion","inputs":[]},{"type":"error","name":"ExpiredSignature","inputs":[]},{"type":"error","name":"ExternalCall","inputs":[]},{"type":"error","name":"InvalidShortString","inputs":[]},{"type":"error","name":"InvalidSignature","inputs":[]},{"type":"error","name":"NotOptedIn","inputs":[]},{"type":"error","name":"NotWhereEntity","inputs":[]},{"type":"error","name":"NotWho","inputs":[]},{"type":"error","name":"OptOutCooldown","inputs":[]},{"type":"error","name":"SafeCastOverflowedUintDowncast","inputs":[{"name":"bits","type":"uint8","internalType":"uint8"},{"name":"value","type":"uint256","internalType":"uint256"}]},{"type":"error","name":"StringTooLong","inputs":[{"name":"str","type":"string","internalType":"string"}]}],"bytecode":{"object":"0x6101c03461019e5760208101906001600160401b039081831181841017610188576040838152600091828152815194828601868110868211176101745783526001865260208601603160f81b81523060805261005a836101a3565b9161014092835261006a88610362565b936101609485525190209061010097828952519020610120948186524660c05280519160208301937f8b73c3c69bb8fe3d512ecc4cf759cc79239f7b179b0ffacaa9a75d522b39400f85528284015260608301524660808301523060a083015260a0825260c0820197828910908911176101605787905251902060a0523060e052610180928484526101a0948552611c4d96876104fd8839608051876105ab015260a0518761180b015260c051876118c6015260e051876117d50152518661185a015251856118800152518461032d0152518361035701525182818161070101526110c501525181818161027701526111190152f35b634e487b7160e01b87526041600452602487fd5b634e487b7160e01b85526041600452602485fd5b634e487b7160e01b600052604160045260246000fd5b600080fd5b8051602091908281101561023d575090601f8251116101de57808251920151908083106101cf57501790565b82600019910360031b1b161790565b90604051809263305a27a960e01b82528060048301528251908160248401526000935b828510610224575050604492506000838284010152601f80199101168101030190fd5b8481018201518686016044015293810193859350610201565b6001600160401b038111610188576000928354926001938481811c91168015610358575b8382101461034457601f8111610311575b5081601f84116001146102ae575092829391839286946102a3575b50501b916000199060031b1c191617905560ff90565b01519250388061028d565b919083601f1981168780528488209488905b888383106102f757505050106102de575b505050811b01905560ff90565b015160001960f88460031b161c191690553880806102d1565b8587015188559096019594850194879350908101906102c0565b85805284601f848820920160051c820191601f860160051c015b828110610339575050610272565b87815501859061032b565b634e487b7160e01b86526022600452602486fd5b90607f1690610261565b8051602090818110156103eb5750601f82511161038c57808251920151908083106101cf57501790565b90604051809263305a27a960e01b82528060048301528251908160248401526000935b8285106103d2575050604492506000838284010152601f80199101168101030190fd5b84810182015186860160440152938101938593506103af565b9192916001600160401b0381116101885760019182548381811c911680156104f2575b828210146104dc57601f81116104a6575b5080601f831160011461045c575081929394600092610451575b5050600019600383901b1c191690821b17905560ff90565b015190503880610439565b90601f198316958460005282600020926000905b88821061048f57505083859697106102de57505050811b01905560ff90565b808785968294968601518155019501930190610470565b8360005283601f83600020920160051c820191601f850160051c015b8281106104d057505061041f565b600081550184906104c2565b634e487b7160e01b600052602260045260246000fd5b90607f169061040e56fe6080604052600436101561001257600080fd5b60003560e01c8063220d32d4146100f7578063530e1d43146100f25780636d0fae4a146100ed5780638247a97c146100e857806384b0196e146100e35780639333fbda146100de57806393f79bc3146100d95780639a15d7a5146100d45780639f86fd85146100cf578063b1138ad1146100ca578063c4b5d62c146100c5578063ced44ba7146100c0578063d4610483146100bb5763d4a63862146100b657600080fd5b61081a565b6107f8565b610730565b6106eb565b6106c9565b610637565b61056b565b610468565b610410565b610312565b6102a6565b610261565b6101f7565b61012d565b600435906001600160a01b038216820361011257565b600080fd5b602435906001600160a01b038216820361011257565b3461011257604036600319011261011257602061015961014b6100fc565b610153610117565b90610883565b6040519015158152f35b9181601f840112156101125782359167ffffffffffffffff8311610112576020838186019501011161011257565b906080600319830112610112576001600160a01b0391600435838116810361011257926024359081168103610112579160443565ffffffffffff8116810361011257916064359067ffffffffffffffff8211610112576101f391600401610163565b9091565b34610112576020600161025161025761024261021236610191565b969290949193888060a01b03166000526003895260406000209060018060a01b0316600052602052604060002090565b92868060d01b039536916109c1565b91610c37565b1614604051908152f35b34610112576000366003190112610112576040517f00000000000000000000000000000000000000000000000000000000000000006001600160a01b03168152602090f35b34610112576020366003190112610112576102c86102c26100fc565b33610d30565b005b60005b8381106102dd5750506000910152565b81810151838201526020016102cd565b90602091610306815180928185528580860191016102ca565b601f01601f1916010190565b346101125760008060031936011261040d576103b0906103517f00000000000000000000000000000000000000000000000000000000000000006112bc565b9061037b7f00000000000000000000000000000000000000000000000000000000000000006113bf565b906040519161038983610920565b8183526103be602091604051968796600f60f81b885260e0602089015260e08801906102ed565b9086820360408801526102ed565b904660608601523060808601528260a086015284820360c0860152602080855193848152019401925b8281106103f657505050500390f35b8351855286955093810193928101926001016103e7565b80fd5b3461011257604036600319011261011257602061045f61042e6100fc565b610436610117565b6001600160a01b0391821660009081526002855260408082209290931681526020919091522090565b54604051908152f35b346101125761047636610191565b909165ffffffffffff806104894261148d565b169116908110610559576105399261052a6105329260018060a01b03808916918260005260026020526104d28960406000209060018060a01b0316600052602052604060002090565b546040519260208401947f7830334d17a05ab8aeca8f1778e27182208fc2d454ac7b38a4edc2069ee3a4a6865260408501528a166060840152608083015260a082015260a081526105228161093c565b5190206114bf565b9236916109c1565b9084610d87565b15610547576102c891610e66565b604051638baa579f60e01b8152600490fd5b60405163df4cc36d60e01b8152600490fd5b34610112576060366003190112610112576105846100fc565b61058c610117565b906044359065ffffffffffff82168203610112576001600160a01b03927f00000000000000000000000000000000000000000000000000000000000000008416330361062557610604936105ff9216600052600360205260406000209060018060a01b0316600052602052604060002090565b610f98565b60408051941515855263ffffffff91909116602085015292915050f35b0390f35b604051637ca475e560e11b8152600490fd5b34610112576040366003190112610112576106506100fc565b60243567ffffffffffffffff81116101125760009161067483923690600401610163565b90816040519283928337810184815203915af46106c16106926109f8565b916106b36040519384921515602084015260408084015260608301906102ed565b03601f198101835282610974565b805190602001fd5b34610112576020366003190112610112576102c86106e56100fc565b33611099565b34610112576000366003190112610112576040517f00000000000000000000000000000000000000000000000000000000000000006001600160a01b03168152602090f35b346101125761073e36610191565b909165ffffffffffff806107514261148d565b169116908110610559576107ea9261052a6105329260018060a01b038089169182600052600260205261079a8960406000209060018060a01b0316600052602052604060002090565b546040519260208401947f6ab5200f1123a8d51d1695a9e5e757267926b53c6359f90b8873cc7dcc30ea2c865260408501528a166060840152608083015260a082015260a081526105228161093c565b15610547576102c891611099565b34610112576020366003190112610112576102c86108146100fc565b33610e66565b34610112576080366003190112610112576108336100fc565b61083b610117565b906044356001600160a01b0381168103610112576064359065ffffffffffff82168203610112576106219361086f93610a6a565b6040519182916020835260208301906102ed565b6001600160a01b0390811660009081526003602090815260408083209490931682529290925281208054806108c35750506001905b818060d01b03161490565b6000199181838101116108e45783602091600195522001015460301c6108b8565b610bfd565b634e487b7160e01b600052604160045260246000fd5b6040810190811067ffffffffffffffff82111761091b57604052565b6108e9565b6020810190811067ffffffffffffffff82111761091b57604052565b60c0810190811067ffffffffffffffff82111761091b57604052565b60a0810190811067ffffffffffffffff82111761091b57604052565b90601f8019910116810190811067ffffffffffffffff82111761091b57604052565b604051906109a3826108ff565b565b67ffffffffffffffff811161091b57601f01601f191660200190565b9291926109cd826109a5565b916109db6040519384610974565b829481845281830111610112578281602093846000960137010152565b3d15610a23573d90610a09826109a5565b91610a176040519384610974565b82523d6000602084013e565b606090565b5190811515820361011257565b519063ffffffff8216820361011257565b919082604091031261011257610a676020610a6084610a28565b9301610a35565b90565b93929160609465ffffffffffff604094855194602094639a15d7a560e01b8688015260018060a01b03809216602488015216604486015216606484015260648352610ab483610958565b83519283610adf84820192639f86fd8560e01b845230602484015287604484015260648301906102ed565b0393610af3601f1995868101835282610974565b6000928392839251915afa50610b076109f8565b8051810191858285850194031261040d57610b23848301610a28565b91868101519067ffffffffffffffff8211610be557019183603f84011215610be15784830151610b52816109a5565b93610b5f89519586610974565b81855286850195898383010111610bdd57908589610b7d93016102ca565b15610bce5750908282610b939351010190610a46565b9390610b9f5750505050565b610a6793949550610bc29051948592830191909163ffffffff6020820193169052565b03908101835282610974565b9083815192831561040d575001fd5b8380fd5b5080fd5b8280fd5b9081602091031261011257610a6790610a35565b634e487b7160e01b600052601160045260246000fd5b6000198101919082116108e457565b90600163ffffffff809316019182116108e457565b91805115610d265780602080610c5293518301019101610be9565b91610c5d8382611268565b92610c6e845165ffffffffffff1690565b9065ffffffffffff8085169216828114610d0d5782119182610cad575b5050610c9b57610a6792506116e5565b5050602001516001600160d01b031690565b909150610cba8354610c13565b63ffffffff831614918215610cd3575b50503880610c8b565b610d05919250610cee610ce8610cfa92610c22565b85611268565b5165ffffffffffff1690565b65ffffffffffff1690565b113880610cca565b50505050602091909101516001600160d01b0316905090565b50610a67916116e5565b6001600160a01b0390811660008181526002602090815260408083209590941680835294905291822080546001019055907f8ed32926585579e6191b145240df788165f4957e1135f30a00e08ee8feb9d6809080a3565b610d9183836114e5565b506004819592951015610e5057159384610e3a575b508315610db4575b50505090565b6000929350908291604051610ded816106b36020820194630b135d3f60e11b998a875260248401526040604484015260648301906102ed565b51915afa90610dfa6109f8565b82610e2c575b82610e10575b5050388080610dae565b9091506020818051810103126101125760200151143880610e06565b915060208251101591610e00565b6001600160a01b03838116911614935038610da6565b634e487b7160e01b600052602160045260246000fd5b90610ea6610ea182610e8a8560018060a01b03166000526003602052604060002090565b9060018060a01b0316600052602052604060002090565b611970565b9091506001600160d01b031615610f545765ffffffffffff80610ec84261148d565b16911614610f4257610f02610ef382610e8a8560018060a01b03166000526003602052604060002090565b610efc4261148d565b90611a3a565b5050610f0e8183610d30565b6001600160a01b0390811691167f1629cd9ad365627cf8408d19c50224af8f3213c1a18ae48062d92e22bddf7de5600080a3565b60405163291bf4b760e21b8152600490fd5b6040516334b09b3960e11b8152600490fd5b90600182018092116108e457565b90604051610f81816108ff565b915465ffffffffffff8116835260301c6020830152565b908154906000829160058411611028575b610fb4935084611681565b90811561101857610fd790610fc883610c13565b90600052602060002001610f74565b916110116110086110026020610ff3875165ffffffffffff1690565b9601516001600160d01b031690565b93610c13565b63ffffffff1690565b6001939291565b5050600090600090600090600090565b919261103381611541565b81039081116108e457610fb4938560005265ffffffffffff8083602060002001541690851610600014611067575091610fa9565b92915061107390610f66565b90610fa9565b9081602091031261011257610a6790610a28565b6040513d6000823e3d90fd5b6040516302910f8b60e31b8082526001600160a01b0383811660048401529293916020919082816024817f000000000000000000000000000000000000000000000000000000000000000089165afa90811561121b57600091611232575b5015611220576040519081526001600160a01b038316600482015281816024817f000000000000000000000000000000000000000000000000000000000000000088165afa91821561121b576000926111ee575b5050156111dc5761115c8184610883565b6111ca57806111946111858493610e8a8760018060a01b03166000526003602052604060002090565b61118e4261148d565b90611b4d565b50506111a08185610d30565b1691167f9b730d5b907ee509de729817a2bb37e404418ba569b3a50f36192372f973cb41600080a3565b60405163dcdeaba360e01b8152600490fd5b6040516321f5408d60e01b8152600490fd5b61120d9250803d10611214575b6112058183610974565b810190611079565b388061114b565b503d6111fb565b61108d565b604051630fb9ff9560e41b8152600490fd5b6112499150833d8511611214576112058183610974565b386110f7565b6040519061125c826108ff565b60006020838281520152565b61128d916112879161127861124f565b5061128161124f565b50611778565b50610f74565b65ffffffffffff81511690602060018060d01b0391015116604051916112b2836108ff565b8252602082015290565b60ff81146112cd57610a67906117a6565b50604051600080549060018260011c92600181169182156113b5575b6020916020861084146113a1578587528694936020860193929181156113825750600114611321575b505050610a6792500382610974565b92509361134f600080527f290decd9548b62a8d60345a988386fc84ba6bc95484008f6362f93160ef3e56390565b946000935b82851061136c57505050610a67935001388080611312565b8654858501529586019587955093810193611354565b92505050610a679491925060ff19168252151560051b01388080611312565b634e487b7160e01b85526022600452602485fd5b93607f16936112e9565b60ff81146113d057610a67906117a6565b506040516001805480821c91600091808216918215611483575b6020916020861084146113a157858752869493602086019392918115611382575060011461142157505050610a6792500382610974565b92509361145060016000527fb10e2d527612073b26eecdfd717e6a320cf44b4afac2b0732d9fcbe2b7fa0cf690565b946000935b82851061146d57505050610a67935001388080611312565b8654858501529586019587955093810193611455565b93607f16936113ea565b65ffffffffffff908181116114a0571690565b604490604051906306dfcc6560e41b8252603060048301526024820152fd5b6042906114ca6117d2565b906040519161190160f01b8352600283015260228201522090565b81519190604183036115165761150f92506020820151906060604084015193015160001a906118ec565b9192909190565b505060009160029190565b811561152b570490565b634e487b7160e01b600052601260045260246000fd5b801561167b578061161461160d6116036115f96115ef6115e56115db6115d16001610a679a6000908b60801c8061166f575b508060401c80611662575b508060201c80611655575b508060101c80611648575b508060081c8061163b575b508060041c8061162e575b508060021c80611621575b50821c61161a575b811c1b6115ca818b611521565b0160011c90565b6115ca818a611521565b6115ca8189611521565b6115ca8188611521565b6115ca8187611521565b6115ca8186611521565b6115ca8185611521565b8092611521565b906119c5565b81016115bd565b60029150910190386115b5565b60049150910190386115aa565b600891509101903861159f565b6010915091019038611594565b6020915091019038611589565b604091509101903861157e565b91505060809038611573565b50600090565b91905b8382106116915750505090565b909192808316906001818518811c83018093116108e45760008681526020902083015465ffffffffffff90811690851610156116d2575050925b9190611684565b9094935081018091116108e457916116cb565b908154906000829160058411611727575b611701935084611681565b8061170d575050600090565b61171690610c13565b906000526020600020015460301c90565b919261173281611541565b81039081116108e457611701938560005265ffffffffffff80836020600020015416908516106000146117665750916116f6565b92915061177290610f66565b906116f6565b80548210156117905760005260206000200190600090565b634e487b7160e01b600052603260045260246000fd5b60ff811690601f82116117c057604051916112b2836108ff565b604051632cd44ac360e21b8152600490fd5b307f00000000000000000000000000000000000000000000000000000000000000006001600160a01b031614806118c3575b1561182d577f000000000000000000000000000000000000000000000000000000000000000090565b60405160208101907f8b73c3c69bb8fe3d512ecc4cf759cc79239f7b179b0ffacaa9a75d522b39400f82527f000000000000000000000000000000000000000000000000000000000000000060408201527f000000000000000000000000000000000000000000000000000000000000000060608201524660808201523060a082015260a081526118bd8161093c565b51902090565b507f00000000000000000000000000000000000000000000000000000000000000004614611804565b91907f7fffffffffffffffffffffffffffffff5d576e7357a4501ddfe92f46681b20a0841161196457926020929160ff608095604051948552168484015260408301526060820152600092839182805260015afa1561121b5780516001600160a01b0381161561195b57918190565b50809160019190565b50505060009160039190565b805480611984575050600090600090600090565b6000199080828101116108e4576119a49260005260206000200101610f74565b9065ffffffffffff82511691602060018060d01b0391015116906001929190565b90808210156119d2575090565b905090565b80546801000000000000000081101561091b576119f991600182018155611778565b919091611a2457805160209091015160301b65ffffffffffff191665ffffffffffff91909116179055565b634e487b7160e01b600052600060045260246000fd5b8054908115611b2857611a64611a5f611a5284610c13565b8360005260206000200190565b610f74565b90611a75825165ffffffffffff1690565b65ffffffffffff8581169491168410611b1657611ae194602094611aa2610cfa865165ffffffffffff1690565b03611ae75750611ad391611ab8611ac592610c13565b9060005260206000200190565b65ffffffffffff8154169055565b01516001600160d01b031690565b90600090565b9050611b1191611b06611af8610996565b65ffffffffffff9093168352565b6000858301526119d7565b611ad3565b604051632520601d60e01b8152600490fd5b611b45929150611b39611af8610996565b600060208301526119d7565b600090600090565b8054908115611bf257611b65611a5f611a5284610c13565b90611b76825165ffffffffffff1690565b65ffffffffffff8581169491168410611b1657611bd094602094611ba3610cfa865165ffffffffffff1690565b03611bd65750611ad391611ab8611bb992610c13565b660100000000000065ffffffffffff825416179055565b90600190565b9050611b1191611be7611af8610996565b6001828601526119d7565b611c0f929150611c03611af8610996565b600160208301526119d7565b60009060019056fea26469706673582212203662aa43918b8f2f362be9487cbef6750274b09114d29a68f6047fb1a34cc4d764736f6c63430008190033","linkReferences":{}},"methodIdentifiers":{"WHERE_REGISTRY()":"6d0fae4a","WHO_REGISTRY()":"c4b5d62c","eip712Domain()":"84b0196e","increaseNonce(address)":"8247a97c","isOptedIn(address,address)":"220d32d4","isOptedInAt(address,address,uint48,bytes)":"530e1d43","nonces(address,address)":"9333fbda","optIn(address)":"b1138ad1","optIn(address,address,uint48,bytes)":"ced44ba7","optInHint(address,address,address,uint48)":"d4a63862","optInHintInternal(address,address,uint48)":"9a15d7a5","optOut(address)":"d4610483","optOut(address,address,uint48,bytes)":"93f79bc3","staticDelegateCall(address,bytes)":"9f86fd85"},"id":80}