{"abi":[{"type":"function","name":"nonces","inputs":[{"name":"who","type":"address","internalType":"address"},{"name":"where","type":"address","internalType":"address"}],"outputs":[{"name":"nonce","type":"uint256","internalType":"uint256"}],"stateMutability":"view"},{"type":"function","name":"optInHint","inputs":[{"name":"optInService","type":"address","internalType":"address"},{"name":"who","type":"address","internalType":"address"},{"name":"where","type":"address","internalType":"address"},{"name":"timestamp","type":"uint48","internalType":"uint48"}],"outputs":[{"name":"hint","type":"bytes","internalType":"bytes"}],"stateMutability":"view"},{"type":"function","name":"optInHintInternal","inputs":[{"name":"who","type":"address","internalType":"address"},{"name":"where","type":"address","internalType":"address"},{"name":"timestamp","type":"uint48","internalType":"uint48"}],"outputs":[{"name":"exists","type":"bool","internalType":"bool"},{"name":"hint","type":"uint32","internalType":"uint32"}],"stateMutability":"view"},{"type":"error","name":"ExternalCall","inputs":[]}],"bytecode":{"object":"0x60a08060405234602157306080526107bd908161002682396080518160820152f35b5f80fdfe6040608081526004361015610012575f80fd5b5f3560e01c9081639333fbda146101145781639a15d7a514610042575063d4a638621461003d575f80fd5b6101f6565b346101105760603660031901126101105761005b610167565b9061006461017d565b6044359265ffffffffffff84168403610110576001600160a01b03907f0000000000000000000000000000000000000000000000000000000000000000821633036100ff576100db926100fb95926100d692165f526001602052845f209060018060a01b03165f5260205260405f2090565b610438565b93519215158352505063ffffffff90911660208201529081906040820190565b0390f35b8351637ca475e560e11b8152600490fd5b5f80fd5b3461011057806003193601126101105760209061015f610132610167565b61013a61017d565b6001600160a01b039182165f9081528086528481209190921682526020526040902090565b549051908152f35b600435906001600160a01b038216820361011057565b602435906001600160a01b038216820361011057565b604435906001600160a01b038216820361011057565b6064359065ffffffffffff8216820361011057565b805180835260209291819084018484015e5f828201840152601f01601f1916010190565b9060206101f39281815201906101be565b90565b346101105760803660031901126101105761020f610167565b61021761017d565b90610220610193565b5f8061022a6101a9565b9365ffffffffffff60609560405197602096639a15d7a560e01b888b015260018060a01b0380921660248b01521660448901521660648701526064865261027086610354565b604051958661029d86820192639f86fd8560e01b84523060248401526040604484015260648301906101be565b03966102b1601f1998898101835282610375565b51915afa506102cf6102c1610578565b8280825183010191016105a7565b939015610332576102eb8483806100fb975183010191016103a4565b9290610301575b505050604051918291826101e2565b60405163ffffffff90931690830190815291925061032a91839060200103908101835282610375565b5f80806102f2565b508280519182156101105701fd5b634e487b7160e01b5f52604160045260245ffd5b60a0810190811067ffffffffffffffff82111761037057604052565b610340565b90601f8019910116810190811067ffffffffffffffff82111761037057604052565b5190811515820361011057565b91908260409103126101105760206103bb83610397565b92015163ffffffff811681036101105790565b634e487b7160e01b5f52601160045260245ffd5b5f198101919082116103f057565b6103ce565b90600182018092116103f057565b906040516040810181811067ffffffffffffffff82111761037057604052915465ffffffffffff8116835260301c6020830152565b8054915f928060058111610513575b50925b8381106104c657505081156104ba5761047461047991610469846103e2565b905f5260205f200190565b610403565b916104b36104aa6104a46020610495875165ffffffffffff1690565b9601516001600160d01b031690565b936103e2565b63ffffffff1690565b6001939291565b50505f905f905f905f90565b90928082169080831860011c82018092116103f057835f5265ffffffffffff808360205f20015416908616105f146105015750925b9061044a565b93915061050d906103f5565b906104fb565b9061051d82610637565b82039182116103f057835f5265ffffffffffff808360205f20015416908416105f1461054b57505b5f610447565b9350610556906103f5565b92610545565b67ffffffffffffffff811161037057601f01601f191660200190565b3d156105a2573d906105898261055c565b916105976040519384610375565b82523d5f602084013e565b606090565b9190604083820312610110576105bc83610397565b9260208101519067ffffffffffffffff8211610110570181601f82011215610110578051906105ea8261055c565b926105f86040519485610375565b8284526020838301011161011057815f9260208093018386015e8301015290565b8115610623570490565b634e487b7160e01b5f52601260045260245ffd5b801561077057806107096107026106f86106ee6106e46106da6106d06106c660016101f39a5f908b60801c80610764575b508060401c80610757575b508060201c8061074a575b508060101c8061073d575b508060081c80610730575b508060041c80610723575b508060021c80610716575b50821c61070f575b811c1b6106bf818b610619565b0160011c90565b6106bf818a610619565b6106bf8189610619565b6106bf8188610619565b6106bf8187610619565b6106bf8186610619565b6106bf8185610619565b8092610619565b90610775565b81016106b2565b600291509101905f6106aa565b600491509101905f61069f565b600891509101905f610694565b601091509101905f610689565b602091509101905f61067e565b604091509101905f610673565b9150506080905f610668565b505f90565b9080821015610782575090565b90509056fea2646970667358221220976f715b9ef541a6e6e98330ca7c279a9f21464d3cc86dae2b3f0e0e9eda881b64736f6c63430008190033","linkReferences":{}},"methodIdentifiers":{"nonces(address,address)":"9333fbda","optInHint(address,address,address,uint48)":"d4a63862","optInHintInternal(address,address,uint48)":"9a15d7a5"},"id":150}