{"abi":[{"type":"constructor","inputs":[{"name":"operatorRegistry","type":"address","internalType":"address"},{"name":"networkRegistry","type":"address","internalType":"address"},{"name":"vaultFactory","type":"address","internalType":"address"},{"name":"operatorVaultOptInService","type":"address","internalType":"address"},{"name":"operatorNetworkOptInService","type":"address","internalType":"address"},{"name":"delegatorFactory","type":"address","internalType":"address"},{"name":"entityType","type":"uint64","internalType":"uint64"}],"stateMutability":"nonpayable"},{"type":"function","name":"DEFAULT_ADMIN_ROLE","inputs":[],"outputs":[{"name":"","type":"bytes32","internalType":"bytes32"}],"stateMutability":"view"},{"type":"function","name":"FACTORY","inputs":[],"outputs":[{"name":"","type":"address","internalType":"address"}],"stateMutability":"view"},{"type":"function","name":"HOOK_GAS_LIMIT","inputs":[],"outputs":[{"name":"","type":"uint256","internalType":"uint256"}],"stateMutability":"view"},{"type":"function","name":"HOOK_RESERVE","inputs":[],"outputs":[{"name":"","type":"uint256","internalType":"uint256"}],"stateMutability":"view"},{"type":"function","name":"HOOK_SET_ROLE","inputs":[],"outputs":[{"name":"","type":"bytes32","internalType":"bytes32"}],"stateMutability":"view"},{"type":"function","name":"NETWORK_REGISTRY","inputs":[],"outputs":[{"name":"","type":"address","internalType":"address"}],"stateMutability":"view"},{"type":"function","name":"OPERATOR_NETWORK_OPT_IN_SERVICE","inputs":[],"outputs":[{"name":"","type":"address","internalType":"address"}],"stateMutability":"view"},{"type":"function","name":"OPERATOR_REGISTRY","inputs":[],"outputs":[{"name":"","type":"address","internalType":"address"}],"stateMutability":"view"},{"type":"function","name":"OPERATOR_VAULT_OPT_IN_SERVICE","inputs":[],"outputs":[{"name":"","type":"address","internalType":"address"}],"stateMutability":"view"},{"type":"function","name":"TYPE","inputs":[],"outputs":[{"name":"","type":"uint64","internalType":"uint64"}],"stateMutability":"view"},{"type":"function","name":"VAULT_FACTORY","inputs":[],"outputs":[{"name":"","type":"address","internalType":"address"}],"stateMutability":"view"},{"type":"function","name":"VERSION","inputs":[],"outputs":[{"name":"","type":"uint64","internalType":"uint64"}],"stateMutability":"pure"},{"type":"function","name":"getRoleAdmin","inputs":[{"name":"role","type":"bytes32","internalType":"bytes32"}],"outputs":[{"name":"","type":"bytes32","internalType":"bytes32"}],"stateMutability":"view"},{"type":"function","name":"grantRole","inputs":[{"name":"role","type":"bytes32","internalType":"bytes32"},{"name":"account","type":"address","internalType":"address"}],"outputs":[],"stateMutability":"nonpayable"},{"type":"function","name":"hasRole","inputs":[{"name":"role","type":"bytes32","internalType":"bytes32"},{"name":"account","type":"address","internalType":"address"}],"outputs":[{"name":"","type":"bool","internalType":"bool"}],"stateMutability":"view"},{"type":"function","name":"hook","inputs":[],"outputs":[{"name":"","type":"address","internalType":"address"}],"stateMutability":"view"},{"type":"function","name":"initialize","inputs":[{"name":"data","type":"bytes","internalType":"bytes"}],"outputs":[],"stateMutability":"nonpayable"},{"type":"function","name":"maxNetworkLimit","inputs":[{"name":"subnetwork","type":"bytes32","internalType":"bytes32"}],"outputs":[{"name":"value","type":"uint256","internalType":"uint256"}],"stateMutability":"view"},{"type":"function","name":"maxNetworkLimitAt","inputs":[{"name":"subnetwork","type":"bytes32","internalType":"bytes32"},{"name":"timestamp","type":"uint48","internalType":"uint48"},{"name":"hint","type":"bytes","internalType":"bytes"}],"outputs":[{"name":"","type":"uint256","internalType":"uint256"}],"stateMutability":"view"},{"type":"function","name":"network","inputs":[],"outputs":[{"name":"","type":"address","internalType":"address"}],"stateMutability":"view"},{"type":"function","name":"onSlash","inputs":[{"name":"subnetwork","type":"bytes32","internalType":"bytes32"},{"name":"operator","type":"address","internalType":"address"},{"name":"amount","type":"uint256","internalType":"uint256"},{"name":"captureTimestamp","type":"uint48","internalType":"uint48"},{"name":"data","type":"bytes","internalType":"bytes"}],"outputs":[],"stateMutability":"nonpayable"},{"type":"function","name":"operator","inputs":[],"outputs":[{"name":"","type":"address","internalType":"address"}],"stateMutability":"view"},{"type":"function","name":"renounceRole","inputs":[{"name":"role","type":"bytes32","internalType":"bytes32"},{"name":"callerConfirmation","type":"address","internalType":"address"}],"outputs":[],"stateMutability":"nonpayable"},{"type":"function","name":"revokeRole","inputs":[{"name":"role","type":"bytes32","internalType":"bytes32"},{"name":"account","type":"address","internalType":"address"}],"outputs":[],"stateMutability":"nonpayable"},{"type":"function","name":"setHook","inputs":[{"name":"hook_","type":"address","internalType":"address"}],"outputs":[],"stateMutability":"nonpayable"},{"type":"function","name":"setMaxNetworkLimit","inputs":[{"name":"identifier","type":"uint96","internalType":"uint96"},{"name":"amount","type":"uint256","internalType":"uint256"}],"outputs":[],"stateMutability":"nonpayable"},{"type":"function","name":"stake","inputs":[{"name":"subnetwork","type":"bytes32","internalType":"bytes32"},{"name":"operator","type":"address","internalType":"address"}],"outputs":[{"name":"","type":"uint256","internalType":"uint256"}],"stateMutability":"view"},{"type":"function","name":"stakeAt","inputs":[{"name":"subnetwork","type":"bytes32","internalType":"bytes32"},{"name":"operator","type":"address","internalType":"address"},{"name":"timestamp","type":"uint48","internalType":"uint48"},{"name":"hints","type":"bytes","internalType":"bytes"}],"outputs":[{"name":"","type":"uint256","internalType":"uint256"}],"stateMutability":"view"},{"type":"function","name":"staticDelegateCall","inputs":[{"name":"target","type":"address","internalType":"address"},{"name":"data","type":"bytes","internalType":"bytes"}],"outputs":[],"stateMutability":"nonpayable"},{"type":"function","name":"supportsInterface","inputs":[{"name":"interfaceId","type":"bytes4","internalType":"bytes4"}],"outputs":[{"name":"","type":"bool","internalType":"bool"}],"stateMutability":"view"},{"type":"function","name":"vault","inputs":[],"outputs":[{"name":"","type":"address","internalType":"address"}],"stateMutability":"view"},{"type":"event","name":"Initialized","inputs":[{"name":"version","type":"uint64","indexed":false,"internalType":"uint64"}],"anonymous":false},{"type":"event","name":"OnSlash","inputs":[{"name":"subnetwork","type":"bytes32","indexed":true,"internalType":"bytes32"},{"name":"operator","type":"address","indexed":true,"internalType":"address"},{"name":"amount","type":"uint256","indexed":false,"internalType":"uint256"},{"name":"captureTimestamp","type":"uint48","indexed":false,"internalType":"uint48"}],"anonymous":false},{"type":"event","name":"RoleAdminChanged","inputs":[{"name":"role","type":"bytes32","indexed":true,"internalType":"bytes32"},{"name":"previousAdminRole","type":"bytes32","indexed":true,"internalType":"bytes32"},{"name":"newAdminRole","type":"bytes32","indexed":true,"internalType":"bytes32"}],"anonymous":false},{"type":"event","name":"RoleGranted","inputs":[{"name":"role","type":"bytes32","indexed":true,"internalType":"bytes32"},{"name":"account","type":"address","indexed":true,"internalType":"address"},{"name":"sender","type":"address","indexed":true,"internalType":"address"}],"anonymous":false},{"type":"event","name":"RoleRevoked","inputs":[{"name":"role","type":"bytes32","indexed":true,"internalType":"bytes32"},{"name":"account","type":"address","indexed":true,"internalType":"address"},{"name":"sender","type":"address","indexed":true,"internalType":"address"}],"anonymous":false},{"type":"event","name":"SetHook","inputs":[{"name":"hook","type":"address","indexed":true,"internalType":"address"}],"anonymous":false},{"type":"event","name":"SetMaxNetworkLimit","inputs":[{"name":"subnetwork","type":"bytes32","indexed":true,"internalType":"bytes32"},{"name":"amount","type":"uint256","indexed":false,"internalType":"uint256"}],"anonymous":false},{"type":"error","name":"AccessControlBadConfirmation","inputs":[]},{"type":"error","name":"AccessControlUnauthorizedAccount","inputs":[{"name":"account","type":"address","internalType":"address"},{"name":"neededRole","type":"bytes32","internalType":"bytes32"}]},{"type":"error","name":"AlreadySet","inputs":[]},{"type":"error","name":"CheckpointUnorderedInsertion","inputs":[]},{"type":"error","name":"InsufficientHookGas","inputs":[]},{"type":"error","name":"InvalidInitialization","inputs":[]},{"type":"error","name":"InvalidNetwork","inputs":[]},{"type":"error","name":"NotInitialized","inputs":[]},{"type":"error","name":"NotInitializing","inputs":[]},{"type":"error","name":"NotNetwork","inputs":[]},{"type":"error","name":"NotOperator","inputs":[]},{"type":"error","name":"NotSlasher","inputs":[]},{"type":"error","name":"NotVault","inputs":[]},{"type":"error","name":"ReentrancyGuardReentrantCall","inputs":[]},{"type":"error","name":"SafeCastOverflowedUintDowncast","inputs":[{"name":"bits","type":"uint8","internalType":"uint8"},{"name":"value","type":"uint256","internalType":"uint256"}]}],"bytecode":{"object":"0x610160346101c9576001600160401b0390601f61288338819003918201601f191683019190848311848410176101ce578160e092859260409586528339810103126101c95761004d826101e4565b9061005a602084016101e4565b6100658285016101e4565b90610072606086016101e4565b9561007f608087016101e4565b9560c061008e60a083016101e4565b9101519180831683036101c9577ff0c57e16840df040f15088dc2f81fe391c3923bec73e23a9662efc9c229c6a009081549060ff82891c166101b8578080831603610174575b50505060805260a05260c05260e052610100938452610120928352610140918252519161268a93846101f985396080518461050f015260a05184610c21015260c05184818161038401528181610c5b01526120f5015260e0518481816102780152611a510152518381816102bd0152818161127801526113c2015251828181610302015281816111dd0152611442015251818181610a97015261216f0152f35b6001600160401b0319909116811790915585519081527fc7f505b2f371ae2175ee4913f4499e1f2633a7b5936321eed1cdaeb6115181d290602090a13880806100d4565b875163f92ee8a960e01b8152600490fd5b600080fd5b634e487b7160e01b600052604160045260246000fd5b51906001600160a01b03821682036101c95756fe6080604052600436101561001257600080fd5b60003560e01c806301ffc9a714610207578063103f290714610202578063128e5d82146101fd5780631a80e500146101f857806323f752d5146101f3578063248a9ca3146101ee5780632dd31000146101e95780632f2ff15d146101e457806336568abe146101df5780633dfd3873146101da578063437224a3146101d5578063439fab91146101d0578063557cab44146101cb578063570ca735146101c65780636679191e146101c15780636739afca146101bc5780637f5a7c7b146101b757806383ce0322146101b257806391d14854146101ad5780639f86fd85146101a8578063a217fddf146101a3578063bb24fe8a1461019e578063c0cd7c3e14610199578063d15b740e14610194578063d547741f1461018f578063e02f69371461018a578063e49561ee14610185578063fbfa77cf14610180578063fd4d447c1461017b578063ff54740f146101765763ffa1ad741461017157600080fd5b610fc5565b610fa7565b610f7d565b610f54565b610d64565b610d05565b610cb6565b610c8a565b610c45565b610c01565b610be5565b610b29565b610ac6565b610a81565b610a58565b610a2f565b6109f4565b6109cb565b6109ae565b610872565b6107e0565b6105e9565b61059e565b61054f565b6104f9565b6104bd565b610331565b6102ec565b6102a7565b610262565b3461025d57602036600319011261025d5760043563ffffffff60e01b811680910361025d57602090637965db0b60e01b811490811561024c575b506040519015158152f35b6301ffc9a760e01b14905038610241565b600080fd5b3461025d57600036600319011261025d576040517f00000000000000000000000000000000000000000000000000000000000000006001600160a01b03168152602090f35b3461025d57600036600319011261025d576040517f00000000000000000000000000000000000000000000000000000000000000006001600160a01b03168152602090f35b3461025d57600036600319011261025d576040517f00000000000000000000000000000000000000000000000000000000000000006001600160a01b03168152602090f35b3461025d57604036600319011261025d576004356001600160601b038116810361025d57602435906103616114b8565b6040516302910f8b60e31b81523360048201526020816024816001600160a01b037f0000000000000000000000000000000000000000000000000000000000000000165afa9081156104b857600091610489575b5015610477576001600160601b03166bffffffffffffffffffffffff193360601b161790806103ee836000526002602052604060002090565b541461046557610449817fc67e7929681aa1bccd63f52b3799bf5805f3009f197db6fdf584b14f7fbf608c9261042e856000526002602052604060002090565b5561043981856114e8565b6040519081529081906020820190565b0390a2610463600160008051602061261583398151915255565b005b60405163a741a04560e01b8152600490fd5b6040516323d53b9760e21b8152600490fd5b6104ab915060203d6020116104b1575b6104a3818361074e565b810190610fe1565b386103b5565b503d610499565b610ff9565b3461025d57602036600319011261025d576004356000526000805160206125f58339815191526020526020600160406000200154604051908152f35b3461025d57600036600319011261025d576040517f00000000000000000000000000000000000000000000000000000000000000006001600160a01b03168152602090f35b6001600160a01b0381160361025d57565b3461025d57604036600319011261025d576104636024356004356105728261053e565b806000526000805160206125f5833981519152602052610599600160406000200154611630565b6117f1565b3461025d57604036600319011261025d576024356105bb8161053e565b336001600160a01b038216036105d7576104639060043561182b565b60405163334bd91960e11b8152600490fd5b3461025d57602036600319011261025d576004356106068161053e565b61060e6114b8565b3360009081527f9ebbcbe0d2961d3fbe56ca6f679bc753bd848d3e6bb3eaf9041c51b286881d2c60205260408120549091907fd1c1f6fa6bf27d54c5e54c7c1dc6e5004d3c027ea1994fe68b29c1b51b69c36c9060ff16156106ca57506001546001600160a01b039182169181168214610465576001600160a01b03191681176001557f5bbb1d3ebb6a3ad2a0f17ff35e579a83af60604d1d3c2a4c83c62adecadf666d8280a260016000805160206126158339815191525580f35b6044906040519063e2517d3f60e01b82523360048301526024820152fd5b6064359065ffffffffffff8216820361025d57565b634e487b7160e01b600052604160045260246000fd5b604081019081106001600160401b0382111761072e57604052565b6106fd565b606081019081106001600160401b0382111761072e57604052565b90601f801991011681019081106001600160401b0382111761072e57604052565b6040519061077c82610713565b565b6001600160401b03811161072e57601f01601f191660200190565b81601f8201121561025d578035906107b08261077e565b926107be604051948561074e565b8284526020838301011161025d57816000926020809301838601378301015290565b3461025d57606036600319011261025d5760243565ffffffffffff8116810361025d576044356001600160401b03811161025d5760209161082861083d923690600401610799565b90600435600052600384526040600020611903565b604051908152f35b9181601f8401121561025d578235916001600160401b03831161025d576020838186019501011161025d57565b3461025d57602036600319011261025d576001600160401b0360043581811161025d576108a3903690600401610845565b600080516020612635833981519152549260ff8460401c16159316801590816109a6575b600114908161099c575b159081610993575b5061098157600080516020612635833981519152805467ffffffffffffffff1916600117905561090d918361095c57611a1c565b61091357005b600080516020612635833981519152805460ff60401b19169055604051600181527fc7f505b2f371ae2175ee4913f4499e1f2633a7b5936321eed1cdaeb6115181d290602090a1005b600080516020612635833981519152805460ff60401b1916600160401b179055611a1c565b60405163f92ee8a960e01b8152600490fd5b905015386108d9565b303b1591506108d1565b8491506108c7565b3461025d57600036600319011261025d576020604051614e208152f35b3461025d57600036600319011261025d576005546040516001600160a01b039091168152602090f35b3461025d57600036600319011261025d5760206040517fd1c1f6fa6bf27d54c5e54c7c1dc6e5004d3c027ea1994fe68b29c1b51b69c36c8152f35b3461025d57600036600319011261025d576004546040516001600160a01b039091168152602090f35b3461025d57600036600319011261025d576001546040516001600160a01b039091168152602090f35b3461025d57600036600319011261025d576040517f00000000000000000000000000000000000000000000000000000000000000006001600160a01b03168152602090f35b3461025d57604036600319011261025d57602060ff610b1d602435610aea8161053e565b6004356000526000805160206125f5833981519152845260406000209060018060a01b0316600052602052604060002090565b54166040519015158152f35b3461025d5760408060031936011261025d57600435610b478161053e565b602435906001600160401b03821161025d5760008091610b6e610bd3943690600401610845565b908187519283928337810184815203915af43d15610bdb57610bc53d610b938161077e565b90610ba08651928361074e565b81523d6000602083013e5b845194859315156020850152808401526060830190611043565b03601f19810183528261074e565b805190602001fd5b610bc56060610bab565b3461025d57600036600319011261025d57602060405160008152f35b3461025d57600036600319011261025d5760206040516001600160401b037f0000000000000000000000000000000000000000000000000000000000000000168152f35b3461025d57600036600319011261025d576040517f00000000000000000000000000000000000000000000000000000000000000006001600160a01b03168152602090f35b3461025d57602036600319011261025d5760043560005260026020526020604060002054604051908152f35b3461025d57604036600319011261025d57610463602435600435610cd98261053e565b806000526000805160206125f5833981519152602052610d00600160406000200154611630565b61182b565b3461025d57608036600319011261025d57602435610d228161053e565b6044359065ffffffffffff8216820361025d57606435906001600160401b03821161025d57602092610d5b61083d933690600401610799565b91600435611166565b3461025d5760a036600319011261025d57602435600435610d848261053e565b60443590610d906106e8565b6084356001600160401b03811161025d57610db060049136908301610799565b94610db96114b8565b6000956020610de0610dd4610dd48a5460018060a01b031690565b6001600160a01b031690565b60405163b134427160e01b815294859182905afa9283156104b8578793610f23575b506001600160a01b039283163303610f11576001546001600160a01b0316838116610e86575b50506040805195865265ffffffffffff909316602086015216927f741a5de99085c0d660f3e4192217b0ffb0ea4e35a0480de48e857a4bc3ee36ed91819081015b0390a3610e83600160008051602061261583398151915255565b80f35b909360405194610ebd86610eaf602082019363724ab0f760e11b8552858c898d60248701611309565b03601f19810188528761074e565b62042e305a10610eff5788610e69938192827f741a5de99085c0d660f3e4192217b0ffb0ea4e35a0480de48e857a4bc3ee36ed9951926203d090f15093610e28565b604051638072475160e01b8152600490fd5b60405163dabc4ad960e01b8152600490fd5b610f4691935060203d602011610f4d575b610f3e818361074e565b8101906112f4565b9138610e02565b503d610f34565b3461025d57600036600319011261025d576000546040516001600160a01b039091168152602090f35b3461025d57604036600319011261025d57602061083d602435610f9f8161053e565b60043561138a565b3461025d57600036600319011261025d5760206040516203d0908152f35b3461025d57600036600319011261025d57602060405160018152f35b9081602091031261025d5751801515810361025d5790565b6040513d6000823e3d90fd5b9061101d929160005260036020526040600020611903565b90565b60005b8381106110335750506000910152565b8181015183820152602001611023565b9060209161105c81518092818552858086019101611020565b601f01601f1916010190565b6040519061107582610713565b60606020838281520152565b81601f8201121561025d5780516110978161077e565b926110a5604051948561074e565b8184526020828401011161025d5761101d9160208085019101611020565b9060208282031261025d5781516001600160401b039283821161025d57019060408282031261025d57604051926110f984610713565b825181811161025d578261110e918501611081565b8452602083015190811161025d576111269201611081565b602082015290565b6001600160a01b0391821681529116602082015265ffffffffffff909116604082015260806060820181905261101d92910190611043565b9261117690929192828486611c32565b929093611181611068565b938051806112d8575b50508415938415611240575b84156111ae575b505050506111a85790565b50600090565b6020809495506111d9910151604051958694859463530e1d4360e01b865260601c906004860161112e565b03817f00000000000000000000000000000000000000000000000000000000000000006001600160a01b03165afa9081156104b857600091611221575b50153880808061119d565b61123a915060203d6020116104b1576104a3818361074e565b38611216565b6000549094506001600160a01b0316602084865192611274604051948593849363530e1d4360e01b8552896004860161112e565b03817f00000000000000000000000000000000000000000000000000000000000000006001600160a01b03165afa9081156104b8576000916112b9575b501593611196565b6112d2915060203d6020116104b1576104a3818361074e565b386112b1565b6112ec9295506020809183010191016110c3565b92388061118a565b9081602091031261025d575161101d8161053e565b919360a09361101d969565ffffffffffff938552600180871b0316602085015260408401521660608201528160808201520190611043565b634e487b7160e01b600052601160045260246000fd5b8115611361570490565b634e487b7160e01b600052601260045260246000fd5b906001820180921161138557565b611341565b6000546040516308834cb560e21b8082526001600160a01b0385811660048401529283166024830152929392602092909183816044817f000000000000000000000000000000000000000000000000000000000000000086165afa9081156104b85760009161149b575b5015918215611416575b5050905061140f5761101d91611d54565b5050600090565b6040519081526001600160a01b0385166004820152606086901c602482015291508290829060449082907f0000000000000000000000000000000000000000000000000000000000000000165afa9182156104b85760009261147e575b5050158038806113fe565b6114949250803d106104b1576104a3818361074e565b3880611473565b6114b29150843d86116104b1576104a3818361074e565b386113f4565b60008051602061261583398151915260028154146114d65760029055565b604051633ee5aeb560e01b8152600490fd5b6004549091906001600160a01b0316606083901c0361161e57600091825260036020526040822065ffffffffffff928342116115ff578342169160018101928354156115f1575b6115388261225b565b5096855494845480156000146115d15750975b6001600160d01b0398808a16156115cb576115669088611e1a565b50505b826115bf575b5050156115a957505061077c93509061158a611590926118df565b90611e1a565b90919082549060031b91821b91600019901b1916179055565b61077c956115b893169161233d565b5050611e76565b1682149050388061156f565b50611569565b600019918183810111611385578087602092522001015460301c9761154b565b6115fa84611e48565b61152f565b6040516306dfcc6560e41b815260306004820152426024820152604490fd5b6040516386eab41b60e01b8152600490fd5b60008181526000805160206125f58339815191526020908152604080832033845290915290205460ff16156106ca5750565b6001600160a01b03811660009081527fb7db2dd08fcb62d0c9e08c51941cae53c267786a0b75803fb7960902fc8ef97d60205260408120546000805160206125f58339815191529060ff1661171157818052602090815260408083206001600160a01b038516600090815292529020805460ff1916600117905533916001600160a01b0316907f2f8788117e7eff1d82e926ec794901d17c78024a50270940304540a733656f0d8180a4600190565b50905090565b6001600160a01b03811660009081527f9ebbcbe0d2961d3fbe56ca6f679bc753bd848d3e6bb3eaf9041c51b286881d2c602052604081207fd1c1f6fa6bf27d54c5e54c7c1dc6e5004d3c027ea1994fe68b29c1b51b69c36c906000805160206125f58339815191529060ff905b54166117ea57818352602090815260408084206001600160a01b038616600090815292529020805460ff1916600117905533926001600160a01b0316917f2f8788117e7eff1d82e926ec794901d17c78024a50270940304540a733656f0d9080a4600190565b5050905090565b60008181526000805160206125f5833981519152602081815260408084206001600160a01b0387168552909152822091929160ff90611784565b60008181526000805160206125f5833981519152602081815260408084206001600160a01b038716855290915282205491929160ff16156117ea57818352602090815260408084206001600160a01b038616600090815292529020805460ff1916905533926001600160a01b0316917ff6391f5c32d9c69d2a47ea670b442974b53935d1edc7fd64eb21e047a839171b9080a4600190565b9081602091031261025d575163ffffffff8116810361025d5790565b60001981019190821161138557565b90600163ffffffff8093160191821161138557565b918051156119dc578060208061191e935183010191016118c3565b916119298382611f7b565b9261193a845165ffffffffffff1690565b9065ffffffffffff80851692168281146119d05782119182611970575b50506119675761101d9250611e99565b50506020015190565b90915061197d83546118df565b63ffffffff831614918215611996575b50503880611957565b6119c89192506119b16119ab6119bd926118ee565b85611f7b565b5165ffffffffffff1690565b65ffffffffffff1690565b11388061198d565b50505050506020015190565b5061101d91611e99565b91909160408184031261025d5780356119fe8161053e565b9260208201356001600160401b03811161025d5761101d9201610799565b611a28918101906119e6565b6040516302910f8b60e31b81526001600160a01b039283166004820181905291906020816024817f000000000000000000000000000000000000000000000000000000000000000088165afa9081156104b857600091611b3e575b5015611b2c57611ac0604091611abb611b0694611a9e611fe3565b60018060a01b03166001600160601b0360a01b6000541617600055565b6120a8565b6020810151600180546001600160a01b0319166001600160a01b0390921691909117905580516001600160a01b0316848116611b1c575b5001516001600160a01b031690565b908116611b105750565b611b1990611717565b50565b611b2590611662565b5038611af7565b6040516362df054560e01b8152600490fd5b611b57915060203d6020116104b1576104a3818361074e565b38611a83565b60405190611b6a82610733565b60606040838281528260208201520152565b9060208282031261025d5781516001600160401b039283821161025d57019060608282031261025d5760405192611bb284610733565b825181811161025d5782611bc7918501611081565b8452602083015181811161025d5782611be1918501611081565b6020850152604083015190811161025d57611bfc9201611081565b604082015290565b9081602091031261025d575190565b60409065ffffffffffff61101d94931681528160208201520190611043565b90939293611c3e611b5d565b94805180611d38575b5050600454606083901c6001600160a01b03918216148015929190611d1d575b5050611d1457600054611cae929190602090611c8d90610dd4906001600160a01b031681565b8187015190604051808097819463810da75d60e01b83528860048401611c13565b03915afa9081156104b857611cdc93600092611ce1575b50611cd69192604087015191611005565b90612225565b915190565b611cd69250611d079060203d602011611d0d575b611cff818361074e565b810190611c04565b91611cc5565b503d611cf5565b50509051600091565b60055481166001600160a01b03169116141590503880611c67565b611d4c929650602080918301019101611b7c565b933880611c47565b6004549091606083901c6001600160a01b039283161480159290611dff575b50506111a85760005460049190602090611d9790610dd4906001600160a01b031681565b60405163bd49c35f60e01b815293849182905afa9081156104b85761101d92600092611dda575b50611dd3906000526002602052604060002090565b5490612225565b611dd3919250611df89060203d602011611d0d57611cff818361074e565b9190611dbe565b60055481166001600160a01b03169116141590503880611d73565b8054821015611e325760005260206000200190600090565b634e487b7160e01b600052603260045260246000fd5b8054600160401b81101561072e57611e6591600182018155611e1a565b8154906000199060031b1b19169055565b90815491600160401b83101561072e578261159091600161077c95018155611e1a565b908154906000829160058411611f11575b611eb5935084612593565b80611ee857506000905b6001600160d01b0382161561140f5761101d916001611ede9201611e1a565b90549060031b1c90565b611f04611ef7611f0b926118df565b8360005260206000200190565b5460301c90565b90611ebf565b9192611f1c8161245f565b810390811161138557611eb5938560005265ffffffffffff8083602060002001541690851610600014611f50575091611eaa565b929150611f5c90611377565b90611eaa565b60405190611f6f82610713565b60006020838281520152565b90611fa4611f9e611fc592611f8e611f62565b50611f97611f62565b5084611e1a565b50612237565b91600165ffffffffffff845116936020828060d01b03910151169101611e1a565b90549060405192611fd584610713565b835260031b1c602082015290565b611feb6122b0565b611ff36122b0565b600160008051602061261583398151915255565b6040519061201482610733565b60006040838281528260208201520152565b8091039060a0821261025d5760606040519261204184610733565b1261025d5760809060405161205581610733565b81516120608161053e565b815260208201516120708161053e565b602082015260408201516120838161053e565b6040820152835260608101516120988161053e565b60208401520151611bfc8161053e565b6120b0612007565b506120c681519160208080948301019101612026565b80820180516040516302910f8b60e31b8082526001600160a01b039283166004830152939491939082816024817f000000000000000000000000000000000000000000000000000000000000000089165afa9081156104b857600091612208575b5015610477578161216b916040870195612147875160018060a01b031690565b6040519283526001600160a01b031660048301529092839190829081906024820190565b03917f0000000000000000000000000000000000000000000000000000000000000000165afa9182156104b8576000926121eb575b5050156121d95751600480546001600160a01b039283166001600160a01b03199182161790915591516005805490931691161790555190565b604051631f0853c160e21b8152600490fd5b6122019250803d106104b1576104a3818361074e565b38806121a0565b61221f9150833d85116104b1576104a3818361074e565b38612127565b9080821015612232575090565b905090565b9060405161224481610713565b915465ffffffffffff8116835260301c6020830152565b80548061226f575050600090600090600090565b6000199080828101116113855761228f9260005260206000200101612237565b9065ffffffffffff82511691602060018060d01b0391015116906001929190565b60ff6000805160206126358339815191525460401c16156122cd57565b604051631afcd79f60e31b8152600490fd5b8054600160401b81101561072e576122fc91600182018155611e1a565b61232757815160209092015160301b65ffffffffffff191665ffffffffffff92909216919091179055565b634e487b7160e01b600052600060045260246000fd5b8054929392919082156124355761235e612359611ef7856118df565b612237565b9061236f825165ffffffffffff1690565b65ffffffffffff84811691168110612423576123e794602094889261239d6119bd875165ffffffffffff1690565b036123eb57506123d9926123b36123c0926118df565b9060005260206000200190565b9065ffffffffffff82549181199060301b169116179055565b01516001600160d01b031690565b9190565b91505061241e9161240b6123fd61076f565b65ffffffffffff9093168352565b6001600160d01b038816828601526122df565b6123d9565b604051632520601d60e01b8152600490fd5b61245992506124456123fd61076f565b6001600160d01b03851660208301526122df565b60009190565b80156111a85780611cd661252b61252161251761250d6125036124f96124ef600161101d9a6000908b60801c80612587575b508060401c8061257a575b508060201c8061256d575b508060101c80612560575b508060081c80612553575b508060041c80612546575b508060021c80612539575b50821c612532575b811c1b6124e8818b611357565b0160011c90565b6124e8818a611357565b6124e88189611357565b6124e88188611357565b6124e88187611357565b6124e88186611357565b6124e88185611357565b8092611357565b81016124db565b60029150910190386124d3565b60049150910190386124c8565b60089150910190386124bd565b60109150910190386124b2565b60209150910190386124a7565b604091509101903861249c565b91505060809038612491565b91905b8382106125a35750505090565b9091928083169080841860011c82018092116113855760008581526020902082015465ffffffffffff90811690841610156125e25750925b9190612596565b9392506125ee90611377565b916125db56fe02dd7bc7dec4dceedda775e58dd541e08a116c6c53815c0bd028192f7b6268009b779b17422d0df92223018b32b4d1fa46e071723d6817e2486d003becc55f00f0c57e16840df040f15088dc2f81fe391c3923bec73e23a9662efc9c229c6a00a2646970667358221220c5246b437ecfda6d7e04f6ec3aed9621c68b67e4dc3effa25d1c1c1c23b2922664736f6c63430008190033","linkReferences":{}},"methodIdentifiers":{"DEFAULT_ADMIN_ROLE()":"a217fddf","FACTORY()":"2dd31000","HOOK_GAS_LIMIT()":"ff54740f","HOOK_RESERVE()":"557cab44","HOOK_SET_ROLE()":"6679191e","NETWORK_REGISTRY()":"c0cd7c3e","OPERATOR_NETWORK_OPT_IN_SERVICE()":"1a80e500","OPERATOR_REGISTRY()":"83ce0322","OPERATOR_VAULT_OPT_IN_SERVICE()":"128e5d82","TYPE()":"bb24fe8a","VAULT_FACTORY()":"103f2907","VERSION()":"ffa1ad74","getRoleAdmin(bytes32)":"248a9ca3","grantRole(bytes32,address)":"2f2ff15d","hasRole(bytes32,address)":"91d14854","hook()":"7f5a7c7b","initialize(bytes)":"439fab91","maxNetworkLimit(bytes32)":"d15b740e","maxNetworkLimitAt(bytes32,uint48,bytes)":"437224a3","network()":"6739afca","onSlash(bytes32,address,uint256,uint48,bytes)":"e49561ee","operator()":"570ca735","renounceRole(bytes32,address)":"36568abe","revokeRole(bytes32,address)":"d547741f","setHook(address)":"3dfd3873","setMaxNetworkLimit(uint96,uint256)":"23f752d5","stake(bytes32,address)":"fd4d447c","stakeAt(bytes32,address,uint48,bytes)":"e02f6937","staticDelegateCall(address,bytes)":"9f86fd85","supportsInterface(bytes4)":"01ffc9a7","vault()":"fbfa77cf"},"id":77}