{"abi":[{"type":"constructor","inputs":[{"name":"chainId_","type":"uint256","internalType":"uint256"}],"stateMutability":"nonpayable"},{"type":"function","name":"DOMAIN_SEPARATOR","inputs":[],"outputs":[{"name":"","type":"bytes32","internalType":"bytes32"}],"stateMutability":"view"},{"type":"function","name":"PERMIT_TYPEHASH","inputs":[],"outputs":[{"name":"","type":"bytes32","internalType":"bytes32"}],"stateMutability":"view"},{"type":"function","name":"allowance","inputs":[{"name":"owner","type":"address","internalType":"address"},{"name":"spender","type":"address","internalType":"address"}],"outputs":[{"name":"","type":"uint256","internalType":"uint256"}],"stateMutability":"view"},{"type":"function","name":"approve","inputs":[{"name":"spender","type":"address","internalType":"address"},{"name":"value","type":"uint256","internalType":"uint256"}],"outputs":[{"name":"","type":"bool","internalType":"bool"}],"stateMutability":"nonpayable"},{"type":"function","name":"balanceOf","inputs":[{"name":"account","type":"address","internalType":"address"}],"outputs":[{"name":"","type":"uint256","internalType":"uint256"}],"stateMutability":"view"},{"type":"function","name":"decimals","inputs":[],"outputs":[{"name":"","type":"uint8","internalType":"uint8"}],"stateMutability":"view"},{"type":"function","name":"name","inputs":[],"outputs":[{"name":"","type":"string","internalType":"string"}],"stateMutability":"view"},{"type":"function","name":"name_","inputs":[],"outputs":[{"name":"","type":"string","internalType":"string"}],"stateMutability":"view"},{"type":"function","name":"nonces","inputs":[{"name":"","type":"address","internalType":"address"}],"outputs":[{"name":"","type":"uint256","internalType":"uint256"}],"stateMutability":"view"},{"type":"function","name":"permit","inputs":[{"name":"holder","type":"address","internalType":"address"},{"name":"spender","type":"address","internalType":"address"},{"name":"nonce","type":"uint256","internalType":"uint256"},{"name":"expiry","type":"uint256","internalType":"uint256"},{"name":"allowed","type":"bool","internalType":"bool"},{"name":"v","type":"uint8","internalType":"uint8"},{"name":"r","type":"bytes32","internalType":"bytes32"},{"name":"s","type":"bytes32","internalType":"bytes32"}],"outputs":[],"stateMutability":"nonpayable"},{"type":"function","name":"symbol","inputs":[],"outputs":[{"name":"","type":"string","internalType":"string"}],"stateMutability":"view"},{"type":"function","name":"symbol_","inputs":[],"outputs":[{"name":"","type":"string","internalType":"string"}],"stateMutability":"view"},{"type":"function","name":"totalSupply","inputs":[],"outputs":[{"name":"","type":"uint256","internalType":"uint256"}],"stateMutability":"view"},{"type":"function","name":"transfer","inputs":[{"name":"to","type":"address","internalType":"address"},{"name":"value","type":"uint256","internalType":"uint256"}],"outputs":[{"name":"","type":"bool","internalType":"bool"}],"stateMutability":"nonpayable"},{"type":"function","name":"transferFrom","inputs":[{"name":"from","type":"address","internalType":"address"},{"name":"to","type":"address","internalType":"address"},{"name":"value","type":"uint256","internalType":"uint256"}],"outputs":[{"name":"","type":"bool","internalType":"bool"}],"stateMutability":"nonpayable"},{"type":"function","name":"verifyingContract_","inputs":[],"outputs":[{"name":"","type":"address","internalType":"address"}],"stateMutability":"view"},{"type":"function","name":"version","inputs":[],"outputs":[{"name":"","type":"string","internalType":"string"}],"stateMutability":"view"},{"type":"event","name":"Approval","inputs":[{"name":"owner","type":"address","indexed":true,"internalType":"address"},{"name":"spender","type":"address","indexed":true,"internalType":"address"},{"name":"value","type":"uint256","indexed":false,"internalType":"uint256"}],"anonymous":false},{"type":"event","name":"Transfer","inputs":[{"name":"from","type":"address","indexed":true,"internalType":"address"},{"name":"to","type":"address","indexed":true,"internalType":"address"},{"name":"value","type":"uint256","indexed":false,"internalType":"uint256"}],"anonymous":false},{"type":"error","name":"ERC20InsufficientAllowance","inputs":[{"name":"spender","type":"address","internalType":"address"},{"name":"allowance","type":"uint256","internalType":"uint256"},{"name":"needed","type":"uint256","internalType":"uint256"}]},{"type":"error","name":"ERC20InsufficientBalance","inputs":[{"name":"sender","type":"address","internalType":"address"},{"name":"balance","type":"uint256","internalType":"uint256"},{"name":"needed","type":"uint256","internalType":"uint256"}]},{"type":"error","name":"ERC20InvalidApprover","inputs":[{"name":"approver","type":"address","internalType":"address"}]},{"type":"error","name":"ERC20InvalidReceiver","inputs":[{"name":"receiver","type":"address","internalType":"address"}]},{"type":"error","name":"ERC20InvalidSender","inputs":[{"name":"sender","type":"address","internalType":"address"}]},{"type":"error","name":"ERC20InvalidSpender","inputs":[{"name":"spender","type":"address","internalType":"address"}]}],"bytecode":{"object":"0x608034610468576001600160401b0390601f90601f1961102838819003808501831684019291908484108785111761036d578085926040958652833960209485918101031261046857518251946100558661046d565b600e86526d2230b49029ba30b13632b1b7b4b760911b90818688015284519061007d8261046d565b6003908183526244414960e81b8884015288518a811161036d57825460019a8b82811c9216801561045e575b8b8310146104485781848493116103f7575b508a9084831160011461038e57600092610383575b505060001982851b1c1916908a1b1782555b8251928a841161036d5760049687548b81811c91168015610363575b8b82101461034e579081848796959493116102f7575b508a9285116001146102945750600093610289575b505082891b92600019911b1c19161783555b33156102725760025469d3c21bcecceda10000009081810180911161025d5790600e9291600255336000526000875285600020818154019055855190815260007fddf252ad1be2c89b69c2b068fc378daa952ba7f163c4a11628f55a4df523b3ef883393a38585516101ac8161046d565b8381520190815220948484516101c18161046d565b82815201603160f81b8152208351948501957f8b73c3c69bb8fe3d512ecc4cf759cc79239f7b179b0ffacaa9a75d522b39400f87528486015260608501526080840152736b175474e89094c44da98b954eedeac495271d0f60a084015260a0835260c0830194838610908611176102485750839052519020600555610b9f90816104898239f35b604190634e487b7160e01b6000525260246000fd5b601185634e487b7160e01b6000525260246000fd5b835163ec442f0560e01b8152600081850152602490fd5b015191503880610129565b8b95939291931692886000528a6000209360005b8c8282106102e157505085116102c7575b50505050811b01835561013b565b01519060f884600019921b161c19169055388080806102b9565b8385015187558e989096019593840193016102a8565b909192939450886000528a6000208480880160051c8201928d8910610345575b918e91899897969594930160051c01915b828110610336575050610114565b600081558897508e9101610328565b92508192610317565b602289634e487b7160e01b6000525260246000fd5b90607f16906100fe565b634e487b7160e01b600052604160045260246000fd5b0151905038806100d0565b90898d941691866000528c600020928d6000905b8282106103d757505084116103bf575b505050811b0182556100e2565b015160001983871b60f8161c191690553880806103b2565b91929395968291958786015181550195019301908e95949392918e6103a2565b909150846000528a6000208480850160051c8201928d861061043f575b918e91869594930160051c01915b8281106104305750506100bb565b600081558594508e9101610422565b92508192610414565b634e487b7160e01b600052602260045260246000fd5b91607f16916100a9565b600080fd5b604081019081106001600160401b0382111761036d5760405256fe608060408181526004918236101561001657600080fd5b600092833560e01c91826306fdde031461083557508163095ea7b31461080b57816318160ddd146107ec57816323b872dd146106f5578163249a9cda146106c657816330adf81f1461068b578163313ce5671461066f5781633644e5151461065057816354fd4d501461061757816370a08231146105e05781637ecebe00146105a85781638fcbaf0c146102df57816395d89b41146101de57508063a9059cbb146101ae578063af17dea614610174578063dd62ed3e1461012c5763e2b9e186146100e057600080fd5b346101285781600319360112610128578051610124916100ff826109a4565b600e82526d2230b49029ba30b13632b1b7b4b760911b6020830152519182918261092a565b0390f35b5080fd5b503461012857806003193601126101285780602092610149610973565b61015161098e565b6001600160a01b0391821683526001865283832091168252845220549051908152f35b5034610128578160031936011261012857805161012491610194826109a4565b600382526244414960e81b6020830152519182918261092a565b50346101285780600319360112610128576020906101d76101cd610973565b60243590336109f8565b5160018152f35b83833461012857816003193601126101285780519180938054916001908360011c92600185169485156102d5575b60209586861081146102c25785895290811561029e5750600114610246575b610124878761023c828c03836109d6565b519182918261092a565b81529295507f8a35acfbc15ff81a39ae7d344fd709f28e8600b4aa8c65c6b64bfe7fe36bd19b5b82841061028b57505050826101249461023c9282010194868061022b565b805486850188015292860192810161026d565b60ff19168887015250505050151560051b830101925061023c82610124868061022b565b634e487b7160e01b845260228352602484fd5b93607f169361020c565b8391503461012857610100366003190112610128576102fc610973565b9061030561098e565b90608435801515916064358383036105a45760a4359360ff85168095036105a05790889160055495835190602097888301907fea2aa0a1be11a07ed86d755c93467f4f82362b452371d1ba94d1715123511acb825260018060a01b0394858d168098860152858c16606086015260443560808601528660a086015260c085015260c0845260e0840167ffffffffffffffff928582108483111761058d578f8290528551902061010086019261190160f01b8452610102870152610122860152604281526101608501928184109084111761057a57828f5251902092861561053e575050608088928c928e51918252848201528d60c4359082015260e435606082015282805260015afa156105345788511682036104fc5780159081156104f1575b50156104b957865260068352868620805460001994918582146104a6576001820190556044350361047057509495506104659450156104685791610ad6565b80f35b508391610ad6565b875162461bcd60e51b81529182015260116024820152704461692f696e76616c69642d6e6f6e636560781b604482015260649150fd5b634e487b7160e01b895260118452602489fd5b875162461bcd60e51b8152808301859052601260248201527111185a4bdc195c9b5a5d0b595e1c1a5c995960721b6044820152606490fd5b905042111589610426565b885162461bcd60e51b8152808401869052601260248201527111185a4bda5b9d985b1a590b5c195c9b5a5d60721b6044820152606490fd5b89513d8a823e3d90fd5b907404461692f696e76616c69642d616464726573732d3605c1b6101a46064938c62461bcd60e51b855261016482015260156101848201520152fd5b634e487b7160e01b8e526041895260248efd5b634e487b7160e01b8f5260418a5260248ffd5b8780fd5b8680fd5b5050346101285760203660031901126101285760209181906001600160a01b036105d0610973565b1681526006845220549051908152f35b5050346101285760203660031901126101285760209181906001600160a01b03610608610973565b16815280845220549051908152f35b505034610128578160031936011261012857805161012491610638826109a4565b60018252603160f81b6020830152519182918261092a565b5050346101285781600319360112610128576020906005549051908152f35b5050346101285781600319360112610128576020905160128152f35b505034610128578160031936011261012857602090517fea2aa0a1be11a07ed86d755c93467f4f82362b452371d1ba94d1715123511acb8152f35b50503461012857816003193601126101285760209051736b175474e89094c44da98b954eedeac495271d0f8152f35b905082346107e95760603660031901126107e957610711610973565b61071961098e565b916044359360018060a01b038316808352600160205286832033845260205286832054916000198303610755575b6020886101d78989896109f8565b8683106107bd5781156107a657331561078f575082526001602090815286832033845281529186902090859003905582906101d787610747565b8751634a1406b160e11b8152908101849052602490fd5b875163e602df0560e01b8152908101849052602490fd5b8751637dc7a0d960e11b8152339181019182526020820193909352604081018790528291506060010390fd5b80fd5b5050346101285781600319360112610128576020906002549051908152f35b5050346101285780600319360112610128576020906101d761082b610973565b6024359033610ad6565b92915034610926578360031936011261092657600354600181811c918690828116801561091c575b602095868610821461090957508488529081156108e7575060011461088e575b610124868661023c828b03836109d6565b929550600383527fc2575a0e9e593c00f959f8c92f12db2869c3395a3b0502d05e2516446f71f85b5b8284106108d457505050826101249461023c92820101943861087d565b80548685018801529286019281016108b7565b60ff191687860152505050151560051b830101925061023c826101243861087d565b634e487b7160e01b845260229052602483fd5b93607f169361085d565b8380fd5b6020808252825181830181905290939260005b82811061095f57505060409293506000838284010152601f8019910116010190565b81810186015184820160400152850161093d565b600435906001600160a01b038216820361098957565b600080fd5b602435906001600160a01b038216820361098957565b6040810190811067ffffffffffffffff8211176109c057604052565b634e487b7160e01b600052604160045260246000fd5b90601f8019910116810190811067ffffffffffffffff8211176109c057604052565b916001600160a01b03808416928315610abd5716928315610aa45760009083825281602052604082205490838210610a72575091604082827fddf252ad1be2c89b69c2b068fc378daa952ba7f163c4a11628f55a4df523b3ef958760209652828652038282205586815220818154019055604051908152a3565b60405163391434e360e21b81526001600160a01b03919091166004820152602481019190915260448101839052606490fd5b60405163ec442f0560e01b815260006004820152602490fd5b604051634b637e8f60e11b815260006004820152602490fd5b6001600160a01b03908116918215610b505716918215610b375760207f8c5be1e5ebec7d5bd14f71427d1e84f3dd0314c0f7b2291e5b200ac8c7c3b925918360005260018252604060002085600052825280604060002055604051908152a3565b604051634a1406b160e11b815260006004820152602490fd5b60405163e602df0560e01b815260006004820152602490fdfea26469706673582212208fd4d465c7f8a38929f756066f8f50b4f28cd970828dfdadc245fb3f977da9bc64736f6c63430008190033","linkReferences":{}},"methodIdentifiers":{"DOMAIN_SEPARATOR()":"3644e515","PERMIT_TYPEHASH()":"30adf81f","allowance(address,address)":"dd62ed3e","approve(address,uint256)":"095ea7b3","balanceOf(address)":"70a08231","decimals()":"313ce567","name()":"06fdde03","name_()":"e2b9e186","nonces(address)":"7ecebe00","permit(address,address,uint256,uint256,bool,uint8,bytes32,bytes32)":"8fcbaf0c","symbol()":"95d89b41","symbol_()":"af17dea6","totalSupply()":"18160ddd","transfer(address,uint256)":"a9059cbb","transferFrom(address,address,uint256)":"23b872dd","verifyingContract_()":"249a9cda","version()":"54fd4d50"},"id":152}