{"abi":[{"type":"constructor","inputs":[{"name":"factory","type":"address","internalType":"address"},{"name":"type_","type":"uint64","internalType":"uint64"}],"stateMutability":"nonpayable"},{"type":"function","name":"FACTORY","inputs":[],"outputs":[{"name":"","type":"address","internalType":"address"}],"stateMutability":"view"},{"type":"function","name":"TYPE","inputs":[],"outputs":[{"name":"","type":"uint64","internalType":"uint64"}],"stateMutability":"view"},{"type":"function","name":"a","inputs":[],"outputs":[{"name":"","type":"uint256","internalType":"uint256"}],"stateMutability":"view"},{"type":"function","name":"setA","inputs":[{"name":"_a","type":"uint256","internalType":"uint256"}],"outputs":[],"stateMutability":"nonpayable"},{"type":"function","name":"setType","inputs":[{"name":"type_","type":"uint64","internalType":"uint64"}],"outputs":[{"name":"","type":"uint64","internalType":"uint64"}],"stateMutability":"nonpayable"}],"bytecode":{"object":"0x60a0346089576001600160401b0390601f61021e38819003918201601f191683019184831184841017608e5780849260409485528339810103126089578051906001600160a01b038216820360895760200151918216809203608957608052600080546001600160401b03191691909117905560405161017990816100a582396080518160f80152f35b600080fd5b634e487b7160e01b600052604160045260246000fdfe608080604052600436101561001357600080fd5b600090813560e01c9081630dbe671f14610127575080632dd31000146100e2578063bb24fe8a146100bb578063ee919d50146100a05763f1e12b3c1461005857600080fd5b3461009d57602036600319011261009d5760043567ffffffffffffffff811680910361009957815467ffffffffffffffff1916178155604051908152602090f35b5080fd5b80fd5b503461009d57602036600319011261009d5760043560015580f35b503461009d578060031936011261009d5767ffffffffffffffff6020915416604051908152f35b503461009d578060031936011261009d576040517f00000000000000000000000000000000000000000000000000000000000000006001600160a01b03168152602090f35b9050346100995781600319360112610099576020906001548152f3fea2646970667358221220b3b27ac8a2894be0221a15013bb9a0b91e01ff1062d228724a11a4ff2825cdc064736f6c63430008190033","linkReferences":{}},"methodIdentifiers":{"FACTORY()":"2dd31000","TYPE()":"bb24fe8a","a()":"0dbe671f","setA(uint256)":"ee919d50","setType(uint64)":"f1e12b3c"},"id":141}