{"abi":[{"type":"constructor","inputs":[{"name":"vaultFactory","type":"address","internalType":"address"},{"name":"delegatorFactory","type":"address","internalType":"address"},{"name":"slasherFactory","type":"address","internalType":"address"}],"stateMutability":"nonpayable"},{"type":"function","name":"DELEGATOR_FACTORY","inputs":[],"outputs":[{"name":"","type":"address","internalType":"address"}],"stateMutability":"view"},{"type":"function","name":"SLASHER_FACTORY","inputs":[],"outputs":[{"name":"","type":"address","internalType":"address"}],"stateMutability":"view"},{"type":"function","name":"VAULT_FACTORY","inputs":[],"outputs":[{"name":"","type":"address","internalType":"address"}],"stateMutability":"view"},{"type":"function","name":"create","inputs":[{"name":"params","type":"tuple","internalType":"struct IVaultConfigurator.InitParams","components":[{"name":"version","type":"uint64","internalType":"uint64"},{"name":"owner","type":"address","internalType":"address"},{"name":"vaultParams","type":"bytes","internalType":"bytes"},{"name":"delegatorIndex","type":"uint64","internalType":"uint64"},{"name":"delegatorParams","type":"bytes","internalType":"bytes"},{"name":"withSlasher","type":"bool","internalType":"bool"},{"name":"slasherIndex","type":"uint64","internalType":"uint64"},{"name":"slasherParams","type":"bytes","internalType":"bytes"}]}],"outputs":[{"name":"vault","type":"address","internalType":"address"},{"name":"delegator","type":"address","internalType":"address"},{"name":"slasher","type":"address","internalType":"address"}],"stateMutability":"nonpayable"}],"bytecode":{"object":"0x60e0346100a957601f61078338819003918201601f19168301916001600160401b038311848410176100ad578084926060946040528339810103126100a957610047816100c1565b906100606040610059602084016100c1565b92016100c1565b9160805260a05260c0526040516106ad90816100d682396080518181816101aa015261050a015260a05181818161023301526104c9015260c05181818161038201526104860152f35b5f80fd5b634e487b7160e01b5f52604160045260245ffd5b51906001600160a01b03821682036100a95756fe60806040818152600480361015610014575f80fd5b5f925f3560e01c908163103f2907146104f8575080636da3e06d146104b557806387df0788146104725763c48927e41461004c575f80fd5b346103385760031991602036840181136103385782359067ffffffffffffffff9485831161033857610100809184360301126103385783519081018181108782111761045f57845261009f838601610583565b81526001600160a01b039560248401358781168103610338578383019081526044850135828111610338576100d990883691880101610598565b918684019283526100ec60648701610583565b956060850196875260848101358281116103385761010f908a3691840101610598565b966080860197885260a48201359081151582036103385760a0870191825261013960c48401610583565b9260c0880193845260e481013596858811610338578d8d975f6101648f9b958b8f9736920101610598565b9960e08d019a8b526101a6848b849f511694511695519c519c8d9687958694633ac0491160e01b8652850152602484015260606044840152606483019061060d565b03927f0000000000000000000000000000000000000000000000000000000000000000165af19586156104555791888d8c95938e97955f9a61042e575b50908561022f9251169c515f8b6102008a51938492888401610631565b0398610214601f199a8b8101855284610561565b519e8f94859384926319a211df60e31b9d8e85528401610656565b03927f0000000000000000000000000000000000000000000000000000000000000000165af1998a1561042457908d979695949392915f9b6103f9575b50908995949392915161033c575b5050505050501695863b156103385784516383cd9cc360e01b8152938116868501819052935f81602481838c5af1801561032e5761031b575b50863b1561031757845163555e124b60e11b815291169481018590528681602481838a5af1801561030d576102f5575b50606095508251948552840152820152f35b6102ff8791610539565b61030957856102e3565b8580fd5b84513d89823e3d90fd5b8780fd5b610326919850610539565b5f965f6102b3565b86513d5f823e3d90fd5b5f80fd5b61036893949596985061035c9750511693518a5196879189888401610631565b03908101865285610561565b61037c8851948593849384528b8401610656565b03815f8b7f0000000000000000000000000000000000000000000000000000000000000000165af19081156103ef579087915f916103c2575b5091835f8080808061027a565b6103e29150843d86116103e8575b6103da8183610561565b8101906105ee565b5f6103b5565b503d6103d0565b85513d5f823e3d90fd5b8a9695949392919b5061041890873d89116103e8576103da8183610561565b9a90919293949561026c565b8b513d5f823e3d90fd5b61022f92919a5061044c8791853d87116103e8576103da8183610561565b9a9192506101e3565b8a513d5f823e3d90fd5b604186634e487b7160e01b5f525260245ffd5b8234610338575f36600319011261033857517f00000000000000000000000000000000000000000000000000000000000000006001600160a01b03168152602090f35b8234610338575f36600319011261033857517f00000000000000000000000000000000000000000000000000000000000000006001600160a01b03168152602090f35b34610338575f366003190112610338577f00000000000000000000000000000000000000000000000000000000000000006001600160a01b03168152602090f35b67ffffffffffffffff811161054d57604052565b634e487b7160e01b5f52604160045260245ffd5b90601f8019910116810190811067ffffffffffffffff82111761054d57604052565b359067ffffffffffffffff8216820361033857565b81601f820112156103385780359067ffffffffffffffff821161054d57604051926105cd601f8401601f191660200185610561565b8284526020838301011161033857815f926020809301838601378301015290565b9081602091031261033857516001600160a01b03811681036103385790565b805180835260209291819084018484015e5f828201840152601f01601f1916010190565b6001600160a01b0390911681526040602082018190526106539291019061060d565b90565b60409067ffffffffffffffff6106539493168152816020820152019061060d56fea2646970667358221220d0997f2784f2cb479b47b9fd06ed1eeb8a40a4a27e973e7196f1e9bd0fffae5e64736f6c63430008190033","linkReferences":{}},"methodIdentifiers":{"DELEGATOR_FACTORY()":"6da3e06d","SLASHER_FACTORY()":"87df0788","VAULT_FACTORY()":"103f2907","create((uint64,address,bytes,uint64,bytes,bool,uint64,bytes))":"c48927e4"},"id":134}