{"abi":[{"type":"constructor","inputs":[{"name":"registry","type":"address","internalType":"address"}],"stateMutability":"nonpayable"},{"type":"function","name":"REGISTRY","inputs":[],"outputs":[{"name":"","type":"address","internalType":"address"}],"stateMutability":"view"},{"type":"function","name":"metadataURL","inputs":[{"name":"entity","type":"address","internalType":"address"}],"outputs":[{"name":"value","type":"string","internalType":"string"}],"stateMutability":"view"},{"type":"function","name":"setMetadataURL","inputs":[{"name":"metadataURL_","type":"string","internalType":"string"}],"outputs":[],"stateMutability":"nonpayable"},{"type":"event","name":"SetMetadataURL","inputs":[{"name":"entity","type":"address","indexed":true,"internalType":"address"},{"name":"metadataURL","type":"string","indexed":false,"internalType":"string"}],"anonymous":false},{"type":"error","name":"AlreadySet","inputs":[]},{"type":"error","name":"NotEntity","inputs":[]}],"bytecode":{"object":"0x60a034606c57601f61058b38819003918201601f19168301916001600160401b03831184841017607057808492602094604052833981010312606c57516001600160a01b0381168103606c576080526040516105069081610085823960805181818160a501526103910152f35b5f80fd5b634e487b7160e01b5f52604160045260245ffdfe608060409080825260049081361015610016575f80fd5b5f3560e01c90816306433b1b1461037f575080634edb8f391461031a5763747daec514610041575f80fd5b34610305576020806003193601126103055781359267ffffffffffffffff808511610305573660238601121561030557848401359081116103055760249485810190368784830101116103055783516302910f8b60e31b81523387820152858189817f00000000000000000000000000000000000000000000000000000000000000006001600160a01b03165afa908115610310575f916102d6575b50156102c657335f525f85526100f4845f2061042e565b95601f840191601f19918284169887516101108a8c01826103f8565b87815289810190888883375f8b8a8301015282519051908b82821494856102b5575b50505050506102a75750335f525f8752855f209261015084546103c0565b90601f821161026c575b50505f91601f86116001146101dc5750928492837ff8dac27f20d622a0759394313683066cb713a406633a3a7dde8799654015ea64999a5f9794899789936101cf575b5050508360011b9087198560031b1c19161790555b8184519780895288015283870137840101528133948101030190a2005b01013590505f808061019d565b859991991691835f52875f20925f5b8181106102535750927ff8dac27f20d622a0759394313683066cb713a406633a3a7dde8799654015ea64999a889693889693875f9a9710610238575b50505050600183811b0190556101b2565b891960f88860031b161c19920101351690555f808080610227565b91938960018192868f89010135815501950192016101eb565b845f52885f209060051c81019189881061029d575b601f0160051c01905b8181101561015a575f815560010161028a565b9091508190610281565b865163a741a04560e01b8152fd5b012091201490505f80808b81610132565b835163184849cf60e01b81528690fd5b90508581813d8311610309575b6102ed81836103f8565b8101031261030557518015158103610305575f6100dd565b5f80fd5b503d6102e3565b85513d5f823e3d90fd5b503461030557602036600319011261030557356001600160a01b0381169190829003610305576020915f525f8252610353815f2061042e565b815192839181835280519182918282860152018484015e5f828201840152601f01601f19168101030190f35b34610305575f366003190112610305577f00000000000000000000000000000000000000000000000000000000000000006001600160a01b03168152602090f35b90600182811c921680156103ee575b60208310146103da57565b634e487b7160e01b5f52602260045260245ffd5b91607f16916103cf565b90601f8019910116810190811067ffffffffffffffff82111761041a57604052565b634e487b7160e01b5f52604160045260245ffd5b9060405191825f8254610440816103c0565b908184526020946001916001811690815f146104ae5750600114610470575b50505061046e925003836103f8565b565b5f90815285812095935091905b81831061049657505061046e93508201015f808061045f565b8554888401850152948501948794509183019161047d565b9250505061046e94925060ff191682840152151560051b8201015f808061045f56fea2646970667358221220213586bbc3f91bcc9951ece370d94e2d99fd8bd62ad4238fab325cec50e7b4fe64736f6c63430008190033","linkReferences":{}},"methodIdentifiers":{"REGISTRY()":"06433b1b","metadataURL(address)":"4edb8f39","setMetadataURL(string)":"747daec5"},"id":96}