{"abi":[{"type":"constructor","inputs":[{"name":"registry","type":"address","internalType":"address"}],"stateMutability":"nonpayable"},{"type":"function","name":"REGISTRY","inputs":[],"outputs":[{"name":"","type":"address","internalType":"address"}],"stateMutability":"view"},{"type":"function","name":"metadataURL","inputs":[{"name":"entity","type":"address","internalType":"address"}],"outputs":[{"name":"value","type":"string","internalType":"string"}],"stateMutability":"view"},{"type":"function","name":"setMetadataURL","inputs":[{"name":"metadataURL_","type":"string","internalType":"string"}],"outputs":[],"stateMutability":"nonpayable"},{"type":"event","name":"SetMetadataURL","inputs":[{"name":"entity","type":"address","indexed":true,"internalType":"address"},{"name":"metadataURL","type":"string","indexed":false,"internalType":"string"}],"anonymous":false},{"type":"error","name":"AlreadySet","inputs":[]},{"type":"error","name":"NotEntity","inputs":[]}],"bytecode":{"object":"0x60a034606c57601f6105e238819003918201601f19168301916001600160401b03831184841017607157808492602094604052833981010312606c57516001600160a01b0381168103606c5760805260405161055a9081610088823960805181818160a801526103de0152f35b600080fd5b634e487b7160e01b600052604160045260246000fdfe6080604081815260048036101561001557600080fd5b600092833560e01c90816306433b1b146103ca575080634edb8f39146103435763747daec51461004457600080fd5b3461033f5760208060031936011261033b5781359267ffffffffffffffff808511610337573660238601121561033757848401359081116103375760249485810190368784830101116103335783516302910f8b60e31b81523387820152858189817f00000000000000000000000000000000000000000000000000000000000000006001600160a01b03165afa9081156103295789916102ef575b50156102df573388528785526100f784892061047f565b96601f840191601f19978884169987516101138a8d0182610447565b87815289810190888883378d8b8a8301015282519051908b82821494856102ce575b50505050506102c0575090899493929133865285885286862092610159845461040d565b90601f8211610274575b50508598601f86116001146101e5575091848094927ff8dac27f20d622a0759394313683066cb713a406633a3a7dde8799654015ea649a89979589936101d8575b5050508360011b906000198560031b1c19161790555b8184519780895288015283870137840101528133948101030190a280f35b01013590503880806101a4565b85169183875288872092875b818110610258575091869593917ff8dac27f20d622a0759394313683066cb713a406633a3a7dde8799654015ea649b878b9997951061023c575b50505050600183811b0190556101ba565b60001960f88860031b161c19920101351690553880808061022b565b838c0183013585559a8a019a8d98506001909401938a016101f1565b909192938095969752888c209060051c8101918988106102b6575b90601f8d989796959493920160051c01905b81811015610163579687558b966001016102a1565b909150819061028f565b865163a741a04560e01b8152fd5b012091201490503880808b81610135565b835163184849cf60e01b81528690fd5b90508581813d8311610322575b6103068183610447565b8101031261031e5751801515810361031e57386100e0565b8880fd5b503d6102fc565b85513d8b823e3d90fd5b8780fd5b8580fd5b8380fd5b8280fd5b5091346103c757602092836003193601126103c357356001600160a01b038116908190036103c3578193915282815261037d82842061047f565b82519382859384528251928382860152825b8481106103ad57505050828201840152601f01601f19168101030190f35b818101830151888201880152879550820161038f565b5080fd5b80fd5b8490346103c357816003193601126103c3577f00000000000000000000000000000000000000000000000000000000000000006001600160a01b03168152602090f35b90600182811c9216801561043d575b602083101461042757565b634e487b7160e01b600052602260045260246000fd5b91607f169161041c565b90601f8019910116810190811067ffffffffffffffff82111761046957604052565b634e487b7160e01b600052604160045260246000fd5b906040519182600082546104928161040d565b9081845260209460019160018116908160001461050257506001146104c3575b5050506104c192500383610447565b565b600090815285812095935091905b8183106104ea5750506104c193508201013880806104b2565b855488840185015294850194879450918301916104d1565b925050506104c194925060ff191682840152151560051b8201013880806104b256fea2646970667358221220289a853d38ae024249b107d273bc3153b391cdff3df8b23159f27f2cde650c3d64736f6c63430008190033","linkReferences":{}},"methodIdentifiers":{"REGISTRY()":"06433b1b","metadataURL(address)":"4edb8f39","setMetadataURL(string)":"747daec5"},"id":86}