{"abi":[{"type":"constructor","inputs":[{"name":"vaultFactory","type":"address","internalType":"address"},{"name":"implementation","type":"address","internalType":"address"}],"stateMutability":"nonpayable"},{"type":"fallback","stateMutability":"payable"},{"type":"function","name":"DEFAULT_ADMIN_ROLE","inputs":[],"outputs":[{"name":"","type":"bytes32","internalType":"bytes32"}],"stateMutability":"view"},{"type":"function","name":"DEPOSITOR_WHITELIST_ROLE","inputs":[],"outputs":[{"name":"","type":"bytes32","internalType":"bytes32"}],"stateMutability":"view"},{"type":"function","name":"DEPOSIT_LIMIT_SET_ROLE","inputs":[],"outputs":[{"name":"","type":"bytes32","internalType":"bytes32"}],"stateMutability":"view"},{"type":"function","name":"DEPOSIT_WHITELIST_SET_ROLE","inputs":[],"outputs":[{"name":"","type":"bytes32","internalType":"bytes32"}],"stateMutability":"view"},{"type":"function","name":"EPOCH_DURATION_SET_ROLE","inputs":[],"outputs":[{"name":"","type":"bytes32","internalType":"bytes32"}],"stateMutability":"view"},{"type":"function","name":"FACTORY","inputs":[],"outputs":[{"name":"","type":"address","internalType":"address"}],"stateMutability":"view"},{"type":"function","name":"FLASH_FEE_BASE","inputs":[],"outputs":[{"name":"","type":"uint256","internalType":"uint256"}],"stateMutability":"view"},{"type":"function","name":"FLASH_FEE_RATE_SET_ROLE","inputs":[],"outputs":[{"name":"","type":"bytes32","internalType":"bytes32"}],"stateMutability":"view"},{"type":"function","name":"FLASH_FEE_RECEIVER_SET_ROLE","inputs":[],"outputs":[{"name":"","type":"bytes32","internalType":"bytes32"}],"stateMutability":"view"},{"type":"function","name":"IS_DEPOSIT_LIMIT_SET_ROLE","inputs":[],"outputs":[{"name":"","type":"bytes32","internalType":"bytes32"}],"stateMutability":"view"},{"type":"function","name":"RETURN_VALUE","inputs":[],"outputs":[{"name":"","type":"bytes32","internalType":"bytes32"}],"stateMutability":"view"},{"type":"function","name":"burner","inputs":[],"outputs":[{"name":"","type":"address","internalType":"address"}],"stateMutability":"view"},{"type":"function","name":"collateral","inputs":[],"outputs":[{"name":"","type":"address","internalType":"address"}],"stateMutability":"view"},{"type":"function","name":"delegator","inputs":[],"outputs":[{"name":"","type":"address","internalType":"address"}],"stateMutability":"view"},{"type":"function","name":"depositLimit","inputs":[],"outputs":[{"name":"","type":"uint256","internalType":"uint256"}],"stateMutability":"view"},{"type":"function","name":"depositWhitelist","inputs":[],"outputs":[{"name":"","type":"bool","internalType":"bool"}],"stateMutability":"view"},{"type":"function","name":"epochDurationInitInternal","inputs":[],"outputs":[{"name":"","type":"uint48","internalType":"uint48"}],"stateMutability":"view"},{"type":"function","name":"epochDurationInternal","inputs":[],"outputs":[{"name":"","type":"uint48","internalType":"uint48"}],"stateMutability":"view"},{"type":"function","name":"epochDurationSetEpochsDelayInternal","inputs":[],"outputs":[{"name":"","type":"uint256","internalType":"uint256"}],"stateMutability":"view"},{"type":"function","name":"epochInitInternal","inputs":[],"outputs":[{"name":"","type":"uint256","internalType":"uint256"}],"stateMutability":"view"},{"type":"function","name":"flashFeeRate","inputs":[],"outputs":[{"name":"","type":"uint256","internalType":"uint256"}],"stateMutability":"view"},{"type":"function","name":"flashFeeReceiver","inputs":[],"outputs":[{"name":"","type":"address","internalType":"address"}],"stateMutability":"view"},{"type":"function","name":"getRoleAdmin","inputs":[{"name":"role","type":"bytes32","internalType":"bytes32"}],"outputs":[{"name":"","type":"bytes32","internalType":"bytes32"}],"stateMutability":"view"},{"type":"function","name":"grantRole","inputs":[{"name":"role","type":"bytes32","internalType":"bytes32"},{"name":"account","type":"address","internalType":"address"}],"outputs":[],"stateMutability":"nonpayable"},{"type":"function","name":"hasRole","inputs":[{"name":"role","type":"bytes32","internalType":"bytes32"},{"name":"account","type":"address","internalType":"address"}],"outputs":[{"name":"","type":"bool","internalType":"bool"}],"stateMutability":"view"},{"type":"function","name":"initialize","inputs":[{"name":"initialVersion","type":"uint64","internalType":"uint64"},{"name":"owner_","type":"address","internalType":"address"},{"name":"data","type":"bytes","internalType":"bytes"}],"outputs":[],"stateMutability":"nonpayable"},{"type":"function","name":"isDelegatorInitialized","inputs":[],"outputs":[{"name":"","type":"bool","internalType":"bool"}],"stateMutability":"view"},{"type":"function","name":"isDepositLimit","inputs":[],"outputs":[{"name":"","type":"bool","internalType":"bool"}],"stateMutability":"view"},{"type":"function","name":"isDepositorWhitelisted","inputs":[{"name":"account","type":"address","internalType":"address"}],"outputs":[{"name":"value","type":"bool","internalType":"bool"}],"stateMutability":"view"},{"type":"function","name":"isSlasherInitialized","inputs":[],"outputs":[{"name":"","type":"bool","internalType":"bool"}],"stateMutability":"view"},{"type":"function","name":"isWithdrawalsClaimed","inputs":[{"name":"epoch","type":"uint256","internalType":"uint256"},{"name":"account","type":"address","internalType":"address"}],"outputs":[{"name":"value","type":"bool","internalType":"bool"}],"stateMutability":"view"},{"type":"function","name":"migrate","inputs":[{"name":"newVersion","type":"uint64","internalType":"uint64"},{"name":"data","type":"bytes","internalType":"bytes"}],"outputs":[],"stateMutability":"nonpayable"},{"type":"function","name":"nextEpochDurationInitInternal","inputs":[],"outputs":[{"name":"","type":"uint48","internalType":"uint48"}],"stateMutability":"view"},{"type":"function","name":"nextEpochDurationInternal","inputs":[],"outputs":[{"name":"","type":"uint48","internalType":"uint48"}],"stateMutability":"view"},{"type":"function","name":"nextEpochDurationSetEpochsDelayInternal","inputs":[],"outputs":[{"name":"","type":"uint256","internalType":"uint256"}],"stateMutability":"view"},{"type":"function","name":"nextEpochInitInternal","inputs":[],"outputs":[{"name":"","type":"uint256","internalType":"uint256"}],"stateMutability":"view"},{"type":"function","name":"owner","inputs":[],"outputs":[{"name":"","type":"address","internalType":"address"}],"stateMutability":"view"},{"type":"function","name":"prevEpochDurationInitInternal","inputs":[],"outputs":[{"name":"","type":"uint48","internalType":"uint48"}],"stateMutability":"view"},{"type":"function","name":"prevEpochDurationInternal","inputs":[],"outputs":[{"name":"","type":"uint48","internalType":"uint48"}],"stateMutability":"view"},{"type":"function","name":"prevEpochInitInternal","inputs":[],"outputs":[{"name":"","type":"uint256","internalType":"uint256"}],"stateMutability":"view"},{"type":"function","name":"renounceOwnership","inputs":[],"outputs":[],"stateMutability":"nonpayable"},{"type":"function","name":"renounceRole","inputs":[{"name":"role","type":"bytes32","internalType":"bytes32"},{"name":"callerConfirmation","type":"address","internalType":"address"}],"outputs":[],"stateMutability":"nonpayable"},{"type":"function","name":"revokeRole","inputs":[{"name":"role","type":"bytes32","internalType":"bytes32"},{"name":"account","type":"address","internalType":"address"}],"outputs":[],"stateMutability":"nonpayable"},{"type":"function","name":"slasher","inputs":[],"outputs":[{"name":"","type":"address","internalType":"address"}],"stateMutability":"view"},{"type":"function","name":"staticDelegateCall","inputs":[{"name":"target","type":"address","internalType":"address"},{"name":"data","type":"bytes","internalType":"bytes"}],"outputs":[],"stateMutability":"nonpayable"},{"type":"function","name":"supportsInterface","inputs":[{"name":"interfaceId","type":"bytes4","internalType":"bytes4"}],"outputs":[{"name":"","type":"bool","internalType":"bool"}],"stateMutability":"view"},{"type":"function","name":"transferOwnership","inputs":[{"name":"newOwner","type":"address","internalType":"address"}],"outputs":[],"stateMutability":"nonpayable"},{"type":"function","name":"version","inputs":[],"outputs":[{"name":"","type":"uint64","internalType":"uint64"}],"stateMutability":"view"},{"type":"function","name":"withdrawalShares","inputs":[{"name":"epoch","type":"uint256","internalType":"uint256"}],"outputs":[{"name":"amount","type":"uint256","internalType":"uint256"}],"stateMutability":"view"},{"type":"function","name":"withdrawalSharesOf","inputs":[{"name":"epoch","type":"uint256","internalType":"uint256"},{"name":"account","type":"address","internalType":"address"}],"outputs":[{"name":"amount","type":"uint256","internalType":"uint256"}],"stateMutability":"view"},{"type":"function","name":"withdrawals","inputs":[{"name":"epoch","type":"uint256","internalType":"uint256"}],"outputs":[{"name":"amount","type":"uint256","internalType":"uint256"}],"stateMutability":"view"},{"type":"event","name":"Initialized","inputs":[{"name":"version","type":"uint64","indexed":false,"internalType":"uint64"}],"anonymous":false},{"type":"event","name":"OwnershipTransferred","inputs":[{"name":"previousOwner","type":"address","indexed":true,"internalType":"address"},{"name":"newOwner","type":"address","indexed":true,"internalType":"address"}],"anonymous":false},{"type":"event","name":"RoleAdminChanged","inputs":[{"name":"role","type":"bytes32","indexed":true,"internalType":"bytes32"},{"name":"previousAdminRole","type":"bytes32","indexed":true,"internalType":"bytes32"},{"name":"newAdminRole","type":"bytes32","indexed":true,"internalType":"bytes32"}],"anonymous":false},{"type":"event","name":"RoleGranted","inputs":[{"name":"role","type":"bytes32","indexed":true,"internalType":"bytes32"},{"name":"account","type":"address","indexed":true,"internalType":"address"},{"name":"sender","type":"address","indexed":true,"internalType":"address"}],"anonymous":false},{"type":"event","name":"RoleRevoked","inputs":[{"name":"role","type":"bytes32","indexed":true,"internalType":"bytes32"},{"name":"account","type":"address","indexed":true,"internalType":"address"},{"name":"sender","type":"address","indexed":true,"internalType":"address"}],"anonymous":false},{"type":"error","name":"AccessControlBadConfirmation","inputs":[]},{"type":"error","name":"AccessControlUnauthorizedAccount","inputs":[{"name":"account","type":"address","internalType":"address"},{"name":"neededRole","type":"bytes32","internalType":"bytes32"}]},{"type":"error","name":"AddressEmptyCode","inputs":[{"name":"target","type":"address","internalType":"address"}]},{"type":"error","name":"AlreadyInitialized","inputs":[]},{"type":"error","name":"AlreadySet","inputs":[]},{"type":"error","name":"FailedCall","inputs":[]},{"type":"error","name":"InvalidAccount","inputs":[]},{"type":"error","name":"InvalidCollateral","inputs":[]},{"type":"error","name":"InvalidData","inputs":[]},{"type":"error","name":"InvalidEpochDuration","inputs":[]},{"type":"error","name":"InvalidEpochDurationSetEpochsDelay","inputs":[]},{"type":"error","name":"InvalidFlashParams","inputs":[]},{"type":"error","name":"InvalidInitialization","inputs":[]},{"type":"error","name":"InvalidOrigin","inputs":[]},{"type":"error","name":"MissingRoles","inputs":[]},{"type":"error","name":"NoDepositWhitelist","inputs":[]},{"type":"error","name":"NotFactory","inputs":[]},{"type":"error","name":"NotInitialized","inputs":[]},{"type":"error","name":"NotInitializing","inputs":[]},{"type":"error","name":"OwnableInvalidOwner","inputs":[{"name":"owner","type":"address","internalType":"address"}]},{"type":"error","name":"OwnableUnauthorizedAccount","inputs":[{"name":"account","type":"address","internalType":"address"}]},{"type":"error","name":"ReentrancyGuardReentrantCall","inputs":[]},{"type":"error","name":"SafeCastOverflowedUintDowncast","inputs":[{"name":"bits","type":"uint8","internalType":"uint8"},{"name":"value","type":"uint256","internalType":"uint256"}]}],"bytecode":{"object":"0x60c0346101235761272b906001600160401b0390601f38849003908101601f19168201908382118383101761012757808391604096879485528339810103126101235761005760206100508361013b565b920161013b565b917ff0c57e16840df040f15088dc2f81fe391c3923bec73e23a9662efc9c229c6a009081549060ff82871c166101125780808316036100ce575b50505060805260a052516125db9081610150823960805181818161055601526106c1015260a0518181816112870152818161141601526119d70152f35b6001600160401b0319909116811790915583519081527fc7f505b2f371ae2175ee4913f4499e1f2633a7b5936321eed1cdaeb6115181d290602090a15f8080610091565b855163f92ee8a960e01b8152600490fd5b5f80fd5b634e487b7160e01b5f52604160045260245ffd5b51906001600160a01b03821682036101235756fe6080604052600436106119cd575f3560e01c806301ffc9a71461033b5780630fcaeb1b146103365780631415519b146103315780631b66c9e11461032c5780631e89bd8a14610327578063248a9ca31461032257806327810b6e1461031d5780632abe3048146103185780632dd31000146103135780632f2ff15d1461030e57806331d9736c1461030957806336568abe1461030457806348d3b775146102ff578063502b4d60146102fa57806350861adc146102f557806354fd4d50146102f057806357ec83cc146102eb5780635cc07076146102e657806361819dd8146102e157806364601402146102dc578063653b04cd146102d75780636ec1e3f8146102d2578063715018a6146102cd57806375d6c765146102c8578063794b15b7146102c35780637e84ec81146102be5780638d30d7a7146102b95780638da5cb5b146102b457806391d14854146102af5780639f86fd85146102aa578063a1b12202146102a5578063a217fddf146102a0578063a21a1df91461029b578063a3b5417214610296578063a5d0322314610291578063a8b24f9a1461028c578063afba70ad14610287578063b134427114610282578063bc46f7221461027d578063bc4f8c0514610278578063ce9b793014610273578063d2356eb51461026e578063d547741f14610269578063d8dfeb4514610264578063db3887151461025f578063ddd0f28a1461025a578063e945da7f14610255578063ecc98f0514610250578063ecf708581461024b578063f2fde38b146102465763fcdc5b60036119cd57611058565b61102b565b61100e565b610ff0565b610fd3565b610fb6565b610f7c565b610f51565b610f05565b610ee8565b610ec0565b610ea3565b610e69565b610e41565b610e17565b610def565b610da9565b610d5c565b610d22565b610d08565b610ce4565b610c50565b610bf2565b610bbe565b610b99565b610b71565b610b31565b610b09565b610aa2565b610a7d565b610a43565b610a1b565b6109e1565b6109b7565b610872565b610840565b61081b565b6107f3565b6107d2565b610787565b61074d565b610701565b6106ac565b6104ea565b61047f565b610446565b610426565b6103ec565b6103b2565b610395565b346103915760203660031901126103915760043563ffffffff60e01b811680910361039157602090637965db0b60e01b8114908115610380575b506040519015158152f35b6301ffc9a760e01b1490505f610375565b5f80fd5b34610391575f366003190112610391576020601154604051908152f35b34610391575f3660031901126103915760206040517fc6aaadd7371d5e8f9ed6849dd66a66573a3ba37167d03f4352c9ba5693678fac8152f35b34610391575f3660031901126103915760206040517f9c56d972d63cbb4195b3c1484691dfc220fa96a4c47e7b6613bd82a022029e068152f35b34610391575f36600319011261039157602060015460d01c604051908152f35b34610391576020366003190112610391576004355f525f805160206125668339815191526020526020600160405f200154604051908152f35b34610391575f366003190112610391576001546040516001600160a01b039091168152602090f35b600435906001600160401b038216820361039157565b9181601f84011215610391578235916001600160401b038311610391576020838186019501011161039157565b3461039157604080600319360112610391576105046104a7565b906001600160401b03602435818111610391576105259036906004016104bd565b917f9b779b17422d0df92223018b32b4d1fa46e071723d6817e2486d003becc55f00600281541461069b57600290557f00000000000000000000000000000000000000000000000000000000000000006001600160a01b0316330361068a575f8051602061258683398151915280548281169260ff82881c16801561067e575b61066d5767ffffffffffffffff199091169087161790555f80516020612586833981519152805460ff60401b1916600160401b1790557fc7f505b2f371ae2175ee4913f4499e1f2633a7b5936321eed1cdaeb6115181d29461063f949093909261060e926113d0565b5f80516020612586833981519152805460ff60401b19169055516001600160401b0390911681529081906020820190565b0390a161066b60017f9b779b17422d0df92223018b32b4d1fa46e071723d6817e2486d003becc55f0055565b005b865163f92ee8a960e01b8152600490fd5b508088168410156105a5565b8351631966391b60e11b8152600490fd5b8451633ee5aeb560e01b8152600490fd5b34610391575f366003190112610391576040517f00000000000000000000000000000000000000000000000000000000000000006001600160a01b03168152602090f35b6001600160a01b0381160361039157565b346103915760403660031901126103915761066b602435600435610724826106f0565b805f525f80516020612566833981519152602052610748600160405f20015461145e565b6118cd565b34610391575f3660031901126103915760206040517f5295aaaa27fdd659293eafacbfafbc634c1b96298957e87de5f59308cdbfdad18152f35b34610391576040366003190112610391576024356107a4816106f0565b336001600160a01b038216036107c05761066b90600435611903565b60405163334bd91960e11b8152600490fd5b34610391575f36600319011261039157602060ff5f54166040519015158152f35b34610391575f36600319011261039157602065ffffffffffff60135460901c16604051908152f35b34610391575f36600319011261039157602060ff60025460a01c166040519015158152f35b34610391575f3660031901126103915760206001600160401b035f805160206125868339815191525416604051908152f35b346103915760603660031901126103915761088b6104a7565b602435610897816106f0565b6001600160401b0391604435838111610391576108b89036906004016104bd565b5f805160206125868339815191529491855494838616806109a65760ff8760401c16908115610999575b50610987577fc7f505b2f371ae2175ee4913f4499e1f2633a7b5936321eed1cdaeb6115181d2966109829661094f958716906001600160401b03191617905561094a5f80516020612586833981519152600160401b68ff000000000000000019825416179055565b611175565b5f80516020612586833981519152805460ff60401b191690556040516001600160401b0390911681529081906020820190565b0390a1005b60405163f92ee8a960e01b8152600490fd5b905084861611155f6108e2565b60405162dc149f60e41b8152600490fd5b34610391576020366003190112610391576004355f526006602052602060405f2054604051908152f35b34610391575f3660031901126103915760206040517f591f6a0113ada8aff67efadec8ae2fa585cb4ebf4e1f8fc1205ffbeff98d00ec8152f35b34610391575f36600319011261039157602065ffffffffffff60015460a01c16604051908152f35b34610391575f3660031901126103915760206040517f439148f0bbc682ca079e46d6e2c2f0c1e3b820f1a291b069d8882abf8cf18dd98152f35b34610391575f36600319011261039157602060ff60035460a01c166040519015158152f35b34610391575f36600319011261039157610aba611995565b5f8051602061254683398151915280546001600160a01b031981169091555f906001600160a01b03167f8be0079c531659141344cd1fd0a4f28419497f9722a3daafe3b4186f6b6457e08280a3005b34610391575f36600319011261039157602065ffffffffffff60135460601c16604051908152f35b3461039157602036600319011261039157600435610b4e816106f0565b60018060a01b03165f526005602052602060ff60405f2054166040519015158152f35b34610391575f36600319011261039157602065ffffffffffff60135460301c16604051908152f35b34610391575f36600319011261039157602065ffffffffffff60135416604051908152f35b34610391575f366003190112610391575f80516020612546833981519152546040516001600160a01b039091168152602090f35b3461039157604036600319011261039157602060ff610c44602435610c16816106f0565b6004355f525f80516020612566833981519152845260405f209060018060a01b03165f5260205260405f2090565b54166040519015158152f35b3461039157604036600319011261039157600435610c6d816106f0565b6024356001600160401b038111610391575f91610c8f839236906004016104bd565b90816040519283928337810184815203915af4610cdc610cad61130c565b91610cce60405193849215156020840152604080840152606083019061133b565b03601f1981018352826110c4565b805190602001fd5b34610391575f36600319011261039157602060ff5f5460081c166040519015158152f35b34610391575f3660031901126103915760206040515f8152f35b34610391575f3660031901126103915760206040517f4a634bc14d77baf979756509ef4298c6f6318af357828612545267ee2eb792338152f35b34610391576040366003190112610391576020610da0602435610d7e816106f0565b6004355f526008835260405f209060018060a01b03165f5260205260405f2090565b54604051908152f35b3461039157604036600319011261039157602060ff610c44602435610dcd816106f0565b6004355f526009845260405f209060018060a01b03165f5260205260405f2090565b34610391575f366003190112610391576016546040516001600160a01b039091168152602090f35b34610391576020366003190112610391576004355f526007602052602060405f2054604051908152f35b34610391575f366003190112610391576003546040516001600160a01b039091168152602090f35b34610391575f3660031901126103915760206040517fc9078c78bcaac2be1c77c160c539a489be2b72939771b1a6302fed3e2150c7458152f35b34610391575f366003190112610391576020601054604051908152f35b34610391575f366003190112610391576002546040516001600160a01b039091168152602090f35b34610391575f366003190112610391576020601254604051908152f35b346103915760403660031901126103915761066b602435600435610f28826106f0565b805f525f80516020612566833981519152602052610f4c600160405f20015461145e565b611903565b34610391575f366003190112610391575f5460405160109190911c6001600160a01b03168152602090f35b34610391575f3660031901126103915760206040517fbae4ee3de6c709ff9a002e774c5b78cb381560b219213c88ae0f1e207c03c0238152f35b34610391575f366003190112610391576020601454604051908152f35b34610391575f366003190112610391576020601554604051908152f35b34610391575f366003190112610391576020604051633b9aca008152f35b34610391575f366003190112610391576020600454604051908152f35b346103915760203660031901126103915761066b60043561104b816106f0565b611053611995565b61135f565b34610391575f366003190112610391576020600f54604051908152f35b634e487b7160e01b5f52604160045260245ffd5b606081019081106001600160401b038211176110a457604052565b611075565b604081019081106001600160401b038211176110a457604052565b90601f801991011681019081106001600160401b038211176110a457604052565b6040519061024082018281106001600160401b038211176110a457604052565b6040519060c082018281106001600160401b038211176110a457604052565b6001600160401b0381116110a457601f01601f191660200190565b92919261114b82611124565b9161115960405193846110c4565b829481845281830111610391578281602093845f960137010152565b916111c592611182611a09565b61118a611a09565b60017f9b779b17422d0df92223018b32b4d1fa46e071723d6817e2486d003becc55f00556001600160a01b0381166112f2575b50369161113f565b8051602090820181810182848303126103915782840151936001600160401b039485811161039157606091018093031261039157604090815161120781611089565b8484015186811161039157840182603f8201121561039157828185886112309401519101611a37565b81528284015186811161039157828661124b92870101611a6d565b938582019485526060810151968711610391576112756112ce93876112ef99611282940101611a6d565b9184810192835251611cf4565b6112c87f00000000000000000000000000000000000000000000000000000000000000009451915191610cce855193849263602bd8e760e01b8a85015260248401611a8a565b83611aaf565b505191634f4e823d60e01b90830152600482526112ea826110a9565b611aaf565b50565b611306906112fe611a09565b611053611a09565b5f6111bd565b3d15611336573d9061131d82611124565b9161132b60405193846110c4565b82523d5f602084013e565b606090565b805180835260209291819084018484015e5f828201840152601f01601f1916010190565b6001600160a01b039081169081156113b8575f8051602061254683398151915280546001600160a01b031981168417909155167f8be0079c531659141344cd1fd0a4f28419497f9722a3daafe3b4186f6b6457e05f80a3565b604051631e4fbdf760e01b81525f6004820152602490fd5b916113e76003926001600160401b0392369161113f565b92160361144c575161143a57604051634f4e823d60e01b6020820152600481526112ef90611414816110a9565b7f0000000000000000000000000000000000000000000000000000000000000000611aaf565b604051635cb045db60e01b8152600490fd5b604051630a1824e360e01b8152600490fd5b5f8181525f805160206125668339815191526020908152604080832033845290915290205460ff161561148e5750565b6044906040519063e2517d3f60e01b82523360048301526024820152fd5b6001600160a01b0381165f9081527fb7db2dd08fcb62d0c9e08c51941cae53c267786a0b75803fb7960902fc8ef97d60205260409020545f805160206125668339815191529060ff16611557575f808052602091825260408082206001600160a01b038516835290925220805460ff1916600117905533906001600160a01b03165f7f2f8788117e7eff1d82e926ec794901d17c78024a50270940304540a733656f0d8180a4600190565b50505f90565b6001600160a01b0381165f9081527f03b26b53c87faa1058f30bb5d2fee64f717719a0d9b7e4f4df027aa5e9b6ed69602052604090207fbae4ee3de6c709ff9a002e774c5b78cb381560b219213c88ae0f1e207c03c023905f805160206125668339815191529060ff905b541661162c575f828152602091825260408082206001600160a01b038616835290925220805460ff1916600117905533916001600160a01b0316907f2f8788117e7eff1d82e926ec794901d17c78024a50270940304540a733656f0d5f80a4600190565b5050505f90565b6001600160a01b0381165f9081527f0287ab4cb376ea253d7b2ce0c2cbf458f7deae9458470d74afdfbbee484e9540602052604090207f9c56d972d63cbb4195b3c1484691dfc220fa96a4c47e7b6613bd82a022029e06905f805160206125668339815191529060ff906115c8565b6001600160a01b0381165f9081527fe41986b390c4ce6791b87f7423b5fab7a81a0e6d89660b6264f697d008b2243a602052604090207fc6aaadd7371d5e8f9ed6849dd66a66573a3ba37167d03f4352c9ba5693678fac905f805160206125668339815191529060ff906115c8565b6001600160a01b0381165f9081527f2d4ccbfe9f7672a6f2537c1e5bce6adacb73706879154bbab6ce096012d67216602052604090207f4a634bc14d77baf979756509ef4298c6f6318af357828612545267ee2eb79233905f805160206125668339815191529060ff906115c8565b6001600160a01b0381165f9081527f99e47f2907af87dbb5c62e22bd8ea822f5011dfd1e243469ce26ebebf3ab93e3602052604090207f591f6a0113ada8aff67efadec8ae2fa585cb4ebf4e1f8fc1205ffbeff98d00ec905f805160206125668339815191529060ff906115c8565b6001600160a01b0381165f9081527f82a1dc868a49801aa31c5dd393dc0b9005735300cdcd4bbc1af68215effcd6f8602052604090207fc9078c78bcaac2be1c77c160c539a489be2b72939771b1a6302fed3e2150c745905f805160206125668339815191529060ff906115c8565b6001600160a01b0381165f9081527f9aeaa4f1a9be826e331dea6728ca206744e0a34dccbc1d3da4a68acb8abf0363602052604090207f5295aaaa27fdd659293eafacbfafbc634c1b96298957e87de5f59308cdbfdad1905f805160206125668339815191529060ff906115c8565b5f8181525f80516020612566833981519152602081815260408084206001600160a01b038716855290915290912060ff906115c8565b5f8181525f80516020612566833981519152602081815260408084206001600160a01b03871685529091529091205460ff161561162c575f828152602091825260408082206001600160a01b038616835290925220805460ff1916905533916001600160a01b0316907ff6391f5c32d9c69d2a47ea670b442974b53935d1edc7fd64eb21e047a839171b5f80a4600190565b5f80516020612546833981519152546001600160a01b031633036119b557565b60405163118cdaa760e01b8152336004820152602490fd5b365f80375f8036817f00000000000000000000000000000000000000000000000000000000000000005af43d5f803e15611a05573d5ff35b3d5ffd5b60ff5f805160206125868339815191525460401c1615611a2557565b604051631afcd79f60e31b8152600490fd5b929192611a4382611124565b91611a5160405193846110c4565b829481845281830111610391578281602093845f96015e010152565b9080601f83011215610391578151611a8792602001611a37565b90565b9091611aa1611a879360408452604084019061133b565b91602081840391015261133b565b5f80611a8793602081519101845af4611ac661130c565b916123ab565b5190611ad7826106f0565b565b519065ffffffffffff8216820361039157565b5190811515820361039157565b81601f82011215610391578051916020916001600160401b0384116110a4578360051b9060405194611b2d858401876110c4565b85528380860192820101928311610391578301905b828210611b50575050505090565b8380918351611b5e816106f0565b815201910190611b42565b906020828203126103915781516001600160401b03928382116103915701906102408282031261039157611b9b6110e5565b92611ba583611acc565b8452611bb360208401611acc565b6020850152611bc460408401611ad9565b6040850152611bd560608401611aec565b6060850152611be660808401611aec565b608085015260a083015160a085015260c083015160c085015260e083015160e0850152610100611c17818501611acc565b90850152610120611c29818501611acc565b90850152610140611c3b818501611acc565b90850152610160611c4d818501611acc565b90850152610180918284015191821161039157611c6b918401611af9565b908301526101a0611c7d818301611acc565b908301526101c0611c8f818301611acc565b908301526101e0611ca1818301611acc565b90830152610200611cb3818301611acc565b90830152611cc5610220809201611acc565b9082015290565b8051821015611ce05760209160051b010190565b634e487b7160e01b5f52603260045260245ffd5b611d079060208082518301019101611b69565b805190916001600160a01b0391821615612399576040908184019065ffffffffffff611d39835165ffffffffffff1690565b16156123885761012085018051909490611d63906001600160a01b03165b6001600160a01b031690565b15612253575b6060860195611d7f611d7b8851151590565b1590565b80612244575b61223357610180810196955f5b88518051821015611e4357611d57611dad83611dba93611ccc565b516001600160a01b031690565b15611e3257611df3611dec611dd3611dad848d51611ccc565b6001600160a01b03165f90815260056020526040902090565b5460ff1690565b611e215780611e1b611e0e611dd3611dad6001958e51611ccc565b805460ff19166001179055565b01611d92565b865163a741a04560e01b8152600490fd5b8651630da30f6560e31b8152600490fd5b505093919592965093611e5f611d57855160018060a01b031690565b156120fb575b926120156120058694611fff611fda61204996611f3e6101c09a611f3960c06120a89e015191611f298d611f1960e082015193611f09611eaf61010085015160018060a01b031690565b6101e08501516001600160a01b0316610200860151909390611ee790610220906001600160a01b03169701516001600160a01b031690565b97611ef0611105565b9a8b5260208b01526001600160a01b0390911690890152565b6001600160a01b03166060870152565b6001600160a01b03166080850152565b6001600160a01b031660a0830152565b61240e565b8851611f75906001600160a01b03165f805462010000600160b01b03191660109290921b62010000600160b01b0316919091179055565b6020890151600180546001600160a01b0319166001600160a01b03909216919091179055611fce611fa542612513565b6001805465ffffffffffff60a01b191660a09290921b65ffffffffffff60a01b16919091179055565b5165ffffffffffff1690565b600180546001600160d01b031660d09290921b6001600160d01b031916919091179055565b51151590565b60ff80195f541691151516175f55565b61203c6120256080850151151590565b61ff005f5491151560081b169061ff001916175f55565b611dad60a0840151600455565b8481166120eb575b506101408101516001600160a01b03168481166120db575b506101608101516001600160a01b03168481166120cb575b506101a08101516001600160a01b03168481166120bb575b5001516001600160a01b031690565b9081166120b25750565b6112ef90611711565b6120c4906116a2565b505f612099565b6120d490611633565b505f612081565b6120e49061155d565b505f612069565b6120f4906114ac565b505f612051565b610100850151612113906001600160a01b0316611d57565b6121e25761020085015161212f906001600160a01b0316611d57565b6121a35761022085015161214b906001600160a01b0316611d57565b151580612197575b61218757926120156120056120a89694611fff611fda61204996611f3e6101c09a5b979a5050965050509496505050611e65565b51630331eb0f60e41b8152600490fd5b5060e085015115612153565b6102208501516121bb906001600160a01b0316611d57565b1561218757926120156120056120a89694611fff611fda61204996611f3e6101c09a612175565b6102008501516121fa906001600160a01b0316611d57565b1580612227575b61218757926120156120056120a89694611fff611fda61204996611f3e6101c09a612175565b5060e085015115612201565b845163ebf503c560e01b8152600490fd5b50610180810151511515611d85565b61014086015161226b906001600160a01b0316611d57565b15612323575b6101a0860151612289906001600160a01b0316611d57565b15612294575b611d69565b6080860151156122df5760a086015115806122c0575b15611d6957835163183c854560e21b8152600490fd5b506101c08601516122d9906001600160a01b0316611d57565b156122aa565b60a086015115801590612303575b1561228f57835163183c854560e21b8152600490fd5b506101c086015161231c906001600160a01b0316611d57565b15156122ed565b60608601511561235a57610160860151612345906001600160a01b0316611d57565b61227157835163183c854560e21b8152600490fd5b610160860151612372906001600160a01b0316611d57565b1561227157835163183c854560e21b8152600490fd5b82516368f5f8f160e11b8152600490fd5b6040516368f7a67560e11b8152600490fd5b906123d257508051156123c057805190602001fd5b60405163d6bda27560e01b8152600490fd5b81511580612405575b6123e3575090565b604051639996b31560e01b81526001600160a01b039091166004820152602490fd5b50803b156123db565b6003815110612501576040810180516001600160a01b03929190831615806124f4575b6124e2578161247b61245960a09361244c6124b69651600f55565b611dad6020850151601555565b60018060a01b03166bffffffffffffffffffffffff60a01b6016541617601655565b60608101516001600160a01b03168481166124d2575b5060808101516001600160a01b03168481166124c9575001516001600160a01b031690565b9081166124c05750565b6112ef9061185e565b6120c4906117ef565b6124db90611780565b505f612491565b604051630331eb0f60e41b8152600490fd5b5060208201511515612431565b6040516317a509b960e31b8152600490fd5b65ffffffffffff90818111612526571690565b604490604051906306dfcc6560e41b8252603060048301526024820152fdfe9016d09d72d40fdae2fd8ceac6b6234c7706214fd39c1cd1e609a0528c19930002dd7bc7dec4dceedda775e58dd541e08a116c6c53815c0bd028192f7b626800f0c57e16840df040f15088dc2f81fe391c3923bec73e23a9662efc9c229c6a00a26469706673582212203175b7da7f8fb28238db3064e4e120c76807fecbf99c7e8bacea01bf710669f064736f6c63430008190033","linkReferences":{}},"methodIdentifiers":{"DEFAULT_ADMIN_ROLE()":"a217fddf","DEPOSITOR_WHITELIST_ROLE()":"1b66c9e1","DEPOSIT_LIMIT_SET_ROLE()":"a21a1df9","DEPOSIT_WHITELIST_SET_ROLE()":"db388715","EPOCH_DURATION_SET_ROLE()":"61819dd8","FACTORY()":"2dd31000","FLASH_FEE_BASE()":"ecc98f05","FLASH_FEE_RATE_SET_ROLE()":"bc46f722","FLASH_FEE_RECEIVER_SET_ROLE()":"31d9736c","IS_DEPOSIT_LIMIT_SET_ROLE()":"1415519b","RETURN_VALUE()":"653b04cd","burner()":"27810b6e","collateral()":"d8dfeb45","delegator()":"ce9b7930","depositLimit()":"ecf70858","depositWhitelist()":"48d3b775","epochDurationInitInternal()":"64601402","epochDurationInternal()":"1e89bd8a","epochDurationSetEpochsDelayInternal()":"fcdc5b60","epochInitInternal()":"0fcaeb1b","flashFeeRate()":"e945da7f","flashFeeReceiver()":"a8b24f9a","getRoleAdmin(bytes32)":"248a9ca3","grantRole(bytes32,address)":"2f2ff15d","hasRole(bytes32,address)":"91d14854","initialize(uint64,address,bytes)":"57ec83cc","isDelegatorInitialized()":"50861adc","isDepositLimit()":"a1b12202","isDepositorWhitelisted(address)":"794b15b7","isSlasherInitialized()":"6ec1e3f8","isWithdrawalsClaimed(uint256,address)":"a5d03223","migrate(uint64,bytes)":"2abe3048","nextEpochDurationInitInternal()":"75d6c765","nextEpochDurationInternal()":"502b4d60","nextEpochDurationSetEpochsDelayInternal()":"bc4f8c05","nextEpochInitInternal()":"ddd0f28a","owner()":"8da5cb5b","prevEpochDurationInitInternal()":"8d30d7a7","prevEpochDurationInternal()":"7e84ec81","prevEpochInitInternal()":"d2356eb5","renounceOwnership()":"715018a6","renounceRole(bytes32,address)":"36568abe","revokeRole(bytes32,address)":"d547741f","slasher()":"b1344271","staticDelegateCall(address,bytes)":"9f86fd85","supportsInterface(bytes4)":"01ffc9a7","transferOwnership(address)":"f2fde38b","version()":"54fd4d50","withdrawalShares(uint256)":"afba70ad","withdrawalSharesOf(uint256,address)":"a3b54172","withdrawals(uint256)":"5cc07076"},"id":116}