{
  "abi": [
    {
      "type": "constructor",
      "inputs": [
        {
          "name": "vaultFactory",
          "type": "address",
          "internalType": "address"
        },
        {
          "name": "implementation",
          "type": "address",
          "internalType": "address"
        }
      ],
      "stateMutability": "nonpayable"
    },
    {
      "type": "fallback",
      "stateMutability": "payable"
    },
    {
      "type": "function",
      "name": "DEFAULT_ADMIN_ROLE",
      "inputs": [],
      "outputs": [
        {
          "name": "",
          "type": "bytes32",
          "internalType": "bytes32"
        }
      ],
      "stateMutability": "view"
    },
    {
      "type": "function",
      "name": "DEPOSITOR_WHITELIST_ROLE",
      "inputs": [],
      "outputs": [
        {
          "name": "",
          "type": "bytes32",
          "internalType": "bytes32"
        }
      ],
      "stateMutability": "view"
    },
    {
      "type": "function",
      "name": "DEPOSIT_LIMIT_SET_ROLE",
      "inputs": [],
      "outputs": [
        {
          "name": "",
          "type": "bytes32",
          "internalType": "bytes32"
        }
      ],
      "stateMutability": "view"
    },
    {
      "type": "function",
      "name": "DEPOSIT_WHITELIST_SET_ROLE",
      "inputs": [],
      "outputs": [
        {
          "name": "",
          "type": "bytes32",
          "internalType": "bytes32"
        }
      ],
      "stateMutability": "view"
    },
    {
      "type": "function",
      "name": "EPOCH_DURATION_SET_ROLE",
      "inputs": [],
      "outputs": [
        {
          "name": "",
          "type": "bytes32",
          "internalType": "bytes32"
        }
      ],
      "stateMutability": "view"
    },
    {
      "type": "function",
      "name": "FACTORY",
      "inputs": [],
      "outputs": [
        {
          "name": "",
          "type": "address",
          "internalType": "address"
        }
      ],
      "stateMutability": "view"
    },
    {
      "type": "function",
      "name": "FLASH_FEE_BASE",
      "inputs": [],
      "outputs": [
        {
          "name": "",
          "type": "uint256",
          "internalType": "uint256"
        }
      ],
      "stateMutability": "view"
    },
    {
      "type": "function",
      "name": "FLASH_FEE_RATE_SET_ROLE",
      "inputs": [],
      "outputs": [
        {
          "name": "",
          "type": "bytes32",
          "internalType": "bytes32"
        }
      ],
      "stateMutability": "view"
    },
    {
      "type": "function",
      "name": "FLASH_FEE_RECEIVER_SET_ROLE",
      "inputs": [],
      "outputs": [
        {
          "name": "",
          "type": "bytes32",
          "internalType": "bytes32"
        }
      ],
      "stateMutability": "view"
    },
    {
      "type": "function",
      "name": "FLASH_LOAN_ENABLED_SET_ROLE",
      "inputs": [],
      "outputs": [
        {
          "name": "",
          "type": "bytes32",
          "internalType": "bytes32"
        }
      ],
      "stateMutability": "view"
    },
    {
      "type": "function",
      "name": "IS_DEPOSIT_LIMIT_SET_ROLE",
      "inputs": [],
      "outputs": [
        {
          "name": "",
          "type": "bytes32",
          "internalType": "bytes32"
        }
      ],
      "stateMutability": "view"
    },
    {
      "type": "function",
      "name": "MIN_EXIT_WINDOW",
      "inputs": [],
      "outputs": [
        {
          "name": "",
          "type": "uint256",
          "internalType": "uint256"
        }
      ],
      "stateMutability": "view"
    },
    {
      "type": "function",
      "name": "RETURN_VALUE",
      "inputs": [],
      "outputs": [
        {
          "name": "",
          "type": "bytes32",
          "internalType": "bytes32"
        }
      ],
      "stateMutability": "view"
    },
    {
      "type": "function",
      "name": "_epochDuration",
      "inputs": [],
      "outputs": [
        {
          "name": "",
          "type": "uint48",
          "internalType": "uint48"
        }
      ],
      "stateMutability": "view"
    },
    {
      "type": "function",
      "name": "_epochDurationInit",
      "inputs": [],
      "outputs": [
        {
          "name": "",
          "type": "uint48",
          "internalType": "uint48"
        }
      ],
      "stateMutability": "view"
    },
    {
      "type": "function",
      "name": "_epochDurationInitIndex",
      "inputs": [],
      "outputs": [
        {
          "name": "",
          "type": "uint256",
          "internalType": "uint256"
        }
      ],
      "stateMutability": "view"
    },
    {
      "type": "function",
      "name": "_epochDurationSetEpochsDelay",
      "inputs": [],
      "outputs": [
        {
          "name": "",
          "type": "uint256",
          "internalType": "uint256"
        }
      ],
      "stateMutability": "view"
    },
    {
      "type": "function",
      "name": "_nextEpochDuration",
      "inputs": [],
      "outputs": [
        {
          "name": "",
          "type": "uint48",
          "internalType": "uint48"
        }
      ],
      "stateMutability": "view"
    },
    {
      "type": "function",
      "name": "_nextEpochDurationInit",
      "inputs": [],
      "outputs": [
        {
          "name": "",
          "type": "uint48",
          "internalType": "uint48"
        }
      ],
      "stateMutability": "view"
    },
    {
      "type": "function",
      "name": "_nextEpochDurationSetEpochsDelay",
      "inputs": [],
      "outputs": [
        {
          "name": "",
          "type": "uint256",
          "internalType": "uint256"
        }
      ],
      "stateMutability": "view"
    },
    {
      "type": "function",
      "name": "_nextEpochInitIndex",
      "inputs": [],
      "outputs": [
        {
          "name": "",
          "type": "uint256",
          "internalType": "uint256"
        }
      ],
      "stateMutability": "view"
    },
    {
      "type": "function",
      "name": "_prevEpochDuration",
      "inputs": [],
      "outputs": [
        {
          "name": "",
          "type": "uint48",
          "internalType": "uint48"
        }
      ],
      "stateMutability": "view"
    },
    {
      "type": "function",
      "name": "_prevEpochDurationInit",
      "inputs": [],
      "outputs": [
        {
          "name": "",
          "type": "uint48",
          "internalType": "uint48"
        }
      ],
      "stateMutability": "view"
    },
    {
      "type": "function",
      "name": "_prevEpochDurationInitIndex",
      "inputs": [],
      "outputs": [
        {
          "name": "",
          "type": "uint256",
          "internalType": "uint256"
        }
      ],
      "stateMutability": "view"
    },
    {
      "type": "function",
      "name": "burner",
      "inputs": [],
      "outputs": [
        {
          "name": "",
          "type": "address",
          "internalType": "address"
        }
      ],
      "stateMutability": "view"
    },
    {
      "type": "function",
      "name": "collateral",
      "inputs": [],
      "outputs": [
        {
          "name": "",
          "type": "address",
          "internalType": "address"
        }
      ],
      "stateMutability": "view"
    },
    {
      "type": "function",
      "name": "delegator",
      "inputs": [],
      "outputs": [
        {
          "name": "",
          "type": "address",
          "internalType": "address"
        }
      ],
      "stateMutability": "view"
    },
    {
      "type": "function",
      "name": "depositLimit",
      "inputs": [],
      "outputs": [
        {
          "name": "",
          "type": "uint256",
          "internalType": "uint256"
        }
      ],
      "stateMutability": "view"
    },
    {
      "type": "function",
      "name": "depositWhitelist",
      "inputs": [],
      "outputs": [
        {
          "name": "",
          "type": "bool",
          "internalType": "bool"
        }
      ],
      "stateMutability": "view"
    },
    {
      "type": "function",
      "name": "flashFeeRate",
      "inputs": [],
      "outputs": [
        {
          "name": "",
          "type": "uint256",
          "internalType": "uint256"
        }
      ],
      "stateMutability": "view"
    },
    {
      "type": "function",
      "name": "flashFeeReceiver",
      "inputs": [],
      "outputs": [
        {
          "name": "",
          "type": "address",
          "internalType": "address"
        }
      ],
      "stateMutability": "view"
    },
    {
      "type": "function",
      "name": "flashLoanEnabled",
      "inputs": [],
      "outputs": [
        {
          "name": "",
          "type": "bool",
          "internalType": "bool"
        }
      ],
      "stateMutability": "view"
    },
    {
      "type": "function",
      "name": "getRoleAdmin",
      "inputs": [
        {
          "name": "role",
          "type": "bytes32",
          "internalType": "bytes32"
        }
      ],
      "outputs": [
        {
          "name": "",
          "type": "bytes32",
          "internalType": "bytes32"
        }
      ],
      "stateMutability": "view"
    },
    {
      "type": "function",
      "name": "grantRole",
      "inputs": [
        {
          "name": "role",
          "type": "bytes32",
          "internalType": "bytes32"
        },
        {
          "name": "account",
          "type": "address",
          "internalType": "address"
        }
      ],
      "outputs": [],
      "stateMutability": "nonpayable"
    },
    {
      "type": "function",
      "name": "hasRole",
      "inputs": [
        {
          "name": "role",
          "type": "bytes32",
          "internalType": "bytes32"
        },
        {
          "name": "account",
          "type": "address",
          "internalType": "address"
        }
      ],
      "outputs": [
        {
          "name": "",
          "type": "bool",
          "internalType": "bool"
        }
      ],
      "stateMutability": "view"
    },
    {
      "type": "function",
      "name": "initialize",
      "inputs": [
        {
          "name": "initialVersion",
          "type": "uint64",
          "internalType": "uint64"
        },
        {
          "name": "owner_",
          "type": "address",
          "internalType": "address"
        },
        {
          "name": "data",
          "type": "bytes",
          "internalType": "bytes"
        }
      ],
      "outputs": [],
      "stateMutability": "nonpayable"
    },
    {
      "type": "function",
      "name": "isDelegatorInitialized",
      "inputs": [],
      "outputs": [
        {
          "name": "",
          "type": "bool",
          "internalType": "bool"
        }
      ],
      "stateMutability": "view"
    },
    {
      "type": "function",
      "name": "isDepositLimit",
      "inputs": [],
      "outputs": [
        {
          "name": "",
          "type": "bool",
          "internalType": "bool"
        }
      ],
      "stateMutability": "view"
    },
    {
      "type": "function",
      "name": "isDepositorWhitelisted",
      "inputs": [
        {
          "name": "account",
          "type": "address",
          "internalType": "address"
        }
      ],
      "outputs": [
        {
          "name": "value",
          "type": "bool",
          "internalType": "bool"
        }
      ],
      "stateMutability": "view"
    },
    {
      "type": "function",
      "name": "isSlasherInitialized",
      "inputs": [],
      "outputs": [
        {
          "name": "",
          "type": "bool",
          "internalType": "bool"
        }
      ],
      "stateMutability": "view"
    },
    {
      "type": "function",
      "name": "isWithdrawalsClaimed",
      "inputs": [
        {
          "name": "epoch",
          "type": "uint256",
          "internalType": "uint256"
        },
        {
          "name": "account",
          "type": "address",
          "internalType": "address"
        }
      ],
      "outputs": [
        {
          "name": "value",
          "type": "bool",
          "internalType": "bool"
        }
      ],
      "stateMutability": "view"
    },
    {
      "type": "function",
      "name": "migrate",
      "inputs": [
        {
          "name": "newVersion",
          "type": "uint64",
          "internalType": "uint64"
        },
        {
          "name": "data",
          "type": "bytes",
          "internalType": "bytes"
        }
      ],
      "outputs": [],
      "stateMutability": "nonpayable"
    },
    {
      "type": "function",
      "name": "owner",
      "inputs": [],
      "outputs": [
        {
          "name": "",
          "type": "address",
          "internalType": "address"
        }
      ],
      "stateMutability": "view"
    },
    {
      "type": "function",
      "name": "renounceOwnership",
      "inputs": [],
      "outputs": [],
      "stateMutability": "nonpayable"
    },
    {
      "type": "function",
      "name": "renounceRole",
      "inputs": [
        {
          "name": "role",
          "type": "bytes32",
          "internalType": "bytes32"
        },
        {
          "name": "callerConfirmation",
          "type": "address",
          "internalType": "address"
        }
      ],
      "outputs": [],
      "stateMutability": "nonpayable"
    },
    {
      "type": "function",
      "name": "revokeRole",
      "inputs": [
        {
          "name": "role",
          "type": "bytes32",
          "internalType": "bytes32"
        },
        {
          "name": "account",
          "type": "address",
          "internalType": "address"
        }
      ],
      "outputs": [],
      "stateMutability": "nonpayable"
    },
    {
      "type": "function",
      "name": "slasher",
      "inputs": [],
      "outputs": [
        {
          "name": "",
          "type": "address",
          "internalType": "address"
        }
      ],
      "stateMutability": "view"
    },
    {
      "type": "function",
      "name": "staticDelegateCall",
      "inputs": [
        {
          "name": "target",
          "type": "address",
          "internalType": "address"
        },
        {
          "name": "data",
          "type": "bytes",
          "internalType": "bytes"
        }
      ],
      "outputs": [],
      "stateMutability": "nonpayable"
    },
    {
      "type": "function",
      "name": "supportsInterface",
      "inputs": [
        {
          "name": "interfaceId",
          "type": "bytes4",
          "internalType": "bytes4"
        }
      ],
      "outputs": [
        {
          "name": "",
          "type": "bool",
          "internalType": "bool"
        }
      ],
      "stateMutability": "view"
    },
    {
      "type": "function",
      "name": "transferOwnership",
      "inputs": [
        {
          "name": "newOwner",
          "type": "address",
          "internalType": "address"
        }
      ],
      "outputs": [],
      "stateMutability": "nonpayable"
    },
    {
      "type": "function",
      "name": "version",
      "inputs": [],
      "outputs": [
        {
          "name": "",
          "type": "uint64",
          "internalType": "uint64"
        }
      ],
      "stateMutability": "view"
    },
    {
      "type": "function",
      "name": "withdrawalShares",
      "inputs": [
        {
          "name": "epoch",
          "type": "uint256",
          "internalType": "uint256"
        }
      ],
      "outputs": [
        {
          "name": "amount",
          "type": "uint256",
          "internalType": "uint256"
        }
      ],
      "stateMutability": "view"
    },
    {
      "type": "function",
      "name": "withdrawalSharesOf",
      "inputs": [
        {
          "name": "epoch",
          "type": "uint256",
          "internalType": "uint256"
        },
        {
          "name": "account",
          "type": "address",
          "internalType": "address"
        }
      ],
      "outputs": [
        {
          "name": "amount",
          "type": "uint256",
          "internalType": "uint256"
        }
      ],
      "stateMutability": "view"
    },
    {
      "type": "function",
      "name": "withdrawals",
      "inputs": [
        {
          "name": "epoch",
          "type": "uint256",
          "internalType": "uint256"
        }
      ],
      "outputs": [
        {
          "name": "amount",
          "type": "uint256",
          "internalType": "uint256"
        }
      ],
      "stateMutability": "view"
    },
    {
      "type": "event",
      "name": "Initialized",
      "inputs": [
        {
          "name": "version",
          "type": "uint64",
          "indexed": false,
          "internalType": "uint64"
        }
      ],
      "anonymous": false
    },
    {
      "type": "event",
      "name": "OwnershipTransferred",
      "inputs": [
        {
          "name": "previousOwner",
          "type": "address",
          "indexed": true,
          "internalType": "address"
        },
        {
          "name": "newOwner",
          "type": "address",
          "indexed": true,
          "internalType": "address"
        }
      ],
      "anonymous": false
    },
    {
      "type": "event",
      "name": "RoleAdminChanged",
      "inputs": [
        {
          "name": "role",
          "type": "bytes32",
          "indexed": true,
          "internalType": "bytes32"
        },
        {
          "name": "previousAdminRole",
          "type": "bytes32",
          "indexed": true,
          "internalType": "bytes32"
        },
        {
          "name": "newAdminRole",
          "type": "bytes32",
          "indexed": true,
          "internalType": "bytes32"
        }
      ],
      "anonymous": false
    },
    {
      "type": "event",
      "name": "RoleGranted",
      "inputs": [
        {
          "name": "role",
          "type": "bytes32",
          "indexed": true,
          "internalType": "bytes32"
        },
        {
          "name": "account",
          "type": "address",
          "indexed": true,
          "internalType": "address"
        },
        {
          "name": "sender",
          "type": "address",
          "indexed": true,
          "internalType": "address"
        }
      ],
      "anonymous": false
    },
    {
      "type": "event",
      "name": "RoleRevoked",
      "inputs": [
        {
          "name": "role",
          "type": "bytes32",
          "indexed": true,
          "internalType": "bytes32"
        },
        {
          "name": "account",
          "type": "address",
          "indexed": true,
          "internalType": "address"
        },
        {
          "name": "sender",
          "type": "address",
          "indexed": true,
          "internalType": "address"
        }
      ],
      "anonymous": false
    },
    {
      "type": "error",
      "name": "AccessControlBadConfirmation",
      "inputs": []
    },
    {
      "type": "error",
      "name": "AccessControlUnauthorizedAccount",
      "inputs": [
        {
          "name": "account",
          "type": "address",
          "internalType": "address"
        },
        {
          "name": "neededRole",
          "type": "bytes32",
          "internalType": "bytes32"
        }
      ]
    },
    {
      "type": "error",
      "name": "AddressEmptyCode",
      "inputs": [
        {
          "name": "target",
          "type": "address",
          "internalType": "address"
        }
      ]
    },
    {
      "type": "error",
      "name": "AlreadyInitialized",
      "inputs": []
    },
    {
      "type": "error",
      "name": "AlreadySet",
      "inputs": []
    },
    {
      "type": "error",
      "name": "FailedCall",
      "inputs": []
    },
    {
      "type": "error",
      "name": "InvalidAccount",
      "inputs": []
    },
    {
      "type": "error",
      "name": "InvalidCollateral",
      "inputs": []
    },
    {
      "type": "error",
      "name": "InvalidData",
      "inputs": []
    },
    {
      "type": "error",
      "name": "InvalidEpochDuration",
      "inputs": []
    },
    {
      "type": "error",
      "name": "InvalidEpochDurationSetEpochsDelay",
      "inputs": []
    },
    {
      "type": "error",
      "name": "InvalidFlashParams",
      "inputs": []
    },
    {
      "type": "error",
      "name": "InvalidInitialization",
      "inputs": []
    },
    {
      "type": "error",
      "name": "InvalidOrigin",
      "inputs": []
    },
    {
      "type": "error",
      "name": "MissingRoles",
      "inputs": []
    },
    {
      "type": "error",
      "name": "NoDepositWhitelist",
      "inputs": []
    },
    {
      "type": "error",
      "name": "NotFactory",
      "inputs": []
    },
    {
      "type": "error",
      "name": "NotInitialized",
      "inputs": []
    },
    {
      "type": "error",
      "name": "NotInitializing",
      "inputs": []
    },
    {
      "type": "error",
      "name": "OwnableInvalidOwner",
      "inputs": [
        {
          "name": "owner",
          "type": "address",
          "internalType": "address"
        }
      ]
    },
    {
      "type": "error",
      "name": "OwnableUnauthorizedAccount",
      "inputs": [
        {
          "name": "account",
          "type": "address",
          "internalType": "address"
        }
      ]
    },
    {
      "type": "error",
      "name": "ReentrancyGuardReentrantCall",
      "inputs": []
    },
    {
      "type": "error",
      "name": "SafeCastOverflowedUintDowncast",
      "inputs": [
        {
          "name": "bits",
          "type": "uint8",
          "internalType": "uint8"
        },
        {
          "name": "value",
          "type": "uint256",
          "internalType": "uint256"
        }
      ]
    }
  ],
  "bytecode": {
    "object": "0x60c034610123576128ee906001600160401b0390601f38849003908101601f19168201908382118383101761012757808391604096879485528339810103126101235761005760206100508361013b565b920161013b565b917ff0c57e16840df040f15088dc2f81fe391c3923bec73e23a9662efc9c229c6a009081549060ff82871c166101125780808316036100ce575b50505060805260a0525161279e9081610150823960805181818161056601526106d1015260a051818181611320015281816115060152611b010152f35b6001600160401b0319909116811790915583519081527fc7f505b2f371ae2175ee4913f4499e1f2633a7b5936321eed1cdaeb6115181d290602090a15f8080610091565b855163f92ee8a960e01b8152600490fd5b5f80fd5b634e487b7160e01b5f52604160045260245ffd5b51906001600160a01b03821682036101235756fe608060405260043610611af7575f3560e01c806301ffc9a71461036b5780631415519b146103665780631b66c9e114610361578063248a9ca31461035c5780632749f9c41461035757806327810b6e146103525780632abe30481461034d5780632dd31000146103485780632f2ff15d146103435780632fa27fae1461033e57806331d9736c1461033957806336568abe1461033457806348d3b7751461032f57806350861adc1461032a57806354fd4d501461032557806357ec83cc146103205780635a36aa741461031b5780635cc070761461031657806361819dd814610311578063653b04cd1461030c57806365d61c6c146103075780636e0f2455146103025780636ec1e3f8146102fd578063715018a6146102f8578063794b15b7146102f35780638da5cb5b146102ee57806391d14854146102e957806398ccba4a146102e45780639b4bae3e146102df5780639f86fd85146102da5780639f9962dd146102d5578063a1b12202146102d0578063a217fddf146102cb578063a21a1df9146102c6578063a3b54172146102c1578063a5d03223146102bc578063a66b3a73146102b7578063a8b24f9a146102b2578063afba70ad146102ad578063b1344271146102a8578063bba6ff4a146102a3578063bc46f7221461029e578063c1bc6f5114610299578063c4db46fc14610294578063cc52aee71461028f578063ce9b79301461028a578063d547741f14610285578063d8dfeb4514610280578063db3887151461027b578063e945da7f14610276578063ecc98f0514610271578063ecf708581461026c578063f151f6b5146102675763f2fde38b03611af7576110f4565b6110d7565b6110ba565b61109c565b61107f565b611045565b61101a565b610fce565b610fa6565b610f7e565b610f61565b610f39565b610eff565b610ee2565b610eba565b610e90565b610e68565b610e2e565b610de8565b610d9b565b610d61565b610d47565b610d23565b610cfb565b610c67565b610c4a565b610c2d565b610bcf565b610b9b565b610b5b565b610af4565b610acf565b610aaa565b610a85565b610a4b565b610a11565b6109e7565b6109bf565b61087a565b610848565b610823565b610802565b6107b7565b61077d565b61075d565b610711565b6106bc565b6104fa565b61048f565b610472565b610439565b6103ff565b6103c5565b346103c15760203660031901126103c15760043563ffffffff60e01b81168091036103c157602090637965db0b60e01b81149081156103b0575b506040519015158152f35b6301ffc9a760e01b1490505f6103a5565b5f80fd5b346103c1575f3660031901126103c15760206040517fc6aaadd7371d5e8f9ed6849dd66a66573a3ba37167d03f4352c9ba5693678fac8152f35b346103c1575f3660031901126103c15760206040517f9c56d972d63cbb4195b3c1484691dfc220fa96a4c47e7b6613bd82a022029e068152f35b346103c15760203660031901126103c1576004355f525f805160206127298339815191526020526020600160405f200154604051908152f35b346103c1575f3660031901126103c1576020601454604051908152f35b346103c1575f3660031901126103c1576001546040516001600160a01b039091168152602090f35b600435906001600160401b03821682036103c157565b9181601f840112156103c1578235916001600160401b0383116103c157602083818601950101116103c157565b346103c1576040806003193601126103c1576105146104b7565b906001600160401b036024358181116103c1576105359036906004016104cd565b917f9b779b17422d0df92223018b32b4d1fa46e071723d6817e2486d003becc55f0060028154146106ab57600290557f00000000000000000000000000000000000000000000000000000000000000006001600160a01b0316330361069a575f8051602061274983398151915280548281169260ff82881c16801561068e575b61067d5767ffffffffffffffff199091169087161790555f80516020612749833981519152805460ff60401b1916600160401b1790557fc7f505b2f371ae2175ee4913f4499e1f2633a7b5936321eed1cdaeb6115181d29461064f949093909261061e926114ac565b5f80516020612749833981519152805460ff60401b19169055516001600160401b0390911681529081906020820190565b0390a161067b60017f9b779b17422d0df92223018b32b4d1fa46e071723d6817e2486d003becc55f0055565b005b865163f92ee8a960e01b8152600490fd5b508088168410156105b5565b8351631966391b60e11b8152600490fd5b8451633ee5aeb560e01b8152600490fd5b346103c1575f3660031901126103c1576040517f00000000000000000000000000000000000000000000000000000000000000006001600160a01b03168152602090f35b6001600160a01b038116036103c157565b346103c15760403660031901126103c15761067b60243560043561073482610700565b805f525f80516020612729833981519152602052610758600160405f20015461154e565b6119bd565b346103c1575f3660031901126103c157602060015460d01c604051908152f35b346103c1575f3660031901126103c15760206040517f5295aaaa27fdd659293eafacbfafbc634c1b96298957e87de5f59308cdbfdad18152f35b346103c15760403660031901126103c1576024356107d481610700565b336001600160a01b038216036107f05761067b906004356119f3565b60405163334bd91960e11b8152600490fd5b346103c1575f3660031901126103c157602060ff5f54166040519015158152f35b346103c1575f3660031901126103c157602060ff60025460a01c166040519015158152f35b346103c1575f3660031901126103c15760206001600160401b035f805160206127498339815191525416604051908152f35b346103c15760603660031901126103c1576108936104b7565b60243561089f81610700565b6001600160401b03916044358381116103c1576108c09036906004016104cd565b5f805160206127498339815191529491855494838616806109ae5760ff8760401c169081156109a1575b5061098f577fc7f505b2f371ae2175ee4913f4499e1f2633a7b5936321eed1cdaeb6115181d29661098a96610957958716906001600160401b0319161790556109525f80516020612749833981519152600160401b68ff000000000000000019825416179055565b611207565b5f80516020612749833981519152805460ff60401b191690556040516001600160401b0390911681529081906020820190565b0390a1005b60405163f92ee8a960e01b8152600490fd5b905084861611155f6108ea565b60405162dc149f60e41b8152600490fd5b346103c1575f3660031901126103c157602065ffffffffffff60135460301c16604051908152f35b346103c15760203660031901126103c1576004355f526006602052602060405f2054604051908152f35b346103c1575f3660031901126103c15760206040517f591f6a0113ada8aff67efadec8ae2fa585cb4ebf4e1f8fc1205ffbeff98d00ec8152f35b346103c1575f3660031901126103c15760206040517f439148f0bbc682ca079e46d6e2c2f0c1e3b820f1a291b069d8882abf8cf18dd98152f35b346103c1575f3660031901126103c157602060ff60165460a01c166040519015158152f35b346103c1575f3660031901126103c157602065ffffffffffff60135416604051908152f35b346103c1575f3660031901126103c157602060ff60035460a01c166040519015158152f35b346103c1575f3660031901126103c157610b0c611abf565b5f8051602061270983398151915280546001600160a01b031981169091555f906001600160a01b03167f8be0079c531659141344cd1fd0a4f28419497f9722a3daafe3b4186f6b6457e08280a3005b346103c15760203660031901126103c157600435610b7881610700565b60018060a01b03165f526005602052602060ff60405f2054166040519015158152f35b346103c1575f3660031901126103c1575f80516020612709833981519152546040516001600160a01b039091168152602090f35b346103c15760403660031901126103c157602060ff610c21602435610bf381610700565b6004355f525f80516020612729833981519152845260405f209060018060a01b03165f5260205260405f2090565b54166040519015158152f35b346103c1575f3660031901126103c1576020601254604051908152f35b346103c1575f3660031901126103c1576020601154604051908152f35b346103c15760403660031901126103c157600435610c8481610700565b6024356001600160401b0381116103c1575f91610ca6839236906004016104cd565b90816040519283928337810184815203915af4610cf3610cc46113e8565b91610ce5604051938492151560208401526040808401526060830190611417565b03601f198101835282611155565b805190602001fd5b346103c1575f3660031901126103c157602065ffffffffffff60015460a01c16604051908152f35b346103c1575f3660031901126103c157602060ff5f5460081c166040519015158152f35b346103c1575f3660031901126103c15760206040515f8152f35b346103c1575f3660031901126103c15760206040517f4a634bc14d77baf979756509ef4298c6f6318af357828612545267ee2eb792338152f35b346103c15760403660031901126103c1576020610ddf602435610dbd81610700565b6004355f526008835260405f209060018060a01b03165f5260205260405f2090565b54604051908152f35b346103c15760403660031901126103c157602060ff610c21602435610e0c81610700565b6004355f526009845260405f209060018060a01b03165f5260205260405f2090565b346103c1575f3660031901126103c15760206040517fc9feed28b4b1a1d11c6791da7bb7f6b8d33e831a4992a9383dead1ec2c82c35a8152f35b346103c1575f3660031901126103c1576016546040516001600160a01b039091168152602090f35b346103c15760203660031901126103c1576004355f526007602052602060405f2054604051908152f35b346103c1575f3660031901126103c1576003546040516001600160a01b039091168152602090f35b346103c1575f3660031901126103c1576020600f54604051908152f35b346103c1575f3660031901126103c15760206040517fc9078c78bcaac2be1c77c160c539a489be2b72939771b1a6302fed3e2150c7458152f35b346103c1575f3660031901126103c157602065ffffffffffff60135460901c16604051908152f35b346103c1575f3660031901126103c1576020601054604051908152f35b346103c1575f3660031901126103c157602065ffffffffffff60135460601c16604051908152f35b346103c1575f3660031901126103c1576002546040516001600160a01b039091168152602090f35b346103c15760403660031901126103c15761067b602435600435610ff182610700565b805f525f80516020612729833981519152602052611015600160405f20015461154e565b6119f3565b346103c1575f3660031901126103c1575f5460405160109190911c6001600160a01b03168152602090f35b346103c1575f3660031901126103c15760206040517fbae4ee3de6c709ff9a002e774c5b78cb381560b219213c88ae0f1e207c03c0238152f35b346103c1575f3660031901126103c1576020601554604051908152f35b346103c1575f3660031901126103c1576020604051633b9aca008152f35b346103c1575f3660031901126103c1576020600454604051908152f35b346103c1575f3660031901126103c157602060405162093a808152f35b346103c15760203660031901126103c15761067b60043561111481610700565b61111c611abf565b61143b565b634e487b7160e01b5f52604160045260245ffd5b606081019081106001600160401b0382111761115057604052565b611121565b90601f801991011681019081106001600160401b0382111761115057604052565b6040519061028082018281106001600160401b0382111761115057604052565b6040519061010082018281106001600160401b0382111761115057604052565b6001600160401b03811161115057601f01601f191660200190565b9291926111dd826111b6565b916111eb6040519384611155565b8294818452818301116103c1578281602093845f960137010152565b9161125792611214611b33565b61121c611b33565b60017f9b779b17422d0df92223018b32b4d1fa46e071723d6817e2486d003becc55f00556001600160a01b0381166113ce575b5036916111d1565b8051602090820181810182848303126103c15782840151936001600160401b03948581116103c15760609101809303126103c15760409283519061129a82611135565b808401518681116103c157840183603f820112156103c157838187846112c39401519101611b61565b8252848401518681116103c15783826112de92870101611b97565b9381830194855260608101519687116103c1576113086113c694836113cb99611315940101611b97565b9286810193845251611e3f565b61139461138261138e7f000000000000000000000000000000000000000000000000000000000000000096519451946113548951968792878401611bb1565b0394611368601f1996878101835282611155565b8851630f7a015d60e31b8682015292839160248301611aab565b03858101835282611155565b85611bd6565b506113ba6113a0611a85565b9551958692630756082f60e11b9084015260248301611aab565b03908101845283611155565b611bd6565b50565b6113e2906113da611b33565b61111c611b33565b5f61124f565b3d15611412573d906113f9826111b6565b916114076040519384611155565b82523d5f602084013e565b606090565b805180835260209291819084018484015e5f828201840152601f01601f1916010190565b6001600160a01b03908116908115611494575f8051602061270983398151915280546001600160a01b031981168417909155167f8be0079c531659141344cd1fd0a4f28419497f9722a3daafe3b4186f6b6457e05f80a3565b604051631e4fbdf760e01b81525f6004820152602490fd5b916114c36004926001600160401b039236916111d1565b92160361153c575161152a576113cb610ce56115046114e0611a85565b604051928391630756082f60e11b6020840152602060248401526044830190611417565b7f0000000000000000000000000000000000000000000000000000000000000000611bd6565b604051635cb045db60e01b8152600490fd5b604051630a1824e360e01b8152600490fd5b5f8181525f805160206127298339815191526020908152604080832033845290915290205460ff161561157e5750565b6044906040519063e2517d3f60e01b82523360048301526024820152fd5b6001600160a01b0381165f9081527fb7db2dd08fcb62d0c9e08c51941cae53c267786a0b75803fb7960902fc8ef97d60205260409020545f805160206127298339815191529060ff16611647575f808052602091825260408082206001600160a01b038516835290925220805460ff1916600117905533906001600160a01b03165f7f2f8788117e7eff1d82e926ec794901d17c78024a50270940304540a733656f0d8180a4600190565b50505f90565b6001600160a01b0381165f9081527f03b26b53c87faa1058f30bb5d2fee64f717719a0d9b7e4f4df027aa5e9b6ed69602052604090207fbae4ee3de6c709ff9a002e774c5b78cb381560b219213c88ae0f1e207c03c023905f805160206127298339815191529060ff905b541661171c575f828152602091825260408082206001600160a01b038616835290925220805460ff1916600117905533916001600160a01b0316907f2f8788117e7eff1d82e926ec794901d17c78024a50270940304540a733656f0d5f80a4600190565b5050505f90565b6001600160a01b0381165f9081527f0287ab4cb376ea253d7b2ce0c2cbf458f7deae9458470d74afdfbbee484e9540602052604090207f9c56d972d63cbb4195b3c1484691dfc220fa96a4c47e7b6613bd82a022029e06905f805160206127298339815191529060ff906116b8565b6001600160a01b0381165f9081527fe41986b390c4ce6791b87f7423b5fab7a81a0e6d89660b6264f697d008b2243a602052604090207fc6aaadd7371d5e8f9ed6849dd66a66573a3ba37167d03f4352c9ba5693678fac905f805160206127298339815191529060ff906116b8565b6001600160a01b0381165f9081527f2d4ccbfe9f7672a6f2537c1e5bce6adacb73706879154bbab6ce096012d67216602052604090207f4a634bc14d77baf979756509ef4298c6f6318af357828612545267ee2eb79233905f805160206127298339815191529060ff906116b8565b6001600160a01b0381165f9081527f99e47f2907af87dbb5c62e22bd8ea822f5011dfd1e243469ce26ebebf3ab93e3602052604090207f591f6a0113ada8aff67efadec8ae2fa585cb4ebf4e1f8fc1205ffbeff98d00ec905f805160206127298339815191529060ff906116b8565b6001600160a01b0381165f9081527f82a1dc868a49801aa31c5dd393dc0b9005735300cdcd4bbc1af68215effcd6f8602052604090207fc9078c78bcaac2be1c77c160c539a489be2b72939771b1a6302fed3e2150c745905f805160206127298339815191529060ff906116b8565b6001600160a01b0381165f9081527f9aeaa4f1a9be826e331dea6728ca206744e0a34dccbc1d3da4a68acb8abf0363602052604090207f5295aaaa27fdd659293eafacbfafbc634c1b96298957e87de5f59308cdbfdad1905f805160206127298339815191529060ff906116b8565b5f8181525f80516020612729833981519152602081815260408084206001600160a01b038716855290915290912060ff906116b8565b5f8181525f80516020612729833981519152602081815260408084206001600160a01b03871685529091529091205460ff161561171c575f828152602091825260408082206001600160a01b038616835290925220805460ff1916905533916001600160a01b0316907ff6391f5c32d9c69d2a47ea670b442974b53935d1edc7fd64eb21e047a839171b5f80a4600190565b604051602081018181106001600160401b03821117611150576040525f8152905f368137565b906020611abc928181520190611417565b90565b5f80516020612709833981519152546001600160a01b03163303611adf57565b60405163118cdaa760e01b8152336004820152602490fd5b365f80375f8036817f00000000000000000000000000000000000000000000000000000000000000005af43d5f803e15611b2f573d5ff35b3d5ffd5b60ff5f805160206127498339815191525460401c1615611b4f57565b604051631afcd79f60e31b8152600490fd5b929192611b6d826111b6565b91611b7b6040519384611155565b8294818452818301116103c1578281602093845f96015e010152565b9080601f830112156103c1578151611abc92602001611b61565b9091611bc8611abc93604084526040840190611417565b916020818403910152611417565b5f80611abc93602081519101845af4611bed6113e8565b9161253f565b5190611bfe82610700565b565b519065ffffffffffff821682036103c157565b519081151582036103c157565b81601f820112156103c1578051916020916001600160401b038411611150578360051b9060405194611c5485840187611155565b855283808601928201019283116103c1578301905b828210611c77575050505090565b8380918351611c8581610700565b815201910190611c69565b906020828203126103c15781516001600160401b03928382116103c1570190610280828203126103c157611cc2611176565b92611ccc83611bf3565b8452611cda60208401611bf3565b6020850152611ceb60408401611c00565b6040850152611cfc60608401611c13565b6060850152611d0d60808401611c13565b608085015260a083015160a085015260c083015160c0850152611d3260e08401611c13565b60e08501526101008084015190850152610120611d50818501611bf3565b90850152610140611d62818501611bf3565b90850152610160611d74818501611bf3565b90850152610180611d86818501611bf3565b908501526101a091828401519182116103c157611da4918401611c20565b908301526101c0611db6818301611bf3565b908301526101e0611dc8818301611bf3565b90830152610200611dda818301611bf3565b90830152610220611dec818301611bf3565b90830152610240611dfe818301611bf3565b90830152611e10610260809201611bf3565b9082015290565b8051821015611e2b5760209160051b010190565b634e487b7160e01b5f52603260045260245ffd5b611e529060208082518301019101611c90565b805190916001600160a01b039182161561252d576040908184019065ffffffffffff611e84835165ffffffffffff1690565b161561251c5761014085018051909490611eae906001600160a01b03165b6001600160a01b031690565b156123e7575b6060860195611eca611ec68851151590565b1590565b806123d8575b6123c7576101a0810196955f5b88518051821015611f8e57611ea2611ef883611f0593611e17565b516001600160a01b031690565b15611f7d57611f3e611f37611f1e611ef8848d51611e17565b6001600160a01b03165f90815260056020526040902090565b5460ff1690565b611f6c5780611f66611f59611f1e611ef86001958e51611e17565b805460ff19166001179055565b01611edd565b865163a741a04560e01b8152600490fd5b8651630da30f6560e31b8152600490fd5b505093919592965093611faa611ea2855160018060a01b031690565b15612221575b60c08501519060e0860151611fc490151590565b6101008701516101208801516102008901516102208a01516102408b01516102608c01516001600160a01b039081169791811696928116959381169416929161200b611196565b988952151560208901528701526001600160a01b031660608601526001600160a01b031660808501526001600160a01b031660a08401526001600160a01b031660c08301526001600160a01b031660e0820152612067906125a2565b83516001600160a01b03165f805462010000600160b01b03191660109290921b62010000600160b01b031691909117905560208401516001600160a01b0316600180546001600160a01b0319166001600160a01b039092169190911790556120ce426126d6565b6001805465ffffffffffff60a01b191660a09290921b65ffffffffffff60a01b169190911790555165ffffffffffff16600180546001600160d01b031660d09290921b6001600160d01b0319169190911790555115156121389060ff80195f541691151516175f55565b60808201515f805461ff00191691151560081b61ff001691909117905560a0820151600455516001600160a01b03166121ce916101e091808516612211575b506101608101516001600160a01b0316848116612201575b506101808101516001600160a01b03168481166121f1575b506101c08101516001600160a01b03168481166121e1575b5001516001600160a01b031690565b9081166121d85750565b6113cb90611801565b6121ea90611792565b505f6121bf565b6121fa90611723565b505f6121a7565b61220a9061164d565b505f61218f565b61221a9061159c565b505f612177565b60e08501511561231757610120850151612243906001600160a01b0316611ea2565b6122d65761024085015161225f906001600160a01b0316611ea2565b6122aa5761026085015161227b906001600160a01b0316611ea2565b15158061229d575b61228d575b611fb0565b51630331eb0f60e41b8152600490fd5b5061010085015115612283565b6102608501516122c2906001600160a01b0316611ea2565b6122885751630331eb0f60e41b8152600490fd5b6102408501516122ee906001600160a01b0316611ea2565b158061230a575b156122885751630331eb0f60e41b8152600490fd5b50610100850151156122f5565b61022085015161232f906001600160a01b0316611ea2565b158061234b575b15611fb05751630331eb0f60e41b8152600490fd5b50610120850151612364906001600160a01b0316611ea2565b158015906123b9575b8015612399575b806123365750610240850151612392906001600160a01b0316611ea2565b1515612336565b506102608501516123b2906001600160a01b0316611ea2565b1515612374565b50610100850151151561236d565b845163ebf503c560e01b8152600490fd5b506101a0810151511515611ed0565b6101608601516123ff906001600160a01b0316611ea2565b156124b7575b6101c086015161241d906001600160a01b0316611ea2565b15612428575b611eb4565b6080860151156124735760a08601511580612454575b15611eb457835163183c854560e21b8152600490fd5b506101e086015161246d906001600160a01b0316611ea2565b1561243e565b60a086015115801590612497575b1561242357835163183c854560e21b8152600490fd5b506101e08601516124b0906001600160a01b0316611ea2565b1515612481565b6060860151156124ee576101808601516124d9906001600160a01b0316611ea2565b61240557835163183c854560e21b8152600490fd5b610180860151612506906001600160a01b0316611ea2565b1561240557835163183c854560e21b8152600490fd5b82516368f5f8f160e11b8152600490fd5b6040516368f7a67560e11b8152600490fd5b90612566575080511561255457805190602001fd5b60405163d6bda27560e01b8152600490fd5b81511580612599575b612577575090565b604051639996b31560e01b81526001600160a01b039091166004820152602490fd5b50803b1561256f565b60038151106126c4576060810180516001600160a01b03929190831615806126b7575b6126a5578161263e61261c60e0936125e06126799651600f55565b61260f6125f06020860151151590565b6016805460ff60a01b191691151560a01b60ff60a01b16919091179055565b611ef86040850151601555565b60018060a01b03166bffffffffffffffffffffffff60a01b6016541617601655565b60808101516001600160a01b0316848116612695575b5060c08101516001600160a01b031684811661268c575001516001600160a01b031690565b9081166126835750565b6113cb9061194e565b6121ea906118df565b61269e90611870565b505f612654565b604051630331eb0f60e41b8152600490fd5b50604082015115156125c5565b6040516317a509b960e31b8152600490fd5b65ffffffffffff908181116126e9571690565b604490604051906306dfcc6560e41b8252603060048301526024820152fdfe9016d09d72d40fdae2fd8ceac6b6234c7706214fd39c1cd1e609a0528c19930002dd7bc7dec4dceedda775e58dd541e08a116c6c53815c0bd028192f7b626800f0c57e16840df040f15088dc2f81fe391c3923bec73e23a9662efc9c229c6a00a26469706673582212200088f9a672d8ce1397c106a4fa871e3ce1007d6cc814418c7a18d3e05a36339764736f6c63430008190033",
    "linkReferences": {}
  },
  "methodIdentifiers": {
    "DEFAULT_ADMIN_ROLE()": "a217fddf",
    "DEPOSITOR_WHITELIST_ROLE()": "1b66c9e1",
    "DEPOSIT_LIMIT_SET_ROLE()": "a21a1df9",
    "DEPOSIT_WHITELIST_SET_ROLE()": "db388715",
    "EPOCH_DURATION_SET_ROLE()": "61819dd8",
    "FACTORY()": "2dd31000",
    "FLASH_FEE_BASE()": "ecc98f05",
    "FLASH_FEE_RATE_SET_ROLE()": "bc46f722",
    "FLASH_FEE_RECEIVER_SET_ROLE()": "31d9736c",
    "FLASH_LOAN_ENABLED_SET_ROLE()": "a66b3a73",
    "IS_DEPOSIT_LIMIT_SET_ROLE()": "1415519b",
    "MIN_EXIT_WINDOW()": "f151f6b5",
    "RETURN_VALUE()": "653b04cd",
    "_epochDuration()": "2fa27fae",
    "_epochDurationInit()": "9f9962dd",
    "_epochDurationInitIndex()": "9b4bae3e",
    "_epochDurationSetEpochsDelay()": "bba6ff4a",
    "_nextEpochDuration()": "c1bc6f51",
    "_nextEpochDurationInit()": "cc52aee7",
    "_nextEpochDurationSetEpochsDelay()": "c4db46fc",
    "_nextEpochInitIndex()": "2749f9c4",
    "_prevEpochDuration()": "5a36aa74",
    "_prevEpochDurationInit()": "6e0f2455",
    "_prevEpochDurationInitIndex()": "98ccba4a",
    "burner()": "27810b6e",
    "collateral()": "d8dfeb45",
    "delegator()": "ce9b7930",
    "depositLimit()": "ecf70858",
    "depositWhitelist()": "48d3b775",
    "flashFeeRate()": "e945da7f",
    "flashFeeReceiver()": "a8b24f9a",
    "flashLoanEnabled()": "65d61c6c",
    "getRoleAdmin(bytes32)": "248a9ca3",
    "grantRole(bytes32,address)": "2f2ff15d",
    "hasRole(bytes32,address)": "91d14854",
    "initialize(uint64,address,bytes)": "57ec83cc",
    "isDelegatorInitialized()": "50861adc",
    "isDepositLimit()": "a1b12202",
    "isDepositorWhitelisted(address)": "794b15b7",
    "isSlasherInitialized()": "6ec1e3f8",
    "isWithdrawalsClaimed(uint256,address)": "a5d03223",
    "migrate(uint64,bytes)": "2abe3048",
    "owner()": "8da5cb5b",
    "renounceOwnership()": "715018a6",
    "renounceRole(bytes32,address)": "36568abe",
    "revokeRole(bytes32,address)": "d547741f",
    "slasher()": "b1344271",
    "staticDelegateCall(address,bytes)": "9f86fd85",
    "supportsInterface(bytes4)": "01ffc9a7",
    "transferOwnership(address)": "f2fde38b",
    "version()": "54fd4d50",
    "withdrawalShares(uint256)": "afba70ad",
    "withdrawalSharesOf(uint256,address)": "a3b54172",
    "withdrawals(uint256)": "5cc07076"
  },
  "id": 134
}