{"abi":[{"type":"constructor","inputs":[{"name":"vaultFactory","type":"address","internalType":"address"},{"name":"implementation","type":"address","internalType":"address"}],"stateMutability":"nonpayable"},{"type":"fallback","stateMutability":"payable"},{"type":"function","name":"DEFAULT_ADMIN_ROLE","inputs":[],"outputs":[{"name":"","type":"bytes32","internalType":"bytes32"}],"stateMutability":"view"},{"type":"function","name":"DEPOSITOR_WHITELIST_ROLE","inputs":[],"outputs":[{"name":"","type":"bytes32","internalType":"bytes32"}],"stateMutability":"view"},{"type":"function","name":"DEPOSIT_LIMIT_SET_ROLE","inputs":[],"outputs":[{"name":"","type":"bytes32","internalType":"bytes32"}],"stateMutability":"view"},{"type":"function","name":"DEPOSIT_WHITELIST_SET_ROLE","inputs":[],"outputs":[{"name":"","type":"bytes32","internalType":"bytes32"}],"stateMutability":"view"},{"type":"function","name":"EPOCH_DURATION_SET_ROLE","inputs":[],"outputs":[{"name":"","type":"bytes32","internalType":"bytes32"}],"stateMutability":"view"},{"type":"function","name":"FACTORY","inputs":[],"outputs":[{"name":"","type":"address","internalType":"address"}],"stateMutability":"view"},{"type":"function","name":"FLASH_FEE_BASE","inputs":[],"outputs":[{"name":"","type":"uint256","internalType":"uint256"}],"stateMutability":"view"},{"type":"function","name":"FLASH_FEE_RATE_SET_ROLE","inputs":[],"outputs":[{"name":"","type":"bytes32","internalType":"bytes32"}],"stateMutability":"view"},{"type":"function","name":"FLASH_FEE_RECEIVER_SET_ROLE","inputs":[],"outputs":[{"name":"","type":"bytes32","internalType":"bytes32"}],"stateMutability":"view"},{"type":"function","name":"IS_DEPOSIT_LIMIT_SET_ROLE","inputs":[],"outputs":[{"name":"","type":"bytes32","internalType":"bytes32"}],"stateMutability":"view"},{"type":"function","name":"MIN_EXIT_WINDOW","inputs":[],"outputs":[{"name":"","type":"uint256","internalType":"uint256"}],"stateMutability":"view"},{"type":"function","name":"RETURN_VALUE","inputs":[],"outputs":[{"name":"","type":"bytes32","internalType":"bytes32"}],"stateMutability":"view"},{"type":"function","name":"_epochDuration","inputs":[],"outputs":[{"name":"","type":"uint48","internalType":"uint48"}],"stateMutability":"view"},{"type":"function","name":"_epochDurationInit","inputs":[],"outputs":[{"name":"","type":"uint48","internalType":"uint48"}],"stateMutability":"view"},{"type":"function","name":"_epochDurationInitIndex","inputs":[],"outputs":[{"name":"","type":"uint256","internalType":"uint256"}],"stateMutability":"view"},{"type":"function","name":"_epochDurationSetEpochsDelay","inputs":[],"outputs":[{"name":"","type":"uint256","internalType":"uint256"}],"stateMutability":"view"},{"type":"function","name":"_nextEpochDuration","inputs":[],"outputs":[{"name":"","type":"uint48","internalType":"uint48"}],"stateMutability":"view"},{"type":"function","name":"_nextEpochDurationInit","inputs":[],"outputs":[{"name":"","type":"uint48","internalType":"uint48"}],"stateMutability":"view"},{"type":"function","name":"_nextEpochDurationSetEpochsDelay","inputs":[],"outputs":[{"name":"","type":"uint256","internalType":"uint256"}],"stateMutability":"view"},{"type":"function","name":"_nextEpochInitIndex","inputs":[],"outputs":[{"name":"","type":"uint256","internalType":"uint256"}],"stateMutability":"view"},{"type":"function","name":"_prevEpochDuration","inputs":[],"outputs":[{"name":"","type":"uint48","internalType":"uint48"}],"stateMutability":"view"},{"type":"function","name":"_prevEpochDurationInit","inputs":[],"outputs":[{"name":"","type":"uint48","internalType":"uint48"}],"stateMutability":"view"},{"type":"function","name":"_prevEpochDurationInitIndex","inputs":[],"outputs":[{"name":"","type":"uint256","internalType":"uint256"}],"stateMutability":"view"},{"type":"function","name":"burner","inputs":[],"outputs":[{"name":"","type":"address","internalType":"address"}],"stateMutability":"view"},{"type":"function","name":"collateral","inputs":[],"outputs":[{"name":"","type":"address","internalType":"address"}],"stateMutability":"view"},{"type":"function","name":"delegator","inputs":[],"outputs":[{"name":"","type":"address","internalType":"address"}],"stateMutability":"view"},{"type":"function","name":"depositLimit","inputs":[],"outputs":[{"name":"","type":"uint256","internalType":"uint256"}],"stateMutability":"view"},{"type":"function","name":"depositWhitelist","inputs":[],"outputs":[{"name":"","type":"bool","internalType":"bool"}],"stateMutability":"view"},{"type":"function","name":"flashFeeRate","inputs":[],"outputs":[{"name":"","type":"uint256","internalType":"uint256"}],"stateMutability":"view"},{"type":"function","name":"flashFeeReceiver","inputs":[],"outputs":[{"name":"","type":"address","internalType":"address"}],"stateMutability":"view"},{"type":"function","name":"getRoleAdmin","inputs":[{"name":"role","type":"bytes32","internalType":"bytes32"}],"outputs":[{"name":"","type":"bytes32","internalType":"bytes32"}],"stateMutability":"view"},{"type":"function","name":"grantRole","inputs":[{"name":"role","type":"bytes32","internalType":"bytes32"},{"name":"account","type":"address","internalType":"address"}],"outputs":[],"stateMutability":"nonpayable"},{"type":"function","name":"hasRole","inputs":[{"name":"role","type":"bytes32","internalType":"bytes32"},{"name":"account","type":"address","internalType":"address"}],"outputs":[{"name":"","type":"bool","internalType":"bool"}],"stateMutability":"view"},{"type":"function","name":"initialize","inputs":[{"name":"initialVersion","type":"uint64","internalType":"uint64"},{"name":"owner_","type":"address","internalType":"address"},{"name":"data","type":"bytes","internalType":"bytes"}],"outputs":[],"stateMutability":"nonpayable"},{"type":"function","name":"isDelegatorInitialized","inputs":[],"outputs":[{"name":"","type":"bool","internalType":"bool"}],"stateMutability":"view"},{"type":"function","name":"isDepositLimit","inputs":[],"outputs":[{"name":"","type":"bool","internalType":"bool"}],"stateMutability":"view"},{"type":"function","name":"isDepositorWhitelisted","inputs":[{"name":"account","type":"address","internalType":"address"}],"outputs":[{"name":"value","type":"bool","internalType":"bool"}],"stateMutability":"view"},{"type":"function","name":"isSlasherInitialized","inputs":[],"outputs":[{"name":"","type":"bool","internalType":"bool"}],"stateMutability":"view"},{"type":"function","name":"isWithdrawalsClaimed","inputs":[{"name":"epoch","type":"uint256","internalType":"uint256"},{"name":"account","type":"address","internalType":"address"}],"outputs":[{"name":"value","type":"bool","internalType":"bool"}],"stateMutability":"view"},{"type":"function","name":"migrate","inputs":[{"name":"newVersion","type":"uint64","internalType":"uint64"},{"name":"data","type":"bytes","internalType":"bytes"}],"outputs":[],"stateMutability":"nonpayable"},{"type":"function","name":"owner","inputs":[],"outputs":[{"name":"","type":"address","internalType":"address"}],"stateMutability":"view"},{"type":"function","name":"renounceOwnership","inputs":[],"outputs":[],"stateMutability":"nonpayable"},{"type":"function","name":"renounceRole","inputs":[{"name":"role","type":"bytes32","internalType":"bytes32"},{"name":"callerConfirmation","type":"address","internalType":"address"}],"outputs":[],"stateMutability":"nonpayable"},{"type":"function","name":"revokeRole","inputs":[{"name":"role","type":"bytes32","internalType":"bytes32"},{"name":"account","type":"address","internalType":"address"}],"outputs":[],"stateMutability":"nonpayable"},{"type":"function","name":"slasher","inputs":[],"outputs":[{"name":"","type":"address","internalType":"address"}],"stateMutability":"view"},{"type":"function","name":"staticDelegateCall","inputs":[{"name":"target","type":"address","internalType":"address"},{"name":"data","type":"bytes","internalType":"bytes"}],"outputs":[],"stateMutability":"nonpayable"},{"type":"function","name":"supportsInterface","inputs":[{"name":"interfaceId","type":"bytes4","internalType":"bytes4"}],"outputs":[{"name":"","type":"bool","internalType":"bool"}],"stateMutability":"view"},{"type":"function","name":"transferOwnership","inputs":[{"name":"newOwner","type":"address","internalType":"address"}],"outputs":[],"stateMutability":"nonpayable"},{"type":"function","name":"version","inputs":[],"outputs":[{"name":"","type":"uint64","internalType":"uint64"}],"stateMutability":"view"},{"type":"function","name":"withdrawalShares","inputs":[{"name":"epoch","type":"uint256","internalType":"uint256"}],"outputs":[{"name":"amount","type":"uint256","internalType":"uint256"}],"stateMutability":"view"},{"type":"function","name":"withdrawalSharesOf","inputs":[{"name":"epoch","type":"uint256","internalType":"uint256"},{"name":"account","type":"address","internalType":"address"}],"outputs":[{"name":"amount","type":"uint256","internalType":"uint256"}],"stateMutability":"view"},{"type":"function","name":"withdrawals","inputs":[{"name":"epoch","type":"uint256","internalType":"uint256"}],"outputs":[{"name":"amount","type":"uint256","internalType":"uint256"}],"stateMutability":"view"},{"type":"event","name":"Initialized","inputs":[{"name":"version","type":"uint64","indexed":false,"internalType":"uint64"}],"anonymous":false},{"type":"event","name":"OwnershipTransferred","inputs":[{"name":"previousOwner","type":"address","indexed":true,"internalType":"address"},{"name":"newOwner","type":"address","indexed":true,"internalType":"address"}],"anonymous":false},{"type":"event","name":"RoleAdminChanged","inputs":[{"name":"role","type":"bytes32","indexed":true,"internalType":"bytes32"},{"name":"previousAdminRole","type":"bytes32","indexed":true,"internalType":"bytes32"},{"name":"newAdminRole","type":"bytes32","indexed":true,"internalType":"bytes32"}],"anonymous":false},{"type":"event","name":"RoleGranted","inputs":[{"name":"role","type":"bytes32","indexed":true,"internalType":"bytes32"},{"name":"account","type":"address","indexed":true,"internalType":"address"},{"name":"sender","type":"address","indexed":true,"internalType":"address"}],"anonymous":false},{"type":"event","name":"RoleRevoked","inputs":[{"name":"role","type":"bytes32","indexed":true,"internalType":"bytes32"},{"name":"account","type":"address","indexed":true,"internalType":"address"},{"name":"sender","type":"address","indexed":true,"internalType":"address"}],"anonymous":false},{"type":"error","name":"AccessControlBadConfirmation","inputs":[]},{"type":"error","name":"AccessControlUnauthorizedAccount","inputs":[{"name":"account","type":"address","internalType":"address"},{"name":"neededRole","type":"bytes32","internalType":"bytes32"}]},{"type":"error","name":"AddressEmptyCode","inputs":[{"name":"target","type":"address","internalType":"address"}]},{"type":"error","name":"AlreadyInitialized","inputs":[]},{"type":"error","name":"AlreadySet","inputs":[]},{"type":"error","name":"FailedCall","inputs":[]},{"type":"error","name":"InvalidAccount","inputs":[]},{"type":"error","name":"InvalidCollateral","inputs":[]},{"type":"error","name":"InvalidData","inputs":[]},{"type":"error","name":"InvalidEpochDuration","inputs":[]},{"type":"error","name":"InvalidEpochDurationSetEpochsDelay","inputs":[]},{"type":"error","name":"InvalidFlashParams","inputs":[]},{"type":"error","name":"InvalidInitialization","inputs":[]},{"type":"error","name":"InvalidOrigin","inputs":[]},{"type":"error","name":"MissingRoles","inputs":[]},{"type":"error","name":"NoDepositWhitelist","inputs":[]},{"type":"error","name":"NotFactory","inputs":[]},{"type":"error","name":"NotInitialized","inputs":[]},{"type":"error","name":"NotInitializing","inputs":[]},{"type":"error","name":"OwnableInvalidOwner","inputs":[{"name":"owner","type":"address","internalType":"address"}]},{"type":"error","name":"OwnableUnauthorizedAccount","inputs":[{"name":"account","type":"address","internalType":"address"}]},{"type":"error","name":"ReentrancyGuardReentrantCall","inputs":[]},{"type":"error","name":"SafeCastOverflowedUintDowncast","inputs":[{"name":"bits","type":"uint8","internalType":"uint8"},{"name":"value","type":"uint256","internalType":"uint256"}]}],"bytecode":{"object":"0x60c03461012357612758906001600160401b0390601f38849003908101601f19168201908382118383101761012757808391604096879485528339810103126101235761005760206100508361013b565b920161013b565b917ff0c57e16840df040f15088dc2f81fe391c3923bec73e23a9662efc9c229c6a009081549060ff82871c166101125780808316036100ce575b50505060805260a052516126089081610150823960805181818161054601526106b1015260a0518181816112b4015281816114430152611a040152f35b6001600160401b0319909116811790915583519081527fc7f505b2f371ae2175ee4913f4499e1f2633a7b5936321eed1cdaeb6115181d290602090a15f8080610091565b855163f92ee8a960e01b8152600490fd5b5f80fd5b634e487b7160e01b5f52604160045260245ffd5b51906001600160a01b03821682036101235756fe6080604052600436106119fa575f3560e01c806301ffc9a71461034b5780631415519b146103465780631b66c9e114610341578063248a9ca31461033c5780632749f9c41461033757806327810b6e146103325780632abe30481461032d5780632dd31000146103285780632f2ff15d146103235780632fa27fae1461031e57806331d9736c1461031957806336568abe1461031457806348d3b7751461030f57806350861adc1461030a57806354fd4d501461030557806357ec83cc146103005780635a36aa74146102fb5780635cc07076146102f657806361819dd8146102f1578063653b04cd146102ec5780636e0f2455146102e75780636ec1e3f8146102e2578063715018a6146102dd578063794b15b7146102d85780638da5cb5b146102d357806391d14854146102ce57806398ccba4a146102c95780639b4bae3e146102c45780639f86fd85146102bf5780639f9962dd146102ba578063a1b12202146102b5578063a217fddf146102b0578063a21a1df9146102ab578063a3b54172146102a6578063a5d03223146102a1578063a8b24f9a1461029c578063afba70ad14610297578063b134427114610292578063bba6ff4a1461028d578063bc46f72214610288578063c1bc6f5114610283578063c4db46fc1461027e578063cc52aee714610279578063ce9b793014610274578063d547741f1461026f578063d8dfeb451461026a578063db38871514610265578063e945da7f14610260578063ecc98f051461025b578063ecf7085814610256578063f151f6b5146102515763f2fde38b036119fa57611075565b611058565b61103b565b61101d565b611000565b610fc6565b610f9b565b610f4f565b610f27565b610eff565b610ee2565b610eba565b610e80565b610e63565b610e3b565b610e11565b610de9565b610da3565b610d56565b610d1c565b610d02565b610cde565b610cb6565b610c22565b610c05565b610be8565b610b8a565b610b56565b610b16565b610aaf565b610a8a565b610a65565b610a2b565b6109f1565b6109c7565b61099f565b61085a565b610828565b610803565b6107e2565b610797565b61075d565b61073d565b6106f1565b61069c565b6104da565b61046f565b610452565b610419565b6103df565b6103a5565b346103a15760203660031901126103a15760043563ffffffff60e01b81168091036103a157602090637965db0b60e01b8114908115610390575b506040519015158152f35b6301ffc9a760e01b1490505f610385565b5f80fd5b346103a1575f3660031901126103a15760206040517fc6aaadd7371d5e8f9ed6849dd66a66573a3ba37167d03f4352c9ba5693678fac8152f35b346103a1575f3660031901126103a15760206040517f9c56d972d63cbb4195b3c1484691dfc220fa96a4c47e7b6613bd82a022029e068152f35b346103a15760203660031901126103a1576004355f525f805160206125938339815191526020526020600160405f200154604051908152f35b346103a1575f3660031901126103a1576020601454604051908152f35b346103a1575f3660031901126103a1576001546040516001600160a01b039091168152602090f35b600435906001600160401b03821682036103a157565b9181601f840112156103a1578235916001600160401b0383116103a157602083818601950101116103a157565b346103a1576040806003193601126103a1576104f4610497565b906001600160401b036024358181116103a1576105159036906004016104ad565b917f9b779b17422d0df92223018b32b4d1fa46e071723d6817e2486d003becc55f00600281541461068b57600290557f00000000000000000000000000000000000000000000000000000000000000006001600160a01b0316330361067a575f805160206125b383398151915280548281169260ff82881c16801561066e575b61065d5767ffffffffffffffff199091169087161790555f805160206125b3833981519152805460ff60401b1916600160401b1790557fc7f505b2f371ae2175ee4913f4499e1f2633a7b5936321eed1cdaeb6115181d29461062f94909390926105fe926113fd565b5f805160206125b3833981519152805460ff60401b19169055516001600160401b0390911681529081906020820190565b0390a161065b60017f9b779b17422d0df92223018b32b4d1fa46e071723d6817e2486d003becc55f0055565b005b865163f92ee8a960e01b8152600490fd5b50808816841015610595565b8351631966391b60e11b8152600490fd5b8451633ee5aeb560e01b8152600490fd5b346103a1575f3660031901126103a1576040517f00000000000000000000000000000000000000000000000000000000000000006001600160a01b03168152602090f35b6001600160a01b038116036103a157565b346103a15760403660031901126103a15761065b602435600435610714826106e0565b805f525f80516020612593833981519152602052610738600160405f20015461148b565b6118fa565b346103a1575f3660031901126103a157602060015460d01c604051908152f35b346103a1575f3660031901126103a15760206040517f5295aaaa27fdd659293eafacbfafbc634c1b96298957e87de5f59308cdbfdad18152f35b346103a15760403660031901126103a1576024356107b4816106e0565b336001600160a01b038216036107d05761065b90600435611930565b60405163334bd91960e11b8152600490fd5b346103a1575f3660031901126103a157602060ff5f54166040519015158152f35b346103a1575f3660031901126103a157602060ff60025460a01c166040519015158152f35b346103a1575f3660031901126103a15760206001600160401b035f805160206125b38339815191525416604051908152f35b346103a15760603660031901126103a157610873610497565b60243561087f816106e0565b6001600160401b03916044358381116103a1576108a09036906004016104ad565b5f805160206125b383398151915294918554948386168061098e5760ff8760401c16908115610981575b5061096f577fc7f505b2f371ae2175ee4913f4499e1f2633a7b5936321eed1cdaeb6115181d29661096a96610937958716906001600160401b0319161790556109325f805160206125b3833981519152600160401b68ff000000000000000019825416179055565b6111a2565b5f805160206125b3833981519152805460ff60401b191690556040516001600160401b0390911681529081906020820190565b0390a1005b60405163f92ee8a960e01b8152600490fd5b905084861611155f6108ca565b60405162dc149f60e41b8152600490fd5b346103a1575f3660031901126103a157602065ffffffffffff60135460301c16604051908152f35b346103a15760203660031901126103a1576004355f526006602052602060405f2054604051908152f35b346103a1575f3660031901126103a15760206040517f591f6a0113ada8aff67efadec8ae2fa585cb4ebf4e1f8fc1205ffbeff98d00ec8152f35b346103a1575f3660031901126103a15760206040517f439148f0bbc682ca079e46d6e2c2f0c1e3b820f1a291b069d8882abf8cf18dd98152f35b346103a1575f3660031901126103a157602065ffffffffffff60135416604051908152f35b346103a1575f3660031901126103a157602060ff60035460a01c166040519015158152f35b346103a1575f3660031901126103a157610ac76119c2565b5f8051602061257383398151915280546001600160a01b031981169091555f906001600160a01b03167f8be0079c531659141344cd1fd0a4f28419497f9722a3daafe3b4186f6b6457e08280a3005b346103a15760203660031901126103a157600435610b33816106e0565b60018060a01b03165f526005602052602060ff60405f2054166040519015158152f35b346103a1575f3660031901126103a1575f80516020612573833981519152546040516001600160a01b039091168152602090f35b346103a15760403660031901126103a157602060ff610bdc602435610bae816106e0565b6004355f525f80516020612593833981519152845260405f209060018060a01b03165f5260205260405f2090565b54166040519015158152f35b346103a1575f3660031901126103a1576020601254604051908152f35b346103a1575f3660031901126103a1576020601154604051908152f35b346103a15760403660031901126103a157600435610c3f816106e0565b6024356001600160401b0381116103a1575f91610c61839236906004016104ad565b90816040519283928337810184815203915af4610cae610c7f611339565b91610ca0604051938492151560208401526040808401526060830190611368565b03601f1981018352826110f1565b805190602001fd5b346103a1575f3660031901126103a157602065ffffffffffff60015460a01c16604051908152f35b346103a1575f3660031901126103a157602060ff5f5460081c166040519015158152f35b346103a1575f3660031901126103a15760206040515f8152f35b346103a1575f3660031901126103a15760206040517f4a634bc14d77baf979756509ef4298c6f6318af357828612545267ee2eb792338152f35b346103a15760403660031901126103a1576020610d9a602435610d78816106e0565b6004355f526008835260405f209060018060a01b03165f5260205260405f2090565b54604051908152f35b346103a15760403660031901126103a157602060ff610bdc602435610dc7816106e0565b6004355f526009845260405f209060018060a01b03165f5260205260405f2090565b346103a1575f3660031901126103a1576016546040516001600160a01b039091168152602090f35b346103a15760203660031901126103a1576004355f526007602052602060405f2054604051908152f35b346103a1575f3660031901126103a1576003546040516001600160a01b039091168152602090f35b346103a1575f3660031901126103a1576020600f54604051908152f35b346103a1575f3660031901126103a15760206040517fc9078c78bcaac2be1c77c160c539a489be2b72939771b1a6302fed3e2150c7458152f35b346103a1575f3660031901126103a157602065ffffffffffff60135460901c16604051908152f35b346103a1575f3660031901126103a1576020601054604051908152f35b346103a1575f3660031901126103a157602065ffffffffffff60135460601c16604051908152f35b346103a1575f3660031901126103a1576002546040516001600160a01b039091168152602090f35b346103a15760403660031901126103a15761065b602435600435610f72826106e0565b805f525f80516020612593833981519152602052610f96600160405f20015461148b565b611930565b346103a1575f3660031901126103a1575f5460405160109190911c6001600160a01b03168152602090f35b346103a1575f3660031901126103a15760206040517fbae4ee3de6c709ff9a002e774c5b78cb381560b219213c88ae0f1e207c03c0238152f35b346103a1575f3660031901126103a1576020601554604051908152f35b346103a1575f3660031901126103a1576020604051633b9aca008152f35b346103a1575f3660031901126103a1576020600454604051908152f35b346103a1575f3660031901126103a157602060405162093a808152f35b346103a15760203660031901126103a15761065b600435611095816106e0565b61109d6119c2565b61138c565b634e487b7160e01b5f52604160045260245ffd5b606081019081106001600160401b038211176110d157604052565b6110a2565b604081019081106001600160401b038211176110d157604052565b90601f801991011681019081106001600160401b038211176110d157604052565b6040519061024082018281106001600160401b038211176110d157604052565b6040519060c082018281106001600160401b038211176110d157604052565b6001600160401b0381116110d157601f01601f191660200190565b92919261117882611151565b9161118660405193846110f1565b8294818452818301116103a1578281602093845f960137010152565b916111f2926111af611a36565b6111b7611a36565b60017f9b779b17422d0df92223018b32b4d1fa46e071723d6817e2486d003becc55f00556001600160a01b03811661131f575b50369161116c565b8051602090820181810182848303126103a15782840151936001600160401b03948581116103a15760609101809303126103a1576040908151611234816110b6565b848401518681116103a157840182603f820112156103a1578281858861125d9401519101611a64565b8152828401518681116103a157828661127892870101611a9a565b9385820194855260608101519687116103a1576112a26112fb938761131c996112af940101611a9a565b9184810192835251611d21565b6112f57f00000000000000000000000000000000000000000000000000000000000000009451915191610ca0855193849263602bd8e760e01b8a85015260248401611ab7565b83611adc565b505191634f4e823d60e01b9083015260048252611317826110d6565b611adc565b50565b6113339061132b611a36565b61109d611a36565b5f6111ea565b3d15611363573d9061134a82611151565b9161135860405193846110f1565b82523d5f602084013e565b606090565b805180835260209291819084018484015e5f828201840152601f01601f1916010190565b6001600160a01b039081169081156113e5575f8051602061257383398151915280546001600160a01b031981168417909155167f8be0079c531659141344cd1fd0a4f28419497f9722a3daafe3b4186f6b6457e05f80a3565b604051631e4fbdf760e01b81525f6004820152602490fd5b916114146003926001600160401b0392369161116c565b921603611479575161146757604051634f4e823d60e01b60208201526004815261131c90611441816110d6565b7f0000000000000000000000000000000000000000000000000000000000000000611adc565b604051635cb045db60e01b8152600490fd5b604051630a1824e360e01b8152600490fd5b5f8181525f805160206125938339815191526020908152604080832033845290915290205460ff16156114bb5750565b6044906040519063e2517d3f60e01b82523360048301526024820152fd5b6001600160a01b0381165f9081527fb7db2dd08fcb62d0c9e08c51941cae53c267786a0b75803fb7960902fc8ef97d60205260409020545f805160206125938339815191529060ff16611584575f808052602091825260408082206001600160a01b038516835290925220805460ff1916600117905533906001600160a01b03165f7f2f8788117e7eff1d82e926ec794901d17c78024a50270940304540a733656f0d8180a4600190565b50505f90565b6001600160a01b0381165f9081527f03b26b53c87faa1058f30bb5d2fee64f717719a0d9b7e4f4df027aa5e9b6ed69602052604090207fbae4ee3de6c709ff9a002e774c5b78cb381560b219213c88ae0f1e207c03c023905f805160206125938339815191529060ff905b5416611659575f828152602091825260408082206001600160a01b038616835290925220805460ff1916600117905533916001600160a01b0316907f2f8788117e7eff1d82e926ec794901d17c78024a50270940304540a733656f0d5f80a4600190565b5050505f90565b6001600160a01b0381165f9081527f0287ab4cb376ea253d7b2ce0c2cbf458f7deae9458470d74afdfbbee484e9540602052604090207f9c56d972d63cbb4195b3c1484691dfc220fa96a4c47e7b6613bd82a022029e06905f805160206125938339815191529060ff906115f5565b6001600160a01b0381165f9081527fe41986b390c4ce6791b87f7423b5fab7a81a0e6d89660b6264f697d008b2243a602052604090207fc6aaadd7371d5e8f9ed6849dd66a66573a3ba37167d03f4352c9ba5693678fac905f805160206125938339815191529060ff906115f5565b6001600160a01b0381165f9081527f2d4ccbfe9f7672a6f2537c1e5bce6adacb73706879154bbab6ce096012d67216602052604090207f4a634bc14d77baf979756509ef4298c6f6318af357828612545267ee2eb79233905f805160206125938339815191529060ff906115f5565b6001600160a01b0381165f9081527f99e47f2907af87dbb5c62e22bd8ea822f5011dfd1e243469ce26ebebf3ab93e3602052604090207f591f6a0113ada8aff67efadec8ae2fa585cb4ebf4e1f8fc1205ffbeff98d00ec905f805160206125938339815191529060ff906115f5565b6001600160a01b0381165f9081527f82a1dc868a49801aa31c5dd393dc0b9005735300cdcd4bbc1af68215effcd6f8602052604090207fc9078c78bcaac2be1c77c160c539a489be2b72939771b1a6302fed3e2150c745905f805160206125938339815191529060ff906115f5565b6001600160a01b0381165f9081527f9aeaa4f1a9be826e331dea6728ca206744e0a34dccbc1d3da4a68acb8abf0363602052604090207f5295aaaa27fdd659293eafacbfafbc634c1b96298957e87de5f59308cdbfdad1905f805160206125938339815191529060ff906115f5565b5f8181525f80516020612593833981519152602081815260408084206001600160a01b038716855290915290912060ff906115f5565b5f8181525f80516020612593833981519152602081815260408084206001600160a01b03871685529091529091205460ff1615611659575f828152602091825260408082206001600160a01b038616835290925220805460ff1916905533916001600160a01b0316907ff6391f5c32d9c69d2a47ea670b442974b53935d1edc7fd64eb21e047a839171b5f80a4600190565b5f80516020612573833981519152546001600160a01b031633036119e257565b60405163118cdaa760e01b8152336004820152602490fd5b365f80375f8036817f00000000000000000000000000000000000000000000000000000000000000005af43d5f803e15611a32573d5ff35b3d5ffd5b60ff5f805160206125b38339815191525460401c1615611a5257565b604051631afcd79f60e31b8152600490fd5b929192611a7082611151565b91611a7e60405193846110f1565b8294818452818301116103a1578281602093845f96015e010152565b9080601f830112156103a1578151611ab492602001611a64565b90565b9091611ace611ab493604084526040840190611368565b916020818403910152611368565b5f80611ab493602081519101845af4611af3611339565b916123d8565b5190611b04826106e0565b565b519065ffffffffffff821682036103a157565b519081151582036103a157565b81601f820112156103a1578051916020916001600160401b0384116110d1578360051b9060405194611b5a858401876110f1565b855283808601928201019283116103a1578301905b828210611b7d575050505090565b8380918351611b8b816106e0565b815201910190611b6f565b906020828203126103a15781516001600160401b03928382116103a1570190610240828203126103a157611bc8611112565b92611bd283611af9565b8452611be060208401611af9565b6020850152611bf160408401611b06565b6040850152611c0260608401611b19565b6060850152611c1360808401611b19565b608085015260a083015160a085015260c083015160c085015260e083015160e0850152610100611c44818501611af9565b90850152610120611c56818501611af9565b90850152610140611c68818501611af9565b90850152610160611c7a818501611af9565b9085015261018091828401519182116103a157611c98918401611b26565b908301526101a0611caa818301611af9565b908301526101c0611cbc818301611af9565b908301526101e0611cce818301611af9565b90830152610200611ce0818301611af9565b90830152611cf2610220809201611af9565b9082015290565b8051821015611d0d5760209160051b010190565b634e487b7160e01b5f52603260045260245ffd5b611d349060208082518301019101611b96565b805190916001600160a01b03918216156123c6576040908184019065ffffffffffff611d66835165ffffffffffff1690565b16156123b55761012085018051909490611d90906001600160a01b03165b6001600160a01b031690565b15612280575b6060860195611dac611da88851151590565b1590565b80612271575b61226057610180810196955f5b88518051821015611e7057611d84611dda83611de793611cf9565b516001600160a01b031690565b15611e5f57611e20611e19611e00611dda848d51611cf9565b6001600160a01b03165f90815260056020526040902090565b5460ff1690565b611e4e5780611e48611e3b611e00611dda6001958e51611cf9565b805460ff19166001179055565b01611dbf565b865163a741a04560e01b8152600490fd5b8651630da30f6560e31b8152600490fd5b505093919592965093611e8c611d84855160018060a01b031690565b15612128575b92612042612032869461202c61200761207696611f6b6101c09a611f6660c06120d59e015191611f568d611f4660e082015193611f36611edc61010085015160018060a01b031690565b6101e08501516001600160a01b0316610200860151909390611f1490610220906001600160a01b03169701516001600160a01b031690565b97611f1d611132565b9a8b5260208b01526001600160a01b0390911690890152565b6001600160a01b03166060870152565b6001600160a01b03166080850152565b6001600160a01b031660a0830152565b61243b565b8851611fa2906001600160a01b03165f805462010000600160b01b03191660109290921b62010000600160b01b0316919091179055565b6020890151600180546001600160a01b0319166001600160a01b03909216919091179055611ffb611fd242612540565b6001805465ffffffffffff60a01b191660a09290921b65ffffffffffff60a01b16919091179055565b5165ffffffffffff1690565b600180546001600160d01b031660d09290921b6001600160d01b031916919091179055565b51151590565b60ff80195f541691151516175f55565b6120696120526080850151151590565b61ff005f5491151560081b169061ff001916175f55565b611dda60a0840151600455565b848116612118575b506101408101516001600160a01b0316848116612108575b506101608101516001600160a01b03168481166120f8575b506101a08101516001600160a01b03168481166120e8575b5001516001600160a01b031690565b9081166120df5750565b61131c9061173e565b6120f1906116cf565b505f6120c6565b61210190611660565b505f6120ae565b6121119061158a565b505f612096565b612121906114d9565b505f61207e565b610100850151612140906001600160a01b0316611d84565b61220f5761020085015161215c906001600160a01b0316611d84565b6121d057610220850151612178906001600160a01b0316611d84565b1515806121c4575b6121b457926120426120326120d5969461202c61200761207696611f6b6101c09a5b979a5050965050509496505050611e92565b51630331eb0f60e41b8152600490fd5b5060e085015115612180565b6102208501516121e8906001600160a01b0316611d84565b156121b457926120426120326120d5969461202c61200761207696611f6b6101c09a6121a2565b610200850151612227906001600160a01b0316611d84565b1580612254575b6121b457926120426120326120d5969461202c61200761207696611f6b6101c09a6121a2565b5060e08501511561222e565b845163ebf503c560e01b8152600490fd5b50610180810151511515611db2565b610140860151612298906001600160a01b0316611d84565b15612350575b6101a08601516122b6906001600160a01b0316611d84565b156122c1575b611d96565b60808601511561230c5760a086015115806122ed575b15611d9657835163183c854560e21b8152600490fd5b506101c0860151612306906001600160a01b0316611d84565b156122d7565b60a086015115801590612330575b156122bc57835163183c854560e21b8152600490fd5b506101c0860151612349906001600160a01b0316611d84565b151561231a565b60608601511561238757610160860151612372906001600160a01b0316611d84565b61229e57835163183c854560e21b8152600490fd5b61016086015161239f906001600160a01b0316611d84565b1561229e57835163183c854560e21b8152600490fd5b82516368f5f8f160e11b8152600490fd5b6040516368f7a67560e11b8152600490fd5b906123ff57508051156123ed57805190602001fd5b60405163d6bda27560e01b8152600490fd5b81511580612432575b612410575090565b604051639996b31560e01b81526001600160a01b039091166004820152602490fd5b50803b15612408565b600381511061252e576040810180516001600160a01b0392919083161580612521575b61250f57816124a861248660a0936124796124e39651600f55565b611dda6020850151601555565b60018060a01b03166bffffffffffffffffffffffff60a01b6016541617601655565b60608101516001600160a01b03168481166124ff575b5060808101516001600160a01b03168481166124f6575001516001600160a01b031690565b9081166124ed5750565b61131c9061188b565b6120f19061181c565b612508906117ad565b505f6124be565b604051630331eb0f60e41b8152600490fd5b506020820151151561245e565b6040516317a509b960e31b8152600490fd5b65ffffffffffff90818111612553571690565b604490604051906306dfcc6560e41b8252603060048301526024820152fdfe9016d09d72d40fdae2fd8ceac6b6234c7706214fd39c1cd1e609a0528c19930002dd7bc7dec4dceedda775e58dd541e08a116c6c53815c0bd028192f7b626800f0c57e16840df040f15088dc2f81fe391c3923bec73e23a9662efc9c229c6a00a2646970667358221220290d08e610dba1c3b45aeae5e9602f55eb47297f98344d52862031f182b674d564736f6c63430008190033","linkReferences":{}},"methodIdentifiers":{"DEFAULT_ADMIN_ROLE()":"a217fddf","DEPOSITOR_WHITELIST_ROLE()":"1b66c9e1","DEPOSIT_LIMIT_SET_ROLE()":"a21a1df9","DEPOSIT_WHITELIST_SET_ROLE()":"db388715","EPOCH_DURATION_SET_ROLE()":"61819dd8","FACTORY()":"2dd31000","FLASH_FEE_BASE()":"ecc98f05","FLASH_FEE_RATE_SET_ROLE()":"bc46f722","FLASH_FEE_RECEIVER_SET_ROLE()":"31d9736c","IS_DEPOSIT_LIMIT_SET_ROLE()":"1415519b","MIN_EXIT_WINDOW()":"f151f6b5","RETURN_VALUE()":"653b04cd","_epochDuration()":"2fa27fae","_epochDurationInit()":"9f9962dd","_epochDurationInitIndex()":"9b4bae3e","_epochDurationSetEpochsDelay()":"bba6ff4a","_nextEpochDuration()":"c1bc6f51","_nextEpochDurationInit()":"cc52aee7","_nextEpochDurationSetEpochsDelay()":"c4db46fc","_nextEpochInitIndex()":"2749f9c4","_prevEpochDuration()":"5a36aa74","_prevEpochDurationInit()":"6e0f2455","_prevEpochDurationInitIndex()":"98ccba4a","burner()":"27810b6e","collateral()":"d8dfeb45","delegator()":"ce9b7930","depositLimit()":"ecf70858","depositWhitelist()":"48d3b775","flashFeeRate()":"e945da7f","flashFeeReceiver()":"a8b24f9a","getRoleAdmin(bytes32)":"248a9ca3","grantRole(bytes32,address)":"2f2ff15d","hasRole(bytes32,address)":"91d14854","initialize(uint64,address,bytes)":"57ec83cc","isDelegatorInitialized()":"50861adc","isDepositLimit()":"a1b12202","isDepositorWhitelisted(address)":"794b15b7","isSlasherInitialized()":"6ec1e3f8","isWithdrawalsClaimed(uint256,address)":"a5d03223","migrate(uint64,bytes)":"2abe3048","owner()":"8da5cb5b","renounceOwnership()":"715018a6","renounceRole(bytes32,address)":"36568abe","revokeRole(bytes32,address)":"d547741f","slasher()":"b1344271","staticDelegateCall(address,bytes)":"9f86fd85","supportsInterface(bytes4)":"01ffc9a7","transferOwnership(address)":"f2fde38b","version()":"54fd4d50","withdrawalShares(uint256)":"afba70ad","withdrawalSharesOf(uint256,address)":"a3b54172","withdrawals(uint256)":"5cc07076"},"id":111}