{"abi":[{"type":"constructor","inputs":[{"name":"factory","type":"address","internalType":"address"},{"name":"type_","type":"uint64","internalType":"uint64"}],"stateMutability":"nonpayable"},{"type":"function","name":"FACTORY","inputs":[],"outputs":[{"name":"","type":"address","internalType":"address"}],"stateMutability":"view"},{"type":"function","name":"TYPE","inputs":[],"outputs":[{"name":"","type":"uint64","internalType":"uint64"}],"stateMutability":"view"},{"type":"function","name":"a","inputs":[],"outputs":[{"name":"","type":"uint256","internalType":"uint256"}],"stateMutability":"view"},{"type":"function","name":"initialize","inputs":[{"name":"data","type":"bytes","internalType":"bytes"}],"outputs":[],"stateMutability":"nonpayable"},{"type":"function","name":"setA","inputs":[{"name":"_a","type":"uint256","internalType":"uint256"}],"outputs":[],"stateMutability":"nonpayable"},{"type":"event","name":"Initialized","inputs":[{"name":"version","type":"uint64","indexed":false,"internalType":"uint64"}],"anonymous":false},{"type":"error","name":"InvalidInitialization","inputs":[]},{"type":"error","name":"NotInitialized","inputs":[]},{"type":"error","name":"NotInitializing","inputs":[]}],"bytecode":{"object":"0x60c034610118576103d6906001600160401b0390601f38849003908101601f19168201908382118383101761011d5780839160409687948552833981010312610118578051906001600160a01b03821682036101185760200151918083168303610118577ff0c57e16840df040f15088dc2f81fe391c3923bec73e23a9662efc9c229c6a009081549060ff82871c166101075780808316036100c3575b50505060805260a052516102a29081610134823960805181610223015260a0518160980152f35b6001600160401b0319909116811790915583519081527fc7f505b2f371ae2175ee4913f4499e1f2633a7b5936321eed1cdaeb6115181d290602090a138808061009c565b855163f92ee8a960e01b8152600490fd5b600080fd5b634e487b7160e01b600052604160045260246000fdfe6080604090808252600436101561001557600080fd5b600091823560e01c9182630dbe671f14610252575081632dd310001461020e578163439fab91146100c0578163bb24fe8a14610077575063ee919d501461005b57600080fd5b3461007457602036600319011261007457600435815580f35b80fd5b9050346100bc57816003193601126100bc576020905167ffffffffffffffff7f0000000000000000000000000000000000000000000000000000000000000000168152f35b5080fd5b9050346100bc5760203660031901126100bc5767ffffffffffffffff60043581811161020a573660238201121561020a5780600401358281116102065736910160240111610202577ff0c57e16840df040f15088dc2f81fe391c3923bec73e23a9662efc9c229c6a0090815460ff81851c1615918116801590816101fa575b60011490816101f0575b1590816101e7575b506101d65767ffffffffffffffff1981166001178355816101b7575b50610176578280f35b805468ff00000000000000001916905551600181527fc7f505b2f371ae2175ee4913f4499e1f2633a7b5936321eed1cdaeb6115181d290602090a138808280f35b68ffffffffffffffffff1916680100000000000000011782553861016d565b835163f92ee8a960e01b8152600490fd5b90501538610151565b303b159150610149565b83915061013f565b8280fd5b8480fd5b8380fd5b9050346100bc57816003193601126100bc57517f00000000000000000000000000000000000000000000000000000000000000006001600160a01b03168152602090f35b8390346100bc57816003193601126100bc57602091548152f3fea26469706673582212207a577780e36daddd1326aa81960f41464c15fab95821ae670132be208fc03dcf64736f6c63430008190033","linkReferences":{}},"methodIdentifiers":{"FACTORY()":"2dd31000","TYPE()":"bb24fe8a","a()":"0dbe671f","initialize(bytes)":"439fab91","setA(uint256)":"ee919d50"},"id":144}