{"abi":[{"type":"function","name":"entity","inputs":[{"name":"index","type":"uint256","internalType":"uint256"}],"outputs":[{"name":"","type":"address","internalType":"address"}],"stateMutability":"view"},{"type":"function","name":"isEntity","inputs":[{"name":"entity_","type":"address","internalType":"address"}],"outputs":[{"name":"","type":"bool","internalType":"bool"}],"stateMutability":"view"},{"type":"function","name":"register","inputs":[],"outputs":[{"name":"","type":"address","internalType":"address"}],"stateMutability":"nonpayable"},{"type":"function","name":"totalEntities","inputs":[],"outputs":[{"name":"","type":"uint256","internalType":"uint256"}],"stateMutability":"view"},{"type":"event","name":"AddEntity","inputs":[{"name":"entity","type":"address","indexed":true,"internalType":"address"}],"anonymous":false},{"type":"error","name":"EntityNotExist","inputs":[]}],"bytecode":{"object":"0x60808060405234601557610225908161001b8239f35b600080fdfe608080604052600436101561001357600080fd5b600090813560e01c90816314887c5814610125575080631aa3a008146100d95780635cd8b15e146100bc5763b42ba2a21461004d57600080fd5b346100b95760203660031901126100b95760043581548110156100a5579080527f290decd9548b62a8d60345a988386fc84ba6bc95484008f6362f93160ef3e56301546040516001600160a01b039091168152602090f35b634e487b7160e01b82526032600452602482fd5b80fd5b50346100b957806003193601126100b95760209054604051908152f35b50346100b957806003193601126100b9576020906100f633610169565b50604051907fb919910dcefbf753bfd926ab3b1d3f85d877190c3d01ba1bd585047b99b99f0b339180a2338152f35b905034610165576020366003190112610165576004356001600160a01b0381169081900361016157826040916020945260018452205415158152f35b8280fd5b5080fd5b6000818152600160205260408120546101ea578054680100000000000000008110156101d657600181018083558110156100a55790826040927f290decd9548b62a8d60345a988386fc84ba6bc95484008f6362f93160ef3e5630155805492815260016020522055600190565b634e487b7160e01b82526041600452602482fd5b90509056fea26469706673582212208f0dca3c1efd973a05c064b334dc68999f1d55ee34479ab11b97f063eaf9c8a364736f6c63430008190033","linkReferences":{}},"methodIdentifiers":{"entity(uint256)":"b42ba2a2","isEntity(address)":"14887c58","register()":"1aa3a008","totalEntities()":"5cd8b15e"},"id":164}