{"abi":[{"type":"constructor","inputs":[{"name":"whoRegistry","type":"address","internalType":"address"},{"name":"whereRegistry","type":"address","internalType":"address"},{"name":"name","type":"string","internalType":"string"}],"stateMutability":"nonpayable"},{"type":"function","name":"WHERE_REGISTRY","inputs":[],"outputs":[{"name":"","type":"address","internalType":"address"}],"stateMutability":"view"},{"type":"function","name":"WHO_REGISTRY","inputs":[],"outputs":[{"name":"","type":"address","internalType":"address"}],"stateMutability":"view"},{"type":"function","name":"eip712Domain","inputs":[],"outputs":[{"name":"fields","type":"bytes1","internalType":"bytes1"},{"name":"name","type":"string","internalType":"string"},{"name":"version","type":"string","internalType":"string"},{"name":"chainId","type":"uint256","internalType":"uint256"},{"name":"verifyingContract","type":"address","internalType":"address"},{"name":"salt","type":"bytes32","internalType":"bytes32"},{"name":"extensions","type":"uint256[]","internalType":"uint256[]"}],"stateMutability":"view"},{"type":"function","name":"increaseNonce","inputs":[{"name":"where","type":"address","internalType":"address"}],"outputs":[],"stateMutability":"nonpayable"},{"type":"function","name":"isOptedIn","inputs":[{"name":"who","type":"address","internalType":"address"},{"name":"where","type":"address","internalType":"address"}],"outputs":[{"name":"","type":"bool","internalType":"bool"}],"stateMutability":"view"},{"type":"function","name":"isOptedInAt","inputs":[{"name":"who","type":"address","internalType":"address"},{"name":"where","type":"address","internalType":"address"},{"name":"timestamp","type":"uint48","internalType":"uint48"},{"name":"hint","type":"bytes","internalType":"bytes"}],"outputs":[{"name":"","type":"bool","internalType":"bool"}],"stateMutability":"view"},{"type":"function","name":"nonces","inputs":[{"name":"who","type":"address","internalType":"address"},{"name":"where","type":"address","internalType":"address"}],"outputs":[{"name":"nonce","type":"uint256","internalType":"uint256"}],"stateMutability":"view"},{"type":"function","name":"optIn","inputs":[{"name":"where","type":"address","internalType":"address"}],"outputs":[],"stateMutability":"nonpayable"},{"type":"function","name":"optIn","inputs":[{"name":"who","type":"address","internalType":"address"},{"name":"where","type":"address","internalType":"address"},{"name":"deadline","type":"uint48","internalType":"uint48"},{"name":"signature","type":"bytes","internalType":"bytes"}],"outputs":[],"stateMutability":"nonpayable"},{"type":"function","name":"optOut","inputs":[{"name":"who","type":"address","internalType":"address"},{"name":"where","type":"address","internalType":"address"},{"name":"deadline","type":"uint48","internalType":"uint48"},{"name":"signature","type":"bytes","internalType":"bytes"}],"outputs":[],"stateMutability":"nonpayable"},{"type":"function","name":"optOut","inputs":[{"name":"where","type":"address","internalType":"address"}],"outputs":[],"stateMutability":"nonpayable"},{"type":"function","name":"staticDelegateCall","inputs":[{"name":"target","type":"address","internalType":"address"},{"name":"data","type":"bytes","internalType":"bytes"}],"outputs":[],"stateMutability":"nonpayable"},{"type":"event","name":"EIP712DomainChanged","inputs":[],"anonymous":false},{"type":"event","name":"IncreaseNonce","inputs":[{"name":"who","type":"address","indexed":true,"internalType":"address"},{"name":"where","type":"address","indexed":true,"internalType":"address"}],"anonymous":false},{"type":"event","name":"OptIn","inputs":[{"name":"who","type":"address","indexed":true,"internalType":"address"},{"name":"where","type":"address","indexed":true,"internalType":"address"}],"anonymous":false},{"type":"event","name":"OptOut","inputs":[{"name":"who","type":"address","indexed":true,"internalType":"address"},{"name":"where","type":"address","indexed":true,"internalType":"address"}],"anonymous":false},{"type":"error","name":"AlreadyOptedIn","inputs":[]},{"type":"error","name":"CheckpointUnorderedInsertion","inputs":[]},{"type":"error","name":"ExpiredSignature","inputs":[]},{"type":"error","name":"InvalidShortString","inputs":[]},{"type":"error","name":"InvalidSignature","inputs":[]},{"type":"error","name":"NotOptedIn","inputs":[]},{"type":"error","name":"NotWhereEntity","inputs":[]},{"type":"error","name":"NotWho","inputs":[]},{"type":"error","name":"OptOutCooldown","inputs":[]},{"type":"error","name":"SafeCastOverflowedUintDowncast","inputs":[{"name":"bits","type":"uint8","internalType":"uint8"},{"name":"value","type":"uint256","internalType":"uint256"}]},{"type":"error","name":"StringTooLong","inputs":[{"name":"str","type":"string","internalType":"string"}]}],"bytecode":{"object":"0x6101a0604090808252346101de57611d3f803803809161001f82856101e3565b833981016060828203126101de5761003682610206565b6020610043818501610206565b848601516001600160401b03959194918682116101de57019181601f840112156101de578251928684116101c857875193610087601f8201601f19168401866101e3565b808552828501938382840101116101de5783836100a4930161021a565b865190878201828110888211176101c857885260018252808201603160f81b81526100ce8561023d565b936101209485526100de846103dd565b95610140968752519020928360e0525190209761010098808a524660a0528151928301937f8b73c3c69bb8fe3d512ecc4cf759cc79239f7b179b0ffacaa9a75d522b39400f85528284015260608301524660808301523060a083015260a0825260c0820197828910908911176101c8578790525190206080523060c0526101609283526101809384526118269586610519873960805186611291015260a0518661134c015260c0518661125b015260e051866112e001525185611306015251846103050152518361032f01525182818161060d0152610c870152518181816102570152610cdb0152f35b634e487b7160e01b600052604160045260246000fd5b600080fd5b601f909101601f19168101906001600160401b038211908210176101c857604052565b51906001600160a01b03821682036101de57565b60005b83811061022d5750506000910152565b818101518382015260200161021d565b805160209190828110156102b8575090601f825111610278578082519201519080831061026957501790565b82600019910360031b1b161790565b6044906102aa9260405193849263305a27a960e01b84528060048501528251928391826024870152868601910161021a565b601f01601f19168101030190fd5b6001600160401b0381116101c8576000928354926001938481811c911680156103d3575b838210146103bf57601f811161038c575b5081601f84116001146103295750928293918392869461031e575b50501b916000199060031b1c191617905560ff90565b015192503880610308565b919083601f1981168780528488209488905b888383106103725750505010610359575b505050811b01905560ff90565b015160001960f88460031b161c1916905538808061034c565b85870151885590960195948501948793509081019061033b565b85805284601f848820920160051c820191601f860160051c015b8281106103b45750506102ed565b8781550185906103a6565b634e487b7160e01b86526022600452602486fd5b90607f16906102dc565b8051602090818110156104075750601f825111610278578082519201519080831061026957501790565b9192916001600160401b0381116101c85760019182548381811c9116801561050e575b828210146104f857601f81116104c2575b5080601f831160011461047857508192939460009261046d575b5050600019600383901b1c191690821b17905560ff90565b015190503880610455565b90601f198316958460005282600020926000905b8882106104ab575050838596971061035957505050811b01905560ff90565b80878596829496860151815501950193019061048c565b8360005283601f83600020920160051c820191601f850160051c015b8281106104ec57505061043b565b600081550184906104de565b634e487b7160e01b600052602260045260246000fd5b90607f169061042a56fe6080604052600436101561001257600080fd5b60003560e01c8063220d32d4146100d7578063530e1d43146100d25780636d0fae4a146100cd5780638247a97c146100c857806384b0196e146100c35780639333fbda146100be57806393f79bc3146100b95780639f86fd85146100b4578063b1138ad1146100af578063c4b5d62c146100aa578063ced44ba7146100a55763d4610483146100a057600080fd5b610704565b61063c565b6105f7565b6105d5565b610543565b610440565b6103e8565b6102ea565b610286565b610241565b6101d7565b61010d565b600435906001600160a01b03821682036100f257565b600080fd5b602435906001600160a01b03821682036100f257565b346100f25760403660031901126100f257602061013961012b6100dc565b6101336100f7565b90610726565b6040519015158152f35b9181601f840112156100f25782359167ffffffffffffffff83116100f257602083818601950101116100f257565b9060806003198301126100f2576001600160a01b039160043583811681036100f2579260243590811681036100f2579160443565ffffffffffff811681036100f257916064359067ffffffffffffffff82116100f2576101d391600401610143565b9091565b346100f257602060016102316102376102226101f236610171565b969290949193888060a01b03166000526003895260406000209060018060a01b0316600052602052604060002090565b92868060d01b03953691610848565b91610905565b1614604051908152f35b346100f25760003660031901126100f2576040517f00000000000000000000000000000000000000000000000000000000000000006001600160a01b03168152602090f35b346100f25760203660031901126100f2576102a86102a26100dc565b33610a01565b005b919082519283825260005b8481106102d6575050826000602080949584010152601f8019910116010190565b6020818301810151848301820152016102b5565b346100f2576000806003193601126103e557610388906103297f0000000000000000000000000000000000000000000000000000000000000000610e7e565b906103537f0000000000000000000000000000000000000000000000000000000000000000610f81565b9060405191610361836107c3565b818352610396602091604051968796600f60f81b885260e0602089015260e08801906102aa565b9086820360408801526102aa565b904660608601523060808601528260a086015284820360c0860152602080855193848152019401925b8281106103ce57505050500390f35b8351855286955093810193928101926001016103bf565b80fd5b346100f25760403660031901126100f25760206104376104066100dc565b61040e6100f7565b6001600160a01b0391821660009081526002855260408082209290931681526020919091522090565b54604051908152f35b346100f25761044e36610171565b909165ffffffffffff806104614261104f565b169116908110610531576105119261050261050a9260018060a01b03808916918260005260026020526104aa8960406000209060018060a01b0316600052602052604060002090565b546040519260208401947f7830334d17a05ab8aeca8f1778e27182208fc2d454ac7b38a4edc2069ee3a4a6865260408501528a166060840152608083015260a082015260a081526104fa816107df565b519020611081565b923691610848565b9084610a58565b1561051f576102a891610b37565b604051638baa579f60e01b8152600490fd5b60405163df4cc36d60e01b8152600490fd5b346100f25760403660031901126100f25761055c6100dc565b60243567ffffffffffffffff81116100f25760009161058083923690600401610143565b90816040519283928337810184815203915af46105cd61059e61087f565b916105bf6040519384921515602084015260408084015260608301906102aa565b03601f1981018352826107fb565b805190602001fd5b346100f25760203660031901126100f2576102a86105f16100dc565b33610c5b565b346100f25760003660031901126100f2576040517f00000000000000000000000000000000000000000000000000000000000000006001600160a01b03168152602090f35b346100f25761064a36610171565b909165ffffffffffff8061065d4261104f565b169116908110610531576106f69261050261050a9260018060a01b03808916918260005260026020526106a68960406000209060018060a01b0316600052602052604060002090565b546040519260208401947f6ab5200f1123a8d51d1695a9e5e757267926b53c6359f90b8873cc7dcc30ea2c865260408501528a166060840152608083015260a082015260a081526104fa816107df565b1561051f576102a891610c5b565b346100f25760203660031901126100f2576102a86107206100dc565b33610b37565b6001600160a01b0390811660009081526003602090815260408083209490931682529290925281208054806107665750506001905b818060d01b03161490565b6000199181838101116107875783602091600195522001015460301c61075b565b6108cb565b634e487b7160e01b600052604160045260246000fd5b6040810190811067ffffffffffffffff8211176107be57604052565b61078c565b6020810190811067ffffffffffffffff8211176107be57604052565b60c0810190811067ffffffffffffffff8211176107be57604052565b90601f8019910116810190811067ffffffffffffffff8211176107be57604052565b6040519061082a826107a2565b565b67ffffffffffffffff81116107be57601f01601f191660200190565b9291926108548261082c565b9161086260405193846107fb565b8294818452818301116100f2578281602093846000960137010152565b3d156108aa573d906108908261082c565b9161089e60405193846107fb565b82523d6000602084013e565b606090565b908160209103126100f2575163ffffffff811681036100f25790565b634e487b7160e01b600052601160045260246000fd5b60001981019190821161078757565b90600163ffffffff8093160191821161078757565b918051156109f75780602080610920935183010191016108af565b9161092b8382610e2a565b9261093c845165ffffffffffff1690565b9065ffffffffffff80851692168281146109de578211918261097e575b505061096c5761096992506110f1565b90565b5050602001516001600160d01b031690565b90915061098b83546108e1565b63ffffffff8316149182156109a4575b50503880610959565b6109d69192506109bf6109b96109cb926108f0565b85610e2a565b5165ffffffffffff1690565b65ffffffffffff1690565b11388061099b565b50505050602091909101516001600160d01b0316905090565b50610969916110f1565b6001600160a01b0390811660008181526002602090815260408083209590941680835294905291822080546001019055907f8ed32926585579e6191b145240df788165f4957e1135f30a00e08ee8feb9d6809080a3565b610a6283836110a7565b506004819592951015610b2157159384610b0b575b508315610a85575b50505090565b6000929350908291604051610abe816105bf6020820194630b135d3f60e11b998a875260248401526040604484015260648301906102aa565b51915afa90610acb61087f565b82610afd575b82610ae1575b5050388080610a7f565b9091506020818051810103126100f25760200151143880610ad7565b915060208251101591610ad1565b6001600160a01b03838116911614935038610a77565b634e487b7160e01b600052602160045260246000fd5b90610b77610b7282610b5b8560018060a01b03166000526003602052604060002090565b9060018060a01b0316600052602052604060002090565b6113f6565b9091506001600160d01b031615610c255765ffffffffffff80610b994261104f565b16911614610c1357610bd3610bc482610b5b8560018060a01b03166000526003602052604060002090565b610bcd4261104f565b9061160e565b5050610bdf8183610a01565b6001600160a01b0390811691167f1629cd9ad365627cf8408d19c50224af8f3213c1a18ae48062d92e22bddf7de5600080a3565b60405163291bf4b760e21b8152600490fd5b6040516334b09b3960e11b8152600490fd5b908160209103126100f2575180151581036100f25790565b6040513d6000823e3d90fd5b6040516302910f8b60e31b8082526001600160a01b0383811660048401529293916020919082816024817f000000000000000000000000000000000000000000000000000000000000000089165afa908115610ddd57600091610df4575b5015610de2576040519081526001600160a01b038316600482015281816024817f000000000000000000000000000000000000000000000000000000000000000088165afa918215610ddd57600092610db0575b505015610d9e57610d1e8184610726565b610d8c5780610d56610d478493610b5b8760018060a01b03166000526003602052604060002090565b610d504261104f565b90611714565b5050610d628185610a01565b1691167f9b730d5b907ee509de729817a2bb37e404418ba569b3a50f36192372f973cb41600080a3565b60405163dcdeaba360e01b8152600490fd5b6040516321f5408d60e01b8152600490fd5b610dcf9250803d10610dd6575b610dc781836107fb565b810190610c37565b3880610d0d565b503d610dbd565b610c4f565b604051630fb9ff9560e41b8152600490fd5b610e0b9150833d8511610dd657610dc781836107fb565b38610cb9565b60405190610e1e826107a2565b60006020838281520152565b610e4f91610e4991610e3a610e11565b50610e43610e11565b506111da565b50611208565b65ffffffffffff81511690602060018060d01b039101511660405191610e74836107a2565b8252602082015290565b60ff8114610e8f576109699061122c565b50604051600080549060018260011c9260018116918215610f77575b602091602086108414610f6357858752869493602086019392918115610f445750600114610ee3575b505050610969925003826107fb565b925093610f11600080527f290decd9548b62a8d60345a988386fc84ba6bc95484008f6362f93160ef3e56390565b946000935b828510610f2e57505050610969935001388080610ed4565b8654858501529586019587955093810193610f16565b925050506109699491925060ff19168252151560051b01388080610ed4565b634e487b7160e01b85526022600452602485fd5b93607f1693610eab565b60ff8114610f92576109699061122c565b506040516001805480821c91600091808216918215611045575b602091602086108414610f6357858752869493602086019392918115610f445750600114610fe357505050610969925003826107fb565b92509361101260016000527fb10e2d527612073b26eecdfd717e6a320cf44b4afac2b0732d9fcbe2b7fa0cf690565b946000935b82851061102f57505050610969935001388080610ed4565b8654858501529586019587955093810193611017565b93607f1693610fac565b65ffffffffffff90818111611062571690565b604490604051906306dfcc6560e41b8252603060048301526024820152fd5b60429061108c611258565b906040519161190160f01b8352600283015260228201522090565b81519190604183036110d8576110d192506020820151906060604084015193015160001a90611372565b9192909190565b505060009160029190565b906001820180921161078757565b90815490600091806005811161118e575b50915b82811061113e5750508061111a575050600090565b6109699161112a611137926108e1565b9060005260206000200190565b5460301c90565b90918082169080831860011c8201809211610787578460005265ffffffffffff808360206000200154169085161060001461117c5750915b90611105565b929150611188906110e3565b90611176565b906111988261146b565b8203918211610787578460005265ffffffffffff80836020600020015416908416106000146111c957505b38611102565b92506111d4906110e3565b916111c3565b80548210156111f25760005260206000200190600090565b634e487b7160e01b600052603260045260246000fd5b90604051611215816107a2565b915465ffffffffffff8116835260301c6020830152565b60ff811690601f82116112465760405191610e74836107a2565b604051632cd44ac360e21b8152600490fd5b307f00000000000000000000000000000000000000000000000000000000000000006001600160a01b03161480611349575b156112b3577f000000000000000000000000000000000000000000000000000000000000000090565b60405160208101907f8b73c3c69bb8fe3d512ecc4cf759cc79239f7b179b0ffacaa9a75d522b39400f82527f000000000000000000000000000000000000000000000000000000000000000060408201527f000000000000000000000000000000000000000000000000000000000000000060608201524660808201523060a082015260a08152611343816107df565b51902090565b507f0000000000000000000000000000000000000000000000000000000000000000461461128a565b91907f7fffffffffffffffffffffffffffffff5d576e7357a4501ddfe92f46681b20a084116113ea57926020929160ff608095604051948552168484015260408301526060820152600092839182805260015afa15610ddd5780516001600160a01b038116156113e157918190565b50809160019190565b50505060009160039190565b80548061140a575050600090600090600090565b6000199080828101116107875761142a9260005260206000200101611208565b9065ffffffffffff82511691602060018060d01b0391015116906001929190565b8115611455570490565b634e487b7160e01b600052601260045260246000fd5b80156115a5578061153e61153761152d61152361151961150f6115056114fb60016109699a6000908b60801c80611599575b508060401c8061158c575b508060201c8061157f575b508060101c80611572575b508060081c80611565575b508060041c80611558575b508060021c8061154b575b50821c611544575b811c1b6114f4818b61144b565b0160011c90565b6114f4818a61144b565b6114f4818961144b565b6114f4818861144b565b6114f4818761144b565b6114f4818661144b565b6114f4818561144b565b809261144b565b906117de565b81016114e7565b60029150910190386114df565b60049150910190386114d4565b60089150910190386114c9565b60109150910190386114be565b60209150910190386114b3565b60409150910190386114a8565b9150506080903861149d565b50600090565b8054680100000000000000008110156107be576115cd916001820181556111da565b9190916115f857805160209091015160301b65ffffffffffff191665ffffffffffff91909116179055565b634e487b7160e01b600052600060045260246000fd5b80549081156116ef57611638611633611626846108e1565b8360005260206000200190565b611208565b90611649825165ffffffffffff1690565b65ffffffffffff85811694911684106116dd576116a8946020946116766109cb865165ffffffffffff1690565b036116ae575061169a9161112a61168c926108e1565b65ffffffffffff8154169055565b01516001600160d01b031690565b90600090565b90506116d8916116cd6116bf61081d565b65ffffffffffff9093168352565b6000858301526115ab565b61169a565b604051632520601d60e01b8152600490fd5b61170c9291506117006116bf61081d565b600060208301526115ab565b600090600090565b80549081156117b95761172c611633611626846108e1565b9061173d825165ffffffffffff1690565b65ffffffffffff85811694911684106116dd576117979460209461176a6109cb865165ffffffffffff1690565b0361179d575061169a9161112a611780926108e1565b660100000000000065ffffffffffff825416179055565b90600190565b90506116d8916117ae6116bf61081d565b6001828601526115ab565b6117d69291506117ca6116bf61081d565b600160208301526115ab565b600090600190565b90808210156117eb575090565b90509056fea2646970667358221220bf25f5642d1de464fd7bf141dc393a1c551d2a6b75abe11f20801e36b811755364736f6c63430008190033","linkReferences":{}},"methodIdentifiers":{"WHERE_REGISTRY()":"6d0fae4a","WHO_REGISTRY()":"c4b5d62c","eip712Domain()":"84b0196e","increaseNonce(address)":"8247a97c","isOptedIn(address,address)":"220d32d4","isOptedInAt(address,address,uint48,bytes)":"530e1d43","nonces(address,address)":"9333fbda","optIn(address)":"b1138ad1","optIn(address,address,uint48,bytes)":"ced44ba7","optOut(address)":"d4610483","optOut(address,address,uint48,bytes)":"93f79bc3","staticDelegateCall(address,bytes)":"9f86fd85"},"id":88}