{"abi":[{"type":"constructor","inputs":[{"name":"baseDelegatorHints","type":"address","internalType":"address"}],"stateMutability":"nonpayable"},{"type":"function","name":"BASE_DELEGATOR_HINTS","inputs":[],"outputs":[{"name":"","type":"address","internalType":"address"}],"stateMutability":"view"},{"type":"function","name":"BURNER_GAS_LIMIT","inputs":[],"outputs":[{"name":"","type":"uint256","internalType":"uint256"}],"stateMutability":"view"},{"type":"function","name":"BURNER_RESERVE","inputs":[],"outputs":[{"name":"","type":"uint256","internalType":"uint256"}],"stateMutability":"view"},{"type":"function","name":"FACTORY","inputs":[],"outputs":[{"name":"","type":"address","internalType":"address"}],"stateMutability":"view"},{"type":"function","name":"NETWORK_MIDDLEWARE_SERVICE","inputs":[],"outputs":[{"name":"","type":"address","internalType":"address"}],"stateMutability":"view"},{"type":"function","name":"SLASHER_HINTS","inputs":[],"outputs":[{"name":"","type":"address","internalType":"address"}],"stateMutability":"view"},{"type":"function","name":"TYPE","inputs":[],"outputs":[{"name":"","type":"uint64","internalType":"uint64"}],"stateMutability":"view"},{"type":"function","name":"VAULT_FACTORY","inputs":[],"outputs":[{"name":"","type":"address","internalType":"address"}],"stateMutability":"view"},{"type":"function","name":"VETO_SLASHER_HINTS","inputs":[],"outputs":[{"name":"","type":"address","internalType":"address"}],"stateMutability":"view"},{"type":"function","name":"cumulativeSlash","inputs":[{"name":"subnetwork","type":"bytes32","internalType":"bytes32"},{"name":"operator","type":"address","internalType":"address"}],"outputs":[{"name":"","type":"uint256","internalType":"uint256"}],"stateMutability":"view"},{"type":"function","name":"cumulativeSlashAt","inputs":[{"name":"subnetwork","type":"bytes32","internalType":"bytes32"},{"name":"operator","type":"address","internalType":"address"},{"name":"timestamp","type":"uint48","internalType":"uint48"},{"name":"hint","type":"bytes","internalType":"bytes"}],"outputs":[{"name":"","type":"uint256","internalType":"uint256"}],"stateMutability":"view"},{"type":"function","name":"cumulativeSlashHint","inputs":[{"name":"slasher","type":"address","internalType":"address"},{"name":"subnetwork","type":"bytes32","internalType":"bytes32"},{"name":"operator","type":"address","internalType":"address"},{"name":"timestamp","type":"uint48","internalType":"uint48"}],"outputs":[{"name":"","type":"bytes","internalType":"bytes"}],"stateMutability":"view"},{"type":"function","name":"cumulativeSlashHintInternal","inputs":[{"name":"subnetwork","type":"bytes32","internalType":"bytes32"},{"name":"operator","type":"address","internalType":"address"},{"name":"timestamp","type":"uint48","internalType":"uint48"}],"outputs":[{"name":"exists","type":"bool","internalType":"bool"},{"name":"hint","type":"uint32","internalType":"uint32"}],"stateMutability":"view"},{"type":"function","name":"initialize","inputs":[{"name":"data","type":"bytes","internalType":"bytes"}],"outputs":[],"stateMutability":"nonpayable"},{"type":"function","name":"isBurnerHook","inputs":[],"outputs":[{"name":"","type":"bool","internalType":"bool"}],"stateMutability":"view"},{"type":"function","name":"latestSlashedCaptureTimestamp","inputs":[{"name":"subnetwork","type":"bytes32","internalType":"bytes32"},{"name":"operator","type":"address","internalType":"address"}],"outputs":[{"name":"value","type":"uint48","internalType":"uint48"}],"stateMutability":"view"},{"type":"function","name":"slashableStake","inputs":[{"name":"subnetwork","type":"bytes32","internalType":"bytes32"},{"name":"operator","type":"address","internalType":"address"},{"name":"captureTimestamp","type":"uint48","internalType":"uint48"},{"name":"hints","type":"bytes","internalType":"bytes"}],"outputs":[{"name":"amount","type":"uint256","internalType":"uint256"}],"stateMutability":"view"},{"type":"function","name":"slashableStakeHints","inputs":[{"name":"slasher","type":"address","internalType":"address"},{"name":"subnetwork","type":"bytes32","internalType":"bytes32"},{"name":"operator","type":"address","internalType":"address"},{"name":"captureTimestamp","type":"uint48","internalType":"uint48"}],"outputs":[{"name":"","type":"bytes","internalType":"bytes"}],"stateMutability":"view"},{"type":"function","name":"staticDelegateCall","inputs":[{"name":"target","type":"address","internalType":"address"},{"name":"data","type":"bytes","internalType":"bytes"}],"outputs":[],"stateMutability":"nonpayable"},{"type":"function","name":"vault","inputs":[],"outputs":[{"name":"","type":"address","internalType":"address"}],"stateMutability":"view"},{"type":"event","name":"Initialized","inputs":[{"name":"version","type":"uint64","indexed":false,"internalType":"uint64"}],"anonymous":false},{"type":"error","name":"ExternalCall","inputs":[]},{"type":"error","name":"InsufficientBurnerGas","inputs":[]},{"type":"error","name":"InvalidInitialization","inputs":[]},{"type":"error","name":"NoBurner","inputs":[]},{"type":"error","name":"NotInitialized","inputs":[]},{"type":"error","name":"NotInitializing","inputs":[]},{"type":"error","name":"NotNetworkMiddleware","inputs":[]},{"type":"error","name":"NotVault","inputs":[]},{"type":"error","name":"ReentrancyGuardReentrantCall","inputs":[]},{"type":"error","name":"SafeCastOverflowedUintDowncast","inputs":[{"name":"bits","type":"uint8","internalType":"uint8"},{"name":"value","type":"uint256","internalType":"uint256"}]}],"bytecode":{"object":"0x610180346101f8576001600160401b0390601f6175f738819003918201601f19168301929190848411838510176101fd5781602092849260409687528339810103126101f857516001600160a01b039290919083831683036101f857306080527ff0c57e16840df040f15088dc2f81fe391c3923bec73e23a9662efc9c229c6a00805460ff81851c166101e757808380809316036101a7575b5050506000918260a0528260c0528260e05261010094838652610120948552815161214b8082019082821086831117610189576020918391611c4b833930815203019085f092831561019d5781610140941684528251906138618083019183831090831117610189576020918391613d96833930815203019085f093841561017e5750610160931683525192611a379485610214863960805185610636015260a051856102db015260c05185610953015260e05185818161016d0152610ee1015251846102960152518381816106dc0152610c7c01525182610597015251816105dc0152f35b8251903d90823e3d90fd5b634e487b7160e01b87526041600452602487fd5b82513d86823e3d90fd5b6001600160401b03191617905581518181527fc7f505b2f371ae2175ee4913f4499e1f2633a7b5936321eed1cdaeb6115181d290602090a1388181610098565b835163f92ee8a960e01b8152600490fd5b600080fd5b634e487b7160e01b600052604160045260246000fdfe6080604052600436101561001257600080fd5b60003560e01c8063103f2907146101575780631a2be2c414610152578063267de1f31461014d5780632964f8dc146101485780632c9d45b3146101435780632dd310001461013e57806334d098ea14610139578063439fab91146101345780634a7196551461012f5780634ea2e9261461012a5780634eb5a242146101255780636565b7db14610120578063770280461461011b57806379d89614146101165780639f86fd8514610111578063aa8e64891461010c578063aab3595f14610107578063bb24fe8a14610102578063d5c24e1a146100fd5763fbfa77cf146100f857600080fd5b610995565b610977565b610933565b61090e565b6108cc565b61070b565b6106c6565b61060b565b6105c6565b610581565b610564565b61052f565b61035d565b61030a565b6102c5565b610280565b610263565b61020a565b6101b2565b3461019c57600036600319011261019c576040517f00000000000000000000000000000000000000000000000000000000000000006001600160a01b03168152602090f35b600080fd5b6001600160a01b0381160361019c57565b3461019c57604036600319011261019c5760206102026101fd6024356101d7816101a1565b6004356000526002845260406000209060018060a01b0316600052602052604060002090565b610e00565b604051908152f35b3461019c57604036600319011261019c57602065ffffffffffff610259602435610233816101a1565b6004356000526001845260406000209060018060a01b0316600052602052604060002090565b5416604051908152f35b3461019c57600036600319011261019c576020604051614e208152f35b3461019c57600036600319011261019c576040517f00000000000000000000000000000000000000000000000000000000000000006001600160a01b03168152602090f35b3461019c57600036600319011261019c576040517f00000000000000000000000000000000000000000000000000000000000000006001600160a01b03168152602090f35b3461019c57600036600319011261019c57602060ff60005460a01c166040519015158152f35b9181601f8401121561019c578235916001600160401b03831161019c576020838186019501011161019c57565b3461019c57602036600319011261019c576001600160401b0360043581811161019c5761038e903690600401610330565b6000805160206119e2833981519152549260ff8460401c1615931680159081610496575b600114908161048c575b159081610483575b50610471576000805160206119e2833981519152805467ffffffffffffffff191660011790556103f8918361044757610ea9565b6103fe57005b6000805160206119e2833981519152805460ff60401b19169055604051600181527fc7f505b2f371ae2175ee4913f4499e1f2633a7b5936321eed1cdaeb6115181d290602090a1005b6000805160206119e2833981519152805460ff60401b191668010000000000000000179055610ea9565b60405163f92ee8a960e01b8152600490fd5b905015386103c4565b303b1591506103bc565b8491506103b2565b65ffffffffffff81160361019c57565b608090600319011261019c576004356104c6816101a1565b90602435906044356104d7816101a1565b906064356104e48161049e565b90565b60005b8381106104fa5750506000910152565b81810151838201526020016104ea565b90602091610523815180928185528580860191016104e7565b601f01601f1916010190565b3461019c5761056061054c610543366104ae565b929190916109fd565b60405191829160208352602083019061050a565b0390f35b3461019c5761056061054c610578366104ae565b92919091610bc6565b3461019c57600036600319011261019c576040517f00000000000000000000000000000000000000000000000000000000000000006001600160a01b03168152602090f35b3461019c57600036600319011261019c576040517f00000000000000000000000000000000000000000000000000000000000000006001600160a01b03168152602090f35b3461019c57606036600319011261019c57602435610628816101a1565b6044356106348161049e565b7f00000000000000000000000000000000000000000000000000000000000000006001600160a01b031633036106b45761069261069792600435600052600260205260406000209060018060a01b0316600052602052604060002090565b6110ae565b60408051941515855263ffffffff91909116602085015292915050f35b604051637ca475e560e11b8152600490fd5b3461019c57600036600319011261019c576040517f00000000000000000000000000000000000000000000000000000000000000006001600160a01b03168152602090f35b3461019c57604036600319011261019c57600435610728816101a1565b6024356001600160401b03811161019c5760009161074b83923690600401610330565b90816040519283928337810184815203915af4610798610769610d75565b9161078a60405193849215156020840152604080840152606083019061050a565b03601f1981018352826107f1565b805190602001fd5b634e487b7160e01b600052604160045260246000fd5b604081019081106001600160401b038211176107d157604052565b6107a0565b60a081019081106001600160401b038211176107d157604052565b90601f801991011681019081106001600160401b038211176107d157604052565b6040519061081f826107b6565b565b6001600160401b0381116107d157601f01601f191660200190565b81601f8201121561019c5780359061085382610821565b9261086160405194856107f1565b8284526020838301011161019c57816000926020809301838601378301015290565b90608060031983011261019c57600435916024356108a0816101a1565b916044356108ad8161049e565b91606435906001600160401b03821161019c576104e49160040161083c565b3461019c5760206102026109096108e236610883565b939190926000526002865260406000209060018060a01b0316600052602052604060002090565b6111e2565b3461019c57602061092a61092136610883565b929190916113b1565b50604051908152f35b3461019c57600036600319011261019c5760206040516001600160401b037f0000000000000000000000000000000000000000000000000000000000000000168152f35b3461019c57600036600319011261019c576020604051620249f08152f35b3461019c57600036600319011261019c576000546040516001600160a01b039091168152602090f35b5190811515820361019c57565b519063ffffffff8216820361019c57565b919082604091031261019c576104e460206109f6846109be565b93016109cb565b6000809195949593929365ffffffffffff60609760405195602097633b81402360e11b89890152602488015260018060a01b0316604487015216606485015260648452610a49846107d6565b6040519384610a7687820192639f86fd8560e01b845230602484015260406044840152606483019061050a565b0394610a8a601f19968781018352826107f1565b51915afa50610aa8610a9a610d75565b838082518301019101611016565b9015610afb57808380610ac0935183010191016109dc565b9290610acb57505050565b6104e492939450610aef604051948592830191909163ffffffff6020820193169052565b039081018352826107f1565b8091505191821561019c5701fd5b9081602091031261019c57516104e4816101a1565b6040513d6000823e3d90fd5b81601f8201121561019c578051610b4081610821565b92610b4e60405194856107f1565b8184526020828401011161019c576104e491602080850191016104e7565b9060208282031261019c5781516001600160401b03811161019c576104e49201610b2a565b906104e491602081526020610bb18351604083850152606084019061050a565b920151906040601f198285030191015261050a565b60405163fbfa77cf60e01b815260609594919391926020926001600160a01b03929091908481600481878b165afa908115610d265784918691600091610d58575b50600460405180948193630ce9b79360e41b8352165afa8015610d265786948385926000948591610d2b575b506040516304bb92e160e31b81526001600160a01b039182166004820152602481019290925292909216604483015265ffffffffffff97909716606482015295869060849082907f0000000000000000000000000000000000000000000000000000000000000000165afa948515610d2657600095610cfd575b50610cb99394956109fd565b825115801590610cf3575b610ccd57505050565b6104e492939450610cdc610812565b9384528184015261078a6040519384928301610b91565b5080511515610cc4565b610cb9949550610d1f903d806000833e610d1781836107f1565b810190610b6c565b9493610cad565b610b1e565b610d4b9150893d8b11610d51575b610d4381836107f1565b810190610b09565b38610c33565b503d610d39565b610d6f9150823d8411610d5157610d4381836107f1565b38610c07565b3d15610da0573d90610d8682610821565b91610d9460405193846107f1565b82523d6000602084013e565b606090565b60009081526002602090815260408083206001600160a01b039094168352929052206104e49291906111e2565b8054821015610dea5760005260206000200190600090565b634e487b7160e01b600052603260045260246000fd5b805460009080610e3b57505060005b6001600160d01b03811615610e34576001610e2a9201610dd2565b90549060031b1c90565b5050600090565b600019918183810111610e5a578084602092522001015460301c610e0f565b61104a565b91909160408184031261019c578035610e77816101a1565b9260208201356001600160401b03811161019c576104e4920161083c565b9081602091031261019c576104e4906109be565b610eb591810190610e5f565b506040516302910f8b60e31b81526001600160a01b0391821660048201819052919060209081816024817f000000000000000000000000000000000000000000000000000000000000000087165afa908115610d2657600091610fe9575b5015610fd757610f21611611565b600080546001600160a01b0319166001600160a01b038516179055600481610f47611647565b94604051928380926313c085b760e11b82525afa918215610d2657600092610fba575b5050161580610fb0575b610f9e575161081f9015156000805460ff60a01b191691151560a01b60ff60a01b16919091179055565b60405163d2420f5960e01b8152600490fd5b5080511515610f74565b610fd09250803d10610d5157610d4381836107f1565b3880610f6a565b6040516362df054560e01b8152600490fd5b6110099150823d841161100f575b61100181836107f1565b810190610e95565b38610f13565b503d610ff7565b91909160408184031261019c5761102c816109be565b9260208201516001600160401b03811161019c576104e49201610b2a565b634e487b7160e01b600052601160045260246000fd5b600019810191908211610e5a57565b91908203918211610e5a57565b9060018201809211610e5a57565b90604051611097816107b6565b915465ffffffffffff8116835260301c6020830152565b91908254906000829160058411611150575b6110cb9350856117ca565b9081156111435761113c61113361112d610e2a6110ff6110fa6110ed88611060565b8960005260206000200190565b61108a565b96600161112660206111178b5165ffffffffffff1690565b9a01516001600160d01b031690565b9101610dd2565b93611060565b63ffffffff1690565b6001939291565b6000925082915081908190565b919261115b8161168a565b8103908111610e5a576110cb93866000526111916111868360206000200165ffffffffffff90541690565b65ffffffffffff1690565b65ffffffffffff851610156111a75750916110c0565b9291506111b39061107c565b906110c0565b9081602091031261019c576104e4906109cb565b90600163ffffffff80931601918211610e5a57565b918051156112b057806020806111fd935183010191016111b9565b916112088382611906565b92611219845165ffffffffffff1690565b9065ffffffffffff80851692168281146112a4578211918261124f575b5050611246576104e4925061182e565b50506020015190565b90915061125c8354611060565b63ffffffff831614918215611275575b50503880611236565b61129c91925061129061128a611186926111cd565b85611906565b5165ffffffffffff1690565b11388061126c565b50505050506020015190565b506104e49161182e565b604051906112c7826107b6565b60606020838281520152565b9060208282031261019c5781516001600160401b039283821161019c57019060408282031261019c5760405192611309846107b6565b825181811161019c578261131e918501610b2a565b8452602083015190811161019c576113369201610b2a565b602082015290565b9081602091031261019c57516104e48161049e565b65ffffffffffff9182169082160391908211610e5a57565b9081602091031261019c575190565b9081526001600160a01b03909116602082015265ffffffffffff90911660408201526080606082018190526104e49291019061050a565b926113ba6112ba565b908051806115f7575b50506113ce426119af565b6000549094906113f4906113e8906001600160a01b031681565b6001600160a01b031690565b93604051956327f843b560e11b875260209687816004818a5afa8015610d265761142a92611186926000926115c8575b50611353565b65ffffffffffff82169081109081156115b1575b811561157e575b50611570578560049560405196878092630ce9b79360e41b82525afa948515610d2657611498958791600091611553575b50845190604051808099819463e02f693760e01b8352878b8a6004860161137a565b03916001600160a01b03165afa938415610d265761150f95600095611512575b5092611504859361150a9361150496869a6114fb6101fd836114e4876000526002602052604060002090565b9060018060a01b0316600052602052604060002090565b95015192610da5565b9061106f565b61196e565b91565b61150a929550611504949193611540611504928a3d8c1161154c575b61153881836107f1565b81019061136b565b969350939194506114b8565b503d61152e565b61156a9150823d8411610d5157610d4381836107f1565b38611476565b505050505050600090600090565b90506115aa61118661159e876114e4876000526001602052604060002090565b5465ffffffffffff1690565b1138611445565b90506115bf611186426119af565b8110159061143e565b6115e99192508a3d8c116115f0575b6115e181836107f1565b81019061133e565b9038611424565b503d6115d7565b61160a92506020809183010191016112d3565b38806113c3565b611619611980565b611621611980565b60017f9b779b17422d0df92223018b32b4d1fa46e071723d6817e2486d003becc55f0055565b60405190602082018281106001600160401b038211176107d15760405260008252565b8115611674570490565b634e487b7160e01b600052601260045260246000fd5b80156117c4578061175d61175661174c61174261173861172e61172461171a60016104e49a6000908b60801c806117b8575b508060401c806117ab575b508060201c8061179e575b508060101c80611791575b508060081c80611784575b508060041c80611777575b508060021c8061176a575b50821c611763575b811c1b611713818b61166a565b0160011c90565b611713818a61166a565b611713818961166a565b611713818861166a565b611713818761166a565b611713818661166a565b611713818561166a565b809261166a565b9061196e565b8101611706565b60029150910190386116fe565b60049150910190386116f3565b60089150910190386116e8565b60109150910190386116dd565b60209150910190386116d2565b60409150910190386116c7565b915050608090386116bc565b50600090565b91905b8382106117da5750505090565b909192808316906001818518811c8301809311610e5a5760008681526020902083015465ffffffffffff908116908516101561181b575050925b91906117cd565b909493508101809111610e5a5791611814565b90815490600082916005841161189c575b61184a9350846117ca565b8061187357506000905b6001600160d01b03821615610e34576104e4916001610e2a9201610dd2565b61188f61188261189692611060565b8360005260206000200190565b5460301c90565b90611854565b91926118a78161168a565b8103908111610e5a5761184a938560005265ffffffffffff80836020600020015416908516106000146118db57509161183f565b9291506118e79061107c565b9061183f565b604051906118fa826107b6565b60006020838281520152565b9061192f611929611950926119196118ed565b506119226118ed565b5084610dd2565b5061108a565b91600165ffffffffffff845116936020828060d01b03910151169101610dd2565b90549060405192611960846107b6565b835260031b1c602082015290565b908082101561197b575090565b905090565b60ff6000805160206119e28339815191525460401c161561199d57565b604051631afcd79f60e31b8152600490fd5b65ffffffffffff908181116119c2571690565b604490604051906306dfcc6560e41b8252603060048301526024820152fdfef0c57e16840df040f15088dc2f81fe391c3923bec73e23a9662efc9c229c6a00a2646970667358221220e70ec6f5774eafcd9781592bf9f7242807709a92b214df70f75ec98be8c1c20464736f6c6343000819003361014034610161576001600160401b0390601f61214b38819003918201601f191683019184831184841017610166578084926020946040528339810103126101615751906001600160a01b038216820361016157306080527ff0c57e16840df040f15088dc2f81fe391c3923bec73e23a9662efc9c229c6a009081549060ff8260401c1661014f57808083160361010a575b83600060a052600060c052600060e052610100906000825261012090815260405190611fce928361017d843960805183505060a05183610528015260c05183818161099001526113ea015260e051838181610324015261172f01525182818161022001526104e30152518181816106cf0152610d7f0152f35b6001600160401b031990911681179091556040519081527fc7f505b2f371ae2175ee4913f4499e1f2633a7b5936321eed1cdaeb6115181d290602090a1388080610091565b60405163f92ee8a960e01b8152600490fd5b600080fd5b634e487b7160e01b600052604160045260246000fdfe6080604052600436101561001257600080fd5b60003560e01c8063021a815614610127578063103f2907146101225780631a2be2c41461011d578063238ab85f14610118578063267de1f3146101135780632964f8dc1461010e5780632c9d45b3146101095780632dd310001461010457806334d098ea146100ff578063439fab91146100fa578063457821b7146100f55780639f86fd85146100f0578063aa8e6489146100eb578063aab3595f146100e6578063bb24fe8a146100e1578063d5c24e1a146100dc5763fbfa77cf146100d757600080fd5b6109d2565b6109b4565b610970565b61094b565b610909565b6106fe565b6106b9565b61057d565b610557565b610512565b6104cd565b6104b0565b610457565b6103f3565b610353565b61030e565b61017f565b6001600160a01b0381160361013d57565b600080fd5b65ffffffffffff81160361013d57565b9181601f8401121561013d578235916001600160401b03831161013d576020838186019501011161013d57565b3461013d5760a036600319011261013d5760043560243561019f8161012c565b6064356101ab81610142565b6084356001600160401b03811161013d576101ca903690600401610152565b917f9b779b17422d0df92223018b32b4d1fa46e071723d6817e2486d003becc55f0060028154146102f15760029055604051635daf681960e11b8152606086901c60048201526001600160a01b036020826024817f000000000000000000000000000000000000000000000000000000000000000085165afa9182156102ec576000926102bb575b50339116036102a9576102a59461026c9460443591610ab0565b61029560017f9b779b17422d0df92223018b32b4d1fa46e071723d6817e2486d003becc55f0055565b6040519081529081906020820190565b0390f35b60405163227bf64d60e01b8152600490fd5b6102de91925060203d6020116102e5575b6102d6818361081e565b810190610e2e565b9038610252565b503d6102cc565b610a71565b604051633ee5aeb560e01b8152600490fd5b600091031261013d57565b3461013d57600036600319011261013d576040517f00000000000000000000000000000000000000000000000000000000000000006001600160a01b03168152602090f35b3461013d57604036600319011261013d5760206103a361039e6024356103788161012c565b6004356000526002845260406000209060018060a01b0316600052602052604060002090565b611647565b604051908152f35b60005b8381106103be5750506000910152565b81810151838201526020016103ae565b906020916103e7815180928185528580860191016103ab565b601f01601f1916010190565b3461013d5760c036600319011261013d576102a56104436004356104168161012c565b61042160243561012c565b60643561042d8161012c565b60a4359161043a83610142565b60443590610d32565b6040519182916020835260208301906103ce565b3461013d57604036600319011261013d57602065ffffffffffff6104a66024356104808161012c565b6004356000526001845260406000209060018060a01b0316600052602052604060002090565b5416604051908152f35b3461013d57600036600319011261013d576020604051614e208152f35b3461013d57600036600319011261013d576040517f00000000000000000000000000000000000000000000000000000000000000006001600160a01b03168152602090f35b3461013d57600036600319011261013d576040517f00000000000000000000000000000000000000000000000000000000000000006001600160a01b03168152602090f35b3461013d57600036600319011261013d57602060ff60005460a01c166040519015158152f35b3461013d57602036600319011261013d576001600160401b0360043581811161013d576105ae903690600401610152565b600080516020611f79833981519152549260ff8460401c16159316801590816106b1575b60011490816106a7575b15908161069e575b5061068c57600080516020611f79833981519152805467ffffffffffffffff191660011790556106189183610667576116f8565b61061e57005b600080516020611f79833981519152805460ff60401b19169055604051600181527fc7f505b2f371ae2175ee4913f4499e1f2633a7b5936321eed1cdaeb6115181d290602090a1005b600080516020611f79833981519152805460ff60401b1916600160401b1790556116f8565b60405163f92ee8a960e01b8152600490fd5b905015386105e4565b303b1591506105dc565b8491506105d2565b3461013d57600036600319011261013d576040517f00000000000000000000000000000000000000000000000000000000000000006001600160a01b03168152602090f35b3461013d5760408060031936011261013d5760043561071c8161012c565b602435906001600160401b03821161013d57600080916107436107a8943690600401610152565b908187519283928337810184815203915af43d156107b05761079a3d6107688161085b565b906107758651928361081e565b81523d6000602083013e5b8451948593151560208501528084015260608301906103ce565b03601f19810183528261081e565b805190602001fd5b61079a6060610780565b634e487b7160e01b600052604160045260246000fd5b602081019081106001600160401b038211176107eb57604052565b6107ba565b604081019081106001600160401b038211176107eb57604052565b6001600160401b0381116107eb57604052565b90601f801991011681019081106001600160401b038211176107eb57604052565b6040519061084c826107f0565b565b6040519061084c826107d0565b6001600160401b0381116107eb57601f01601f191660200190565b81601f8201121561013d5780359061088d8261085b565b9261089b604051948561081e565b8284526020838301011161013d57816000926020809301838601378301015290565b90608060031983011261013d57600435916024356108da8161012c565b916044356108e781610142565b91606435906001600160401b03821161013d5761090691600401610876565b90565b3461013d5760206103a361094661091f366108bd565b939190926000526002865260406000209060018060a01b0316600052602052604060002090565b611896565b3461013d57602061096761095e366108bd565b92919091610f29565b50604051908152f35b3461013d57600036600319011261013d5760206040516001600160401b037f0000000000000000000000000000000000000000000000000000000000000000168152f35b3461013d57600036600319011261013d576020604051620249f08152f35b3461013d57600036600319011261013d576000546040516001600160a01b039091168152602090f35b60405190610a08826107d0565b60608252565b9060208282031261013d5781356001600160401b039283821161013d57019060208282031261013d5760405192610a44846107d0565b823590811161013d57610a579201610876565b815290565b9081602091031261013d575161090681610142565b6040513d6000823e3d90fd5b634e487b7160e01b600052601160045260246000fd5b65ffffffffffff9182169082160391908211610aab57565b610a7d565b92939594919095610abf6109fb565b9280610c9c575b5050610ad14261196e565b600054600490602090610afa90610aee906001600160a01b031681565b6001600160a01b031690565b6040516327f843b560e11b815292839182905afa80156102ec57610b3592610b2a92600092610c6b575b50610a93565b65ffffffffffff1690565b65ffffffffffff8516908110908115610c55575b50610c4357610b5e610b679251858886610f29565b92908092611165565b958615610c3157610bec61079a610be3610c2c947fe0cbbe1f1e6fd806ca87036fafcebaf7ab5247474a3b20e1c37bb50122c3a88496610ba88a878b611177565b610bb38c878b61120d565b610bbb61083f565b9182526020820152604051928391602083019190916020806040830194805184520151910152565b86898488611383565b610bf68588611492565b610c028588838761151a565b6040805188815265ffffffffffff90961660208701526001600160a01b0390911694918291820190565b0390a3565b60405163167f871760e31b8152600490fd5b604051631357ac9160e11b8152600490fd5b9050610c63610b2a4261196e565b111538610b49565b610c8e91925060203d602011610c95575b610c86818361081e565b810190610a5c565b9038610b24565b503d610c7c565b610caa929350810190610a0e565b903880610ac6565b81601f8201121561013d578051610cc88161085b565b92610cd6604051948561081e565b8184526020828401011161013d5761090691602080850191016103ab565b9060208282031261013d5781516001600160401b03811161013d576109069201610cb2565b60406109069260208352519160208082015201906103ce565b604051632751749360e11b81526001600160a01b0391821660048201526024810192909252918216604482015265ffffffffffff90921660648301526060929190600090829060849082907f0000000000000000000000000000000000000000000000000000000000000000165afa9081156102ec57600091610dde575b508051610dba5750565b61079a91925061090690610dcc61084e565b90815260405192839160208301610d19565b610dfb91503d806000833e610df3818361081e565b810190610cf4565b38610db0565b60009081526002602090815260408083206001600160a01b03909416835292905220610906929190611896565b9081602091031261013d57516109068161012c565b60405190610e50826107f0565b60606020838281520152565b9060208282031261013d5781516001600160401b039283821161013d57019060408282031261013d5760405192610e92846107f0565b825181811161013d5782610ea7918501610cb2565b8452602083015190811161013d57610ebf9201610cb2565b602082015290565b9081602091031261013d575190565b9081526001600160a01b03909116602082015265ffffffffffff9091166040820152608060608201819052610906929101906103ce565b600019810191908211610aab57565b91908203918211610aab57565b92610f32610e43565b9080518061114b575b5050610f464261196e565b600054909490610f6090610aee906001600160a01b031681565b93604051956327f843b560e11b875260209687816004818a5afa80156102ec57610f9592610b2a926000926111335750610a93565b65ffffffffffff821690811090811561111c575b81156110e9575b506110db578560049560405196878092630ce9b79360e41b82525afa9485156102ec576110039587916000916110be575b50845190604051808099819463e02f693760e01b8352878b8a60048601610ed6565b03916001600160a01b03165afa9384156102ec5761107a9560009561107d575b509261106f85936110759361106f96869a61106661039e8361104f876000526002602052604060002090565b9060018060a01b0316600052602052604060002090565b95015192610e01565b90610f1c565b611165565b91565b61107592955061106f9491936110ab61106f928a3d8c116110b7575b6110a3818361081e565b810190610ec7565b96935093919450611023565b503d611099565b6110d59150823d84116102e5576102d6818361081e565b38610fe1565b505050505050600090600090565b9050611115610b2a6111098761104f876000526001602052604060002090565b5465ffffffffffff1690565b1138610fb0565b905061112a610b2a4261196e565b81101590610fa9565b610c8e9192508a3d8c11610c9557610c86818361081e565b61115e9250602080918301019101610e5c565b3880610f3b565b9080821015611172575090565b905090565b91909180600052600160205265ffffffffffff806111ab8560406000209060018060a01b0316600052602052604060002090565b5416908316116111ba57505050565b61084c926111e691600052600160205260406000209060018060a01b0316600052602052604060002090565b9065ffffffffffff1665ffffffffffff19825416179055565b9060018201809211610aab57565b919082600052600260205261126d61039e61123e8360406000209060018060a01b0316600052602052604060002090565b926112484261196e565b95600052600260205260406000209060018060a01b0316600052602052604060002090565b918201809211610aab576001810190815415611313575b61128d81611bd4565b50949083549561129c84611647565b50816112fe575b50156112dd5750506000198301928311610aab5761084c926112c491611619565b90919082549060031b91821b91600019901b1916179055565b61084c946112f7926001600160d01b039091169190611cb5565b50506119ce565b65ffffffffffff8381169116149050386112a3565b61131c826119a0565b611284565b60606020610906938184526001600160401b038151168285015201519160408082015201906103ce565b919360a093610906969565ffffffffffff938552600180871b03166020850152604084015216606082015281608082015201906103ce565b929390600093600460206113a3610aee610aee895460018060a01b031690565b604051630ce9b79360e41b815292839182905afa9081156102ec5761079a91611421918891611473575b506001600160a01b0316946113e061083f565b6001600160401b037f000000000000000000000000000000000000000000000000000000000000000016815290602082015260405192839160208301611321565b833b1561146f579061144b86926040519889978896879563724ab0f760e11b87526004870161134b565b03925af180156102ec5761145c5750565b8061146961084c9261080b565b80610303565b8580fd5b61148c915060203d6020116102e5576102d6818361081e565b386113cd565b60008054604051631c9e38c760e21b8152600481019390935265ffffffffffff9390931660248301529091602091839160449183916001600160a01b03165af180156102ec576114df5750565b6114f79060203d6020116110b7576110a3818361081e565b50565b8115611504570490565b634e487b7160e01b600052601260045260246000fd5b92906000549060ff8260a01c16611533575b5050505050565b6040516313c085b760e11b815291602090839060049082906001600160a01b03165afa9182156102ec576000926115f2575b5060405163065c1e0360e01b6020820190815260248201969096526001600160a01b039091166044820152606481019390935265ffffffffffff90911660848301526115be8260a481015b03601f19810184528361081e565b6202a15c5a106115e0576000928380935192620249f0f150388080808061152c565b604051632153f33560e21b8152600490fd5b6115be92506116126115b09160203d6020116102e5576102d6818361081e565b9250611565565b80548210156116315760005260206000200190600090565b634e487b7160e01b600052603260045260246000fd5b80546000908061168257505060005b6001600160d01b0381161561167b5760016116719201611619565b90549060031b1c90565b5050600090565b600019918183810111610aab578084602092522001015460301c611656565b91909160408184031261013d5780356116b98161012c565b9260208201356001600160401b03811161013d576109069201610876565b5190811515820361013d57565b9081602091031261013d57610906906116d7565b611704918101906116a1565b6040516302910f8b60e31b81526001600160a01b0392831660048201819052929160209182816024817f000000000000000000000000000000000000000000000000000000000000000088165afa9081156102ec57600091611838575b501561182657816117966004926117766119f1565b600080546001600160a01b0319166001600160a01b038916179055611a27565b94604051928380926313c085b760e11b82525afa9182156102ec57600092611809575b50501615806117ff575b6117ed575161084c9015156000805460ff60a01b191691151560a01b60ff60a01b16919091179055565b60405163d2420f5960e01b8152600490fd5b50805115156117c3565b61181f9250803d106102e5576102d6818361081e565b38806117b9565b6040516362df054560e01b8152600490fd5b6118589150833d851161185e575b611850818361081e565b8101906116e4565b38611761565b503d611846565b9081602091031261013d575163ffffffff8116810361013d5790565b90600163ffffffff80931601918211610aab57565b9180511561196457806020806118b193518301019101611865565b916118bc8382611b48565b926118cd845165ffffffffffff1690565b9065ffffffffffff80851692168281146119585782119182611903575b50506118fa576109069250611a70565b50506020015190565b9091506119108354610f0d565b63ffffffff831614918215611929575b505038806118ea565b61195091925061194461193e610b2a92611881565b85611b48565b5165ffffffffffff1690565b113880611920565b50505050506020015190565b5061090691611a70565b65ffffffffffff90818111611981571690565b604490604051906306dfcc6560e41b8252603060048301526024820152fd5b8054600160401b8110156107eb576119bd91600182018155611619565b8154906000199060031b1b19169055565b90815491600160401b8310156107eb57826112c491600161084c95018155611619565b6119f9611c29565b611a01611c29565b60017f9b779b17422d0df92223018b32b4d1fa46e071723d6817e2486d003becc55f0055565b6000604051611a35816107d0565b5260208180518101031261013d57602090604051611a52816107d0565b611a6a604051938493611a64856107d0565b016116d7565b82525290565b908154906000829160058411611ade575b611a8c935084611f17565b80611ab557506000905b6001600160d01b0382161561167b576109069160016116719201611619565b611ad1611ac4611ad892610f0d565b8360005260206000200190565b5460301c90565b90611a96565b9192611ae981611dd7565b8103908111610aab57611a8c938560005265ffffffffffff8083602060002001541690851610600014611b1d575091611a81565b929150611b29906111ff565b90611a81565b60405190611b3c826107f0565b60006020838281520152565b90611b71611b6b611b9292611b5b611b2f565b50611b64611b2f565b5084611619565b50611bb0565b91600165ffffffffffff845116936020828060d01b03910151169101611619565b90549060405192611ba2846107f0565b835260031b1c602082015290565b90604051611bbd816107f0565b915465ffffffffffff8116835260301c6020830152565b805480611be8575050600090600090600090565b600019908082810111610aab57611c089260005260206000200101611bb0565b9065ffffffffffff82511691602060018060d01b0391015116906001929190565b60ff600080516020611f798339815191525460401c1615611c4657565b604051631afcd79f60e31b8152600490fd5b8054600160401b8110156107eb57611c7591600182018155611619565b611c9f57815160209092015160301b65ffffffffffff191665ffffffffffff909216919091179055565b634e487b7160e01b600052600060045260246000fd5b805492939291908215611dad57611cd6611cd1611ac485610f0d565b611bb0565b90611ce7825165ffffffffffff1690565b65ffffffffffff84811691168110611d9b57611d5f946020948892611d15610b2a875165ffffffffffff1690565b03611d635750611d5192611d2b611d3892610f0d565b9060005260206000200190565b9065ffffffffffff82549181199060301b169116179055565b01516001600160d01b031690565b9190565b915050611d9691611d83611d7561083f565b65ffffffffffff9093168352565b6001600160d01b03881682860152611c58565b611d51565b604051632520601d60e01b8152600490fd5b611dd19250611dbd611d7561083f565b6001600160d01b0385166020830152611c58565b60009190565b8015611f115780611eaa611ea3611e99611e8f611e85611e7b611e71611e6760016109069a6000908b60801c80611f05575b508060401c80611ef8575b508060201c80611eeb575b508060101c80611ede575b508060081c80611ed1575b508060041c80611ec4575b508060021c80611eb7575b50821c611eb0575b811c1b611e60818b6114fa565b0160011c90565b611e60818a6114fa565b611e6081896114fa565b611e6081886114fa565b611e6081876114fa565b611e6081866114fa565b611e6081856114fa565b80926114fa565b90611165565b8101611e53565b6002915091019038611e4b565b6004915091019038611e40565b6008915091019038611e35565b6010915091019038611e2a565b6020915091019038611e1f565b6040915091019038611e14565b91505060809038611e09565b50600090565b91905b838210611f275750505090565b9091928083169080841860011c8201809211610aab5760008581526020902082015465ffffffffffff9081169084161015611f665750925b9190611f1a565b939250611f72906111ff565b91611f5f56fef0c57e16840df040f15088dc2f81fe391c3923bec73e23a9662efc9c229c6a00a2646970667358221220feed35173ed7a8fef768f56d267b3e550e57332aeb75323748114bbcfa39456d64736f6c6343000819003361016034610181576001600160401b0390601f61386138819003918201601f191683019184831184841017610186578084926020946040528339810103126101815751906001600160a01b038216820361018157306080527ff0c57e16840df040f15088dc2f81fe391c3923bec73e23a9662efc9c229c6a009081549060ff8260401c1661016f57808083160361012a575b83600060a052600060c052600060e05261010090600082526101209060008252610140908152604051916136c4938461019d853960805184610bab015260a051846104b0015260c0518481816115eb0152612d0e015260e051848181610312015261233901525183818161046b01526124c8015251828181610cbf01526116430152518181816108460152818161197f0152611d7e0152f35b6001600160401b031990911681179091556040519081527fc7f505b2f371ae2175ee4913f4499e1f2633a7b5936321eed1cdaeb6115181d290602090a1388080610091565b60405163f92ee8a960e01b8152600490fd5b600080fd5b634e487b7160e01b600052604160045260246000fdfe6080604052600436101561001257600080fd5b60003560e01c80622a087514610216578063103f2907146102115780631a2be2c41461020c5780631dd5f60014610207578063267de1f3146102025780632964f8dc146101fd5780632c9d45b3146101f85780632dd31000146101f357806331ce4dfe146101ee57806334d098ea146101e9578063439fab91146101e4578063457821b7146101df5780635264679b146101da578063545ce389146101d557806369f78920146101d05780638f42f9ab146101cb5780638f82f931146101c65780639168f9d2146101c15780639a896551146101bc5780639f86fd85146101b7578063a4ef9b4f146101b2578063aa8e6489146101ad578063aab3595f146101a8578063b94c386e146101a3578063bb24fe8a1461019e578063bc6eac5b14610199578063c0cd7c3e14610194578063cd05b8a11461018f578063d5c24e1a1461018a578063e054e08b14610185578063f9268d18146101805763fbfa77cf1461017b57600080fd5b61187e565b61170e565b6116e8565b6116ca565b611672565b61162d565b61160f565b6115cb565b61127c565b611224565b6111e2565b61117f565b6110ea565b61105f565b610c1f565b610b8c565b610b6e565b610b29565b61088f565b610875565b610830565b6106f4565b6106a1565b610637565b61049a565b610455565b610438565b6103df565b6103c5565b610341565b6102fc565b610289565b6001600160a01b0381160361022c57565b600080fd5b65ffffffffffff81160361022c57565b60005b8381106102545750506000910152565b8181015183820152602001610244565b9060209161027d81518092818552858086019101610241565b601f01601f1916010190565b3461022c5760c036600319011261022c576102ed6102d96004356102ac8161021b565b6102b760243561021b565b6064356102c38161021b565b60a435916102d083610231565b60443590611933565b604051918291602083526020830190610264565b0390f35b600091031261022c57565b3461022c57600036600319011261022c576040517f00000000000000000000000000000000000000000000000000000000000000006001600160a01b03168152602090f35b3461022c57604036600319011261022c57602061039161038c6024356103668161021b565b6004356000526002845260406000209060018060a01b0316600052602052604060002090565b61214f565b604051908152f35b606090600319011261022c576004356103b18161021b565b90602435906044356103c281610231565b90565b3461022c576102ed6102d96103d936610399565b91611a0d565b3461022c57604036600319011261022c57602065ffffffffffff61042e6024356104088161021b565b6004356000526001845260406000209060018060a01b0316600052602052604060002090565b5416604051908152f35b3461022c57600036600319011261022c576020604051614e208152f35b3461022c57600036600319011261022c576040517f00000000000000000000000000000000000000000000000000000000000000006001600160a01b03168152602090f35b3461022c57600036600319011261022c576040517f00000000000000000000000000000000000000000000000000000000000000006001600160a01b03168152602090f35b634e487b7160e01b600052604160045260246000fd5b602081019081106001600160401b0382111761051057604052565b6104df565b604081019081106001600160401b0382111761051057604052565b606081019081106001600160401b0382111761051057604052565b6001600160401b03811161051057604052565b608081019081106001600160401b0382111761051057604052565b90601f801991011681019081106001600160401b0382111761051057604052565b6040519060c082018281106001600160401b0382111761051057604052565b604051906105c682610530565b565b604051906105c682610515565b6001600160401b03811161051057601f01601f191660200190565b81601f8201121561022c57803590610607826105d5565b926106156040519485610579565b8284526020838301011161022c57816000926020809301838601378301015290565b3461022c57606036600319011261022c5760243561065481610231565b604435906001600160401b03821161022c5761069861067960209336906004016105f0565b600435600090815260068552604090206001600160a01b0393906121c9565b16604051908152f35b3461022c57600036600319011261022c57602060ff60005460a01c166040519015158152f35b9181601f8401121561022c578235916001600160401b03831161022c576020838186019501011161022c57565b3461022c57602036600319011261022c576001600160401b0360043581811161022c576107259036906004016106c7565b60008051602061366f833981519152549260ff8460401c1615931680159081610828575b600114908161081e575b159081610815575b506108035760008051602061366f833981519152805467ffffffffffffffff1916600117905561078f91836107de57612302565b61079557005b60008051602061366f833981519152805460ff60401b19169055604051600181527fc7f505b2f371ae2175ee4913f4499e1f2633a7b5936321eed1cdaeb6115181d290602090a1005b60008051602061366f833981519152805460ff60401b1916600160401b179055612302565b60405163f92ee8a960e01b8152600490fd5b9050153861075b565b303b159150610753565b849150610749565b3461022c57600036600319011261022c576040517f00000000000000000000000000000000000000000000000000000000000000006001600160a01b03168152602090f35b3461022c576102ed6102d961088936610399565b91611a95565b3461022c5760a036600319011261022c57600460243581356108b08261021b565b606435916108bd83610231565b6084356001600160401b03811161022c576108db90369086016106c7565b93906108e5612470565b6108ee846124a0565b6108f6611b27565b9480610b13575b505061090842612692565b61092261091b875465ffffffffffff1690565b8092611b88565b6000549095906109489061093c906001600160a01b031681565b6001600160a01b031690565b958760206040988951928380926327f843b560e11b82525afa8015610b0e576109889261097d92600092610add575b50611a7d565b65ffffffffffff1690565b65ffffffffffff8416908110908115610ac7575b50610ab7576109b16109ba915184868861286d565b50604435612538565b958615610aa9576102ed610a81878988887f3cb7f4ff6cecf74cee0eb9ae3ebf8933fa60a53014cce52f96da72a78dba8464896109ff8a6109fa42612692565b611b88565b92600354978894610a51610a1161059a565b8881526001600160a01b0385166020820152808b018a905265ffffffffffff8616606082015265ffffffffffff83166080820152600060a0820152611bcd565b885197885265ffffffffffff938416602089015290921660408701526001600160a01b0316949081906060820190565b0390a4610a9b600160008051602061364f83398151915255565b519081529081906020820190565b855163167f871760e31b8152fd5b8551631357ac9160e11b81528790fd5b9050610ad561097d42612692565b11153861099c565b610b0091925060203d602011610b07575b610af88183610579565b810190611ba2565b9038610977565b503d610aee565b61190e565b610b21929550810190611b3a565b9238806108fd565b3461022c57608036600319011261022c576102ed6102d9600435610b4c8161021b565b604435610b588161021b565b60643591610b6583610231565b60243590611d03565b3461022c57600036600319011261022c576020600354604051908152f35b3461022c57604036600319011261022c57602435610ba981610231565b7f00000000000000000000000000000000000000000000000000000000000000006001600160a01b03163303610c0d5763ffffffff610bf860409260043560005260066020528360002061256e565b91505083929192519215158352166020820152f35b604051637ca475e560e11b8152600490fd5b3461022c57606036600319011261022c5760048035906bffffffffffffffffffffffff8216820361022c57602435610c568161021b565b6044356001600160401b03811161022c57610c7490369084016106c7565b90610c7d612470565b610c85611b27565b5081610ff6575b5050604080516302910f8b60e31b8152338185019081526001600160a01b0395929491602091829082908190830103818a7f0000000000000000000000000000000000000000000000000000000000000000165afa908115610b0e57600091610fc9575b5015610fba57600054610d2c906001600160a01b0316936bffffffffffffffffffffffff166bffffffffffffffffffffffff193360601b161790565b95610d49610d44886000526006602052604060002090565b613303565b50949015610f4e57610d5d61097d42612692565b65ffffffffffff9586161115610f1657610d89610d84896000526006602052604060002090565b61264f565b505b610db061093c61093c61093c610dab8c6000526006602052604060002090565b612f35565b91808716928303610e1d575b505050505050610e01907f7b0b759b513b299fd2811f51926dca8854222a675557e8d544ce0933bf5b7570925b516001600160a01b0390911681529081906020820190565b0390a2610e1b600160008051602061364f83398151915255565b005b610e368998959796986000526006602052604060002090565b911692845163186a323160e21b815281818981885afa908115610b0e57600091610ef9575b5081600554958751998a80926327f843b560e11b82525afa908115610b0e5789610ec1610ed3977f7b0b759b513b299fd2811f51926dca8854222a675557e8d544ce0933bf5b75709c610ec895610e019d610ecd98600092610edc575b50501690611e55565b9116611e76565b612692565b9061351f565b82958495610dbc565b610ef29250803d10610b0757610af88183610579565b3880610eb8565b610f109150823d8411610b0757610af88183610579565b38610e5b565b610f3661093c61093c61093c610dab8c6000526006602052604060002090565b82871603610d8b57865163a741a04560e01b81528490fd5b5093949385169250508115610fac575091610e0191610fa57f7b0b759b513b299fd2811f51926dca8854222a675557e8d544ce0933bf5b757094610f9c876000526006602052604060002090565b610ecd42612692565b5050610de9565b825163a741a04560e01b8152fd5b5083516323d53b9760e21b8152fd5b610fe99150823d8411610fef575b610fe18183610579565b810190611e41565b38610cf0565b503d610fd7565b61100291810190611b3a565b503880610c8c565b634e487b7160e01b600052603260045260246000fd5b60035481101561105a57600360005260021b7fc2575a0e9e593c00f959f8c92f12db2869c3395a3b0502d05e2516446f71f85b0190600090565b61100a565b3461022c57602036600319011261022c5760043560035481101561022c5761108690611020565b50805460018201546002830154600390930154604080519384526001600160a01b0390921660208401529082019290925265ffffffffffff808316606080840191909152603084901c90911660808301529190911c60ff16151560a082015260c090f35b3461022c57604036600319011261022c576004356111078161021b565b6024356001600160401b03811161022c5760009161112a839236906004016106c7565b90816040519283928337810184815203915af4611177611148611e83565b91611169604051938492151560208401526040808401526060830190610264565b03601f198101835282610579565b805190602001fd5b3461022c576102ed6102d961119336610399565b91611ee5565b90608060031983011261022c57600435916024356111b68161021b565b916044356111c381610231565b91606435906001600160401b03821161022c576103c2916004016105f0565b3461022c57602061039161121f6111f836611199565b939190926000526002865260406000209060018060a01b0316600052602052604060002090565b6126f8565b3461022c57602061124061123736611199565b9291909161286d565b50604051908152f35b90604060031983011261022c5760043591602435906001600160401b03821161022c57611278916004016106c7565b9091565b3461022c5761128a36611249565b9190611294612470565b61129c61200c565b92806115b5575b50506003548110156115a3576112b881611020565b50908154906112c6826124a0565b6003830180549365ffffffffffff9384861660018060a01b036112eb89518385611a24565b16151580611578575b8061155f575b61154d576113108161130b42612692565b611a7d565b6000546113279061093c906001600160a01b031681565b96600460206040998a51928380926327f843b560e11b82525afa8015610b0e57829160009161152e575b501691161161151d57600183018054909861137c93929188906001600160a01b03169101519261286d565b9061138b816002850154612538565b96871561150c5760601c60ff166114fb57926114b36114a6899461147e61146b8b9687876102ed9f6114798f9d8f9e6114b99f6113d586600160601b60ff60601b19825416179055565b8a5485546113f791906001600160a01b0316885465ffffffffffff1691612aa9565b8a5485546114109189916001600160a01b031690612b31565b8a54945461142e906001600160a01b0316965465ffffffffffff1690565b976114376105b9565b9384526020840152818301525196879160208301919091604080606083019480518452602081015160208501520151910152565b03601f198101875286610579565b612ca7565b611497611491855465ffffffffffff1690565b86612db6565b5494546001600160a01b031690565b915465ffffffffffff1690565b92612e36565b81518381527f5cc28df3b54da9d06f805d87616ebf969c81310f2aa8369cb14ca50f815d411190602090a2610a9b600160008051602061364f83398151915255565b8551633428e90760e01b8152600490fd5b865163167f871760e31b8152600490fd5b8551639ea153eb60e01b8152600490fd5b611547915060203d602011610b0757610af88183610579565b38611351565b60405163b62b15c760e01b8152600490fd5b5061156c61097d42612692565b868860301c16116112fa565b5061159c61093c61159061158b42612692565b611a60565b60208b01519085611a24565b15156112f4565b604051637822972360e11b8152600490fd5b6115c392935081019061202b565b9038806112a3565b3461022c57600036600319011261022c5760206040516001600160401b037f0000000000000000000000000000000000000000000000000000000000000000168152f35b3461022c57600036600319011261022c576020600554604051908152f35b3461022c57600036600319011261022c576040517f00000000000000000000000000000000000000000000000000000000000000006001600160a01b03168152602090f35b3461022c57604036600319011261022c576024356001600160401b03811161022c576116b86116a760209236906004016105f0565b6116b042612692565b600435611a24565b6040516001600160a01b039091168152f35b3461022c57600036600319011261022c576020604051620249f08152f35b3461022c57600036600319011261022c57602065ffffffffffff60045416604051908152f35b3461022c5761171c36611249565b90611725612470565b61172d6120b3565b918061186a575b50506003548210156115a35761174982611020565b506003815491019182549165ffffffffffff9160018060a01b03611771825185871685611a24565b16918215918215611841575b505061182f57330361181d5761179561097d42612692565b908260301c16111561180c5760601c60ff166117fa57805460ff60601b1916600160601b17905533907f7d3d269c851b72257a5194a401d151902e9be4347d555996dcff3ff86a077e92600080a3610e1b600160008051602061364f83398151915255565b604051633428e90760e01b8152600490fd5b60405162c457e560e81b8152600490fd5b604051635d154fe160e11b8152600490fd5b60405163dd1ebd9d60e01b8152600490fd5b61186292509061093c91602061185961158b42612692565b91015191611a24565b15388061177d565b61187792508101906120cc565b3880611734565b3461022c57600036600319011261022c576000546040516001600160a01b039091168152602090f35b81601f8201121561022c5780516118bd816105d5565b926118cb6040519485610579565b8184526020828401011161022c576103c29160208085019101610241565b9060208282031261022c5781516001600160401b03811161022c576103c292016118a7565b6040513d6000823e3d90fd5b60406103c2926020835251916020808201520190610264565b604051632751749360e11b81526001600160a01b0391821660048201526024810192909252909116604482015265ffffffffffff909116606482015260609190600081806084810103817f00000000000000000000000000000000000000000000000000000000000000006001600160a01b03165afa908115610b0e576000916119ea575b5080516119c25750565b6111699192506103c290604051906119d9826104f5565b81526040519283916020830161191a565b611a0791503d806000833e6119ff8183610579565b8101906118e9565b386119b8565b9291611a1b91606094611ee5565b80516119c25750565b60009081526006602052604090206001600160a01b0392611a469290916121c9565b1690565b634e487b7160e01b600052601160045260246000fd5b65ffffffffffff9081166000190191908211611a7857565b611a4a565b65ffffffffffff9182169082160391908211611a7857565b611ab690939293611aa96060958483611ee5565b9261119361158b42612692565b815115801590611b1d575b611ac9575050565b611b0a929350906111696103c29260405192611ae484610515565b835260208301908152604051948593602080860152516040808601526080850190610264565b9051838203603f19016060850152610264565b5080511515611ac1565b60405190611b34826104f5565b60608252565b9060208282031261022c5781356001600160401b039283821161022c57019060208282031261022c5760405192611b70846104f5565b823590811161022c57611b8392016105f0565b815290565b91909165ffffffffffff80809416911601918211611a7857565b9081602091031261022c57516103c281610231565b634e487b7160e01b600052600060045260246000fd5b600354600160401b81101561051057806001611bec9201600355611020565b919091611caf578051825560208101516001830180546001600160a01b0319166001600160a01b03929092169190911790556105c691611c959060a090600390604085015160028201550192611c6265ffffffffffff606083015116859065ffffffffffff1665ffffffffffff19825416179055565b60808101516bffffffffffff00000000000085549160301b16906bffffffffffff00000000000019161784550151151590565b815460ff60601b191690151560601b60ff60601b16179055565b611bb7565b906103c29160208152611cd38251606060208401526080830190610264565b9060606040611cf3602086015194601f1995868683030184870152610264565b9401519282850301910152610264565b919093926000606095611d17838287611ee5565b94611d7a611d31611d2a61158b42612692565b8484611ee5565b604051632751749360e11b81526001600160a01b039384166004820152602481019490945291909516604483015265ffffffffffff909316606482015292839081906084820190565b03817f00000000000000000000000000000000000000000000000000000000000000006001600160a01b03165afa918215610b0e57600092611e17575b50825115801590611e0d575b8015611e03575b611dd357505050565b611169939450906103c29291611de76105b9565b9283526020830152604082015260405192839160208301611cb4565b5081511515611dca565b5080511515611dc3565b611e2d9192503d806000833e6119ff8183610579565b9038611db7565b5190811515820361022c57565b9081602091031261022c576103c290611e34565b81810292918115918404141715611a7857565b9060018201809211611a7857565b91908201809211611a7857565b3d15611eae573d90611e94826105d5565b91611ea26040519384610579565b82523d6000602084013e565b606090565b519063ffffffff8216820361022c57565b919082604091031261022c576103c26020611ede84611e34565b9301611eb3565b929160008060609565ffffffffffff60405194602096638f82f93160e01b88880152602487015216604485015260448452611f1f8461055e565b6040519384611f4c87820192639f86fd8560e01b8452306024840152604060448401526064830190610264565b0394611f60601f1996878101835282610579565b51915afa50611f7e611f70611e83565b8380825183010191016126c4565b9015611fd157808380611f9693518301019101611ec4565b9290611fa157505050565b6103c292939450611fc5604051948592830191909163ffffffff6020820193169052565b03908101835282610579565b8091505191821561022c5701fd5b60009081526002602090815260408083206001600160a01b039094168352929052206103c29291906126f8565b6040519061201982610530565b60606040838281528260208201520152565b9060208282031261022c5781356001600160401b039283821161022c57019060608282031261022c576040519261206184610530565b823581811161022c57826120769185016105f0565b8452602083013581811161022c57826120909185016105f0565b6020850152604083013590811161022c576120ab92016105f0565b604082015290565b604051906120c082610515565b60606020838281520152565b9060208282031261022c5781356001600160401b039283821161022c57019060408282031261022c576040519261210284610515565b823581811161022c57826121179185016105f0565b8452602083013590811161022c5761212f92016105f0565b602082015290565b805482101561105a5760005260206000200190600090565b61215881612f35565b6001600160d01b0381161561217d5760016121739201612137565b90549060031b1c90565b5050600090565b9081602091031261022c576103c290611eb3565b600019810191908211611a7857565b91908203918211611a7857565b90600163ffffffff80931601918211611a7857565b918051156122ad57806020806121e493518301019101612184565b916121ef8382612f7a565b92612200845165ffffffffffff1690565b9065ffffffffffff8085169216828114612294578211918261223f575b505061222d576103c29250613416565b5050602001516001600160d01b031690565b90915061224c8354612198565b63ffffffff831614918215612265575b5050388061221d565b61228c91925061228061227a61097d926121b4565b85612f7a565b5165ffffffffffff1690565b11388061225c565b50505050602091909101516001600160d01b0316905090565b506103c291613416565b91909160408184031261022c5780356122cf8161021b565b9260208201356001600160401b03811161022c576103c292016105f0565b9081602091031261022c57516103c28161021b565b61230e918101906122b7565b6040516302910f8b60e31b81526001600160a01b0392831660048201819052929160209182816024817f000000000000000000000000000000000000000000000000000000000000000088165afa908115610b0e57600091612453575b501561244157816123a1600492612380612fce565b600080546001600160a01b0319166001600160a01b0389161790558661305d565b94604051928380926313c085b760e11b82525afa918215610b0e57600092612414575b505016158061240a575b6123f857516105c69015156000805460ff60a01b191691151560a01b60ff60a01b16919091179055565b60405163d2420f5960e01b8152600490fd5b50805115156123ce565b6124339250803d1061243a575b61242b8183610579565b8101906122ed565b38806123c4565b503d612421565b6040516362df054560e01b8152600490fd5b61246a9150833d8511610fef57610fe18183610579565b3861236b565b60008051602061364f833981519152600281541461248e5760029055565b604051633ee5aeb560e01b8152600490fd5b604051635daf681960e11b815260609190911c60048201526001600160a01b036020826024817f000000000000000000000000000000000000000000000000000000000000000085165afa918215610b0e57600092612517575b503391160361250557565b60405163227bf64d60e01b8152600490fd5b61253191925060203d60201161243a5761242b8183610579565b90386124fa565b9080821015612545575090565b905090565b9060405161255781610515565b915465ffffffffffff8116835260301c6020830152565b9081549060008291600584116125fe575b61258a93508461329f565b9081156125ee576125ad9061259e83612198565b9060005260206000200161254a565b916125e76125de6125d860206125c9875165ffffffffffff1690565b9601516001600160d01b031690565b93612198565b63ffffffff1690565b6001939291565b5050600090600090600090600090565b91926126098161315f565b8103908111611a785761258a938560005265ffffffffffff808360206000200154169085161060001461263d57509161257f565b92915061264990611e68565b9061257f565b9061265982612f35565b918054801561267c5760001901906126718282612137565b611caf576000905555565b634e487b7160e01b600052603160045260246000fd5b65ffffffffffff908181116126a5571690565b604490604051906306dfcc6560e41b8252603060048301526024820152fd5b91909160408184031261022c576126da81611e34565b9260208201516001600160401b03811161022c576103c292016118a7565b918051156127ba578060208061271393518301019101612184565b9161271e8382613363565b9261272f845165ffffffffffff1690565b9065ffffffffffff80851692168281146127ae5782119182612765575b505061275c576103c29250613358565b50506020015190565b9091506127728354612198565b63ffffffff83161491821561278b575b5050388061274c565b6127a69192506122806127a061097d926121b4565b85613363565b113880612782565b50505050506020015190565b506103c291613358565b9060208282031261022c5781516001600160401b039283821161022c57019060408282031261022c57604051926127fa84610515565b825181811161022c578261280f9185016118a7565b8452602083015190811161022c5761212f92016118a7565b9081602091031261022c575190565b9081526001600160a01b03909116602082015265ffffffffffff90911660408201526080606082018190526103c292910190610264565b926128766120b3565b90805180612a8f575b505061288a42612692565b6000549094906128a49061093c906001600160a01b031681565b93604051956327f843b560e11b875260209687816004818a5afa8015610b0e576128d99261097d92600092612a775750611a7d565b65ffffffffffff8216908110908115612a60575b8115612a2d575b50612a1f578560049560405196878092630ce9b79360e41b82525afa948515610b0e57612947958791600091612a02575b50845190604051808099819463e02f693760e01b8352878b8a60048601612836565b03916001600160a01b03165afa938415610b0e576129be956000956129c1575b50926129b385936129b9936129b396869a6129aa61038c83612993876000526002602052604060002090565b9060018060a01b0316600052602052604060002090565b95015192611fdf565b906121a7565b612538565b91565b6129b99295506129b39491936129ef6129b3928a3d8c116129fb575b6129e78183610579565b810190612827565b96935093919450612967565b503d6129dd565b612a199150823d841161243a5761242b8183610579565b38612925565b505050505050600090600090565b9050612a5961097d612a4d87612993876000526001602052604060002090565b5465ffffffffffff1690565b11386128f4565b9050612a6e61097d42612692565b811015906128ed565b610b009192508a3d8c11610b0757610af88183610579565b612aa292506020809183010191016127c4565b388061287f565b91909180600052600160205265ffffffffffff80612add8560406000209060018060a01b0316600052602052604060002090565b541690831611612aec57505050565b6105c692612b1891600052600160205260406000209060018060a01b0316600052602052604060002090565b9065ffffffffffff1665ffffffffffff19825416179055565b9190826000526002602052612b9161038c612b628360406000209060018060a01b0316600052602052604060002090565b92612b6c42612692565b95600052600260205260406000209060018060a01b0316600052602052604060002090565b918201809211611a78576001810190815415612c37575b612bb181613303565b509490835495612bc08461214f565b5081612c22575b5015612c015750506000198301928311611a78576105c692612be891612137565b90919082549060031b91821b91600019901b1916179055565b6105c694612c1b926001600160d01b03909116919061351f565b50506133f3565b65ffffffffffff838116911614905038612bc7565b612c40826133c5565b612ba8565b606060206103c2938184526001600160401b03815116828501520151916040808201520190610264565b919360a0936103c2969565ffffffffffff938552600180871b0316602085015260408401521660608201528160808201520190610264565b92939060009360046020612cc761093c61093c895460018060a01b031690565b604051630ce9b79360e41b815292839182905afa908115610b0e5761116991612d45918891612d97575b506001600160a01b031694612d046105c8565b6001600160401b037f000000000000000000000000000000000000000000000000000000000000000016815290602082015260405192839160208301612c45565b833b15612d935790612d6f86926040519889978896879563724ab0f760e11b875260048701612c6f565b03925af18015610b0e57612d805750565b80612d8d6105c69261054b565b806102f1565b8580fd5b612db0915060203d60201161243a5761242b8183610579565b38612cf1565b65ffffffffffff916044602092600060018060a01b038154166040519687958694631c9e38c760e21b865260048601521660248401525af18015610b0e57612dfb5750565b612e139060203d6020116129fb576129e78183610579565b50565b8115612e20570490565b634e487b7160e01b600052601260045260246000fd5b92906000549060ff8260a01c16612e4f575b5050505050565b6040516313c085b760e11b815291602090839060049082906001600160a01b03165afa918215610b0e57600092612f0e575b5060405163065c1e0360e01b6020820190815260248201969096526001600160a01b039091166044820152606481019390935265ffffffffffff9091166084830152612eda8260a481015b03601f198101845283610579565b6202a15c5a10612efc576000928380935192620249f0f1503880808080612e48565b604051632153f33560e21b8152600490fd5b612eda9250612f2e612ecc9160203d60201161243a5761242b8183610579565b9250612e81565b805480612f43575050600090565b600019918183810111611a7857600052602060002001015460301c90565b60405190612f6e82610515565b60006020838281520152565b612f9f91612f9991612f8a612f61565b50612f93612f61565b50612137565b5061254a565b65ffffffffffff81511690602060018060d01b039101511660405191612fc483610515565b8252602082015290565b612fd66134a9565b612fde6134a9565b600160008051602061364f83398151915255565b60405190612fff826104f5565b60008252565b809103906060821261022c5760206040519261302084610530565b1261022c576040908151613033816104f5565b61303c82611e34565b81528352602081015161304e81610231565b60208401520151604082015290565b90600490613069612ff2565b508051613080602092838080948301019101613005565b6040516327f843b560e11b815290949093849182906001600160a01b03165afa918215610b0e57600092613140575b508201906130c3825165ffffffffffff1690565b65ffffffffffff9182169116101561312e5760408201600381511061311c576131126130f8613118935165ffffffffffff1690565b65ffffffffffff1665ffffffffffff196004541617600455565b51600555565b5190565b6040516354f778f360e01b8152600490fd5b6040516367d5e3df60e11b8152600490fd5b816131589293503d8411610b0757610af88183610579565b90386130af565b8015613299578061323261322b61322161321761320d6132036131f96131ef60016103c29a6000908b60801c8061328d575b508060401c80613280575b508060201c80613273575b508060101c80613266575b508060081c80613259575b508060041c8061324c575b508060021c8061323f575b50821c613238575b811c1b6131e8818b612e16565b0160011c90565b6131e8818a612e16565b6131e88189612e16565b6131e88188612e16565b6131e88187612e16565b6131e88186612e16565b6131e88185612e16565b8092612e16565b90612538565b81016131db565b60029150910190386131d3565b60049150910190386131c8565b60089150910190386131bd565b60109150910190386131b2565b60209150910190386131a7565b604091509101903861319c565b91505060809038613191565b50600090565b91905b8382106132af5750505090565b909192808316906001818518811c8301809311611a785760008681526020902083015465ffffffffffff90811690851610156132f0575050925b91906132a2565b909493508101809111611a7857916132e9565b805480613317575050600090600090600090565b600019908082810111611a7857613337926000526020600020010161254a565b9065ffffffffffff82511691602060018060d01b0391015116906001929190565b906121589082613416565b90613386612f996133a792613376612f61565b5061337f612f61565b5084612137565b91600165ffffffffffff845116936020828060d01b03910151169101612137565b905490604051926133b784610515565b835260031b1c602082015290565b8054600160401b811015610510576133e291600182018155612137565b8154906000199060031b1b19169055565b90815491600160401b8310156105105782612be89160016105c695018155612137565b908154906000829160058411613458575b61343293508461329f565b8061343e575050600090565b61344790612198565b906000526020600020015460301c90565b91926134638161315f565b8103908111611a7857613432938560005265ffffffffffff8083602060002001541690851610600014613497575091613427565b9291506134a390611e68565b90613427565b60ff60008051602061366f8339815191525460401c16156134c657565b604051631afcd79f60e31b8152600490fd5b8054600160401b811015610510576134f591600182018155612137565b611caf57815160209092015160301b65ffffffffffff191665ffffffffffff909216919091179055565b8054929392919082156136245761354d61354861353b85612198565b8360005260206000200190565b61254a565b9061355e825165ffffffffffff1690565b65ffffffffffff84811691168110613612576135d694602094889261358c61097d875165ffffffffffff1690565b036135da57506135c8926135a26135af92612198565b9060005260206000200190565b9065ffffffffffff82549181199060301b169116179055565b01516001600160d01b031690565b9190565b91505061360d916135fa6135ec6105c8565b65ffffffffffff9093168352565b6001600160d01b038816828601526134d8565b6135c8565b604051632520601d60e01b8152600490fd5b61364892506136346135ec6105c8565b6001600160d01b03851660208301526134d8565b6000919056fe9b779b17422d0df92223018b32b4d1fa46e071723d6817e2486d003becc55f00f0c57e16840df040f15088dc2f81fe391c3923bec73e23a9662efc9c229c6a00a26469706673582212201ac06df61660e03eb9b64a9509abcd7b3a28fc72f33842e30161b04bec0c163064736f6c63430008190033","linkReferences":{}},"methodIdentifiers":{"BASE_DELEGATOR_HINTS()":"79d89614","BURNER_GAS_LIMIT()":"d5c24e1a","BURNER_RESERVE()":"2964f8dc","FACTORY()":"2dd31000","NETWORK_MIDDLEWARE_SERVICE()":"2c9d45b3","SLASHER_HINTS()":"4eb5a242","TYPE()":"bb24fe8a","VAULT_FACTORY()":"103f2907","VETO_SLASHER_HINTS()":"6565b7db","cumulativeSlash(bytes32,address)":"1a2be2c4","cumulativeSlashAt(bytes32,address,uint48,bytes)":"aa8e6489","cumulativeSlashHint(address,bytes32,address,uint48)":"4a719655","cumulativeSlashHintInternal(bytes32,address,uint48)":"77028046","initialize(bytes)":"439fab91","isBurnerHook()":"34d098ea","latestSlashedCaptureTimestamp(bytes32,address)":"267de1f3","slashableStake(bytes32,address,uint48,bytes)":"aab3595f","slashableStakeHints(address,bytes32,address,uint48)":"4ea2e926","staticDelegateCall(address,bytes)":"9f86fd85","vault()":"fbfa77cf"},"id":81}