{"abi":[{"type":"constructor","inputs":[{"name":"baseDelegatorHints","type":"address","internalType":"address"}],"stateMutability":"nonpayable"},{"type":"function","name":"BASE_DELEGATOR_HINTS","inputs":[],"outputs":[{"name":"","type":"address","internalType":"address"}],"stateMutability":"view"},{"type":"function","name":"BURNER_GAS_LIMIT","inputs":[],"outputs":[{"name":"","type":"uint256","internalType":"uint256"}],"stateMutability":"view"},{"type":"function","name":"BURNER_RESERVE","inputs":[],"outputs":[{"name":"","type":"uint256","internalType":"uint256"}],"stateMutability":"view"},{"type":"function","name":"FACTORY","inputs":[],"outputs":[{"name":"","type":"address","internalType":"address"}],"stateMutability":"view"},{"type":"function","name":"NETWORK_MIDDLEWARE_SERVICE","inputs":[],"outputs":[{"name":"","type":"address","internalType":"address"}],"stateMutability":"view"},{"type":"function","name":"SLASHER_HINTS","inputs":[],"outputs":[{"name":"","type":"address","internalType":"address"}],"stateMutability":"view"},{"type":"function","name":"TYPE","inputs":[],"outputs":[{"name":"","type":"uint64","internalType":"uint64"}],"stateMutability":"view"},{"type":"function","name":"VAULT_FACTORY","inputs":[],"outputs":[{"name":"","type":"address","internalType":"address"}],"stateMutability":"view"},{"type":"function","name":"VETO_SLASHER_HINTS","inputs":[],"outputs":[{"name":"","type":"address","internalType":"address"}],"stateMutability":"view"},{"type":"function","name":"cumulativeSlash","inputs":[{"name":"subnetwork","type":"bytes32","internalType":"bytes32"},{"name":"operator","type":"address","internalType":"address"}],"outputs":[{"name":"","type":"uint256","internalType":"uint256"}],"stateMutability":"view"},{"type":"function","name":"cumulativeSlashAt","inputs":[{"name":"subnetwork","type":"bytes32","internalType":"bytes32"},{"name":"operator","type":"address","internalType":"address"},{"name":"timestamp","type":"uint48","internalType":"uint48"},{"name":"hint","type":"bytes","internalType":"bytes"}],"outputs":[{"name":"","type":"uint256","internalType":"uint256"}],"stateMutability":"view"},{"type":"function","name":"cumulativeSlashHint","inputs":[{"name":"slasher","type":"address","internalType":"address"},{"name":"subnetwork","type":"bytes32","internalType":"bytes32"},{"name":"operator","type":"address","internalType":"address"},{"name":"timestamp","type":"uint48","internalType":"uint48"}],"outputs":[{"name":"","type":"bytes","internalType":"bytes"}],"stateMutability":"view"},{"type":"function","name":"cumulativeSlashHintInternal","inputs":[{"name":"subnetwork","type":"bytes32","internalType":"bytes32"},{"name":"operator","type":"address","internalType":"address"},{"name":"timestamp","type":"uint48","internalType":"uint48"}],"outputs":[{"name":"exists","type":"bool","internalType":"bool"},{"name":"hint","type":"uint32","internalType":"uint32"}],"stateMutability":"view"},{"type":"function","name":"initialize","inputs":[{"name":"data","type":"bytes","internalType":"bytes"}],"outputs":[],"stateMutability":"nonpayable"},{"type":"function","name":"isBurnerHook","inputs":[],"outputs":[{"name":"","type":"bool","internalType":"bool"}],"stateMutability":"view"},{"type":"function","name":"latestSlashedCaptureTimestamp","inputs":[{"name":"subnetwork","type":"bytes32","internalType":"bytes32"},{"name":"operator","type":"address","internalType":"address"}],"outputs":[{"name":"value","type":"uint48","internalType":"uint48"}],"stateMutability":"view"},{"type":"function","name":"slashableStake","inputs":[{"name":"subnetwork","type":"bytes32","internalType":"bytes32"},{"name":"operator","type":"address","internalType":"address"},{"name":"captureTimestamp","type":"uint48","internalType":"uint48"},{"name":"hints","type":"bytes","internalType":"bytes"}],"outputs":[{"name":"amount","type":"uint256","internalType":"uint256"}],"stateMutability":"view"},{"type":"function","name":"slashableStakeHints","inputs":[{"name":"slasher","type":"address","internalType":"address"},{"name":"subnetwork","type":"bytes32","internalType":"bytes32"},{"name":"operator","type":"address","internalType":"address"},{"name":"captureTimestamp","type":"uint48","internalType":"uint48"}],"outputs":[{"name":"","type":"bytes","internalType":"bytes"}],"stateMutability":"view"},{"type":"function","name":"staticDelegateCall","inputs":[{"name":"target","type":"address","internalType":"address"},{"name":"data","type":"bytes","internalType":"bytes"}],"outputs":[],"stateMutability":"nonpayable"},{"type":"function","name":"vault","inputs":[],"outputs":[{"name":"","type":"address","internalType":"address"}],"stateMutability":"view"},{"type":"event","name":"Initialized","inputs":[{"name":"version","type":"uint64","indexed":false,"internalType":"uint64"}],"anonymous":false},{"type":"error","name":"ExternalCall","inputs":[]},{"type":"error","name":"InsufficientBurnerGas","inputs":[]},{"type":"error","name":"InvalidInitialization","inputs":[]},{"type":"error","name":"NoBurner","inputs":[]},{"type":"error","name":"NotInitialized","inputs":[]},{"type":"error","name":"NotInitializing","inputs":[]},{"type":"error","name":"NotNetworkMiddleware","inputs":[]},{"type":"error","name":"NotVault","inputs":[]},{"type":"error","name":"ReentrancyGuardReentrantCall","inputs":[]},{"type":"error","name":"SafeCastOverflowedUintDowncast","inputs":[{"name":"bits","type":"uint8","internalType":"uint8"},{"name":"value","type":"uint256","internalType":"uint256"}]}],"bytecode":{"object":"0x610180346101e757601f61728b38819003918201601f19168301926001600160401b03929091838511838610176101825781602092849260409788528339810103126101e75751906001600160a01b039081831683036101e757306080527ff0c57e16840df040f15088dc2f81fe391c3923bec73e23a9662efc9c229c6a00805460ff81871c166101d65780838080931603610196575b5050505f60a0525f60c0525f60e052610100935f855261012093845280516120108082019082821085831117610182576020918391611b7983393081520301905ff09182156101785783610140931683528151906137028083019183831090831117610182576020918391613b8983393081520301905ff09283156101785761016093168352519261198d94856101ec8639608051856105f5015260a051856102cb015260c05185610904015260e0518581816101690152610e7f015251846102870152518381816106960152610c2a015251826105570152518161059b0152f35b50513d5f823e3d90fd5b634e487b7160e01b5f52604160045260245ffd5b6001600160401b03191617905583518181527fc7f505b2f371ae2175ee4913f4499e1f2633a7b5936321eed1cdaeb6115181d290602090a15f8181610096565b855163f92ee8a960e01b8152600490fd5b5f80fdfe60806040526004361015610011575f80fd5b5f3560e01c8063103f2907146101545780631a2be2c41461014f578063267de1f31461014a5780632964f8dc146101455780632c9d45b3146101405780632dd310001461013b57806334d098ea14610136578063439fab91146101315780634a7196551461012c5780634ea2e926146101275780634eb5a242146101225780636565b7db1461011d578063770280461461011857806379d89614146101135780639f86fd851461010e578063aa8e648914610109578063aab3595f14610104578063bb24fe8a146100ff578063d5c24e1a146100fa5763fbfa77cf146100f5575f80fd5b610945565b610928565b6108e5565b6108c0565b610882565b6106c5565b610681565b6105ca565b610586565b610542565b610525565b6104f0565b61034b565b6102fa565b6102b6565b610272565b610256565b610201565b6101ad565b34610198575f366003190112610198576040517f00000000000000000000000000000000000000000000000000000000000000006001600160a01b03168152602090f35b5f80fd5b6001600160a01b0381160361019857565b346101985760403660031901126101985760206101f96101f46024356101d28161019c565b6004355f526002845260405f209060018060a01b03165f5260205260405f2090565b610da5565b604051908152f35b3461019857604036600319011261019857602065ffffffffffff61024c60243561022a8161019c565b6004355f526001845260405f209060018060a01b03165f5260205260405f2090565b5416604051908152f35b34610198575f366003190112610198576020604051614e208152f35b34610198575f366003190112610198576040517f00000000000000000000000000000000000000000000000000000000000000006001600160a01b03168152602090f35b34610198575f366003190112610198576040517f00000000000000000000000000000000000000000000000000000000000000006001600160a01b03168152602090f35b34610198575f36600319011261019857602060ff5f5460a01c166040519015158152f35b9181601f84011215610198578235916001600160401b038311610198576020838186019501011161019857565b34610198576020366003190112610198576001600160401b036004358181116101985761037c90369060040161031e565b5f80516020611938833981519152549260ff8460401c161593168015908161047b575b6001149081610471575b159081610468575b50610456575f80516020611938833981519152805467ffffffffffffffff191660011790556103e4918361043257610e47565b6103ea57005b5f80516020611938833981519152805460ff60401b19169055604051600181527fc7f505b2f371ae2175ee4913f4499e1f2633a7b5936321eed1cdaeb6115181d290602090a1005b5f80516020611938833981519152805460ff60401b1916600160401b179055610e47565b60405163f92ee8a960e01b8152600490fd5b9050155f6103b1565b303b1591506103a9565b84915061039f565b65ffffffffffff81160361019857565b6080906003190112610198576004356104ab8161019c565b90602435906044356104bc8161019c565b906064356104c981610483565b90565b805180835260209291819084018484015e5f828201840152601f01601f1916010190565b346101985761052161050d61050436610493565b929190916109ab565b6040519182916020835260208301906104cc565b0390f35b346101985761052161050d61053936610493565b92919091610b76565b34610198575f366003190112610198576040517f00000000000000000000000000000000000000000000000000000000000000006001600160a01b03168152602090f35b34610198575f366003190112610198576040517f00000000000000000000000000000000000000000000000000000000000000006001600160a01b03168152602090f35b34610198576060366003190112610198576024356105e78161019c565b6044356105f381610483565b7f00000000000000000000000000000000000000000000000000000000000000006001600160a01b0316330361066f5761064d610652926004355f52600260205260405f209060018060a01b03165f5260205260405f2090565b611045565b60408051941515855263ffffffff91909116602085015292915050f35b604051637ca475e560e11b8152600490fd5b34610198575f366003190112610198576040517f00000000000000000000000000000000000000000000000000000000000000006001600160a01b03168152602090f35b34610198576040366003190112610198576004356106e28161019c565b6024356001600160401b038111610198575f916107048392369060040161031e565b90816040519283928337810184815203915af4610751610722610d21565b916107436040519384921515602084015260408084015260608301906104cc565b03601f1981018352826107a8565b805190602001fd5b634e487b7160e01b5f52604160045260245ffd5b604081019081106001600160401b0382111761078857604052565b610759565b60a081019081106001600160401b0382111761078857604052565b90601f801991011681019081106001600160401b0382111761078857604052565b604051906107d68261076d565b565b6001600160401b03811161078857601f01601f191660200190565b81601f820112156101985780359061080a826107d8565b9261081860405194856107a8565b8284526020838301011161019857815f926020809301838601378301015290565b90608060031983011261019857600435916024356108568161019c565b9160443561086381610483565b91606435906001600160401b038211610198576104c9916004016107f3565b346101985760206101f96108bb61089836610839565b939190925f526002865260405f209060018060a01b03165f5260205260405f2090565b611173565b346101985760206108dc6108d336610839565b92919091611342565b50604051908152f35b34610198575f3660031901126101985760206040516001600160401b037f0000000000000000000000000000000000000000000000000000000000000000168152f35b34610198575f366003190112610198576020604051620249f08152f35b34610198575f366003190112610198575f546040516001600160a01b039091168152602090f35b5190811515820361019857565b519063ffffffff8216820361019857565b9190826040910312610198576104c960206109a48461096c565b9301610979565b5f809195949593929365ffffffffffff60609760405195602097633b81402360e11b89890152602488015260018060a01b03166044870152166064850152606484526109f68461078d565b6040519384610a2387820192639f86fd8560e01b84523060248401526040604484015260648301906104cc565b0394610a37601f19968781018352826107a8565b51915afa50610a55610a47610d21565b838082518301019101610fb0565b9015610aa857808380610a6d9351830101910161098a565b9290610a7857505050565b6104c992939450610a9c604051948592830191909163ffffffff6020820193169052565b039081018352826107a8565b809150519182156101985701fd5b9081602091031261019857516104c98161019c565b6040513d5f823e3d90fd5b81601f8201121561019857805190610aed826107d8565b92610afb60405194856107a8565b8284526020838301011161019857815f9260208093018386015e8301015290565b906020828203126101985781516001600160401b038111610198576104c99201610ad6565b906104c991602081526020610b61835160408385015260608401906104cc565b920151906040601f19828503019101526104cc565b60405163fbfa77cf60e01b815260609594919391926020926001600160a01b03929091908481600481878b165afa908115610cd257849186915f91610d04575b50600460405180948193630ce9b79360e41b8352165afa8015610cd25786948385925f948591610cd7575b506040516304bb92e160e31b81526001600160a01b039182166004820152602481019290925292909216604483015265ffffffffffff97909716606482015295869060849082907f0000000000000000000000000000000000000000000000000000000000000000165afa948515610cd2575f95610caa575b50610c669394956109ab565b825115801590610ca0575b610c7a57505050565b6104c992939450610c896107c9565b938452818401526107436040519384928301610b41565b5080511515610c71565b610c66949550610ccb903d805f833e610cc381836107a8565b810190610b1c565b9493610c5a565b610acb565b610cf79150893d8b11610cfd575b610cef81836107a8565b810190610ab6565b5f610be1565b503d610ce5565b610d1b9150823d8411610cfd57610cef81836107a8565b5f610bb6565b3d15610d4b573d90610d32826107d8565b91610d4060405193846107a8565b82523d5f602084013e565b606090565b5f9081526002602090815260408083206001600160a01b039094168352929052206104c9929190611173565b8054821015610d91575f5260205f2001905f90565b634e487b7160e01b5f52603260045260245ffd5b805480610dda57505f5b6001600160d01b03811615610dd4576001610dca9201610d7c565b90549060031b1c90565b50505f90565b5f19908082810111610df857825f5260205f2001015460301c610daf565b610fe4565b919091604081840312610198578035610e158161019c565b9260208201356001600160401b038111610198576104c992016107f3565b90816020910312610198576104c99061096c565b610e5391810190610dfd565b506040516302910f8b60e31b81526001600160a01b0391821660048201819052919060209081816024817f000000000000000000000000000000000000000000000000000000000000000087165afa908115610cd2575f91610f83575b5015610f7157610ebe61159c565b5f80546001600160a01b0319166001600160a01b038516179055600481610ee36115d2565b94604051928380926313c085b760e11b82525afa918215610cd2575f92610f54575b5050161580610f4a575b610f3857516107d69015155f805460ff60a01b191691151560a01b60ff60a01b16919091179055565b60405163d2420f5960e01b8152600490fd5b5080511515610f0f565b610f6a9250803d10610cfd57610cef81836107a8565b5f80610f05565b6040516362df054560e01b8152600490fd5b610fa39150823d8411610fa9575b610f9b81836107a8565b810190610e33565b5f610eb0565b503d610f91565b91909160408184031261019857610fc68161096c565b9260208201516001600160401b038111610198576104c99201610ad6565b634e487b7160e01b5f52601160045260245ffd5b5f19810191908211610df857565b91908203918211610df857565b9060018201809211610df857565b9060405161102e8161076d565b915465ffffffffffff8116835260301c6020830152565b91908254905f8291600584116110e3575b61106193508561173d565b9081156110d7576110d06110c76110c1610dca61109361108e61108388610ff8565b895f5260205f200190565b611021565b9660016110ba60206110ab8b5165ffffffffffff1690565b9a01516001600160d01b031690565b9101610d7c565b93610ff8565b63ffffffff1690565b6001939291565b5f925082915081908190565b91926110ee81611612565b8103908111610df85761106193865f526111226111178360205f200165ffffffffffff90541690565b65ffffffffffff1690565b65ffffffffffff85161015611138575091611056565b92915061114490611013565b90611056565b90816020910312610198576104c990610979565b90600163ffffffff80931601918211610df857565b91805115611241578060208061118e9351830101910161114a565b91611199838261186f565b926111aa845165ffffffffffff1690565b9065ffffffffffff808516921682811461123557821191826111e0575b50506111d7576104c9925061179f565b50506020015190565b9091506111ed8354610ff8565b63ffffffff831614918215611206575b50505f806111c7565b61122d91925061122161121b6111179261115e565b8561186f565b5165ffffffffffff1690565b115f806111fd565b50505050506020015190565b506104c99161179f565b604051906112588261076d565b60606020838281520152565b906020828203126101985781516001600160401b0392838211610198570190604082820312610198576040519261129a8461076d565b825181811161019857826112af918501610ad6565b84526020830151908111610198576112c79201610ad6565b602082015290565b9081602091031261019857516104c981610483565b65ffffffffffff9182169082160391908211610df857565b90816020910312610198575190565b9081526001600160a01b03909116602082015265ffffffffffff90911660408201526080606082018190526104c9929101906104cc565b9261134b61124b565b90805180611582575b505061135f42611905565b5f5490949061138490611378906001600160a01b031681565b6001600160a01b031690565b93604051956327f843b560e11b875260209687816004818a5afa8015610cd2576113b992611117925f92611553575b506112e4565b65ffffffffffff821690811090811561153c575b811561150b575b506114ff578560049560405196878092630ce9b79360e41b82525afa948515610cd2576114269587915f916114e2575b50845190604051808099819463e02f693760e01b8352878b8a6004860161130b565b03916001600160a01b03165afa938415610cd25761149e955f956114a1575b509261148d85936114939361148d96869a6114846101f48361146f875f52600260205260405f2090565b9060018060a01b03165f5260205260405f2090565b95015192610d50565b90611006565b818082109118021890565b91565b61149392955061148d9491936114cf61148d928a3d8c116114db575b6114c781836107a8565b8101906112fc565b96935093919450611445565b503d6114bd565b6114f99150823d8411610cfd57610cef81836107a8565b5f611404565b5050505050505f905f90565b90506115356111176115298761146f875f52600160205260405f2090565b5465ffffffffffff1690565b115f6113d4565b905061154a61111742611905565b811015906113cd565b6115749192508a3d8c1161157b575b61156c81836107a8565b8101906112cf565b905f6113b3565b503d611562565b6115959250602080918301019101611264565b5f80611354565b6115a46118d7565b6115ac6118d7565b60017f9b779b17422d0df92223018b32b4d1fa46e071723d6817e2486d003becc55f0055565b60405190602082018281106001600160401b03821117610788576040525f8252565b81156115fe570490565b634e487b7160e01b5f52601260045260245ffd5b60018111156104c957600181600160801b81101561172b575b6116d36116c96116bf6116b56116ab6116a16116df97600488600160401b6116da9a101561171e575b640100000000811015611711575b62010000811015611704575b6101008110156116f8575b60108110156116ec575b10156116e4575b60030260011c61169a818b6115f4565b0160011c90565b61169a818a6115f4565b61169a81896115f4565b61169a81886115f4565b61169a81876115f4565b61169a81866115f4565b80936115f4565b821190565b900390565b60011b61168a565b811c9160021b91611683565b60081c91811b91611679565b60101c9160081b9161166e565b60201c9160101b91611662565b60401c9160201b91611654565b50600160401b9050608082901c61162b565b91905b83821061174d5750505090565b909192808316906001818518811c8301809311610df857855f5265ffffffffffff808460205f20015416908516105f1461178c575050925b9190611740565b909493508101809111610df85791611785565b908154905f829160058411611809575b6117ba93508461173d565b806117e257505f905b6001600160d01b03821615610dd4576104c9916001610dca9201610d7c565b6117fc6117f161180392610ff8565b835f5260205f200190565b5460301c90565b906117c3565b919261181481611612565b8103908111610df8576117ba93855f5265ffffffffffff808360205f20015416908516105f146118455750916117af565b92915061185190611013565b906117af565b604051906118648261076d565b5f6020838281520152565b906118986118926118b992611882611857565b5061188b611857565b5084610d7c565b50611021565b91600165ffffffffffff845116936020828060d01b03910151169101610d7c565b905490604051926118c98461076d565b835260031b1c602082015290565b60ff5f805160206119388339815191525460401c16156118f357565b604051631afcd79f60e31b8152600490fd5b65ffffffffffff90818111611918571690565b604490604051906306dfcc6560e41b8252603060048301526024820152fdfef0c57e16840df040f15088dc2f81fe391c3923bec73e23a9662efc9c229c6a00a2646970667358221220f277a4f1d79c926d3cf47f1d1c69c51a336ff12303565531614d4d54627d5eb964736f6c634300081900336101403461015d576001600160401b0390601f61201038819003918201601f1916830191848311848410176101615780849260209460405283398101031261015d5751906001600160a01b038216820361015d57306080527ff0c57e16840df040f15088dc2f81fe391c3923bec73e23a9662efc9c229c6a009081549060ff8260401c1661014b578080831603610106575b835f60a0525f60c0525f60e052610100905f825261012090815260405190611e9a9283610176843960805183505060a051836104f2015260c0518381816109490152611373015260e05183818161031d01526116a301525182818161021c01526104ae0152518181816106920152610d390152f35b6001600160401b031990911681179091556040519081527fc7f505b2f371ae2175ee4913f4499e1f2633a7b5936321eed1cdaeb6115181d290602090a15f8080610091565b60405163f92ee8a960e01b8152600490fd5b5f80fd5b634e487b7160e01b5f52604160045260245ffdfe60806040526004361015610011575f80fd5b5f3560e01c8063021a815614610124578063103f29071461011f5780631a2be2c41461011a578063238ab85f14610115578063267de1f3146101105780632964f8dc1461010b5780632c9d45b3146101065780632dd310001461010157806334d098ea146100fc578063439fab91146100f7578063457821b7146100f25780639f86fd85146100ed578063aa8e6489146100e8578063aab3595f146100e3578063bb24fe8a146100de578063d5c24e1a146100d95763fbfa77cf146100d4575f80fd5b61098a565b61096d565b61092a565b610905565b6108c7565b6106c1565b61067d565b610545565b610521565b6104dd565b610499565b61047d565b610428565b6103c4565b61034c565b610308565b61017b565b6001600160a01b0381160361013a57565b5f80fd5b65ffffffffffff81160361013a57565b9181601f8401121561013a578235916001600160401b03831161013a576020838186019501011161013a57565b3461013a5760a036600319011261013a5760043560243561019b81610129565b6064356101a78161013e565b6084356001600160401b03811161013a576101c690369060040161014e565b917f9b779b17422d0df92223018b32b4d1fa46e071723d6817e2486d003becc55f0060028154146102ec5760029055604051635daf681960e11b8152606086901c60048201526001600160a01b036020826024817f000000000000000000000000000000000000000000000000000000000000000085165afa9182156102e7575f926102b6575b50339116036102a4576102a0946102679460443591610a63565b61029060017f9b779b17422d0df92223018b32b4d1fa46e071723d6817e2486d003becc55f0055565b6040519081529081906020820190565b0390f35b60405163227bf64d60e01b8152600490fd5b6102d991925060203d6020116102e0575b6102d181836107dd565b810190610de5565b905f61024d565b503d6102c7565b610a27565b604051633ee5aeb560e01b8152600490fd5b5f91031261013a57565b3461013a575f36600319011261013a576040517f00000000000000000000000000000000000000000000000000000000000000006001600160a01b03168152602090f35b3461013a57604036600319011261013a57602061039861039360243561037181610129565b6004355f526002845260405f209060018060a01b03165f5260205260405f2090565b6115c2565b604051908152f35b805180835260209291819084018484015e5f828201840152601f01601f1916010190565b3461013a5760c036600319011261013a576102a06104146004356103e781610129565b6103f2602435610129565b6064356103fe81610129565b60a4359161040b8361013e565b60443590610ced565b6040519182916020835260208301906103a0565b3461013a57604036600319011261013a57602065ffffffffffff61047360243561045181610129565b6004355f526001845260405f209060018060a01b03165f5260205260405f2090565b5416604051908152f35b3461013a575f36600319011261013a576020604051614e208152f35b3461013a575f36600319011261013a576040517f00000000000000000000000000000000000000000000000000000000000000006001600160a01b03168152602090f35b3461013a575f36600319011261013a576040517f00000000000000000000000000000000000000000000000000000000000000006001600160a01b03168152602090f35b3461013a575f36600319011261013a57602060ff5f5460a01c166040519015158152f35b3461013a57602036600319011261013a576001600160401b0360043581811161013a5761057690369060040161014e565b5f80516020611e45833981519152549260ff8460401c1615931680159081610675575b600114908161066b575b159081610662575b50610650575f80516020611e45833981519152805467ffffffffffffffff191660011790556105de918361062c5761166c565b6105e457005b5f80516020611e45833981519152805460ff60401b19169055604051600181527fc7f505b2f371ae2175ee4913f4499e1f2633a7b5936321eed1cdaeb6115181d290602090a1005b5f80516020611e45833981519152805460ff60401b1916600160401b17905561166c565b60405163f92ee8a960e01b8152600490fd5b9050155f6105ab565b303b1591506105a3565b849150610599565b3461013a575f36600319011261013a576040517f00000000000000000000000000000000000000000000000000000000000000006001600160a01b03168152602090f35b3461013a5760408060031936011261013a576004356106df81610129565b602435906001600160401b03821161013a575f809161070561076994369060040161014e565b908187519283928337810184815203915af43d156107715761075b3d61072a8161081a565b90610737865192836107dd565b81523d5f602083013e5b8451948593151560208501528084015260608301906103a0565b03601f1981018352826107dd565b805190602001fd5b61075b6060610741565b634e487b7160e01b5f52604160045260245ffd5b602081019081106001600160401b038211176107aa57604052565b61077b565b604081019081106001600160401b038211176107aa57604052565b6001600160401b0381116107aa57604052565b90601f801991011681019081106001600160401b038211176107aa57604052565b6040519061080b826107af565b565b6040519061080b8261078f565b6001600160401b0381116107aa57601f01601f191660200190565b81601f8201121561013a5780359061084c8261081a565b9261085a60405194856107dd565b8284526020838301011161013a57815f926020809301838601378301015290565b90608060031983011261013a576004359160243561089881610129565b916044356108a58161013e565b91606435906001600160401b03821161013a576108c491600401610835565b90565b3461013a5760206103986109006108dd3661087b565b939190925f526002865260405f209060018060a01b03165f5260205260405f2090565b611806565b3461013a5760206109216109183661087b565b92919091610edf565b50604051908152f35b3461013a575f36600319011261013a5760206040516001600160401b037f0000000000000000000000000000000000000000000000000000000000000000168152f35b3461013a575f36600319011261013a576020604051620249f08152f35b3461013a575f36600319011261013a575f546040516001600160a01b039091168152602090f35b604051906109be8261078f565b60608252565b9060208282031261013a5781356001600160401b039283821161013a57019060208282031261013a57604051926109fa8461078f565b823590811161013a57610a0d9201610835565b815290565b9081602091031261013a57516108c48161013e565b6040513d5f823e3d90fd5b634e487b7160e01b5f52601160045260245ffd5b65ffffffffffff9182169082160391908211610a5e57565b610a32565b92939594919095610a726109b1565b9280610c53575b5050610a84426118de565b5f54600490602090610aac90610aa0906001600160a01b031681565b6001600160a01b031690565b6040516327f843b560e11b815292839182905afa80156102e757610ae692610adb925f92610c22575b50610a46565b65ffffffffffff1690565b65ffffffffffff8516908110908115610c0c575b50610bfa57610b0f610b1e9251858886610edf565b92909180831890831102821890565b958615610be857610ba361075b610b9a610be3947fe0cbbe1f1e6fd806ca87036fafcebaf7ab5247474a3b20e1c37bb50122c3a88496610b5f8a878b611115565b610b6a8c878b6111a3565b610b726107fe565b9182526020820152604051928391602083019190916020806040830194805184520151910152565b8689848861130f565b610bad8588611418565b610bb98588838761149d565b6040805188815265ffffffffffff90961660208701526001600160a01b0390911694918291820190565b0390a3565b60405163167f871760e31b8152600490fd5b604051631357ac9160e11b8152600490fd5b9050610c1a610adb426118de565b11155f610afa565b610c4591925060203d602011610c4c575b610c3d81836107dd565b810190610a12565b905f610ad5565b503d610c33565b610c619293508101906109c4565b905f80610a79565b81601f8201121561013a57805190610c808261081a565b92610c8e60405194856107dd565b8284526020838301011161013a57815f9260208093018386015e8301015290565b9060208282031261013a5781516001600160401b03811161013a576108c49201610c69565b60406108c49260208352519160208082015201906103a0565b604051632751749360e11b81526001600160a01b0391821660048201526024810192909252918216604482015265ffffffffffff909216606483015260609291905f90829060849082907f0000000000000000000000000000000000000000000000000000000000000000165afa9081156102e7575f91610d97575b508051610d735750565b61075b9192506108c490610d8561080d565b90815260405192839160208301610cd4565b610db391503d805f833e610dab81836107dd565b810190610caf565b5f610d69565b5f9081526002602090815260408083206001600160a01b039094168352929052206108c4929190611806565b9081602091031261013a57516108c481610129565b60405190610e07826107af565b60606020838281520152565b9060208282031261013a5781516001600160401b039283821161013a57019060408282031261013a5760405192610e49846107af565b825181811161013a5782610e5e918501610c69565b8452602083015190811161013a57610e769201610c69565b602082015290565b9081602091031261013a575190565b9081526001600160a01b03909116602082015265ffffffffffff90911660408201526080606082018190526108c4929101906103a0565b5f19810191908211610a5e57565b91908203918211610a5e57565b92610ee8610dfa565b908051806110fb575b5050610efc426118de565b5f54909490610f1590610aa0906001600160a01b031681565b93604051956327f843b560e11b875260209687816004818a5afa80156102e757610f4992610adb925f926110e35750610a46565b65ffffffffffff82169081109081156110cc575b811561109b575b5061108f578560049560405196878092630ce9b79360e41b82525afa9485156102e757610fb69587915f91611072575b50845190604051808099819463e02f693760e01b8352878b8a60048601610e8d565b03916001600160a01b03165afa9384156102e75761102e955f95611031575b509261101d85936110239361101d96869a61101461039383610fff875f52600260205260405f2090565b9060018060a01b03165f5260205260405f2090565b95015192610db9565b90610ed2565b818082109118021890565b91565b61102392955061101d94919361105f61101d928a3d8c1161106b575b61105781836107dd565b810190610e7e565b96935093919450610fd5565b503d61104d565b6110899150823d84116102e0576102d181836107dd565b5f610f94565b5050505050505f905f90565b90506110c5610adb6110b987610fff875f52600160205260405f2090565b5465ffffffffffff1690565b115f610f64565b90506110da610adb426118de565b81101590610f5d565b610c459192508a3d8c11610c4c57610c3d81836107dd565b61110e9250602080918301019101610e13565b5f80610ef1565b919091805f52600160205265ffffffffffff806111458560405f209060018060a01b03165f5260205260405f2090565b54169083161161115457505050565b61080b9261117c915f52600160205260405f209060018060a01b03165f5260205260405f2090565b9065ffffffffffff1665ffffffffffff19825416179055565b9060018201809211610a5e57565b9190825f5260026020526111fb6103936111d08360405f209060018060a01b03165f5260205260405f2090565b926111da426118de565b955f52600260205260405f209060018060a01b03165f5260205260405f2090565b918201809211610a5e57600181019081541561129f575b61121b81611b1c565b50949083549561122a846115c2565b508161128a575b50156112695750505f198301928311610a5e5761080b9261125191611599565b90919082549060031b91821b915f19901b1916179055565b61080b94611283926001600160d01b039091169190611bdd565b505061193d565b65ffffffffffff83811691161490505f611231565b6112a882611910565b611212565b606060206108c4938184526001600160401b038151168285015201519160408082015201906103a0565b919360a0936108c4969565ffffffffffff938552600180871b03166020850152604084015216606082015281608082015201906103a0565b9293906004602061132c610aa0610aa05f5460018060a01b031690565b604051630ce9b79360e41b815292839182905afa9081156102e75761075b916113aa915f916113f9575b506001600160a01b0316936113696107fe565b6001600160401b037f0000000000000000000000000000000000000000000000000000000000000000168152906020820152604051928391602083016112ad565b823b1561013a575f946113d586926040519889978896879563724ab0f760e11b8752600487016112d7565b03925af180156102e7576113e65750565b806113f361080b926107ca565b806102fe565b611412915060203d6020116102e0576102d181836107dd565b5f611356565b5f8054604051631c9e38c760e21b8152600481019390935265ffffffffffff9390931660248301529091602091839160449183916001600160a01b03165af180156102e7576114645750565b61147c9060203d60201161106b5761105781836107dd565b50565b8115611489570490565b634e487b7160e01b5f52601260045260245ffd5b92905f549060ff8260a01c166114b5575b5050505050565b6040516313c085b760e11b815291602090839060049082906001600160a01b03165afa9182156102e7575f92611572575b5060405163065c1e0360e01b6020820190815260248201969096526001600160a01b039091166044820152606481019390935265ffffffffffff909116608483015261153f8260a481015b03601f1981018452836107dd565b6202a15c5a10611560575f928380935192620249f0f1505f808080806114ae565b604051632153f33560e21b8152600490fd5b61153f92506115926115319160203d6020116102e0576102d181836107dd565b92506114e6565b80548210156115ae575f5260205f2001905f90565b634e487b7160e01b5f52603260045260245ffd5b8054806115f757505f5b6001600160d01b038116156115f15760016115e79201611599565b90549060031b1c90565b50505f90565b5f19908082810111610a5e57825f5260205f2001015460301c6115cc565b91909160408184031261013a57803561162d81610129565b9260208201356001600160401b03811161013a576108c49201610835565b5190811515820361013a57565b9081602091031261013a576108c49061164b565b61167891810190611615565b6040516302910f8b60e31b81526001600160a01b0392831660048201819052929160209182816024817f000000000000000000000000000000000000000000000000000000000000000088165afa9081156102e7575f916117a8575b501561179657816117086004926116e9611960565b5f80546001600160a01b0319166001600160a01b038916179055611996565b94604051928380926313c085b760e11b82525afa9182156102e7575f92611779575b505016158061176f575b61175d575161080b9015155f805460ff60a01b191691151560a01b60ff60a01b16919091179055565b60405163d2420f5960e01b8152600490fd5b5080511515611734565b61178f9250803d106102e0576102d181836107dd565b5f8061172a565b6040516362df054560e01b8152600490fd5b6117c89150833d85116117ce575b6117c081836107dd565b810190611658565b5f6116d4565b503d6117b6565b9081602091031261013a575163ffffffff8116810361013a5790565b90600163ffffffff80931601918211610a5e57565b918051156118d45780602080611821935183010191016117d5565b9161182c8382611aae565b9261183d845165ffffffffffff1690565b9065ffffffffffff80851692168281146118c85782119182611873575b505061186a576108c492506119de565b50506020015190565b9091506118808354610ec4565b63ffffffff831614918215611899575b50505f8061185a565b6118c09192506118b46118ae610adb926117f1565b85611aae565b5165ffffffffffff1690565b115f80611890565b50505050506020015190565b506108c4916119de565b65ffffffffffff908181116118f1571690565b604490604051906306dfcc6560e41b8252603060048301526024820152fd5b8054600160401b8110156107aa5761192d91600182018155611599565b8154905f199060031b1b19169055565b90815491600160401b8310156107aa578261125191600161080b95018155611599565b611968611b55565b611970611b55565b60017f9b779b17422d0df92223018b32b4d1fa46e071723d6817e2486d003becc55f0055565b5f6040516119a38161078f565b5260208180518101031261013a576020906040516119c08161078f565b6119d86040519384936119d28561078f565b0161164b565b82525290565b908154905f829160058411611a48575b6119f9935084611de5565b80611a2157505f905b6001600160d01b038216156115f1576108c49160016115e79201611599565b611a3b611a30611a4292610ec4565b835f5260205f200190565b5460301c90565b90611a02565b9192611a5381611cba565b8103908111610a5e576119f993855f5265ffffffffffff808360205f20015416908516105f14611a845750916119ee565b929150611a9090611195565b906119ee565b60405190611aa3826107af565b5f6020838281520152565b9060206001611ad2611afe93611ac2611a96565b50611acb611a96565b5085611599565b509360405194611ae1866107af565b549465ffffffffffff86169586825260301c938491015201611599565b90549060405192611b0e846107af565b835260031b1c602082015290565b805480611b2d5750505f905f905f90565b5f19918183810111610a5e575f5260205f2001015460019165ffffffffffff82169160301c90565b60ff5f80516020611e458339815191525460401c1615611b7157565b604051631afcd79f60e31b8152600490fd5b8054600160401b8110156107aa57611ba091600182018155611599565b611bca57815160209092015160301b65ffffffffffff191665ffffffffffff909216919091179055565b634e487b7160e01b5f525f60045260245ffd5b80549293928015611c9057611bf4611bff91610ec4565b825f5260205f200190565b9182549265ffffffffffff91828516928116808411611c7e57879303611c455750611c3e92509065ffffffffffff82549181199060301b169116179055565b60301c9190565b915050611c7991611c65611c576107fe565b65ffffffffffff9093168352565b6001600160d01b0386166020830152611b83565b611c3e565b604051632520601d60e01b8152600490fd5b5090611cb591611ca1611c576107fe565b6001600160d01b0385166020830152611b83565b5f9190565b60018111156108c457600181600160801b811015611dd3575b611d7b611d71611d67611d5d611d53611d49611d8797600488600160401b611d829a1015611dc6575b640100000000811015611db9575b62010000811015611dac575b610100811015611da0575b6010811015611d94575b1015611d8c575b60030260011c611d42818b61147f565b0160011c90565b611d42818a61147f565b611d42818961147f565b611d42818861147f565b611d42818761147f565b611d42818661147f565b809361147f565b821190565b900390565b60011b611d32565b811c9160021b91611d2b565b60081c91811b91611d21565b60101c9160081b91611d16565b60201c9160101b91611d0a565b60401c9160201b91611cfc565b50600160401b9050608082901c611cd3565b91905b838210611df55750505090565b9091928083169080841860011c8201809211610a5e57845f5265ffffffffffff808360205f20015416908416105f14611e325750925b9190611de8565b939250611e3e90611195565b91611e2b56fef0c57e16840df040f15088dc2f81fe391c3923bec73e23a9662efc9c229c6a00a2646970667358221220f6c8c6e53e56abe4ba9bf3f192a97636699c1edad17d1630537b4ec239db2d6c64736f6c634300081900336101603461017c576001600160401b0390601f61370238819003918201601f1916830191848311848410176101805780849260209460405283398101031261017c5751906001600160a01b038216820361017c57306080527ff0c57e16840df040f15088dc2f81fe391c3923bec73e23a9662efc9c229c6a009081549060ff8260401c1661016a578080831603610125575b835f60a0525f60c0525f60e052610100905f8252610120905f82526101409081526040519161356d9384610195853960805184610b68015260a0518461047b015260c05184818161158e0152612c56015260e0518481816102e801526122c2015251838181610437015261244c015251828181610c7a01526115e40152518181816108060152818161191c0152611d110152f35b6001600160401b031990911681179091556040519081527fc7f505b2f371ae2175ee4913f4499e1f2633a7b5936321eed1cdaeb6115181d290602090a15f8080610091565b60405163f92ee8a960e01b8152600490fd5b5f80fd5b634e487b7160e01b5f52604160045260245ffdfe60806040526004361015610011575f80fd5b5f3560e01c80622a087514610213578063103f29071461020e5780631a2be2c4146102095780631dd5f60014610204578063267de1f3146101ff5780632964f8dc146101fa5780632c9d45b3146101f55780632dd31000146101f057806331ce4dfe146101eb57806334d098ea146101e6578063439fab91146101e1578063457821b7146101dc5780635264679b146101d7578063545ce389146101d257806369f78920146101cd5780638f42f9ab146101c85780638f82f931146101c35780639168f9d2146101be5780639a896551146101b95780639f86fd85146101b4578063a4ef9b4f146101af578063aa8e6489146101aa578063aab3595f146101a5578063b94c386e146101a0578063bb24fe8a1461019b578063bc6eac5b14610196578063c0cd7c3e14610191578063cd05b8a11461018c578063d5c24e1a14610187578063e054e08b14610182578063f9268d181461017d5763fbfa77cf14610178575f80fd5b61181b565b6116ad565b611688565b61166b565b611613565b6115cf565b6115b2565b61156f565b61121d565b6111c5565b611187565b611124565b611090565b611005565b610bda565b610b49565b610b2c565b610ae7565b61084f565b610835565b6107f1565b6106b9565b610668565b6105ff565b610466565b610422565b610406565b6103b1565b610397565b610317565b6102d3565b610261565b6001600160a01b0381160361022957565b5f80fd5b65ffffffffffff81160361022957565b805180835260209291819084018484015e5f828201840152601f01601f1916010190565b346102295760c0366003190112610229576102c56102b160043561028481610218565b61028f602435610218565b60643561029b81610218565b60a435916102a88361022d565b604435906118d1565b60405191829160208352602083019061023d565b0390f35b5f91031261022957565b34610229575f366003190112610229576040517f00000000000000000000000000000000000000000000000000000000000000006001600160a01b03168152602090f35b3461022957604036600319011261022957602061036361035e60243561033c81610218565b6004355f526002845260405f209060018060a01b03165f5260205260405f2090565b6120da565b604051908152f35b60609060031901126102295760043561038381610218565b90602435906044356103948161022d565b90565b34610229576102c56102b16103ab3661036b565b916119a8565b3461022957604036600319011261022957602065ffffffffffff6103fc6024356103da81610218565b6004355f526001845260405f209060018060a01b03165f5260205260405f2090565b5416604051908152f35b34610229575f366003190112610229576020604051614e208152f35b34610229575f366003190112610229576040517f00000000000000000000000000000000000000000000000000000000000000006001600160a01b03168152602090f35b34610229575f366003190112610229576040517f00000000000000000000000000000000000000000000000000000000000000006001600160a01b03168152602090f35b634e487b7160e01b5f52604160045260245ffd5b602081019081106001600160401b038211176104d957604052565b6104aa565b604081019081106001600160401b038211176104d957604052565b606081019081106001600160401b038211176104d957604052565b6001600160401b0381116104d957604052565b608081019081106001600160401b038211176104d957604052565b90601f801991011681019081106001600160401b038211176104d957604052565b6040519060c082018281106001600160401b038211176104d957604052565b6040519061058f826104f9565b565b6040519061058f826104de565b6001600160401b0381116104d957601f01601f191660200190565b81601f82011215610229578035906105d08261059e565b926105de6040519485610542565b8284526020838301011161022957815f926020809301838601378301015290565b346102295760603660031901126102295760243561061c8161022d565b604435906001600160401b0382116102295761065f61064160209336906004016105b9565b6004355f90815260068552604090206001600160a01b039390612152565b16604051908152f35b34610229575f36600319011261022957602060ff5f5460a01c166040519015158152f35b9181601f84011215610229578235916001600160401b038311610229576020838186019501011161022957565b34610229576020366003190112610229576001600160401b03600435818111610229576106ea90369060040161068c565b5f80516020613518833981519152549260ff8460401c16159316801590816107e9575b60011490816107df575b1590816107d6575b506107c4575f80516020613518833981519152805467ffffffffffffffff1916600117905561075291836107a05761228b565b61075857005b5f80516020613518833981519152805460ff60401b19169055604051600181527fc7f505b2f371ae2175ee4913f4499e1f2633a7b5936321eed1cdaeb6115181d290602090a1005b5f80516020613518833981519152805460ff60401b1916600160401b17905561228b565b60405163f92ee8a960e01b8152600490fd5b9050155f61071f565b303b159150610717565b84915061070d565b34610229575f366003190112610229576040517f00000000000000000000000000000000000000000000000000000000000000006001600160a01b03168152602090f35b34610229576102c56102b16108493661036b565b91611a2c565b346102295760a0366003190112610229576024356004803561087083610218565b604435926064356108808161022d565b6084356001600160401b0381116102295761089e903690860161068c565b94906108a86123f5565b6108b185612424565b6108b9611abe565b9580610ad1575b50506108cb426125f5565b906108e66108df825465ffffffffffff1690565b8093611b1f565b5f5490969061090b906108ff906001600160a01b031681565b6001600160a01b031690565b968260206040998a51928380926327f843b560e11b82525afa8015610acc5761094a9261093f925f92610a9b575b50611a14565b65ffffffffffff1690565b65ffffffffffff8516908110908115610a85575b50610a765761097090518486886127d0565b5096878082109118028088189714610a68576102c5610a41878988887f3cb7f4ff6cecf74cee0eb9ae3ebf8933fa60a53014cce52f96da72a78dba8464896109c08a6109bb426125f5565b611b1f565b92600354978894610a116109d2610563565b8881526001600160a01b0385166020820152808b018a905265ffffffffffff8616606082015265ffffffffffff831660808201525f60a0820152611b61565b885197885265ffffffffffff938416602089015290921660408701526001600160a01b0316949081906060820190565b0390a4610a5a60015f805160206134f883398151915255565b519081529081906020820190565b855163167f871760e31b8152fd5b508551631357ac9160e11b8152fd5b9050610a9361093f426125f5565b11155f61095e565b610abe91925060203d602011610ac5575b610ab68183610542565b810190611b39565b905f610939565b503d610aac565b6118ad565b610adf929650810190611ad1565b935f806108c0565b34610229576080366003190112610229576102c56102b1600435610b0a81610218565b604435610b1681610218565b60643591610b238361022d565b60243590611c97565b34610229575f366003190112610229576020600354604051908152f35b3461022957604036600319011261022957602435610b668161022d565b7f00000000000000000000000000000000000000000000000000000000000000006001600160a01b03163303610bc85763ffffffff610bb36040926004355f526006602052835f206124df565b91505083929192519215158352166020820152f35b604051637ca475e560e11b8152600490fd5b346102295760603660031901126102295760048035906bffffffffffffffffffffffff8216820361022957602435610c1181610218565b6044356001600160401b03811161022957610c2f903690840161068c565b90610c386123f5565b610c40611abe565b5081610fa0575b5050604080516302910f8b60e31b8152338185019081526001600160a01b0395929491602091829082908190830103818a7f0000000000000000000000000000000000000000000000000000000000000000165afa908115610acc575f91610f73575b5015610f64575f54610ce5906001600160a01b0316936bffffffffffffffffffffffff166bffffffffffffffffffffffff193360601b161790565b95610d00610cfb885f52600660205260405f2090565b613223565b50949015610efa57610d1461093f426125f5565b65ffffffffffff9586161115610ec457610d3e610d39895f52600660205260405f2090565b6125b6565b505b610d636108ff6108ff6108ff610d5e8c5f52600660205260405f2090565b612e74565b91808716928303610dcf575b505050505050610db4907f7b0b759b513b299fd2811f51926dca8854222a675557e8d544ce0933bf5b7570925b516001600160a01b0390911681529081906020820190565b0390a2610dcd60015f805160206134f883398151915255565b005b610de68998959796985f52600660205260405f2090565b911692845163186a323160e21b815281818981885afa908115610acc575f91610ea7575b5081600554958751998a80926327f843b560e11b82525afa908115610acc5789610e6f610e81977f7b0b759b513b299fd2811f51926dca8854222a675557e8d544ce0933bf5b75709c610e7695610db49d610e7b985f92610e8a575b50501690611de6565b9116611e07565b6125f5565b9061341a565b82958495610d6f565b610ea09250803d10610ac557610ab68183610542565b5f80610e66565b610ebe9150823d8411610ac557610ab68183610542565b5f610e0a565b610ee26108ff6108ff6108ff610d5e8c5f52600660205260405f2090565b82871603610d4057865163a741a04560e01b81528490fd5b5093949385169250508115610f56575091610db491610f4f7f7b0b759b513b299fd2811f51926dca8854222a675557e8d544ce0933bf5b757094610f46875f52600660205260405f2090565b610e7b426125f5565b5050610d9c565b825163a741a04560e01b8152fd5b5083516323d53b9760e21b8152fd5b610f939150823d8411610f99575b610f8b8183610542565b810190611dd2565b5f610caa565b503d610f81565b610fac91810190611ad1565b505f80610c47565b634e487b7160e01b5f52603260045260245ffd5b6003548110156110005760035f5260021b7fc2575a0e9e593c00f959f8c92f12db2869c3395a3b0502d05e2516446f71f85b01905f90565b610fb4565b34610229576020366003190112610229576004356003548110156102295761102c90610fc8565b50805460018201546002830154600390930154604080519384526001600160a01b0390921660208401529082019290925265ffffffffffff808316606080840191909152603084901c90911660808301529190911c60ff16151560a082015260c090f35b34610229576040366003190112610229576004356110ad81610218565b6024356001600160401b038111610229575f916110cf8392369060040161068c565b90816040519283928337810184815203915af461111c6110ed611e14565b9161110e60405193849215156020840152604080840152606083019061023d565b03601f198101835282610542565b805190602001fd5b34610229576102c56102b16111383661036b565b91611e75565b906080600319830112610229576004359160243561115b81610218565b916044356111688161022d565b91606435906001600160401b03821161022957610394916004016105b9565b346102295760206103636111c061119d3661113e565b939190925f526002865260405f209060018060a01b03165f5260205260405f2090565b61265b565b346102295760206111e16111d83661113e565b929190916127d0565b50604051908152f35b9060406003198301126102295760043591602435906001600160401b038211610229576112199160040161068c565b9091565b346102295761122b366111ea565b91906112356123f5565b61123d611f9a565b9280611559575b50506003548110156115475761125981610fc8565b509081549061126782612424565b6003830180549365ffffffffffff9384861660018060a01b0361128c895183856119bf565b1615158061151c575b80611503575b6114f1576112b1816112ac426125f5565b611a14565b5f546112c7906108ff906001600160a01b031681565b96600460206040998a51928380926327f843b560e11b82525afa8015610acc5782915f916114d2575b50169116116114c157600183018054909861131b93929188906001600160a01b0316910151926127d0565b90611330816002850154818082109118021890565b9687156114b05760601c60ff1661149f579261145861144b89946114236114108b9687876102c59f61141e8f9d8f9e61145e9f61137a86600160601b60ff60601b19825416179055565b8a54855461139c91906001600160a01b0316885465ffffffffffff1691612a06565b8a5485546113b59189916001600160a01b031690612a86565b8a5494546113d3906001600160a01b0316965465ffffffffffff1690565b976113dc610582565b9384526020840152818301525196879160208301919091604080606083019480518452602081015160208501520151910152565b03601f198101875286610542565b612bf2565b61143c611436855465ffffffffffff1690565b86612cfb565b5494546001600160a01b031690565b915465ffffffffffff1690565b92612d78565b81518381527f5cc28df3b54da9d06f805d87616ebf969c81310f2aa8369cb14ca50f815d411190602090a2610a5a60015f805160206134f883398151915255565b8551633428e90760e01b8152600490fd5b865163167f871760e31b8152600490fd5b8551639ea153eb60e01b8152600490fd5b6114eb915060203d602011610ac557610ab68183610542565b5f6112f0565b60405163b62b15c760e01b8152600490fd5b5061151061093f426125f5565b868860301c161161129b565b506115406108ff61153461152f426125f5565b6119f8565b60208b015190856119bf565b1515611295565b604051637822972360e11b8152600490fd5b611567929350810190611fb9565b905f80611244565b34610229575f3660031901126102295760206040516001600160401b037f0000000000000000000000000000000000000000000000000000000000000000168152f35b34610229575f366003190112610229576020600554604051908152f35b34610229575f366003190112610229576040517f00000000000000000000000000000000000000000000000000000000000000006001600160a01b03168152602090f35b34610229576040366003190112610229576024356001600160401b0381116102295761165961164860209236906004016105b9565b611651426125f5565b6004356119bf565b6040516001600160a01b039091168152f35b34610229575f366003190112610229576020604051620249f08152f35b34610229575f36600319011261022957602065ffffffffffff60045416604051908152f35b34610229576116bb366111ea565b906116c46123f5565b6116cc612041565b9180611807575b5050600354821015611547576116e882610fc8565b506003815491019182549165ffffffffffff9160018060a01b036117108251858716856119bf565b169182159182156117de575b50506117cc5733036117ba5761173461093f426125f5565b908260301c1611156117a95760601c60ff1661179757805460ff60601b1916600160601b17905533907f7d3d269c851b72257a5194a401d151902e9be4347d555996dcff3ff86a077e925f80a3610dcd60015f805160206134f883398151915255565b604051633428e90760e01b8152600490fd5b60405162c457e560e81b8152600490fd5b604051635d154fe160e11b8152600490fd5b60405163dd1ebd9d60e01b8152600490fd5b6117ff9250906108ff9160206117f661152f426125f5565b910151916119bf565b155f8061171c565b611814925081019061205a565b5f806116d3565b34610229575f366003190112610229575f546040516001600160a01b039091168152602090f35b81601f82011215610229578051906118598261059e565b926118676040519485610542565b8284526020838301011161022957815f9260208093018386015e8301015290565b906020828203126102295781516001600160401b038111610229576103949201611842565b6040513d5f823e3d90fd5b604061039492602083525191602080820152019061023d565b604051632751749360e11b81526001600160a01b0391821660048201526024810192909252909116604482015265ffffffffffff9091166064820152606091905f81806084810103817f00000000000000000000000000000000000000000000000000000000000000006001600160a01b03165afa908115610acc575f91611986575b50805161195e5750565b61110e9192506103949060405190611975826104be565b8152604051928391602083016118b8565b6119a291503d805f833e61199a8183610542565b810190611888565b5f611954565b92916119b691606094611e75565b805161195e5750565b5f9081526006602052604090206001600160a01b03926119e0929091612152565b1690565b634e487b7160e01b5f52601160045260245ffd5b65ffffffffffff9081165f190191908211611a0f57565b6119e4565b65ffffffffffff9182169082160391908211611a0f57565b611a4d90939293611a406060958483611e75565b9261113861152f426125f5565b815115801590611ab4575b611a60575050565b611aa19293509061110e6103949260405192611a7b846104de565b83526020830190815260405194859360208086015251604080860152608085019061023d565b9051838203603f1901606085015261023d565b5080511515611a58565b60405190611acb826104be565b60608252565b906020828203126102295781356001600160401b03928382116102295701906020828203126102295760405192611b07846104be565b823590811161022957611b1a92016105b9565b815290565b91909165ffffffffffff80809416911601918211611a0f57565b9081602091031261022957516103948161022d565b634e487b7160e01b5f525f60045260245ffd5b600354600160401b8110156104d957806001611b809201600355610fc8565b919091611c43578051825560208101516001830180546001600160a01b0319166001600160a01b039290921691909117905561058f91611c299060a090600390604085015160028201550192611bf665ffffffffffff606083015116859065ffffffffffff1665ffffffffffff19825416179055565b60808101516bffffffffffff00000000000085549160301b16906bffffffffffff00000000000019161784550151151590565b815460ff60601b191690151560601b60ff60601b16179055565b611b4e565b906103949160208152611c67825160606020840152608083019061023d565b9060606040611c87602086015194601f199586868303018487015261023d565b940151928285030191015261023d565b919093925f606095611caa838287611e75565b94611d0d611cc4611cbd61152f426125f5565b8484611e75565b604051632751749360e11b81526001600160a01b039384166004820152602481019490945291909516604483015265ffffffffffff909316606482015292839081906084820190565b03817f00000000000000000000000000000000000000000000000000000000000000006001600160a01b03165afa918215610acc575f92611da9575b50825115801590611d9f575b8015611d95575b611d6557505050565b61110e939450906103949291611d79610582565b9283526020830152604082015260405192839160208301611c48565b5081511515611d5c565b5080511515611d55565b611dbe9192503d805f833e61199a8183610542565b905f611d49565b5190811515820361022957565b908160209103126102295761039490611dc5565b81810292918115918404141715611a0f57565b9060018201809211611a0f57565b91908201809211611a0f57565b3d15611e3e573d90611e258261059e565b91611e336040519384610542565b82523d5f602084013e565b606090565b519063ffffffff8216820361022957565b9190826040910312610229576103946020611e6e84611dc5565b9301611e43565b92915f8060609565ffffffffffff60405194602096638f82f93160e01b88880152602487015216604485015260448452611eae84610527565b6040519384611edb87820192639f86fd8560e01b845230602484015260406044840152606483019061023d565b0394611eef601f1996878101835282610542565b51915afa50611f0d611eff611e14565b838082518301019101612627565b9015611f6057808380611f2593518301019101611e54565b9290611f3057505050565b61039492939450611f54604051948592830191909163ffffffff6020820193169052565b03908101835282610542565b809150519182156102295701fd5b5f9081526002602090815260408083206001600160a01b0390941683529290522061039492919061265b565b60405190611fa7826104f9565b60606040838281528260208201520152565b906020828203126102295781356001600160401b03928382116102295701906060828203126102295760405192611fef846104f9565b823581811161022957826120049185016105b9565b84526020830135818111610229578261201e9185016105b9565b602085015260408301359081116102295761203992016105b9565b604082015290565b6040519061204e826104de565b60606020838281520152565b906020828203126102295781356001600160401b03928382116102295701906040828203126102295760405192612090846104de565b823581811161022957826120a59185016105b9565b84526020830135908111610229576120bd92016105b9565b602082015290565b8054821015611000575f5260205f2001905f90565b6120e381612e74565b6001600160d01b038116156121085760016120fe92016120c5565b90549060031b1c90565b50505f90565b908160209103126102295761039490611e43565b5f19810191908211611a0f57565b91908203918211611a0f57565b90600163ffffffff80931601918211611a0f57565b91805115612236578060208061216d9351830101910161210e565b916121788382612eb4565b92612189845165ffffffffffff1690565b9065ffffffffffff808516921682811461221d57821191826121c8575b50506121b6576103949250613319565b5050602001516001600160d01b031690565b9091506121d58354612122565b63ffffffff8316149182156121ee575b50505f806121a6565b61221591925061220961220361093f9261213d565b85612eb4565b5165ffffffffffff1690565b115f806121e5565b50505050602091909101516001600160d01b0316905090565b5061039491613319565b91909160408184031261022957803561225881610218565b9260208201356001600160401b0381116102295761039492016105b9565b90816020910312610229575161039481610218565b61229791810190612240565b6040516302910f8b60e31b81526001600160a01b0392831660048201819052929160209182816024817f000000000000000000000000000000000000000000000000000000000000000088165afa908115610acc575f916123d8575b50156123c65781612328600492612308612f08565b5f80546001600160a01b0319166001600160a01b03891617905586612f95565b94604051928380926313c085b760e11b82525afa918215610acc575f92612399575b505016158061238f575b61237d575161058f9015155f805460ff60a01b191691151560a01b60ff60a01b16919091179055565b60405163d2420f5960e01b8152600490fd5b5080511515612354565b6123b89250803d106123bf575b6123b08183610542565b810190612276565b5f8061234a565b503d6123a6565b6040516362df054560e01b8152600490fd5b6123ef9150833d8511610f9957610f8b8183610542565b5f6122f3565b5f805160206134f883398151915260028154146124125760029055565b604051633ee5aeb560e01b8152600490fd5b604051635daf681960e11b815260609190911c60048201526001600160a01b036020826024817f000000000000000000000000000000000000000000000000000000000000000085165afa918215610acc575f9261249a575b503391160361248857565b60405163227bf64d60e01b8152600490fd5b6124b491925060203d6020116123bf576123b08183610542565b905f61247d565b906040516124c8816104de565b915465ffffffffffff8116835260301c6020830152565b908154905f829160058411612568575b6124fa9350846131c1565b90811561255c5761251b9061250e83612122565b905f5260205f20016124bb565b9161255561254c6125466020612537875165ffffffffffff1690565b9601516001600160d01b031690565b93612122565b63ffffffff1690565b6001939291565b50505f905f905f905f90565b919261257381613096565b8103908111611a0f576124fa93855f5265ffffffffffff808360205f20015416908516105f146125a45750916124ef565b9291506125b090611df9565b906124ef565b906125c082612e74565b91805480156125e1575f1901906125d782826120c5565b611c43575f905555565b634e487b7160e01b5f52603160045260245ffd5b65ffffffffffff90818111612608571690565b604490604051906306dfcc6560e41b8252603060048301526024820152fd5b9190916040818403126102295761263d81611dc5565b9260208201516001600160401b038111610229576103949201611842565b9180511561271d57806020806126769351830101910161210e565b916126818382613267565b92612692845165ffffffffffff1690565b9065ffffffffffff808516921682811461271157821191826126c8575b50506126bf57610394925061325c565b50506020015190565b9091506126d58354612122565b63ffffffff8316149182156126ee575b50505f806126af565b61270991925061220961270361093f9261213d565b85613267565b115f806126e5565b50505050506020015190565b506103949161325c565b906020828203126102295781516001600160401b0392838211610229570190604082820312610229576040519261275d846104de565b82518181116102295782612772918501611842565b84526020830151908111610229576120bd9201611842565b90816020910312610229575190565b9081526001600160a01b03909116602082015265ffffffffffff90911660408201526080606082018190526103949291019061023d565b926127d9612041565b908051806129ec575b50506127ed426125f5565b5f54909490612806906108ff906001600160a01b031681565b93604051956327f843b560e11b875260209687816004818a5afa8015610acc5761283a9261093f925f926129d45750611a14565b65ffffffffffff82169081109081156129bd575b811561298c575b50612980578560049560405196878092630ce9b79360e41b82525afa948515610acc576128a79587915f91612963575b50845190604051808099819463e02f693760e01b8352878b8a60048601612799565b03916001600160a01b03165afa938415610acc5761291f955f95612922575b509261290e85936129149361290e96869a61290561035e836128f0875f52600260205260405f2090565b9060018060a01b03165f5260205260405f2090565b95015192611f6e565b90612130565b818082109118021890565b91565b61291492955061290e94919361295061290e928a3d8c1161295c575b6129488183610542565b81019061278a565b969350939194506128c6565b503d61293e565b61297a9150823d84116123bf576123b08183610542565b5f612885565b5050505050505f905f90565b90506129b661093f6129aa876128f0875f52600160205260405f2090565b5465ffffffffffff1690565b115f612855565b90506129cb61093f426125f5565b8110159061284e565b610abe9192508a3d8c11610ac557610ab68183610542565b6129ff9250602080918301019101612727565b5f806127e2565b919091805f52600160205265ffffffffffff80612a368560405f209060018060a01b03165f5260205260405f2090565b541690831611612a4557505050565b61058f92612a6d915f52600160205260405f209060018060a01b03165f5260205260405f2090565b9065ffffffffffff1665ffffffffffff19825416179055565b9190825f526002602052612ade61035e612ab38360405f209060018060a01b03165f5260205260405f2090565b92612abd426125f5565b955f52600260205260405f209060018060a01b03165f5260205260405f2090565b918201809211611a0f576001810190815415612b82575b612afe81613223565b509490835495612b0d846120da565b5081612b6d575b5015612b4c5750505f198301928311611a0f5761058f92612b34916120c5565b90919082549060031b91821b915f19901b1916179055565b61058f94612b66926001600160d01b03909116919061341a565b50506132f6565b65ffffffffffff83811691161490505f612b14565b612b8b826132c9565b612af5565b60606020610394938184526001600160401b0381511682850152015191604080820152019061023d565b919360a093610394969565ffffffffffff938552600180871b031660208501526040840152166060820152816080820152019061023d565b92939060046020612c0f6108ff6108ff5f5460018060a01b031690565b604051630ce9b79360e41b815292839182905afa908115610acc5761110e91612c8d915f91612cdc575b506001600160a01b031693612c4c610591565b6001600160401b037f000000000000000000000000000000000000000000000000000000000000000016815290602082015260405192839160208301612b90565b823b15610229575f94612cb886926040519889978896879563724ab0f760e11b875260048701612bba565b03925af18015610acc57612cc95750565b80612cd661058f92610514565b806102c9565b612cf5915060203d6020116123bf576123b08183610542565b5f612c39565b65ffffffffffff9160446020925f60018060a01b038154166040519687958694631c9e38c760e21b865260048601521660248401525af18015610acc57612d3f5750565b612d579060203d60201161295c576129488183610542565b50565b8115612d64570490565b634e487b7160e01b5f52601260045260245ffd5b92905f549060ff8260a01c16612d90575b5050505050565b6040516313c085b760e11b815291602090839060049082906001600160a01b03165afa918215610acc575f92612e4d575b5060405163065c1e0360e01b6020820190815260248201969096526001600160a01b039091166044820152606481019390935265ffffffffffff9091166084830152612e1a8260a481015b03601f198101845283610542565b6202a15c5a10612e3b575f928380935192620249f0f1505f80808080612d89565b604051632153f33560e21b8152600490fd5b612e1a9250612e6d612e0c9160203d6020116123bf576123b08183610542565b9250612dc1565b805480612e815750505f90565b5f19918183810111611a0f575f5260205f2001015460301c90565b60405190612ea9826104de565b5f6020838281520152565b612ed991612ed391612ec4612e9c565b50612ecd612e9c565b506120c5565b506124bb565b65ffffffffffff81511690602060018060d01b039101511660405191612efe836104de565b8252602082015290565b612f106133a5565b612f186133a5565b60015f805160206134f883398151915255565b60405190612f38826104be565b5f8252565b809103906060821261022957602060405192612f58846104f9565b12610229576040908151612f6b816104be565b612f7482611dc5565b815283526020810151612f868161022d565b60208401520151604082015290565b90600490612fa1612f2b565b508051612fb8602092838080948301019101612f3d565b6040516327f843b560e11b815290949093849182906001600160a01b03165afa918215610acc575f92613077575b50820190612ffa825165ffffffffffff1690565b65ffffffffffff91821691161015613065576040820160038151106130535761304961302f61304f935165ffffffffffff1690565b65ffffffffffff1665ffffffffffff196004541617600455565b51600555565b5190565b6040516354f778f360e01b8152600490fd5b6040516367d5e3df60e11b8152600490fd5b8161308f9293503d8411610ac557610ab68183610542565b905f612fe6565b600181111561039457600181600160801b8110156131af575b61315761314d61314361313961312f61312561316397600488600160401b61315e9a10156131a2575b640100000000811015613195575b62010000811015613188575b61010081101561317c575b6010811015613170575b1015613168575b60030260011c61311e818b612d5a565b0160011c90565b61311e818a612d5a565b61311e8189612d5a565b61311e8188612d5a565b61311e8187612d5a565b61311e8186612d5a565b8093612d5a565b821190565b900390565b60011b61310e565b811c9160021b91613107565b60081c91811b916130fd565b60101c9160081b916130f2565b60201c9160101b916130e6565b60401c9160201b916130d8565b50600160401b9050608082901c6130af565b91905b8382106131d15750505090565b909192808316906001818518811c8301809311611a0f57855f5265ffffffffffff808460205f20015416908516105f14613210575050925b91906131c4565b909493508101809111611a0f5791613209565b8054806132345750505f905f905f90565b5f19918183810111611a0f575f5260205f2001015460019165ffffffffffff82169160301c90565b906120e39082613319565b9061328a612ed36132ab9261327a612e9c565b50613283612e9c565b50846120c5565b91600165ffffffffffff845116936020828060d01b039101511691016120c5565b905490604051926132bb846104de565b835260031b1c602082015290565b8054600160401b8110156104d9576132e6916001820181556120c5565b8154905f199060031b1b19169055565b90815491600160401b8310156104d95782612b3491600161058f950181556120c5565b908154905f829160058411613357575b6133349350846131c1565b8061333f5750505f90565b61334890612122565b905f5260205f20015460301c90565b919261336281613096565b8103908111611a0f5761333493855f5265ffffffffffff808360205f20015416908516105f14613393575091613329565b92915061339f90611df9565b90613329565b60ff5f805160206135188339815191525460401c16156133c157565b604051631afcd79f60e31b8152600490fd5b8054600160401b8110156104d9576133f0916001820181556120c5565b611c4357815160209092015160301b65ffffffffffff191665ffffffffffff909216919091179055565b805492939280156134cd5761343161343c91612122565b825f5260205f200190565b9182549265ffffffffffff918285169281168084116134bb57879303613482575061347b92509065ffffffffffff82549181199060301b169116179055565b60301c9190565b9150506134b6916134a2613494610591565b65ffffffffffff9093168352565b6001600160d01b03861660208301526133d3565b61347b565b604051632520601d60e01b8152600490fd5b50906134f2916134de613494610591565b6001600160d01b03851660208301526133d3565b5f919056fe9b779b17422d0df92223018b32b4d1fa46e071723d6817e2486d003becc55f00f0c57e16840df040f15088dc2f81fe391c3923bec73e23a9662efc9c229c6a00a264697066735822122083c9d2c27050cb61d0026c4a120151139ad36b1ef086f66b4ca1715f04bbc28864736f6c63430008190033","linkReferences":{}},"methodIdentifiers":{"BASE_DELEGATOR_HINTS()":"79d89614","BURNER_GAS_LIMIT()":"d5c24e1a","BURNER_RESERVE()":"2964f8dc","FACTORY()":"2dd31000","NETWORK_MIDDLEWARE_SERVICE()":"2c9d45b3","SLASHER_HINTS()":"4eb5a242","TYPE()":"bb24fe8a","VAULT_FACTORY()":"103f2907","VETO_SLASHER_HINTS()":"6565b7db","cumulativeSlash(bytes32,address)":"1a2be2c4","cumulativeSlashAt(bytes32,address,uint48,bytes)":"aa8e6489","cumulativeSlashHint(address,bytes32,address,uint48)":"4a719655","cumulativeSlashHintInternal(bytes32,address,uint48)":"77028046","initialize(bytes)":"439fab91","isBurnerHook()":"34d098ea","latestSlashedCaptureTimestamp(bytes32,address)":"267de1f3","slashableStake(bytes32,address,uint48,bytes)":"aab3595f","slashableStakeHints(address,bytes32,address,uint48)":"4ea2e926","staticDelegateCall(address,bytes)":"9f86fd85","vault()":"fbfa77cf"},"id":97}