{"abi":[{"type":"constructor","inputs":[{"name":"baseSlasherHints","type":"address","internalType":"address"}],"stateMutability":"nonpayable"},{"type":"function","name":"BASE_SLASHER_HINTS","inputs":[],"outputs":[{"name":"","type":"address","internalType":"address"}],"stateMutability":"view"},{"type":"function","name":"isBurnerHook","inputs":[],"outputs":[{"name":"","type":"bool","internalType":"bool"}],"stateMutability":"view"},{"type":"function","name":"latestSlashedCaptureTimestamp","inputs":[{"name":"subnetwork","type":"bytes32","internalType":"bytes32"},{"name":"operator","type":"address","internalType":"address"}],"outputs":[{"name":"value","type":"uint48","internalType":"uint48"}],"stateMutability":"view"},{"type":"function","name":"slashHints","inputs":[{"name":"slasher","type":"address","internalType":"address"},{"name":"subnetwork","type":"bytes32","internalType":"bytes32"},{"name":"operator","type":"address","internalType":"address"},{"name":"captureTimestamp","type":"uint48","internalType":"uint48"}],"outputs":[{"name":"hints","type":"bytes","internalType":"bytes"}],"stateMutability":"view"},{"type":"function","name":"vault","inputs":[],"outputs":[{"name":"","type":"address","internalType":"address"}],"stateMutability":"view"},{"type":"error","name":"ExternalCall","inputs":[]}],"bytecode":{"object":"0x60c034607657601f61042b38819003918201601f19168301916001600160401b03831184841017607a57808492602094604052833981010312607657516001600160a01b03811681036076573060805260a05260405161039c908161008f823960805181505060a05181818160fb015261026e0152f35b5f80fd5b634e487b7160e01b5f52604160045260245ffdfe6080604090808252600480361015610015575f80fd5b5f3560e01c918263267de1f3146102c25750816334d098ea1461029d578163457821b71461025a57816371dc463414610081575063fbfa77cf14610057575f80fd5b3461007d575f36600319011261007d575f5490516001600160a01b039091168152602090f35b5f80fd5b823461007d57608036600319011261007d576001600160a01b039082358281169081900361007d576044359083821680920361007d576064359165ffffffffffff831680930361007d5760845f9260609686519586948593632751749360e11b85528b8501526024356024850152604484015260648301527f0000000000000000000000000000000000000000000000000000000000000000165afa908115610250575f916101bf575b50805161014c575b8151602080825281906101489082018661030c565b0390f35b908092505192602084019084821067ffffffffffffffff8311176101ac575061014893610197926101a59285528152835192839160208084015251602086840152606083019061030c565b03601f198101835282610330565b9083610133565b604190634e487b7160e01b5f525260245ffd5b90503d805f833e6101d08183610330565b8101906020808284031261007d57815167ffffffffffffffff9283821161007d57019183601f8401121561007d57825190811161023d5784519361021d601f8301601f1916840186610330565b81855282828501011161007d5780825f94018386015e830101528461012b565b604187634e487b7160e01b5f525260245ffd5b82513d5f823e3d90fd5b823461007d575f36600319011261007d57517f00000000000000000000000000000000000000000000000000000000000000006001600160a01b03168152602090f35b823461007d575f36600319011261007d5760209060ff5f5460a01c1690519015158152f35b91503461007d578260031936011261007d576024356001600160a01b038116939084900361007d5760209365ffffffffffff92355f5260018552815f20905f5284525f2054168152f35b805180835260209291819084018484015e5f828201840152601f01601f1916010190565b90601f8019910116810190811067ffffffffffffffff82111761035257604052565b634e487b7160e01b5f52604160045260245ffdfea264697066735822122093a40798e80d8e05059dc62d5249a0a6476768a1223297bf8480d01abba4cf0f64736f6c63430008190033","linkReferences":{}},"methodIdentifiers":{"BASE_SLASHER_HINTS()":"457821b7","isBurnerHook()":"34d098ea","latestSlashedCaptureTimestamp(bytes32,address)":"267de1f3","slashHints(address,bytes32,address,uint48)":"71dc4634","vault()":"fbfa77cf"},"id":174}