{"abi":[{"type":"constructor","inputs":[{"name":"baseSlasherHints","type":"address","internalType":"address"}],"stateMutability":"nonpayable"},{"type":"function","name":"BASE_SLASHER_HINTS","inputs":[],"outputs":[{"name":"","type":"address","internalType":"address"}],"stateMutability":"view"},{"type":"function","name":"BURNER_GAS_LIMIT","inputs":[],"outputs":[{"name":"","type":"uint256","internalType":"uint256"}],"stateMutability":"view"},{"type":"function","name":"BURNER_RESERVE","inputs":[],"outputs":[{"name":"","type":"uint256","internalType":"uint256"}],"stateMutability":"view"},{"type":"function","name":"FACTORY","inputs":[],"outputs":[{"name":"","type":"address","internalType":"address"}],"stateMutability":"view"},{"type":"function","name":"NETWORK_MIDDLEWARE_SERVICE","inputs":[],"outputs":[{"name":"","type":"address","internalType":"address"}],"stateMutability":"view"},{"type":"function","name":"TYPE","inputs":[],"outputs":[{"name":"","type":"uint64","internalType":"uint64"}],"stateMutability":"view"},{"type":"function","name":"VAULT_FACTORY","inputs":[],"outputs":[{"name":"","type":"address","internalType":"address"}],"stateMutability":"view"},{"type":"function","name":"cumulativeSlash","inputs":[{"name":"subnetwork","type":"bytes32","internalType":"bytes32"},{"name":"operator","type":"address","internalType":"address"}],"outputs":[{"name":"","type":"uint256","internalType":"uint256"}],"stateMutability":"view"},{"type":"function","name":"cumulativeSlashAt","inputs":[{"name":"subnetwork","type":"bytes32","internalType":"bytes32"},{"name":"operator","type":"address","internalType":"address"},{"name":"timestamp","type":"uint48","internalType":"uint48"},{"name":"hint","type":"bytes","internalType":"bytes"}],"outputs":[{"name":"","type":"uint256","internalType":"uint256"}],"stateMutability":"view"},{"type":"function","name":"initialize","inputs":[{"name":"data","type":"bytes","internalType":"bytes"}],"outputs":[],"stateMutability":"nonpayable"},{"type":"function","name":"isBurnerHook","inputs":[],"outputs":[{"name":"","type":"bool","internalType":"bool"}],"stateMutability":"view"},{"type":"function","name":"latestSlashedCaptureTimestamp","inputs":[{"name":"subnetwork","type":"bytes32","internalType":"bytes32"},{"name":"operator","type":"address","internalType":"address"}],"outputs":[{"name":"value","type":"uint48","internalType":"uint48"}],"stateMutability":"view"},{"type":"function","name":"slash","inputs":[{"name":"subnetwork","type":"bytes32","internalType":"bytes32"},{"name":"operator","type":"address","internalType":"address"},{"name":"amount","type":"uint256","internalType":"uint256"},{"name":"captureTimestamp","type":"uint48","internalType":"uint48"},{"name":"hints","type":"bytes","internalType":"bytes"}],"outputs":[{"name":"slashedAmount","type":"uint256","internalType":"uint256"}],"stateMutability":"nonpayable"},{"type":"function","name":"slashHints","inputs":[{"name":"slasher","type":"address","internalType":"address"},{"name":"msgSender","type":"address","internalType":"address"},{"name":"subnetwork","type":"bytes32","internalType":"bytes32"},{"name":"operator","type":"address","internalType":"address"},{"name":"amount","type":"uint256","internalType":"uint256"},{"name":"captureTimestamp","type":"uint48","internalType":"uint48"}],"outputs":[{"name":"","type":"bytes","internalType":"bytes"}],"stateMutability":"view"},{"type":"function","name":"slashableStake","inputs":[{"name":"subnetwork","type":"bytes32","internalType":"bytes32"},{"name":"operator","type":"address","internalType":"address"},{"name":"captureTimestamp","type":"uint48","internalType":"uint48"},{"name":"hints","type":"bytes","internalType":"bytes"}],"outputs":[{"name":"amount","type":"uint256","internalType":"uint256"}],"stateMutability":"view"},{"type":"function","name":"staticDelegateCall","inputs":[{"name":"target","type":"address","internalType":"address"},{"name":"data","type":"bytes","internalType":"bytes"}],"outputs":[],"stateMutability":"nonpayable"},{"type":"function","name":"vault","inputs":[],"outputs":[{"name":"","type":"address","internalType":"address"}],"stateMutability":"view"},{"type":"event","name":"Initialized","inputs":[{"name":"version","type":"uint64","indexed":false,"internalType":"uint64"}],"anonymous":false},{"type":"event","name":"Slash","inputs":[{"name":"subnetwork","type":"bytes32","indexed":true,"internalType":"bytes32"},{"name":"operator","type":"address","indexed":true,"internalType":"address"},{"name":"slashedAmount","type":"uint256","indexed":false,"internalType":"uint256"},{"name":"captureTimestamp","type":"uint48","indexed":false,"internalType":"uint48"}],"anonymous":false},{"type":"error","name":"CheckpointUnorderedInsertion","inputs":[]},{"type":"error","name":"ExternalCall","inputs":[]},{"type":"error","name":"InsufficientBurnerGas","inputs":[]},{"type":"error","name":"InsufficientSlash","inputs":[]},{"type":"error","name":"InvalidCaptureTimestamp","inputs":[]},{"type":"error","name":"InvalidInitialization","inputs":[]},{"type":"error","name":"NoBurner","inputs":[]},{"type":"error","name":"NotInitialized","inputs":[]},{"type":"error","name":"NotInitializing","inputs":[]},{"type":"error","name":"NotNetworkMiddleware","inputs":[]},{"type":"error","name":"NotVault","inputs":[]},{"type":"error","name":"ReentrancyGuardReentrantCall","inputs":[]},{"type":"error","name":"SafeCastOverflowedUintDowncast","inputs":[{"name":"bits","type":"uint8","internalType":"uint8"},{"name":"value","type":"uint256","internalType":"uint256"}]}],"bytecode":{"object":"0x61014034610161576001600160401b0390601f61214b38819003918201601f191683019184831184841017610166578084926020946040528339810103126101615751906001600160a01b038216820361016157306080527ff0c57e16840df040f15088dc2f81fe391c3923bec73e23a9662efc9c229c6a009081549060ff8260401c1661014f57808083160361010a575b83600060a052600060c052600060e052610100906000825261012090815260405190611fce928361017d843960805183505060a05183610528015260c05183818161099001526113ea015260e051838181610324015261172f01525182818161022001526104e30152518181816106cf0152610d7f0152f35b6001600160401b031990911681179091556040519081527fc7f505b2f371ae2175ee4913f4499e1f2633a7b5936321eed1cdaeb6115181d290602090a1388080610091565b60405163f92ee8a960e01b8152600490fd5b600080fd5b634e487b7160e01b600052604160045260246000fdfe6080604052600436101561001257600080fd5b60003560e01c8063021a815614610127578063103f2907146101225780631a2be2c41461011d578063238ab85f14610118578063267de1f3146101135780632964f8dc1461010e5780632c9d45b3146101095780632dd310001461010457806334d098ea146100ff578063439fab91146100fa578063457821b7146100f55780639f86fd85146100f0578063aa8e6489146100eb578063aab3595f146100e6578063bb24fe8a146100e1578063d5c24e1a146100dc5763fbfa77cf146100d757600080fd5b6109d2565b6109b4565b610970565b61094b565b610909565b6106fe565b6106b9565b61057d565b610557565b610512565b6104cd565b6104b0565b610457565b6103f3565b610353565b61030e565b61017f565b6001600160a01b0381160361013d57565b600080fd5b65ffffffffffff81160361013d57565b9181601f8401121561013d578235916001600160401b03831161013d576020838186019501011161013d57565b3461013d5760a036600319011261013d5760043560243561019f8161012c565b6064356101ab81610142565b6084356001600160401b03811161013d576101ca903690600401610152565b917f9b779b17422d0df92223018b32b4d1fa46e071723d6817e2486d003becc55f0060028154146102f15760029055604051635daf681960e11b8152606086901c60048201526001600160a01b036020826024817f000000000000000000000000000000000000000000000000000000000000000085165afa9182156102ec576000926102bb575b50339116036102a9576102a59461026c9460443591610ab0565b61029560017f9b779b17422d0df92223018b32b4d1fa46e071723d6817e2486d003becc55f0055565b6040519081529081906020820190565b0390f35b60405163227bf64d60e01b8152600490fd5b6102de91925060203d6020116102e5575b6102d6818361081e565b810190610e2e565b9038610252565b503d6102cc565b610a71565b604051633ee5aeb560e01b8152600490fd5b600091031261013d57565b3461013d57600036600319011261013d576040517f00000000000000000000000000000000000000000000000000000000000000006001600160a01b03168152602090f35b3461013d57604036600319011261013d5760206103a361039e6024356103788161012c565b6004356000526002845260406000209060018060a01b0316600052602052604060002090565b611647565b604051908152f35b60005b8381106103be5750506000910152565b81810151838201526020016103ae565b906020916103e7815180928185528580860191016103ab565b601f01601f1916010190565b3461013d5760c036600319011261013d576102a56104436004356104168161012c565b61042160243561012c565b60643561042d8161012c565b60a4359161043a83610142565b60443590610d32565b6040519182916020835260208301906103ce565b3461013d57604036600319011261013d57602065ffffffffffff6104a66024356104808161012c565b6004356000526001845260406000209060018060a01b0316600052602052604060002090565b5416604051908152f35b3461013d57600036600319011261013d576020604051614e208152f35b3461013d57600036600319011261013d576040517f00000000000000000000000000000000000000000000000000000000000000006001600160a01b03168152602090f35b3461013d57600036600319011261013d576040517f00000000000000000000000000000000000000000000000000000000000000006001600160a01b03168152602090f35b3461013d57600036600319011261013d57602060ff60005460a01c166040519015158152f35b3461013d57602036600319011261013d576001600160401b0360043581811161013d576105ae903690600401610152565b600080516020611f79833981519152549260ff8460401c16159316801590816106b1575b60011490816106a7575b15908161069e575b5061068c57600080516020611f79833981519152805467ffffffffffffffff191660011790556106189183610667576116f8565b61061e57005b600080516020611f79833981519152805460ff60401b19169055604051600181527fc7f505b2f371ae2175ee4913f4499e1f2633a7b5936321eed1cdaeb6115181d290602090a1005b600080516020611f79833981519152805460ff60401b1916600160401b1790556116f8565b60405163f92ee8a960e01b8152600490fd5b905015386105e4565b303b1591506105dc565b8491506105d2565b3461013d57600036600319011261013d576040517f00000000000000000000000000000000000000000000000000000000000000006001600160a01b03168152602090f35b3461013d5760408060031936011261013d5760043561071c8161012c565b602435906001600160401b03821161013d57600080916107436107a8943690600401610152565b908187519283928337810184815203915af43d156107b05761079a3d6107688161085b565b906107758651928361081e565b81523d6000602083013e5b8451948593151560208501528084015260608301906103ce565b03601f19810183528261081e565b805190602001fd5b61079a6060610780565b634e487b7160e01b600052604160045260246000fd5b602081019081106001600160401b038211176107eb57604052565b6107ba565b604081019081106001600160401b038211176107eb57604052565b6001600160401b0381116107eb57604052565b90601f801991011681019081106001600160401b038211176107eb57604052565b6040519061084c826107f0565b565b6040519061084c826107d0565b6001600160401b0381116107eb57601f01601f191660200190565b81601f8201121561013d5780359061088d8261085b565b9261089b604051948561081e565b8284526020838301011161013d57816000926020809301838601378301015290565b90608060031983011261013d57600435916024356108da8161012c565b916044356108e781610142565b91606435906001600160401b03821161013d5761090691600401610876565b90565b3461013d5760206103a361094661091f366108bd565b939190926000526002865260406000209060018060a01b0316600052602052604060002090565b611896565b3461013d57602061096761095e366108bd565b92919091610f29565b50604051908152f35b3461013d57600036600319011261013d5760206040516001600160401b037f0000000000000000000000000000000000000000000000000000000000000000168152f35b3461013d57600036600319011261013d576020604051620249f08152f35b3461013d57600036600319011261013d576000546040516001600160a01b039091168152602090f35b60405190610a08826107d0565b60608252565b9060208282031261013d5781356001600160401b039283821161013d57019060208282031261013d5760405192610a44846107d0565b823590811161013d57610a579201610876565b815290565b9081602091031261013d575161090681610142565b6040513d6000823e3d90fd5b634e487b7160e01b600052601160045260246000fd5b65ffffffffffff9182169082160391908211610aab57565b610a7d565b92939594919095610abf6109fb565b9280610c9c575b5050610ad14261196e565b600054600490602090610afa90610aee906001600160a01b031681565b6001600160a01b031690565b6040516327f843b560e11b815292839182905afa80156102ec57610b3592610b2a92600092610c6b575b50610a93565b65ffffffffffff1690565b65ffffffffffff8516908110908115610c55575b50610c4357610b5e610b679251858886610f29565b92908092611165565b958615610c3157610bec61079a610be3610c2c947fe0cbbe1f1e6fd806ca87036fafcebaf7ab5247474a3b20e1c37bb50122c3a88496610ba88a878b611177565b610bb38c878b61120d565b610bbb61083f565b9182526020820152604051928391602083019190916020806040830194805184520151910152565b86898488611383565b610bf68588611492565b610c028588838761151a565b6040805188815265ffffffffffff90961660208701526001600160a01b0390911694918291820190565b0390a3565b60405163167f871760e31b8152600490fd5b604051631357ac9160e11b8152600490fd5b9050610c63610b2a4261196e565b111538610b49565b610c8e91925060203d602011610c95575b610c86818361081e565b810190610a5c565b9038610b24565b503d610c7c565b610caa929350810190610a0e565b903880610ac6565b81601f8201121561013d578051610cc88161085b565b92610cd6604051948561081e565b8184526020828401011161013d5761090691602080850191016103ab565b9060208282031261013d5781516001600160401b03811161013d576109069201610cb2565b60406109069260208352519160208082015201906103ce565b604051632751749360e11b81526001600160a01b0391821660048201526024810192909252918216604482015265ffffffffffff90921660648301526060929190600090829060849082907f0000000000000000000000000000000000000000000000000000000000000000165afa9081156102ec57600091610dde575b508051610dba5750565b61079a91925061090690610dcc61084e565b90815260405192839160208301610d19565b610dfb91503d806000833e610df3818361081e565b810190610cf4565b38610db0565b60009081526002602090815260408083206001600160a01b03909416835292905220610906929190611896565b9081602091031261013d57516109068161012c565b60405190610e50826107f0565b60606020838281520152565b9060208282031261013d5781516001600160401b039283821161013d57019060408282031261013d5760405192610e92846107f0565b825181811161013d5782610ea7918501610cb2565b8452602083015190811161013d57610ebf9201610cb2565b602082015290565b9081602091031261013d575190565b9081526001600160a01b03909116602082015265ffffffffffff9091166040820152608060608201819052610906929101906103ce565b600019810191908211610aab57565b91908203918211610aab57565b92610f32610e43565b9080518061114b575b5050610f464261196e565b600054909490610f6090610aee906001600160a01b031681565b93604051956327f843b560e11b875260209687816004818a5afa80156102ec57610f9592610b2a926000926111335750610a93565b65ffffffffffff821690811090811561111c575b81156110e9575b506110db578560049560405196878092630ce9b79360e41b82525afa9485156102ec576110039587916000916110be575b50845190604051808099819463e02f693760e01b8352878b8a60048601610ed6565b03916001600160a01b03165afa9384156102ec5761107a9560009561107d575b509261106f85936110759361106f96869a61106661039e8361104f876000526002602052604060002090565b9060018060a01b0316600052602052604060002090565b95015192610e01565b90610f1c565b611165565b91565b61107592955061106f9491936110ab61106f928a3d8c116110b7575b6110a3818361081e565b810190610ec7565b96935093919450611023565b503d611099565b6110d59150823d84116102e5576102d6818361081e565b38610fe1565b505050505050600090600090565b9050611115610b2a6111098761104f876000526001602052604060002090565b5465ffffffffffff1690565b1138610fb0565b905061112a610b2a4261196e565b81101590610fa9565b610c8e9192508a3d8c11610c9557610c86818361081e565b61115e9250602080918301019101610e5c565b3880610f3b565b9080821015611172575090565b905090565b91909180600052600160205265ffffffffffff806111ab8560406000209060018060a01b0316600052602052604060002090565b5416908316116111ba57505050565b61084c926111e691600052600160205260406000209060018060a01b0316600052602052604060002090565b9065ffffffffffff1665ffffffffffff19825416179055565b9060018201809211610aab57565b919082600052600260205261126d61039e61123e8360406000209060018060a01b0316600052602052604060002090565b926112484261196e565b95600052600260205260406000209060018060a01b0316600052602052604060002090565b918201809211610aab576001810190815415611313575b61128d81611bd4565b50949083549561129c84611647565b50816112fe575b50156112dd5750506000198301928311610aab5761084c926112c491611619565b90919082549060031b91821b91600019901b1916179055565b61084c946112f7926001600160d01b039091169190611cb5565b50506119ce565b65ffffffffffff8381169116149050386112a3565b61131c826119a0565b611284565b60606020610906938184526001600160401b038151168285015201519160408082015201906103ce565b919360a093610906969565ffffffffffff938552600180871b03166020850152604084015216606082015281608082015201906103ce565b929390600093600460206113a3610aee610aee895460018060a01b031690565b604051630ce9b79360e41b815292839182905afa9081156102ec5761079a91611421918891611473575b506001600160a01b0316946113e061083f565b6001600160401b037f000000000000000000000000000000000000000000000000000000000000000016815290602082015260405192839160208301611321565b833b1561146f579061144b86926040519889978896879563724ab0f760e11b87526004870161134b565b03925af180156102ec5761145c5750565b8061146961084c9261080b565b80610303565b8580fd5b61148c915060203d6020116102e5576102d6818361081e565b386113cd565b60008054604051631c9e38c760e21b8152600481019390935265ffffffffffff9390931660248301529091602091839160449183916001600160a01b03165af180156102ec576114df5750565b6114f79060203d6020116110b7576110a3818361081e565b50565b8115611504570490565b634e487b7160e01b600052601260045260246000fd5b92906000549060ff8260a01c16611533575b5050505050565b6040516313c085b760e11b815291602090839060049082906001600160a01b03165afa9182156102ec576000926115f2575b5060405163065c1e0360e01b6020820190815260248201969096526001600160a01b039091166044820152606481019390935265ffffffffffff90911660848301526115be8260a481015b03601f19810184528361081e565b6202a15c5a106115e0576000928380935192620249f0f150388080808061152c565b604051632153f33560e21b8152600490fd5b6115be92506116126115b09160203d6020116102e5576102d6818361081e565b9250611565565b80548210156116315760005260206000200190600090565b634e487b7160e01b600052603260045260246000fd5b80546000908061168257505060005b6001600160d01b0381161561167b5760016116719201611619565b90549060031b1c90565b5050600090565b600019918183810111610aab578084602092522001015460301c611656565b91909160408184031261013d5780356116b98161012c565b9260208201356001600160401b03811161013d576109069201610876565b5190811515820361013d57565b9081602091031261013d57610906906116d7565b611704918101906116a1565b6040516302910f8b60e31b81526001600160a01b0392831660048201819052929160209182816024817f000000000000000000000000000000000000000000000000000000000000000088165afa9081156102ec57600091611838575b501561182657816117966004926117766119f1565b600080546001600160a01b0319166001600160a01b038916179055611a27565b94604051928380926313c085b760e11b82525afa9182156102ec57600092611809575b50501615806117ff575b6117ed575161084c9015156000805460ff60a01b191691151560a01b60ff60a01b16919091179055565b60405163d2420f5960e01b8152600490fd5b50805115156117c3565b61181f9250803d106102e5576102d6818361081e565b38806117b9565b6040516362df054560e01b8152600490fd5b6118589150833d851161185e575b611850818361081e565b8101906116e4565b38611761565b503d611846565b9081602091031261013d575163ffffffff8116810361013d5790565b90600163ffffffff80931601918211610aab57565b9180511561196457806020806118b193518301019101611865565b916118bc8382611b48565b926118cd845165ffffffffffff1690565b9065ffffffffffff80851692168281146119585782119182611903575b50506118fa576109069250611a70565b50506020015190565b9091506119108354610f0d565b63ffffffff831614918215611929575b505038806118ea565b61195091925061194461193e610b2a92611881565b85611b48565b5165ffffffffffff1690565b113880611920565b50505050506020015190565b5061090691611a70565b65ffffffffffff90818111611981571690565b604490604051906306dfcc6560e41b8252603060048301526024820152fd5b8054600160401b8110156107eb576119bd91600182018155611619565b8154906000199060031b1b19169055565b90815491600160401b8310156107eb57826112c491600161084c95018155611619565b6119f9611c29565b611a01611c29565b60017f9b779b17422d0df92223018b32b4d1fa46e071723d6817e2486d003becc55f0055565b6000604051611a35816107d0565b5260208180518101031261013d57602090604051611a52816107d0565b611a6a604051938493611a64856107d0565b016116d7565b82525290565b908154906000829160058411611ade575b611a8c935084611f17565b80611ab557506000905b6001600160d01b0382161561167b576109069160016116719201611619565b611ad1611ac4611ad892610f0d565b8360005260206000200190565b5460301c90565b90611a96565b9192611ae981611dd7565b8103908111610aab57611a8c938560005265ffffffffffff8083602060002001541690851610600014611b1d575091611a81565b929150611b29906111ff565b90611a81565b60405190611b3c826107f0565b60006020838281520152565b90611b71611b6b611b9292611b5b611b2f565b50611b64611b2f565b5084611619565b50611bb0565b91600165ffffffffffff845116936020828060d01b03910151169101611619565b90549060405192611ba2846107f0565b835260031b1c602082015290565b90604051611bbd816107f0565b915465ffffffffffff8116835260301c6020830152565b805480611be8575050600090600090600090565b600019908082810111610aab57611c089260005260206000200101611bb0565b9065ffffffffffff82511691602060018060d01b0391015116906001929190565b60ff600080516020611f798339815191525460401c1615611c4657565b604051631afcd79f60e31b8152600490fd5b8054600160401b8110156107eb57611c7591600182018155611619565b611c9f57815160209092015160301b65ffffffffffff191665ffffffffffff909216919091179055565b634e487b7160e01b600052600060045260246000fd5b805492939291908215611dad57611cd6611cd1611ac485610f0d565b611bb0565b90611ce7825165ffffffffffff1690565b65ffffffffffff84811691168110611d9b57611d5f946020948892611d15610b2a875165ffffffffffff1690565b03611d635750611d5192611d2b611d3892610f0d565b9060005260206000200190565b9065ffffffffffff82549181199060301b169116179055565b01516001600160d01b031690565b9190565b915050611d9691611d83611d7561083f565b65ffffffffffff9093168352565b6001600160d01b03881682860152611c58565b611d51565b604051632520601d60e01b8152600490fd5b611dd19250611dbd611d7561083f565b6001600160d01b0385166020830152611c58565b60009190565b8015611f115780611eaa611ea3611e99611e8f611e85611e7b611e71611e6760016109069a6000908b60801c80611f05575b508060401c80611ef8575b508060201c80611eeb575b508060101c80611ede575b508060081c80611ed1575b508060041c80611ec4575b508060021c80611eb7575b50821c611eb0575b811c1b611e60818b6114fa565b0160011c90565b611e60818a6114fa565b611e6081896114fa565b611e6081886114fa565b611e6081876114fa565b611e6081866114fa565b611e6081856114fa565b80926114fa565b90611165565b8101611e53565b6002915091019038611e4b565b6004915091019038611e40565b6008915091019038611e35565b6010915091019038611e2a565b6020915091019038611e1f565b6040915091019038611e14565b91505060809038611e09565b50600090565b91905b838210611f275750505090565b9091928083169080841860011c8201809211610aab5760008581526020902082015465ffffffffffff9081169084161015611f665750925b9190611f1a565b939250611f72906111ff565b91611f5f56fef0c57e16840df040f15088dc2f81fe391c3923bec73e23a9662efc9c229c6a00a2646970667358221220feed35173ed7a8fef768f56d267b3e550e57332aeb75323748114bbcfa39456d64736f6c63430008190033","linkReferences":{}},"methodIdentifiers":{"BASE_SLASHER_HINTS()":"457821b7","BURNER_GAS_LIMIT()":"d5c24e1a","BURNER_RESERVE()":"2964f8dc","FACTORY()":"2dd31000","NETWORK_MIDDLEWARE_SERVICE()":"2c9d45b3","TYPE()":"bb24fe8a","VAULT_FACTORY()":"103f2907","cumulativeSlash(bytes32,address)":"1a2be2c4","cumulativeSlashAt(bytes32,address,uint48,bytes)":"aa8e6489","initialize(bytes)":"439fab91","isBurnerHook()":"34d098ea","latestSlashedCaptureTimestamp(bytes32,address)":"267de1f3","slash(bytes32,address,uint256,uint48,bytes)":"021a8156","slashHints(address,address,bytes32,address,uint256,uint48)":"238ab85f","slashableStake(bytes32,address,uint48,bytes)":"aab3595f","staticDelegateCall(address,bytes)":"9f86fd85","vault()":"fbfa77cf"},"id":81}