{"abi":[{"type":"constructor","inputs":[{"name":"baseSlasherHints","type":"address","internalType":"address"}],"stateMutability":"nonpayable"},{"type":"function","name":"BASE_SLASHER_HINTS","inputs":[],"outputs":[{"name":"","type":"address","internalType":"address"}],"stateMutability":"view"},{"type":"function","name":"BURNER_GAS_LIMIT","inputs":[],"outputs":[{"name":"","type":"uint256","internalType":"uint256"}],"stateMutability":"view"},{"type":"function","name":"BURNER_RESERVE","inputs":[],"outputs":[{"name":"","type":"uint256","internalType":"uint256"}],"stateMutability":"view"},{"type":"function","name":"FACTORY","inputs":[],"outputs":[{"name":"","type":"address","internalType":"address"}],"stateMutability":"view"},{"type":"function","name":"NETWORK_MIDDLEWARE_SERVICE","inputs":[],"outputs":[{"name":"","type":"address","internalType":"address"}],"stateMutability":"view"},{"type":"function","name":"TYPE","inputs":[],"outputs":[{"name":"","type":"uint64","internalType":"uint64"}],"stateMutability":"view"},{"type":"function","name":"VAULT_FACTORY","inputs":[],"outputs":[{"name":"","type":"address","internalType":"address"}],"stateMutability":"view"},{"type":"function","name":"cumulativeSlash","inputs":[{"name":"subnetwork","type":"bytes32","internalType":"bytes32"},{"name":"operator","type":"address","internalType":"address"}],"outputs":[{"name":"","type":"uint256","internalType":"uint256"}],"stateMutability":"view"},{"type":"function","name":"cumulativeSlashAt","inputs":[{"name":"subnetwork","type":"bytes32","internalType":"bytes32"},{"name":"operator","type":"address","internalType":"address"},{"name":"timestamp","type":"uint48","internalType":"uint48"},{"name":"hint","type":"bytes","internalType":"bytes"}],"outputs":[{"name":"","type":"uint256","internalType":"uint256"}],"stateMutability":"view"},{"type":"function","name":"initialize","inputs":[{"name":"data","type":"bytes","internalType":"bytes"}],"outputs":[],"stateMutability":"nonpayable"},{"type":"function","name":"isBurnerHook","inputs":[],"outputs":[{"name":"","type":"bool","internalType":"bool"}],"stateMutability":"view"},{"type":"function","name":"latestSlashedCaptureTimestamp","inputs":[{"name":"subnetwork","type":"bytes32","internalType":"bytes32"},{"name":"operator","type":"address","internalType":"address"}],"outputs":[{"name":"value","type":"uint48","internalType":"uint48"}],"stateMutability":"view"},{"type":"function","name":"slash","inputs":[{"name":"subnetwork","type":"bytes32","internalType":"bytes32"},{"name":"operator","type":"address","internalType":"address"},{"name":"amount","type":"uint256","internalType":"uint256"},{"name":"captureTimestamp","type":"uint48","internalType":"uint48"},{"name":"hints","type":"bytes","internalType":"bytes"}],"outputs":[{"name":"slashedAmount","type":"uint256","internalType":"uint256"}],"stateMutability":"nonpayable"},{"type":"function","name":"slashHints","inputs":[{"name":"slasher","type":"address","internalType":"address"},{"name":"msgSender","type":"address","internalType":"address"},{"name":"subnetwork","type":"bytes32","internalType":"bytes32"},{"name":"operator","type":"address","internalType":"address"},{"name":"amount","type":"uint256","internalType":"uint256"},{"name":"captureTimestamp","type":"uint48","internalType":"uint48"}],"outputs":[{"name":"","type":"bytes","internalType":"bytes"}],"stateMutability":"view"},{"type":"function","name":"slashableStake","inputs":[{"name":"subnetwork","type":"bytes32","internalType":"bytes32"},{"name":"operator","type":"address","internalType":"address"},{"name":"captureTimestamp","type":"uint48","internalType":"uint48"},{"name":"hints","type":"bytes","internalType":"bytes"}],"outputs":[{"name":"amount","type":"uint256","internalType":"uint256"}],"stateMutability":"view"},{"type":"function","name":"staticDelegateCall","inputs":[{"name":"target","type":"address","internalType":"address"},{"name":"data","type":"bytes","internalType":"bytes"}],"outputs":[],"stateMutability":"nonpayable"},{"type":"function","name":"vault","inputs":[],"outputs":[{"name":"","type":"address","internalType":"address"}],"stateMutability":"view"},{"type":"event","name":"Initialized","inputs":[{"name":"version","type":"uint64","indexed":false,"internalType":"uint64"}],"anonymous":false},{"type":"event","name":"Slash","inputs":[{"name":"subnetwork","type":"bytes32","indexed":true,"internalType":"bytes32"},{"name":"operator","type":"address","indexed":true,"internalType":"address"},{"name":"slashedAmount","type":"uint256","indexed":false,"internalType":"uint256"},{"name":"captureTimestamp","type":"uint48","indexed":false,"internalType":"uint48"}],"anonymous":false},{"type":"error","name":"CheckpointUnorderedInsertion","inputs":[]},{"type":"error","name":"ExternalCall","inputs":[]},{"type":"error","name":"InsufficientBurnerGas","inputs":[]},{"type":"error","name":"InsufficientSlash","inputs":[]},{"type":"error","name":"InvalidCaptureTimestamp","inputs":[]},{"type":"error","name":"InvalidInitialization","inputs":[]},{"type":"error","name":"NoBurner","inputs":[]},{"type":"error","name":"NotInitialized","inputs":[]},{"type":"error","name":"NotInitializing","inputs":[]},{"type":"error","name":"NotNetworkMiddleware","inputs":[]},{"type":"error","name":"NotVault","inputs":[]},{"type":"error","name":"ReentrancyGuardReentrantCall","inputs":[]},{"type":"error","name":"SafeCastOverflowedUintDowncast","inputs":[{"name":"bits","type":"uint8","internalType":"uint8"},{"name":"value","type":"uint256","internalType":"uint256"}]}],"bytecode":{"object":"0x6101403461015d576001600160401b0390601f61201038819003918201601f1916830191848311848410176101615780849260209460405283398101031261015d5751906001600160a01b038216820361015d57306080527ff0c57e16840df040f15088dc2f81fe391c3923bec73e23a9662efc9c229c6a009081549060ff8260401c1661014b578080831603610106575b835f60a0525f60c0525f60e052610100905f825261012090815260405190611e9a9283610176843960805183505060a051836104f2015260c0518381816109490152611373015260e05183818161031d01526116a301525182818161021c01526104ae0152518181816106920152610d390152f35b6001600160401b031990911681179091556040519081527fc7f505b2f371ae2175ee4913f4499e1f2633a7b5936321eed1cdaeb6115181d290602090a15f8080610091565b60405163f92ee8a960e01b8152600490fd5b5f80fd5b634e487b7160e01b5f52604160045260245ffdfe60806040526004361015610011575f80fd5b5f3560e01c8063021a815614610124578063103f29071461011f5780631a2be2c41461011a578063238ab85f14610115578063267de1f3146101105780632964f8dc1461010b5780632c9d45b3146101065780632dd310001461010157806334d098ea146100fc578063439fab91146100f7578063457821b7146100f25780639f86fd85146100ed578063aa8e6489146100e8578063aab3595f146100e3578063bb24fe8a146100de578063d5c24e1a146100d95763fbfa77cf146100d4575f80fd5b61098a565b61096d565b61092a565b610905565b6108c7565b6106c1565b61067d565b610545565b610521565b6104dd565b610499565b61047d565b610428565b6103c4565b61034c565b610308565b61017b565b6001600160a01b0381160361013a57565b5f80fd5b65ffffffffffff81160361013a57565b9181601f8401121561013a578235916001600160401b03831161013a576020838186019501011161013a57565b3461013a5760a036600319011261013a5760043560243561019b81610129565b6064356101a78161013e565b6084356001600160401b03811161013a576101c690369060040161014e565b917f9b779b17422d0df92223018b32b4d1fa46e071723d6817e2486d003becc55f0060028154146102ec5760029055604051635daf681960e11b8152606086901c60048201526001600160a01b036020826024817f000000000000000000000000000000000000000000000000000000000000000085165afa9182156102e7575f926102b6575b50339116036102a4576102a0946102679460443591610a63565b61029060017f9b779b17422d0df92223018b32b4d1fa46e071723d6817e2486d003becc55f0055565b6040519081529081906020820190565b0390f35b60405163227bf64d60e01b8152600490fd5b6102d991925060203d6020116102e0575b6102d181836107dd565b810190610de5565b905f61024d565b503d6102c7565b610a27565b604051633ee5aeb560e01b8152600490fd5b5f91031261013a57565b3461013a575f36600319011261013a576040517f00000000000000000000000000000000000000000000000000000000000000006001600160a01b03168152602090f35b3461013a57604036600319011261013a57602061039861039360243561037181610129565b6004355f526002845260405f209060018060a01b03165f5260205260405f2090565b6115c2565b604051908152f35b805180835260209291819084018484015e5f828201840152601f01601f1916010190565b3461013a5760c036600319011261013a576102a06104146004356103e781610129565b6103f2602435610129565b6064356103fe81610129565b60a4359161040b8361013e565b60443590610ced565b6040519182916020835260208301906103a0565b3461013a57604036600319011261013a57602065ffffffffffff61047360243561045181610129565b6004355f526001845260405f209060018060a01b03165f5260205260405f2090565b5416604051908152f35b3461013a575f36600319011261013a576020604051614e208152f35b3461013a575f36600319011261013a576040517f00000000000000000000000000000000000000000000000000000000000000006001600160a01b03168152602090f35b3461013a575f36600319011261013a576040517f00000000000000000000000000000000000000000000000000000000000000006001600160a01b03168152602090f35b3461013a575f36600319011261013a57602060ff5f5460a01c166040519015158152f35b3461013a57602036600319011261013a576001600160401b0360043581811161013a5761057690369060040161014e565b5f80516020611e45833981519152549260ff8460401c1615931680159081610675575b600114908161066b575b159081610662575b50610650575f80516020611e45833981519152805467ffffffffffffffff191660011790556105de918361062c5761166c565b6105e457005b5f80516020611e45833981519152805460ff60401b19169055604051600181527fc7f505b2f371ae2175ee4913f4499e1f2633a7b5936321eed1cdaeb6115181d290602090a1005b5f80516020611e45833981519152805460ff60401b1916600160401b17905561166c565b60405163f92ee8a960e01b8152600490fd5b9050155f6105ab565b303b1591506105a3565b849150610599565b3461013a575f36600319011261013a576040517f00000000000000000000000000000000000000000000000000000000000000006001600160a01b03168152602090f35b3461013a5760408060031936011261013a576004356106df81610129565b602435906001600160401b03821161013a575f809161070561076994369060040161014e565b908187519283928337810184815203915af43d156107715761075b3d61072a8161081a565b90610737865192836107dd565b81523d5f602083013e5b8451948593151560208501528084015260608301906103a0565b03601f1981018352826107dd565b805190602001fd5b61075b6060610741565b634e487b7160e01b5f52604160045260245ffd5b602081019081106001600160401b038211176107aa57604052565b61077b565b604081019081106001600160401b038211176107aa57604052565b6001600160401b0381116107aa57604052565b90601f801991011681019081106001600160401b038211176107aa57604052565b6040519061080b826107af565b565b6040519061080b8261078f565b6001600160401b0381116107aa57601f01601f191660200190565b81601f8201121561013a5780359061084c8261081a565b9261085a60405194856107dd565b8284526020838301011161013a57815f926020809301838601378301015290565b90608060031983011261013a576004359160243561089881610129565b916044356108a58161013e565b91606435906001600160401b03821161013a576108c491600401610835565b90565b3461013a5760206103986109006108dd3661087b565b939190925f526002865260405f209060018060a01b03165f5260205260405f2090565b611806565b3461013a5760206109216109183661087b565b92919091610edf565b50604051908152f35b3461013a575f36600319011261013a5760206040516001600160401b037f0000000000000000000000000000000000000000000000000000000000000000168152f35b3461013a575f36600319011261013a576020604051620249f08152f35b3461013a575f36600319011261013a575f546040516001600160a01b039091168152602090f35b604051906109be8261078f565b60608252565b9060208282031261013a5781356001600160401b039283821161013a57019060208282031261013a57604051926109fa8461078f565b823590811161013a57610a0d9201610835565b815290565b9081602091031261013a57516108c48161013e565b6040513d5f823e3d90fd5b634e487b7160e01b5f52601160045260245ffd5b65ffffffffffff9182169082160391908211610a5e57565b610a32565b92939594919095610a726109b1565b9280610c53575b5050610a84426118de565b5f54600490602090610aac90610aa0906001600160a01b031681565b6001600160a01b031690565b6040516327f843b560e11b815292839182905afa80156102e757610ae692610adb925f92610c22575b50610a46565b65ffffffffffff1690565b65ffffffffffff8516908110908115610c0c575b50610bfa57610b0f610b1e9251858886610edf565b92909180831890831102821890565b958615610be857610ba361075b610b9a610be3947fe0cbbe1f1e6fd806ca87036fafcebaf7ab5247474a3b20e1c37bb50122c3a88496610b5f8a878b611115565b610b6a8c878b6111a3565b610b726107fe565b9182526020820152604051928391602083019190916020806040830194805184520151910152565b8689848861130f565b610bad8588611418565b610bb98588838761149d565b6040805188815265ffffffffffff90961660208701526001600160a01b0390911694918291820190565b0390a3565b60405163167f871760e31b8152600490fd5b604051631357ac9160e11b8152600490fd5b9050610c1a610adb426118de565b11155f610afa565b610c4591925060203d602011610c4c575b610c3d81836107dd565b810190610a12565b905f610ad5565b503d610c33565b610c619293508101906109c4565b905f80610a79565b81601f8201121561013a57805190610c808261081a565b92610c8e60405194856107dd565b8284526020838301011161013a57815f9260208093018386015e8301015290565b9060208282031261013a5781516001600160401b03811161013a576108c49201610c69565b60406108c49260208352519160208082015201906103a0565b604051632751749360e11b81526001600160a01b0391821660048201526024810192909252918216604482015265ffffffffffff909216606483015260609291905f90829060849082907f0000000000000000000000000000000000000000000000000000000000000000165afa9081156102e7575f91610d97575b508051610d735750565b61075b9192506108c490610d8561080d565b90815260405192839160208301610cd4565b610db391503d805f833e610dab81836107dd565b810190610caf565b5f610d69565b5f9081526002602090815260408083206001600160a01b039094168352929052206108c4929190611806565b9081602091031261013a57516108c481610129565b60405190610e07826107af565b60606020838281520152565b9060208282031261013a5781516001600160401b039283821161013a57019060408282031261013a5760405192610e49846107af565b825181811161013a5782610e5e918501610c69565b8452602083015190811161013a57610e769201610c69565b602082015290565b9081602091031261013a575190565b9081526001600160a01b03909116602082015265ffffffffffff90911660408201526080606082018190526108c4929101906103a0565b5f19810191908211610a5e57565b91908203918211610a5e57565b92610ee8610dfa565b908051806110fb575b5050610efc426118de565b5f54909490610f1590610aa0906001600160a01b031681565b93604051956327f843b560e11b875260209687816004818a5afa80156102e757610f4992610adb925f926110e35750610a46565b65ffffffffffff82169081109081156110cc575b811561109b575b5061108f578560049560405196878092630ce9b79360e41b82525afa9485156102e757610fb69587915f91611072575b50845190604051808099819463e02f693760e01b8352878b8a60048601610e8d565b03916001600160a01b03165afa9384156102e75761102e955f95611031575b509261101d85936110239361101d96869a61101461039383610fff875f52600260205260405f2090565b9060018060a01b03165f5260205260405f2090565b95015192610db9565b90610ed2565b818082109118021890565b91565b61102392955061101d94919361105f61101d928a3d8c1161106b575b61105781836107dd565b810190610e7e565b96935093919450610fd5565b503d61104d565b6110899150823d84116102e0576102d181836107dd565b5f610f94565b5050505050505f905f90565b90506110c5610adb6110b987610fff875f52600160205260405f2090565b5465ffffffffffff1690565b115f610f64565b90506110da610adb426118de565b81101590610f5d565b610c459192508a3d8c11610c4c57610c3d81836107dd565b61110e9250602080918301019101610e13565b5f80610ef1565b919091805f52600160205265ffffffffffff806111458560405f209060018060a01b03165f5260205260405f2090565b54169083161161115457505050565b61080b9261117c915f52600160205260405f209060018060a01b03165f5260205260405f2090565b9065ffffffffffff1665ffffffffffff19825416179055565b9060018201809211610a5e57565b9190825f5260026020526111fb6103936111d08360405f209060018060a01b03165f5260205260405f2090565b926111da426118de565b955f52600260205260405f209060018060a01b03165f5260205260405f2090565b918201809211610a5e57600181019081541561129f575b61121b81611b1c565b50949083549561122a846115c2565b508161128a575b50156112695750505f198301928311610a5e5761080b9261125191611599565b90919082549060031b91821b915f19901b1916179055565b61080b94611283926001600160d01b039091169190611bdd565b505061193d565b65ffffffffffff83811691161490505f611231565b6112a882611910565b611212565b606060206108c4938184526001600160401b038151168285015201519160408082015201906103a0565b919360a0936108c4969565ffffffffffff938552600180871b03166020850152604084015216606082015281608082015201906103a0565b9293906004602061132c610aa0610aa05f5460018060a01b031690565b604051630ce9b79360e41b815292839182905afa9081156102e75761075b916113aa915f916113f9575b506001600160a01b0316936113696107fe565b6001600160401b037f0000000000000000000000000000000000000000000000000000000000000000168152906020820152604051928391602083016112ad565b823b1561013a575f946113d586926040519889978896879563724ab0f760e11b8752600487016112d7565b03925af180156102e7576113e65750565b806113f361080b926107ca565b806102fe565b611412915060203d6020116102e0576102d181836107dd565b5f611356565b5f8054604051631c9e38c760e21b8152600481019390935265ffffffffffff9390931660248301529091602091839160449183916001600160a01b03165af180156102e7576114645750565b61147c9060203d60201161106b5761105781836107dd565b50565b8115611489570490565b634e487b7160e01b5f52601260045260245ffd5b92905f549060ff8260a01c166114b5575b5050505050565b6040516313c085b760e11b815291602090839060049082906001600160a01b03165afa9182156102e7575f92611572575b5060405163065c1e0360e01b6020820190815260248201969096526001600160a01b039091166044820152606481019390935265ffffffffffff909116608483015261153f8260a481015b03601f1981018452836107dd565b6202a15c5a10611560575f928380935192620249f0f1505f808080806114ae565b604051632153f33560e21b8152600490fd5b61153f92506115926115319160203d6020116102e0576102d181836107dd565b92506114e6565b80548210156115ae575f5260205f2001905f90565b634e487b7160e01b5f52603260045260245ffd5b8054806115f757505f5b6001600160d01b038116156115f15760016115e79201611599565b90549060031b1c90565b50505f90565b5f19908082810111610a5e57825f5260205f2001015460301c6115cc565b91909160408184031261013a57803561162d81610129565b9260208201356001600160401b03811161013a576108c49201610835565b5190811515820361013a57565b9081602091031261013a576108c49061164b565b61167891810190611615565b6040516302910f8b60e31b81526001600160a01b0392831660048201819052929160209182816024817f000000000000000000000000000000000000000000000000000000000000000088165afa9081156102e7575f916117a8575b501561179657816117086004926116e9611960565b5f80546001600160a01b0319166001600160a01b038916179055611996565b94604051928380926313c085b760e11b82525afa9182156102e7575f92611779575b505016158061176f575b61175d575161080b9015155f805460ff60a01b191691151560a01b60ff60a01b16919091179055565b60405163d2420f5960e01b8152600490fd5b5080511515611734565b61178f9250803d106102e0576102d181836107dd565b5f8061172a565b6040516362df054560e01b8152600490fd5b6117c89150833d85116117ce575b6117c081836107dd565b810190611658565b5f6116d4565b503d6117b6565b9081602091031261013a575163ffffffff8116810361013a5790565b90600163ffffffff80931601918211610a5e57565b918051156118d45780602080611821935183010191016117d5565b9161182c8382611aae565b9261183d845165ffffffffffff1690565b9065ffffffffffff80851692168281146118c85782119182611873575b505061186a576108c492506119de565b50506020015190565b9091506118808354610ec4565b63ffffffff831614918215611899575b50505f8061185a565b6118c09192506118b46118ae610adb926117f1565b85611aae565b5165ffffffffffff1690565b115f80611890565b50505050506020015190565b506108c4916119de565b65ffffffffffff908181116118f1571690565b604490604051906306dfcc6560e41b8252603060048301526024820152fd5b8054600160401b8110156107aa5761192d91600182018155611599565b8154905f199060031b1b19169055565b90815491600160401b8310156107aa578261125191600161080b95018155611599565b611968611b55565b611970611b55565b60017f9b779b17422d0df92223018b32b4d1fa46e071723d6817e2486d003becc55f0055565b5f6040516119a38161078f565b5260208180518101031261013a576020906040516119c08161078f565b6119d86040519384936119d28561078f565b0161164b565b82525290565b908154905f829160058411611a48575b6119f9935084611de5565b80611a2157505f905b6001600160d01b038216156115f1576108c49160016115e79201611599565b611a3b611a30611a4292610ec4565b835f5260205f200190565b5460301c90565b90611a02565b9192611a5381611cba565b8103908111610a5e576119f993855f5265ffffffffffff808360205f20015416908516105f14611a845750916119ee565b929150611a9090611195565b906119ee565b60405190611aa3826107af565b5f6020838281520152565b9060206001611ad2611afe93611ac2611a96565b50611acb611a96565b5085611599565b509360405194611ae1866107af565b549465ffffffffffff86169586825260301c938491015201611599565b90549060405192611b0e846107af565b835260031b1c602082015290565b805480611b2d5750505f905f905f90565b5f19918183810111610a5e575f5260205f2001015460019165ffffffffffff82169160301c90565b60ff5f80516020611e458339815191525460401c1615611b7157565b604051631afcd79f60e31b8152600490fd5b8054600160401b8110156107aa57611ba091600182018155611599565b611bca57815160209092015160301b65ffffffffffff191665ffffffffffff909216919091179055565b634e487b7160e01b5f525f60045260245ffd5b80549293928015611c9057611bf4611bff91610ec4565b825f5260205f200190565b9182549265ffffffffffff91828516928116808411611c7e57879303611c455750611c3e92509065ffffffffffff82549181199060301b169116179055565b60301c9190565b915050611c7991611c65611c576107fe565b65ffffffffffff9093168352565b6001600160d01b0386166020830152611b83565b611c3e565b604051632520601d60e01b8152600490fd5b5090611cb591611ca1611c576107fe565b6001600160d01b0385166020830152611b83565b5f9190565b60018111156108c457600181600160801b811015611dd3575b611d7b611d71611d67611d5d611d53611d49611d8797600488600160401b611d829a1015611dc6575b640100000000811015611db9575b62010000811015611dac575b610100811015611da0575b6010811015611d94575b1015611d8c575b60030260011c611d42818b61147f565b0160011c90565b611d42818a61147f565b611d42818961147f565b611d42818861147f565b611d42818761147f565b611d42818661147f565b809361147f565b821190565b900390565b60011b611d32565b811c9160021b91611d2b565b60081c91811b91611d21565b60101c9160081b91611d16565b60201c9160101b91611d0a565b60401c9160201b91611cfc565b50600160401b9050608082901c611cd3565b91905b838210611df55750505090565b9091928083169080841860011c8201809211610a5e57845f5265ffffffffffff808360205f20015416908416105f14611e325750925b9190611de8565b939250611e3e90611195565b91611e2b56fef0c57e16840df040f15088dc2f81fe391c3923bec73e23a9662efc9c229c6a00a26469706673582212201ee7b6268adaae15d1a0d6748e551e043b4dfbfbfe4a4a635c0bdd2b9ce34c5664736f6c63430008190033","linkReferences":{}},"methodIdentifiers":{"BASE_SLASHER_HINTS()":"457821b7","BURNER_GAS_LIMIT()":"d5c24e1a","BURNER_RESERVE()":"2964f8dc","FACTORY()":"2dd31000","NETWORK_MIDDLEWARE_SERVICE()":"2c9d45b3","TYPE()":"bb24fe8a","VAULT_FACTORY()":"103f2907","cumulativeSlash(bytes32,address)":"1a2be2c4","cumulativeSlashAt(bytes32,address,uint48,bytes)":"aa8e6489","initialize(bytes)":"439fab91","isBurnerHook()":"34d098ea","latestSlashedCaptureTimestamp(bytes32,address)":"267de1f3","slash(bytes32,address,uint256,uint48,bytes)":"021a8156","slashHints(address,address,bytes32,address,uint256,uint48)":"238ab85f","slashableStake(bytes32,address,uint48,bytes)":"aab3595f","staticDelegateCall(address,bytes)":"9f86fd85","vault()":"fbfa77cf"},"id":114}