{"abi":[{"type":"constructor","inputs":[{"name":"baseSlasherHints","type":"address","internalType":"address"}],"stateMutability":"nonpayable"},{"type":"function","name":"BASE_SLASHER_HINTS","inputs":[],"outputs":[{"name":"","type":"address","internalType":"address"}],"stateMutability":"view"},{"type":"function","name":"executeSlashHints","inputs":[{"name":"slasher","type":"address","internalType":"address"},{"name":"slashIndex","type":"uint256","internalType":"uint256"}],"outputs":[{"name":"hints","type":"bytes","internalType":"bytes"}],"stateMutability":"view"},{"type":"function","name":"isBurnerHook","inputs":[],"outputs":[{"name":"","type":"bool","internalType":"bool"}],"stateMutability":"view"},{"type":"function","name":"latestSlashedCaptureTimestamp","inputs":[{"name":"subnetwork","type":"bytes32","internalType":"bytes32"},{"name":"operator","type":"address","internalType":"address"}],"outputs":[{"name":"value","type":"uint48","internalType":"uint48"}],"stateMutability":"view"},{"type":"function","name":"requestSlashHints","inputs":[{"name":"slasher","type":"address","internalType":"address"},{"name":"subnetwork","type":"bytes32","internalType":"bytes32"},{"name":"operator","type":"address","internalType":"address"},{"name":"captureTimestamp","type":"uint48","internalType":"uint48"}],"outputs":[{"name":"hints","type":"bytes","internalType":"bytes"}],"stateMutability":"view"},{"type":"function","name":"resolverHint","inputs":[{"name":"slasher","type":"address","internalType":"address"},{"name":"subnetwork","type":"bytes32","internalType":"bytes32"},{"name":"timestamp","type":"uint48","internalType":"uint48"}],"outputs":[{"name":"hint","type":"bytes","internalType":"bytes"}],"stateMutability":"view"},{"type":"function","name":"resolverHintInternal","inputs":[{"name":"subnetwork","type":"bytes32","internalType":"bytes32"},{"name":"timestamp","type":"uint48","internalType":"uint48"}],"outputs":[{"name":"exists","type":"bool","internalType":"bool"},{"name":"hint","type":"uint32","internalType":"uint32"}],"stateMutability":"view"},{"type":"function","name":"resolverSetEpochsDelay","inputs":[],"outputs":[{"name":"","type":"uint256","internalType":"uint256"}],"stateMutability":"view"},{"type":"function","name":"setResolverHints","inputs":[{"name":"slasher","type":"address","internalType":"address"},{"name":"subnetwork","type":"bytes32","internalType":"bytes32"},{"name":"timestamp","type":"uint48","internalType":"uint48"}],"outputs":[{"name":"hints","type":"bytes","internalType":"bytes"}],"stateMutability":"view"},{"type":"function","name":"slashRequests","inputs":[{"name":"","type":"uint256","internalType":"uint256"}],"outputs":[{"name":"subnetwork","type":"bytes32","internalType":"bytes32"},{"name":"operator","type":"address","internalType":"address"},{"name":"amount","type":"uint256","internalType":"uint256"},{"name":"captureTimestamp","type":"uint48","internalType":"uint48"},{"name":"vetoDeadline","type":"uint48","internalType":"uint48"},{"name":"completed","type":"bool","internalType":"bool"}],"stateMutability":"view"},{"type":"function","name":"vault","inputs":[],"outputs":[{"name":"","type":"address","internalType":"address"}],"stateMutability":"view"},{"type":"function","name":"vetoDuration","inputs":[],"outputs":[{"name":"","type":"uint48","internalType":"uint48"}],"stateMutability":"view"},{"type":"function","name":"vetoSlashHints","inputs":[{"name":"slasher","type":"address","internalType":"address"},{"name":"slashIndex","type":"uint256","internalType":"uint256"}],"outputs":[{"name":"hints","type":"bytes","internalType":"bytes"}],"stateMutability":"view"},{"type":"error","name":"ExternalCall","inputs":[]},{"type":"error","name":"SafeCastOverflowedUintDowncast","inputs":[{"name":"bits","type":"uint8","internalType":"uint8"},{"name":"value","type":"uint256","internalType":"uint256"}]}],"bytecode":{"object":"0x60c034608157601f6110bd38819003918201601f19168301916001600160401b03831184841017608557808492602094604052833981010312608157516001600160a01b03811681036081573060805260a052604051611023908161009a823960805181610406015260a0518181816103b80152818161067801526107f10152f35b5f80fd5b634e487b7160e01b5f52604160045260245ffdfe60806040526004361015610011575f80fd5b5f3560e01c80631dd5f600146100e4578063267de1f3146100df5780632f2741b9146100da57806334d098ea146100d5578063457821b7146100d05780638f82f931146100cb5780639a896551146100c6578063a4ef9b4f146100c1578063b4ade93c146100bc578063b5c986a5146100b7578063bc6eac5b146100b2578063e054e08b146100ad5763fbfa77cf146100a8575f80fd5b6108be565b610899565b61087c565b610770565b6105a9565b610581565b610478565b6103e7565b6103a3565b61037f565b610254565b610204565b61016f565b6001600160a01b038116036100fa57565b5f80fd5b65ffffffffffff8116036100fa57565b60609060031901126100fa57600435610126816100e9565b9060243590604435610137816100fe565b90565b805180835260209291819084018484015e5f828201840152601f01601f1916010190565b90602061013792818152019061013a565b346100fa5761018c6101803661010e565b60609392909190610aa4565b9081516101b0575b6101ac9060405191829160208352602083019061013a565b0390f35b50604051906020820182811067ffffffffffffffff8211176101ff576101ac926101ec926101fa92604052815260405192839160208301610997565b03601f198101835282610915565b610194565b6108e5565b346100fa5760403660031901126100fa57602435610221816100e9565b6004355f52600160205260405f209060018060a01b03165f52602052602065ffffffffffff60405f205416604051908152f35b346100fa5760403660031901126100fa57600435610271816100e9565b6060604051639a89655160e01b815260c08180610298602435600483019190602083019252565b03816001600160a01b0387165afa90811561037a576101ac935f915f9361033a575b506102ca82936102e29383610aa4565b926102dc6102d742610e4d565b610a29565b91610aa4565b815115801590610330575b610300575b50506040519182918261015e565b6101ec92509061032991610312610937565b918252602082015260405192839160208301610a45565b5f806102f2565b50805115156102ed565b6102ca93506102e292506103659060c03d60c011610373575b61035d8183610915565b8101906109bd565b5050959291505092506102ba565b503d610353565b610a0a565b346100fa575f3660031901126100fa57602060ff5f5460a01c166040519015158152f35b346100fa575f3660031901126100fa576040517f00000000000000000000000000000000000000000000000000000000000000006001600160a01b03168152602090f35b346100fa5760403660031901126100fa57602435610404816100fe565b7f00000000000000000000000000000000000000000000000000000000000000006001600160a01b031633036104665763ffffffff6104516040926004355f526006602052835f20610cc5565b91505083929192519215158352166020820152f35b604051637ca475e560e11b8152600490fd5b346100fa5760203660031901126100fa576004356003548110156100fa5760035f5260021b7fc2575a0e9e593c00f959f8c92f12db2869c3395a3b0502d05e2516446f71f85b8101547fc2575a0e9e593c00f959f8c92f12db2869c3395a3b0502d05e2516446f71f85c8201547fc2575a0e9e593c00f959f8c92f12db2869c3395a3b0502d05e2516446f71f85d8301547fc2575a0e9e593c00f959f8c92f12db2869c3395a3b0502d05e2516446f71f85e90930154604080519384526001600160a01b0390921660208401529082019290925265ffffffffffff808316606080840191909152603084901c909116608083015260ff92901c91909116151560a082015260c090f35b346100fa576101ac6105956102dc3661010e565b60405191829160208352602083019061013a565b346100fa576040806003193601126100fa57600435906105c8826100e9565b8051639a89655160e01b81526024803560048301529092606092916001600160a01b03919060c0908690818585165afa94851561037a575f925f915f97610740575b50905f91610619888686610aa4565b946106306106296102d742610e4d565b8287610aa4565b8751632751749360e11b81526001600160a01b039687166004820152602481019290925292909416604485015265ffffffffffff9790971660648401529195869060849082907f0000000000000000000000000000000000000000000000000000000000000000165afa90811561037a576101ac955f9261071c575b50825115801590610712575b8015610708575b6106d1575b505050519182918261015e565b6101ec939450906106ff92916106e5610957565b928352602083015284820152835192839160208301610c25565b905f80806106c4565b50815115156106bf565b50805115156106b8565b6107399192503d805f833e6107318183610915565b810190610bff565b905f6106ac565b9096505f935061075f915060c03d60c0116103735761035d8183610915565b50509194929050939096909161060a565b346100fa5760803660031901126100fa5760043561078d816100e9565b6044359061079a826100e9565b5f606435926107a8846100fe565b604051632751749360e11b81526001600160a01b0393841660048201526024803590820152908316604482015265ffffffffffff939093166064840152606091839060849082907f0000000000000000000000000000000000000000000000000000000000000000165afa801561037a576101ac925f91610862575b508051610839575b506040519182918261015e565b6101ec915061085c9061084a610977565b90815260405192839160208301610997565b5f61082c565b61087691503d805f833e6107318183610915565b5f610824565b346100fa575f3660031901126100fa576020600554604051908152f35b346100fa575f3660031901126100fa57602065ffffffffffff60045416604051908152f35b346100fa575f3660031901126100fa575f546040516001600160a01b039091168152602090f35b634e487b7160e01b5f52604160045260245ffd5b6080810190811067ffffffffffffffff8211176101ff57604052565b90601f8019910116810190811067ffffffffffffffff8211176101ff57604052565b604051906040820182811067ffffffffffffffff8211176101ff57604052565b604051906060820182811067ffffffffffffffff8211176101ff57604052565b604051906020820182811067ffffffffffffffff8211176101ff57604052565b604061013792602083525191602080820152019061013a565b519081151582036100fa57565b91908260c09103126100fa5781519160208101516109da816100e9565b9160408201519160608101516109ef816100fe565b9161013760a06080840151610a03816100fe565b93016109b0565b6040513d5f823e3d90fd5b634e487b7160e01b5f52601160045260245ffd5b65ffffffffffff9081165f190191908211610a4057565b610a15565b9061013791602081526020610a658351604083850152606084019061013a565b920151906040601f198285030191015261013a565b91908260409103126100fa576020610a91836109b0565b92015163ffffffff811681036100fa5790565b92915f8060609565ffffffffffff60405194602096638f82f93160e01b88880152602487015216604485015260448452610add846108f9565b6040519384610b0a87820192639f86fd8560e01b845230602484015260406044840152606483019061013a565b0394610b1e601f1996878101835282610915565b51915afa50610b3c610b2e610de9565b838082518301019101610e18565b9015610b8f57808380610b5493518301019101610a7a565b9290610b5f57505050565b61013792939450610b83604051948592830191909163ffffffff6020820193169052565b03908101835282610915565b809150519182156100fa5701fd5b67ffffffffffffffff81116101ff57601f01601f191660200190565b81601f820112156100fa57805190610bd082610b9d565b92610bde6040519485610915565b828452602083830101116100fa57815f9260208093018386015e8301015290565b906020828203126100fa57815167ffffffffffffffff81116100fa576101379201610bb9565b906101379160208152610c44825160606020840152608083019061013a565b9060606040610c64602086015194601f199586868303018487015261013a565b940151928285030191015261013a565b5f19810191908211610a4057565b9060018201809211610a4057565b906040516040810181811067ffffffffffffffff8211176101ff57604052915465ffffffffffff8116835260301c6020830152565b8054915f928060058111610da0575b50925b838110610d535750508115610d4757610d01610d0691610cf684610c74565b905f5260205f200190565b610c90565b91610d40610d37610d316020610d22875165ffffffffffff1690565b9601516001600160d01b031690565b93610c74565b63ffffffff1690565b6001939291565b50505f905f905f905f90565b90928082169080831860011c8201809211610a4057835f5265ffffffffffff808360205f20015416908616105f14610d8e5750925b90610cd7565b939150610d9a90610c82565b90610d88565b90610daa82610e9d565b8203918211610a4057835f5265ffffffffffff808360205f20015416908416105f14610dd857505b5f610cd4565b9350610de390610c82565b92610dd2565b3d15610e13573d90610dfa82610b9d565b91610e086040519384610915565b82523d5f602084013e565b606090565b9190916040818403126100fa57610e2e816109b0565b92602082015167ffffffffffffffff81116100fa576101379201610bb9565b65ffffffffffff90818111610e60571690565b604490604051906306dfcc6560e41b8252603060048301526024820152fd5b8115610e89570490565b634e487b7160e01b5f52601260045260245ffd5b8015610fd65780610f6f610f68610f5e610f54610f4a610f40610f36610f2c60016101379a5f908b60801c80610fca575b508060401c80610fbd575b508060201c80610fb0575b508060101c80610fa3575b508060081c80610f96575b508060041c80610f89575b508060021c80610f7c575b50821c610f75575b811c1b610f25818b610e7f565b0160011c90565b610f25818a610e7f565b610f258189610e7f565b610f258188610e7f565b610f258187610e7f565b610f258186610e7f565b610f258185610e7f565b8092610e7f565b90610fdb565b8101610f18565b600291509101905f610f10565b600491509101905f610f05565b600891509101905f610efa565b601091509101905f610eef565b602091509101905f610ee4565b604091509101905f610ed9565b9150506080905f610ece565b505f90565b9080821015610fe8575090565b90509056fea2646970667358221220e3b386a3a48e276e1c797cd5205ae6e43162655db01509878b5ef22a9c17d76864736f6c63430008190033","linkReferences":{}},"methodIdentifiers":{"BASE_SLASHER_HINTS()":"457821b7","executeSlashHints(address,uint256)":"b4ade93c","isBurnerHook()":"34d098ea","latestSlashedCaptureTimestamp(bytes32,address)":"267de1f3","requestSlashHints(address,bytes32,address,uint48)":"b5c986a5","resolverHint(address,bytes32,uint48)":"a4ef9b4f","resolverHintInternal(bytes32,uint48)":"8f82f931","resolverSetEpochsDelay()":"bc6eac5b","setResolverHints(address,bytes32,uint48)":"1dd5f600","slashRequests(uint256)":"9a896551","vault()":"fbfa77cf","vetoDuration()":"e054e08b","vetoSlashHints(address,uint256)":"2f2741b9"},"id":101}