{"abi":[{"type":"constructor","inputs":[{"name":"baseSlasherHints","type":"address","internalType":"address"}],"stateMutability":"nonpayable"},{"type":"function","name":"BASE_SLASHER_HINTS","inputs":[],"outputs":[{"name":"","type":"address","internalType":"address"}],"stateMutability":"view"},{"type":"function","name":"BURNER_GAS_LIMIT","inputs":[],"outputs":[{"name":"","type":"uint256","internalType":"uint256"}],"stateMutability":"view"},{"type":"function","name":"BURNER_RESERVE","inputs":[],"outputs":[{"name":"","type":"uint256","internalType":"uint256"}],"stateMutability":"view"},{"type":"function","name":"FACTORY","inputs":[],"outputs":[{"name":"","type":"address","internalType":"address"}],"stateMutability":"view"},{"type":"function","name":"NETWORK_MIDDLEWARE_SERVICE","inputs":[],"outputs":[{"name":"","type":"address","internalType":"address"}],"stateMutability":"view"},{"type":"function","name":"NETWORK_REGISTRY","inputs":[],"outputs":[{"name":"","type":"address","internalType":"address"}],"stateMutability":"view"},{"type":"function","name":"TYPE","inputs":[],"outputs":[{"name":"","type":"uint64","internalType":"uint64"}],"stateMutability":"view"},{"type":"function","name":"VAULT_FACTORY","inputs":[],"outputs":[{"name":"","type":"address","internalType":"address"}],"stateMutability":"view"},{"type":"function","name":"cumulativeSlash","inputs":[{"name":"subnetwork","type":"bytes32","internalType":"bytes32"},{"name":"operator","type":"address","internalType":"address"}],"outputs":[{"name":"","type":"uint256","internalType":"uint256"}],"stateMutability":"view"},{"type":"function","name":"cumulativeSlashAt","inputs":[{"name":"subnetwork","type":"bytes32","internalType":"bytes32"},{"name":"operator","type":"address","internalType":"address"},{"name":"timestamp","type":"uint48","internalType":"uint48"},{"name":"hint","type":"bytes","internalType":"bytes"}],"outputs":[{"name":"","type":"uint256","internalType":"uint256"}],"stateMutability":"view"},{"type":"function","name":"executeSlash","inputs":[{"name":"slashIndex","type":"uint256","internalType":"uint256"},{"name":"hints","type":"bytes","internalType":"bytes"}],"outputs":[{"name":"slashedAmount","type":"uint256","internalType":"uint256"}],"stateMutability":"nonpayable"},{"type":"function","name":"executeSlashHints","inputs":[{"name":"slasher","type":"address","internalType":"address"},{"name":"subnetwork","type":"bytes32","internalType":"bytes32"},{"name":"operator","type":"address","internalType":"address"},{"name":"captureTimestamp","type":"uint48","internalType":"uint48"}],"outputs":[{"name":"","type":"bytes","internalType":"bytes"}],"stateMutability":"view"},{"type":"function","name":"initialize","inputs":[{"name":"data","type":"bytes","internalType":"bytes"}],"outputs":[],"stateMutability":"nonpayable"},{"type":"function","name":"isBurnerHook","inputs":[],"outputs":[{"name":"","type":"bool","internalType":"bool"}],"stateMutability":"view"},{"type":"function","name":"latestSlashedCaptureTimestamp","inputs":[{"name":"subnetwork","type":"bytes32","internalType":"bytes32"},{"name":"operator","type":"address","internalType":"address"}],"outputs":[{"name":"value","type":"uint48","internalType":"uint48"}],"stateMutability":"view"},{"type":"function","name":"requestSlash","inputs":[{"name":"subnetwork","type":"bytes32","internalType":"bytes32"},{"name":"operator","type":"address","internalType":"address"},{"name":"amount","type":"uint256","internalType":"uint256"},{"name":"captureTimestamp","type":"uint48","internalType":"uint48"},{"name":"hints","type":"bytes","internalType":"bytes"}],"outputs":[{"name":"slashIndex","type":"uint256","internalType":"uint256"}],"stateMutability":"nonpayable"},{"type":"function","name":"requestSlashHints","inputs":[{"name":"slasher","type":"address","internalType":"address"},{"name":"msgSender","type":"address","internalType":"address"},{"name":"subnetwork","type":"bytes32","internalType":"bytes32"},{"name":"operator","type":"address","internalType":"address"},{"name":"amount","type":"uint256","internalType":"uint256"},{"name":"captureTimestamp","type":"uint48","internalType":"uint48"}],"outputs":[{"name":"","type":"bytes","internalType":"bytes"}],"stateMutability":"view"},{"type":"function","name":"resolver","inputs":[{"name":"subnetwork","type":"bytes32","internalType":"bytes32"},{"name":"hint","type":"bytes","internalType":"bytes"}],"outputs":[{"name":"","type":"address","internalType":"address"}],"stateMutability":"view"},{"type":"function","name":"resolverAt","inputs":[{"name":"subnetwork","type":"bytes32","internalType":"bytes32"},{"name":"timestamp","type":"uint48","internalType":"uint48"},{"name":"hint","type":"bytes","internalType":"bytes"}],"outputs":[{"name":"","type":"address","internalType":"address"}],"stateMutability":"view"},{"type":"function","name":"resolverHint","inputs":[{"name":"slasher","type":"address","internalType":"address"},{"name":"subnetwork","type":"bytes32","internalType":"bytes32"},{"name":"timestamp","type":"uint48","internalType":"uint48"}],"outputs":[{"name":"","type":"bytes","internalType":"bytes"}],"stateMutability":"view"},{"type":"function","name":"resolverHintInternal","inputs":[{"name":"subnetwork","type":"bytes32","internalType":"bytes32"},{"name":"timestamp","type":"uint48","internalType":"uint48"}],"outputs":[{"name":"exists","type":"bool","internalType":"bool"},{"name":"hint","type":"uint32","internalType":"uint32"}],"stateMutability":"view"},{"type":"function","name":"resolverSetEpochsDelay","inputs":[],"outputs":[{"name":"","type":"uint256","internalType":"uint256"}],"stateMutability":"view"},{"type":"function","name":"setResolver","inputs":[{"name":"identifier","type":"uint96","internalType":"uint96"},{"name":"resolver_","type":"address","internalType":"address"},{"name":"hints","type":"bytes","internalType":"bytes"}],"outputs":[],"stateMutability":"nonpayable"},{"type":"function","name":"setResolverHints","inputs":[{"name":"slasher","type":"address","internalType":"address"},{"name":"subnetwork","type":"bytes32","internalType":"bytes32"},{"name":"timestamp","type":"uint48","internalType":"uint48"}],"outputs":[{"name":"","type":"bytes","internalType":"bytes"}],"stateMutability":"view"},{"type":"function","name":"slashRequests","inputs":[{"name":"","type":"uint256","internalType":"uint256"}],"outputs":[{"name":"subnetwork","type":"bytes32","internalType":"bytes32"},{"name":"operator","type":"address","internalType":"address"},{"name":"amount","type":"uint256","internalType":"uint256"},{"name":"captureTimestamp","type":"uint48","internalType":"uint48"},{"name":"vetoDeadline","type":"uint48","internalType":"uint48"},{"name":"completed","type":"bool","internalType":"bool"}],"stateMutability":"view"},{"type":"function","name":"slashRequestsLength","inputs":[],"outputs":[{"name":"","type":"uint256","internalType":"uint256"}],"stateMutability":"view"},{"type":"function","name":"slashableStake","inputs":[{"name":"subnetwork","type":"bytes32","internalType":"bytes32"},{"name":"operator","type":"address","internalType":"address"},{"name":"captureTimestamp","type":"uint48","internalType":"uint48"},{"name":"hints","type":"bytes","internalType":"bytes"}],"outputs":[{"name":"amount","type":"uint256","internalType":"uint256"}],"stateMutability":"view"},{"type":"function","name":"staticDelegateCall","inputs":[{"name":"target","type":"address","internalType":"address"},{"name":"data","type":"bytes","internalType":"bytes"}],"outputs":[],"stateMutability":"nonpayable"},{"type":"function","name":"vault","inputs":[],"outputs":[{"name":"","type":"address","internalType":"address"}],"stateMutability":"view"},{"type":"function","name":"vetoDuration","inputs":[],"outputs":[{"name":"","type":"uint48","internalType":"uint48"}],"stateMutability":"view"},{"type":"function","name":"vetoSlash","inputs":[{"name":"slashIndex","type":"uint256","internalType":"uint256"},{"name":"hints","type":"bytes","internalType":"bytes"}],"outputs":[],"stateMutability":"nonpayable"},{"type":"function","name":"vetoSlashHints","inputs":[{"name":"slasher","type":"address","internalType":"address"},{"name":"subnetwork","type":"bytes32","internalType":"bytes32"},{"name":"captureTimestamp","type":"uint48","internalType":"uint48"}],"outputs":[{"name":"","type":"bytes","internalType":"bytes"}],"stateMutability":"view"},{"type":"event","name":"ExecuteSlash","inputs":[{"name":"slashIndex","type":"uint256","indexed":true,"internalType":"uint256"},{"name":"slashedAmount","type":"uint256","indexed":false,"internalType":"uint256"}],"anonymous":false},{"type":"event","name":"Initialized","inputs":[{"name":"version","type":"uint64","indexed":false,"internalType":"uint64"}],"anonymous":false},{"type":"event","name":"RequestSlash","inputs":[{"name":"slashIndex","type":"uint256","indexed":true,"internalType":"uint256"},{"name":"subnetwork","type":"bytes32","indexed":true,"internalType":"bytes32"},{"name":"operator","type":"address","indexed":true,"internalType":"address"},{"name":"slashAmount","type":"uint256","indexed":false,"internalType":"uint256"},{"name":"captureTimestamp","type":"uint48","indexed":false,"internalType":"uint48"},{"name":"vetoDeadline","type":"uint48","indexed":false,"internalType":"uint48"}],"anonymous":false},{"type":"event","name":"SetResolver","inputs":[{"name":"subnetwork","type":"bytes32","indexed":true,"internalType":"bytes32"},{"name":"resolver","type":"address","indexed":false,"internalType":"address"}],"anonymous":false},{"type":"event","name":"VetoSlash","inputs":[{"name":"slashIndex","type":"uint256","indexed":true,"internalType":"uint256"},{"name":"resolver","type":"address","indexed":true,"internalType":"address"}],"anonymous":false},{"type":"error","name":"AlreadySet","inputs":[]},{"type":"error","name":"CheckpointUnorderedInsertion","inputs":[]},{"type":"error","name":"ExternalCall","inputs":[]},{"type":"error","name":"InsufficientBurnerGas","inputs":[]},{"type":"error","name":"InsufficientSlash","inputs":[]},{"type":"error","name":"InvalidCaptureTimestamp","inputs":[]},{"type":"error","name":"InvalidInitialization","inputs":[]},{"type":"error","name":"InvalidResolverSetEpochsDelay","inputs":[]},{"type":"error","name":"InvalidVetoDuration","inputs":[]},{"type":"error","name":"NoBurner","inputs":[]},{"type":"error","name":"NoResolver","inputs":[]},{"type":"error","name":"NotInitialized","inputs":[]},{"type":"error","name":"NotInitializing","inputs":[]},{"type":"error","name":"NotNetwork","inputs":[]},{"type":"error","name":"NotNetworkMiddleware","inputs":[]},{"type":"error","name":"NotResolver","inputs":[]},{"type":"error","name":"NotVault","inputs":[]},{"type":"error","name":"ReentrancyGuardReentrantCall","inputs":[]},{"type":"error","name":"SafeCastOverflowedUintDowncast","inputs":[{"name":"bits","type":"uint8","internalType":"uint8"},{"name":"value","type":"uint256","internalType":"uint256"}]},{"type":"error","name":"SlashPeriodEnded","inputs":[]},{"type":"error","name":"SlashRequestCompleted","inputs":[]},{"type":"error","name":"SlashRequestNotExist","inputs":[]},{"type":"error","name":"VetoPeriodEnded","inputs":[]},{"type":"error","name":"VetoPeriodNotEnded","inputs":[]}],"bytecode":{"object":"0x6101603461017c576001600160401b0390601f61377c38819003918201601f1916830191848311848410176101805780849260209460405283398101031261017c5751906001600160a01b038216820361017c57306080527ff0c57e16840df040f15088dc2f81fe391c3923bec73e23a9662efc9c229c6a009081549060ff8260401c1661016a578080831603610125575b835f60a0525f60c0525f60e052610100905f8252610120905f8252610140908152604051916135e79384610195853960805184610b66015260a0518461047b015260c0518481816115860152612c5a015260e0518481816102e801526122ba0152518381816104370152612444015251828181610c7801526115dc015251818181610806015281816119140152611d090152f35b6001600160401b031990911681179091556040519081527fc7f505b2f371ae2175ee4913f4499e1f2633a7b5936321eed1cdaeb6115181d290602090a15f8080610091565b60405163f92ee8a960e01b8152600490fd5b5f80fd5b634e487b7160e01b5f52604160045260245ffdfe60806040526004361015610011575f80fd5b5f3560e01c80622a087514610213578063103f29071461020e5780631a2be2c4146102095780631dd5f60014610204578063267de1f3146101ff5780632964f8dc146101fa5780632c9d45b3146101f55780632dd31000146101f057806331ce4dfe146101eb57806334d098ea146101e6578063439fab91146101e1578063457821b7146101dc5780635264679b146101d7578063545ce389146101d257806369f78920146101cd5780638f42f9ab146101c85780638f82f931146101c35780639168f9d2146101be5780639a896551146101b95780639f86fd85146101b4578063a4ef9b4f146101af578063aa8e6489146101aa578063aab3595f146101a5578063b94c386e146101a0578063bb24fe8a1461019b578063bc6eac5b14610196578063c0cd7c3e14610191578063cd05b8a11461018c578063d5c24e1a14610187578063e054e08b14610182578063f9268d181461017d5763fbfa77cf14610178575f80fd5b611813565b6116a5565b611680565b611663565b61160b565b6115c7565b6115aa565b611567565b61121b565b6111c3565b611185565b611122565b61108e565b611003565b610bd8565b610b47565b610b2a565b610ae5565b61084f565b610835565b6107f1565b6106b9565b610668565b6105ff565b610466565b610422565b610406565b6103b1565b610397565b610317565b6102d3565b610261565b6001600160a01b0381160361022957565b5f80fd5b65ffffffffffff81160361022957565b805180835260209291819084018484015e5f828201840152601f01601f1916010190565b346102295760c0366003190112610229576102c56102b160043561028481610218565b61028f602435610218565b60643561029b81610218565b60a435916102a88361022d565b604435906118c9565b60405191829160208352602083019061023d565b0390f35b5f91031261022957565b34610229575f366003190112610229576040517f00000000000000000000000000000000000000000000000000000000000000006001600160a01b03168152602090f35b3461022957604036600319011261022957602061036361035e60243561033c81610218565b6004355f526002845260405f209060018060a01b03165f5260205260405f2090565b6120d2565b604051908152f35b60609060031901126102295760043561038381610218565b90602435906044356103948161022d565b90565b34610229576102c56102b16103ab3661036b565b916119a0565b3461022957604036600319011261022957602065ffffffffffff6103fc6024356103da81610218565b6004355f526001845260405f209060018060a01b03165f5260205260405f2090565b5416604051908152f35b34610229575f366003190112610229576020604051614e208152f35b34610229575f366003190112610229576040517f00000000000000000000000000000000000000000000000000000000000000006001600160a01b03168152602090f35b34610229575f366003190112610229576040517f00000000000000000000000000000000000000000000000000000000000000006001600160a01b03168152602090f35b634e487b7160e01b5f52604160045260245ffd5b602081019081106001600160401b038211176104d957604052565b6104aa565b604081019081106001600160401b038211176104d957604052565b606081019081106001600160401b038211176104d957604052565b6001600160401b0381116104d957604052565b608081019081106001600160401b038211176104d957604052565b90601f801991011681019081106001600160401b038211176104d957604052565b6040519060c082018281106001600160401b038211176104d957604052565b6040519061058f826104f9565b565b6040519061058f826104de565b6001600160401b0381116104d957601f01601f191660200190565b81601f82011215610229578035906105d08261059e565b926105de6040519485610542565b8284526020838301011161022957815f926020809301838601378301015290565b346102295760603660031901126102295760243561061c8161022d565b604435906001600160401b0382116102295761065f61064160209336906004016105b9565b6004355f90815260068552604090206001600160a01b03939061214a565b16604051908152f35b34610229575f36600319011261022957602060ff5f5460a01c166040519015158152f35b9181601f84011215610229578235916001600160401b038311610229576020838186019501011161022957565b34610229576020366003190112610229576001600160401b03600435818111610229576106ea90369060040161068c565b5f80516020613592833981519152549260ff8460401c16159316801590816107e9575b60011490816107df575b1590816107d6575b506107c4575f80516020613592833981519152805467ffffffffffffffff1916600117905561075291836107a057612283565b61075857005b5f80516020613592833981519152805460ff60401b19169055604051600181527fc7f505b2f371ae2175ee4913f4499e1f2633a7b5936321eed1cdaeb6115181d290602090a1005b5f80516020613592833981519152805460ff60401b1916600160401b179055612283565b60405163f92ee8a960e01b8152600490fd5b9050155f61071f565b303b159150610717565b84915061070d565b34610229575f366003190112610229576040517f00000000000000000000000000000000000000000000000000000000000000006001600160a01b03168152602090f35b34610229576102c56102b16108493661036b565b91611a24565b346102295760a0366003190112610229576004602435813561087082610218565b6064359161087d8361022d565b6084356001600160401b0381116102295761089b903690860161068c565b93906108a56123ed565b6108ae8461241c565b6108b6611ab6565b9480610acf575b50506108c8426125ff565b6108e26108db875465ffffffffffff1690565b8092611b17565b5f54909590610907906108fb906001600160a01b031681565b6001600160a01b031690565b958760206040988951928380926327f843b560e11b82525afa8015610aca576109469261093b925f92610a99575b50611a0c565b65ffffffffffff1690565b65ffffffffffff8416908110908115610a83575b50610a735761096f61097891518486886127da565b506044356124b3565b958615610a65576102c5610a3e878988887f3cb7f4ff6cecf74cee0eb9ae3ebf8933fa60a53014cce52f96da72a78dba8464896109bd8a6109b8426125ff565b611b17565b92600354978894610a0e6109cf610563565b8881526001600160a01b0385166020820152808b018a905265ffffffffffff8616606082015265ffffffffffff831660808201525f60a0820152611b59565b885197885265ffffffffffff938416602089015290921660408701526001600160a01b0316949081906060820190565b0390a4610a5760015f8051602061357283398151915255565b519081529081906020820190565b855163167f871760e31b8152fd5b8551631357ac9160e11b81528790fd5b9050610a9161093b426125ff565b11155f61095a565b610abc91925060203d602011610ac3575b610ab48183610542565b810190611b31565b905f610935565b503d610aaa565b6118a5565b610add929550810190611ac9565b925f806108bd565b34610229576080366003190112610229576102c56102b1600435610b0881610218565b604435610b1481610218565b60643591610b218361022d565b60243590611c8f565b34610229575f366003190112610229576020600354604051908152f35b3461022957604036600319011261022957602435610b648161022d565b7f00000000000000000000000000000000000000000000000000000000000000006001600160a01b03163303610bc65763ffffffff610bb16040926004355f526006602052835f206124e9565b91505083929192519215158352166020820152f35b604051637ca475e560e11b8152600490fd5b346102295760603660031901126102295760048035906bffffffffffffffffffffffff8216820361022957602435610c0f81610218565b6044356001600160401b03811161022957610c2d903690840161068c565b90610c366123ed565b610c3e611ab6565b5081610f9e575b5050604080516302910f8b60e31b8152338185019081526001600160a01b0395929491602091829082908190830103818a7f0000000000000000000000000000000000000000000000000000000000000000165afa908115610aca575f91610f71575b5015610f62575f54610ce3906001600160a01b0316936bffffffffffffffffffffffff166bffffffffffffffffffffffff193360601b161790565b95610cfe610cf9885f52600660205260405f2090565b61323a565b50949015610ef857610d1261093b426125ff565b65ffffffffffff9586161115610ec257610d3c610d37895f52600660205260405f2090565b6125c0565b505b610d616108fb6108fb6108fb610d5c8c5f52600660205260405f2090565b612e78565b91808716928303610dcd575b505050505050610db2907f7b0b759b513b299fd2811f51926dca8854222a675557e8d544ce0933bf5b7570925b516001600160a01b0390911681529081906020820190565b0390a2610dcb60015f8051602061357283398151915255565b005b610de48998959796985f52600660205260405f2090565b911692845163186a323160e21b815281818981885afa908115610aca575f91610ea5575b5081600554958751998a80926327f843b560e11b82525afa908115610aca5789610e6d610e7f977f7b0b759b513b299fd2811f51926dca8854222a675557e8d544ce0933bf5b75709c610e7495610db29d610e79985f92610e88575b50501690611dde565b9116611dff565b6125ff565b90613447565b82958495610d6d565b610e9e9250803d10610ac357610ab48183610542565b5f80610e64565b610ebc9150823d8411610ac357610ab48183610542565b5f610e08565b610ee06108fb6108fb6108fb610d5c8c5f52600660205260405f2090565b82871603610d3e57865163a741a04560e01b81528490fd5b5093949385169250508115610f54575091610db291610f4d7f7b0b759b513b299fd2811f51926dca8854222a675557e8d544ce0933bf5b757094610f44875f52600660205260405f2090565b610e79426125ff565b5050610d9a565b825163a741a04560e01b8152fd5b5083516323d53b9760e21b8152fd5b610f919150823d8411610f97575b610f898183610542565b810190611dca565b5f610ca8565b503d610f7f565b610faa91810190611ac9565b505f80610c45565b634e487b7160e01b5f52603260045260245ffd5b600354811015610ffe5760035f5260021b7fc2575a0e9e593c00f959f8c92f12db2869c3395a3b0502d05e2516446f71f85b01905f90565b610fb2565b34610229576020366003190112610229576004356003548110156102295761102a90610fc6565b50805460018201546002830154600390930154604080519384526001600160a01b0390921660208401529082019290925265ffffffffffff808316606080840191909152603084901c90911660808301529190911c60ff16151560a082015260c090f35b34610229576040366003190112610229576004356110ab81610218565b6024356001600160401b038111610229575f916110cd8392369060040161068c565b90816040519283928337810184815203915af461111a6110eb611e0c565b9161110c60405193849215156020840152604080840152606083019061023d565b03601f198101835282610542565b805190602001fd5b34610229576102c56102b16111363661036b565b91611e6d565b906080600319830112610229576004359160243561115981610218565b916044356111668161022d565b91606435906001600160401b03821161022957610394916004016105b9565b346102295760206103636111be61119b3661113c565b939190925f526002865260405f209060018060a01b03165f5260205260405f2090565b612665565b346102295760206111df6111d63661113c565b929190916127da565b50604051908152f35b9060406003198301126102295760043591602435906001600160401b038211610229576112179160040161068c565b9091565b3461022957611229366111e8565b91906112336123ed565b61123b611f92565b9280611551575b505060035481101561153f5761125781610fc6565b50908154906112658261241c565b6003830180549365ffffffffffff9384861660018060a01b0361128a895183856119b7565b16151580611514575b806114fb575b6114e9576112af816112aa426125ff565b611a0c565b5f546112c5906108fb906001600160a01b031681565b96600460206040998a51928380926327f843b560e11b82525afa8015610aca5782915f916114ca575b50169116116114b957600183018054909861131993929188906001600160a01b0316910151926127da565b906113288160028501546124b3565b9687156114a85760601c60ff166114975792611450611443899461141b6114088b9687876102c59f6114168f9d8f9e6114569f61137286600160601b60ff60601b19825416179055565b8a54855461139491906001600160a01b0316885465ffffffffffff1691612a0a565b8a5485546113ad9189916001600160a01b031690612a8a565b8a5494546113cb906001600160a01b0316965465ffffffffffff1690565b976113d4610582565b9384526020840152818301525196879160208301919091604080606083019480518452602081015160208501520151910152565b03601f198101875286610542565b612bf6565b61143461142e855465ffffffffffff1690565b86612cff565b5494546001600160a01b031690565b915465ffffffffffff1690565b92612d7c565b81518381527f5cc28df3b54da9d06f805d87616ebf969c81310f2aa8369cb14ca50f815d411190602090a2610a5760015f8051602061357283398151915255565b8551633428e90760e01b8152600490fd5b865163167f871760e31b8152600490fd5b8551639ea153eb60e01b8152600490fd5b6114e3915060203d602011610ac357610ab48183610542565b5f6112ee565b60405163b62b15c760e01b8152600490fd5b5061150861093b426125ff565b868860301c1611611299565b506115386108fb61152c611527426125ff565b6119f0565b60208b015190856119b7565b1515611293565b604051637822972360e11b8152600490fd5b61155f929350810190611fb1565b905f80611242565b34610229575f3660031901126102295760206040516001600160401b037f0000000000000000000000000000000000000000000000000000000000000000168152f35b34610229575f366003190112610229576020600554604051908152f35b34610229575f366003190112610229576040517f00000000000000000000000000000000000000000000000000000000000000006001600160a01b03168152602090f35b34610229576040366003190112610229576024356001600160401b0381116102295761165161164060209236906004016105b9565b611649426125ff565b6004356119b7565b6040516001600160a01b039091168152f35b34610229575f366003190112610229576020604051620249f08152f35b34610229575f36600319011261022957602065ffffffffffff60045416604051908152f35b34610229576116b3366111e8565b906116bc6123ed565b6116c4612039565b91806117ff575b505060035482101561153f576116e082610fc6565b506003815491019182549165ffffffffffff9160018060a01b036117088251858716856119b7565b169182159182156117d6575b50506117c45733036117b25761172c61093b426125ff565b908260301c1611156117a15760601c60ff1661178f57805460ff60601b1916600160601b17905533907f7d3d269c851b72257a5194a401d151902e9be4347d555996dcff3ff86a077e925f80a3610dcb60015f8051602061357283398151915255565b604051633428e90760e01b8152600490fd5b60405162c457e560e81b8152600490fd5b604051635d154fe160e11b8152600490fd5b60405163dd1ebd9d60e01b8152600490fd5b6117f79250906108fb9160206117ee611527426125ff565b910151916119b7565b155f80611714565b61180c9250810190612052565b5f806116cb565b34610229575f366003190112610229575f546040516001600160a01b039091168152602090f35b81601f82011215610229578051906118518261059e565b9261185f6040519485610542565b8284526020838301011161022957815f9260208093018386015e8301015290565b906020828203126102295781516001600160401b03811161022957610394920161183a565b6040513d5f823e3d90fd5b604061039492602083525191602080820152019061023d565b604051632751749360e11b81526001600160a01b0391821660048201526024810192909252909116604482015265ffffffffffff9091166064820152606091905f81806084810103817f00000000000000000000000000000000000000000000000000000000000000006001600160a01b03165afa908115610aca575f9161197e575b5080516119565750565b61110c919250610394906040519061196d826104be565b8152604051928391602083016118b0565b61199a91503d805f833e6119928183610542565b810190611880565b5f61194c565b92916119ae91606094611e6d565b80516119565750565b5f9081526006602052604090206001600160a01b03926119d892909161214a565b1690565b634e487b7160e01b5f52601160045260245ffd5b65ffffffffffff9081165f190191908211611a0757565b6119dc565b65ffffffffffff9182169082160391908211611a0757565b611a4590939293611a386060958483611e6d565b92611136611527426125ff565b815115801590611aac575b611a58575050565b611a999293509061110c6103949260405192611a73846104de565b83526020830190815260405194859360208086015251604080860152608085019061023d565b9051838203603f1901606085015261023d565b5080511515611a50565b60405190611ac3826104be565b60608252565b906020828203126102295781356001600160401b03928382116102295701906020828203126102295760405192611aff846104be565b823590811161022957611b1292016105b9565b815290565b91909165ffffffffffff80809416911601918211611a0757565b9081602091031261022957516103948161022d565b634e487b7160e01b5f525f60045260245ffd5b600354600160401b8110156104d957806001611b789201600355610fc6565b919091611c3b578051825560208101516001830180546001600160a01b0319166001600160a01b039290921691909117905561058f91611c219060a090600390604085015160028201550192611bee65ffffffffffff606083015116859065ffffffffffff1665ffffffffffff19825416179055565b60808101516bffffffffffff00000000000085549160301b16906bffffffffffff00000000000019161784550151151590565b815460ff60601b191690151560601b60ff60601b16179055565b611b46565b906103949160208152611c5f825160606020840152608083019061023d565b9060606040611c7f602086015194601f199586868303018487015261023d565b940151928285030191015261023d565b919093925f606095611ca2838287611e6d565b94611d05611cbc611cb5611527426125ff565b8484611e6d565b604051632751749360e11b81526001600160a01b039384166004820152602481019490945291909516604483015265ffffffffffff909316606482015292839081906084820190565b03817f00000000000000000000000000000000000000000000000000000000000000006001600160a01b03165afa918215610aca575f92611da1575b50825115801590611d97575b8015611d8d575b611d5d57505050565b61110c939450906103949291611d71610582565b9283526020830152604082015260405192839160208301611c40565b5081511515611d54565b5080511515611d4d565b611db69192503d805f833e6119928183610542565b905f611d41565b5190811515820361022957565b908160209103126102295761039490611dbd565b81810292918115918404141715611a0757565b9060018201809211611a0757565b91908201809211611a0757565b3d15611e36573d90611e1d8261059e565b91611e2b6040519384610542565b82523d5f602084013e565b606090565b519063ffffffff8216820361022957565b9190826040910312610229576103946020611e6684611dbd565b9301611e3b565b92915f8060609565ffffffffffff60405194602096638f82f93160e01b88880152602487015216604485015260448452611ea684610527565b6040519384611ed387820192639f86fd8560e01b845230602484015260406044840152606483019061023d565b0394611ee7601f1996878101835282610542565b51915afa50611f05611ef7611e0c565b838082518301019101612631565b9015611f5857808380611f1d93518301019101611e4c565b9290611f2857505050565b61039492939450611f4c604051948592830191909163ffffffff6020820193169052565b03908101835282610542565b809150519182156102295701fd5b5f9081526002602090815260408083206001600160a01b03909416835292905220610394929190612665565b60405190611f9f826104f9565b60606040838281528260208201520152565b906020828203126102295781356001600160401b03928382116102295701906060828203126102295760405192611fe7846104f9565b82358181116102295782611ffc9185016105b9565b8452602083013581811161022957826120169185016105b9565b602085015260408301359081116102295761203192016105b9565b604082015290565b60405190612046826104de565b60606020838281520152565b906020828203126102295781356001600160401b03928382116102295701906040828203126102295760405192612088846104de565b8235818111610229578261209d9185016105b9565b84526020830135908111610229576120b592016105b9565b602082015290565b8054821015610ffe575f5260205f2001905f90565b6120db81612e78565b6001600160d01b038116156121005760016120f692016120bd565b90549060031b1c90565b50505f90565b908160209103126102295761039490611e3b565b5f19810191908211611a0757565b91908203918211611a0757565b90600163ffffffff80931601918211611a0757565b9180511561222e578060208061216593518301019101612106565b916121708382612eb8565b92612181845165ffffffffffff1690565b9065ffffffffffff808516921682811461221557821191826121c0575b50506121ae576103949250613346565b5050602001516001600160d01b031690565b9091506121cd835461211a565b63ffffffff8316149182156121e6575b50505f8061219e565b61220d9192506122016121fb61093b92612135565b85612eb8565b5165ffffffffffff1690565b115f806121dd565b50505050602091909101516001600160d01b0316905090565b5061039491613346565b91909160408184031261022957803561225081610218565b9260208201356001600160401b0381116102295761039492016105b9565b90816020910312610229575161039481610218565b61228f91810190612238565b6040516302910f8b60e31b81526001600160a01b0392831660048201819052929160209182816024817f000000000000000000000000000000000000000000000000000000000000000088165afa908115610aca575f916123d0575b50156123be5781612320600492612300612f0c565b5f80546001600160a01b0319166001600160a01b03891617905586612f99565b94604051928380926313c085b760e11b82525afa918215610aca575f92612391575b5050161580612387575b612375575161058f9015155f805460ff60a01b191691151560a01b60ff60a01b16919091179055565b60405163d2420f5960e01b8152600490fd5b508051151561234c565b6123b09250803d106123b7575b6123a88183610542565b81019061226e565b5f80612342565b503d61239e565b6040516362df054560e01b8152600490fd5b6123e79150833d8511610f9757610f898183610542565b5f6122eb565b5f80516020613572833981519152600281541461240a5760029055565b604051633ee5aeb560e01b8152600490fd5b604051635daf681960e11b815260609190911c60048201526001600160a01b036020826024817f000000000000000000000000000000000000000000000000000000000000000085165afa918215610aca575f92612492575b503391160361248057565b60405163227bf64d60e01b8152600490fd5b6124ac91925060203d6020116123b7576123a88183610542565b905f612475565b90808210156124c0575090565b905090565b906040516124d2816104de565b915465ffffffffffff8116835260301c6020830152565b908154905f829160058411612572575b6125049350846131d8565b90811561256657612525906125188361211a565b905f5260205f20016124c5565b9161255f6125566125506020612541875165ffffffffffff1690565b9601516001600160d01b031690565b9361211a565b63ffffffff1690565b6001939291565b50505f905f905f905f90565b919261257d8161309a565b8103908111611a075761250493855f5265ffffffffffff808360205f20015416908516105f146125ae5750916124f9565b9291506125ba90611df1565b906124f9565b906125ca82612e78565b91805480156125eb575f1901906125e182826120bd565b611c3b575f905555565b634e487b7160e01b5f52603160045260245ffd5b65ffffffffffff90818111612612571690565b604490604051906306dfcc6560e41b8252603060048301526024820152fd5b9190916040818403126102295761264781611dbd565b9260208201516001600160401b03811161022957610394920161183a565b91805115612727578060208061268093518301019101612106565b9161268b8382613294565b9261269c845165ffffffffffff1690565b9065ffffffffffff808516921682811461271b57821191826126d2575b50506126c9576103949250613289565b50506020015190565b9091506126df835461211a565b63ffffffff8316149182156126f8575b50505f806126b9565b61271391925061220161270d61093b92612135565b85613294565b115f806126ef565b50505050506020015190565b5061039491613289565b906020828203126102295781516001600160401b03928382116102295701906040828203126102295760405192612767846104de565b8251818111610229578261277c91850161183a565b84526020830151908111610229576120b5920161183a565b90816020910312610229575190565b9081526001600160a01b03909116602082015265ffffffffffff90911660408201526080606082018190526103949291019061023d565b926127e3612039565b908051806129f0575b50506127f7426125ff565b5f54909490612810906108fb906001600160a01b031681565b93604051956327f843b560e11b875260209687816004818a5afa8015610aca576128449261093b925f926129d85750611a0c565b65ffffffffffff82169081109081156129c1575b8115612990575b50612984578560049560405196878092630ce9b79360e41b82525afa948515610aca576128b19587915f91612967575b50845190604051808099819463e02f693760e01b8352878b8a600486016127a3565b03916001600160a01b03165afa938415610aca57612923955f95612926575b5092612918859361291e9361291896869a61290f61035e836128fa875f52600260205260405f2090565b9060018060a01b03165f5260205260405f2090565b95015192611f66565b90612128565b6124b3565b91565b61291e929550612918949193612954612918928a3d8c11612960575b61294c8183610542565b810190612794565b969350939194506128d0565b503d612942565b61297e9150823d84116123b7576123a88183610542565b5f61288f565b5050505050505f905f90565b90506129ba61093b6129ae876128fa875f52600160205260405f2090565b5465ffffffffffff1690565b115f61285f565b90506129cf61093b426125ff565b81101590612858565b610abc9192508a3d8c11610ac357610ab48183610542565b612a039250602080918301019101612731565b5f806127ec565b919091805f52600160205265ffffffffffff80612a3a8560405f209060018060a01b03165f5260205260405f2090565b541690831611612a4957505050565b61058f92612a71915f52600160205260405f209060018060a01b03165f5260205260405f2090565b9065ffffffffffff1665ffffffffffff19825416179055565b9190825f526002602052612ae261035e612ab78360405f209060018060a01b03165f5260205260405f2090565b92612ac1426125ff565b955f52600260205260405f209060018060a01b03165f5260205260405f2090565b918201809211611a07576001810190815415612b86575b612b028161323a565b509490835495612b11846120d2565b5081612b71575b5015612b505750505f198301928311611a075761058f92612b38916120bd565b90919082549060031b91821b915f19901b1916179055565b61058f94612b6a926001600160d01b039091169190613447565b5050613323565b65ffffffffffff83811691161490505f612b18565b612b8f826132f6565b612af9565b60606020610394938184526001600160401b0381511682850152015191604080820152019061023d565b919360a093610394969565ffffffffffff938552600180871b031660208501526040840152166060820152816080820152019061023d565b92939060046020612c136108fb6108fb5f5460018060a01b031690565b604051630ce9b79360e41b815292839182905afa908115610aca5761110c91612c91915f91612ce0575b506001600160a01b031693612c50610591565b6001600160401b037f000000000000000000000000000000000000000000000000000000000000000016815290602082015260405192839160208301612b94565b823b15610229575f94612cbc86926040519889978896879563724ab0f760e11b875260048701612bbe565b03925af18015610aca57612ccd5750565b80612cda61058f92610514565b806102c9565b612cf9915060203d6020116123b7576123a88183610542565b5f612c3d565b65ffffffffffff9160446020925f60018060a01b038154166040519687958694631c9e38c760e21b865260048601521660248401525af18015610aca57612d435750565b612d5b9060203d6020116129605761294c8183610542565b50565b8115612d68570490565b634e487b7160e01b5f52601260045260245ffd5b92905f549060ff8260a01c16612d94575b5050505050565b6040516313c085b760e11b815291602090839060049082906001600160a01b03165afa918215610aca575f92612e51575b5060405163065c1e0360e01b6020820190815260248201969096526001600160a01b039091166044820152606481019390935265ffffffffffff9091166084830152612e1e8260a481015b03601f198101845283610542565b6202a15c5a10612e3f575f928380935192620249f0f1505f80808080612d8d565b604051632153f33560e21b8152600490fd5b612e1e9250612e71612e109160203d6020116123b7576123a88183610542565b9250612dc5565b805480612e855750505f90565b5f19918183810111611a07575f5260205f2001015460301c90565b60405190612ead826104de565b5f6020838281520152565b612edd91612ed791612ec8612ea0565b50612ed1612ea0565b506120bd565b506124c5565b65ffffffffffff81511690602060018060d01b039101511660405191612f02836104de565b8252602082015290565b612f146133d2565b612f1c6133d2565b60015f8051602061357283398151915255565b60405190612f3c826104be565b5f8252565b809103906060821261022957602060405192612f5c846104f9565b12610229576040908151612f6f816104be565b612f7882611dbd565b815283526020810151612f8a8161022d565b60208401520151604082015290565b90600490612fa5612f2f565b508051612fbc602092838080948301019101612f41565b6040516327f843b560e11b815290949093849182906001600160a01b03165afa918215610aca575f9261307b575b50820190612ffe825165ffffffffffff1690565b65ffffffffffff91821691161015613069576040820160038151106130575761304d613033613053935165ffffffffffff1690565b65ffffffffffff1665ffffffffffff196004541617600455565b51600555565b5190565b6040516354f778f360e01b8152600490fd5b6040516367d5e3df60e11b8152600490fd5b816130939293503d8411610ac357610ab48183610542565b905f612fea565b80156131d3578061316c61316561315b61315161314761313d61313361312960016103949a5f908b60801c806131c7575b508060401c806131ba575b508060201c806131ad575b508060101c806131a0575b508060081c80613193575b508060041c80613186575b508060021c80613179575b50821c613172575b811c1b613122818b612d5e565b0160011c90565b613122818a612d5e565b6131228189612d5e565b6131228188612d5e565b6131228187612d5e565b6131228186612d5e565b6131228185612d5e565b8092612d5e565b906124b3565b8101613115565b600291509101905f61310d565b600491509101905f613102565b600891509101905f6130f7565b601091509101905f6130ec565b602091509101905f6130e1565b604091509101905f6130d6565b9150506080905f6130cb565b505f90565b91905b8382106131e85750505090565b909192808316906001818518811c8301809311611a0757855f5265ffffffffffff808460205f20015416908516105f14613227575050925b91906131db565b909493508101809111611a075791613220565b80548061324b5750505f905f905f90565b5f19908082810111611a0757613268925f5260205f2001016124c5565b9065ffffffffffff82511691602060018060d01b0391015116906001929190565b906120db9082613346565b906132b7612ed76132d8926132a7612ea0565b506132b0612ea0565b50846120bd565b91600165ffffffffffff845116936020828060d01b039101511691016120bd565b905490604051926132e8846104de565b835260031b1c602082015290565b8054600160401b8110156104d957613313916001820181556120bd565b8154905f199060031b1b19169055565b90815491600160401b8310156104d95782612b3891600161058f950181556120bd565b908154905f829160058411613384575b6133619350846131d8565b8061336c5750505f90565b6133759061211a565b905f5260205f20015460301c90565b919261338f8161309a565b8103908111611a075761336193855f5265ffffffffffff808360205f20015416908516105f146133c0575091613356565b9291506133cc90611df1565b90613356565b60ff5f805160206135928339815191525460401c16156133ee57565b604051631afcd79f60e31b8152600490fd5b8054600160401b8110156104d95761341d916001820181556120bd565b611c3b57815160209092015160301b65ffffffffffff191665ffffffffffff909216919091179055565b8054929392919082156135485761347361346e6134638561211a565b835f5260205f200190565b6124c5565b90613484825165ffffffffffff1690565b65ffffffffffff84811691168110613536576134fa9460209488926134b261093b875165ffffffffffff1690565b036134fe57506134ec926134c86134d39261211a565b905f5260205f200190565b9065ffffffffffff82549181199060301b169116179055565b01516001600160d01b031690565b9190565b9150506135319161351e613510610591565b65ffffffffffff9093168352565b6001600160d01b03881682860152613400565b6134ec565b604051632520601d60e01b8152600490fd5b61356c9250613558613510610591565b6001600160d01b0385166020830152613400565b5f919056fe9b779b17422d0df92223018b32b4d1fa46e071723d6817e2486d003becc55f00f0c57e16840df040f15088dc2f81fe391c3923bec73e23a9662efc9c229c6a00a264697066735822122066def236e3cb068f18d202c0ed5927514d7f8f51390f7bbba09b96397dfe793c64736f6c63430008190033","linkReferences":{}},"methodIdentifiers":{"BASE_SLASHER_HINTS()":"457821b7","BURNER_GAS_LIMIT()":"d5c24e1a","BURNER_RESERVE()":"2964f8dc","FACTORY()":"2dd31000","NETWORK_MIDDLEWARE_SERVICE()":"2c9d45b3","NETWORK_REGISTRY()":"c0cd7c3e","TYPE()":"bb24fe8a","VAULT_FACTORY()":"103f2907","cumulativeSlash(bytes32,address)":"1a2be2c4","cumulativeSlashAt(bytes32,address,uint48,bytes)":"aa8e6489","executeSlash(uint256,bytes)":"b94c386e","executeSlashHints(address,bytes32,address,uint48)":"69f78920","initialize(bytes)":"439fab91","isBurnerHook()":"34d098ea","latestSlashedCaptureTimestamp(bytes32,address)":"267de1f3","requestSlash(bytes32,address,uint256,uint48,bytes)":"545ce389","requestSlashHints(address,address,bytes32,address,uint256,uint48)":"002a0875","resolver(bytes32,bytes)":"cd05b8a1","resolverAt(bytes32,uint48,bytes)":"31ce4dfe","resolverHint(address,bytes32,uint48)":"a4ef9b4f","resolverHintInternal(bytes32,uint48)":"8f82f931","resolverSetEpochsDelay()":"bc6eac5b","setResolver(uint96,address,bytes)":"9168f9d2","setResolverHints(address,bytes32,uint48)":"1dd5f600","slashRequests(uint256)":"9a896551","slashRequestsLength()":"8f42f9ab","slashableStake(bytes32,address,uint48,bytes)":"aab3595f","staticDelegateCall(address,bytes)":"9f86fd85","vault()":"fbfa77cf","vetoDuration()":"e054e08b","vetoSlash(uint256,bytes)":"f9268d18","vetoSlashHints(address,bytes32,uint48)":"5264679b"},"id":89}