{"abi":[{"type":"function","name":"counter1","inputs":[],"outputs":[{"name":"","type":"uint256","internalType":"uint256"}],"stateMutability":"view"},{"type":"function","name":"counter2","inputs":[],"outputs":[{"name":"","type":"uint256","internalType":"uint256"}],"stateMutability":"view"},{"type":"function","name":"counter3","inputs":[],"outputs":[{"name":"","type":"uint256","internalType":"uint256"}],"stateMutability":"view"},{"type":"function","name":"onSlash","inputs":[{"name":"subnetwork","type":"bytes32","internalType":"bytes32"},{"name":"","type":"address","internalType":"address"},{"name":"","type":"uint256","internalType":"uint256"},{"name":"","type":"uint48","internalType":"uint48"},{"name":"","type":"bytes","internalType":"bytes"}],"outputs":[],"stateMutability":"nonpayable"}],"bytecode":{"object":"0x6080806040523460155761018a908161001a8239f35b5f80fdfe6080806040526004361015610012575f80fd5b5f3560e01c90816301f7f2991461011957508063a17d256a146100fc578063e49561ee146100695763f722ff7e14610048575f80fd5b34610065575f366003190112610065576020600254604051908152f35b5f80fd5b346100655760a0366003190112610065576024356001600160a01b038116036100655760643565ffffffffffff8116036100655760843567ffffffffffffffff80821161006557366023830112156100655781600401359081116100655736910160240111610065576100dc5f54610132565b5f556100e9600154610132565b6001556100f7600254610132565b600255005b34610065575f366003190112610065576020600154604051908152f35b34610065575f366003190112610065576020905f548152f35b5f1981146101405760010190565b634e487b7160e01b5f52601160045260245ffdfea2646970667358221220d4e989fba0ff735db8670cbe8f8a40bd25b6f2623bf65f289e604b2913c0d48164736f6c63430008190033","linkReferences":{}},"methodIdentifiers":{"counter1()":"01f7f299","counter2()":"a17d256a","counter3()":"f722ff7e","onSlash(bytes32,address,uint256,uint48,bytes)":"e49561ee"},"id":162}