{"abi":[{"type":"constructor","inputs":[{"name":"networkRegistry","type":"address","internalType":"address"},{"name":"vaultFactory","type":"address","internalType":"address"},{"name":"operatorVaultOptInService","type":"address","internalType":"address"},{"name":"operatorNetworkOptInService","type":"address","internalType":"address"},{"name":"delegatorFactory","type":"address","internalType":"address"},{"name":"entityType","type":"uint64","internalType":"uint64"}],"stateMutability":"nonpayable"},{"type":"function","name":"DEFAULT_ADMIN_ROLE","inputs":[],"outputs":[{"name":"","type":"bytes32","internalType":"bytes32"}],"stateMutability":"view"},{"type":"function","name":"FACTORY","inputs":[],"outputs":[{"name":"","type":"address","internalType":"address"}],"stateMutability":"view"},{"type":"function","name":"HOOK_GAS_LIMIT","inputs":[],"outputs":[{"name":"","type":"uint256","internalType":"uint256"}],"stateMutability":"view"},{"type":"function","name":"HOOK_RESERVE","inputs":[],"outputs":[{"name":"","type":"uint256","internalType":"uint256"}],"stateMutability":"view"},{"type":"function","name":"HOOK_SET_ROLE","inputs":[],"outputs":[{"name":"","type":"bytes32","internalType":"bytes32"}],"stateMutability":"view"},{"type":"function","name":"NETWORK_LIMIT_SET_ROLE","inputs":[],"outputs":[{"name":"","type":"bytes32","internalType":"bytes32"}],"stateMutability":"view"},{"type":"function","name":"NETWORK_REGISTRY","inputs":[],"outputs":[{"name":"","type":"address","internalType":"address"}],"stateMutability":"view"},{"type":"function","name":"OPERATOR_NETWORK_OPT_IN_SERVICE","inputs":[],"outputs":[{"name":"","type":"address","internalType":"address"}],"stateMutability":"view"},{"type":"function","name":"OPERATOR_NETWORK_SHARES_SET_ROLE","inputs":[],"outputs":[{"name":"","type":"bytes32","internalType":"bytes32"}],"stateMutability":"view"},{"type":"function","name":"OPERATOR_VAULT_OPT_IN_SERVICE","inputs":[],"outputs":[{"name":"","type":"address","internalType":"address"}],"stateMutability":"view"},{"type":"function","name":"TYPE","inputs":[],"outputs":[{"name":"","type":"uint64","internalType":"uint64"}],"stateMutability":"view"},{"type":"function","name":"VAULT_FACTORY","inputs":[],"outputs":[{"name":"","type":"address","internalType":"address"}],"stateMutability":"view"},{"type":"function","name":"VERSION","inputs":[],"outputs":[{"name":"","type":"uint64","internalType":"uint64"}],"stateMutability":"pure"},{"type":"function","name":"getRoleAdmin","inputs":[{"name":"role","type":"bytes32","internalType":"bytes32"}],"outputs":[{"name":"","type":"bytes32","internalType":"bytes32"}],"stateMutability":"view"},{"type":"function","name":"grantRole","inputs":[{"name":"role","type":"bytes32","internalType":"bytes32"},{"name":"account","type":"address","internalType":"address"}],"outputs":[],"stateMutability":"nonpayable"},{"type":"function","name":"hasRole","inputs":[{"name":"role","type":"bytes32","internalType":"bytes32"},{"name":"account","type":"address","internalType":"address"}],"outputs":[{"name":"","type":"bool","internalType":"bool"}],"stateMutability":"view"},{"type":"function","name":"hook","inputs":[],"outputs":[{"name":"","type":"address","internalType":"address"}],"stateMutability":"view"},{"type":"function","name":"initialize","inputs":[{"name":"data","type":"bytes","internalType":"bytes"}],"outputs":[],"stateMutability":"nonpayable"},{"type":"function","name":"maxNetworkLimit","inputs":[{"name":"subnetwork","type":"bytes32","internalType":"bytes32"}],"outputs":[{"name":"value","type":"uint256","internalType":"uint256"}],"stateMutability":"view"},{"type":"function","name":"networkLimit","inputs":[{"name":"subnetwork","type":"bytes32","internalType":"bytes32"}],"outputs":[{"name":"","type":"uint256","internalType":"uint256"}],"stateMutability":"view"},{"type":"function","name":"networkLimitAt","inputs":[{"name":"subnetwork","type":"bytes32","internalType":"bytes32"},{"name":"timestamp","type":"uint48","internalType":"uint48"},{"name":"hint","type":"bytes","internalType":"bytes"}],"outputs":[{"name":"","type":"uint256","internalType":"uint256"}],"stateMutability":"view"},{"type":"function","name":"onSlash","inputs":[{"name":"subnetwork","type":"bytes32","internalType":"bytes32"},{"name":"operator","type":"address","internalType":"address"},{"name":"amount","type":"uint256","internalType":"uint256"},{"name":"captureTimestamp","type":"uint48","internalType":"uint48"},{"name":"data","type":"bytes","internalType":"bytes"}],"outputs":[],"stateMutability":"nonpayable"},{"type":"function","name":"operatorNetworkShares","inputs":[{"name":"subnetwork","type":"bytes32","internalType":"bytes32"},{"name":"operator","type":"address","internalType":"address"}],"outputs":[{"name":"","type":"uint256","internalType":"uint256"}],"stateMutability":"view"},{"type":"function","name":"operatorNetworkSharesAt","inputs":[{"name":"subnetwork","type":"bytes32","internalType":"bytes32"},{"name":"operator","type":"address","internalType":"address"},{"name":"timestamp","type":"uint48","internalType":"uint48"},{"name":"hint","type":"bytes","internalType":"bytes"}],"outputs":[{"name":"","type":"uint256","internalType":"uint256"}],"stateMutability":"view"},{"type":"function","name":"renounceRole","inputs":[{"name":"role","type":"bytes32","internalType":"bytes32"},{"name":"callerConfirmation","type":"address","internalType":"address"}],"outputs":[],"stateMutability":"nonpayable"},{"type":"function","name":"revokeRole","inputs":[{"name":"role","type":"bytes32","internalType":"bytes32"},{"name":"account","type":"address","internalType":"address"}],"outputs":[],"stateMutability":"nonpayable"},{"type":"function","name":"setHook","inputs":[{"name":"hook_","type":"address","internalType":"address"}],"outputs":[],"stateMutability":"nonpayable"},{"type":"function","name":"setMaxNetworkLimit","inputs":[{"name":"identifier","type":"uint96","internalType":"uint96"},{"name":"amount","type":"uint256","internalType":"uint256"}],"outputs":[],"stateMutability":"nonpayable"},{"type":"function","name":"setNetworkLimit","inputs":[{"name":"subnetwork","type":"bytes32","internalType":"bytes32"},{"name":"amount","type":"uint256","internalType":"uint256"}],"outputs":[],"stateMutability":"nonpayable"},{"type":"function","name":"setOperatorNetworkShares","inputs":[{"name":"subnetwork","type":"bytes32","internalType":"bytes32"},{"name":"operator","type":"address","internalType":"address"},{"name":"shares","type":"uint256","internalType":"uint256"}],"outputs":[],"stateMutability":"nonpayable"},{"type":"function","name":"stake","inputs":[{"name":"subnetwork","type":"bytes32","internalType":"bytes32"},{"name":"operator","type":"address","internalType":"address"}],"outputs":[{"name":"","type":"uint256","internalType":"uint256"}],"stateMutability":"view"},{"type":"function","name":"stakeAt","inputs":[{"name":"subnetwork","type":"bytes32","internalType":"bytes32"},{"name":"operator","type":"address","internalType":"address"},{"name":"timestamp","type":"uint48","internalType":"uint48"},{"name":"hints","type":"bytes","internalType":"bytes"}],"outputs":[{"name":"","type":"uint256","internalType":"uint256"}],"stateMutability":"view"},{"type":"function","name":"staticDelegateCall","inputs":[{"name":"target","type":"address","internalType":"address"},{"name":"data","type":"bytes","internalType":"bytes"}],"outputs":[],"stateMutability":"nonpayable"},{"type":"function","name":"supportsInterface","inputs":[{"name":"interfaceId","type":"bytes4","internalType":"bytes4"}],"outputs":[{"name":"","type":"bool","internalType":"bool"}],"stateMutability":"view"},{"type":"function","name":"totalOperatorNetworkShares","inputs":[{"name":"subnetwork","type":"bytes32","internalType":"bytes32"}],"outputs":[{"name":"","type":"uint256","internalType":"uint256"}],"stateMutability":"view"},{"type":"function","name":"totalOperatorNetworkSharesAt","inputs":[{"name":"subnetwork","type":"bytes32","internalType":"bytes32"},{"name":"timestamp","type":"uint48","internalType":"uint48"},{"name":"hint","type":"bytes","internalType":"bytes"}],"outputs":[{"name":"","type":"uint256","internalType":"uint256"}],"stateMutability":"view"},{"type":"function","name":"vault","inputs":[],"outputs":[{"name":"","type":"address","internalType":"address"}],"stateMutability":"view"},{"type":"event","name":"Initialized","inputs":[{"name":"version","type":"uint64","indexed":false,"internalType":"uint64"}],"anonymous":false},{"type":"event","name":"OnSlash","inputs":[{"name":"subnetwork","type":"bytes32","indexed":true,"internalType":"bytes32"},{"name":"operator","type":"address","indexed":true,"internalType":"address"},{"name":"amount","type":"uint256","indexed":false,"internalType":"uint256"},{"name":"captureTimestamp","type":"uint48","indexed":false,"internalType":"uint48"}],"anonymous":false},{"type":"event","name":"RoleAdminChanged","inputs":[{"name":"role","type":"bytes32","indexed":true,"internalType":"bytes32"},{"name":"previousAdminRole","type":"bytes32","indexed":true,"internalType":"bytes32"},{"name":"newAdminRole","type":"bytes32","indexed":true,"internalType":"bytes32"}],"anonymous":false},{"type":"event","name":"RoleGranted","inputs":[{"name":"role","type":"bytes32","indexed":true,"internalType":"bytes32"},{"name":"account","type":"address","indexed":true,"internalType":"address"},{"name":"sender","type":"address","indexed":true,"internalType":"address"}],"anonymous":false},{"type":"event","name":"RoleRevoked","inputs":[{"name":"role","type":"bytes32","indexed":true,"internalType":"bytes32"},{"name":"account","type":"address","indexed":true,"internalType":"address"},{"name":"sender","type":"address","indexed":true,"internalType":"address"}],"anonymous":false},{"type":"event","name":"SetHook","inputs":[{"name":"hook","type":"address","indexed":true,"internalType":"address"}],"anonymous":false},{"type":"event","name":"SetMaxNetworkLimit","inputs":[{"name":"subnetwork","type":"bytes32","indexed":true,"internalType":"bytes32"},{"name":"amount","type":"uint256","indexed":false,"internalType":"uint256"}],"anonymous":false},{"type":"event","name":"SetNetworkLimit","inputs":[{"name":"subnetwork","type":"bytes32","indexed":true,"internalType":"bytes32"},{"name":"amount","type":"uint256","indexed":false,"internalType":"uint256"}],"anonymous":false},{"type":"event","name":"SetOperatorNetworkShares","inputs":[{"name":"subnetwork","type":"bytes32","indexed":true,"internalType":"bytes32"},{"name":"operator","type":"address","indexed":true,"internalType":"address"},{"name":"shares","type":"uint256","indexed":false,"internalType":"uint256"}],"anonymous":false},{"type":"error","name":"AccessControlBadConfirmation","inputs":[]},{"type":"error","name":"AccessControlUnauthorizedAccount","inputs":[{"name":"account","type":"address","internalType":"address"},{"name":"neededRole","type":"bytes32","internalType":"bytes32"}]},{"type":"error","name":"AlreadySet","inputs":[]},{"type":"error","name":"CheckpointUnorderedInsertion","inputs":[]},{"type":"error","name":"DuplicateRoleHolder","inputs":[]},{"type":"error","name":"ExceedsMaxNetworkLimit","inputs":[]},{"type":"error","name":"InsufficientHookGas","inputs":[]},{"type":"error","name":"InvalidInitialization","inputs":[]},{"type":"error","name":"MathOverflowedMulDiv","inputs":[]},{"type":"error","name":"MissingRoleHolders","inputs":[]},{"type":"error","name":"NotInitialized","inputs":[]},{"type":"error","name":"NotInitializing","inputs":[]},{"type":"error","name":"NotNetwork","inputs":[]},{"type":"error","name":"NotSlasher","inputs":[]},{"type":"error","name":"NotVault","inputs":[]},{"type":"error","name":"ReentrancyGuardReentrantCall","inputs":[]},{"type":"error","name":"SafeCastOverflowedUintDowncast","inputs":[{"name":"bits","type":"uint8","internalType":"uint8"},{"name":"value","type":"uint256","internalType":"uint256"}]},{"type":"error","name":"ZeroAddressRoleHolder","inputs":[]}],"bytecode":{"object":"0x610140346101a1576001600160401b0390601f612ea238819003918201601f191683019190848311848410176101a5578160c092859260409586528339810103126101a15761004d826101b9565b610059602084016101b9565b906100658385016101b9565b94610072606086016101b9565b9460a0610081608083016101b9565b9101519180831683036101a1577ff0c57e16840df040f15088dc2f81fe391c3923bec73e23a9662efc9c229c6a009081549060ff82891c1661019057808083160361014c575b50505060805260a05260c05260e0526101009283526101209182525190612cd492836101ce8439608051836107e7015260a05183610f2a015260c0518381816106660152610f63015260e05183818161039f0152611fb20152518281816103e3015281816115fa01526117170152518181816105e40152818161156101526117950152f35b6001600160401b0319909116811790915585519081527fc7f505b2f371ae2175ee4913f4499e1f2633a7b5936321eed1cdaeb6115181d290602090a15f80806100c7565b875163f92ee8a960e01b8152600490fd5b5f80fd5b634e487b7160e01b5f52604160045260245ffd5b51906001600160a01b03821682036101a15756fe60806040526004361015610011575f80fd5b5f3560e01c806301ffc9a714610264578063021453481461025f578063103f29071461025a578063128e5d82146102555780631a7a7044146102505780631a80e5001461024b57806323f752d514610246578063248a9ca3146102415780632dd310001461023c5780632f2ff15d1461023757806336568abe146102325780633dfd38731461022d5780633eb22c0f1461022857806342c53e3314610223578063439fab911461021e578063557cab44146102195780635d32a1c9146102145780636679191e1461020f5780637d24bb271461020a5780637f5a7c7b146102055780638b3f10b01461020057806391d14854146101fb5780639f86fd85146101f6578063a217fddf146101f1578063a33bc287146101ec578063bb24fe8a146101e7578063c0cd7c3e146101e2578063c43dc03f146101dd578063d15b740e146101d8578063d547741f146101d3578063e02f6937146101ce578063e49561ee146101c9578063e78eb6ae146101c4578063fbfa77cf146101bf578063fd4d447c146101ba578063ff54740f146101b55763ffa1ad74146101b0575f80fd5b6112e0565b6112c3565b611299565b611272565b611238565b61104d565b611031565b610fe5565b610fbb565b610f92565b610f4e565b610f0b565b610df0565b610dd6565b610d1c565b610cbe565b610c9b565b610c73565b610c3a565b610c00565b610bdd565b610b80565b610a48565b6109cf565b6109a6565b6108ad565b610862565b610816565b6107d2565b610799565b610613565b6105cf565b610589565b6103ce565b61038a565b6102be565b346102ba5760203660031901126102ba5760043563ffffffff60e01b81168091036102ba57602090637965db0b60e01b81149081156102a9575b506040519015158152f35b6301ffc9a760e01b1490505f61029e565b5f80fd5b346102ba576040806003193601126102ba5760043590602435906102e061180a565b825f526002602052805f2054821161037a57825f52600360205281610306825f20611efa565b1461036a5781610365916103557e899d104fc3d8820bd96540612bcc5c448c8837b13b9f7faa43ad0728f0c14f94610346875f52600360205260405f2090565b61034f426123a7565b90611952565b5050519081529081906020820190565b0390a2005b5163a741a04560e01b8152600490fd5b51631eefc06360e31b8152600490fd5b346102ba575f3660031901126102ba576040517f00000000000000000000000000000000000000000000000000000000000000006001600160a01b03168152602090f35b346102ba575f3660031901126102ba576040517f00000000000000000000000000000000000000000000000000000000000000006001600160a01b03168152602090f35b6001600160a01b038116036102ba57565b6064359065ffffffffffff821682036102ba57565b634e487b7160e01b5f52604160045260245ffd5b604081019081106001600160401b0382111761046757604052565b610438565b606081019081106001600160401b0382111761046757604052565b90601f801991011681019081106001600160401b0382111761046757604052565b6040519060a082018281106001600160401b0382111761046757604052565b604051906104d48261044c565b565b6001600160401b03811161046757601f01601f191660200190565b81601f820112156102ba57803590610508826104d6565b926105166040519485610487565b828452602083830101116102ba57815f926020809301838601378301015290565b9060806003198301126102ba576004359160243561055481610412565b9160443565ffffffffffff811681036102ba5791606435906001600160401b0382116102ba57610586916004016104f1565b90565b346102ba5760206105c76105c261059f36610537565b939190925f526005865260405f209060018060a01b03165f5260205260405f2090565b611a45565b604051908152f35b346102ba575f3660031901126102ba576040517f00000000000000000000000000000000000000000000000000000000000000006001600160a01b03168152602090f35b346102ba5760403660031901126102ba576004356001600160601b03811681036102ba5760243590610643611b28565b6040516302910f8b60e31b81523360048201526020816024816001600160a01b037f0000000000000000000000000000000000000000000000000000000000000000165afa908115610794575f91610765575b5015610753576001600160601b03166bffffffffffffffffffffffff193360601b161790806106cd835f52600260205260405f2090565b541461074157610726817fc67e7929681aa1bccd63f52b3799bf5805f3009f197db6fdf584b14f7fbf608c9261070b855f52600260205260405f2090565b556107168185611b57565b6040519081529081906020820190565b0390a261073f60015f80516020612c5f83398151915255565b005b60405163a741a04560e01b8152600490fd5b6040516323d53b9760e21b8152600490fd5b610787915060203d60201161078d575b61077f8183610487565b810190611327565b5f610696565b503d610775565b61133f565b346102ba5760203660031901126102ba576004355f525f80516020612c3f8339815191526020526020600160405f200154604051908152f35b346102ba575f3660031901126102ba576040517f00000000000000000000000000000000000000000000000000000000000000006001600160a01b03168152602090f35b346102ba5760403660031901126102ba5761073f60243560043561083982610412565b805f525f80516020612c3f83398151915260205261085d600160405f2001546118bd565b611e32565b346102ba5760403660031901126102ba5760243561087f81610412565b336001600160a01b0382160361089b5761073f90600435611e68565b60405163334bd91960e11b8152600490fd5b346102ba5760203660031901126102ba576004356108ca81610412565b6108d2611b28565b335f9081527f9ebbcbe0d2961d3fbe56ca6f679bc753bd848d3e6bb3eaf9041c51b286881d2c60205260409020547fd1c1f6fa6bf27d54c5e54c7c1dc6e5004d3c027ea1994fe68b29c1b51b69c36c9060ff161561098857506001546001600160a01b039182169181168214610741576001600160a01b03191681176001557f5bbb1d3ebb6a3ad2a0f17ff35e579a83af60604d1d3c2a4c83c62adecadf666d5f80a260015f80516020612c5f83398151915255005b6044906040519063e2517d3f60e01b82523360048301526024820152fd5b346102ba5760203660031901126102ba576004355f52600360205260206105c760405f20611efa565b346102ba5760403660031901126102ba5760206105c7610a166024356109f481610412565b6004355f526005845260405f209060018060a01b03165f5260205260405f2090565b611efa565b9181601f840112156102ba578235916001600160401b0383116102ba57602083818601950101116102ba57565b346102ba5760203660031901126102ba576001600160401b036004358181116102ba57610a79903690600401610a1b565b5f80516020612c7f833981519152549260ff8460401c1615931680159081610b78575b6001149081610b6e575b159081610b65575b50610b53575f80516020612c7f833981519152805467ffffffffffffffff19166001179055610ae19183610b2f57611f7d565b610ae757005b5f80516020612c7f833981519152805460ff60401b19169055604051600181527fc7f505b2f371ae2175ee4913f4499e1f2633a7b5936321eed1cdaeb6115181d290602090a1005b5f80516020612c7f833981519152805460ff60401b1916600160401b179055611f7d565b60405163f92ee8a960e01b8152600490fd5b9050155f610aae565b303b159150610aa6565b849150610a9c565b346102ba575f3660031901126102ba576020604051614e208152f35b60606003198201126102ba576004359160243565ffffffffffff811681036102ba5791604435906001600160401b0382116102ba57610586916004016104f1565b346102ba5760206105c7610bf036610b9c565b915f526003845260405f20611a45565b346102ba575f3660031901126102ba5760206040517fd1c1f6fa6bf27d54c5e54c7c1dc6e5004d3c027ea1994fe68b29c1b51b69c36c8152f35b346102ba575f3660031901126102ba5760206040517e8b9b1e5fa9cf3b14f87f435649268146305ddf689f082e5961a335b07a9abf8152f35b346102ba575f3660031901126102ba576001546040516001600160a01b039091168152602090f35b346102ba5760206105c7610cae36610b9c565b915f526004845260405f20611a45565b346102ba5760403660031901126102ba57602060ff610d10602435610ce281610412565b6004355f525f80516020612c3f833981519152845260405f209060018060a01b03165f5260205260405f2090565b54166040519015158152f35b346102ba576040806003193601126102ba57600435610d3a81610412565b602435906001600160401b0382116102ba575f8091610d60610dc4943690600401610a1b565b908187519283928337810184815203915af43d15610dcc57610db63d610d85816104d6565b90610d9286519283610487565b81523d5f602083013e5b845194859315156020850152808401526060830190611376565b03601f198101835282610487565b805190602001fd5b610db66060610d9c565b346102ba575f3660031901126102ba5760206040515f8152f35b346102ba5760603660031901126102ba57602435600435610e1082610412565b60443591610e1c611866565b5f8281526005602090815260408083206001600160a01b03851684529091529020610e4690611efa565b838114610741577f739a5a3ec0ff71e2386d0013deac5f44e0935a98def2e2a5ddf9a709518c829491610eb9610f0692855f52600460205260405f2090610eb388610eae610e93426123a7565b93610ea9610a168c5f52600460205260405f2090565b6113c1565b6113dc565b91611952565b5050610eea8561034683610ed5885f52600560205260405f2090565b9060018060a01b03165f5260205260405f2090565b50506040519485526001600160a01b0316939081906020820190565b0390a3005b346102ba575f3660031901126102ba5760206040516001600160401b037f0000000000000000000000000000000000000000000000000000000000000000168152f35b346102ba575f3660031901126102ba576040517f00000000000000000000000000000000000000000000000000000000000000006001600160a01b03168152602090f35b346102ba5760203660031901126102ba576004355f52600460205260206105c760405f20611efa565b346102ba5760203660031901126102ba576004355f526002602052602060405f2054604051908152f35b346102ba5760403660031901126102ba5761073f60243560043561100882610412565b805f525f80516020612c3f83398151915260205261102c600160405f2001546118bd565b611e68565b346102ba5760206105c761104436610537565b929190916114eb565b346102ba5760a03660031901126102ba5760243560043561106d82610412565b60443591611079610423565b90608435906001600160401b0382116102ba5761109b600492369084016104f1565b6110a3611b28565b5f546020906110c8906110bc906001600160a01b031681565b6001600160a01b031690565b60405163b134427160e01b815294859182905afa928315610794575f93611207575b506001600160a01b0392831633036111f5576001546001600160a01b031683811661116a575b50506040805195865265ffffffffffff909316602086015216927f741a5de99085c0d660f3e4192217b0ffb0ea4e35a0480de48e857a4bc3ee36ed91819081015b0390a361073f60015f80516020612c5f83398151915255565b9093604051946111a186611193602082019363724ab0f760e11b8552858c898d6024870161168a565b03601f198101885287610487565b62042e305a106111e3575f611151938192827f741a5de99085c0d660f3e4192217b0ffb0ea4e35a0480de48e857a4bc3ee36ed9951926203d090f15093611110565b604051638072475160e01b8152600490fd5b60405163dabc4ad960e01b8152600490fd5b61122a91935060203d602011611231575b6112228183610487565b810190611675565b915f6110ea565b503d611218565b346102ba575f3660031901126102ba5760206040517f1312a1cf530e56add9be4fd84db9051dcc7635952f09f735f9a29405b55846258152f35b346102ba575f3660031901126102ba575f546040516001600160a01b039091168152602090f35b346102ba5760403660031901126102ba5760206105c76024356112bb81610412565b6004356116e0565b346102ba575f3660031901126102ba5760206040516203d0908152f35b346102ba575f3660031901126102ba57602060405160018152f35b5f9081526005602090815260408083206001600160a01b03909416835292905220610586929190611a45565b908160209103126102ba575180151581036102ba5790565b6040513d5f823e3d90fd5b9061058692915f52600360205260405f20611a45565b9061058692915f52600460205260405f20611a45565b805180835260209291819084018484015e5f828201840152601f01601f1916010190565b634e487b7160e01b5f52601160045260245ffd5b5f198101919082116113bc57565b61139a565b919082039182116113bc57565b90600182018092116113bc57565b919082018092116113bc57565b604051906113f68261044c565b60606020838281520152565b81601f820112156102ba57805190611419826104d6565b926114276040519485610487565b828452602083830101116102ba57815f9260208093018386015e8301015290565b906020828203126102ba5781516001600160401b03928382116102ba5701906040828203126102ba576040519261147e8461044c565b82518181116102ba5782611493918501611402565b845260208301519081116102ba576114ab9201611402565b602082015290565b6001600160a01b0391821681529116602082015265ffffffffffff909116604082015260806060820181905261058692910190611376565b926114fb909291928284866121e2565b9290936115066113e9565b93805180611659575b505084159384156115c3575b8415611532575b5050505061152d5790565b505f90565b60208094955061155d910151604051958694859463530e1d4360e01b865260601c90600486016114b3565b03817f00000000000000000000000000000000000000000000000000000000000000006001600160a01b03165afa908115610794575f916115a4575b50155f808080611522565b6115bd915060203d60201161078d5761077f8183610487565b5f611599565b5f549094506001600160a01b03166020848651926115f6604051948593849363530e1d4360e01b855289600486016114b3565b03817f00000000000000000000000000000000000000000000000000000000000000006001600160a01b03165afa908115610794575f9161163a575b50159361151b565b611653915060203d60201161078d5761077f8183610487565b5f611632565b61166d929550602080918301019101611448565b925f8061150f565b908160209103126102ba575161058681610412565b919360a093610586969565ffffffffffff938552600180871b0316602085015260408401521660608201528160808201520190611376565b81156116cc570490565b634e487b7160e01b5f52601260045260245ffd5b5f546040516308834cb560e21b8082526001600160a01b0385811660048401529283166024830152929392602092909183816044817f000000000000000000000000000000000000000000000000000000000000000086165afa908115610794575f916117ed575b5015918215611769575b5050905061176357610586916122f2565b50505f90565b6040519081526001600160a01b0385166004820152606086901c602482015291508290829060449082907f0000000000000000000000000000000000000000000000000000000000000000165afa918215610794575f926117d0575b505015805f80611752565b6117e69250803d1061078d5761077f8183610487565b5f806117c5565b6118049150843d861161078d5761077f8183610487565b5f611748565b335f9081527f72a65082a5691803ab2b62c9bc729b34205ba1b183d950896526b2fd8714d0c7602052604090207e8b9b1e5fa9cf3b14f87f435649268146305ddf689f082e5961a335b07a9abf9060ff905b5416156109885750565b335f9081527f8f2dae99798887da307a4daa2c2d11f840b0cb9a6a67822660c531e9ad14dd00602052604090207f1312a1cf530e56add9be4fd84db9051dcc7635952f09f735f9a29405b55846259060ff9061185c565b5f8181525f80516020612c3f83398151915260209081526040808320338452909152902060ff9061185c565b634e487b7160e01b5f52603260045260245ffd5b8054821015611912575f5260205f2001905f90565b6118e9565b90815491600160401b831015610467578261193a9160016104d4950181556118fd565b90919082549060031b91821b915f19901b1916179055565b909291926001820190815480156119e4575b508461196f846123fd565b5094909284549361197f83611efa565b96816119cf575b50156119ac575050505f1981019081116113bc5761193a85916119a8936118fd565b9190565b6119a89492936119c8926001600160d01b039091169190612963565b5050611917565b65ffffffffffff83811691161490505f611986565b600160401b81101561046757806001611a0092018455836118fd565b8154905f199060031b1b191690555f611964565b908160209103126102ba575163ffffffff811681036102ba5790565b90600163ffffffff809316019182116113bc57565b91805115611b1e5780602080611a6093518301019101611a14565b91611a6b838261251c565b92611a7c845165ffffffffffff1690565b9065ffffffffffff8085169216828114611b125782119182611ab2575b5050611aa957610586925061244c565b50506020015190565b909150611abf83546113ae565b63ffffffff831614918215611ad8575b50505f80611a99565b611b0a919250611af3611aed611aff92611a30565b8561251c565b5165ffffffffffff1690565b65ffffffffffff1690565b115f80611acf565b50505050506020015190565b506105869161244c565b5f80516020612c5f8339815191526002815414611b455760029055565b604051633ee5aeb560e01b8152600490fd5b90815f52600360205260405f2081611b6e826123fd565b919390508315611bcc57611b8e916001600160d01b0316906001016118fd565b90549060031b1c5b82611bc2575b5050611ba6575050565b611bbe915f52600360205260405f2061034f426123a7565b5050565b119050815f611b9c565b50505f611b96565b6001600160a01b0381165f9081527fb7db2dd08fcb62d0c9e08c51941cae53c267786a0b75803fb7960902fc8ef97d60205260409020545f80516020612c3f8339815191529060ff16611763575f808052602091825260408082206001600160a01b038516835290925220805460ff1916600117905533906001600160a01b03165f7f2f8788117e7eff1d82e926ec794901d17c78024a50270940304540a733656f0d8180a4600190565b6001600160a01b0381165f9081527f9ebbcbe0d2961d3fbe56ca6f679bc753bd848d3e6bb3eaf9041c51b286881d2c602052604090207fd1c1f6fa6bf27d54c5e54c7c1dc6e5004d3c027ea1994fe68b29c1b51b69c36c905f80516020612c3f8339815191529060ff905b5416611d4e575f828152602091825260408082206001600160a01b038616835290925220805460ff1916600117905533916001600160a01b0316907f2f8788117e7eff1d82e926ec794901d17c78024a50270940304540a733656f0d5f80a4600190565b5050505f90565b6001600160a01b0381165f9081527f72a65082a5691803ab2b62c9bc729b34205ba1b183d950896526b2fd8714d0c7602052604090207e8b9b1e5fa9cf3b14f87f435649268146305ddf689f082e5961a335b07a9abf905f80516020612c3f8339815191529060ff90611cea565b6001600160a01b0381165f9081527f8f2dae99798887da307a4daa2c2d11f840b0cb9a6a67822660c531e9ad14dd00602052604090207f1312a1cf530e56add9be4fd84db9051dcc7635952f09f735f9a29405b5584625905f80516020612c3f8339815191529060ff90611cea565b5f8181525f80516020612c3f833981519152602081815260408084206001600160a01b038716855290915290912060ff90611cea565b5f8181525f80516020612c3f833981519152602081815260408084206001600160a01b03871685529091529091205460ff1615611d4e575f828152602091825260408082206001600160a01b038616835290925220805460ff1916905533916001600160a01b0316907ff6391f5c32d9c69d2a47ea670b442974b53935d1edc7fd64eb21e047a839171b5f80a4600190565b805480611f2957505f5b6001600160d01b03811615611763576001611f1f92016118fd565b90549060031b1c90565b5f199080828101116113bc57825f5260205f2001015460301c611f04565b9190916040818403126102ba578035611f5f81610412565b9260208201356001600160401b0381116102ba5761058692016104f1565b611f8991810190611f47565b6040516302910f8b60e31b81526001600160a01b039283166004820181905291906020816024817f000000000000000000000000000000000000000000000000000000000000000088165afa908115610794575f9161209c575b501561208a5761201e60409161201961206494611ffe612584565b60018060a01b03166001600160601b0360a01b5f5416175f55565b612704565b6020810151600180546001600160a01b0319166001600160a01b0390921691909117905580516001600160a01b031684811661207a575b5001516001600160a01b031690565b90811661206e5750565b61207790611c7f565b50565b61208390611bd4565b505f612055565b6040516362df054560e01b8152600490fd5b6120b5915060203d60201161078d5761077f8183610487565b5f611fe3565b6040519060a082018281106001600160401b038211176104675760405281608060609182815282602082015282604082015282808201520152565b906020828203126102ba5781516001600160401b03928382116102ba57019060a0828203126102ba576121276104a8565b9282518181116102ba578261213d918501611402565b845260208301518181116102ba5782612157918501611402565b602085015260408301518181116102ba5782612174918501611402565b604085015260608301518181116102ba5782612191918501611402565b606085015260808301519081116102ba576121ac9201611402565b608082015290565b908160209103126102ba575190565b60409065ffffffffffff61058694931681528160208201520190611376565b919392936121ee6120bb565b948051806122d6575b505061220860608601518285611360565b918261221a57505050509051905f9190565b61222e6122689183608089015191876112fb565b9160206122476110bc6110bc5f5460018060a01b031690565b8189015190604051808096819463810da75d60e01b835287600484016121c3565b03915afa80156107945761229e95612298935f926122a3575b50612292919260408a01519161134a565b90612864565b90612876565b915190565b61229292506122c99060203d6020116122cf575b6122c18183610487565b8101906121b4565b91612281565b503d6122b7565b6122ea9296506020809183010191016120f6565b935f806121f7565b90612308610a16835f52600460205260405f2090565b9081612315575050505f90565b610a1661232e91610ed5855f52600560205260405f2090565b5f5460405163bd49c35f60e01b815290602090829060049082906001600160a01b03165afa80156107945761058694612298925f9261237e575b50610a16612292915f52600360205260405f2090565b61229291925061239f610a169160203d6020116122cf576122c18183610487565b929150612368565b65ffffffffffff908181116123ba571690565b604490604051906306dfcc6560e41b8252603060048301526024820152fd5b906040516123e68161044c565b915465ffffffffffff8116835260301c6020830152565b80548061240e5750505f905f905f90565b5f199080828101116113bc5761242b925f5260205f2001016123d9565b9065ffffffffffff82511691602060018060d01b0391015116906001929190565b908154905f8291600584116124b6575b612467935084612bdf565b8061248f57505f905b6001600160d01b0382161561176357610586916001611f1f92016118fd565b6124a961249e6124b0926113ae565b835f5260205f200190565b5460301c90565b90612470565b91926124c181612aac565b81039081116113bc5761246793855f5265ffffffffffff808360205f20015416908516105f146124f257509161245c565b9291506124fe906113ce565b9061245c565b604051906125118261044c565b5f6020838281520152565b9061254561253f6125669261252f612504565b50612538612504565b50846118fd565b506123d9565b91600165ffffffffffff845116936020828060d01b039101511691016118fd565b905490604051926125768461044c565b835260031b1c602082015290565b61258c612a7e565b612594612a7e565b60015f80516020612c5f83398151915255565b604051906125b48261046c565b5f6040838281528260208201520152565b81601f820112156102ba578051916020916001600160401b038411610467578360051b90604051946125f985840187610487565b855283808601928201019283116102ba578301905b82821061261c575050505090565b838091835161262a81610412565b81520191019061260e565b906020828203126102ba5781516001600160401b03928382116102ba5701908181039260a084126102ba5760606040519461266f8661046c565b126102ba576040516126808161046c565b835161268b81610412565b8152602084015161269b81610412565b602082015260408401516126ae81610412565b6040820152845260608301518181116102ba57826126cd9185016125c5565b602085015260808301519081116102ba576126e892016125c5565b604082015290565b80518210156119125760209160051b010190565b612720906127106125a7565b5060208082518301019101612635565b8051519091906001600160a01b0316158061284a575b612838579060208101905f5b825180518210156127bc576110bc61275d8361276a936126f0565b516001600160a01b031690565b156127aa5761278c61278861278361275d8487516126f0565b611d55565b1590565b61279857600101612742565b604051635140fefd60e11b8152600490fd5b6040516323cda06760e01b8152600490fd5b506040925050818101905f5b8251805182101561282f576110bc61275d836127e3936126f0565b1561281e576128016127886127fc61275d8487516126f0565b611dc3565b61280d576001016127c8565b8351635140fefd60e11b8152600490fd5b83516323cda06760e01b8152600490fd5b50509150505190565b6040516303501f5960e11b8152600490fd5b506020820151511580612736575060408201515115612736565b9080821015612871575090565b905090565b9091828202915f19848209938380861095039480860395146128fb57848311156128e957829109815f038216809204600280826003021880830282030280830282030280830282030280830282030280830282030280920290030293600183805f03040190848311900302920304170290565b60405163227bc15360e01b8152600490fd5b50509061058692506116c2565b8054600160401b81101561046757612925916001820181556118fd565b61295057815160209092015160301b65ffffffffffff191665ffffffffffff92909216919091179055565b634e487b7160e01b5f525f60045260245ffd5b805492939291908215612a555761298461297f61249e856113ae565b6123d9565b90612995825165ffffffffffff1690565b65ffffffffffff84811691168110612a43576119a89460209488926129c3611aff875165ffffffffffff1690565b03612a0b57506129fd926129d96129e4926113ae565b905f5260205f200190565b9065ffffffffffff82549181199060301b169116179055565b01516001600160d01b031690565b915050612a3e91612a2b612a1d6104c7565b65ffffffffffff9093168352565b6001600160d01b03881682860152612908565b6129fd565b604051632520601d60e01b8152600490fd5b612a799250612a65612a1d6104c7565b6001600160d01b0385166020830152612908565b5f9190565b60ff5f80516020612c7f8339815191525460401c1615612a9a57565b604051631afcd79f60e31b8152600490fd5b801561152d5780612292612b77612b6d612b63612b59612b4f612b45612b3b60016105869a5f908b60801c80612bd3575b508060401c80612bc6575b508060201c80612bb9575b508060101c80612bac575b508060081c80612b9f575b508060041c80612b92575b508060021c80612b85575b50821c612b7e575b811c1b612b34818b6116c2565b0160011c90565b612b34818a6116c2565b612b3481896116c2565b612b3481886116c2565b612b3481876116c2565b612b3481866116c2565b612b3481856116c2565b80926116c2565b8101612b27565b600291509101905f612b1f565b600491509101905f612b14565b600891509101905f612b09565b601091509101905f612afe565b602091509101905f612af3565b604091509101905f612ae8565b9150506080905f612add565b91905b838210612bef5750505090565b9091928083169080841860011c82018092116113bc57845f5265ffffffffffff808360205f20015416908416105f14612c2c5750925b9190612be2565b939250612c38906113ce565b91612c2556fe02dd7bc7dec4dceedda775e58dd541e08a116c6c53815c0bd028192f7b6268009b779b17422d0df92223018b32b4d1fa46e071723d6817e2486d003becc55f00f0c57e16840df040f15088dc2f81fe391c3923bec73e23a9662efc9c229c6a00a264697066735822122087b448f86eb69c9e5f1f14e678a63505a0f7ff35232d22112857eea77543e88e64736f6c63430008190033","linkReferences":{}},"methodIdentifiers":{"DEFAULT_ADMIN_ROLE()":"a217fddf","FACTORY()":"2dd31000","HOOK_GAS_LIMIT()":"ff54740f","HOOK_RESERVE()":"557cab44","HOOK_SET_ROLE()":"6679191e","NETWORK_LIMIT_SET_ROLE()":"7d24bb27","NETWORK_REGISTRY()":"c0cd7c3e","OPERATOR_NETWORK_OPT_IN_SERVICE()":"1a80e500","OPERATOR_NETWORK_SHARES_SET_ROLE()":"e78eb6ae","OPERATOR_VAULT_OPT_IN_SERVICE()":"128e5d82","TYPE()":"bb24fe8a","VAULT_FACTORY()":"103f2907","VERSION()":"ffa1ad74","getRoleAdmin(bytes32)":"248a9ca3","grantRole(bytes32,address)":"2f2ff15d","hasRole(bytes32,address)":"91d14854","hook()":"7f5a7c7b","initialize(bytes)":"439fab91","maxNetworkLimit(bytes32)":"d15b740e","networkLimit(bytes32)":"3eb22c0f","networkLimitAt(bytes32,uint48,bytes)":"5d32a1c9","onSlash(bytes32,address,uint256,uint48,bytes)":"e49561ee","operatorNetworkShares(bytes32,address)":"42c53e33","operatorNetworkSharesAt(bytes32,address,uint48,bytes)":"1a7a7044","renounceRole(bytes32,address)":"36568abe","revokeRole(bytes32,address)":"d547741f","setHook(address)":"3dfd3873","setMaxNetworkLimit(uint96,uint256)":"23f752d5","setNetworkLimit(bytes32,uint256)":"02145348","setOperatorNetworkShares(bytes32,address,uint256)":"a33bc287","stake(bytes32,address)":"fd4d447c","stakeAt(bytes32,address,uint48,bytes)":"e02f6937","staticDelegateCall(address,bytes)":"9f86fd85","supportsInterface(bytes4)":"01ffc9a7","totalOperatorNetworkShares(bytes32)":"c43dc03f","totalOperatorNetworkSharesAt(bytes32,uint48,bytes)":"8b3f10b0","vault()":"fbfa77cf"},"id":108}