{"abi":[{"type":"constructor","inputs":[],"stateMutability":"nonpayable"},{"type":"function","name":"DEFAULT_ADMIN_ROLE","inputs":[],"outputs":[{"name":"","type":"bytes32","internalType":"bytes32"}],"stateMutability":"view"},{"type":"function","name":"DELEGATOR_FACTORY","inputs":[],"outputs":[{"name":"","type":"address","internalType":"address"}],"stateMutability":"view"},{"type":"function","name":"DEPOSITOR_WHITELIST_ROLE","inputs":[],"outputs":[{"name":"","type":"bytes32","internalType":"bytes32"}],"stateMutability":"view"},{"type":"function","name":"DEPOSIT_LIMIT_SET_ROLE","inputs":[],"outputs":[{"name":"","type":"bytes32","internalType":"bytes32"}],"stateMutability":"view"},{"type":"function","name":"DEPOSIT_WHITELIST_SET_ROLE","inputs":[],"outputs":[{"name":"","type":"bytes32","internalType":"bytes32"}],"stateMutability":"view"},{"type":"function","name":"FACTORY","inputs":[],"outputs":[{"name":"","type":"address","internalType":"address"}],"stateMutability":"view"},{"type":"function","name":"IS_DEPOSIT_LIMIT_SET_ROLE","inputs":[],"outputs":[{"name":"","type":"bytes32","internalType":"bytes32"}],"stateMutability":"view"},{"type":"function","name":"SLASHER_FACTORY","inputs":[],"outputs":[{"name":"","type":"address","internalType":"address"}],"stateMutability":"view"},{"type":"function","name":"activeBalanceOf","inputs":[{"name":"account","type":"address","internalType":"address"}],"outputs":[{"name":"","type":"uint256","internalType":"uint256"}],"stateMutability":"view"},{"type":"function","name":"activeBalanceOfAt","inputs":[{"name":"account","type":"address","internalType":"address"},{"name":"timestamp","type":"uint48","internalType":"uint48"},{"name":"hints","type":"bytes","internalType":"bytes"}],"outputs":[{"name":"","type":"uint256","internalType":"uint256"}],"stateMutability":"view"},{"type":"function","name":"activeBalanceOfHints","inputs":[{"name":"vault","type":"address","internalType":"address"},{"name":"account","type":"address","internalType":"address"},{"name":"timestamp","type":"uint48","internalType":"uint48"}],"outputs":[{"name":"","type":"bytes","internalType":"bytes"}],"stateMutability":"view"},{"type":"function","name":"activeShares","inputs":[],"outputs":[{"name":"","type":"uint256","internalType":"uint256"}],"stateMutability":"view"},{"type":"function","name":"activeSharesAt","inputs":[{"name":"timestamp","type":"uint48","internalType":"uint48"},{"name":"hint","type":"bytes","internalType":"bytes"}],"outputs":[{"name":"","type":"uint256","internalType":"uint256"}],"stateMutability":"view"},{"type":"function","name":"activeSharesHint","inputs":[{"name":"vault","type":"address","internalType":"address"},{"name":"timestamp","type":"uint48","internalType":"uint48"}],"outputs":[{"name":"","type":"bytes","internalType":"bytes"}],"stateMutability":"view"},{"type":"function","name":"activeSharesHintInternal","inputs":[{"name":"timestamp","type":"uint48","internalType":"uint48"}],"outputs":[{"name":"exists","type":"bool","internalType":"bool"},{"name":"hint","type":"uint32","internalType":"uint32"}],"stateMutability":"view"},{"type":"function","name":"activeSharesOf","inputs":[{"name":"account","type":"address","internalType":"address"}],"outputs":[{"name":"","type":"uint256","internalType":"uint256"}],"stateMutability":"view"},{"type":"function","name":"activeSharesOfAt","inputs":[{"name":"account","type":"address","internalType":"address"},{"name":"timestamp","type":"uint48","internalType":"uint48"},{"name":"hint","type":"bytes","internalType":"bytes"}],"outputs":[{"name":"","type":"uint256","internalType":"uint256"}],"stateMutability":"view"},{"type":"function","name":"activeSharesOfHint","inputs":[{"name":"vault","type":"address","internalType":"address"},{"name":"account","type":"address","internalType":"address"},{"name":"timestamp","type":"uint48","internalType":"uint48"}],"outputs":[{"name":"","type":"bytes","internalType":"bytes"}],"stateMutability":"view"},{"type":"function","name":"activeSharesOfHintInternal","inputs":[{"name":"account","type":"address","internalType":"address"},{"name":"timestamp","type":"uint48","internalType":"uint48"}],"outputs":[{"name":"exists","type":"bool","internalType":"bool"},{"name":"hint","type":"uint32","internalType":"uint32"}],"stateMutability":"view"},{"type":"function","name":"activeStake","inputs":[],"outputs":[{"name":"","type":"uint256","internalType":"uint256"}],"stateMutability":"view"},{"type":"function","name":"activeStakeAt","inputs":[{"name":"timestamp","type":"uint48","internalType":"uint48"},{"name":"hint","type":"bytes","internalType":"bytes"}],"outputs":[{"name":"","type":"uint256","internalType":"uint256"}],"stateMutability":"view"},{"type":"function","name":"activeStakeHint","inputs":[{"name":"vault","type":"address","internalType":"address"},{"name":"timestamp","type":"uint48","internalType":"uint48"}],"outputs":[{"name":"","type":"bytes","internalType":"bytes"}],"stateMutability":"view"},{"type":"function","name":"activeStakeHintInternal","inputs":[{"name":"timestamp","type":"uint48","internalType":"uint48"}],"outputs":[{"name":"exists","type":"bool","internalType":"bool"},{"name":"hint","type":"uint32","internalType":"uint32"}],"stateMutability":"view"},{"type":"function","name":"burner","inputs":[],"outputs":[{"name":"","type":"address","internalType":"address"}],"stateMutability":"view"},{"type":"function","name":"claim","inputs":[{"name":"recipient","type":"address","internalType":"address"},{"name":"epoch","type":"uint256","internalType":"uint256"}],"outputs":[{"name":"amount","type":"uint256","internalType":"uint256"}],"stateMutability":"nonpayable"},{"type":"function","name":"claimBatch","inputs":[{"name":"recipient","type":"address","internalType":"address"},{"name":"epochs","type":"uint256[]","internalType":"uint256[]"}],"outputs":[{"name":"amount","type":"uint256","internalType":"uint256"}],"stateMutability":"nonpayable"},{"type":"function","name":"collateral","inputs":[],"outputs":[{"name":"","type":"address","internalType":"address"}],"stateMutability":"view"},{"type":"function","name":"currentEpoch","inputs":[],"outputs":[{"name":"","type":"uint256","internalType":"uint256"}],"stateMutability":"view"},{"type":"function","name":"currentEpochStart","inputs":[],"outputs":[{"name":"","type":"uint48","internalType":"uint48"}],"stateMutability":"view"},{"type":"function","name":"delegator","inputs":[],"outputs":[{"name":"","type":"address","internalType":"address"}],"stateMutability":"view"},{"type":"function","name":"deposit","inputs":[{"name":"onBehalfOf","type":"address","internalType":"address"},{"name":"amount","type":"uint256","internalType":"uint256"}],"outputs":[{"name":"depositedAmount","type":"uint256","internalType":"uint256"},{"name":"mintedShares","type":"uint256","internalType":"uint256"}],"stateMutability":"nonpayable"},{"type":"function","name":"depositLimit","inputs":[],"outputs":[{"name":"","type":"uint256","internalType":"uint256"}],"stateMutability":"view"},{"type":"function","name":"depositWhitelist","inputs":[],"outputs":[{"name":"","type":"bool","internalType":"bool"}],"stateMutability":"view"},{"type":"function","name":"epochAt","inputs":[{"name":"timestamp","type":"uint48","internalType":"uint48"}],"outputs":[{"name":"","type":"uint256","internalType":"uint256"}],"stateMutability":"view"},{"type":"function","name":"epochDuration","inputs":[],"outputs":[{"name":"","type":"uint48","internalType":"uint48"}],"stateMutability":"view"},{"type":"function","name":"epochDurationInit","inputs":[],"outputs":[{"name":"","type":"uint48","internalType":"uint48"}],"stateMutability":"view"},{"type":"function","name":"getRoleAdmin","inputs":[{"name":"role","type":"bytes32","internalType":"bytes32"}],"outputs":[{"name":"","type":"bytes32","internalType":"bytes32"}],"stateMutability":"view"},{"type":"function","name":"grantRole","inputs":[{"name":"role","type":"bytes32","internalType":"bytes32"},{"name":"account","type":"address","internalType":"address"}],"outputs":[],"stateMutability":"nonpayable"},{"type":"function","name":"hasRole","inputs":[{"name":"role","type":"bytes32","internalType":"bytes32"},{"name":"account","type":"address","internalType":"address"}],"outputs":[{"name":"","type":"bool","internalType":"bool"}],"stateMutability":"view"},{"type":"function","name":"initialize","inputs":[{"name":"initialVersion","type":"uint64","internalType":"uint64"},{"name":"owner_","type":"address","internalType":"address"},{"name":"data","type":"bytes","internalType":"bytes"}],"outputs":[],"stateMutability":"nonpayable"},{"type":"function","name":"isDelegatorInitialized","inputs":[],"outputs":[{"name":"","type":"bool","internalType":"bool"}],"stateMutability":"view"},{"type":"function","name":"isDepositLimit","inputs":[],"outputs":[{"name":"","type":"bool","internalType":"bool"}],"stateMutability":"view"},{"type":"function","name":"isDepositorWhitelisted","inputs":[{"name":"account","type":"address","internalType":"address"}],"outputs":[{"name":"value","type":"bool","internalType":"bool"}],"stateMutability":"view"},{"type":"function","name":"isInitialized","inputs":[],"outputs":[{"name":"","type":"bool","internalType":"bool"}],"stateMutability":"view"},{"type":"function","name":"isSlasherInitialized","inputs":[],"outputs":[{"name":"","type":"bool","internalType":"bool"}],"stateMutability":"view"},{"type":"function","name":"isWithdrawalsClaimed","inputs":[{"name":"epoch","type":"uint256","internalType":"uint256"},{"name":"account","type":"address","internalType":"address"}],"outputs":[{"name":"value","type":"bool","internalType":"bool"}],"stateMutability":"view"},{"type":"function","name":"migrate","inputs":[{"name":"newVersion","type":"uint64","internalType":"uint64"},{"name":"data","type":"bytes","internalType":"bytes"}],"outputs":[],"stateMutability":"nonpayable"},{"type":"function","name":"nextEpochStart","inputs":[],"outputs":[{"name":"","type":"uint48","internalType":"uint48"}],"stateMutability":"view"},{"type":"function","name":"onSlash","inputs":[{"name":"amount","type":"uint256","internalType":"uint256"},{"name":"captureTimestamp","type":"uint48","internalType":"uint48"}],"outputs":[{"name":"slashedAmount","type":"uint256","internalType":"uint256"}],"stateMutability":"nonpayable"},{"type":"function","name":"owner","inputs":[],"outputs":[{"name":"","type":"address","internalType":"address"}],"stateMutability":"view"},{"type":"function","name":"previousEpochStart","inputs":[],"outputs":[{"name":"","type":"uint48","internalType":"uint48"}],"stateMutability":"view"},{"type":"function","name":"redeem","inputs":[{"name":"claimer","type":"address","internalType":"address"},{"name":"shares","type":"uint256","internalType":"uint256"}],"outputs":[{"name":"withdrawnAssets","type":"uint256","internalType":"uint256"},{"name":"mintedShares","type":"uint256","internalType":"uint256"}],"stateMutability":"nonpayable"},{"type":"function","name":"renounceOwnership","inputs":[],"outputs":[],"stateMutability":"nonpayable"},{"type":"function","name":"renounceRole","inputs":[{"name":"role","type":"bytes32","internalType":"bytes32"},{"name":"callerConfirmation","type":"address","internalType":"address"}],"outputs":[],"stateMutability":"nonpayable"},{"type":"function","name":"revokeRole","inputs":[{"name":"role","type":"bytes32","internalType":"bytes32"},{"name":"account","type":"address","internalType":"address"}],"outputs":[],"stateMutability":"nonpayable"},{"type":"function","name":"setDelegator","inputs":[{"name":"delegator_","type":"address","internalType":"address"}],"outputs":[],"stateMutability":"nonpayable"},{"type":"function","name":"setDepositLimit","inputs":[{"name":"limit","type":"uint256","internalType":"uint256"}],"outputs":[],"stateMutability":"nonpayable"},{"type":"function","name":"setDepositWhitelist","inputs":[{"name":"status","type":"bool","internalType":"bool"}],"outputs":[],"stateMutability":"nonpayable"},{"type":"function","name":"setDepositorWhitelistStatus","inputs":[{"name":"account","type":"address","internalType":"address"},{"name":"status","type":"bool","internalType":"bool"}],"outputs":[],"stateMutability":"nonpayable"},{"type":"function","name":"setIsDepositLimit","inputs":[{"name":"status","type":"bool","internalType":"bool"}],"outputs":[],"stateMutability":"nonpayable"},{"type":"function","name":"setSlasher","inputs":[{"name":"slasher_","type":"address","internalType":"address"}],"outputs":[],"stateMutability":"nonpayable"},{"type":"function","name":"slashableBalanceOf","inputs":[{"name":"account","type":"address","internalType":"address"}],"outputs":[{"name":"","type":"uint256","internalType":"uint256"}],"stateMutability":"view"},{"type":"function","name":"slasher","inputs":[],"outputs":[{"name":"","type":"address","internalType":"address"}],"stateMutability":"view"},{"type":"function","name":"staticDelegateCall","inputs":[{"name":"target","type":"address","internalType":"address"},{"name":"data","type":"bytes","internalType":"bytes"}],"outputs":[],"stateMutability":"nonpayable"},{"type":"function","name":"supportsInterface","inputs":[{"name":"interfaceId","type":"bytes4","internalType":"bytes4"}],"outputs":[{"name":"","type":"bool","internalType":"bool"}],"stateMutability":"view"},{"type":"function","name":"totalStake","inputs":[],"outputs":[{"name":"","type":"uint256","internalType":"uint256"}],"stateMutability":"view"},{"type":"function","name":"transferOwnership","inputs":[{"name":"newOwner","type":"address","internalType":"address"}],"outputs":[],"stateMutability":"nonpayable"},{"type":"function","name":"version","inputs":[],"outputs":[{"name":"","type":"uint64","internalType":"uint64"}],"stateMutability":"view"},{"type":"function","name":"withdraw","inputs":[{"name":"claimer","type":"address","internalType":"address"},{"name":"amount","type":"uint256","internalType":"uint256"}],"outputs":[{"name":"burnedShares","type":"uint256","internalType":"uint256"},{"name":"mintedShares","type":"uint256","internalType":"uint256"}],"stateMutability":"nonpayable"},{"type":"function","name":"withdrawalShares","inputs":[{"name":"epoch","type":"uint256","internalType":"uint256"}],"outputs":[{"name":"amount","type":"uint256","internalType":"uint256"}],"stateMutability":"view"},{"type":"function","name":"withdrawalSharesOf","inputs":[{"name":"epoch","type":"uint256","internalType":"uint256"},{"name":"account","type":"address","internalType":"address"}],"outputs":[{"name":"amount","type":"uint256","internalType":"uint256"}],"stateMutability":"view"},{"type":"function","name":"withdrawals","inputs":[{"name":"epoch","type":"uint256","internalType":"uint256"}],"outputs":[{"name":"amount","type":"uint256","internalType":"uint256"}],"stateMutability":"view"},{"type":"function","name":"withdrawalsOf","inputs":[{"name":"epoch","type":"uint256","internalType":"uint256"},{"name":"account","type":"address","internalType":"address"}],"outputs":[{"name":"","type":"uint256","internalType":"uint256"}],"stateMutability":"view"},{"type":"event","name":"Claim","inputs":[{"name":"claimer","type":"address","indexed":true,"internalType":"address"},{"name":"recipient","type":"address","indexed":true,"internalType":"address"},{"name":"epoch","type":"uint256","indexed":false,"internalType":"uint256"},{"name":"amount","type":"uint256","indexed":false,"internalType":"uint256"}],"anonymous":false},{"type":"event","name":"ClaimBatch","inputs":[{"name":"claimer","type":"address","indexed":true,"internalType":"address"},{"name":"recipient","type":"address","indexed":true,"internalType":"address"},{"name":"epochs","type":"uint256[]","indexed":false,"internalType":"uint256[]"},{"name":"amount","type":"uint256","indexed":false,"internalType":"uint256"}],"anonymous":false},{"type":"event","name":"Deposit","inputs":[{"name":"depositor","type":"address","indexed":true,"internalType":"address"},{"name":"onBehalfOf","type":"address","indexed":true,"internalType":"address"},{"name":"amount","type":"uint256","indexed":false,"internalType":"uint256"},{"name":"shares","type":"uint256","indexed":false,"internalType":"uint256"}],"anonymous":false},{"type":"event","name":"Initialized","inputs":[{"name":"version","type":"uint64","indexed":false,"internalType":"uint64"}],"anonymous":false},{"type":"event","name":"OnSlash","inputs":[{"name":"amount","type":"uint256","indexed":false,"internalType":"uint256"},{"name":"captureTimestamp","type":"uint48","indexed":false,"internalType":"uint48"},{"name":"slashedAmount","type":"uint256","indexed":false,"internalType":"uint256"}],"anonymous":false},{"type":"event","name":"OwnershipTransferred","inputs":[{"name":"previousOwner","type":"address","indexed":true,"internalType":"address"},{"name":"newOwner","type":"address","indexed":true,"internalType":"address"}],"anonymous":false},{"type":"event","name":"RoleAdminChanged","inputs":[{"name":"role","type":"bytes32","indexed":true,"internalType":"bytes32"},{"name":"previousAdminRole","type":"bytes32","indexed":true,"internalType":"bytes32"},{"name":"newAdminRole","type":"bytes32","indexed":true,"internalType":"bytes32"}],"anonymous":false},{"type":"event","name":"RoleGranted","inputs":[{"name":"role","type":"bytes32","indexed":true,"internalType":"bytes32"},{"name":"account","type":"address","indexed":true,"internalType":"address"},{"name":"sender","type":"address","indexed":true,"internalType":"address"}],"anonymous":false},{"type":"event","name":"RoleRevoked","inputs":[{"name":"role","type":"bytes32","indexed":true,"internalType":"bytes32"},{"name":"account","type":"address","indexed":true,"internalType":"address"},{"name":"sender","type":"address","indexed":true,"internalType":"address"}],"anonymous":false},{"type":"event","name":"SetDelegator","inputs":[{"name":"delegator","type":"address","indexed":true,"internalType":"address"}],"anonymous":false},{"type":"event","name":"SetDepositLimit","inputs":[{"name":"limit","type":"uint256","indexed":false,"internalType":"uint256"}],"anonymous":false},{"type":"event","name":"SetDepositWhitelist","inputs":[{"name":"status","type":"bool","indexed":false,"internalType":"bool"}],"anonymous":false},{"type":"event","name":"SetDepositorWhitelistStatus","inputs":[{"name":"account","type":"address","indexed":true,"internalType":"address"},{"name":"status","type":"bool","indexed":false,"internalType":"bool"}],"anonymous":false},{"type":"event","name":"SetIsDepositLimit","inputs":[{"name":"status","type":"bool","indexed":false,"internalType":"bool"}],"anonymous":false},{"type":"event","name":"SetSlasher","inputs":[{"name":"slasher","type":"address","indexed":true,"internalType":"address"}],"anonymous":false},{"type":"event","name":"Withdraw","inputs":[{"name":"withdrawer","type":"address","indexed":true,"internalType":"address"},{"name":"claimer","type":"address","indexed":true,"internalType":"address"},{"name":"amount","type":"uint256","indexed":false,"internalType":"uint256"},{"name":"burnedShares","type":"uint256","indexed":false,"internalType":"uint256"},{"name":"mintedShares","type":"uint256","indexed":false,"internalType":"uint256"}],"anonymous":false},{"type":"error","name":"AccessControlBadConfirmation","inputs":[]},{"type":"error","name":"AccessControlUnauthorizedAccount","inputs":[{"name":"account","type":"address","internalType":"address"},{"name":"neededRole","type":"bytes32","internalType":"bytes32"}]},{"type":"error","name":"AddressEmptyCode","inputs":[{"name":"target","type":"address","internalType":"address"}]},{"type":"error","name":"AddressInsufficientBalance","inputs":[{"name":"account","type":"address","internalType":"address"}]},{"type":"error","name":"AlreadyClaimed","inputs":[]},{"type":"error","name":"AlreadyInitialized","inputs":[]},{"type":"error","name":"AlreadySet","inputs":[]},{"type":"error","name":"CheckpointUnorderedInsertion","inputs":[]},{"type":"error","name":"DelegatorAlreadyInitialized","inputs":[]},{"type":"error","name":"DepositLimitReached","inputs":[]},{"type":"error","name":"ExternalCall","inputs":[]},{"type":"error","name":"FailedInnerCall","inputs":[]},{"type":"error","name":"InsufficientClaim","inputs":[]},{"type":"error","name":"InsufficientDeposit","inputs":[]},{"type":"error","name":"InsufficientRedemption","inputs":[]},{"type":"error","name":"InsufficientWithdrawal","inputs":[]},{"type":"error","name":"InvalidAccount","inputs":[]},{"type":"error","name":"InvalidCaptureEpoch","inputs":[]},{"type":"error","name":"InvalidClaimer","inputs":[]},{"type":"error","name":"InvalidCollateral","inputs":[]},{"type":"error","name":"InvalidDelegator","inputs":[]},{"type":"error","name":"InvalidEpoch","inputs":[]},{"type":"error","name":"InvalidEpochDuration","inputs":[]},{"type":"error","name":"InvalidInitialization","inputs":[]},{"type":"error","name":"InvalidLengthEpochs","inputs":[]},{"type":"error","name":"InvalidOnBehalfOf","inputs":[]},{"type":"error","name":"InvalidRecipient","inputs":[]},{"type":"error","name":"InvalidSlasher","inputs":[]},{"type":"error","name":"InvalidTimestamp","inputs":[]},{"type":"error","name":"MathOverflowedMulDiv","inputs":[]},{"type":"error","name":"MissingRoles","inputs":[]},{"type":"error","name":"NoPreviousEpoch","inputs":[]},{"type":"error","name":"NotDelegator","inputs":[]},{"type":"error","name":"NotFactory","inputs":[]},{"type":"error","name":"NotInitialized","inputs":[]},{"type":"error","name":"NotInitializing","inputs":[]},{"type":"error","name":"NotSlasher","inputs":[]},{"type":"error","name":"NotWhitelistedDepositor","inputs":[]},{"type":"error","name":"OwnableInvalidOwner","inputs":[{"name":"owner","type":"address","internalType":"address"}]},{"type":"error","name":"OwnableUnauthorizedAccount","inputs":[{"name":"account","type":"address","internalType":"address"}]},{"type":"error","name":"ReentrancyGuardReentrantCall","inputs":[]},{"type":"error","name":"SafeCastOverflowedUintDowncast","inputs":[{"name":"bits","type":"uint8","internalType":"uint8"},{"name":"value","type":"uint256","internalType":"uint256"}]},{"type":"error","name":"SafeERC20FailedOperation","inputs":[{"name":"token","type":"address","internalType":"address"}]},{"type":"error","name":"SlasherAlreadyInitialized","inputs":[]},{"type":"error","name":"TooMuchRedeem","inputs":[]},{"type":"error","name":"TooMuchWithdraw","inputs":[]}],"bytecode":{"object":"0x61010080604052346101135730608052600060a052600060c0527ff0c57e16840df040f15088dc2f81fe391c3923bec73e23a9662efc9c229c6a009081549060ff8260401c1661010457506001600160401b036002600160401b0319828216016100bf575b600060e05260405161543b90816101198239608051818181611087015281816113890152612449015260a0518181816113d60152611939015260c051818181611aa70152611f75015260e0518181816107ee0152610a430152f35b6001600160401b031990911681179091556040519081527fc7f505b2f371ae2175ee4913f4499e1f2633a7b5936321eed1cdaeb6115181d290602090a1388080610064565b63f92ee8a960e01b8152600490fd5b600080fdfe6080604052600436101561001257600080fd5b60003560e01c806301ffc9a7146104a75780631415519b146104a25780631b66c9e11461049d5780631e9a695014610498578063248a9ca31461049357806327810b6e1461048e578063281f5752146104895780632abe3048146104845780632d73c69c1461047f5780632dd310001461047a5780632f2ff15d1461047557806336568abe14610470578063392e53cd1461046b5780634105a7dd14610466578063463616711461046157806347e7ef241461045c57806348d3b775146104575780634ff0876a1461045257806350861adc1461044d57806350f22068146104485780635346e34f1461044357806354fd4d501461043e57806355a2c6721461043957806357ec83cc1461043457806359f769a91461042f5780635cc070761461042a57806361a8c8c41461042557806364b03fdc1461042057806367567add1461041b5780636da3e06d146104165780636ec1e3f814610411578063715018a61461040c5780637278e31c1461040757806373790ab31461040257806376671808146103fd578063794b15b7146103f85780637953b33b146103f35780637c04c80a146103ee578063810da75d146103e95780638326056f146103e457806383cd9cc3146103df57806387df0788146103da5780638b0e9f3f146103d55780638da5cb5b146103d057806391d14854146103cb5780639d66201b146103c65780639f86fd85146103c1578063a1b12202146103bc578063a217fddf146103b7578063a21a1df9146103b2578063a2861466146103ad578063a3b54172146103a8578063a5d03223146103a3578063aabc24961461039e578063aad3ec9614610399578063afba70ad14610394578063b13442711461038f578063bd49c35f1461038a578063bdc8144b14610385578063bfefcd7b14610380578063c31e8dd71461037b578063ce9b793014610376578063d547741f14610371578063d8dfeb451461036c578063db38871514610367578063de49971614610362578063eb5562381461035d578063ecf7085814610358578063efb559d614610353578063f2fde38b1461034e578063f3fef3a314610349578063f5e7ee0f146103445763f9e1bf6c1461033f57600080fd5b6126f2565b6126c8565b612621565b6125f4565b6124a5565b612487565b612431565b612417565b6123aa565b61237d565b61232e565b612305565b61229b565b612280565b6121a0565b612185565b61215c565b612130565b61206d565b611eb2565b611e68565b611e17565b611d21565b611ce6565b611cca565b611ca4565b611c0f565b611bd3565b611b70565b611b3a565b611ad6565b611a91565b6118d4565b6118ba565b6118a1565b61183b565b611814565b6117d2565b6117b7565b611775565b611499565b61142b565b611405565b6113c0565b61136a565b61133c565b61127b565b61124f565b611228565b6110ed565b611068565b611034565b610f9c565b610f83565b610f25565b610f04565b610ee1565b610c1b565b610bf2565b610b54565b610b0e565b610ac3565b610a72565b610a2d565b6109b8565b6107a9565b6106d9565b6106b0565b610674565b610589565b61053d565b610502565b346104fd5760203660031901126104fd5760043563ffffffff60e01b81168091036104fd57602090637965db0b60e01b81149081156104ec575b506040519015158152f35b6301ffc9a760e01b149050386104e1565b600080fd5b346104fd5760003660031901126104fd5760206040517fc6aaadd7371d5e8f9ed6849dd66a66573a3ba37167d03f4352c9ba5693678fac8152f35b346104fd5760003660031901126104fd5760206040517f9c56d972d63cbb4195b3c1484691dfc220fa96a4c47e7b6613bd82a022029e068152f35b6001600160a01b038116036104fd57565b346104fd5760403660031901126104fd576004356105a681610578565b602435906105b2613144565b6001600160a01b0381161561066357336000908152600e602052604090206105de906145de565b6145de565b8211610651576105fe6105ef6144e0565b6105f7614562565b908461462e565b91821561063c578261060f92613174565b9061062760016000805160206153c683398151915255565b604080519182526020820192909252f35b0390f35b60405160016245ddc760e11b03198152600490fd5b604051632418411f60e11b8152600490fd5b6040516208978560e71b8152600490fd5b346104fd5760203660031901126104fd576004356000526000805160206153a68339815191526020526020600160406000200154604051908152f35b346104fd5760003660031901126104fd576001546040516001600160a01b039091168152602090f35b346104fd5760003660031901126104fd576106f2612d1a565b80156107545760015465ffffffffffff8160a01c1691600019810190811161074f576107219160d01c9061273e565b810180911161074f57610736610638916132fc565b60405165ffffffffffff90911681529081906020820190565b61270c565b604051639fa56a5b60e01b8152600490fd5b600435906001600160401b03821682036104fd57565b9181601f840112156104fd578235916001600160401b0383116104fd57602083818601950101116104fd57565b346104fd5760403660031901126104fd576107c2610766565b6001600160401b036024358181116104fd576107e290369060040161077c565b50506107ec613144565b7f00000000000000000000000000000000000000000000000000000000000000006001600160a01b0316330361086a576000805160206153e6833981519152549060ff8260401c1692831561085a575b50505061084857600080fd5b60405163f92ee8a960e01b8152600490fd5b811691161015905038808061083c565b604051631966391b60e11b8152600490fd5b65ffffffffffff8116036104fd57565b634e487b7160e01b600052604160045260246000fd5b606081019081106001600160401b038211176108bd57604052565b61088c565b604081019081106001600160401b038211176108bd57604052565b608081019081106001600160401b038211176108bd57604052565b90601f801991011681019081106001600160401b038211176108bd57604052565b6040519061016082018281106001600160401b038211176108bd57604052565b60405190610946826108c2565b565b6001600160401b0381116108bd57601f01601f191660200190565b92919261096f82610948565b9161097d60405193846108f8565b8294818452818301116104fd578281602093846000960137010152565b9080601f830112156104fd578160206109b593359101610963565b90565b346104fd5760603660031901126104fd576004356109d581610578565b602435906109e28261087c565b604435906001600160401b0382116104fd57602092610a08610a2593369060040161099a565b6001600160a01b039092166000908152600e8552604090206134e1565b604051908152f35b346104fd5760003660031901126104fd576040517f00000000000000000000000000000000000000000000000000000000000000006001600160a01b03168152602090f35b346104fd5760403660031901126104fd57610ac1602435600435610a9582610578565b806000526000805160206153a6833981519152602052610abc6001604060002001546136bb565b6139cb565b005b346104fd5760403660031901126104fd57602435610ae081610578565b336001600160a01b03821603610afc57610ac190600435613a05565b60405163334bd91960e11b8152600490fd5b346104fd5760003660031901126104fd5760ff60025460a01c1680610b3b575b6020906040519015158152f35b5060035460a01c60ff16610b2e565b801515036104fd57565b346104fd5760203660031901126104fd57600435610b7181610b4a565b610b79613144565b610b816135ad565b600054901515908160ff8216151514610be05760ff191660ff8216176000556040519081527f3e12b7b36c75ac9609a3f58609b331210428e1a85909132638955ba0301eec3390602090a160016000805160206153c683398151915255005b60405163a741a04560e01b8152600490fd5b346104fd5760003660031901126104fd57602065ffffffffffff60015460a01c16604051908152f35b346104fd576040806003193601126104fd576004803591610c3b83610578565b610c43613144565b6001600160a01b0391838316908115610ed35760005460ff811680610eb9575b610eaa5783516370a0823160e01b808252308483019081529096602093909160109190911c82169084908490819083010381845afa928315610e8257600093610e87575b50610cb9906024359030903390613a9d565b60005486519788523085890190815290979184918391908290819060200103918b60101c165afa908115610e8257610cfa93600092610e55575b5050612731565b938415610e465760081c60ff1680610e31575b610e2357509061063891610dc0610d226144e0565b95610d6b610d2e614562565b610d56610d3c8a838b61462e565b99610d508a610d4a426132fc565b9261275f565b90613bff565b5050610d6589610d4a426132fc565b90613ce3565b50506001600160a01b0381166000908152600e6020526040902090610dba88610db56105d9610d99426132fc565b6001600160a01b039095166000908152600e6020526040902090565b61275f565b91613dc3565b505081518481526020810186905233907fdcbc1c05240f31ff3ad067ef1ee35ce4997762752e3a095284754544f4c709d790604090a3610e0d60016000805160206153c683398151915255565b5191825260208201929092529081906040820190565b8251632484557960e01b8152fd5b50610e3e84610db56144e0565b815410610d0d565b50825163070f6eed60e11b8152fd5b610e749250803d10610e7b575b610e6c81836108f8565b81019061278e565b3880610cf3565b503d610e62565b61279d565b610cb9919350610ea390853d8711610e7b57610e6c81836108f8565b9290610ca7565b5082516304f63b8560e01b8152fd5b503360009081526005602052604090205460ff1615610c63565b8251630d534ce360e11b8152fd5b346104fd5760003660031901126104fd57602060ff600054166040519015158152f35b346104fd5760003660031901126104fd57602060015460d01c604051908152f35b346104fd5760003660031901126104fd57602060ff60025460a01c166040519015158152f35b9060406003198301126104fd57600435610f648161087c565b91602435906001600160401b0382116104fd576109b59160040161099a565b346104fd576020610a25610f9636610f4b565b90613357565b346104fd5760203660031901126104fd57600435610fb981610b4a565b610fc1613144565b610fc961360b565b600054901515908160ff8260081c16151514610be05761ff001916600882901b61ff0016176000556040519081527ffa7a25a0b611d4ba3c0ea990e90dc23d484a5dd7a1be4733fef2946ba74530c690602090a1610ac160016000805160206153c683398151915255565b346104fd5760003660031901126104fd5760206001600160401b036000805160206153e68339815191525416604051908152f35b346104fd5760203660031901126104fd576004356110858161087c565b7f00000000000000000000000000000000000000000000000000000000000000006001600160a01b031633036110db576110be90613ea7565b60408051941515855263ffffffff91909116602085015292915050f35b604051637ca475e560e11b8152600490fd5b346104fd5760603660031901126104fd57611106610766565b60243561111281610578565b6001600160401b03916044358381116104fd5761113390369060040161077c565b6000805160206153e68339815191529491855494838616806112175760ff8760401c1690811561120a575b50610848577fc7f505b2f371ae2175ee4913f4499e1f2633a7b5936321eed1cdaeb6115181d296611205966111cc958716906001600160401b0319161790556111c76000805160206153e6833981519152600160401b68ff000000000000000019825416179055565b6127a9565b6000805160206153e6833981519152805468ff0000000000000000191690556040516001600160401b0390911681529081906020820190565b0390a1005b905084861611153861115e565b60405162dc149f60e41b8152600490fd5b346104fd5760203660031901126104fd576020610a2560043561124a81610578565b612bcf565b346104fd5760203660031901126104fd5760043560005260066020526020604060002054604051908152f35b346104fd5760003660031901126104fd5760015465ffffffffffff6112b2818360a01c16926112a8612d1a565b9060d01c9061273e565b820180921161074f576112c66020926132fc565b60405191168152f35b60409060031901126104fd576004356112e781610578565b906024356109b58161087c565b60005b8381106113075750506000910152565b81810151838201526020016112f7565b90602091611330815180928185528580860191016112f4565b601f01601f1916010190565b346104fd57610638611356611350366112cf565b90612c5e565b604051918291602083526020830190611317565b346104fd5760203660031901126104fd576004356113878161087c565b7f00000000000000000000000000000000000000000000000000000000000000006001600160a01b031633036110db576110be90613fb5565b346104fd5760003660031901126104fd576040517f00000000000000000000000000000000000000000000000000000000000000006001600160a01b03168152602090f35b346104fd5760003660031901126104fd57602060ff60035460a01c166040519015158152f35b346104fd576000806003193601126114965761144561431a565b60008051602061534683398151915280546001600160a01b0319811690915581906001600160a01b03167f8be0079c531659141344cd1fd0a4f28419497f9722a3daafe3b4186f6b6457e08280a380f35b80fd5b346104fd5760403660031901126104fd576004356024356114b98161087c565b6114c1613144565b6003546114de906001600160a01b03165b6001600160a01b031690565b3303611763576114ec612d1a565b906114f681612d4e565b9082151580611752575b8015611749575b61173757610638937ff9d090c096f71cd1659861a9ce5b6f384bceb4e2fa4e4a19edf6489a9b8d56c7926115396144e0565b9461155661154682612751565b6000526006602052604060002090565b549082810361164c575061156a818761275f565b6115748185614353565b968780611605575b50505050505b836115d0575b6040805191825265ffffffffffff929092166020820152908101839052606090a16115c060016000805160206153c683398151915255565b6040519081529081906020820190565b6000546116009085906115ee9060101c6001600160a01b03166114d2565b6001546001600160a01b031690614404565b611588565b61164193610cf383610d5061162b6116246115469861163b988861436f565b8096612731565b94611635426132fc565b92612731565b92612751565b55388080808761157c565b9150611662826000526006602052604060002090565b549061167281610db5848a61275f565b9061167d8286614353565b978861168e575b5050505050611582565b61170593836116b6936116c38c6116be6116ac6116f499888461436f565b978895858461436f565b948592612731565b612731565b93848410611710575b610cf390610d506116e2959697611635426132fc565b6116ee61154687612751565b55612731565b916000526006602052604060002090565b553880808080611684565b9161172c610cf391611726866116e29798612731565b9061275f565b8594509290506116cc565b604051635e18d2a560e01b8152600490fd5b50828211611507565b5061175c83612722565b8210611500565b60405163dabc4ad960e01b8152600490fd5b346104fd5760003660031901126104fd5760015465ffffffffffff808260a01c169161179f612d1a565b6001810180911161074f576112b29160d01c9061273e565b346104fd5760003660031901126104fd576020610a25612d1a565b346104fd5760203660031901126104fd576004356117ef81610578565b60018060a01b03166000526005602052602060ff604060002054166040519015158152f35b346104fd5760203660031901126104fd576020610a256004356118368161087c565b612d4e565b346104fd5760403660031901126104fd5760043561185881610578565b6024356001600160401b038082116104fd57366023830112156104fd5781600401359081116104fd573660248260051b840101116104fd576106389260246115c0930190612d89565b346104fd576020610a256118b436610f4b565b9061342c565b346104fd576106386113566118ce366112cf565b90612ebc565b346104fd576020806003193601126104fd5760048035906118f482610578565b6118fc613144565b60025460a01c60ff16611a82576040516302910f8b60e31b81526001600160a01b03838116838301908152909491908290829081906020010381887f0000000000000000000000000000000000000000000000000000000000000000165afa908115610e8257600091611a55575b5015611a455760405163fbfa77cf60e01b8152838516949082818581895afa928315610e8257600093611a16575b505030911603611a075750600280546001600160a01b03929092166001600160a81b031990921691909117600160a01b1790557fdb2160616f776a37b24808115554e79439bf26cccbbd4438190cc6d28e80ecd1600080a2610ac160016000805160206153c683398151915255565b60405163b9f0f17160e01b8152fd5b611a36929350803d10611a3e575b611a2e81836108f8565b810190612f13565b903880611998565b503d611a24565b506040516324e5af8d60e21b8152fd5b611a759150823d8411611a7b575b611a6d81836108f8565b810190612ef3565b3861196a565b503d611a63565b604051631380833b60e01b8152fd5b346104fd5760003660031901126104fd576040517f00000000000000000000000000000000000000000000000000000000000000006001600160a01b03168152602090f35b346104fd5760008060031936011261149657611af0612d1a565b611af86144e0565b9181815260066020526040812054830180931161074f576001820180921161074f57604091815260066020522054810180911161074f57602090604051908152f35b346104fd5760003660031901126104fd57600080516020615346833981519152546040516001600160a01b039091168152602090f35b346104fd5760403660031901126104fd57602060ff611bc7602435611b9481610578565b6004356000526000805160206153a6833981519152845260406000209060018060a01b0316600052602052604060002090565b54166040519015158152f35b346104fd5760203660031901126104fd57600435611bf081610578565b60018060a01b0316600052600e6020526020610a2560406000206145de565b346104fd5760403660031901126104fd57600435611c2c81610578565b6024356001600160401b0381116104fd57600091611c4f8392369060040161077c565b90816040519283928337810184815203915af4611c9c611c6d612f28565b91611c8e604051938492151560208401526040808401526060830190611317565b03601f1981018352826108f8565b805190602001fd5b346104fd5760003660031901126104fd57602060ff60005460081c166040519015158152f35b346104fd5760003660031901126104fd57602060405160008152f35b346104fd5760003660031901126104fd5760206040517f4a634bc14d77baf979756509ef4298c6f6318af357828612545267ee2eb792338152f35b346104fd5760403660031901126104fd57600435611d3e81610578565b602435611d4a81610b4a565b611d52613144565b611d5a613663565b6001600160a01b038216918215611e055760008381526005602052604090205460ff16151582151514610be0576001600160a01b031660009081526005602052604090207ff991b1ecfb5115cbb36a2b2e2240c058406d2acc2fcc6e9e2dc99d845ff70a6291611deb91611dd9908260ff801983541691151516179055565b60405190151581529081906020820190565b0390a2610ac160016000805160206153c683398151915255565b604051630da30f6560e31b8152600490fd5b346104fd5760403660031901126104fd576020611e5f602435611e3981610578565b6004356000526008835260406000209060018060a01b0316600052602052604060002090565b54604051908152f35b346104fd5760403660031901126104fd57602060ff611bc7602435611e8c81610578565b6004356000526009845260406000209060018060a01b0316600052602052604060002090565b346104fd576020806003193601126104fd576004803590611ed282610578565b611eda613144565b60035460a01c60ff1661205e576001600160a01b03828116939084611f4a575b6003805460ff60a01b1916600160a01b179055847fe7e4c932e03abddfe20f83af42c33627e816115c7ec2b168441f65dc14bfc3ba600080a2610ac160016000805160206153c683398151915255565b6040516302910f8b60e31b81526001600160a01b0385168482019081528390829081906020010381857f0000000000000000000000000000000000000000000000000000000000000000165afa908115610e8257600091612041575b50156120305760405163fbfa77cf60e01b815282818581895afa928315610e8257600093612011575b5050309116036120025750600380546001600160a01b0319166001600160a01b0390921691909117905538808080611efa565b604051633f3e089160e21b8152fd5b612028929350803d10611a3e57611a2e81836108f8565b903880611fcf565b60405163dabc4ad960e01b81528390fd5b6120589150833d8511611a7b57611a6d81836108f8565b38611fa6565b60405163703fe2e560e01b8152fd5b346104fd5760403660031901126104fd5760043561208a81610578565b60243590612096613144565b6001600160a01b039181831690811561211e576120c8610638946120b983614442565b94859160005460101c16614404565b604080519182526020820184905233917f865ca08d59f5cb456e85cd2f7ef63664ea4f73327414e9d8152c4158b0e946459190a360016000805160206153c6833981519152556040519081529081906020820190565b604051634e46966960e11b8152600490fd5b346104fd5760203660031901126104fd5760043560005260076020526020604060002054604051908152f35b346104fd5760003660031901126104fd576003546040516001600160a01b039091168152602090f35b346104fd5760003660031901126104fd576020610a256144e0565b346104fd5760203660031901126104fd576004356121bc613144565b3360009081527f2d4ccbfe9f7672a6f2537c1e5bce6adacb73706879154bbab6ce096012d6721660205260409020547f4a634bc14d77baf979756509ef4298c6f6318af357828612545267ee2eb792339060ff161561226257508060045414610be0576020817f854df3eb95564502c8bc871ebdd15310ee26270f955f6c6bd8cea68e75045bc092600455604051908152a160016000805160206153c683398151915255005b6044906040519063e2517d3f60e01b82523360048301526024820152fd5b346104fd5760003660031901126104fd576020610a25614562565b346104fd5760203660031901126104fd576004356122b881610578565b6122c0612d1a565b6122c982612bcf565b916122d48183613016565b830180931161074f576001820180921161074f576122f191613016565b810180911161074f57602090604051908152f35b346104fd5760003660031901126104fd576002546040516001600160a01b039091168152602090f35b346104fd5760403660031901126104fd57610ac160243560043561235182610578565b806000526000805160206153a68339815191526020526123786001604060002001546136bb565b613a05565b346104fd5760003660031901126104fd5760005460405160109190911c6001600160a01b03168152602090f35b346104fd5760003660031901126104fd5760206040517fbae4ee3de6c709ff9a002e774c5b78cb381560b219213c88ae0f1e207c03c0238152f35b60609060031901126104fd576004356123fd81610578565b9060243561240a81610578565b906044356109b58161087c565b346104fd5761063861135661242b366123e5565b91612f58565b346104fd5761243f366112cf565b6001600160a01b037f0000000000000000000000000000000000000000000000000000000000000000811633036110db576110be9216600052600e6020526040600020614080565b346104fd5760003660031901126104fd576020600454604051908152f35b346104fd5760603660031901126104fd576004356124c281610578565b602435906124cf8261087c565b6001600160401b03916044358381116104fd576124f090369060040161077c565b90926040938451612500816108a2565b6060815260606020820152606086820152928061255f575b61063886612550878761254a612531898484519161276c565b928561254160208501518361342c565b93015190613357565b9161462e565b90519081529081906020820190565b81019392506020818503126104fd578035908682116104fd5701926060848203126104fd57845195612590876108a2565b84358181116104fd57826125a591870161099a565b875260208501358181116104fd57826125bf91870161099a565b6020880152858501359081116104fd57610638966125e861254a9361253193612550980161099a565b87820152939450612518565b346104fd5760203660031901126104fd57610ac160043561261481610578565b61261c61431a565b612fa2565b346104fd5760403660031901126104fd5760043561263e81610578565b602435612649613144565b6001600160a01b038216156106635780156126b657612678612669614562565b6126716144e0565b9083614a67565b336000908152600e60205260409020909290612693906145de565b83116126a45761060f918391613174565b6040516321727a3760e11b8152600490fd5b604051636c6c627d60e11b8152600490fd5b346104fd5760403660031901126104fd576020610a256024356126ea81610578565b600435613016565b346104fd57610638611356612706366123e5565b9161307b565b634e487b7160e01b600052601160045260246000fd5b60001981019190821161074f57565b9190820391821161074f57565b8181029291811591840414171561074f57565b906001820180921161074f57565b9190820180921161074f57565b6001600160a01b03166000908152600e602052604090206109b59291906134e1565b908160209103126104fd575190565b6040513d6000823e3d90fd5b916127fc916127ed916127ba614ee8565b6127c2614ee8565b60016000805160206153c6833981519152556001600160a01b0394808616612bb5575b503691610963565b60208082518301019101614170565b805182166001600160a01b031615612ba357604080820165ffffffffffff61282a825165ffffffffffff1690565b1615612b925760c08301805190929061284b906001600160a01b03166114d2565b15612a43575b509161298f6101409261292a6129056129ed966128a0612877875160018060a01b031690565b6000805462010000600160b01b03191660109290921b62010000600160b01b0316919091179055565b6020860151600180546001600160a01b0319166001600160a01b039092169190911790556128f96128d0426132fc565b6001805465ffffffffffff60a01b191660a09290921b65ffffffffffff60a01b16919091179055565b5165ffffffffffff1690565b600180546001600160d01b031660d09290921b6001600160d01b031916919091179055565b61294c61293a6060850151151590565b60ff8019600054169115151617600055565b61297561295c6080850151151590565b61ff0060005491151560081b169061ff00191617600055565b61298260a0840151600455565b516001600160a01b031690565b848116612a33575b5060e08101516001600160a01b0316848116612a23575b506101008101516001600160a01b0316848116612a13575b506101208101516001600160a01b0316848116612a03575b5001516001600160a01b031690565b9081166129f75750565b612a009061395a565b50565b612a0c906138e9565b50386129de565b612a1c90613878565b50386129c6565b612a2c9061379e565b50386129ae565b612a3c906136e9565b5038612997565b60e0840151612a5a906001600160a01b03166114d2565b15612b2f575b610120840151612a78906001600160a01b03166114d2565b61285157608084015115612ae55760a08401511580612ac6575b612ab657509161298f6101409261292a6129056129ed965b94965050509250612851565b5163183c854560e21b8152600490fd5b50610140840151612adf906001600160a01b03166114d2565b15612a92565b60a084015115801590612b0f575b612ab657509161298f6101409261292a6129056129ed96612aaa565b50610140840151612b28906001600160a01b03166114d2565b1515612af3565b606084015115612b6557610100840151612b51906001600160a01b03166114d2565b612a60575163183c854560e21b8152600490fd5b610100840151612b7d906001600160a01b03166114d2565b15612a60575163183c854560e21b8152600490fd5b81516368f5f8f160e11b8152600490fd5b6040516368f7a67560e11b8152600490fd5b612bc990612bc1614ee8565b61261c614ee8565b386127e5565b6001600160a01b03166000908152600e60205260409020612bef906145de565b612bf76144e0565b612bff614562565b906001810180911161074f576001820180921161074f576109b59261436f565b519061094682610b4a565b519063ffffffff821682036104fd57565b91908260409103126104fd576109b560208351612c5781610b4a565b9301612c2a565b9190612c9a612ca99160609465ffffffffffff604051926367567add60e01b602085015216602483015260248252612c95826108a2565b614239565b60208082518301019101612c3b565b90612cb15750565b90915063ffffffff60405191166020820152602081526109b5816108c2565b65ffffffffffff918216908216039190821161074f57565b634e487b7160e01b600052601260045260246000fd5b9065ffffffffffff809116918215612d1557160490565b612ce8565b612d23426132fc565b612d4a600154612d4065ffffffffffff93848360a01c1690612cd0565b9060d01c90612cfe565b1690565b6001549065ffffffffffff91828160a01c16918284821610612d7757612d4a92612d4091612cd0565b60405163b7d0949760e01b8152600490fd5b90612d92613144565b6000926001600160a01b03831692831561211e578115612e4d57845b828110612e2b57506000547f326b6aff1cd2fb1c8234de4f9dcfb9047c5c36eb9ef2eb34af5121e969a75d279286929091612dff918491612dfa9060101c6001600160a01b03166114d2565b614404565b612e10604051928392339684612e8a565b0390a39061094660016000805160206153c683398151915255565b94612e46600191611726612e40898789612e75565b35614442565b9501612dae565b60405163edf3b93360e01b8152600490fd5b634e487b7160e01b600052603260045260246000fd5b9190811015612e855760051b0190565b612e5f565b604080825281018390529392916001600160fb1b0381116104fd5760209160609160051b809183880137850101930152565b9190612c9a612ca99160609465ffffffffffff60405192632ad1633960e11b602085015216602483015260248252612c95826108a2565b908160209103126104fd57516109b581610b4a565b519061094682610578565b908160209103126104fd57516109b581610578565b3d15612f53573d90612f3982610948565b91612f4760405193846108f8565b82523d6000602084013e565b606090565b604051631d6aac4760e31b60208201526001600160a01b03909216602483015265ffffffffffff909216604480830191909152815260609291612ca991612c9a91612c95826108dd565b6001600160a01b03908116908115612ffd5760008051602061534683398151915280546001600160a01b031981168417909155167f8be0079c531659141344cd1fd0a4f28419497f9722a3daafe3b4186f6b6457e0600080a3565b604051631e4fbdf760e01b815260006004820152602490fd5b906130409082600052600860205260406000209060018060a01b0316600052602052604060002090565b549060005260066020526040600020546007602052604060002054906001810180911161074f576001820180921161074f576109b59261436f565b929190926130a061308f8360609684612f58565b9261309a8184612c5e565b92612ebc565b9082511580159061313a575b8015613130575b6130bc57505050565b6131099394506109b59291611c8e91604051936130d8856108a2565b8452602084019081526040840191825261311f604051968795602080880152516060604088015260a0870190611317565b915191603f199283878303016060880152611317565b915190848303016080850152611317565b50815115156130b3565b50805115156130ac565b6000805160206153c683398151915260028154146131625760029055565b604051633ee5aeb560e01b8152600490fd5b336000908152600e6020526040902093929190613190426132fc565b336000908152600e602052604090206131a8906145de565b9184830392831161074f576131e37febff2602b3f468259e1e99f613fed6691f3a6526effe6ef3e768ba7ae7a36c4f93859361327299613dc3565b50506131fd6131f1426132fc565b610d65876116be614562565b505061321761320b426132fc565b610d50846116be6144e0565b50506132c8816132b161323061322b612d1a565b612751565b61328c613247826000526006602052604060002090565b5461325c836000526007602052604060002090565b5461326882828b61462e565b9d8e998a9361275f565b613286856000526006602052604060002090565b5561275f565b6132a0826000526007602052604060002090565b556000526008602052604060002090565b9060018060a01b0316600052602052604060002090565b6132d383825461275f565b9055604080519485526020850195909552938301526001600160a01b03909216913391606090a3565b65ffffffffffff9081811161330f571690565b604490604051906306dfcc6560e41b8252603060048301526024820152fd5b908160209103126104fd576109b590612c2a565b90600163ffffffff8093160191821161074f57565b9080511561342257806020806133729351830101910161332e565b61337b81614885565b9061338c825165ffffffffffff1690565b9065ffffffffffff808516921682811461341657821191826133c2575b50506133b957506109b59061464f565b60209150015190565b9091506133d0600a54612722565b63ffffffff8316149182156133e9575b505038806133a9565b61340e9192506128f96133fe61340392613342565b614885565b65ffffffffffff1690565b1138806133e0565b50505060209150015190565b506109b59061464f565b908051156134d757806020806134479351830101910161332e565b6134508161490e565b90613461825165ffffffffffff1690565b9065ffffffffffff8085169216828114613416578211918261348e575b50506133b957506109b590614705565b90915061349c600c54612722565b63ffffffff8316149182156134b5575b5050388061347e565b6134cf9192506128f96134ca61340392613342565b61490e565b1138806134ac565b506109b590614705565b918051156135a357806020806134fc9351830101910161332e565b91613507838261498d565b92613518845165ffffffffffff1690565b9065ffffffffffff8085169216828114613597578211918261354e575b5050613545576109b592506147b4565b50506020015190565b90915061355b8354612722565b63ffffffff831614918215613574575b50503880613535565b61358f9192506128f961358961340392613342565b8561498d565b11388061356b565b50505050506020015190565b506109b5916147b4565b3360009081527f03b26b53c87faa1058f30bb5d2fee64f717719a0d9b7e4f4df027aa5e9b6ed69602052604090207fbae4ee3de6c709ff9a002e774c5b78cb381560b219213c88ae0f1e207c03c0239060ff905b5416156122625750565b3360009081527fe41986b390c4ce6791b87f7423b5fab7a81a0e6d89660b6264f697d008b2243a602052604090207fc6aaadd7371d5e8f9ed6849dd66a66573a3ba37167d03f4352c9ba5693678fac9060ff90613601565b3360009081527f0287ab4cb376ea253d7b2ce0c2cbf458f7deae9458470d74afdfbbee484e9540602052604090207f9c56d972d63cbb4195b3c1484691dfc220fa96a4c47e7b6613bd82a022029e069060ff90613601565b60008181526000805160206153a683398151915260209081526040808320338452909152902060ff90613601565b6001600160a01b03811660009081527fb7db2dd08fcb62d0c9e08c51941cae53c267786a0b75803fb7960902fc8ef97d60205260408120546000805160206153a68339815191529060ff1661379857818052602090815260408083206001600160a01b038516600090815292529020805460ff1916600117905533916001600160a01b0316907f2f8788117e7eff1d82e926ec794901d17c78024a50270940304540a733656f0d8180a4600190565b50905090565b6001600160a01b03811660009081527f03b26b53c87faa1058f30bb5d2fee64f717719a0d9b7e4f4df027aa5e9b6ed69602052604081207fbae4ee3de6c709ff9a002e774c5b78cb381560b219213c88ae0f1e207c03c023906000805160206153a68339815191529060ff905b541661387157818352602090815260408084206001600160a01b038616600090815292529020805460ff1916600117905533926001600160a01b0316917f2f8788117e7eff1d82e926ec794901d17c78024a50270940304540a733656f0d9080a4600190565b5050905090565b6001600160a01b03811660009081527f0287ab4cb376ea253d7b2ce0c2cbf458f7deae9458470d74afdfbbee484e9540602052604081207f9c56d972d63cbb4195b3c1484691dfc220fa96a4c47e7b6613bd82a022029e06906000805160206153a68339815191529060ff9061380b565b6001600160a01b03811660009081527fe41986b390c4ce6791b87f7423b5fab7a81a0e6d89660b6264f697d008b2243a602052604081207fc6aaadd7371d5e8f9ed6849dd66a66573a3ba37167d03f4352c9ba5693678fac906000805160206153a68339815191529060ff9061380b565b6001600160a01b03811660009081527f2d4ccbfe9f7672a6f2537c1e5bce6adacb73706879154bbab6ce096012d67216602052604081207f4a634bc14d77baf979756509ef4298c6f6318af357828612545267ee2eb79233906000805160206153a68339815191529060ff9061380b565b60008181526000805160206153a6833981519152602081815260408084206001600160a01b0387168552909152822091929160ff9061380b565b60008181526000805160206153a6833981519152602081815260408084206001600160a01b038716855290915282205491929160ff161561387157818352602090815260408084206001600160a01b038616600090815292529020805460ff1916905533926001600160a01b0316917ff6391f5c32d9c69d2a47ea670b442974b53935d1edc7fd64eb21e047a839171b9080a4600190565b6040516323b872dd60e01b60208201526001600160a01b03928316602482015292909116604483015260648083019390935291815260a08101918183106001600160401b038411176108bd57610946926040526149f5565b600b54811015612e8557600b6000526000805160206153868339815191520190600090565b600d54811015612e8557600d6000526000805160206153668339815191520190600090565b8054821015612e855760005260206000200190600090565b600d54600160401b8110156108bd576001810180600d55811015612e8557600d6000526000805160206153668339815191520155565b600b54600160401b8110156108bd576001810180600b55811015612e8557600b6000526000805160206153868339815191520155565b90815491600160401b8310156108bd5782613be691600161094695018155613b3f565b90919082549060031b91821b91600019901b1916179055565b919091600d9081548015613cac575b50613c17614aa7565b50929091815492613c266144e0565b9481613c97575b5015613c745750600019820182811161074f5781541115612e85576000527fd7b6990105719101dabeb77144f2a3385c8033acd3af97e9423a695e81ad1eb4018390559190565b613c88926001600160d01b03169150615027565b5050613c9383613b57565b9190565b65ffffffffffff838116911614905038613c2d565b600160401b8110156108bd5760018101808455811015612e8557600090838252600080516020615366833981519152015538613c0e565b919091600b9081548015613d8c575b50613cfb614b17565b50929091815492613d0a614562565b9481613d77575b5015613d585750600019820182811161074f5781541115612e85576000527f0175b7a638427703f0dbe7bb9bbf987a2551717b34e79f33b5b1008d1fa01db8018390559190565b613d6c926001600160d01b03169150615123565b5050613c9383613b8d565b65ffffffffffff838116911614905038613d11565b600160401b8110156108bd5760018101808455811015612e8557600090838252600080516020615386833981519152015538613cf2565b90929192600182019081548015613e52575b5084613de084614b66565b50949092845493613df0836145de565b9681613e3d575b5015613e1a57505050600019810190811161074f57613be68591613c9393613b3f565b613c93949293613e36926001600160d01b0390911691906151cd565b5050613bc3565b65ffffffffffff838116911614905038613df7565b600160401b8110156108bd57806001613e6e9201845583613b3f565b8154906000199060031b1b1916905538613dd5565b90604051613e90816108c2565b915465ffffffffffff8116835260301c6020830152565b600a54906000829160058411613f59575b613ec29350614cd4565b8015613f4a57613ef4613eef613ed783612722565b600a6000526000805160206153268339815191520190565b613e83565b91613f43613f3a613f34613f2a613f256020613f16895165ffffffffffff1690565b9801516001600160d01b031690565b613af5565b90549060031b1c90565b93612722565b63ffffffff1690565b6001939291565b50600090600090600090600090565b9192613f6481614b9a565b810390811161074f57600a600052600080516020615326833981519152810154613ec2949065ffffffffffff9081169085161015613fa3575091613eb8565b929150613faf90612751565b90613eb8565b600c54906000829160058411614024575b613fd09350614d40565b8015613f4a57613ffd613eef613fe583612722565b600c6000526000805160206153068339815191520190565b91613f43613f3a613f34613f2a61401f6020613f16895165ffffffffffff1690565b613b1a565b919261402f81614b9a565b810390811161074f57600c600052600080516020615306833981519152810154613fd0949065ffffffffffff908116908516101561406e575091613fc6565b92915061407a90612751565b90613fc6565b91908254906000829160058411614107575b61409d935085614e84565b9081156140fa57613f43613f3a613f34613f2a6140cc613eef6140bf88612722565b8960005260206000200190565b9660016140f360206140e48b5165ffffffffffff1690565b9a01516001600160d01b031690565b9101613b3f565b6000925082915081908190565b919261411281614b9a565b810390811161074f5761409d938660005261413d6134038360206000200165ffffffffffff90541690565b65ffffffffffff85161015614153575091614092565b92915061415f90612751565b90614092565b51906109468261087c565b90816101609103126104fd57614184610919565b9061418e81612f08565b825261419c60208201612f08565b60208301526141ad60408201614165565b60408301526141be60608201612c1f565b60608301526141cf60808201612c1f565b608083015260a081015160a08301526141ea60c08201612f08565b60c08301526141fb60e08201612f08565b60e083015261010061420e818301612f08565b90830152610120614220818301612f08565b90830152614232610140809201612f08565b9082015290565b60409182519060209161426d81611c8e85820194639f86fd8560e01b86523060248401528860448401526064830190611317565b6000938492839251915afa50614281612f28565b805181019380828487019603126143165782820151916142a083610b4a565b81810151906001600160401b03821161430e570185603f820112156143125783810151916142cd83610948565b966142da825198896108f8565b83885281848401011161430e576142f6929187860191016112f4565b1561430057505090565b825192918315611496575001fd5b8580fd5b8480fd5b8380fd5b600080516020615346833981519152546001600160a01b0316330361433b57565b60405163118cdaa760e01b8152336004820152602490fd5b9080821015614360575090565b905090565b8115612d15570490565b909182820291600019848209938380861095039480860395146143f757848311156143e55782910981600003821680920460028082600302188083028203028083028203028083028203028083028203028083028203028092029003029360018380600003040190848311900302920304170290565b60405163227bc15360e01b8152600490fd5b5050906109b59250614365565b60405163a9059cbb60e01b60208201526001600160a01b0390921660248301526044808301939093529181526109469161443d826108dd565b6149f5565b9061444b612d1a565b8210156144ce57600082815260096020908152604080832033845290915290205460ff166144bc5761447d3383613016565b9182156144aa5760009081526009602090815260408083203384529091529020805460ff19166001179055565b6040516366c0bcbf60e11b8152600490fd5b604051630c8d9eab60e31b8152600490fd5b60405163d5b25b6360e01b8152600490fd5b600c546000908061452857505060005b6001600160d01b0381161561452257600d54811015612e8557600d600052600080516020615366833981519152015490565b50600090565b8060001981011161074f57600c7fdf6966c971051c3d54ec59162606531493a51404a002842f56009d7e5cf4a8c69252015460301c6144f0565b600a54600090806145a457505060005b6001600160d01b0381161561452257600b54811015612e8557600b600052600080516020615386833981519152015490565b8060001981011161074f57600a7fc65a7bb8d6351c1cf70c95a316cc6a92839c986682d98bc35f958f4883f9d2a79252015460301c614572565b80546000908061460f57505060005b6001600160d01b03811615614608576001613f2a9201613b3f565b5050600090565b60001991818381011161074f578084602092522001015460301c6145ed565b91906001810180911161074f576001820180921161074f576109b59261436f565b600a549060008291600584116146a9575b61466a9350614dac565b8061468e575060005b6001600160d01b0381161561452257613f2a6109b591613af5565b61469d613ed76146a492612722565b5460301c90565b614673565b91926146b481614b9a565b810390811161074f5761466a93600a60005265ffffffffffff8083600080516020615326833981519152015416908516106000146146f3575091614660565b9291506146ff90612751565b90614660565b600c54906000829160058411614758575b6147209350614e18565b80614744575060005b6001600160d01b0381161561452257613f2a6109b591613b1a565b61469d613fe561475392612722565b614729565b919261476381614b9a565b810390811161074f5761472093600c60005265ffffffffffff8083600080516020615306833981519152015416908516106000146147a2575091614716565b9291506147ae90612751565b90614716565b90815490600082916005841161481b575b6147d0935084614e84565b806147f957506000905b6001600160d01b03821615614608576109b5916001613f2a9201613b3f565b61469d61480861481592612722565b8360005260206000200190565b906147da565b919261482681614b9a565b810390811161074f576147d0938560005265ffffffffffff808360206000200154169085161060001461485a5750916147c5565b92915061486690612751565b906147c5565b60405190614879826108c2565b60006020838281520152565b61488d61486c565b5061489661486c565b50600a54811015612e85576148bf90600a60005260008051602061532683398151915201613e83565b65ffffffffffff81511690602060018060d01b0391015116600b54811015612e8557600b600052600080516020615386833981519152015460405191614904836108c2565b8252602082015290565b61491661486c565b5061491f61486c565b50600c54811015612e855761494890600c60005260008051602061530683398151915201613e83565b65ffffffffffff81511690602060018060d01b0391015116600d54811015612e8557600d600052600080516020615366833981519152015460405191614904836108c2565b906149b66149b06149d7926149a061486c565b506149a961486c565b5084613b3f565b50613e83565b91600165ffffffffffff845116936020828060d01b03910151169101613b3f565b905490604051926149e7846108c2565b835260031b1c602082015290565b600080614a1e9260018060a01b03169360208151910182865af1614a17612f28565b90836152a2565b8051908115159182614a4c575b5050614a345750565b60249060405190635274afe760e01b82526004820152fd5b614a5f9250602080918301019101612ef3565b153880614a2b565b91906001810180911161074f576001820180921161074f57614a8a82828561436f565b928215612d155709614a995790565b6001810180911161074f5790565b600c5480614abb5750600090600090600090565b8060001981011161074f577fdf6966c971051c3d54ec59162606531493a51404a002842f56009d7e5cf4a8c6614af691600c60005201613e83565b9065ffffffffffff82511691602060018060d01b0391015116906001929190565b600a5480614b2b5750600090600090600090565b8060001981011161074f577fc65a7bb8d6351c1cf70c95a316cc6a92839c986682d98bc35f958f4883f9d2a7614af691600a60005201613e83565b805480614b7a575050600090600090600090565b60001990808281011161074f57614af69260005260206000200101613e83565b80156145225780614c6d614c66614c5c614c52614c48614c3e614c34614c2a60016109b59a6000908b60801c80614cc8575b508060401c80614cbb575b508060201c80614cae575b508060101c80614ca1575b508060081c80614c94575b508060041c80614c87575b508060021c80614c7a575b50821c614c73575b811c1b614c23818b614365565b0160011c90565b614c23818a614365565b614c238189614365565b614c238188614365565b614c238187614365565b614c238186614365565b614c238185614365565b8092614365565b90614353565b8101614c16565b6002915091019038614c0e565b6004915091019038614c03565b6008915091019038614bf8565b6010915091019038614bed565b6020915091019038614be2565b6040915091019038614bd7565b91505060809038614bcc565b905b828110614ce257505090565b9091808216906001818418811c830180931161074f57600a60005265ffffffffffff808460008051602061532683398151915201541690861610600014614d2d575050915b90614cd6565b90939250810180911161074f5790614d27565b905b828110614d4e57505090565b9091808216906001818418811c830180931161074f57600c60005265ffffffffffff808460008051602061530683398151915201541690861610600014614d99575050915b90614d42565b90939250810180911161074f5790614d93565b905b828110614dba57505090565b9091808216906001818418811c830180931161074f57600a60005265ffffffffffff808460008051602061532683398151915201541690861610600014614e05575050915b90614dae565b90939250810180911161074f5790614dff565b905b828110614e2657505090565b9091808216906001818418811c830180931161074f57600c60005265ffffffffffff808460008051602061530683398151915201541690861610600014614e71575050915b90614e1a565b90939250810180911161074f5790614e6b565b91905b838210614e945750505090565b909192808316906001818518811c830180931161074f5760008681526020902083015465ffffffffffff9081169085161015614ed5575050925b9190614e87565b90949350810180911161074f5791614ece565b60ff6000805160206153e68339815191525460401c1615614f0557565b604051631afcd79f60e31b8152600490fd5b600c5490600160401b8210156108bd576001820180600c55821015612e8557600c600052805160209091015160301b65ffffffffffff191665ffffffffffff919091161760008051602061530683398151915290910155565b600a5490600160401b8210156108bd576001820180600a55821015612e8557600a600052805160209091015160301b65ffffffffffff191665ffffffffffff919091161760008051602061532683398151915290910155565b8054600160401b8110156108bd57614fe691600182018155613b3f565b61501157815160209092015160301b65ffffffffffff191665ffffffffffff92909216919091179055565b634e487b7160e01b600052600060045260246000fd5b600c549192919081156150f957615043613eef613fe584612722565b805165ffffffffffff83811694911684106150e75785602093613c9395615073613403865165ffffffffffff1690565b036150af5750615088613fe56150a193612722565b9065ffffffffffff82549181199060301b169116179055565b01516001600160d01b031690565b90506150e291506150cf6150c1610939565b65ffffffffffff9092168252565b6001600160d01b03871681850152614f17565b6150a1565b604051632520601d60e01b8152600490fd5b61511d91506151096150c1610939565b6001600160d01b0384166020820152614f17565b60009190565b600a549192919081156151a95761513f613eef613ed784612722565b805165ffffffffffff83811694911684106150e75785602093613c939561516f613403865165ffffffffffff1690565b036151845750615088613ed76150a193612722565b90506150e291506151966150c1610939565b6001600160d01b03871681850152614f70565b61511d91506151b96150c1610939565b6001600160d01b0384166020820152614f70565b80549293929190821561527e576151e9613eef61480885612722565b906151fa825165ffffffffffff1690565b65ffffffffffff848116911681106150e757613c93946020948892615228613403875165ffffffffffff1690565b0361524b57506150a19261523e61508892612722565b9060005260206000200190565b9150506150e29161526b61525d610939565b65ffffffffffff9093168352565b6001600160d01b03881682860152614fc9565b61511d925061528e61525d610939565b6001600160d01b0385166020830152614fc9565b906152c957508051156152b757805190602001fd5b604051630a12f52160e11b8152600490fd5b815115806152fc575b6152da575090565b604051639996b31560e01b81526001600160a01b039091166004820152602490fd5b50803b156152d256fedf6966c971051c3d54ec59162606531493a51404a002842f56009d7e5cf4a8c7c65a7bb8d6351c1cf70c95a316cc6a92839c986682d98bc35f958f4883f9d2a89016d09d72d40fdae2fd8ceac6b6234c7706214fd39c1cd1e609a0528c199300d7b6990105719101dabeb77144f2a3385c8033acd3af97e9423a695e81ad1eb50175b7a638427703f0dbe7bb9bbf987a2551717b34e79f33b5b1008d1fa01db902dd7bc7dec4dceedda775e58dd541e08a116c6c53815c0bd028192f7b6268009b779b17422d0df92223018b32b4d1fa46e071723d6817e2486d003becc55f00f0c57e16840df040f15088dc2f81fe391c3923bec73e23a9662efc9c229c6a00a264697066735822122035525270020ab2297a7944949abd5a008d77fb4b714e24b7fa716bb0a00a7b2064736f6c63430008190033","linkReferences":{}},"methodIdentifiers":{"DEFAULT_ADMIN_ROLE()":"a217fddf","DELEGATOR_FACTORY()":"6da3e06d","DEPOSITOR_WHITELIST_ROLE()":"1b66c9e1","DEPOSIT_LIMIT_SET_ROLE()":"a21a1df9","DEPOSIT_WHITELIST_SET_ROLE()":"db388715","FACTORY()":"2dd31000","IS_DEPOSIT_LIMIT_SET_ROLE()":"1415519b","SLASHER_FACTORY()":"87df0788","activeBalanceOf(address)":"59f769a9","activeBalanceOfAt(address,uint48,bytes)":"efb559d6","activeBalanceOfHints(address,address,uint48)":"f9e1bf6c","activeShares()":"bfefcd7b","activeSharesAt(uint48,bytes)":"50f22068","activeSharesHint(address,uint48)":"8326056f","activeSharesHintInternal(uint48)":"55a2c672","activeSharesOf(address)":"9d66201b","activeSharesOfAt(address,uint48,bytes)":"2d73c69c","activeSharesOfHint(address,address,uint48)":"de499716","activeSharesOfHintInternal(address,uint48)":"eb556238","activeStake()":"bd49c35f","activeStakeAt(uint48,bytes)":"810da75d","activeStakeHint(address,uint48)":"64b03fdc","activeStakeHintInternal(uint48)":"67567add","burner()":"27810b6e","claim(address,uint256)":"aad3ec96","claimBatch(address,uint256[])":"7c04c80a","collateral()":"d8dfeb45","currentEpoch()":"76671808","currentEpochStart()":"61a8c8c4","delegator()":"ce9b7930","deposit(address,uint256)":"47e7ef24","depositLimit()":"ecf70858","depositWhitelist()":"48d3b775","epochAt(uint48)":"7953b33b","epochDuration()":"4ff0876a","epochDurationInit()":"46361671","getRoleAdmin(bytes32)":"248a9ca3","grantRole(bytes32,address)":"2f2ff15d","hasRole(bytes32,address)":"91d14854","initialize(uint64,address,bytes)":"57ec83cc","isDelegatorInitialized()":"50861adc","isDepositLimit()":"a1b12202","isDepositorWhitelisted(address)":"794b15b7","isInitialized()":"392e53cd","isSlasherInitialized()":"6ec1e3f8","isWithdrawalsClaimed(uint256,address)":"a5d03223","migrate(uint64,bytes)":"2abe3048","nextEpochStart()":"73790ab3","onSlash(uint256,uint48)":"7278e31c","owner()":"8da5cb5b","previousEpochStart()":"281f5752","redeem(address,uint256)":"1e9a6950","renounceOwnership()":"715018a6","renounceRole(bytes32,address)":"36568abe","revokeRole(bytes32,address)":"d547741f","setDelegator(address)":"83cd9cc3","setDepositLimit(uint256)":"bdc8144b","setDepositWhitelist(bool)":"4105a7dd","setDepositorWhitelistStatus(address,bool)":"a2861466","setIsDepositLimit(bool)":"5346e34f","setSlasher(address)":"aabc2496","slashableBalanceOf(address)":"c31e8dd7","slasher()":"b1344271","staticDelegateCall(address,bytes)":"9f86fd85","supportsInterface(bytes4)":"01ffc9a7","totalStake()":"8b0e9f3f","transferOwnership(address)":"f2fde38b","version()":"54fd4d50","withdraw(address,uint256)":"f3fef3a3","withdrawalShares(uint256)":"afba70ad","withdrawalSharesOf(uint256,address)":"a3b54172","withdrawals(uint256)":"5cc07076","withdrawalsOf(uint256,address)":"f5e7ee0f"},"id":82}