{"abi":[{"type":"constructor","inputs":[],"stateMutability":"nonpayable"},{"type":"function","name":"DEFAULT_ADMIN_ROLE","inputs":[],"outputs":[{"name":"","type":"bytes32","internalType":"bytes32"}],"stateMutability":"view"},{"type":"function","name":"DELEGATOR_FACTORY","inputs":[],"outputs":[{"name":"","type":"address","internalType":"address"}],"stateMutability":"view"},{"type":"function","name":"DEPOSITOR_WHITELIST_ROLE","inputs":[],"outputs":[{"name":"","type":"bytes32","internalType":"bytes32"}],"stateMutability":"view"},{"type":"function","name":"DEPOSIT_LIMIT_SET_ROLE","inputs":[],"outputs":[{"name":"","type":"bytes32","internalType":"bytes32"}],"stateMutability":"view"},{"type":"function","name":"DEPOSIT_WHITELIST_SET_ROLE","inputs":[],"outputs":[{"name":"","type":"bytes32","internalType":"bytes32"}],"stateMutability":"view"},{"type":"function","name":"FACTORY","inputs":[],"outputs":[{"name":"","type":"address","internalType":"address"}],"stateMutability":"view"},{"type":"function","name":"IS_DEPOSIT_LIMIT_SET_ROLE","inputs":[],"outputs":[{"name":"","type":"bytes32","internalType":"bytes32"}],"stateMutability":"view"},{"type":"function","name":"SLASHER_FACTORY","inputs":[],"outputs":[{"name":"","type":"address","internalType":"address"}],"stateMutability":"view"},{"type":"function","name":"activeBalanceOf","inputs":[{"name":"account","type":"address","internalType":"address"}],"outputs":[{"name":"","type":"uint256","internalType":"uint256"}],"stateMutability":"view"},{"type":"function","name":"activeBalanceOfAt","inputs":[{"name":"account","type":"address","internalType":"address"},{"name":"timestamp","type":"uint48","internalType":"uint48"},{"name":"hints","type":"bytes","internalType":"bytes"}],"outputs":[{"name":"","type":"uint256","internalType":"uint256"}],"stateMutability":"view"},{"type":"function","name":"activeBalanceOfHints","inputs":[{"name":"vault","type":"address","internalType":"address"},{"name":"account","type":"address","internalType":"address"},{"name":"timestamp","type":"uint48","internalType":"uint48"}],"outputs":[{"name":"","type":"bytes","internalType":"bytes"}],"stateMutability":"view"},{"type":"function","name":"activeShares","inputs":[],"outputs":[{"name":"","type":"uint256","internalType":"uint256"}],"stateMutability":"view"},{"type":"function","name":"activeSharesAt","inputs":[{"name":"timestamp","type":"uint48","internalType":"uint48"},{"name":"hint","type":"bytes","internalType":"bytes"}],"outputs":[{"name":"","type":"uint256","internalType":"uint256"}],"stateMutability":"view"},{"type":"function","name":"activeSharesHint","inputs":[{"name":"vault","type":"address","internalType":"address"},{"name":"timestamp","type":"uint48","internalType":"uint48"}],"outputs":[{"name":"","type":"bytes","internalType":"bytes"}],"stateMutability":"view"},{"type":"function","name":"activeSharesHintInternal","inputs":[{"name":"timestamp","type":"uint48","internalType":"uint48"}],"outputs":[{"name":"exists","type":"bool","internalType":"bool"},{"name":"hint","type":"uint32","internalType":"uint32"}],"stateMutability":"view"},{"type":"function","name":"activeSharesOf","inputs":[{"name":"account","type":"address","internalType":"address"}],"outputs":[{"name":"","type":"uint256","internalType":"uint256"}],"stateMutability":"view"},{"type":"function","name":"activeSharesOfAt","inputs":[{"name":"account","type":"address","internalType":"address"},{"name":"timestamp","type":"uint48","internalType":"uint48"},{"name":"hint","type":"bytes","internalType":"bytes"}],"outputs":[{"name":"","type":"uint256","internalType":"uint256"}],"stateMutability":"view"},{"type":"function","name":"activeSharesOfHint","inputs":[{"name":"vault","type":"address","internalType":"address"},{"name":"account","type":"address","internalType":"address"},{"name":"timestamp","type":"uint48","internalType":"uint48"}],"outputs":[{"name":"","type":"bytes","internalType":"bytes"}],"stateMutability":"view"},{"type":"function","name":"activeSharesOfHintInternal","inputs":[{"name":"account","type":"address","internalType":"address"},{"name":"timestamp","type":"uint48","internalType":"uint48"}],"outputs":[{"name":"exists","type":"bool","internalType":"bool"},{"name":"hint","type":"uint32","internalType":"uint32"}],"stateMutability":"view"},{"type":"function","name":"activeStake","inputs":[],"outputs":[{"name":"","type":"uint256","internalType":"uint256"}],"stateMutability":"view"},{"type":"function","name":"activeStakeAt","inputs":[{"name":"timestamp","type":"uint48","internalType":"uint48"},{"name":"hint","type":"bytes","internalType":"bytes"}],"outputs":[{"name":"","type":"uint256","internalType":"uint256"}],"stateMutability":"view"},{"type":"function","name":"activeStakeHint","inputs":[{"name":"vault","type":"address","internalType":"address"},{"name":"timestamp","type":"uint48","internalType":"uint48"}],"outputs":[{"name":"","type":"bytes","internalType":"bytes"}],"stateMutability":"view"},{"type":"function","name":"activeStakeHintInternal","inputs":[{"name":"timestamp","type":"uint48","internalType":"uint48"}],"outputs":[{"name":"exists","type":"bool","internalType":"bool"},{"name":"hint","type":"uint32","internalType":"uint32"}],"stateMutability":"view"},{"type":"function","name":"burner","inputs":[],"outputs":[{"name":"","type":"address","internalType":"address"}],"stateMutability":"view"},{"type":"function","name":"claim","inputs":[{"name":"recipient","type":"address","internalType":"address"},{"name":"epoch","type":"uint256","internalType":"uint256"}],"outputs":[{"name":"amount","type":"uint256","internalType":"uint256"}],"stateMutability":"nonpayable"},{"type":"function","name":"claimBatch","inputs":[{"name":"recipient","type":"address","internalType":"address"},{"name":"epochs","type":"uint256[]","internalType":"uint256[]"}],"outputs":[{"name":"amount","type":"uint256","internalType":"uint256"}],"stateMutability":"nonpayable"},{"type":"function","name":"collateral","inputs":[],"outputs":[{"name":"","type":"address","internalType":"address"}],"stateMutability":"view"},{"type":"function","name":"currentEpoch","inputs":[],"outputs":[{"name":"","type":"uint256","internalType":"uint256"}],"stateMutability":"view"},{"type":"function","name":"currentEpochStart","inputs":[],"outputs":[{"name":"","type":"uint48","internalType":"uint48"}],"stateMutability":"view"},{"type":"function","name":"delegator","inputs":[],"outputs":[{"name":"","type":"address","internalType":"address"}],"stateMutability":"view"},{"type":"function","name":"deposit","inputs":[{"name":"onBehalfOf","type":"address","internalType":"address"},{"name":"amount","type":"uint256","internalType":"uint256"}],"outputs":[{"name":"depositedAmount","type":"uint256","internalType":"uint256"},{"name":"mintedShares","type":"uint256","internalType":"uint256"}],"stateMutability":"nonpayable"},{"type":"function","name":"depositLimit","inputs":[],"outputs":[{"name":"","type":"uint256","internalType":"uint256"}],"stateMutability":"view"},{"type":"function","name":"depositWhitelist","inputs":[],"outputs":[{"name":"","type":"bool","internalType":"bool"}],"stateMutability":"view"},{"type":"function","name":"epochAt","inputs":[{"name":"timestamp","type":"uint48","internalType":"uint48"}],"outputs":[{"name":"","type":"uint256","internalType":"uint256"}],"stateMutability":"view"},{"type":"function","name":"epochDuration","inputs":[],"outputs":[{"name":"","type":"uint48","internalType":"uint48"}],"stateMutability":"view"},{"type":"function","name":"epochDurationInit","inputs":[],"outputs":[{"name":"","type":"uint48","internalType":"uint48"}],"stateMutability":"view"},{"type":"function","name":"getRoleAdmin","inputs":[{"name":"role","type":"bytes32","internalType":"bytes32"}],"outputs":[{"name":"","type":"bytes32","internalType":"bytes32"}],"stateMutability":"view"},{"type":"function","name":"grantRole","inputs":[{"name":"role","type":"bytes32","internalType":"bytes32"},{"name":"account","type":"address","internalType":"address"}],"outputs":[],"stateMutability":"nonpayable"},{"type":"function","name":"hasRole","inputs":[{"name":"role","type":"bytes32","internalType":"bytes32"},{"name":"account","type":"address","internalType":"address"}],"outputs":[{"name":"","type":"bool","internalType":"bool"}],"stateMutability":"view"},{"type":"function","name":"initialize","inputs":[{"name":"initialVersion","type":"uint64","internalType":"uint64"},{"name":"owner_","type":"address","internalType":"address"},{"name":"data","type":"bytes","internalType":"bytes"}],"outputs":[],"stateMutability":"nonpayable"},{"type":"function","name":"isDelegatorInitialized","inputs":[],"outputs":[{"name":"","type":"bool","internalType":"bool"}],"stateMutability":"view"},{"type":"function","name":"isDepositLimit","inputs":[],"outputs":[{"name":"","type":"bool","internalType":"bool"}],"stateMutability":"view"},{"type":"function","name":"isDepositorWhitelisted","inputs":[{"name":"account","type":"address","internalType":"address"}],"outputs":[{"name":"value","type":"bool","internalType":"bool"}],"stateMutability":"view"},{"type":"function","name":"isInitialized","inputs":[],"outputs":[{"name":"","type":"bool","internalType":"bool"}],"stateMutability":"view"},{"type":"function","name":"isSlasherInitialized","inputs":[],"outputs":[{"name":"","type":"bool","internalType":"bool"}],"stateMutability":"view"},{"type":"function","name":"isWithdrawalsClaimed","inputs":[{"name":"epoch","type":"uint256","internalType":"uint256"},{"name":"account","type":"address","internalType":"address"}],"outputs":[{"name":"value","type":"bool","internalType":"bool"}],"stateMutability":"view"},{"type":"function","name":"migrate","inputs":[{"name":"newVersion","type":"uint64","internalType":"uint64"},{"name":"data","type":"bytes","internalType":"bytes"}],"outputs":[],"stateMutability":"nonpayable"},{"type":"function","name":"nextEpochStart","inputs":[],"outputs":[{"name":"","type":"uint48","internalType":"uint48"}],"stateMutability":"view"},{"type":"function","name":"onSlash","inputs":[{"name":"amount","type":"uint256","internalType":"uint256"},{"name":"captureTimestamp","type":"uint48","internalType":"uint48"}],"outputs":[{"name":"slashedAmount","type":"uint256","internalType":"uint256"}],"stateMutability":"nonpayable"},{"type":"function","name":"owner","inputs":[],"outputs":[{"name":"","type":"address","internalType":"address"}],"stateMutability":"view"},{"type":"function","name":"previousEpochStart","inputs":[],"outputs":[{"name":"","type":"uint48","internalType":"uint48"}],"stateMutability":"view"},{"type":"function","name":"redeem","inputs":[{"name":"claimer","type":"address","internalType":"address"},{"name":"shares","type":"uint256","internalType":"uint256"}],"outputs":[{"name":"withdrawnAssets","type":"uint256","internalType":"uint256"},{"name":"mintedShares","type":"uint256","internalType":"uint256"}],"stateMutability":"nonpayable"},{"type":"function","name":"renounceOwnership","inputs":[],"outputs":[],"stateMutability":"nonpayable"},{"type":"function","name":"renounceRole","inputs":[{"name":"role","type":"bytes32","internalType":"bytes32"},{"name":"callerConfirmation","type":"address","internalType":"address"}],"outputs":[],"stateMutability":"nonpayable"},{"type":"function","name":"revokeRole","inputs":[{"name":"role","type":"bytes32","internalType":"bytes32"},{"name":"account","type":"address","internalType":"address"}],"outputs":[],"stateMutability":"nonpayable"},{"type":"function","name":"setDelegator","inputs":[{"name":"delegator_","type":"address","internalType":"address"}],"outputs":[],"stateMutability":"nonpayable"},{"type":"function","name":"setDepositLimit","inputs":[{"name":"limit","type":"uint256","internalType":"uint256"}],"outputs":[],"stateMutability":"nonpayable"},{"type":"function","name":"setDepositWhitelist","inputs":[{"name":"status","type":"bool","internalType":"bool"}],"outputs":[],"stateMutability":"nonpayable"},{"type":"function","name":"setDepositorWhitelistStatus","inputs":[{"name":"account","type":"address","internalType":"address"},{"name":"status","type":"bool","internalType":"bool"}],"outputs":[],"stateMutability":"nonpayable"},{"type":"function","name":"setIsDepositLimit","inputs":[{"name":"status","type":"bool","internalType":"bool"}],"outputs":[],"stateMutability":"nonpayable"},{"type":"function","name":"setSlasher","inputs":[{"name":"slasher_","type":"address","internalType":"address"}],"outputs":[],"stateMutability":"nonpayable"},{"type":"function","name":"slashableBalanceOf","inputs":[{"name":"account","type":"address","internalType":"address"}],"outputs":[{"name":"","type":"uint256","internalType":"uint256"}],"stateMutability":"view"},{"type":"function","name":"slasher","inputs":[],"outputs":[{"name":"","type":"address","internalType":"address"}],"stateMutability":"view"},{"type":"function","name":"staticDelegateCall","inputs":[{"name":"target","type":"address","internalType":"address"},{"name":"data","type":"bytes","internalType":"bytes"}],"outputs":[],"stateMutability":"nonpayable"},{"type":"function","name":"supportsInterface","inputs":[{"name":"interfaceId","type":"bytes4","internalType":"bytes4"}],"outputs":[{"name":"","type":"bool","internalType":"bool"}],"stateMutability":"view"},{"type":"function","name":"totalStake","inputs":[],"outputs":[{"name":"","type":"uint256","internalType":"uint256"}],"stateMutability":"view"},{"type":"function","name":"transferOwnership","inputs":[{"name":"newOwner","type":"address","internalType":"address"}],"outputs":[],"stateMutability":"nonpayable"},{"type":"function","name":"version","inputs":[],"outputs":[{"name":"","type":"uint64","internalType":"uint64"}],"stateMutability":"view"},{"type":"function","name":"withdraw","inputs":[{"name":"claimer","type":"address","internalType":"address"},{"name":"amount","type":"uint256","internalType":"uint256"}],"outputs":[{"name":"burnedShares","type":"uint256","internalType":"uint256"},{"name":"mintedShares","type":"uint256","internalType":"uint256"}],"stateMutability":"nonpayable"},{"type":"function","name":"withdrawalShares","inputs":[{"name":"epoch","type":"uint256","internalType":"uint256"}],"outputs":[{"name":"amount","type":"uint256","internalType":"uint256"}],"stateMutability":"view"},{"type":"function","name":"withdrawalSharesOf","inputs":[{"name":"epoch","type":"uint256","internalType":"uint256"},{"name":"account","type":"address","internalType":"address"}],"outputs":[{"name":"amount","type":"uint256","internalType":"uint256"}],"stateMutability":"view"},{"type":"function","name":"withdrawals","inputs":[{"name":"epoch","type":"uint256","internalType":"uint256"}],"outputs":[{"name":"amount","type":"uint256","internalType":"uint256"}],"stateMutability":"view"},{"type":"function","name":"withdrawalsOf","inputs":[{"name":"epoch","type":"uint256","internalType":"uint256"},{"name":"account","type":"address","internalType":"address"}],"outputs":[{"name":"","type":"uint256","internalType":"uint256"}],"stateMutability":"view"},{"type":"event","name":"Claim","inputs":[{"name":"claimer","type":"address","indexed":true,"internalType":"address"},{"name":"recipient","type":"address","indexed":true,"internalType":"address"},{"name":"epoch","type":"uint256","indexed":false,"internalType":"uint256"},{"name":"amount","type":"uint256","indexed":false,"internalType":"uint256"}],"anonymous":false},{"type":"event","name":"ClaimBatch","inputs":[{"name":"claimer","type":"address","indexed":true,"internalType":"address"},{"name":"recipient","type":"address","indexed":true,"internalType":"address"},{"name":"epochs","type":"uint256[]","indexed":false,"internalType":"uint256[]"},{"name":"amount","type":"uint256","indexed":false,"internalType":"uint256"}],"anonymous":false},{"type":"event","name":"Deposit","inputs":[{"name":"depositor","type":"address","indexed":true,"internalType":"address"},{"name":"onBehalfOf","type":"address","indexed":true,"internalType":"address"},{"name":"amount","type":"uint256","indexed":false,"internalType":"uint256"},{"name":"shares","type":"uint256","indexed":false,"internalType":"uint256"}],"anonymous":false},{"type":"event","name":"Initialized","inputs":[{"name":"version","type":"uint64","indexed":false,"internalType":"uint64"}],"anonymous":false},{"type":"event","name":"OnSlash","inputs":[{"name":"amount","type":"uint256","indexed":false,"internalType":"uint256"},{"name":"captureTimestamp","type":"uint48","indexed":false,"internalType":"uint48"},{"name":"slashedAmount","type":"uint256","indexed":false,"internalType":"uint256"}],"anonymous":false},{"type":"event","name":"OwnershipTransferred","inputs":[{"name":"previousOwner","type":"address","indexed":true,"internalType":"address"},{"name":"newOwner","type":"address","indexed":true,"internalType":"address"}],"anonymous":false},{"type":"event","name":"RoleAdminChanged","inputs":[{"name":"role","type":"bytes32","indexed":true,"internalType":"bytes32"},{"name":"previousAdminRole","type":"bytes32","indexed":true,"internalType":"bytes32"},{"name":"newAdminRole","type":"bytes32","indexed":true,"internalType":"bytes32"}],"anonymous":false},{"type":"event","name":"RoleGranted","inputs":[{"name":"role","type":"bytes32","indexed":true,"internalType":"bytes32"},{"name":"account","type":"address","indexed":true,"internalType":"address"},{"name":"sender","type":"address","indexed":true,"internalType":"address"}],"anonymous":false},{"type":"event","name":"RoleRevoked","inputs":[{"name":"role","type":"bytes32","indexed":true,"internalType":"bytes32"},{"name":"account","type":"address","indexed":true,"internalType":"address"},{"name":"sender","type":"address","indexed":true,"internalType":"address"}],"anonymous":false},{"type":"event","name":"SetDelegator","inputs":[{"name":"delegator","type":"address","indexed":true,"internalType":"address"}],"anonymous":false},{"type":"event","name":"SetDepositLimit","inputs":[{"name":"limit","type":"uint256","indexed":false,"internalType":"uint256"}],"anonymous":false},{"type":"event","name":"SetDepositWhitelist","inputs":[{"name":"status","type":"bool","indexed":false,"internalType":"bool"}],"anonymous":false},{"type":"event","name":"SetDepositorWhitelistStatus","inputs":[{"name":"account","type":"address","indexed":true,"internalType":"address"},{"name":"status","type":"bool","indexed":false,"internalType":"bool"}],"anonymous":false},{"type":"event","name":"SetIsDepositLimit","inputs":[{"name":"status","type":"bool","indexed":false,"internalType":"bool"}],"anonymous":false},{"type":"event","name":"SetSlasher","inputs":[{"name":"slasher","type":"address","indexed":true,"internalType":"address"}],"anonymous":false},{"type":"event","name":"Withdraw","inputs":[{"name":"withdrawer","type":"address","indexed":true,"internalType":"address"},{"name":"claimer","type":"address","indexed":true,"internalType":"address"},{"name":"amount","type":"uint256","indexed":false,"internalType":"uint256"},{"name":"burnedShares","type":"uint256","indexed":false,"internalType":"uint256"},{"name":"mintedShares","type":"uint256","indexed":false,"internalType":"uint256"}],"anonymous":false},{"type":"error","name":"AccessControlBadConfirmation","inputs":[]},{"type":"error","name":"AccessControlUnauthorizedAccount","inputs":[{"name":"account","type":"address","internalType":"address"},{"name":"neededRole","type":"bytes32","internalType":"bytes32"}]},{"type":"error","name":"AddressEmptyCode","inputs":[{"name":"target","type":"address","internalType":"address"}]},{"type":"error","name":"AddressInsufficientBalance","inputs":[{"name":"account","type":"address","internalType":"address"}]},{"type":"error","name":"AlreadyClaimed","inputs":[]},{"type":"error","name":"AlreadyInitialized","inputs":[]},{"type":"error","name":"AlreadySet","inputs":[]},{"type":"error","name":"CheckpointUnorderedInsertion","inputs":[]},{"type":"error","name":"DelegatorAlreadyInitialized","inputs":[]},{"type":"error","name":"DepositLimitReached","inputs":[]},{"type":"error","name":"ExternalCall","inputs":[]},{"type":"error","name":"FailedInnerCall","inputs":[]},{"type":"error","name":"InsufficientClaim","inputs":[]},{"type":"error","name":"InsufficientDeposit","inputs":[]},{"type":"error","name":"InsufficientRedemption","inputs":[]},{"type":"error","name":"InsufficientWithdrawal","inputs":[]},{"type":"error","name":"InvalidAccount","inputs":[]},{"type":"error","name":"InvalidCaptureEpoch","inputs":[]},{"type":"error","name":"InvalidClaimer","inputs":[]},{"type":"error","name":"InvalidCollateral","inputs":[]},{"type":"error","name":"InvalidDelegator","inputs":[]},{"type":"error","name":"InvalidEpoch","inputs":[]},{"type":"error","name":"InvalidEpochDuration","inputs":[]},{"type":"error","name":"InvalidInitialization","inputs":[]},{"type":"error","name":"InvalidLengthEpochs","inputs":[]},{"type":"error","name":"InvalidOnBehalfOf","inputs":[]},{"type":"error","name":"InvalidRecipient","inputs":[]},{"type":"error","name":"InvalidSlasher","inputs":[]},{"type":"error","name":"InvalidTimestamp","inputs":[]},{"type":"error","name":"MathOverflowedMulDiv","inputs":[]},{"type":"error","name":"MissingRoles","inputs":[]},{"type":"error","name":"NoPreviousEpoch","inputs":[]},{"type":"error","name":"NotDelegator","inputs":[]},{"type":"error","name":"NotFactory","inputs":[]},{"type":"error","name":"NotInitialized","inputs":[]},{"type":"error","name":"NotInitializing","inputs":[]},{"type":"error","name":"NotSlasher","inputs":[]},{"type":"error","name":"NotWhitelistedDepositor","inputs":[]},{"type":"error","name":"OwnableInvalidOwner","inputs":[{"name":"owner","type":"address","internalType":"address"}]},{"type":"error","name":"OwnableUnauthorizedAccount","inputs":[{"name":"account","type":"address","internalType":"address"}]},{"type":"error","name":"ReentrancyGuardReentrantCall","inputs":[]},{"type":"error","name":"SafeCastOverflowedUintDowncast","inputs":[{"name":"bits","type":"uint8","internalType":"uint8"},{"name":"value","type":"uint256","internalType":"uint256"}]},{"type":"error","name":"SafeERC20FailedOperation","inputs":[{"name":"token","type":"address","internalType":"address"}]},{"type":"error","name":"SlasherAlreadyInitialized","inputs":[]},{"type":"error","name":"TooMuchRedeem","inputs":[]},{"type":"error","name":"TooMuchWithdraw","inputs":[]}],"bytecode":{"object":"0x610100806040523461011057306080525f60a0525f60c0527ff0c57e16840df040f15088dc2f81fe391c3923bec73e23a9662efc9c229c6a009081549060ff8260401c1661010157506001600160401b036002600160401b0319828216016100bc575b5f60e0526040516151d1908161011582396080518181816110590152818161133101526123a7015260a05181818161137d01526118cc015260c051818181611a350152611ee5015260e0518181816107e00152610a2e0152f35b6001600160401b031990911681179091556040519081527fc7f505b2f371ae2175ee4913f4499e1f2633a7b5936321eed1cdaeb6115181d290602090a15f8080610062565b63f92ee8a960e01b8152600490fd5b5f80fdfe60806040526004361015610011575f80fd5b5f3560e01c806301ffc9a7146104a45780631415519b1461049f5780631b66c9e11461049a5780631e9a695014610495578063248a9ca31461049057806327810b6e1461048b578063281f5752146104865780632abe3048146104815780632d73c69c1461047c5780632dd31000146104775780632f2ff15d1461047257806336568abe1461046d578063392e53cd146104685780634105a7dd14610463578063463616711461045e57806347e7ef241461045957806348d3b775146104545780634ff0876a1461044f57806350861adc1461044a57806350f22068146104455780635346e34f1461044057806354fd4d501461043b57806355a2c6721461043657806357ec83cc1461043157806359f769a91461042c5780635cc070761461042757806361a8c8c41461042257806364b03fdc1461041d57806367567add146104185780636da3e06d146104135780636ec1e3f81461040e578063715018a6146104095780637278e31c1461040457806373790ab3146103ff57806376671808146103fa578063794b15b7146103f55780637953b33b146103f05780637c04c80a146103eb578063810da75d146103e65780638326056f146103e157806383cd9cc3146103dc57806387df0788146103d75780638b0e9f3f146103d25780638da5cb5b146103cd57806391d14854146103c85780639d66201b146103c35780639f86fd85146103be578063a1b12202146103b9578063a217fddf146103b4578063a21a1df9146103af578063a2861466146103aa578063a3b54172146103a5578063a5d03223146103a0578063aabc24961461039b578063aad3ec9614610396578063afba70ad14610391578063b13442711461038c578063bd49c35f14610387578063bdc8144b14610382578063bfefcd7b1461037d578063c31e8dd714610378578063ce9b793014610373578063d547741f1461036e578063d8dfeb4514610369578063db38871514610364578063de4997161461035f578063eb5562381461035a578063ecf7085814610355578063efb559d614610350578063f2fde38b1461034b578063f3fef3a314610346578063f5e7ee0f146103415763f9e1bf6c1461033c575f80fd5b61264c565b612622565b61257c565b61254f565b612400565b6123e3565b61238f565b612375565b612309565b6122de565b612292565b61226a565b612200565b6121e6565b612108565b6120ee565b6120c6565b61209c565b611fdb565b611e24565b611dde565b611d91565b611c9e565b611c64565b611c4a565b611c26565b611b92565b611b58565b611afa565b611ac6565b611a64565b611a20565b611867565b61184d565b611834565b6117ce565b6117a7565b611767565b61174d565b61170c565b611438565b6113d1565b6113ac565b611368565b611312565b6112e4565b611248565b61121e565b6111f7565b6110bf565b61103a565b611008565b610f73565b610f5a565b610efd565b610edd565b610ebc565b610bfe565b610bd6565b610b3b565b610af6565b610aab565b610a5d565b610a19565b6109a5565b61079b565b6106cd565b6106a5565b61066c565b610583565b610538565b6104fe565b346104fa5760203660031901126104fa5760043563ffffffff60e01b81168091036104fa57602090637965db0b60e01b81149081156104e9575b506040519015158152f35b6301ffc9a760e01b1490505f6104de565b5f80fd5b346104fa575f3660031901126104fa5760206040517fc6aaadd7371d5e8f9ed6849dd66a66573a3ba37167d03f4352c9ba5693678fac8152f35b346104fa575f3660031901126104fa5760206040517f9c56d972d63cbb4195b3c1484691dfc220fa96a4c47e7b6613bd82a022029e068152f35b6001600160a01b038116036104fa57565b346104fa5760403660031901126104fa576004356105a081610572565b602435906105ac613080565b6001600160a01b0381161561065b57335f908152600e602052604090206105d790614498565b614498565b8211610649576105f76105e86143ab565b6105f0614424565b90846144db565b9182156106345782610608926130af565b9061061f60015f8051602061515c83398151915255565b604080519182526020820192909252f35b0390f35b60405160016245ddc760e11b03198152600490fd5b604051632418411f60e11b8152600490fd5b6040516208978560e71b8152600490fd5b346104fa5760203660031901126104fa576004355f525f8051602061513c8339815191526020526020600160405f200154604051908152f35b346104fa575f3660031901126104fa576001546040516001600160a01b039091168152602090f35b346104fa575f3660031901126104fa576106e5612c66565b80156107465760015465ffffffffffff8160a01c16915f198101908111610741576107139160d01c90612695565b81018091116107415761072861063091613229565b60405165ffffffffffff90911681529081906020820190565b612666565b604051639fa56a5b60e01b8152600490fd5b600435906001600160401b03821682036104fa57565b9181601f840112156104fa578235916001600160401b0383116104fa57602083818601950101116104fa57565b346104fa5760403660031901126104fa576107b4610758565b6001600160401b036024358181116104fa576107d490369060040161076e565b50506107de613080565b7f00000000000000000000000000000000000000000000000000000000000000006001600160a01b0316330361085a575f8051602061517c833981519152549060ff8260401c1692831561084a575b505050610838575f80fd5b60405163f92ee8a960e01b8152600490fd5b81169116101590505f808061082d565b604051631966391b60e11b8152600490fd5b65ffffffffffff8116036104fa57565b634e487b7160e01b5f52604160045260245ffd5b606081019081106001600160401b038211176108ab57604052565b61087c565b604081019081106001600160401b038211176108ab57604052565b608081019081106001600160401b038211176108ab57604052565b90601f801991011681019081106001600160401b038211176108ab57604052565b6040519061016082018281106001600160401b038211176108ab57604052565b60405190610934826108b0565b565b6001600160401b0381116108ab57601f01601f191660200190565b92919261095d82610936565b9161096b60405193846108e6565b8294818452818301116104fa578281602093845f960137010152565b9080601f830112156104fa578160206109a293359101610951565b90565b346104fa5760603660031901126104fa576004356109c281610572565b602435906109cf8261086c565b604435906001600160401b0382116104fa576020926109f5610a11933690600401610987565b6001600160a01b039092165f908152600e85526040902061340e565b604051908152f35b346104fa575f3660031901126104fa576040517f00000000000000000000000000000000000000000000000000000000000000006001600160a01b03168152602090f35b346104fa5760403660031901126104fa57610aa9602435600435610a8082610572565b805f525f8051602061513c833981519152602052610aa4600160405f2001546135e5565b6138e5565b005b346104fa5760403660031901126104fa57602435610ac881610572565b336001600160a01b03821603610ae457610aa99060043561391b565b60405163334bd91960e11b8152600490fd5b346104fa575f3660031901126104fa5760ff60025460a01c1680610b22575b6020906040519015158152f35b5060035460a01c60ff16610b15565b801515036104fa57565b346104fa5760203660031901126104fa57600435610b5881610b31565b610b60613080565b610b686134da565b5f54901515908160ff8216151514610bc45760ff191660ff8216175f556040519081527f3e12b7b36c75ac9609a3f58609b331210428e1a85909132638955ba0301eec3390602090a160015f8051602061515c83398151915255005b60405163a741a04560e01b8152600490fd5b346104fa575f3660031901126104fa57602065ffffffffffff60015460a01c16604051908152f35b346104fa576040806003193601126104fa576004803591610c1e83610572565b610c26613080565b6001600160a01b0391838316908115610eae575f5460ff811680610e95575b610e865783516370a0823160e01b808252308483019081529096602093909160109190911c82169084908490819083010381845afa928315610e5e575f93610e63575b50610c9a9060243590309033906139ad565b5f5486519788523085890190815290979184918391908290819060200103918b60101c165afa908115610e5e57610cd9935f92610e31575b5050612688565b938415610e225760081c60ff1680610e0d575b610dff57509061063091610d9d610d016143ab565b95610d4a610d0d614424565b610d35610d1b8a838b6144db565b99610d2f8a610d2942613229565b926126b6565b90613b01565b5050610d4489610d2942613229565b90613be1565b50506001600160a01b0381165f908152600e6020526040902090610d9788610d926105d2610d7742613229565b6001600160a01b039095165f908152600e6020526040902090565b6126b6565b91613cbd565b505081518481526020810186905233907fdcbc1c05240f31ff3ad067ef1ee35ce4997762752e3a095284754544f4c709d790604090a3610de960015f8051602061515c83398151915255565b5191825260208201929092529081906040820190565b8251632484557960e01b8152fd5b50610e1a84610d926143ab565b815410610cec565b50825163070f6eed60e11b8152fd5b610e509250803d10610e57575b610e4881836108e6565b8101906126e4565b5f80610cd2565b503d610e3e565b6126f3565b610c9a919350610e7f90853d8711610e5757610e4881836108e6565b9290610c88565b5082516304f63b8560e01b8152fd5b50335f9081526005602052604090205460ff1615610c45565b8251630d534ce360e11b8152fd5b346104fa575f3660031901126104fa57602060ff5f54166040519015158152f35b346104fa575f3660031901126104fa57602060015460d01c604051908152f35b346104fa575f3660031901126104fa57602060ff60025460a01c166040519015158152f35b9060406003198301126104fa57600435610f3b8161086c565b91602435906001600160401b0382116104fa576109a291600401610987565b346104fa576020610a11610f6d36610f22565b90613284565b346104fa5760203660031901126104fa57600435610f9081610b31565b610f98613080565b610fa0613537565b5f54901515908160ff8260081c16151514610bc45761ff001916600882901b61ff0016175f556040519081527ffa7a25a0b611d4ba3c0ea990e90dc23d484a5dd7a1be4733fef2946ba74530c690602090a1610aa960015f8051602061515c83398151915255565b346104fa575f3660031901126104fa5760206001600160401b035f8051602061517c8339815191525416604051908152f35b346104fa5760203660031901126104fa576004356110578161086c565b7f00000000000000000000000000000000000000000000000000000000000000006001600160a01b031633036110ad5761109090613d9f565b60408051941515855263ffffffff91909116602085015292915050f35b604051637ca475e560e11b8152600490fd5b346104fa5760603660031901126104fa576110d8610758565b6024356110e481610572565b6001600160401b03916044358381116104fa5761110590369060040161076e565b5f8051602061517c8339815191529491855494838616806111e65760ff8760401c169081156111d9575b50610838577fc7f505b2f371ae2175ee4913f4499e1f2633a7b5936321eed1cdaeb6115181d2966111d49661119c958716906001600160401b0319161790556111975f8051602061517c833981519152600160401b68ff000000000000000019825416179055565b6126fe565b5f8051602061517c833981519152805468ff0000000000000000191690556040516001600160401b0390911681529081906020820190565b0390a1005b905084861611155f61112f565b60405162dc149f60e41b8152600490fd5b346104fa5760203660031901126104fa576020610a1160043561121981610572565b612b1e565b346104fa5760203660031901126104fa576004355f526006602052602060405f2054604051908152f35b346104fa575f3660031901126104fa5760015465ffffffffffff61127e818360a01c1692611274612c66565b9060d01c90612695565b820180921161074157611292602092613229565b60405191168152f35b60409060031901126104fa576004356112b381610572565b906024356109a28161086c565b805180835260209291819084018484015e5f828201840152601f01601f1916010190565b346104fa576106306112fe6112f83661129b565b90612bac565b6040519182916020835260208301906112c0565b346104fa5760203660031901126104fa5760043561132f8161086c565b7f00000000000000000000000000000000000000000000000000000000000000006001600160a01b031633036110ad5761109090613ea4565b346104fa575f3660031901126104fa576040517f00000000000000000000000000000000000000000000000000000000000000006001600160a01b03168152602090f35b346104fa575f3660031901126104fa57602060ff60035460a01c166040519015158152f35b346104fa575f3660031901126104fa576113e96141eb565b5f805160206150dc83398151915280546001600160a01b031981169091555f906001600160a01b03167f8be0079c531659141344cd1fd0a4f28419497f9722a3daafe3b4186f6b6457e08280a3005b346104fa5760403660031901126104fa576004356024356114588161086c565b611460613080565b60035461147d906001600160a01b03165b6001600160a01b031690565b33036116fa5761148b612c66565b9061149581612c9a565b90821515806116e9575b80156116e0575b6116ce57610630937ff9d090c096f71cd1659861a9ce5b6f384bceb4e2fa4e4a19edf6489a9b8d56c7926114d86143ab565b946114f36114e5826126a8565b5f52600660205260405f2090565b54908281036115e7575061150781876126b6565b6115118185614223565b9687806115a0575b50505050505b8361156c575b6040805191825265ffffffffffff929092166020820152908101839052606090a161155c60015f8051602061515c83398151915255565b6040519081529081906020820190565b5f5461159b9085906115899060101c6001600160a01b0316611471565b6001546001600160a01b0316906142d1565b611525565b6115dc93610cd283610d2f6115c66115bf6114e5986115d6988861423f565b8096612688565b946115d042613229565b92612688565b926126a8565b555f80808087611519565b91506115fb825f52600660205260405f2090565b549061160b81610d92848a6126b6565b906116168286614223565b9788611627575b505050505061151f565b61169c938361164f9361165c8c61165761164561168d99888461423f565b978895858461423f565b948592612688565b612688565b938484106116a7575b610cd290610d2f61167b9596976115d042613229565b6116876114e5876126a8565b55612688565b915f52600660205260405f2090565b555f8080808061161d565b916116c3610cd2916116bd8661167b9798612688565b906126b6565b859450929050611665565b604051635e18d2a560e01b8152600490fd5b508282116114a6565b506116f38361267a565b821061149f565b60405163dabc4ad960e01b8152600490fd5b346104fa575f3660031901126104fa5760015465ffffffffffff808260a01c1691611735612c66565b600181018091116107415761127e9160d01c90612695565b346104fa575f3660031901126104fa576020610a11612c66565b346104fa5760203660031901126104fa5760043561178481610572565b60018060a01b03165f526005602052602060ff60405f2054166040519015158152f35b346104fa5760203660031901126104fa576020610a116004356117c98161086c565b612c9a565b346104fa5760403660031901126104fa576004356117eb81610572565b6024356001600160401b038082116104fa57366023830112156104fa5781600401359081116104fa573660248260051b840101116104fa5761063092602461155c930190612cd5565b346104fa576020610a1161184736610f22565b90613359565b346104fa576106306112fe6118613661129b565b90612e03565b346104fa576020806003193601126104fa57600480359061188782610572565b61188f613080565b60025460a01c60ff16611a11576040516302910f8b60e31b81526001600160a01b03838116838301908152909491908290829081906020010381887f0000000000000000000000000000000000000000000000000000000000000000165afa908115610e5e575f916119e4575b50156119d45760405163fbfa77cf60e01b8152838516949082818581895afa928315610e5e575f936119a5575b5050309116036119965750600280546001600160a01b03929092166001600160a81b031990921691909117600160a01b1790557fdb2160616f776a37b24808115554e79439bf26cccbbd4438190cc6d28e80ecd15f80a2610aa960015f8051602061515c83398151915255565b60405163b9f0f17160e01b8152fd5b6119c5929350803d106119cd575b6119bd81836108e6565b810190612e5a565b905f80611929565b503d6119b3565b506040516324e5af8d60e21b8152fd5b611a049150823d8411611a0a575b6119fc81836108e6565b810190612e3a565b5f6118fc565b503d6119f2565b604051631380833b60e01b8152fd5b346104fa575f3660031901126104fa576040517f00000000000000000000000000000000000000000000000000000000000000006001600160a01b03168152602090f35b346104fa575f3660031901126104fa57611a7c612c66565b611a846143ab565b90805f52600660205260405f205482018092116107415760018101809111610741575f52600660205260405f2054810180911161074157602090604051908152f35b346104fa575f3660031901126104fa575f805160206150dc833981519152546040516001600160a01b039091168152602090f35b346104fa5760403660031901126104fa57602060ff611b4c602435611b1e81610572565b6004355f525f8051602061513c833981519152845260405f209060018060a01b03165f5260205260405f2090565b54166040519015158152f35b346104fa5760203660031901126104fa57600435611b7581610572565b60018060a01b03165f52600e6020526020610a1160405f20614498565b346104fa5760403660031901126104fa57600435611baf81610572565b6024356001600160401b0381116104fa575f91611bd18392369060040161076e565b90816040519283928337810184815203915af4611c1e611bef612e6f565b91611c106040519384921515602084015260408084015260608301906112c0565b03601f1981018352826108e6565b805190602001fd5b346104fa575f3660031901126104fa57602060ff5f5460081c166040519015158152f35b346104fa575f3660031901126104fa5760206040515f8152f35b346104fa575f3660031901126104fa5760206040517f4a634bc14d77baf979756509ef4298c6f6318af357828612545267ee2eb792338152f35b346104fa5760403660031901126104fa57600435611cbb81610572565b602435611cc781610b31565b611ccf613080565b611cd761358e565b6001600160a01b038216918215611d7f575f8381526005602052604090205460ff16151582151514610bc4576001600160a01b03165f9081526005602052604090207ff991b1ecfb5115cbb36a2b2e2240c058406d2acc2fcc6e9e2dc99d845ff70a6291611d6691611d54908260ff801983541691151516179055565b60405190151581529081906020820190565b0390a2610aa960015f8051602061515c83398151915255565b604051630da30f6560e31b8152600490fd5b346104fa5760403660031901126104fa576020611dd5602435611db381610572565b6004355f526008835260405f209060018060a01b03165f5260205260405f2090565b54604051908152f35b346104fa5760403660031901126104fa57602060ff611b4c602435611e0281610572565b6004355f526009845260405f209060018060a01b03165f5260205260405f2090565b346104fa576020806003193601126104fa576004803590611e4482610572565b611e4c613080565b60035460a01c60ff16611fcc576001600160a01b03828116939084611eba575b6003805460ff60a01b1916600160a01b179055847fe7e4c932e03abddfe20f83af42c33627e816115c7ec2b168441f65dc14bfc3ba5f80a2610aa960015f8051602061515c83398151915255565b6040516302910f8b60e31b81526001600160a01b0385168482019081528390829081906020010381857f0000000000000000000000000000000000000000000000000000000000000000165afa908115610e5e575f91611faf575b5015611f9e5760405163fbfa77cf60e01b815282818581895afa928315610e5e575f93611f7f575b505030911603611f705750600380546001600160a01b0319166001600160a01b039092169190911790555f808080611e6c565b604051633f3e089160e21b8152fd5b611f96929350803d106119cd576119bd81836108e6565b905f80611f3d565b60405163dabc4ad960e01b81528390fd5b611fc69150833d8511611a0a576119fc81836108e6565b5f611f15565b60405163703fe2e560e01b8152fd5b346104fa5760403660031901126104fa57600435611ff881610572565b60243590612004613080565b6001600160a01b039181831690811561208a57612035610630946120278361430f565b9485915f5460101c166142d1565b604080519182526020820184905233917f865ca08d59f5cb456e85cd2f7ef63664ea4f73327414e9d8152c4158b0e946459190a360015f8051602061515c833981519152556040519081529081906020820190565b604051634e46966960e11b8152600490fd5b346104fa5760203660031901126104fa576004355f526007602052602060405f2054604051908152f35b346104fa575f3660031901126104fa576003546040516001600160a01b039091168152602090f35b346104fa575f3660031901126104fa576020610a116143ab565b346104fa5760203660031901126104fa57600435612124613080565b335f9081527f2d4ccbfe9f7672a6f2537c1e5bce6adacb73706879154bbab6ce096012d6721660205260409020547f4a634bc14d77baf979756509ef4298c6f6318af357828612545267ee2eb792339060ff16156121c857508060045414610bc4576020817f854df3eb95564502c8bc871ebdd15310ee26270f955f6c6bd8cea68e75045bc092600455604051908152a160015f8051602061515c83398151915255005b6044906040519063e2517d3f60e01b82523360048301526024820152fd5b346104fa575f3660031901126104fa576020610a11614424565b346104fa5760203660031901126104fa5760043561221d81610572565b612225612c66565b61222e82612b1e565b916122398183612f59565b830180931161074157600182018092116107415761225691612f59565b810180911161074157602090604051908152f35b346104fa575f3660031901126104fa576002546040516001600160a01b039091168152602090f35b346104fa5760403660031901126104fa57610aa96024356004356122b582610572565b805f525f8051602061513c8339815191526020526122d9600160405f2001546135e5565b61391b565b346104fa575f3660031901126104fa575f5460405160109190911c6001600160a01b03168152602090f35b346104fa575f3660031901126104fa5760206040517fbae4ee3de6c709ff9a002e774c5b78cb381560b219213c88ae0f1e207c03c0238152f35b60609060031901126104fa5760043561235b81610572565b9060243561236881610572565b906044356109a28161086c565b346104fa576106306112fe61238936612343565b91612e9e565b346104fa5761239d3661129b565b6001600160a01b037f0000000000000000000000000000000000000000000000000000000000000000811633036110ad5761109092165f52600e60205260405f20613f6a565b346104fa575f3660031901126104fa576020600454604051908152f35b346104fa5760603660031901126104fa5760043561241d81610572565b6024359061242a8261086c565b6001600160401b03916044358381116104fa5761244b90369060040161076e565b9092604093845161245b81610890565b606081526060602082015260608682015292806124ba575b610630866124ab87876124a561248c89848451916126c3565b928561249c602085015183613359565b93015190613284565b916144db565b90519081529081906020820190565b81019392506020818503126104fa578035908682116104fa5701926060848203126104fa578451956124eb87610890565b84358181116104fa5782612500918701610987565b875260208501358181116104fa578261251a918701610987565b6020880152858501359081116104fa57610630966125436124a59361248c936124ab9801610987565b87820152939450612473565b346104fa5760203660031901126104fa57610aa960043561256f81610572565b6125776141eb565b612ee8565b346104fa5760403660031901126104fa5760043561259981610572565b6024356125a4613080565b6001600160a01b0382161561065b578015612610576125d36125c4614424565b6125cc6143ab565b90836148f9565b335f908152600e602052604090209092906125ed90614498565b83116125fe576106089183916130af565b6040516321727a3760e11b8152600490fd5b604051636c6c627d60e11b8152600490fd5b346104fa5760403660031901126104fa576020610a1160243561264481610572565b600435612f59565b346104fa576106306112fe61266036612343565b91612fb7565b634e487b7160e01b5f52601160045260245ffd5b5f1981019190821161074157565b9190820391821161074157565b8181029291811591840414171561074157565b906001820180921161074157565b9190820180921161074157565b6001600160a01b03165f908152600e602052604090206109a292919061340e565b908160209103126104fa575190565b6040513d5f823e3d90fd5b91612750916127419161270f614c89565b612717614c89565b60015f8051602061515c833981519152556001600160a01b0394808616612b04575b503691610951565b60208082518301019101614054565b805182166001600160a01b031615612af257604080820165ffffffffffff61277e825165ffffffffffff1690565b1615612ae15760c08301805190929061279f906001600160a01b0316611471565b15612992575b50916128de6101409261287d61285861293c966127f36127cb875160018060a01b031690565b5f805462010000600160b01b03191660109290921b62010000600160b01b0316919091179055565b6020860151600180546001600160a01b0319166001600160a01b0390921691909117905561284c61282342613229565b6001805465ffffffffffff60a01b191660a09290921b65ffffffffffff60a01b16919091179055565b5165ffffffffffff1690565b600180546001600160d01b031660d09290921b6001600160d01b031916919091179055565b61289d61288d6060850151151590565b60ff80195f541691151516175f55565b6128c46128ad6080850151151590565b61ff005f5491151560081b169061ff001916175f55565b6128d160a0840151600455565b516001600160a01b031690565b848116612982575b5060e08101516001600160a01b0316848116612972575b506101008101516001600160a01b0316848116612962575b506101208101516001600160a01b0316848116612952575b5001516001600160a01b031690565b9081166129465750565b61294f90613876565b50565b61295b90613807565b505f61292d565b61296b90613798565b505f612915565b61297b906136c2565b505f6128fd565b61298b90613611565b505f6128e6565b60e08401516129a9906001600160a01b0316611471565b15612a7e575b6101208401516129c7906001600160a01b0316611471565b6127a557608084015115612a345760a08401511580612a15575b612a055750916128de6101409261287d61285861293c965b949650505092506127a5565b5163183c854560e21b8152600490fd5b50610140840151612a2e906001600160a01b0316611471565b156129e1565b60a084015115801590612a5e575b612a055750916128de6101409261287d61285861293c966129f9565b50610140840151612a77906001600160a01b0316611471565b1515612a42565b606084015115612ab457610100840151612aa0906001600160a01b0316611471565b6129af575163183c854560e21b8152600490fd5b610100840151612acc906001600160a01b0316611471565b156129af575163183c854560e21b8152600490fd5b81516368f5f8f160e11b8152600490fd5b6040516368f7a67560e11b8152600490fd5b612b1890612b10614c89565b612577614c89565b5f612739565b6001600160a01b03165f908152600e60205260409020612b3d90614498565b612b456143ab565b612b4d614424565b90600181018091116107415760018201809211610741576109a29261423f565b519061093482610b31565b519063ffffffff821682036104fa57565b91908260409103126104fa576109a260208351612ba581610b31565b9301612b78565b9190612be8612bf79160609465ffffffffffff604051926367567add60e01b602085015216602483015260248252612be382610890565b61411d565b60208082518301019101612b89565b90612bff5750565b90915063ffffffff60405191166020820152602081526109a2816108b0565b65ffffffffffff918216908216039190821161074157565b634e487b7160e01b5f52601260045260245ffd5b9065ffffffffffff809116918215612c6157160490565b612c36565b612c6f42613229565b612c96600154612c8c65ffffffffffff93848360a01c1690612c1e565b9060d01c90612c4a565b1690565b6001549065ffffffffffff91828160a01c16918284821610612cc357612c9692612c8c91612c1e565b60405163b7d0949760e01b8152600490fd5b90612cde613080565b5f926001600160a01b03831692831561208a578115612d96575f5b828110612d7457505f547f326b6aff1cd2fb1c8234de4f9dcfb9047c5c36eb9ef2eb34af5121e969a75d279286929091612d49918491612d449060101c6001600160a01b0316611471565b6142d1565b612d5a604051928392339684612dd1565b0390a39061093460015f8051602061515c83398151915255565b94612d8f6001916116bd612d89898789612dbc565b3561430f565b9501612cf9565b60405163edf3b93360e01b8152600490fd5b634e487b7160e01b5f52603260045260245ffd5b9190811015612dcc5760051b0190565b612da8565b604080825281018390529392916001600160fb1b0381116104fa5760209160609160051b809183880137850101930152565b9190612be8612bf79160609465ffffffffffff60405192632ad1633960e11b602085015216602483015260248252612be382610890565b908160209103126104fa57516109a281610b31565b519061093482610572565b908160209103126104fa57516109a281610572565b3d15612e99573d90612e8082610936565b91612e8e60405193846108e6565b82523d5f602084013e565b606090565b604051631d6aac4760e31b60208201526001600160a01b03909216602483015265ffffffffffff909216604480830191909152815260609291612bf791612be891612be3826108cb565b6001600160a01b03908116908115612f41575f805160206150dc83398151915280546001600160a01b031981168417909155167f8be0079c531659141344cd1fd0a4f28419497f9722a3daafe3b4186f6b6457e05f80a3565b604051631e4fbdf760e01b81525f6004820152602490fd5b90612f7f90825f52600860205260405f209060018060a01b03165f5260205260405f2090565b54905f52600660205260405f2054600760205260405f205490600181018091116107415760018201809211610741576109a29261423f565b92919092612fdc612fcb8360609684612e9e565b92612fd68184612bac565b92612e03565b90825115801590613076575b801561306c575b612ff857505050565b6130459394506109a29291611c10916040519361301485610890565b8452602084019081526040840191825261305b604051968795602080880152516060604088015260a08701906112c0565b915191603f1992838783030160608801526112c0565b9151908483030160808501526112c0565b5081511515612fef565b5080511515612fe8565b5f8051602061515c833981519152600281541461309d5760029055565b604051633ee5aeb560e01b8152600490fd5b335f908152600e60205260409020939291906130ca42613229565b335f908152600e602052604090206130e190614498565b918483039283116107415761311c7febff2602b3f468259e1e99f613fed6691f3a6526effe6ef3e768ba7ae7a36c4f9385936131a799613cbd565b505061313661312a42613229565b610d4487611657614424565b505061315061314442613229565b610d2f846116576143ab565b50506131f5816131e0613169613164612c66565b6126a8565b6131bf61317e825f52600660205260405f2090565b54613191835f52600760205260405f2090565b5461319d82828b6144db565b9d8e998a936126b6565b6131b9855f52600660205260405f2090565b556126b6565b6131d1825f52600760205260405f2090565b555f52600860205260405f2090565b9060018060a01b03165f5260205260405f2090565b6132008382546126b6565b9055604080519485526020850195909552938301526001600160a01b03909216913391606090a3565b65ffffffffffff9081811161323c571690565b604490604051906306dfcc6560e41b8252603060048301526024820152fd5b908160209103126104fa576109a290612b78565b90600163ffffffff8093160191821161074157565b9080511561334f578060208061329f9351830101910161325b565b6132a881614720565b906132b9825165ffffffffffff1690565b9065ffffffffffff808516921682811461334357821191826132ef575b50506132e657506109a2906144fc565b60209150015190565b9091506132fd600a5461267a565b63ffffffff831614918215613316575b50505f806132d6565b61333b91925061284c61332b6133309261326f565b614720565b65ffffffffffff1690565b115f8061330d565b50505060209150015190565b506109a2906144fc565b9080511561340457806020806133749351830101910161325b565b61337d816147a5565b9061338e825165ffffffffffff1690565b9065ffffffffffff808516921682811461334357821191826133bb575b50506132e657506109a2906145ad565b9091506133c9600c5461267a565b63ffffffff8316149182156133e2575b50505f806133ab565b6133fc91925061284c6133f76133309261326f565b6147a5565b115f806133d9565b506109a2906145ad565b918051156134d057806020806134299351830101910161325b565b916134348382614820565b92613445845165ffffffffffff1690565b9065ffffffffffff80851692168281146134c4578211918261347b575b5050613472576109a29250614657565b50506020015190565b909150613488835461267a565b63ffffffff8316149182156134a1575b50505f80613462565b6134bc91925061284c6134b66133309261326f565b85614820565b115f80613498565b50505050506020015190565b506109a291614657565b335f9081527f03b26b53c87faa1058f30bb5d2fee64f717719a0d9b7e4f4df027aa5e9b6ed69602052604090207fbae4ee3de6c709ff9a002e774c5b78cb381560b219213c88ae0f1e207c03c0239060ff905b5416156121c85750565b335f9081527fe41986b390c4ce6791b87f7423b5fab7a81a0e6d89660b6264f697d008b2243a602052604090207fc6aaadd7371d5e8f9ed6849dd66a66573a3ba37167d03f4352c9ba5693678fac9060ff9061352d565b335f9081527f0287ab4cb376ea253d7b2ce0c2cbf458f7deae9458470d74afdfbbee484e9540602052604090207f9c56d972d63cbb4195b3c1484691dfc220fa96a4c47e7b6613bd82a022029e069060ff9061352d565b5f8181525f8051602061513c83398151915260209081526040808320338452909152902060ff9061352d565b6001600160a01b0381165f9081527fb7db2dd08fcb62d0c9e08c51941cae53c267786a0b75803fb7960902fc8ef97d60205260409020545f8051602061513c8339815191529060ff166136bc575f808052602091825260408082206001600160a01b038516835290925220805460ff1916600117905533906001600160a01b03165f7f2f8788117e7eff1d82e926ec794901d17c78024a50270940304540a733656f0d8180a4600190565b50505f90565b6001600160a01b0381165f9081527f03b26b53c87faa1058f30bb5d2fee64f717719a0d9b7e4f4df027aa5e9b6ed69602052604090207fbae4ee3de6c709ff9a002e774c5b78cb381560b219213c88ae0f1e207c03c023905f8051602061513c8339815191529060ff905b5416613791575f828152602091825260408082206001600160a01b038616835290925220805460ff1916600117905533916001600160a01b0316907f2f8788117e7eff1d82e926ec794901d17c78024a50270940304540a733656f0d5f80a4600190565b5050505f90565b6001600160a01b0381165f9081527f0287ab4cb376ea253d7b2ce0c2cbf458f7deae9458470d74afdfbbee484e9540602052604090207f9c56d972d63cbb4195b3c1484691dfc220fa96a4c47e7b6613bd82a022029e06905f8051602061513c8339815191529060ff9061372d565b6001600160a01b0381165f9081527fe41986b390c4ce6791b87f7423b5fab7a81a0e6d89660b6264f697d008b2243a602052604090207fc6aaadd7371d5e8f9ed6849dd66a66573a3ba37167d03f4352c9ba5693678fac905f8051602061513c8339815191529060ff9061372d565b6001600160a01b0381165f9081527f2d4ccbfe9f7672a6f2537c1e5bce6adacb73706879154bbab6ce096012d67216602052604090207f4a634bc14d77baf979756509ef4298c6f6318af357828612545267ee2eb79233905f8051602061513c8339815191529060ff9061372d565b5f8181525f8051602061513c833981519152602081815260408084206001600160a01b038716855290915290912060ff9061372d565b5f8181525f8051602061513c833981519152602081815260408084206001600160a01b03871685529091529091205460ff1615613791575f828152602091825260408082206001600160a01b038616835290925220805460ff1916905533916001600160a01b0316907ff6391f5c32d9c69d2a47ea670b442974b53935d1edc7fd64eb21e047a839171b5f80a4600190565b6040516323b872dd60e01b60208201526001600160a01b03928316602482015292909116604483015260648083019390935291815260a08101918183106001600160401b038411176108ab5761093492604052614888565b600b54811015612dcc57600b5f525f8051602061511c83398151915201905f90565b600d54811015612dcc57600d5f525f805160206150fc83398151915201905f90565b8054821015612dcc575f5260205f2001905f90565b600d54600160401b8110156108ab576001810180600d55811015612dcc57600d5f525f805160206150fc8339815191520155565b600b54600160401b8110156108ab576001810180600b55811015612dcc57600b5f525f8051602061511c8339815191520155565b90815491600160401b8310156108ab5782613ae991600161093495018155613a49565b90919082549060031b91821b915f19901b1916179055565b919091600d9081548015613bac575b50613b19614939565b50929091815492613b286143ab565b9481613b97575b5015613b7457505f1982018281116107415781541115612dcc575f527fd7b6990105719101dabeb77144f2a3385c8033acd3af97e9423a695e81ad1eb4018390559190565b613b88926001600160d01b03169150614dc0565b5050613b9383613a5e565b9190565b65ffffffffffff83811691161490505f613b2f565b600160401b8110156108ab5760018101808455811015612dcc575f908382525f805160206150fc83398151915201555f613b10565b919091600b9081548015613c88575b50613bf96149a4565b50929091815492613c08614424565b9481613c73575b5015613c5457505f1982018281116107415781541115612dcc575f527f0175b7a638427703f0dbe7bb9bbf987a2551717b34e79f33b5b1008d1fa01db8018390559190565b613c68926001600160d01b03169150614ebb565b5050613b9383613a92565b65ffffffffffff83811691161490505f613c0f565b600160401b8110156108ab5760018101808455811015612dcc575f908382525f8051602061511c83398151915201555f613bf0565b90929192600182019081548015613d4b575b5084613cda846149ee565b50949092845493613cea83614498565b9681613d36575b5015613d13575050505f19810190811161074157613ae98591613b9393613a49565b613b93949293613d2f926001600160d01b039091169190614f65565b5050613ac6565b65ffffffffffff83811691161490505f613cf1565b600160401b8110156108ab57806001613d679201845583613a49565b8154905f199060031b1b191690555f613ccf565b90604051613d88816108b0565b915465ffffffffffff8116835260301c6020830152565b600a54905f829160058411613e4a575b613db99350614b55565b8015613e3f57613de9613de4613dce8361267a565b600a5f525f805160206150bc8339815191520190565b613d7b565b91613e38613e2f613e29613e1f613e1a6020613e0b895165ffffffffffff1690565b9801516001600160d01b031690565b613a05565b90549060031b1c90565b9361267a565b63ffffffff1690565b6001939291565b505f905f905f905f90565b9192613e5581614a1c565b810390811161074157600a5f525f805160206150bc833981519152810154613db9949065ffffffffffff9081169085161015613e92575091613daf565b929150613e9e906126a8565b90613daf565b600c54905f829160058411613f10575b613ebe9350614bbe565b8015613e3f57613ee9613de4613ed38361267a565b600c5f525f8051602061509c8339815191520190565b91613e38613e2f613e29613e1f613f0b6020613e0b895165ffffffffffff1690565b613a27565b9192613f1b81614a1c565b810390811161074157600c5f525f8051602061509c833981519152810154613ebe949065ffffffffffff9081169085161015613f58575091613eb4565b929150613f64906126a8565b90613eb4565b91908254905f829160058411613fed575b613f86935085614c27565b908115613fe157613e38613e2f613e29613e1f613fb3613de4613fa88861267a565b895f5260205f200190565b966001613fda6020613fcb8b5165ffffffffffff1690565b9a01516001600160d01b031690565b9101613a49565b5f925082915081908190565b9192613ff881614a1c565b810390811161074157613f8693865f526140216133308360205f200165ffffffffffff90541690565b65ffffffffffff85161015614037575091613f7b565b929150614043906126a8565b90613f7b565b51906109348261086c565b90816101609103126104fa57614068610907565b9061407281612e4f565b825261408060208201612e4f565b602083015261409160408201614049565b60408301526140a260608201612b6d565b60608301526140b360808201612b6d565b608083015260a081015160a08301526140ce60c08201612e4f565b60c08301526140df60e08201612e4f565b60e08301526101006140f2818301612e4f565b90830152610120614104818301612e4f565b90830152614116610140809201612e4f565b9082015290565b905f8060409384519360209461415481611c1088820194639f86fd8560e01b86523060248401528a604484015260648301906112c0565b51915afa50614161612e6f565b805181019280828486019503126104fa57828201519161418083610b31565b81810151906001600160401b0382116104fa57019084603f830112156104fa57838201516141ad81610936565b956141ba835197886108e6565b8187528282850101116104fa578085925f94018388015e85010152156141de575090565b9080519182156104fa5701fd5b5f805160206150dc833981519152546001600160a01b0316330361420b57565b60405163118cdaa760e01b8152336004820152602490fd5b9080821015614230575090565b905090565b8115612c61570490565b9091828202915f19848209938380861095039480860395146142c457848311156142b257829109815f038216809204600280826003021880830282030280830282030280830282030280830282030280830282030280920290030293600183805f03040190848311900302920304170290565b60405163227bc15360e01b8152600490fd5b5050906109a29250614235565b60405163a9059cbb60e01b60208201526001600160a01b0390921660248301526044808301939093529181526109349161430a826108cb565b614888565b90614318612c66565b821015614399575f82815260096020908152604080832033845290915290205460ff16614387576143493383612f59565b918215614375575f9081526009602090815260408083203384529091529020805460ff19166001179055565b6040516366c0bcbf60e11b8152600490fd5b604051630c8d9eab60e31b8152600490fd5b60405163d5b25b6360e01b8152600490fd5b600c54806143eb57505f5b6001600160d01b038116156143e657600d54811015612dcc57600d5f525f805160206150fc833981519152015490565b505f90565b805f1981011161074157600c5f527fdf6966c971051c3d54ec59162606531493a51404a002842f56009d7e5cf4a8c6015460301c6143b6565b600a548061445f57505f5b6001600160d01b038116156143e657600b54811015612dcc57600b5f525f8051602061511c833981519152015490565b805f1981011161074157600a5f527fc65a7bb8d6351c1cf70c95a316cc6a92839c986682d98bc35f958f4883f9d2a7015460301c61442f565b8054806144bd57505f5b6001600160d01b038116156136bc576001613e1f9201613a49565b5f1990808281011161074157825f5260205f2001015460301c6144a2565b9190600181018091116107415760018201809211610741576109a29261423f565b600a54905f829160058411614554575b6145169350614b55565b8061453957505f5b6001600160d01b038116156143e657613e1f6109a291613a05565b614548613dce61454f9261267a565b5460301c90565b61451e565b919261455f81614a1c565b81039081116107415761451693600a5f5265ffffffffffff80835f805160206150bc833981519152015416908516105f1461459b57509161450c565b9291506145a7906126a8565b9061450c565b600c54905f8291600584116145fe575b6145c79350614bbe565b806145ea57505f5b6001600160d01b038116156143e657613e1f6109a291613a27565b614548613ed36145f99261267a565b6145cf565b919261460981614a1c565b8103908111610741576145c793600c5f5265ffffffffffff80835f8051602061509c833981519152015416908516105f146146455750916145bd565b929150614651906126a8565b906145bd565b908154905f8291600584116146ba575b614672935084614c27565b8061469a57505f905b6001600160d01b038216156136bc576109a2916001613e1f9201613a49565b6145486146a96146b49261267a565b835f5260205f200190565b9061467b565b91926146c581614a1c565b81039081116107415761467293855f5265ffffffffffff808360205f20015416908516105f146146f6575091614667565b929150614702906126a8565b90614667565b60405190614715826108b0565b5f6020838281520152565b614728614708565b50614731614708565b50600a54811015612dcc5761475890600a5f525f805160206150bc83398151915201613d7b565b65ffffffffffff81511690602060018060d01b0391015116600b54811015612dcc57600b5f525f8051602061511c83398151915201546040519161479b836108b0565b8252602082015290565b6147ad614708565b506147b6614708565b50600c54811015612dcc576147dd90600c5f525f8051602061509c83398151915201613d7b565b65ffffffffffff81511690602060018060d01b0391015116600d54811015612dcc57600d5f525f805160206150fc83398151915201546040519161479b836108b0565b9061484961484361486a92614833614708565b5061483c614708565b5084613a49565b50613d7b565b91600165ffffffffffff845116936020828060d01b03910151169101613a49565b9054906040519261487a846108b0565b835260031b1c602082015290565b5f806148b09260018060a01b03169360208151910182865af16148a9612e6f565b9083615038565b80519081151591826148de575b50506148c65750565b60249060405190635274afe760e01b82526004820152fd5b6148f19250602080918301019101612e3a565b155f806148bd565b91906001810180911161074157600182018092116107415761491c82828561423f565b928215612c61570961492b5790565b600181018091116107415790565b600c548061494a57505f905f905f90565b805f19810111610741577fdf6966c971051c3d54ec59162606531493a51404a002842f56009d7e5cf4a8c661498391600c5f5201613d7b565b9065ffffffffffff82511691602060018060d01b0391015116906001929190565b600a54806149b557505f905f905f90565b805f19810111610741577fc65a7bb8d6351c1cf70c95a316cc6a92839c986682d98bc35f958f4883f9d2a761498391600a5f5201613d7b565b8054806149ff5750505f905f905f90565b5f1990808281011161074157614983925f5260205f200101613d7b565b80156143e65780614aee614ae7614add614ad3614ac9614abf614ab5614aab60016109a29a5f908b60801c80614b49575b508060401c80614b3c575b508060201c80614b2f575b508060101c80614b22575b508060081c80614b15575b508060041c80614b08575b508060021c80614afb575b50821c614af4575b811c1b614aa4818b614235565b0160011c90565b614aa4818a614235565b614aa48189614235565b614aa48188614235565b614aa48187614235565b614aa48186614235565b614aa48185614235565b8092614235565b90614223565b8101614a97565b600291509101905f614a8f565b600491509101905f614a84565b600891509101905f614a79565b601091509101905f614a6e565b602091509101905f614a63565b604091509101905f614a58565b9150506080905f614a4d565b905b828110614b6357505090565b9091808216906001818418811c830180931161074157600a5f5265ffffffffffff80845f805160206150bc833981519152015416908616105f14614bab575050915b90614b57565b9093925081018091116107415790614ba5565b905b828110614bcc57505090565b9091808216906001818418811c830180931161074157600c5f5265ffffffffffff80845f8051602061509c833981519152015416908616105f14614c14575050915b90614bc0565b9093925081018091116107415790614c0e565b91905b838210614c375750505090565b909192808316906001818518811c830180931161074157855f5265ffffffffffff808460205f20015416908516105f14614c76575050925b9190614c2a565b9094935081018091116107415791614c6f565b60ff5f8051602061517c8339815191525460401c1615614ca557565b604051631afcd79f60e31b8152600490fd5b600c5490600160401b8210156108ab576001820180600c55821015612dcc57600c5f52805160209091015160301b65ffffffffffff191665ffffffffffff91909116175f8051602061509c83398151915290910155565b600a5490600160401b8210156108ab576001820180600a55821015612dcc57600a5f52805160209091015160301b65ffffffffffff191665ffffffffffff91909116175f805160206150bc83398151915290910155565b8054600160401b8110156108ab57614d8291600182018155613a49565b614dad57815160209092015160301b65ffffffffffff191665ffffffffffff92909216919091179055565b634e487b7160e01b5f525f60045260245ffd5b600c54919291908115614e9257614ddc613de4613ed38461267a565b805165ffffffffffff8381169491168410614e805785602093613b9395614e0c613330865165ffffffffffff1690565b03614e485750614e21613ed3614e3a9361267a565b9065ffffffffffff82549181199060301b169116179055565b01516001600160d01b031690565b9050614e7b9150614e68614e5a610927565b65ffffffffffff9092168252565b6001600160d01b03871681850152614cb7565b614e3a565b604051632520601d60e01b8152600490fd5b614eb69150614ea2614e5a610927565b6001600160d01b0384166020820152614cb7565b5f9190565b600a54919291908115614f4157614ed7613de4613dce8461267a565b805165ffffffffffff8381169491168410614e805785602093613b9395614f07613330865165ffffffffffff1690565b03614f1c5750614e21613dce614e3a9361267a565b9050614e7b9150614f2e614e5a610927565b6001600160d01b03871681850152614d0e565b614eb69150614f51614e5a610927565b6001600160d01b0384166020820152614d0e565b80549293929190821561501457614f81613de46146a98561267a565b90614f92825165ffffffffffff1690565b65ffffffffffff84811691168110614e8057613b93946020948892614fc0613330875165ffffffffffff1690565b03614fe15750614e3a92614fd6614e219261267a565b905f5260205f200190565b915050614e7b91615001614ff3610927565b65ffffffffffff9093168352565b6001600160d01b03881682860152614d65565b614eb69250615024614ff3610927565b6001600160d01b0385166020830152614d65565b9061505f575080511561504d57805190602001fd5b604051630a12f52160e11b8152600490fd5b81511580615092575b615070575090565b604051639996b31560e01b81526001600160a01b039091166004820152602490fd5b50803b1561506856fedf6966c971051c3d54ec59162606531493a51404a002842f56009d7e5cf4a8c7c65a7bb8d6351c1cf70c95a316cc6a92839c986682d98bc35f958f4883f9d2a89016d09d72d40fdae2fd8ceac6b6234c7706214fd39c1cd1e609a0528c199300d7b6990105719101dabeb77144f2a3385c8033acd3af97e9423a695e81ad1eb50175b7a638427703f0dbe7bb9bbf987a2551717b34e79f33b5b1008d1fa01db902dd7bc7dec4dceedda775e58dd541e08a116c6c53815c0bd028192f7b6268009b779b17422d0df92223018b32b4d1fa46e071723d6817e2486d003becc55f00f0c57e16840df040f15088dc2f81fe391c3923bec73e23a9662efc9c229c6a00a26469706673582212202d32b7839f689cc9a739e4d9bd456d90771a02d978755fb1b508b7f388f383dd64736f6c63430008190033","linkReferences":{}},"methodIdentifiers":{"DEFAULT_ADMIN_ROLE()":"a217fddf","DELEGATOR_FACTORY()":"6da3e06d","DEPOSITOR_WHITELIST_ROLE()":"1b66c9e1","DEPOSIT_LIMIT_SET_ROLE()":"a21a1df9","DEPOSIT_WHITELIST_SET_ROLE()":"db388715","FACTORY()":"2dd31000","IS_DEPOSIT_LIMIT_SET_ROLE()":"1415519b","SLASHER_FACTORY()":"87df0788","activeBalanceOf(address)":"59f769a9","activeBalanceOfAt(address,uint48,bytes)":"efb559d6","activeBalanceOfHints(address,address,uint48)":"f9e1bf6c","activeShares()":"bfefcd7b","activeSharesAt(uint48,bytes)":"50f22068","activeSharesHint(address,uint48)":"8326056f","activeSharesHintInternal(uint48)":"55a2c672","activeSharesOf(address)":"9d66201b","activeSharesOfAt(address,uint48,bytes)":"2d73c69c","activeSharesOfHint(address,address,uint48)":"de499716","activeSharesOfHintInternal(address,uint48)":"eb556238","activeStake()":"bd49c35f","activeStakeAt(uint48,bytes)":"810da75d","activeStakeHint(address,uint48)":"64b03fdc","activeStakeHintInternal(uint48)":"67567add","burner()":"27810b6e","claim(address,uint256)":"aad3ec96","claimBatch(address,uint256[])":"7c04c80a","collateral()":"d8dfeb45","currentEpoch()":"76671808","currentEpochStart()":"61a8c8c4","delegator()":"ce9b7930","deposit(address,uint256)":"47e7ef24","depositLimit()":"ecf70858","depositWhitelist()":"48d3b775","epochAt(uint48)":"7953b33b","epochDuration()":"4ff0876a","epochDurationInit()":"46361671","getRoleAdmin(bytes32)":"248a9ca3","grantRole(bytes32,address)":"2f2ff15d","hasRole(bytes32,address)":"91d14854","initialize(uint64,address,bytes)":"57ec83cc","isDelegatorInitialized()":"50861adc","isDepositLimit()":"a1b12202","isDepositorWhitelisted(address)":"794b15b7","isInitialized()":"392e53cd","isSlasherInitialized()":"6ec1e3f8","isWithdrawalsClaimed(uint256,address)":"a5d03223","migrate(uint64,bytes)":"2abe3048","nextEpochStart()":"73790ab3","onSlash(uint256,uint48)":"7278e31c","owner()":"8da5cb5b","previousEpochStart()":"281f5752","redeem(address,uint256)":"1e9a6950","renounceOwnership()":"715018a6","renounceRole(bytes32,address)":"36568abe","revokeRole(bytes32,address)":"d547741f","setDelegator(address)":"83cd9cc3","setDepositLimit(uint256)":"bdc8144b","setDepositWhitelist(bool)":"4105a7dd","setDepositorWhitelistStatus(address,bool)":"a2861466","setIsDepositLimit(bool)":"5346e34f","setSlasher(address)":"aabc2496","slashableBalanceOf(address)":"c31e8dd7","slasher()":"b1344271","staticDelegateCall(address,bytes)":"9f86fd85","supportsInterface(bytes4)":"01ffc9a7","totalStake()":"8b0e9f3f","transferOwnership(address)":"f2fde38b","version()":"54fd4d50","withdraw(address,uint256)":"f3fef3a3","withdrawalShares(uint256)":"afba70ad","withdrawalSharesOf(uint256,address)":"a3b54172","withdrawals(uint256)":"5cc07076","withdrawalsOf(uint256,address)":"f5e7ee0f"},"id":84}