{"abi":[{"type":"constructor","inputs":[],"stateMutability":"nonpayable"},{"type":"function","name":"activeBalanceOfHints","inputs":[{"name":"vault","type":"address","internalType":"address"},{"name":"account","type":"address","internalType":"address"},{"name":"timestamp","type":"uint48","internalType":"uint48"}],"outputs":[{"name":"hints","type":"bytes","internalType":"bytes"}],"stateMutability":"view"},{"type":"function","name":"activeSharesHint","inputs":[{"name":"vault","type":"address","internalType":"address"},{"name":"timestamp","type":"uint48","internalType":"uint48"}],"outputs":[{"name":"hint","type":"bytes","internalType":"bytes"}],"stateMutability":"view"},{"type":"function","name":"activeSharesHintInternal","inputs":[{"name":"timestamp","type":"uint48","internalType":"uint48"}],"outputs":[{"name":"exists","type":"bool","internalType":"bool"},{"name":"hint","type":"uint32","internalType":"uint32"}],"stateMutability":"view"},{"type":"function","name":"activeSharesOfHint","inputs":[{"name":"vault","type":"address","internalType":"address"},{"name":"account","type":"address","internalType":"address"},{"name":"timestamp","type":"uint48","internalType":"uint48"}],"outputs":[{"name":"hint","type":"bytes","internalType":"bytes"}],"stateMutability":"view"},{"type":"function","name":"activeSharesOfHintInternal","inputs":[{"name":"account","type":"address","internalType":"address"},{"name":"timestamp","type":"uint48","internalType":"uint48"}],"outputs":[{"name":"exists","type":"bool","internalType":"bool"},{"name":"hint","type":"uint32","internalType":"uint32"}],"stateMutability":"view"},{"type":"function","name":"activeStakeHint","inputs":[{"name":"vault","type":"address","internalType":"address"},{"name":"timestamp","type":"uint48","internalType":"uint48"}],"outputs":[{"name":"hint","type":"bytes","internalType":"bytes"}],"stateMutability":"view"},{"type":"function","name":"activeStakeHintInternal","inputs":[{"name":"timestamp","type":"uint48","internalType":"uint48"}],"outputs":[{"name":"exists","type":"bool","internalType":"bool"},{"name":"hint","type":"uint32","internalType":"uint32"}],"stateMutability":"view"},{"type":"function","name":"burner","inputs":[],"outputs":[{"name":"","type":"address","internalType":"address"}],"stateMutability":"view"},{"type":"function","name":"collateral","inputs":[],"outputs":[{"name":"","type":"address","internalType":"address"}],"stateMutability":"view"},{"type":"function","name":"delegator","inputs":[],"outputs":[{"name":"","type":"address","internalType":"address"}],"stateMutability":"view"},{"type":"function","name":"depositLimit","inputs":[],"outputs":[{"name":"","type":"uint256","internalType":"uint256"}],"stateMutability":"view"},{"type":"function","name":"depositWhitelist","inputs":[],"outputs":[{"name":"","type":"bool","internalType":"bool"}],"stateMutability":"view"},{"type":"function","name":"epochDuration","inputs":[],"outputs":[{"name":"","type":"uint48","internalType":"uint48"}],"stateMutability":"view"},{"type":"function","name":"epochDurationInit","inputs":[],"outputs":[{"name":"","type":"uint48","internalType":"uint48"}],"stateMutability":"view"},{"type":"function","name":"isDelegatorInitialized","inputs":[],"outputs":[{"name":"","type":"bool","internalType":"bool"}],"stateMutability":"view"},{"type":"function","name":"isDepositLimit","inputs":[],"outputs":[{"name":"","type":"bool","internalType":"bool"}],"stateMutability":"view"},{"type":"function","name":"isDepositorWhitelisted","inputs":[{"name":"account","type":"address","internalType":"address"}],"outputs":[{"name":"value","type":"bool","internalType":"bool"}],"stateMutability":"view"},{"type":"function","name":"isSlasherInitialized","inputs":[],"outputs":[{"name":"","type":"bool","internalType":"bool"}],"stateMutability":"view"},{"type":"function","name":"isWithdrawalsClaimed","inputs":[{"name":"epoch","type":"uint256","internalType":"uint256"},{"name":"account","type":"address","internalType":"address"}],"outputs":[{"name":"value","type":"bool","internalType":"bool"}],"stateMutability":"view"},{"type":"function","name":"slasher","inputs":[],"outputs":[{"name":"","type":"address","internalType":"address"}],"stateMutability":"view"},{"type":"function","name":"withdrawalShares","inputs":[{"name":"epoch","type":"uint256","internalType":"uint256"}],"outputs":[{"name":"amount","type":"uint256","internalType":"uint256"}],"stateMutability":"view"},{"type":"function","name":"withdrawalSharesOf","inputs":[{"name":"epoch","type":"uint256","internalType":"uint256"},{"name":"account","type":"address","internalType":"address"}],"outputs":[{"name":"amount","type":"uint256","internalType":"uint256"}],"stateMutability":"view"},{"type":"function","name":"withdrawals","inputs":[{"name":"epoch","type":"uint256","internalType":"uint256"}],"outputs":[{"name":"amount","type":"uint256","internalType":"uint256"}],"stateMutability":"view"},{"type":"error","name":"ExternalCall","inputs":[]}],"bytecode":{"object":"0x60a08060405234603057306080526111a290816100358239608051818181610283015281816103d701526106860152f35b5f80fdfe60806040526004361015610011575f80fd5b5f3560e01c806327810b6e14610184578063463616711461017f57806348d3b7751461017a5780634ff0876a1461017557806350861adc1461017057806355a2c6721461016b5780635cc070761461016657806364b03fdc1461016157806367567add1461015c5780636ec1e3f814610157578063794b15b7146101525780638326056f1461014d578063a1b1220214610148578063a3b5417214610143578063a5d032231461013e578063afba70ad14610139578063b134427114610134578063ce9b79301461012f578063d8dfeb451461012a578063de49971614610125578063eb55623814610120578063ecf708581461011b5763f9e1bf6c14610116575f80fd5b6106df565b6106c2565b61065b565b610641565b6105d2565b6105aa565b610582565b610558565b61050a565b6104c1565b61049d565b610470565b610433565b61040e565b6103bc565b61037b565b6102ed565b610268565b610219565b6101f9565b6101d8565b6101b0565b346101ac575f3660031901126101ac576001546040516001600160a01b039091168152602090f35b5f80fd5b346101ac575f3660031901126101ac57602065ffffffffffff60015460a01c16604051908152f35b346101ac575f3660031901126101ac57602060ff5f54166040519015158152f35b346101ac575f3660031901126101ac57602060015460d01c604051908152f35b346101ac575f3660031901126101ac57602060ff60025460a01c166040519015158152f35b6004359065ffffffffffff821682036101ac57565b6024359065ffffffffffff821682036101ac57565b346101ac5760203660031901126101ac5761028161023e565b7f00000000000000000000000000000000000000000000000000000000000000006001600160a01b031633036102db576102ba90610a89565b60408051941515855263ffffffff91909116602085015292915050f35b0390f35b604051637ca475e560e11b8152600490fd5b346101ac5760203660031901126101ac576004355f526006602052602060405f2054604051908152f35b600435906001600160a01b03821682036101ac57565b602435906001600160a01b03821682036101ac57565b805180835260209291819084018484015e5f828201840152601f01601f1916010190565b906020610378928181520190610343565b90565b346101ac5760403660031901126101ac576102d76103a861039a610317565b6103a2610253565b90610881565b604051918291602083526020830190610343565b346101ac5760203660031901126101ac576103d561023e565b7f00000000000000000000000000000000000000000000000000000000000000006001600160a01b031633036102db576102ba90610bb4565b346101ac575f3660031901126101ac57602060ff60035460a01c166040519015158152f35b346101ac5760203660031901126101ac576001600160a01b03610454610317565b165f526005602052602060ff60405f2054166040519015158152f35b346101ac5760403660031901126101ac576102d76103a861048f610317565b610497610253565b906108f3565b346101ac575f3660031901126101ac57602060ff5f5460081c166040519015158152f35b346101ac5760403660031901126101ac5760206105016104df61032d565b6004355f526008835260405f209060018060a01b03165f5260205260405f2090565b54604051908152f35b346101ac5760403660031901126101ac57602060ff61054c61052a61032d565b6004355f526009845260405f209060018060a01b03165f5260205260405f2090565b54166040519015158152f35b346101ac5760203660031901126101ac576004355f526007602052602060405f2054604051908152f35b346101ac575f3660031901126101ac576003546040516001600160a01b039091168152602090f35b346101ac575f3660031901126101ac576002546040516001600160a01b039091168152602090f35b346101ac575f3660031901126101ac575f5460405160109190911c6001600160a01b03168152602090f35b60609060031901126101ac576001600160a01b039060043582811681036101ac579160243590811681036101ac579060443565ffffffffffff811681036101ac5790565b346101ac576102d76103a8610655366105fd565b9161092a565b346101ac5760403660031901126101ac57610674610317565b61067c610253565b6001600160a01b037f0000000000000000000000000000000000000000000000000000000000000000811633036102db576102ba92165f52600e60205260405f20610ca0565b346101ac575f3660031901126101ac576020600454604051908152f35b346101ac576102d76106f0366105fd565b9091610713610702836060958461092a565b9261070d8184610881565b926108f3565b908251158015906107cd575b80156107c3575b61073a575b50505060405191829182610367565b61078693506107bb92916107ad9160405193610755856107eb565b8452602084019081526040840191825261079c604051968795602080880152516060604088015260a0870190610343565b915191603f199283878303016060880152610343565b915190848303016080850152610343565b03601f198101835282610828565b5f808061072b565b5081511515610726565b508051151561071f565b634e487b7160e01b5f52604160045260245ffd5b6060810190811067ffffffffffffffff82111761080757604052565b6107d7565b6040810190811067ffffffffffffffff82111761080757604052565b90601f8019910116810190811067ffffffffffffffff82111761080757604052565b519081151582036101ac57565b91908260409103126101ac57602061086e8361084a565b92015163ffffffff811681036101ac5790565b91906108bd6108cc9160609465ffffffffffff604051926367567add60e01b6020850152166024830152602482526108b8826107eb565b610e18565b60208082518301019101610857565b906108d45750565b90915063ffffffff60405191166020820152602081526103788161080c565b91906108bd6108cc9160609465ffffffffffff60405192632ad1633960e11b6020850152166024830152602482526108b8826107eb565b604051631d6aac4760e31b60208201526001600160a01b03909216602483015265ffffffffffff90921660448083019190915281526060929190608081019067ffffffffffffffff821181831017610807576108cc926108bd92604052610e18565b634e487b7160e01b5f52601160045260245ffd5b5f198101919082116109ae57565b61098c565b90600182018092116109ae57565b906040516040810181811067ffffffffffffffff82111761080757604052915465ffffffffffff8116835260301c6020830152565b600b54811015610a2b57600b5f527f0175b7a638427703f0dbe7bb9bbf987a2551717b34e79f33b5b1008d1fa01db901905f90565b634e487b7160e01b5f52603260045260245ffd5b600d54811015610a2b57600d5f527fd7b6990105719101dabeb77144f2a3385c8033acd3af97e9423a695e81ad1eb501905f90565b8054821015610a2b575f5260205f2001905f90565b600a54905f829160058411610b47575b610aa39350611009565b8015610b3c57610ae6610ae1610ab8836109a0565b600a5f527fc65a7bb8d6351c1cf70c95a316cc6a92839c986682d98bc35f958f4883f9d2a80190565b6109c1565b91610b35610b2c610b26610b1c610b176020610b08895165ffffffffffff1690565b9801516001600160d01b031690565b6109f6565b90549060031b1c90565b936109a0565b63ffffffff1690565b6001939291565b505f905f905f905f90565b9192610b5281610ecb565b81039081116109ae57600a5f527fc65a7bb8d6351c1cf70c95a316cc6a92839c986682d98bc35f958f4883f9d2a8810154610aa3949065ffffffffffff9081169085161015610ba2575091610a99565b929150610bae906109b3565b90610a99565b600c54905f829160058411610c33575b610bce9350611082565b8015610b3c57610c0c610ae1610be3836109a0565b600c5f527fdf6966c971051c3d54ec59162606531493a51404a002842f56009d7e5cf4a8c70190565b91610b35610b2c610b26610b1c610c2e6020610b08895165ffffffffffff1690565b610a3f565b9192610c3e81610ecb565b81039081116109ae57600c5f527fdf6966c971051c3d54ec59162606531493a51404a002842f56009d7e5cf4a8c7810154610bce949065ffffffffffff9081169085161015610c8e575091610bc4565b929150610c9a906109b3565b90610bc4565b91908254905f829160058411610d23575b610cbc9350856110fb565b908115610d1757610b35610b2c610b26610b1c610ce9610ae1610cde886109a0565b895f5260205f200190565b966001610d106020610d018b5165ffffffffffff1690565b9a01516001600160d01b031690565b9101610a74565b5f925082915081908190565b9192610d2e81610ecb565b81039081116109ae57610cbc93865f52610d62610d578360205f200165ffffffffffff90541690565b65ffffffffffff1690565b65ffffffffffff85161015610d78575091610cb1565b929150610d84906109b3565b90610cb1565b67ffffffffffffffff811161080757601f01601f191660200190565b91906040838203126101ac57610dbb8361084a565b9260208101519067ffffffffffffffff82116101ac570181601f820112156101ac57805190610de982610d8a565b92610df76040519485610828565b828452602083830101116101ac57815f9260208093018386015e8301015290565b5f91908291604051610e4d816107ad6020820194639f86fd8560e01b8652306024840152604060448401526064830190610343565b51915afa503d15610ea357610e8c3d610e6581610d8a565b90610e736040519283610828565b81523d5f602083013e5b60208082518301019101610da6565b9015610e955790565b80519081156101ac57602001fd5b610e8c6060610e7d565b8115610eb7570490565b634e487b7160e01b5f52601260045260245ffd5b80156110045780610f9d610f96610f8c610f82610f78610f6e610f64610f5a60016103789a5f908b60801c80610ff8575b508060401c80610feb575b508060201c80610fde575b508060101c80610fd1575b508060081c80610fc4575b508060041c80610fb7575b508060021c80610faa575b50821c610fa3575b811c1b610f53818b610ead565b0160011c90565b610f53818a610ead565b610f538189610ead565b610f538188610ead565b610f538187610ead565b610f538186610ead565b610f538185610ead565b8092610ead565b9061115a565b8101610f46565b600291509101905f610f3e565b600491509101905f610f33565b600891509101905f610f28565b601091509101905f610f1d565b602091509101905f610f12565b604091509101905f610f07565b9150506080905f610efc565b505f90565b905b82811061101757505090565b90918082169080831860011c82018092116109ae57600a5f5265ffffffffffff80837fc65a7bb8d6351c1cf70c95a316cc6a92839c986682d98bc35f958f4883f9d2a8015416908516105f146110705750915b9061100b565b92915061107c906109b3565b9061106a565b905b82811061109057505090565b90918082169080831860011c82018092116109ae57600c5f5265ffffffffffff80837fdf6966c971051c3d54ec59162606531493a51404a002842f56009d7e5cf4a8c7015416908516105f146110e95750915b90611084565b9291506110f5906109b3565b906110e3565b91905b83821061110b5750505090565b9091928083169080841860011c82018092116109ae57845f5265ffffffffffff808360205f20015416908416105f146111485750925b91906110fe565b939250611154906109b3565b91611141565b9080821015611167575090565b90509056fea264697066735822122007964c6837e547e1c0c255811015a819a48af2790cd07e32c49f7d436733aa1264736f6c63430008190033","linkReferences":{}},"methodIdentifiers":{"activeBalanceOfHints(address,address,uint48)":"f9e1bf6c","activeSharesHint(address,uint48)":"8326056f","activeSharesHintInternal(uint48)":"55a2c672","activeSharesOfHint(address,address,uint48)":"de499716","activeSharesOfHintInternal(address,uint48)":"eb556238","activeStakeHint(address,uint48)":"64b03fdc","activeStakeHintInternal(uint48)":"67567add","burner()":"27810b6e","collateral()":"d8dfeb45","delegator()":"ce9b7930","depositLimit()":"ecf70858","depositWhitelist()":"48d3b775","epochDuration()":"4ff0876a","epochDurationInit()":"46361671","isDelegatorInitialized()":"50861adc","isDepositLimit()":"a1b12202","isDepositorWhitelisted(address)":"794b15b7","isSlasherInitialized()":"6ec1e3f8","isWithdrawalsClaimed(uint256,address)":"a5d03223","slasher()":"b1344271","withdrawalShares(uint256)":"afba70ad","withdrawalSharesOf(uint256,address)":"a3b54172","withdrawals(uint256)":"5cc07076"},"id":154}