{"abi":[{"type":"constructor","inputs":[{"name":"optInServiceHints","type":"address","internalType":"address"},{"name":"vaultHints_","type":"address","internalType":"address"}],"stateMutability":"nonpayable"},{"type":"function","name":"FULL_RESTAKE_DELEGATOR_HINTS","inputs":[],"outputs":[{"name":"","type":"address","internalType":"address"}],"stateMutability":"view"},{"type":"function","name":"NETWORK_RESTAKE_DELEGATOR_HINTS","inputs":[],"outputs":[{"name":"","type":"address","internalType":"address"}],"stateMutability":"view"},{"type":"function","name":"OPERATOR_NETWORK_SPECIFIC_DELEGATOR_HINTS","inputs":[],"outputs":[{"name":"","type":"address","internalType":"address"}],"stateMutability":"view"},{"type":"function","name":"OPERATOR_SPECIFIC_DELEGATOR_HINTS","inputs":[],"outputs":[{"name":"","type":"address","internalType":"address"}],"stateMutability":"view"},{"type":"function","name":"OPT_IN_SERVICE_HINTS","inputs":[],"outputs":[{"name":"","type":"address","internalType":"address"}],"stateMutability":"view"},{"type":"function","name":"hook","inputs":[],"outputs":[{"name":"","type":"address","internalType":"address"}],"stateMutability":"view"},{"type":"function","name":"maxNetworkLimit","inputs":[{"name":"subnetwork","type":"bytes32","internalType":"bytes32"}],"outputs":[{"name":"value","type":"uint256","internalType":"uint256"}],"stateMutability":"view"},{"type":"function","name":"stakeBaseHints","inputs":[{"name":"delegator","type":"address","internalType":"address"},{"name":"subnetwork","type":"bytes32","internalType":"bytes32"},{"name":"operator","type":"address","internalType":"address"},{"name":"timestamp","type":"uint48","internalType":"uint48"}],"outputs":[{"name":"baseHints","type":"bytes","internalType":"bytes"}],"stateMutability":"view"},{"type":"function","name":"stakeHints","inputs":[{"name":"delegator","type":"address","internalType":"address"},{"name":"subnetwork","type":"bytes32","internalType":"bytes32"},{"name":"operator","type":"address","internalType":"address"},{"name":"timestamp","type":"uint48","internalType":"uint48"}],"outputs":[{"name":"hints","type":"bytes","internalType":"bytes"}],"stateMutability":"view"},{"type":"function","name":"vault","inputs":[],"outputs":[{"name":"","type":"address","internalType":"address"}],"stateMutability":"view"},{"type":"error","name":"ExternalCall","inputs":[]}],"bytecode":{"object":"0x61014034610214576001600160401b0390614446601f38829003908101601f1916830190848211848310176101f6578084916040948594855283398101031261021457610057602061005084610218565b9301610218565b913060805260a0528051610f31808201828110868211176101f65784610097918493610cb585393081526001600160a01b03909116602082015260400190565b03905ff09182156101ec576001600160a01b0392831660c0528151610e0b808201868111838210176101f657836100e8918493611be685393081526001600160a01b03909116602082015260400190565b03905ff0801561020a57831660e0528151610cf3808201828110878211176101f6578361012f9184936129f185393081526001600160a01b03909116602082015260400190565b03905ff093841561020a578361010095168552825191610d629081840192848410908411176101f657839261017c926136e485393081526001600160a01b03909116602082015260400190565b03905ff09182156101ec57610120921682525190610a88928361022d843960805183505060a0518381816101bc01526105d3015260c05183818161029d01526108a9015260e051838181610152015261036301525182818160e8015261040801525181818160a101526104a10152f35b50513d5f823e3d90fd5b634e487b7160e01b5f52604160045260245ffd5b82513d5f823e3d90fd5b5f80fd5b51906001600160a01b03821682036102145756fe6080604090808252600480361015610015575f80fd5b5f3560e01c918263075db03614610897575081631bf10a3e1461059f57816325dc9708146102135781637f5a7c7b146101eb5781639b656b22146101a8578163d15b740e1461018157508063e102831a1461013e578063fbfa77cf14610117578063fd8ceb5d146100d45763ff21581b1461008e575f80fd5b346100d0575f3660031901126100d057517f00000000000000000000000000000000000000000000000000000000000000006001600160a01b03168152602090f35b5f80fd5b50346100d0575f3660031901126100d057517f00000000000000000000000000000000000000000000000000000000000000006001600160a01b03168152602090f35b50346100d0575f3660031901126100d0575f5490516001600160a01b039091168152602090f35b50346100d0575f3660031901126100d057517f00000000000000000000000000000000000000000000000000000000000000006001600160a01b03168152602090f35b82346100d05760203660031901126100d057602091355f5260028252805f20549051908152f35b82346100d0575f3660031901126100d057517f00000000000000000000000000000000000000000000000000000000000000006001600160a01b03168152602090f35b82346100d0575f3660031901126100d05760015490516001600160a01b039091168152602090f35b82346100d057610222366108d8565b8451635d927f4560e11b8082526060976020969495946001600160a01b0394909391929091908585169089838681855afa928315610595575f93610576575b5067ffffffffffffffff92831661031257505050879850610299905f96979851978896879586956304bb92e160e31b87528601610a20565b03917f0000000000000000000000000000000000000000000000000000000000000000165afa8015610308576102e2915f916102e6575b50925b5192828493845283019061091f565b0390f35b61030291503d805f833e6102fa8183610943565b810190610998565b846102d0565b83513d5f823e3d90fd5b8a518181528a818781865afa90811561054f5760019185915f91610559575b5016036103b75750505087985061035f905f96979851978896879586956304bb92e160e31b87528601610a20565b03917f0000000000000000000000000000000000000000000000000000000000000000165afa8015610308576102e2915f9161039d575b50926102d3565b6103b191503d805f833e6102fa8183610943565b84610396565b8a518181528a818781865afa90811561054f5760029185915f91610532575b50160361044157505050879850610404905f96979851978896879586956304bb92e160e31b87528601610a20565b03917f0000000000000000000000000000000000000000000000000000000000000000165afa8015610308576102e2915f9161039d5750926102d3565b988a9985829c518094819382525afa9081156105285790600392915f916104fb575b50161461047a575b5050505050506102e2906102d3565b86985061049d905f969751978896879586956304bb92e160e31b87528601610a20565b03917f0000000000000000000000000000000000000000000000000000000000000000165afa8015610308576102e2915f916104e1575b509290848080808061046b565b6104f591503d805f833e6102fa8183610943565b846104d4565b61051b91508b3d8d11610521575b6105138183610943565b810190610a00565b8c610463565b503d610509565b89513d5f823e3d90fd5b61054991508d803d10610521576105138183610943565b8f6103d6565b8c513d5f823e3d90fd5b61057091508d803d10610521576105138183610943565b8f610331565b61058e9193508a3d8c11610521576105138183610943565b918c610261565b8b513d5f823e3d90fd5b9050346100d0576105af366108d8565b85516309472ec160e11b815260609660209690959094929391926001600160a01b037f00000000000000000000000000000000000000000000000000000000000000008116921688858881845afa94851561088d575f9561086e575b50875163fbfa77cf60e01b81529489868981855afa95861561052857908892915f9761084b575b508951636a531c3160e11b8082526001600160a01b03928316948201948552828816602086015291909716604084015265ffffffffffff88166060840152915f90879081906080010381875afa95861561052857889695949392918b915f9761082f575b508a51621a80e560e81b815297889182905afa958615610528575f966107fa575b5088519081526001600160a01b03958616888201908152959093166020860152606090811c604086015265ffffffffffff909516948401949094529290915f918491829081906080015b03915afa9182156107f0575f926107d4575b508051158015906107ca575b61073a575b5050506102e2905192828493845283019061091f565b835193955090918386019067ffffffffffffffff8211858310176107b75750926107a061078d936107ae936102e2968952835286830190815287519485938880860152518980860152608085019061091f565b9051838203603f1901606085015261091f565b03601f198101835282610943565b92905f80610724565b604190634e487b7160e01b5f525260245ffd5b508151151561071f565b6107e99192503d805f833e6102fa8183610943565b905f610713565b84513d5f823e3d90fd5b5f959650610820610701918c8d3d10610828575b6108188183610943565b810190610979565b9695506106b7565b503d61080e565b6108449197503d805f833e6102fa8183610943565b955f610696565b5f91975061086687918d803d10610828576108188183610943565b979150610632565b610886919550893d8b11610828576108188183610943565b935f61060b565b88513d5f823e3d90fd5b346100d0575f3660031901126100d0577f00000000000000000000000000000000000000000000000000000000000000006001600160a01b03168152602090f35b60809060031901126100d0576001600160a01b0360043581811681036100d057916024359160443590811681036100d0579060643565ffffffffffff811681036100d05790565b805180835260209291819084018484015e5f828201840152601f01601f1916010190565b90601f8019910116810190811067ffffffffffffffff82111761096557604052565b634e487b7160e01b5f52604160045260245ffd5b908160209103126100d057516001600160a01b03811681036100d05790565b602080828403126100d057815167ffffffffffffffff928382116100d057019183601f840112156100d057825190811161096557604051936109e3601f8301601f1916840186610943565b8185528282850101116100d05780825f94018386015e8301015290565b908160209103126100d0575167ffffffffffffffff811681036100d05790565b6001600160a01b0391821681526020810192909252909116604082015265ffffffffffff90911660608201526080019056fea2646970667358221220754c009bf161308d64b8997e517578f5e3095d4febd2ce405c97eeb3e7b2114964736f6c6343000819003360e0346100a357601f610f3138819003918201601f19168301916001600160401b038311848410176100a75780849260409485528339810103126100a357610052602061004b836100bb565b92016100bb565b903060805260a05260c052604051610e6190816100d082396080518181816101df015281816105a40152610698015260a0518181816102ad015261051d015260c05181818161034c01526104d90152f35b5f80fd5b634e487b7160e01b5f52604160045260245ffd5b51906001600160a01b03821682036100a35756fe60806040526004361015610011575f80fd5b5f3560e01c806307f9d5fd146100d4578063197aa7ea146100cf57806325dc9708146100ca57806345e78fcb146100c557806379d89614146100c05780637f5a7c7b146100bb578063987b3ee8146100b6578063b549ef1f146100b1578063d15b740e146100ac578063da749d2b146100a7578063ed4d89e5146100a25763fbfa77cf1461009d575f80fd5b6106dd565b61067d565b610663565b610639565b61061f565b610574565b61054c565b610508565b6104c4565b610253565b6101c4565b61018f565b6001600160a01b038116036100ea57565b5f80fd5b6024359065ffffffffffff821682036100ea57565b6044359065ffffffffffff821682036100ea57565b60809060031901126100ea57600435610130816100d9565b9060243590604435610141816100d9565b9060643565ffffffffffff811681036100ea5790565b805180835260209291819084018484015e5f828201840152601f01601f1916010190565b90602061018c928181520190610157565b90565b346100ea576101c06101ac6101a336610118565b929190916107ae565b604051918291602083526020830190610157565b0390f35b346100ea5760403660031901126100ea576101dd6100ee565b7f00000000000000000000000000000000000000000000000000000000000000006001600160a01b0316330361024157610224906004355f52600360205260405f20610b4f565b60408051941515855263ffffffff91909116602085015292915050f35b604051637ca475e560e11b8152600490fd5b346100ea5761026136610118565b60408051630df8851f60e11b81526001600160a01b03868116600483015260248201869052848116604483015265ffffffffffff84166064830152956060949293919290915f846084817f00000000000000000000000000000000000000000000000000000000000000008c165afa938415610474575f946104a8575b50845163fbfa77cf60e01b8152602081600481878d165afa90811561047457610348995f9284928491610479575b50885163192c0ff760e21b81526001600160a01b03909116600482015265ffffffffffff909216602483015290998a9190829081906044820190565b03917f0000000000000000000000000000000000000000000000000000000000000000165afa968715610474576101c0985f9861044a575b50908161039d82610395816103a396896109b2565b9583886107ae565b94610968565b90835115801590610440575b8015610436575b801561042c575b8015610422575b6103d4575b84518089888261017b565b61040a955061041894966103e6610834565b948552602085015286840152606083015260808201528351928391602083016108eb565b03601f198101835282610755565b815f8080806103c9565b50815115156103c4565b50825115156103bd565b50805115156103b6565b50865115156103af565b6103a39291985061046c903d805f833e6104648183610755565b8101906108a5565b979091610380565b6108cb565b61049b915060203d6020116104a1575b6104938183610755565b8101906108d6565b5f61030c565b503d610489565b6104bd9194503d805f833e6104648183610755565b925f6102de565b346100ea575f3660031901126100ea576040517f00000000000000000000000000000000000000000000000000000000000000006001600160a01b03168152602090f35b346100ea575f3660031901126100ea576040517f00000000000000000000000000000000000000000000000000000000000000006001600160a01b03168152602090f35b346100ea575f3660031901126100ea576001546040516001600160a01b039091168152602090f35b346100ea5760603660031901126100ea57602435610591816100d9565b610599610103565b6001600160a01b03917f00000000000000000000000000000000000000000000000000000000000000008316330361024157610224926004355f52600560205260405f2091165f5260205260405f20610b4f565b60609060031901126100ea57600435610605816100d9565b906024359060443565ffffffffffff811681036100ea5790565b346100ea576101c06101ac610633366105ed565b91610968565b346100ea5760203660031901126100ea576004355f526002602052602060405f2054604051908152f35b346100ea576101c06101ac610677366105ed565b916109b2565b346100ea5760403660031901126100ea576106966100ee565b7f00000000000000000000000000000000000000000000000000000000000000006001600160a01b0316330361024157610224906004355f52600460205260405f20610b4f565b346100ea575f3660031901126100ea575f546040516001600160a01b039091168152602090f35b634e487b7160e01b5f52604160045260245ffd5b60a0810190811067ffffffffffffffff82111761073457604052565b610704565b6040810190811067ffffffffffffffff82111761073457604052565b90601f8019910116810190811067ffffffffffffffff82111761073457604052565b519081151582036100ea57565b91908260409103126100ea57602061079b83610777565b92015163ffffffff811681036100ea5790565b906107fe9165ffffffffffff61080d9496956060976040519463130f67dd60e31b6020870152602486015260018060a01b03166044850152166064830152606482526107f982610718565b610a27565b60208082518301019101610784565b906108155750565b90915063ffffffff604051911660208201526020815261018c81610739565b6040519061084182610718565b565b67ffffffffffffffff811161073457601f01601f191660200190565b81601f820112156100ea5780519061087682610843565b926108846040519485610755565b828452602083830101116100ea57815f9260208093018386015e8301015290565b906020828203126100ea57815167ffffffffffffffff81116100ea5761018c920161085f565b6040513d5f823e3d90fd5b908160209103126100ea575161018c816100d9565b9061018c916020815261090a825160a0602084015260c0830190610157565b9060a06080610958610945610931602088015196601f199788888303016040890152610157565b604088015187878303016060880152610157565b6060870151868683030184870152610157565b9401519282850301910152610157565b60405163ed4d89e560e01b6020820152602481019290925265ffffffffffff90921660448201526060929161080d916107fe916107f982606481015b03601f198101845283610755565b604051630cbd53f560e11b6020820152602481019290925265ffffffffffff90921660448201526060929161080d916107fe916107f982606481016109a4565b9190916040818403126100ea57610a0881610777565b92602082015167ffffffffffffffff81116100ea5761018c920161085f565b5f91908291604051610a5c8161040a6020820194639f86fd8560e01b8652306024840152604060448401526064830190610157565b51915afa503d15610ab257610a9b3d610a7481610843565b90610a826040519283610755565b81523d5f602083013e5b602080825183010191016109f2565b9015610aa45790565b80519081156100ea57602001fd5b610a9b6060610a8c565b634e487b7160e01b5f52601160045260245ffd5b5f19810191908211610ade57565b610abc565b9060018201809211610ade57565b906040516040810181811067ffffffffffffffff82111761073457604052915465ffffffffffff8116835260301c6020830152565b8054821015610b3b575f5260205f2001905f90565b634e487b7160e01b5f52603260045260245ffd5b91908254905f829160058411610bf7575b610b6b935085610dba565b908115610beb57610be4610bdb610bd5610bcb610b9d610b98610b8d88610ad0565b895f5260205f200190565b610af1565b966001610bc46020610bb58b5165ffffffffffff1690565b9a01516001600160d01b031690565b9101610b26565b90549060031b1c90565b93610ad0565b63ffffffff1690565b6001939291565b5f925082915081908190565b9192610c0281610c7c565b8103908111610ade57610b6b93865f52610c36610c2b8360205f200165ffffffffffff90541690565b65ffffffffffff1690565b65ffffffffffff85161015610c4c575091610b60565b929150610c5890610ae3565b90610b60565b8115610c68570490565b634e487b7160e01b5f52601260045260245ffd5b8015610db55780610d4e610d47610d3d610d33610d29610d1f610d15610d0b600161018c9a5f908b60801c80610da9575b508060401c80610d9c575b508060201c80610d8f575b508060101c80610d82575b508060081c80610d75575b508060041c80610d68575b508060021c80610d5b575b50821c610d54575b811c1b610d04818b610c5e565b0160011c90565b610d04818a610c5e565b610d048189610c5e565b610d048188610c5e565b610d048187610c5e565b610d048186610c5e565b610d048185610c5e565b8092610c5e565b90610e19565b8101610cf7565b600291509101905f610cef565b600491509101905f610ce4565b600891509101905f610cd9565b601091509101905f610cce565b602091509101905f610cc3565b604091509101905f610cb8565b9150506080905f610cad565b505f90565b91905b838210610dca5750505090565b9091928083169080841860011c8201809211610ade57845f5265ffffffffffff808360205f20015416908416105f14610e075750925b9190610dbd565b939250610e1390610ae3565b91610e00565b9080821015610e26575090565b90509056fea2646970667358221220bcb80521673d2d65863837199442ffaf6f722408ba26c0f4b58f31f24333862b64736f6c6343000819003360e03461009c57601f610e0b38819003918201601f19168301916001600160401b038311848410176100a057808492604094855283398101031261009c57610052602061004b836100b4565b92016100b4565b903060805260a05260c052604051610d4290816100c982396080518181816101a701526105c0015260a05181818161027601526104c6015260c05181818161031501526104820152f35b5f80fd5b634e487b7160e01b5f52604160045260245ffd5b51906001600160a01b038216820361009c5756fe60806040526004361015610011575f80fd5b5f3560e01c806310a28b5d146100b4578063197aa7ea146100af57806325dc9708146100aa57806345e78fcb146100a557806379d89614146100a05780637f5a7c7b1461009b578063d15b740e14610096578063da749d2b14610091578063f7b055471461008c5763fbfa77cf14610087575f80fd5b610609565b610590565b610547565b61051d565b6104f5565b6104b1565b61046d565b61021b565b610182565b346100e1576100dd6100d16100c83661010b565b929190916106da565b6040519182918261016e565b0390f35b5f80fd5b6001600160a01b038116036100e157565b6044359065ffffffffffff821682036100e157565b60809060031901126100e157600435610123816100e5565b9060243590604435610134816100e5565b9060643565ffffffffffff811681036100e15790565b805180835260209291819084018484015e5f828201840152601f01601f1916010190565b90602061017f92818152019061014a565b90565b346100e15760403660031901126100e15760243565ffffffffffff811681036100e1577f00000000000000000000000000000000000000000000000000000000000000006001600160a01b03163303610209576101ec906004355f52600360205260405f20610a30565b60408051941515855263ffffffff91909116602085015292915050f35b604051637ca475e560e11b8152600490fd5b346100e1576102293661010b565b60408051630df8851f60e11b81526001600160a01b03868116600483015260248201869052848116604483015265ffffffffffff8416606483015295606094929391929091905f846084817f00000000000000000000000000000000000000000000000000000000000000008c165afa93841561041d575f94610451575b50845163fbfa77cf60e01b8152602081600481878d165afa90811561041d57610311995f9285928491610422575b50885163192c0ff760e21b81526001600160a01b03909116600482015265ffffffffffff909216602483015290998a9190829081906044820190565b03917f0000000000000000000000000000000000000000000000000000000000000000165afa96871561041d576100dd985f986103f1575b50908161035b84610361959487610890565b946106da565b908251158015906103e7575b80156103dd575b80156103d3575b61038b575b83518088878261016e565b6103bc94506103ca939561039d610773565b938452602084015285830152606082015283519283916020830161082a565b03601f198101835282610681565b815f8080610380565b508151151561037b565b5080511515610374565b508551151561036d565b6103619392919850610414903d805f833e61040c8183610681565b8101906107e4565b97909192610349565b61080a565b610444915060203d60201161044a575b61043c8183610681565b810190610815565b5f6102d5565b503d610432565b6104669194503d805f833e61040c8183610681565b925f6102a7565b346100e1575f3660031901126100e1576040517f00000000000000000000000000000000000000000000000000000000000000006001600160a01b03168152602090f35b346100e1575f3660031901126100e1576040517f00000000000000000000000000000000000000000000000000000000000000006001600160a01b03168152602090f35b346100e1575f3660031901126100e1576001546040516001600160a01b039091168152602090f35b346100e15760203660031901126100e1576004355f526002602052602060405f2054604051908152f35b346100e15760603660031901126100e1576100dd61057c60043561056a816100e5565b6105726100f6565b9060243590610890565b60405191829160208352602083019061014a565b346100e15760603660031901126100e1576024356105ad816100e5565b6105b56100f6565b6001600160a01b03917f000000000000000000000000000000000000000000000000000000000000000083163303610209576101ec926004355f52600460205260405f2091165f5260205260405f20610a30565b346100e1575f3660031901126100e1575f546040516001600160a01b039091168152602090f35b634e487b7160e01b5f52604160045260245ffd5b6040810190811067ffffffffffffffff82111761066057604052565b610630565b6080810190811067ffffffffffffffff82111761066057604052565b90601f8019910116810190811067ffffffffffffffff82111761066057604052565b519081151582036100e157565b91908260409103126100e15760206106c7836106a3565b92015163ffffffff811681036100e15790565b91939265ffffffffffff906060956040519363f7b0554760e01b6020860152602485015260018060a01b031660448401521660648201526064815260a081019080821067ffffffffffffffff8311176106605761074c9261073d92604052610908565b602080825183010191016106b0565b906107545750565b90915063ffffffff604051911660208201526020815261017f81610644565b6040519061078082610665565b565b67ffffffffffffffff811161066057601f01601f191660200190565b81601f820112156100e1578051906107b582610782565b926107c36040519485610681565b828452602083830101116100e157815f9260208093018386015e8301015290565b906020828203126100e157815167ffffffffffffffff81116100e15761017f920161079e565b6040513d5f823e3d90fd5b908160209103126100e1575161017f816100e5565b9061017f916020815261084982516080602084015260a083019061014a565b906080606061088061086d602087015195601f19968787830301604088015261014a565b604087015186868303018487015261014a565b940151928285030191015261014a565b61074c9161073d9194939465ffffffffffff60609660405193630cbd53f560e11b60208601526024850152166044830152604482526108ce82610665565b610908565b9190916040818403126100e1576108e9816106a3565b92602082015167ffffffffffffffff81116100e15761017f920161079e565b5f9190829160405161093d816103bc6020820194639f86fd8560e01b865230602484015260406044840152606483019061014a565b51915afa503d156109935761097c3d61095581610782565b906109636040519283610681565b81523d5f602083013e5b602080825183010191016108d3565b90156109855790565b80519081156100e157602001fd5b61097c606061096d565b634e487b7160e01b5f52601160045260245ffd5b5f198101919082116109bf57565b61099d565b90600182018092116109bf57565b906040516040810181811067ffffffffffffffff82111761066057604052915465ffffffffffff8116835260301c6020830152565b8054821015610a1c575f5260205f2001905f90565b634e487b7160e01b5f52603260045260245ffd5b91908254905f829160058411610ad8575b610a4c935085610c9b565b908115610acc57610ac5610abc610ab6610aac610a7e610a79610a6e886109b1565b895f5260205f200190565b6109d2565b966001610aa56020610a968b5165ffffffffffff1690565b9a01516001600160d01b031690565b9101610a07565b90549060031b1c90565b936109b1565b63ffffffff1690565b6001939291565b5f925082915081908190565b9192610ae381610b5d565b81039081116109bf57610a4c93865f52610b17610b0c8360205f200165ffffffffffff90541690565b65ffffffffffff1690565b65ffffffffffff85161015610b2d575091610a41565b929150610b39906109c4565b90610a41565b8115610b49570490565b634e487b7160e01b5f52601260045260245ffd5b8015610c965780610c2f610c28610c1e610c14610c0a610c00610bf6610bec600161017f9a5f908b60801c80610c8a575b508060401c80610c7d575b508060201c80610c70575b508060101c80610c63575b508060081c80610c56575b508060041c80610c49575b508060021c80610c3c575b50821c610c35575b811c1b610be5818b610b3f565b0160011c90565b610be5818a610b3f565b610be58189610b3f565b610be58188610b3f565b610be58187610b3f565b610be58186610b3f565b610be58185610b3f565b8092610b3f565b90610cfa565b8101610bd8565b600291509101905f610bd0565b600491509101905f610bc5565b600891509101905f610bba565b601091509101905f610baf565b602091509101905f610ba4565b604091509101905f610b99565b9150506080905f610b8e565b505f90565b91905b838210610cab5750505090565b9091928083169080841860011c82018092116109bf57845f5265ffffffffffff808360205f20015416908416105f14610ce85750925b9190610c9e565b939250610cf4906109c4565b91610ce1565b9080821015610d07575090565b90509056fea2646970667358221220decaf9c6886c9523b8d769a768e4e2372f4255cd6d7b48f98860aad5a6dd72a064736f6c6343000819003360e03461009457601f610cf338819003918201601f19168301916001600160401b0383118484101761009857808492604094855283398101031261009457610052602061004b836100ac565b92016100ac565b903060805260a05260c052604051610c3290816100c182396080518160bf015260a05181818161023c015261048e015260c0518181816102da01526104220152f35b5f80fd5b634e487b7160e01b5f52604160045260245ffd5b51906001600160a01b03821682036100945756fe60806040526004361015610011575f80fd5b5f3560e01c8063197aa7ea146100a457806325dc97081461009f57806345e78fcb1461009a578063570ca7351461009557806379d89614146100905780637f5a7c7b1461008b578063d15b740e14610086578063da749d2b146100815763fbfa77cf1461007c575f80fd5b610564565b61050f565b6104e5565b6104bd565b610479565b610451565b61040d565b6101ad565b34610136576040366003190112610136576100bd61013a565b7f00000000000000000000000000000000000000000000000000000000000000006001600160a01b0316330361012557610104906004355f52600360205260405f206108bc565b60408051941515855263ffffffff91909116602085015292915050f35b0390f35b637ca475e560e11b60805260046080fd5b5f80fd5b6024359065ffffffffffff8216820361013657565b6064359065ffffffffffff8216820361013657565b6001600160a01b0381160361013657565b805180835260209291819084018484015e5f828201840152601f01601f1916010190565b9060206101aa928181520190610175565b90565b34610136576080366003190112610136576004356101ca81610164565b6024356044356101d981610164565b6102376101e461014f565b60408051630df8851f60e11b81526001600160a01b03808816600483015260248201879052948516604482015265ffffffffffff8316606482015293956060959194939092905f90859081906084820190565b03818a7f0000000000000000000000000000000000000000000000000000000000000000165afa9384156103bd575f946103f1575b50845163fbfa77cf60e01b8152602081600481878c165afa9081156103bd576102d6985f92849284916103c2575b50885163192c0ff760e21b81526001600160a01b03909116600482015265ffffffffffff90921660248301529098899190829081906044820190565b03917f0000000000000000000000000000000000000000000000000000000000000000165afa9182156103bd57610121975f93610397575b506103199293610730565b9082511580159061038d575b8015610383575b61033e575b5050505191829182610199565b61036c9394509061037a92916103526105e2565b9283526020830152848201528351928391602083016106aa565b03601f1981018352826105c0565b905f8080610331565b508151151561032c565b5080511515610325565b61031993506103b7903d805f833e6103af81836105c0565b810190610664565b9261030e565b61068a565b6103e4915060203d6020116103ea575b6103dc81836105c0565b810190610695565b5f61029a565b503d6103d2565b6104069194503d805f833e6103af81836105c0565b925f61026c565b34610136575f366003190112610136576040517f00000000000000000000000000000000000000000000000000000000000000006001600160a01b03168152602090f35b34610136575f366003190112610136576004546040516001600160a01b039091168152602090f35b34610136575f366003190112610136576040517f00000000000000000000000000000000000000000000000000000000000000006001600160a01b03168152602090f35b34610136575f366003190112610136576001546040516001600160a01b039091168152602090f35b34610136576020366003190112610136576004355f526002602052602060405f2054604051908152f35b346101365760603660031901126101365760043561052c81610164565b6044359065ffffffffffff8216820361013657610121916105509160243590610730565b604051918291602083526020830190610175565b34610136575f366003190112610136575f546040516001600160a01b039091168152602090f35b634e487b7160e01b5f52604160045260245ffd5b6080810190811067ffffffffffffffff8211176105bb57604052565b61058b565b90601f8019910116810190811067ffffffffffffffff8211176105bb57604052565b604051906060820182811067ffffffffffffffff8211176105bb57604052565b67ffffffffffffffff81116105bb57601f01601f191660200190565b81601f820112156101365780519061063582610602565b9261064360405194856105c0565b8284526020838301011161013657815f9260208093018386015e8301015290565b9060208282031261013657815167ffffffffffffffff8111610136576101aa920161061e565b6040513d5f823e3d90fd5b9081602091031261013657516101aa81610164565b906101aa91602081526106c98251606060208401526080830190610175565b90606060406106e9602086015194601f1995868683030184870152610175565b9401519282850301910152610175565b5190811515820361013657565b919082604091031261013657602061071d836106f9565b92015163ffffffff811681036101365790565b92915f8060609565ffffffffffff60405194602096630cbd53f560e11b888801526024870152166044850152604484526107698461059f565b604051938461079687820192639f86fd8560e01b8452306024840152604060448401526064830190610175565b03946107aa601f19968781018352826105c0565b51915afa506107c86107ba6109cb565b8380825183010191016109fa565b901561081b578083806107e093518301019101610706565b92906107eb57505050565b6101aa9293945061080f604051948592830191909163ffffffff6020820193169052565b039081018352826105c0565b809150519182156101365701fd5b634e487b7160e01b5f52601160045260245ffd5b5f1981019190821161084b57565b610829565b906001820180921161084b57565b906040516040810181811067ffffffffffffffff8211176105bb57604052915465ffffffffffff8116835260301c6020830152565b80548210156108a8575f5260205f2001905f90565b634e487b7160e01b5f52603260045260245ffd5b91908254905f829160058411610964575b6108d8935085610b8b565b9081156109585761095161094861094261093861090a6109056108fa8861083d565b895f5260205f200190565b61085e565b96600161093160206109228b5165ffffffffffff1690565b9a01516001600160d01b031690565b9101610893565b90549060031b1c90565b9361083d565b63ffffffff1690565b6001939291565b5f925082915081908190565b919261096f81610a4d565b810390811161084b576108d893865f526109a36109988360205f200165ffffffffffff90541690565b65ffffffffffff1690565b65ffffffffffff851610156109b95750916108cd565b9291506109c590610850565b906108cd565b3d156109f5573d906109dc82610602565b916109ea60405193846105c0565b82523d5f602084013e565b606090565b91909160408184031261013657610a10816106f9565b92602082015167ffffffffffffffff8111610136576101aa920161061e565b8115610a39570490565b634e487b7160e01b5f52601260045260245ffd5b8015610b865780610b1f610b18610b0e610b04610afa610af0610ae6610adc60016101aa9a5f908b60801c80610b7a575b508060401c80610b6d575b508060201c80610b60575b508060101c80610b53575b508060081c80610b46575b508060041c80610b39575b508060021c80610b2c575b50821c610b25575b811c1b610ad5818b610a2f565b0160011c90565b610ad5818a610a2f565b610ad58189610a2f565b610ad58188610a2f565b610ad58187610a2f565b610ad58186610a2f565b610ad58185610a2f565b8092610a2f565b90610bea565b8101610ac8565b600291509101905f610ac0565b600491509101905f610ab5565b600891509101905f610aaa565b601091509101905f610a9f565b602091509101905f610a94565b604091509101905f610a89565b9150506080905f610a7e565b505f90565b91905b838210610b9b5750505090565b9091928083169080841860011c820180921161084b57845f5265ffffffffffff808360205f20015416908416105f14610bd85750925b9190610b8e565b939250610be490610850565b91610bd1565b9080821015610bf7575090565b90509056fea2646970667358221220b080e173d05b3f454eb79689f8ae1c556f9251daebc1b4630a05543071e3724d64736f6c6343000819003360e03461009557601f610d6238819003918201601f19168301916001600160401b0383118484101761009957808492604094855283398101031261009557610052602061004b836100ad565b92016100ad565b903060805260a05260c052604051610ca090816100c28239608051816104e6015260a05181818161012f0152610415015260c0518181816101cd01526103810152f35b5f80fd5b634e487b7160e01b5f52604160045260245ffd5b51906001600160a01b03821682036100955756fe608060408181526004361015610013575f80fd5b5f3560e01c91826325dc9708146100b9575050806345e78fcb146100b4578063570ca735146100af5780636739afca146100aa57806379d89614146100a55780637f5a7c7b146100a0578063991d11621461009b578063d0f1f90114610096578063d15b740e146100915763fbfa77cf1461008c575f80fd5b610584565b61055a565b6104c1565b61046c565b610444565b610400565b6103d8565b6103b0565b61036c565b3461030a578060031936011261030a57600435916100d68361030e565b60243591604435936100e78561030e565b6100ef61031f565b630df8851f60e11b83526001600160a01b0382811660845260a486905295861660c45265ffffffffffff811660e452606094905f84607f1961010401818a7f0000000000000000000000000000000000000000000000000000000000000000165afa9384156102b4575f946102e8575b50845163fbfa77cf60e01b8152602081600481878c165afa9081156102b4576101c9985f92849284916102b9575b50885163192c0ff760e21b81526001600160a01b03909116600482015265ffffffffffff90921660248301529098899190829081906044820190565b03917f0000000000000000000000000000000000000000000000000000000000000000165afa9182156102b457610231975f9361028e575b5061020c929361079e565b90825115801590610284575b801561027a575b610235575b5050505191829182610358565b0390f35b610263939450906102719291610249610625565b928352602083015284820152835192839160208301610718565b03601f198101835282610603565b90838080610224565b508151151561021f565b5080511515610218565b61020c93506102ae903d805f833e6102a68183610603565b8101906106d2565b92610201565b6106f8565b6102db915060203d6020116102e1575b6102d38183610603565b810190610703565b8b61018d565b503d6102c9565b6103039194503d90815f823e6102fd826105bf565b016106a7565b928761015f565b5f80fd5b6001600160a01b0381160361030a57565b6064359065ffffffffffff8216820361030a57565b805180835260209291819084018484015e5f828201840152601f01601f1916010190565b906020610369928181520190610334565b90565b3461030a575f36600319011261030a576040517f00000000000000000000000000000000000000000000000000000000000000006001600160a01b03168152602090f35b3461030a575f36600319011261030a576005546040516001600160a01b039091168152602090f35b3461030a575f36600319011261030a576004546040516001600160a01b039091168152602090f35b3461030a575f36600319011261030a576040517f00000000000000000000000000000000000000000000000000000000000000006001600160a01b03168152602090f35b3461030a575f36600319011261030a576001546040516001600160a01b039091168152602090f35b3461030a57606036600319011261030a576004356104898161030e565b6044359065ffffffffffff8216820361030a57610231916104ad916024359061079e565b604051918291602083526020830190610334565b3461030a57604036600319011261030a5760243565ffffffffffff8116810361030a577f00000000000000000000000000000000000000000000000000000000000000006001600160a01b031633036105485761052b906004355f52600360205260405f2061098e565b60408051941515855263ffffffff91909116602085015292915050f35b604051637ca475e560e11b8152600490fd5b3461030a57602036600319011261030a576004355f526002602052602060405f2054604051908152f35b3461030a575f36600319011261030a575f546040516001600160a01b039091168152602090f35b634e487b7160e01b5f52604160045260245ffd5b601f80199101166080016080811067ffffffffffffffff8211176105e257604052565b6105ab565b6080810190811067ffffffffffffffff8211176105e257604052565b90601f8019910116810190811067ffffffffffffffff8211176105e257604052565b604051906060820182811067ffffffffffffffff8211176105e257604052565b67ffffffffffffffff81116105e257601f01601f191660200190565b81601f8201121561030a5780519061067882610645565b926106866040519485610603565b8284526020838301011161030a57815f9260208093018386015e8301015290565b6020607f1982011261030a576080519067ffffffffffffffff821161030a5761036991608001610661565b9060208282031261030a57815167ffffffffffffffff811161030a576103699201610661565b6040513d5f823e3d90fd5b9081602091031261030a57516103698161030e565b9061036991602081526107378251606060208401526080830190610334565b9060606040610757602086015194601f1995868683030184870152610334565b9401519282850301910152610334565b5190811515820361030a57565b919082604091031261030a57602061078b83610767565b92015163ffffffff8116810361030a5790565b92915f8060609565ffffffffffff6040519460209663d0f1f90160e01b888801526024870152166044850152604484526107d7846105e7565b604051938461080487820192639f86fd8560e01b8452306024840152604060448401526064830190610334565b0394610818601f1996878101835282610603565b51915afa50610836610828610897565b8380825183010191016108c6565b90156108895780838061084e93518301019101610774565b929061085957505050565b6103699293945061087d604051948592830191909163ffffffff6020820193169052565b03908101835282610603565b8091505191821561030a5701fd5b3d156108c1573d906108a882610645565b916108b66040519384610603565b82523d5f602084013e565b606090565b91909160408184031261030a576108dc81610767565b92602082015167ffffffffffffffff811161030a576103699201610661565b634e487b7160e01b5f52601160045260245ffd5b5f1981019190821161091d57565b6108fb565b906001820180921161091d57565b906040516040810181811067ffffffffffffffff8211176105e257604052915465ffffffffffff8116835260301c6020830152565b805482101561097a575f5260205f2001905f90565b634e487b7160e01b5f52603260045260245ffd5b91908254905f829160058411610a36575b6109aa935085610bf9565b908115610a2a57610a23610a1a610a14610a0a6109dc6109d76109cc8861090f565b895f5260205f200190565b610930565b966001610a0360206109f48b5165ffffffffffff1690565b9a01516001600160d01b031690565b9101610965565b90549060031b1c90565b9361090f565b63ffffffff1690565b6001939291565b5f925082915081908190565b9192610a4181610abb565b810390811161091d576109aa93865f52610a75610a6a8360205f200165ffffffffffff90541690565b65ffffffffffff1690565b65ffffffffffff85161015610a8b57509161099f565b929150610a9790610922565b9061099f565b8115610aa7570490565b634e487b7160e01b5f52601260045260245ffd5b8015610bf45780610b8d610b86610b7c610b72610b68610b5e610b54610b4a60016103699a5f908b60801c80610be8575b508060401c80610bdb575b508060201c80610bce575b508060101c80610bc1575b508060081c80610bb4575b508060041c80610ba7575b508060021c80610b9a575b50821c610b93575b811c1b610b43818b610a9d565b0160011c90565b610b43818a610a9d565b610b438189610a9d565b610b438188610a9d565b610b438187610a9d565b610b438186610a9d565b610b438185610a9d565b8092610a9d565b90610c58565b8101610b36565b600291509101905f610b2e565b600491509101905f610b23565b600891509101905f610b18565b601091509101905f610b0d565b602091509101905f610b02565b604091509101905f610af7565b9150506080905f610aec565b505f90565b91905b838210610c095750505090565b9091928083169080841860011c820180921161091d57845f5265ffffffffffff808360205f20015416908416105f14610c465750925b9190610bfc565b939250610c5290610922565b91610c3f565b9080821015610c65575090565b90509056fea264697066735822122046e9cef6f892c7f8f73c3f5ca12d6156590bc5d4d36e36a55dab38d14d6d612764736f6c63430008190033","linkReferences":{}},"methodIdentifiers":{"FULL_RESTAKE_DELEGATOR_HINTS()":"e102831a","NETWORK_RESTAKE_DELEGATOR_HINTS()":"075db036","OPERATOR_NETWORK_SPECIFIC_DELEGATOR_HINTS()":"ff21581b","OPERATOR_SPECIFIC_DELEGATOR_HINTS()":"fd8ceb5d","OPT_IN_SERVICE_HINTS()":"9b656b22","hook()":"7f5a7c7b","maxNetworkLimit(bytes32)":"d15b740e","stakeBaseHints(address,bytes32,address,uint48)":"1bf10a3e","stakeHints(address,bytes32,address,uint48)":"25dc9708","vault()":"fbfa77cf"},"id":98}