{"abi":[{"type":"constructor","inputs":[{"name":"optInServiceHints","type":"address","internalType":"address"},{"name":"vaultHints_","type":"address","internalType":"address"}],"stateMutability":"nonpayable"},{"type":"function","name":"DEFAULT_ADMIN_ROLE","inputs":[],"outputs":[{"name":"","type":"bytes32","internalType":"bytes32"}],"stateMutability":"view"},{"type":"function","name":"FACTORY","inputs":[],"outputs":[{"name":"","type":"address","internalType":"address"}],"stateMutability":"view"},{"type":"function","name":"FULL_RESTAKE_DELEGATOR_HINTS","inputs":[],"outputs":[{"name":"","type":"address","internalType":"address"}],"stateMutability":"view"},{"type":"function","name":"HOOK_GAS_LIMIT","inputs":[],"outputs":[{"name":"","type":"uint256","internalType":"uint256"}],"stateMutability":"view"},{"type":"function","name":"HOOK_RESERVE","inputs":[],"outputs":[{"name":"","type":"uint256","internalType":"uint256"}],"stateMutability":"view"},{"type":"function","name":"HOOK_SET_ROLE","inputs":[],"outputs":[{"name":"","type":"bytes32","internalType":"bytes32"}],"stateMutability":"view"},{"type":"function","name":"NETWORK_REGISTRY","inputs":[],"outputs":[{"name":"","type":"address","internalType":"address"}],"stateMutability":"view"},{"type":"function","name":"NETWORK_RESTAKE_DELEGATOR_HINTS","inputs":[],"outputs":[{"name":"","type":"address","internalType":"address"}],"stateMutability":"view"},{"type":"function","name":"OPERATOR_NETWORK_OPT_IN_SERVICE","inputs":[],"outputs":[{"name":"","type":"address","internalType":"address"}],"stateMutability":"view"},{"type":"function","name":"OPERATOR_VAULT_OPT_IN_SERVICE","inputs":[],"outputs":[{"name":"","type":"address","internalType":"address"}],"stateMutability":"view"},{"type":"function","name":"OPT_IN_SERVICE_HINTS","inputs":[],"outputs":[{"name":"","type":"address","internalType":"address"}],"stateMutability":"view"},{"type":"function","name":"TYPE","inputs":[],"outputs":[{"name":"","type":"uint64","internalType":"uint64"}],"stateMutability":"view"},{"type":"function","name":"VAULT_FACTORY","inputs":[],"outputs":[{"name":"","type":"address","internalType":"address"}],"stateMutability":"view"},{"type":"function","name":"VERSION","inputs":[],"outputs":[{"name":"","type":"uint64","internalType":"uint64"}],"stateMutability":"pure"},{"type":"function","name":"getRoleAdmin","inputs":[{"name":"role","type":"bytes32","internalType":"bytes32"}],"outputs":[{"name":"","type":"bytes32","internalType":"bytes32"}],"stateMutability":"view"},{"type":"function","name":"grantRole","inputs":[{"name":"role","type":"bytes32","internalType":"bytes32"},{"name":"account","type":"address","internalType":"address"}],"outputs":[],"stateMutability":"nonpayable"},{"type":"function","name":"hasRole","inputs":[{"name":"role","type":"bytes32","internalType":"bytes32"},{"name":"account","type":"address","internalType":"address"}],"outputs":[{"name":"","type":"bool","internalType":"bool"}],"stateMutability":"view"},{"type":"function","name":"hook","inputs":[],"outputs":[{"name":"","type":"address","internalType":"address"}],"stateMutability":"view"},{"type":"function","name":"initialize","inputs":[{"name":"data","type":"bytes","internalType":"bytes"}],"outputs":[],"stateMutability":"nonpayable"},{"type":"function","name":"maxNetworkLimit","inputs":[{"name":"subnetwork","type":"bytes32","internalType":"bytes32"}],"outputs":[{"name":"value","type":"uint256","internalType":"uint256"}],"stateMutability":"view"},{"type":"function","name":"onSlash","inputs":[{"name":"subnetwork","type":"bytes32","internalType":"bytes32"},{"name":"operator","type":"address","internalType":"address"},{"name":"amount","type":"uint256","internalType":"uint256"},{"name":"captureTimestamp","type":"uint48","internalType":"uint48"},{"name":"data","type":"bytes","internalType":"bytes"}],"outputs":[],"stateMutability":"nonpayable"},{"type":"function","name":"renounceRole","inputs":[{"name":"role","type":"bytes32","internalType":"bytes32"},{"name":"callerConfirmation","type":"address","internalType":"address"}],"outputs":[],"stateMutability":"nonpayable"},{"type":"function","name":"revokeRole","inputs":[{"name":"role","type":"bytes32","internalType":"bytes32"},{"name":"account","type":"address","internalType":"address"}],"outputs":[],"stateMutability":"nonpayable"},{"type":"function","name":"setHook","inputs":[{"name":"hook_","type":"address","internalType":"address"}],"outputs":[],"stateMutability":"nonpayable"},{"type":"function","name":"setMaxNetworkLimit","inputs":[{"name":"identifier","type":"uint96","internalType":"uint96"},{"name":"amount","type":"uint256","internalType":"uint256"}],"outputs":[],"stateMutability":"nonpayable"},{"type":"function","name":"stake","inputs":[{"name":"subnetwork","type":"bytes32","internalType":"bytes32"},{"name":"operator","type":"address","internalType":"address"}],"outputs":[{"name":"","type":"uint256","internalType":"uint256"}],"stateMutability":"view"},{"type":"function","name":"stakeAt","inputs":[{"name":"subnetwork","type":"bytes32","internalType":"bytes32"},{"name":"operator","type":"address","internalType":"address"},{"name":"timestamp","type":"uint48","internalType":"uint48"},{"name":"hints","type":"bytes","internalType":"bytes"}],"outputs":[{"name":"","type":"uint256","internalType":"uint256"}],"stateMutability":"view"},{"type":"function","name":"stakeBaseHints","inputs":[{"name":"delegator","type":"address","internalType":"address"},{"name":"subnetwork","type":"bytes32","internalType":"bytes32"},{"name":"operator","type":"address","internalType":"address"},{"name":"timestamp","type":"uint48","internalType":"uint48"}],"outputs":[{"name":"","type":"bytes","internalType":"bytes"}],"stateMutability":"view"},{"type":"function","name":"stakeHints","inputs":[{"name":"delegator","type":"address","internalType":"address"},{"name":"subnetwork","type":"bytes32","internalType":"bytes32"},{"name":"operator","type":"address","internalType":"address"},{"name":"timestamp","type":"uint48","internalType":"uint48"}],"outputs":[{"name":"","type":"bytes","internalType":"bytes"}],"stateMutability":"view"},{"type":"function","name":"staticDelegateCall","inputs":[{"name":"target","type":"address","internalType":"address"},{"name":"data","type":"bytes","internalType":"bytes"}],"outputs":[],"stateMutability":"nonpayable"},{"type":"function","name":"supportsInterface","inputs":[{"name":"interfaceId","type":"bytes4","internalType":"bytes4"}],"outputs":[{"name":"","type":"bool","internalType":"bool"}],"stateMutability":"view"},{"type":"function","name":"vault","inputs":[],"outputs":[{"name":"","type":"address","internalType":"address"}],"stateMutability":"view"},{"type":"event","name":"Initialized","inputs":[{"name":"version","type":"uint64","indexed":false,"internalType":"uint64"}],"anonymous":false},{"type":"event","name":"OnSlash","inputs":[{"name":"subnetwork","type":"bytes32","indexed":true,"internalType":"bytes32"},{"name":"operator","type":"address","indexed":true,"internalType":"address"},{"name":"amount","type":"uint256","indexed":false,"internalType":"uint256"},{"name":"captureTimestamp","type":"uint48","indexed":false,"internalType":"uint48"}],"anonymous":false},{"type":"event","name":"RoleAdminChanged","inputs":[{"name":"role","type":"bytes32","indexed":true,"internalType":"bytes32"},{"name":"previousAdminRole","type":"bytes32","indexed":true,"internalType":"bytes32"},{"name":"newAdminRole","type":"bytes32","indexed":true,"internalType":"bytes32"}],"anonymous":false},{"type":"event","name":"RoleGranted","inputs":[{"name":"role","type":"bytes32","indexed":true,"internalType":"bytes32"},{"name":"account","type":"address","indexed":true,"internalType":"address"},{"name":"sender","type":"address","indexed":true,"internalType":"address"}],"anonymous":false},{"type":"event","name":"RoleRevoked","inputs":[{"name":"role","type":"bytes32","indexed":true,"internalType":"bytes32"},{"name":"account","type":"address","indexed":true,"internalType":"address"},{"name":"sender","type":"address","indexed":true,"internalType":"address"}],"anonymous":false},{"type":"event","name":"SetHook","inputs":[{"name":"hook","type":"address","indexed":true,"internalType":"address"}],"anonymous":false},{"type":"event","name":"SetMaxNetworkLimit","inputs":[{"name":"subnetwork","type":"bytes32","indexed":true,"internalType":"bytes32"},{"name":"amount","type":"uint256","indexed":false,"internalType":"uint256"}],"anonymous":false},{"type":"error","name":"AccessControlBadConfirmation","inputs":[]},{"type":"error","name":"AccessControlUnauthorizedAccount","inputs":[{"name":"account","type":"address","internalType":"address"},{"name":"neededRole","type":"bytes32","internalType":"bytes32"}]},{"type":"error","name":"AlreadySet","inputs":[]},{"type":"error","name":"ExternalCall","inputs":[]},{"type":"error","name":"InsufficientHookGas","inputs":[]},{"type":"error","name":"InvalidInitialization","inputs":[]},{"type":"error","name":"NotInitialized","inputs":[]},{"type":"error","name":"NotInitializing","inputs":[]},{"type":"error","name":"NotNetwork","inputs":[]},{"type":"error","name":"NotSlasher","inputs":[]},{"type":"error","name":"NotVault","inputs":[]},{"type":"error","name":"ReentrancyGuardReentrantCall","inputs":[]}],"bytecode":{"object":"0x6101c03461028f57618fe36001600160401b03601f38839003908101601f191684019082821185831017610294578085916040958694855283398101031261028f57610056602061004f856102aa565b94016102aa565b92306080527ff0c57e16840df040f15088dc2f81fe391c3923bec73e23a9662efc9c229c6a00805460ff81861c1661027e578084808093160361023e575b5050506000918260a0528260c0528260e0526101009483865261012094848652610140918583526101609385855282516139a2808201908282108483111761022a578885849361010393611fb986393081526001600160a01b0391821660208201529116604082015260600190565b039088f0958615610220576001600160a01b03968716610180908152845190979390926136888085019182118583101761020c57918493916101649361595b86393081526001600160a01b0391821660208201529116604082015260600190565b039087f095861561020157506101a0951685525194611cfa96876102bf883960805187505060a05187610659015260c05187610bb0015260e0518781816104bb0152610bea0152518681816102cd0152611ad701525185818161031201526116b00152518481816103570152611731015251838181610a8901526111f201525182818161028801526114fc015251818181610e5601526115c20152f35b8251903d90823e3d90fd5b634e487b7160e01b8b52604160045260248bfd5b83513d89823e3d90fd5b634e487b7160e01b8a52604160045260248afd5b6001600160401b03191617905582518281527fc7f505b2f371ae2175ee4913f4499e1f2633a7b5936321eed1cdaeb6115181d290602090a1388281610094565b845163f92ee8a960e01b8152600490fd5b600080fd5b634e487b7160e01b600052604160045260246000fd5b51906001600160a01b038216820361028f5756fe6080604052600436101561001257600080fd5b60003560e01c806301ffc9a714610217578063075db03614610212578063103f29071461020d578063128e5d82146102085780631a80e500146102035780631bf10a3e146101fe57806323f752d5146101f9578063248a9ca3146101f457806325dc9708146101ef5780632dd31000146101ea5780632f2ff15d146101e557806336568abe146101e05780633dfd3873146101db578063439fab91146101d6578063557cab44146101d15780636679191e146101cc5780637f5a7c7b146101c757806391d14854146101c25780639b656b22146101bd5780639f86fd85146101b8578063a217fddf146101b3578063bb24fe8a146101ae578063c0cd7c3e146101a9578063d15b740e146101a4578063d547741f1461019f578063e02f69371461019a578063e102831a14610195578063e49561ee14610190578063fbfa77cf1461018b578063fd4d447c14610186578063ff54740f146101815763ffa1ad741461017c57600080fd5b6110ee565b6110d0565b61109e565b611075565b610e85565b610e40565b610d5c565b610c45565b610c19565b610bd4565b610b90565b610b74565b610ab8565b610a73565b610a10565b6109e7565b6109ac565b61098f565b61084e565b610722565b6106d7565b610688565b610643565b610626565b6105ea565b610468565b610433565b610341565b6102fc565b6102b7565b610272565b3461026d57602036600319011261026d5760043563ffffffff60e01b811680910361026d57602090637965db0b60e01b811490811561025c575b506040519015158152f35b6301ffc9a760e01b14905038610251565b600080fd5b3461026d57600036600319011261026d576040517f00000000000000000000000000000000000000000000000000000000000000006001600160a01b03168152602090f35b3461026d57600036600319011261026d576040517f00000000000000000000000000000000000000000000000000000000000000006001600160a01b03168152602090f35b3461026d57600036600319011261026d576040517f00000000000000000000000000000000000000000000000000000000000000006001600160a01b03168152602090f35b3461026d57600036600319011261026d576040517f00000000000000000000000000000000000000000000000000000000000000006001600160a01b03168152602090f35b6001600160a01b0381160361026d57565b6064359065ffffffffffff8216820361026d57565b608090600319011261026d576004356103c481610386565b90602435906044356103d581610386565b9060643565ffffffffffff8116810361026d5790565b60005b8381106103fe5750506000910152565b81810151838201526020016103ee565b90602091610427815180928185528580860191016103eb565b601f01601f1916010190565b3461026d57610464610450610447366103ac565b929190916111ca565b60405191829160208352602083019061040e565b0390f35b3461026d57604036600319011261026d576004356001600160601b038116810361026d57602435906104986117a9565b6040516302910f8b60e31b81523360048201526020816024816001600160a01b037f0000000000000000000000000000000000000000000000000000000000000000165afa9081156105e5576000916105b6575b50156105a4576001600160601b03166bffffffffffffffffffffffff193360601b16179080610525836000526002602052604060002090565b541461059257610576817fc67e7929681aa1bccd63f52b3799bf5805f3009f197db6fdf584b14f7fbf608c92610565856000526002602052604060002090565b556040519081529081906020820190565b0390a26105906001600080516020611c8583398151915255565b005b60405163a741a04560e01b8152600490fd5b6040516323d53b9760e21b8152600490fd5b6105d8915060203d6020116105de575b6105d08183610cca565b810190611424565b386104ec565b503d6105c6565b611122565b3461026d57602036600319011261026d57600435600052600080516020611c658339815191526020526020600160406000200154604051908152f35b3461026d5761046461045061063a366103ac565b9291909161145b565b3461026d57600036600319011261026d576040517f00000000000000000000000000000000000000000000000000000000000000006001600160a01b03168152602090f35b3461026d57604036600319011261026d576105906024356004356106ab82610386565b80600052600080516020611c658339815191526020526106d26001604060002001546117d9565b61199a565b3461026d57604036600319011261026d576024356106f481610386565b336001600160a01b0382160361071057610590906004356119d4565b60405163334bd91960e11b8152600490fd5b3461026d57602036600319011261026d5760043561073f81610386565b6107476117a9565b3360009081527f9ebbcbe0d2961d3fbe56ca6f679bc753bd848d3e6bb3eaf9041c51b286881d2c60205260408120549091907fd1c1f6fa6bf27d54c5e54c7c1dc6e5004d3c027ea1994fe68b29c1b51b69c36c9060ff161561080357506001546001600160a01b039182169181168214610592576001600160a01b03191681176001557f5bbb1d3ebb6a3ad2a0f17ff35e579a83af60604d1d3c2a4c83c62adecadf666d8280a26001600080516020611c858339815191525580f35b6044906040519063e2517d3f60e01b82523360048301526024820152fd5b9181601f8401121561026d578235916001600160401b03831161026d576020838186019501011161026d57565b3461026d57602036600319011261026d576001600160401b0360043581811161026d5761087f903690600401610821565b600080516020611ca5833981519152549260ff8460401c1615931680159081610987575b600114908161097d575b159081610974575b5061096257600080516020611ca5833981519152805467ffffffffffffffff191660011790556108e9918361093857611aa2565b6108ef57005b600080516020611ca5833981519152805460ff60401b19169055604051600181527fc7f505b2f371ae2175ee4913f4499e1f2633a7b5936321eed1cdaeb6115181d290602090a1005b600080516020611ca5833981519152805460ff60401b191668010000000000000000179055611aa2565b60405163f92ee8a960e01b8152600490fd5b905015386108b5565b303b1591506108ad565b8491506108a3565b3461026d57600036600319011261026d576020604051614e208152f35b3461026d57600036600319011261026d5760206040517fd1c1f6fa6bf27d54c5e54c7c1dc6e5004d3c027ea1994fe68b29c1b51b69c36c8152f35b3461026d57600036600319011261026d576001546040516001600160a01b039091168152602090f35b3461026d57604036600319011261026d57602060ff610a67602435610a3481610386565b600435600052600080516020611c65833981519152845260406000209060018060a01b0316600052602052604060002090565b54166040519015158152f35b3461026d57600036600319011261026d576040517f00000000000000000000000000000000000000000000000000000000000000006001600160a01b03168152602090f35b3461026d5760408060031936011261026d57600435610ad681610386565b602435906001600160401b03821161026d5760008091610afd610b62943690600401610821565b908187519283928337810184815203915af43d15610b6a57610b543d610b2281610cfa565b90610b2f86519283610cca565b81523d6000602083013e5b84519485931515602085015280840152606083019061040e565b03601f198101835282610cca565b805190602001fd5b610b546060610b3a565b3461026d57600036600319011261026d57602060405160008152f35b3461026d57600036600319011261026d5760206040516001600160401b037f0000000000000000000000000000000000000000000000000000000000000000168152f35b3461026d57600036600319011261026d576040517f00000000000000000000000000000000000000000000000000000000000000006001600160a01b03168152602090f35b3461026d57602036600319011261026d5760043560005260026020526020604060002054604051908152f35b3461026d57604036600319011261026d57610590602435600435610c6882610386565b80600052600080516020611c65833981519152602052610c8f6001604060002001546117d9565b6119d4565b634e487b7160e01b600052604160045260246000fd5b604081019081106001600160401b03821117610cc557604052565b610c94565b90601f801991011681019081106001600160401b03821117610cc557604052565b60405190610cf882610caa565b565b6001600160401b038111610cc557601f01601f191660200190565b81601f8201121561026d57803590610d2c82610cfa565b92610d3a6040519485610cca565b8284526020838301011161026d57816000926020809301838601378301015290565b3461026d5760808060031936011261026d57610d79602435610386565b60443565ffffffffffff81160361026d576001600160401b0360643581811161026d57610daa903690600401610d15565b5060606020604051610dbb81610caa565b828152015260605180610dd4575b602060405160008152f35b8281016020821261026d5783519183831161026d5782604091031261026d5760405193610e0085610caa565b8281015184811161026d578282610e199286010161112e565b855260a083015193841161026d57602093610e3593010161112e565b910152388080610dc9565b3461026d57600036600319011261026d576040517f00000000000000000000000000000000000000000000000000000000000000006001600160a01b03168152602090f35b3461026d5760a036600319011261026d57602435600435610ea582610386565b60443590610eb1610397565b6084356001600160401b03811161026d57610ed160049136908301610d15565b94610eda6117a9565b6000956020610f01610ef5610ef58a5460018060a01b031690565b6001600160a01b031690565b60405163b134427160e01b815294859182905afa9283156105e5578793611044575b506001600160a01b039283163303611032576001546001600160a01b0316838116610fa7575b50506040805195865265ffffffffffff909316602086015216927f741a5de99085c0d660f3e4192217b0ffb0ea4e35a0480de48e857a4bc3ee36ed91819081015b0390a3610fa46001600080516020611c8583398151915255565b80f35b909360405194610fde86610fd0602082019363724ab0f760e11b8552858c898d60248701611642565b03601f198101885287610cca565b62042e305a106110205788610f8a938192827f741a5de99085c0d660f3e4192217b0ffb0ea4e35a0480de48e857a4bc3ee36ed9951926203d090f15093610f49565b604051638072475160e01b8152600490fd5b60405163dabc4ad960e01b8152600490fd5b61106791935060203d60201161106e575b61105f8183610cca565b81019061110a565b9138610f23565b503d611055565b3461026d57600036600319011261026d576000546040516001600160a01b039091168152602090f35b3461026d57604036600319011261026d5760206110c86024356110c081610386565b60043561167a565b604051908152f35b3461026d57600036600319011261026d5760206040516203d0908152f35b3461026d57600036600319011261026d57602060405160018152f35b9081602091031261026d575161111f81610386565b90565b6040513d6000823e3d90fd5b81601f8201121561026d57805161114481610cfa565b926111526040519485610cca565b8184526020828401011161026d5761111f91602080850191016103eb565b9060208282031261026d5781516001600160401b03811161026d5761111f920161112e565b9061111f916020815260206111b58351604083850152606084019061040e565b920151906040601f198285030191015261040e565b604080516309472ec160e11b8152606096956001600160a01b039384169591946020949192917f0000000000000000000000000000000000000000000000000000000000000000169085876004818b5afa9687156105e557600097611405575b50845163fbfa77cf60e01b81529686886004818c5afa80156105e5578560009161129f9a83916113e8575b508851636a531c3160e11b8082526001600160a01b039586166004830152858916602483015294909116604482015265ffffffffffff909116606482015298899081906084820190565b0381865afa9788156105e5576000986113c2575b508686979899600496975196878092621a80e560e81b82525afa9485156105e55760009561139e575b5086519081526001600160a01b03948516600482015293909216602484015260609190911c604483015265ffffffffffff90921660648201529060009082908180608481015b03915afa9081156105e55760009161137b575b50835115801590611371575b61134b5750505050565b61111f9394955090610b549161135f610ceb565b95865283860152519384928301611195565b5080511515611341565b61139891503d806000833e6113908183610cca565b810190611170565b38611335565b600095506113bb611322918a3d8c1161106e5761105f8183610cca565b95506112dc565b879850966113de60049697983d806000833e6113908183610cca565b98979695506112b3565b6113ff91508a3d8c1161106e5761105f8183610cca565b38611255565b61141d919750863d881161106e5761105f8183610cca565b953861122a565b9081602091031261026d5751801515810361026d5790565b9081602091031261026d57516001600160401b038116810361026d5790565b604051635d927f4560e11b8082526060969594936001600160a01b03939092909160209190858416908383600481855afa9283156105e557600093611623575b506001600160401b039283166115455750506040516304bb92e160e31b81526001600160a01b0393841660048201526024810194909452505092909216604483015265ffffffffffff929092166064820152919250600090829060849082907f0000000000000000000000000000000000000000000000000000000000000000165afa9081156105e557600091611530575090565b61111f91503d806000833e6113908183610cca565b839060046040518094819382525afa9081156105e5576001936000926115f6575b50501614611575575050505050565b6040516304bb92e160e31b81526001600160a01b039182166004820152602481019290925292909216604483015265ffffffffffff929092166064820152919250600090829060849082907f0000000000000000000000000000000000000000000000000000000000000000165afa9081156105e557600091611530575090565b6116159250803d1061161c575b61160d8183610cca565b81019061143c565b3880611566565b503d611603565b61163b919350843d861161161c5761160d8183610cca565b913861149b565b919360a09361111f969565ffffffffffff938552600180871b031660208501526040840152166060820152816080820152019061040e565b6000546040516308834cb560e21b8082526001600160a01b038581166004840152928316602483015293602092909183816044817f000000000000000000000000000000000000000000000000000000000000000086165afa9081156105e55760009161178c575b5015938415611700575b5050505090506116fb57600090565b600090565b6040519586526001600160a01b0392909216600486015260609190911c6024850152909291508290829060449082907f0000000000000000000000000000000000000000000000000000000000000000165afa9182156105e55760009261176f575b50501580388080806116ec565b6117859250803d106105de576105d08183610cca565b3880611762565b6117a39150843d86116105de576105d08183610cca565b386116e2565b600080516020611c8583398151915260028154146117c75760029055565b604051633ee5aeb560e01b8152600490fd5b6000818152600080516020611c658339815191526020908152604080832033845290915290205460ff16156108035750565b6001600160a01b03811660009081527fb7db2dd08fcb62d0c9e08c51941cae53c267786a0b75803fb7960902fc8ef97d6020526040812054600080516020611c658339815191529060ff166118ba57818052602090815260408083206001600160a01b038516600090815292529020805460ff1916600117905533916001600160a01b0316907f2f8788117e7eff1d82e926ec794901d17c78024a50270940304540a733656f0d8180a4600190565b50905090565b6001600160a01b03811660009081527f9ebbcbe0d2961d3fbe56ca6f679bc753bd848d3e6bb3eaf9041c51b286881d2c602052604081207fd1c1f6fa6bf27d54c5e54c7c1dc6e5004d3c027ea1994fe68b29c1b51b69c36c90600080516020611c658339815191529060ff905b541661199357818352602090815260408084206001600160a01b038616600090815292529020805460ff1916600117905533926001600160a01b0316917f2f8788117e7eff1d82e926ec794901d17c78024a50270940304540a733656f0d9080a4600190565b5050905090565b6000818152600080516020611c65833981519152602081815260408084206001600160a01b0387168552909152822091929160ff9061192d565b6000818152600080516020611c65833981519152602081815260408084206001600160a01b038716855290915282205491929160ff161561199357818352602090815260408084206001600160a01b038616600090815292529020805460ff1916905533926001600160a01b0316917ff6391f5c32d9c69d2a47ea670b442974b53935d1edc7fd64eb21e047a839171b9080a4600190565b91909160408184031261026d578035611a8481610386565b9260208201356001600160401b03811161026d5761111f9201610d15565b611aae91810190611a6c565b506040516302910f8b60e31b81526001600160a01b0391821660048201819052906020816024817f000000000000000000000000000000000000000000000000000000000000000087165afa9081156105e557600091611bc3575b5015611bb157611b3890611b1b611be2565b60018060a01b03166001600160601b0360a01b6000541617600055565b611b8b6040611b45611c06565b6020810151600180546001600160a01b0319166001600160a01b0390921691909117905580516001600160a01b0316848116611ba1575b5001516001600160a01b031690565b908116611b955750565b611b9e906118c0565b50565b611baa9061180b565b5038611b7c565b6040516362df054560e01b8152600490fd5b611bdc915060203d6020116105de576105d08183610cca565b38611b09565b611bea611c35565b611bf2611c35565b6001600080516020611c8583398151915255565b60405190606082018281106001600160401b03821117610cc55760405260006040838281528260208201520152565b60ff600080516020611ca58339815191525460401c1615611c5257565b604051631afcd79f60e31b8152600490fdfe02dd7bc7dec4dceedda775e58dd541e08a116c6c53815c0bd028192f7b6268009b779b17422d0df92223018b32b4d1fa46e071723d6817e2486d003becc55f00f0c57e16840df040f15088dc2f81fe391c3923bec73e23a9662efc9c229c6a00a26469706673582212206fa6247e9fa02b434bbb275b3322ae15fa06e84269627fcca19a49bb2c7f8fe864736f6c634300081900336101c0346101d157601f6139a238819003918201601f19168301916001600160401b0391828411858510176101d65781606092869260409687528339810103126101d15761004c836101ec565b926100648361005d602084016101ec565b92016101ec565b91306080527ff0c57e16840df040f15088dc2f81fe391c3923bec73e23a9662efc9c229c6a009081549060ff82871c166101c057808083160361017c575b5050506000938460a0528460c0528460e05261010094808652610120948186526101409182526101609283526101809384526101a094855251946137a1968761020188396080518781816105ce0152818161103b01526116ae015260a05187610a2b015260c05187611323015260e051878181610883015261135d01525186818161053f0152612a7301525185818161058401528181611ece0152611fda01525184818161080101528181611e33015261205a015251838181610ef001526119da015251828181610ded0152611a7b015251816110b20152f35b6001600160401b0319909116811790915583519081527fc7f505b2f371ae2175ee4913f4499e1f2633a7b5936321eed1cdaeb6115181d290602090a13880806100a2565b855163f92ee8a960e01b8152600490fd5b600080fd5b634e487b7160e01b600052604160045260246000fd5b51906001600160a01b03821682036101d15756fe6080604052600436101561001257600080fd5b60003560e01c806301ffc9a714610307578063021453481461030257806307f9d5fd146102fd578063103f2907146102f8578063128e5d82146102f3578063197aa7ea146102ee5780631a7a7044146102e95780631a80e500146102e457806323f752d5146102df578063248a9ca3146102da57806325dc9708146102d55780632dd31000146102d05780632f2ff15d146102cb57806336568abe146102c65780633dfd3873146102c15780633eb22c0f146102bc57806342c53e33146102b7578063439fab91146102b257806345e78fcb146102ad578063557cab44146102a85780635d32a1c9146102a35780636679191e1461029e57806379d89614146102995780637d24bb27146102945780637f5a7c7b1461028f5780638b3f10b01461028a57806391d1485414610285578063987b3ee8146102805780639b656b221461027b5780639f86fd8514610276578063a217fddf14610271578063a33bc2871461026c578063b549ef1f14610267578063bb24fe8a14610262578063c0cd7c3e1461025d578063c43dc03f14610258578063d15b740e14610253578063d547741f1461024e578063da749d2b14610249578063e02f693714610244578063e49561ee1461023f578063e78eb6ae1461023a578063ed4d89e514610235578063fbfa77cf14610230578063fd4d447c1461022b578063ff54740f146102265763ffa1ad741461022157600080fd5b611766565b611748565b61171e565b6116f5565b611693565b611658565b611468565b61144c565b611432565b6113e3565b6113b7565b61138c565b611347565b611303565b6112e9565b611192565b611176565b6110e1565b61109c565b61100a565b610fa7565b610f82565b610f59565b610f1f565b610eda565b610e9f565b610e7a565b610e1c565b610dd7565b610c9b565b610c1e565b610bf3565b610af4565b610aa9565b610a5a565b610a15565b6109f8565b6109bc565b610830565b6107eb565b6107a1565b6105b3565b61056e565b610529565b6104f4565b610362565b3461035d57602036600319011261035d5760043563ffffffff60e01b811680910361035d57602090637965db0b60e01b811490811561034c575b506040519015158152f35b6301ffc9a760e01b14905038610341565b600080fd5b3461035d5760408060031936011261035d576004356024356103826120d0565b6000928284526002602052808420548211610422578284526003602052816103ab8286206129bf565b14610412578161040c916103fc7e899d104fc3d8820bd96540612bcc5c448c8837b13b9f7faa43ad0728f0c14f946103ed876000526003602052604060002090565b6103f642612e7b565b90612222565b5050519081529081906020820190565b0390a280f35b5163a741a04560e01b8152600490fd5b51631eefc06360e31b8152600490fd5b6001600160a01b0381160361035d57565b6024359065ffffffffffff8216820361035d57565b6064359065ffffffffffff8216820361035d57565b608090600319011261035d5760043561048581610432565b906024359060443561049681610432565b9060643565ffffffffffff8116810361035d5790565b60005b8381106104bf5750506000910152565b81810151838201526020016104af565b906020916104e8815180928185528580860191016104ac565b601f01601f1916010190565b3461035d576105256105116105083661046d565b929190916117c1565b6040519182916020835260208301906104cf565b0390f35b3461035d57600036600319011261035d576040517f00000000000000000000000000000000000000000000000000000000000000006001600160a01b03168152602090f35b3461035d57600036600319011261035d576040517f00000000000000000000000000000000000000000000000000000000000000006001600160a01b03168152602090f35b3461035d57604036600319011261035d576105cc610443565b7f00000000000000000000000000000000000000000000000000000000000000006001600160a01b031633036106325761061590600435600052600360205260406000206123b6565b60408051941515855263ffffffff91909116602085015292915050f35b604051637ca475e560e11b8152600490fd5b634e487b7160e01b600052604160045260246000fd5b604081019081106001600160401b0382111761067557604052565b610644565b606081019081106001600160401b0382111761067557604052565b60a081019081106001600160401b0382111761067557604052565b90601f801991011681019081106001600160401b0382111761067557604052565b604051906106de82610695565b565b604051906106de8261065a565b6001600160401b03811161067557601f01601f191660200190565b81601f8201121561035d5780359061071f826106ed565b9261072d60405194856106b0565b8284526020838301011161035d57816000926020809301838601378301015290565b90608060031983011261035d576004359160243561076c81610432565b9160443565ffffffffffff8116810361035d5791606435906001600160401b03821161035d5761079e91600401610708565b90565b3461035d5760206107e36107de6107b73661074f565b939190926000526005865260406000209060018060a01b0316600052602052604060002090565b6124f4565b604051908152f35b3461035d57600036600319011261035d576040517f00000000000000000000000000000000000000000000000000000000000000006001600160a01b03168152602090f35b3461035d57604036600319011261035d576004356001600160601b038116810361035d57602435906108606125cc565b6040516302910f8b60e31b81523360048201526020816024816001600160a01b037f0000000000000000000000000000000000000000000000000000000000000000165afa9081156109b757600091610988575b5015610976576001600160601b03166bffffffffffffffffffffffff193360601b161790806108ed836000526002602052604060002090565b541461096457610948817fc67e7929681aa1bccd63f52b3799bf5805f3009f197db6fdf584b14f7fbf608c9261092d856000526002602052604060002090565b5561093881856125fc565b6040519081529081906020820190565b0390a2610962600160008051602061372c83398151915255565b005b60405163a741a04560e01b8152600490fd5b6040516323d53b9760e21b8152600490fd5b6109aa915060203d6020116109b0575b6109a281836106b0565b810190611874565b386108b4565b503d610998565b611888565b3461035d57602036600319011261035d5760043560005260008051602061370c8339815191526020526020600160406000200154604051908152f35b3461035d57610525610511610a0c3661046d565b9291909161198d565b3461035d57600036600319011261035d576040517f00000000000000000000000000000000000000000000000000000000000000006001600160a01b03168152602090f35b3461035d57604036600319011261035d57610962602435600435610a7d82610432565b8060005260008051602061370c833981519152602052610aa4600160406000200154612185565b6128ed565b3461035d57604036600319011261035d57602435610ac681610432565b336001600160a01b03821603610ae25761096290600435612927565b60405163334bd91960e11b8152600490fd5b3461035d57602036600319011261035d57600435610b1181610432565b610b196125cc565b3360009081527f9ebbcbe0d2961d3fbe56ca6f679bc753bd848d3e6bb3eaf9041c51b286881d2c60205260408120549091907fd1c1f6fa6bf27d54c5e54c7c1dc6e5004d3c027ea1994fe68b29c1b51b69c36c9060ff1615610bd557506001546001600160a01b039182169181168214610964576001600160a01b03191681176001557f5bbb1d3ebb6a3ad2a0f17ff35e579a83af60604d1d3c2a4c83c62adecadf666d8280a2600160008051602061372c8339815191525580f35b6044906040519063e2517d3f60e01b82523360048301526024820152fd5b3461035d57602036600319011261035d57600435600052600360205260206107e360406000206129bf565b3461035d57604036600319011261035d5760206107e3610c69602435610c4381610432565b6004356000526005845260406000209060018060a01b0316600052602052604060002090565b6129bf565b9181601f8401121561035d578235916001600160401b03831161035d576020838186019501011161035d57565b3461035d57602036600319011261035d576001600160401b0360043581811161035d57610ccc903690600401610c6e565b60008051602061374c833981519152549260ff8460401c1615931680159081610dcf575b6001149081610dc5575b159081610dbc575b50610daa5760008051602061374c833981519152805467ffffffffffffffff19166001179055610d369183610d8557612a3e565b610d3c57005b60008051602061374c833981519152805460ff60401b19169055604051600181527fc7f505b2f371ae2175ee4913f4499e1f2633a7b5936321eed1cdaeb6115181d290602090a1005b60008051602061374c833981519152805460ff60401b1916600160401b179055612a3e565b60405163f92ee8a960e01b8152600490fd5b90501538610d02565b303b159150610cfa565b849150610cf0565b3461035d57600036600319011261035d576040517f00000000000000000000000000000000000000000000000000000000000000006001600160a01b03168152602090f35b3461035d57600036600319011261035d576020604051614e208152f35b606060031982011261035d576004359160243565ffffffffffff8116810361035d5791604435906001600160401b03821161035d5761079e91600401610708565b3461035d5760206107e3610e8d36610e39565b916000526003845260406000206124f4565b3461035d57600036600319011261035d5760206040517fd1c1f6fa6bf27d54c5e54c7c1dc6e5004d3c027ea1994fe68b29c1b51b69c36c8152f35b3461035d57600036600319011261035d576040517f00000000000000000000000000000000000000000000000000000000000000006001600160a01b03168152602090f35b3461035d57600036600319011261035d5760206040517e8b9b1e5fa9cf3b14f87f435649268146305ddf689f082e5961a335b07a9abf8152f35b3461035d57600036600319011261035d576001546040516001600160a01b039091168152602090f35b3461035d5760206107e3610f9536610e39565b916000526004845260406000206124f4565b3461035d57604036600319011261035d57602060ff610ffe602435610fcb81610432565b60043560005260008051602061370c833981519152845260406000209060018060a01b0316600052602052604060002090565b54166040519015158152f35b3461035d57606036600319011261035d5760243561102781610432565b60443565ffffffffffff8116810361035d577f00000000000000000000000000000000000000000000000000000000000000006001600160a01b031633036106325761109761061592600435600052600560205260406000209060018060a01b0316600052602052604060002090565b6123b6565b3461035d57600036600319011261035d576040517f00000000000000000000000000000000000000000000000000000000000000006001600160a01b03168152602090f35b3461035d57604036600319011261035d576004356110fe81610432565b6024356001600160401b03811161035d5760009161112183923690600401610c6e565b90816040519283928337810184815203915af461116e61113f611bf4565b916111606040519384921515602084015260408084015260608301906104cf565b03601f1981018352826106b0565b805190602001fd5b3461035d57600036600319011261035d57602060405160008152f35b3461035d57606036600319011261035d576024356004356111b282610432565b604435906111be61212d565b60009281845260056020526111eb610c6982604087209060018060a01b0316600052602052604060002090565b838114610964577f739a5a3ec0ff71e2386d0013deac5f44e0935a98def2e2a5ddf9a709518c8294916112606112b1928588526004602052604088209061125a8861125561123842612e7b565b93611250610c698c6000526004602052604060002090565b611c4e565b611c69565b91612222565b5050611295856103ed8361127e886000526005602052604060002090565b9060018060a01b0316600052602052604060002090565b50506040519485526001600160a01b0316939081906020820190565b0390a380f35b606090600319011261035d576004356112cf81610432565b906024359060443565ffffffffffff8116810361035d5790565b3461035d576105256105116112fd366112b7565b91611c76565b3461035d57600036600319011261035d5760206040516001600160401b037f0000000000000000000000000000000000000000000000000000000000000000168152f35b3461035d57600036600319011261035d576040517f00000000000000000000000000000000000000000000000000000000000000006001600160a01b03168152602090f35b3461035d57602036600319011261035d57600435600052600460205260206107e360406000206129bf565b3461035d57602036600319011261035d5760043560005260026020526020604060002054604051908152f35b3461035d57604036600319011261035d5761096260243560043561140682610432565b8060005260008051602061370c83398151915260205261142d600160406000200154612185565b612927565b3461035d57610525610511611446366112b7565b91611cc0565b3461035d5760206107e361145f3661074f565b92919091611dbc565b3461035d5760a036600319011261035d5760243560043561148882610432565b60443590611494610458565b6084356001600160401b03811161035d576114b460049136908301610708565b946114bd6125cc565b60009560206114e46114d86114d88a5460018060a01b031690565b6001600160a01b031690565b60405163b134427160e01b815294859182905afa9283156109b7578793611627575b506001600160a01b039283163303611615576001546001600160a01b031683811661158a575b50506040805195865265ffffffffffff909316602086015216927f741a5de99085c0d660f3e4192217b0ffb0ea4e35a0480de48e857a4bc3ee36ed91819081015b0390a3611587600160008051602061372c83398151915255565b80f35b9093604051946115c1866115b3602082019363724ab0f760e11b8552858c898d60248701611f4a565b03601f1981018852876106b0565b62042e305a10611603578861156d938192827f741a5de99085c0d660f3e4192217b0ffb0ea4e35a0480de48e857a4bc3ee36ed9951926203d090f1509361152c565b604051638072475160e01b8152600490fd5b60405163dabc4ad960e01b8152600490fd5b61164a91935060203d602011611651575b61164281836106b0565b8101906118fb565b9138611506565b503d611638565b3461035d57600036600319011261035d5760206040517f1312a1cf530e56add9be4fd84db9051dcc7635952f09f735f9a29405b55846258152f35b3461035d57604036600319011261035d576116ac610443565b7f00000000000000000000000000000000000000000000000000000000000000006001600160a01b031633036106325761061590600435600052600460205260406000206123b6565b3461035d57600036600319011261035d576000546040516001600160a01b039091168152602090f35b3461035d57604036600319011261035d5760206107e360243561174081610432565b600435611fa2565b3461035d57600036600319011261035d5760206040516203d0908152f35b3461035d57600036600319011261035d57602060405160018152f35b5190811515820361035d57565b519063ffffffff8216820361035d57565b919082604091031261035d5761079e60206117ba84611782565b930161178f565b906118119165ffffffffffff6118209496956060976040519463130f67dd60e31b6020870152602486015260018060a01b031660448501521660648301526064825261180c82610695565b6122e6565b602080825183010191016117a0565b906118285750565b90915063ffffffff604051911660208201526020815261079e8161065a565b60009081526005602090815260408083206001600160a01b0390941683529290522061079e9291906124f4565b9081602091031261035d5761079e90611782565b6040513d6000823e3d90fd5b81601f8201121561035d5780516118aa816106ed565b926118b860405194856106b0565b8184526020828401011161035d5761079e91602080850191016104ac565b9060208282031261035d5781516001600160401b03811161035d5761079e9201611894565b9081602091031261035d575161079e81610432565b9061079e916020815261192f825160a0602084015260c08301906104cf565b9060a0608061197d61196a611956602088015196601f1997888883030160408901526104cf565b6040880151878783030160608801526104cf565b60608701518686830301848701526104cf565b94015192828503019101526104cf565b604051630df8851f60e11b81526001600160a01b03828116600483015260248201849052848116604483015265ffffffffffff8616606483015260009660609690959294909188866084817f000000000000000000000000000000000000000000000000000000000000000085165afa9586156109b7578996611ba8575b5060405163fbfa77cf60e01b81526020816004818986165afa9081156109b757611a77928b9286928491611b89575b5060405163192c0ff760e21b81526001600160a01b03909116600482015265ffffffffffff90921660248301529092839190829081906044820190565b03917f0000000000000000000000000000000000000000000000000000000000000000165afa9889156109b7578099611b5d575b50509081611ac982611ac181611acf9689611cc0565b9583886117c1565b94611c76565b90835115801590611b53575b8015611b49575b8015611b3f575b8015611b35575b611afd5750505050909150565b611160955061079e9496611b0f6106d1565b948552602085015260408401526060830152608082015260405192839160208301611910565b5081511515611af0565b5082511515611ae9565b5080511515611ae2565b5086511515611adb565b611acf9392995090611b80913d8091833e611b7881836106b0565b8101906118d6565b97909138611aab565b611ba2915060203d6020116116515761164281836106b0565b38611a3a565b611bbd9196503d808b833e611b7881836106b0565b9438611a0b565b9061079e9291600052600360205260406000206124f4565b9061079e9291600052600460205260406000206124f4565b3d15611c1f573d90611c05826106ed565b91611c1360405193846106b0565b82523d6000602084013e565b606090565b634e487b7160e01b600052601160045260246000fd5b600019810191908211611c4957565b611c24565b91908203918211611c4957565b9060018201809211611c4957565b91908201809211611c4957565b60405163ed4d89e560e01b6020820152602481019290925265ffffffffffff909216604482015260609291611820916118119161180c82606481015b03601f1981018452836106b0565b604051630cbd53f560e11b6020820152602481019290925265ffffffffffff909216604482015260609291611820916118119161180c8260648101611cb2565b60405190611d0d8261065a565b60606020838281520152565b9060208282031261035d5781516001600160401b039283821161035d57019060408282031261035d5760405192611d4f8461065a565b825181811161035d5782611d64918501611894565b8452602083015190811161035d57611d7c9201611894565b602082015290565b6001600160a01b0391821681529116602082015265ffffffffffff909116604082015260806060820181905261079e929101906104cf565b92611dcc90929192828486612ca6565b929093611dd7611d00565b93805180611f2e575b50508415938415611e96575b8415611e04575b50505050611dfe5790565b50600090565b602080949550611e2f910151604051958694859463530e1d4360e01b865260601c9060048601611d84565b03817f00000000000000000000000000000000000000000000000000000000000000006001600160a01b03165afa9081156109b757600091611e77575b501538808080611df3565b611e90915060203d6020116109b0576109a281836106b0565b38611e6c565b6000549094506001600160a01b0316602084865192611eca604051948593849363530e1d4360e01b85528960048601611d84565b03817f00000000000000000000000000000000000000000000000000000000000000006001600160a01b03165afa9081156109b757600091611f0f575b501593611dec565b611f28915060203d6020116109b0576109a281836106b0565b38611f07565b611f42929550602080918301019101611d19565b923880611de0565b919360a09361079e969565ffffffffffff938552600180871b03166020850152604084015216606082015281608082015201906104cf565b8115611f8c570490565b634e487b7160e01b600052601260045260246000fd5b6000546040516308834cb560e21b8082526001600160a01b0385811660048401529283166024830152929392602092909183816044817f000000000000000000000000000000000000000000000000000000000000000086165afa9081156109b7576000916120b3575b501591821561202e575b505090506120275761079e91612dbd565b5050600090565b6040519081526001600160a01b0385166004820152606086901c602482015291508290829060449082907f0000000000000000000000000000000000000000000000000000000000000000165afa9182156109b757600092612096575b505015803880612016565b6120ac9250803d106109b0576109a281836106b0565b388061208b565b6120ca9150843d86116109b0576109a281836106b0565b3861200c565b3360009081527f72a65082a5691803ab2b62c9bc729b34205ba1b183d950896526b2fd8714d0c7602052604090207e8b9b1e5fa9cf3b14f87f435649268146305ddf689f082e5961a335b07a9abf9060ff905b541615610bd55750565b3360009081527f8f2dae99798887da307a4daa2c2d11f840b0cb9a6a67822660c531e9ad14dd00602052604090207f1312a1cf530e56add9be4fd84db9051dcc7635952f09f735f9a29405b55846259060ff90612123565b600081815260008051602061370c83398151915260209081526040808320338452909152902060ff90612123565b634e487b7160e01b600052603260045260246000fd5b80548210156121e15760005260206000200190600090565b6121b3565b90815491600160401b83101561067557826122099160016106de950181556121c9565b90919082549060031b91821b91600019901b1916179055565b909291926001820190815480156122b5575b508461223f84612ead565b5094909284549361224f836129bf565b96816122a0575b501561227d575050506000198101908111611c49576122098591612279936121c9565b9190565b612279949293612299926001600160d01b0390911691906135c3565b50506121e6565b65ffffffffffff838116911614905038612256565b600160401b811015610675578060016122d192018455836121c9565b8154906000199060031b1b1916905538612234565b90604051612317816111606020820194639f86fd8560e01b86523060248401526040604484015260648301906104cf565b6000928392839251915afa5061232b611bf4565b90815182019160408184031261238e5761234760208201611782565b926040820151906001600160401b03821161238a5761236d926020918201920101611894565b9115612377575090565b9080519182156123875750602001fd5b80fd5b8380fd5b5080fd5b9060405161239f8161065a565b915465ffffffffffff8116835260301c6020830152565b91908254906000829160058411612462575b6123d3935085613036565b9081156124555761244e61244561243f6124356124076124026123f588611c3a565b8960005260206000200190565b612392565b96600161242e602061241f8b5165ffffffffffff1690565b9a01516001600160d01b031690565b91016121c9565b90549060031b1c90565b93611c3a565b63ffffffff1690565b6001939291565b6000925082915081908190565b919261246d81612f02565b8103908111611c49576123d393866000526124a36124988360206000200165ffffffffffff90541690565b65ffffffffffff1690565b65ffffffffffff851610156124b95750916123c8565b9291506124c590611c5b565b906123c8565b9081602091031261035d5761079e9061178f565b90600163ffffffff80931601918211611c4957565b918051156125c2578060208061250f935183010191016124cb565b9161251a8382613172565b9261252b845165ffffffffffff1690565b9065ffffffffffff80851692168281146125b65782119182612561575b50506125585761079e925061309a565b50506020015190565b90915061256e8354611c3a565b63ffffffff831614918215612587575b50503880612548565b6125ae9192506125a261259c612498926124df565b85613172565b5165ffffffffffff1690565b11388061257e565b50505050506020015190565b5061079e9161309a565b60008051602061372c83398151915260028154146125ea5760029055565b604051633ee5aeb560e01b8152600490fd5b906000918083526003602052604083208261261682612ead565b91939050831561267557612636916001600160d01b0316906001016121c9565b90549060031b1c5b8261266b575b505061264f57505050565b8260409161266794526003602052206103f642612e7b565b5050565b1190508238612644565b50508461263e565b6001600160a01b03811660009081527fb7db2dd08fcb62d0c9e08c51941cae53c267786a0b75803fb7960902fc8ef97d602052604081205460008051602061370c8339815191529060ff1661272c57818052602090815260408083206001600160a01b038516600090815292529020805460ff1916600117905533916001600160a01b0316907f2f8788117e7eff1d82e926ec794901d17c78024a50270940304540a733656f0d8180a4600190565b50905090565b6001600160a01b03811660009081527f9ebbcbe0d2961d3fbe56ca6f679bc753bd848d3e6bb3eaf9041c51b286881d2c602052604081207fd1c1f6fa6bf27d54c5e54c7c1dc6e5004d3c027ea1994fe68b29c1b51b69c36c9060008051602061370c8339815191529060ff905b541661280557818352602090815260408084206001600160a01b038616600090815292529020805460ff1916600117905533926001600160a01b0316917f2f8788117e7eff1d82e926ec794901d17c78024a50270940304540a733656f0d9080a4600190565b5050905090565b6001600160a01b03811660009081527f72a65082a5691803ab2b62c9bc729b34205ba1b183d950896526b2fd8714d0c7602052604081207e8b9b1e5fa9cf3b14f87f435649268146305ddf689f082e5961a335b07a9abf9060008051602061370c8339815191529060ff9061279f565b6001600160a01b03811660009081527f8f2dae99798887da307a4daa2c2d11f840b0cb9a6a67822660c531e9ad14dd00602052604081207f1312a1cf530e56add9be4fd84db9051dcc7635952f09f735f9a29405b55846259060008051602061370c8339815191529060ff9061279f565b600081815260008051602061370c833981519152602081815260408084206001600160a01b0387168552909152822091929160ff9061279f565b600081815260008051602061370c833981519152602081815260408084206001600160a01b038716855290915282205491929160ff161561280557818352602090815260408084206001600160a01b038616600090815292529020805460ff1916905533926001600160a01b0316917ff6391f5c32d9c69d2a47ea670b442974b53935d1edc7fd64eb21e047a839171b9080a4600190565b8054600090806129e957505060005b6001600160d01b0381161561202757600161243592016121c9565b600019918183810111611c49578084602092522001015460301c6129ce565b91909160408184031261035d578035612a2081610432565b9260208201356001600160401b03811161035d5761079e9201610708565b612a4a91810190612a08565b6040516302910f8b60e31b81526001600160a01b039283166004820181905291906020816024817f000000000000000000000000000000000000000000000000000000000000000088165afa9081156109b757600091612b60575b5015612b4e57612ae2604091612add612b2894612ac06131da565b60018060a01b03166001600160601b0360a01b6000541617600055565b61335c565b6020810151600180546001600160a01b0319166001600160a01b0390921691909117905580516001600160a01b0316848116612b3e575b5001516001600160a01b031690565b908116612b325750565b612b3b90612732565b50565b612b479061267d565b5038612b19565b6040516362df054560e01b8152600490fd5b612b79915060203d6020116109b0576109a281836106b0565b38612aa5565b6040519060a082018281106001600160401b038211176106755760405281608060609182815282602082015282604082015282808201520152565b9060208282031261035d5781516001600160401b039283821161035d57019060a08282031261035d57612beb6106d1565b92825181811161035d5782612c01918501611894565b8452602083015181811161035d5782612c1b918501611894565b6020850152604083015181811161035d5782612c38918501611894565b6040850152606083015181811161035d5782612c55918501611894565b6060850152608083015190811161035d57612c709201611894565b608082015290565b9081602091031261035d575190565b60409065ffffffffffff61079e949316815281602082015201906104cf565b9392919093612cb3612b7f565b92805180612da1575b5050612ccd60608401518383611bdc565b9160009083612ce457505091516000945092915050565b612cf98597826080612d339801519186611847565b926020612d126114d86114d8865460018060a01b031690565b818a01519060405180809a819463810da75d60e01b83528860048401612c87565b03915afa9081156109b757612d6996612d639492612d6e575b50612d5d919260408a015191611bc4565b906134be565b906134d0565b915190565b612d5d9250612d949060203d602011612d9a575b612d8c81836106b0565b810190612c78565b91612d4c565b503d612d82565b612db5929450602080918301019101612bba565b913880612cbc565b90612dd5610c69836000526004602052604060002090565b9081612de357505050600090565b610c69612dfe9161127e856000526005602052604060002090565b60005460405163bd49c35f60e01b815290602090829060049082906001600160a01b03165afa80156109b75761079e94612d6392600092612e52575b50610c69612d5d916000526003602052604060002090565b612d5d919250612e73610c699160203d602011612d9a57612d8c81836106b0565b929150612e3a565b65ffffffffffff90818111612e8e571690565b604490604051906306dfcc6560e41b8252603060048301526024820152fd5b805480612ec1575050600090600090600090565b600019908082810111611c4957612ee19260005260206000200101612392565b9065ffffffffffff82511691602060018060d01b0391015116906001929190565b8015611dfe5780612d5d612fce612fc4612fba612fb0612fa6612f9c612f92600161079e9a6000908b60801c8061302a575b508060401c8061301d575b508060201c80613010575b508060101c80613003575b508060081c80612ff6575b508060041c80612fe9575b508060021c80612fdc575b50821c612fd5575b811c1b612f8b818b611f82565b0160011c90565b612f8b818a611f82565b612f8b8189611f82565b612f8b8188611f82565b612f8b8187611f82565b612f8b8186611f82565b612f8b8185611f82565b8092611f82565b8101612f7e565b6002915091019038612f76565b6004915091019038612f6b565b6008915091019038612f60565b6010915091019038612f55565b6020915091019038612f4a565b6040915091019038612f3f565b91505060809038612f34565b91905b8382106130465750505090565b909192808316906001818518811c8301809311611c495760008681526020902083015465ffffffffffff9081169085161015613087575050925b9190613039565b909493508101809111611c495791613080565b908154906000829160058411613108575b6130b6935084613036565b806130df57506000905b6001600160d01b038216156120275761079e91600161243592016121c9565b6130fb6130ee61310292611c3a565b8360005260206000200190565b5460301c90565b906130c0565b919261311381612f02565b8103908111611c49576130b6938560005265ffffffffffff80836020600020015416908516106000146131475750916130ab565b92915061315390611c5b565b906130ab565b604051906131668261065a565b60006020838281520152565b9061319b6131956131bc92613185613159565b5061318e613159565b50846121c9565b50612392565b91600165ffffffffffff845116936020828060d01b039101511691016121c9565b905490604051926131cc8461065a565b835260031b1c602082015290565b6131e26136dc565b6131ea6136dc565b600160008051602061372c83398151915255565b6040519061320b8261067a565b60006040838281528260208201520152565b81601f8201121561035d578051916020916001600160401b038411610675578360051b9060405194613251858401876106b0565b8552838086019282010192831161035d578301905b828210613274575050505090565b838091835161328281610432565b815201910190613266565b9060208282031261035d5781516001600160401b039283821161035d5701908181039260a0841261035d576060604051946132c78661067a565b1261035d576040516132d88161067a565b83516132e381610432565b815260208401516132f381610432565b6020820152604084015161330681610432565b60408201528452606083015181811161035d578261332591850161321d565b6020850152608083015190811161035d57613340920161321d565b604082015290565b80518210156121e15760209160051b010190565b613378906133686131fe565b506020808251830101910161328d565b8051519091906001600160a01b031615806134a4575b6134925790602081019060005b82518051821015613415576114d86133b6836133c393613348565b516001600160a01b031690565b15613403576133e56133e16133dc6133b6848751613348565b61280c565b1590565b6133f15760010161339b565b604051635140fefd60e11b8152600490fd5b6040516323cda06760e01b8152600490fd5b5060409250508181019060005b82518051821015613489576114d86133b68361343d93613348565b156134785761345b6133e16134566133b6848751613348565b61287c565b61346757600101613422565b8351635140fefd60e11b8152600490fd5b83516323cda06760e01b8152600490fd5b50509150505190565b6040516303501f5960e11b8152600490fd5b50602082015151158061338e57506040820151511561338e565b90808210156134cb575090565b905090565b9091828202916000198482099383808610950394808603951461355857848311156135465782910981600003821680920460028082600302188083028203028083028203028083028203028083028203028083028203028092029003029360018380600003040190848311900302920304170290565b60405163227bc15360e01b8152600490fd5b50509061079e9250611f82565b8054600160401b81101561067557613582916001820181556121c9565b6135ad57815160209092015160301b65ffffffffffff191665ffffffffffff92909216919091179055565b634e487b7160e01b600052600060045260246000fd5b8054929392919082156136b2576135df6124026130ee85611c3a565b906135f0825165ffffffffffff1690565b65ffffffffffff848116911681106136a05761227994602094889261361e612498875165ffffffffffff1690565b03613668575061365a9261363461364192611c3a565b9060005260206000200190565b9065ffffffffffff82549181199060301b169116179055565b01516001600160d01b031690565b91505061369b9161368861367a6106e0565b65ffffffffffff9093168352565b6001600160d01b03881682860152613565565b61365a565b604051632520601d60e01b8152600490fd5b6136d692506136c261367a6106e0565b6001600160d01b0385166020830152613565565b60009190565b60ff60008051602061374c8339815191525460401c16156136f957565b604051631afcd79f60e31b8152600490fdfe02dd7bc7dec4dceedda775e58dd541e08a116c6c53815c0bd028192f7b6268009b779b17422d0df92223018b32b4d1fa46e071723d6817e2486d003becc55f00f0c57e16840df040f15088dc2f81fe391c3923bec73e23a9662efc9c229c6a00a264697066735822122070b98d21b8bdaf729477ce8585b762bc3f9de4069191fb2996472580312a4ddc64736f6c634300081900336101c0346101ca57601f61368838819003918201601f19168301916001600160401b0391828411858510176101cf5781606092869260409687528339810103126101ca5761004c836101e5565b926100648361005d602084016101e5565b92016101e5565b91306080527ff0c57e16840df040f15088dc2f81fe391c3923bec73e23a9662efc9c229c6a009081549060ff82871c166101b9578080831603610175575b5050506000938460a0528460c0528460e05261010094808652610120948186526101409182526101609283526101809384526101a0948552519461348e96876101fa88396080518781816106d00152611507015260a05187610974015260c051876111bb015260e0518781816107de01526111f50152518681816104f3015261274801525185818161068601528181611c6c0152611da101525184818161075c01528181611bd10152611e21015251838181610f1c015261181c015251828181610ce601526118bd015251816110bb0152f35b6001600160401b0319909116811790915583519081527fc7f505b2f371ae2175ee4913f4499e1f2633a7b5936321eed1cdaeb6115181d290602090a13880806100a2565b855163f92ee8a960e01b8152600490fd5b600080fd5b634e487b7160e01b600052604160045260246000fd5b51906001600160a01b03821682036101ca5756fe6080604052600436101561001257600080fd5b60003560e01c806301ffc9a7146102c7578063020cf0c2146102c257806302145348146102bd578063103f2907146102b857806310a28b5d146102b357806311422095146102ae578063128e5d82146102a9578063197aa7ea146102a45780631a80e5001461029f57806323f752d51461029a578063248a9ca31461029557806325dc9708146102905780632dd310001461028b5780632f2ff15d1461028657806336568abe146102815780633dfd38731461027c5780633eb22c0f14610277578063439fab911461027257806345e78fcb1461026d578063518504ba14610268578063557cab44146102635780635d32a1c91461025e5780636679191e1461025957806379d89614146102545780637d24bb271461024f5780637f5a7c7b1461024a57806391d148541461024557806394d2558a146102405780639b656b221461023b5780639f86fd8514610236578063a217fddf14610231578063bb24fe8a1461022c578063c0cd7c3e14610227578063d15b740e14610222578063d547741f1461021d578063da749d2b14610218578063e02f693714610213578063e49561ee1461020e578063f7b0554714610209578063fbfa77cf14610204578063fd4d447c146101ff578063ff54740f146101fa5763ffa1ad74146101f557600080fd5b6115d9565b6115bb565b611591565b611568565b6114e0565b6112f0565b6112d4565b61129f565b611250565b611224565b6111df565b61119b565b61117f565b6110ea565b6110a5565b611063565b610fae565b610f85565b610f4b565b610f06565b610ecb565b610e78565b610d50565b610d15565b610cd0565b610b94565b610b3c565b610a3d565b6109f2565b6109a3565b61095e565b610941565b610905565b61078b565b610746565b6106b5565b610670565b61061d565b6105e8565b6104dd565b61041c565b610333565b3461031d57602036600319011261031d5760043563ffffffff60e01b811680910361031d57602090637965db0b60e01b811490811561030c575b506040519015158152f35b6301ffc9a760e01b14905038610301565b600080fd5b6001600160a01b0381160361031d57565b3461031d57606036600319011261031d5760243560043561035382610322565b6044359061035f611e97565b60009281845260046020528261039261038d83604088209060018060a01b0316600052602052604060002090565b612168565b1461040a5760207ffc9545f07ffadfb668efd0144cdcaf2d6e2c8192dce1ea9fc131934f9c90fc7e91838652600482526103f4856103e58360408a209060018060a01b0316600052602052604060002090565b6103ee42612bfd565b90611ff8565b50506040519485526001600160a01b031693a380f35b60405163a741a04560e01b8152600490fd5b3461031d5760408060031936011261031d5760043560243561043c611ef5565b60009282845260026020528084205482116104cd57828452600360205281610465828620612168565b146104bd57816104b7916104a77e899d104fc3d8820bd96540612bcc5c448c8837b13b9f7faa43ad0728f0c14f946103e5876000526003602052604060002090565b5050519081529081906020820190565b0390a280f35b5163a741a04560e01b8152600490fd5b51631eefc06360e31b8152600490fd5b3461031d57600036600319011261031d576040517f00000000000000000000000000000000000000000000000000000000000000006001600160a01b03168152602090f35b6024359065ffffffffffff8216820361031d57565b6044359065ffffffffffff8216820361031d57565b6064359065ffffffffffff8216820361031d57565b608090600319011261031d5760043561057981610322565b906024359060443561058a81610322565b9060643565ffffffffffff8116810361031d5790565b60005b8381106105b35750506000910152565b81810151838201526020016105a3565b906020916105dc815180928185528580860191016105a0565b601f01601f1916010190565b3461031d576106196106056105fc36610561565b92919091611634565b6040519182916020835260208301906105c3565b0390f35b3461031d57604036600319011261031d57602061066861038d60243561064281610322565b6004356000526004845260406000209060018060a01b0316600052602052604060002090565b604051908152f35b3461031d57600036600319011261031d576040517f00000000000000000000000000000000000000000000000000000000000000006001600160a01b03168152602090f35b3461031d57604036600319011261031d576106ce610522565b7f00000000000000000000000000000000000000000000000000000000000000006001600160a01b031633036107345761071790600435600052600360205260406000206121df565b60408051941515855263ffffffff91909116602085015292915050f35b604051637ca475e560e11b8152600490fd5b3461031d57600036600319011261031d576040517f00000000000000000000000000000000000000000000000000000000000000006001600160a01b03168152602090f35b3461031d57604036600319011261031d576004356001600160601b038116810361031d57602435906107bb6122ea565b6040516302910f8b60e31b81523360048201526020816024816001600160a01b037f0000000000000000000000000000000000000000000000000000000000000000165afa908115610900576000916108d1575b50156108bf576001600160601b03166bffffffffffffffffffffffff193360601b16179080610848836000526002602052604060002090565b541461040a576108a3817fc67e7929681aa1bccd63f52b3799bf5805f3009f197db6fdf584b14f7fbf608c92610888856000526002602052604060002090565b55610893818561231a565b6040519081529081906020820190565b0390a26108bd600160008051602061341983398151915255565b005b6040516323d53b9760e21b8152600490fd5b6108f3915060203d6020116108f9575b6108eb8183610dd9565b8101906116cc565b3861080f565b503d6108e1565b6116e0565b3461031d57602036600319011261031d576004356000526000805160206133f98339815191526020526020600160406000200154604051908152f35b3461031d5761061961060561095536610561565b929190916117ce565b3461031d57600036600319011261031d576040517f00000000000000000000000000000000000000000000000000000000000000006001600160a01b03168152602090f35b3461031d57604036600319011261031d576108bd6024356004356109c682610322565b806000526000805160206133f98339815191526020526109ed600160406000200154611f4c565b61260b565b3461031d57604036600319011261031d57602435610a0f81610322565b336001600160a01b03821603610a2b576108bd90600435612645565b60405163334bd91960e11b8152600490fd5b3461031d57602036600319011261031d57600435610a5a81610322565b610a626122ea565b3360009081527f9ebbcbe0d2961d3fbe56ca6f679bc753bd848d3e6bb3eaf9041c51b286881d2c60205260408120549091907fd1c1f6fa6bf27d54c5e54c7c1dc6e5004d3c027ea1994fe68b29c1b51b69c36c9060ff1615610b1e57506001546001600160a01b03918216918116821461040a576001600160a01b03191681176001557f5bbb1d3ebb6a3ad2a0f17ff35e579a83af60604d1d3c2a4c83c62adecadf666d8280a260016000805160206134198339815191525580f35b6044906040519063e2517d3f60e01b82523360048301526024820152fd5b3461031d57602036600319011261031d57600435600052600360205260206106686040600020612168565b9181601f8401121561031d578235916001600160401b03831161031d576020838186019501011161031d57565b3461031d57602036600319011261031d576001600160401b0360043581811161031d57610bc5903690600401610b67565b600080516020613439833981519152549260ff8460401c1615931680159081610cc8575b6001149081610cbe575b159081610cb5575b50610ca357600080516020613439833981519152805467ffffffffffffffff19166001179055610c2f9183610c7e57612713565b610c3557005b600080516020613439833981519152805460ff60401b19169055604051600181527fc7f505b2f371ae2175ee4913f4499e1f2633a7b5936321eed1cdaeb6115181d290602090a1005b600080516020613439833981519152805460ff60401b1916600160401b179055612713565b60405163f92ee8a960e01b8152600490fd5b90501538610bfb565b303b159150610bf3565b849150610be9565b3461031d57600036600319011261031d576040517f00000000000000000000000000000000000000000000000000000000000000006001600160a01b03168152602090f35b3461031d57600036600319011261031d5760206040517f15e7c882d74e8821ebf34aaff46fd0e1d53b9393d91490019124113d28dc32a38152f35b3461031d57600036600319011261031d576020604051614e208152f35b634e487b7160e01b600052604160045260246000fd5b604081019081106001600160401b03821117610d9e57604052565b610d6d565b606081019081106001600160401b03821117610d9e57604052565b608081019081106001600160401b03821117610d9e57604052565b90601f801991011681019081106001600160401b03821117610d9e57604052565b60405190610e0782610dbe565b565b60405190610e0782610d83565b6001600160401b038111610d9e57601f01601f191660200190565b81601f8201121561031d57803590610e4882610e16565b92610e566040519485610dd9565b8284526020838301011161031d57816000926020809301838601378301015290565b3461031d57606036600319011261031d57610e91610522565b6044356001600160401b03811161031d57602091610eb6610668923690600401610e31565b9060043560005260038452604060002061287d565b3461031d57600036600319011261031d5760206040517fd1c1f6fa6bf27d54c5e54c7c1dc6e5004d3c027ea1994fe68b29c1b51b69c36c8152f35b3461031d57600036600319011261031d576040517f00000000000000000000000000000000000000000000000000000000000000006001600160a01b03168152602090f35b3461031d57600036600319011261031d5760206040517e8b9b1e5fa9cf3b14f87f435649268146305ddf689f082e5961a335b07a9abf8152f35b3461031d57600036600319011261031d576001546040516001600160a01b039091168152602090f35b3461031d57604036600319011261031d57602060ff611005602435610fd281610322565b6004356000526000805160206133f9833981519152845260406000209060018060a01b0316600052602052604060002090565b54166040519015158152f35b90608060031983011261031d576004359160243561102e81610322565b9160443565ffffffffffff8116810361031d5791606435906001600160401b03821161031d5761106091600401610e31565b90565b3461031d5760206106686110a061107936611011565b939190926000526004865260406000209060018060a01b0316600052602052604060002090565b61287d565b3461031d57600036600319011261031d576040517f00000000000000000000000000000000000000000000000000000000000000006001600160a01b03168152602090f35b3461031d57604036600319011261031d5760043561110781610322565b6024356001600160401b03811161031d5760009161112a83923690600401610b67565b90816040519283928337810184815203915af4611177611148611a2b565b916111696040519384921515602084015260408084015260608301906105c3565b03601f198101835282610dd9565b805190602001fd5b3461031d57600036600319011261031d57602060405160008152f35b3461031d57600036600319011261031d5760206040516001600160401b037f0000000000000000000000000000000000000000000000000000000000000000168152f35b3461031d57600036600319011261031d576040517f00000000000000000000000000000000000000000000000000000000000000006001600160a01b03168152602090f35b3461031d57602036600319011261031d5760043560005260026020526020604060002054604051908152f35b3461031d57604036600319011261031d576108bd60243560043561127382610322565b806000526000805160206133f983398151915260205261129a600160406000200154611f4c565b612645565b3461031d57606036600319011261031d576106196106056004356112c281610322565b6112ca610537565b9060243590611a5b565b3461031d5760206106686112e736611011565b92919091611b5a565b3461031d5760a036600319011261031d5760243560043561131082610322565b6044359061131c61054c565b6084356001600160401b03811161031d5761133c60049136908301610e31565b946113456122ea565b600095602061136c6113606113608a5460018060a01b031690565b6001600160a01b031690565b60405163b134427160e01b815294859182905afa9283156109005787936114af575b506001600160a01b03928316330361149d576001546001600160a01b0316838116611412575b50506040805195865265ffffffffffff909316602086015216927f741a5de99085c0d660f3e4192217b0ffb0ea4e35a0480de48e857a4bc3ee36ed91819081015b0390a361140f600160008051602061341983398151915255565b80f35b9093604051946114498661143b602082019363724ab0f760e11b8552858c898d60248701611ce8565b03601f198101885287610dd9565b62042e305a1061148b57886113f5938192827f741a5de99085c0d660f3e4192217b0ffb0ea4e35a0480de48e857a4bc3ee36ed9951926203d090f150936113b4565b604051638072475160e01b8152600490fd5b60405163dabc4ad960e01b8152600490fd5b6114d291935060203d6020116114d9575b6114ca8183610dd9565b810190611753565b913861138e565b503d6114c0565b3461031d57606036600319011261031d576024356114fd81610322565b611505610537565b7f00000000000000000000000000000000000000000000000000000000000000006001600160a01b031633036107345761156361071792600435600052600460205260406000209060018060a01b0316600052602052604060002090565b6121df565b3461031d57600036600319011261031d576000546040516001600160a01b039091168152602090f35b3461031d57604036600319011261031d5760206106686024356115b381610322565b600435611d69565b3461031d57600036600319011261031d5760206040516203d0908152f35b3461031d57600036600319011261031d57602060405160018152f35b5190811515820361031d57565b519063ffffffff8216820361031d57565b919082604091031261031d57611060602061162d846115f5565b9301611602565b91939265ffffffffffff906060956040519363f7b0554760e01b6020860152602485015260018060a01b031660448401521660648201526064815260a08101908082106001600160401b03831117610d9e576116a592611696926040526120bc565b60208082518301019101611613565b906116ad5750565b90915063ffffffff604051911660208201526020815261106081610d83565b9081602091031261031d57611060906115f5565b6040513d6000823e3d90fd5b81601f8201121561031d57805161170281610e16565b926117106040519485610dd9565b8184526020828401011161031d5761106091602080850191016105a0565b9060208282031261031d5781516001600160401b03811161031d5761106092016116ec565b9081602091031261031d575161106081610322565b90611060916020815261178782516080602084015260a08301906105c3565b90608060606117be6117ab602087015195601f1996878783030160408801526105c3565b60408701518686830301848701526105c3565b94015192828503019101526105c3565b604051630df8851f60e11b81526001600160a01b03828116600483015260248201849052848116604483015265ffffffffffff861660648301526000966060969095929490929188866084817f000000000000000000000000000000000000000000000000000000000000000085165afa9586156109005789966119ca575b5060405163fbfa77cf60e01b81526020816004818986165afa908115610900576118b9928b92879284916119ab575b5060405163192c0ff760e21b81526001600160a01b03909116600482015265ffffffffffff90921660248301529092839190829081906044820190565b03917f0000000000000000000000000000000000000000000000000000000000000000165afa98891561090057809961197d575b5050908161190084611906959487611a5b565b94611634565b90825115801590611973575b8015611969575b801561195f575b61192c57505050909150565b6111699450611060939561193e610dfa565b93845260208401526040830152606082015260405192839160208301611768565b5081511515611920565b5080511515611919565b5085511515611912565b6119069493929950906119a1913d8091833e6119998183610dd9565b81019061172e565b97909192386118ed565b6119c4915060203d6020116114d9576114ca8183610dd9565b3861187c565b6119df9196503d808b833e6119998183610dd9565b943861184d565b9061106092916000526003602052604060002061287d565b60009081526004602090815260408083206001600160a01b0390941683529290522061106092919061287d565b3d15611a56573d90611a3c82610e16565b91611a4a6040519384610dd9565b82523d6000602084013e565b606090565b6116a5916116969194939465ffffffffffff60609660405193630cbd53f560e11b6020860152602485015216604483015260448252611a9982610dbe565b6120bc565b60405190611aab82610d83565b60606020838281520152565b9060208282031261031d5781516001600160401b039283821161031d57019060408282031261031d5760405192611aed84610d83565b825181811161031d5782611b029185016116ec565b8452602083015190811161031d57611b1a92016116ec565b602082015290565b6001600160a01b0391821681529116602082015265ffffffffffff9091166040820152608060608201819052611060929101906105c3565b92611b6a90929192828486612a58565b929093611b75611a9e565b93805180611ccc575b50508415938415611c34575b8415611ba2575b50505050611b9c5790565b50600090565b602080949550611bcd910151604051958694859463530e1d4360e01b865260601c9060048601611b22565b03817f00000000000000000000000000000000000000000000000000000000000000006001600160a01b03165afa90811561090057600091611c15575b501538808080611b91565b611c2e915060203d6020116108f9576108eb8183610dd9565b38611c0a565b6000549094506001600160a01b0316602084865192611c68604051948593849363530e1d4360e01b85528960048601611b22565b03817f00000000000000000000000000000000000000000000000000000000000000006001600160a01b03165afa90811561090057600091611cad575b501593611b8a565b611cc6915060203d6020116108f9576108eb8183610dd9565b38611ca5565b611ce0929550602080918301019101611ab7565b923880611b7e565b919360a093611060969565ffffffffffff938552600180871b03166020850152604084015216606082015281608082015201906105c3565b634e487b7160e01b600052601160045260246000fd5b8115611d40570490565b634e487b7160e01b600052601260045260246000fd5b9060018201809211611d6457565b611d20565b6000546040516308834cb560e21b8082526001600160a01b0385811660048401529283166024830152929392602092909183816044817f000000000000000000000000000000000000000000000000000000000000000086165afa90811561090057600091611e7a575b5015918215611df5575b50509050611dee5761106091612b4f565b5050600090565b6040519081526001600160a01b0385166004820152606086901c602482015291508290829060449082907f0000000000000000000000000000000000000000000000000000000000000000165afa91821561090057600092611e5d575b505015803880611ddd565b611e739250803d106108f9576108eb8183610dd9565b3880611e52565b611e919150843d86116108f9576108eb8183610dd9565b38611dd3565b3360009081527f24e48de785eeca8420b70f73d267a66970ccc187d459f2a4b53e74ed92a5ab86602052604090207f15e7c882d74e8821ebf34aaff46fd0e1d53b9393d91490019124113d28dc32a39060ff905b541615610b1e5750565b3360009081527f72a65082a5691803ab2b62c9bc729b34205ba1b183d950896526b2fd8714d0c7602052604090207e8b9b1e5fa9cf3b14f87f435649268146305ddf689f082e5961a335b07a9abf9060ff90611eeb565b60008181526000805160206133f983398151915260209081526040808320338452909152902060ff90611eeb565b634e487b7160e01b600052603260045260246000fd5b8054821015611fa85760005260206000200190600090565b611f7a565b90815491600160401b831015610d9e5782611fd0916001610e0795018155611f90565b90919082549060031b91821b91600019901b1916179055565b600019810191908211611d6457565b9092919260018201908154801561208b575b508461201584612c2f565b5094909284549361202583612168565b9681612076575b5015612053575050506000198101908111611d6457611fd0859161204f93611f90565b9190565b61204f94929361206f926001600160d01b0390911691906132b0565b5050611fad565b65ffffffffffff83811691161490503861202c565b600160401b811015610d9e578060016120a79201845583611f90565b8154906000199060031b1b191690553861200a565b906040516120ed816111696020820194639f86fd8560e01b86523060248401526040604484015260648301906105c3565b6000928392839251915afa50612101611a2b565b9081518201916040818403126121645761211d602082016115f5565b926040820151906001600160401b038211612160576121439260209182019201016116ec565b911561214d575090565b90805191821561215d5750602001fd5b80fd5b8380fd5b5080fd5b80546000908061219c57505060005b6001600160d01b03811615611dee5760016121929201611f90565b90549060031b1c90565b600019918183810111611d64578084602092522001015460301c612177565b906040516121c881610d83565b915465ffffffffffff8116835260301c6020830152565b91908254906000829160058411612281575b6121fc935085612db8565b9081156122745761226d61226461225e61219261223061222b61221e88611fe9565b8960005260206000200190565b6121bb565b96600161225760206122488b5165ffffffffffff1690565b9a01516001600160d01b031690565b9101611f90565b93611fe9565b63ffffffff1690565b6001939291565b6000925082915081908190565b919261228c81612c84565b8103908111611d64576121fc93866000526122c26122b78360206000200165ffffffffffff90541690565b65ffffffffffff1690565b65ffffffffffff851610156122d85750916121f1565b9291506122e490611d56565b906121f1565b60008051602061341983398151915260028154146123085760029055565b604051633ee5aeb560e01b8152600490fd5b906000918083526003602052604083208261233482612c2f565b91939050831561239357612354916001600160d01b031690600101611f90565b90549060031b1c5b82612389575b505061236d57505050565b8260409161238594526003602052206103ee42612bfd565b5050565b1190508238612362565b50508461235c565b6001600160a01b03811660009081527fb7db2dd08fcb62d0c9e08c51941cae53c267786a0b75803fb7960902fc8ef97d60205260408120546000805160206133f98339815191529060ff1661244a57818052602090815260408083206001600160a01b038516600090815292529020805460ff1916600117905533916001600160a01b0316907f2f8788117e7eff1d82e926ec794901d17c78024a50270940304540a733656f0d8180a4600190565b50905090565b6001600160a01b03811660009081527f9ebbcbe0d2961d3fbe56ca6f679bc753bd848d3e6bb3eaf9041c51b286881d2c602052604081207fd1c1f6fa6bf27d54c5e54c7c1dc6e5004d3c027ea1994fe68b29c1b51b69c36c906000805160206133f98339815191529060ff905b541661252357818352602090815260408084206001600160a01b038616600090815292529020805460ff1916600117905533926001600160a01b0316917f2f8788117e7eff1d82e926ec794901d17c78024a50270940304540a733656f0d9080a4600190565b5050905090565b6001600160a01b03811660009081527f72a65082a5691803ab2b62c9bc729b34205ba1b183d950896526b2fd8714d0c7602052604081207e8b9b1e5fa9cf3b14f87f435649268146305ddf689f082e5961a335b07a9abf906000805160206133f98339815191529060ff906124bd565b6001600160a01b03811660009081527f24e48de785eeca8420b70f73d267a66970ccc187d459f2a4b53e74ed92a5ab86602052604081207f15e7c882d74e8821ebf34aaff46fd0e1d53b9393d91490019124113d28dc32a3906000805160206133f98339815191529060ff906124bd565b60008181526000805160206133f9833981519152602081815260408084206001600160a01b0387168552909152822091929160ff906124bd565b60008181526000805160206133f9833981519152602081815260408084206001600160a01b038716855290915282205491929160ff161561252357818352602090815260408084206001600160a01b038616600090815292529020805460ff1916905533926001600160a01b0316917ff6391f5c32d9c69d2a47ea670b442974b53935d1edc7fd64eb21e047a839171b9080a4600190565b91909160408184031261031d5780356126f581610322565b9260208201356001600160401b03811161031d576110609201610e31565b61271f918101906126dd565b6040516302910f8b60e31b81526001600160a01b039283166004820181905291906020816024817f000000000000000000000000000000000000000000000000000000000000000088165afa90811561090057600091612835575b5015612823576127b76040916127b26127fd94612795612e1c565b60018060a01b03166001600160601b0360a01b6000541617600055565b612f9e565b6020810151600180546001600160a01b0319166001600160a01b0390921691909117905580516001600160a01b0316848116612813575b5001516001600160a01b031690565b9081166128075750565b61281090612450565b50565b61281c9061239b565b50386127ee565b6040516362df054560e01b8152600490fd5b61284e915060203d6020116108f9576108eb8183610dd9565b3861277a565b9081602091031261031d5761106090611602565b90600163ffffffff80931601918211611d6457565b9180511561294b578060208061289893518301019101612854565b916128a383826131d8565b926128b4845165ffffffffffff1690565b9065ffffffffffff808516921682811461293f57821191826128ea575b50506128e1576110609250613100565b50506020015190565b9091506128f78354611fe9565b63ffffffff831614918215612910575b505038806128d1565b61293791925061292b6129256122b792612868565b856131d8565b5165ffffffffffff1690565b113880612907565b50505050506020015190565b5061106091613100565b60405190608082018281106001600160401b03821117610d9e57604052606080838181528160208201528160408201520152565b9060208282031261031d5781516001600160401b039283821161031d57019060808282031261031d576129ba610dfa565b92825181811161031d57826129d09185016116ec565b8452602083015181811161031d57826129ea9185016116ec565b6020850152604083015181811161031d5782612a079185016116ec565b6040850152606083015190811161031d57612a2292016116ec565b606082015290565b9081602091031261031d575190565b60409065ffffffffffff611060949316815281602082015201906105c3565b93919093612a64612955565b93805180612b2f575b5050612aaf9293946020612a8e61136061136060005460018060a01b031690565b8188015190604051808098819463810da75d60e01b83528960048401612a39565b03915afa91821561090057612af194600093612af6575b50612aeb90612aeb9394612adf60408a015182846119e6565b9360608a0151926119fe565b90613240565b915190565b612aeb935090612b20612aeb9260203d602011612b28575b612b188183610dd9565b810190612a2a565b935090612ac6565b503d612b0e565b612aaf94955090602080612b47938301019101612989565b939238612a6d565b60005460405163bd49c35f60e01b8152929190602090849060049082906001600160a01b03165afa9081156109005761106093600092612bd2575b50612aeb61038d612aeb9394612bad61038d856000526003602052604060002090565b93600052600460205260406000209060018060a01b0316600052602052604060002090565b612aeb925061038d612bf5612aeb9260203d602011612b2857612b188183610dd9565b935050612b8a565b65ffffffffffff90818111612c10571690565b604490604051906306dfcc6560e41b8252603060048301526024820152fd5b805480612c43575050600090600090600090565b600019908082810111611d6457612c6392600052602060002001016121bb565b9065ffffffffffff82511691602060018060d01b0391015116906001929190565b8015611b9c5780612aeb612d50612d46612d3c612d32612d28612d1e612d1460016110609a6000908b60801c80612dac575b508060401c80612d9f575b508060201c80612d92575b508060101c80612d85575b508060081c80612d78575b508060041c80612d6b575b508060021c80612d5e575b50821c612d57575b811c1b612d0d818b611d36565b0160011c90565b612d0d818a611d36565b612d0d8189611d36565b612d0d8188611d36565b612d0d8187611d36565b612d0d8186611d36565b612d0d8185611d36565b8092611d36565b8101612d00565b6002915091019038612cf8565b6004915091019038612ced565b6008915091019038612ce2565b6010915091019038612cd7565b6020915091019038612ccc565b6040915091019038612cc1565b91505060809038612cb6565b91905b838210612dc85750505090565b909192808316906001818518811c8301809311611d645760008681526020902083015465ffffffffffff9081169085161015612e09575050925b9190612dbb565b909493508101809111611d645791612e02565b612e246133c9565b612e2c6133c9565b600160008051602061341983398151915255565b60405190612e4d82610da3565b60006040838281528260208201520152565b81601f8201121561031d578051916020916001600160401b038411610d9e578360051b9060405194612e9385840187610dd9565b8552838086019282010192831161031d578301905b828210612eb6575050505090565b8380918351612ec481610322565b815201910190612ea8565b9060208282031261031d5781516001600160401b039283821161031d5701908181039260a0841261031d57606060405194612f0986610da3565b1261031d57604051612f1a81610da3565b8351612f2581610322565b81526020840151612f3581610322565b60208201526040840151612f4881610322565b60408201528452606083015181811161031d5782612f67918501612e5f565b6020850152608083015190811161031d57612f829201612e5f565b604082015290565b8051821015611fa85760209160051b010190565b612fba90612faa612e40565b5060208082518301019101612ecf565b8051519091906001600160a01b031615806130e6575b6130d45790602081019060005b8251805182101561305757611360612ff88361300593612f8a565b516001600160a01b031690565b156130455761302761302361301e612ff8848751612f8a565b61252a565b1590565b61303357600101612fdd565b604051635140fefd60e11b8152600490fd5b6040516323cda06760e01b8152600490fd5b5060409250508181019060005b825180518210156130cb57611360612ff88361307f93612f8a565b156130ba5761309d613023613098612ff8848751612f8a565b61259a565b6130a957600101613064565b8351635140fefd60e11b8152600490fd5b83516323cda06760e01b8152600490fd5b50509150505190565b6040516303501f5960e11b8152600490fd5b506020820151511580612fd0575060408201515115612fd0565b90815490600082916005841161316e575b61311c935084612db8565b8061314557506000905b6001600160d01b03821615611dee576110609160016121929201611f90565b61316161315461316892611fe9565b8360005260206000200190565b5460301c90565b90613126565b919261317981612c84565b8103908111611d645761311c938560005265ffffffffffff80836020600020015416908516106000146131ad575091613111565b9291506131b990611d56565b90613111565b604051906131cc82610d83565b60006020838281520152565b906132016131fb613222926131eb6131bf565b506131f46131bf565b5084611f90565b506121bb565b91600165ffffffffffff845116936020828060d01b03910151169101611f90565b9054906040519261323284610d83565b835260031b1c602082015290565b908082101561324d575090565b905090565b8054600160401b811015610d9e5761326f91600182018155611f90565b61329a57815160209092015160301b65ffffffffffff191665ffffffffffff92909216919091179055565b634e487b7160e01b600052600060045260246000fd5b80549293929190821561339f576132cc61222b61315485611fe9565b906132dd825165ffffffffffff1690565b65ffffffffffff8481169116811061338d5761204f94602094889261330b6122b7875165ffffffffffff1690565b0361335557506133479261332161332e92611fe9565b9060005260206000200190565b9065ffffffffffff82549181199060301b169116179055565b01516001600160d01b031690565b91505061338891613375613367610e09565b65ffffffffffff9093168352565b6001600160d01b03881682860152613252565b613347565b604051632520601d60e01b8152600490fd5b6133c392506133af613367610e09565b6001600160d01b0385166020830152613252565b60009190565b60ff6000805160206134398339815191525460401c16156133e657565b604051631afcd79f60e31b8152600490fdfe02dd7bc7dec4dceedda775e58dd541e08a116c6c53815c0bd028192f7b6268009b779b17422d0df92223018b32b4d1fa46e071723d6817e2486d003becc55f00f0c57e16840df040f15088dc2f81fe391c3923bec73e23a9662efc9c229c6a00a2646970667358221220c09f2117e0c05edaa2f9d0c7715db4ee2be9b004fec675e901d2b200539bda8d64736f6c63430008190033","linkReferences":{}},"methodIdentifiers":{"DEFAULT_ADMIN_ROLE()":"a217fddf","FACTORY()":"2dd31000","FULL_RESTAKE_DELEGATOR_HINTS()":"e102831a","HOOK_GAS_LIMIT()":"ff54740f","HOOK_RESERVE()":"557cab44","HOOK_SET_ROLE()":"6679191e","NETWORK_REGISTRY()":"c0cd7c3e","NETWORK_RESTAKE_DELEGATOR_HINTS()":"075db036","OPERATOR_NETWORK_OPT_IN_SERVICE()":"1a80e500","OPERATOR_VAULT_OPT_IN_SERVICE()":"128e5d82","OPT_IN_SERVICE_HINTS()":"9b656b22","TYPE()":"bb24fe8a","VAULT_FACTORY()":"103f2907","VERSION()":"ffa1ad74","getRoleAdmin(bytes32)":"248a9ca3","grantRole(bytes32,address)":"2f2ff15d","hasRole(bytes32,address)":"91d14854","hook()":"7f5a7c7b","initialize(bytes)":"439fab91","maxNetworkLimit(bytes32)":"d15b740e","onSlash(bytes32,address,uint256,uint48,bytes)":"e49561ee","renounceRole(bytes32,address)":"36568abe","revokeRole(bytes32,address)":"d547741f","setHook(address)":"3dfd3873","setMaxNetworkLimit(uint96,uint256)":"23f752d5","stake(bytes32,address)":"fd4d447c","stakeAt(bytes32,address,uint48,bytes)":"e02f6937","stakeBaseHints(address,bytes32,address,uint48)":"1bf10a3e","stakeHints(address,bytes32,address,uint48)":"25dc9708","staticDelegateCall(address,bytes)":"9f86fd85","supportsInterface(bytes4)":"01ffc9a7","vault()":"fbfa77cf"},"id":78}