{"abi":[{"type":"constructor","inputs":[{"name":"baseDelegatorHints","type":"address","internalType":"address"},{"name":"vaultHints","type":"address","internalType":"address"},{"name":"optInServiceHints","type":"address","internalType":"address"}],"stateMutability":"nonpayable"},{"type":"function","name":"BASE_DELEGATOR_HINTS","inputs":[],"outputs":[{"name":"","type":"address","internalType":"address"}],"stateMutability":"view"},{"type":"function","name":"DEFAULT_ADMIN_ROLE","inputs":[],"outputs":[{"name":"","type":"bytes32","internalType":"bytes32"}],"stateMutability":"view"},{"type":"function","name":"FACTORY","inputs":[],"outputs":[{"name":"","type":"address","internalType":"address"}],"stateMutability":"view"},{"type":"function","name":"HOOK_GAS_LIMIT","inputs":[],"outputs":[{"name":"","type":"uint256","internalType":"uint256"}],"stateMutability":"view"},{"type":"function","name":"HOOK_RESERVE","inputs":[],"outputs":[{"name":"","type":"uint256","internalType":"uint256"}],"stateMutability":"view"},{"type":"function","name":"HOOK_SET_ROLE","inputs":[],"outputs":[{"name":"","type":"bytes32","internalType":"bytes32"}],"stateMutability":"view"},{"type":"function","name":"NETWORK_LIMIT_SET_ROLE","inputs":[],"outputs":[{"name":"","type":"bytes32","internalType":"bytes32"}],"stateMutability":"view"},{"type":"function","name":"NETWORK_REGISTRY","inputs":[],"outputs":[{"name":"","type":"address","internalType":"address"}],"stateMutability":"view"},{"type":"function","name":"OPERATOR_NETWORK_LIMIT_SET_ROLE","inputs":[],"outputs":[{"name":"","type":"bytes32","internalType":"bytes32"}],"stateMutability":"view"},{"type":"function","name":"OPERATOR_NETWORK_OPT_IN_SERVICE","inputs":[],"outputs":[{"name":"","type":"address","internalType":"address"}],"stateMutability":"view"},{"type":"function","name":"OPERATOR_VAULT_OPT_IN_SERVICE","inputs":[],"outputs":[{"name":"","type":"address","internalType":"address"}],"stateMutability":"view"},{"type":"function","name":"OPT_IN_SERVICE_HINTS","inputs":[],"outputs":[{"name":"","type":"address","internalType":"address"}],"stateMutability":"view"},{"type":"function","name":"TYPE","inputs":[],"outputs":[{"name":"","type":"uint64","internalType":"uint64"}],"stateMutability":"view"},{"type":"function","name":"VAULT_FACTORY","inputs":[],"outputs":[{"name":"","type":"address","internalType":"address"}],"stateMutability":"view"},{"type":"function","name":"VAULT_HINTS","inputs":[],"outputs":[{"name":"","type":"address","internalType":"address"}],"stateMutability":"view"},{"type":"function","name":"VERSION","inputs":[],"outputs":[{"name":"","type":"uint64","internalType":"uint64"}],"stateMutability":"pure"},{"type":"function","name":"getRoleAdmin","inputs":[{"name":"role","type":"bytes32","internalType":"bytes32"}],"outputs":[{"name":"","type":"bytes32","internalType":"bytes32"}],"stateMutability":"view"},{"type":"function","name":"grantRole","inputs":[{"name":"role","type":"bytes32","internalType":"bytes32"},{"name":"account","type":"address","internalType":"address"}],"outputs":[],"stateMutability":"nonpayable"},{"type":"function","name":"hasRole","inputs":[{"name":"role","type":"bytes32","internalType":"bytes32"},{"name":"account","type":"address","internalType":"address"}],"outputs":[{"name":"","type":"bool","internalType":"bool"}],"stateMutability":"view"},{"type":"function","name":"hook","inputs":[],"outputs":[{"name":"","type":"address","internalType":"address"}],"stateMutability":"view"},{"type":"function","name":"initialize","inputs":[{"name":"data","type":"bytes","internalType":"bytes"}],"outputs":[],"stateMutability":"nonpayable"},{"type":"function","name":"maxNetworkLimit","inputs":[{"name":"subnetwork","type":"bytes32","internalType":"bytes32"}],"outputs":[{"name":"value","type":"uint256","internalType":"uint256"}],"stateMutability":"view"},{"type":"function","name":"networkLimit","inputs":[{"name":"subnetwork","type":"bytes32","internalType":"bytes32"}],"outputs":[{"name":"","type":"uint256","internalType":"uint256"}],"stateMutability":"view"},{"type":"function","name":"networkLimitAt","inputs":[{"name":"subnetwork","type":"bytes32","internalType":"bytes32"},{"name":"timestamp","type":"uint48","internalType":"uint48"},{"name":"hint","type":"bytes","internalType":"bytes"}],"outputs":[{"name":"","type":"uint256","internalType":"uint256"}],"stateMutability":"view"},{"type":"function","name":"networkLimitHint","inputs":[{"name":"delegator","type":"address","internalType":"address"},{"name":"subnetwork","type":"bytes32","internalType":"bytes32"},{"name":"timestamp","type":"uint48","internalType":"uint48"}],"outputs":[{"name":"","type":"bytes","internalType":"bytes"}],"stateMutability":"view"},{"type":"function","name":"networkLimitHintInternal","inputs":[{"name":"subnetwork","type":"bytes32","internalType":"bytes32"},{"name":"timestamp","type":"uint48","internalType":"uint48"}],"outputs":[{"name":"exists","type":"bool","internalType":"bool"},{"name":"hint","type":"uint32","internalType":"uint32"}],"stateMutability":"view"},{"type":"function","name":"onSlash","inputs":[{"name":"subnetwork","type":"bytes32","internalType":"bytes32"},{"name":"operator","type":"address","internalType":"address"},{"name":"amount","type":"uint256","internalType":"uint256"},{"name":"captureTimestamp","type":"uint48","internalType":"uint48"},{"name":"data","type":"bytes","internalType":"bytes"}],"outputs":[],"stateMutability":"nonpayable"},{"type":"function","name":"operatorNetworkLimit","inputs":[{"name":"subnetwork","type":"bytes32","internalType":"bytes32"},{"name":"operator","type":"address","internalType":"address"}],"outputs":[{"name":"","type":"uint256","internalType":"uint256"}],"stateMutability":"view"},{"type":"function","name":"operatorNetworkLimitAt","inputs":[{"name":"subnetwork","type":"bytes32","internalType":"bytes32"},{"name":"operator","type":"address","internalType":"address"},{"name":"timestamp","type":"uint48","internalType":"uint48"},{"name":"hint","type":"bytes","internalType":"bytes"}],"outputs":[{"name":"","type":"uint256","internalType":"uint256"}],"stateMutability":"view"},{"type":"function","name":"operatorNetworkLimitHint","inputs":[{"name":"delegator","type":"address","internalType":"address"},{"name":"subnetwork","type":"bytes32","internalType":"bytes32"},{"name":"operator","type":"address","internalType":"address"},{"name":"timestamp","type":"uint48","internalType":"uint48"}],"outputs":[{"name":"","type":"bytes","internalType":"bytes"}],"stateMutability":"view"},{"type":"function","name":"operatorNetworkLimitHintInternal","inputs":[{"name":"subnetwork","type":"bytes32","internalType":"bytes32"},{"name":"operator","type":"address","internalType":"address"},{"name":"timestamp","type":"uint48","internalType":"uint48"}],"outputs":[{"name":"exists","type":"bool","internalType":"bool"},{"name":"hint","type":"uint32","internalType":"uint32"}],"stateMutability":"view"},{"type":"function","name":"renounceRole","inputs":[{"name":"role","type":"bytes32","internalType":"bytes32"},{"name":"callerConfirmation","type":"address","internalType":"address"}],"outputs":[],"stateMutability":"nonpayable"},{"type":"function","name":"revokeRole","inputs":[{"name":"role","type":"bytes32","internalType":"bytes32"},{"name":"account","type":"address","internalType":"address"}],"outputs":[],"stateMutability":"nonpayable"},{"type":"function","name":"setHook","inputs":[{"name":"hook_","type":"address","internalType":"address"}],"outputs":[],"stateMutability":"nonpayable"},{"type":"function","name":"setMaxNetworkLimit","inputs":[{"name":"identifier","type":"uint96","internalType":"uint96"},{"name":"amount","type":"uint256","internalType":"uint256"}],"outputs":[],"stateMutability":"nonpayable"},{"type":"function","name":"setNetworkLimit","inputs":[{"name":"subnetwork","type":"bytes32","internalType":"bytes32"},{"name":"amount","type":"uint256","internalType":"uint256"}],"outputs":[],"stateMutability":"nonpayable"},{"type":"function","name":"setOperatorNetworkLimit","inputs":[{"name":"subnetwork","type":"bytes32","internalType":"bytes32"},{"name":"operator","type":"address","internalType":"address"},{"name":"amount","type":"uint256","internalType":"uint256"}],"outputs":[],"stateMutability":"nonpayable"},{"type":"function","name":"stake","inputs":[{"name":"subnetwork","type":"bytes32","internalType":"bytes32"},{"name":"operator","type":"address","internalType":"address"}],"outputs":[{"name":"","type":"uint256","internalType":"uint256"}],"stateMutability":"view"},{"type":"function","name":"stakeAt","inputs":[{"name":"subnetwork","type":"bytes32","internalType":"bytes32"},{"name":"operator","type":"address","internalType":"address"},{"name":"timestamp","type":"uint48","internalType":"uint48"},{"name":"hints","type":"bytes","internalType":"bytes"}],"outputs":[{"name":"","type":"uint256","internalType":"uint256"}],"stateMutability":"view"},{"type":"function","name":"stakeHints","inputs":[{"name":"delegator","type":"address","internalType":"address"},{"name":"subnetwork","type":"bytes32","internalType":"bytes32"},{"name":"operator","type":"address","internalType":"address"},{"name":"timestamp","type":"uint48","internalType":"uint48"}],"outputs":[{"name":"","type":"bytes","internalType":"bytes"}],"stateMutability":"view"},{"type":"function","name":"staticDelegateCall","inputs":[{"name":"target","type":"address","internalType":"address"},{"name":"data","type":"bytes","internalType":"bytes"}],"outputs":[],"stateMutability":"nonpayable"},{"type":"function","name":"supportsInterface","inputs":[{"name":"interfaceId","type":"bytes4","internalType":"bytes4"}],"outputs":[{"name":"","type":"bool","internalType":"bool"}],"stateMutability":"view"},{"type":"function","name":"vault","inputs":[],"outputs":[{"name":"","type":"address","internalType":"address"}],"stateMutability":"view"},{"type":"event","name":"Initialized","inputs":[{"name":"version","type":"uint64","indexed":false,"internalType":"uint64"}],"anonymous":false},{"type":"event","name":"OnSlash","inputs":[{"name":"subnetwork","type":"bytes32","indexed":true,"internalType":"bytes32"},{"name":"operator","type":"address","indexed":true,"internalType":"address"},{"name":"amount","type":"uint256","indexed":false,"internalType":"uint256"},{"name":"captureTimestamp","type":"uint48","indexed":false,"internalType":"uint48"}],"anonymous":false},{"type":"event","name":"RoleAdminChanged","inputs":[{"name":"role","type":"bytes32","indexed":true,"internalType":"bytes32"},{"name":"previousAdminRole","type":"bytes32","indexed":true,"internalType":"bytes32"},{"name":"newAdminRole","type":"bytes32","indexed":true,"internalType":"bytes32"}],"anonymous":false},{"type":"event","name":"RoleGranted","inputs":[{"name":"role","type":"bytes32","indexed":true,"internalType":"bytes32"},{"name":"account","type":"address","indexed":true,"internalType":"address"},{"name":"sender","type":"address","indexed":true,"internalType":"address"}],"anonymous":false},{"type":"event","name":"RoleRevoked","inputs":[{"name":"role","type":"bytes32","indexed":true,"internalType":"bytes32"},{"name":"account","type":"address","indexed":true,"internalType":"address"},{"name":"sender","type":"address","indexed":true,"internalType":"address"}],"anonymous":false},{"type":"event","name":"SetHook","inputs":[{"name":"hook","type":"address","indexed":true,"internalType":"address"}],"anonymous":false},{"type":"event","name":"SetMaxNetworkLimit","inputs":[{"name":"subnetwork","type":"bytes32","indexed":true,"internalType":"bytes32"},{"name":"amount","type":"uint256","indexed":false,"internalType":"uint256"}],"anonymous":false},{"type":"event","name":"SetNetworkLimit","inputs":[{"name":"subnetwork","type":"bytes32","indexed":true,"internalType":"bytes32"},{"name":"amount","type":"uint256","indexed":false,"internalType":"uint256"}],"anonymous":false},{"type":"event","name":"SetOperatorNetworkLimit","inputs":[{"name":"subnetwork","type":"bytes32","indexed":true,"internalType":"bytes32"},{"name":"operator","type":"address","indexed":true,"internalType":"address"},{"name":"amount","type":"uint256","indexed":false,"internalType":"uint256"}],"anonymous":false},{"type":"error","name":"AccessControlBadConfirmation","inputs":[]},{"type":"error","name":"AccessControlUnauthorizedAccount","inputs":[{"name":"account","type":"address","internalType":"address"},{"name":"neededRole","type":"bytes32","internalType":"bytes32"}]},{"type":"error","name":"AlreadySet","inputs":[]},{"type":"error","name":"CheckpointUnorderedInsertion","inputs":[]},{"type":"error","name":"DuplicateRoleHolder","inputs":[]},{"type":"error","name":"ExceedsMaxNetworkLimit","inputs":[]},{"type":"error","name":"ExternalCall","inputs":[]},{"type":"error","name":"InsufficientHookGas","inputs":[]},{"type":"error","name":"InvalidInitialization","inputs":[]},{"type":"error","name":"MissingRoleHolders","inputs":[]},{"type":"error","name":"NotInitialized","inputs":[]},{"type":"error","name":"NotInitializing","inputs":[]},{"type":"error","name":"NotNetwork","inputs":[]},{"type":"error","name":"NotSlasher","inputs":[]},{"type":"error","name":"NotVault","inputs":[]},{"type":"error","name":"ReentrancyGuardReentrantCall","inputs":[]},{"type":"error","name":"SafeCastOverflowedUintDowncast","inputs":[{"name":"bits","type":"uint8","internalType":"uint8"},{"name":"value","type":"uint256","internalType":"uint256"}]},{"type":"error","name":"ZeroAddressRoleHolder","inputs":[]}],"bytecode":{"object":"0x6101c0346101c857601f61351f38819003918201601f19168301916001600160401b0391828411858510176101cc5781606092869260409687528339810103126101c85761004c836101e0565b926100648361005d602084016101e0565b92016101e0565b91306080527ff0c57e16840df040f15088dc2f81fe391c3923bec73e23a9662efc9c229c6a009081549060ff82871c166101b7578080831603610173575b5050505f60a0525f60c0525f60e052610100935f8552610120935f8552610140905f82526101609283526101809384526101a0948552519461332a96876101f58839608051878181610696015261148c015260a0518761092d015260c0518761114b015260e0518781816107a101526111840152518681816104e2015261266601525185818161064c01528181611be00152611d0f01525184818161071f01528181611b470152611d8d015251838181610ebc015261179a015251828181610c8f015261183b0152518161104f0152f35b6001600160401b0319909116811790915583519081527fc7f505b2f371ae2175ee4913f4499e1f2633a7b5936321eed1cdaeb6115181d290602090a15f80806100a2565b855163f92ee8a960e01b8152600490fd5b5f80fd5b634e487b7160e01b5f52604160045260245ffd5b51906001600160a01b03821682036101c85756fe60806040526004361015610011575f80fd5b5f3560e01c806301ffc9a7146102c4578063020cf0c2146102bf57806302145348146102ba578063103f2907146102b557806310a28b5d146102b057806311422095146102ab578063128e5d82146102a6578063197aa7ea146102a15780631a80e5001461029c57806323f752d514610297578063248a9ca31461029257806325dc97081461028d5780632dd31000146102885780632f2ff15d1461028357806336568abe1461027e5780633dfd3873146102795780633eb22c0f14610274578063439fab911461026f57806345e78fcb1461026a578063518504ba14610265578063557cab44146102605780635d32a1c91461025b5780636679191e1461025657806379d89614146102515780637d24bb271461024c5780637f5a7c7b1461024757806391d148541461024257806394d2558a1461023d5780639b656b22146102385780639f86fd8514610233578063a217fddf1461022e578063bb24fe8a14610229578063c0cd7c3e14610224578063d15b740e1461021f578063d547741f1461021a578063da749d2b14610215578063e02f693714610210578063e49561ee1461020b578063f7b0554714610206578063fbfa77cf14610201578063fd4d447c146101fc578063ff54740f146101f75763ffa1ad74146101f2575f80fd5b611557565b61153a565b611510565b6114e9565b611465565b61127a565b61125e565b611229565b6111dd565b6111b3565b61116f565b61112c565b611112565b61107e565b61103a565b610ffc565b610f4c565b610f24565b610eeb565b610ea7565b610e6d565b610e1c565b610cf8565b610cbe565b610c7a565b610b42565b610aec565b6109f3565b6109a8565b61095c565b610918565b6108fb565b6108c2565b61074e565b61070a565b61067b565b610637565b6105e8565b6105b3565b6104cd565b610410565b61032f565b3461031a57602036600319011261031a5760043563ffffffff60e01b811680910361031a57602090637965db0b60e01b8114908115610309575b506040519015158152f35b6301ffc9a760e01b1490505f6102fe565b5f80fd5b6001600160a01b0381160361031a57565b3461031a57606036600319011261031a5760243560043561034f8261031e565b6044359161035b611e02565b815f526004602052826103896103848360405f209060018060a01b03165f5260205260405f2090565b6120b3565b146103fe5760207ffc9545f07ffadfb668efd0144cdcaf2d6e2c8192dce1ea9fc131934f9c90fc7e91835f52600482526103e9856103da8360405f209060018060a01b03165f5260205260405f2090565b6103e342612b1e565b90611f58565b50506040519485526001600160a01b031693a3005b60405163a741a04560e01b8152600490fd5b3461031a5760408060031936011261031a576004359060243590610432611e5f565b825f526002602052805f205482116104bd57825f52600360205281610458825f206120b3565b146104ad57816104a8916104987e899d104fc3d8820bd96540612bcc5c448c8837b13b9f7faa43ad0728f0c14f946103da875f52600360205260405f2090565b5050519081529081906020820190565b0390a2005b5163a741a04560e01b8152600490fd5b51631eefc06360e31b8152600490fd5b3461031a575f36600319011261031a576040517f00000000000000000000000000000000000000000000000000000000000000006001600160a01b03168152602090f35b6024359065ffffffffffff8216820361031a57565b6044359065ffffffffffff8216820361031a57565b6064359065ffffffffffff8216820361031a57565b608090600319011261031a576004356105688161031e565b90602435906044356105798161031e565b9060643565ffffffffffff8116810361031a5790565b805180835260209291819084018484015e5f828201840152601f01601f1916010190565b3461031a576105e46105d06105c736610550565b929190916115b1565b60405191829160208352602083019061058f565b0390f35b3461031a57604036600319011261031a57602061062f61038460243561060d8161031e565b6004355f526004845260405f209060018060a01b03165f5260205260405f2090565b604051908152f35b3461031a575f36600319011261031a576040517f00000000000000000000000000000000000000000000000000000000000000006001600160a01b03168152602090f35b3461031a57604036600319011261031a57610694610511565b7f00000000000000000000000000000000000000000000000000000000000000006001600160a01b031633036106f8576106db906004355f52600360205260405f20612124565b60408051941515855263ffffffff91909116602085015292915050f35b604051637ca475e560e11b8152600490fd5b3461031a575f36600319011261031a576040517f00000000000000000000000000000000000000000000000000000000000000006001600160a01b03168152602090f35b3461031a57604036600319011261031a576004356001600160601b038116810361031a576024359061077e612229565b6040516302910f8b60e31b81523360048201526020816024816001600160a01b037f0000000000000000000000000000000000000000000000000000000000000000165afa9081156108bd575f9161088e575b501561087c576001600160601b03166bffffffffffffffffffffffff193360601b16179080610808835f52600260205260405f2090565b54146103fe57610861817fc67e7929681aa1bccd63f52b3799bf5805f3009f197db6fdf584b14f7fbf608c92610846855f52600260205260405f2090565b556108518185612258565b6040519081529081906020820190565b0390a261087a60015f805160206132b583398151915255565b005b6040516323d53b9760e21b8152600490fd5b6108b0915060203d6020116108b6575b6108a88183610d7e565b810190611649565b5f6107d1565b503d61089e565b61165d565b3461031a57602036600319011261031a576004355f525f805160206132958339815191526020526020600160405f200154604051908152f35b3461031a576105e46105d061090f36610550565b9291909161174e565b3461031a575f36600319011261031a576040517f00000000000000000000000000000000000000000000000000000000000000006001600160a01b03168152602090f35b3461031a57604036600319011261031a5761087a60243560043561097f8261031e565b805f525f805160206132958339815191526020526109a3600160405f200154611eb5565b612533565b3461031a57604036600319011261031a576024356109c58161031e565b336001600160a01b038216036109e15761087a90600435612569565b60405163334bd91960e11b8152600490fd5b3461031a57602036600319011261031a57600435610a108161031e565b610a18612229565b335f9081527f9ebbcbe0d2961d3fbe56ca6f679bc753bd848d3e6bb3eaf9041c51b286881d2c60205260409020547fd1c1f6fa6bf27d54c5e54c7c1dc6e5004d3c027ea1994fe68b29c1b51b69c36c9060ff1615610ace57506001546001600160a01b0391821691811682146103fe576001600160a01b03191681176001557f5bbb1d3ebb6a3ad2a0f17ff35e579a83af60604d1d3c2a4c83c62adecadf666d5f80a260015f805160206132b583398151915255005b6044906040519063e2517d3f60e01b82523360048301526024820152fd5b3461031a57602036600319011261031a576004355f526003602052602061062f60405f206120b3565b9181601f8401121561031a578235916001600160401b03831161031a576020838186019501011161031a57565b3461031a57602036600319011261031a576001600160401b0360043581811161031a57610b73903690600401610b15565b5f805160206132d5833981519152549260ff8460401c1615931680159081610c72575b6001149081610c68575b159081610c5f575b50610c4d575f805160206132d5833981519152805467ffffffffffffffff19166001179055610bdb9183610c2957612631565b610be157005b5f805160206132d5833981519152805460ff60401b19169055604051600181527fc7f505b2f371ae2175ee4913f4499e1f2633a7b5936321eed1cdaeb6115181d290602090a1005b5f805160206132d5833981519152805460ff60401b1916600160401b179055612631565b60405163f92ee8a960e01b8152600490fd5b9050155f610ba8565b303b159150610ba0565b849150610b96565b3461031a575f36600319011261031a576040517f00000000000000000000000000000000000000000000000000000000000000006001600160a01b03168152602090f35b3461031a575f36600319011261031a5760206040517f15e7c882d74e8821ebf34aaff46fd0e1d53b9393d91490019124113d28dc32a38152f35b3461031a575f36600319011261031a576020604051614e208152f35b634e487b7160e01b5f52604160045260245ffd5b604081019081106001600160401b03821117610d4357604052565b610d14565b606081019081106001600160401b03821117610d4357604052565b608081019081106001600160401b03821117610d4357604052565b90601f801991011681019081106001600160401b03821117610d4357604052565b60405190610dac82610d63565b565b60405190610dac82610d28565b6001600160401b038111610d4357601f01601f191660200190565b81601f8201121561031a57803590610ded82610dbb565b92610dfb6040519485610d7e565b8284526020838301011161031a57815f926020809301838601378301015290565b3461031a57606036600319011261031a57610e35610511565b6044356001600160401b03811161031a57602091610e5a61062f923690600401610dd6565b906004355f526003845260405f20612798565b3461031a575f36600319011261031a5760206040517fd1c1f6fa6bf27d54c5e54c7c1dc6e5004d3c027ea1994fe68b29c1b51b69c36c8152f35b3461031a575f36600319011261031a576040517f00000000000000000000000000000000000000000000000000000000000000006001600160a01b03168152602090f35b3461031a575f36600319011261031a5760206040517e8b9b1e5fa9cf3b14f87f435649268146305ddf689f082e5961a335b07a9abf8152f35b3461031a575f36600319011261031a576001546040516001600160a01b039091168152602090f35b3461031a57604036600319011261031a57602060ff610f9e602435610f708161031e565b6004355f525f80516020613295833981519152845260405f209060018060a01b03165f5260205260405f2090565b54166040519015158152f35b90608060031983011261031a5760043591602435610fc78161031e565b9160443565ffffffffffff8116810361031a5791606435906001600160401b03821161031a57610ff991600401610dd6565b90565b3461031a57602061062f61103561101236610faa565b939190925f526004865260405f209060018060a01b03165f5260205260405f2090565b612798565b3461031a575f36600319011261031a576040517f00000000000000000000000000000000000000000000000000000000000000006001600160a01b03168152602090f35b3461031a57604036600319011261031a5760043561109b8161031e565b6024356001600160401b03811161031a575f916110bd83923690600401610b15565b90816040519283928337810184815203915af461110a6110db6119a3565b916110fc60405193849215156020840152604080840152606083019061058f565b03601f198101835282610d7e565b805190602001fd5b3461031a575f36600319011261031a5760206040515f8152f35b3461031a575f36600319011261031a5760206040516001600160401b037f0000000000000000000000000000000000000000000000000000000000000000168152f35b3461031a575f36600319011261031a576040517f00000000000000000000000000000000000000000000000000000000000000006001600160a01b03168152602090f35b3461031a57602036600319011261031a576004355f526002602052602060405f2054604051908152f35b3461031a57604036600319011261031a5761087a6024356004356112008261031e565b805f525f80516020613295833981519152602052611224600160405f200154611eb5565b612569565b3461031a57606036600319011261031a576105e46105d060043561124c8161031e565b611254610526565b90602435906119d2565b3461031a57602061062f61127136610faa565b92919091611ad1565b3461031a5760a036600319011261031a5760243560043561129a8261031e565b604435916112a661053b565b90608435906001600160401b03821161031a576112c860049236908401610dd6565b6112d0612229565b5f546020906112f5906112e9906001600160a01b031681565b6001600160a01b031690565b60405163b134427160e01b815294859182905afa9283156108bd575f93611434575b506001600160a01b039283163303611422576001546001600160a01b0316838116611397575b50506040805195865265ffffffffffff909316602086015216927f741a5de99085c0d660f3e4192217b0ffb0ea4e35a0480de48e857a4bc3ee36ed91819081015b0390a361087a60015f805160206132b583398151915255565b9093604051946113ce866113c0602082019363724ab0f760e11b8552858c898d60248701611c5b565b03601f198101885287610d7e565b62042e305a10611410575f61137e938192827f741a5de99085c0d660f3e4192217b0ffb0ea4e35a0480de48e857a4bc3ee36ed9951926203d090f1509361133d565b604051638072475160e01b8152600490fd5b60405163dabc4ad960e01b8152600490fd5b61145791935060203d60201161145e575b61144f8183610d7e565b8101906116d3565b915f611317565b503d611445565b3461031a57606036600319011261031a576024356114828161031e565b61148a610526565b7f00000000000000000000000000000000000000000000000000000000000000006001600160a01b031633036106f8576114e46106db926004355f52600460205260405f209060018060a01b03165f5260205260405f2090565b612124565b3461031a575f36600319011261031a575f546040516001600160a01b039091168152602090f35b3461031a57604036600319011261031a57602061062f6024356115328161031e565b600435611cd8565b3461031a575f36600319011261031a5760206040516203d0908152f35b3461031a575f36600319011261031a57602060405160018152f35b5190811515820361031a57565b519063ffffffff8216820361031a57565b919082604091031261031a57610ff960206115aa84611572565b930161157f565b91939265ffffffffffff906060956040519363f7b0554760e01b6020860152602485015260018060a01b031660448401521660648201526064815260a08101908082106001600160401b03831117610d4357611622926116139260405261201a565b60208082518301019101611590565b9061162a5750565b90915063ffffffff6040519116602082015260208152610ff981610d28565b9081602091031261031a57610ff990611572565b6040513d5f823e3d90fd5b81601f8201121561031a5780519061167f82610dbb565b9261168d6040519485610d7e565b8284526020838301011161031a57815f9260208093018386015e8301015290565b9060208282031261031a5781516001600160401b03811161031a57610ff99201611668565b9081602091031261031a5751610ff98161031e565b90610ff9916020815261170782516080602084015260a083019061058f565b906080606061173e61172b602087015195601f19968787830301604088015261058f565b604087015186868303018487015261058f565b940151928285030191015261058f565b604051630df8851f60e11b81526001600160a01b03828116600483015260248201849052848116604483015265ffffffffffff8616606483015295606095909491939091905f856084817f00000000000000000000000000000000000000000000000000000000000000008c165afa9485156108bd575f95611945575b5060405163fbfa77cf60e01b8152602081600481888d165afa9081156108bd57611837995f9286928491611926575b5060405163192c0ff760e21b81526001600160a01b03909116600482015265ffffffffffff909216602483015290998a9190829081906044820190565b03917f0000000000000000000000000000000000000000000000000000000000000000165afa9788156108bd575f986118fa575b50908161187d846118839594876119d2565b946115b1565b908251158015906118f0575b80156118e6575b80156118dc575b6118a957505050909150565b6110fc9450610ff993956118bb610d9f565b938452602084015260408301526060820152604051928391602083016116e8565b508151151561189d565b5080511515611896565b508551151561188f565b611883939291985061191d903d805f833e6119158183610d7e565b8101906116ae565b9790919261186b565b61193f915060203d60201161145e5761144f8183610d7e565b5f6117fa565b61195a9195503d805f833e6119158183610d7e565b935f6117cb565b90610ff992915f52600360205260405f20612798565b5f9081526004602090815260408083206001600160a01b03909416835292905220610ff9929190612798565b3d156119cd573d906119b482610dbb565b916119c26040519384610d7e565b82523d5f602084013e565b606090565b611622916116139194939465ffffffffffff60609660405193630cbd53f560e11b6020860152602485015216604483015260448252611a1082610d63565b61201a565b60405190611a2282610d28565b60606020838281520152565b9060208282031261031a5781516001600160401b039283821161031a57019060408282031261031a5760405192611a6484610d28565b825181811161031a5782611a79918501611668565b8452602083015190811161031a57611a919201611668565b602082015290565b6001600160a01b0391821681529116602082015265ffffffffffff9091166040820152608060608201819052610ff99291019061058f565b92611ae190929192828486612973565b929093611aec611a15565b93805180611c3f575b50508415938415611ba9575b8415611b18575b50505050611b135790565b505f90565b602080949550611b43910151604051958694859463530e1d4360e01b865260601c9060048601611a99565b03817f00000000000000000000000000000000000000000000000000000000000000006001600160a01b03165afa9081156108bd575f91611b8a575b50155f808080611b08565b611ba3915060203d6020116108b6576108a88183610d7e565b5f611b7f565b5f549094506001600160a01b0316602084865192611bdc604051948593849363530e1d4360e01b85528960048601611a99565b03817f00000000000000000000000000000000000000000000000000000000000000006001600160a01b03165afa9081156108bd575f91611c20575b501593611b01565b611c39915060203d6020116108b6576108a88183610d7e565b5f611c18565b611c53929550602080918301019101611a2e565b925f80611af5565b919360a093610ff9969565ffffffffffff938552600180871b031660208501526040840152166060820152816080820152019061058f565b634e487b7160e01b5f52601160045260245ffd5b8115611cb1570490565b634e487b7160e01b5f52601260045260245ffd5b9060018201809211611cd357565b611c93565b5f546040516308834cb560e21b8082526001600160a01b0385811660048401529283166024830152929392602092909183816044817f000000000000000000000000000000000000000000000000000000000000000086165afa9081156108bd575f91611de5575b5015918215611d61575b50509050611d5b57610ff991612a6e565b50505f90565b6040519081526001600160a01b0385166004820152606086901c602482015291508290829060449082907f0000000000000000000000000000000000000000000000000000000000000000165afa9182156108bd575f92611dc8575b505015805f80611d4a565b611dde9250803d106108b6576108a88183610d7e565b5f80611dbd565b611dfc9150843d86116108b6576108a88183610d7e565b5f611d40565b335f9081527f24e48de785eeca8420b70f73d267a66970ccc187d459f2a4b53e74ed92a5ab86602052604090207f15e7c882d74e8821ebf34aaff46fd0e1d53b9393d91490019124113d28dc32a39060ff905b541615610ace5750565b335f9081527f72a65082a5691803ab2b62c9bc729b34205ba1b183d950896526b2fd8714d0c7602052604090207e8b9b1e5fa9cf3b14f87f435649268146305ddf689f082e5961a335b07a9abf9060ff90611e55565b5f8181525f8051602061329583398151915260209081526040808320338452909152902060ff90611e55565b634e487b7160e01b5f52603260045260245ffd5b8054821015611f0a575f5260205f2001905f90565b611ee1565b90815491600160401b831015610d435782611f32916001610dac95018155611ef5565b90919082549060031b91821b915f19901b1916179055565b5f19810191908211611cd357565b90929192600182019081548015611fea575b5084611f7584612b50565b50949092845493611f85836120b3565b9681611fd5575b5015611fb2575050505f198101908111611cd357611f328591611fae93611ef5565b9190565b611fae949293611fce926001600160d01b039091169190613189565b5050611f0f565b65ffffffffffff83811691161490505f611f8c565b600160401b811015610d43578060016120069201845583611ef5565b8154905f199060031b1b191690555f611f6a565b5f9190829160405161204f816110fc6020820194639f86fd8560e01b865230602484015260406044840152606483019061058f565b51915afa5061205c6119a3565b8051810160408282031261031a5761207660208301611572565b916040810151916001600160401b03831161031a5761209c926020809201920101611668565b90156120a55790565b805190811561031a57602001fd5b8054806120e257505f5b6001600160d01b03811615611d5b5760016120d89201611ef5565b90549060031b1c90565b5f19908082810111611cd357825f5260205f2001015460301c6120bd565b9060405161210d81610d28565b915465ffffffffffff8116835260301c6020830152565b91908254905f8291600584116121c2575b612140935085612cb4565b9081156121b6576121af6121a66121a06120d861217261216d61216288611f4a565b895f5260205f200190565b612100565b966001612199602061218a8b5165ffffffffffff1690565b9a01516001600160d01b031690565b9101611ef5565b93611f4a565b63ffffffff1690565b6001939291565b5f925082915081908190565b91926121cd81612b89565b8103908111611cd35761214093865f526122016121f68360205f200165ffffffffffff90541690565b65ffffffffffff1690565b65ffffffffffff85161015612217575091612135565b92915061222390611cc5565b90612135565b5f805160206132b583398151915260028154146122465760029055565b604051633ee5aeb560e01b8152600490fd5b90815f52600360205260405f208161226f82612b50565b9193905083156122cd5761228f916001600160d01b031690600101611ef5565b90549060031b1c5b826122c3575b50506122a7575050565b6122bf915f52600360205260405f206103e342612b1e565b5050565b119050815f61229d565b50505f612297565b6001600160a01b0381165f9081527fb7db2dd08fcb62d0c9e08c51941cae53c267786a0b75803fb7960902fc8ef97d60205260409020545f805160206132958339815191529060ff16611d5b575f808052602091825260408082206001600160a01b038516835290925220805460ff1916600117905533906001600160a01b03165f7f2f8788117e7eff1d82e926ec794901d17c78024a50270940304540a733656f0d8180a4600190565b6001600160a01b0381165f9081527f9ebbcbe0d2961d3fbe56ca6f679bc753bd848d3e6bb3eaf9041c51b286881d2c602052604090207fd1c1f6fa6bf27d54c5e54c7c1dc6e5004d3c027ea1994fe68b29c1b51b69c36c905f805160206132958339815191529060ff905b541661244f575f828152602091825260408082206001600160a01b038616835290925220805460ff1916600117905533916001600160a01b0316907f2f8788117e7eff1d82e926ec794901d17c78024a50270940304540a733656f0d5f80a4600190565b5050505f90565b6001600160a01b0381165f9081527f72a65082a5691803ab2b62c9bc729b34205ba1b183d950896526b2fd8714d0c7602052604090207e8b9b1e5fa9cf3b14f87f435649268146305ddf689f082e5961a335b07a9abf905f805160206132958339815191529060ff906123eb565b6001600160a01b0381165f9081527f24e48de785eeca8420b70f73d267a66970ccc187d459f2a4b53e74ed92a5ab86602052604090207f15e7c882d74e8821ebf34aaff46fd0e1d53b9393d91490019124113d28dc32a3905f805160206132958339815191529060ff906123eb565b5f8181525f80516020613295833981519152602081815260408084206001600160a01b038716855290915290912060ff906123eb565b5f8181525f80516020613295833981519152602081815260408084206001600160a01b03871685529091529091205460ff161561244f575f828152602091825260408082206001600160a01b038616835290925220805460ff1916905533916001600160a01b0316907ff6391f5c32d9c69d2a47ea670b442974b53935d1edc7fd64eb21e047a839171b5f80a4600190565b91909160408184031261031a5780356126138161031e565b9260208201356001600160401b03811161031a57610ff99201610dd6565b61263d918101906125fb565b6040516302910f8b60e31b81526001600160a01b039283166004820181905291906020816024817f000000000000000000000000000000000000000000000000000000000000000088165afa9081156108bd575f91612750575b501561273e576126d26040916126cd612718946126b2612d16565b60018060a01b03166001600160601b0360a01b5f5416175f55565b612e96565b6020810151600180546001600160a01b0319166001600160a01b0390921691909117905580516001600160a01b031684811661272e575b5001516001600160a01b031690565b9081166127225750565b61272b90612380565b50565b612737906122d5565b505f612709565b6040516362df054560e01b8152600490fd5b612769915060203d6020116108b6576108a88183610d7e565b5f612697565b9081602091031261031a57610ff99061157f565b90600163ffffffff80931601918211611cd357565b9180511561286657806020806127b39351830101910161276f565b916127be83826130c6565b926127cf845165ffffffffffff1690565b9065ffffffffffff808516921682811461285a5782119182612805575b50506127fc57610ff99250612ff6565b50506020015190565b9091506128128354611f4a565b63ffffffff83161491821561282b575b50505f806127ec565b6128529192506128466128406121f692612783565b856130c6565b5165ffffffffffff1690565b115f80612822565b50505050506020015190565b50610ff991612ff6565b60405190608082018281106001600160401b03821117610d4357604052606080838181528160208201528160408201520152565b9060208282031261031a5781516001600160401b039283821161031a57019060808282031261031a576128d5610d9f565b92825181811161031a57826128eb918501611668565b8452602083015181811161031a5782612905918501611668565b6020850152604083015181811161031a5782612922918501611668565b6040850152606083015190811161031a5761293d9201611668565b606082015290565b9081602091031261031a575190565b60409065ffffffffffff610ff99493168152816020820152019061058f565b9391909361297f612870565b93805180612a4e575b50506129c992939460206129a86112e96112e95f5460018060a01b031690565b8188015190604051808098819463810da75d60e01b83528960048401612954565b03915afa9182156108bd57612a10945f93612a15575b50612a0490612a0493946129f860408a01518284611961565b9360608a015192611977565b90818082109118021890565b915190565b612a04935090612a3f612a049260203d602011612a47575b612a378183610d7e565b810190612945565b9350906129df565b503d612a2d565b6129c994955090602080612a669383010191016128a4565b93925f612988565b5f5460405163bd49c35f60e01b81529290602090849060049082906001600160a01b03165afa9283156108bd575f93612af5575b50610384612ae091612abf610384855f52600360205260405f2090565b935f52600460205260405f209060018060a01b03165f5260205260405f2090565b90818082109118021890818082109118021890565b612ae0919350612b166103849160203d602011612a4757612a378183610d7e565b939150612aa2565b65ffffffffffff90818111612b31571690565b604490604051906306dfcc6560e41b8252603060048301526024820152fd5b805480612b615750505f905f905f90565b5f19918183810111611cd3575f5260205f2001015460019165ffffffffffff82169160301c90565b6001811115610ff957600181600160801b811015612ca2575b612c4a612c40612c36612c2c612c22612c18612c5697600488600160401b612c519a1015612c95575b640100000000811015612c88575b62010000811015612c7b575b610100811015612c6f575b6010811015612c63575b1015612c5b575b60030260011c612c11818b611ca7565b0160011c90565b612c11818a611ca7565b612c118189611ca7565b612c118188611ca7565b612c118187611ca7565b612c118186611ca7565b8093611ca7565b821190565b900390565b60011b612c01565b811c9160021b91612bfa565b60081c91811b91612bf0565b60101c9160081b91612be5565b60201c9160101b91612bd9565b60401c9160201b91612bcb565b50600160401b9050608082901c612ba2565b91905b838210612cc45750505090565b909192808316906001818518811c8301809311611cd357855f5265ffffffffffff808460205f20015416908516105f14612d03575050925b9190612cb7565b909493508101809111611cd35791612cfc565b612d1e613266565b612d26613266565b60015f805160206132b583398151915255565b60405190612d4682610d48565b5f6040838281528260208201520152565b81601f8201121561031a578051916020916001600160401b038411610d43578360051b9060405194612d8b85840187610d7e565b8552838086019282010192831161031a578301905b828210612dae575050505090565b8380918351612dbc8161031e565b815201910190612da0565b9060208282031261031a5781516001600160401b039283821161031a5701908181039260a0841261031a57606060405194612e0186610d48565b1261031a57604051612e1281610d48565b8351612e1d8161031e565b81526020840151612e2d8161031e565b60208201526040840151612e408161031e565b60408201528452606083015181811161031a5782612e5f918501612d57565b6020850152608083015190811161031a57612e7a9201612d57565b604082015290565b8051821015611f0a5760209160051b010190565b612eb290612ea2612d39565b5060208082518301019101612dc7565b8051519091906001600160a01b03161580612fdc575b612fca579060208101905f5b82518051821015612f4e576112e9612eef83612efc93612e82565b516001600160a01b031690565b15612f3c57612f1e612f1a612f15612eef848751612e82565b612456565b1590565b612f2a57600101612ed4565b604051635140fefd60e11b8152600490fd5b6040516323cda06760e01b8152600490fd5b506040925050818101905f5b82518051821015612fc1576112e9612eef83612f7593612e82565b15612fb057612f93612f1a612f8e612eef848751612e82565b6124c4565b612f9f57600101612f5a565b8351635140fefd60e11b8152600490fd5b83516323cda06760e01b8152600490fd5b50509150505190565b6040516303501f5960e11b8152600490fd5b506020820151511580612ec8575060408201515115612ec8565b908154905f829160058411613060575b613011935084612cb4565b8061303957505f905b6001600160d01b03821615611d5b57610ff99160016120d89201611ef5565b61305361304861305a92611f4a565b835f5260205f200190565b5460301c90565b9061301a565b919261306b81612b89565b8103908111611cd35761301193855f5265ffffffffffff808360205f20015416908516105f1461309c575091613006565b9291506130a890611cc5565b90613006565b604051906130bb82610d28565b5f6020838281520152565b906130ef6130e9613110926130d96130ae565b506130e26130ae565b5084611ef5565b50612100565b91600165ffffffffffff845116936020828060d01b03910151169101611ef5565b9054906040519261312084610d28565b835260031b1c602082015290565b8054600160401b811015610d435761314b91600182018155611ef5565b61317657815160209092015160301b65ffffffffffff191665ffffffffffff92909216919091179055565b634e487b7160e01b5f525f60045260245ffd5b8054929392801561323c576131a06131ab91611f4a565b825f5260205f200190565b9182549265ffffffffffff9182851692811680841161322a578793036131f157506131ea92509065ffffffffffff82549181199060301b169116179055565b60301c9190565b91505061322591613211613203610dae565b65ffffffffffff9093168352565b6001600160d01b038616602083015261312e565b6131ea565b604051632520601d60e01b8152600490fd5b50906132619161324d613203610dae565b6001600160d01b038516602083015261312e565b5f9190565b60ff5f805160206132d58339815191525460401c161561328257565b604051631afcd79f60e31b8152600490fdfe02dd7bc7dec4dceedda775e58dd541e08a116c6c53815c0bd028192f7b6268009b779b17422d0df92223018b32b4d1fa46e071723d6817e2486d003becc55f00f0c57e16840df040f15088dc2f81fe391c3923bec73e23a9662efc9c229c6a00a2646970667358221220a7ecdea8d9b7feed4e2f0435b6284fc7fc6b2d0b98165e4c0e462e7440ce901364736f6c63430008190033","linkReferences":{}},"methodIdentifiers":{"BASE_DELEGATOR_HINTS()":"79d89614","DEFAULT_ADMIN_ROLE()":"a217fddf","FACTORY()":"2dd31000","HOOK_GAS_LIMIT()":"ff54740f","HOOK_RESERVE()":"557cab44","HOOK_SET_ROLE()":"6679191e","NETWORK_LIMIT_SET_ROLE()":"7d24bb27","NETWORK_REGISTRY()":"c0cd7c3e","OPERATOR_NETWORK_LIMIT_SET_ROLE()":"518504ba","OPERATOR_NETWORK_OPT_IN_SERVICE()":"1a80e500","OPERATOR_VAULT_OPT_IN_SERVICE()":"128e5d82","OPT_IN_SERVICE_HINTS()":"9b656b22","TYPE()":"bb24fe8a","VAULT_FACTORY()":"103f2907","VAULT_HINTS()":"45e78fcb","VERSION()":"ffa1ad74","getRoleAdmin(bytes32)":"248a9ca3","grantRole(bytes32,address)":"2f2ff15d","hasRole(bytes32,address)":"91d14854","hook()":"7f5a7c7b","initialize(bytes)":"439fab91","maxNetworkLimit(bytes32)":"d15b740e","networkLimit(bytes32)":"3eb22c0f","networkLimitAt(bytes32,uint48,bytes)":"5d32a1c9","networkLimitHint(address,bytes32,uint48)":"da749d2b","networkLimitHintInternal(bytes32,uint48)":"197aa7ea","onSlash(bytes32,address,uint256,uint48,bytes)":"e49561ee","operatorNetworkLimit(bytes32,address)":"11422095","operatorNetworkLimitAt(bytes32,address,uint48,bytes)":"94d2558a","operatorNetworkLimitHint(address,bytes32,address,uint48)":"10a28b5d","operatorNetworkLimitHintInternal(bytes32,address,uint48)":"f7b05547","renounceRole(bytes32,address)":"36568abe","revokeRole(bytes32,address)":"d547741f","setHook(address)":"3dfd3873","setMaxNetworkLimit(uint96,uint256)":"23f752d5","setNetworkLimit(bytes32,uint256)":"02145348","setOperatorNetworkLimit(bytes32,address,uint256)":"020cf0c2","stake(bytes32,address)":"fd4d447c","stakeAt(bytes32,address,uint48,bytes)":"e02f6937","stakeHints(address,bytes32,address,uint48)":"25dc9708","staticDelegateCall(address,bytes)":"9f86fd85","supportsInterface(bytes4)":"01ffc9a7","vault()":"fbfa77cf"},"id":94}