{"abi":[{"type":"constructor","inputs":[{"name":"baseDelegatorHints","type":"address","internalType":"address"},{"name":"vaultHints","type":"address","internalType":"address"},{"name":"optInServiceHints","type":"address","internalType":"address"}],"stateMutability":"nonpayable"},{"type":"function","name":"BASE_DELEGATOR_HINTS","inputs":[],"outputs":[{"name":"","type":"address","internalType":"address"}],"stateMutability":"view"},{"type":"function","name":"DEFAULT_ADMIN_ROLE","inputs":[],"outputs":[{"name":"","type":"bytes32","internalType":"bytes32"}],"stateMutability":"view"},{"type":"function","name":"FACTORY","inputs":[],"outputs":[{"name":"","type":"address","internalType":"address"}],"stateMutability":"view"},{"type":"function","name":"HOOK_GAS_LIMIT","inputs":[],"outputs":[{"name":"","type":"uint256","internalType":"uint256"}],"stateMutability":"view"},{"type":"function","name":"HOOK_RESERVE","inputs":[],"outputs":[{"name":"","type":"uint256","internalType":"uint256"}],"stateMutability":"view"},{"type":"function","name":"HOOK_SET_ROLE","inputs":[],"outputs":[{"name":"","type":"bytes32","internalType":"bytes32"}],"stateMutability":"view"},{"type":"function","name":"NETWORK_LIMIT_SET_ROLE","inputs":[],"outputs":[{"name":"","type":"bytes32","internalType":"bytes32"}],"stateMutability":"view"},{"type":"function","name":"NETWORK_REGISTRY","inputs":[],"outputs":[{"name":"","type":"address","internalType":"address"}],"stateMutability":"view"},{"type":"function","name":"OPERATOR_NETWORK_LIMIT_SET_ROLE","inputs":[],"outputs":[{"name":"","type":"bytes32","internalType":"bytes32"}],"stateMutability":"view"},{"type":"function","name":"OPERATOR_NETWORK_OPT_IN_SERVICE","inputs":[],"outputs":[{"name":"","type":"address","internalType":"address"}],"stateMutability":"view"},{"type":"function","name":"OPERATOR_VAULT_OPT_IN_SERVICE","inputs":[],"outputs":[{"name":"","type":"address","internalType":"address"}],"stateMutability":"view"},{"type":"function","name":"OPT_IN_SERVICE_HINTS","inputs":[],"outputs":[{"name":"","type":"address","internalType":"address"}],"stateMutability":"view"},{"type":"function","name":"TYPE","inputs":[],"outputs":[{"name":"","type":"uint64","internalType":"uint64"}],"stateMutability":"view"},{"type":"function","name":"VAULT_FACTORY","inputs":[],"outputs":[{"name":"","type":"address","internalType":"address"}],"stateMutability":"view"},{"type":"function","name":"VAULT_HINTS","inputs":[],"outputs":[{"name":"","type":"address","internalType":"address"}],"stateMutability":"view"},{"type":"function","name":"VERSION","inputs":[],"outputs":[{"name":"","type":"uint64","internalType":"uint64"}],"stateMutability":"pure"},{"type":"function","name":"getRoleAdmin","inputs":[{"name":"role","type":"bytes32","internalType":"bytes32"}],"outputs":[{"name":"","type":"bytes32","internalType":"bytes32"}],"stateMutability":"view"},{"type":"function","name":"grantRole","inputs":[{"name":"role","type":"bytes32","internalType":"bytes32"},{"name":"account","type":"address","internalType":"address"}],"outputs":[],"stateMutability":"nonpayable"},{"type":"function","name":"hasRole","inputs":[{"name":"role","type":"bytes32","internalType":"bytes32"},{"name":"account","type":"address","internalType":"address"}],"outputs":[{"name":"","type":"bool","internalType":"bool"}],"stateMutability":"view"},{"type":"function","name":"hook","inputs":[],"outputs":[{"name":"","type":"address","internalType":"address"}],"stateMutability":"view"},{"type":"function","name":"initialize","inputs":[{"name":"data","type":"bytes","internalType":"bytes"}],"outputs":[],"stateMutability":"nonpayable"},{"type":"function","name":"maxNetworkLimit","inputs":[{"name":"subnetwork","type":"bytes32","internalType":"bytes32"}],"outputs":[{"name":"value","type":"uint256","internalType":"uint256"}],"stateMutability":"view"},{"type":"function","name":"networkLimit","inputs":[{"name":"subnetwork","type":"bytes32","internalType":"bytes32"}],"outputs":[{"name":"","type":"uint256","internalType":"uint256"}],"stateMutability":"view"},{"type":"function","name":"networkLimitAt","inputs":[{"name":"subnetwork","type":"bytes32","internalType":"bytes32"},{"name":"timestamp","type":"uint48","internalType":"uint48"},{"name":"hint","type":"bytes","internalType":"bytes"}],"outputs":[{"name":"","type":"uint256","internalType":"uint256"}],"stateMutability":"view"},{"type":"function","name":"networkLimitHint","inputs":[{"name":"delegator","type":"address","internalType":"address"},{"name":"subnetwork","type":"bytes32","internalType":"bytes32"},{"name":"timestamp","type":"uint48","internalType":"uint48"}],"outputs":[{"name":"","type":"bytes","internalType":"bytes"}],"stateMutability":"view"},{"type":"function","name":"networkLimitHintInternal","inputs":[{"name":"subnetwork","type":"bytes32","internalType":"bytes32"},{"name":"timestamp","type":"uint48","internalType":"uint48"}],"outputs":[{"name":"exists","type":"bool","internalType":"bool"},{"name":"hint","type":"uint32","internalType":"uint32"}],"stateMutability":"view"},{"type":"function","name":"onSlash","inputs":[{"name":"subnetwork","type":"bytes32","internalType":"bytes32"},{"name":"operator","type":"address","internalType":"address"},{"name":"amount","type":"uint256","internalType":"uint256"},{"name":"captureTimestamp","type":"uint48","internalType":"uint48"},{"name":"data","type":"bytes","internalType":"bytes"}],"outputs":[],"stateMutability":"nonpayable"},{"type":"function","name":"operatorNetworkLimit","inputs":[{"name":"subnetwork","type":"bytes32","internalType":"bytes32"},{"name":"operator","type":"address","internalType":"address"}],"outputs":[{"name":"","type":"uint256","internalType":"uint256"}],"stateMutability":"view"},{"type":"function","name":"operatorNetworkLimitAt","inputs":[{"name":"subnetwork","type":"bytes32","internalType":"bytes32"},{"name":"operator","type":"address","internalType":"address"},{"name":"timestamp","type":"uint48","internalType":"uint48"},{"name":"hint","type":"bytes","internalType":"bytes"}],"outputs":[{"name":"","type":"uint256","internalType":"uint256"}],"stateMutability":"view"},{"type":"function","name":"operatorNetworkLimitHint","inputs":[{"name":"delegator","type":"address","internalType":"address"},{"name":"subnetwork","type":"bytes32","internalType":"bytes32"},{"name":"operator","type":"address","internalType":"address"},{"name":"timestamp","type":"uint48","internalType":"uint48"}],"outputs":[{"name":"","type":"bytes","internalType":"bytes"}],"stateMutability":"view"},{"type":"function","name":"operatorNetworkLimitHintInternal","inputs":[{"name":"subnetwork","type":"bytes32","internalType":"bytes32"},{"name":"operator","type":"address","internalType":"address"},{"name":"timestamp","type":"uint48","internalType":"uint48"}],"outputs":[{"name":"exists","type":"bool","internalType":"bool"},{"name":"hint","type":"uint32","internalType":"uint32"}],"stateMutability":"view"},{"type":"function","name":"renounceRole","inputs":[{"name":"role","type":"bytes32","internalType":"bytes32"},{"name":"callerConfirmation","type":"address","internalType":"address"}],"outputs":[],"stateMutability":"nonpayable"},{"type":"function","name":"revokeRole","inputs":[{"name":"role","type":"bytes32","internalType":"bytes32"},{"name":"account","type":"address","internalType":"address"}],"outputs":[],"stateMutability":"nonpayable"},{"type":"function","name":"setHook","inputs":[{"name":"hook_","type":"address","internalType":"address"}],"outputs":[],"stateMutability":"nonpayable"},{"type":"function","name":"setMaxNetworkLimit","inputs":[{"name":"identifier","type":"uint96","internalType":"uint96"},{"name":"amount","type":"uint256","internalType":"uint256"}],"outputs":[],"stateMutability":"nonpayable"},{"type":"function","name":"setNetworkLimit","inputs":[{"name":"subnetwork","type":"bytes32","internalType":"bytes32"},{"name":"amount","type":"uint256","internalType":"uint256"}],"outputs":[],"stateMutability":"nonpayable"},{"type":"function","name":"setOperatorNetworkLimit","inputs":[{"name":"subnetwork","type":"bytes32","internalType":"bytes32"},{"name":"operator","type":"address","internalType":"address"},{"name":"amount","type":"uint256","internalType":"uint256"}],"outputs":[],"stateMutability":"nonpayable"},{"type":"function","name":"stake","inputs":[{"name":"subnetwork","type":"bytes32","internalType":"bytes32"},{"name":"operator","type":"address","internalType":"address"}],"outputs":[{"name":"","type":"uint256","internalType":"uint256"}],"stateMutability":"view"},{"type":"function","name":"stakeAt","inputs":[{"name":"subnetwork","type":"bytes32","internalType":"bytes32"},{"name":"operator","type":"address","internalType":"address"},{"name":"timestamp","type":"uint48","internalType":"uint48"},{"name":"hints","type":"bytes","internalType":"bytes"}],"outputs":[{"name":"","type":"uint256","internalType":"uint256"}],"stateMutability":"view"},{"type":"function","name":"stakeHints","inputs":[{"name":"delegator","type":"address","internalType":"address"},{"name":"subnetwork","type":"bytes32","internalType":"bytes32"},{"name":"operator","type":"address","internalType":"address"},{"name":"timestamp","type":"uint48","internalType":"uint48"}],"outputs":[{"name":"","type":"bytes","internalType":"bytes"}],"stateMutability":"view"},{"type":"function","name":"staticDelegateCall","inputs":[{"name":"target","type":"address","internalType":"address"},{"name":"data","type":"bytes","internalType":"bytes"}],"outputs":[],"stateMutability":"nonpayable"},{"type":"function","name":"supportsInterface","inputs":[{"name":"interfaceId","type":"bytes4","internalType":"bytes4"}],"outputs":[{"name":"","type":"bool","internalType":"bool"}],"stateMutability":"view"},{"type":"function","name":"vault","inputs":[],"outputs":[{"name":"","type":"address","internalType":"address"}],"stateMutability":"view"},{"type":"event","name":"Initialized","inputs":[{"name":"version","type":"uint64","indexed":false,"internalType":"uint64"}],"anonymous":false},{"type":"event","name":"OnSlash","inputs":[{"name":"subnetwork","type":"bytes32","indexed":true,"internalType":"bytes32"},{"name":"operator","type":"address","indexed":true,"internalType":"address"},{"name":"amount","type":"uint256","indexed":false,"internalType":"uint256"},{"name":"captureTimestamp","type":"uint48","indexed":false,"internalType":"uint48"}],"anonymous":false},{"type":"event","name":"RoleAdminChanged","inputs":[{"name":"role","type":"bytes32","indexed":true,"internalType":"bytes32"},{"name":"previousAdminRole","type":"bytes32","indexed":true,"internalType":"bytes32"},{"name":"newAdminRole","type":"bytes32","indexed":true,"internalType":"bytes32"}],"anonymous":false},{"type":"event","name":"RoleGranted","inputs":[{"name":"role","type":"bytes32","indexed":true,"internalType":"bytes32"},{"name":"account","type":"address","indexed":true,"internalType":"address"},{"name":"sender","type":"address","indexed":true,"internalType":"address"}],"anonymous":false},{"type":"event","name":"RoleRevoked","inputs":[{"name":"role","type":"bytes32","indexed":true,"internalType":"bytes32"},{"name":"account","type":"address","indexed":true,"internalType":"address"},{"name":"sender","type":"address","indexed":true,"internalType":"address"}],"anonymous":false},{"type":"event","name":"SetHook","inputs":[{"name":"hook","type":"address","indexed":true,"internalType":"address"}],"anonymous":false},{"type":"event","name":"SetMaxNetworkLimit","inputs":[{"name":"subnetwork","type":"bytes32","indexed":true,"internalType":"bytes32"},{"name":"amount","type":"uint256","indexed":false,"internalType":"uint256"}],"anonymous":false},{"type":"event","name":"SetNetworkLimit","inputs":[{"name":"subnetwork","type":"bytes32","indexed":true,"internalType":"bytes32"},{"name":"amount","type":"uint256","indexed":false,"internalType":"uint256"}],"anonymous":false},{"type":"event","name":"SetOperatorNetworkLimit","inputs":[{"name":"subnetwork","type":"bytes32","indexed":true,"internalType":"bytes32"},{"name":"operator","type":"address","indexed":true,"internalType":"address"},{"name":"amount","type":"uint256","indexed":false,"internalType":"uint256"}],"anonymous":false},{"type":"error","name":"AccessControlBadConfirmation","inputs":[]},{"type":"error","name":"AccessControlUnauthorizedAccount","inputs":[{"name":"account","type":"address","internalType":"address"},{"name":"neededRole","type":"bytes32","internalType":"bytes32"}]},{"type":"error","name":"AlreadySet","inputs":[]},{"type":"error","name":"CheckpointUnorderedInsertion","inputs":[]},{"type":"error","name":"DuplicateRoleHolder","inputs":[]},{"type":"error","name":"ExceedsMaxNetworkLimit","inputs":[]},{"type":"error","name":"ExternalCall","inputs":[]},{"type":"error","name":"InsufficientHookGas","inputs":[]},{"type":"error","name":"InvalidInitialization","inputs":[]},{"type":"error","name":"MissingRoleHolders","inputs":[]},{"type":"error","name":"NotInitialized","inputs":[]},{"type":"error","name":"NotInitializing","inputs":[]},{"type":"error","name":"NotNetwork","inputs":[]},{"type":"error","name":"NotSlasher","inputs":[]},{"type":"error","name":"NotVault","inputs":[]},{"type":"error","name":"ReentrancyGuardReentrantCall","inputs":[]},{"type":"error","name":"SafeCastOverflowedUintDowncast","inputs":[{"name":"bits","type":"uint8","internalType":"uint8"},{"name":"value","type":"uint256","internalType":"uint256"}]},{"type":"error","name":"ZeroAddressRoleHolder","inputs":[]}],"bytecode":{"object":"0x6101c0346101ca57601f61368838819003918201601f19168301916001600160401b0391828411858510176101cf5781606092869260409687528339810103126101ca5761004c836101e5565b926100648361005d602084016101e5565b92016101e5565b91306080527ff0c57e16840df040f15088dc2f81fe391c3923bec73e23a9662efc9c229c6a009081549060ff82871c166101b9578080831603610175575b5050506000938460a0528460c0528460e05261010094808652610120948186526101409182526101609283526101809384526101a0948552519461348e96876101fa88396080518781816106d00152611507015260a05187610974015260c051876111bb015260e0518781816107de01526111f50152518681816104f3015261274801525185818161068601528181611c6c0152611da101525184818161075c01528181611bd10152611e21015251838181610f1c015261181c015251828181610ce601526118bd015251816110bb0152f35b6001600160401b0319909116811790915583519081527fc7f505b2f371ae2175ee4913f4499e1f2633a7b5936321eed1cdaeb6115181d290602090a13880806100a2565b855163f92ee8a960e01b8152600490fd5b600080fd5b634e487b7160e01b600052604160045260246000fd5b51906001600160a01b03821682036101ca5756fe6080604052600436101561001257600080fd5b60003560e01c806301ffc9a7146102c7578063020cf0c2146102c257806302145348146102bd578063103f2907146102b857806310a28b5d146102b357806311422095146102ae578063128e5d82146102a9578063197aa7ea146102a45780631a80e5001461029f57806323f752d51461029a578063248a9ca31461029557806325dc9708146102905780632dd310001461028b5780632f2ff15d1461028657806336568abe146102815780633dfd38731461027c5780633eb22c0f14610277578063439fab911461027257806345e78fcb1461026d578063518504ba14610268578063557cab44146102635780635d32a1c91461025e5780636679191e1461025957806379d89614146102545780637d24bb271461024f5780637f5a7c7b1461024a57806391d148541461024557806394d2558a146102405780639b656b221461023b5780639f86fd8514610236578063a217fddf14610231578063bb24fe8a1461022c578063c0cd7c3e14610227578063d15b740e14610222578063d547741f1461021d578063da749d2b14610218578063e02f693714610213578063e49561ee1461020e578063f7b0554714610209578063fbfa77cf14610204578063fd4d447c146101ff578063ff54740f146101fa5763ffa1ad74146101f557600080fd5b6115d9565b6115bb565b611591565b611568565b6114e0565b6112f0565b6112d4565b61129f565b611250565b611224565b6111df565b61119b565b61117f565b6110ea565b6110a5565b611063565b610fae565b610f85565b610f4b565b610f06565b610ecb565b610e78565b610d50565b610d15565b610cd0565b610b94565b610b3c565b610a3d565b6109f2565b6109a3565b61095e565b610941565b610905565b61078b565b610746565b6106b5565b610670565b61061d565b6105e8565b6104dd565b61041c565b610333565b3461031d57602036600319011261031d5760043563ffffffff60e01b811680910361031d57602090637965db0b60e01b811490811561030c575b506040519015158152f35b6301ffc9a760e01b14905038610301565b600080fd5b6001600160a01b0381160361031d57565b3461031d57606036600319011261031d5760243560043561035382610322565b6044359061035f611e97565b60009281845260046020528261039261038d83604088209060018060a01b0316600052602052604060002090565b612168565b1461040a5760207ffc9545f07ffadfb668efd0144cdcaf2d6e2c8192dce1ea9fc131934f9c90fc7e91838652600482526103f4856103e58360408a209060018060a01b0316600052602052604060002090565b6103ee42612bfd565b90611ff8565b50506040519485526001600160a01b031693a380f35b60405163a741a04560e01b8152600490fd5b3461031d5760408060031936011261031d5760043560243561043c611ef5565b60009282845260026020528084205482116104cd57828452600360205281610465828620612168565b146104bd57816104b7916104a77e899d104fc3d8820bd96540612bcc5c448c8837b13b9f7faa43ad0728f0c14f946103e5876000526003602052604060002090565b5050519081529081906020820190565b0390a280f35b5163a741a04560e01b8152600490fd5b51631eefc06360e31b8152600490fd5b3461031d57600036600319011261031d576040517f00000000000000000000000000000000000000000000000000000000000000006001600160a01b03168152602090f35b6024359065ffffffffffff8216820361031d57565b6044359065ffffffffffff8216820361031d57565b6064359065ffffffffffff8216820361031d57565b608090600319011261031d5760043561057981610322565b906024359060443561058a81610322565b9060643565ffffffffffff8116810361031d5790565b60005b8381106105b35750506000910152565b81810151838201526020016105a3565b906020916105dc815180928185528580860191016105a0565b601f01601f1916010190565b3461031d576106196106056105fc36610561565b92919091611634565b6040519182916020835260208301906105c3565b0390f35b3461031d57604036600319011261031d57602061066861038d60243561064281610322565b6004356000526004845260406000209060018060a01b0316600052602052604060002090565b604051908152f35b3461031d57600036600319011261031d576040517f00000000000000000000000000000000000000000000000000000000000000006001600160a01b03168152602090f35b3461031d57604036600319011261031d576106ce610522565b7f00000000000000000000000000000000000000000000000000000000000000006001600160a01b031633036107345761071790600435600052600360205260406000206121df565b60408051941515855263ffffffff91909116602085015292915050f35b604051637ca475e560e11b8152600490fd5b3461031d57600036600319011261031d576040517f00000000000000000000000000000000000000000000000000000000000000006001600160a01b03168152602090f35b3461031d57604036600319011261031d576004356001600160601b038116810361031d57602435906107bb6122ea565b6040516302910f8b60e31b81523360048201526020816024816001600160a01b037f0000000000000000000000000000000000000000000000000000000000000000165afa908115610900576000916108d1575b50156108bf576001600160601b03166bffffffffffffffffffffffff193360601b16179080610848836000526002602052604060002090565b541461040a576108a3817fc67e7929681aa1bccd63f52b3799bf5805f3009f197db6fdf584b14f7fbf608c92610888856000526002602052604060002090565b55610893818561231a565b6040519081529081906020820190565b0390a26108bd600160008051602061341983398151915255565b005b6040516323d53b9760e21b8152600490fd5b6108f3915060203d6020116108f9575b6108eb8183610dd9565b8101906116cc565b3861080f565b503d6108e1565b6116e0565b3461031d57602036600319011261031d576004356000526000805160206133f98339815191526020526020600160406000200154604051908152f35b3461031d5761061961060561095536610561565b929190916117ce565b3461031d57600036600319011261031d576040517f00000000000000000000000000000000000000000000000000000000000000006001600160a01b03168152602090f35b3461031d57604036600319011261031d576108bd6024356004356109c682610322565b806000526000805160206133f98339815191526020526109ed600160406000200154611f4c565b61260b565b3461031d57604036600319011261031d57602435610a0f81610322565b336001600160a01b03821603610a2b576108bd90600435612645565b60405163334bd91960e11b8152600490fd5b3461031d57602036600319011261031d57600435610a5a81610322565b610a626122ea565b3360009081527f9ebbcbe0d2961d3fbe56ca6f679bc753bd848d3e6bb3eaf9041c51b286881d2c60205260408120549091907fd1c1f6fa6bf27d54c5e54c7c1dc6e5004d3c027ea1994fe68b29c1b51b69c36c9060ff1615610b1e57506001546001600160a01b03918216918116821461040a576001600160a01b03191681176001557f5bbb1d3ebb6a3ad2a0f17ff35e579a83af60604d1d3c2a4c83c62adecadf666d8280a260016000805160206134198339815191525580f35b6044906040519063e2517d3f60e01b82523360048301526024820152fd5b3461031d57602036600319011261031d57600435600052600360205260206106686040600020612168565b9181601f8401121561031d578235916001600160401b03831161031d576020838186019501011161031d57565b3461031d57602036600319011261031d576001600160401b0360043581811161031d57610bc5903690600401610b67565b600080516020613439833981519152549260ff8460401c1615931680159081610cc8575b6001149081610cbe575b159081610cb5575b50610ca357600080516020613439833981519152805467ffffffffffffffff19166001179055610c2f9183610c7e57612713565b610c3557005b600080516020613439833981519152805460ff60401b19169055604051600181527fc7f505b2f371ae2175ee4913f4499e1f2633a7b5936321eed1cdaeb6115181d290602090a1005b600080516020613439833981519152805460ff60401b1916600160401b179055612713565b60405163f92ee8a960e01b8152600490fd5b90501538610bfb565b303b159150610bf3565b849150610be9565b3461031d57600036600319011261031d576040517f00000000000000000000000000000000000000000000000000000000000000006001600160a01b03168152602090f35b3461031d57600036600319011261031d5760206040517f15e7c882d74e8821ebf34aaff46fd0e1d53b9393d91490019124113d28dc32a38152f35b3461031d57600036600319011261031d576020604051614e208152f35b634e487b7160e01b600052604160045260246000fd5b604081019081106001600160401b03821117610d9e57604052565b610d6d565b606081019081106001600160401b03821117610d9e57604052565b608081019081106001600160401b03821117610d9e57604052565b90601f801991011681019081106001600160401b03821117610d9e57604052565b60405190610e0782610dbe565b565b60405190610e0782610d83565b6001600160401b038111610d9e57601f01601f191660200190565b81601f8201121561031d57803590610e4882610e16565b92610e566040519485610dd9565b8284526020838301011161031d57816000926020809301838601378301015290565b3461031d57606036600319011261031d57610e91610522565b6044356001600160401b03811161031d57602091610eb6610668923690600401610e31565b9060043560005260038452604060002061287d565b3461031d57600036600319011261031d5760206040517fd1c1f6fa6bf27d54c5e54c7c1dc6e5004d3c027ea1994fe68b29c1b51b69c36c8152f35b3461031d57600036600319011261031d576040517f00000000000000000000000000000000000000000000000000000000000000006001600160a01b03168152602090f35b3461031d57600036600319011261031d5760206040517e8b9b1e5fa9cf3b14f87f435649268146305ddf689f082e5961a335b07a9abf8152f35b3461031d57600036600319011261031d576001546040516001600160a01b039091168152602090f35b3461031d57604036600319011261031d57602060ff611005602435610fd281610322565b6004356000526000805160206133f9833981519152845260406000209060018060a01b0316600052602052604060002090565b54166040519015158152f35b90608060031983011261031d576004359160243561102e81610322565b9160443565ffffffffffff8116810361031d5791606435906001600160401b03821161031d5761106091600401610e31565b90565b3461031d5760206106686110a061107936611011565b939190926000526004865260406000209060018060a01b0316600052602052604060002090565b61287d565b3461031d57600036600319011261031d576040517f00000000000000000000000000000000000000000000000000000000000000006001600160a01b03168152602090f35b3461031d57604036600319011261031d5760043561110781610322565b6024356001600160401b03811161031d5760009161112a83923690600401610b67565b90816040519283928337810184815203915af4611177611148611a2b565b916111696040519384921515602084015260408084015260608301906105c3565b03601f198101835282610dd9565b805190602001fd5b3461031d57600036600319011261031d57602060405160008152f35b3461031d57600036600319011261031d5760206040516001600160401b037f0000000000000000000000000000000000000000000000000000000000000000168152f35b3461031d57600036600319011261031d576040517f00000000000000000000000000000000000000000000000000000000000000006001600160a01b03168152602090f35b3461031d57602036600319011261031d5760043560005260026020526020604060002054604051908152f35b3461031d57604036600319011261031d576108bd60243560043561127382610322565b806000526000805160206133f983398151915260205261129a600160406000200154611f4c565b612645565b3461031d57606036600319011261031d576106196106056004356112c281610322565b6112ca610537565b9060243590611a5b565b3461031d5760206106686112e736611011565b92919091611b5a565b3461031d5760a036600319011261031d5760243560043561131082610322565b6044359061131c61054c565b6084356001600160401b03811161031d5761133c60049136908301610e31565b946113456122ea565b600095602061136c6113606113608a5460018060a01b031690565b6001600160a01b031690565b60405163b134427160e01b815294859182905afa9283156109005787936114af575b506001600160a01b03928316330361149d576001546001600160a01b0316838116611412575b50506040805195865265ffffffffffff909316602086015216927f741a5de99085c0d660f3e4192217b0ffb0ea4e35a0480de48e857a4bc3ee36ed91819081015b0390a361140f600160008051602061341983398151915255565b80f35b9093604051946114498661143b602082019363724ab0f760e11b8552858c898d60248701611ce8565b03601f198101885287610dd9565b62042e305a1061148b57886113f5938192827f741a5de99085c0d660f3e4192217b0ffb0ea4e35a0480de48e857a4bc3ee36ed9951926203d090f150936113b4565b604051638072475160e01b8152600490fd5b60405163dabc4ad960e01b8152600490fd5b6114d291935060203d6020116114d9575b6114ca8183610dd9565b810190611753565b913861138e565b503d6114c0565b3461031d57606036600319011261031d576024356114fd81610322565b611505610537565b7f00000000000000000000000000000000000000000000000000000000000000006001600160a01b031633036107345761156361071792600435600052600460205260406000209060018060a01b0316600052602052604060002090565b6121df565b3461031d57600036600319011261031d576000546040516001600160a01b039091168152602090f35b3461031d57604036600319011261031d5760206106686024356115b381610322565b600435611d69565b3461031d57600036600319011261031d5760206040516203d0908152f35b3461031d57600036600319011261031d57602060405160018152f35b5190811515820361031d57565b519063ffffffff8216820361031d57565b919082604091031261031d57611060602061162d846115f5565b9301611602565b91939265ffffffffffff906060956040519363f7b0554760e01b6020860152602485015260018060a01b031660448401521660648201526064815260a08101908082106001600160401b03831117610d9e576116a592611696926040526120bc565b60208082518301019101611613565b906116ad5750565b90915063ffffffff604051911660208201526020815261106081610d83565b9081602091031261031d57611060906115f5565b6040513d6000823e3d90fd5b81601f8201121561031d57805161170281610e16565b926117106040519485610dd9565b8184526020828401011161031d5761106091602080850191016105a0565b9060208282031261031d5781516001600160401b03811161031d5761106092016116ec565b9081602091031261031d575161106081610322565b90611060916020815261178782516080602084015260a08301906105c3565b90608060606117be6117ab602087015195601f1996878783030160408801526105c3565b60408701518686830301848701526105c3565b94015192828503019101526105c3565b604051630df8851f60e11b81526001600160a01b03828116600483015260248201849052848116604483015265ffffffffffff861660648301526000966060969095929490929188866084817f000000000000000000000000000000000000000000000000000000000000000085165afa9586156109005789966119ca575b5060405163fbfa77cf60e01b81526020816004818986165afa908115610900576118b9928b92879284916119ab575b5060405163192c0ff760e21b81526001600160a01b03909116600482015265ffffffffffff90921660248301529092839190829081906044820190565b03917f0000000000000000000000000000000000000000000000000000000000000000165afa98891561090057809961197d575b5050908161190084611906959487611a5b565b94611634565b90825115801590611973575b8015611969575b801561195f575b61192c57505050909150565b6111699450611060939561193e610dfa565b93845260208401526040830152606082015260405192839160208301611768565b5081511515611920565b5080511515611919565b5085511515611912565b6119069493929950906119a1913d8091833e6119998183610dd9565b81019061172e565b97909192386118ed565b6119c4915060203d6020116114d9576114ca8183610dd9565b3861187c565b6119df9196503d808b833e6119998183610dd9565b943861184d565b9061106092916000526003602052604060002061287d565b60009081526004602090815260408083206001600160a01b0390941683529290522061106092919061287d565b3d15611a56573d90611a3c82610e16565b91611a4a6040519384610dd9565b82523d6000602084013e565b606090565b6116a5916116969194939465ffffffffffff60609660405193630cbd53f560e11b6020860152602485015216604483015260448252611a9982610dbe565b6120bc565b60405190611aab82610d83565b60606020838281520152565b9060208282031261031d5781516001600160401b039283821161031d57019060408282031261031d5760405192611aed84610d83565b825181811161031d5782611b029185016116ec565b8452602083015190811161031d57611b1a92016116ec565b602082015290565b6001600160a01b0391821681529116602082015265ffffffffffff9091166040820152608060608201819052611060929101906105c3565b92611b6a90929192828486612a58565b929093611b75611a9e565b93805180611ccc575b50508415938415611c34575b8415611ba2575b50505050611b9c5790565b50600090565b602080949550611bcd910151604051958694859463530e1d4360e01b865260601c9060048601611b22565b03817f00000000000000000000000000000000000000000000000000000000000000006001600160a01b03165afa90811561090057600091611c15575b501538808080611b91565b611c2e915060203d6020116108f9576108eb8183610dd9565b38611c0a565b6000549094506001600160a01b0316602084865192611c68604051948593849363530e1d4360e01b85528960048601611b22565b03817f00000000000000000000000000000000000000000000000000000000000000006001600160a01b03165afa90811561090057600091611cad575b501593611b8a565b611cc6915060203d6020116108f9576108eb8183610dd9565b38611ca5565b611ce0929550602080918301019101611ab7565b923880611b7e565b919360a093611060969565ffffffffffff938552600180871b03166020850152604084015216606082015281608082015201906105c3565b634e487b7160e01b600052601160045260246000fd5b8115611d40570490565b634e487b7160e01b600052601260045260246000fd5b9060018201809211611d6457565b611d20565b6000546040516308834cb560e21b8082526001600160a01b0385811660048401529283166024830152929392602092909183816044817f000000000000000000000000000000000000000000000000000000000000000086165afa90811561090057600091611e7a575b5015918215611df5575b50509050611dee5761106091612b4f565b5050600090565b6040519081526001600160a01b0385166004820152606086901c602482015291508290829060449082907f0000000000000000000000000000000000000000000000000000000000000000165afa91821561090057600092611e5d575b505015803880611ddd565b611e739250803d106108f9576108eb8183610dd9565b3880611e52565b611e919150843d86116108f9576108eb8183610dd9565b38611dd3565b3360009081527f24e48de785eeca8420b70f73d267a66970ccc187d459f2a4b53e74ed92a5ab86602052604090207f15e7c882d74e8821ebf34aaff46fd0e1d53b9393d91490019124113d28dc32a39060ff905b541615610b1e5750565b3360009081527f72a65082a5691803ab2b62c9bc729b34205ba1b183d950896526b2fd8714d0c7602052604090207e8b9b1e5fa9cf3b14f87f435649268146305ddf689f082e5961a335b07a9abf9060ff90611eeb565b60008181526000805160206133f983398151915260209081526040808320338452909152902060ff90611eeb565b634e487b7160e01b600052603260045260246000fd5b8054821015611fa85760005260206000200190600090565b611f7a565b90815491600160401b831015610d9e5782611fd0916001610e0795018155611f90565b90919082549060031b91821b91600019901b1916179055565b600019810191908211611d6457565b9092919260018201908154801561208b575b508461201584612c2f565b5094909284549361202583612168565b9681612076575b5015612053575050506000198101908111611d6457611fd0859161204f93611f90565b9190565b61204f94929361206f926001600160d01b0390911691906132b0565b5050611fad565b65ffffffffffff83811691161490503861202c565b600160401b811015610d9e578060016120a79201845583611f90565b8154906000199060031b1b191690553861200a565b906040516120ed816111696020820194639f86fd8560e01b86523060248401526040604484015260648301906105c3565b6000928392839251915afa50612101611a2b565b9081518201916040818403126121645761211d602082016115f5565b926040820151906001600160401b038211612160576121439260209182019201016116ec565b911561214d575090565b90805191821561215d5750602001fd5b80fd5b8380fd5b5080fd5b80546000908061219c57505060005b6001600160d01b03811615611dee5760016121929201611f90565b90549060031b1c90565b600019918183810111611d64578084602092522001015460301c612177565b906040516121c881610d83565b915465ffffffffffff8116835260301c6020830152565b91908254906000829160058411612281575b6121fc935085612db8565b9081156122745761226d61226461225e61219261223061222b61221e88611fe9565b8960005260206000200190565b6121bb565b96600161225760206122488b5165ffffffffffff1690565b9a01516001600160d01b031690565b9101611f90565b93611fe9565b63ffffffff1690565b6001939291565b6000925082915081908190565b919261228c81612c84565b8103908111611d64576121fc93866000526122c26122b78360206000200165ffffffffffff90541690565b65ffffffffffff1690565b65ffffffffffff851610156122d85750916121f1565b9291506122e490611d56565b906121f1565b60008051602061341983398151915260028154146123085760029055565b604051633ee5aeb560e01b8152600490fd5b906000918083526003602052604083208261233482612c2f565b91939050831561239357612354916001600160d01b031690600101611f90565b90549060031b1c5b82612389575b505061236d57505050565b8260409161238594526003602052206103ee42612bfd565b5050565b1190508238612362565b50508461235c565b6001600160a01b03811660009081527fb7db2dd08fcb62d0c9e08c51941cae53c267786a0b75803fb7960902fc8ef97d60205260408120546000805160206133f98339815191529060ff1661244a57818052602090815260408083206001600160a01b038516600090815292529020805460ff1916600117905533916001600160a01b0316907f2f8788117e7eff1d82e926ec794901d17c78024a50270940304540a733656f0d8180a4600190565b50905090565b6001600160a01b03811660009081527f9ebbcbe0d2961d3fbe56ca6f679bc753bd848d3e6bb3eaf9041c51b286881d2c602052604081207fd1c1f6fa6bf27d54c5e54c7c1dc6e5004d3c027ea1994fe68b29c1b51b69c36c906000805160206133f98339815191529060ff905b541661252357818352602090815260408084206001600160a01b038616600090815292529020805460ff1916600117905533926001600160a01b0316917f2f8788117e7eff1d82e926ec794901d17c78024a50270940304540a733656f0d9080a4600190565b5050905090565b6001600160a01b03811660009081527f72a65082a5691803ab2b62c9bc729b34205ba1b183d950896526b2fd8714d0c7602052604081207e8b9b1e5fa9cf3b14f87f435649268146305ddf689f082e5961a335b07a9abf906000805160206133f98339815191529060ff906124bd565b6001600160a01b03811660009081527f24e48de785eeca8420b70f73d267a66970ccc187d459f2a4b53e74ed92a5ab86602052604081207f15e7c882d74e8821ebf34aaff46fd0e1d53b9393d91490019124113d28dc32a3906000805160206133f98339815191529060ff906124bd565b60008181526000805160206133f9833981519152602081815260408084206001600160a01b0387168552909152822091929160ff906124bd565b60008181526000805160206133f9833981519152602081815260408084206001600160a01b038716855290915282205491929160ff161561252357818352602090815260408084206001600160a01b038616600090815292529020805460ff1916905533926001600160a01b0316917ff6391f5c32d9c69d2a47ea670b442974b53935d1edc7fd64eb21e047a839171b9080a4600190565b91909160408184031261031d5780356126f581610322565b9260208201356001600160401b03811161031d576110609201610e31565b61271f918101906126dd565b6040516302910f8b60e31b81526001600160a01b039283166004820181905291906020816024817f000000000000000000000000000000000000000000000000000000000000000088165afa90811561090057600091612835575b5015612823576127b76040916127b26127fd94612795612e1c565b60018060a01b03166001600160601b0360a01b6000541617600055565b612f9e565b6020810151600180546001600160a01b0319166001600160a01b0390921691909117905580516001600160a01b0316848116612813575b5001516001600160a01b031690565b9081166128075750565b61281090612450565b50565b61281c9061239b565b50386127ee565b6040516362df054560e01b8152600490fd5b61284e915060203d6020116108f9576108eb8183610dd9565b3861277a565b9081602091031261031d5761106090611602565b90600163ffffffff80931601918211611d6457565b9180511561294b578060208061289893518301019101612854565b916128a383826131d8565b926128b4845165ffffffffffff1690565b9065ffffffffffff808516921682811461293f57821191826128ea575b50506128e1576110609250613100565b50506020015190565b9091506128f78354611fe9565b63ffffffff831614918215612910575b505038806128d1565b61293791925061292b6129256122b792612868565b856131d8565b5165ffffffffffff1690565b113880612907565b50505050506020015190565b5061106091613100565b60405190608082018281106001600160401b03821117610d9e57604052606080838181528160208201528160408201520152565b9060208282031261031d5781516001600160401b039283821161031d57019060808282031261031d576129ba610dfa565b92825181811161031d57826129d09185016116ec565b8452602083015181811161031d57826129ea9185016116ec565b6020850152604083015181811161031d5782612a079185016116ec565b6040850152606083015190811161031d57612a2292016116ec565b606082015290565b9081602091031261031d575190565b60409065ffffffffffff611060949316815281602082015201906105c3565b93919093612a64612955565b93805180612b2f575b5050612aaf9293946020612a8e61136061136060005460018060a01b031690565b8188015190604051808098819463810da75d60e01b83528960048401612a39565b03915afa91821561090057612af194600093612af6575b50612aeb90612aeb9394612adf60408a015182846119e6565b9360608a0151926119fe565b90613240565b915190565b612aeb935090612b20612aeb9260203d602011612b28575b612b188183610dd9565b810190612a2a565b935090612ac6565b503d612b0e565b612aaf94955090602080612b47938301019101612989565b939238612a6d565b60005460405163bd49c35f60e01b8152929190602090849060049082906001600160a01b03165afa9081156109005761106093600092612bd2575b50612aeb61038d612aeb9394612bad61038d856000526003602052604060002090565b93600052600460205260406000209060018060a01b0316600052602052604060002090565b612aeb925061038d612bf5612aeb9260203d602011612b2857612b188183610dd9565b935050612b8a565b65ffffffffffff90818111612c10571690565b604490604051906306dfcc6560e41b8252603060048301526024820152fd5b805480612c43575050600090600090600090565b600019908082810111611d6457612c6392600052602060002001016121bb565b9065ffffffffffff82511691602060018060d01b0391015116906001929190565b8015611b9c5780612aeb612d50612d46612d3c612d32612d28612d1e612d1460016110609a6000908b60801c80612dac575b508060401c80612d9f575b508060201c80612d92575b508060101c80612d85575b508060081c80612d78575b508060041c80612d6b575b508060021c80612d5e575b50821c612d57575b811c1b612d0d818b611d36565b0160011c90565b612d0d818a611d36565b612d0d8189611d36565b612d0d8188611d36565b612d0d8187611d36565b612d0d8186611d36565b612d0d8185611d36565b8092611d36565b8101612d00565b6002915091019038612cf8565b6004915091019038612ced565b6008915091019038612ce2565b6010915091019038612cd7565b6020915091019038612ccc565b6040915091019038612cc1565b91505060809038612cb6565b91905b838210612dc85750505090565b909192808316906001818518811c8301809311611d645760008681526020902083015465ffffffffffff9081169085161015612e09575050925b9190612dbb565b909493508101809111611d645791612e02565b612e246133c9565b612e2c6133c9565b600160008051602061341983398151915255565b60405190612e4d82610da3565b60006040838281528260208201520152565b81601f8201121561031d578051916020916001600160401b038411610d9e578360051b9060405194612e9385840187610dd9565b8552838086019282010192831161031d578301905b828210612eb6575050505090565b8380918351612ec481610322565b815201910190612ea8565b9060208282031261031d5781516001600160401b039283821161031d5701908181039260a0841261031d57606060405194612f0986610da3565b1261031d57604051612f1a81610da3565b8351612f2581610322565b81526020840151612f3581610322565b60208201526040840151612f4881610322565b60408201528452606083015181811161031d5782612f67918501612e5f565b6020850152608083015190811161031d57612f829201612e5f565b604082015290565b8051821015611fa85760209160051b010190565b612fba90612faa612e40565b5060208082518301019101612ecf565b8051519091906001600160a01b031615806130e6575b6130d45790602081019060005b8251805182101561305757611360612ff88361300593612f8a565b516001600160a01b031690565b156130455761302761302361301e612ff8848751612f8a565b61252a565b1590565b61303357600101612fdd565b604051635140fefd60e11b8152600490fd5b6040516323cda06760e01b8152600490fd5b5060409250508181019060005b825180518210156130cb57611360612ff88361307f93612f8a565b156130ba5761309d613023613098612ff8848751612f8a565b61259a565b6130a957600101613064565b8351635140fefd60e11b8152600490fd5b83516323cda06760e01b8152600490fd5b50509150505190565b6040516303501f5960e11b8152600490fd5b506020820151511580612fd0575060408201515115612fd0565b90815490600082916005841161316e575b61311c935084612db8565b8061314557506000905b6001600160d01b03821615611dee576110609160016121929201611f90565b61316161315461316892611fe9565b8360005260206000200190565b5460301c90565b90613126565b919261317981612c84565b8103908111611d645761311c938560005265ffffffffffff80836020600020015416908516106000146131ad575091613111565b9291506131b990611d56565b90613111565b604051906131cc82610d83565b60006020838281520152565b906132016131fb613222926131eb6131bf565b506131f46131bf565b5084611f90565b506121bb565b91600165ffffffffffff845116936020828060d01b03910151169101611f90565b9054906040519261323284610d83565b835260031b1c602082015290565b908082101561324d575090565b905090565b8054600160401b811015610d9e5761326f91600182018155611f90565b61329a57815160209092015160301b65ffffffffffff191665ffffffffffff92909216919091179055565b634e487b7160e01b600052600060045260246000fd5b80549293929190821561339f576132cc61222b61315485611fe9565b906132dd825165ffffffffffff1690565b65ffffffffffff8481169116811061338d5761204f94602094889261330b6122b7875165ffffffffffff1690565b0361335557506133479261332161332e92611fe9565b9060005260206000200190565b9065ffffffffffff82549181199060301b169116179055565b01516001600160d01b031690565b91505061338891613375613367610e09565b65ffffffffffff9093168352565b6001600160d01b03881682860152613252565b613347565b604051632520601d60e01b8152600490fd5b6133c392506133af613367610e09565b6001600160d01b0385166020830152613252565b60009190565b60ff6000805160206134398339815191525460401c16156133e657565b604051631afcd79f60e31b8152600490fdfe02dd7bc7dec4dceedda775e58dd541e08a116c6c53815c0bd028192f7b6268009b779b17422d0df92223018b32b4d1fa46e071723d6817e2486d003becc55f00f0c57e16840df040f15088dc2f81fe391c3923bec73e23a9662efc9c229c6a00a2646970667358221220c09f2117e0c05edaa2f9d0c7715db4ee2be9b004fec675e901d2b200539bda8d64736f6c63430008190033","linkReferences":{}},"methodIdentifiers":{"BASE_DELEGATOR_HINTS()":"79d89614","DEFAULT_ADMIN_ROLE()":"a217fddf","FACTORY()":"2dd31000","HOOK_GAS_LIMIT()":"ff54740f","HOOK_RESERVE()":"557cab44","HOOK_SET_ROLE()":"6679191e","NETWORK_LIMIT_SET_ROLE()":"7d24bb27","NETWORK_REGISTRY()":"c0cd7c3e","OPERATOR_NETWORK_LIMIT_SET_ROLE()":"518504ba","OPERATOR_NETWORK_OPT_IN_SERVICE()":"1a80e500","OPERATOR_VAULT_OPT_IN_SERVICE()":"128e5d82","OPT_IN_SERVICE_HINTS()":"9b656b22","TYPE()":"bb24fe8a","VAULT_FACTORY()":"103f2907","VAULT_HINTS()":"45e78fcb","VERSION()":"ffa1ad74","getRoleAdmin(bytes32)":"248a9ca3","grantRole(bytes32,address)":"2f2ff15d","hasRole(bytes32,address)":"91d14854","hook()":"7f5a7c7b","initialize(bytes)":"439fab91","maxNetworkLimit(bytes32)":"d15b740e","networkLimit(bytes32)":"3eb22c0f","networkLimitAt(bytes32,uint48,bytes)":"5d32a1c9","networkLimitHint(address,bytes32,uint48)":"da749d2b","networkLimitHintInternal(bytes32,uint48)":"197aa7ea","onSlash(bytes32,address,uint256,uint48,bytes)":"e49561ee","operatorNetworkLimit(bytes32,address)":"11422095","operatorNetworkLimitAt(bytes32,address,uint48,bytes)":"94d2558a","operatorNetworkLimitHint(address,bytes32,address,uint48)":"10a28b5d","operatorNetworkLimitHintInternal(bytes32,address,uint48)":"f7b05547","renounceRole(bytes32,address)":"36568abe","revokeRole(bytes32,address)":"d547741f","setHook(address)":"3dfd3873","setMaxNetworkLimit(uint96,uint256)":"23f752d5","setNetworkLimit(bytes32,uint256)":"02145348","setOperatorNetworkLimit(bytes32,address,uint256)":"020cf0c2","stake(bytes32,address)":"fd4d447c","stakeAt(bytes32,address,uint48,bytes)":"e02f6937","stakeHints(address,bytes32,address,uint48)":"25dc9708","staticDelegateCall(address,bytes)":"9f86fd85","supportsInterface(bytes4)":"01ffc9a7","vault()":"fbfa77cf"},"id":78}