{"abi":[{"type":"constructor","inputs":[{"name":"baseDelegatorHints","type":"address","internalType":"address"},{"name":"vaultHints","type":"address","internalType":"address"}],"stateMutability":"nonpayable"},{"type":"function","name":"BASE_DELEGATOR_HINTS","inputs":[],"outputs":[{"name":"","type":"address","internalType":"address"}],"stateMutability":"view"},{"type":"function","name":"VAULT_HINTS","inputs":[],"outputs":[{"name":"","type":"address","internalType":"address"}],"stateMutability":"view"},{"type":"function","name":"hook","inputs":[],"outputs":[{"name":"","type":"address","internalType":"address"}],"stateMutability":"view"},{"type":"function","name":"maxNetworkLimit","inputs":[{"name":"subnetwork","type":"bytes32","internalType":"bytes32"}],"outputs":[{"name":"value","type":"uint256","internalType":"uint256"}],"stateMutability":"view"},{"type":"function","name":"networkLimitHint","inputs":[{"name":"delegator","type":"address","internalType":"address"},{"name":"subnetwork","type":"bytes32","internalType":"bytes32"},{"name":"timestamp","type":"uint48","internalType":"uint48"}],"outputs":[{"name":"hint","type":"bytes","internalType":"bytes"}],"stateMutability":"view"},{"type":"function","name":"networkLimitHintInternal","inputs":[{"name":"subnetwork","type":"bytes32","internalType":"bytes32"},{"name":"timestamp","type":"uint48","internalType":"uint48"}],"outputs":[{"name":"exists","type":"bool","internalType":"bool"},{"name":"hint","type":"uint32","internalType":"uint32"}],"stateMutability":"view"},{"type":"function","name":"operatorNetworkLimitHint","inputs":[{"name":"delegator","type":"address","internalType":"address"},{"name":"subnetwork","type":"bytes32","internalType":"bytes32"},{"name":"operator","type":"address","internalType":"address"},{"name":"timestamp","type":"uint48","internalType":"uint48"}],"outputs":[{"name":"hint","type":"bytes","internalType":"bytes"}],"stateMutability":"view"},{"type":"function","name":"operatorNetworkLimitHintInternal","inputs":[{"name":"subnetwork","type":"bytes32","internalType":"bytes32"},{"name":"operator","type":"address","internalType":"address"},{"name":"timestamp","type":"uint48","internalType":"uint48"}],"outputs":[{"name":"exists","type":"bool","internalType":"bool"},{"name":"hint","type":"uint32","internalType":"uint32"}],"stateMutability":"view"},{"type":"function","name":"stakeHints","inputs":[{"name":"delegator","type":"address","internalType":"address"},{"name":"subnetwork","type":"bytes32","internalType":"bytes32"},{"name":"operator","type":"address","internalType":"address"},{"name":"timestamp","type":"uint48","internalType":"uint48"}],"outputs":[{"name":"hints","type":"bytes","internalType":"bytes"}],"stateMutability":"view"},{"type":"function","name":"vault","inputs":[],"outputs":[{"name":"","type":"address","internalType":"address"}],"stateMutability":"view"},{"type":"error","name":"ExternalCall","inputs":[]}],"bytecode":{"object":"0x60e03461009c57601f610e0b38819003918201601f19168301916001600160401b038311848410176100a057808492604094855283398101031261009c57610052602061004b836100b4565b92016100b4565b903060805260a05260c052604051610d4290816100c982396080518181816101a701526105c0015260a05181818161027601526104c6015260c05181818161031501526104820152f35b5f80fd5b634e487b7160e01b5f52604160045260245ffd5b51906001600160a01b038216820361009c5756fe60806040526004361015610011575f80fd5b5f3560e01c806310a28b5d146100b4578063197aa7ea146100af57806325dc9708146100aa57806345e78fcb146100a557806379d89614146100a05780637f5a7c7b1461009b578063d15b740e14610096578063da749d2b14610091578063f7b055471461008c5763fbfa77cf14610087575f80fd5b610609565b610590565b610547565b61051d565b6104f5565b6104b1565b61046d565b61021b565b610182565b346100e1576100dd6100d16100c83661010b565b929190916106da565b6040519182918261016e565b0390f35b5f80fd5b6001600160a01b038116036100e157565b6044359065ffffffffffff821682036100e157565b60809060031901126100e157600435610123816100e5565b9060243590604435610134816100e5565b9060643565ffffffffffff811681036100e15790565b805180835260209291819084018484015e5f828201840152601f01601f1916010190565b90602061017f92818152019061014a565b90565b346100e15760403660031901126100e15760243565ffffffffffff811681036100e1577f00000000000000000000000000000000000000000000000000000000000000006001600160a01b03163303610209576101ec906004355f52600360205260405f20610a30565b60408051941515855263ffffffff91909116602085015292915050f35b604051637ca475e560e11b8152600490fd5b346100e1576102293661010b565b60408051630df8851f60e11b81526001600160a01b03868116600483015260248201869052848116604483015265ffffffffffff8416606483015295606094929391929091905f846084817f00000000000000000000000000000000000000000000000000000000000000008c165afa93841561041d575f94610451575b50845163fbfa77cf60e01b8152602081600481878d165afa90811561041d57610311995f9285928491610422575b50885163192c0ff760e21b81526001600160a01b03909116600482015265ffffffffffff909216602483015290998a9190829081906044820190565b03917f0000000000000000000000000000000000000000000000000000000000000000165afa96871561041d576100dd985f986103f1575b50908161035b84610361959487610890565b946106da565b908251158015906103e7575b80156103dd575b80156103d3575b61038b575b83518088878261016e565b6103bc94506103ca939561039d610773565b938452602084015285830152606082015283519283916020830161082a565b03601f198101835282610681565b815f8080610380565b508151151561037b565b5080511515610374565b508551151561036d565b6103619392919850610414903d805f833e61040c8183610681565b8101906107e4565b97909192610349565b61080a565b610444915060203d60201161044a575b61043c8183610681565b810190610815565b5f6102d5565b503d610432565b6104669194503d805f833e61040c8183610681565b925f6102a7565b346100e1575f3660031901126100e1576040517f00000000000000000000000000000000000000000000000000000000000000006001600160a01b03168152602090f35b346100e1575f3660031901126100e1576040517f00000000000000000000000000000000000000000000000000000000000000006001600160a01b03168152602090f35b346100e1575f3660031901126100e1576001546040516001600160a01b039091168152602090f35b346100e15760203660031901126100e1576004355f526002602052602060405f2054604051908152f35b346100e15760603660031901126100e1576100dd61057c60043561056a816100e5565b6105726100f6565b9060243590610890565b60405191829160208352602083019061014a565b346100e15760603660031901126100e1576024356105ad816100e5565b6105b56100f6565b6001600160a01b03917f000000000000000000000000000000000000000000000000000000000000000083163303610209576101ec926004355f52600460205260405f2091165f5260205260405f20610a30565b346100e1575f3660031901126100e1575f546040516001600160a01b039091168152602090f35b634e487b7160e01b5f52604160045260245ffd5b6040810190811067ffffffffffffffff82111761066057604052565b610630565b6080810190811067ffffffffffffffff82111761066057604052565b90601f8019910116810190811067ffffffffffffffff82111761066057604052565b519081151582036100e157565b91908260409103126100e15760206106c7836106a3565b92015163ffffffff811681036100e15790565b91939265ffffffffffff906060956040519363f7b0554760e01b6020860152602485015260018060a01b031660448401521660648201526064815260a081019080821067ffffffffffffffff8311176106605761074c9261073d92604052610908565b602080825183010191016106b0565b906107545750565b90915063ffffffff604051911660208201526020815261017f81610644565b6040519061078082610665565b565b67ffffffffffffffff811161066057601f01601f191660200190565b81601f820112156100e1578051906107b582610782565b926107c36040519485610681565b828452602083830101116100e157815f9260208093018386015e8301015290565b906020828203126100e157815167ffffffffffffffff81116100e15761017f920161079e565b6040513d5f823e3d90fd5b908160209103126100e1575161017f816100e5565b9061017f916020815261084982516080602084015260a083019061014a565b906080606061088061086d602087015195601f19968787830301604088015261014a565b604087015186868303018487015261014a565b940151928285030191015261014a565b61074c9161073d9194939465ffffffffffff60609660405193630cbd53f560e11b60208601526024850152166044830152604482526108ce82610665565b610908565b9190916040818403126100e1576108e9816106a3565b92602082015167ffffffffffffffff81116100e15761017f920161079e565b5f9190829160405161093d816103bc6020820194639f86fd8560e01b865230602484015260406044840152606483019061014a565b51915afa503d156109935761097c3d61095581610782565b906109636040519283610681565b81523d5f602083013e5b602080825183010191016108d3565b90156109855790565b80519081156100e157602001fd5b61097c606061096d565b634e487b7160e01b5f52601160045260245ffd5b5f198101919082116109bf57565b61099d565b90600182018092116109bf57565b906040516040810181811067ffffffffffffffff82111761066057604052915465ffffffffffff8116835260301c6020830152565b8054821015610a1c575f5260205f2001905f90565b634e487b7160e01b5f52603260045260245ffd5b91908254905f829160058411610ad8575b610a4c935085610c9b565b908115610acc57610ac5610abc610ab6610aac610a7e610a79610a6e886109b1565b895f5260205f200190565b6109d2565b966001610aa56020610a968b5165ffffffffffff1690565b9a01516001600160d01b031690565b9101610a07565b90549060031b1c90565b936109b1565b63ffffffff1690565b6001939291565b5f925082915081908190565b9192610ae381610b5d565b81039081116109bf57610a4c93865f52610b17610b0c8360205f200165ffffffffffff90541690565b65ffffffffffff1690565b65ffffffffffff85161015610b2d575091610a41565b929150610b39906109c4565b90610a41565b8115610b49570490565b634e487b7160e01b5f52601260045260245ffd5b8015610c965780610c2f610c28610c1e610c14610c0a610c00610bf6610bec600161017f9a5f908b60801c80610c8a575b508060401c80610c7d575b508060201c80610c70575b508060101c80610c63575b508060081c80610c56575b508060041c80610c49575b508060021c80610c3c575b50821c610c35575b811c1b610be5818b610b3f565b0160011c90565b610be5818a610b3f565b610be58189610b3f565b610be58188610b3f565b610be58187610b3f565b610be58186610b3f565b610be58185610b3f565b8092610b3f565b90610cfa565b8101610bd8565b600291509101905f610bd0565b600491509101905f610bc5565b600891509101905f610bba565b601091509101905f610baf565b602091509101905f610ba4565b604091509101905f610b99565b9150506080905f610b8e565b505f90565b91905b838210610cab5750505090565b9091928083169080841860011c82018092116109bf57845f5265ffffffffffff808360205f20015416908416105f14610ce85750925b9190610c9e565b939250610cf4906109c4565b91610ce1565b9080821015610d07575090565b90509056fea2646970667358221220decaf9c6886c9523b8d769a768e4e2372f4255cd6d7b48f98860aad5a6dd72a064736f6c63430008190033","linkReferences":{}},"methodIdentifiers":{"BASE_DELEGATOR_HINTS()":"79d89614","VAULT_HINTS()":"45e78fcb","hook()":"7f5a7c7b","maxNetworkLimit(bytes32)":"d15b740e","networkLimitHint(address,bytes32,uint48)":"da749d2b","networkLimitHintInternal(bytes32,uint48)":"197aa7ea","operatorNetworkLimitHint(address,bytes32,address,uint48)":"10a28b5d","operatorNetworkLimitHintInternal(bytes32,address,uint48)":"f7b05547","stakeHints(address,bytes32,address,uint48)":"25dc9708","vault()":"fbfa77cf"},"id":98}