{"abi":[{"type":"constructor","inputs":[{"name":"baseDelegatorHints","type":"address","internalType":"address"},{"name":"vaultHints","type":"address","internalType":"address"}],"stateMutability":"nonpayable"},{"type":"function","name":"BASE_DELEGATOR_HINTS","inputs":[],"outputs":[{"name":"","type":"address","internalType":"address"}],"stateMutability":"view"},{"type":"function","name":"VAULT_HINTS","inputs":[],"outputs":[{"name":"","type":"address","internalType":"address"}],"stateMutability":"view"},{"type":"function","name":"hook","inputs":[],"outputs":[{"name":"","type":"address","internalType":"address"}],"stateMutability":"view"},{"type":"function","name":"maxNetworkLimit","inputs":[{"name":"subnetwork","type":"bytes32","internalType":"bytes32"}],"outputs":[{"name":"value","type":"uint256","internalType":"uint256"}],"stateMutability":"view"},{"type":"function","name":"networkLimitHint","inputs":[{"name":"delegator","type":"address","internalType":"address"},{"name":"subnetwork","type":"bytes32","internalType":"bytes32"},{"name":"timestamp","type":"uint48","internalType":"uint48"}],"outputs":[{"name":"hint","type":"bytes","internalType":"bytes"}],"stateMutability":"view"},{"type":"function","name":"networkLimitHintInternal","inputs":[{"name":"subnetwork","type":"bytes32","internalType":"bytes32"},{"name":"timestamp","type":"uint48","internalType":"uint48"}],"outputs":[{"name":"exists","type":"bool","internalType":"bool"},{"name":"hint","type":"uint32","internalType":"uint32"}],"stateMutability":"view"},{"type":"function","name":"operatorNetworkSharesHint","inputs":[{"name":"delegator","type":"address","internalType":"address"},{"name":"subnetwork","type":"bytes32","internalType":"bytes32"},{"name":"operator","type":"address","internalType":"address"},{"name":"timestamp","type":"uint48","internalType":"uint48"}],"outputs":[{"name":"hint","type":"bytes","internalType":"bytes"}],"stateMutability":"view"},{"type":"function","name":"operatorNetworkSharesHintInternal","inputs":[{"name":"subnetwork","type":"bytes32","internalType":"bytes32"},{"name":"operator","type":"address","internalType":"address"},{"name":"timestamp","type":"uint48","internalType":"uint48"}],"outputs":[{"name":"exists","type":"bool","internalType":"bool"},{"name":"hint","type":"uint32","internalType":"uint32"}],"stateMutability":"view"},{"type":"function","name":"stakeHints","inputs":[{"name":"delegator","type":"address","internalType":"address"},{"name":"subnetwork","type":"bytes32","internalType":"bytes32"},{"name":"operator","type":"address","internalType":"address"},{"name":"timestamp","type":"uint48","internalType":"uint48"}],"outputs":[{"name":"hints","type":"bytes","internalType":"bytes"}],"stateMutability":"view"},{"type":"function","name":"totalOperatorNetworkSharesHint","inputs":[{"name":"delegator","type":"address","internalType":"address"},{"name":"subnetwork","type":"bytes32","internalType":"bytes32"},{"name":"timestamp","type":"uint48","internalType":"uint48"}],"outputs":[{"name":"hint","type":"bytes","internalType":"bytes"}],"stateMutability":"view"},{"type":"function","name":"totalOperatorNetworkSharesHintInternal","inputs":[{"name":"subnetwork","type":"bytes32","internalType":"bytes32"},{"name":"timestamp","type":"uint48","internalType":"uint48"}],"outputs":[{"name":"exists","type":"bool","internalType":"bool"},{"name":"hint","type":"uint32","internalType":"uint32"}],"stateMutability":"view"},{"type":"function","name":"vault","inputs":[],"outputs":[{"name":"","type":"address","internalType":"address"}],"stateMutability":"view"},{"type":"error","name":"ExternalCall","inputs":[]}],"bytecode":{"object":"0x60e0346100a357601f610f3138819003918201601f19168301916001600160401b038311848410176100a75780849260409485528339810103126100a357610052602061004b836100bb565b92016100bb565b903060805260a05260c052604051610e6190816100d082396080518181816101df015281816105a40152610698015260a0518181816102ad015261051d015260c05181818161034c01526104d90152f35b5f80fd5b634e487b7160e01b5f52604160045260245ffd5b51906001600160a01b03821682036100a35756fe60806040526004361015610011575f80fd5b5f3560e01c806307f9d5fd146100d4578063197aa7ea146100cf57806325dc9708146100ca57806345e78fcb146100c557806379d89614146100c05780637f5a7c7b146100bb578063987b3ee8146100b6578063b549ef1f146100b1578063d15b740e146100ac578063da749d2b146100a7578063ed4d89e5146100a25763fbfa77cf1461009d575f80fd5b6106dd565b61067d565b610663565b610639565b61061f565b610574565b61054c565b610508565b6104c4565b610253565b6101c4565b61018f565b6001600160a01b038116036100ea57565b5f80fd5b6024359065ffffffffffff821682036100ea57565b6044359065ffffffffffff821682036100ea57565b60809060031901126100ea57600435610130816100d9565b9060243590604435610141816100d9565b9060643565ffffffffffff811681036100ea5790565b805180835260209291819084018484015e5f828201840152601f01601f1916010190565b90602061018c928181520190610157565b90565b346100ea576101c06101ac6101a336610118565b929190916107ae565b604051918291602083526020830190610157565b0390f35b346100ea5760403660031901126100ea576101dd6100ee565b7f00000000000000000000000000000000000000000000000000000000000000006001600160a01b0316330361024157610224906004355f52600360205260405f20610b4f565b60408051941515855263ffffffff91909116602085015292915050f35b604051637ca475e560e11b8152600490fd5b346100ea5761026136610118565b60408051630df8851f60e11b81526001600160a01b03868116600483015260248201869052848116604483015265ffffffffffff84166064830152956060949293919290915f846084817f00000000000000000000000000000000000000000000000000000000000000008c165afa938415610474575f946104a8575b50845163fbfa77cf60e01b8152602081600481878d165afa90811561047457610348995f9284928491610479575b50885163192c0ff760e21b81526001600160a01b03909116600482015265ffffffffffff909216602483015290998a9190829081906044820190565b03917f0000000000000000000000000000000000000000000000000000000000000000165afa968715610474576101c0985f9861044a575b50908161039d82610395816103a396896109b2565b9583886107ae565b94610968565b90835115801590610440575b8015610436575b801561042c575b8015610422575b6103d4575b84518089888261017b565b61040a955061041894966103e6610834565b948552602085015286840152606083015260808201528351928391602083016108eb565b03601f198101835282610755565b815f8080806103c9565b50815115156103c4565b50825115156103bd565b50805115156103b6565b50865115156103af565b6103a39291985061046c903d805f833e6104648183610755565b8101906108a5565b979091610380565b6108cb565b61049b915060203d6020116104a1575b6104938183610755565b8101906108d6565b5f61030c565b503d610489565b6104bd9194503d805f833e6104648183610755565b925f6102de565b346100ea575f3660031901126100ea576040517f00000000000000000000000000000000000000000000000000000000000000006001600160a01b03168152602090f35b346100ea575f3660031901126100ea576040517f00000000000000000000000000000000000000000000000000000000000000006001600160a01b03168152602090f35b346100ea575f3660031901126100ea576001546040516001600160a01b039091168152602090f35b346100ea5760603660031901126100ea57602435610591816100d9565b610599610103565b6001600160a01b03917f00000000000000000000000000000000000000000000000000000000000000008316330361024157610224926004355f52600560205260405f2091165f5260205260405f20610b4f565b60609060031901126100ea57600435610605816100d9565b906024359060443565ffffffffffff811681036100ea5790565b346100ea576101c06101ac610633366105ed565b91610968565b346100ea5760203660031901126100ea576004355f526002602052602060405f2054604051908152f35b346100ea576101c06101ac610677366105ed565b916109b2565b346100ea5760403660031901126100ea576106966100ee565b7f00000000000000000000000000000000000000000000000000000000000000006001600160a01b0316330361024157610224906004355f52600460205260405f20610b4f565b346100ea575f3660031901126100ea575f546040516001600160a01b039091168152602090f35b634e487b7160e01b5f52604160045260245ffd5b60a0810190811067ffffffffffffffff82111761073457604052565b610704565b6040810190811067ffffffffffffffff82111761073457604052565b90601f8019910116810190811067ffffffffffffffff82111761073457604052565b519081151582036100ea57565b91908260409103126100ea57602061079b83610777565b92015163ffffffff811681036100ea5790565b906107fe9165ffffffffffff61080d9496956060976040519463130f67dd60e31b6020870152602486015260018060a01b03166044850152166064830152606482526107f982610718565b610a27565b60208082518301019101610784565b906108155750565b90915063ffffffff604051911660208201526020815261018c81610739565b6040519061084182610718565b565b67ffffffffffffffff811161073457601f01601f191660200190565b81601f820112156100ea5780519061087682610843565b926108846040519485610755565b828452602083830101116100ea57815f9260208093018386015e8301015290565b906020828203126100ea57815167ffffffffffffffff81116100ea5761018c920161085f565b6040513d5f823e3d90fd5b908160209103126100ea575161018c816100d9565b9061018c916020815261090a825160a0602084015260c0830190610157565b9060a06080610958610945610931602088015196601f199788888303016040890152610157565b604088015187878303016060880152610157565b6060870151868683030184870152610157565b9401519282850301910152610157565b60405163ed4d89e560e01b6020820152602481019290925265ffffffffffff90921660448201526060929161080d916107fe916107f982606481015b03601f198101845283610755565b604051630cbd53f560e11b6020820152602481019290925265ffffffffffff90921660448201526060929161080d916107fe916107f982606481016109a4565b9190916040818403126100ea57610a0881610777565b92602082015167ffffffffffffffff81116100ea5761018c920161085f565b5f91908291604051610a5c8161040a6020820194639f86fd8560e01b8652306024840152604060448401526064830190610157565b51915afa503d15610ab257610a9b3d610a7481610843565b90610a826040519283610755565b81523d5f602083013e5b602080825183010191016109f2565b9015610aa45790565b80519081156100ea57602001fd5b610a9b6060610a8c565b634e487b7160e01b5f52601160045260245ffd5b5f19810191908211610ade57565b610abc565b9060018201809211610ade57565b906040516040810181811067ffffffffffffffff82111761073457604052915465ffffffffffff8116835260301c6020830152565b8054821015610b3b575f5260205f2001905f90565b634e487b7160e01b5f52603260045260245ffd5b91908254905f829160058411610bf7575b610b6b935085610dba565b908115610beb57610be4610bdb610bd5610bcb610b9d610b98610b8d88610ad0565b895f5260205f200190565b610af1565b966001610bc46020610bb58b5165ffffffffffff1690565b9a01516001600160d01b031690565b9101610b26565b90549060031b1c90565b93610ad0565b63ffffffff1690565b6001939291565b5f925082915081908190565b9192610c0281610c7c565b8103908111610ade57610b6b93865f52610c36610c2b8360205f200165ffffffffffff90541690565b65ffffffffffff1690565b65ffffffffffff85161015610c4c575091610b60565b929150610c5890610ae3565b90610b60565b8115610c68570490565b634e487b7160e01b5f52601260045260245ffd5b8015610db55780610d4e610d47610d3d610d33610d29610d1f610d15610d0b600161018c9a5f908b60801c80610da9575b508060401c80610d9c575b508060201c80610d8f575b508060101c80610d82575b508060081c80610d75575b508060041c80610d68575b508060021c80610d5b575b50821c610d54575b811c1b610d04818b610c5e565b0160011c90565b610d04818a610c5e565b610d048189610c5e565b610d048188610c5e565b610d048187610c5e565b610d048186610c5e565b610d048185610c5e565b8092610c5e565b90610e19565b8101610cf7565b600291509101905f610cef565b600491509101905f610ce4565b600891509101905f610cd9565b601091509101905f610cce565b602091509101905f610cc3565b604091509101905f610cb8565b9150506080905f610cad565b505f90565b91905b838210610dca5750505090565b9091928083169080841860011c8201809211610ade57845f5265ffffffffffff808360205f20015416908416105f14610e075750925b9190610dbd565b939250610e1390610ae3565b91610e00565b9080821015610e26575090565b90509056fea2646970667358221220bcb80521673d2d65863837199442ffaf6f722408ba26c0f4b58f31f24333862b64736f6c63430008190033","linkReferences":{}},"methodIdentifiers":{"BASE_DELEGATOR_HINTS()":"79d89614","VAULT_HINTS()":"45e78fcb","hook()":"7f5a7c7b","maxNetworkLimit(bytes32)":"d15b740e","networkLimitHint(address,bytes32,uint48)":"da749d2b","networkLimitHintInternal(bytes32,uint48)":"197aa7ea","operatorNetworkSharesHint(address,bytes32,address,uint48)":"07f9d5fd","operatorNetworkSharesHintInternal(bytes32,address,uint48)":"987b3ee8","stakeHints(address,bytes32,address,uint48)":"25dc9708","totalOperatorNetworkSharesHint(address,bytes32,uint48)":"b549ef1f","totalOperatorNetworkSharesHintInternal(bytes32,uint48)":"ed4d89e5","vault()":"fbfa77cf"},"id":98}