{"abi":[{"type":"constructor","inputs":[{"name":"baseDelegatorHints","type":"address","internalType":"address"},{"name":"vaultHints","type":"address","internalType":"address"},{"name":"optInServiceHints","type":"address","internalType":"address"}],"stateMutability":"nonpayable"},{"type":"function","name":"BASE_DELEGATOR_HINTS","inputs":[],"outputs":[{"name":"","type":"address","internalType":"address"}],"stateMutability":"view"},{"type":"function","name":"DEFAULT_ADMIN_ROLE","inputs":[],"outputs":[{"name":"","type":"bytes32","internalType":"bytes32"}],"stateMutability":"view"},{"type":"function","name":"FACTORY","inputs":[],"outputs":[{"name":"","type":"address","internalType":"address"}],"stateMutability":"view"},{"type":"function","name":"HOOK_GAS_LIMIT","inputs":[],"outputs":[{"name":"","type":"uint256","internalType":"uint256"}],"stateMutability":"view"},{"type":"function","name":"HOOK_RESERVE","inputs":[],"outputs":[{"name":"","type":"uint256","internalType":"uint256"}],"stateMutability":"view"},{"type":"function","name":"HOOK_SET_ROLE","inputs":[],"outputs":[{"name":"","type":"bytes32","internalType":"bytes32"}],"stateMutability":"view"},{"type":"function","name":"NETWORK_LIMIT_SET_ROLE","inputs":[],"outputs":[{"name":"","type":"bytes32","internalType":"bytes32"}],"stateMutability":"view"},{"type":"function","name":"NETWORK_REGISTRY","inputs":[],"outputs":[{"name":"","type":"address","internalType":"address"}],"stateMutability":"view"},{"type":"function","name":"OPERATOR_NETWORK_OPT_IN_SERVICE","inputs":[],"outputs":[{"name":"","type":"address","internalType":"address"}],"stateMutability":"view"},{"type":"function","name":"OPERATOR_NETWORK_SHARES_SET_ROLE","inputs":[],"outputs":[{"name":"","type":"bytes32","internalType":"bytes32"}],"stateMutability":"view"},{"type":"function","name":"OPERATOR_VAULT_OPT_IN_SERVICE","inputs":[],"outputs":[{"name":"","type":"address","internalType":"address"}],"stateMutability":"view"},{"type":"function","name":"OPT_IN_SERVICE_HINTS","inputs":[],"outputs":[{"name":"","type":"address","internalType":"address"}],"stateMutability":"view"},{"type":"function","name":"TYPE","inputs":[],"outputs":[{"name":"","type":"uint64","internalType":"uint64"}],"stateMutability":"view"},{"type":"function","name":"VAULT_FACTORY","inputs":[],"outputs":[{"name":"","type":"address","internalType":"address"}],"stateMutability":"view"},{"type":"function","name":"VAULT_HINTS","inputs":[],"outputs":[{"name":"","type":"address","internalType":"address"}],"stateMutability":"view"},{"type":"function","name":"VERSION","inputs":[],"outputs":[{"name":"","type":"uint64","internalType":"uint64"}],"stateMutability":"pure"},{"type":"function","name":"getRoleAdmin","inputs":[{"name":"role","type":"bytes32","internalType":"bytes32"}],"outputs":[{"name":"","type":"bytes32","internalType":"bytes32"}],"stateMutability":"view"},{"type":"function","name":"grantRole","inputs":[{"name":"role","type":"bytes32","internalType":"bytes32"},{"name":"account","type":"address","internalType":"address"}],"outputs":[],"stateMutability":"nonpayable"},{"type":"function","name":"hasRole","inputs":[{"name":"role","type":"bytes32","internalType":"bytes32"},{"name":"account","type":"address","internalType":"address"}],"outputs":[{"name":"","type":"bool","internalType":"bool"}],"stateMutability":"view"},{"type":"function","name":"hook","inputs":[],"outputs":[{"name":"","type":"address","internalType":"address"}],"stateMutability":"view"},{"type":"function","name":"initialize","inputs":[{"name":"data","type":"bytes","internalType":"bytes"}],"outputs":[],"stateMutability":"nonpayable"},{"type":"function","name":"maxNetworkLimit","inputs":[{"name":"subnetwork","type":"bytes32","internalType":"bytes32"}],"outputs":[{"name":"value","type":"uint256","internalType":"uint256"}],"stateMutability":"view"},{"type":"function","name":"networkLimit","inputs":[{"name":"subnetwork","type":"bytes32","internalType":"bytes32"}],"outputs":[{"name":"","type":"uint256","internalType":"uint256"}],"stateMutability":"view"},{"type":"function","name":"networkLimitAt","inputs":[{"name":"subnetwork","type":"bytes32","internalType":"bytes32"},{"name":"timestamp","type":"uint48","internalType":"uint48"},{"name":"hint","type":"bytes","internalType":"bytes"}],"outputs":[{"name":"","type":"uint256","internalType":"uint256"}],"stateMutability":"view"},{"type":"function","name":"networkLimitHint","inputs":[{"name":"delegator","type":"address","internalType":"address"},{"name":"subnetwork","type":"bytes32","internalType":"bytes32"},{"name":"timestamp","type":"uint48","internalType":"uint48"}],"outputs":[{"name":"","type":"bytes","internalType":"bytes"}],"stateMutability":"view"},{"type":"function","name":"networkLimitHintInternal","inputs":[{"name":"subnetwork","type":"bytes32","internalType":"bytes32"},{"name":"timestamp","type":"uint48","internalType":"uint48"}],"outputs":[{"name":"exists","type":"bool","internalType":"bool"},{"name":"hint","type":"uint32","internalType":"uint32"}],"stateMutability":"view"},{"type":"function","name":"onSlash","inputs":[{"name":"subnetwork","type":"bytes32","internalType":"bytes32"},{"name":"operator","type":"address","internalType":"address"},{"name":"amount","type":"uint256","internalType":"uint256"},{"name":"captureTimestamp","type":"uint48","internalType":"uint48"},{"name":"data","type":"bytes","internalType":"bytes"}],"outputs":[],"stateMutability":"nonpayable"},{"type":"function","name":"operatorNetworkShares","inputs":[{"name":"subnetwork","type":"bytes32","internalType":"bytes32"},{"name":"operator","type":"address","internalType":"address"}],"outputs":[{"name":"","type":"uint256","internalType":"uint256"}],"stateMutability":"view"},{"type":"function","name":"operatorNetworkSharesAt","inputs":[{"name":"subnetwork","type":"bytes32","internalType":"bytes32"},{"name":"operator","type":"address","internalType":"address"},{"name":"timestamp","type":"uint48","internalType":"uint48"},{"name":"hint","type":"bytes","internalType":"bytes"}],"outputs":[{"name":"","type":"uint256","internalType":"uint256"}],"stateMutability":"view"},{"type":"function","name":"operatorNetworkSharesHint","inputs":[{"name":"delegator","type":"address","internalType":"address"},{"name":"subnetwork","type":"bytes32","internalType":"bytes32"},{"name":"operator","type":"address","internalType":"address"},{"name":"timestamp","type":"uint48","internalType":"uint48"}],"outputs":[{"name":"","type":"bytes","internalType":"bytes"}],"stateMutability":"view"},{"type":"function","name":"operatorNetworkSharesHintInternal","inputs":[{"name":"subnetwork","type":"bytes32","internalType":"bytes32"},{"name":"operator","type":"address","internalType":"address"},{"name":"timestamp","type":"uint48","internalType":"uint48"}],"outputs":[{"name":"exists","type":"bool","internalType":"bool"},{"name":"hint","type":"uint32","internalType":"uint32"}],"stateMutability":"view"},{"type":"function","name":"renounceRole","inputs":[{"name":"role","type":"bytes32","internalType":"bytes32"},{"name":"callerConfirmation","type":"address","internalType":"address"}],"outputs":[],"stateMutability":"nonpayable"},{"type":"function","name":"revokeRole","inputs":[{"name":"role","type":"bytes32","internalType":"bytes32"},{"name":"account","type":"address","internalType":"address"}],"outputs":[],"stateMutability":"nonpayable"},{"type":"function","name":"setHook","inputs":[{"name":"hook_","type":"address","internalType":"address"}],"outputs":[],"stateMutability":"nonpayable"},{"type":"function","name":"setMaxNetworkLimit","inputs":[{"name":"identifier","type":"uint96","internalType":"uint96"},{"name":"amount","type":"uint256","internalType":"uint256"}],"outputs":[],"stateMutability":"nonpayable"},{"type":"function","name":"setNetworkLimit","inputs":[{"name":"subnetwork","type":"bytes32","internalType":"bytes32"},{"name":"amount","type":"uint256","internalType":"uint256"}],"outputs":[],"stateMutability":"nonpayable"},{"type":"function","name":"setOperatorNetworkShares","inputs":[{"name":"subnetwork","type":"bytes32","internalType":"bytes32"},{"name":"operator","type":"address","internalType":"address"},{"name":"shares","type":"uint256","internalType":"uint256"}],"outputs":[],"stateMutability":"nonpayable"},{"type":"function","name":"stake","inputs":[{"name":"subnetwork","type":"bytes32","internalType":"bytes32"},{"name":"operator","type":"address","internalType":"address"}],"outputs":[{"name":"","type":"uint256","internalType":"uint256"}],"stateMutability":"view"},{"type":"function","name":"stakeAt","inputs":[{"name":"subnetwork","type":"bytes32","internalType":"bytes32"},{"name":"operator","type":"address","internalType":"address"},{"name":"timestamp","type":"uint48","internalType":"uint48"},{"name":"hints","type":"bytes","internalType":"bytes"}],"outputs":[{"name":"","type":"uint256","internalType":"uint256"}],"stateMutability":"view"},{"type":"function","name":"stakeHints","inputs":[{"name":"delegator","type":"address","internalType":"address"},{"name":"subnetwork","type":"bytes32","internalType":"bytes32"},{"name":"operator","type":"address","internalType":"address"},{"name":"timestamp","type":"uint48","internalType":"uint48"}],"outputs":[{"name":"","type":"bytes","internalType":"bytes"}],"stateMutability":"view"},{"type":"function","name":"staticDelegateCall","inputs":[{"name":"target","type":"address","internalType":"address"},{"name":"data","type":"bytes","internalType":"bytes"}],"outputs":[],"stateMutability":"nonpayable"},{"type":"function","name":"supportsInterface","inputs":[{"name":"interfaceId","type":"bytes4","internalType":"bytes4"}],"outputs":[{"name":"","type":"bool","internalType":"bool"}],"stateMutability":"view"},{"type":"function","name":"totalOperatorNetworkShares","inputs":[{"name":"subnetwork","type":"bytes32","internalType":"bytes32"}],"outputs":[{"name":"","type":"uint256","internalType":"uint256"}],"stateMutability":"view"},{"type":"function","name":"totalOperatorNetworkSharesAt","inputs":[{"name":"subnetwork","type":"bytes32","internalType":"bytes32"},{"name":"timestamp","type":"uint48","internalType":"uint48"},{"name":"hint","type":"bytes","internalType":"bytes"}],"outputs":[{"name":"","type":"uint256","internalType":"uint256"}],"stateMutability":"view"},{"type":"function","name":"totalOperatorNetworkSharesHint","inputs":[{"name":"delegator","type":"address","internalType":"address"},{"name":"subnetwork","type":"bytes32","internalType":"bytes32"},{"name":"timestamp","type":"uint48","internalType":"uint48"}],"outputs":[{"name":"","type":"bytes","internalType":"bytes"}],"stateMutability":"view"},{"type":"function","name":"totalOperatorNetworkSharesHintInternal","inputs":[{"name":"subnetwork","type":"bytes32","internalType":"bytes32"},{"name":"timestamp","type":"uint48","internalType":"uint48"}],"outputs":[{"name":"exists","type":"bool","internalType":"bool"},{"name":"hint","type":"uint32","internalType":"uint32"}],"stateMutability":"view"},{"type":"function","name":"vault","inputs":[],"outputs":[{"name":"","type":"address","internalType":"address"}],"stateMutability":"view"},{"type":"event","name":"Initialized","inputs":[{"name":"version","type":"uint64","indexed":false,"internalType":"uint64"}],"anonymous":false},{"type":"event","name":"OnSlash","inputs":[{"name":"subnetwork","type":"bytes32","indexed":true,"internalType":"bytes32"},{"name":"operator","type":"address","indexed":true,"internalType":"address"},{"name":"amount","type":"uint256","indexed":false,"internalType":"uint256"},{"name":"captureTimestamp","type":"uint48","indexed":false,"internalType":"uint48"}],"anonymous":false},{"type":"event","name":"RoleAdminChanged","inputs":[{"name":"role","type":"bytes32","indexed":true,"internalType":"bytes32"},{"name":"previousAdminRole","type":"bytes32","indexed":true,"internalType":"bytes32"},{"name":"newAdminRole","type":"bytes32","indexed":true,"internalType":"bytes32"}],"anonymous":false},{"type":"event","name":"RoleGranted","inputs":[{"name":"role","type":"bytes32","indexed":true,"internalType":"bytes32"},{"name":"account","type":"address","indexed":true,"internalType":"address"},{"name":"sender","type":"address","indexed":true,"internalType":"address"}],"anonymous":false},{"type":"event","name":"RoleRevoked","inputs":[{"name":"role","type":"bytes32","indexed":true,"internalType":"bytes32"},{"name":"account","type":"address","indexed":true,"internalType":"address"},{"name":"sender","type":"address","indexed":true,"internalType":"address"}],"anonymous":false},{"type":"event","name":"SetHook","inputs":[{"name":"hook","type":"address","indexed":true,"internalType":"address"}],"anonymous":false},{"type":"event","name":"SetMaxNetworkLimit","inputs":[{"name":"subnetwork","type":"bytes32","indexed":true,"internalType":"bytes32"},{"name":"amount","type":"uint256","indexed":false,"internalType":"uint256"}],"anonymous":false},{"type":"event","name":"SetNetworkLimit","inputs":[{"name":"subnetwork","type":"bytes32","indexed":true,"internalType":"bytes32"},{"name":"amount","type":"uint256","indexed":false,"internalType":"uint256"}],"anonymous":false},{"type":"event","name":"SetOperatorNetworkShares","inputs":[{"name":"subnetwork","type":"bytes32","indexed":true,"internalType":"bytes32"},{"name":"operator","type":"address","indexed":true,"internalType":"address"},{"name":"shares","type":"uint256","indexed":false,"internalType":"uint256"}],"anonymous":false},{"type":"error","name":"AccessControlBadConfirmation","inputs":[]},{"type":"error","name":"AccessControlUnauthorizedAccount","inputs":[{"name":"account","type":"address","internalType":"address"},{"name":"neededRole","type":"bytes32","internalType":"bytes32"}]},{"type":"error","name":"AlreadySet","inputs":[]},{"type":"error","name":"CheckpointUnorderedInsertion","inputs":[]},{"type":"error","name":"DuplicateRoleHolder","inputs":[]},{"type":"error","name":"ExceedsMaxNetworkLimit","inputs":[]},{"type":"error","name":"ExternalCall","inputs":[]},{"type":"error","name":"InsufficientHookGas","inputs":[]},{"type":"error","name":"InvalidInitialization","inputs":[]},{"type":"error","name":"MissingRoleHolders","inputs":[]},{"type":"error","name":"NotInitialized","inputs":[]},{"type":"error","name":"NotInitializing","inputs":[]},{"type":"error","name":"NotNetwork","inputs":[]},{"type":"error","name":"NotSlasher","inputs":[]},{"type":"error","name":"NotVault","inputs":[]},{"type":"error","name":"ReentrancyGuardReentrantCall","inputs":[]},{"type":"error","name":"SafeCastOverflowedUintDowncast","inputs":[{"name":"bits","type":"uint8","internalType":"uint8"},{"name":"value","type":"uint256","internalType":"uint256"}]},{"type":"error","name":"ZeroAddressRoleHolder","inputs":[]}],"bytecode":{"object":"0x6101c0346101cf57601f61389438819003918201601f19168301916001600160401b0391828411858510176101d35781606092869260409687528339810103126101cf5761004c836101e7565b926100648361005d602084016101e7565b92016101e7565b91306080527ff0c57e16840df040f15088dc2f81fe391c3923bec73e23a9662efc9c229c6a009081549060ff82871c166101be57808083160361017a575b5050505f60a0525f60c0525f60e052610100935f8552610120935f8552610140905f82526101609283526101809384526101a0948552519461369896876101fc88396080518781816105a001528181610fd70152611629015260a051876109e9015260c051876112ac015260e05187818161084b01526112e5015251868181610512015261298501525185818161055601528181611e330152611f3b0152518481816107c901528181611d9a0152611fb9015251838181610e95015261194d015251828181610d9701526119ee015251816110490152f35b6001600160401b0319909116811790915583519081527fc7f505b2f371ae2175ee4913f4499e1f2633a7b5936321eed1cdaeb6115181d290602090a15f80806100a2565b855163f92ee8a960e01b8152600490fd5b5f80fd5b634e487b7160e01b5f52604160045260245ffd5b51906001600160a01b03821682036101cf5756fe60806040526004361015610011575f80fd5b5f3560e01c806301ffc9a71461030457806302145348146102ff57806307f9d5fd146102fa578063103f2907146102f5578063128e5d82146102f0578063197aa7ea146102eb5780631a7a7044146102e65780631a80e500146102e157806323f752d5146102dc578063248a9ca3146102d757806325dc9708146102d25780632dd31000146102cd5780632f2ff15d146102c857806336568abe146102c35780633dfd3873146102be5780633eb22c0f146102b957806342c53e33146102b4578063439fab91146102af57806345e78fcb146102aa578063557cab44146102a55780635d32a1c9146102a05780636679191e1461029b57806379d89614146102965780637d24bb27146102915780637f5a7c7b1461028c5780638b3f10b01461028757806391d1485414610282578063987b3ee81461027d5780639b656b22146102785780639f86fd8514610273578063a217fddf1461026e578063a33bc28714610269578063b549ef1f14610264578063bb24fe8a1461025f578063c0cd7c3e1461025a578063c43dc03f14610255578063d15b740e14610250578063d547741f1461024b578063da749d2b14610246578063e02f693714610241578063e49561ee1461023c578063e78eb6ae14610237578063ed4d89e514610232578063fbfa77cf1461022d578063fd4d447c14610228578063ff54740f146102235763ffa1ad741461021e575f80fd5b6116dc565b6116bf565b611695565b61166e565b61160e565b6115d4565b6113e9565b6113cd565b6113b3565b611367565b61133d565b611314565b6112d0565b61128d565b611273565b611126565b61110c565b611078565b611034565b610fa6565b610f48565b610f25565b610efd565b610ec4565b610e80565b610e46565b610e23565b610dc6565b610d82565b610c4a565b610bd1565b610ba8565b610aaf565b610a64565b610a18565b6109d4565b6109b7565b61097e565b6107f8565b6107b4565b61076e565b610585565b610541565b6104fd565b6104c8565b61035e565b3461035a57602036600319011261035a5760043563ffffffff60e01b811680910361035a57602090637965db0b60e01b8114908115610349575b506040519015158152f35b6301ffc9a760e01b1490505f61033e565b5f80fd5b3461035a5760408060031936011261035a57600435906024359061038061202e565b825f526002602052805f2054821161041a57825f526003602052816103a6825f206128d7565b1461040a5781610405916103f57e899d104fc3d8820bd96540612bcc5c448c8837b13b9f7faa43ad0728f0c14f946103e6875f52600360205260405f2090565b6103ef42612d8e565b90612176565b5050519081529081906020820190565b0390a2005b5163a741a04560e01b8152600490fd5b51631eefc06360e31b8152600490fd5b6001600160a01b0381160361035a57565b6024359065ffffffffffff8216820361035a57565b6064359065ffffffffffff8216820361035a57565b608090600319011261035a5760043561047d8161042a565b906024359060443561048e8161042a565b9060643565ffffffffffff8116810361035a5790565b805180835260209291819084018484015e5f828201840152601f01601f1916010190565b3461035a576104f96104e56104dc36610465565b92919091611736565b6040519182916020835260208301906104a4565b0390f35b3461035a575f36600319011261035a576040517f00000000000000000000000000000000000000000000000000000000000000006001600160a01b03168152602090f35b3461035a575f36600319011261035a576040517f00000000000000000000000000000000000000000000000000000000000000006001600160a01b03168152602090f35b3461035a57604036600319011261035a5761059e61043b565b7f00000000000000000000000000000000000000000000000000000000000000006001600160a01b03163303610602576105e5906004355f52600360205260405f206122f5565b60408051941515855263ffffffff91909116602085015292915050f35b604051637ca475e560e11b8152600490fd5b634e487b7160e01b5f52604160045260245ffd5b604081019081106001600160401b0382111761064357604052565b610614565b606081019081106001600160401b0382111761064357604052565b60a081019081106001600160401b0382111761064357604052565b90601f801991011681019081106001600160401b0382111761064357604052565b604051906106ac82610663565b565b604051906106ac82610628565b6001600160401b03811161064357601f01601f191660200190565b81601f8201121561035a578035906106ed826106bb565b926106fb604051948561067e565b8284526020838301011161035a57815f926020809301838601378301015290565b90608060031983011261035a57600435916024356107398161042a565b9160443565ffffffffffff8116810361035a5791606435906001600160401b03821161035a5761076b916004016106d6565b90565b3461035a5760206107ac6107a76107843661071c565b939190925f526005865260405f209060018060a01b03165f5260205260405f2090565b61242d565b604051908152f35b3461035a575f36600319011261035a576040517f00000000000000000000000000000000000000000000000000000000000000006001600160a01b03168152602090f35b3461035a57604036600319011261035a576004356001600160601b038116810361035a5760243590610828612505565b6040516302910f8b60e31b81523360048201526020816024816001600160a01b037f0000000000000000000000000000000000000000000000000000000000000000165afa908115610979575f9161094a575b5015610938576001600160601b03166bffffffffffffffffffffffff193360601b161790806108b2835f52600260205260405f2090565b54146109265761090b817fc67e7929681aa1bccd63f52b3799bf5805f3009f197db6fdf584b14f7fbf608c926108f0855f52600260205260405f2090565b556108fb8185612534565b6040519081529081906020820190565b0390a261092460015f8051602061362383398151915255565b005b60405163a741a04560e01b8152600490fd5b6040516323d53b9760e21b8152600490fd5b61096c915060203d602011610972575b610964818361067e565b8101906117e8565b5f61087b565b503d61095a565b6117fc565b3461035a57602036600319011261035a576004355f525f805160206136038339815191526020526020600160405f200154604051908152f35b3461035a576104f96104e56109cb36610465565b92919091611904565b3461035a575f36600319011261035a576040517f00000000000000000000000000000000000000000000000000000000000000006001600160a01b03168152602090f35b3461035a57604036600319011261035a57610924602435600435610a3b8261042a565b805f525f80516020613603833981519152602052610a5f600160405f2001546120e1565b61280f565b3461035a57604036600319011261035a57602435610a818161042a565b336001600160a01b03821603610a9d5761092490600435612845565b60405163334bd91960e11b8152600490fd5b3461035a57602036600319011261035a57600435610acc8161042a565b610ad4612505565b335f9081527f9ebbcbe0d2961d3fbe56ca6f679bc753bd848d3e6bb3eaf9041c51b286881d2c60205260409020547fd1c1f6fa6bf27d54c5e54c7c1dc6e5004d3c027ea1994fe68b29c1b51b69c36c9060ff1615610b8a57506001546001600160a01b039182169181168214610926576001600160a01b03191681176001557f5bbb1d3ebb6a3ad2a0f17ff35e579a83af60604d1d3c2a4c83c62adecadf666d5f80a260015f8051602061362383398151915255005b6044906040519063e2517d3f60e01b82523360048301526024820152fd5b3461035a57602036600319011261035a576004355f52600360205260206107ac60405f206128d7565b3461035a57604036600319011261035a5760206107ac610c18602435610bf68161042a565b6004355f526005845260405f209060018060a01b03165f5260205260405f2090565b6128d7565b9181601f8401121561035a578235916001600160401b03831161035a576020838186019501011161035a57565b3461035a57602036600319011261035a576001600160401b0360043581811161035a57610c7b903690600401610c1d565b5f80516020613643833981519152549260ff8460401c1615931680159081610d7a575b6001149081610d70575b159081610d67575b50610d55575f80516020613643833981519152805467ffffffffffffffff19166001179055610ce39183610d3157612950565b610ce957005b5f80516020613643833981519152805460ff60401b19169055604051600181527fc7f505b2f371ae2175ee4913f4499e1f2633a7b5936321eed1cdaeb6115181d290602090a1005b5f80516020613643833981519152805460ff60401b1916600160401b179055612950565b60405163f92ee8a960e01b8152600490fd5b9050155f610cb0565b303b159150610ca8565b849150610c9e565b3461035a575f36600319011261035a576040517f00000000000000000000000000000000000000000000000000000000000000006001600160a01b03168152602090f35b3461035a575f36600319011261035a576020604051614e208152f35b606060031982011261035a576004359160243565ffffffffffff8116810361035a5791604435906001600160401b03821161035a5761076b916004016106d6565b3461035a5760206107ac610e3636610de2565b915f526003845260405f2061242d565b3461035a575f36600319011261035a5760206040517fd1c1f6fa6bf27d54c5e54c7c1dc6e5004d3c027ea1994fe68b29c1b51b69c36c8152f35b3461035a575f36600319011261035a576040517f00000000000000000000000000000000000000000000000000000000000000006001600160a01b03168152602090f35b3461035a575f36600319011261035a5760206040517e8b9b1e5fa9cf3b14f87f435649268146305ddf689f082e5961a335b07a9abf8152f35b3461035a575f36600319011261035a576001546040516001600160a01b039091168152602090f35b3461035a5760206107ac610f3836610de2565b915f526004845260405f2061242d565b3461035a57604036600319011261035a57602060ff610f9a602435610f6c8161042a565b6004355f525f80516020613603833981519152845260405f209060018060a01b03165f5260205260405f2090565b54166040519015158152f35b3461035a57606036600319011261035a57602435610fc38161042a565b60443565ffffffffffff8116810361035a577f00000000000000000000000000000000000000000000000000000000000000006001600160a01b031633036106025761102f6105e5926004355f52600560205260405f209060018060a01b03165f5260205260405f2090565b6122f5565b3461035a575f36600319011261035a576040517f00000000000000000000000000000000000000000000000000000000000000006001600160a01b03168152602090f35b3461035a57604036600319011261035a576004356110958161042a565b6024356001600160401b03811161035a575f916110b783923690600401610c1d565b90816040519283928337810184815203915af46111046110d5611b60565b916110f66040519384921515602084015260408084015260608301906104a4565b03601f19810183528261067e565b805190602001fd5b3461035a575f36600319011261035a5760206040515f8152f35b3461035a57606036600319011261035a576024356004356111468261042a565b6044359161115261208a565b5f8281526005602090815260408083206001600160a01b0385168452909152902061117c906128d7565b838114610926577f739a5a3ec0ff71e2386d0013deac5f44e0935a98def2e2a5ddf9a709518c8294916111ef61123c92855f52600460205260405f20906111e9886111e46111c942612d8e565b936111df610c188c5f52600460205260405f2090565b611bb6565b611bd1565b91612176565b5050611220856103e68361120b885f52600560205260405f2090565b9060018060a01b03165f5260205260405f2090565b50506040519485526001600160a01b0316939081906020820190565b0390a3005b606090600319011261035a576004356112598161042a565b906024359060443565ffffffffffff8116810361035a5790565b3461035a576104f96104e561128736611241565b91611bde565b3461035a575f36600319011261035a5760206040516001600160401b037f0000000000000000000000000000000000000000000000000000000000000000168152f35b3461035a575f36600319011261035a576040517f00000000000000000000000000000000000000000000000000000000000000006001600160a01b03168152602090f35b3461035a57602036600319011261035a576004355f52600460205260206107ac60405f206128d7565b3461035a57602036600319011261035a576004355f526002602052602060405f2054604051908152f35b3461035a57604036600319011261035a5761092460243560043561138a8261042a565b805f525f805160206136038339815191526020526113ae600160405f2001546120e1565b612845565b3461035a576104f96104e56113c736611241565b91611c28565b3461035a5760206107ac6113e03661071c565b92919091611d24565b3461035a5760a036600319011261035a576024356004356114098261042a565b60443591611415610450565b90608435906001600160401b03821161035a57611437600492369084016106d6565b61143f612505565b5f5460209061146490611458906001600160a01b031681565b6001600160a01b031690565b60405163b134427160e01b815294859182905afa928315610979575f936115a3575b506001600160a01b039283163303611591576001546001600160a01b0316838116611506575b50506040805195865265ffffffffffff909316602086015216927f741a5de99085c0d660f3e4192217b0ffb0ea4e35a0480de48e857a4bc3ee36ed91819081015b0390a361092460015f8051602061362383398151915255565b90936040519461153d8661152f602082019363724ab0f760e11b8552858c898d60248701611eae565b03601f19810188528761067e565b62042e305a1061157f575f6114ed938192827f741a5de99085c0d660f3e4192217b0ffb0ea4e35a0480de48e857a4bc3ee36ed9951926203d090f150936114ac565b604051638072475160e01b8152600490fd5b60405163dabc4ad960e01b8152600490fd5b6115c691935060203d6020116115cd575b6115be818361067e565b810190611872565b915f611486565b503d6115b4565b3461035a575f36600319011261035a5760206040517f1312a1cf530e56add9be4fd84db9051dcc7635952f09f735f9a29405b55846258152f35b3461035a57604036600319011261035a5761162761043b565b7f00000000000000000000000000000000000000000000000000000000000000006001600160a01b03163303610602576105e5906004355f52600460205260405f206122f5565b3461035a575f36600319011261035a575f546040516001600160a01b039091168152602090f35b3461035a57604036600319011261035a5760206107ac6024356116b78161042a565b600435611f04565b3461035a575f36600319011261035a5760206040516203d0908152f35b3461035a575f36600319011261035a57602060405160018152f35b5190811515820361035a57565b519063ffffffff8216820361035a57565b919082604091031261035a5761076b602061172f846116f7565b9301611704565b906117869165ffffffffffff6117959496956060976040519463130f67dd60e31b6020870152602486015260018060a01b031660448501521660648301526064825261178182610663565b612238565b60208082518301019101611715565b9061179d5750565b90915063ffffffff604051911660208201526020815261076b81610628565b5f9081526005602090815260408083206001600160a01b0390941683529290522061076b92919061242d565b9081602091031261035a5761076b906116f7565b6040513d5f823e3d90fd5b81601f8201121561035a5780519061181e826106bb565b9261182c604051948561067e565b8284526020838301011161035a57815f9260208093018386015e8301015290565b9060208282031261035a5781516001600160401b03811161035a5761076b9201611807565b9081602091031261035a575161076b8161042a565b9061076b91602081526118a6825160a0602084015260c08301906104a4565b9060a060806118f46118e16118cd602088015196601f1997888883030160408901526104a4565b6040880151878783030160608801526104a4565b60608701518686830301848701526104a4565b94015192828503019101526104a4565b604051630df8851f60e11b81526001600160a01b03828116600483015260248201849052848116604483015265ffffffffffff8616606483015295606095909491935f856084817f00000000000000000000000000000000000000000000000000000000000000008c165afa948515610979575f95611b18575b5060405163fbfa77cf60e01b8152602081600481888d165afa908115610979576119ea995f9285928491611af9575b5060405163192c0ff760e21b81526001600160a01b03909116600482015265ffffffffffff909216602483015290998a9190829081906044820190565b03917f0000000000000000000000000000000000000000000000000000000000000000165afa978815610979575f98611acf575b509081611a3b82611a3381611a419689611c28565b958388611736565b94611bde565b90835115801590611ac5575b8015611abb575b8015611ab1575b8015611aa7575b611a6f5750505050909150565b6110f6955061076b9496611a8161069f565b948552602085015260408401526060830152608082015260405192839160208301611887565b5081511515611a62565b5082511515611a5b565b5080511515611a54565b5086511515611a4d565b611a4192919850611af1903d805f833e611ae9818361067e565b81019061184d565b979091611a1e565b611b12915060203d6020116115cd576115be818361067e565b5f6119ad565b611b2d9195503d805f833e611ae9818361067e565b935f61197e565b9061076b92915f52600360205260405f2061242d565b9061076b92915f52600460205260405f2061242d565b3d15611b8a573d90611b71826106bb565b91611b7f604051938461067e565b82523d5f602084013e565b606090565b634e487b7160e01b5f52601160045260245ffd5b5f19810191908211611bb157565b611b8f565b91908203918211611bb157565b9060018201809211611bb157565b91908201809211611bb157565b60405163ed4d89e560e01b6020820152602481019290925265ffffffffffff909216604482015260609291611795916117869161178182606481015b03601f19810184528361067e565b604051630cbd53f560e11b6020820152602481019290925265ffffffffffff90921660448201526060929161179591611786916117818260648101611c1a565b60405190611c7582610628565b60606020838281520152565b9060208282031261035a5781516001600160401b039283821161035a57019060408282031261035a5760405192611cb784610628565b825181811161035a5782611ccc918501611807565b8452602083015190811161035a57611ce49201611807565b602082015290565b6001600160a01b0391821681529116602082015265ffffffffffff909116604082015260806060820181905261076b929101906104a4565b92611d3490929192828486612bb5565b929093611d3f611c68565b93805180611e92575b50508415938415611dfc575b8415611d6b575b50505050611d665790565b505f90565b602080949550611d96910151604051958694859463530e1d4360e01b865260601c9060048601611cec565b03817f00000000000000000000000000000000000000000000000000000000000000006001600160a01b03165afa908115610979575f91611ddd575b50155f808080611d5b565b611df6915060203d60201161097257610964818361067e565b5f611dd2565b5f549094506001600160a01b0316602084865192611e2f604051948593849363530e1d4360e01b85528960048601611cec565b03817f00000000000000000000000000000000000000000000000000000000000000006001600160a01b03165afa908115610979575f91611e73575b501593611d54565b611e8c915060203d60201161097257610964818361067e565b5f611e6b565b611ea6929550602080918301019101611c81565b925f80611d48565b919360a09361076b969565ffffffffffff938552600180871b03166020850152604084015216606082015281608082015201906104a4565b8115611ef0570490565b634e487b7160e01b5f52601260045260245ffd5b5f546040516308834cb560e21b8082526001600160a01b0385811660048401529283166024830152929392602092909183816044817f000000000000000000000000000000000000000000000000000000000000000086165afa908115610979575f91612011575b5015918215611f8d575b50509050611f875761076b91612ccb565b50505f90565b6040519081526001600160a01b0385166004820152606086901c602482015291508290829060449082907f0000000000000000000000000000000000000000000000000000000000000000165afa918215610979575f92611ff4575b505015805f80611f76565b61200a9250803d1061097257610964818361067e565b5f80611fe9565b6120289150843d861161097257610964818361067e565b5f611f6c565b335f9081527f72a65082a5691803ab2b62c9bc729b34205ba1b183d950896526b2fd8714d0c7602052604090207e8b9b1e5fa9cf3b14f87f435649268146305ddf689f082e5961a335b07a9abf9060ff905b541615610b8a5750565b335f9081527f8f2dae99798887da307a4daa2c2d11f840b0cb9a6a67822660c531e9ad14dd00602052604090207f1312a1cf530e56add9be4fd84db9051dcc7635952f09f735f9a29405b55846259060ff90612080565b5f8181525f8051602061360383398151915260209081526040808320338452909152902060ff90612080565b634e487b7160e01b5f52603260045260245ffd5b8054821015612136575f5260205f2001905f90565b61210d565b90815491600160401b831015610643578261215e9160016106ac95018155612121565b90919082549060031b91821b915f19901b1916179055565b90929192600182019081548015612208575b508461219384612dc0565b509490928454936121a3836128d7565b96816121f3575b50156121d0575050505f198101908111611bb15761215e85916121cc93612121565b9190565b6121cc9492936121ec926001600160d01b03909116919061347b565b505061213b565b65ffffffffffff83811691161490505f6121aa565b600160401b811015610643578060016122249201845583612121565b8154905f199060031b1b191690555f612188565b5f9190829160405161226d816110f66020820194639f86fd8560e01b86523060248401526040604484015260648301906104a4565b51915afa5061227a611b60565b8051810160408282031261035a57612294602083016116f7565b916040810151916001600160401b03831161035a576122ba926020809201920101611807565b90156122c35790565b805190811561035a57602001fd5b906040516122de81610628565b915465ffffffffffff8116835260301c6020830152565b91908254905f82916005841161239d575b612311935085612f24565b9081156123915761238a61238161237b61237161234361233e61233388611ba3565b895f5260205f200190565b6122d1565b96600161236a602061235b8b5165ffffffffffff1690565b9a01516001600160d01b031690565b9101612121565b90549060031b1c90565b93611ba3565b63ffffffff1690565b6001939291565b5f925082915081908190565b91926123a881612df9565b8103908111611bb15761231193865f526123dc6123d18360205f200165ffffffffffff90541690565b65ffffffffffff1690565b65ffffffffffff851610156123f2575091612306565b9291506123fe90611bc3565b90612306565b9081602091031261035a5761076b90611704565b90600163ffffffff80931601918211611bb157565b918051156124fb578060208061244893518301019101612404565b91612453838261304b565b92612464845165ffffffffffff1690565b9065ffffffffffff80851692168281146124ef578211918261249a575b50506124915761076b9250612f7b565b50506020015190565b9091506124a78354611ba3565b63ffffffff8316149182156124c0575b50505f80612481565b6124e79192506124db6124d56123d192612418565b8561304b565b5165ffffffffffff1690565b115f806124b7565b50505050506020015190565b5061076b91612f7b565b5f8051602061362383398151915260028154146125225760029055565b604051633ee5aeb560e01b8152600490fd5b90815f52600360205260405f208161254b82612dc0565b9193905083156125a95761256b916001600160d01b031690600101612121565b90549060031b1c5b8261259f575b5050612583575050565b61259b915f52600360205260405f206103ef42612d8e565b5050565b119050815f612579565b50505f612573565b6001600160a01b0381165f9081527fb7db2dd08fcb62d0c9e08c51941cae53c267786a0b75803fb7960902fc8ef97d60205260409020545f805160206136038339815191529060ff16611f87575f808052602091825260408082206001600160a01b038516835290925220805460ff1916600117905533906001600160a01b03165f7f2f8788117e7eff1d82e926ec794901d17c78024a50270940304540a733656f0d8180a4600190565b6001600160a01b0381165f9081527f9ebbcbe0d2961d3fbe56ca6f679bc753bd848d3e6bb3eaf9041c51b286881d2c602052604090207fd1c1f6fa6bf27d54c5e54c7c1dc6e5004d3c027ea1994fe68b29c1b51b69c36c905f805160206136038339815191529060ff905b541661272b575f828152602091825260408082206001600160a01b038616835290925220805460ff1916600117905533916001600160a01b0316907f2f8788117e7eff1d82e926ec794901d17c78024a50270940304540a733656f0d5f80a4600190565b5050505f90565b6001600160a01b0381165f9081527f72a65082a5691803ab2b62c9bc729b34205ba1b183d950896526b2fd8714d0c7602052604090207e8b9b1e5fa9cf3b14f87f435649268146305ddf689f082e5961a335b07a9abf905f805160206136038339815191529060ff906126c7565b6001600160a01b0381165f9081527f8f2dae99798887da307a4daa2c2d11f840b0cb9a6a67822660c531e9ad14dd00602052604090207f1312a1cf530e56add9be4fd84db9051dcc7635952f09f735f9a29405b5584625905f805160206136038339815191529060ff906126c7565b5f8181525f80516020613603833981519152602081815260408084206001600160a01b038716855290915290912060ff906126c7565b5f8181525f80516020613603833981519152602081815260408084206001600160a01b03871685529091529091205460ff161561272b575f828152602091825260408082206001600160a01b038616835290925220805460ff1916905533916001600160a01b0316907ff6391f5c32d9c69d2a47ea670b442974b53935d1edc7fd64eb21e047a839171b5f80a4600190565b8054806128fc57505f5b6001600160d01b03811615611f875760016123719201612121565b5f19908082810111611bb157825f5260205f2001015460301c6128e1565b91909160408184031261035a5780356129328161042a565b9260208201356001600160401b03811161035a5761076b92016106d6565b61295c9181019061291a565b6040516302910f8b60e31b81526001600160a01b039283166004820181905291906020816024817f000000000000000000000000000000000000000000000000000000000000000088165afa908115610979575f91612a6f575b5015612a5d576129f16040916129ec612a37946129d16130b3565b60018060a01b03166001600160601b0360a01b5f5416175f55565b613233565b6020810151600180546001600160a01b0319166001600160a01b0390921691909117905580516001600160a01b0316848116612a4d575b5001516001600160a01b031690565b908116612a415750565b612a4a9061265c565b50565b612a56906125b1565b505f612a28565b6040516362df054560e01b8152600490fd5b612a88915060203d60201161097257610964818361067e565b5f6129b6565b6040519060a082018281106001600160401b038211176106435760405281608060609182815282602082015282604082015282808201520152565b9060208282031261035a5781516001600160401b039283821161035a57019060a08282031261035a57612afa61069f565b92825181811161035a5782612b10918501611807565b8452602083015181811161035a5782612b2a918501611807565b6020850152604083015181811161035a5782612b47918501611807565b6040850152606083015181811161035a5782612b64918501611807565b6060850152608083015190811161035a57612b7f9201611807565b608082015290565b9081602091031261035a575190565b60409065ffffffffffff61076b949316815281602082015201906104a4565b91939293612bc1612a8e565b94805180612caf575b5050612bdb60608601518285611b4a565b9182612bed57505050509051905f9190565b612c01612c3b9183608089015191876117bc565b916020612c1a6114586114585f5460018060a01b031690565b8189015190604051808096819463810da75d60e01b83528760048401612b96565b03915afa801561097957612c7795612c71935f92612c7c575b50612c65919260408a015191611b34565b90818082109118021890565b90613393565b915190565b612c659250612ca29060203d602011612ca8575b612c9a818361067e565b810190612b87565b91612c54565b503d612c90565b612cc3929650602080918301019101612ac9565b935f80612bca565b612ce0610c18825f52600460205260405f2090565b9081612ced575050505f90565b612d08610c1860049461120b845f52600560205260405f2090565b5f5460405163bd49c35f60e01b81529491929160209186919082906001600160a01b03165afa9081156109795761076b945f92612d65575b50610c18612d56915f52600360205260405f2090565b90818082109118021890613393565b612d56919250612d86610c189160203d602011612ca857612c9a818361067e565b929150612d40565b65ffffffffffff90818111612da1571690565b604490604051906306dfcc6560e41b8252603060048301526024820152fd5b805480612dd15750505f905f905f90565b5f19918183810111611bb1575f5260205f2001015460019165ffffffffffff82169160301c90565b600181111561076b57600181600160801b811015612f12575b612eba612eb0612ea6612e9c612e92612e88612ec697600488600160401b612ec19a1015612f05575b640100000000811015612ef8575b62010000811015612eeb575b610100811015612edf575b6010811015612ed3575b1015612ecb575b60030260011c612e81818b611ee6565b0160011c90565b612e81818a611ee6565b612e818189611ee6565b612e818188611ee6565b612e818187611ee6565b612e818186611ee6565b8093611ee6565b821190565b900390565b60011b612e71565b811c9160021b91612e6a565b60081c91811b91612e60565b60101c9160081b91612e55565b60201c9160101b91612e49565b60401c9160201b91612e3b565b50600160401b9050608082901c612e12565b905b838310612f335750505090565b909192612f408185613558565b90835f5265ffffffffffff808360205f20015416908416105f14612f685750925b9190612f26565b93506001810180911115612f6157611b8f565b908154905f829160058411612fe5575b612f969350846135ab565b80612fbe57505f905b6001600160d01b03821615611f875761076b9160016123719201612121565b612fd8612fcd612fdf92611ba3565b835f5260205f200190565b5460301c90565b90612f9f565b9192612ff081612df9565b8103908111611bb157612f9693855f5265ffffffffffff808360205f20015416908516105f14613021575091612f8b565b92915061302d90611bc3565b90612f8b565b6040519061304082610628565b5f6020838281520152565b9061307461306e6130959261305e613033565b50613067613033565b5084612121565b506122d1565b91600165ffffffffffff845116936020828060d01b03910151169101612121565b905490604051926130a584610628565b835260031b1c602082015290565b6130bb61356d565b6130c361356d565b60015f8051602061362383398151915255565b604051906130e382610648565b5f6040838281528260208201520152565b81601f8201121561035a578051916020916001600160401b038411610643578360051b90604051946131288584018761067e565b8552838086019282010192831161035a578301905b82821061314b575050505090565b83809183516131598161042a565b81520191019061313d565b9060208282031261035a5781516001600160401b039283821161035a5701908181039260a0841261035a5760606040519461319e86610648565b1261035a576040516131af81610648565b83516131ba8161042a565b815260208401516131ca8161042a565b602082015260408401516131dd8161042a565b60408201528452606083015181811161035a57826131fc9185016130f4565b6020850152608083015190811161035a5761321792016130f4565b604082015290565b80518210156121365760209160051b010190565b61324f9061323f6130d6565b5060208082518301019101613164565b8051519091906001600160a01b03161580613379575b613367579060208101905f5b825180518210156132eb5761145861328c836132999361321f565b516001600160a01b031690565b156132d9576132bb6132b76132b261328c84875161321f565b612732565b1590565b6132c757600101613271565b604051635140fefd60e11b8152600490fd5b6040516323cda06760e01b8152600490fd5b506040925050818101905f5b8251805182101561335e5761145861328c836133129361321f565b1561334d576133306132b761332b61328c84875161321f565b6127a0565b61333c576001016132f7565b8351635140fefd60e11b8152600490fd5b83516323cda06760e01b8152600490fd5b50509150505190565b6040516303501f5960e11b8152600490fd5b506020820151511580613265575060408201515115613265565b91818302915f198185099383808610950394808603951461341357848311156134065790829109815f038216809204600280826003021880830282030280830282030280830282030280830282030280830282030280920290030293600183805f03040190848311900302920304170290565b821560030260111861359b565b50509061076b9250611ee6565b8054600160401b8110156106435761343d91600182018155612121565b61346857815160209092015160301b65ffffffffffff191665ffffffffffff92909216919091179055565b634e487b7160e01b5f525f60045260245ffd5b8054929392801561352e5761349261349d91611ba3565b825f5260205f200190565b9182549265ffffffffffff9182851692811680841161351c578793036134e357506134dc92509065ffffffffffff82549181199060301b169116179055565b60301c9190565b915050613517916135036134f56106ae565b65ffffffffffff9093168352565b6001600160d01b0386166020830152613420565b6134dc565b604051632520601d60e01b8152600490fd5b50906135539161353f6134f56106ae565b6001600160d01b0385166020830152613420565b5f9190565b90808216911860011c8101809111611bb15790565b60ff5f805160206136438339815191525460401c161561358957565b604051631afcd79f60e31b8152600490fd5b634e487b715f526020526024601cfd5b905b8383106135ba5750505090565b9091926135c78185613558565b90835f5265ffffffffffff808360205f20015416908416105f146135ef5750925b91906135ad565b935060018101809111156135e857611b8f56fe02dd7bc7dec4dceedda775e58dd541e08a116c6c53815c0bd028192f7b6268009b779b17422d0df92223018b32b4d1fa46e071723d6817e2486d003becc55f00f0c57e16840df040f15088dc2f81fe391c3923bec73e23a9662efc9c229c6a00a2646970667358221220634e3b6b986f1093753acb2fce82d90613d9763273e8cb9fc5d156adf1a11ace64736f6c63430008190033","linkReferences":{}},"methodIdentifiers":{"BASE_DELEGATOR_HINTS()":"79d89614","DEFAULT_ADMIN_ROLE()":"a217fddf","FACTORY()":"2dd31000","HOOK_GAS_LIMIT()":"ff54740f","HOOK_RESERVE()":"557cab44","HOOK_SET_ROLE()":"6679191e","NETWORK_LIMIT_SET_ROLE()":"7d24bb27","NETWORK_REGISTRY()":"c0cd7c3e","OPERATOR_NETWORK_OPT_IN_SERVICE()":"1a80e500","OPERATOR_NETWORK_SHARES_SET_ROLE()":"e78eb6ae","OPERATOR_VAULT_OPT_IN_SERVICE()":"128e5d82","OPT_IN_SERVICE_HINTS()":"9b656b22","TYPE()":"bb24fe8a","VAULT_FACTORY()":"103f2907","VAULT_HINTS()":"45e78fcb","VERSION()":"ffa1ad74","getRoleAdmin(bytes32)":"248a9ca3","grantRole(bytes32,address)":"2f2ff15d","hasRole(bytes32,address)":"91d14854","hook()":"7f5a7c7b","initialize(bytes)":"439fab91","maxNetworkLimit(bytes32)":"d15b740e","networkLimit(bytes32)":"3eb22c0f","networkLimitAt(bytes32,uint48,bytes)":"5d32a1c9","networkLimitHint(address,bytes32,uint48)":"da749d2b","networkLimitHintInternal(bytes32,uint48)":"197aa7ea","onSlash(bytes32,address,uint256,uint48,bytes)":"e49561ee","operatorNetworkShares(bytes32,address)":"42c53e33","operatorNetworkSharesAt(bytes32,address,uint48,bytes)":"1a7a7044","operatorNetworkSharesHint(address,bytes32,address,uint48)":"07f9d5fd","operatorNetworkSharesHintInternal(bytes32,address,uint48)":"987b3ee8","renounceRole(bytes32,address)":"36568abe","revokeRole(bytes32,address)":"d547741f","setHook(address)":"3dfd3873","setMaxNetworkLimit(uint96,uint256)":"23f752d5","setNetworkLimit(bytes32,uint256)":"02145348","setOperatorNetworkShares(bytes32,address,uint256)":"a33bc287","stake(bytes32,address)":"fd4d447c","stakeAt(bytes32,address,uint48,bytes)":"e02f6937","stakeHints(address,bytes32,address,uint48)":"25dc9708","staticDelegateCall(address,bytes)":"9f86fd85","supportsInterface(bytes4)":"01ffc9a7","totalOperatorNetworkShares(bytes32)":"c43dc03f","totalOperatorNetworkSharesAt(bytes32,uint48,bytes)":"8b3f10b0","totalOperatorNetworkSharesHint(address,bytes32,uint48)":"b549ef1f","totalOperatorNetworkSharesHintInternal(bytes32,uint48)":"ed4d89e5","vault()":"fbfa77cf"},"id":112}