{"abi":[{"type":"constructor","inputs":[{"name":"baseDelegatorHints","type":"address","internalType":"address"},{"name":"vaultHints","type":"address","internalType":"address"}],"stateMutability":"nonpayable"},{"type":"function","name":"BASE_DELEGATOR_HINTS","inputs":[],"outputs":[{"name":"","type":"address","internalType":"address"}],"stateMutability":"view"},{"type":"function","name":"VAULT_HINTS","inputs":[],"outputs":[{"name":"","type":"address","internalType":"address"}],"stateMutability":"view"},{"type":"function","name":"hook","inputs":[],"outputs":[{"name":"","type":"address","internalType":"address"}],"stateMutability":"view"},{"type":"function","name":"maxNetworkLimit","inputs":[{"name":"subnetwork","type":"bytes32","internalType":"bytes32"}],"outputs":[{"name":"value","type":"uint256","internalType":"uint256"}],"stateMutability":"view"},{"type":"function","name":"networkLimitHint","inputs":[{"name":"delegator","type":"address","internalType":"address"},{"name":"subnetwork","type":"bytes32","internalType":"bytes32"},{"name":"timestamp","type":"uint48","internalType":"uint48"}],"outputs":[{"name":"hint","type":"bytes","internalType":"bytes"}],"stateMutability":"view"},{"type":"function","name":"networkLimitHintInternal","inputs":[{"name":"subnetwork","type":"bytes32","internalType":"bytes32"},{"name":"timestamp","type":"uint48","internalType":"uint48"}],"outputs":[{"name":"exists","type":"bool","internalType":"bool"},{"name":"hint","type":"uint32","internalType":"uint32"}],"stateMutability":"view"},{"type":"function","name":"operator","inputs":[],"outputs":[{"name":"","type":"address","internalType":"address"}],"stateMutability":"view"},{"type":"function","name":"stakeHints","inputs":[{"name":"delegator","type":"address","internalType":"address"},{"name":"subnetwork","type":"bytes32","internalType":"bytes32"},{"name":"operator_","type":"address","internalType":"address"},{"name":"timestamp","type":"uint48","internalType":"uint48"}],"outputs":[{"name":"hints","type":"bytes","internalType":"bytes"}],"stateMutability":"view"},{"type":"function","name":"vault","inputs":[],"outputs":[{"name":"","type":"address","internalType":"address"}],"stateMutability":"view"},{"type":"error","name":"ExternalCall","inputs":[]}],"bytecode":{"object":"0x60e03461009457601f610cf338819003918201601f19168301916001600160401b0383118484101761009857808492604094855283398101031261009457610052602061004b836100ac565b92016100ac565b903060805260a05260c052604051610c3290816100c182396080518160bf015260a05181818161023c015261048e015260c0518181816102da01526104220152f35b5f80fd5b634e487b7160e01b5f52604160045260245ffd5b51906001600160a01b03821682036100945756fe60806040526004361015610011575f80fd5b5f3560e01c8063197aa7ea146100a457806325dc97081461009f57806345e78fcb1461009a578063570ca7351461009557806379d89614146100905780637f5a7c7b1461008b578063d15b740e14610086578063da749d2b146100815763fbfa77cf1461007c575f80fd5b610564565b61050f565b6104e5565b6104bd565b610479565b610451565b61040d565b6101ad565b34610136576040366003190112610136576100bd61013a565b7f00000000000000000000000000000000000000000000000000000000000000006001600160a01b0316330361012557610104906004355f52600360205260405f206108bc565b60408051941515855263ffffffff91909116602085015292915050f35b0390f35b637ca475e560e11b60805260046080fd5b5f80fd5b6024359065ffffffffffff8216820361013657565b6064359065ffffffffffff8216820361013657565b6001600160a01b0381160361013657565b805180835260209291819084018484015e5f828201840152601f01601f1916010190565b9060206101aa928181520190610175565b90565b34610136576080366003190112610136576004356101ca81610164565b6024356044356101d981610164565b6102376101e461014f565b60408051630df8851f60e11b81526001600160a01b03808816600483015260248201879052948516604482015265ffffffffffff8316606482015293956060959194939092905f90859081906084820190565b03818a7f0000000000000000000000000000000000000000000000000000000000000000165afa9384156103bd575f946103f1575b50845163fbfa77cf60e01b8152602081600481878c165afa9081156103bd576102d6985f92849284916103c2575b50885163192c0ff760e21b81526001600160a01b03909116600482015265ffffffffffff90921660248301529098899190829081906044820190565b03917f0000000000000000000000000000000000000000000000000000000000000000165afa9182156103bd57610121975f93610397575b506103199293610730565b9082511580159061038d575b8015610383575b61033e575b5050505191829182610199565b61036c9394509061037a92916103526105e2565b9283526020830152848201528351928391602083016106aa565b03601f1981018352826105c0565b905f8080610331565b508151151561032c565b5080511515610325565b61031993506103b7903d805f833e6103af81836105c0565b810190610664565b9261030e565b61068a565b6103e4915060203d6020116103ea575b6103dc81836105c0565b810190610695565b5f61029a565b503d6103d2565b6104069194503d805f833e6103af81836105c0565b925f61026c565b34610136575f366003190112610136576040517f00000000000000000000000000000000000000000000000000000000000000006001600160a01b03168152602090f35b34610136575f366003190112610136576004546040516001600160a01b039091168152602090f35b34610136575f366003190112610136576040517f00000000000000000000000000000000000000000000000000000000000000006001600160a01b03168152602090f35b34610136575f366003190112610136576001546040516001600160a01b039091168152602090f35b34610136576020366003190112610136576004355f526002602052602060405f2054604051908152f35b346101365760603660031901126101365760043561052c81610164565b6044359065ffffffffffff8216820361013657610121916105509160243590610730565b604051918291602083526020830190610175565b34610136575f366003190112610136575f546040516001600160a01b039091168152602090f35b634e487b7160e01b5f52604160045260245ffd5b6080810190811067ffffffffffffffff8211176105bb57604052565b61058b565b90601f8019910116810190811067ffffffffffffffff8211176105bb57604052565b604051906060820182811067ffffffffffffffff8211176105bb57604052565b67ffffffffffffffff81116105bb57601f01601f191660200190565b81601f820112156101365780519061063582610602565b9261064360405194856105c0565b8284526020838301011161013657815f9260208093018386015e8301015290565b9060208282031261013657815167ffffffffffffffff8111610136576101aa920161061e565b6040513d5f823e3d90fd5b9081602091031261013657516101aa81610164565b906101aa91602081526106c98251606060208401526080830190610175565b90606060406106e9602086015194601f1995868683030184870152610175565b9401519282850301910152610175565b5190811515820361013657565b919082604091031261013657602061071d836106f9565b92015163ffffffff811681036101365790565b92915f8060609565ffffffffffff60405194602096630cbd53f560e11b888801526024870152166044850152604484526107698461059f565b604051938461079687820192639f86fd8560e01b8452306024840152604060448401526064830190610175565b03946107aa601f19968781018352826105c0565b51915afa506107c86107ba6109cb565b8380825183010191016109fa565b901561081b578083806107e093518301019101610706565b92906107eb57505050565b6101aa9293945061080f604051948592830191909163ffffffff6020820193169052565b039081018352826105c0565b809150519182156101365701fd5b634e487b7160e01b5f52601160045260245ffd5b5f1981019190821161084b57565b610829565b906001820180921161084b57565b906040516040810181811067ffffffffffffffff8211176105bb57604052915465ffffffffffff8116835260301c6020830152565b80548210156108a8575f5260205f2001905f90565b634e487b7160e01b5f52603260045260245ffd5b91908254905f829160058411610964575b6108d8935085610b8b565b9081156109585761095161094861094261093861090a6109056108fa8861083d565b895f5260205f200190565b61085e565b96600161093160206109228b5165ffffffffffff1690565b9a01516001600160d01b031690565b9101610893565b90549060031b1c90565b9361083d565b63ffffffff1690565b6001939291565b5f925082915081908190565b919261096f81610a4d565b810390811161084b576108d893865f526109a36109988360205f200165ffffffffffff90541690565b65ffffffffffff1690565b65ffffffffffff851610156109b95750916108cd565b9291506109c590610850565b906108cd565b3d156109f5573d906109dc82610602565b916109ea60405193846105c0565b82523d5f602084013e565b606090565b91909160408184031261013657610a10816106f9565b92602082015167ffffffffffffffff8111610136576101aa920161061e565b8115610a39570490565b634e487b7160e01b5f52601260045260245ffd5b8015610b865780610b1f610b18610b0e610b04610afa610af0610ae6610adc60016101aa9a5f908b60801c80610b7a575b508060401c80610b6d575b508060201c80610b60575b508060101c80610b53575b508060081c80610b46575b508060041c80610b39575b508060021c80610b2c575b50821c610b25575b811c1b610ad5818b610a2f565b0160011c90565b610ad5818a610a2f565b610ad58189610a2f565b610ad58188610a2f565b610ad58187610a2f565b610ad58186610a2f565b610ad58185610a2f565b8092610a2f565b90610bea565b8101610ac8565b600291509101905f610ac0565b600491509101905f610ab5565b600891509101905f610aaa565b601091509101905f610a9f565b602091509101905f610a94565b604091509101905f610a89565b9150506080905f610a7e565b505f90565b91905b838210610b9b5750505090565b9091928083169080841860011c820180921161084b57845f5265ffffffffffff808360205f20015416908416105f14610bd85750925b9190610b8e565b939250610be490610850565b91610bd1565b9080821015610bf7575090565b90509056fea2646970667358221220bd8422fcb8940d083af838a8d12c53ee978abd4c551217abb79a1fc1ad19d81464736f6c63430008190033","linkReferences":{}},"methodIdentifiers":{"BASE_DELEGATOR_HINTS()":"79d89614","VAULT_HINTS()":"45e78fcb","hook()":"7f5a7c7b","maxNetworkLimit(bytes32)":"d15b740e","networkLimitHint(address,bytes32,uint48)":"da749d2b","networkLimitHintInternal(bytes32,uint48)":"197aa7ea","operator()":"570ca735","stakeHints(address,bytes32,address,uint48)":"25dc9708","vault()":"fbfa77cf"},"id":171}