{"abi":[{"type":"constructor","inputs":[{"name":"baseDelegatorHints","type":"address","internalType":"address"},{"name":"vaultHints","type":"address","internalType":"address"},{"name":"optInServiceHints","type":"address","internalType":"address"}],"stateMutability":"nonpayable"},{"type":"function","name":"BASE_DELEGATOR_HINTS","inputs":[],"outputs":[{"name":"","type":"address","internalType":"address"}],"stateMutability":"view"},{"type":"function","name":"DEFAULT_ADMIN_ROLE","inputs":[],"outputs":[{"name":"","type":"bytes32","internalType":"bytes32"}],"stateMutability":"view"},{"type":"function","name":"FACTORY","inputs":[],"outputs":[{"name":"","type":"address","internalType":"address"}],"stateMutability":"view"},{"type":"function","name":"HOOK_GAS_LIMIT","inputs":[],"outputs":[{"name":"","type":"uint256","internalType":"uint256"}],"stateMutability":"view"},{"type":"function","name":"HOOK_RESERVE","inputs":[],"outputs":[{"name":"","type":"uint256","internalType":"uint256"}],"stateMutability":"view"},{"type":"function","name":"HOOK_SET_ROLE","inputs":[],"outputs":[{"name":"","type":"bytes32","internalType":"bytes32"}],"stateMutability":"view"},{"type":"function","name":"NETWORK_LIMIT_SET_ROLE","inputs":[],"outputs":[{"name":"","type":"bytes32","internalType":"bytes32"}],"stateMutability":"view"},{"type":"function","name":"NETWORK_REGISTRY","inputs":[],"outputs":[{"name":"","type":"address","internalType":"address"}],"stateMutability":"view"},{"type":"function","name":"OPERATOR_NETWORK_OPT_IN_SERVICE","inputs":[],"outputs":[{"name":"","type":"address","internalType":"address"}],"stateMutability":"view"},{"type":"function","name":"OPERATOR_REGISTRY","inputs":[],"outputs":[{"name":"","type":"address","internalType":"address"}],"stateMutability":"view"},{"type":"function","name":"OPERATOR_VAULT_OPT_IN_SERVICE","inputs":[],"outputs":[{"name":"","type":"address","internalType":"address"}],"stateMutability":"view"},{"type":"function","name":"OPT_IN_SERVICE_HINTS","inputs":[],"outputs":[{"name":"","type":"address","internalType":"address"}],"stateMutability":"view"},{"type":"function","name":"TYPE","inputs":[],"outputs":[{"name":"","type":"uint64","internalType":"uint64"}],"stateMutability":"view"},{"type":"function","name":"VAULT_FACTORY","inputs":[],"outputs":[{"name":"","type":"address","internalType":"address"}],"stateMutability":"view"},{"type":"function","name":"VAULT_HINTS","inputs":[],"outputs":[{"name":"","type":"address","internalType":"address"}],"stateMutability":"view"},{"type":"function","name":"VERSION","inputs":[],"outputs":[{"name":"","type":"uint64","internalType":"uint64"}],"stateMutability":"pure"},{"type":"function","name":"getRoleAdmin","inputs":[{"name":"role","type":"bytes32","internalType":"bytes32"}],"outputs":[{"name":"","type":"bytes32","internalType":"bytes32"}],"stateMutability":"view"},{"type":"function","name":"grantRole","inputs":[{"name":"role","type":"bytes32","internalType":"bytes32"},{"name":"account","type":"address","internalType":"address"}],"outputs":[],"stateMutability":"nonpayable"},{"type":"function","name":"hasRole","inputs":[{"name":"role","type":"bytes32","internalType":"bytes32"},{"name":"account","type":"address","internalType":"address"}],"outputs":[{"name":"","type":"bool","internalType":"bool"}],"stateMutability":"view"},{"type":"function","name":"hook","inputs":[],"outputs":[{"name":"","type":"address","internalType":"address"}],"stateMutability":"view"},{"type":"function","name":"initialize","inputs":[{"name":"data","type":"bytes","internalType":"bytes"}],"outputs":[],"stateMutability":"nonpayable"},{"type":"function","name":"maxNetworkLimit","inputs":[{"name":"subnetwork","type":"bytes32","internalType":"bytes32"}],"outputs":[{"name":"value","type":"uint256","internalType":"uint256"}],"stateMutability":"view"},{"type":"function","name":"networkLimit","inputs":[{"name":"subnetwork","type":"bytes32","internalType":"bytes32"}],"outputs":[{"name":"","type":"uint256","internalType":"uint256"}],"stateMutability":"view"},{"type":"function","name":"networkLimitAt","inputs":[{"name":"subnetwork","type":"bytes32","internalType":"bytes32"},{"name":"timestamp","type":"uint48","internalType":"uint48"},{"name":"hint","type":"bytes","internalType":"bytes"}],"outputs":[{"name":"","type":"uint256","internalType":"uint256"}],"stateMutability":"view"},{"type":"function","name":"networkLimitHint","inputs":[{"name":"delegator","type":"address","internalType":"address"},{"name":"subnetwork","type":"bytes32","internalType":"bytes32"},{"name":"timestamp","type":"uint48","internalType":"uint48"}],"outputs":[{"name":"","type":"bytes","internalType":"bytes"}],"stateMutability":"view"},{"type":"function","name":"networkLimitHintInternal","inputs":[{"name":"subnetwork","type":"bytes32","internalType":"bytes32"},{"name":"timestamp","type":"uint48","internalType":"uint48"}],"outputs":[{"name":"exists","type":"bool","internalType":"bool"},{"name":"hint","type":"uint32","internalType":"uint32"}],"stateMutability":"view"},{"type":"function","name":"onSlash","inputs":[{"name":"subnetwork","type":"bytes32","internalType":"bytes32"},{"name":"operator","type":"address","internalType":"address"},{"name":"amount","type":"uint256","internalType":"uint256"},{"name":"captureTimestamp","type":"uint48","internalType":"uint48"},{"name":"data","type":"bytes","internalType":"bytes"}],"outputs":[],"stateMutability":"nonpayable"},{"type":"function","name":"operator","inputs":[],"outputs":[{"name":"","type":"address","internalType":"address"}],"stateMutability":"view"},{"type":"function","name":"renounceRole","inputs":[{"name":"role","type":"bytes32","internalType":"bytes32"},{"name":"callerConfirmation","type":"address","internalType":"address"}],"outputs":[],"stateMutability":"nonpayable"},{"type":"function","name":"revokeRole","inputs":[{"name":"role","type":"bytes32","internalType":"bytes32"},{"name":"account","type":"address","internalType":"address"}],"outputs":[],"stateMutability":"nonpayable"},{"type":"function","name":"setHook","inputs":[{"name":"hook_","type":"address","internalType":"address"}],"outputs":[],"stateMutability":"nonpayable"},{"type":"function","name":"setMaxNetworkLimit","inputs":[{"name":"identifier","type":"uint96","internalType":"uint96"},{"name":"amount","type":"uint256","internalType":"uint256"}],"outputs":[],"stateMutability":"nonpayable"},{"type":"function","name":"setNetworkLimit","inputs":[{"name":"subnetwork","type":"bytes32","internalType":"bytes32"},{"name":"amount","type":"uint256","internalType":"uint256"}],"outputs":[],"stateMutability":"nonpayable"},{"type":"function","name":"stake","inputs":[{"name":"subnetwork","type":"bytes32","internalType":"bytes32"},{"name":"operator","type":"address","internalType":"address"}],"outputs":[{"name":"","type":"uint256","internalType":"uint256"}],"stateMutability":"view"},{"type":"function","name":"stakeAt","inputs":[{"name":"subnetwork","type":"bytes32","internalType":"bytes32"},{"name":"operator","type":"address","internalType":"address"},{"name":"timestamp","type":"uint48","internalType":"uint48"},{"name":"hints","type":"bytes","internalType":"bytes"}],"outputs":[{"name":"","type":"uint256","internalType":"uint256"}],"stateMutability":"view"},{"type":"function","name":"stakeHints","inputs":[{"name":"delegator","type":"address","internalType":"address"},{"name":"subnetwork","type":"bytes32","internalType":"bytes32"},{"name":"operator","type":"address","internalType":"address"},{"name":"timestamp","type":"uint48","internalType":"uint48"}],"outputs":[{"name":"","type":"bytes","internalType":"bytes"}],"stateMutability":"view"},{"type":"function","name":"staticDelegateCall","inputs":[{"name":"target","type":"address","internalType":"address"},{"name":"data","type":"bytes","internalType":"bytes"}],"outputs":[],"stateMutability":"nonpayable"},{"type":"function","name":"supportsInterface","inputs":[{"name":"interfaceId","type":"bytes4","internalType":"bytes4"}],"outputs":[{"name":"","type":"bool","internalType":"bool"}],"stateMutability":"view"},{"type":"function","name":"vault","inputs":[],"outputs":[{"name":"","type":"address","internalType":"address"}],"stateMutability":"view"},{"type":"event","name":"Initialized","inputs":[{"name":"version","type":"uint64","indexed":false,"internalType":"uint64"}],"anonymous":false},{"type":"event","name":"OnSlash","inputs":[{"name":"subnetwork","type":"bytes32","indexed":true,"internalType":"bytes32"},{"name":"operator","type":"address","indexed":true,"internalType":"address"},{"name":"amount","type":"uint256","indexed":false,"internalType":"uint256"},{"name":"captureTimestamp","type":"uint48","indexed":false,"internalType":"uint48"}],"anonymous":false},{"type":"event","name":"RoleAdminChanged","inputs":[{"name":"role","type":"bytes32","indexed":true,"internalType":"bytes32"},{"name":"previousAdminRole","type":"bytes32","indexed":true,"internalType":"bytes32"},{"name":"newAdminRole","type":"bytes32","indexed":true,"internalType":"bytes32"}],"anonymous":false},{"type":"event","name":"RoleGranted","inputs":[{"name":"role","type":"bytes32","indexed":true,"internalType":"bytes32"},{"name":"account","type":"address","indexed":true,"internalType":"address"},{"name":"sender","type":"address","indexed":true,"internalType":"address"}],"anonymous":false},{"type":"event","name":"RoleRevoked","inputs":[{"name":"role","type":"bytes32","indexed":true,"internalType":"bytes32"},{"name":"account","type":"address","indexed":true,"internalType":"address"},{"name":"sender","type":"address","indexed":true,"internalType":"address"}],"anonymous":false},{"type":"event","name":"SetHook","inputs":[{"name":"hook","type":"address","indexed":true,"internalType":"address"}],"anonymous":false},{"type":"event","name":"SetMaxNetworkLimit","inputs":[{"name":"subnetwork","type":"bytes32","indexed":true,"internalType":"bytes32"},{"name":"amount","type":"uint256","indexed":false,"internalType":"uint256"}],"anonymous":false},{"type":"event","name":"SetNetworkLimit","inputs":[{"name":"subnetwork","type":"bytes32","indexed":true,"internalType":"bytes32"},{"name":"amount","type":"uint256","indexed":false,"internalType":"uint256"}],"anonymous":false},{"type":"error","name":"AccessControlBadConfirmation","inputs":[]},{"type":"error","name":"AccessControlUnauthorizedAccount","inputs":[{"name":"account","type":"address","internalType":"address"},{"name":"neededRole","type":"bytes32","internalType":"bytes32"}]},{"type":"error","name":"AlreadySet","inputs":[]},{"type":"error","name":"CheckpointUnorderedInsertion","inputs":[]},{"type":"error","name":"DuplicateRoleHolder","inputs":[]},{"type":"error","name":"ExceedsMaxNetworkLimit","inputs":[]},{"type":"error","name":"ExternalCall","inputs":[]},{"type":"error","name":"InsufficientHookGas","inputs":[]},{"type":"error","name":"InvalidInitialization","inputs":[]},{"type":"error","name":"MissingRoleHolders","inputs":[]},{"type":"error","name":"NotInitialized","inputs":[]},{"type":"error","name":"NotInitializing","inputs":[]},{"type":"error","name":"NotNetwork","inputs":[]},{"type":"error","name":"NotOperator","inputs":[]},{"type":"error","name":"NotSlasher","inputs":[]},{"type":"error","name":"NotVault","inputs":[]},{"type":"error","name":"ReentrancyGuardReentrantCall","inputs":[]},{"type":"error","name":"SafeCastOverflowedUintDowncast","inputs":[{"name":"bits","type":"uint8","internalType":"uint8"},{"name":"value","type":"uint256","internalType":"uint256"}]},{"type":"error","name":"ZeroAddressRoleHolder","inputs":[]}],"bytecode":{"object":"0x6101e0346101d857601f6132b338819003918201601f19168301916001600160401b0391828411858510176101dd5781606092869260409687528339810103126101d85761004c836101f3565b926100648361005d602084016101f3565b92016101f3565b91306080527ff0c57e16840df040f15088dc2f81fe391c3923bec73e23a9662efc9c229c6a009081549060ff82871c166101c7578080831603610183575b5050506000938460a0528460c0528460e0526101009480865261012094818652610140908282526101609283526101809384526101a09485526101c095865251956130ab9788610208893960805188610496015260a051886107df015260c05188610fcd015260e0518881816105a201526110070152518781816103c8015261235301525186818161040d015281816119ec0152611b21015251858181610520015281816119510152611ba1015251848181610e250152612bea015251838181610d7d015261150a015251828181610b5901526115ab01525181610ecd0152f35b6001600160401b0319909116811790915583519081527fc7f505b2f371ae2175ee4913f4499e1f2633a7b5936321eed1cdaeb6115181d290602090a13880806100a2565b855163f92ee8a960e01b8152600490fd5b600080fd5b634e487b7160e01b600052604160045260246000fd5b51906001600160a01b03821682036101d85756fe6080604052600436101561001257600080fd5b60003560e01c806301ffc9a7146102875780630214534814610282578063103f29071461027d578063128e5d8214610278578063197aa7ea146102735780631a80e5001461026e57806323f752d514610269578063248a9ca31461026457806325dc97081461025f5780632dd310001461025a5780632f2ff15d1461025557806336568abe146102505780633dfd38731461024b5780633eb22c0f14610246578063439fab911461024157806345e78fcb1461023c578063557cab4414610237578063570ca735146102325780635d32a1c91461022d5780636679191e1461022857806379d89614146102235780637d24bb271461021e5780637f5a7c7b1461021957806383ce03221461021457806391d148541461020f5780639b656b221461020a5780639f86fd8514610205578063a217fddf14610200578063bb24fe8a146101fb578063c0cd7c3e146101f6578063d15b740e146101f1578063d547741f146101ec578063da749d2b146101e7578063e02f6937146101e2578063e49561ee146101dd578063fbfa77cf146101d8578063fd4d447c146101d3578063ff54740f146101ce5763ffa1ad74146101c957600080fd5b61139c565b61137e565b611354565b61132b565b61113b565b6110e6565b6110b1565b611062565b611036565b610ff1565b610fad565b610f91565b610efc565b610eb7565b610e54565b610e0f565b610de6565b610dac565b610d67565b610d2c565b610cd9565b610ba5565b610b88565b610b43565b610a07565b6109a7565b6108a8565b61085d565b61080e565b6107c9565b610770565b6106db565b61054f565b61050a565b61047b565b6103f7565b6103b2565b6102e2565b346102dd5760203660031901126102dd5760043563ffffffff60e01b81168091036102dd57602090637965db0b60e01b81149081156102cc575b506040519015158152f35b6301ffc9a760e01b149050386102c1565b600080fd5b346102dd576040806003193601126102dd57600435602435610302611c17565b60009282845260026020528084205482116103a25782845260036020528161032b82862061229f565b14610392578161038c9161037c7e899d104fc3d8820bd96540612bcc5c448c8837b13b9f7faa43ad0728f0c14f9461036d876000526003602052604060002090565b610376426127ed565b90611d20565b5050519081529081906020820190565b0390a280f35b5163a741a04560e01b8152600490fd5b51631eefc06360e31b8152600490fd5b346102dd5760003660031901126102dd576040517f00000000000000000000000000000000000000000000000000000000000000006001600160a01b03168152602090f35b346102dd5760003660031901126102dd576040517f00000000000000000000000000000000000000000000000000000000000000006001600160a01b03168152602090f35b6024359065ffffffffffff821682036102dd57565b6064359065ffffffffffff821682036102dd57565b6044359065ffffffffffff821682036102dd57565b346102dd5760403660031901126102dd5761049461043c565b7f00000000000000000000000000000000000000000000000000000000000000006001600160a01b031633036104f85763ffffffff6104e3604092600435600052600360205283600020611e08565b91505083929192519215158352166020820152f35b604051637ca475e560e11b8152600490fd5b346102dd5760003660031901126102dd576040517f00000000000000000000000000000000000000000000000000000000000000006001600160a01b03168152602090f35b346102dd5760403660031901126102dd576004356001600160601b03811681036102dd576024359061057f611f1d565b6040516302910f8b60e31b81523360048201526020816024816001600160a01b037f0000000000000000000000000000000000000000000000000000000000000000165afa9081156106d6576000916106a7575b5015610695576001600160601b03166bffffffffffffffffffffffff193360601b1617908061060c836000526002602052604060002090565b541461068357610667817fc67e7929681aa1bccd63f52b3799bf5805f3009f197db6fdf584b14f7fbf608c9261064c856000526002602052604060002090565b556106578185611f4d565b6040519081529081906020820190565b0390a2610681600160008051602061303683398151915255565b005b60405163a741a04560e01b8152600490fd5b6040516323d53b9760e21b8152600490fd5b6106c9915060203d6020116106cf575b6106c18183610c3a565b8101906113c5565b386105d3565b503d6106b7565b6113dc565b346102dd5760203660031901126102dd576004356000526000805160206130168339815191526020526020600160406000200154604051908152f35b6001600160a01b038116036102dd57565b60005b83811061073b5750506000910152565b818101518382015260200161072b565b9060209161076481518092818552858086019101610728565b601f01601f1916010190565b346102dd5760803660031901126102dd576107c56107b160043561079381610717565b60443561079f81610717565b6107a7610451565b91602435906114be565b60405191829160208352602083019061074b565b0390f35b346102dd5760003660031901126102dd576040517f00000000000000000000000000000000000000000000000000000000000000006001600160a01b03168152602090f35b346102dd5760403660031901126102dd5761068160243560043561083182610717565b80600052600080516020613016833981519152602052610858600160406000200154611c74565b6121cd565b346102dd5760403660031901126102dd5760243561087a81610717565b336001600160a01b038216036108965761068190600435612207565b60405163334bd91960e11b8152600490fd5b346102dd5760203660031901126102dd576004356108c581610717565b6108cd611f1d565b3360009081527f9ebbcbe0d2961d3fbe56ca6f679bc753bd848d3e6bb3eaf9041c51b286881d2c60205260408120549091907fd1c1f6fa6bf27d54c5e54c7c1dc6e5004d3c027ea1994fe68b29c1b51b69c36c9060ff161561098957506001546001600160a01b039182169181168214610683576001600160a01b03191681176001557f5bbb1d3ebb6a3ad2a0f17ff35e579a83af60604d1d3c2a4c83c62adecadf666d8280a260016000805160206130368339815191525580f35b6044906040519063e2517d3f60e01b82523360048301526024820152fd5b346102dd5760203660031901126102dd57600435600052600360205260206109d2604060002061229f565b604051908152f35b9181601f840112156102dd578235916001600160401b0383116102dd57602083818601950101116102dd57565b346102dd5760203660031901126102dd576001600160401b036004358181116102dd57610a389036906004016109da565b600080516020613056833981519152549260ff8460401c1615931680159081610b3b575b6001149081610b31575b159081610b28575b50610b1657600080516020613056833981519152805467ffffffffffffffff19166001179055610aa29183610af15761231e565b610aa857005b600080516020613056833981519152805460ff60401b19169055604051600181527fc7f505b2f371ae2175ee4913f4499e1f2633a7b5936321eed1cdaeb6115181d290602090a1005b600080516020613056833981519152805460ff60401b1916600160401b17905561231e565b60405163f92ee8a960e01b8152600490fd5b90501538610a6e565b303b159150610a66565b849150610a5c565b346102dd5760003660031901126102dd576040517f00000000000000000000000000000000000000000000000000000000000000006001600160a01b03168152602090f35b346102dd5760003660031901126102dd576020604051614e208152f35b346102dd5760003660031901126102dd576004546040516001600160a01b039091168152602090f35b634e487b7160e01b600052604160045260246000fd5b604081019081106001600160401b03821117610bff57604052565b610bce565b606081019081106001600160401b03821117610bff57604052565b608081019081106001600160401b03821117610bff57604052565b90601f801991011681019081106001600160401b03821117610bff57604052565b60405190610c6882610c04565b565b60405190610c6882610be4565b6001600160401b038111610bff57601f01601f191660200190565b81601f820112156102dd57803590610ca982610c77565b92610cb76040519485610c3a565b828452602083830101116102dd57816000926020809301838601378301015290565b346102dd5760603660031901126102dd57610cf261043c565b6044356001600160401b0381116102dd57602091610d176109d2923690600401610c92565b90600435600052600384526040600020612488565b346102dd5760003660031901126102dd5760206040517fd1c1f6fa6bf27d54c5e54c7c1dc6e5004d3c027ea1994fe68b29c1b51b69c36c8152f35b346102dd5760003660031901126102dd576040517f00000000000000000000000000000000000000000000000000000000000000006001600160a01b03168152602090f35b346102dd5760003660031901126102dd5760206040517e8b9b1e5fa9cf3b14f87f435649268146305ddf689f082e5961a335b07a9abf8152f35b346102dd5760003660031901126102dd576001546040516001600160a01b039091168152602090f35b346102dd5760003660031901126102dd576040517f00000000000000000000000000000000000000000000000000000000000000006001600160a01b03168152602090f35b346102dd5760403660031901126102dd57602060ff610eab602435610e7881610717565b600435600052600080516020613016833981519152845260406000209060018060a01b0316600052602052604060002090565b54166040519015158152f35b346102dd5760003660031901126102dd576040517f00000000000000000000000000000000000000000000000000000000000000006001600160a01b03168152602090f35b346102dd5760403660031901126102dd57600435610f1981610717565b6024356001600160401b0381116102dd57600091610f3c839236906004016109da565b90816040519283928337810184815203915af4610f89610f5a6116c2565b91610f7b60405193849215156020840152604080840152606083019061074b565b03601f198101835282610c3a565b805190602001fd5b346102dd5760003660031901126102dd57602060405160008152f35b346102dd5760003660031901126102dd5760206040516001600160401b037f0000000000000000000000000000000000000000000000000000000000000000168152f35b346102dd5760003660031901126102dd576040517f00000000000000000000000000000000000000000000000000000000000000006001600160a01b03168152602090f35b346102dd5760203660031901126102dd5760043560005260026020526020604060002054604051908152f35b346102dd5760403660031901126102dd5761068160243560043561108582610717565b806000526000805160206130168339815191526020526110ac600160406000200154611c74565b612207565b346102dd5760603660031901126102dd576107c56107b16004356110d481610717565b6110dc610466565b9060243590611724565b346102dd5760803660031901126102dd5760243561110381610717565b61110b610466565b90606435906001600160401b0382116102dd576020926111326109d2933690600401610c92565b916004356118da565b346102dd5760a03660031901126102dd5760243560043561115b82610717565b60443590611167610451565b6084356001600160401b0381116102dd5761118760049136908301610c92565b94611190611f1d565b60009560206111b76111ab6111ab8a5460018060a01b031690565b6001600160a01b031690565b60405163b134427160e01b815294859182905afa9283156106d65787936112fa575b506001600160a01b0392831633036112e8576001546001600160a01b031683811661125d575b50506040805195865265ffffffffffff909316602086015216927f741a5de99085c0d660f3e4192217b0ffb0ea4e35a0480de48e857a4bc3ee36ed91819081015b0390a361125a600160008051602061303683398151915255565b80f35b90936040519461129486611286602082019363724ab0f760e11b8552858c898d60248701611a68565b03601f198101885287610c3a565b62042e305a106112d65788611240938192827f741a5de99085c0d660f3e4192217b0ffb0ea4e35a0480de48e857a4bc3ee36ed9951926203d090f150936111ff565b604051638072475160e01b8152600490fd5b60405163dabc4ad960e01b8152600490fd5b61131d91935060203d602011611324575b6113158183610c3a565b81019061145a565b91386111d9565b503d61130b565b346102dd5760003660031901126102dd576000546040516001600160a01b039091168152602090f35b346102dd5760403660031901126102dd5760206109d260243561137681610717565b600435611ae9565b346102dd5760003660031901126102dd5760206040516203d0908152f35b346102dd5760003660031901126102dd57602060405160018152f35b519081151582036102dd57565b908160209103126102dd576113d9906113b8565b90565b6040513d6000823e3d90fd5b81601f820112156102dd5780516113fe81610c77565b9261140c6040519485610c3a565b818452602082840101116102dd576113d99160208085019101610728565b906020828203126102dd5781516001600160401b0381116102dd576113d992016113e8565b5190610c6882610717565b908160209103126102dd57516113d981610717565b906113d9916020815261148e825160606020840152608083019061074b565b90606060406114ae602086015194601f199586868303018487015261074b565b940151928285030191015261074b565b604051630df8851f60e11b81526001600160a01b03828116600483015260248201849052938416604482015265ffffffffffff85166064820152606095949093919260009283866084817f000000000000000000000000000000000000000000000000000000000000000085165afa9586156106d657849661168e575b5060405163fbfa77cf60e01b81526020816004818986165afa9081156106d6576115a79286928692849161166f575b5060405163192c0ff760e21b81526001600160a01b03909116600482015265ffffffffffff90921660248301529092839190829081906044820190565b03917f0000000000000000000000000000000000000000000000000000000000000000165afa9384156106d6578094611647575b50506115e79293611724565b9082511580159061163d575b8015611633575b61160357505050565b610f7b939450906113d99291611617610c5b565b928352602083015260408201526040519283916020830161146f565b50815115156115fa565b50805115156115f3565b6115e7945090611668913d8091833e6116608183610c3a565b81019061142a565b92386115db565b611688915060203d602011611324576113158183610c3a565b3861156a565b6116a39196503d8086833e6116608183610c3a565b943861153b565b906113d9929160005260036020526040600020612488565b3d156116ed573d906116d382610c77565b916116e16040519384610c3a565b82523d6000602084013e565b606090565b519063ffffffff821682036102dd57565b91908260409103126102dd576113d9602061171d846113b8565b93016116f2565b929160008060609565ffffffffffff60405194602096630cbd53f560e11b8888015260248701521660448501526044845261175e84610c1f565b604051938461178b87820192639f86fd8560e01b845230602484015260406044840152606483019061074b565b039461179f601f1996878101835282610c3a565b51915afa506117bd6117af6116c2565b838082518301019101612560565b9015611810578083806117d593518301019101611703565b92906117e057505050565b6113d992939450611804604051948592830191909163ffffffff6020820193169052565b03908101835282610c3a565b809150519182156102dd5701fd5b6040519061182b82610be4565b60606020838281520152565b906020828203126102dd5781516001600160401b03928382116102dd5701906040828203126102dd576040519261186d84610be4565b82518181116102dd57826118829185016113e8565b845260208301519081116102dd5761189a92016113e8565b602082015290565b6001600160a01b0391821681529116602082015265ffffffffffff90911660408201526080606082018190526113d99291019061074b565b926118ea90929192828486612669565b9290936118f561181e565b93805180611a4c575b505084159384156119b4575b8415611922575b5050505061191c5790565b50600090565b60208094955061194d910151604051958694859463530e1d4360e01b865260601c90600486016118a2565b03817f00000000000000000000000000000000000000000000000000000000000000006001600160a01b03165afa9081156106d657600091611995575b501538808080611911565b6119ae915060203d6020116106cf576106c18183610c3a565b3861198a565b6000549094506001600160a01b03166020848651926119e8604051948593849363530e1d4360e01b855289600486016118a2565b03817f00000000000000000000000000000000000000000000000000000000000000006001600160a01b03165afa9081156106d657600091611a2d575b50159361190a565b611a46915060203d6020116106cf576106c18183610c3a565b38611a25565b611a60929550602080918301019101611837565b9238806118fe565b919360a0936113d9969565ffffffffffff938552600180871b031660208501526040840152166060820152816080820152019061074b565b634e487b7160e01b600052601160045260246000fd5b8115611ac0570490565b634e487b7160e01b600052601260045260246000fd5b9060018201809211611ae457565b611aa0565b6000546040516308834cb560e21b8082526001600160a01b0385811660048401529283166024830152929392602092909183816044817f000000000000000000000000000000000000000000000000000000000000000086165afa9081156106d657600091611bfa575b5015918215611b75575b50509050611b6e576113d991612761565b5050600090565b6040519081526001600160a01b0385166004820152606086901c602482015291508290829060449082907f0000000000000000000000000000000000000000000000000000000000000000165afa9182156106d657600092611bdd575b505015803880611b5d565b611bf39250803d106106cf576106c18183610c3a565b3880611bd2565b611c119150843d86116106cf576106c18183610c3a565b38611b53565b3360009081527f72a65082a5691803ab2b62c9bc729b34205ba1b183d950896526b2fd8714d0c7602052604090207e8b9b1e5fa9cf3b14f87f435649268146305ddf689f082e5961a335b07a9abf9060ff905b5416156109895750565b600081815260008051602061301683398151915260209081526040808320338452909152902060ff90611c6a565b634e487b7160e01b600052603260045260246000fd5b8054821015611cd05760005260206000200190600090565b611ca2565b90815491600160401b831015610bff5782611cf8916001610c6895018155611cb8565b90919082549060031b91821b91600019901b1916179055565b600019810191908211611ae457565b90929192600182019081548015611db3575b5084611d3d8461281f565b50949092845493611d4d8361229f565b9681611d9e575b5015611d7b575050506000198101908111611ae457611cf88591611d7793611cb8565b9190565b611d77949293611d97926001600160d01b039091169190612ecd565b5050611cd5565b65ffffffffffff838116911614905038611d54565b600160401b811015610bff57806001611dcf9201845583611cb8565b8154906000199060031b1b1916905538611d32565b90604051611df181610be4565b915465ffffffffffff8116835260301c6020830152565b91908254906000829160058411611eb4575b611e259350856129a8565b908115611ea757611ea0611e97611e91611e87611e59611e54611e4788611d11565b8960005260206000200190565b611de4565b966001611e806020611e718b5165ffffffffffff1690565b9a01516001600160d01b031690565b9101611cb8565b90549060031b1c90565b93611d11565b63ffffffff1690565b6001939291565b6000925082915081908190565b9192611ebf81612874565b8103908111611ae457611e259386600052611ef5611eea8360206000200165ffffffffffff90541690565b65ffffffffffff1690565b65ffffffffffff85161015611f0b575091611e1a565b929150611f1790611ad6565b90611e1a565b6000805160206130368339815191526002815414611f3b5760029055565b604051633ee5aeb560e01b8152600490fd5b9060009180835260036020526040832082611f678261281f565b919390508315611fc657611f87916001600160d01b031690600101611cb8565b90549060031b1c5b82611fbc575b5050611fa057505050565b82604091611fb89452600360205220610376426127ed565b5050565b1190508238611f95565b505084611f8f565b6001600160a01b03811660009081527fb7db2dd08fcb62d0c9e08c51941cae53c267786a0b75803fb7960902fc8ef97d60205260408120546000805160206130168339815191529060ff1661207d57818052602090815260408083206001600160a01b038516600090815292529020805460ff1916600117905533916001600160a01b0316907f2f8788117e7eff1d82e926ec794901d17c78024a50270940304540a733656f0d8180a4600190565b50905090565b6001600160a01b03811660009081527f9ebbcbe0d2961d3fbe56ca6f679bc753bd848d3e6bb3eaf9041c51b286881d2c602052604081207fd1c1f6fa6bf27d54c5e54c7c1dc6e5004d3c027ea1994fe68b29c1b51b69c36c906000805160206130168339815191529060ff905b541661215657818352602090815260408084206001600160a01b038616600090815292529020805460ff1916600117905533926001600160a01b0316917f2f8788117e7eff1d82e926ec794901d17c78024a50270940304540a733656f0d9080a4600190565b5050905090565b6001600160a01b03811660009081527f72a65082a5691803ab2b62c9bc729b34205ba1b183d950896526b2fd8714d0c7602052604081207e8b9b1e5fa9cf3b14f87f435649268146305ddf689f082e5961a335b07a9abf906000805160206130168339815191529060ff906120f0565b6000818152600080516020613016833981519152602081815260408084206001600160a01b0387168552909152822091929160ff906120f0565b6000818152600080516020613016833981519152602081815260408084206001600160a01b038716855290915282205491929160ff161561215657818352602090815260408084206001600160a01b038616600090815292529020805460ff1916905533926001600160a01b0316917ff6391f5c32d9c69d2a47ea670b442974b53935d1edc7fd64eb21e047a839171b9080a4600190565b8054600090806122c957505060005b6001600160d01b03811615611b6e576001611e879201611cb8565b600019918183810111611ae4578084602092522001015460301c6122ae565b9190916040818403126102dd57803561230081610717565b9260208201356001600160401b0381116102dd576113d99201610c92565b61232a918101906122e8565b6040516302910f8b60e31b81526001600160a01b039283166004820181905291906020816024817f000000000000000000000000000000000000000000000000000000000000000088165afa9081156106d657600091612440575b501561242e576123c26040916123bd612408946123a0612a0c565b60018060a01b03166001600160601b0360a01b6000541617600055565b612b7a565b6020810151600180546001600160a01b0319166001600160a01b0390921691909117905580516001600160a01b031684811661241e575b5001516001600160a01b031690565b9081166124125750565b61241b90612083565b50565b61242790611fce565b50386123f9565b6040516362df054560e01b8152600490fd5b612459915060203d6020116106cf576106c18183610c3a565b38612385565b908160209103126102dd576113d9906116f2565b90600163ffffffff80931601918211611ae457565b9180511561255657806020806124a39351830101910161245f565b916124ae8382612df5565b926124bf845165ffffffffffff1690565b9065ffffffffffff808516921682811461254a57821191826124f5575b50506124ec576113d99250612d1d565b50506020015190565b9091506125028354611d11565b63ffffffff83161491821561251b575b505038806124dc565b612542919250612536612530611eea92612473565b85612df5565b5165ffffffffffff1690565b113880612512565b50505050506020015190565b506113d991612d1d565b9190916040818403126102dd57612576816113b8565b9260208201516001600160401b0381116102dd576113d992016113e8565b604051906125a182610c04565b60606040838281528260208201520152565b906020828203126102dd5781516001600160401b03928382116102dd5701906060828203126102dd57604051926125e984610c04565b82518181116102dd57826125fe9185016113e8565b845260208301518181116102dd57826126189185016113e8565b602085015260408301519081116102dd5761263392016113e8565b604082015290565b908160209103126102dd575190565b60409065ffffffffffff6113d99493168152816020820152019061074b565b90939293612675612594565b94805180612745575b50506004546001600160a01b0391821691160361273c576000546126d69291906020906126b5906111ab906001600160a01b031681565b8187015190604051808097819463810da75d60e01b8352886004840161264a565b03915afa9081156106d65761270493600092612709575b506126fe91926040870151916116aa565b90612e5d565b915190565b6126fe925061272f9060203d602011612735575b6127278183610c3a565b81019061263b565b916126ed565b503d61271d565b50509051600091565b6127599296506020809183010191016125b3565b93388061267e565b6004546001600160a01b039290831690831603611b6e576020600492600054166040519384809263bd49c35f60e01b82525afa9081156106d6576113d9926000926127c4575b506127bf6126fe916000526003602052604060002090565b61229f565b6126fe9192506127e56127bf9160203d602011612735576127278183610c3a565b9291506127a7565b65ffffffffffff90818111612800571690565b604490604051906306dfcc6560e41b8252603060048301526024820152fd5b805480612833575050600090600090600090565b600019908082810111611ae4576128539260005260206000200101611de4565b9065ffffffffffff82511691602060018060d01b0391015116906001929190565b801561191c57806126fe61294061293661292c61292261291861290e61290460016113d99a6000908b60801c8061299c575b508060401c8061298f575b508060201c80612982575b508060101c80612975575b508060081c80612968575b508060041c8061295b575b508060021c8061294e575b50821c612947575b811c1b6128fd818b611ab6565b0160011c90565b6128fd818a611ab6565b6128fd8189611ab6565b6128fd8188611ab6565b6128fd8187611ab6565b6128fd8186611ab6565b6128fd8185611ab6565b8092611ab6565b81016128f0565b60029150910190386128e8565b60049150910190386128dd565b60089150910190386128d2565b60109150910190386128c7565b60209150910190386128bc565b60409150910190386128b1565b915050608090386128a6565b91905b8382106129b85750505090565b909192808316906001818518811c8301809311611ae45760008681526020902083015465ffffffffffff90811690851610156129f9575050925b91906129ab565b909493508101809111611ae457916129f2565b612a14612fe6565b612a1c612fe6565b600160008051602061303683398151915255565b60405190612a3d82610c04565b60006040838281528260208201520152565b81601f820112156102dd578051916020916001600160401b038411610bff578360051b9060405194612a8385840187610c3a565b855283808601928201019283116102dd578301905b828210612aa6575050505090565b8380918351612ab481610717565b815201910190612a98565b6020818303126102dd5780516001600160401b03918282116102dd5701918281039260a084126102dd57606060405194612af886610c04565b126102dd57604051612b0981610c04565b8151612b1481610717565b81526020820151612b2481610717565b60208201526040820151612b3781610717565b6040820152845260608101519283116102dd57612b5b608092612633948301612a4f565b60208501520161144f565b8051821015611cd05760209160051b010190565b612b82612a30565b50612b9881519160208080948301019101612abf565b8051516001600160a01b0393919084161580612d11575b612cff576040818101805182516302910f8b60e31b81526001600160a01b0390911660048083019190915296929491928690829060249082907f0000000000000000000000000000000000000000000000000000000000000000165afa9081156106d657600091612ce2575b5015612cd057919384019160005b83518051821015612c9f576111ab612c4483612c5193612b66565b516001600160a01b031690565b15612c8f57612c73612c6f612c6a612c44848851612b66565b61215d565b1590565b612c7f57600101612c29565b8451635140fefd60e11b81528790fd5b84516323cda06760e01b81528790fd5b50509051600480546001600160a01b0319166001600160a01b039092169190911790559350612ccc915050565b5190565b604051631f0853c160e21b8152600490fd5b612cf99150863d88116106cf576106c18183610c3a565b38612c1b565b6040516303501f5960e11b8152600490fd5b50828101515115612baf565b908154906000829160058411612d8b575b612d399350846129a8565b80612d6257506000905b6001600160d01b03821615611b6e576113d9916001611e879201611cb8565b612d7e612d71612d8592611d11565b8360005260206000200190565b5460301c90565b90612d43565b9192612d9681612874565b8103908111611ae457612d39938560005265ffffffffffff8083602060002001541690851610600014612dca575091612d2e565b929150612dd690611ad6565b90612d2e565b60405190612de982610be4565b60006020838281520152565b90612e1e612e18612e3f92612e08612ddc565b50612e11612ddc565b5084611cb8565b50611de4565b91600165ffffffffffff845116936020828060d01b03910151169101611cb8565b90549060405192612e4f84610be4565b835260031b1c602082015290565b9080821015612e6a575090565b905090565b8054600160401b811015610bff57612e8c91600182018155611cb8565b612eb757815160209092015160301b65ffffffffffff191665ffffffffffff92909216919091179055565b634e487b7160e01b600052600060045260246000fd5b805492939291908215612fbc57612ee9611e54612d7185611d11565b90612efa825165ffffffffffff1690565b65ffffffffffff84811691168110612faa57611d77946020948892612f28611eea875165ffffffffffff1690565b03612f725750612f6492612f3e612f4b92611d11565b9060005260206000200190565b9065ffffffffffff82549181199060301b169116179055565b01516001600160d01b031690565b915050612fa591612f92612f84610c6a565b65ffffffffffff9093168352565b6001600160d01b03881682860152612e6f565b612f64565b604051632520601d60e01b8152600490fd5b612fe09250612fcc612f84610c6a565b6001600160d01b0385166020830152612e6f565b60009190565b60ff6000805160206130568339815191525460401c161561300357565b604051631afcd79f60e31b8152600490fdfe02dd7bc7dec4dceedda775e58dd541e08a116c6c53815c0bd028192f7b6268009b779b17422d0df92223018b32b4d1fa46e071723d6817e2486d003becc55f00f0c57e16840df040f15088dc2f81fe391c3923bec73e23a9662efc9c229c6a00a2646970667358221220c6cf8644cdd8269132573f0fc2c48f6c1a2440d27e03147b83649e834deffb7664736f6c63430008190033","linkReferences":{}},"methodIdentifiers":{"BASE_DELEGATOR_HINTS()":"79d89614","DEFAULT_ADMIN_ROLE()":"a217fddf","FACTORY()":"2dd31000","HOOK_GAS_LIMIT()":"ff54740f","HOOK_RESERVE()":"557cab44","HOOK_SET_ROLE()":"6679191e","NETWORK_LIMIT_SET_ROLE()":"7d24bb27","NETWORK_REGISTRY()":"c0cd7c3e","OPERATOR_NETWORK_OPT_IN_SERVICE()":"1a80e500","OPERATOR_REGISTRY()":"83ce0322","OPERATOR_VAULT_OPT_IN_SERVICE()":"128e5d82","OPT_IN_SERVICE_HINTS()":"9b656b22","TYPE()":"bb24fe8a","VAULT_FACTORY()":"103f2907","VAULT_HINTS()":"45e78fcb","VERSION()":"ffa1ad74","getRoleAdmin(bytes32)":"248a9ca3","grantRole(bytes32,address)":"2f2ff15d","hasRole(bytes32,address)":"91d14854","hook()":"7f5a7c7b","initialize(bytes)":"439fab91","maxNetworkLimit(bytes32)":"d15b740e","networkLimit(bytes32)":"3eb22c0f","networkLimitAt(bytes32,uint48,bytes)":"5d32a1c9","networkLimitHint(address,bytes32,uint48)":"da749d2b","networkLimitHintInternal(bytes32,uint48)":"197aa7ea","onSlash(bytes32,address,uint256,uint48,bytes)":"e49561ee","operator()":"570ca735","renounceRole(bytes32,address)":"36568abe","revokeRole(bytes32,address)":"d547741f","setHook(address)":"3dfd3873","setMaxNetworkLimit(uint96,uint256)":"23f752d5","setNetworkLimit(bytes32,uint256)":"02145348","stake(bytes32,address)":"fd4d447c","stakeAt(bytes32,address,uint48,bytes)":"e02f6937","stakeHints(address,bytes32,address,uint48)":"25dc9708","staticDelegateCall(address,bytes)":"9f86fd85","supportsInterface(bytes4)":"01ffc9a7","vault()":"fbfa77cf"},"id":78}