{"abi":[{"type":"constructor","inputs":[{"name":"baseDelegatorHints","type":"address","internalType":"address"},{"name":"vaultHints","type":"address","internalType":"address"},{"name":"optInServiceHints","type":"address","internalType":"address"}],"stateMutability":"nonpayable"},{"type":"function","name":"BASE_DELEGATOR_HINTS","inputs":[],"outputs":[{"name":"","type":"address","internalType":"address"}],"stateMutability":"view"},{"type":"function","name":"DEFAULT_ADMIN_ROLE","inputs":[],"outputs":[{"name":"","type":"bytes32","internalType":"bytes32"}],"stateMutability":"view"},{"type":"function","name":"FACTORY","inputs":[],"outputs":[{"name":"","type":"address","internalType":"address"}],"stateMutability":"view"},{"type":"function","name":"HOOK_GAS_LIMIT","inputs":[],"outputs":[{"name":"","type":"uint256","internalType":"uint256"}],"stateMutability":"view"},{"type":"function","name":"HOOK_RESERVE","inputs":[],"outputs":[{"name":"","type":"uint256","internalType":"uint256"}],"stateMutability":"view"},{"type":"function","name":"HOOK_SET_ROLE","inputs":[],"outputs":[{"name":"","type":"bytes32","internalType":"bytes32"}],"stateMutability":"view"},{"type":"function","name":"NETWORK_REGISTRY","inputs":[],"outputs":[{"name":"","type":"address","internalType":"address"}],"stateMutability":"view"},{"type":"function","name":"OPERATOR_NETWORK_OPT_IN_SERVICE","inputs":[],"outputs":[{"name":"","type":"address","internalType":"address"}],"stateMutability":"view"},{"type":"function","name":"OPERATOR_REGISTRY","inputs":[],"outputs":[{"name":"","type":"address","internalType":"address"}],"stateMutability":"view"},{"type":"function","name":"OPERATOR_VAULT_OPT_IN_SERVICE","inputs":[],"outputs":[{"name":"","type":"address","internalType":"address"}],"stateMutability":"view"},{"type":"function","name":"OPT_IN_SERVICE_HINTS","inputs":[],"outputs":[{"name":"","type":"address","internalType":"address"}],"stateMutability":"view"},{"type":"function","name":"TYPE","inputs":[],"outputs":[{"name":"","type":"uint64","internalType":"uint64"}],"stateMutability":"view"},{"type":"function","name":"VAULT_FACTORY","inputs":[],"outputs":[{"name":"","type":"address","internalType":"address"}],"stateMutability":"view"},{"type":"function","name":"VAULT_HINTS","inputs":[],"outputs":[{"name":"","type":"address","internalType":"address"}],"stateMutability":"view"},{"type":"function","name":"VERSION","inputs":[],"outputs":[{"name":"","type":"uint64","internalType":"uint64"}],"stateMutability":"pure"},{"type":"function","name":"getRoleAdmin","inputs":[{"name":"role","type":"bytes32","internalType":"bytes32"}],"outputs":[{"name":"","type":"bytes32","internalType":"bytes32"}],"stateMutability":"view"},{"type":"function","name":"grantRole","inputs":[{"name":"role","type":"bytes32","internalType":"bytes32"},{"name":"account","type":"address","internalType":"address"}],"outputs":[],"stateMutability":"nonpayable"},{"type":"function","name":"hasRole","inputs":[{"name":"role","type":"bytes32","internalType":"bytes32"},{"name":"account","type":"address","internalType":"address"}],"outputs":[{"name":"","type":"bool","internalType":"bool"}],"stateMutability":"view"},{"type":"function","name":"hook","inputs":[],"outputs":[{"name":"","type":"address","internalType":"address"}],"stateMutability":"view"},{"type":"function","name":"initialize","inputs":[{"name":"data","type":"bytes","internalType":"bytes"}],"outputs":[],"stateMutability":"nonpayable"},{"type":"function","name":"maxNetworkLimit","inputs":[{"name":"subnetwork","type":"bytes32","internalType":"bytes32"}],"outputs":[{"name":"value","type":"uint256","internalType":"uint256"}],"stateMutability":"view"},{"type":"function","name":"maxNetworkLimitAt","inputs":[{"name":"subnetwork","type":"bytes32","internalType":"bytes32"},{"name":"timestamp","type":"uint48","internalType":"uint48"},{"name":"hint","type":"bytes","internalType":"bytes"}],"outputs":[{"name":"","type":"uint256","internalType":"uint256"}],"stateMutability":"view"},{"type":"function","name":"maxNetworkLimitHint","inputs":[{"name":"delegator","type":"address","internalType":"address"},{"name":"subnetwork","type":"bytes32","internalType":"bytes32"},{"name":"timestamp","type":"uint48","internalType":"uint48"}],"outputs":[{"name":"","type":"bytes","internalType":"bytes"}],"stateMutability":"view"},{"type":"function","name":"maxNetworkLimitHintInternal","inputs":[{"name":"subnetwork","type":"bytes32","internalType":"bytes32"},{"name":"timestamp","type":"uint48","internalType":"uint48"}],"outputs":[{"name":"exists","type":"bool","internalType":"bool"},{"name":"hint","type":"uint32","internalType":"uint32"}],"stateMutability":"view"},{"type":"function","name":"network","inputs":[],"outputs":[{"name":"","type":"address","internalType":"address"}],"stateMutability":"view"},{"type":"function","name":"onSlash","inputs":[{"name":"subnetwork","type":"bytes32","internalType":"bytes32"},{"name":"operator","type":"address","internalType":"address"},{"name":"amount","type":"uint256","internalType":"uint256"},{"name":"captureTimestamp","type":"uint48","internalType":"uint48"},{"name":"data","type":"bytes","internalType":"bytes"}],"outputs":[],"stateMutability":"nonpayable"},{"type":"function","name":"operator","inputs":[],"outputs":[{"name":"","type":"address","internalType":"address"}],"stateMutability":"view"},{"type":"function","name":"renounceRole","inputs":[{"name":"role","type":"bytes32","internalType":"bytes32"},{"name":"callerConfirmation","type":"address","internalType":"address"}],"outputs":[],"stateMutability":"nonpayable"},{"type":"function","name":"revokeRole","inputs":[{"name":"role","type":"bytes32","internalType":"bytes32"},{"name":"account","type":"address","internalType":"address"}],"outputs":[],"stateMutability":"nonpayable"},{"type":"function","name":"setHook","inputs":[{"name":"hook_","type":"address","internalType":"address"}],"outputs":[],"stateMutability":"nonpayable"},{"type":"function","name":"setMaxNetworkLimit","inputs":[{"name":"identifier","type":"uint96","internalType":"uint96"},{"name":"amount","type":"uint256","internalType":"uint256"}],"outputs":[],"stateMutability":"nonpayable"},{"type":"function","name":"stake","inputs":[{"name":"subnetwork","type":"bytes32","internalType":"bytes32"},{"name":"operator","type":"address","internalType":"address"}],"outputs":[{"name":"","type":"uint256","internalType":"uint256"}],"stateMutability":"view"},{"type":"function","name":"stakeAt","inputs":[{"name":"subnetwork","type":"bytes32","internalType":"bytes32"},{"name":"operator","type":"address","internalType":"address"},{"name":"timestamp","type":"uint48","internalType":"uint48"},{"name":"hints","type":"bytes","internalType":"bytes"}],"outputs":[{"name":"","type":"uint256","internalType":"uint256"}],"stateMutability":"view"},{"type":"function","name":"stakeHints","inputs":[{"name":"delegator","type":"address","internalType":"address"},{"name":"subnetwork","type":"bytes32","internalType":"bytes32"},{"name":"operator","type":"address","internalType":"address"},{"name":"timestamp","type":"uint48","internalType":"uint48"}],"outputs":[{"name":"","type":"bytes","internalType":"bytes"}],"stateMutability":"view"},{"type":"function","name":"staticDelegateCall","inputs":[{"name":"target","type":"address","internalType":"address"},{"name":"data","type":"bytes","internalType":"bytes"}],"outputs":[],"stateMutability":"nonpayable"},{"type":"function","name":"supportsInterface","inputs":[{"name":"interfaceId","type":"bytes4","internalType":"bytes4"}],"outputs":[{"name":"","type":"bool","internalType":"bool"}],"stateMutability":"view"},{"type":"function","name":"vault","inputs":[],"outputs":[{"name":"","type":"address","internalType":"address"}],"stateMutability":"view"},{"type":"event","name":"Initialized","inputs":[{"name":"version","type":"uint64","indexed":false,"internalType":"uint64"}],"anonymous":false},{"type":"event","name":"OnSlash","inputs":[{"name":"subnetwork","type":"bytes32","indexed":true,"internalType":"bytes32"},{"name":"operator","type":"address","indexed":true,"internalType":"address"},{"name":"amount","type":"uint256","indexed":false,"internalType":"uint256"},{"name":"captureTimestamp","type":"uint48","indexed":false,"internalType":"uint48"}],"anonymous":false},{"type":"event","name":"RoleAdminChanged","inputs":[{"name":"role","type":"bytes32","indexed":true,"internalType":"bytes32"},{"name":"previousAdminRole","type":"bytes32","indexed":true,"internalType":"bytes32"},{"name":"newAdminRole","type":"bytes32","indexed":true,"internalType":"bytes32"}],"anonymous":false},{"type":"event","name":"RoleGranted","inputs":[{"name":"role","type":"bytes32","indexed":true,"internalType":"bytes32"},{"name":"account","type":"address","indexed":true,"internalType":"address"},{"name":"sender","type":"address","indexed":true,"internalType":"address"}],"anonymous":false},{"type":"event","name":"RoleRevoked","inputs":[{"name":"role","type":"bytes32","indexed":true,"internalType":"bytes32"},{"name":"account","type":"address","indexed":true,"internalType":"address"},{"name":"sender","type":"address","indexed":true,"internalType":"address"}],"anonymous":false},{"type":"event","name":"SetHook","inputs":[{"name":"hook","type":"address","indexed":true,"internalType":"address"}],"anonymous":false},{"type":"event","name":"SetMaxNetworkLimit","inputs":[{"name":"subnetwork","type":"bytes32","indexed":true,"internalType":"bytes32"},{"name":"amount","type":"uint256","indexed":false,"internalType":"uint256"}],"anonymous":false},{"type":"error","name":"AccessControlBadConfirmation","inputs":[]},{"type":"error","name":"AccessControlUnauthorizedAccount","inputs":[{"name":"account","type":"address","internalType":"address"},{"name":"neededRole","type":"bytes32","internalType":"bytes32"}]},{"type":"error","name":"AlreadySet","inputs":[]},{"type":"error","name":"CheckpointUnorderedInsertion","inputs":[]},{"type":"error","name":"ExternalCall","inputs":[]},{"type":"error","name":"InsufficientHookGas","inputs":[]},{"type":"error","name":"InvalidInitialization","inputs":[]},{"type":"error","name":"InvalidNetwork","inputs":[]},{"type":"error","name":"NotInitialized","inputs":[]},{"type":"error","name":"NotInitializing","inputs":[]},{"type":"error","name":"NotNetwork","inputs":[]},{"type":"error","name":"NotOperator","inputs":[]},{"type":"error","name":"NotSlasher","inputs":[]},{"type":"error","name":"NotVault","inputs":[]},{"type":"error","name":"ReentrancyGuardReentrantCall","inputs":[]},{"type":"error","name":"SafeCastOverflowedUintDowncast","inputs":[{"name":"bits","type":"uint8","internalType":"uint8"},{"name":"value","type":"uint256","internalType":"uint256"}]}],"bytecode":{"object":"0x6101e0346101dc57601f612eb338819003918201601f19168301916001600160401b0391828411858510176101e05781606092869260409687528339810103126101dc5761004c836101f4565b926100648361005d602084016101f4565b92016101f4565b91306080527ff0c57e16840df040f15088dc2f81fe391c3923bec73e23a9662efc9c229c6a009081549060ff82871c166101cb578080831603610187575b5050505f60a0525f60c0525f60e052610100935f8552610120935f85526101405f8152610160915f83526101809384526101a09485526101c09586525195612caa9788610209893960805188610e71015260a0518861062b015260c05188610dee015260e0518881816103dd01528181610e2701526127ba0152518781816102d30152611fd201525186818161031701528181611841015261197001525185818161035b015281816117a801526119ee015251848181610c1b0152612833015251838181610baf0152611369015251828181610ac5015261140a01525181610cf20152f35b6001600160401b0319909116811790915583519081527fc7f505b2f371ae2175ee4913f4499e1f2633a7b5936321eed1cdaeb6115181d290602090a15f80806100a2565b855163f92ee8a960e01b8152600490fd5b5f80fd5b634e487b7160e01b5f52604160045260245ffd5b51906001600160a01b03821682036101dc5756fe60806040526004361015610011575f80fd5b5f3560e01c806301ffc9a714610264578063103f29071461025f578063128e5d821461025a5780631a80e5001461025557806323f752d514610250578063248a9ca31461024b57806325dc9708146102465780632dd31000146102415780632f2ff15d1461023c57806336568abe146102375780633dfd387314610232578063437224a31461022d578063439fab911461022857806345e78fcb14610223578063557cab441461021e578063570ca735146102195780636679191e146102145780636739afca1461020f57806379d896141461020a5780637f5a7c7b1461020557806383ce03221461020057806391d14854146101fb578063991d1162146101f65780639b656b22146101f15780639f86fd85146101ec578063a217fddf146101e7578063bb24fe8a146101e2578063c0cd7c3e146101dd578063d0f1f901146101d8578063d15b740e146101d3578063d547741f146101ce578063e02f6937146101c9578063e49561ee146101c4578063fbfa77cf146101bf578063fd4d447c146101ba578063ff54740f146101b55763ffa1ad74146101b0575f80fd5b611207565b6111ea565b6111c0565b611199565b610fae565b610f59565b610f0d565b610ee3565b610e56565b610e12565b610dcf565b610db5565b610d21565b610cdd565b610ca8565b610c4a565b610c06565b610bde565b610b9a565b610b72565b610b38565b610b10565b610af4565b610ab0565b610978565b6108f2565b6106f1565b6106a6565b61065a565b610616565b6105bd565b610510565b61038a565b610346565b610302565b6102be565b346102ba5760203660031901126102ba5760043563ffffffff60e01b81168091036102ba57602090637965db0b60e01b81149081156102a9575b506040519015158152f35b6301ffc9a760e01b1490505f61029e565b5f80fd5b346102ba575f3660031901126102ba576040517f00000000000000000000000000000000000000000000000000000000000000006001600160a01b03168152602090f35b346102ba575f3660031901126102ba576040517f00000000000000000000000000000000000000000000000000000000000000006001600160a01b03168152602090f35b346102ba575f3660031901126102ba576040517f00000000000000000000000000000000000000000000000000000000000000006001600160a01b03168152602090f35b346102ba5760403660031901126102ba576004356001600160601b03811681036102ba57602435906103ba611a63565b6040516302910f8b60e31b81523360048201526020816024816001600160a01b037f0000000000000000000000000000000000000000000000000000000000000000165afa90811561050b575f916104dc575b50156104ca576001600160601b03166bffffffffffffffffffffffff193360601b16179080610444835f52600260205260405f2090565b54146104b85761049d817fc67e7929681aa1bccd63f52b3799bf5805f3009f197db6fdf584b14f7fbf608c92610482855f52600260205260405f2090565b5561048d8185611a92565b6040519081529081906020820190565b0390a26104b660015f80516020612c3583398151915255565b005b60405163a741a04560e01b8152600490fd5b6040516323d53b9760e21b8152600490fd5b6104fe915060203d602011610504575b6104f68183610854565b81019061122f565b5f61040d565b503d6104ec565b611246565b346102ba5760203660031901126102ba576004355f525f80516020612c158339815191526020526020600160405f200154604051908152f35b6001600160a01b038116036102ba57565b6064359065ffffffffffff821682036102ba57565b6024359065ffffffffffff821682036102ba57565b6044359065ffffffffffff821682036102ba57565b805180835260209291819084018484015e5f828201840152601f01601f1916010190565b346102ba5760803660031901126102ba576106126105fe6004356105e081610549565b6044356105ec81610549565b6105f461055a565b9160243590611320565b604051918291602083526020830190610599565b0390f35b346102ba575f3660031901126102ba576040517f00000000000000000000000000000000000000000000000000000000000000006001600160a01b03168152602090f35b346102ba5760403660031901126102ba576104b660243560043561067d82610549565b805f525f80516020612c158339815191526020526106a1600160405f200154611bd4565b611d85565b346102ba5760403660031901126102ba576024356106c381610549565b336001600160a01b038216036106df576104b690600435611dbb565b60405163334bd91960e11b8152600490fd5b346102ba5760203660031901126102ba5760043561070e81610549565b610716611a63565b335f9081527f9ebbcbe0d2961d3fbe56ca6f679bc753bd848d3e6bb3eaf9041c51b286881d2c60205260409020547fd1c1f6fa6bf27d54c5e54c7c1dc6e5004d3c027ea1994fe68b29c1b51b69c36c9060ff16156107cc57506001546001600160a01b0391821691811682146104b8576001600160a01b03191681176001557f5bbb1d3ebb6a3ad2a0f17ff35e579a83af60604d1d3c2a4c83c62adecadf666d5f80a260015f80516020612c3583398151915255005b6044906040519063e2517d3f60e01b82523360048301526024820152fd5b634e487b7160e01b5f52604160045260245ffd5b604081019081106001600160401b0382111761081957604052565b6107ea565b606081019081106001600160401b0382111761081957604052565b608081019081106001600160401b0382111761081957604052565b90601f801991011681019081106001600160401b0382111761081957604052565b604051906108828261081e565b565b60405190610882826107fe565b6001600160401b03811161081957601f01601f191660200190565b81601f820112156102ba578035906108c382610891565b926108d16040519485610854565b828452602083830101116102ba57815f926020809301838601378301015290565b346102ba5760603660031901126102ba5761090b61056f565b6044356001600160401b0381116102ba576020916109306109439236906004016108ac565b906004355f526003845260405f20611e84565b604051908152f35b9181601f840112156102ba578235916001600160401b0383116102ba57602083818601950101116102ba57565b346102ba5760203660031901126102ba576001600160401b036004358181116102ba576109a990369060040161094b565b5f80516020612c55833981519152549260ff8460401c1615931680159081610aa8575b6001149081610a9e575b159081610a95575b50610a83575f80516020612c55833981519152805467ffffffffffffffff19166001179055610a119183610a5f57611f9d565b610a1757005b5f80516020612c55833981519152805460ff60401b19169055604051600181527fc7f505b2f371ae2175ee4913f4499e1f2633a7b5936321eed1cdaeb6115181d290602090a1005b5f80516020612c55833981519152805460ff60401b1916600160401b179055611f9d565b60405163f92ee8a960e01b8152600490fd5b9050155f6109de565b303b1591506109d6565b8491506109cc565b346102ba575f3660031901126102ba576040517f00000000000000000000000000000000000000000000000000000000000000006001600160a01b03168152602090f35b346102ba575f3660031901126102ba576020604051614e208152f35b346102ba575f3660031901126102ba576005546040516001600160a01b039091168152602090f35b346102ba575f3660031901126102ba5760206040517fd1c1f6fa6bf27d54c5e54c7c1dc6e5004d3c027ea1994fe68b29c1b51b69c36c8152f35b346102ba575f3660031901126102ba576004546040516001600160a01b039091168152602090f35b346102ba575f3660031901126102ba576040517f00000000000000000000000000000000000000000000000000000000000000006001600160a01b03168152602090f35b346102ba575f3660031901126102ba576001546040516001600160a01b039091168152602090f35b346102ba575f3660031901126102ba576040517f00000000000000000000000000000000000000000000000000000000000000006001600160a01b03168152602090f35b346102ba5760403660031901126102ba57602060ff610c9c602435610c6e81610549565b6004355f525f80516020612c15833981519152845260405f209060018060a01b03165f5260205260405f2090565b54166040519015158152f35b346102ba5760603660031901126102ba576106126105fe600435610ccb81610549565b610cd3610584565b906024359061154e565b346102ba575f3660031901126102ba576040517f00000000000000000000000000000000000000000000000000000000000000006001600160a01b03168152602090f35b346102ba5760403660031901126102ba57600435610d3e81610549565b6024356001600160401b0381116102ba575f91610d608392369060040161094b565b90816040519283928337810184815203915af4610dad610d7e611647565b91610d9f604051938492151560208401526040808401526060830190610599565b03601f198101835282610854565b805190602001fd5b346102ba575f3660031901126102ba5760206040515f8152f35b346102ba575f3660031901126102ba5760206040516001600160401b037f0000000000000000000000000000000000000000000000000000000000000000168152f35b346102ba575f3660031901126102ba576040517f00000000000000000000000000000000000000000000000000000000000000006001600160a01b03168152602090f35b346102ba5760403660031901126102ba57610e6f61056f565b7f00000000000000000000000000000000000000000000000000000000000000006001600160a01b03163303610ed15763ffffffff610ebc6040926004355f526003602052835f2061215c565b91505083929192519215158352166020820152f35b604051637ca475e560e11b8152600490fd5b346102ba5760203660031901126102ba576004355f526002602052602060405f2054604051908152f35b346102ba5760403660031901126102ba576104b6602435600435610f3082610549565b805f525f80516020612c15833981519152602052610f54600160405f200154611bd4565b611dbb565b346102ba5760803660031901126102ba57602435610f7681610549565b610f7e610584565b90606435906001600160401b0382116102ba57602092610fa56109439336906004016108ac565b91600435611732565b346102ba5760a03660031901126102ba57602435600435610fce82610549565b60443591610fda61055a565b90608435906001600160401b0382116102ba57610ffc600492369084016108ac565b611004611a63565b5f546020906110299061101d906001600160a01b031681565b6001600160a01b031690565b60405163b134427160e01b815294859182905afa92831561050b575f93611168575b506001600160a01b039283163303611156576001546001600160a01b03168381166110cb575b50506040805195865265ffffffffffff909316602086015216927f741a5de99085c0d660f3e4192217b0ffb0ea4e35a0480de48e857a4bc3ee36ed91819081015b0390a36104b660015f80516020612c3583398151915255565b909360405194611102866110f4602082019363724ab0f760e11b8552858c898d602487016118bc565b03601f198101885287610854565b62042e305a10611144575f6110b2938192827f741a5de99085c0d660f3e4192217b0ffb0ea4e35a0480de48e857a4bc3ee36ed9951926203d090f15093611071565b604051638072475160e01b8152600490fd5b60405163dabc4ad960e01b8152600490fd5b61118b91935060203d602011611192575b6111838183610854565b8101906112bc565b915f61104b565b503d611179565b346102ba575f3660031901126102ba575f546040516001600160a01b039091168152602090f35b346102ba5760403660031901126102ba5760206109436024356111e281610549565b600435611939565b346102ba575f3660031901126102ba5760206040516203d0908152f35b346102ba575f3660031901126102ba57602060405160018152f35b519081151582036102ba57565b908160209103126102ba5761124390611222565b90565b6040513d5f823e3d90fd5b81601f820112156102ba5780519061126882610891565b926112766040519485610854565b828452602083830101116102ba57815f9260208093018386015e8301015290565b906020828203126102ba5781516001600160401b0381116102ba576112439201611251565b908160209103126102ba575161124381610549565b9061124391602081526112f08251606060208401526080830190610599565b9060606040611310602086015194601f1995868683030184870152610599565b9401519282850301910152610599565b604051630df8851f60e11b81526001600160a01b03828116600483015260248201849052938416604482015265ffffffffffff8516606482015260609594909391925f856084817f000000000000000000000000000000000000000000000000000000000000000087165afa94851561050b575f956114ea575b5060405163fbfa77cf60e01b81526020816004818888165afa90811561050b57611406945f92859284916114cb575b5060405163192c0ff760e21b81526001600160a01b03909116600482015265ffffffffffff90921660248301529094859190829081906044820190565b03917f0000000000000000000000000000000000000000000000000000000000000000165afa92831561050b575f936114a5575b50611445929361154e565b9082511580159061149b575b8015611491575b61146157505050565b610d9f939450906112439291611475610875565b92835260208301526040820152604051928391602083016112d1565b5081511515611458565b5080511515611451565b61144593506114c5903d805f833e6114bd8183610854565b810190611297565b9261143a565b6114e4915060203d602011611192576111838183610854565b5f6113c9565b6114ff9195503d805f833e6114bd8183610854565b935f61139a565b9061124392915f52600360205260405f20611e84565b519063ffffffff821682036102ba57565b91908260409103126102ba57611243602061154784611222565b930161151c565b92915f8060609565ffffffffffff6040519460209663d0f1f90160e01b8888015260248701521660448501526044845261158784610839565b60405193846115b487820192639f86fd8560e01b8452306024840152604060448401526064830190610599565b03946115c8601f1996878101835282610854565b51915afa506115e66115d8611647565b8380825183010191016120db565b9015611639578083806115fe9351830101910161152d565b929061160957505050565b6112439293945061162d604051948592830191909163ffffffff6020820193169052565b03908101835282610854565b809150519182156102ba5701fd5b3d15611671573d9061165882610891565b916116666040519384610854565b82523d5f602084013e565b606090565b60405190611683826107fe565b60606020838281520152565b906020828203126102ba5781516001600160401b03928382116102ba5701906040828203126102ba57604051926116c5846107fe565b82518181116102ba57826116da918501611251565b845260208301519081116102ba576116f29201611251565b602082015290565b6001600160a01b0391821681529116602082015265ffffffffffff909116604082015260806060820181905261124392910190610599565b9261174290929192828486612335565b92909361174d611676565b938051806118a0575b5050841593841561180a575b8415611779575b505050506117745790565b505f90565b6020809495506117a4910151604051958694859463530e1d4360e01b865260601c90600486016116fa565b03817f00000000000000000000000000000000000000000000000000000000000000006001600160a01b03165afa90811561050b575f916117eb575b50155f808080611769565b611804915060203d602011610504576104f68183610854565b5f6117e0565b5f549094506001600160a01b031660208486519261183d604051948593849363530e1d4360e01b855289600486016116fa565b03817f00000000000000000000000000000000000000000000000000000000000000006001600160a01b03165afa90811561050b575f91611881575b501593611762565b61189a915060203d602011610504576104f68183610854565b5f611879565b6118b492955060208091830101910161168f565b925f80611756565b919360a093611243969565ffffffffffff938552600180871b0316602085015260408401521660608201528160808201520190610599565b634e487b7160e01b5f52601160045260245ffd5b8115611912570490565b634e487b7160e01b5f52601260045260245ffd5b906001820180921161193457565b6118f4565b5f546040516308834cb560e21b8082526001600160a01b0385811660048401529283166024830152929392602092909183816044817f000000000000000000000000000000000000000000000000000000000000000086165afa90811561050b575f91611a46575b50159182156119c2575b505090506119bc576112439161245a565b50505f90565b6040519081526001600160a01b0385166004820152606086901c602482015291508290829060449082907f0000000000000000000000000000000000000000000000000000000000000000165afa91821561050b575f92611a29575b505015805f806119ab565b611a3f9250803d10610504576104f68183610854565b5f80611a1e565b611a5d9150843d8611610504576104f68183610854565b5f6119a1565b5f80516020612c358339815191526002815414611a805760029055565b604051633ee5aeb560e01b8152600490fd5b6004546001600160a01b0316606082901c03611bc2575f52600360205260405f209065ffffffffffff91824211611ba357824216926001820191825415611b95575b611add81612a75565b509590845493835480155f14611b7657505f975b6001600160d01b0398808a1615611b7057611b0c9088612133565b50505b82611b64575b505015611b4e575050610882935090611b30611b3692611e61565b90612133565b90919082549060031b91821b915f19901b1916179055565b61088295611b5d931691612b37565b505061254f565b16821490505f80611b15565b50611b0f565b5f1990808281011161193457855f5260205f2001015460301c97611af1565b611b9e83612522565b611ad4565b6040516306dfcc6560e41b815260306004820152426024820152604490fd5b6040516386eab41b60e01b8152600490fd5b5f8181525f80516020612c158339815191526020908152604080832033845290915290205460ff16156107cc5750565b6001600160a01b0381165f9081527fb7db2dd08fcb62d0c9e08c51941cae53c267786a0b75803fb7960902fc8ef97d60205260409020545f80516020612c158339815191529060ff166119bc575f808052602091825260408082206001600160a01b038516835290925220805460ff1916600117905533906001600160a01b03165f7f2f8788117e7eff1d82e926ec794901d17c78024a50270940304540a733656f0d8180a4600190565b6001600160a01b0381165f9081527f9ebbcbe0d2961d3fbe56ca6f679bc753bd848d3e6bb3eaf9041c51b286881d2c602052604090207fd1c1f6fa6bf27d54c5e54c7c1dc6e5004d3c027ea1994fe68b29c1b51b69c36c905f80516020612c158339815191529060ff905b5416611d7e575f828152602091825260408082206001600160a01b038616835290925220805460ff1916600117905533916001600160a01b0316907f2f8788117e7eff1d82e926ec794901d17c78024a50270940304540a733656f0d5f80a4600190565b5050505f90565b5f8181525f80516020612c15833981519152602081815260408084206001600160a01b038716855290915290912060ff90611d1a565b5f8181525f80516020612c15833981519152602081815260408084206001600160a01b03871685529091529091205460ff1615611d7e575f828152602091825260408082206001600160a01b038616835290925220805460ff1916905533916001600160a01b0316907ff6391f5c32d9c69d2a47ea670b442974b53935d1edc7fd64eb21e047a839171b5f80a4600190565b908160209103126102ba576112439061151c565b5f1981019190821161193457565b90600163ffffffff8093160191821161193457565b91805115611f5d5780602080611e9f93518301019101611e4d565b91611eaa8382612642565b92611ebb845165ffffffffffff1690565b9065ffffffffffff8085169216828114611f515782119182611ef1575b5050611ee8576112439250612572565b50506020015190565b909150611efe8354611e61565b63ffffffff831614918215611f17575b50505f80611ed8565b611f49919250611f32611f2c611f3e92611e6f565b85612642565b5165ffffffffffff1690565b65ffffffffffff1690565b115f80611f0e565b50505050506020015190565b5061124391612572565b9190916040818403126102ba578035611f7f81610549565b9260208201356001600160401b0381116102ba5761124392016108ac565b611fa991810190611f67565b6040516302910f8b60e31b81526001600160a01b039283166004820181905291906020816024817f000000000000000000000000000000000000000000000000000000000000000088165afa90811561050b575f916120bc575b50156120aa5761203e6040916120396120849461201e6126aa565b60018060a01b03166001600160601b0360a01b5f5416175f55565b61276d565b6020810151600180546001600160a01b0319166001600160a01b0390921691909117905580516001600160a01b031684811661209a575b5001516001600160a01b031690565b90811661208e5750565b61209790611caf565b50565b6120a390611c04565b505f612075565b6040516362df054560e01b8152600490fd5b6120d5915060203d602011610504576104f68183610854565b5f612003565b9190916040818403126102ba576120f181611222565b9260208201516001600160401b0381116102ba576112439201611251565b9060405161211c816107fe565b915465ffffffffffff8116835260301c6020830152565b8054821015612148575f5260205f2001905f90565b634e487b7160e01b5f52603260045260245ffd5b91908254905f829160058411612204575b612178935085612a13565b9081156121f8576121f16121e86121e26121d86121aa6121a561219a88611e61565b895f5260205f200190565b61210f565b9660016121d160206121c28b5165ffffffffffff1690565b9a01516001600160d01b031690565b9101612133565b90549060031b1c90565b93611e61565b63ffffffff1690565b6001939291565b5f925082915081908190565b919261220f816128e8565b81039081116119345761217893865f52612238611f3e8360205f200165ffffffffffff90541690565b65ffffffffffff8516101561224e57509161216d565b92915061225a90611926565b9061216d565b6040519061226d8261081e565b60606040838281528260208201520152565b906020828203126102ba5781516001600160401b03928382116102ba5701906060828203126102ba57604051926122b58461081e565b82518181116102ba57826122ca918501611251565b845260208301518181116102ba57826122e4918501611251565b602085015260408301519081116102ba576122ff9201611251565b604082015290565b908160209103126102ba575190565b60409065ffffffffffff61124394931681528160208201520190610599565b90939293612341612260565b9480518061243e575b5050600454606083901c6001600160a01b03918216148015929190612423575b505061241b575f546123b092919060209061238f9061101d906001600160a01b031681565b8187015190604051808097819463810da75d60e01b83528860048401612316565b03915afa90811561050b576123e3935f926123e8575b506123d79192604087015191611506565b90818082109118021890565b915190565b6123d7925061240e9060203d602011612414575b6124068183610854565b810190612307565b916123c6565b503d6123fc565b505090515f91565b60055481166001600160a01b03169116141590505f8061236a565b61245292965060208091830101910161227f565b935f8061234a565b6004549091606083901c6001600160a01b039283161480159290612507575b5050611774575f546004919060209061249c9061101d906001600160a01b031681565b60405163bd49c35f60e01b815293849182905afa90811561050b57611243925f926124e2575b506124d5905f52600260205260405f2090565b5490818082109118021890565b6124d59192506125009060203d602011612414576124068183610854565b91906124c2565b60055481166001600160a01b03169116141590505f80612479565b8054600160401b8110156108195761253f91600182018155612133565b8154905f199060031b1b19169055565b90815491600160401b8310156108195782611b3691600161088295018155612133565b908154905f8291600584116125dc575b61258d935084612a13565b806125b557505f905b6001600160d01b038216156119bc576112439160016121d89201612133565b6125cf6125c46125d692611e61565b835f5260205f200190565b5460301c90565b90612596565b91926125e7816128e8565b81039081116119345761258d93855f5265ffffffffffff808360205f20015416908516105f14612618575091612582565b92915061262490611926565b90612582565b60405190612637826107fe565b5f6020838281520152565b9061266b61266561268c9261265561262a565b5061265e61262a565b5084612133565b5061210f565b91600165ffffffffffff845116936020828060d01b03910151169101612133565b9054906040519261269c846107fe565b835260031b1c602082015290565b6126b2612aae565b6126ba612aae565b60015f80516020612c3583398151915255565b604051906126da8261081e565b5f6040838281528260208201520152565b8091039060a082126102ba576060604051926127068461081e565b126102ba5760809060405161271a8161081e565b815161272581610549565b8152602082015161273581610549565b6020820152604082015161274881610549565b60408201528352606081015161275d81610549565b602084015201516122ff81610549565b6127756126cd565b5061278b815191602080809483010191016126eb565b80820180516040516302910f8b60e31b8082526001600160a01b039283166004830152939491939082816024817f000000000000000000000000000000000000000000000000000000000000000089165afa90811561050b575f916128cb575b50156104ca578161282f91604087019561280b875160018060a01b031690565b6040519283526001600160a01b031660048301529092839190829081906024820190565b03917f0000000000000000000000000000000000000000000000000000000000000000165afa91821561050b575f926128ae575b50501561289c5751600480546001600160a01b039283166001600160a01b03199182161790915591516005805490931691161790555190565b604051631f0853c160e21b8152600490fd5b6128c49250803d10610504576104f68183610854565b5f80612863565b6128e29150833d8511610504576104f68183610854565b5f6127eb565b600181111561124357600181600160801b811015612a01575b6129a961299f61299561298b6129816129776129b597600488600160401b6129b09a10156129f4575b6401000000008110156129e7575b620100008110156129da575b6101008110156129ce575b60108110156129c2575b10156129ba575b60030260011c612970818b611908565b0160011c90565b612970818a611908565b6129708189611908565b6129708188611908565b6129708187611908565b6129708186611908565b8093611908565b821190565b900390565b60011b612960565b811c9160021b91612959565b60081c91811b9161294f565b60101c9160081b91612944565b60201c9160101b91612938565b60401c9160201b9161292a565b50600160401b9050608082901c612901565b91905b838210612a235750505090565b909192808316906001818518811c830180931161193457855f5265ffffffffffff808460205f20015416908516105f14612a62575050925b9190612a16565b9094935081018091116119345791612a5b565b805480612a865750505f905f905f90565b5f19918183810111611934575f5260205f2001015460019165ffffffffffff82169160301c90565b60ff5f80516020612c558339815191525460401c1615612aca57565b604051631afcd79f60e31b8152600490fd5b8054600160401b81101561081957612af991600182018155612133565b612b2457815160209092015160301b65ffffffffffff191665ffffffffffff92909216919091179055565b634e487b7160e01b5f525f60045260245ffd5b80549293928015612bea57612b4e612b5991611e61565b825f5260205f200190565b9182549265ffffffffffff91828516928116808411612bd857879303612b9f5750612b9892509065ffffffffffff82549181199060301b169116179055565b60301c9190565b915050612bd391612bbf612bb1610884565b65ffffffffffff9093168352565b6001600160d01b0386166020830152612adc565b612b98565b604051632520601d60e01b8152600490fd5b5090612c0f91612bfb612bb1610884565b6001600160d01b0385166020830152612adc565b5f919056fe02dd7bc7dec4dceedda775e58dd541e08a116c6c53815c0bd028192f7b6268009b779b17422d0df92223018b32b4d1fa46e071723d6817e2486d003becc55f00f0c57e16840df040f15088dc2f81fe391c3923bec73e23a9662efc9c229c6a00a2646970667358221220f6cce0efc162f0e8ffb0cabef02f41afd760a4aaf699150effb496d0e7fe159b64736f6c63430008190033","linkReferences":{}},"methodIdentifiers":{"BASE_DELEGATOR_HINTS()":"79d89614","DEFAULT_ADMIN_ROLE()":"a217fddf","FACTORY()":"2dd31000","HOOK_GAS_LIMIT()":"ff54740f","HOOK_RESERVE()":"557cab44","HOOK_SET_ROLE()":"6679191e","NETWORK_REGISTRY()":"c0cd7c3e","OPERATOR_NETWORK_OPT_IN_SERVICE()":"1a80e500","OPERATOR_REGISTRY()":"83ce0322","OPERATOR_VAULT_OPT_IN_SERVICE()":"128e5d82","OPT_IN_SERVICE_HINTS()":"9b656b22","TYPE()":"bb24fe8a","VAULT_FACTORY()":"103f2907","VAULT_HINTS()":"45e78fcb","VERSION()":"ffa1ad74","getRoleAdmin(bytes32)":"248a9ca3","grantRole(bytes32,address)":"2f2ff15d","hasRole(bytes32,address)":"91d14854","hook()":"7f5a7c7b","initialize(bytes)":"439fab91","maxNetworkLimit(bytes32)":"d15b740e","maxNetworkLimitAt(bytes32,uint48,bytes)":"437224a3","maxNetworkLimitHint(address,bytes32,uint48)":"991d1162","maxNetworkLimitHintInternal(bytes32,uint48)":"d0f1f901","network()":"6739afca","onSlash(bytes32,address,uint256,uint48,bytes)":"e49561ee","operator()":"570ca735","renounceRole(bytes32,address)":"36568abe","revokeRole(bytes32,address)":"d547741f","setHook(address)":"3dfd3873","setMaxNetworkLimit(uint96,uint256)":"23f752d5","stake(bytes32,address)":"fd4d447c","stakeAt(bytes32,address,uint48,bytes)":"e02f6937","stakeHints(address,bytes32,address,uint48)":"25dc9708","staticDelegateCall(address,bytes)":"9f86fd85","supportsInterface(bytes4)":"01ffc9a7","vault()":"fbfa77cf"},"id":94}