{"abi":[{"type":"constructor","inputs":[{"name":"baseDelegatorHints","type":"address","internalType":"address"},{"name":"vaultHints","type":"address","internalType":"address"}],"stateMutability":"nonpayable"},{"type":"function","name":"BASE_DELEGATOR_HINTS","inputs":[],"outputs":[{"name":"","type":"address","internalType":"address"}],"stateMutability":"view"},{"type":"function","name":"VAULT_HINTS","inputs":[],"outputs":[{"name":"","type":"address","internalType":"address"}],"stateMutability":"view"},{"type":"function","name":"hook","inputs":[],"outputs":[{"name":"","type":"address","internalType":"address"}],"stateMutability":"view"},{"type":"function","name":"maxNetworkLimit","inputs":[{"name":"subnetwork","type":"bytes32","internalType":"bytes32"}],"outputs":[{"name":"value","type":"uint256","internalType":"uint256"}],"stateMutability":"view"},{"type":"function","name":"maxNetworkLimitHint","inputs":[{"name":"delegator","type":"address","internalType":"address"},{"name":"subnetwork","type":"bytes32","internalType":"bytes32"},{"name":"timestamp","type":"uint48","internalType":"uint48"}],"outputs":[{"name":"hint","type":"bytes","internalType":"bytes"}],"stateMutability":"view"},{"type":"function","name":"maxNetworkLimitHintInternal","inputs":[{"name":"subnetwork","type":"bytes32","internalType":"bytes32"},{"name":"timestamp","type":"uint48","internalType":"uint48"}],"outputs":[{"name":"exists","type":"bool","internalType":"bool"},{"name":"hint","type":"uint32","internalType":"uint32"}],"stateMutability":"view"},{"type":"function","name":"network","inputs":[],"outputs":[{"name":"","type":"address","internalType":"address"}],"stateMutability":"view"},{"type":"function","name":"operator","inputs":[],"outputs":[{"name":"","type":"address","internalType":"address"}],"stateMutability":"view"},{"type":"function","name":"stakeHints","inputs":[{"name":"delegator","type":"address","internalType":"address"},{"name":"subnetwork","type":"bytes32","internalType":"bytes32"},{"name":"operator_","type":"address","internalType":"address"},{"name":"timestamp","type":"uint48","internalType":"uint48"}],"outputs":[{"name":"hints","type":"bytes","internalType":"bytes"}],"stateMutability":"view"},{"type":"function","name":"vault","inputs":[],"outputs":[{"name":"","type":"address","internalType":"address"}],"stateMutability":"view"},{"type":"error","name":"ExternalCall","inputs":[]}],"bytecode":{"object":"0x60e03461009557601f610d6238819003918201601f19168301916001600160401b0383118484101761009957808492604094855283398101031261009557610052602061004b836100ad565b92016100ad565b903060805260a05260c052604051610ca090816100c28239608051816104e6015260a05181818161012f0152610415015260c0518181816101cd01526103810152f35b5f80fd5b634e487b7160e01b5f52604160045260245ffd5b51906001600160a01b03821682036100955756fe608060408181526004361015610013575f80fd5b5f3560e01c91826325dc9708146100b9575050806345e78fcb146100b4578063570ca735146100af5780636739afca146100aa57806379d89614146100a55780637f5a7c7b146100a0578063991d11621461009b578063d0f1f90114610096578063d15b740e146100915763fbfa77cf1461008c575f80fd5b610584565b61055a565b6104c1565b61046c565b610444565b610400565b6103d8565b6103b0565b61036c565b3461030a578060031936011261030a57600435916100d68361030e565b60243591604435936100e78561030e565b6100ef61031f565b630df8851f60e11b83526001600160a01b0382811660845260a486905295861660c45265ffffffffffff811660e452606094905f84607f1961010401818a7f0000000000000000000000000000000000000000000000000000000000000000165afa9384156102b4575f946102e8575b50845163fbfa77cf60e01b8152602081600481878c165afa9081156102b4576101c9985f92849284916102b9575b50885163192c0ff760e21b81526001600160a01b03909116600482015265ffffffffffff90921660248301529098899190829081906044820190565b03917f0000000000000000000000000000000000000000000000000000000000000000165afa9182156102b457610231975f9361028e575b5061020c929361079e565b90825115801590610284575b801561027a575b610235575b5050505191829182610358565b0390f35b610263939450906102719291610249610625565b928352602083015284820152835192839160208301610718565b03601f198101835282610603565b90838080610224565b508151151561021f565b5080511515610218565b61020c93506102ae903d805f833e6102a68183610603565b8101906106d2565b92610201565b6106f8565b6102db915060203d6020116102e1575b6102d38183610603565b810190610703565b8b61018d565b503d6102c9565b6103039194503d90815f823e6102fd826105bf565b016106a7565b928761015f565b5f80fd5b6001600160a01b0381160361030a57565b6064359065ffffffffffff8216820361030a57565b805180835260209291819084018484015e5f828201840152601f01601f1916010190565b906020610369928181520190610334565b90565b3461030a575f36600319011261030a576040517f00000000000000000000000000000000000000000000000000000000000000006001600160a01b03168152602090f35b3461030a575f36600319011261030a576005546040516001600160a01b039091168152602090f35b3461030a575f36600319011261030a576004546040516001600160a01b039091168152602090f35b3461030a575f36600319011261030a576040517f00000000000000000000000000000000000000000000000000000000000000006001600160a01b03168152602090f35b3461030a575f36600319011261030a576001546040516001600160a01b039091168152602090f35b3461030a57606036600319011261030a576004356104898161030e565b6044359065ffffffffffff8216820361030a57610231916104ad916024359061079e565b604051918291602083526020830190610334565b3461030a57604036600319011261030a5760243565ffffffffffff8116810361030a577f00000000000000000000000000000000000000000000000000000000000000006001600160a01b031633036105485761052b906004355f52600360205260405f2061098e565b60408051941515855263ffffffff91909116602085015292915050f35b604051637ca475e560e11b8152600490fd5b3461030a57602036600319011261030a576004355f526002602052602060405f2054604051908152f35b3461030a575f36600319011261030a575f546040516001600160a01b039091168152602090f35b634e487b7160e01b5f52604160045260245ffd5b601f80199101166080016080811067ffffffffffffffff8211176105e257604052565b6105ab565b6080810190811067ffffffffffffffff8211176105e257604052565b90601f8019910116810190811067ffffffffffffffff8211176105e257604052565b604051906060820182811067ffffffffffffffff8211176105e257604052565b67ffffffffffffffff81116105e257601f01601f191660200190565b81601f8201121561030a5780519061067882610645565b926106866040519485610603565b8284526020838301011161030a57815f9260208093018386015e8301015290565b6020607f1982011261030a576080519067ffffffffffffffff821161030a5761036991608001610661565b9060208282031261030a57815167ffffffffffffffff811161030a576103699201610661565b6040513d5f823e3d90fd5b9081602091031261030a57516103698161030e565b9061036991602081526107378251606060208401526080830190610334565b9060606040610757602086015194601f1995868683030184870152610334565b9401519282850301910152610334565b5190811515820361030a57565b919082604091031261030a57602061078b83610767565b92015163ffffffff8116810361030a5790565b92915f8060609565ffffffffffff6040519460209663d0f1f90160e01b888801526024870152166044850152604484526107d7846105e7565b604051938461080487820192639f86fd8560e01b8452306024840152604060448401526064830190610334565b0394610818601f1996878101835282610603565b51915afa50610836610828610897565b8380825183010191016108c6565b90156108895780838061084e93518301019101610774565b929061085957505050565b6103699293945061087d604051948592830191909163ffffffff6020820193169052565b03908101835282610603565b8091505191821561030a5701fd5b3d156108c1573d906108a882610645565b916108b66040519384610603565b82523d5f602084013e565b606090565b91909160408184031261030a576108dc81610767565b92602082015167ffffffffffffffff811161030a576103699201610661565b634e487b7160e01b5f52601160045260245ffd5b5f1981019190821161091d57565b6108fb565b906001820180921161091d57565b906040516040810181811067ffffffffffffffff8211176105e257604052915465ffffffffffff8116835260301c6020830152565b805482101561097a575f5260205f2001905f90565b634e487b7160e01b5f52603260045260245ffd5b91908254905f829160058411610a36575b6109aa935085610bf9565b908115610a2a57610a23610a1a610a14610a0a6109dc6109d76109cc8861090f565b895f5260205f200190565b610930565b966001610a0360206109f48b5165ffffffffffff1690565b9a01516001600160d01b031690565b9101610965565b90549060031b1c90565b9361090f565b63ffffffff1690565b6001939291565b5f925082915081908190565b9192610a4181610abb565b810390811161091d576109aa93865f52610a75610a6a8360205f200165ffffffffffff90541690565b65ffffffffffff1690565b65ffffffffffff85161015610a8b57509161099f565b929150610a9790610922565b9061099f565b8115610aa7570490565b634e487b7160e01b5f52601260045260245ffd5b8015610bf45780610b8d610b86610b7c610b72610b68610b5e610b54610b4a60016103699a5f908b60801c80610be8575b508060401c80610bdb575b508060201c80610bce575b508060101c80610bc1575b508060081c80610bb4575b508060041c80610ba7575b508060021c80610b9a575b50821c610b93575b811c1b610b43818b610a9d565b0160011c90565b610b43818a610a9d565b610b438189610a9d565b610b438188610a9d565b610b438187610a9d565b610b438186610a9d565b610b438185610a9d565b8092610a9d565b90610c58565b8101610b36565b600291509101905f610b2e565b600491509101905f610b23565b600891509101905f610b18565b601091509101905f610b0d565b602091509101905f610b02565b604091509101905f610af7565b9150506080905f610aec565b505f90565b91905b838210610c095750505090565b9091928083169080841860011c820180921161091d57845f5265ffffffffffff808360205f20015416908416105f14610c465750925b9190610bfc565b939250610c5290610922565b91610c3f565b9080821015610c65575090565b90509056fea264697066735822122046e9cef6f892c7f8f73c3f5ca12d6156590bc5d4d36e36a55dab38d14d6d612764736f6c63430008190033","linkReferences":{}},"methodIdentifiers":{"BASE_DELEGATOR_HINTS()":"79d89614","VAULT_HINTS()":"45e78fcb","hook()":"7f5a7c7b","maxNetworkLimit(bytes32)":"d15b740e","maxNetworkLimitHint(address,bytes32,uint48)":"991d1162","maxNetworkLimitHintInternal(bytes32,uint48)":"d0f1f901","network()":"6739afca","operator()":"570ca735","stakeHints(address,bytes32,address,uint48)":"25dc9708","vault()":"fbfa77cf"},"id":81}