{"abi":[{"type":"constructor","inputs":[{"name":"baseDelegatorHints","type":"address","internalType":"address"},{"name":"vaultHints","type":"address","internalType":"address"},{"name":"optInServiceHints","type":"address","internalType":"address"}],"stateMutability":"nonpayable"},{"type":"function","name":"BASE_DELEGATOR_HINTS","inputs":[],"outputs":[{"name":"","type":"address","internalType":"address"}],"stateMutability":"view"},{"type":"function","name":"DEFAULT_ADMIN_ROLE","inputs":[],"outputs":[{"name":"","type":"bytes32","internalType":"bytes32"}],"stateMutability":"view"},{"type":"function","name":"FACTORY","inputs":[],"outputs":[{"name":"","type":"address","internalType":"address"}],"stateMutability":"view"},{"type":"function","name":"HOOK_GAS_LIMIT","inputs":[],"outputs":[{"name":"","type":"uint256","internalType":"uint256"}],"stateMutability":"view"},{"type":"function","name":"HOOK_RESERVE","inputs":[],"outputs":[{"name":"","type":"uint256","internalType":"uint256"}],"stateMutability":"view"},{"type":"function","name":"HOOK_SET_ROLE","inputs":[],"outputs":[{"name":"","type":"bytes32","internalType":"bytes32"}],"stateMutability":"view"},{"type":"function","name":"NETWORK_LIMIT_SET_ROLE","inputs":[],"outputs":[{"name":"","type":"bytes32","internalType":"bytes32"}],"stateMutability":"view"},{"type":"function","name":"NETWORK_REGISTRY","inputs":[],"outputs":[{"name":"","type":"address","internalType":"address"}],"stateMutability":"view"},{"type":"function","name":"OPERATOR_NETWORK_OPT_IN_SERVICE","inputs":[],"outputs":[{"name":"","type":"address","internalType":"address"}],"stateMutability":"view"},{"type":"function","name":"OPERATOR_REGISTRY","inputs":[],"outputs":[{"name":"","type":"address","internalType":"address"}],"stateMutability":"view"},{"type":"function","name":"OPERATOR_VAULT_OPT_IN_SERVICE","inputs":[],"outputs":[{"name":"","type":"address","internalType":"address"}],"stateMutability":"view"},{"type":"function","name":"OPT_IN_SERVICE_HINTS","inputs":[],"outputs":[{"name":"","type":"address","internalType":"address"}],"stateMutability":"view"},{"type":"function","name":"TYPE","inputs":[],"outputs":[{"name":"","type":"uint64","internalType":"uint64"}],"stateMutability":"view"},{"type":"function","name":"VAULT_FACTORY","inputs":[],"outputs":[{"name":"","type":"address","internalType":"address"}],"stateMutability":"view"},{"type":"function","name":"VAULT_HINTS","inputs":[],"outputs":[{"name":"","type":"address","internalType":"address"}],"stateMutability":"view"},{"type":"function","name":"VERSION","inputs":[],"outputs":[{"name":"","type":"uint64","internalType":"uint64"}],"stateMutability":"pure"},{"type":"function","name":"getRoleAdmin","inputs":[{"name":"role","type":"bytes32","internalType":"bytes32"}],"outputs":[{"name":"","type":"bytes32","internalType":"bytes32"}],"stateMutability":"view"},{"type":"function","name":"grantRole","inputs":[{"name":"role","type":"bytes32","internalType":"bytes32"},{"name":"account","type":"address","internalType":"address"}],"outputs":[],"stateMutability":"nonpayable"},{"type":"function","name":"hasRole","inputs":[{"name":"role","type":"bytes32","internalType":"bytes32"},{"name":"account","type":"address","internalType":"address"}],"outputs":[{"name":"","type":"bool","internalType":"bool"}],"stateMutability":"view"},{"type":"function","name":"hook","inputs":[],"outputs":[{"name":"","type":"address","internalType":"address"}],"stateMutability":"view"},{"type":"function","name":"initialize","inputs":[{"name":"data","type":"bytes","internalType":"bytes"}],"outputs":[],"stateMutability":"nonpayable"},{"type":"function","name":"maxNetworkLimit","inputs":[{"name":"subnetwork","type":"bytes32","internalType":"bytes32"}],"outputs":[{"name":"value","type":"uint256","internalType":"uint256"}],"stateMutability":"view"},{"type":"function","name":"networkLimit","inputs":[{"name":"subnetwork","type":"bytes32","internalType":"bytes32"}],"outputs":[{"name":"","type":"uint256","internalType":"uint256"}],"stateMutability":"view"},{"type":"function","name":"networkLimitAt","inputs":[{"name":"subnetwork","type":"bytes32","internalType":"bytes32"},{"name":"timestamp","type":"uint48","internalType":"uint48"},{"name":"hint","type":"bytes","internalType":"bytes"}],"outputs":[{"name":"","type":"uint256","internalType":"uint256"}],"stateMutability":"view"},{"type":"function","name":"networkLimitHint","inputs":[{"name":"delegator","type":"address","internalType":"address"},{"name":"subnetwork","type":"bytes32","internalType":"bytes32"},{"name":"timestamp","type":"uint48","internalType":"uint48"}],"outputs":[{"name":"","type":"bytes","internalType":"bytes"}],"stateMutability":"view"},{"type":"function","name":"networkLimitHintInternal","inputs":[{"name":"subnetwork","type":"bytes32","internalType":"bytes32"},{"name":"timestamp","type":"uint48","internalType":"uint48"}],"outputs":[{"name":"exists","type":"bool","internalType":"bool"},{"name":"hint","type":"uint32","internalType":"uint32"}],"stateMutability":"view"},{"type":"function","name":"onSlash","inputs":[{"name":"subnetwork","type":"bytes32","internalType":"bytes32"},{"name":"operator","type":"address","internalType":"address"},{"name":"amount","type":"uint256","internalType":"uint256"},{"name":"captureTimestamp","type":"uint48","internalType":"uint48"},{"name":"data","type":"bytes","internalType":"bytes"}],"outputs":[],"stateMutability":"nonpayable"},{"type":"function","name":"operator","inputs":[],"outputs":[{"name":"","type":"address","internalType":"address"}],"stateMutability":"view"},{"type":"function","name":"renounceRole","inputs":[{"name":"role","type":"bytes32","internalType":"bytes32"},{"name":"callerConfirmation","type":"address","internalType":"address"}],"outputs":[],"stateMutability":"nonpayable"},{"type":"function","name":"revokeRole","inputs":[{"name":"role","type":"bytes32","internalType":"bytes32"},{"name":"account","type":"address","internalType":"address"}],"outputs":[],"stateMutability":"nonpayable"},{"type":"function","name":"setHook","inputs":[{"name":"hook_","type":"address","internalType":"address"}],"outputs":[],"stateMutability":"nonpayable"},{"type":"function","name":"setMaxNetworkLimit","inputs":[{"name":"identifier","type":"uint96","internalType":"uint96"},{"name":"amount","type":"uint256","internalType":"uint256"}],"outputs":[],"stateMutability":"nonpayable"},{"type":"function","name":"setNetworkLimit","inputs":[{"name":"subnetwork","type":"bytes32","internalType":"bytes32"},{"name":"amount","type":"uint256","internalType":"uint256"}],"outputs":[],"stateMutability":"nonpayable"},{"type":"function","name":"stake","inputs":[{"name":"subnetwork","type":"bytes32","internalType":"bytes32"},{"name":"operator","type":"address","internalType":"address"}],"outputs":[{"name":"","type":"uint256","internalType":"uint256"}],"stateMutability":"view"},{"type":"function","name":"stakeAt","inputs":[{"name":"subnetwork","type":"bytes32","internalType":"bytes32"},{"name":"operator","type":"address","internalType":"address"},{"name":"timestamp","type":"uint48","internalType":"uint48"},{"name":"hints","type":"bytes","internalType":"bytes"}],"outputs":[{"name":"","type":"uint256","internalType":"uint256"}],"stateMutability":"view"},{"type":"function","name":"stakeHints","inputs":[{"name":"delegator","type":"address","internalType":"address"},{"name":"subnetwork","type":"bytes32","internalType":"bytes32"},{"name":"operator","type":"address","internalType":"address"},{"name":"timestamp","type":"uint48","internalType":"uint48"}],"outputs":[{"name":"","type":"bytes","internalType":"bytes"}],"stateMutability":"view"},{"type":"function","name":"staticDelegateCall","inputs":[{"name":"target","type":"address","internalType":"address"},{"name":"data","type":"bytes","internalType":"bytes"}],"outputs":[],"stateMutability":"nonpayable"},{"type":"function","name":"supportsInterface","inputs":[{"name":"interfaceId","type":"bytes4","internalType":"bytes4"}],"outputs":[{"name":"","type":"bool","internalType":"bool"}],"stateMutability":"view"},{"type":"function","name":"vault","inputs":[],"outputs":[{"name":"","type":"address","internalType":"address"}],"stateMutability":"view"},{"type":"event","name":"Initialized","inputs":[{"name":"version","type":"uint64","indexed":false,"internalType":"uint64"}],"anonymous":false},{"type":"event","name":"OnSlash","inputs":[{"name":"subnetwork","type":"bytes32","indexed":true,"internalType":"bytes32"},{"name":"operator","type":"address","indexed":true,"internalType":"address"},{"name":"amount","type":"uint256","indexed":false,"internalType":"uint256"},{"name":"captureTimestamp","type":"uint48","indexed":false,"internalType":"uint48"}],"anonymous":false},{"type":"event","name":"RoleAdminChanged","inputs":[{"name":"role","type":"bytes32","indexed":true,"internalType":"bytes32"},{"name":"previousAdminRole","type":"bytes32","indexed":true,"internalType":"bytes32"},{"name":"newAdminRole","type":"bytes32","indexed":true,"internalType":"bytes32"}],"anonymous":false},{"type":"event","name":"RoleGranted","inputs":[{"name":"role","type":"bytes32","indexed":true,"internalType":"bytes32"},{"name":"account","type":"address","indexed":true,"internalType":"address"},{"name":"sender","type":"address","indexed":true,"internalType":"address"}],"anonymous":false},{"type":"event","name":"RoleRevoked","inputs":[{"name":"role","type":"bytes32","indexed":true,"internalType":"bytes32"},{"name":"account","type":"address","indexed":true,"internalType":"address"},{"name":"sender","type":"address","indexed":true,"internalType":"address"}],"anonymous":false},{"type":"event","name":"SetHook","inputs":[{"name":"hook","type":"address","indexed":true,"internalType":"address"}],"anonymous":false},{"type":"event","name":"SetMaxNetworkLimit","inputs":[{"name":"subnetwork","type":"bytes32","indexed":true,"internalType":"bytes32"},{"name":"amount","type":"uint256","indexed":false,"internalType":"uint256"}],"anonymous":false},{"type":"event","name":"SetNetworkLimit","inputs":[{"name":"subnetwork","type":"bytes32","indexed":true,"internalType":"bytes32"},{"name":"amount","type":"uint256","indexed":false,"internalType":"uint256"}],"anonymous":false},{"type":"error","name":"AccessControlBadConfirmation","inputs":[]},{"type":"error","name":"AccessControlUnauthorizedAccount","inputs":[{"name":"account","type":"address","internalType":"address"},{"name":"neededRole","type":"bytes32","internalType":"bytes32"}]},{"type":"error","name":"AlreadySet","inputs":[]},{"type":"error","name":"CheckpointUnorderedInsertion","inputs":[]},{"type":"error","name":"DuplicateRoleHolder","inputs":[]},{"type":"error","name":"ExceedsMaxNetworkLimit","inputs":[]},{"type":"error","name":"ExternalCall","inputs":[]},{"type":"error","name":"InsufficientHookGas","inputs":[]},{"type":"error","name":"InvalidInitialization","inputs":[]},{"type":"error","name":"MissingRoleHolders","inputs":[]},{"type":"error","name":"NotInitialized","inputs":[]},{"type":"error","name":"NotInitializing","inputs":[]},{"type":"error","name":"NotNetwork","inputs":[]},{"type":"error","name":"NotOperator","inputs":[]},{"type":"error","name":"NotSlasher","inputs":[]},{"type":"error","name":"NotVault","inputs":[]},{"type":"error","name":"ReentrancyGuardReentrantCall","inputs":[]},{"type":"error","name":"SafeCastOverflowedUintDowncast","inputs":[{"name":"bits","type":"uint8","internalType":"uint8"},{"name":"value","type":"uint256","internalType":"uint256"}]},{"type":"error","name":"ZeroAddressRoleHolder","inputs":[]}],"bytecode":{"object":"0x6101e0346101d557601f61316638819003918201601f19168301916001600160401b0391828411858510176101d95781606092869260409687528339810103126101d55761004c836101ed565b926100648361005d602084016101ed565b92016101ed565b91306080527ff0c57e16840df040f15088dc2f81fe391c3923bec73e23a9662efc9c229c6a009081549060ff82871c166101c4578080831603610180575b5050505f60a0525f60c0525f60e052610100935f8552610120935f85526101405f8152610160915f83526101809384526101a09485526101c09586525195612f64978861020289396080518861048c015260a051886107a4015260c05188610f6c015260e0518881816105950152610fa50152518781816103bf0152612299015251868181610403015281816119720152611aa1015251858181610513015281816118d90152611b1f015251848181610dce0152612aff015251838181610d29015261149a015251828181610b0e015261153b01525181610e700152f35b6001600160401b0319909116811790915583519081527fc7f505b2f371ae2175ee4913f4499e1f2633a7b5936321eed1cdaeb6115181d290602090a15f80806100a2565b855163f92ee8a960e01b8152600490fd5b5f80fd5b634e487b7160e01b5f52604160045260245ffd5b51906001600160a01b03821682036101d55756fe60806040526004361015610011575f80fd5b5f3560e01c806301ffc9a714610284578063021453481461027f578063103f29071461027a578063128e5d8214610275578063197aa7ea146102705780631a80e5001461026b57806323f752d514610266578063248a9ca31461026157806325dc97081461025c5780632dd31000146102575780632f2ff15d1461025257806336568abe1461024d5780633dfd3873146102485780633eb22c0f14610243578063439fab911461023e57806345e78fcb14610239578063557cab4414610234578063570ca7351461022f5780635d32a1c91461022a5780636679191e1461022557806379d89614146102205780637d24bb271461021b5780637f5a7c7b1461021657806383ce03221461021157806391d148541461020c5780639b656b22146102075780639f86fd8514610202578063a217fddf146101fd578063bb24fe8a146101f8578063c0cd7c3e146101f3578063d15b740e146101ee578063d547741f146101e9578063da749d2b146101e4578063e02f6937146101df578063e49561ee146101da578063fbfa77cf146101d5578063fd4d447c146101d0578063ff54740f146101cb5763ffa1ad74146101c6575f80fd5b61132d565b611310565b6112e6565b6112bf565b6110d4565b61107f565b61104a565b610ffe565b610fd4565b610f90565b610f4d565b610f33565b610e9f565b610e5b565b610dfd565b610db9565b610d91565b610d58565b610d14565b610cda565b610c89565b610b59565b610b3d565b610af9565b6109c1565b610963565b61086a565b61081f565b6107d3565b61078f565b610736565b6106c8565b610542565b6104fe565b610471565b6103ee565b6103aa565b6102de565b346102da5760203660031901126102da5760043563ffffffff60e01b81168091036102da57602090637965db0b60e01b81149081156102c9575b506040519015158152f35b6301ffc9a760e01b1490505f6102be565b5f80fd5b346102da576040806003193601126102da576004359060243590610300611b94565b825f526002602052805f2054821161039a57825f52600360205281610326825f206121eb565b1461038a5781610385916103757e899d104fc3d8820bd96540612bcc5c448c8837b13b9f7faa43ad0728f0c14f94610366875f52600360205260405f2090565b61036f4261272b565b90611c93565b5050519081529081906020820190565b0390a2005b5163a741a04560e01b8152600490fd5b51631eefc06360e31b8152600490fd5b346102da575f3660031901126102da576040517f00000000000000000000000000000000000000000000000000000000000000006001600160a01b03168152602090f35b346102da575f3660031901126102da576040517f00000000000000000000000000000000000000000000000000000000000000006001600160a01b03168152602090f35b6024359065ffffffffffff821682036102da57565b6064359065ffffffffffff821682036102da57565b6044359065ffffffffffff821682036102da57565b346102da5760403660031901126102da5761048a610432565b7f00000000000000000000000000000000000000000000000000000000000000006001600160a01b031633036104ec5763ffffffff6104d76040926004355f526003602052835f20611d79565b91505083929192519215158352166020820152f35b604051637ca475e560e11b8152600490fd5b346102da575f3660031901126102da576040517f00000000000000000000000000000000000000000000000000000000000000006001600160a01b03168152602090f35b346102da5760403660031901126102da576004356001600160601b03811681036102da5760243590610572611e88565b6040516302910f8b60e31b81523360048201526020816024816001600160a01b037f0000000000000000000000000000000000000000000000000000000000000000165afa9081156106c3575f91610694575b5015610682576001600160601b03166bffffffffffffffffffffffff193360601b161790806105fc835f52600260205260405f2090565b541461067057610655817fc67e7929681aa1bccd63f52b3799bf5805f3009f197db6fdf584b14f7fbf608c9261063a855f52600260205260405f2090565b556106458185611eb7565b6040519081529081906020820190565b0390a261066e60015f80516020612eef83398151915255565b005b60405163a741a04560e01b8152600490fd5b6040516323d53b9760e21b8152600490fd5b6106b6915060203d6020116106bc575b6106ae8183610beb565b810190611355565b5f6105c5565b503d6106a4565b61136c565b346102da5760203660031901126102da576004355f525f80516020612ecf8339815191526020526020600160405f200154604051908152f35b6001600160a01b038116036102da57565b805180835260209291819084018484015e5f828201840152601f01601f1916010190565b346102da5760803660031901126102da5761078b61077760043561075981610701565b60443561076581610701565b61076d610447565b9160243590611451565b604051918291602083526020830190610712565b0390f35b346102da575f3660031901126102da576040517f00000000000000000000000000000000000000000000000000000000000000006001600160a01b03168152602090f35b346102da5760403660031901126102da5761066e6024356004356107f682610701565b805f525f80516020612ecf83398151915260205261081a600160405f200154611bf0565b612123565b346102da5760403660031901126102da5760243561083c81610701565b336001600160a01b038216036108585761066e90600435612159565b60405163334bd91960e11b8152600490fd5b346102da5760203660031901126102da5760043561088781610701565b61088f611e88565b335f9081527f9ebbcbe0d2961d3fbe56ca6f679bc753bd848d3e6bb3eaf9041c51b286881d2c60205260409020547fd1c1f6fa6bf27d54c5e54c7c1dc6e5004d3c027ea1994fe68b29c1b51b69c36c9060ff161561094557506001546001600160a01b039182169181168214610670576001600160a01b03191681176001557f5bbb1d3ebb6a3ad2a0f17ff35e579a83af60604d1d3c2a4c83c62adecadf666d5f80a260015f80516020612eef83398151915255005b6044906040519063e2517d3f60e01b82523360048301526024820152fd5b346102da5760203660031901126102da576004355f526003602052602061098c60405f206121eb565b604051908152f35b9181601f840112156102da578235916001600160401b0383116102da57602083818601950101116102da57565b346102da5760203660031901126102da576001600160401b036004358181116102da576109f2903690600401610994565b5f80516020612f0f833981519152549260ff8460401c1615931680159081610af1575b6001149081610ae7575b159081610ade575b50610acc575f80516020612f0f833981519152805467ffffffffffffffff19166001179055610a5a9183610aa857612264565b610a6057005b5f80516020612f0f833981519152805460ff60401b19169055604051600181527fc7f505b2f371ae2175ee4913f4499e1f2633a7b5936321eed1cdaeb6115181d290602090a1005b5f80516020612f0f833981519152805460ff60401b1916600160401b179055612264565b60405163f92ee8a960e01b8152600490fd5b9050155f610a27565b303b159150610a1f565b849150610a15565b346102da575f3660031901126102da576040517f00000000000000000000000000000000000000000000000000000000000000006001600160a01b03168152602090f35b346102da575f3660031901126102da576020604051614e208152f35b346102da575f3660031901126102da576004546040516001600160a01b039091168152602090f35b634e487b7160e01b5f52604160045260245ffd5b604081019081106001600160401b03821117610bb057604052565b610b81565b606081019081106001600160401b03821117610bb057604052565b608081019081106001600160401b03821117610bb057604052565b90601f801991011681019081106001600160401b03821117610bb057604052565b60405190610c1982610bb5565b565b60405190610c1982610b95565b6001600160401b038111610bb057601f01601f191660200190565b81601f820112156102da57803590610c5a82610c28565b92610c686040519485610beb565b828452602083830101116102da57815f926020809301838601378301015290565b346102da5760603660031901126102da57610ca2610432565b6044356001600160401b0381116102da57602091610cc761098c923690600401610c43565b906004355f526003845260405f206123cb565b346102da575f3660031901126102da5760206040517fd1c1f6fa6bf27d54c5e54c7c1dc6e5004d3c027ea1994fe68b29c1b51b69c36c8152f35b346102da575f3660031901126102da576040517f00000000000000000000000000000000000000000000000000000000000000006001600160a01b03168152602090f35b346102da575f3660031901126102da5760206040517e8b9b1e5fa9cf3b14f87f435649268146305ddf689f082e5961a335b07a9abf8152f35b346102da575f3660031901126102da576001546040516001600160a01b039091168152602090f35b346102da575f3660031901126102da576040517f00000000000000000000000000000000000000000000000000000000000000006001600160a01b03168152602090f35b346102da5760403660031901126102da57602060ff610e4f602435610e2181610701565b6004355f525f80516020612ecf833981519152845260405f209060018060a01b03165f5260205260405f2090565b54166040519015158152f35b346102da575f3660031901126102da576040517f00000000000000000000000000000000000000000000000000000000000000006001600160a01b03168152602090f35b346102da5760403660031901126102da57600435610ebc81610701565b6024356001600160401b0381116102da575f91610ede83923690600401610994565b90816040519283928337810184815203915af4610f2b610efc61164d565b91610f1d604051938492151560208401526040808401526060830190610712565b03601f198101835282610beb565b805190602001fd5b346102da575f3660031901126102da5760206040515f8152f35b346102da575f3660031901126102da5760206040516001600160401b037f0000000000000000000000000000000000000000000000000000000000000000168152f35b346102da575f3660031901126102da576040517f00000000000000000000000000000000000000000000000000000000000000006001600160a01b03168152602090f35b346102da5760203660031901126102da576004355f526002602052602060405f2054604051908152f35b346102da5760403660031901126102da5761066e60243560043561102182610701565b805f525f80516020612ecf833981519152602052611045600160405f200154611bf0565b612159565b346102da5760603660031901126102da5761078b61077760043561106d81610701565b61107561045c565b90602435906116ae565b346102da5760803660031901126102da5760243561109c81610701565b6110a461045c565b90606435906001600160401b0382116102da576020926110cb61098c933690600401610c43565b91600435611863565b346102da5760a03660031901126102da576024356004356110f482610701565b60443591611100610447565b90608435906001600160401b0382116102da5761112260049236908401610c43565b61112a611e88565b5f5460209061114f90611143906001600160a01b031681565b6001600160a01b031690565b60405163b134427160e01b815294859182905afa9283156106c3575f9361128e575b506001600160a01b03928316330361127c576001546001600160a01b03168381166111f1575b50506040805195865265ffffffffffff909316602086015216927f741a5de99085c0d660f3e4192217b0ffb0ea4e35a0480de48e857a4bc3ee36ed91819081015b0390a361066e60015f80516020612eef83398151915255565b9093604051946112288661121a602082019363724ab0f760e11b8552858c898d602487016119ed565b03601f198101885287610beb565b62042e305a1061126a575f6111d8938192827f741a5de99085c0d660f3e4192217b0ffb0ea4e35a0480de48e857a4bc3ee36ed9951926203d090f15093611197565b604051638072475160e01b8152600490fd5b60405163dabc4ad960e01b8152600490fd5b6112b191935060203d6020116112b8575b6112a98183610beb565b8101906113ed565b915f611171565b503d61129f565b346102da575f3660031901126102da575f546040516001600160a01b039091168152602090f35b346102da5760403660031901126102da57602061098c60243561130881610701565b600435611a6a565b346102da575f3660031901126102da5760206040516203d0908152f35b346102da575f3660031901126102da57602060405160018152f35b519081151582036102da57565b908160209103126102da5761136990611348565b90565b6040513d5f823e3d90fd5b81601f820112156102da5780519061138e82610c28565b9261139c6040519485610beb565b828452602083830101116102da57815f9260208093018386015e8301015290565b906020828203126102da5781516001600160401b0381116102da576113699201611377565b5190610c1982610701565b908160209103126102da575161136981610701565b9061136991602081526114218251606060208401526080830190610712565b9060606040611441602086015194601f1995868683030184870152610712565b9401519282850301910152610712565b604051630df8851f60e11b81526001600160a01b03828116600483015260248201849052938416604482015265ffffffffffff8516606482015260609594909391925f856084817f000000000000000000000000000000000000000000000000000000000000000087165afa9485156106c3575f9561161b575b5060405163fbfa77cf60e01b81526020816004818888165afa9081156106c357611537945f92859284916115fc575b5060405163192c0ff760e21b81526001600160a01b03909116600482015265ffffffffffff90921660248301529094859190829081906044820190565b03917f0000000000000000000000000000000000000000000000000000000000000000165afa9283156106c3575f936115d6575b5061157692936116ae565b908251158015906115cc575b80156115c2575b61159257505050565b610f1d9394509061136992916115a6610c0c565b9283526020830152604082015260405192839160208301611402565b5081511515611589565b5080511515611582565b61157693506115f6903d805f833e6115ee8183610beb565b8101906113bd565b9261156b565b611615915060203d6020116112b8576112a98183610beb565b5f6114fa565b6116309195503d805f833e6115ee8183610beb565b935f6114cb565b9061136992915f52600360205260405f206123cb565b3d15611677573d9061165e82610c28565b9161166c6040519384610beb565b82523d5f602084013e565b606090565b519063ffffffff821682036102da57565b91908260409103126102da5761136960206116a784611348565b930161167c565b92915f8060609565ffffffffffff60405194602096630cbd53f560e11b888801526024870152166044850152604484526116e784610bd0565b604051938461171487820192639f86fd8560e01b8452306024840152604060448401526064830190610712565b0394611728601f1996878101835282610beb565b51915afa5061174661173861164d565b8380825183010191016124a3565b90156117995780838061175e9351830101910161168d565b929061176957505050565b6113699293945061178d604051948592830191909163ffffffff6020820193169052565b03908101835282610beb565b809150519182156102da5701fd5b604051906117b482610b95565b60606020838281520152565b906020828203126102da5781516001600160401b03928382116102da5701906040828203126102da57604051926117f684610b95565b82518181116102da578261180b918501611377565b845260208301519081116102da576118239201611377565b602082015290565b6001600160a01b0391821681529116602082015265ffffffffffff909116604082015260806060820181905261136992910190610712565b92611873909291928284866125ac565b92909361187e6117a7565b938051806119d1575b5050841593841561193b575b84156118aa575b505050506118a55790565b505f90565b6020809495506118d5910151604051958694859463530e1d4360e01b865260601c906004860161182b565b03817f00000000000000000000000000000000000000000000000000000000000000006001600160a01b03165afa9081156106c3575f9161191c575b50155f80808061189a565b611935915060203d6020116106bc576106ae8183610beb565b5f611911565b5f549094506001600160a01b031660208486519261196e604051948593849363530e1d4360e01b8552896004860161182b565b03817f00000000000000000000000000000000000000000000000000000000000000006001600160a01b03165afa9081156106c3575f916119b2575b501593611893565b6119cb915060203d6020116106bc576106ae8183610beb565b5f6119aa565b6119e59295506020809183010191016117c0565b925f80611887565b919360a093611369969565ffffffffffff938552600180871b0316602085015260408401521660608201528160808201520190610712565b634e487b7160e01b5f52601160045260245ffd5b8115611a43570490565b634e487b7160e01b5f52601260045260245ffd5b9060018201809211611a6557565b611a25565b5f546040516308834cb560e21b8082526001600160a01b0385811660048401529283166024830152929392602092909183816044817f000000000000000000000000000000000000000000000000000000000000000086165afa9081156106c3575f91611b77575b5015918215611af3575b50509050611aed57611369916126a7565b50505f90565b6040519081526001600160a01b0385166004820152606086901c602482015291508290829060449082907f0000000000000000000000000000000000000000000000000000000000000000165afa9182156106c3575f92611b5a575b505015805f80611adc565b611b709250803d106106bc576106ae8183610beb565b5f80611b4f565b611b8e9150843d86116106bc576106ae8183610beb565b5f611ad2565b335f9081527f72a65082a5691803ab2b62c9bc729b34205ba1b183d950896526b2fd8714d0c7602052604090207e8b9b1e5fa9cf3b14f87f435649268146305ddf689f082e5961a335b07a9abf9060ff905b5416156109455750565b5f8181525f80516020612ecf83398151915260209081526040808320338452909152902060ff90611be6565b634e487b7160e01b5f52603260045260245ffd5b8054821015611c45575f5260205f2001905f90565b611c1c565b90815491600160401b831015610bb05782611c6d916001610c1995018155611c30565b90919082549060031b91821b915f19901b1916179055565b5f19810191908211611a6557565b90929192600182019081548015611d25575b5084611cb08461275d565b50949092845493611cc0836121eb565b9681611d10575b5015611ced575050505f198101908111611a6557611c6d8591611ce993611c30565b9190565b611ce9949293611d09926001600160d01b039091169190612dc3565b5050611c4a565b65ffffffffffff83811691161490505f611cc7565b600160401b811015610bb057806001611d419201845583611c30565b8154905f199060031b1b191690555f611ca5565b90604051611d6281610b95565b915465ffffffffffff8116835260301c6020830152565b91908254905f829160058411611e21575b611d959350856128c1565b908115611e1557611e0e611e05611dff611df5611dc7611dc2611db788611c85565b895f5260205f200190565b611d55565b966001611dee6020611ddf8b5165ffffffffffff1690565b9a01516001600160d01b031690565b9101611c30565b90549060031b1c90565b93611c85565b63ffffffff1690565b6001939291565b5f925082915081908190565b9192611e2c81612796565b8103908111611a6557611d9593865f52611e60611e558360205f200165ffffffffffff90541690565b65ffffffffffff1690565b65ffffffffffff85161015611e76575091611d8a565b929150611e8290611a57565b90611d8a565b5f80516020612eef8339815191526002815414611ea55760029055565b604051633ee5aeb560e01b8152600490fd5b90815f52600360205260405f2081611ece8261275d565b919390508315611f2c57611eee916001600160d01b031690600101611c30565b90549060031b1c5b82611f22575b5050611f06575050565b611f1e915f52600360205260405f2061036f4261272b565b5050565b119050815f611efc565b50505f611ef6565b6001600160a01b0381165f9081527fb7db2dd08fcb62d0c9e08c51941cae53c267786a0b75803fb7960902fc8ef97d60205260409020545f80516020612ecf8339815191529060ff16611aed575f808052602091825260408082206001600160a01b038516835290925220805460ff1916600117905533906001600160a01b03165f7f2f8788117e7eff1d82e926ec794901d17c78024a50270940304540a733656f0d8180a4600190565b6001600160a01b0381165f9081527f9ebbcbe0d2961d3fbe56ca6f679bc753bd848d3e6bb3eaf9041c51b286881d2c602052604090207fd1c1f6fa6bf27d54c5e54c7c1dc6e5004d3c027ea1994fe68b29c1b51b69c36c905f80516020612ecf8339815191529060ff905b54166120ae575f828152602091825260408082206001600160a01b038616835290925220805460ff1916600117905533916001600160a01b0316907f2f8788117e7eff1d82e926ec794901d17c78024a50270940304540a733656f0d5f80a4600190565b5050505f90565b6001600160a01b0381165f9081527f72a65082a5691803ab2b62c9bc729b34205ba1b183d950896526b2fd8714d0c7602052604090207e8b9b1e5fa9cf3b14f87f435649268146305ddf689f082e5961a335b07a9abf905f80516020612ecf8339815191529060ff9061204a565b5f8181525f80516020612ecf833981519152602081815260408084206001600160a01b038716855290915290912060ff9061204a565b5f8181525f80516020612ecf833981519152602081815260408084206001600160a01b03871685529091529091205460ff16156120ae575f828152602091825260408082206001600160a01b038616835290925220805460ff1916905533916001600160a01b0316907ff6391f5c32d9c69d2a47ea670b442974b53935d1edc7fd64eb21e047a839171b5f80a4600190565b80548061221057505f5b6001600160d01b03811615611aed576001611df59201611c30565b5f19908082810111611a6557825f5260205f2001015460301c6121f5565b9190916040818403126102da57803561224681610701565b9260208201356001600160401b0381116102da576113699201610c43565b6122709181019061222e565b6040516302910f8b60e31b81526001600160a01b039283166004820181905291906020816024817f000000000000000000000000000000000000000000000000000000000000000088165afa9081156106c3575f91612383575b50156123715761230560409161230061234b946122e5612923565b60018060a01b03166001600160601b0360a01b5f5416175f55565b612a8f565b6020810151600180546001600160a01b0319166001600160a01b0390921691909117905580516001600160a01b0316848116612361575b5001516001600160a01b031690565b9081166123555750565b61235e90611fdf565b50565b61236a90611f34565b505f61233c565b6040516362df054560e01b8152600490fd5b61239c915060203d6020116106bc576106ae8183610beb565b5f6122ca565b908160209103126102da576113699061167c565b90600163ffffffff80931601918211611a6557565b9180511561249957806020806123e6935183010191016123a2565b916123f18382612d00565b92612402845165ffffffffffff1690565b9065ffffffffffff808516921682811461248d5782119182612438575b505061242f576113699250612c30565b50506020015190565b9091506124458354611c85565b63ffffffff83161491821561245e575b50505f8061241f565b612485919250612479612473611e55926123b6565b85612d00565b5165ffffffffffff1690565b115f80612455565b50505050506020015190565b5061136991612c30565b9190916040818403126102da576124b981611348565b9260208201516001600160401b0381116102da576113699201611377565b604051906124e482610bb5565b60606040838281528260208201520152565b906020828203126102da5781516001600160401b03928382116102da5701906060828203126102da576040519261252c84610bb5565b82518181116102da5782612541918501611377565b845260208301518181116102da578261255b918501611377565b602085015260408301519081116102da576125769201611377565b604082015290565b908160209103126102da575190565b60409065ffffffffffff61136994931681528160208201520190610712565b909392936125b86124d7565b9480518061268b575b50506004546001600160a01b03918216911603612683575f546126189291906020906125f790611143906001600160a01b031681565b8187015190604051808097819463810da75d60e01b8352886004840161258d565b03915afa9081156106c35761264b935f92612650575b5061263f9192604087015191611637565b90818082109118021890565b915190565b61263f92506126769060203d60201161267c575b61266e8183610beb565b81019061257e565b9161262e565b503d612664565b505090515f91565b61269f9296506020809183010191016124f6565b935f806125c1565b6004546001600160a01b039290831690831603611aed5760206004925f54166040519384809263bd49c35f60e01b82525afa9182156106c3575f92612702575b506126fd61263f915f52600360205260405f2090565b6121eb565b61263f9192506127236126fd9160203d60201161267c5761266e8183610beb565b9291506126e7565b65ffffffffffff9081811161273e571690565b604490604051906306dfcc6560e41b8252603060048301526024820152fd5b80548061276e5750505f905f905f90565b5f19918183810111611a65575f5260205f2001015460019165ffffffffffff82169160301c90565b600181111561136957600181600160801b8110156128af575b61285761284d61284361283961282f61282561286397600488600160401b61285e9a10156128a2575b640100000000811015612895575b62010000811015612888575b61010081101561287c575b6010811015612870575b1015612868575b60030260011c61281e818b611a39565b0160011c90565b61281e818a611a39565b61281e8189611a39565b61281e8188611a39565b61281e8187611a39565b61281e8186611a39565b8093611a39565b821190565b900390565b60011b61280e565b811c9160021b91612807565b60081c91811b916127fd565b60101c9160081b916127f2565b60201c9160101b916127e6565b60401c9160201b916127d8565b50600160401b9050608082901c6127af565b91905b8382106128d15750505090565b909192808316906001818518811c8301809311611a6557855f5265ffffffffffff808460205f20015416908516105f14612910575050925b91906128c4565b909493508101809111611a655791612909565b61292b612ea0565b612933612ea0565b60015f80516020612eef83398151915255565b6040519061295382610bb5565b5f6040838281528260208201520152565b81601f820112156102da578051916020916001600160401b038411610bb0578360051b906040519461299885840187610beb565b855283808601928201019283116102da578301905b8282106129bb575050505090565b83809183516129c981610701565b8152019101906129ad565b6020818303126102da5780516001600160401b03918282116102da5701918281039260a084126102da57606060405194612a0d86610bb5565b126102da57604051612a1e81610bb5565b8151612a2981610701565b81526020820151612a3981610701565b60208201526040820151612a4c81610701565b6040820152845260608101519283116102da57612a70608092612576948301612964565b6020850152016113e2565b8051821015611c455760209160051b010190565b612a97612946565b50612aad815191602080809483010191016129d4565b8051516001600160a01b0393919084161580612c24575b612c12576040818101805182516302910f8b60e31b81526001600160a01b0390911660048083019190915296929491928690829060249082907f0000000000000000000000000000000000000000000000000000000000000000165afa9081156106c3575f91612bf5575b5015612be35791938401915f5b83518051821015612bb257611143612b5783612b6493612a7b565b516001600160a01b031690565b15612ba257612b86612b82612b7d612b57848851612a7b565b6120b5565b1590565b612b9257600101612b3c565b8451635140fefd60e11b81528790fd5b84516323cda06760e01b81528790fd5b50509051600480546001600160a01b0319166001600160a01b039092169190911790559350612bdf915050565b5190565b604051631f0853c160e21b8152600490fd5b612c0c9150863d88116106bc576106ae8183610beb565b5f612b2f565b6040516303501f5960e11b8152600490fd5b50828101515115612ac4565b908154905f829160058411612c9a575b612c4b9350846128c1565b80612c7357505f905b6001600160d01b03821615611aed57611369916001611df59201611c30565b612c8d612c82612c9492611c85565b835f5260205f200190565b5460301c90565b90612c54565b9192612ca581612796565b8103908111611a6557612c4b93855f5265ffffffffffff808360205f20015416908516105f14612cd6575091612c40565b929150612ce290611a57565b90612c40565b60405190612cf582610b95565b5f6020838281520152565b90612d29612d23612d4a92612d13612ce8565b50612d1c612ce8565b5084611c30565b50611d55565b91600165ffffffffffff845116936020828060d01b03910151169101611c30565b90549060405192612d5a84610b95565b835260031b1c602082015290565b8054600160401b811015610bb057612d8591600182018155611c30565b612db057815160209092015160301b65ffffffffffff191665ffffffffffff92909216919091179055565b634e487b7160e01b5f525f60045260245ffd5b80549293928015612e7657612dda612de591611c85565b825f5260205f200190565b9182549265ffffffffffff91828516928116808411612e6457879303612e2b5750612e2492509065ffffffffffff82549181199060301b169116179055565b60301c9190565b915050612e5f91612e4b612e3d610c1b565b65ffffffffffff9093168352565b6001600160d01b0386166020830152612d68565b612e24565b604051632520601d60e01b8152600490fd5b5090612e9b91612e87612e3d610c1b565b6001600160d01b0385166020830152612d68565b5f9190565b60ff5f80516020612f0f8339815191525460401c1615612ebc57565b604051631afcd79f60e31b8152600490fdfe02dd7bc7dec4dceedda775e58dd541e08a116c6c53815c0bd028192f7b6268009b779b17422d0df92223018b32b4d1fa46e071723d6817e2486d003becc55f00f0c57e16840df040f15088dc2f81fe391c3923bec73e23a9662efc9c229c6a00a2646970667358221220f658ab538ab4e6b7b4e6661b8ff490a4553a539b3f6214af0f6a125c6462927f64736f6c63430008190033","linkReferences":{}},"methodIdentifiers":{"BASE_DELEGATOR_HINTS()":"79d89614","DEFAULT_ADMIN_ROLE()":"a217fddf","FACTORY()":"2dd31000","HOOK_GAS_LIMIT()":"ff54740f","HOOK_RESERVE()":"557cab44","HOOK_SET_ROLE()":"6679191e","NETWORK_LIMIT_SET_ROLE()":"7d24bb27","NETWORK_REGISTRY()":"c0cd7c3e","OPERATOR_NETWORK_OPT_IN_SERVICE()":"1a80e500","OPERATOR_REGISTRY()":"83ce0322","OPERATOR_VAULT_OPT_IN_SERVICE()":"128e5d82","OPT_IN_SERVICE_HINTS()":"9b656b22","TYPE()":"bb24fe8a","VAULT_FACTORY()":"103f2907","VAULT_HINTS()":"45e78fcb","VERSION()":"ffa1ad74","getRoleAdmin(bytes32)":"248a9ca3","grantRole(bytes32,address)":"2f2ff15d","hasRole(bytes32,address)":"91d14854","hook()":"7f5a7c7b","initialize(bytes)":"439fab91","maxNetworkLimit(bytes32)":"d15b740e","networkLimit(bytes32)":"3eb22c0f","networkLimitAt(bytes32,uint48,bytes)":"5d32a1c9","networkLimitHint(address,bytes32,uint48)":"da749d2b","networkLimitHintInternal(bytes32,uint48)":"197aa7ea","onSlash(bytes32,address,uint256,uint48,bytes)":"e49561ee","operator()":"570ca735","renounceRole(bytes32,address)":"36568abe","revokeRole(bytes32,address)":"d547741f","setHook(address)":"3dfd3873","setMaxNetworkLimit(uint96,uint256)":"23f752d5","setNetworkLimit(bytes32,uint256)":"02145348","stake(bytes32,address)":"fd4d447c","stakeAt(bytes32,address,uint48,bytes)":"e02f6937","stakeHints(address,bytes32,address,uint48)":"25dc9708","staticDelegateCall(address,bytes)":"9f86fd85","supportsInterface(bytes4)":"01ffc9a7","vault()":"fbfa77cf"},"id":92}