{"abi":[{"type":"constructor","inputs":[{"name":"baseImplementation","type":"address","internalType":"address"}],"stateMutability":"nonpayable"},{"type":"fallback","stateMutability":"payable"},{"type":"function","name":"DEPOSITOR_WHITELIST_ROLE","inputs":[],"outputs":[{"name":"","type":"bytes32","internalType":"bytes32"}],"stateMutability":"view"},{"type":"function","name":"DEPOSIT_LIMIT_SET_ROLE","inputs":[],"outputs":[{"name":"","type":"bytes32","internalType":"bytes32"}],"stateMutability":"view"},{"type":"function","name":"DEPOSIT_WHITELIST_SET_ROLE","inputs":[],"outputs":[{"name":"","type":"bytes32","internalType":"bytes32"}],"stateMutability":"view"},{"type":"function","name":"EPOCH_DURATION_SET_ROLE","inputs":[],"outputs":[{"name":"","type":"bytes32","internalType":"bytes32"}],"stateMutability":"view"},{"type":"function","name":"FLASH_FEE_BASE","inputs":[],"outputs":[{"name":"","type":"uint256","internalType":"uint256"}],"stateMutability":"view"},{"type":"function","name":"FLASH_FEE_RATE_SET_ROLE","inputs":[],"outputs":[{"name":"","type":"bytes32","internalType":"bytes32"}],"stateMutability":"view"},{"type":"function","name":"FLASH_FEE_RECEIVER_SET_ROLE","inputs":[],"outputs":[{"name":"","type":"bytes32","internalType":"bytes32"}],"stateMutability":"view"},{"type":"function","name":"FLASH_LOAN_ENABLED_SET_ROLE","inputs":[],"outputs":[{"name":"","type":"bytes32","internalType":"bytes32"}],"stateMutability":"view"},{"type":"function","name":"IS_DEPOSIT_LIMIT_SET_ROLE","inputs":[],"outputs":[{"name":"","type":"bytes32","internalType":"bytes32"}],"stateMutability":"view"},{"type":"function","name":"RETURN_VALUE","inputs":[],"outputs":[{"name":"","type":"bytes32","internalType":"bytes32"}],"stateMutability":"view"},{"type":"function","name":"_VaultTokenized_init","inputs":[{"name":"data","type":"bytes","internalType":"bytes"}],"outputs":[],"stateMutability":"nonpayable"},{"type":"function","name":"allowance","inputs":[{"name":"owner","type":"address","internalType":"address"},{"name":"spender","type":"address","internalType":"address"}],"outputs":[{"name":"","type":"uint256","internalType":"uint256"}],"stateMutability":"view"},{"type":"function","name":"approve","inputs":[{"name":"spender","type":"address","internalType":"address"},{"name":"value","type":"uint256","internalType":"uint256"}],"outputs":[{"name":"","type":"bool","internalType":"bool"}],"stateMutability":"nonpayable"},{"type":"function","name":"balanceOf","inputs":[{"name":"account","type":"address","internalType":"address"}],"outputs":[{"name":"","type":"uint256","internalType":"uint256"}],"stateMutability":"view"},{"type":"function","name":"burner","inputs":[],"outputs":[{"name":"","type":"address","internalType":"address"}],"stateMutability":"view"},{"type":"function","name":"collateral","inputs":[],"outputs":[{"name":"","type":"address","internalType":"address"}],"stateMutability":"view"},{"type":"function","name":"decimals","inputs":[],"outputs":[{"name":"","type":"uint8","internalType":"uint8"}],"stateMutability":"view"},{"type":"function","name":"delegator","inputs":[],"outputs":[{"name":"","type":"address","internalType":"address"}],"stateMutability":"view"},{"type":"function","name":"deposit","inputs":[{"name":"onBehalfOf","type":"address","internalType":"address"},{"name":"amount","type":"uint256","internalType":"uint256"}],"outputs":[{"name":"depositedAmount","type":"uint256","internalType":"uint256"},{"name":"mintedShares","type":"uint256","internalType":"uint256"}],"stateMutability":"nonpayable"},{"type":"function","name":"depositLimit","inputs":[],"outputs":[{"name":"","type":"uint256","internalType":"uint256"}],"stateMutability":"view"},{"type":"function","name":"depositWhitelist","inputs":[],"outputs":[{"name":"","type":"bool","internalType":"bool"}],"stateMutability":"view"},{"type":"function","name":"flashFeeRate","inputs":[],"outputs":[{"name":"","type":"uint256","internalType":"uint256"}],"stateMutability":"view"},{"type":"function","name":"flashFeeReceiver","inputs":[],"outputs":[{"name":"","type":"address","internalType":"address"}],"stateMutability":"view"},{"type":"function","name":"flashLoanEnabled","inputs":[],"outputs":[{"name":"","type":"bool","internalType":"bool"}],"stateMutability":"view"},{"type":"function","name":"isDelegatorInitialized","inputs":[],"outputs":[{"name":"","type":"bool","internalType":"bool"}],"stateMutability":"view"},{"type":"function","name":"isDepositLimit","inputs":[],"outputs":[{"name":"","type":"bool","internalType":"bool"}],"stateMutability":"view"},{"type":"function","name":"isDepositorWhitelisted","inputs":[{"name":"account","type":"address","internalType":"address"}],"outputs":[{"name":"value","type":"bool","internalType":"bool"}],"stateMutability":"view"},{"type":"function","name":"isSlasherInitialized","inputs":[],"outputs":[{"name":"","type":"bool","internalType":"bool"}],"stateMutability":"view"},{"type":"function","name":"isWithdrawalsClaimed","inputs":[{"name":"epoch","type":"uint256","internalType":"uint256"},{"name":"account","type":"address","internalType":"address"}],"outputs":[{"name":"value","type":"bool","internalType":"bool"}],"stateMutability":"view"},{"type":"function","name":"name","inputs":[],"outputs":[{"name":"","type":"string","internalType":"string"}],"stateMutability":"view"},{"type":"function","name":"redeem","inputs":[{"name":"claimer","type":"address","internalType":"address"},{"name":"shares","type":"uint256","internalType":"uint256"}],"outputs":[{"name":"withdrawnAssets","type":"uint256","internalType":"uint256"},{"name":"mintedShares","type":"uint256","internalType":"uint256"}],"stateMutability":"nonpayable"},{"type":"function","name":"slasher","inputs":[],"outputs":[{"name":"","type":"address","internalType":"address"}],"stateMutability":"view"},{"type":"function","name":"staticDelegateCall","inputs":[{"name":"target","type":"address","internalType":"address"},{"name":"data","type":"bytes","internalType":"bytes"}],"outputs":[],"stateMutability":"nonpayable"},{"type":"function","name":"symbol","inputs":[],"outputs":[{"name":"","type":"string","internalType":"string"}],"stateMutability":"view"},{"type":"function","name":"totalSupply","inputs":[],"outputs":[{"name":"","type":"uint256","internalType":"uint256"}],"stateMutability":"view"},{"type":"function","name":"transfer","inputs":[{"name":"to","type":"address","internalType":"address"},{"name":"value","type":"uint256","internalType":"uint256"}],"outputs":[{"name":"","type":"bool","internalType":"bool"}],"stateMutability":"nonpayable"},{"type":"function","name":"transferFrom","inputs":[{"name":"from","type":"address","internalType":"address"},{"name":"to","type":"address","internalType":"address"},{"name":"value","type":"uint256","internalType":"uint256"}],"outputs":[{"name":"","type":"bool","internalType":"bool"}],"stateMutability":"nonpayable"},{"type":"function","name":"withdraw","inputs":[{"name":"claimer","type":"address","internalType":"address"},{"name":"amount","type":"uint256","internalType":"uint256"}],"outputs":[{"name":"burnedShares","type":"uint256","internalType":"uint256"},{"name":"mintedShares","type":"uint256","internalType":"uint256"}],"stateMutability":"nonpayable"},{"type":"function","name":"withdrawalShares","inputs":[{"name":"epoch","type":"uint256","internalType":"uint256"}],"outputs":[{"name":"amount","type":"uint256","internalType":"uint256"}],"stateMutability":"view"},{"type":"function","name":"withdrawalSharesOf","inputs":[{"name":"epoch","type":"uint256","internalType":"uint256"},{"name":"account","type":"address","internalType":"address"}],"outputs":[{"name":"amount","type":"uint256","internalType":"uint256"}],"stateMutability":"view"},{"type":"function","name":"withdrawals","inputs":[{"name":"epoch","type":"uint256","internalType":"uint256"}],"outputs":[{"name":"amount","type":"uint256","internalType":"uint256"}],"stateMutability":"view"},{"type":"event","name":"Approval","inputs":[{"name":"owner","type":"address","indexed":true,"internalType":"address"},{"name":"spender","type":"address","indexed":true,"internalType":"address"},{"name":"value","type":"uint256","indexed":false,"internalType":"uint256"}],"anonymous":false},{"type":"event","name":"Initialized","inputs":[{"name":"version","type":"uint64","indexed":false,"internalType":"uint64"}],"anonymous":false},{"type":"event","name":"Transfer","inputs":[{"name":"from","type":"address","indexed":true,"internalType":"address"},{"name":"to","type":"address","indexed":true,"internalType":"address"},{"name":"value","type":"uint256","indexed":false,"internalType":"uint256"}],"anonymous":false},{"type":"error","name":"AddressEmptyCode","inputs":[{"name":"target","type":"address","internalType":"address"}]},{"type":"error","name":"CheckpointUnorderedInsertion","inputs":[]},{"type":"error","name":"ERC20InsufficientAllowance","inputs":[{"name":"spender","type":"address","internalType":"address"},{"name":"allowance","type":"uint256","internalType":"uint256"},{"name":"needed","type":"uint256","internalType":"uint256"}]},{"type":"error","name":"ERC20InsufficientBalance","inputs":[{"name":"sender","type":"address","internalType":"address"},{"name":"balance","type":"uint256","internalType":"uint256"},{"name":"needed","type":"uint256","internalType":"uint256"}]},{"type":"error","name":"ERC20InvalidApprover","inputs":[{"name":"approver","type":"address","internalType":"address"}]},{"type":"error","name":"ERC20InvalidReceiver","inputs":[{"name":"receiver","type":"address","internalType":"address"}]},{"type":"error","name":"ERC20InvalidSender","inputs":[{"name":"sender","type":"address","internalType":"address"}]},{"type":"error","name":"ERC20InvalidSpender","inputs":[{"name":"spender","type":"address","internalType":"address"}]},{"type":"error","name":"FailedCall","inputs":[]},{"type":"error","name":"InvalidInitialization","inputs":[]},{"type":"error","name":"NotInitializing","inputs":[]},{"type":"error","name":"ReentrancyGuardReentrantCall","inputs":[]},{"type":"error","name":"SafeCastOverflowedUintDowncast","inputs":[{"name":"bits","type":"uint8","internalType":"uint8"},{"name":"value","type":"uint256","internalType":"uint256"}]}],"bytecode":{"object":"0x60a034606d57601f611bab38819003918201601f19168301916001600160401b03831184841017607157808492602094604052833981010312606d57516001600160a01b0381168103606d57608052604051611b259081610086823960805181818161061c015261150b0152f35b5f80fd5b634e487b7160e01b5f52604160045260245ffdfe608060405260043610611501575f3560e01c806306fdde031461029b578063095ea7b3146102965780631415519b1461029157806318160ddd1461028c5780631b66c9e1146102875780631e9a69501461028257806323b872dd1461027d57806327810b6e14610278578063313ce5671461027357806331d9736c1461026e57806347e7ef241461026957806348d3b7751461026457806350861adc1461025f5780635cc070761461025a57806361819dd814610255578063653b04cd1461025057806365d61c6c1461024b5780636ec1e3f81461024657806370a0823114610241578063794b15b71461023c5780637bd00ae81461023757806395d89b41146102325780639f86fd851461022d578063a1b1220214610228578063a21a1df914610223578063a3b541721461021e578063a5d0322314610219578063a66b3a7314610214578063a8b24f9a1461020f578063a9059cbb1461020a578063afba70ad14610205578063b134427114610200578063bc46f722146101fb578063ce9b7930146101f6578063d8dfeb45146101f1578063db388715146101ec578063dd62ed3e146101e7578063e945da7f146101e2578063ecc98f05146101dd578063ecf70858146101d85763f3fef3a303611501576110a1565b611084565b611066565b611049565b61101a565b610fe0565b610fb5565b610f8d565b610f53565b610f2b565b610f01565b610ed0565b610ea8565b610e6e565b610e20565b610dd7565b610d9d565b610d79565b610cf6565b610c44565b610abb565b610a50565b6109e1565b6109bc565b610997565b61095d565b610923565b6108f9565b6108d4565b6108b3565b610824565b6107ea565b610752565b61072a565b61067c565b6105b6565b61057c565b6104f0565b6104b6565b6103f8565b6102d8565b805180835260209291819084018484015e5f828201840152601f01601f1916010190565b9060206102d59281815201906102a0565b90565b346103c8575f3660031901126103c8576040515f5f80516020611a9083398151915280549061030682611126565b8085529160209160019182811690811561039b5750600114610343575b61033f8661033381880382611172565b604051918291826102c4565b0390f35b5f90815293507f2ae08a8e29253f69ac5d979a101956ab8f8d9d7ded63fa7a83b16fc47648eab05b838510610388575050505081016020016103338261033f5f610323565b805486860184015293820193810161036b565b905086955061033f9693506020925061033394915060ff191682840152151560051b82010192935f610323565b5f80fd5b600435906001600160a01b03821682036103c857565b602435906001600160a01b03821682036103c857565b346103c85760403660031901126103c8576104116103cc565b602435331561049e576001600160a01b0382169182156104865761044e829161043933610a18565b9060018060a01b03165f5260205260405f2090565b556040519081527f8c5be1e5ebec7d5bd14f71427d1e84f3dd0314c0f7b2291e5b200ac8c7c3b92560203392a3602060405160018152f35b604051634a1406b160e11b81525f6004820152602490fd5b60405163e602df0560e01b81525f6004820152602490fd5b346103c8575f3660031901126103c85760206040517fc6aaadd7371d5e8f9ed6849dd66a66573a3ba37167d03f4352c9ba5693678fac8152f35b346103c8575f3660031901126103c857600a548061053e57505f5b6001600160d01b0381161561053557610525602091611274565b90549060031b1c5b604051908152f35b5060205f61052d565b805f1981011161057757600a5f527fc65a7bb8d6351c1cf70c95a316cc6a92839c986682d98bc35f958f4883f9d2a7015460301c61050b565b61153d565b346103c8575f3660031901126103c85760206040517f9c56d972d63cbb4195b3c1484691dfc220fa96a4c47e7b6613bd82a022029e068152f35b346103c85760403660031901126103c8575f61061a61064f6106406105d96103cc565b6040516301e9a69560e41b60208201526001600160a01b0390911660248281019190915235604482018190529381606481015b03601f198101835282611172565b7f0000000000000000000000000000000000000000000000000000000000000000611325565b60208082518301019101611194565b9290916040519081525f80516020611ad083398151915260203392a3604080519182526020820192909252f35b346103c85760603660031901126103c8576106956103cc565b61069d6103e2565b604435906106ae3361043985610a18565b5492600184016106cf575b6106c39350611342565b60405160018152602090f35b828410610704576001600160a01b0381161561049e57331561048657826106c394036106fe3361043984610a18565b556106b9565b604051637dc7a0d960e11b81523360048201526024810185905260448101849052606490fd5b346103c8575f3660031901126103c8576001546040516001600160a01b039091168152602090f35b346103c8575f3660031901126103c8575f5460405163313ce56760e01b8152906020908290600490829060101c6001600160a01b03165afa80156107df5761033f915f916107b0575b5060405160ff90911681529081906020820190565b6107d2915060203d6020116107d8575b6107ca8183611172565b8101906111aa565b5f61079b565b503d6107c0565b6040513d5f823e3d90fd5b346103c8575f3660031901126103c85760206040517f5295aaaa27fdd659293eafacbfafbc634c1b96298957e87de5f59308cdbfdad18152f35b346103c85760403660031901126103c85761083d6103cc565b6040516311f9fbc960e21b60208201526001600160a01b03821660248083019190915235604482015261087b906106409061061a816064810161060c565b60405181815290926001600160a01b0316905f905f80516020611ad083398151915290602090a3604080519182526020820192909252f35b346103c8575f3660031901126103c857602060ff5f54166040519015158152f35b346103c8575f3660031901126103c857602060ff60025460a01c166040519015158152f35b346103c85760203660031901126103c8576004355f526006602052602060405f2054604051908152f35b346103c8575f3660031901126103c85760206040517f591f6a0113ada8aff67efadec8ae2fa585cb4ebf4e1f8fc1205ffbeff98d00ec8152f35b346103c8575f3660031901126103c85760206040517f439148f0bbc682ca079e46d6e2c2f0c1e3b820f1a291b069d8882abf8cf18dd98152f35b346103c8575f3660031901126103c857602060ff60165460a01c166040519015158152f35b346103c8575f3660031901126103c857602060ff60035460a01c166040519015158152f35b346103c85760203660031901126103c8576001600160a01b03610a026103cc565b165f52600e602052602061052d60405f206112d2565b6001600160a01b03165f9081527f52c63247e1f47db19d5ce0460030c497f067ca4cebf71ba98eeadabe20bace016020526040902090565b346103c85760203660031901126103c8576001600160a01b03610a716103cc565b165f526005602052602060ff60405f2054166040519015158152f35b9181601f840112156103c85782359167ffffffffffffffff83116103c857602083818601950101116103c857565b346103c8576020806003193601126103c85767ffffffffffffffff906004358281116103c857610aef903690600401610a8d565b8101906040818303126103c85780358481116103c85782610b119183016111ff565b9160208201358581116103c857610b2892016111ff565b91610b316115c2565b610b396115c2565b8151938411610c3f575f80516020611a9083398151915291610b6485610b5f8554611126565b611603565b602091601f8611600114610bac57509380610b9892610b9f965f92610ba1575b50508160011b915f199060031b1c19161790565b90556116f5565b005b015190505f80610b84565b5f80516020611a908339815191525f529190601f1986167f2ae08a8e29253f69ac5d979a101956ab8f8d9d7ded63fa7a83b16fc47648eab0935f905b828210610c27575050916001939187610b9f989410610c0f575b505050811b0190556116f5565b01515f1960f88460031b161c191690555f8080610c02565b80600186978294978701518155019601940190610be8565b61115e565b346103c8575f3660031901126103c8576040515f5f80516020611ab0833981519152805490610c7282611126565b8085529160209160019182811690811561039b5750600114610c9e5761033f8661033381880382611172565b5f90815293507f46a2803e59a4de4e7a4c574b1243f25977ac4c77d5a1a4a609b5394cebb4a2aa5b838510610ce3575050505081016020016103338261033f5f610323565b8054868601840152938201938101610cc6565b346103c85760403660031901126103c857610d0f6103cc565b60243567ffffffffffffffff81116103c8575f91610d3283923690600401610a8d565b90816040519283928337810184815203915af4610d71610d50611245565b9161060c6040519384921515602084015260408084015260608301906102a0565b805190602001fd5b346103c8575f3660031901126103c857602060ff5f5460081c166040519015158152f35b346103c8575f3660031901126103c85760206040517f4a634bc14d77baf979756509ef4298c6f6318af357828612545267ee2eb792338152f35b346103c85760403660031901126103c8576020610e17610df56103e2565b6004355f526008835260405f209060018060a01b03165f5260205260405f2090565b54604051908152f35b346103c85760403660031901126103c857602060ff610e62610e406103e2565b6004355f526009845260405f209060018060a01b03165f5260205260405f2090565b54166040519015158152f35b346103c8575f3660031901126103c85760206040517fc9feed28b4b1a1d11c6791da7bb7f6b8d33e831a4992a9383dead1ec2c82c35a8152f35b346103c8575f3660031901126103c8576016546040516001600160a01b039091168152602090f35b346103c85760403660031901126103c857610ef6610eec6103cc565b6024359033611342565b602060405160018152f35b346103c85760203660031901126103c8576004355f526007602052602060405f2054604051908152f35b346103c8575f3660031901126103c8576003546040516001600160a01b039091168152602090f35b346103c8575f3660031901126103c85760206040517fc9078c78bcaac2be1c77c160c539a489be2b72939771b1a6302fed3e2150c7458152f35b346103c8575f3660031901126103c8576002546040516001600160a01b039091168152602090f35b346103c8575f3660031901126103c8575f5460405160109190911c6001600160a01b03168152602090f35b346103c8575f3660031901126103c85760206040517fbae4ee3de6c709ff9a002e774c5b78cb381560b219213c88ae0f1e207c03c0238152f35b346103c85760403660031901126103c8576020610e176110386103cc565b6104396110436103e2565b91610a18565b346103c8575f3660031901126103c8576020601554604051908152f35b346103c8575f3660031901126103c8576020604051633b9aca008152f35b346103c8575f3660031901126103c8576020600454604051908152f35b346103c85760403660031901126103c8576110fa61064061060c61061a6110c66103cc565b60405163f3fef3a360e01b60208201526001600160a01b039091166024808301919091523560448201529182906064820190565b905f6040518281525f80516020611ad083398151915260203392a3604080519182526020820192909252f35b90600182811c92168015611154575b602083101461114057565b634e487b7160e01b5f52602260045260245ffd5b91607f1691611135565b634e487b7160e01b5f52604160045260245ffd5b90601f8019910116810190811067ffffffffffffffff821117610c3f57604052565b91908260409103126103c8576020825192015190565b908160209103126103c8575160ff811681036103c85790565b604051906040820182811067ffffffffffffffff821117610c3f57604052565b67ffffffffffffffff8111610c3f57601f01601f191660200190565b81601f820112156103c857803590611216826111e3565b926112246040519485611172565b828452602083830101116103c857815f926020809301838601378301015290565b3d1561126f573d90611256826111e3565b916112646040519384611172565b82523d5f602084013e565b606090565b600b548110156112a957600b5f527f0175b7a638427703f0dbe7bb9bbf987a2551717b34e79f33b5b1008d1fa01db901905f90565b634e487b7160e01b5f52603260045260245ffd5b80548210156112a9575f5260205f2001905f90565b80548061130757505f5b6001600160d01b038116156113015760016112f792016112bd565b90549060031b1c90565b50505f90565b5f1990808281011161057757825f5260205f2001015460301c6112dc565b5f806102d593602081519101845af461133c611245565b9161155f565b916001600160a01b03808416929083156114e95781169384156114d1577f9b779b17422d0df92223018b32b4d1fa46e071723d6817e2486d003becc55f0060028154146114bf57600290556001600160a01b0381165f908152600e602052604090206113b2906112d2565b6112d2565b9083821061148d5761145f926114015f80516020611ad083398151915295936113ee61144d9460018060a01b03165f52600e60205260405f2090565b90856113f9426118ec565b91039161182a565b50506001600160a01b0381165f908152600e6020526040902090836114466113ad61142b426118ec565b6001600160a01b039094165f908152600e6020526040902090565b019161182a565b50506040519081529081906020820190565b0390a361148b60017f9b779b17422d0df92223018b32b4d1fa46e071723d6817e2486d003becc55f0055565b565b60405163391434e360e21b81526001600160a01b03919091166004820152602481019190915260448101839052606490fd5b604051633ee5aeb560e01b8152600490fd5b60405163ec442f0560e01b81525f6004820152602490fd5b604051634b637e8f60e11b81525f6004820152602490fd5b365f80375f8036817f00000000000000000000000000000000000000000000000000000000000000005af43d5f803e15611539573d5ff35b3d5ffd5b634e487b7160e01b5f52601160045260245ffd5b5f1981019190821161057757565b90611586575080511561157457805190602001fd5b60405163d6bda27560e01b8152600490fd5b815115806115b9575b611597575090565b604051639996b31560e01b81526001600160a01b039091166004820152602490fd5b50803b1561158f565b60ff7ff0c57e16840df040f15088dc2f81fe391c3923bec73e23a9662efc9c229c6a005460401c16156115f157565b604051631afcd79f60e31b8152600490fd5b601f811161160f575050565b5f80516020611a908339815191525f527f2ae08a8e29253f69ac5d979a101956ab8f8d9d7ded63fa7a83b16fc47648eab0906020601f840160051c83019310611672575b601f0160051c01905b818110611667575050565b5f815560010161165c565b9091508190611653565b601f8111611688575050565b5f80516020611ab08339815191525f527f46a2803e59a4de4e7a4c574b1243f25977ac4c77d5a1a4a609b5394cebb4a2aa906020601f840160051c830193106116eb575b601f0160051c01905b8181106116e0575050565b5f81556001016116d5565b90915081906116cc565b90815167ffffffffffffffff8111610c3f575f80516020611ab083398151915290611729816117248454611126565b61167c565b602080601f831160011461175e5750819061175a9394955f92610ba15750508160011b915f199060031b1c19161790565b9055565b90601f1983169561179c5f80516020611ab08339815191525f527f46a2803e59a4de4e7a4c574b1243f25977ac4c77d5a1a4a609b5394cebb4a2aa90565b925f905b8882106117d7575050836001959697106117bf575b505050811b019055565b01515f1960f88460031b161c191690555f80806117b5565b806001859682949686015181550195019301906117a0565b90815491600160401b831015610c3f578261181291600161148b950181556112bd565b90919082549060031b91821b915f19901b1916179055565b909291926001820190815480156118bc575b50846118478461191e565b50949092845493611857836112d2565b96816118a7575b5015611884575050505f198101908111610577576118128591611880936112bd565b9190565b6118809492936118a0926001600160d01b0390911691906119b2565b50506117ef565b65ffffffffffff83811691161490505f61185e565b600160401b811015610c3f578060016118d892018455836112bd565b8154905f199060031b1b191690555f61183c565b65ffffffffffff908181116118ff571690565b604490604051906306dfcc6560e41b8252603060048301526024820152fd5b80548061192f5750505f905f905f90565b5f19918183810111610577575f5260205f2001015460019165ffffffffffff82169160301c90565b8054600160401b811015610c3f57611974916001820181556112bd565b61199f57815160209092015160301b65ffffffffffff191665ffffffffffff92909216919091179055565b634e487b7160e01b5f525f60045260245ffd5b80549293928015611a65576119c96119d491611551565b825f5260205f200190565b9182549265ffffffffffff91828516928116808411611a5357879303611a1a5750611a1392509065ffffffffffff82549181199060301b169116179055565b60301c9190565b915050611a4e91611a3a611a2c6111c3565b65ffffffffffff9093168352565b6001600160d01b0386166020830152611957565b611a13565b604051632520601d60e01b8152600490fd5b5090611a8a91611a76611a2c6111c3565b6001600160d01b0385166020830152611957565b5f919056fe52c63247e1f47db19d5ce0460030c497f067ca4cebf71ba98eeadabe20bace0352c63247e1f47db19d5ce0460030c497f067ca4cebf71ba98eeadabe20bace04ddf252ad1be2c89b69c2b068fc378daa952ba7f163c4a11628f55a4df523b3efa2646970667358221220d808e78d8c8c27c4810e3d583c729eb50e6f711f398fd77176daab2aaed2bca064736f6c63430008190033","linkReferences":{}},"methodIdentifiers":{"DEPOSITOR_WHITELIST_ROLE()":"1b66c9e1","DEPOSIT_LIMIT_SET_ROLE()":"a21a1df9","DEPOSIT_WHITELIST_SET_ROLE()":"db388715","EPOCH_DURATION_SET_ROLE()":"61819dd8","FLASH_FEE_BASE()":"ecc98f05","FLASH_FEE_RATE_SET_ROLE()":"bc46f722","FLASH_FEE_RECEIVER_SET_ROLE()":"31d9736c","FLASH_LOAN_ENABLED_SET_ROLE()":"a66b3a73","IS_DEPOSIT_LIMIT_SET_ROLE()":"1415519b","RETURN_VALUE()":"653b04cd","_VaultTokenized_init(bytes)":"7bd00ae8","allowance(address,address)":"dd62ed3e","approve(address,uint256)":"095ea7b3","balanceOf(address)":"70a08231","burner()":"27810b6e","collateral()":"d8dfeb45","decimals()":"313ce567","delegator()":"ce9b7930","deposit(address,uint256)":"47e7ef24","depositLimit()":"ecf70858","depositWhitelist()":"48d3b775","flashFeeRate()":"e945da7f","flashFeeReceiver()":"a8b24f9a","flashLoanEnabled()":"65d61c6c","isDelegatorInitialized()":"50861adc","isDepositLimit()":"a1b12202","isDepositorWhitelisted(address)":"794b15b7","isSlasherInitialized()":"6ec1e3f8","isWithdrawalsClaimed(uint256,address)":"a5d03223","name()":"06fdde03","redeem(address,uint256)":"1e9a6950","slasher()":"b1344271","staticDelegateCall(address,bytes)":"9f86fd85","symbol()":"95d89b41","totalSupply()":"18160ddd","transfer(address,uint256)":"a9059cbb","transferFrom(address,address,uint256)":"23b872dd","withdraw(address,uint256)":"f3fef3a3","withdrawalShares(uint256)":"afba70ad","withdrawalSharesOf(uint256,address)":"a3b54172","withdrawals(uint256)":"5cc07076"},"id":110}