{"abi":[{"type":"constructor","inputs":[{"name":"baseImplementation","type":"address","internalType":"address"}],"stateMutability":"nonpayable"},{"type":"fallback","stateMutability":"payable"},{"type":"function","name":"DEPOSITOR_WHITELIST_ROLE","inputs":[],"outputs":[{"name":"","type":"bytes32","internalType":"bytes32"}],"stateMutability":"view"},{"type":"function","name":"DEPOSIT_LIMIT_SET_ROLE","inputs":[],"outputs":[{"name":"","type":"bytes32","internalType":"bytes32"}],"stateMutability":"view"},{"type":"function","name":"DEPOSIT_WHITELIST_SET_ROLE","inputs":[],"outputs":[{"name":"","type":"bytes32","internalType":"bytes32"}],"stateMutability":"view"},{"type":"function","name":"EPOCH_DURATION_SET_ROLE","inputs":[],"outputs":[{"name":"","type":"bytes32","internalType":"bytes32"}],"stateMutability":"view"},{"type":"function","name":"FLASH_FEE_BASE","inputs":[],"outputs":[{"name":"","type":"uint256","internalType":"uint256"}],"stateMutability":"view"},{"type":"function","name":"FLASH_FEE_RATE_SET_ROLE","inputs":[],"outputs":[{"name":"","type":"bytes32","internalType":"bytes32"}],"stateMutability":"view"},{"type":"function","name":"FLASH_FEE_RECEIVER_SET_ROLE","inputs":[],"outputs":[{"name":"","type":"bytes32","internalType":"bytes32"}],"stateMutability":"view"},{"type":"function","name":"FLASH_LOAN_ENABLED_SET_ROLE","inputs":[],"outputs":[{"name":"","type":"bytes32","internalType":"bytes32"}],"stateMutability":"view"},{"type":"function","name":"IS_DEPOSIT_LIMIT_SET_ROLE","inputs":[],"outputs":[{"name":"","type":"bytes32","internalType":"bytes32"}],"stateMutability":"view"},{"type":"function","name":"RETURN_VALUE","inputs":[],"outputs":[{"name":"","type":"bytes32","internalType":"bytes32"}],"stateMutability":"view"},{"type":"function","name":"_VaultTokenized_init","inputs":[{"name":"data","type":"bytes","internalType":"bytes"}],"outputs":[],"stateMutability":"nonpayable"},{"type":"function","name":"_epochDuration","inputs":[],"outputs":[{"name":"","type":"uint48","internalType":"uint48"}],"stateMutability":"view"},{"type":"function","name":"_epochDurationInit","inputs":[],"outputs":[{"name":"","type":"uint48","internalType":"uint48"}],"stateMutability":"view"},{"type":"function","name":"allowance","inputs":[{"name":"owner","type":"address","internalType":"address"},{"name":"spender","type":"address","internalType":"address"}],"outputs":[{"name":"","type":"uint256","internalType":"uint256"}],"stateMutability":"view"},{"type":"function","name":"approve","inputs":[{"name":"spender","type":"address","internalType":"address"},{"name":"value","type":"uint256","internalType":"uint256"}],"outputs":[{"name":"","type":"bool","internalType":"bool"}],"stateMutability":"nonpayable"},{"type":"function","name":"balanceOf","inputs":[{"name":"account","type":"address","internalType":"address"}],"outputs":[{"name":"","type":"uint256","internalType":"uint256"}],"stateMutability":"view"},{"type":"function","name":"burner","inputs":[],"outputs":[{"name":"","type":"address","internalType":"address"}],"stateMutability":"view"},{"type":"function","name":"collateral","inputs":[],"outputs":[{"name":"","type":"address","internalType":"address"}],"stateMutability":"view"},{"type":"function","name":"decimals","inputs":[],"outputs":[{"name":"","type":"uint8","internalType":"uint8"}],"stateMutability":"view"},{"type":"function","name":"delegator","inputs":[],"outputs":[{"name":"","type":"address","internalType":"address"}],"stateMutability":"view"},{"type":"function","name":"deposit","inputs":[{"name":"onBehalfOf","type":"address","internalType":"address"},{"name":"amount","type":"uint256","internalType":"uint256"}],"outputs":[{"name":"depositedAmount","type":"uint256","internalType":"uint256"},{"name":"mintedShares","type":"uint256","internalType":"uint256"}],"stateMutability":"nonpayable"},{"type":"function","name":"depositLimit","inputs":[],"outputs":[{"name":"","type":"uint256","internalType":"uint256"}],"stateMutability":"view"},{"type":"function","name":"depositWhitelist","inputs":[],"outputs":[{"name":"","type":"bool","internalType":"bool"}],"stateMutability":"view"},{"type":"function","name":"flashFeeRate","inputs":[],"outputs":[{"name":"","type":"uint256","internalType":"uint256"}],"stateMutability":"view"},{"type":"function","name":"flashFeeReceiver","inputs":[],"outputs":[{"name":"","type":"address","internalType":"address"}],"stateMutability":"view"},{"type":"function","name":"flashLoanEnabled","inputs":[],"outputs":[{"name":"","type":"bool","internalType":"bool"}],"stateMutability":"view"},{"type":"function","name":"isDelegatorInitialized","inputs":[],"outputs":[{"name":"","type":"bool","internalType":"bool"}],"stateMutability":"view"},{"type":"function","name":"isDepositLimit","inputs":[],"outputs":[{"name":"","type":"bool","internalType":"bool"}],"stateMutability":"view"},{"type":"function","name":"isDepositorWhitelisted","inputs":[{"name":"account","type":"address","internalType":"address"}],"outputs":[{"name":"value","type":"bool","internalType":"bool"}],"stateMutability":"view"},{"type":"function","name":"isSlasherInitialized","inputs":[],"outputs":[{"name":"","type":"bool","internalType":"bool"}],"stateMutability":"view"},{"type":"function","name":"isWithdrawalsClaimed","inputs":[{"name":"epoch","type":"uint256","internalType":"uint256"},{"name":"account","type":"address","internalType":"address"}],"outputs":[{"name":"value","type":"bool","internalType":"bool"}],"stateMutability":"view"},{"type":"function","name":"name","inputs":[],"outputs":[{"name":"","type":"string","internalType":"string"}],"stateMutability":"view"},{"type":"function","name":"redeem","inputs":[{"name":"claimer","type":"address","internalType":"address"},{"name":"shares","type":"uint256","internalType":"uint256"}],"outputs":[{"name":"withdrawnAssets","type":"uint256","internalType":"uint256"},{"name":"mintedShares","type":"uint256","internalType":"uint256"}],"stateMutability":"nonpayable"},{"type":"function","name":"slasher","inputs":[],"outputs":[{"name":"","type":"address","internalType":"address"}],"stateMutability":"view"},{"type":"function","name":"staticDelegateCall","inputs":[{"name":"target","type":"address","internalType":"address"},{"name":"data","type":"bytes","internalType":"bytes"}],"outputs":[],"stateMutability":"nonpayable"},{"type":"function","name":"symbol","inputs":[],"outputs":[{"name":"","type":"string","internalType":"string"}],"stateMutability":"view"},{"type":"function","name":"totalSupply","inputs":[],"outputs":[{"name":"","type":"uint256","internalType":"uint256"}],"stateMutability":"view"},{"type":"function","name":"transfer","inputs":[{"name":"to","type":"address","internalType":"address"},{"name":"value","type":"uint256","internalType":"uint256"}],"outputs":[{"name":"","type":"bool","internalType":"bool"}],"stateMutability":"nonpayable"},{"type":"function","name":"transferFrom","inputs":[{"name":"from","type":"address","internalType":"address"},{"name":"to","type":"address","internalType":"address"},{"name":"value","type":"uint256","internalType":"uint256"}],"outputs":[{"name":"","type":"bool","internalType":"bool"}],"stateMutability":"nonpayable"},{"type":"function","name":"withdraw","inputs":[{"name":"claimer","type":"address","internalType":"address"},{"name":"amount","type":"uint256","internalType":"uint256"}],"outputs":[{"name":"burnedShares","type":"uint256","internalType":"uint256"},{"name":"mintedShares","type":"uint256","internalType":"uint256"}],"stateMutability":"nonpayable"},{"type":"function","name":"withdrawalShares","inputs":[{"name":"epoch","type":"uint256","internalType":"uint256"}],"outputs":[{"name":"amount","type":"uint256","internalType":"uint256"}],"stateMutability":"view"},{"type":"function","name":"withdrawalSharesOf","inputs":[{"name":"epoch","type":"uint256","internalType":"uint256"},{"name":"account","type":"address","internalType":"address"}],"outputs":[{"name":"amount","type":"uint256","internalType":"uint256"}],"stateMutability":"view"},{"type":"function","name":"withdrawals","inputs":[{"name":"epoch","type":"uint256","internalType":"uint256"}],"outputs":[{"name":"amount","type":"uint256","internalType":"uint256"}],"stateMutability":"view"},{"type":"event","name":"Approval","inputs":[{"name":"owner","type":"address","indexed":true,"internalType":"address"},{"name":"spender","type":"address","indexed":true,"internalType":"address"},{"name":"value","type":"uint256","indexed":false,"internalType":"uint256"}],"anonymous":false},{"type":"event","name":"Initialized","inputs":[{"name":"version","type":"uint64","indexed":false,"internalType":"uint64"}],"anonymous":false},{"type":"event","name":"Transfer","inputs":[{"name":"from","type":"address","indexed":true,"internalType":"address"},{"name":"to","type":"address","indexed":true,"internalType":"address"},{"name":"value","type":"uint256","indexed":false,"internalType":"uint256"}],"anonymous":false},{"type":"error","name":"AddressEmptyCode","inputs":[{"name":"target","type":"address","internalType":"address"}]},{"type":"error","name":"CheckpointUnorderedInsertion","inputs":[]},{"type":"error","name":"ERC20InsufficientAllowance","inputs":[{"name":"spender","type":"address","internalType":"address"},{"name":"allowance","type":"uint256","internalType":"uint256"},{"name":"needed","type":"uint256","internalType":"uint256"}]},{"type":"error","name":"ERC20InsufficientBalance","inputs":[{"name":"sender","type":"address","internalType":"address"},{"name":"balance","type":"uint256","internalType":"uint256"},{"name":"needed","type":"uint256","internalType":"uint256"}]},{"type":"error","name":"ERC20InvalidApprover","inputs":[{"name":"approver","type":"address","internalType":"address"}]},{"type":"error","name":"ERC20InvalidReceiver","inputs":[{"name":"receiver","type":"address","internalType":"address"}]},{"type":"error","name":"ERC20InvalidSender","inputs":[{"name":"sender","type":"address","internalType":"address"}]},{"type":"error","name":"ERC20InvalidSpender","inputs":[{"name":"spender","type":"address","internalType":"address"}]},{"type":"error","name":"FailedCall","inputs":[]},{"type":"error","name":"InvalidInitialization","inputs":[]},{"type":"error","name":"NotInitializing","inputs":[]},{"type":"error","name":"ReentrancyGuardReentrantCall","inputs":[]},{"type":"error","name":"SafeCastOverflowedUintDowncast","inputs":[{"name":"bits","type":"uint8","internalType":"uint8"},{"name":"value","type":"uint256","internalType":"uint256"}]}],"bytecode":{"object":"0x60a034606d57601f611c1338819003918201601f19168301916001600160401b03831184841017607157808492602094604052833981010312606d57516001600160a01b0381168103606d57608052604051611b8d9081610086823960805181818161063c01526115730152f35b5f80fd5b634e487b7160e01b5f52604160045260245ffdfe608060405260043610611569575f3560e01c806306fdde03146102bb578063095ea7b3146102b65780631415519b146102b157806318160ddd146102ac5780631b66c9e1146102a75780631e9a6950146102a257806323b872dd1461029d57806327810b6e146102985780632fa27fae14610293578063313ce5671461028e57806331d9736c1461028957806347e7ef241461028457806348d3b7751461027f57806350861adc1461027a5780635cc070761461027557806361819dd814610270578063653b04cd1461026b57806365d61c6c146102665780636ec1e3f81461026157806370a082311461025c578063794b15b7146102575780637bd00ae81461025257806395d89b411461024d5780639f86fd85146102485780639f9962dd14610243578063a1b122021461023e578063a21a1df914610239578063a3b5417214610234578063a5d032231461022f578063a66b3a731461022a578063a8b24f9a14610225578063a9059cbb14610220578063afba70ad1461021b578063b134427114610216578063bc46f72214610211578063ce9b79301461020c578063d8dfeb4514610207578063db38871514610202578063dd62ed3e146101fd578063e945da7f146101f8578063ecc98f05146101f3578063ecf70858146101ee5763f3fef3a30361156957611109565b6110ec565b6110ce565b6110b1565b611082565b611048565b61101d565b610ff5565b610fbb565b610f93565b610f69565b610f38565b610f10565b610ed6565b610e88565b610e3f565b610e05565b610de1565b610db9565b610d36565b610c84565b610afb565b610a90565b610a21565b6109fc565b6109d7565b61099d565b610963565b610939565b610914565b6108f3565b610864565b61082a565b610792565b610772565b61074a565b61069c565b6105d6565b61059c565b610510565b6104d6565b610418565b6102f8565b805180835260209291819084018484015e5f828201840152601f01601f1916010190565b9060206102f59281815201906102c0565b90565b346103e8575f3660031901126103e8576040515f5f80516020611af88339815191528054906103268261118e565b808552916020916001918281169081156103bb5750600114610363575b61035f86610353818803826111da565b604051918291826102e4565b0390f35b5f90815293507f2ae08a8e29253f69ac5d979a101956ab8f8d9d7ded63fa7a83b16fc47648eab05b8385106103a8575050505081016020016103538261035f5f610343565b805486860184015293820193810161038b565b905086955061035f9693506020925061035394915060ff191682840152151560051b82010192935f610343565b5f80fd5b600435906001600160a01b03821682036103e857565b602435906001600160a01b03821682036103e857565b346103e85760403660031901126103e8576104316103ec565b60243533156104be576001600160a01b0382169182156104a65761046e829161045933610a58565b9060018060a01b03165f5260205260405f2090565b556040519081527f8c5be1e5ebec7d5bd14f71427d1e84f3dd0314c0f7b2291e5b200ac8c7c3b92560203392a3602060405160018152f35b604051634a1406b160e11b81525f6004820152602490fd5b60405163e602df0560e01b81525f6004820152602490fd5b346103e8575f3660031901126103e85760206040517fc6aaadd7371d5e8f9ed6849dd66a66573a3ba37167d03f4352c9ba5693678fac8152f35b346103e8575f3660031901126103e857600a548061055e57505f5b6001600160d01b03811615610555576105456020916112dc565b90549060031b1c5b604051908152f35b5060205f61054d565b805f1981011161059757600a5f527fc65a7bb8d6351c1cf70c95a316cc6a92839c986682d98bc35f958f4883f9d2a7015460301c61052b565b6115a5565b346103e8575f3660031901126103e85760206040517f9c56d972d63cbb4195b3c1484691dfc220fa96a4c47e7b6613bd82a022029e068152f35b346103e85760403660031901126103e8575f61063a61066f6106606105f96103ec565b6040516301e9a69560e41b60208201526001600160a01b0390911660248281019190915235604482018190529381606481015b03601f1981018352826111da565b7f000000000000000000000000000000000000000000000000000000000000000061138d565b602080825183010191016111fc565b9290916040519081525f80516020611b3883398151915260203392a3604080519182526020820192909252f35b346103e85760603660031901126103e8576106b56103ec565b6106bd610402565b604435906106ce3361045985610a58565b5492600184016106ef575b6106e393506113aa565b60405160018152602090f35b828410610724576001600160a01b038116156104be5733156104a657826106e3940361071e3361045984610a58565b556106d9565b604051637dc7a0d960e11b81523360048201526024810185905260448101849052606490fd5b346103e8575f3660031901126103e8576001546040516001600160a01b039091168152602090f35b346103e8575f3660031901126103e857602060015460d01c604051908152f35b346103e8575f3660031901126103e8575f5460405163313ce56760e01b8152906020908290600490829060101c6001600160a01b03165afa801561081f5761035f915f916107f0575b5060405160ff90911681529081906020820190565b610812915060203d602011610818575b61080a81836111da565b810190611212565b5f6107db565b503d610800565b6040513d5f823e3d90fd5b346103e8575f3660031901126103e85760206040517f5295aaaa27fdd659293eafacbfafbc634c1b96298957e87de5f59308cdbfdad18152f35b346103e85760403660031901126103e85761087d6103ec565b6040516311f9fbc960e21b60208201526001600160a01b0382166024808301919091523560448201526108bb906106609061063a816064810161062c565b60405181815290926001600160a01b0316905f905f80516020611b3883398151915290602090a3604080519182526020820192909252f35b346103e8575f3660031901126103e857602060ff5f54166040519015158152f35b346103e8575f3660031901126103e857602060ff60025460a01c166040519015158152f35b346103e85760203660031901126103e8576004355f526006602052602060405f2054604051908152f35b346103e8575f3660031901126103e85760206040517f591f6a0113ada8aff67efadec8ae2fa585cb4ebf4e1f8fc1205ffbeff98d00ec8152f35b346103e8575f3660031901126103e85760206040517f439148f0bbc682ca079e46d6e2c2f0c1e3b820f1a291b069d8882abf8cf18dd98152f35b346103e8575f3660031901126103e857602060ff60165460a01c166040519015158152f35b346103e8575f3660031901126103e857602060ff60035460a01c166040519015158152f35b346103e85760203660031901126103e8576001600160a01b03610a426103ec565b165f52600e602052602061054d60405f2061133a565b6001600160a01b03165f9081527f52c63247e1f47db19d5ce0460030c497f067ca4cebf71ba98eeadabe20bace016020526040902090565b346103e85760203660031901126103e8576001600160a01b03610ab16103ec565b165f526005602052602060ff60405f2054166040519015158152f35b9181601f840112156103e85782359167ffffffffffffffff83116103e857602083818601950101116103e857565b346103e8576020806003193601126103e85767ffffffffffffffff906004358281116103e857610b2f903690600401610acd565b8101906040818303126103e85780358481116103e85782610b51918301611267565b9160208201358581116103e857610b689201611267565b91610b7161162a565b610b7961162a565b8151938411610c7f575f80516020611af883398151915291610ba485610b9f855461118e565b61166b565b602091601f8611600114610bec57509380610bd892610bdf965f92610be1575b50508160011b915f199060031b1c19161790565b905561175d565b005b015190505f80610bc4565b5f80516020611af88339815191525f529190601f1986167f2ae08a8e29253f69ac5d979a101956ab8f8d9d7ded63fa7a83b16fc47648eab0935f905b828210610c67575050916001939187610bdf989410610c4f575b505050811b01905561175d565b01515f1960f88460031b161c191690555f8080610c42565b80600186978294978701518155019601940190610c28565b6111c6565b346103e8575f3660031901126103e8576040515f5f80516020611b18833981519152805490610cb28261118e565b808552916020916001918281169081156103bb5750600114610cde5761035f86610353818803826111da565b5f90815293507f46a2803e59a4de4e7a4c574b1243f25977ac4c77d5a1a4a609b5394cebb4a2aa5b838510610d23575050505081016020016103538261035f5f610343565b8054868601840152938201938101610d06565b346103e85760403660031901126103e857610d4f6103ec565b60243567ffffffffffffffff81116103e8575f91610d7283923690600401610acd565b90816040519283928337810184815203915af4610db1610d906112ad565b9161062c6040519384921515602084015260408084015260608301906102c0565b805190602001fd5b346103e8575f3660031901126103e857602065ffffffffffff60015460a01c16604051908152f35b346103e8575f3660031901126103e857602060ff5f5460081c166040519015158152f35b346103e8575f3660031901126103e85760206040517f4a634bc14d77baf979756509ef4298c6f6318af357828612545267ee2eb792338152f35b346103e85760403660031901126103e8576020610e7f610e5d610402565b6004355f526008835260405f209060018060a01b03165f5260205260405f2090565b54604051908152f35b346103e85760403660031901126103e857602060ff610eca610ea8610402565b6004355f526009845260405f209060018060a01b03165f5260205260405f2090565b54166040519015158152f35b346103e8575f3660031901126103e85760206040517fc9feed28b4b1a1d11c6791da7bb7f6b8d33e831a4992a9383dead1ec2c82c35a8152f35b346103e8575f3660031901126103e8576016546040516001600160a01b039091168152602090f35b346103e85760403660031901126103e857610f5e610f546103ec565b60243590336113aa565b602060405160018152f35b346103e85760203660031901126103e8576004355f526007602052602060405f2054604051908152f35b346103e8575f3660031901126103e8576003546040516001600160a01b039091168152602090f35b346103e8575f3660031901126103e85760206040517fc9078c78bcaac2be1c77c160c539a489be2b72939771b1a6302fed3e2150c7458152f35b346103e8575f3660031901126103e8576002546040516001600160a01b039091168152602090f35b346103e8575f3660031901126103e8575f5460405160109190911c6001600160a01b03168152602090f35b346103e8575f3660031901126103e85760206040517fbae4ee3de6c709ff9a002e774c5b78cb381560b219213c88ae0f1e207c03c0238152f35b346103e85760403660031901126103e8576020610e7f6110a06103ec565b6104596110ab610402565b91610a58565b346103e8575f3660031901126103e8576020601554604051908152f35b346103e8575f3660031901126103e8576020604051633b9aca008152f35b346103e8575f3660031901126103e8576020600454604051908152f35b346103e85760403660031901126103e85761116261066061062c61063a61112e6103ec565b60405163f3fef3a360e01b60208201526001600160a01b039091166024808301919091523560448201529182906064820190565b905f6040518281525f80516020611b3883398151915260203392a3604080519182526020820192909252f35b90600182811c921680156111bc575b60208310146111a857565b634e487b7160e01b5f52602260045260245ffd5b91607f169161119d565b634e487b7160e01b5f52604160045260245ffd5b90601f8019910116810190811067ffffffffffffffff821117610c7f57604052565b91908260409103126103e8576020825192015190565b908160209103126103e8575160ff811681036103e85790565b604051906040820182811067ffffffffffffffff821117610c7f57604052565b67ffffffffffffffff8111610c7f57601f01601f191660200190565b81601f820112156103e85780359061127e8261124b565b9261128c60405194856111da565b828452602083830101116103e857815f926020809301838601378301015290565b3d156112d7573d906112be8261124b565b916112cc60405193846111da565b82523d5f602084013e565b606090565b600b5481101561131157600b5f527f0175b7a638427703f0dbe7bb9bbf987a2551717b34e79f33b5b1008d1fa01db901905f90565b634e487b7160e01b5f52603260045260245ffd5b8054821015611311575f5260205f2001905f90565b80548061136f57505f5b6001600160d01b0381161561136957600161135f9201611325565b90549060031b1c90565b50505f90565b5f1990808281011161059757825f5260205f2001015460301c611344565b5f806102f593602081519101845af46113a46112ad565b916115c7565b916001600160a01b0380841692908315611551578116938415611539577f9b779b17422d0df92223018b32b4d1fa46e071723d6817e2486d003becc55f00600281541461152757600290556001600160a01b0381165f908152600e6020526040902061141a9061133a565b61133a565b908382106114f5576114c7926114695f80516020611b3883398151915295936114566114b59460018060a01b03165f52600e60205260405f2090565b908561146142611954565b910391611892565b50506001600160a01b0381165f908152600e6020526040902090836114ae61141561149342611954565b6001600160a01b039094165f908152600e6020526040902090565b0191611892565b50506040519081529081906020820190565b0390a36114f360017f9b779b17422d0df92223018b32b4d1fa46e071723d6817e2486d003becc55f0055565b565b60405163391434e360e21b81526001600160a01b03919091166004820152602481019190915260448101839052606490fd5b604051633ee5aeb560e01b8152600490fd5b60405163ec442f0560e01b81525f6004820152602490fd5b604051634b637e8f60e11b81525f6004820152602490fd5b365f80375f8036817f00000000000000000000000000000000000000000000000000000000000000005af43d5f803e156115a1573d5ff35b3d5ffd5b634e487b7160e01b5f52601160045260245ffd5b5f1981019190821161059757565b906115ee57508051156115dc57805190602001fd5b60405163d6bda27560e01b8152600490fd5b81511580611621575b6115ff575090565b604051639996b31560e01b81526001600160a01b039091166004820152602490fd5b50803b156115f7565b60ff7ff0c57e16840df040f15088dc2f81fe391c3923bec73e23a9662efc9c229c6a005460401c161561165957565b604051631afcd79f60e31b8152600490fd5b601f8111611677575050565b5f80516020611af88339815191525f527f2ae08a8e29253f69ac5d979a101956ab8f8d9d7ded63fa7a83b16fc47648eab0906020601f840160051c830193106116da575b601f0160051c01905b8181106116cf575050565b5f81556001016116c4565b90915081906116bb565b601f81116116f0575050565b5f80516020611b188339815191525f527f46a2803e59a4de4e7a4c574b1243f25977ac4c77d5a1a4a609b5394cebb4a2aa906020601f840160051c83019310611753575b601f0160051c01905b818110611748575050565b5f815560010161173d565b9091508190611734565b90815167ffffffffffffffff8111610c7f575f80516020611b18833981519152906117918161178c845461118e565b6116e4565b602080601f83116001146117c6575081906117c29394955f92610be15750508160011b915f199060031b1c19161790565b9055565b90601f198316956118045f80516020611b188339815191525f527f46a2803e59a4de4e7a4c574b1243f25977ac4c77d5a1a4a609b5394cebb4a2aa90565b925f905b88821061183f57505083600195969710611827575b505050811b019055565b01515f1960f88460031b161c191690555f808061181d565b80600185968294968601518155019501930190611808565b90815491600160401b831015610c7f578261187a9160016114f395018155611325565b90919082549060031b91821b915f19901b1916179055565b90929192600182019081548015611924575b50846118af84611986565b509490928454936118bf8361133a565b968161190f575b50156118ec575050505f1981019081116105975761187a85916118e893611325565b9190565b6118e8949293611908926001600160d01b039091169190611a1a565b5050611857565b65ffffffffffff83811691161490505f6118c6565b600160401b811015610c7f578060016119409201845583611325565b8154905f199060031b1b191690555f6118a4565b65ffffffffffff90818111611967571690565b604490604051906306dfcc6560e41b8252603060048301526024820152fd5b8054806119975750505f905f905f90565b5f19918183810111610597575f5260205f2001015460019165ffffffffffff82169160301c90565b8054600160401b811015610c7f576119dc91600182018155611325565b611a0757815160209092015160301b65ffffffffffff191665ffffffffffff92909216919091179055565b634e487b7160e01b5f525f60045260245ffd5b80549293928015611acd57611a31611a3c916115b9565b825f5260205f200190565b9182549265ffffffffffff91828516928116808411611abb57879303611a825750611a7b92509065ffffffffffff82549181199060301b169116179055565b60301c9190565b915050611ab691611aa2611a9461122b565b65ffffffffffff9093168352565b6001600160d01b03861660208301526119bf565b611a7b565b604051632520601d60e01b8152600490fd5b5090611af291611ade611a9461122b565b6001600160d01b03851660208301526119bf565b5f919056fe52c63247e1f47db19d5ce0460030c497f067ca4cebf71ba98eeadabe20bace0352c63247e1f47db19d5ce0460030c497f067ca4cebf71ba98eeadabe20bace04ddf252ad1be2c89b69c2b068fc378daa952ba7f163c4a11628f55a4df523b3efa264697066735822122023546884da659dc8820dcd4950b548e8acae07bd93da0d4cd5d9d456af546df364736f6c63430008190033","linkReferences":{}},"methodIdentifiers":{"DEPOSITOR_WHITELIST_ROLE()":"1b66c9e1","DEPOSIT_LIMIT_SET_ROLE()":"a21a1df9","DEPOSIT_WHITELIST_SET_ROLE()":"db388715","EPOCH_DURATION_SET_ROLE()":"61819dd8","FLASH_FEE_BASE()":"ecc98f05","FLASH_FEE_RATE_SET_ROLE()":"bc46f722","FLASH_FEE_RECEIVER_SET_ROLE()":"31d9736c","FLASH_LOAN_ENABLED_SET_ROLE()":"a66b3a73","IS_DEPOSIT_LIMIT_SET_ROLE()":"1415519b","RETURN_VALUE()":"653b04cd","_VaultTokenized_init(bytes)":"7bd00ae8","_epochDuration()":"2fa27fae","_epochDurationInit()":"9f9962dd","allowance(address,address)":"dd62ed3e","approve(address,uint256)":"095ea7b3","balanceOf(address)":"70a08231","burner()":"27810b6e","collateral()":"d8dfeb45","decimals()":"313ce567","delegator()":"ce9b7930","deposit(address,uint256)":"47e7ef24","depositLimit()":"ecf70858","depositWhitelist()":"48d3b775","flashFeeRate()":"e945da7f","flashFeeReceiver()":"a8b24f9a","flashLoanEnabled()":"65d61c6c","isDelegatorInitialized()":"50861adc","isDepositLimit()":"a1b12202","isDepositorWhitelisted(address)":"794b15b7","isSlasherInitialized()":"6ec1e3f8","isWithdrawalsClaimed(uint256,address)":"a5d03223","name()":"06fdde03","redeem(address,uint256)":"1e9a6950","slasher()":"b1344271","staticDelegateCall(address,bytes)":"9f86fd85","symbol()":"95d89b41","totalSupply()":"18160ddd","transfer(address,uint256)":"a9059cbb","transferFrom(address,address,uint256)":"23b872dd","withdraw(address,uint256)":"f3fef3a3","withdrawalShares(uint256)":"afba70ad","withdrawalSharesOf(uint256,address)":"a3b54172","withdrawals(uint256)":"5cc07076"},"id":115}