{"abi":[{"type":"constructor","inputs":[{"name":"baseImplementation","type":"address","internalType":"address"}],"stateMutability":"nonpayable"},{"type":"fallback","stateMutability":"payable"},{"type":"function","name":"DEPOSITOR_WHITELIST_ROLE","inputs":[],"outputs":[{"name":"","type":"bytes32","internalType":"bytes32"}],"stateMutability":"view"},{"type":"function","name":"DEPOSIT_LIMIT_SET_ROLE","inputs":[],"outputs":[{"name":"","type":"bytes32","internalType":"bytes32"}],"stateMutability":"view"},{"type":"function","name":"DEPOSIT_WHITELIST_SET_ROLE","inputs":[],"outputs":[{"name":"","type":"bytes32","internalType":"bytes32"}],"stateMutability":"view"},{"type":"function","name":"EPOCH_DURATION_SET_ROLE","inputs":[],"outputs":[{"name":"","type":"bytes32","internalType":"bytes32"}],"stateMutability":"view"},{"type":"function","name":"FLASH_FEE_BASE","inputs":[],"outputs":[{"name":"","type":"uint256","internalType":"uint256"}],"stateMutability":"view"},{"type":"function","name":"FLASH_FEE_RATE_SET_ROLE","inputs":[],"outputs":[{"name":"","type":"bytes32","internalType":"bytes32"}],"stateMutability":"view"},{"type":"function","name":"FLASH_FEE_RECEIVER_SET_ROLE","inputs":[],"outputs":[{"name":"","type":"bytes32","internalType":"bytes32"}],"stateMutability":"view"},{"type":"function","name":"FLASH_LOAN_ENABLED_SET_ROLE","inputs":[],"outputs":[{"name":"","type":"bytes32","internalType":"bytes32"}],"stateMutability":"view"},{"type":"function","name":"IS_DEPOSIT_LIMIT_SET_ROLE","inputs":[],"outputs":[{"name":"","type":"bytes32","internalType":"bytes32"}],"stateMutability":"view"},{"type":"function","name":"RETURN_VALUE","inputs":[],"outputs":[{"name":"","type":"bytes32","internalType":"bytes32"}],"stateMutability":"view"},{"type":"function","name":"_VaultTokenized_init","inputs":[{"name":"data","type":"bytes","internalType":"bytes"}],"outputs":[],"stateMutability":"nonpayable"},{"type":"function","name":"_epochDuration","inputs":[],"outputs":[{"name":"","type":"uint48","internalType":"uint48"}],"stateMutability":"view"},{"type":"function","name":"_epochDurationInit","inputs":[],"outputs":[{"name":"","type":"uint48","internalType":"uint48"}],"stateMutability":"view"},{"type":"function","name":"_epochDurationInitIndex","inputs":[],"outputs":[{"name":"","type":"uint256","internalType":"uint256"}],"stateMutability":"view"},{"type":"function","name":"_epochDurationSetEpochsDelay","inputs":[],"outputs":[{"name":"","type":"uint256","internalType":"uint256"}],"stateMutability":"view"},{"type":"function","name":"_nextEpochDuration","inputs":[],"outputs":[{"name":"","type":"uint48","internalType":"uint48"}],"stateMutability":"view"},{"type":"function","name":"_nextEpochDurationInit","inputs":[],"outputs":[{"name":"","type":"uint48","internalType":"uint48"}],"stateMutability":"view"},{"type":"function","name":"_nextEpochDurationSetEpochsDelay","inputs":[],"outputs":[{"name":"","type":"uint256","internalType":"uint256"}],"stateMutability":"view"},{"type":"function","name":"_nextEpochInitIndex","inputs":[],"outputs":[{"name":"","type":"uint256","internalType":"uint256"}],"stateMutability":"view"},{"type":"function","name":"_prevEpochDuration","inputs":[],"outputs":[{"name":"","type":"uint48","internalType":"uint48"}],"stateMutability":"view"},{"type":"function","name":"_prevEpochDurationInit","inputs":[],"outputs":[{"name":"","type":"uint48","internalType":"uint48"}],"stateMutability":"view"},{"type":"function","name":"_prevEpochDurationInitIndex","inputs":[],"outputs":[{"name":"","type":"uint256","internalType":"uint256"}],"stateMutability":"view"},{"type":"function","name":"allowance","inputs":[{"name":"owner","type":"address","internalType":"address"},{"name":"spender","type":"address","internalType":"address"}],"outputs":[{"name":"","type":"uint256","internalType":"uint256"}],"stateMutability":"view"},{"type":"function","name":"approve","inputs":[{"name":"spender","type":"address","internalType":"address"},{"name":"value","type":"uint256","internalType":"uint256"}],"outputs":[{"name":"","type":"bool","internalType":"bool"}],"stateMutability":"nonpayable"},{"type":"function","name":"balanceOf","inputs":[{"name":"account","type":"address","internalType":"address"}],"outputs":[{"name":"","type":"uint256","internalType":"uint256"}],"stateMutability":"view"},{"type":"function","name":"burner","inputs":[],"outputs":[{"name":"","type":"address","internalType":"address"}],"stateMutability":"view"},{"type":"function","name":"collateral","inputs":[],"outputs":[{"name":"","type":"address","internalType":"address"}],"stateMutability":"view"},{"type":"function","name":"decimals","inputs":[],"outputs":[{"name":"","type":"uint8","internalType":"uint8"}],"stateMutability":"view"},{"type":"function","name":"delegator","inputs":[],"outputs":[{"name":"","type":"address","internalType":"address"}],"stateMutability":"view"},{"type":"function","name":"deposit","inputs":[{"name":"onBehalfOf","type":"address","internalType":"address"},{"name":"amount","type":"uint256","internalType":"uint256"}],"outputs":[{"name":"depositedAmount","type":"uint256","internalType":"uint256"},{"name":"mintedShares","type":"uint256","internalType":"uint256"}],"stateMutability":"nonpayable"},{"type":"function","name":"depositLimit","inputs":[],"outputs":[{"name":"","type":"uint256","internalType":"uint256"}],"stateMutability":"view"},{"type":"function","name":"depositWhitelist","inputs":[],"outputs":[{"name":"","type":"bool","internalType":"bool"}],"stateMutability":"view"},{"type":"function","name":"flashFeeRate","inputs":[],"outputs":[{"name":"","type":"uint256","internalType":"uint256"}],"stateMutability":"view"},{"type":"function","name":"flashFeeReceiver","inputs":[],"outputs":[{"name":"","type":"address","internalType":"address"}],"stateMutability":"view"},{"type":"function","name":"flashLoanEnabled","inputs":[],"outputs":[{"name":"","type":"bool","internalType":"bool"}],"stateMutability":"view"},{"type":"function","name":"isDelegatorInitialized","inputs":[],"outputs":[{"name":"","type":"bool","internalType":"bool"}],"stateMutability":"view"},{"type":"function","name":"isDepositLimit","inputs":[],"outputs":[{"name":"","type":"bool","internalType":"bool"}],"stateMutability":"view"},{"type":"function","name":"isDepositorWhitelisted","inputs":[{"name":"account","type":"address","internalType":"address"}],"outputs":[{"name":"value","type":"bool","internalType":"bool"}],"stateMutability":"view"},{"type":"function","name":"isSlasherInitialized","inputs":[],"outputs":[{"name":"","type":"bool","internalType":"bool"}],"stateMutability":"view"},{"type":"function","name":"isWithdrawalsClaimed","inputs":[{"name":"epoch","type":"uint256","internalType":"uint256"},{"name":"account","type":"address","internalType":"address"}],"outputs":[{"name":"value","type":"bool","internalType":"bool"}],"stateMutability":"view"},{"type":"function","name":"name","inputs":[],"outputs":[{"name":"","type":"string","internalType":"string"}],"stateMutability":"view"},{"type":"function","name":"redeem","inputs":[{"name":"claimer","type":"address","internalType":"address"},{"name":"shares","type":"uint256","internalType":"uint256"}],"outputs":[{"name":"withdrawnAssets","type":"uint256","internalType":"uint256"},{"name":"mintedShares","type":"uint256","internalType":"uint256"}],"stateMutability":"nonpayable"},{"type":"function","name":"slasher","inputs":[],"outputs":[{"name":"","type":"address","internalType":"address"}],"stateMutability":"view"},{"type":"function","name":"staticDelegateCall","inputs":[{"name":"target","type":"address","internalType":"address"},{"name":"data","type":"bytes","internalType":"bytes"}],"outputs":[],"stateMutability":"nonpayable"},{"type":"function","name":"symbol","inputs":[],"outputs":[{"name":"","type":"string","internalType":"string"}],"stateMutability":"view"},{"type":"function","name":"totalSupply","inputs":[],"outputs":[{"name":"","type":"uint256","internalType":"uint256"}],"stateMutability":"view"},{"type":"function","name":"transfer","inputs":[{"name":"to","type":"address","internalType":"address"},{"name":"value","type":"uint256","internalType":"uint256"}],"outputs":[{"name":"","type":"bool","internalType":"bool"}],"stateMutability":"nonpayable"},{"type":"function","name":"transferFrom","inputs":[{"name":"from","type":"address","internalType":"address"},{"name":"to","type":"address","internalType":"address"},{"name":"value","type":"uint256","internalType":"uint256"}],"outputs":[{"name":"","type":"bool","internalType":"bool"}],"stateMutability":"nonpayable"},{"type":"function","name":"withdraw","inputs":[{"name":"claimer","type":"address","internalType":"address"},{"name":"amount","type":"uint256","internalType":"uint256"}],"outputs":[{"name":"burnedShares","type":"uint256","internalType":"uint256"},{"name":"mintedShares","type":"uint256","internalType":"uint256"}],"stateMutability":"nonpayable"},{"type":"function","name":"withdrawalShares","inputs":[{"name":"epoch","type":"uint256","internalType":"uint256"}],"outputs":[{"name":"amount","type":"uint256","internalType":"uint256"}],"stateMutability":"view"},{"type":"function","name":"withdrawalSharesOf","inputs":[{"name":"epoch","type":"uint256","internalType":"uint256"},{"name":"account","type":"address","internalType":"address"}],"outputs":[{"name":"amount","type":"uint256","internalType":"uint256"}],"stateMutability":"view"},{"type":"function","name":"withdrawals","inputs":[{"name":"epoch","type":"uint256","internalType":"uint256"}],"outputs":[{"name":"amount","type":"uint256","internalType":"uint256"}],"stateMutability":"view"},{"type":"event","name":"Approval","inputs":[{"name":"owner","type":"address","indexed":true,"internalType":"address"},{"name":"spender","type":"address","indexed":true,"internalType":"address"},{"name":"value","type":"uint256","indexed":false,"internalType":"uint256"}],"anonymous":false},{"type":"event","name":"Initialized","inputs":[{"name":"version","type":"uint64","indexed":false,"internalType":"uint64"}],"anonymous":false},{"type":"event","name":"Transfer","inputs":[{"name":"from","type":"address","indexed":true,"internalType":"address"},{"name":"to","type":"address","indexed":true,"internalType":"address"},{"name":"value","type":"uint256","indexed":false,"internalType":"uint256"}],"anonymous":false},{"type":"error","name":"AddressEmptyCode","inputs":[{"name":"target","type":"address","internalType":"address"}]},{"type":"error","name":"CheckpointUnorderedInsertion","inputs":[]},{"type":"error","name":"ERC20InsufficientAllowance","inputs":[{"name":"spender","type":"address","internalType":"address"},{"name":"allowance","type":"uint256","internalType":"uint256"},{"name":"needed","type":"uint256","internalType":"uint256"}]},{"type":"error","name":"ERC20InsufficientBalance","inputs":[{"name":"sender","type":"address","internalType":"address"},{"name":"balance","type":"uint256","internalType":"uint256"},{"name":"needed","type":"uint256","internalType":"uint256"}]},{"type":"error","name":"ERC20InvalidApprover","inputs":[{"name":"approver","type":"address","internalType":"address"}]},{"type":"error","name":"ERC20InvalidReceiver","inputs":[{"name":"receiver","type":"address","internalType":"address"}]},{"type":"error","name":"ERC20InvalidSender","inputs":[{"name":"sender","type":"address","internalType":"address"}]},{"type":"error","name":"ERC20InvalidSpender","inputs":[{"name":"spender","type":"address","internalType":"address"}]},{"type":"error","name":"FailedCall","inputs":[]},{"type":"error","name":"InvalidInitialization","inputs":[]},{"type":"error","name":"NotInitializing","inputs":[]},{"type":"error","name":"ReentrancyGuardReentrantCall","inputs":[]},{"type":"error","name":"SafeCastOverflowedUintDowncast","inputs":[{"name":"bits","type":"uint8","internalType":"uint8"},{"name":"value","type":"uint256","internalType":"uint256"}]}],"bytecode":{"object":"0x60a034606d57601f611dd138819003918201601f19168301916001600160401b03831184841017607157808492602094604052833981010312606d57516001600160a01b0381168103606d57608052604051611d4b908161008682396080518181816106cc01526117310152f35b5f80fd5b634e487b7160e01b5f52604160045260245ffdfe608060405260043610611727575f3560e01c806306fdde031461034b578063095ea7b3146103465780631415519b1461034157806318160ddd1461033c5780631b66c9e1146103375780631e9a69501461033257806323b872dd1461032d5780632749f9c41461032857806327810b6e146103235780632fa27fae1461031e578063313ce5671461031957806331d9736c1461031457806347e7ef241461030f57806348d3b7751461030a57806350861adc146103055780635a36aa74146103005780635cc07076146102fb57806361819dd8146102f6578063653b04cd146102f157806365d61c6c146102ec5780636e0f2455146102e75780636ec1e3f8146102e257806370a08231146102dd578063794b15b7146102d85780637bd00ae8146102d357806395d89b41146102ce57806398ccba4a146102c95780639b4bae3e146102c45780639f86fd85146102bf5780639f9962dd146102ba578063a1b12202146102b5578063a21a1df9146102b0578063a3b54172146102ab578063a5d03223146102a6578063a66b3a73146102a1578063a8b24f9a1461029c578063a9059cbb14610297578063afba70ad14610292578063b13442711461028d578063bba6ff4a14610288578063bc46f72214610283578063c1bc6f511461027e578063c4db46fc14610279578063cc52aee714610274578063ce9b79301461026f578063d8dfeb451461026a578063db38871514610265578063dd62ed3e14610260578063e945da7f1461025b578063ecc98f0514610256578063ecf70858146102515763f3fef3a303611727576112c7565b6112aa565b61128c565b61126f565b611240565b611206565b6111db565b6111b3565b61118b565b61116e565b611146565b61110c565b6110ef565b6110c7565b61109d565b61106c565b611044565b61100a565b610fbc565b610f73565b610f39565b610f15565b610eed565b610e6a565b610e4d565b610e30565b610d7e565b610bf5565b610b8a565b610b1b565b610af6565b610ad1565b610aac565b610a72565b610a38565b610a0e565b6109e6565b6109c1565b6109a0565b610911565b6108d7565b61083f565b61081f565b6107f7565b6107da565b61072c565b610666565b61062c565b6105a0565b610566565b6104a8565b610388565b805180835260209291819084018484015e5f828201840152601f01601f1916010190565b906020610385928181520190610350565b90565b34610478575f366003190112610478576040515f5f80516020611cb68339815191528054906103b68261134c565b8085529160209160019182811690811561044b57506001146103f3575b6103ef866103e381880382611398565b60405191829182610374565b0390f35b5f90815293507f2ae08a8e29253f69ac5d979a101956ab8f8d9d7ded63fa7a83b16fc47648eab05b838510610438575050505081016020016103e3826103ef5f6103d3565b805486860184015293820193810161041b565b90508695506103ef969350602092506103e394915060ff191682840152151560051b82010192935f6103d3565b5f80fd5b600435906001600160a01b038216820361047857565b602435906001600160a01b038216820361047857565b34610478576040366003190112610478576104c161047c565b602435331561054e576001600160a01b038216918215610536576104fe82916104e933610b52565b9060018060a01b03165f5260205260405f2090565b556040519081527f8c5be1e5ebec7d5bd14f71427d1e84f3dd0314c0f7b2291e5b200ac8c7c3b92560203392a3602060405160018152f35b604051634a1406b160e11b81525f6004820152602490fd5b60405163e602df0560e01b81525f6004820152602490fd5b34610478575f3660031901126104785760206040517fc6aaadd7371d5e8f9ed6849dd66a66573a3ba37167d03f4352c9ba5693678fac8152f35b34610478575f36600319011261047857600a54806105ee57505f5b6001600160d01b038116156105e5576105d560209161149a565b90549060031b1c5b604051908152f35b5060205f6105dd565b805f1981011161062757600a5f527fc65a7bb8d6351c1cf70c95a316cc6a92839c986682d98bc35f958f4883f9d2a7015460301c6105bb565b611763565b34610478575f3660031901126104785760206040517f9c56d972d63cbb4195b3c1484691dfc220fa96a4c47e7b6613bd82a022029e068152f35b34610478576040366003190112610478575f6106ca6106ff6106f061068961047c565b6040516301e9a69560e41b60208201526001600160a01b0390911660248281019190915235604482018190529381606481015b03601f198101835282611398565b7f000000000000000000000000000000000000000000000000000000000000000061154b565b602080825183010191016113ba565b9290916040519081525f80516020611cf683398151915260203392a3604080519182526020820192909252f35b346104785760603660031901126104785761074561047c565b61074d610492565b6044359061075e336104e985610b52565b54926001840161077f575b6107739350611568565b60405160018152602090f35b8284106107b4576001600160a01b0381161561054e573315610536578261077394036107ae336104e984610b52565b55610769565b604051637dc7a0d960e11b81523360048201526024810185905260448101849052606490fd5b34610478575f366003190112610478576020601454604051908152f35b34610478575f366003190112610478576001546040516001600160a01b039091168152602090f35b34610478575f36600319011261047857602060015460d01c604051908152f35b34610478575f366003190112610478575f5460405163313ce56760e01b8152906020908290600490829060101c6001600160a01b03165afa80156108cc576103ef915f9161089d575b5060405160ff90911681529081906020820190565b6108bf915060203d6020116108c5575b6108b78183611398565b8101906113d0565b5f610888565b503d6108ad565b6040513d5f823e3d90fd5b34610478575f3660031901126104785760206040517f5295aaaa27fdd659293eafacbfafbc634c1b96298957e87de5f59308cdbfdad18152f35b346104785760403660031901126104785761092a61047c565b6040516311f9fbc960e21b60208201526001600160a01b038216602480830191909152356044820152610968906106f0906106ca81606481016106bc565b60405181815290926001600160a01b0316905f905f80516020611cf683398151915290602090a3604080519182526020820192909252f35b34610478575f36600319011261047857602060ff5f54166040519015158152f35b34610478575f36600319011261047857602060ff60025460a01c166040519015158152f35b34610478575f36600319011261047857602065ffffffffffff60135460301c16604051908152f35b34610478576020366003190112610478576004355f526006602052602060405f2054604051908152f35b34610478575f3660031901126104785760206040517f591f6a0113ada8aff67efadec8ae2fa585cb4ebf4e1f8fc1205ffbeff98d00ec8152f35b34610478575f3660031901126104785760206040517f439148f0bbc682ca079e46d6e2c2f0c1e3b820f1a291b069d8882abf8cf18dd98152f35b34610478575f36600319011261047857602060ff60165460a01c166040519015158152f35b34610478575f36600319011261047857602065ffffffffffff60135416604051908152f35b34610478575f36600319011261047857602060ff60035460a01c166040519015158152f35b34610478576020366003190112610478576001600160a01b03610b3c61047c565b165f52600e60205260206105dd60405f206114f8565b6001600160a01b03165f9081527f52c63247e1f47db19d5ce0460030c497f067ca4cebf71ba98eeadabe20bace016020526040902090565b34610478576020366003190112610478576001600160a01b03610bab61047c565b165f526005602052602060ff60405f2054166040519015158152f35b9181601f840112156104785782359167ffffffffffffffff8311610478576020838186019501011161047857565b34610478576020806003193601126104785767ffffffffffffffff9060043582811161047857610c29903690600401610bc7565b8101906040818303126104785780358481116104785782610c4b918301611425565b91602082013585811161047857610c629201611425565b91610c6b6117e8565b610c736117e8565b8151938411610d79575f80516020611cb683398151915291610c9e85610c99855461134c565b611829565b602091601f8611600114610ce657509380610cd292610cd9965f92610cdb575b50508160011b915f199060031b1c19161790565b905561191b565b005b015190505f80610cbe565b5f80516020611cb68339815191525f529190601f1986167f2ae08a8e29253f69ac5d979a101956ab8f8d9d7ded63fa7a83b16fc47648eab0935f905b828210610d61575050916001939187610cd9989410610d49575b505050811b01905561191b565b01515f1960f88460031b161c191690555f8080610d3c565b80600186978294978701518155019601940190610d22565b611384565b34610478575f366003190112610478576040515f5f80516020611cd6833981519152805490610dac8261134c565b8085529160209160019182811690811561044b5750600114610dd8576103ef866103e381880382611398565b5f90815293507f46a2803e59a4de4e7a4c574b1243f25977ac4c77d5a1a4a609b5394cebb4a2aa5b838510610e1d575050505081016020016103e3826103ef5f6103d3565b8054868601840152938201938101610e00565b34610478575f366003190112610478576020601254604051908152f35b34610478575f366003190112610478576020601154604051908152f35b3461047857604036600319011261047857610e8361047c565b60243567ffffffffffffffff8111610478575f91610ea683923690600401610bc7565b90816040519283928337810184815203915af4610ee5610ec461146b565b916106bc604051938492151560208401526040808401526060830190610350565b805190602001fd5b34610478575f36600319011261047857602065ffffffffffff60015460a01c16604051908152f35b34610478575f36600319011261047857602060ff5f5460081c166040519015158152f35b34610478575f3660031901126104785760206040517f4a634bc14d77baf979756509ef4298c6f6318af357828612545267ee2eb792338152f35b34610478576040366003190112610478576020610fb3610f91610492565b6004355f526008835260405f209060018060a01b03165f5260205260405f2090565b54604051908152f35b3461047857604036600319011261047857602060ff610ffe610fdc610492565b6004355f526009845260405f209060018060a01b03165f5260205260405f2090565b54166040519015158152f35b34610478575f3660031901126104785760206040517fc9feed28b4b1a1d11c6791da7bb7f6b8d33e831a4992a9383dead1ec2c82c35a8152f35b34610478575f366003190112610478576016546040516001600160a01b039091168152602090f35b346104785760403660031901126104785761109261108861047c565b6024359033611568565b602060405160018152f35b34610478576020366003190112610478576004355f526007602052602060405f2054604051908152f35b34610478575f366003190112610478576003546040516001600160a01b039091168152602090f35b34610478575f366003190112610478576020600f54604051908152f35b34610478575f3660031901126104785760206040517fc9078c78bcaac2be1c77c160c539a489be2b72939771b1a6302fed3e2150c7458152f35b34610478575f36600319011261047857602065ffffffffffff60135460901c16604051908152f35b34610478575f366003190112610478576020601054604051908152f35b34610478575f36600319011261047857602065ffffffffffff60135460601c16604051908152f35b34610478575f366003190112610478576002546040516001600160a01b039091168152602090f35b34610478575f366003190112610478575f5460405160109190911c6001600160a01b03168152602090f35b34610478575f3660031901126104785760206040517fbae4ee3de6c709ff9a002e774c5b78cb381560b219213c88ae0f1e207c03c0238152f35b34610478576040366003190112610478576020610fb361125e61047c565b6104e9611269610492565b91610b52565b34610478575f366003190112610478576020601554604051908152f35b34610478575f366003190112610478576020604051633b9aca008152f35b34610478575f366003190112610478576020600454604051908152f35b34610478576040366003190112610478576113206106f06106bc6106ca6112ec61047c565b60405163f3fef3a360e01b60208201526001600160a01b039091166024808301919091523560448201529182906064820190565b905f6040518281525f80516020611cf683398151915260203392a3604080519182526020820192909252f35b90600182811c9216801561137a575b602083101461136657565b634e487b7160e01b5f52602260045260245ffd5b91607f169161135b565b634e487b7160e01b5f52604160045260245ffd5b90601f8019910116810190811067ffffffffffffffff821117610d7957604052565b9190826040910312610478576020825192015190565b90816020910312610478575160ff811681036104785790565b604051906040820182811067ffffffffffffffff821117610d7957604052565b67ffffffffffffffff8111610d7957601f01601f191660200190565b81601f820112156104785780359061143c82611409565b9261144a6040519485611398565b8284526020838301011161047857815f926020809301838601378301015290565b3d15611495573d9061147c82611409565b9161148a6040519384611398565b82523d5f602084013e565b606090565b600b548110156114cf57600b5f527f0175b7a638427703f0dbe7bb9bbf987a2551717b34e79f33b5b1008d1fa01db901905f90565b634e487b7160e01b5f52603260045260245ffd5b80548210156114cf575f5260205f2001905f90565b80548061152d57505f5b6001600160d01b0381161561152757600161151d92016114e3565b90549060031b1c90565b50505f90565b5f1990808281011161062757825f5260205f2001015460301c611502565b5f8061038593602081519101845af461156261146b565b91611785565b916001600160a01b038084169290831561170f5781169384156116f7577f9b779b17422d0df92223018b32b4d1fa46e071723d6817e2486d003becc55f0060028154146116e557600290556001600160a01b0381165f908152600e602052604090206115d8906114f8565b6114f8565b908382106116b357611685926116275f80516020611cf683398151915295936116146116739460018060a01b03165f52600e60205260405f2090565b908561161f42611b12565b910391611a50565b50506001600160a01b0381165f908152600e60205260409020908361166c6115d361165142611b12565b6001600160a01b039094165f908152600e6020526040902090565b0191611a50565b50506040519081529081906020820190565b0390a36116b160017f9b779b17422d0df92223018b32b4d1fa46e071723d6817e2486d003becc55f0055565b565b60405163391434e360e21b81526001600160a01b03919091166004820152602481019190915260448101839052606490fd5b604051633ee5aeb560e01b8152600490fd5b60405163ec442f0560e01b81525f6004820152602490fd5b604051634b637e8f60e11b81525f6004820152602490fd5b365f80375f8036817f00000000000000000000000000000000000000000000000000000000000000005af43d5f803e1561175f573d5ff35b3d5ffd5b634e487b7160e01b5f52601160045260245ffd5b5f1981019190821161062757565b906117ac575080511561179a57805190602001fd5b60405163d6bda27560e01b8152600490fd5b815115806117df575b6117bd575090565b604051639996b31560e01b81526001600160a01b039091166004820152602490fd5b50803b156117b5565b60ff7ff0c57e16840df040f15088dc2f81fe391c3923bec73e23a9662efc9c229c6a005460401c161561181757565b604051631afcd79f60e31b8152600490fd5b601f8111611835575050565b5f80516020611cb68339815191525f527f2ae08a8e29253f69ac5d979a101956ab8f8d9d7ded63fa7a83b16fc47648eab0906020601f840160051c83019310611898575b601f0160051c01905b81811061188d575050565b5f8155600101611882565b9091508190611879565b601f81116118ae575050565b5f80516020611cd68339815191525f527f46a2803e59a4de4e7a4c574b1243f25977ac4c77d5a1a4a609b5394cebb4a2aa906020601f840160051c83019310611911575b601f0160051c01905b818110611906575050565b5f81556001016118fb565b90915081906118f2565b90815167ffffffffffffffff8111610d79575f80516020611cd68339815191529061194f8161194a845461134c565b6118a2565b602080601f8311600114611984575081906119809394955f92610cdb5750508160011b915f199060031b1c19161790565b9055565b90601f198316956119c25f80516020611cd68339815191525f527f46a2803e59a4de4e7a4c574b1243f25977ac4c77d5a1a4a609b5394cebb4a2aa90565b925f905b8882106119fd575050836001959697106119e5575b505050811b019055565b01515f1960f88460031b161c191690555f80806119db565b806001859682949686015181550195019301906119c6565b90815491600160401b831015610d795782611a389160016116b1950181556114e3565b90919082549060031b91821b915f19901b1916179055565b90929192600182019081548015611ae2575b5084611a6d84611b44565b50949092845493611a7d836114f8565b9681611acd575b5015611aaa575050505f19810190811161062757611a388591611aa6936114e3565b9190565b611aa6949293611ac6926001600160d01b039091169190611bd8565b5050611a15565b65ffffffffffff83811691161490505f611a84565b600160401b811015610d7957806001611afe92018455836114e3565b8154905f199060031b1b191690555f611a62565b65ffffffffffff90818111611b25571690565b604490604051906306dfcc6560e41b8252603060048301526024820152fd5b805480611b555750505f905f905f90565b5f19918183810111610627575f5260205f2001015460019165ffffffffffff82169160301c90565b8054600160401b811015610d7957611b9a916001820181556114e3565b611bc557815160209092015160301b65ffffffffffff191665ffffffffffff92909216919091179055565b634e487b7160e01b5f525f60045260245ffd5b80549293928015611c8b57611bef611bfa91611777565b825f5260205f200190565b9182549265ffffffffffff91828516928116808411611c7957879303611c405750611c3992509065ffffffffffff82549181199060301b169116179055565b60301c9190565b915050611c7491611c60611c526113e9565b65ffffffffffff9093168352565b6001600160d01b0386166020830152611b7d565b611c39565b604051632520601d60e01b8152600490fd5b5090611cb091611c9c611c526113e9565b6001600160d01b0385166020830152611b7d565b5f919056fe52c63247e1f47db19d5ce0460030c497f067ca4cebf71ba98eeadabe20bace0352c63247e1f47db19d5ce0460030c497f067ca4cebf71ba98eeadabe20bace04ddf252ad1be2c89b69c2b068fc378daa952ba7f163c4a11628f55a4df523b3efa26469706673582212202ce858cd84608920752271e159aeaa3d2eba9980d00425dd505ba9088a02593664736f6c63430008190033","linkReferences":{}},"methodIdentifiers":{"DEPOSITOR_WHITELIST_ROLE()":"1b66c9e1","DEPOSIT_LIMIT_SET_ROLE()":"a21a1df9","DEPOSIT_WHITELIST_SET_ROLE()":"db388715","EPOCH_DURATION_SET_ROLE()":"61819dd8","FLASH_FEE_BASE()":"ecc98f05","FLASH_FEE_RATE_SET_ROLE()":"bc46f722","FLASH_FEE_RECEIVER_SET_ROLE()":"31d9736c","FLASH_LOAN_ENABLED_SET_ROLE()":"a66b3a73","IS_DEPOSIT_LIMIT_SET_ROLE()":"1415519b","RETURN_VALUE()":"653b04cd","_VaultTokenized_init(bytes)":"7bd00ae8","_epochDuration()":"2fa27fae","_epochDurationInit()":"9f9962dd","_epochDurationInitIndex()":"9b4bae3e","_epochDurationSetEpochsDelay()":"bba6ff4a","_nextEpochDuration()":"c1bc6f51","_nextEpochDurationInit()":"cc52aee7","_nextEpochDurationSetEpochsDelay()":"c4db46fc","_nextEpochInitIndex()":"2749f9c4","_prevEpochDuration()":"5a36aa74","_prevEpochDurationInit()":"6e0f2455","_prevEpochDurationInitIndex()":"98ccba4a","allowance(address,address)":"dd62ed3e","approve(address,uint256)":"095ea7b3","balanceOf(address)":"70a08231","burner()":"27810b6e","collateral()":"d8dfeb45","decimals()":"313ce567","delegator()":"ce9b7930","deposit(address,uint256)":"47e7ef24","depositLimit()":"ecf70858","depositWhitelist()":"48d3b775","flashFeeRate()":"e945da7f","flashFeeReceiver()":"a8b24f9a","flashLoanEnabled()":"65d61c6c","isDelegatorInitialized()":"50861adc","isDepositLimit()":"a1b12202","isDepositorWhitelisted(address)":"794b15b7","isSlasherInitialized()":"6ec1e3f8","isWithdrawalsClaimed(uint256,address)":"a5d03223","name()":"06fdde03","redeem(address,uint256)":"1e9a6950","slasher()":"b1344271","staticDelegateCall(address,bytes)":"9f86fd85","symbol()":"95d89b41","totalSupply()":"18160ddd","transfer(address,uint256)":"a9059cbb","transferFrom(address,address,uint256)":"23b872dd","withdraw(address,uint256)":"f3fef3a3","withdrawalShares(uint256)":"afba70ad","withdrawalSharesOf(uint256,address)":"a3b54172","withdrawals(uint256)":"5cc07076"},"id":110}