{"abi":[{"type":"constructor","inputs":[{"name":"baseImplementation","type":"address","internalType":"address"}],"stateMutability":"nonpayable"},{"type":"fallback","stateMutability":"payable"},{"type":"function","name":"DEPOSITOR_WHITELIST_ROLE","inputs":[],"outputs":[{"name":"","type":"bytes32","internalType":"bytes32"}],"stateMutability":"view"},{"type":"function","name":"DEPOSIT_LIMIT_SET_ROLE","inputs":[],"outputs":[{"name":"","type":"bytes32","internalType":"bytes32"}],"stateMutability":"view"},{"type":"function","name":"DEPOSIT_WHITELIST_SET_ROLE","inputs":[],"outputs":[{"name":"","type":"bytes32","internalType":"bytes32"}],"stateMutability":"view"},{"type":"function","name":"EPOCH_DURATION_SET_ROLE","inputs":[],"outputs":[{"name":"","type":"bytes32","internalType":"bytes32"}],"stateMutability":"view"},{"type":"function","name":"FLASH_FEE_BASE","inputs":[],"outputs":[{"name":"","type":"uint256","internalType":"uint256"}],"stateMutability":"view"},{"type":"function","name":"FLASH_FEE_RATE_SET_ROLE","inputs":[],"outputs":[{"name":"","type":"bytes32","internalType":"bytes32"}],"stateMutability":"view"},{"type":"function","name":"FLASH_FEE_RECEIVER_SET_ROLE","inputs":[],"outputs":[{"name":"","type":"bytes32","internalType":"bytes32"}],"stateMutability":"view"},{"type":"function","name":"IS_DEPOSIT_LIMIT_SET_ROLE","inputs":[],"outputs":[{"name":"","type":"bytes32","internalType":"bytes32"}],"stateMutability":"view"},{"type":"function","name":"RETURN_VALUE","inputs":[],"outputs":[{"name":"","type":"bytes32","internalType":"bytes32"}],"stateMutability":"view"},{"type":"function","name":"_VaultTokenized_init","inputs":[{"name":"name","type":"string","internalType":"string"},{"name":"symbol","type":"string","internalType":"string"}],"outputs":[],"stateMutability":"nonpayable"},{"type":"function","name":"allowance","inputs":[{"name":"owner","type":"address","internalType":"address"},{"name":"spender","type":"address","internalType":"address"}],"outputs":[{"name":"","type":"uint256","internalType":"uint256"}],"stateMutability":"view"},{"type":"function","name":"approve","inputs":[{"name":"spender","type":"address","internalType":"address"},{"name":"value","type":"uint256","internalType":"uint256"}],"outputs":[{"name":"","type":"bool","internalType":"bool"}],"stateMutability":"nonpayable"},{"type":"function","name":"balanceOf","inputs":[{"name":"account","type":"address","internalType":"address"}],"outputs":[{"name":"","type":"uint256","internalType":"uint256"}],"stateMutability":"view"},{"type":"function","name":"burner","inputs":[],"outputs":[{"name":"","type":"address","internalType":"address"}],"stateMutability":"view"},{"type":"function","name":"collateral","inputs":[],"outputs":[{"name":"","type":"address","internalType":"address"}],"stateMutability":"view"},{"type":"function","name":"decimals","inputs":[],"outputs":[{"name":"","type":"uint8","internalType":"uint8"}],"stateMutability":"view"},{"type":"function","name":"delegator","inputs":[],"outputs":[{"name":"","type":"address","internalType":"address"}],"stateMutability":"view"},{"type":"function","name":"deposit","inputs":[{"name":"onBehalfOf","type":"address","internalType":"address"},{"name":"amount","type":"uint256","internalType":"uint256"}],"outputs":[{"name":"depositedAmount","type":"uint256","internalType":"uint256"},{"name":"mintedShares","type":"uint256","internalType":"uint256"}],"stateMutability":"nonpayable"},{"type":"function","name":"depositLimit","inputs":[],"outputs":[{"name":"","type":"uint256","internalType":"uint256"}],"stateMutability":"view"},{"type":"function","name":"depositWhitelist","inputs":[],"outputs":[{"name":"","type":"bool","internalType":"bool"}],"stateMutability":"view"},{"type":"function","name":"epochDurationInitInternal","inputs":[],"outputs":[{"name":"","type":"uint48","internalType":"uint48"}],"stateMutability":"view"},{"type":"function","name":"epochDurationInternal","inputs":[],"outputs":[{"name":"","type":"uint48","internalType":"uint48"}],"stateMutability":"view"},{"type":"function","name":"epochDurationSetEpochsDelayInternal","inputs":[],"outputs":[{"name":"","type":"uint256","internalType":"uint256"}],"stateMutability":"view"},{"type":"function","name":"epochInitInternal","inputs":[],"outputs":[{"name":"","type":"uint256","internalType":"uint256"}],"stateMutability":"view"},{"type":"function","name":"flashFeeRate","inputs":[],"outputs":[{"name":"","type":"uint256","internalType":"uint256"}],"stateMutability":"view"},{"type":"function","name":"flashFeeReceiver","inputs":[],"outputs":[{"name":"","type":"address","internalType":"address"}],"stateMutability":"view"},{"type":"function","name":"isDelegatorInitialized","inputs":[],"outputs":[{"name":"","type":"bool","internalType":"bool"}],"stateMutability":"view"},{"type":"function","name":"isDepositLimit","inputs":[],"outputs":[{"name":"","type":"bool","internalType":"bool"}],"stateMutability":"view"},{"type":"function","name":"isDepositorWhitelisted","inputs":[{"name":"account","type":"address","internalType":"address"}],"outputs":[{"name":"value","type":"bool","internalType":"bool"}],"stateMutability":"view"},{"type":"function","name":"isSlasherInitialized","inputs":[],"outputs":[{"name":"","type":"bool","internalType":"bool"}],"stateMutability":"view"},{"type":"function","name":"isWithdrawalsClaimed","inputs":[{"name":"epoch","type":"uint256","internalType":"uint256"},{"name":"account","type":"address","internalType":"address"}],"outputs":[{"name":"value","type":"bool","internalType":"bool"}],"stateMutability":"view"},{"type":"function","name":"name","inputs":[],"outputs":[{"name":"","type":"string","internalType":"string"}],"stateMutability":"view"},{"type":"function","name":"nextEpochDurationInitInternal","inputs":[],"outputs":[{"name":"","type":"uint48","internalType":"uint48"}],"stateMutability":"view"},{"type":"function","name":"nextEpochDurationInternal","inputs":[],"outputs":[{"name":"","type":"uint48","internalType":"uint48"}],"stateMutability":"view"},{"type":"function","name":"nextEpochDurationSetEpochsDelayInternal","inputs":[],"outputs":[{"name":"","type":"uint256","internalType":"uint256"}],"stateMutability":"view"},{"type":"function","name":"nextEpochInitInternal","inputs":[],"outputs":[{"name":"","type":"uint256","internalType":"uint256"}],"stateMutability":"view"},{"type":"function","name":"prevEpochDurationInitInternal","inputs":[],"outputs":[{"name":"","type":"uint48","internalType":"uint48"}],"stateMutability":"view"},{"type":"function","name":"prevEpochDurationInternal","inputs":[],"outputs":[{"name":"","type":"uint48","internalType":"uint48"}],"stateMutability":"view"},{"type":"function","name":"prevEpochInitInternal","inputs":[],"outputs":[{"name":"","type":"uint256","internalType":"uint256"}],"stateMutability":"view"},{"type":"function","name":"redeem","inputs":[{"name":"claimer","type":"address","internalType":"address"},{"name":"shares","type":"uint256","internalType":"uint256"}],"outputs":[{"name":"withdrawnAssets","type":"uint256","internalType":"uint256"},{"name":"mintedShares","type":"uint256","internalType":"uint256"}],"stateMutability":"nonpayable"},{"type":"function","name":"slasher","inputs":[],"outputs":[{"name":"","type":"address","internalType":"address"}],"stateMutability":"view"},{"type":"function","name":"staticDelegateCall","inputs":[{"name":"target","type":"address","internalType":"address"},{"name":"data","type":"bytes","internalType":"bytes"}],"outputs":[],"stateMutability":"nonpayable"},{"type":"function","name":"symbol","inputs":[],"outputs":[{"name":"","type":"string","internalType":"string"}],"stateMutability":"view"},{"type":"function","name":"totalSupply","inputs":[],"outputs":[{"name":"","type":"uint256","internalType":"uint256"}],"stateMutability":"view"},{"type":"function","name":"transfer","inputs":[{"name":"to","type":"address","internalType":"address"},{"name":"value","type":"uint256","internalType":"uint256"}],"outputs":[{"name":"","type":"bool","internalType":"bool"}],"stateMutability":"nonpayable"},{"type":"function","name":"transferFrom","inputs":[{"name":"from","type":"address","internalType":"address"},{"name":"to","type":"address","internalType":"address"},{"name":"value","type":"uint256","internalType":"uint256"}],"outputs":[{"name":"","type":"bool","internalType":"bool"}],"stateMutability":"nonpayable"},{"type":"function","name":"withdraw","inputs":[{"name":"claimer","type":"address","internalType":"address"},{"name":"amount","type":"uint256","internalType":"uint256"}],"outputs":[{"name":"burnedShares","type":"uint256","internalType":"uint256"},{"name":"mintedShares","type":"uint256","internalType":"uint256"}],"stateMutability":"nonpayable"},{"type":"function","name":"withdrawalShares","inputs":[{"name":"epoch","type":"uint256","internalType":"uint256"}],"outputs":[{"name":"amount","type":"uint256","internalType":"uint256"}],"stateMutability":"view"},{"type":"function","name":"withdrawalSharesOf","inputs":[{"name":"epoch","type":"uint256","internalType":"uint256"},{"name":"account","type":"address","internalType":"address"}],"outputs":[{"name":"amount","type":"uint256","internalType":"uint256"}],"stateMutability":"view"},{"type":"function","name":"withdrawals","inputs":[{"name":"epoch","type":"uint256","internalType":"uint256"}],"outputs":[{"name":"amount","type":"uint256","internalType":"uint256"}],"stateMutability":"view"},{"type":"event","name":"Approval","inputs":[{"name":"owner","type":"address","indexed":true,"internalType":"address"},{"name":"spender","type":"address","indexed":true,"internalType":"address"},{"name":"value","type":"uint256","indexed":false,"internalType":"uint256"}],"anonymous":false},{"type":"event","name":"Initialized","inputs":[{"name":"version","type":"uint64","indexed":false,"internalType":"uint64"}],"anonymous":false},{"type":"event","name":"Transfer","inputs":[{"name":"from","type":"address","indexed":true,"internalType":"address"},{"name":"to","type":"address","indexed":true,"internalType":"address"},{"name":"value","type":"uint256","indexed":false,"internalType":"uint256"}],"anonymous":false},{"type":"error","name":"AddressEmptyCode","inputs":[{"name":"target","type":"address","internalType":"address"}]},{"type":"error","name":"CheckpointUnorderedInsertion","inputs":[]},{"type":"error","name":"ERC20InsufficientAllowance","inputs":[{"name":"spender","type":"address","internalType":"address"},{"name":"allowance","type":"uint256","internalType":"uint256"},{"name":"needed","type":"uint256","internalType":"uint256"}]},{"type":"error","name":"ERC20InsufficientBalance","inputs":[{"name":"sender","type":"address","internalType":"address"},{"name":"balance","type":"uint256","internalType":"uint256"},{"name":"needed","type":"uint256","internalType":"uint256"}]},{"type":"error","name":"ERC20InvalidApprover","inputs":[{"name":"approver","type":"address","internalType":"address"}]},{"type":"error","name":"ERC20InvalidReceiver","inputs":[{"name":"receiver","type":"address","internalType":"address"}]},{"type":"error","name":"ERC20InvalidSender","inputs":[{"name":"sender","type":"address","internalType":"address"}]},{"type":"error","name":"ERC20InvalidSpender","inputs":[{"name":"spender","type":"address","internalType":"address"}]},{"type":"error","name":"FailedCall","inputs":[]},{"type":"error","name":"InvalidInitialization","inputs":[]},{"type":"error","name":"NotInitializing","inputs":[]},{"type":"error","name":"ReentrancyGuardReentrantCall","inputs":[]},{"type":"error","name":"SafeCastOverflowedUintDowncast","inputs":[{"name":"bits","type":"uint8","internalType":"uint8"},{"name":"value","type":"uint256","internalType":"uint256"}]}],"bytecode":{"object":"0x60a034606d57601f611cd238819003918201601f19168301916001600160401b03831184841017607157808492602094604052833981010312606d57516001600160a01b0381168103606d57608052604051611c4c908161008682396080518181816106e901526116300152f35b5f80fd5b634e487b7160e01b5f52604160045260245ffdfe608060405260043610611626575f3560e01c806306fdde031461032b578063095ea7b3146103265780630fcaeb1b146103215780631415519b1461031c57806318160ddd146103175780631b66c9e1146103125780631e89bd8a1461030d5780631e9a69501461030857806323b872dd1461030357806327810b6e146102fe578063313ce567146102f957806331d9736c146102f457806347e7ef24146102ef57806348d3b775146102ea578063502b4d60146102e557806350861adc146102e05780635cc07076146102db578063602bd8e7146102d657806361819dd8146102d157806364601402146102cc578063653b04cd146102c75780636ec1e3f8146102c257806370a08231146102bd57806375d6c765146102b8578063794b15b7146102b35780637e84ec81146102ae5780638d30d7a7146102a957806395d89b41146102a45780639f86fd851461029f578063a1b122021461029a578063a21a1df914610295578063a3b5417214610290578063a5d032231461028b578063a8b24f9a14610286578063a9059cbb14610281578063afba70ad1461027c578063b134427114610277578063bc46f72214610272578063bc4f8c051461026d578063ce9b793014610268578063d2356eb514610263578063d8dfeb451461025e578063db38871514610259578063dd62ed3e14610254578063ddd0f28a1461024f578063e945da7f1461024a578063ecc98f0514610245578063ecf7085814610240578063f3fef3a31461023b5763fcdc5b6003611626576112a7565b611222565b611205565b6111e7565b6111ca565b6111ad565b61117e565b611144565b611119565b6110fc565b6110d4565b6110b7565b61107d565b611055565b61102b565b610ffa565b610fd2565b610f84565b610f3b565b610f01565b610edd565b610e5a565b610da8565b610d83565b610d5b565b610d1e565b610cbe565b610c87565b610c62565b610c28565b610c00565b610bc6565b610a46565b6109ee565b6109c9565b6109a1565b610980565b6108f1565b6108b7565b61081f565b6107f7565b610749565b610683565b610663565b610629565b61059d565b610563565b610546565b610488565b610368565b805180835260209291819084018484015e5f828201840152601f01601f1916010190565b906020610365928181520190610330565b90565b34610458575f366003190112610458576040515f5f80516020611bb7833981519152805490610396826112c4565b8085529160209160019182811690811561042b57506001146103d3575b6103cf866103c381880382611310565b60405191829182610354565b0390f35b5f90815293507f2ae08a8e29253f69ac5d979a101956ab8f8d9d7ded63fa7a83b16fc47648eab05b838510610418575050505081016020016103c3826103cf5f6103b3565b80548686018401529382019381016103fb565b90508695506103cf969350602092506103c394915060ff191682840152151560051b82010192935f6103b3565b5f80fd5b600435906001600160a01b038216820361045857565b602435906001600160a01b038216820361045857565b34610458576040366003190112610458576104a161045c565b602435331561052e576001600160a01b038216918215610516576104de82916104c933610ce6565b9060018060a01b03165f5260205260405f2090565b556040519081527f8c5be1e5ebec7d5bd14f71427d1e84f3dd0314c0f7b2291e5b200ac8c7c3b92560203392a3602060405160018152f35b604051634a1406b160e11b81525f6004820152602490fd5b60405163e602df0560e01b81525f6004820152602490fd5b34610458575f366003190112610458576020601154604051908152f35b34610458575f3660031901126104585760206040517fc6aaadd7371d5e8f9ed6849dd66a66573a3ba37167d03f4352c9ba5693678fac8152f35b34610458575f36600319011261045857600a54806105eb57505f5b6001600160d01b038116156105e2576105d2602091611402565b90549060031b1c5b604051908152f35b5060205f6105da565b805f1981011161062457600a5f527fc65a7bb8d6351c1cf70c95a316cc6a92839c986682d98bc35f958f4883f9d2a7015460301c6105b8565b611662565b34610458575f3660031901126104585760206040517f9c56d972d63cbb4195b3c1484691dfc220fa96a4c47e7b6613bd82a022029e068152f35b34610458575f36600319011261045857602060015460d01c604051908152f35b34610458576040366003190112610458575f6106e761071c61070d6106a661045c565b6040516301e9a69560e41b60208201526001600160a01b0390911660248281019190915235604482018190529381606481015b03601f198101835282611310565b7f00000000000000000000000000000000000000000000000000000000000000006114b3565b60208082518301019101611332565b9290916040519081525f80516020611bf783398151915260203392a3604080519182526020820192909252f35b346104585760603660031901126104585761076261045c565b61076a610472565b6044359061077b336104c985610ce6565b54926001840161079c575b61079093506114d0565b60405160018152602090f35b8284106107d1576001600160a01b0381161561052e573315610516578261079094036107cb336104c984610ce6565b55610786565b604051637dc7a0d960e11b81523360048201526024810185905260448101849052606490fd5b34610458575f366003190112610458576001546040516001600160a01b039091168152602090f35b34610458575f366003190112610458575f5460405163313ce56760e01b8152906020908290600490829060101c6001600160a01b03165afa80156108ac576103cf915f9161087d575b5060405160ff90911681529081906020820190565b61089f915060203d6020116108a5575b6108978183611310565b810190611348565b5f610868565b503d61088d565b6040513d5f823e3d90fd5b34610458575f3660031901126104585760206040517f5295aaaa27fdd659293eafacbfafbc634c1b96298957e87de5f59308cdbfdad18152f35b346104585760403660031901126104585761090a61045c565b6040516311f9fbc960e21b60208201526001600160a01b0382166024808301919091523560448201526109489061070d906106e781606481016106d9565b60405181815290926001600160a01b0316905f905f80516020611bf783398151915290602090a3604080519182526020820192909252f35b34610458575f36600319011261045857602060ff5f54166040519015158152f35b34610458575f36600319011261045857602065ffffffffffff60135460901c16604051908152f35b34610458575f36600319011261045857602060ff60025460a01c166040519015158152f35b34610458576020366003190112610458576004355f526006602052602060405f2054604051908152f35b9181601f840112156104585782359167ffffffffffffffff8311610458576020838186019501011161045857565b346104585760403660031901126104585767ffffffffffffffff60043581811161045857610a78903690600401610a18565b6024359083821161045857610aa1610a97610aa9933690600401610a18565b949092369161139d565b92369161139d565b90610ab26116e7565b610aba6116e7565b8051928311610bc1575f80516020611bb783398151915290610ae584610ae084546112c4565b611728565b602090816001601f871114610b2e57509380610b1a92610b21965f92610b23575b50508160011b915f199060031b1c19161790565b905561181a565b005b015190505f80610b06565b5f80516020611bb78339815191525f529190601f1986167f2ae08a8e29253f69ac5d979a101956ab8f8d9d7ded63fa7a83b16fc47648eab0935f905b828210610ba9575050916001939187610b21989410610b91575b505050811b01905561181a565b01515f1960f88460031b161c191690555f8080610b84565b80600186978294978701518155019601940190610b6a565b6112fc565b34610458575f3660031901126104585760206040517f591f6a0113ada8aff67efadec8ae2fa585cb4ebf4e1f8fc1205ffbeff98d00ec8152f35b34610458575f36600319011261045857602065ffffffffffff60015460a01c16604051908152f35b34610458575f3660031901126104585760206040517f439148f0bbc682ca079e46d6e2c2f0c1e3b820f1a291b069d8882abf8cf18dd98152f35b34610458575f36600319011261045857602060ff60035460a01c166040519015158152f35b34610458576020366003190112610458576001600160a01b03610ca861045c565b165f52600e60205260206105da60405f20611460565b34610458575f36600319011261045857602065ffffffffffff60135460601c16604051908152f35b6001600160a01b03165f9081527f52c63247e1f47db19d5ce0460030c497f067ca4cebf71ba98eeadabe20bace016020526040902090565b34610458576020366003190112610458576001600160a01b03610d3f61045c565b165f526005602052602060ff60405f2054166040519015158152f35b34610458575f36600319011261045857602065ffffffffffff60135460301c16604051908152f35b34610458575f36600319011261045857602065ffffffffffff60135416604051908152f35b34610458575f366003190112610458576040515f5f80516020611bd7833981519152805490610dd6826112c4565b8085529160209160019182811690811561042b5750600114610e02576103cf866103c381880382611310565b5f90815293507f46a2803e59a4de4e7a4c574b1243f25977ac4c77d5a1a4a609b5394cebb4a2aa5b838510610e47575050505081016020016103c3826103cf5f6103b3565b8054868601840152938201938101610e2a565b3461045857604036600319011261045857610e7361045c565b60243567ffffffffffffffff8111610458575f91610e9683923690600401610a18565b90816040519283928337810184815203915af4610ed5610eb46113d3565b916106d9604051938492151560208401526040808401526060830190610330565b805190602001fd5b34610458575f36600319011261045857602060ff5f5460081c166040519015158152f35b34610458575f3660031901126104585760206040517f4a634bc14d77baf979756509ef4298c6f6318af357828612545267ee2eb792338152f35b34610458576040366003190112610458576020610f7b610f59610472565b6004355f526008835260405f209060018060a01b03165f5260205260405f2090565b54604051908152f35b3461045857604036600319011261045857602060ff610fc6610fa4610472565b6004355f526009845260405f209060018060a01b03165f5260205260405f2090565b54166040519015158152f35b34610458575f366003190112610458576016546040516001600160a01b039091168152602090f35b346104585760403660031901126104585761102061101661045c565b60243590336114d0565b602060405160018152f35b34610458576020366003190112610458576004355f526007602052602060405f2054604051908152f35b34610458575f366003190112610458576003546040516001600160a01b039091168152602090f35b34610458575f3660031901126104585760206040517fc9078c78bcaac2be1c77c160c539a489be2b72939771b1a6302fed3e2150c7458152f35b34610458575f366003190112610458576020601054604051908152f35b34610458575f366003190112610458576002546040516001600160a01b039091168152602090f35b34610458575f366003190112610458576020601254604051908152f35b34610458575f366003190112610458575f5460405160109190911c6001600160a01b03168152602090f35b34610458575f3660031901126104585760206040517fbae4ee3de6c709ff9a002e774c5b78cb381560b219213c88ae0f1e207c03c0238152f35b34610458576040366003190112610458576020610f7b61119c61045c565b6104c96111a7610472565b91610ce6565b34610458575f366003190112610458576020601454604051908152f35b34610458575f366003190112610458576020601554604051908152f35b34610458575f366003190112610458576020604051633b9aca008152f35b34610458575f366003190112610458576020600454604051908152f35b346104585760403660031901126104585761127b61070d6106d96106e761124761045c565b60405163f3fef3a360e01b60208201526001600160a01b039091166024808301919091523560448201529182906064820190565b905f6040518281525f80516020611bf783398151915260203392a3604080519182526020820192909252f35b34610458575f366003190112610458576020600f54604051908152f35b90600182811c921680156112f2575b60208310146112de57565b634e487b7160e01b5f52602260045260245ffd5b91607f16916112d3565b634e487b7160e01b5f52604160045260245ffd5b90601f8019910116810190811067ffffffffffffffff821117610bc157604052565b9190826040910312610458576020825192015190565b90816020910312610458575160ff811681036104585790565b604051906040820182811067ffffffffffffffff821117610bc157604052565b67ffffffffffffffff8111610bc157601f01601f191660200190565b9291926113a982611381565b916113b76040519384611310565b829481845281830111610458578281602093845f960137010152565b3d156113fd573d906113e482611381565b916113f26040519384611310565b82523d5f602084013e565b606090565b600b5481101561143757600b5f527f0175b7a638427703f0dbe7bb9bbf987a2551717b34e79f33b5b1008d1fa01db901905f90565b634e487b7160e01b5f52603260045260245ffd5b8054821015611437575f5260205f2001905f90565b80548061149557505f5b6001600160d01b0381161561148f576001611485920161144b565b90549060031b1c90565b50505f90565b5f1990808281011161062457825f5260205f2001015460301c61146a565b5f8061036593602081519101845af46114ca6113d3565b91611684565b916001600160a01b038084169290831561160e5781169384156115f6576001600160a01b0381165f908152600e6020526040902061151290611460565b611460565b908382106115c4576115bf926115615f80516020611bf7833981519152959361154e6115ad9460018060a01b03165f52600e60205260405f2090565b908561155942611a13565b910391611951565b50506001600160a01b0381165f908152600e6020526040902090836115a661150d61158b42611a13565b6001600160a01b039094165f908152600e6020526040902090565b0191611951565b50506040519081529081906020820190565b0390a3565b60405163391434e360e21b81526001600160a01b03919091166004820152602481019190915260448101839052606490fd5b60405163ec442f0560e01b81525f6004820152602490fd5b604051634b637e8f60e11b81525f6004820152602490fd5b365f80375f8036817f00000000000000000000000000000000000000000000000000000000000000005af43d5f803e1561165e573d5ff35b3d5ffd5b634e487b7160e01b5f52601160045260245ffd5b5f1981019190821161062457565b906116ab575080511561169957805190602001fd5b60405163d6bda27560e01b8152600490fd5b815115806116de575b6116bc575090565b604051639996b31560e01b81526001600160a01b039091166004820152602490fd5b50803b156116b4565b60ff7ff0c57e16840df040f15088dc2f81fe391c3923bec73e23a9662efc9c229c6a005460401c161561171657565b604051631afcd79f60e31b8152600490fd5b601f8111611734575050565b5f80516020611bb78339815191525f527f2ae08a8e29253f69ac5d979a101956ab8f8d9d7ded63fa7a83b16fc47648eab0906020601f840160051c83019310611797575b601f0160051c01905b81811061178c575050565b5f8155600101611781565b9091508190611778565b601f81116117ad575050565b5f80516020611bd78339815191525f527f46a2803e59a4de4e7a4c574b1243f25977ac4c77d5a1a4a609b5394cebb4a2aa906020601f840160051c83019310611810575b601f0160051c01905b818110611805575050565b5f81556001016117fa565b90915081906117f1565b90815167ffffffffffffffff8111610bc1575f80516020611bd78339815191529061184e8161184984546112c4565b6117a1565b602080601f83116001146118835750819061187f9394955f92610b235750508160011b915f199060031b1c19161790565b9055565b90601f198316956118c15f80516020611bd78339815191525f527f46a2803e59a4de4e7a4c574b1243f25977ac4c77d5a1a4a609b5394cebb4a2aa90565b925f905b8882106118fc575050836001959697106118e4575b505050811b019055565b01515f1960f88460031b161c191690555f80806118da565b806001859682949686015181550195019301906118c5565b90815491600160401b831015610bc1578261193791600161194f9501815561144b565b90919082549060031b91821b915f19901b1916179055565b565b909291926001820190815480156119e3575b508461196e84611a45565b5094909284549361197e83611460565b96816119ce575b50156119ab575050505f1981019081116106245761193785916119a79361144b565b9190565b6119a79492936119c7926001600160d01b039091169190611ad9565b5050611914565b65ffffffffffff83811691161490505f611985565b600160401b811015610bc1578060016119ff920184558361144b565b8154905f199060031b1b191690555f611963565b65ffffffffffff90818111611a26571690565b604490604051906306dfcc6560e41b8252603060048301526024820152fd5b805480611a565750505f905f905f90565b5f19918183810111610624575f5260205f2001015460019165ffffffffffff82169160301c90565b8054600160401b811015610bc157611a9b9160018201815561144b565b611ac657815160209092015160301b65ffffffffffff191665ffffffffffff92909216919091179055565b634e487b7160e01b5f525f60045260245ffd5b80549293928015611b8c57611af0611afb91611676565b825f5260205f200190565b9182549265ffffffffffff91828516928116808411611b7a57879303611b415750611b3a92509065ffffffffffff82549181199060301b169116179055565b60301c9190565b915050611b7591611b61611b53611361565b65ffffffffffff9093168352565b6001600160d01b0386166020830152611a7e565b611b3a565b604051632520601d60e01b8152600490fd5b5090611bb191611b9d611b53611361565b6001600160d01b0385166020830152611a7e565b5f919056fe52c63247e1f47db19d5ce0460030c497f067ca4cebf71ba98eeadabe20bace0352c63247e1f47db19d5ce0460030c497f067ca4cebf71ba98eeadabe20bace04ddf252ad1be2c89b69c2b068fc378daa952ba7f163c4a11628f55a4df523b3efa2646970667358221220e67226e24545d50f54ac86049d1cffc4e995c07f0661e98a25a820abd658adf764736f6c63430008190033","linkReferences":{}},"methodIdentifiers":{"DEPOSITOR_WHITELIST_ROLE()":"1b66c9e1","DEPOSIT_LIMIT_SET_ROLE()":"a21a1df9","DEPOSIT_WHITELIST_SET_ROLE()":"db388715","EPOCH_DURATION_SET_ROLE()":"61819dd8","FLASH_FEE_BASE()":"ecc98f05","FLASH_FEE_RATE_SET_ROLE()":"bc46f722","FLASH_FEE_RECEIVER_SET_ROLE()":"31d9736c","IS_DEPOSIT_LIMIT_SET_ROLE()":"1415519b","RETURN_VALUE()":"653b04cd","_VaultTokenized_init(string,string)":"602bd8e7","allowance(address,address)":"dd62ed3e","approve(address,uint256)":"095ea7b3","balanceOf(address)":"70a08231","burner()":"27810b6e","collateral()":"d8dfeb45","decimals()":"313ce567","delegator()":"ce9b7930","deposit(address,uint256)":"47e7ef24","depositLimit()":"ecf70858","depositWhitelist()":"48d3b775","epochDurationInitInternal()":"64601402","epochDurationInternal()":"1e89bd8a","epochDurationSetEpochsDelayInternal()":"fcdc5b60","epochInitInternal()":"0fcaeb1b","flashFeeRate()":"e945da7f","flashFeeReceiver()":"a8b24f9a","isDelegatorInitialized()":"50861adc","isDepositLimit()":"a1b12202","isDepositorWhitelisted(address)":"794b15b7","isSlasherInitialized()":"6ec1e3f8","isWithdrawalsClaimed(uint256,address)":"a5d03223","name()":"06fdde03","nextEpochDurationInitInternal()":"75d6c765","nextEpochDurationInternal()":"502b4d60","nextEpochDurationSetEpochsDelayInternal()":"bc4f8c05","nextEpochInitInternal()":"ddd0f28a","prevEpochDurationInitInternal()":"8d30d7a7","prevEpochDurationInternal()":"7e84ec81","prevEpochInitInternal()":"d2356eb5","redeem(address,uint256)":"1e9a6950","slasher()":"b1344271","staticDelegateCall(address,bytes)":"9f86fd85","symbol()":"95d89b41","totalSupply()":"18160ddd","transfer(address,uint256)":"a9059cbb","transferFrom(address,address,uint256)":"23b872dd","withdraw(address,uint256)":"f3fef3a3","withdrawalShares(uint256)":"afba70ad","withdrawalSharesOf(uint256,address)":"a3b54172","withdrawals(uint256)":"5cc07076"},"id":110}